{
  "_format": "hh-sol-artifact-1",
  "contractName": "AchievementNFTOnChain",
  "sourceName": "contracts/AchievementNFTOnChain.sol",
  "abi": [
    {
      "inputs": [
        {
          "internalType": "address",
          "name": "_signer",
          "type": "address"
        }
      ],
      "stateMutability": "nonpayable",
      "type": "constructor"
    },
    {
      "anonymous": false,
      "inputs": [
        {
          "indexed": true,
          "internalType": "address",
          "name": "player",
          "type": "address"
        },
        {
          "indexed": true,
          "internalType": "uint256",
          "name": "tokenId",
          "type": "uint256"
        },
        {
          "indexed": false,
          "internalType": "uint256",
          "name": "achievementTypeId",
          "type": "uint256"
        }
      ],
      "name": "AchievementMinted",
      "type": "event"
    },
    {
      "anonymous": false,
      "inputs": [
        {
          "indexed": true,
          "internalType": "address",
          "name": "owner",
          "type": "address"
        },
        {
          "indexed": true,
          "internalType": "address",
          "name": "approved",
          "type": "address"
        },
        {
          "indexed": true,
          "internalType": "uint256",
          "name": "tokenId",
          "type": "uint256"
        }
      ],
      "name": "Approval",
      "type": "event"
    },
    {
      "anonymous": false,
      "inputs": [
        {
          "indexed": true,
          "internalType": "address",
          "name": "owner",
          "type": "address"
        },
        {
          "indexed": true,
          "internalType": "address",
          "name": "operator",
          "type": "address"
        },
        {
          "indexed": false,
          "internalType": "bool",
          "name": "approved",
          "type": "bool"
        }
      ],
      "name": "ApprovalForAll",
      "type": "event"
    },
    {
      "anonymous": false,
      "inputs": [
        {
          "indexed": true,
          "internalType": "address",
          "name": "from",
          "type": "address"
        },
        {
          "indexed": true,
          "internalType": "address",
          "name": "to",
          "type": "address"
        },
        {
          "indexed": true,
          "internalType": "uint256",
          "name": "tokenId",
          "type": "uint256"
        }
      ],
      "name": "Transfer",
      "type": "event"
    },
    {
      "inputs": [
        {
          "internalType": "uint256",
          "name": "",
          "type": "uint256"
        }
      ],
      "name": "achievementMintPrices",
      "outputs": [
        {
          "internalType": "uint256",
          "name": "",
          "type": "uint256"
        }
      ],
      "stateMutability": "view",
      "type": "function"
    },
    {
      "inputs": [
        {
          "internalType": "uint256",
          "name": "",
          "type": "uint256"
        }
      ],
      "name": "achievementMonthlyLimits",
      "outputs": [
        {
          "internalType": "uint256",
          "name": "",
          "type": "uint256"
        }
      ],
      "stateMutability": "view",
      "type": "function"
    },
    {
      "inputs": [
        {
          "internalType": "uint256",
          "name": "",
          "type": "uint256"
        }
      ],
      "name": "achievementNames",
      "outputs": [
        {
          "internalType": "string",
          "name": "",
          "type": "string"
        }
      ],
      "stateMutability": "view",
      "type": "function"
    },
    {
      "inputs": [
        {
          "internalType": "address",
          "name": "to",
          "type": "address"
        },
        {
          "internalType": "uint256",
          "name": "tokenId",
          "type": "uint256"
        }
      ],
      "name": "approve",
      "outputs": [],
      "stateMutability": "nonpayable",
      "type": "function"
    },
    {
      "inputs": [
        {
          "internalType": "address",
          "name": "account",
          "type": "address"
        }
      ],
      "name": "balanceOf",
      "outputs": [
        {
          "internalType": "uint256",
          "name": "",
          "type": "uint256"
        }
      ],
      "stateMutability": "view",
      "type": "function"
    },
    {
      "inputs": [],
      "name": "baseURI",
      "outputs": [
        {
          "internalType": "string",
          "name": "",
          "type": "string"
        }
      ],
      "stateMutability": "view",
      "type": "function"
    },
    {
      "inputs": [
        {
          "internalType": "uint256",
          "name": "achievementTypeId",
          "type": "uint256"
        },
        {
          "internalType": "uint256",
          "name": "timestamp",
          "type": "uint256"
        },
        {
          "internalType": "string",
          "name": "gameId",
          "type": "string"
        },
        {
          "internalType": "string",
          "name": "metadata",
          "type": "string"
        },
        {
          "internalType": "uint8",
          "name": "v",
          "type": "uint8"
        },
        {
          "internalType": "bytes32",
          "name": "r",
          "type": "bytes32"
        },
        {
          "internalType": "bytes32",
          "name": "s",
          "type": "bytes32"
        }
      ],
      "name": "claimNFT",
      "outputs": [
        {
          "internalType": "uint256",
          "name": "",
          "type": "uint256"
        }
      ],
      "stateMutability": "payable",
      "type": "function"
    },
    {
      "inputs": [
        {
          "internalType": "bytes32",
          "name": "",
          "type": "bytes32"
        }
      ],
      "name": "claimRecord",
      "outputs": [
        {
          "internalType": "bool",
          "name": "",
          "type": "bool"
        }
      ],
      "stateMutability": "view",
      "type": "function"
    },
    {
      "inputs": [
        {
          "internalType": "uint256",
          "name": "tokenId",
          "type": "uint256"
        }
      ],
      "name": "getApproved",
      "outputs": [
        {
          "internalType": "address",
          "name": "",
          "type": "address"
        }
      ],
      "stateMutability": "view",
      "type": "function"
    },
    {
      "inputs": [
        {
          "internalType": "uint256",
          "name": "achievementTypeId",
          "type": "uint256"
        }
      ],
      "name": "getMonthlyRemaining",
      "outputs": [
        {
          "internalType": "uint256",
          "name": "",
          "type": "uint256"
        }
      ],
      "stateMutability": "view",
      "type": "function"
    },
    {
      "inputs": [
        {
          "internalType": "address",
          "name": "owner_",
          "type": "address"
        },
        {
          "internalType": "address",
          "name": "operator",
          "type": "address"
        }
      ],
      "name": "isApprovedForAll",
      "outputs": [
        {
          "internalType": "bool",
          "name": "",
          "type": "bool"
        }
      ],
      "stateMutability": "view",
      "type": "function"
    },
    {
      "inputs": [
        {
          "internalType": "uint256",
          "name": "",
          "type": "uint256"
        },
        {
          "internalType": "uint256",
          "name": "",
          "type": "uint256"
        }
      ],
      "name": "monthlyMinted",
      "outputs": [
        {
          "internalType": "uint256",
          "name": "",
          "type": "uint256"
        }
      ],
      "stateMutability": "view",
      "type": "function"
    },
    {
      "inputs": [],
      "name": "name",
      "outputs": [
        {
          "internalType": "string",
          "name": "",
          "type": "string"
        }
      ],
      "stateMutability": "view",
      "type": "function"
    },
    {
      "inputs": [],
      "name": "owner",
      "outputs": [
        {
          "internalType": "address",
          "name": "",
          "type": "address"
        }
      ],
      "stateMutability": "view",
      "type": "function"
    },
    {
      "inputs": [
        {
          "internalType": "uint256",
          "name": "tokenId",
          "type": "uint256"
        }
      ],
      "name": "ownerOf",
      "outputs": [
        {
          "internalType": "address",
          "name": "",
          "type": "address"
        }
      ],
      "stateMutability": "view",
      "type": "function"
    },
    {
      "inputs": [
        {
          "internalType": "address",
          "name": "from",
          "type": "address"
        },
        {
          "internalType": "address",
          "name": "to",
          "type": "address"
        },
        {
          "internalType": "uint256",
          "name": "tokenId",
          "type": "uint256"
        }
      ],
      "name": "safeTransferFrom",
      "outputs": [],
      "stateMutability": "nonpayable",
      "type": "function"
    },
    {
      "inputs": [
        {
          "internalType": "address",
          "name": "operator",
          "type": "address"
        },
        {
          "internalType": "bool",
          "name": "approved",
          "type": "bool"
        }
      ],
      "name": "setApprovalForAll",
      "outputs": [],
      "stateMutability": "nonpayable",
      "type": "function"
    },
    {
      "inputs": [
        {
          "internalType": "string",
          "name": "_baseURI",
          "type": "string"
        }
      ],
      "name": "setBaseURI",
      "outputs": [],
      "stateMutability": "nonpayable",
      "type": "function"
    },
    {
      "inputs": [
        {
          "internalType": "address",
          "name": "_signer",
          "type": "address"
        }
      ],
      "name": "setSigner",
      "outputs": [],
      "stateMutability": "nonpayable",
      "type": "function"
    },
    {
      "inputs": [
        {
          "internalType": "uint256",
          "name": "tokenId",
          "type": "uint256"
        },
        {
          "internalType": "string",
          "name": "metadata",
          "type": "string"
        }
      ],
      "name": "setTokenMetadata",
      "outputs": [],
      "stateMutability": "nonpayable",
      "type": "function"
    },
    {
      "inputs": [],
      "name": "signatureValidity",
      "outputs": [
        {
          "internalType": "uint256",
          "name": "",
          "type": "uint256"
        }
      ],
      "stateMutability": "view",
      "type": "function"
    },
    {
      "inputs": [],
      "name": "signer",
      "outputs": [
        {
          "internalType": "address",
          "name": "",
          "type": "address"
        }
      ],
      "stateMutability": "view",
      "type": "function"
    },
    {
      "inputs": [
        {
          "internalType": "bytes4",
          "name": "interfaceId",
          "type": "bytes4"
        }
      ],
      "name": "supportsInterface",
      "outputs": [
        {
          "internalType": "bool",
          "name": "",
          "type": "bool"
        }
      ],
      "stateMutability": "pure",
      "type": "function"
    },
    {
      "inputs": [],
      "name": "symbol",
      "outputs": [
        {
          "internalType": "string",
          "name": "",
          "type": "string"
        }
      ],
      "stateMutability": "view",
      "type": "function"
    },
    {
      "inputs": [
        {
          "internalType": "uint256",
          "name": "",
          "type": "uint256"
        }
      ],
      "name": "tokenAchievementType",
      "outputs": [
        {
          "internalType": "uint256",
          "name": "",
          "type": "uint256"
        }
      ],
      "stateMutability": "view",
      "type": "function"
    },
    {
      "inputs": [
        {
          "internalType": "uint256",
          "name": "",
          "type": "uint256"
        }
      ],
      "name": "tokenMetadata",
      "outputs": [
        {
          "internalType": "string",
          "name": "",
          "type": "string"
        }
      ],
      "stateMutability": "view",
      "type": "function"
    },
    {
      "inputs": [
        {
          "internalType": "uint256",
          "name": "tokenId",
          "type": "uint256"
        }
      ],
      "name": "tokenURI",
      "outputs": [
        {
          "internalType": "string",
          "name": "",
          "type": "string"
        }
      ],
      "stateMutability": "view",
      "type": "function"
    },
    {
      "inputs": [
        {
          "internalType": "address",
          "name": "from",
          "type": "address"
        },
        {
          "internalType": "address",
          "name": "to",
          "type": "address"
        },
        {
          "internalType": "uint256",
          "name": "tokenId",
          "type": "uint256"
        }
      ],
      "name": "transferFrom",
      "outputs": [],
      "stateMutability": "nonpayable",
      "type": "function"
    },
    {
      "inputs": [
        {
          "internalType": "uint256",
          "name": "achievementTypeId",
          "type": "uint256"
        },
        {
          "internalType": "uint256",
          "name": "monthlyLimit",
          "type": "uint256"
        },
        {
          "internalType": "uint256",
          "name": "mintPrice",
          "type": "uint256"
        }
      ],
      "name": "updateAchievement",
      "outputs": [],
      "stateMutability": "nonpayable",
      "type": "function"
    },
    {
      "inputs": [],
      "name": "withdraw",
      "outputs": [],
      "stateMutability": "nonpayable",
      "type": "function"
    },
    {
      "stateMutability": "payable",
      "type": "receive"
    }
  ],
  "bytecode": "0x60803461064f57601f6120a538819003918201601f19168301916001600160401b038311848410176106535780849260209460405283398101031261064f57516001600160a01b0381169081900361064f5761005b5f54610667565b601f8111610608575b507f506f6b657220416368696576656d656e74204e4654000000000000000000002a5f5560015461009490610667565b601f81116105c0575b50600a64141053919560da1b0160015562093a80600555801561058a57600380546001600160a01b031990811633179091556004805490911691909117905560015f52600a6020527fbbc70db1b6c7afd11e79c0fb0051300458f1a3acb8ee9789d9b6b26c61ad9bc7805461011190610667565b601f8111610560575b507f526f79616c20466c7573680000000000000000000000000000000000000000169055600a7f72c6bfb7988af3a1efa6568f02a999bc52252641c659d85961ca3d372b57d5cf819055624c4b407fd421a5181c571bba3f01190c922c3b2a896fc1d84e86c9f17ac10e67ebef8b5c5560025f526020527fbff4442b8ed600beeb8e26b1279a0f0d14c6edfaec26d968ee13c86f7d4c2ba880546101c7906101c190610667565b8261069f565b7f537472616967687420466c75736800000000000000000000000000000000001c905560147fa50eece07c7db1631545c0069bd8f5f54d5935e215d59097edf258a44ba9163455624c4b407f5d6016397a73f5e079297ac5a36fef17b4d9c3831618e63ab105738020ddd7205560035f52600a6020527fa856840544dc26124927add067d799967eac11be13e14d82cc281ea46fa39759805461026d906101c190610667565b7f466f7572206f662061204b696e6400000000000000000000000000000000001c905560327f64c15cc42be7899b001f818cf4433057002112c418d1d3a67cd5cb453051d33e55624c4b407fc0da782485e77ae272268ae0a3ff44c1552ecb60b3743924de17a815e0a3cfd75560045f52600a6020527fe1eb2b2161a492c07c5a334e48012567cba93ec021043f53c1955516a3c5a841805461030f90610667565b601f8111610536575b507f46756c6c20486f75736500000000000000000000000000000000000000000014905560647f12d0c11577e2f0950f57c455c117796550b79f444811db8ba2f69c57b646c78455624c4b407f5b84bb9e0f5aa9cc45a8bb66468db5d4816d1e75ff86b5e1f1dd8d144dab80975560055f52600a6020527ff35035bc2b01d44bd35a1dcdc552315cffb73da35cfd60570b7b777f98036f9f80546103bb90610667565b601f811161050c575b50600a6408cd8eae6d60db1b01905560c87febae6141bae5521e99e0a8d610356b0f501fea54980b59c84841db43ba7204f455624c4b407f2cd9ebf6ff19cdd7ffcc447d7c7d47b5991f5c7392a04512134e765802361fa65560065f52600a6020527f10d9dd018e4cae503383c9f804c1c1603ada5856ee7894375d9b97cd8c8b27db805461045290610667565b601f81116104e2575b507f5374726169676874000000000000000000000000000000000000000000000010905560065f5261012c7f0387e9d1203691d8e3362a7e4c6723de358a4010d7f31ecbec3fbfc61d1c75fc55600c602052624c4b407f980f427e00e74f6d338adfccc7468518c8c8ea00836d0dce98c5fe154e17bf2b556040516119d290816106d38239f35b815f52601f60205f20910160051c8101905b818110610501575061045b565b5f81556001016104f4565b815f52601f60205f20910160051c8101905b81811061052b57506103c4565b5f815560010161051e565b815f52601f60205f20910160051c8101905b8181106105555750610318565b5f8155600101610548565b815f52601f60205f20910160051c8101905b81811061057f575061011a565b5f8155600101610572565b60405162461bcd60e51b815260206004820152600e60248201526d24b73b30b634b21039b4b3b732b960911b6044820152606490fd5b60015f52601f0160051c7fb10e2d527612073b26eecdfd717e6a320cf44b4afac2b0732d9fcbe2b7fa0cf6908101905b8181106105fd575061009d565b5f81556001016105f0565b5f8052601f0160051c7f290decd9548b62a8d60345a988386fc84ba6bc95484008f6362f93160ef3e563908101905b8181106106445750610064565b5f8155600101610637565b5f80fd5b634e487b7160e01b5f52604160045260245ffd5b90600182811c92168015610695575b602083101461068157565b634e487b7160e01b5f52602260045260245ffd5b91607f1691610676565b601f82116106ab575050565b5f52601f60205f20910160051c8101905b8181106106c7575050565b5f81556001016106bc56fe608080604052600436101561001c575b50361561001a575f80fd5b005b5f3560e01c90816301ffc9a7146112515750806306fdde0314611235578063081812fc146111e1578063095ea7b3146110c0578063238ac9331461109857806323b872dd1461104e5780633ccfd60b1461105357806342842e0e1461104e5780634c34938514611024578063510ef1de14610ead57806355f804b314610d425780635a98e56614610d185780636352211e14610ce857806364e4b8c214610ccb5780636914db6014610ca15780636c0360eb14610c0f5780636c19e78314610b805780636d8e89d014610b5657806370a0823114610b1357806371f79dc514610ae9578063852424ae14610aba5780638da5cb5b14610a9257806395d89b41146109c8578063a22cb4651461093f578063aa599a8f146108d4578063c2dce5761461089e578063c87b56dd1461086f578063e985e9c51461080d578063f91cc013146107a55763ffbfaec314610172575f61000f565b60e03660031901126107a15760243560043560443567ffffffffffffffff81116107a1576101a490369060040161158f565b909260643567ffffffffffffffff81116107a1576101c690369060040161158f565b92909460843560ff81168091036107a157600186101580610796575b6101eb90611691565b855f52600c60205260405f2054341061075a5760055461020b8186611821565b42116107215761021b9085611806565b42106106dc57610229611921565b5f52600d60205260405f20865f5260205260405f2054865f52600b60205260405f2054111561069f575f6080602092604051848101903360601b988983528b60348301526054820152878760748301376102966074828a810188838201520301601f1981018352826112dc565b519020604051858101917f19457468657265756d205369676e6564204d6573736167653a0a3332000000008352603c820152603c81526102d7605c826112dc565b519020906040519182528482015260a435604082015260c435606082015282805260015afa1561050c575f516004546001600160a01b03908116911603610666576020603461034492846040519586928584019889528484013781018883820152030180845201826112dc565b519020805f52600e60205260ff60405f20541661062f575f52600e60205260405f20600160ff1982541617905561037c600254611813565b908160025561038c331515611656565b5f828152600660205260409020546001600160a01b03166105fb57335f52600760205260405f20805490600182018092116105e757555f82815260066020526040812080546001600160a01b0319163390811790915583917fddf252ad1be2c89b69c2b068fc378daa952ba7f163c4a11628f55a4df523b3ef8180a4815f52600f6020528260405f2055815f52601060205260405f209067ffffffffffffffff81116105d35761043c82546112a4565b601f811161058e575b505f601f821160011461052b5781929394955f92610520575b50508160011b915f199060031b1c19161790555b61047a611921565b5f52600d60205260405f20825f5260205260405f206104998154611813565b9055815f52600c60205260405f20548034116104e8575b50806020926040519081527f226d2a645d7edd4fc8d019b3eae722231277e0665965dba0c711be16ef35ba9e843392a3604051908152f35b5f80806104f6819434611806565b818115610517575b3390f11561050c575f6104b0565b6040513d5f823e3d90fd5b506108fc6104fe565b013590505f8061045e565b601f19821695835f5260205f20915f5b8881106105765750836001959697981061055d575b505050811b019055610472565b01355f19600384901b60f8161c191690555f8080610550565b9092602060018192868601358155019401910161053b565b825f5260205f20601f830160051c810191602084106105c9575b601f0160051c01905b8181106105be5750610445565b5f81556001016105b1565b90915081906105a8565b634e487b7160e01b5f52604160045260245ffd5b634e487b7160e01b5f52601160045260245ffd5b60405162461bcd60e51b815260206004820152600c60248201526b546f6b656e2065786973747360a01b6044820152606490fd5b60405162461bcd60e51b815260206004820152600f60248201526e105b1c9958591e4818db185a5b5959608a1b6044820152606490fd5b60405162461bcd60e51b8152602060048201526011602482015270496e76616c6964207369676e617475726560781b6044820152606490fd5b60405162461bcd60e51b8152602060048201526015602482015274135bdb9d1a1b1e481b1a5b5a5d081c995858da1959605a1b6044820152606490fd5b60405162461bcd60e51b815260206004820152601760248201527f5369676e6174757265206e6f742076616c6964207965740000000000000000006044820152606490fd5b60405162461bcd60e51b815260206004820152601160248201527014da59db985d1d5c9948195e1c1a5c9959607a1b6044820152606490fd5b60405162461bcd60e51b8152602060048201526014602482015273125b9cdd59999a58da595b9d081c185e5b595b9d60621b6044820152606490fd5b5060068611156101e2565b5f80fd5b346107a15760203660031901126107a1576004356107c1611921565b5f52600d60205260405f20815f5260205260405f2054905f52600b60205260405f2054808210155f146107fc57505060205f5b604051908152f35b60209161080891611806565b6107f4565b346107a15760403660031901126107a1576108266113c8565b602435906001600160a01b03821682036107a15760018060a01b03165f52600960205260405f209060018060a01b03165f52602052602060ff60405f2054166040519015158152f35b346107a15760203660031901126107a15761089a61088e6004356116cc565b6040519182918261139e565b0390f35b346107a15760403660031901126107a1576004355f52600d60205260405f206024355f52602052602060405f2054604051908152f35b346107a15760603660031901126107a1576004356108fd60018060a01b036003541633146115f9565b600181101580610934575b61091190611691565b805f52600b60205260243560405f20555f52600c60205260443560405f20555f80f35b506006811115610908565b346107a15760403660031901126107a1576109586113c8565b602435908115158092036107a157335f52600960205260405f2060018060a01b0382165f5260205260405f2060ff1981541660ff841617905560405191825260018060a01b0316907f17307eab39ab6107e8899845ad3d59bd9653f200f220920489ca2b5937696c3160203392a3005b346107a1575f3660031901126107a1576040515f6001546109e8816112a4565b8084529060018116908115610a6e5750600114610a10575b61089a8361088e818503826112dc565b60015f9081527fb10e2d527612073b26eecdfd717e6a320cf44b4afac2b0732d9fcbe2b7fa0cf6939250905b808210610a545750909150810160200161088e610a00565b919260018160209254838588010152019101909291610a3c565b60ff191660208086019190915291151560051b8401909101915061088e9050610a00565b346107a1575f3660031901126107a1576003546040516001600160a01b039091168152602090f35b346107a15760203660031901126107a1576004355f52600e602052602060ff60405f2054166040519015158152f35b346107a15760203660031901126107a1576004355f52600c602052602060405f2054604051908152f35b346107a15760203660031901126107a1576001600160a01b03610b346113c8565b16610b40811515611656565b5f526007602052602060405f2054604051908152f35b346107a15760203660031901126107a1576004355f52600a60205261089a61088e60405f206112fe565b346107a15760203660031901126107a157610b996113c8565b610bae60018060a01b036003541633146115f9565b6001600160a01b03168015610bd9576bffffffffffffffffffffffff60a01b60045416176004555f80f35b60405162461bcd60e51b815260206004820152600e60248201526d24b73b30b634b21039b4b3b732b960911b6044820152606490fd5b346107a1575f3660031901126107a1576040515f601154610c2f816112a4565b8084529060018116908115610a6e5750600114610c565761089a8361088e818503826112dc565b60115f9081525f51602061197d5f395f51905f52939250905b808210610c875750909150810160200161088e610a00565b919260018160209254838588010152019101909291610c6f565b346107a15760203660031901126107a1576004355f52601060205261089a61088e60405f206112fe565b346107a1575f3660031901126107a1576020600554604051908152f35b346107a15760203660031901126107a1576020610d06600435611631565b6040516001600160a01b039091168152f35b346107a15760203660031901126107a1576004355f52600b602052602060405f2054604051908152f35b346107a15760203660031901126107a15760043567ffffffffffffffff81116107a157610d7390369060040161158f565b610d8860018060a01b036003541633146115f9565b67ffffffffffffffff81116105d357610da26011546112a4565b601f8111610e49575b505f601f8211600114610de45781925f92610dd9575b50505f19600383901b1c191660019190911b17601155005b013590508280610dc1565b601f198216925f51602061197d5f395f51905f52915f5b858110610e3157508360019510610e18575b505050811b01601155005b01355f19600384901b60f8161c19169055828080610e0d565b90926020600181928686013581550194019101610dfb565b601f820160051c5f51602061197d5f395f51905f52019060208310610e98575b601f0160051c5f51602061197d5f395f51905f5201905b818110610e8d5750610dab565b5f8155600101610e80565b5f51602061197d5f395f51905f529150610e69565b346107a15760403660031901126107a15760043560243567ffffffffffffffff81116107a157610ee190369060040161158f565b9091610ef860018060a01b036003541633146115f9565b5f81815260066020526040902054610f1a906001600160a01b031615156115bd565b5f52601060205260405f209067ffffffffffffffff81116105d357610f3f82546112a4565b601f8111610fdf575b505f601f8211600114610f81578192935f92610f76575b50505f19600383901b1c191660019190911b179055005b013590508380610f5f565b601f19821693835f5260205f20915f5b868110610fc75750836001959610610fae575b505050811b019055005b01355f19600384901b60f8161c19169055838080610fa4565b90926020600181928686013581550194019101610f91565b825f5260205f20601f830160051c8101916020841061101a575b601f0160051c01905b81811061100f5750610f48565b5f8155600101611002565b9091508190610ff9565b346107a15760203660031901126107a1576004355f52600f602052602060405f2054604051908152f35b6113de565b346107a1575f3660031901126107a1575f80808060018060a01b036003541661107d8133146115f9565b479082821561108f575bf11561050c57005b506108fc611087565b346107a1575f3660031901126107a1576004546040516001600160a01b039091168152602090f35b346107a15760403660031901126107a1576110d96113c8565b602435906001600160a01b036110ee83611631565b6001600160a01b0390921691168181146111ac57803314801561118a575b15611154575f83815260086020526040812080546001600160a01b031916841790557f8c5be1e5ebec7d5bd14f71427d1e84f3dd0314c0f7b2291e5b200ac8c7c3b9259080a4005b60405162461bcd60e51b815260206004820152600e60248201526d139bdd08185d5d1a1bdc9a5e995960921b6044820152606490fd5b505f81815260096020908152604080832033845290915290205460ff1661110c565b60405162461bcd60e51b815260206004820152600d60248201526c14d95b198b585c1c1c9bdd985b609a1b6044820152606490fd5b346107a15760203660031901126107a1576004355f81815260066020526040902054611217906001600160a01b031615156115bd565b5f526008602052602060018060a01b0360405f205416604051908152f35b346107a1575f3660031901126107a15761089a61088e5f6112fe565b346107a15760203660031901126107a1576004359063ffffffff60e01b82168092036107a1576020916380ac58cd60e01b8114908115611293575b5015158152f35b635b5e139f60e01b1490508361128c565b90600182811c921680156112d2575b60208310146112be57565b634e487b7160e01b5f52602260045260245ffd5b91607f16916112b3565b90601f8019910116810190811067ffffffffffffffff8211176105d357604052565b9060405191825f825492611311846112a4565b808452936001811690811561137c5750600114611338575b50611336925003836112dc565b565b90505f9291925260205f20905f915b818310611360575050906020611336928201015f611329565b6020919350806001915483858901015201910190918492611347565b90506020925061133694915060ff191682840152151560051b8201015f611329565b602060409281835280519182918282860152018484015e5f828201840152601f01601f1916010190565b600435906001600160a01b03821682036107a157565b346107a15760603660031901126107a1576004356001600160a01b038116908181036107a157506024356001600160a01b038116908181036107a15750604435916001600160a01b0361143084611631565b1680331490811561156f575b811561154c575b501561151857806001600160a01b0361145b85611631565b16036114e55761146c821515611656565b805f52600760205260405f208054905f1982019182116105e75755815f52600760205260405f20805490600182018092116105e757555f83815260066020526040812080546001600160a01b031916841790557fddf252ad1be2c89b69c2b068fc378daa952ba7f163c4a11628f55a4df523b3ef9080a4005b60405162461bcd60e51b815260206004820152600b60248201526a2bb937b7339037bbb732b960a91b6044820152606490fd5b60405162461bcd60e51b815260206004820152600c60248201526b139bdd08185c1c1c9bdd995960a21b6044820152606490fd5b5f90815260096020908152604080832033845290915281205460ff169150611443565b5f858152600860205260409020546001600160a01b03163314915061143c565b9181601f840112156107a15782359167ffffffffffffffff83116107a157602083818601950101116107a157565b156115c457565b60405162461bcd60e51b815260206004820152600d60248201526c24b73b30b634b2103a37b5b2b760991b6044820152606490fd5b1561160057565b60405162461bcd60e51b81526020600482015260096024820152682737ba1037bbb732b960b91b6044820152606490fd5b5f908152600660205260409020546001600160a01b03166116538115156115bd565b90565b1561165d57565b60405162461bcd60e51b815260206004820152600c60248201526b5a65726f206164647265737360a01b6044820152606490fd5b1561169857565b60405162461bcd60e51b815260206004820152600c60248201526b496e76616c6964207479706560a01b6044820152606490fd5b5f818152600660205260409020546116ee906001600160a01b031615156115bd565b6011546116fa816112a4565b61171257505f52601060205261165360405f206112fe565b90805f52600f60205261173161172b60405f205461184a565b9161184a565b906040519283915f91611743816112a4565b90600181169081156117e25750600114611795575b50611653936020600194938382945192839101825e0190602f60f81b82528051928391018583015e015f838201520301601f1981018352826112dc565b90915060115f525f51602061197d5f395f51905f525f905b8282106117c4575050820160200190611653611758565b60209192939450806001915483858a010152019101859392916117ad565b60ff1916602080870191909152821515909202850190910192506116539050611758565b919082039182116105e757565b5f1981146105e75760010190565b919082018092116105e757565b67ffffffffffffffff81116105d357601f01601f191660200190565b8015611901575f81805b6118ed57506118628161182e565b9061187060405192836112dc565b808252601f1961187f8261182e565b013660208401375b809280156118e657600a810660300191826030116105e75780156105e7575f19019383518510156118d257600a9260f81b6001600160f81b0319165f1a908401601f01530491611887565b634e487b7160e01b5f52603260045260245ffd5b5050905090565b906118f9600a91611813565b910480611854565b506040516119106040826112dc565b60018152600360fc1b602082015290565b6301e1338042046107b201806107b2116105e75762278d006301e1338042060490600182018092116105e7576064810290808204606414901517156105e75761165391600c8111156119765750600c90611821565b9061182156fe31ecc21a745e3968a04e9570e4425bc18fa8019c68028196b546d1669c200c68a26469706673582212207db3b3ae0e9d64601027f7b435abc8f4ef878d5bb531636f13f49cc3f732811f64736f6c634300081b0033",
  "linkReferences": {},
  "deployedLinkReferences": {}
}