{
  "_format": "hh-sol-artifact-1",
  "contractName": "BridgeGameV3",
  "sourceName": "contracts/BridgeGameV3.sol",
  "abi": [
    {
      "inputs": [
        {
          "internalType": "address",
          "name": "_rakeRecipient",
          "type": "address"
        }
      ],
      "stateMutability": "nonpayable",
      "type": "constructor"
    },
    {
      "anonymous": false,
      "inputs": [
        {
          "indexed": true,
          "internalType": "address",
          "name": "player",
          "type": "address"
        },
        {
          "indexed": false,
          "internalType": "uint256",
          "name": "amount",
          "type": "uint256"
        }
      ],
      "name": "Deposited",
      "type": "event"
    },
    {
      "anonymous": false,
      "inputs": [
        {
          "indexed": true,
          "internalType": "address",
          "name": "player",
          "type": "address"
        },
        {
          "indexed": true,
          "internalType": "uint256",
          "name": "tableId",
          "type": "uint256"
        },
        {
          "indexed": false,
          "internalType": "uint256",
          "name": "buyIn",
          "type": "uint256"
        }
      ],
      "name": "JoinedTableFor",
      "type": "event"
    },
    {
      "anonymous": false,
      "inputs": [
        {
          "indexed": true,
          "internalType": "address",
          "name": "player",
          "type": "address"
        },
        {
          "indexed": true,
          "internalType": "uint256",
          "name": "tableId",
          "type": "uint256"
        },
        {
          "indexed": false,
          "internalType": "uint256",
          "name": "amount",
          "type": "uint256"
        }
      ],
      "name": "LeftTableFor",
      "type": "event"
    },
    {
      "anonymous": false,
      "inputs": [
        {
          "indexed": true,
          "internalType": "uint256",
          "name": "tableId",
          "type": "uint256"
        },
        {
          "indexed": true,
          "internalType": "address",
          "name": "player",
          "type": "address"
        },
        {
          "indexed": false,
          "internalType": "uint256",
          "name": "rakeAmount",
          "type": "uint256"
        }
      ],
      "name": "RakeCollected",
      "type": "event"
    },
    {
      "anonymous": false,
      "inputs": [
        {
          "indexed": true,
          "internalType": "address",
          "name": "player",
          "type": "address"
        },
        {
          "indexed": false,
          "internalType": "uint256",
          "name": "amount",
          "type": "uint256"
        }
      ],
      "name": "Withdrawn",
      "type": "event"
    },
    {
      "inputs": [],
      "name": "MAX_BUY_IN",
      "outputs": [
        {
          "internalType": "uint256",
          "name": "",
          "type": "uint256"
        }
      ],
      "stateMutability": "view",
      "type": "function"
    },
    {
      "inputs": [],
      "name": "MIN_BUY_IN",
      "outputs": [
        {
          "internalType": "uint256",
          "name": "",
          "type": "uint256"
        }
      ],
      "stateMutability": "view",
      "type": "function"
    },
    {
      "inputs": [],
      "name": "accumulatedRake",
      "outputs": [
        {
          "internalType": "uint256",
          "name": "",
          "type": "uint256"
        }
      ],
      "stateMutability": "view",
      "type": "function"
    },
    {
      "inputs": [],
      "name": "deposit",
      "outputs": [],
      "stateMutability": "payable",
      "type": "function"
    },
    {
      "inputs": [
        {
          "internalType": "address",
          "name": "player",
          "type": "address"
        }
      ],
      "name": "getPlayerInfo",
      "outputs": [
        {
          "internalType": "uint256",
          "name": "",
          "type": "uint256"
        },
        {
          "internalType": "uint256",
          "name": "",
          "type": "uint256"
        },
        {
          "internalType": "bool",
          "name": "",
          "type": "bool"
        }
      ],
      "stateMutability": "view",
      "type": "function"
    },
    {
      "inputs": [
        {
          "internalType": "address",
          "name": "",
          "type": "address"
        },
        {
          "internalType": "address",
          "name": "",
          "type": "address"
        }
      ],
      "name": "isDelegateAuthorized",
      "outputs": [
        {
          "internalType": "bool",
          "name": "",
          "type": "bool"
        }
      ],
      "stateMutability": "view",
      "type": "function"
    },
    {
      "inputs": [
        {
          "internalType": "address",
          "name": "playerAddr",
          "type": "address"
        },
        {
          "internalType": "uint256",
          "name": "tableId",
          "type": "uint256"
        },
        {
          "internalType": "uint256",
          "name": "buyInAmount",
          "type": "uint256"
        }
      ],
      "name": "joinTableFor",
      "outputs": [],
      "stateMutability": "nonpayable",
      "type": "function"
    },
    {
      "inputs": [
        {
          "internalType": "address",
          "name": "playerAddr",
          "type": "address"
        },
        {
          "internalType": "uint256",
          "name": "tableId",
          "type": "uint256"
        },
        {
          "internalType": "uint256",
          "name": "finalStack",
          "type": "uint256"
        }
      ],
      "name": "leaveTableFor",
      "outputs": [],
      "stateMutability": "nonpayable",
      "type": "function"
    },
    {
      "inputs": [],
      "name": "owner",
      "outputs": [
        {
          "internalType": "address",
          "name": "",
          "type": "address"
        }
      ],
      "stateMutability": "view",
      "type": "function"
    },
    {
      "inputs": [],
      "name": "pause",
      "outputs": [],
      "stateMutability": "nonpayable",
      "type": "function"
    },
    {
      "inputs": [],
      "name": "paused",
      "outputs": [
        {
          "internalType": "bool",
          "name": "",
          "type": "bool"
        }
      ],
      "stateMutability": "view",
      "type": "function"
    },
    {
      "inputs": [
        {
          "internalType": "uint256",
          "name": "",
          "type": "uint256"
        },
        {
          "internalType": "address",
          "name": "",
          "type": "address"
        }
      ],
      "name": "playerAtTable",
      "outputs": [
        {
          "internalType": "bool",
          "name": "",
          "type": "bool"
        }
      ],
      "stateMutability": "view",
      "type": "function"
    },
    {
      "inputs": [
        {
          "internalType": "uint256",
          "name": "",
          "type": "uint256"
        },
        {
          "internalType": "address",
          "name": "",
          "type": "address"
        }
      ],
      "name": "playerBuyIn",
      "outputs": [
        {
          "internalType": "uint256",
          "name": "",
          "type": "uint256"
        }
      ],
      "stateMutability": "view",
      "type": "function"
    },
    {
      "inputs": [
        {
          "internalType": "address",
          "name": "",
          "type": "address"
        }
      ],
      "name": "playerDelegates",
      "outputs": [
        {
          "internalType": "address",
          "name": "",
          "type": "address"
        }
      ],
      "stateMutability": "view",
      "type": "function"
    },
    {
      "inputs": [
        {
          "internalType": "address",
          "name": "",
          "type": "address"
        }
      ],
      "name": "players",
      "outputs": [
        {
          "internalType": "uint256",
          "name": "balance",
          "type": "uint256"
        },
        {
          "internalType": "uint256",
          "name": "lockedAmount",
          "type": "uint256"
        },
        {
          "internalType": "bool",
          "name": "isRegistered",
          "type": "bool"
        }
      ],
      "stateMutability": "view",
      "type": "function"
    },
    {
      "inputs": [],
      "name": "rakeRate",
      "outputs": [
        {
          "internalType": "uint256",
          "name": "",
          "type": "uint256"
        }
      ],
      "stateMutability": "view",
      "type": "function"
    },
    {
      "inputs": [],
      "name": "rakeRecipient",
      "outputs": [
        {
          "internalType": "address",
          "name": "",
          "type": "address"
        }
      ],
      "stateMutability": "view",
      "type": "function"
    },
    {
      "inputs": [],
      "name": "registerPlayer",
      "outputs": [],
      "stateMutability": "nonpayable",
      "type": "function"
    },
    {
      "inputs": [
        {
          "internalType": "address",
          "name": "delegate",
          "type": "address"
        }
      ],
      "name": "setDelegate",
      "outputs": [],
      "stateMutability": "nonpayable",
      "type": "function"
    },
    {
      "inputs": [
        {
          "internalType": "uint256",
          "name": "newRate",
          "type": "uint256"
        }
      ],
      "name": "setRakeRate",
      "outputs": [],
      "stateMutability": "nonpayable",
      "type": "function"
    },
    {
      "inputs": [],
      "name": "unpause",
      "outputs": [],
      "stateMutability": "nonpayable",
      "type": "function"
    },
    {
      "inputs": [
        {
          "internalType": "uint256",
          "name": "amount",
          "type": "uint256"
        }
      ],
      "name": "withdraw",
      "outputs": [],
      "stateMutability": "nonpayable",
      "type": "function"
    },
    {
      "inputs": [
        {
          "internalType": "address payable",
          "name": "to",
          "type": "address"
        }
      ],
      "name": "withdrawRake",
      "outputs": [],
      "stateMutability": "nonpayable",
      "type": "function"
    },
    {
      "stateMutability": "payable",
      "type": "receive"
    }
  ],
  "bytecode": "0x608034609d57601f610df138819003918201601f19168301916001600160401b0383118484101760a157808492602094604052833981010312609d57516001600160a01b038116808203609d576103e86001555f80546001600160a01b03191633179055156097575b600880546001600160a01b0319166001600160a01b0392909216919091179055604051610d3b90816100b68239f35b50336068565b5f80fd5b634e487b7160e01b5f52604160045260245ffdfe60806040526004361015610078575b3615610018575f80fd5b335f52600260205260ff600260405f2001541661003157005b335f52600260205260405f20610048348254610c93565b90556040513481527f2da466a7b24304f47e87fa2e1e5a81b9831ce54fec19055ce277ca2f39ba42c460203392a2005b5f3560e01c806324ed02e614610aff5780632805ab0714610ae15780632894705714610a9857806328df30bc14610a705780632e1a7d4d146109cd5780633f4ba83a1461099b57806359328401146103975780635c07a4b01461091c5780635c975abb146108f85780636a39f290146106a75780638456cb59146106705780638da5cb5b146106495780639d9d0d881461062c578063a2c5d43f1461060f578063ca5eb5e114610573578063d0e30db014610501578063d65f660f146104c1578063e01821b9146103fb578063e2eb41ff14610397578063e83d978214610332578063ed45975d146102db578063f46151801461019a5763fc4a2a950361000e5734610196575f366003190112610196576020604051629896808152f35b5f80fd5b34610196576101a836610b6f565b90916101bb60ff5f5460a01c1615610b99565b6001600160a01b03165f8181526004602090815260408083203384529091529020549091906101ec9060ff16610c56565b815f52600260205260405f2080549161020781841015610bce565b845f52600660205260405f20845f5260205260ff60405f2054166102a3576001602092610255837f4f013c10b7d389fd11c06254f72859427768c5c9f9adb48a307e606ae1fa4f4596610c11565b815501610263828254610c93565b9055845f526005825260405f20845f5282528060405f2055845f526006825260405f20845f52825260405f20600160ff19825416179055604051908152a3005b60405162461bcd60e51b815260206004820152601060248201526f416c7265616479206174207461626c6560801b6044820152606490fd5b34610196576040366003190112610196576102f4610b59565b6102fc610b43565b9060018060a01b03165f52600460205260405f209060018060a01b03165f52602052602060ff60405f2054166040519015158152f35b346101965760203660031901126101965760043561035a60018060a01b035f54163314610c1e565b6103e8811161036857600155005b60405162461bcd60e51b81526020600482015260076024820152664d61782031302560c81b6044820152606490fd5b34610196576020366003190112610196576001600160a01b036103b8610b59565b165f52600260205260405f2080546103f760ff600260018501549401541660405193849384919260409194936060840195845260208401521515910152565b0390f35b34610196576020366003190112610196576004356001600160a01b038116908190036101965761043560018060a01b035f54163314610c1e565b600754908115610492575f8080938193826007555af1610453610ca0565b501561045b57005b60405162461bcd60e51b815260206004820152600f60248201526e151c985b9cd9995c8819985a5b1959608a1b6044820152606490fd5b60405162461bcd60e51b81526020600482015260076024820152664e6f2072616b6560c81b6044820152606490fd5b34610196576020366003190112610196576001600160a01b036104e2610b59565b165f526003602052602060018060a01b0360405f205416604051908152f35b5f3660031901126101965761051d60ff5f5460a01c1615610b99565b62989680341061053e57335f52600260205260405f20610048348254610c93565b60405162461bcd60e51b815260206004820152600d60248201526c42656c6f77206d696e696d756d60981b6044820152606490fd5b34610196576020366003190112610196576001600160a01b03610594610b59565b1680156105d757335f90815260036020908152604080832080546001600160a01b031916851790556004825280832093835292905220805460ff19166001179055005b60405162461bcd60e51b815260206004820152601060248201526f496e76616c69642064656c656761746560801b6044820152606490fd5b34610196575f366003190112610196576020600754604051908152f35b34610196575f366003190112610196576020600154604051908152f35b34610196575f366003190112610196575f546040516001600160a01b039091168152602090f35b34610196575f366003190112610196575f54610696336001600160a01b03831614610c1e565b60ff60a01b1916600160a01b175f55005b34610196576106b536610b6f565b90916106c860ff5f5460a01c1615610b99565b6001600160a01b03165f8181526004602090815260408083203384529091529020549091906106f99060ff16610c56565b815f52600260205260405f2090835f52600660205260405f20835f5260205260ff60405f205416156108c457838391815f52600560205260405f20835f5260205260405f2054935f918095808211806108b9575b61083d575b50509160209391835f60017fe381c45d0f0da4e547ec88369e77bb461be8bbcf2b0cc493261d194481f5a0ec9896015561078d858254610c93565b9055815f526005855260405f20835f5285525f6040812055815f526006855260405f20835f52855260405f2060ff198154169055806107d3575b505050604051908152a3005b5f8080808460018060a01b03600854165af16107ed610ca0565b501561082657847ff0bfd1b99c6423e7001435e00acc02d4585fad3fd13c294e1f16742a55f3fb0b91604051908152a35b8385876107c7565b90506108359150600754610c93565b60075561081e565b92509450925061084e915083610c11565b90600154918281029281840414901517156108a55783857fe381c45d0f0da4e547ec88369e77bb461be8bbcf2b0cc493261d194481f5a0ec94610898612710602096048092610c11565b9581939550939193610752565b634e487b7160e01b5f52601160045260245ffd5b50600154151561074d565b60405162461bcd60e51b815260206004820152600c60248201526b4e6f74206174207461626c6560a01b6044820152606490fd5b34610196575f36600319011261019657602060ff5f5460a01c166040519015158152f35b34610196575f36600319011261019657335f52600260205260ff600260405f2001541661096157335f526002602052600260405f2001600160ff198254161790555f80f35b60405162461bcd60e51b8152602060048201526012602482015271105b1c9958591e481c9959da5cdd195c995960721b6044820152606490fd5b34610196575f366003190112610196576109bf60018060a01b035f54163314610c1e565b5f805460ff60a01b19169055005b34610196576020366003190112610196576004356109f260ff5f5460a01c1615610b99565b335f52600260205260405f20610a15828254610a1082821015610bce565b610c11565b9055805f8115610a67575b5f80809381933390f115610a5c576040519081527f7084f5476618d8e60b11ef0d7d3f06914655adb8793e28ff7f018d4c76d505d560203392a2005b6040513d5f823e3d90fd5b506108fc610a20565b34610196575f366003190112610196576008546040516001600160a01b039091168152602090f35b3461019657604036600319011261019657610ab1610b43565b6004355f52600660205260405f209060018060a01b03165f52602052602060ff60405f2054166040519015158152f35b34610196575f366003190112610196576020604051633b9aca008152f35b3461019657604036600319011261019657610b18610b43565b6004355f52600560205260405f209060018060a01b03165f52602052602060405f2054604051908152f35b602435906001600160a01b038216820361019657565b600435906001600160a01b038216820361019657565b6060906003190112610196576004356001600160a01b038116810361019657906024359060443590565b15610ba057565b60405162461bcd60e51b815260206004820152600660248201526514185d5cd95960d21b6044820152606490fd5b15610bd557565b60405162461bcd60e51b8152602060048201526014602482015273496e73756666696369656e742062616c616e636560601b6044820152606490fd5b919082039182116108a557565b15610c2557565b60405162461bcd60e51b81526020600482015260096024820152682737ba1037bbb732b960b91b6044820152606490fd5b15610c5d57565b60405162461bcd60e51b815260206004820152600e60248201526d139bdd08185d5d1a1bdc9a5e995960921b6044820152606490fd5b919082018092116108a557565b3d15610d00573d9067ffffffffffffffff8211610cec5760405191601f8101601f19908116603f0116830167ffffffffffffffff811184821017610cec5760405282523d5f602084013e565b634e487b7160e01b5f52604160045260245ffd5b60609056fea2646970667358221220a2813d50b943e5cc8c7664ccffe075d6ec4daa9a324493e7687d38373b4a21ac64736f6c634300081b0033",
  "linkReferences": {},
  "deployedLinkReferences": {}
}