{"contracts/0g/PokerHandINFT.sol":{"PokerHandINFT":{"abi":[{"inputs":[],"stateMutability":"nonpayable","type":"constructor"},{"anonymous":false,"inputs":[{"indexed":true,"internalType":"uint256","name":"tokenId","type":"uint256"},{"indexed":true,"internalType":"address","name":"agentAddress","type":"address"}],"name":"AgentBound","type":"event"},{"anonymous":false,"inputs":[{"indexed":true,"internalType":"uint256","name":"tokenId","type":"uint256"}],"name":"AgentUnbound","type":"event"},{"anonymous":false,"inputs":[{"indexed":true,"internalType":"address","name":"owner","type":"address"},{"indexed":true,"internalType":"address","name":"approved","type":"address"},{"indexed":true,"internalType":"uint256","name":"tokenId","type":"uint256"}],"name":"Approval","type":"event"},{"anonymous":false,"inputs":[{"indexed":true,"internalType":"address","name":"owner","type":"address"},{"indexed":true,"internalType":"address","name":"operator","type":"address"},{"indexed":false,"internalType":"bool","name":"approved","type":"bool"}],"name":"ApprovalForAll","type":"event"},{"anonymous":false,"inputs":[{"indexed":true,"internalType":"uint256","name":"originalTokenId","type":"uint256"},{"indexed":true,"internalType":"uint256","name":"newTokenId","type":"uint256"},{"indexed":true,"internalType":"address","name":"owner","type":"address"}],"name":"Cloned","type":"event"},{"anonymous":false,"inputs":[{"indexed":true,"internalType":"uint256","name":"tokenId","type":"uint256"},{"indexed":true,"internalType":"address","name":"from","type":"address"},{"indexed":true,"internalType":"address","name":"to","type":"address"}],"name":"EncryptedTransferEvent","type":"event"},{"anonymous":false,"inputs":[{"indexed":true,"internalType":"uint256","name":"tokenId","type":"uint256"},{"indexed":false,"internalType":"string","name":"handType","type":"string"},{"indexed":true,"internalType":"address","name":"to","type":"address"},{"indexed":false,"internalType":"string","name":"storageRootHash","type":"string"}],"name":"PokerHandMinted","type":"event"},{"anonymous":false,"inputs":[{"indexed":true,"internalType":"bytes32","name":"role","type":"bytes32"},{"indexed":true,"internalType":"bytes32","name":"previousAdminRole","type":"bytes32"},{"indexed":true,"internalType":"bytes32","name":"newAdminRole","type":"bytes32"}],"name":"RoleAdminChanged","type":"event"},{"anonymous":false,"inputs":[{"indexed":true,"internalType":"bytes32","name":"role","type":"bytes32"},{"indexed":true,"internalType":"address","name":"account","type":"address"},{"indexed":true,"internalType":"address","name":"sender","type":"address"}],"name":"RoleGranted","type":"event"},{"anonymous":false,"inputs":[{"indexed":true,"internalType":"bytes32","name":"role","type":"bytes32"},{"indexed":true,"internalType":"address","name":"account","type":"address"},{"indexed":true,"internalType":"address","name":"sender","type":"address"}],"name":"RoleRevoked","type":"event"},{"anonymous":false,"inputs":[{"indexed":true,"internalType":"address","name":"from","type":"address"},{"indexed":true,"internalType":"address","name":"to","type":"address"},{"indexed":true,"internalType":"uint256","name":"tokenId","type":"uint256"}],"name":"Transfer","type":"event"},{"inputs":[],"name":"DEFAULT_ADMIN_ROLE","outputs":[{"internalType":"bytes32","name":"","type":"bytes32"}],"stateMutability":"view","type":"function"},{"inputs":[],"name":"MINTER_ROLE","outputs":[{"internalType":"bytes32","name":"","type":"bytes32"}],"stateMutability":"view","type":"function"},{"inputs":[],"name":"TYPE_FLUSH","outputs":[{"internalType":"uint256","name":"","type":"uint256"}],"stateMutability":"view","type":"function"},{"inputs":[],"name":"TYPE_FOUR_OF_A_KIND","outputs":[{"internalType":"uint256","name":"","type":"uint256"}],"stateMutability":"view","type":"function"},{"inputs":[],"name":"TYPE_FULL_HOUSE","outputs":[{"internalType":"uint256","name":"","type":"uint256"}],"stateMutability":"view","type":"function"},{"inputs":[],"name":"TYPE_ROYAL_FLUSH","outputs":[{"internalType":"uint256","name":"","type":"uint256"}],"stateMutability":"view","type":"function"},{"inputs":[],"name":"TYPE_STRAIGHT","outputs":[{"internalType":"uint256","name":"","type":"uint256"}],"stateMutability":"view","type":"function"},{"inputs":[],"name":"TYPE_STRAIGHT_FLUSH","outputs":[{"internalType":"uint256","name":"","type":"uint256"}],"stateMutability":"view","type":"function"},{"inputs":[{"internalType":"address","name":"to","type":"address"},{"internalType":"uint256","name":"tokenId","type":"uint256"}],"name":"approve","outputs":[],"stateMutability":"nonpayable","type":"function"},{"inputs":[{"internalType":"address","name":"owner","type":"address"}],"name":"balanceOf","outputs":[{"internalType":"uint256","name":"","type":"uint256"}],"stateMutability":"view","type":"function"},{"inputs":[{"internalType":"address","name":"agent","type":"address"}],"name":"bindAgent","outputs":[],"stateMutability":"nonpayable","type":"function"},{"inputs":[{"internalType":"address","name":"newOwner","type":"address"}],"name":"clone","outputs":[{"internalType":"uint256","name":"","type":"uint256"}],"stateMutability":"nonpayable","type":"function"},{"inputs":[{"internalType":"address","name":"to","type":"address"},{"internalType":"bytes","name":"encryptedMetadata","type":"bytes"}],"name":"encryptedTransfer","outputs":[],"stateMutability":"nonpayable","type":"function"},{"inputs":[{"internalType":"uint256","name":"tokenId","type":"uint256"}],"name":"getApproved","outputs":[{"internalType":"address","name":"","type":"address"}],"stateMutability":"view","type":"function"},{"inputs":[{"internalType":"uint256","name":"typeId","type":"uint256"}],"name":"getCurrentMonthMintCount","outputs":[{"internalType":"uint256","name":"","type":"uint256"}],"stateMutability":"view","type":"function"},{"inputs":[{"internalType":"uint256","name":"tokenId","type":"uint256"}],"name":"getEncryptedMetadata","outputs":[{"internalType":"bytes","name":"","type":"bytes"}],"stateMutability":"view","type":"function"},{"inputs":[{"internalType":"uint256","name":"typeId","type":"uint256"}],"name":"getHandTypeInfo","outputs":[{"internalType":"string","name":"name","type":"string"},{"internalType":"uint8","name":"rarityLevel","type":"uint8"},{"internalType":"uint256","name":"monthlyLimit","type":"uint256"},{"internalType":"bool","name":"isClonable","type":"bool"}],"stateMutability":"view","type":"function"},{"inputs":[{"internalType":"uint256","name":"tokenId","type":"uint256"}],"name":"getPokerData","outputs":[{"internalType":"string","name":"handType","type":"string"},{"internalType":"string","name":"storageRootHash","type":"string"},{"internalType":"string","name":"metadataURI","type":"string"},{"internalType":"uint256","name":"timestamp","type":"uint256"},{"internalType":"address","name":"aiAgent","type":"address"},{"internalType":"bool","name":"isEncrypted","type":"bool"}],"stateMutability":"view","type":"function"},{"inputs":[{"internalType":"bytes32","name":"role","type":"bytes32"}],"name":"getRoleAdmin","outputs":[{"internalType":"bytes32","name":"","type":"bytes32"}],"stateMutability":"view","type":"function"},{"inputs":[{"internalType":"uint256","name":"tokenId","type":"uint256"}],"name":"getTokenCards","outputs":[{"internalType":"string[]","name":"","type":"string[]"}],"stateMutability":"view","type":"function"},{"inputs":[{"internalType":"bytes32","name":"role","type":"bytes32"},{"internalType":"address","name":"account","type":"address"}],"name":"grantRole","outputs":[],"stateMutability":"nonpayable","type":"function"},{"inputs":[{"internalType":"bytes32","name":"role","type":"bytes32"},{"internalType":"address","name":"account","type":"address"}],"name":"hasRole","outputs":[{"internalType":"bool","name":"","type":"bool"}],"stateMutability":"view","type":"function"},{"inputs":[{"internalType":"address","name":"owner","type":"address"},{"internalType":"address","name":"operator","type":"address"}],"name":"isApprovedForAll","outputs":[{"internalType":"bool","name":"","type":"bool"}],"stateMutability":"view","type":"function"},{"inputs":[{"internalType":"address","name":"to","type":"address"},{"internalType":"string","name":"handType","type":"string"},{"internalType":"string","name":"storageRootHash","type":"string"},{"internalType":"string","name":"metadataURI","type":"string"}],"name":"mint","outputs":[{"internalType":"uint256","name":"","type":"uint256"}],"stateMutability":"nonpayable","type":"function"},{"inputs":[{"internalType":"address","name":"to","type":"address"},{"internalType":"uint256","name":"typeId","type":"uint256"},{"internalType":"string[]","name":"cards","type":"string[]"},{"internalType":"string","name":"storageRootHash","type":"string"},{"internalType":"string","name":"metadataURI","type":"string"}],"name":"mintWithCards","outputs":[{"internalType":"uint256","name":"","type":"uint256"}],"stateMutability":"nonpayable","type":"function"},{"inputs":[{"internalType":"uint256","name":"","type":"uint256"},{"internalType":"uint256","name":"","type":"uint256"}],"name":"monthlyMintCount","outputs":[{"internalType":"uint256","name":"","type":"uint256"}],"stateMutability":"view","type":"function"},{"inputs":[],"name":"name","outputs":[{"internalType":"string","name":"","type":"string"}],"stateMutability":"view","type":"function"},{"inputs":[{"internalType":"uint256","name":"tokenId","type":"uint256"}],"name":"ownerOf","outputs":[{"internalType":"address","name":"","type":"address"}],"stateMutability":"view","type":"function"},{"inputs":[{"internalType":"bytes32","name":"role","type":"bytes32"},{"internalType":"address","name":"account","type":"address"}],"name":"renounceRole","outputs":[],"stateMutability":"nonpayable","type":"function"},{"inputs":[{"internalType":"bytes32","name":"role","type":"bytes32"},{"internalType":"address","name":"account","type":"address"}],"name":"revokeRole","outputs":[],"stateMutability":"nonpayable","type":"function"},{"inputs":[{"internalType":"address","name":"from","type":"address"},{"internalType":"address","name":"to","type":"address"},{"internalType":"uint256","name":"tokenId","type":"uint256"}],"name":"safeTransferFrom","outputs":[],"stateMutability":"nonpayable","type":"function"},{"inputs":[{"internalType":"address","name":"from","type":"address"},{"internalType":"address","name":"to","type":"address"},{"internalType":"uint256","name":"tokenId","type":"uint256"},{"internalType":"bytes","name":"data","type":"bytes"}],"name":"safeTransferFrom","outputs":[],"stateMutability":"nonpayable","type":"function"},{"inputs":[{"internalType":"address","name":"operator","type":"address"},{"internalType":"bool","name":"approved","type":"bool"}],"name":"setApprovalForAll","outputs":[],"stateMutability":"nonpayable","type":"function"},{"inputs":[{"internalType":"bytes4","name":"interfaceId","type":"bytes4"}],"name":"supportsInterface","outputs":[{"internalType":"bool","name":"","type":"bool"}],"stateMutability":"view","type":"function"},{"inputs":[],"name":"symbol","outputs":[{"internalType":"string","name":"","type":"string"}],"stateMutability":"view","type":"function"},{"inputs":[{"internalType":"uint256","name":"tokenId","type":"uint256"}],"name":"tokenURI","outputs":[{"internalType":"string","name":"","type":"string"}],"stateMutability":"view","type":"function"},{"inputs":[{"internalType":"address","name":"from","type":"address"},{"internalType":"address","name":"to","type":"address"},{"internalType":"uint256","name":"tokenId","type":"uint256"}],"name":"transferFrom","outputs":[],"stateMutability":"nonpayable","type":"function"},{"inputs":[],"name":"unbindAgent","outputs":[],"stateMutability":"nonpayable","type":"function"}],"evm":{"bytecode":{"linkReferences":{},"object":"608060405234610d36576100136040610d59565b60128152710c11c8141bdad95c8812185b99081253919560721b602082015261003c6040610d59565b60078152661823a837b5b2b960c91b602082015281516001600160401b0381116107b3575f54600181811c91168015610d2c575b602082101461079557601f8111610cca575b50602092601f8211600114610c6b57928192935f92610c60575b50508160011b915f199060031b1c1916175f555b80516001600160401b0381116107b357600154600181811c91168015610c56575b602082101461079557601f8111610bf3575b50602091601f8211600114610b93579181925f92610b88575b50508160011b915f199060031b1c1916176001555b6001600755335f9081525f5160206144ff5f395f51905f52602052604090205460ff1615610b4b575b335f9081525f5160206144df5f395f51905f52602052604090205460ff1615610aec575b610166610d3a565b6101706040610d59565b600b81526a0a4def2c2d8408cd8eae6d60ab1b6020820152815260208101905f825260408101600a815260608201925f84525f8052600c60205260405f20925180519060018060401b0382116107b3578454600181811c91168015610ae2575b602082101461079557601f8111610a9d575b50602090601f8311600114610a4b579180610245979492600396945f926106db575b50508160011b915f1990871b1c19161785555b60ff6001860191511660ff1982541617905551600284015551151591019060ff801983541691151516179055565b61024d610d3a565b6102576040610d59565b600e81526d0a6e8e4c2d2ced0e8408cd8eae6d60931b60208201528152602081019060018252604081016032815260608201926001845260015f52600c60205260405f20925180519060018060401b0382116107b3578454600181811c91168015610a41575b602082101461079557601f81116109fc575b50602090601f83116001146109aa579180610330979492600396945f926106db5750508160011b915f1990871b1c191617855560ff6001860191511660ff1982541617905551600284015551151591019060ff801983541691151516179055565b610338610d3a565b6103426040610d59565b600e81526d119bdd5c881bd988184812da5b9960921b602082015281526020810190600282526040810160c8815260608201926001845260025f52600c60205260405f20925180519060018060401b0382116107b3578454600181811c911680156109a0575b602082101461079557601f811161095b575b50602090601f831160011461090957918061041b979492600396945f926106db5750508160011b915f1990871b1c191617855560ff6001860191511660ff1982541617905551600284015551151591019060ff801983541691151516179055565b610423610d3a565b61042d6040610d59565b600a81526946756c6c20486f75736560b01b60208201528152602081019060038252604081016101f4815260608201926001845260035f52600c60205260405f20925180519060018060401b0382116107b3578454600181811c911680156108ff575b602082101461079557601f81116108ba575b50602090601f8311600114610868579180610503979492600396945f926106db5750508160011b915f1990871b1c191617855560ff6001860191511660ff1982541617905551600284015551151591019060ff801983541691151516179055565b61050b610d3a565b6105156040610d59565b600581526408cd8eae6d60db1b60208201528152602081019060038252604081016103e8815260608201926001845260045f52600c60205260405f20925180519060018060401b0382116107b3578454600181811c9116801561085e575b602082101461079557601f8111610819575b50602090601f83116001146107c75791806105e6979492600396945f926106db5750508160011b915f1990871b1c191617855560ff6001860191511660ff1982541617905551600284015551151591019060ff801983541691151516179055565b6105ee610d3a565b6105f86040610d59565b600881526714dd1c985a59da1d60c21b60208201528152602081019060038252604081016107d0815260608201926001845260055f52600c60205260405f20925180519060018060401b0382116107b3578454600181811c911680156107a9575b602082101461079557601f8111610750575b50602090601f83116001146106e65791806106cc979492600396945f926106db5750508160011b915f1990871b1c191617855560ff6001860191511660ff1982541617905551600284015551151591019060ff801983541691151516179055565b6040516137409081610d7f8239f35b015190505f80610204565b90601f19831691865f52815f20925f5b8181106107385750926001928592600398966106cc9b989610610721575b505050811b018555610217565b01515f1983891b60f8161c191690555f8080610714565b929360206001819287860151815501950193016106f6565b855f5260205f20601f840160051c8101916020851061078b575b601f0160051c01905b818110610780575061066b565b5f8155600101610773565b909150819061076a565b634e487b7160e01b5f52602260045260245ffd5b90607f1690610659565b634e487b7160e01b5f52604160045260245ffd5b90601f19831691865f52815f20925f5b8181106108015750926001928592600398966105e69b98961061072157505050811b018555610217565b929360206001819287860151815501950193016107d7565b855f5260205f20601f840160051c81019160208510610854575b601f0160051c01905b8181106108495750610585565b5f815560010161083c565b9091508190610833565b90607f1690610573565b90601f19831691865f52815f20925f5b8181106108a25750926001928592600398966105039b98961061072157505050811b018555610217565b92936020600181928786015181550195019301610878565b855f5260205f20601f840160051c810191602085106108f5575b601f0160051c01905b8181106108ea57506104a2565b5f81556001016108dd565b90915081906108d4565b90607f1690610490565b90601f19831691865f52815f20925f5b81811061094357509260019285926003989661041b9b98961061072157505050811b018555610217565b92936020600181928786015181550195019301610919565b855f5260205f20601f840160051c81019160208510610996575b601f0160051c01905b81811061098b57506103ba565b5f815560010161097e565b9091508190610975565b90607f16906103a8565b90601f19831691865f52815f20925f5b8181106109e45750926001928592600398966103309b98961061072157505050811b018555610217565b929360206001819287860151815501950193016109ba565b855f5260205f20601f840160051c81019160208510610a37575b601f0160051c01905b818110610a2c57506102cf565b5f8155600101610a1f565b9091508190610a16565b90607f16906102bd565b90601f19831691865f52815f20925f5b818110610a855750926001928592600398966102459b98961061072157505050811b018555610217565b92936020600181928786015181550195019301610a5b565b855f5260205f20601f840160051c81019160208510610ad8575b601f0160051c01905b818110610acd57506101e2565b5f8155600101610ac0565b9091508190610ab7565b90607f16906101d0565b335f8181525f5160206144df5f395f51905f5260205260408120805460ff1916600117905581907f9f2df0fed2c77648de5860a4cc508cd0818c85b8b8a1ab4ceeef8d981c8956a6905f5160206144bf5f395f51905f529080a461015e565b335f8181525f5160206144ff5f395f51905f5260205260408120805460ff1916600117905581905f5160206144bf5f395f51905f528180a461013a565b015190505f806100fc565b601f1982169260015f52805f20915f5b858110610bdb57508360019510610bc3575b505050811b01600155610111565b01515f1960f88460031b161c191690555f8080610bb5565b91926020600181928685015181550194019201610ba3565b60015f527fb10e2d527612073b26eecdfd717e6a320cf44b4afac2b0732d9fcbe2b7fa0cf6601f830160051c81019160208410610c4c575b601f0160051c01905b818110610c4157506100e3565b5f8155600101610c34565b9091508190610c2b565b90607f16906100d1565b015190505f8061009c565b601f198216935f8052805f20915f5b868110610cb25750836001959610610c9a575b505050811b015f556100b0565b01515f1960f88460031b161c191690555f8080610c8d565b91926020600181928685015181550194019201610c7a565b5f80527f290decd9548b62a8d60345a988386fc84ba6bc95484008f6362f93160ef3e563601f830160051c81019160208410610d22575b601f0160051c01905b818110610d175750610082565b5f8155600101610d0a565b9091508190610d01565b90607f1690610070565b5f80fd5b60405190608082016001600160401b038111838210176107b357604052565b6040519190601f01601f191682016001600160401b038111838210176107b35760405256fe60c0806040526004361015610012575f80fd5b5f3560e01c9081630102ee33146127055750806301ffc9a71461267d57806306fdde03146125db578063081812fc146125bd578063095ea7b31461243757806312abc66f1461241c578063203d35761461240157806323b872dd146123dd578063248a9ca3146123b25780632f2ff15d146122f9578063330077a31461132a57806336568abe146122675780633dd2e9a21461221757806342842e0e146122005780634a0706be14611adc5780636352211e14611aac57806367c56a0f14611a7157806370a0823114611a46578063779dbbde14611a2b578063786ec4b814611a105780638124b78e1461145757806391d148541461140e57806395d89b4114611344578063a217fddf1461132a578063a22cb4651461125c578063a5ea1f2114611189578063b88d4fde14611104578063bc6e5c15146110ce578063bf3e58851461101e578063c42a9fb614610f3b578063c87b56dd14610e73578063c881ea67146106a2578063d539139314610668578063d547741f14610623578063dd9b2ae514610596578063e985e9c51461053f578063f834da0a146103d35763fcd48a24146101be575f80fd5b346103cf5760403660031901126103cf576101d7612742565b6024356001600160401b0381116103cf576101f69036906004016127a8565b919061020133612c0f565b15610397576001600160a01b03821692831561035e57610220336132a8565b92835f52600b60205260405f206001600160401b03831161034a5782610251869461024b8454612862565b84612a6f565b5f601f82116001146102df579080610282926102ac975f926102d4575b50508160011b915f199060031b1c19161790565b90555b5f828152600860205260409020600501805460ff60a01b1916600160a01b179055336129f7565b33907f5d4081c14ee1721e51dde8b5e46ce9667329da7b356f8c2070a700d7888b3c755f80a4005b013590505f8061026e565b94601f19821695835f5260205f20965f5b81811061032f5750916102ac9791846001959410610316575b505050811b019055610285565b01355f19600384901b60f8161c191690555f8080610309565b828401358955600190980197899750602092830192016102f0565b634e487b7160e01b5f52604160045260245ffd5b60405162461bcd60e51b8152602060048201526011602482015270125b9d985b1a59081c9958da5c1a595b9d607a1b6044820152606490fd5b60405162461bcd60e51b815260206004820152601060248201526f2737ba103a37b5b2b7103437b63232b960811b6044820152606490fd5b5f80fd5b346103cf5760203660031901126103cf576004355f818152600260205260409020546001600160a01b031615610503575f5260086020526104d360405f206040519061041e826127d5565b6040516104368161042f818561289a565b03826127f0565b825261044460018201612c84565b6020830152604051916104658361045e816002860161289a565b03846127f0565b604081019283526040516104808161042f816003870161289a565b8060608301526104ef60056004850154948560808601520154916104e160ff60018060a01b038516948560a088015260a01c161515948560c082015251965160405198899860c08a5260c08a019061271e565b9088820360208a015261271e565b90868203604088015261271e565b926060850152608084015260a08301520390f35b60405162461bcd60e51b8152602060048201526014602482015273151bdad95b88191bd95cc81b9bdd08195e1a5cdd60621b6044820152606490fd5b346103cf5760403660031901126103cf57610558612742565b610560612758565b9060018060a01b03165f52600560205260405f209060018060a01b03165f52602052602060ff60405f2054166040519015158152f35b346103cf5760203660031901126103cf576004355f52600d6020526105bd60405f20612c84565b6040518091602082016020835281518091526040830190602060408260051b8601019301915f905b8282106105f457505050500390f35b919360019193955060206106138192603f198a8203018652885161271e565b96019201920185949391926105e5565b346103cf5760403660031901126103cf57610666600435610642612758565b9061066161065c825f526006602052600160405f20015490565b61302d565b613071565b005b346103cf575f3660031901126103cf5760206040517f9f2df0fed2c77648de5860a4cc508cd0818c85b8b8a1ab4ceeef8d981c8956a68152f35b346103cf5760a03660031901126103cf576106bb612742565b602435906044356001600160401b0381116103cf57366023820112156103cf578060040135916001600160401b0383116103cf576024820160248460051b840101943686116103cf576064356001600160401b0381116103cf576107239036906004016127a8565b9290946084356001600160401b0381116103cf576107459036906004016127a8565b979098610750612f20565b60058511610e3c57600282101580610e31575b15610df7576007549899899061077882612a20565b600755610785828a613194565b865f52600c60205260405f209b6107ad6107a66040519e8f9182809261289a565b03906127f0565b604051916107ba836127d5565b8d83526107c686612a42565b946107d460405196876127f0565b8686528890602087015b818310610dab575050506020830194855261080d906107fe368c8f61282c565b9260408501938452369161282c565b60608301908152608083019142835260a08401955f875260c08501955f87525f52600860205260405f2094518051906001600160401b03821161034a5761085e826108588954612862565b89612a6f565b602090601f8311600114610d485761088c92915f9183610b955750508160011b915f199060031b1c19161790565b85555b60018501905160208151916108a48385612ab2565b01915f5260205f20915f905b828210610c7357505050506002840190518051906001600160401b03821161034a576108e6826108e08554612862565b85612a6f565b602090601f8311600114610c105761091492915f9183610b955750508160011b915f199060031b1c19161790565b90555b51805160038401916001600160401b03821161034a5761093b826108e08554612862565b602090601f8311600114610ba05782600595936109b59998979593610974935f92610b955750508160011b915f199060031b1c19161790565b90559695965b51600482015592519201805491516001600160a81b03199092166001600160a01b03939093169290921790151560a01b60ff60a01b16179055565b875f52600d60205260405f20926109cc8385612ab2565b925f5260205f20925f9160421981360301915b848410610a8f57505060208989817fc75293173a228519bdd31083bd413729a88aa2c3b992c7400c771f84036ec424610a6c8f610a848e8e8e84518b8601205f5260098b52610a318860405f20612b43565b610a39613148565b5f52600a8b5260405f20905f528a5260405f20610a568154612a20565b905560405194859460408652604086019061271e565b8481038b8601526001600160a01b0390921697612b7e565b0390a3604051908152f35b8035838112156103cf5782016024810135906001600160401b0382116103cf5781360360448201136103cf57610acf82610ac98a54612862565b8a612a6f565b5f90601f8311600114610b235792610b04836001959460209487965f92610b135750508160011b915f199060031b1c19161790565b89555b019601930192946109df565b0185016024013590505f8061026e565b601f19831691895f5260205f20925f5b818110610b7a5750936020936001969387969383889510610b5c575b505050811b018955610b07565b018501602401355f19600384901b60f8161c191690555f8080610b4f565b60448484010135855560019094019360209283019201610b33565b015190505f8061026e565b90601f19831691845f52815f20925f5b818110610bf85750926001928592600598966109b59c9b9a989610610be0575b505050811b01905596959661097a565b01515f1960f88460031b161c191690555f8080610bd0565b92936020600181928786015181550195019301610bb0565b90601f19831691845f52815f20925f5b818110610c5b5750908460019594939210610c43575b505050811b019055610917565b01515f1960f88460031b161c191690555f8080610c36565b92936020600181928786015181550195019301610c20565b80518051906001600160401b03821161034a57610c9a82610c948854612862565b88612a6f565b602090601f8311600114610cdf5792610cd0836001959460209487965f92610b955750508160011b915f199060031b1c19161790565b87555b019401910190926108b0565b90601f19831691875f52815f20925f5b818110610d305750936020936001969387969383889510610d18575b505050811b018755610cd3565b01515f1960f88460031b161c191690555f8080610d0b565b92936020600181928786015181550195019301610cef565b90601f19831691885f52815f20925f5b818110610d935750908460019594939210610d7b575b505050811b01855561088f565b01515f1960f88460031b161c191690555f8080610d6e565b92936020600181928786015181550195019301610d58565b9091809394959650356001600160401b0381116103cf578901366043820112156103cf57602091610de78392369060446024820135910161282c565b8152019201908e959493926107de565b60405162461bcd60e51b8152602060048201526012602482015271125b9d985b1a590818d85c990818dbdd5b9d60721b6044820152606490fd5b506007821115610763565b60405162461bcd60e51b815260206004820152600f60248201526e125b9d985b1a59081d1e5c19481251608a1b6044820152606490fd5b346103cf5760203660031901126103cf576004355f818152600260205260409020546001600160a01b031615610ede575f526008602052610eda61042f610ec6600360405f20016040519283809261289a565b60405191829160208352602083019061271e565b0390f35b60405162461bcd60e51b815260206004820152602f60248201527f4552433732314d657461646174613a2055524920717565727920666f72206e6f60448201526e3732bc34b9ba32b73a103a37b5b2b760891b6064820152608490fd5b346103cf5760203660031901126103cf576001600160a01b03610f5c612742565b168015610fe157610f76610f6f33612c0f565b1515612ce1565b610f7f336132a8565b610f9b336001600160a01b03610f9484612bea565b16146129b9565b5f81815260086020526040812060050180546001600160a01b031916841790557f1cfbc005935637e3f8ed3af97b1a87af94cf9a9f0c163e570e5ed7bd3446903a9080a3005b60405162461bcd60e51b8152602060048201526015602482015274496e76616c6964206167656e74206164647265737360581b6044820152606490fd5b346103cf5760203660031901126103cf576004355f52600c60205260405f206040519060808201918083106001600160401b0384111761034a576110ba9260405260606040519261107a84611073818461289a565b03856127f0565b83835260ff6001820154169283602082015260ff60036002840154938460408501520154161515928391015260405194859460808652608086019061271e565b926020850152604084015260608301520390f35b346103cf5760403660031901126103cf576004355f52600a60205260405f206024355f52602052602060405f2054604051908152f35b346103cf5760803660031901126103cf5761111d612742565b611125612758565b90606435906044356001600160401b0383116103cf57366023840112156103cf576106669361116161118494369060248160040135910161282c565b9261117461116f8433612d2d565b612957565b61117f838383612dfc565b6134cd565b613396565b346103cf575f3660031901126103cf576111a5610f6f33612c0f565b6111ae336132a8565b6111c3336001600160a01b03610f9484612bea565b5f818152600860205260409020600501546001600160a01b031615611226575f81815260086020526040812060050180546001600160a01b03191690557fd3ffff4beb5d819451adb4e8e366d2c3e6699c02a7849ed0ce73a893a27732669080a2005b60405162461bcd60e51b815260206004820152600e60248201526d139bc81859d95b9d08189bdd5b9960921b6044820152606490fd5b346103cf5760403660031901126103cf57611275612742565b602435908115158092036103cf576001600160a01b0316903382146112e557335f52600560205260405f20825f5260205260405f2060ff1981541660ff83161790556040519081527f17307eab39ab6107e8899845ad3d59bd9653f200f220920489ca2b5937696c3160203392a3005b60405162461bcd60e51b815260206004820152601960248201527f4552433732313a20617070726f766520746f2063616c6c6572000000000000006044820152606490fd5b346103cf575f3660031901126103cf5760206040515f8152f35b346103cf575f3660031901126103cf576040515f60015461136481612862565b80845290600181169081156113ea575060011461138c575b610eda83610ec6818503826127f0565b60015f9081527fb10e2d527612073b26eecdfd717e6a320cf44b4afac2b0732d9fcbe2b7fa0cf6939250905b8082106113d057509091508101602001610ec661137c565b9192600181602092548385880101520191019092916113b8565b60ff191660208086019190915291151560051b84019091019150610ec6905061137c565b346103cf5760403660031901126103cf57611427612758565b6004355f52600660205260405f209060018060a01b03165f52602052602060ff60405f2054166040519015158152f35b346103cf5760203660031901126103cf57611470612742565b6001600160a01b0381169081156119db5761148a336132a8565b90815f52600860205260405f20926040516114a4816127d5565b6040516114b58161042f818961289a565b81526114c360018601612c84565b94602082019586526040516114df8161042f816002860161289a565b6040830190815260ff600560405193611506856114ff816003850161289a565b03866127f0565b6060860194855260048101546080870152015460018060a01b03811660a086015260a01c16151560c084015261153c83516130f2565b5f52600c60205260ff600360405f20015416156119965761156c600754809661156482612a20565b600755613194565b82519651905191519660405190611582826127d5565b81526020810191825260408101928352606081019788526080810142815260a08201935f855260c08301935f8552885f52600860205260405f2093518051906001600160401b03821161034a576115dd82610c948854612862565b602090601f83116001146119335761160b92915f91836119285750508160011b915f199060031b1c19161790565b84555b60018401905160208151916116238385612ab2565b01915f5260205f20915f905b82821061185957505050506002830190518051906001600160401b03821161034a5761165f826108e08554612862565b602090601f83116001146117f65761168d92915f91836117eb5750508160011b915f199060031b1c19161790565b90555b6003820198519889516001600160401b03811161034a5760209a6116b8826108e08554612862565b8b90601f831160011461177f57826005959361172d99989795936116f0935f926117745750508160011b915f199060031b1c19161790565b905551600482015592519201805491516001600160a81b03199092166001600160a01b03939093169290921790151560a01b60ff60a01b16179055565b518481519101205f52600984526117478260405f20612b43565b81604051937fae70533df440a7b44061c964ced6d9b99b31ab42e146ac886f34502284cd79fd5f80a48152f35b015190508f8061026e565b90601f19831691845f52815f20925f5b8181106117d457509260019285926005989661172d9c9b9a9896106117bc575b505050811b01905561097a565b01515f1960f88460031b161c191690558e80806117af565b92938f60018192878601518155019501930161178f565b015190508d8061026e565b90601f19831691845f52815f20925f5b8181106118415750908460019594939210611829575b505050811b019055611690565b01515f1960f88460031b161c191690558c808061181c565b92936020600181928786015181550195019301611806565b80518051906001600160401b03821161034a5761187a82610c948854612862565b602090601f83116001146118bf57926118b0836001959460209487965f92610b955750508160011b915f199060031b1c19161790565b87555b0194019101909261162f565b90601f19831691875f52815f20925f5b81811061191057509360209360019693879693838895106118f8575b505050811b0187556118b3565b01515f1960f88460031b161c191690555f80806118eb565b929360206001819287860151815501950193016118cf565b015190508e8061026e565b90601f19831691875f52815f20925f5b81811061197e5750908460019594939210611966575b505050811b01845561160e565b01515f1960f88460031b161c191690558d8080611959565b92936020600181928786015181550195019301611943565b60405162461bcd60e51b815260206004820152601a60248201527f5468697320747970652063616e6e6f7420626520636c6f6e65640000000000006044820152606490fd5b60405162461bcd60e51b815260206004820152600d60248201526c24b73b30b634b21037bbb732b960991b6044820152606490fd5b346103cf575f3660031901126103cf57602060405160048152f35b346103cf575f3660031901126103cf57602060405160018152f35b346103cf5760203660031901126103cf576020611a69611a64612742565b612c0f565b604051908152f35b346103cf5760203660031901126103cf57611a8a613148565b5f52600a60205260405f206004355f52602052602060405f2054604051908152f35b346103cf5760203660031901126103cf576020611aca600435612bea565b6040516001600160a01b039091168152f35b346103cf5760803660031901126103cf57611af5612742565b6024356001600160401b0381116103cf57611b149036906004016127a8565b91906044356001600160401b0381116103cf57611b359036906004016127a8565b9390926064356001600160401b0381116103cf57611b579036906004016127a8565b90611b60612f20565b6001600160a01b038316156121bb57831561218257611b88611b8336868861282c565b6130f2565b5f19811461214957611b98613148565b805f52600a60205260405f20825f5260205260405f20611bb88154612a20565b90555f52600a60205260405f20815f5260205260405f2054905f52600c602052600260405f200154106120f357600754608052611bf6608051612a20565b600755611c0560805184613194565b602060a081905260405191611c5a91611c1e90846127f0565b5f835260405193611c2e856127d5565b611c3936888a61282c565b855260a0518501938452611c4e368b8b61282c565b6040860152369161282c565b60608301524260808301525f60a08301525f60c08301526080515f52600860a0515260405f209082518051906001600160401b03821161034a57611ca882611ca28654612862565b86612a6f565b60a05190601f831160011461208d57611cd792915f9183611f485750508160011b915f199060031b1c19161790565b82555b5180516001830191611cec8284612ab2565b60a0515f9384528084209391015b828210611fb957505050506002810160408301518051906001600160401b03821161034a57611d2d826108e08554612862565b60a05190601f8311600114611f5357611d5c92915f9183611f485750508160011b915f199060031b1c19161790565b90555b60608201518051906001600160401b03821161034a57611d8f82611d866003860154612862565b60038601612a6f565b60a05190601f8311600114611eaa5760057fc75293173a228519bdd31083bd413729a88aa2c3b992c7400c771f84036ec42498979694611def85611e3c96611e99999660c0965f926117745750508160011b915f199060031b1c19161790565b60038201555b6080840151600482015560a08085015192909101805493909401516001600160a81b03199093166001600160a01b039290921691909117911515901b60ff60a01b16179055565b611e4736848661282c565b80519060a05101205f52600960a05152611e6660805160405f20612b43565b611e7d604051948594604086526040860191612b7e565b9083820360a05185015260018060a01b03169660805196612b7e565b0390a3604051608051815260a05190f35b90600384015f5260a0515f20915f5b601f1985168110611f2f57507fc75293173a228519bdd31083bd413729a88aa2c3b992c7400c771f84036ec42498979694600185611e99989560c095600595611e3c99601f19811610611f17575b505050811b016003820155611df5565b01515f1960f88460031b161c191690558e8080611f07565b81830151845560a0516001909401939283019201611eb9565b015190508b8061026e565b90601f19831691845f5260a0515f20925f5b818110611fa05750908460019594939210611f88575b505050811b019055611d5f565b01515f1960f88460031b161c191690558a8080611f7b565b82840151855560a0516001909501949384019301611f65565b80518051906001600160401b03821161034a57611fda82610c948854612862565b60a05190601f831160011461202157826001949293859461200f935f92610b955750508160011b915f199060031b1c19161790565b86555b60a05101940191019092611cfa565b90865f5260a0515f20915f5b601f198516811061207457509260019492859492859383601f1981161061205c575b505050811b018655612012565b01515f1960f88460031b161c191690558f808061204f565b81830151845560a051600190940193928301920161202d565b90601f19831691855f5260a0515f20925f5b8181106120da57509084600195949392106120c2575b505050811b018255611cda565b01515f1960f88460031b161c191690558a80806120b5565b82840151855560a051600190950194938401930161209f565b60405162461bcd60e51b815260206004820152602860248201527f4d6f6e74686c79206c696d6974207265616368656420666f7220746869732068604482015267616e64207479706560c01b6064820152608490fd5b60405162461bcd60e51b8152602060048201526011602482015270556e6b6e6f776e2068616e64207479706560781b6044820152606490fd5b60405162461bcd60e51b8152602060048201526011602482015270496e76616c69642068616e64207479706560781b6044820152606490fd5b60405162461bcd60e51b815260206004820152601b60248201527f43616e6e6f74206d696e7420746f207a65726f206164647265737300000000006044820152606490fd5b346103cf576106666122113661276e565b916129f7565b346103cf5760203660031901126103cf5760043561224761223782612bea565b6001600160a01b031633146129b9565b5f52600b602052610eda61042f610ec660405f206040519283809261289a565b346103cf5760403660031901126103cf57612280612758565b336001600160a01b0382160361229c5761066690600435613071565b60405162461bcd60e51b815260206004820152602f60248201527f416363657373436f6e74726f6c3a2063616e206f6e6c792072656e6f756e636560448201526e103937b632b9903337b91039b2b63360891b6064820152608490fd5b346103cf5760403660031901126103cf57600435612315612758565b9061232f61065c825f526006602052600160405f20015490565b805f52600660205260405f2060018060a01b0383165f5260205260ff60405f2054161561235857005b5f8181526006602090815260408083206001600160a01b0395909516808452949091528120805460ff19166001179055339291907f2f8788117e7eff1d82e926ec794901d17c78024a50270940304540a733656f0d9080a4005b346103cf5760203660031901126103cf576020611a696004355f526006602052600160405f20015490565b346103cf576106666123ee3661276e565b916123fc61116f8433612d2d565b612dfc565b346103cf575f3660031901126103cf57602060405160058152f35b346103cf575f3660031901126103cf57602060405160028152f35b346103cf5760403660031901126103cf57612450612742565b602435906001600160a01b0361246583612bea565b6001600160a01b03909216911681811461256e5780331490811561254a575b50156124df575f82815260046020526040902080546001600160a01b031916821790556001600160a01b036124b883612bea565b167f8c5be1e5ebec7d5bd14f71427d1e84f3dd0314c0f7b2291e5b200ac8c7c3b9255f80a4005b60405162461bcd60e51b815260206004820152603d60248201527f4552433732313a20617070726f76652063616c6c6572206973206e6f7420746f60448201527f6b656e206f776e6572206f7220617070726f76656420666f7220616c6c0000006064820152608490fd5b5f90815260056020908152604080832033845290915290205460ff16905083612484565b60405162461bcd60e51b815260206004820152602160248201527f4552433732313a20617070726f76616c20746f2063757272656e74206f776e656044820152603960f91b6064820152608490fd5b346103cf5760203660031901126103cf576020611aca60043561291b565b346103cf575f3660031901126103cf576040515f5f546125fa81612862565b80845290600181169081156113ea575060011461262157610eda83610ec6818503826127f0565b5f8080527f290decd9548b62a8d60345a988386fc84ba6bc95484008f6362f93160ef3e563939250905b80821061266357509091508101602001610ec661137c565b91926001816020925483858801015201910190929161264b565b346103cf5760203660031901126103cf5760043563ffffffff60e01b81168091036103cf57602090637965db0b60e01b81149081156126c2575b506040519015158152f35b6380ac58cd60e01b8114915081156126f4575b81156126e3575b50826126b7565b6301ffc9a760e01b149050826126dc565b635b5e139f60e01b811491506126d5565b346103cf575f3660031901126103cf5780600360209252f35b805180835260209291819084018484015e5f828201840152601f01601f1916010190565b600435906001600160a01b03821682036103cf57565b602435906001600160a01b03821682036103cf57565b60609060031901126103cf576004356001600160a01b03811681036103cf57906024356001600160a01b03811681036103cf579060443590565b9181601f840112156103cf578235916001600160401b0383116103cf57602083818601950101116103cf57565b60e081019081106001600160401b0382111761034a57604052565b90601f801991011681019081106001600160401b0382111761034a57604052565b6001600160401b03811161034a57601f01601f191660200190565b92919261283882612811565b9161284660405193846127f0565b8294818452818301116103cf578281602093845f960137010152565b90600182811c92168015612890575b602083101461287c57565b634e487b7160e01b5f52602260045260245ffd5b91607f1691612871565b5f92918154916128a983612862565b80835292600181169081156128fe57506001146128c557505050565b5f9081526020812093945091925b8383106128e4575060209250010190565b6001816020929493945483858701015201910191906128d3565b915050602093945060ff929192191683830152151560051b010190565b5f8181526002602052604090205461293d906001600160a01b03161515612b9e565b5f908152600460205260409020546001600160a01b031690565b1561295e57565b60405162461bcd60e51b815260206004820152602d60248201527f4552433732313a2063616c6c6572206973206e6f7420746f6b656e206f776e6560448201526c1c881bdc88185c1c1c9bdd9959609a1b6064820152608490fd5b156129c057565b60405162461bcd60e51b815260206004820152600f60248201526e2737ba103a37b5b2b71037bbb732b960891b6044820152606490fd5b612a1e926111849260405192612a0e6020856127f0565b5f845261117461116f8433612d2d565b565b5f198114612a2e5760010190565b634e487b7160e01b5f52601160045260245ffd5b6001600160401b03811161034a5760051b60200190565b818110612a64575050565b5f8155600101612a59565b9190601f8111612a7e57505050565b612a1e925f5260205f20906020601f840160051c83019310612aa8575b601f0160051c0190612a59565b9091508190612a9b565b90600160401b811161034a57815491818155828210612ad057505050565b5f5260205f2091820191015b818110612ae7575050565b80612af460019254612862565b80612b01575b5001612adc565b601f81118314612b1657505f81555b5f612afa565b612b3290825f5283601f60205f20920160051c82019101612a59565b805f525f6020812081835555612b10565b805490600160401b82101561034a5760018201808255821015612b6a575f5260205f200155565b634e487b7160e01b5f52603260045260245ffd5b908060209392818452848401375f828201840152601f01601f1916010190565b15612ba557565b60405162461bcd60e51b815260206004820152601860248201527f4552433732313a20696e76616c696420746f6b656e20494400000000000000006044820152606490fd5b5f908152600260205260409020546001600160a01b0316612c0c811515612b9e565b90565b6001600160a01b03168015612c2d575f52600360205260405f205490565b60405162461bcd60e51b815260206004820152602960248201527f4552433732313a2061646472657373207a65726f206973206e6f7420612076616044820152683634b21037bbb732b960b91b6064820152608490fd5b908154612c9081612a42565b92612c9e60405194856127f0565b81845260208401905f5260205f205f915b838310612cbc5750505050565b600160208192604051612cd38161042f818961289a565b815201920192019190612caf565b15612ce857565b60405162461bcd60e51b815260206004820152601760248201527f43616c6c6572206d757374206f776e206120746f6b656e0000000000000000006044820152606490fd5b906001600160a01b03612d3f82612bea565b6001600160a01b0390931692168281149291908315612d7f575b508215612d6557505090565b9091506001600160a01b0390612d7a9061291b565b161490565b9092505f52600560205260405f20815f5260205260ff60405f205416915f612d59565b15612da957565b60405162461bcd60e51b815260206004820152602560248201527f4552433732313a207472616e736665722066726f6d20696e636f72726563742060448201526437bbb732b960d91b6064820152608490fd5b90612e1d612e0984612bea565b6001600160a01b0393841693168314612da2565b6001600160a01b0316908115612ecf57612e49816001600160a01b03612e4286612bea565b1614612da2565b825f52600460205260405f206001600160601b0360a01b8154169055805f52600360205260405f205f198154019055815f52600360205260405f2060018154019055825f52600260205260405f20826001600160601b0360a01b8254161790557fddf252ad1be2c89b69c2b068fc378daa952ba7f163c4a11628f55a4df523b3ef5f80a4565b60405162461bcd60e51b8152602060048201526024808201527f4552433732313a207472616e7366657220746f20746865207a65726f206164646044820152637265737360e01b6064820152608490fd5b335f9081527f3195c024b2ddd6d9b8f6c836aa52f67fe69376c8903d009b80229b3ce4425f51602052604090205460ff1615612f5857565b61302960206130096011612f6b33613536565b603784612f977f9f2df0fed2c77648de5860a4cc508cd0818c85b8b8a1ab4ceeef8d981c8956a661361c565b6040519687947f416363657373436f6e74726f6c3a206163636f756e7420000000000000000000828701528051918291018587015e8401907001034b99036b4b9b9b4b733903937b6329607d1b84830152805192839101604883015e01015f838201520301601f1981018352826127f0565b60405162461bcd60e51b815260206004820152918291602483019061271e565b0390fd5b5f81815260066020908152604080832033845290915290205460ff16156130515750565b6020613009601161302993603784612f9761306b33613536565b9361361c565b805f52600660205260405f2060018060a01b0383165f5260205260ff60405f20541661309b575050565b5f8181526006602090815260408083206001600160a01b0395909516808452949091528120805460ff19169055339291907ff6391f5c32d9c69d2a47ea670b442974b53935d1edc7fd64eb21e047a839171b9080a4565b5f5b60058111156131045750505f1990565b805f52600c60205261042f61312260405f206040519283809261289a565b6020815191012082516020840120146131435761313e90612a20565b6130f4565b905090565b6301e1338042046107b28101809111612a2e576203f4806301e13380420604600181018111612a2e57606482029180830460641490151715612a2e57600190820101809111612a2e5790565b604051919060206131a581856127f0565b5f84526001600160a01b03821690811561326557918380926002612a1e97956131ed6131e7611184995f52600260205260018060a01b0360405f205416151590565b156136be565b5f8481526002602052604090205461320f906001600160a01b031615156131e7565b825f526003815260405f2060018154019055835f525260405f20816001600160601b0360a01b8254161790555f7fddf252ad1be2c89b69c2b068fc378daa952ba7f163c4a11628f55a4df523b3ef8180a46133b6565b6064906040519062461bcd60e51b825280600483015260248201527f4552433732313a206d696e7420746f20746865207a65726f20616464726573736044820152fd5b5f91600191600754925b8381106132fe5760405162461bcd60e51b815260206004820152601860248201527f546f6b656e206e6f7420666f756e6420617420696e64657800000000000000006044820152606490fd5b61330781612bea565b6001600160a01b03838116911614613322575b6001016132b2565b93801561333c57613334600191612a20565b94905061331a565b5090915050565b60809060208152603260208201527f4552433732313a207472616e7366657220746f206e6f6e20455243373231526560408201527131b2b4bb32b91034b6b83632b6b2b73a32b960711b60608201520190565b1561339d57565b60405162461bcd60e51b81528061302960048201613343565b91823b156134c5576133fb926020925f604051809681958294630a85bd0160e11b8452336004850152846024850152604484015260806064840152608483019061271e565b03926001600160a01b03165af15f9181613480575b5061346a573d15613463573d61342581612811565b9061343360405192836127f0565b81523d5f602083013e5b8051908161345e5760405162461bcd60e51b81528061302960048201613343565b602001fd5b606061343d565b6001600160e01b031916630a85bd0160e11b1490565b9091506020813d6020116134bd575b8161349c602093836127f0565b810103126103cf57516001600160e01b0319811681036103cf57905f613410565b3d915061348f565b505050600190565b919290803b1561351c576133fb935f60209460405196879586948593630a85bd0160e11b855233600486015260018060a01b03166024850152604484015260806064840152608483019061271e565b50505050600190565b908151811015612b6a570160200190565b613540602a612811565b9061354e60405192836127f0565b602a825261355c602a612811565b6020830190601f1901368237825115612b6a5760309053815160011015612b6a576078602183015360295b600181116135db57506135975790565b606460405162461bcd60e51b815260206004820152602060248201527f537472696e67733a20686578206c656e67746820696e73756666696369656e746044820152fd5b90600f81166010811015612b6a576f181899199a1a9b1b9c1cb0b131b232b360811b901a6136098385613525565b5360041c908015612a2e575f1901613587565b6136266042612811565b9061363460405192836127f0565b604282526136426042612811565b6020830190601f1901368237825115612b6a5760309053815160011015612b6a576078602183015360415b6001811161367d57506135975790565b90600f81166010811015612b6a576f181899199a1a9b1b9c1cb0b131b232b360811b901a6136ab8385613525565b5360041c908015612a2e575f190161366d565b156136c557565b60405162461bcd60e51b815260206004820152601c60248201527f4552433732313a20746f6b656e20616c7265616479206d696e746564000000006044820152606490fdfea26469706673582212201dfe951b62bf15389b0d6dda2741eae6a3babffafe9ce278ddb4aae3d046acf064736f6c634300081b00332f8788117e7eff1d82e926ec794901d17c78024a50270940304540a733656f0d3195c024b2ddd6d9b8f6c836aa52f67fe69376c8903d009b80229b3ce4425f5154cdd369e4e8a8515e52ca72ec816c2101831ad1f18bf44102ed171459c9b4f8","opcodes":"PUSH1 0x80 PUSH1 0x40 MSTORE CALLVALUE PUSH2 0xD36 JUMPI PUSH2 0x13 PUSH1 0x40 PUSH2 0xD59 JUMP JUMPDEST PUSH1 0x12 DUP2 MSTORE PUSH18 0xC11C8141BDAD95C8812185B990812539195 PUSH1 0x72 SHL PUSH1 0x20 DUP3 ADD MSTORE PUSH2 0x3C PUSH1 0x40 PUSH2 0xD59 JUMP JUMPDEST PUSH1 0x7 DUP2 MSTORE PUSH7 0x1823A837B5B2B9 PUSH1 0xC9 SHL PUSH1 0x20 DUP3 ADD MSTORE DUP2 MLOAD PUSH1 0x1 PUSH1 0x1 PUSH1 0x40 SHL SUB DUP2 GT PUSH2 0x7B3 JUMPI PUSH0 SLOAD PUSH1 0x1 DUP2 DUP2 SHR SWAP2 AND DUP1 ISZERO PUSH2 0xD2C JUMPI JUMPDEST PUSH1 0x20 DUP3 LT EQ PUSH2 0x795 JUMPI PUSH1 0x1F DUP2 GT PUSH2 0xCCA JUMPI JUMPDEST POP PUSH1 0x20 SWAP3 PUSH1 0x1F DUP3 GT PUSH1 0x1 EQ PUSH2 0xC6B JUMPI SWAP3 DUP2 SWAP3 SWAP4 PUSH0 SWAP3 PUSH2 0xC60 JUMPI JUMPDEST POP POP DUP2 PUSH1 0x1 SHL SWAP2 PUSH0 NOT SWAP1 PUSH1 0x3 SHL SHR NOT AND OR PUSH0 SSTORE JUMPDEST DUP1 MLOAD PUSH1 0x1 PUSH1 0x1 PUSH1 0x40 SHL SUB DUP2 GT PUSH2 0x7B3 JUMPI PUSH1 0x1 SLOAD PUSH1 0x1 DUP2 DUP2 SHR SWAP2 AND DUP1 ISZERO PUSH2 0xC56 JUMPI JUMPDEST PUSH1 0x20 DUP3 LT EQ PUSH2 0x795 JUMPI PUSH1 0x1F DUP2 GT PUSH2 0xBF3 JUMPI JUMPDEST POP PUSH1 0x20 SWAP2 PUSH1 0x1F DUP3 GT PUSH1 0x1 EQ PUSH2 0xB93 JUMPI SWAP2 DUP2 SWAP3 PUSH0 SWAP3 PUSH2 0xB88 JUMPI JUMPDEST POP POP DUP2 PUSH1 0x1 SHL SWAP2 PUSH0 NOT SWAP1 PUSH1 0x3 SHL SHR NOT AND OR PUSH1 0x1 SSTORE JUMPDEST PUSH1 0x1 PUSH1 0x7 SSTORE CALLER PUSH0 SWAP1 DUP2 MSTORE PUSH0 MLOAD PUSH1 0x20 PUSH2 0x44FF PUSH0 CODECOPY PUSH0 MLOAD SWAP1 PUSH0 MSTORE PUSH1 0x20 MSTORE PUSH1 0x40 SWAP1 KECCAK256 SLOAD PUSH1 0xFF AND ISZERO PUSH2 0xB4B JUMPI JUMPDEST CALLER PUSH0 SWAP1 DUP2 MSTORE PUSH0 MLOAD PUSH1 0x20 PUSH2 0x44DF PUSH0 CODECOPY PUSH0 MLOAD SWAP1 PUSH0 MSTORE PUSH1 0x20 MSTORE PUSH1 0x40 SWAP1 KECCAK256 SLOAD PUSH1 0xFF AND ISZERO PUSH2 0xAEC JUMPI JUMPDEST PUSH2 0x166 PUSH2 0xD3A JUMP JUMPDEST PUSH2 0x170 PUSH1 0x40 PUSH2 0xD59 JUMP JUMPDEST PUSH1 0xB DUP2 MSTORE PUSH11 0xA4DEF2C2D8408CD8EAE6D PUSH1 0xAB SHL PUSH1 0x20 DUP3 ADD MSTORE DUP2 MSTORE PUSH1 0x20 DUP2 ADD SWAP1 PUSH0 DUP3 MSTORE PUSH1 0x40 DUP2 ADD PUSH1 0xA DUP2 MSTORE PUSH1 0x60 DUP3 ADD SWAP3 PUSH0 DUP5 MSTORE PUSH0 DUP1 MSTORE PUSH1 0xC PUSH1 0x20 MSTORE PUSH1 0x40 PUSH0 KECCAK256 SWAP3 MLOAD DUP1 MLOAD SWAP1 PUSH1 0x1 DUP1 PUSH1 0x40 SHL SUB DUP3 GT PUSH2 0x7B3 JUMPI DUP5 SLOAD PUSH1 0x1 DUP2 DUP2 SHR SWAP2 AND DUP1 ISZERO PUSH2 0xAE2 JUMPI JUMPDEST PUSH1 0x20 DUP3 LT EQ PUSH2 0x795 JUMPI PUSH1 0x1F DUP2 GT PUSH2 0xA9D JUMPI JUMPDEST POP PUSH1 0x20 SWAP1 PUSH1 0x1F DUP4 GT PUSH1 0x1 EQ PUSH2 0xA4B JUMPI SWAP2 DUP1 PUSH2 0x245 SWAP8 SWAP5 SWAP3 PUSH1 0x3 SWAP7 SWAP5 PUSH0 SWAP3 PUSH2 0x6DB JUMPI JUMPDEST POP POP DUP2 PUSH1 0x1 SHL SWAP2 PUSH0 NOT SWAP1 DUP8 SHL SHR NOT AND OR DUP6 SSTORE JUMPDEST PUSH1 0xFF PUSH1 0x1 DUP7 ADD SWAP2 MLOAD AND PUSH1 0xFF NOT DUP3 SLOAD AND OR SWAP1 SSTORE MLOAD PUSH1 0x2 DUP5 ADD SSTORE MLOAD ISZERO ISZERO SWAP2 ADD SWAP1 PUSH1 0xFF DUP1 NOT DUP4 SLOAD AND SWAP2 ISZERO ISZERO AND OR SWAP1 SSTORE JUMP JUMPDEST PUSH2 0x24D PUSH2 0xD3A JUMP JUMPDEST PUSH2 0x257 PUSH1 0x40 PUSH2 0xD59 JUMP JUMPDEST PUSH1 0xE DUP2 MSTORE PUSH14 0xA6E8E4C2D2CED0E8408CD8EAE6D PUSH1 0x93 SHL PUSH1 0x20 DUP3 ADD MSTORE DUP2 MSTORE PUSH1 0x20 DUP2 ADD SWAP1 PUSH1 0x1 DUP3 MSTORE PUSH1 0x40 DUP2 ADD PUSH1 0x32 DUP2 MSTORE PUSH1 0x60 DUP3 ADD SWAP3 PUSH1 0x1 DUP5 MSTORE PUSH1 0x1 PUSH0 MSTORE PUSH1 0xC PUSH1 0x20 MSTORE PUSH1 0x40 PUSH0 KECCAK256 SWAP3 MLOAD DUP1 MLOAD SWAP1 PUSH1 0x1 DUP1 PUSH1 0x40 SHL SUB DUP3 GT PUSH2 0x7B3 JUMPI DUP5 SLOAD PUSH1 0x1 DUP2 DUP2 SHR SWAP2 AND DUP1 ISZERO PUSH2 0xA41 JUMPI JUMPDEST PUSH1 0x20 DUP3 LT EQ PUSH2 0x795 JUMPI PUSH1 0x1F DUP2 GT PUSH2 0x9FC JUMPI JUMPDEST POP PUSH1 0x20 SWAP1 PUSH1 0x1F DUP4 GT PUSH1 0x1 EQ PUSH2 0x9AA JUMPI SWAP2 DUP1 PUSH2 0x330 SWAP8 SWAP5 SWAP3 PUSH1 0x3 SWAP7 SWAP5 PUSH0 SWAP3 PUSH2 0x6DB JUMPI POP POP DUP2 PUSH1 0x1 SHL SWAP2 PUSH0 NOT SWAP1 DUP8 SHL SHR NOT AND OR DUP6 SSTORE PUSH1 0xFF PUSH1 0x1 DUP7 ADD SWAP2 MLOAD AND PUSH1 0xFF NOT DUP3 SLOAD AND OR SWAP1 SSTORE MLOAD PUSH1 0x2 DUP5 ADD SSTORE MLOAD ISZERO ISZERO SWAP2 ADD SWAP1 PUSH1 0xFF DUP1 NOT DUP4 SLOAD AND SWAP2 ISZERO ISZERO AND OR SWAP1 SSTORE JUMP JUMPDEST PUSH2 0x338 PUSH2 0xD3A JUMP JUMPDEST PUSH2 0x342 PUSH1 0x40 PUSH2 0xD59 JUMP JUMPDEST PUSH1 0xE DUP2 MSTORE PUSH14 0x119BDD5C881BD988184812DA5B99 PUSH1 0x92 SHL PUSH1 0x20 DUP3 ADD MSTORE DUP2 MSTORE PUSH1 0x20 DUP2 ADD SWAP1 PUSH1 0x2 DUP3 MSTORE PUSH1 0x40 DUP2 ADD PUSH1 0xC8 DUP2 MSTORE PUSH1 0x60 DUP3 ADD SWAP3 PUSH1 0x1 DUP5 MSTORE PUSH1 0x2 PUSH0 MSTORE PUSH1 0xC PUSH1 0x20 MSTORE PUSH1 0x40 PUSH0 KECCAK256 SWAP3 MLOAD DUP1 MLOAD SWAP1 PUSH1 0x1 DUP1 PUSH1 0x40 SHL SUB DUP3 GT PUSH2 0x7B3 JUMPI DUP5 SLOAD PUSH1 0x1 DUP2 DUP2 SHR SWAP2 AND DUP1 ISZERO PUSH2 0x9A0 JUMPI JUMPDEST PUSH1 0x20 DUP3 LT EQ PUSH2 0x795 JUMPI PUSH1 0x1F DUP2 GT PUSH2 0x95B JUMPI JUMPDEST POP PUSH1 0x20 SWAP1 PUSH1 0x1F DUP4 GT PUSH1 0x1 EQ PUSH2 0x909 JUMPI SWAP2 DUP1 PUSH2 0x41B SWAP8 SWAP5 SWAP3 PUSH1 0x3 SWAP7 SWAP5 PUSH0 SWAP3 PUSH2 0x6DB JUMPI POP POP DUP2 PUSH1 0x1 SHL SWAP2 PUSH0 NOT SWAP1 DUP8 SHL SHR NOT AND OR DUP6 SSTORE PUSH1 0xFF PUSH1 0x1 DUP7 ADD SWAP2 MLOAD AND PUSH1 0xFF NOT DUP3 SLOAD AND OR SWAP1 SSTORE MLOAD PUSH1 0x2 DUP5 ADD SSTORE MLOAD ISZERO ISZERO SWAP2 ADD SWAP1 PUSH1 0xFF DUP1 NOT DUP4 SLOAD AND SWAP2 ISZERO ISZERO AND OR SWAP1 SSTORE JUMP JUMPDEST PUSH2 0x423 PUSH2 0xD3A JUMP JUMPDEST PUSH2 0x42D PUSH1 0x40 PUSH2 0xD59 JUMP JUMPDEST PUSH1 0xA DUP2 MSTORE PUSH10 0x46756C6C20486F757365 PUSH1 0xB0 SHL PUSH1 0x20 DUP3 ADD MSTORE DUP2 MSTORE PUSH1 0x20 DUP2 ADD SWAP1 PUSH1 0x3 DUP3 MSTORE PUSH1 0x40 DUP2 ADD PUSH2 0x1F4 DUP2 MSTORE PUSH1 0x60 DUP3 ADD SWAP3 PUSH1 0x1 DUP5 MSTORE PUSH1 0x3 PUSH0 MSTORE PUSH1 0xC PUSH1 0x20 MSTORE PUSH1 0x40 PUSH0 KECCAK256 SWAP3 MLOAD DUP1 MLOAD SWAP1 PUSH1 0x1 DUP1 PUSH1 0x40 SHL SUB DUP3 GT PUSH2 0x7B3 JUMPI DUP5 SLOAD PUSH1 0x1 DUP2 DUP2 SHR SWAP2 AND DUP1 ISZERO PUSH2 0x8FF JUMPI JUMPDEST PUSH1 0x20 DUP3 LT EQ PUSH2 0x795 JUMPI PUSH1 0x1F DUP2 GT PUSH2 0x8BA JUMPI JUMPDEST POP PUSH1 0x20 SWAP1 PUSH1 0x1F DUP4 GT PUSH1 0x1 EQ PUSH2 0x868 JUMPI SWAP2 DUP1 PUSH2 0x503 SWAP8 SWAP5 SWAP3 PUSH1 0x3 SWAP7 SWAP5 PUSH0 SWAP3 PUSH2 0x6DB JUMPI POP POP DUP2 PUSH1 0x1 SHL SWAP2 PUSH0 NOT SWAP1 DUP8 SHL SHR NOT AND OR DUP6 SSTORE PUSH1 0xFF PUSH1 0x1 DUP7 ADD SWAP2 MLOAD AND PUSH1 0xFF NOT DUP3 SLOAD AND OR SWAP1 SSTORE MLOAD PUSH1 0x2 DUP5 ADD SSTORE MLOAD ISZERO ISZERO SWAP2 ADD SWAP1 PUSH1 0xFF DUP1 NOT DUP4 SLOAD AND SWAP2 ISZERO ISZERO AND OR SWAP1 SSTORE JUMP JUMPDEST PUSH2 0x50B PUSH2 0xD3A JUMP JUMPDEST PUSH2 0x515 PUSH1 0x40 PUSH2 0xD59 JUMP JUMPDEST PUSH1 0x5 DUP2 MSTORE PUSH5 0x8CD8EAE6D PUSH1 0xDB SHL PUSH1 0x20 DUP3 ADD MSTORE DUP2 MSTORE PUSH1 0x20 DUP2 ADD SWAP1 PUSH1 0x3 DUP3 MSTORE PUSH1 0x40 DUP2 ADD PUSH2 0x3E8 DUP2 MSTORE PUSH1 0x60 DUP3 ADD SWAP3 PUSH1 0x1 DUP5 MSTORE PUSH1 0x4 PUSH0 MSTORE PUSH1 0xC PUSH1 0x20 MSTORE PUSH1 0x40 PUSH0 KECCAK256 SWAP3 MLOAD DUP1 MLOAD SWAP1 PUSH1 0x1 DUP1 PUSH1 0x40 SHL SUB DUP3 GT PUSH2 0x7B3 JUMPI DUP5 SLOAD PUSH1 0x1 DUP2 DUP2 SHR SWAP2 AND DUP1 ISZERO PUSH2 0x85E JUMPI JUMPDEST PUSH1 0x20 DUP3 LT EQ PUSH2 0x795 JUMPI PUSH1 0x1F DUP2 GT PUSH2 0x819 JUMPI JUMPDEST POP PUSH1 0x20 SWAP1 PUSH1 0x1F DUP4 GT PUSH1 0x1 EQ PUSH2 0x7C7 JUMPI SWAP2 DUP1 PUSH2 0x5E6 SWAP8 SWAP5 SWAP3 PUSH1 0x3 SWAP7 SWAP5 PUSH0 SWAP3 PUSH2 0x6DB JUMPI POP POP DUP2 PUSH1 0x1 SHL SWAP2 PUSH0 NOT SWAP1 DUP8 SHL SHR NOT AND OR DUP6 SSTORE PUSH1 0xFF PUSH1 0x1 DUP7 ADD SWAP2 MLOAD AND PUSH1 0xFF NOT DUP3 SLOAD AND OR SWAP1 SSTORE MLOAD PUSH1 0x2 DUP5 ADD SSTORE MLOAD ISZERO ISZERO SWAP2 ADD SWAP1 PUSH1 0xFF DUP1 NOT DUP4 SLOAD AND SWAP2 ISZERO ISZERO AND OR SWAP1 SSTORE JUMP JUMPDEST PUSH2 0x5EE PUSH2 0xD3A JUMP JUMPDEST PUSH2 0x5F8 PUSH1 0x40 PUSH2 0xD59 JUMP JUMPDEST PUSH1 0x8 DUP2 MSTORE PUSH8 0x14DD1C985A59DA1D PUSH1 0xC2 SHL PUSH1 0x20 DUP3 ADD MSTORE DUP2 MSTORE PUSH1 0x20 DUP2 ADD SWAP1 PUSH1 0x3 DUP3 MSTORE PUSH1 0x40 DUP2 ADD PUSH2 0x7D0 DUP2 MSTORE PUSH1 0x60 DUP3 ADD SWAP3 PUSH1 0x1 DUP5 MSTORE PUSH1 0x5 PUSH0 MSTORE PUSH1 0xC PUSH1 0x20 MSTORE PUSH1 0x40 PUSH0 KECCAK256 SWAP3 MLOAD DUP1 MLOAD SWAP1 PUSH1 0x1 DUP1 PUSH1 0x40 SHL SUB DUP3 GT PUSH2 0x7B3 JUMPI DUP5 SLOAD PUSH1 0x1 DUP2 DUP2 SHR SWAP2 AND DUP1 ISZERO PUSH2 0x7A9 JUMPI JUMPDEST PUSH1 0x20 DUP3 LT EQ PUSH2 0x795 JUMPI PUSH1 0x1F DUP2 GT PUSH2 0x750 JUMPI JUMPDEST POP PUSH1 0x20 SWAP1 PUSH1 0x1F DUP4 GT PUSH1 0x1 EQ PUSH2 0x6E6 JUMPI SWAP2 DUP1 PUSH2 0x6CC SWAP8 SWAP5 SWAP3 PUSH1 0x3 SWAP7 SWAP5 PUSH0 SWAP3 PUSH2 0x6DB JUMPI POP POP DUP2 PUSH1 0x1 SHL SWAP2 PUSH0 NOT SWAP1 DUP8 SHL SHR NOT AND OR DUP6 SSTORE PUSH1 0xFF PUSH1 0x1 DUP7 ADD SWAP2 MLOAD AND PUSH1 0xFF NOT DUP3 SLOAD AND OR SWAP1 SSTORE MLOAD PUSH1 0x2 DUP5 ADD SSTORE MLOAD ISZERO ISZERO SWAP2 ADD SWAP1 PUSH1 0xFF DUP1 NOT DUP4 SLOAD AND SWAP2 ISZERO ISZERO AND OR SWAP1 SSTORE JUMP JUMPDEST PUSH1 0x40 MLOAD PUSH2 0x3740 SWAP1 DUP2 PUSH2 0xD7F DUP3 CODECOPY RETURN JUMPDEST ADD MLOAD SWAP1 POP PUSH0 DUP1 PUSH2 0x204 JUMP JUMPDEST SWAP1 PUSH1 0x1F NOT DUP4 AND SWAP2 DUP7 PUSH0 MSTORE DUP2 PUSH0 KECCAK256 SWAP3 PUSH0 JUMPDEST DUP2 DUP2 LT PUSH2 0x738 JUMPI POP SWAP3 PUSH1 0x1 SWAP3 DUP6 SWAP3 PUSH1 0x3 SWAP9 SWAP7 PUSH2 0x6CC SWAP12 SWAP9 SWAP7 LT PUSH2 0x721 JUMPI JUMPDEST POP POP POP DUP2 SHL ADD DUP6 SSTORE PUSH2 0x217 JUMP JUMPDEST ADD MLOAD PUSH0 NOT DUP4 DUP10 SHL PUSH1 0xF8 AND SHR NOT AND SWAP1 SSTORE PUSH0 DUP1 DUP1 PUSH2 0x714 JUMP JUMPDEST SWAP3 SWAP4 PUSH1 0x20 PUSH1 0x1 DUP2 SWAP3 DUP8 DUP7 ADD MLOAD DUP2 SSTORE ADD SWAP6 ADD SWAP4 ADD PUSH2 0x6F6 JUMP JUMPDEST DUP6 PUSH0 MSTORE PUSH1 0x20 PUSH0 KECCAK256 PUSH1 0x1F DUP5 ADD PUSH1 0x5 SHR DUP2 ADD SWAP2 PUSH1 0x20 DUP6 LT PUSH2 0x78B JUMPI JUMPDEST PUSH1 0x1F ADD PUSH1 0x5 SHR ADD SWAP1 JUMPDEST DUP2 DUP2 LT PUSH2 0x780 JUMPI POP PUSH2 0x66B JUMP JUMPDEST PUSH0 DUP2 SSTORE PUSH1 0x1 ADD PUSH2 0x773 JUMP JUMPDEST SWAP1 SWAP2 POP DUP2 SWAP1 PUSH2 0x76A JUMP JUMPDEST PUSH4 0x4E487B71 PUSH1 0xE0 SHL PUSH0 MSTORE PUSH1 0x22 PUSH1 0x4 MSTORE PUSH1 0x24 PUSH0 REVERT JUMPDEST SWAP1 PUSH1 0x7F AND SWAP1 PUSH2 0x659 JUMP JUMPDEST PUSH4 0x4E487B71 PUSH1 0xE0 SHL PUSH0 MSTORE PUSH1 0x41 PUSH1 0x4 MSTORE PUSH1 0x24 PUSH0 REVERT JUMPDEST SWAP1 PUSH1 0x1F NOT DUP4 AND SWAP2 DUP7 PUSH0 MSTORE DUP2 PUSH0 KECCAK256 SWAP3 PUSH0 JUMPDEST DUP2 DUP2 LT PUSH2 0x801 JUMPI POP SWAP3 PUSH1 0x1 SWAP3 DUP6 SWAP3 PUSH1 0x3 SWAP9 SWAP7 PUSH2 0x5E6 SWAP12 SWAP9 SWAP7 LT PUSH2 0x721 JUMPI POP POP POP DUP2 SHL ADD DUP6 SSTORE PUSH2 0x217 JUMP JUMPDEST SWAP3 SWAP4 PUSH1 0x20 PUSH1 0x1 DUP2 SWAP3 DUP8 DUP7 ADD MLOAD DUP2 SSTORE ADD SWAP6 ADD SWAP4 ADD PUSH2 0x7D7 JUMP JUMPDEST DUP6 PUSH0 MSTORE PUSH1 0x20 PUSH0 KECCAK256 PUSH1 0x1F DUP5 ADD PUSH1 0x5 SHR DUP2 ADD SWAP2 PUSH1 0x20 DUP6 LT PUSH2 0x854 JUMPI JUMPDEST PUSH1 0x1F ADD PUSH1 0x5 SHR ADD SWAP1 JUMPDEST DUP2 DUP2 LT PUSH2 0x849 JUMPI POP PUSH2 0x585 JUMP JUMPDEST PUSH0 DUP2 SSTORE PUSH1 0x1 ADD PUSH2 0x83C JUMP JUMPDEST SWAP1 SWAP2 POP DUP2 SWAP1 PUSH2 0x833 JUMP JUMPDEST SWAP1 PUSH1 0x7F AND SWAP1 PUSH2 0x573 JUMP JUMPDEST SWAP1 PUSH1 0x1F NOT DUP4 AND SWAP2 DUP7 PUSH0 MSTORE DUP2 PUSH0 KECCAK256 SWAP3 PUSH0 JUMPDEST DUP2 DUP2 LT PUSH2 0x8A2 JUMPI POP SWAP3 PUSH1 0x1 SWAP3 DUP6 SWAP3 PUSH1 0x3 SWAP9 SWAP7 PUSH2 0x503 SWAP12 SWAP9 SWAP7 LT PUSH2 0x721 JUMPI POP POP POP DUP2 SHL ADD DUP6 SSTORE PUSH2 0x217 JUMP JUMPDEST SWAP3 SWAP4 PUSH1 0x20 PUSH1 0x1 DUP2 SWAP3 DUP8 DUP7 ADD MLOAD DUP2 SSTORE ADD SWAP6 ADD SWAP4 ADD PUSH2 0x878 JUMP JUMPDEST DUP6 PUSH0 MSTORE PUSH1 0x20 PUSH0 KECCAK256 PUSH1 0x1F DUP5 ADD PUSH1 0x5 SHR DUP2 ADD SWAP2 PUSH1 0x20 DUP6 LT PUSH2 0x8F5 JUMPI JUMPDEST PUSH1 0x1F ADD PUSH1 0x5 SHR ADD SWAP1 JUMPDEST DUP2 DUP2 LT PUSH2 0x8EA JUMPI POP PUSH2 0x4A2 JUMP JUMPDEST PUSH0 DUP2 SSTORE PUSH1 0x1 ADD PUSH2 0x8DD JUMP JUMPDEST SWAP1 SWAP2 POP DUP2 SWAP1 PUSH2 0x8D4 JUMP JUMPDEST SWAP1 PUSH1 0x7F AND SWAP1 PUSH2 0x490 JUMP JUMPDEST SWAP1 PUSH1 0x1F NOT DUP4 AND SWAP2 DUP7 PUSH0 MSTORE DUP2 PUSH0 KECCAK256 SWAP3 PUSH0 JUMPDEST DUP2 DUP2 LT PUSH2 0x943 JUMPI POP SWAP3 PUSH1 0x1 SWAP3 DUP6 SWAP3 PUSH1 0x3 SWAP9 SWAP7 PUSH2 0x41B SWAP12 SWAP9 SWAP7 LT PUSH2 0x721 JUMPI POP POP POP DUP2 SHL ADD DUP6 SSTORE PUSH2 0x217 JUMP JUMPDEST SWAP3 SWAP4 PUSH1 0x20 PUSH1 0x1 DUP2 SWAP3 DUP8 DUP7 ADD MLOAD DUP2 SSTORE ADD SWAP6 ADD SWAP4 ADD PUSH2 0x919 JUMP JUMPDEST DUP6 PUSH0 MSTORE PUSH1 0x20 PUSH0 KECCAK256 PUSH1 0x1F DUP5 ADD PUSH1 0x5 SHR DUP2 ADD SWAP2 PUSH1 0x20 DUP6 LT PUSH2 0x996 JUMPI JUMPDEST PUSH1 0x1F ADD PUSH1 0x5 SHR ADD SWAP1 JUMPDEST DUP2 DUP2 LT PUSH2 0x98B JUMPI POP PUSH2 0x3BA JUMP JUMPDEST PUSH0 DUP2 SSTORE PUSH1 0x1 ADD PUSH2 0x97E JUMP JUMPDEST SWAP1 SWAP2 POP DUP2 SWAP1 PUSH2 0x975 JUMP JUMPDEST SWAP1 PUSH1 0x7F AND SWAP1 PUSH2 0x3A8 JUMP JUMPDEST SWAP1 PUSH1 0x1F NOT DUP4 AND SWAP2 DUP7 PUSH0 MSTORE DUP2 PUSH0 KECCAK256 SWAP3 PUSH0 JUMPDEST DUP2 DUP2 LT PUSH2 0x9E4 JUMPI POP SWAP3 PUSH1 0x1 SWAP3 DUP6 SWAP3 PUSH1 0x3 SWAP9 SWAP7 PUSH2 0x330 SWAP12 SWAP9 SWAP7 LT PUSH2 0x721 JUMPI POP POP POP DUP2 SHL ADD DUP6 SSTORE PUSH2 0x217 JUMP JUMPDEST SWAP3 SWAP4 PUSH1 0x20 PUSH1 0x1 DUP2 SWAP3 DUP8 DUP7 ADD MLOAD DUP2 SSTORE ADD SWAP6 ADD SWAP4 ADD PUSH2 0x9BA JUMP JUMPDEST DUP6 PUSH0 MSTORE PUSH1 0x20 PUSH0 KECCAK256 PUSH1 0x1F DUP5 ADD PUSH1 0x5 SHR DUP2 ADD SWAP2 PUSH1 0x20 DUP6 LT PUSH2 0xA37 JUMPI JUMPDEST PUSH1 0x1F ADD PUSH1 0x5 SHR ADD SWAP1 JUMPDEST DUP2 DUP2 LT PUSH2 0xA2C JUMPI POP PUSH2 0x2CF JUMP JUMPDEST PUSH0 DUP2 SSTORE PUSH1 0x1 ADD PUSH2 0xA1F JUMP JUMPDEST SWAP1 SWAP2 POP DUP2 SWAP1 PUSH2 0xA16 JUMP JUMPDEST SWAP1 PUSH1 0x7F AND SWAP1 PUSH2 0x2BD JUMP JUMPDEST SWAP1 PUSH1 0x1F NOT DUP4 AND SWAP2 DUP7 PUSH0 MSTORE DUP2 PUSH0 KECCAK256 SWAP3 PUSH0 JUMPDEST DUP2 DUP2 LT PUSH2 0xA85 JUMPI POP SWAP3 PUSH1 0x1 SWAP3 DUP6 SWAP3 PUSH1 0x3 SWAP9 SWAP7 PUSH2 0x245 SWAP12 SWAP9 SWAP7 LT PUSH2 0x721 JUMPI POP POP POP DUP2 SHL ADD DUP6 SSTORE PUSH2 0x217 JUMP JUMPDEST SWAP3 SWAP4 PUSH1 0x20 PUSH1 0x1 DUP2 SWAP3 DUP8 DUP7 ADD MLOAD DUP2 SSTORE ADD SWAP6 ADD SWAP4 ADD PUSH2 0xA5B JUMP JUMPDEST DUP6 PUSH0 MSTORE PUSH1 0x20 PUSH0 KECCAK256 PUSH1 0x1F DUP5 ADD PUSH1 0x5 SHR DUP2 ADD SWAP2 PUSH1 0x20 DUP6 LT PUSH2 0xAD8 JUMPI JUMPDEST PUSH1 0x1F ADD PUSH1 0x5 SHR ADD SWAP1 JUMPDEST DUP2 DUP2 LT PUSH2 0xACD JUMPI POP PUSH2 0x1E2 JUMP JUMPDEST PUSH0 DUP2 SSTORE PUSH1 0x1 ADD PUSH2 0xAC0 JUMP JUMPDEST SWAP1 SWAP2 POP DUP2 SWAP1 PUSH2 0xAB7 JUMP JUMPDEST SWAP1 PUSH1 0x7F AND SWAP1 PUSH2 0x1D0 JUMP JUMPDEST CALLER PUSH0 DUP2 DUP2 MSTORE PUSH0 MLOAD PUSH1 0x20 PUSH2 0x44DF PUSH0 CODECOPY PUSH0 MLOAD SWAP1 PUSH0 MSTORE PUSH1 0x20 MSTORE PUSH1 0x40 DUP2 KECCAK256 DUP1 SLOAD PUSH1 0xFF NOT AND PUSH1 0x1 OR SWAP1 SSTORE DUP2 SWAP1 PUSH32 0x9F2DF0FED2C77648DE5860A4CC508CD0818C85B8B8A1AB4CEEEF8D981C8956A6 SWAP1 PUSH0 MLOAD PUSH1 0x20 PUSH2 0x44BF PUSH0 CODECOPY PUSH0 MLOAD SWAP1 PUSH0 MSTORE SWAP1 DUP1 LOG4 PUSH2 0x15E JUMP JUMPDEST CALLER PUSH0 DUP2 DUP2 MSTORE PUSH0 MLOAD PUSH1 0x20 PUSH2 0x44FF PUSH0 CODECOPY PUSH0 MLOAD SWAP1 PUSH0 MSTORE PUSH1 0x20 MSTORE PUSH1 0x40 DUP2 KECCAK256 DUP1 SLOAD PUSH1 0xFF NOT AND PUSH1 0x1 OR SWAP1 SSTORE DUP2 SWAP1 PUSH0 MLOAD PUSH1 0x20 PUSH2 0x44BF PUSH0 CODECOPY PUSH0 MLOAD SWAP1 PUSH0 MSTORE DUP2 DUP1 LOG4 PUSH2 0x13A JUMP JUMPDEST ADD MLOAD SWAP1 POP PUSH0 DUP1 PUSH2 0xFC JUMP JUMPDEST PUSH1 0x1F NOT DUP3 AND SWAP3 PUSH1 0x1 PUSH0 MSTORE DUP1 PUSH0 KECCAK256 SWAP2 PUSH0 JUMPDEST DUP6 DUP2 LT PUSH2 0xBDB JUMPI POP DUP4 PUSH1 0x1 SWAP6 LT PUSH2 0xBC3 JUMPI JUMPDEST POP POP POP DUP2 SHL ADD PUSH1 0x1 SSTORE PUSH2 0x111 JUMP JUMPDEST ADD MLOAD PUSH0 NOT PUSH1 0xF8 DUP5 PUSH1 0x3 SHL AND SHR NOT AND SWAP1 SSTORE PUSH0 DUP1 DUP1 PUSH2 0xBB5 JUMP JUMPDEST SWAP2 SWAP3 PUSH1 0x20 PUSH1 0x1 DUP2 SWAP3 DUP7 DUP6 ADD MLOAD DUP2 SSTORE ADD SWAP5 ADD SWAP3 ADD PUSH2 0xBA3 JUMP JUMPDEST PUSH1 0x1 PUSH0 MSTORE PUSH32 0xB10E2D527612073B26EECDFD717E6A320CF44B4AFAC2B0732D9FCBE2B7FA0CF6 PUSH1 0x1F DUP4 ADD PUSH1 0x5 SHR DUP2 ADD SWAP2 PUSH1 0x20 DUP5 LT PUSH2 0xC4C JUMPI JUMPDEST PUSH1 0x1F ADD PUSH1 0x5 SHR ADD SWAP1 JUMPDEST DUP2 DUP2 LT PUSH2 0xC41 JUMPI POP PUSH2 0xE3 JUMP JUMPDEST PUSH0 DUP2 SSTORE PUSH1 0x1 ADD PUSH2 0xC34 JUMP JUMPDEST SWAP1 SWAP2 POP DUP2 SWAP1 PUSH2 0xC2B JUMP JUMPDEST SWAP1 PUSH1 0x7F AND SWAP1 PUSH2 0xD1 JUMP JUMPDEST ADD MLOAD SWAP1 POP PUSH0 DUP1 PUSH2 0x9C JUMP JUMPDEST PUSH1 0x1F NOT DUP3 AND SWAP4 PUSH0 DUP1 MSTORE DUP1 PUSH0 KECCAK256 SWAP2 PUSH0 JUMPDEST DUP7 DUP2 LT PUSH2 0xCB2 JUMPI POP DUP4 PUSH1 0x1 SWAP6 SWAP7 LT PUSH2 0xC9A JUMPI JUMPDEST POP POP POP DUP2 SHL ADD PUSH0 SSTORE PUSH2 0xB0 JUMP JUMPDEST ADD MLOAD PUSH0 NOT PUSH1 0xF8 DUP5 PUSH1 0x3 SHL AND SHR NOT AND SWAP1 SSTORE PUSH0 DUP1 DUP1 PUSH2 0xC8D JUMP JUMPDEST SWAP2 SWAP3 PUSH1 0x20 PUSH1 0x1 DUP2 SWAP3 DUP7 DUP6 ADD MLOAD DUP2 SSTORE ADD SWAP5 ADD SWAP3 ADD PUSH2 0xC7A JUMP JUMPDEST PUSH0 DUP1 MSTORE PUSH32 0x290DECD9548B62A8D60345A988386FC84BA6BC95484008F6362F93160EF3E563 PUSH1 0x1F DUP4 ADD PUSH1 0x5 SHR DUP2 ADD SWAP2 PUSH1 0x20 DUP5 LT PUSH2 0xD22 JUMPI JUMPDEST PUSH1 0x1F ADD PUSH1 0x5 SHR ADD SWAP1 JUMPDEST DUP2 DUP2 LT PUSH2 0xD17 JUMPI POP PUSH2 0x82 JUMP JUMPDEST PUSH0 DUP2 SSTORE PUSH1 0x1 ADD PUSH2 0xD0A JUMP JUMPDEST SWAP1 SWAP2 POP DUP2 SWAP1 PUSH2 0xD01 JUMP JUMPDEST SWAP1 PUSH1 0x7F AND SWAP1 PUSH2 0x70 JUMP JUMPDEST PUSH0 DUP1 REVERT JUMPDEST PUSH1 0x40 MLOAD SWAP1 PUSH1 0x80 DUP3 ADD PUSH1 0x1 PUSH1 0x1 PUSH1 0x40 SHL SUB DUP2 GT DUP4 DUP3 LT OR PUSH2 0x7B3 JUMPI PUSH1 0x40 MSTORE JUMP JUMPDEST PUSH1 0x40 MLOAD SWAP2 SWAP1 PUSH1 0x1F ADD PUSH1 0x1F NOT AND DUP3 ADD PUSH1 0x1 PUSH1 0x1 PUSH1 0x40 SHL SUB DUP2 GT DUP4 DUP3 LT OR PUSH2 0x7B3 JUMPI PUSH1 0x40 MSTORE JUMP INVALID PUSH1 0xC0 DUP1 PUSH1 0x40 MSTORE PUSH1 0x4 CALLDATASIZE LT ISZERO PUSH2 0x12 JUMPI PUSH0 DUP1 REVERT JUMPDEST PUSH0 CALLDATALOAD PUSH1 0xE0 SHR SWAP1 DUP2 PUSH4 0x102EE33 EQ PUSH2 0x2705 JUMPI POP DUP1 PUSH4 0x1FFC9A7 EQ PUSH2 0x267D JUMPI DUP1 PUSH4 0x6FDDE03 EQ PUSH2 0x25DB JUMPI DUP1 PUSH4 0x81812FC EQ PUSH2 0x25BD JUMPI DUP1 PUSH4 0x95EA7B3 EQ PUSH2 0x2437 JUMPI DUP1 PUSH4 0x12ABC66F EQ PUSH2 0x241C JUMPI DUP1 PUSH4 0x203D3576 EQ PUSH2 0x2401 JUMPI DUP1 PUSH4 0x23B872DD EQ PUSH2 0x23DD JUMPI DUP1 PUSH4 0x248A9CA3 EQ PUSH2 0x23B2 JUMPI DUP1 PUSH4 0x2F2FF15D EQ PUSH2 0x22F9 JUMPI DUP1 PUSH4 0x330077A3 EQ PUSH2 0x132A JUMPI DUP1 PUSH4 0x36568ABE EQ PUSH2 0x2267 JUMPI DUP1 PUSH4 0x3DD2E9A2 EQ PUSH2 0x2217 JUMPI DUP1 PUSH4 0x42842E0E EQ PUSH2 0x2200 JUMPI DUP1 PUSH4 0x4A0706BE EQ PUSH2 0x1ADC JUMPI DUP1 PUSH4 0x6352211E EQ PUSH2 0x1AAC JUMPI DUP1 PUSH4 0x67C56A0F EQ PUSH2 0x1A71 JUMPI DUP1 PUSH4 0x70A08231 EQ PUSH2 0x1A46 JUMPI DUP1 PUSH4 0x779DBBDE EQ PUSH2 0x1A2B JUMPI DUP1 PUSH4 0x786EC4B8 EQ PUSH2 0x1A10 JUMPI DUP1 PUSH4 0x8124B78E EQ PUSH2 0x1457 JUMPI DUP1 PUSH4 0x91D14854 EQ PUSH2 0x140E JUMPI DUP1 PUSH4 0x95D89B41 EQ PUSH2 0x1344 JUMPI DUP1 PUSH4 0xA217FDDF EQ PUSH2 0x132A JUMPI DUP1 PUSH4 0xA22CB465 EQ PUSH2 0x125C JUMPI DUP1 PUSH4 0xA5EA1F21 EQ PUSH2 0x1189 JUMPI DUP1 PUSH4 0xB88D4FDE EQ PUSH2 0x1104 JUMPI DUP1 PUSH4 0xBC6E5C15 EQ PUSH2 0x10CE JUMPI DUP1 PUSH4 0xBF3E5885 EQ PUSH2 0x101E JUMPI DUP1 PUSH4 0xC42A9FB6 EQ PUSH2 0xF3B JUMPI DUP1 PUSH4 0xC87B56DD EQ PUSH2 0xE73 JUMPI DUP1 PUSH4 0xC881EA67 EQ PUSH2 0x6A2 JUMPI DUP1 PUSH4 0xD5391393 EQ PUSH2 0x668 JUMPI DUP1 PUSH4 0xD547741F EQ PUSH2 0x623 JUMPI DUP1 PUSH4 0xDD9B2AE5 EQ PUSH2 0x596 JUMPI DUP1 PUSH4 0xE985E9C5 EQ PUSH2 0x53F JUMPI DUP1 PUSH4 0xF834DA0A EQ PUSH2 0x3D3 JUMPI PUSH4 0xFCD48A24 EQ PUSH2 0x1BE JUMPI PUSH0 DUP1 REVERT JUMPDEST CALLVALUE PUSH2 0x3CF JUMPI PUSH1 0x40 CALLDATASIZE PUSH1 0x3 NOT ADD SLT PUSH2 0x3CF JUMPI PUSH2 0x1D7 PUSH2 0x2742 JUMP JUMPDEST PUSH1 0x24 CALLDATALOAD PUSH1 0x1 PUSH1 0x1 PUSH1 0x40 SHL SUB DUP2 GT PUSH2 0x3CF JUMPI PUSH2 0x1F6 SWAP1 CALLDATASIZE SWAP1 PUSH1 0x4 ADD PUSH2 0x27A8 JUMP JUMPDEST SWAP2 SWAP1 PUSH2 0x201 CALLER PUSH2 0x2C0F JUMP JUMPDEST ISZERO PUSH2 0x397 JUMPI PUSH1 0x1 PUSH1 0x1 PUSH1 0xA0 SHL SUB DUP3 AND SWAP3 DUP4 ISZERO PUSH2 0x35E JUMPI PUSH2 0x220 CALLER PUSH2 0x32A8 JUMP JUMPDEST SWAP3 DUP4 PUSH0 MSTORE PUSH1 0xB PUSH1 0x20 MSTORE PUSH1 0x40 PUSH0 KECCAK256 PUSH1 0x1 PUSH1 0x1 PUSH1 0x40 SHL SUB DUP4 GT PUSH2 0x34A JUMPI DUP3 PUSH2 0x251 DUP7 SWAP5 PUSH2 0x24B DUP5 SLOAD PUSH2 0x2862 JUMP JUMPDEST DUP5 PUSH2 0x2A6F JUMP JUMPDEST PUSH0 PUSH1 0x1F DUP3 GT PUSH1 0x1 EQ PUSH2 0x2DF JUMPI SWAP1 DUP1 PUSH2 0x282 SWAP3 PUSH2 0x2AC SWAP8 PUSH0 SWAP3 PUSH2 0x2D4 JUMPI JUMPDEST POP POP DUP2 PUSH1 0x1 SHL SWAP2 PUSH0 NOT SWAP1 PUSH1 0x3 SHL SHR NOT AND OR SWAP1 JUMP JUMPDEST SWAP1 SSTORE JUMPDEST PUSH0 DUP3 DUP2 MSTORE PUSH1 0x8 PUSH1 0x20 MSTORE PUSH1 0x40 SWAP1 KECCAK256 PUSH1 0x5 ADD DUP1 SLOAD PUSH1 0xFF PUSH1 0xA0 SHL NOT AND PUSH1 0x1 PUSH1 0xA0 SHL OR SWAP1 SSTORE CALLER PUSH2 0x29F7 JUMP JUMPDEST CALLER SWAP1 PUSH32 0x5D4081C14EE1721E51DDE8B5E46CE9667329DA7B356F8C2070A700D7888B3C75 PUSH0 DUP1 LOG4 STOP JUMPDEST ADD CALLDATALOAD SWAP1 POP PUSH0 DUP1 PUSH2 0x26E JUMP JUMPDEST SWAP5 PUSH1 0x1F NOT DUP3 AND SWAP6 DUP4 PUSH0 MSTORE PUSH1 0x20 PUSH0 KECCAK256 SWAP7 PUSH0 JUMPDEST DUP2 DUP2 LT PUSH2 0x32F JUMPI POP SWAP2 PUSH2 0x2AC SWAP8 SWAP2 DUP5 PUSH1 0x1 SWAP6 SWAP5 LT PUSH2 0x316 JUMPI JUMPDEST POP POP POP DUP2 SHL ADD SWAP1 SSTORE PUSH2 0x285 JUMP JUMPDEST ADD CALLDATALOAD PUSH0 NOT PUSH1 0x3 DUP5 SWAP1 SHL PUSH1 0xF8 AND SHR NOT AND SWAP1 SSTORE PUSH0 DUP1 DUP1 PUSH2 0x309 JUMP JUMPDEST DUP3 DUP5 ADD CALLDATALOAD DUP10 SSTORE PUSH1 0x1 SWAP1 SWAP9 ADD SWAP8 DUP10 SWAP8 POP PUSH1 0x20 SWAP3 DUP4 ADD SWAP3 ADD PUSH2 0x2F0 JUMP JUMPDEST PUSH4 0x4E487B71 PUSH1 0xE0 SHL PUSH0 MSTORE PUSH1 0x41 PUSH1 0x4 MSTORE PUSH1 0x24 PUSH0 REVERT JUMPDEST PUSH1 0x40 MLOAD PUSH3 0x461BCD PUSH1 0xE5 SHL DUP2 MSTORE PUSH1 0x20 PUSH1 0x4 DUP3 ADD MSTORE PUSH1 0x11 PUSH1 0x24 DUP3 ADD MSTORE PUSH17 0x125B9D985B1A59081C9958DA5C1A595B9D PUSH1 0x7A SHL PUSH1 0x44 DUP3 ADD MSTORE PUSH1 0x64 SWAP1 REVERT JUMPDEST PUSH1 0x40 MLOAD PUSH3 0x461BCD PUSH1 0xE5 SHL DUP2 MSTORE PUSH1 0x20 PUSH1 0x4 DUP3 ADD MSTORE PUSH1 0x10 PUSH1 0x24 DUP3 ADD MSTORE PUSH16 0x2737BA103A37B5B2B7103437B63232B9 PUSH1 0x81 SHL PUSH1 0x44 DUP3 ADD MSTORE PUSH1 0x64 SWAP1 REVERT JUMPDEST PUSH0 DUP1 REVERT JUMPDEST CALLVALUE PUSH2 0x3CF JUMPI PUSH1 0x20 CALLDATASIZE PUSH1 0x3 NOT ADD SLT PUSH2 0x3CF JUMPI PUSH1 0x4 CALLDATALOAD PUSH0 DUP2 DUP2 MSTORE PUSH1 0x2 PUSH1 0x20 MSTORE PUSH1 0x40 SWAP1 KECCAK256 SLOAD PUSH1 0x1 PUSH1 0x1 PUSH1 0xA0 SHL SUB AND ISZERO PUSH2 0x503 JUMPI PUSH0 MSTORE PUSH1 0x8 PUSH1 0x20 MSTORE PUSH2 0x4D3 PUSH1 0x40 PUSH0 KECCAK256 PUSH1 0x40 MLOAD SWAP1 PUSH2 0x41E DUP3 PUSH2 0x27D5 JUMP JUMPDEST PUSH1 0x40 MLOAD PUSH2 0x436 DUP2 PUSH2 0x42F DUP2 DUP6 PUSH2 0x289A JUMP JUMPDEST SUB DUP3 PUSH2 0x27F0 JUMP JUMPDEST DUP3 MSTORE PUSH2 0x444 PUSH1 0x1 DUP3 ADD PUSH2 0x2C84 JUMP JUMPDEST PUSH1 0x20 DUP4 ADD MSTORE PUSH1 0x40 MLOAD SWAP2 PUSH2 0x465 DUP4 PUSH2 0x45E DUP2 PUSH1 0x2 DUP7 ADD PUSH2 0x289A JUMP JUMPDEST SUB DUP5 PUSH2 0x27F0 JUMP JUMPDEST PUSH1 0x40 DUP2 ADD SWAP3 DUP4 MSTORE PUSH1 0x40 MLOAD PUSH2 0x480 DUP2 PUSH2 0x42F DUP2 PUSH1 0x3 DUP8 ADD PUSH2 0x289A JUMP JUMPDEST DUP1 PUSH1 0x60 DUP4 ADD MSTORE PUSH2 0x4EF PUSH1 0x5 PUSH1 0x4 DUP6 ADD SLOAD SWAP5 DUP6 PUSH1 0x80 DUP7 ADD MSTORE ADD SLOAD SWAP2 PUSH2 0x4E1 PUSH1 0xFF PUSH1 0x1 DUP1 PUSH1 0xA0 SHL SUB DUP6 AND SWAP5 DUP6 PUSH1 0xA0 DUP9 ADD MSTORE PUSH1 0xA0 SHR AND ISZERO ISZERO SWAP5 DUP6 PUSH1 0xC0 DUP3 ADD MSTORE MLOAD SWAP7 MLOAD PUSH1 0x40 MLOAD SWAP9 DUP10 SWAP9 PUSH1 0xC0 DUP11 MSTORE PUSH1 0xC0 DUP11 ADD SWAP1 PUSH2 0x271E JUMP JUMPDEST SWAP1 DUP9 DUP3 SUB PUSH1 0x20 DUP11 ADD MSTORE PUSH2 0x271E JUMP JUMPDEST SWAP1 DUP7 DUP3 SUB PUSH1 0x40 DUP9 ADD MSTORE PUSH2 0x271E JUMP JUMPDEST SWAP3 PUSH1 0x60 DUP6 ADD MSTORE PUSH1 0x80 DUP5 ADD MSTORE PUSH1 0xA0 DUP4 ADD MSTORE SUB SWAP1 RETURN JUMPDEST PUSH1 0x40 MLOAD PUSH3 0x461BCD PUSH1 0xE5 SHL DUP2 MSTORE PUSH1 0x20 PUSH1 0x4 DUP3 ADD MSTORE PUSH1 0x14 PUSH1 0x24 DUP3 ADD MSTORE PUSH20 0x151BDAD95B88191BD95CC81B9BDD08195E1A5CDD PUSH1 0x62 SHL PUSH1 0x44 DUP3 ADD MSTORE PUSH1 0x64 SWAP1 REVERT JUMPDEST CALLVALUE PUSH2 0x3CF JUMPI PUSH1 0x40 CALLDATASIZE PUSH1 0x3 NOT ADD SLT PUSH2 0x3CF JUMPI PUSH2 0x558 PUSH2 0x2742 JUMP JUMPDEST PUSH2 0x560 PUSH2 0x2758 JUMP JUMPDEST SWAP1 PUSH1 0x1 DUP1 PUSH1 0xA0 SHL SUB AND PUSH0 MSTORE PUSH1 0x5 PUSH1 0x20 MSTORE PUSH1 0x40 PUSH0 KECCAK256 SWAP1 PUSH1 0x1 DUP1 PUSH1 0xA0 SHL SUB AND PUSH0 MSTORE PUSH1 0x20 MSTORE PUSH1 0x20 PUSH1 0xFF PUSH1 0x40 PUSH0 KECCAK256 SLOAD AND PUSH1 0x40 MLOAD SWAP1 ISZERO ISZERO DUP2 MSTORE RETURN JUMPDEST CALLVALUE PUSH2 0x3CF JUMPI PUSH1 0x20 CALLDATASIZE PUSH1 0x3 NOT ADD SLT PUSH2 0x3CF JUMPI PUSH1 0x4 CALLDATALOAD PUSH0 MSTORE PUSH1 0xD PUSH1 0x20 MSTORE PUSH2 0x5BD PUSH1 0x40 PUSH0 KECCAK256 PUSH2 0x2C84 JUMP JUMPDEST PUSH1 0x40 MLOAD DUP1 SWAP2 PUSH1 0x20 DUP3 ADD PUSH1 0x20 DUP4 MSTORE DUP2 MLOAD DUP1 SWAP2 MSTORE PUSH1 0x40 DUP4 ADD SWAP1 PUSH1 0x20 PUSH1 0x40 DUP3 PUSH1 0x5 SHL DUP7 ADD ADD SWAP4 ADD SWAP2 PUSH0 SWAP1 JUMPDEST DUP3 DUP3 LT PUSH2 0x5F4 JUMPI POP POP POP POP SUB SWAP1 RETURN JUMPDEST SWAP2 SWAP4 PUSH1 0x1 SWAP2 SWAP4 SWAP6 POP PUSH1 0x20 PUSH2 0x613 DUP2 SWAP3 PUSH1 0x3F NOT DUP11 DUP3 SUB ADD DUP7 MSTORE DUP9 MLOAD PUSH2 0x271E JUMP JUMPDEST SWAP7 ADD SWAP3 ADD SWAP3 ADD DUP6 SWAP5 SWAP4 SWAP2 SWAP3 PUSH2 0x5E5 JUMP JUMPDEST CALLVALUE PUSH2 0x3CF JUMPI PUSH1 0x40 CALLDATASIZE PUSH1 0x3 NOT ADD SLT PUSH2 0x3CF JUMPI PUSH2 0x666 PUSH1 0x4 CALLDATALOAD PUSH2 0x642 PUSH2 0x2758 JUMP JUMPDEST SWAP1 PUSH2 0x661 PUSH2 0x65C DUP3 PUSH0 MSTORE PUSH1 0x6 PUSH1 0x20 MSTORE PUSH1 0x1 PUSH1 0x40 PUSH0 KECCAK256 ADD SLOAD SWAP1 JUMP JUMPDEST PUSH2 0x302D JUMP JUMPDEST PUSH2 0x3071 JUMP JUMPDEST STOP JUMPDEST CALLVALUE PUSH2 0x3CF JUMPI PUSH0 CALLDATASIZE PUSH1 0x3 NOT ADD SLT PUSH2 0x3CF JUMPI PUSH1 0x20 PUSH1 0x40 MLOAD PUSH32 0x9F2DF0FED2C77648DE5860A4CC508CD0818C85B8B8A1AB4CEEEF8D981C8956A6 DUP2 MSTORE RETURN JUMPDEST CALLVALUE PUSH2 0x3CF JUMPI PUSH1 0xA0 CALLDATASIZE PUSH1 0x3 NOT ADD SLT PUSH2 0x3CF JUMPI PUSH2 0x6BB PUSH2 0x2742 JUMP JUMPDEST PUSH1 0x24 CALLDATALOAD SWAP1 PUSH1 0x44 CALLDATALOAD PUSH1 0x1 PUSH1 0x1 PUSH1 0x40 SHL SUB DUP2 GT PUSH2 0x3CF JUMPI CALLDATASIZE PUSH1 0x23 DUP3 ADD SLT ISZERO PUSH2 0x3CF JUMPI DUP1 PUSH1 0x4 ADD CALLDATALOAD SWAP2 PUSH1 0x1 PUSH1 0x1 PUSH1 0x40 SHL SUB DUP4 GT PUSH2 0x3CF JUMPI PUSH1 0x24 DUP3 ADD PUSH1 0x24 DUP5 PUSH1 0x5 SHL DUP5 ADD ADD SWAP5 CALLDATASIZE DUP7 GT PUSH2 0x3CF JUMPI PUSH1 0x64 CALLDATALOAD PUSH1 0x1 PUSH1 0x1 PUSH1 0x40 SHL SUB DUP2 GT PUSH2 0x3CF JUMPI PUSH2 0x723 SWAP1 CALLDATASIZE SWAP1 PUSH1 0x4 ADD PUSH2 0x27A8 JUMP JUMPDEST SWAP3 SWAP1 SWAP5 PUSH1 0x84 CALLDATALOAD PUSH1 0x1 PUSH1 0x1 PUSH1 0x40 SHL SUB DUP2 GT PUSH2 0x3CF JUMPI PUSH2 0x745 SWAP1 CALLDATASIZE SWAP1 PUSH1 0x4 ADD PUSH2 0x27A8 JUMP JUMPDEST SWAP8 SWAP1 SWAP9 PUSH2 0x750 PUSH2 0x2F20 JUMP JUMPDEST PUSH1 0x5 DUP6 GT PUSH2 0xE3C JUMPI PUSH1 0x2 DUP3 LT ISZERO DUP1 PUSH2 0xE31 JUMPI JUMPDEST ISZERO PUSH2 0xDF7 JUMPI PUSH1 0x7 SLOAD SWAP9 SWAP10 DUP10 SWAP1 PUSH2 0x778 DUP3 PUSH2 0x2A20 JUMP JUMPDEST PUSH1 0x7 SSTORE PUSH2 0x785 DUP3 DUP11 PUSH2 0x3194 JUMP JUMPDEST DUP7 PUSH0 MSTORE PUSH1 0xC PUSH1 0x20 MSTORE PUSH1 0x40 PUSH0 KECCAK256 SWAP12 PUSH2 0x7AD PUSH2 0x7A6 PUSH1 0x40 MLOAD SWAP15 DUP16 SWAP2 DUP3 DUP1 SWAP3 PUSH2 0x289A JUMP JUMPDEST SUB SWAP1 PUSH2 0x27F0 JUMP JUMPDEST PUSH1 0x40 MLOAD SWAP2 PUSH2 0x7BA DUP4 PUSH2 0x27D5 JUMP JUMPDEST DUP14 DUP4 MSTORE PUSH2 0x7C6 DUP7 PUSH2 0x2A42 JUMP JUMPDEST SWAP5 PUSH2 0x7D4 PUSH1 0x40 MLOAD SWAP7 DUP8 PUSH2 0x27F0 JUMP JUMPDEST DUP7 DUP7 MSTORE DUP9 SWAP1 PUSH1 0x20 DUP8 ADD JUMPDEST DUP2 DUP4 LT PUSH2 0xDAB JUMPI POP POP POP PUSH1 0x20 DUP4 ADD SWAP5 DUP6 MSTORE PUSH2 0x80D SWAP1 PUSH2 0x7FE CALLDATASIZE DUP13 DUP16 PUSH2 0x282C JUMP JUMPDEST SWAP3 PUSH1 0x40 DUP6 ADD SWAP4 DUP5 MSTORE CALLDATASIZE SWAP2 PUSH2 0x282C JUMP JUMPDEST PUSH1 0x60 DUP4 ADD SWAP1 DUP2 MSTORE PUSH1 0x80 DUP4 ADD SWAP2 TIMESTAMP DUP4 MSTORE PUSH1 0xA0 DUP5 ADD SWAP6 PUSH0 DUP8 MSTORE PUSH1 0xC0 DUP6 ADD SWAP6 PUSH0 DUP8 MSTORE PUSH0 MSTORE PUSH1 0x8 PUSH1 0x20 MSTORE PUSH1 0x40 PUSH0 KECCAK256 SWAP5 MLOAD DUP1 MLOAD SWAP1 PUSH1 0x1 PUSH1 0x1 PUSH1 0x40 SHL SUB DUP3 GT PUSH2 0x34A JUMPI PUSH2 0x85E DUP3 PUSH2 0x858 DUP10 SLOAD PUSH2 0x2862 JUMP JUMPDEST DUP10 PUSH2 0x2A6F JUMP JUMPDEST PUSH1 0x20 SWAP1 PUSH1 0x1F DUP4 GT PUSH1 0x1 EQ PUSH2 0xD48 JUMPI PUSH2 0x88C SWAP3 SWAP2 PUSH0 SWAP2 DUP4 PUSH2 0xB95 JUMPI POP POP DUP2 PUSH1 0x1 SHL SWAP2 PUSH0 NOT SWAP1 PUSH1 0x3 SHL SHR NOT AND OR SWAP1 JUMP JUMPDEST DUP6 SSTORE JUMPDEST PUSH1 0x1 DUP6 ADD SWAP1 MLOAD PUSH1 0x20 DUP2 MLOAD SWAP2 PUSH2 0x8A4 DUP4 DUP6 PUSH2 0x2AB2 JUMP JUMPDEST ADD SWAP2 PUSH0 MSTORE PUSH1 0x20 PUSH0 KECCAK256 SWAP2 PUSH0 SWAP1 JUMPDEST DUP3 DUP3 LT PUSH2 0xC73 JUMPI POP POP POP POP PUSH1 0x2 DUP5 ADD SWAP1 MLOAD DUP1 MLOAD SWAP1 PUSH1 0x1 PUSH1 0x1 PUSH1 0x40 SHL SUB DUP3 GT PUSH2 0x34A JUMPI PUSH2 0x8E6 DUP3 PUSH2 0x8E0 DUP6 SLOAD PUSH2 0x2862 JUMP JUMPDEST DUP6 PUSH2 0x2A6F JUMP JUMPDEST PUSH1 0x20 SWAP1 PUSH1 0x1F DUP4 GT PUSH1 0x1 EQ PUSH2 0xC10 JUMPI PUSH2 0x914 SWAP3 SWAP2 PUSH0 SWAP2 DUP4 PUSH2 0xB95 JUMPI POP POP DUP2 PUSH1 0x1 SHL SWAP2 PUSH0 NOT SWAP1 PUSH1 0x3 SHL SHR NOT AND OR SWAP1 JUMP JUMPDEST SWAP1 SSTORE JUMPDEST MLOAD DUP1 MLOAD PUSH1 0x3 DUP5 ADD SWAP2 PUSH1 0x1 PUSH1 0x1 PUSH1 0x40 SHL SUB DUP3 GT PUSH2 0x34A JUMPI PUSH2 0x93B DUP3 PUSH2 0x8E0 DUP6 SLOAD PUSH2 0x2862 JUMP JUMPDEST PUSH1 0x20 SWAP1 PUSH1 0x1F DUP4 GT PUSH1 0x1 EQ PUSH2 0xBA0 JUMPI DUP3 PUSH1 0x5 SWAP6 SWAP4 PUSH2 0x9B5 SWAP10 SWAP9 SWAP8 SWAP6 SWAP4 PUSH2 0x974 SWAP4 PUSH0 SWAP3 PUSH2 0xB95 JUMPI POP POP DUP2 PUSH1 0x1 SHL SWAP2 PUSH0 NOT SWAP1 PUSH1 0x3 SHL SHR NOT AND OR SWAP1 JUMP JUMPDEST SWAP1 SSTORE SWAP7 SWAP6 SWAP7 JUMPDEST MLOAD PUSH1 0x4 DUP3 ADD SSTORE SWAP3 MLOAD SWAP3 ADD DUP1 SLOAD SWAP2 MLOAD PUSH1 0x1 PUSH1 0x1 PUSH1 0xA8 SHL SUB NOT SWAP1 SWAP3 AND PUSH1 0x1 PUSH1 0x1 PUSH1 0xA0 SHL SUB SWAP4 SWAP1 SWAP4 AND SWAP3 SWAP1 SWAP3 OR SWAP1 ISZERO ISZERO PUSH1 0xA0 SHL PUSH1 0xFF PUSH1 0xA0 SHL AND OR SWAP1 SSTORE JUMP JUMPDEST DUP8 PUSH0 MSTORE PUSH1 0xD PUSH1 0x20 MSTORE PUSH1 0x40 PUSH0 KECCAK256 SWAP3 PUSH2 0x9CC DUP4 DUP6 PUSH2 0x2AB2 JUMP JUMPDEST SWAP3 PUSH0 MSTORE PUSH1 0x20 PUSH0 KECCAK256 SWAP3 PUSH0 SWAP2 PUSH1 0x42 NOT DUP2 CALLDATASIZE SUB ADD SWAP2 JUMPDEST DUP5 DUP5 LT PUSH2 0xA8F JUMPI POP POP PUSH1 0x20 DUP10 DUP10 DUP2 PUSH32 0xC75293173A228519BDD31083BD413729A88AA2C3B992C7400C771F84036EC424 PUSH2 0xA6C DUP16 PUSH2 0xA84 DUP15 DUP15 DUP15 DUP5 MLOAD DUP12 DUP7 ADD KECCAK256 PUSH0 MSTORE PUSH1 0x9 DUP12 MSTORE PUSH2 0xA31 DUP9 PUSH1 0x40 PUSH0 KECCAK256 PUSH2 0x2B43 JUMP JUMPDEST PUSH2 0xA39 PUSH2 0x3148 JUMP JUMPDEST PUSH0 MSTORE PUSH1 0xA DUP12 MSTORE PUSH1 0x40 PUSH0 KECCAK256 SWAP1 PUSH0 MSTORE DUP11 MSTORE PUSH1 0x40 PUSH0 KECCAK256 PUSH2 0xA56 DUP2 SLOAD PUSH2 0x2A20 JUMP JUMPDEST SWAP1 SSTORE PUSH1 0x40 MLOAD SWAP5 DUP6 SWAP5 PUSH1 0x40 DUP7 MSTORE PUSH1 0x40 DUP7 ADD SWAP1 PUSH2 0x271E JUMP JUMPDEST DUP5 DUP2 SUB DUP12 DUP7 ADD MSTORE PUSH1 0x1 PUSH1 0x1 PUSH1 0xA0 SHL SUB SWAP1 SWAP3 AND SWAP8 PUSH2 0x2B7E JUMP JUMPDEST SUB SWAP1 LOG3 PUSH1 0x40 MLOAD SWAP1 DUP2 MSTORE RETURN JUMPDEST DUP1 CALLDATALOAD DUP4 DUP2 SLT ISZERO PUSH2 0x3CF JUMPI DUP3 ADD PUSH1 0x24 DUP2 ADD CALLDATALOAD SWAP1 PUSH1 0x1 PUSH1 0x1 PUSH1 0x40 SHL SUB DUP3 GT PUSH2 0x3CF JUMPI DUP2 CALLDATASIZE SUB PUSH1 0x44 DUP3 ADD SGT PUSH2 0x3CF JUMPI PUSH2 0xACF DUP3 PUSH2 0xAC9 DUP11 SLOAD PUSH2 0x2862 JUMP JUMPDEST DUP11 PUSH2 0x2A6F JUMP JUMPDEST PUSH0 SWAP1 PUSH1 0x1F DUP4 GT PUSH1 0x1 EQ PUSH2 0xB23 JUMPI SWAP3 PUSH2 0xB04 DUP4 PUSH1 0x1 SWAP6 SWAP5 PUSH1 0x20 SWAP5 DUP8 SWAP7 PUSH0 SWAP3 PUSH2 0xB13 JUMPI POP POP DUP2 PUSH1 0x1 SHL SWAP2 PUSH0 NOT SWAP1 PUSH1 0x3 SHL SHR NOT AND OR SWAP1 JUMP JUMPDEST DUP10 SSTORE JUMPDEST ADD SWAP7 ADD SWAP4 ADD SWAP3 SWAP5 PUSH2 0x9DF JUMP JUMPDEST ADD DUP6 ADD PUSH1 0x24 ADD CALLDATALOAD SWAP1 POP PUSH0 DUP1 PUSH2 0x26E JUMP JUMPDEST PUSH1 0x1F NOT DUP4 AND SWAP2 DUP10 PUSH0 MSTORE PUSH1 0x20 PUSH0 KECCAK256 SWAP3 PUSH0 JUMPDEST DUP2 DUP2 LT PUSH2 0xB7A JUMPI POP SWAP4 PUSH1 0x20 SWAP4 PUSH1 0x1 SWAP7 SWAP4 DUP8 SWAP7 SWAP4 DUP4 DUP9 SWAP6 LT PUSH2 0xB5C JUMPI JUMPDEST POP POP POP DUP2 SHL ADD DUP10 SSTORE PUSH2 0xB07 JUMP JUMPDEST ADD DUP6 ADD PUSH1 0x24 ADD CALLDATALOAD PUSH0 NOT PUSH1 0x3 DUP5 SWAP1 SHL PUSH1 0xF8 AND SHR NOT AND SWAP1 SSTORE PUSH0 DUP1 DUP1 PUSH2 0xB4F JUMP JUMPDEST PUSH1 0x44 DUP5 DUP5 ADD ADD CALLDATALOAD DUP6 SSTORE PUSH1 0x1 SWAP1 SWAP5 ADD SWAP4 PUSH1 0x20 SWAP3 DUP4 ADD SWAP3 ADD PUSH2 0xB33 JUMP JUMPDEST ADD MLOAD SWAP1 POP PUSH0 DUP1 PUSH2 0x26E JUMP JUMPDEST SWAP1 PUSH1 0x1F NOT DUP4 AND SWAP2 DUP5 PUSH0 MSTORE DUP2 PUSH0 KECCAK256 SWAP3 PUSH0 JUMPDEST DUP2 DUP2 LT PUSH2 0xBF8 JUMPI POP SWAP3 PUSH1 0x1 SWAP3 DUP6 SWAP3 PUSH1 0x5 SWAP9 SWAP7 PUSH2 0x9B5 SWAP13 SWAP12 SWAP11 SWAP9 SWAP7 LT PUSH2 0xBE0 JUMPI JUMPDEST POP POP POP DUP2 SHL ADD SWAP1 SSTORE SWAP7 SWAP6 SWAP7 PUSH2 0x97A JUMP JUMPDEST ADD MLOAD PUSH0 NOT PUSH1 0xF8 DUP5 PUSH1 0x3 SHL AND SHR NOT AND SWAP1 SSTORE PUSH0 DUP1 DUP1 PUSH2 0xBD0 JUMP JUMPDEST SWAP3 SWAP4 PUSH1 0x20 PUSH1 0x1 DUP2 SWAP3 DUP8 DUP7 ADD MLOAD DUP2 SSTORE ADD SWAP6 ADD SWAP4 ADD PUSH2 0xBB0 JUMP JUMPDEST SWAP1 PUSH1 0x1F NOT DUP4 AND SWAP2 DUP5 PUSH0 MSTORE DUP2 PUSH0 KECCAK256 SWAP3 PUSH0 JUMPDEST DUP2 DUP2 LT PUSH2 0xC5B JUMPI POP SWAP1 DUP5 PUSH1 0x1 SWAP6 SWAP5 SWAP4 SWAP3 LT PUSH2 0xC43 JUMPI JUMPDEST POP POP POP DUP2 SHL ADD SWAP1 SSTORE PUSH2 0x917 JUMP JUMPDEST ADD MLOAD PUSH0 NOT PUSH1 0xF8 DUP5 PUSH1 0x3 SHL AND SHR NOT AND SWAP1 SSTORE PUSH0 DUP1 DUP1 PUSH2 0xC36 JUMP JUMPDEST SWAP3 SWAP4 PUSH1 0x20 PUSH1 0x1 DUP2 SWAP3 DUP8 DUP7 ADD MLOAD DUP2 SSTORE ADD SWAP6 ADD SWAP4 ADD PUSH2 0xC20 JUMP JUMPDEST DUP1 MLOAD DUP1 MLOAD SWAP1 PUSH1 0x1 PUSH1 0x1 PUSH1 0x40 SHL SUB DUP3 GT PUSH2 0x34A JUMPI PUSH2 0xC9A DUP3 PUSH2 0xC94 DUP9 SLOAD PUSH2 0x2862 JUMP JUMPDEST DUP9 PUSH2 0x2A6F JUMP JUMPDEST PUSH1 0x20 SWAP1 PUSH1 0x1F DUP4 GT PUSH1 0x1 EQ PUSH2 0xCDF JUMPI SWAP3 PUSH2 0xCD0 DUP4 PUSH1 0x1 SWAP6 SWAP5 PUSH1 0x20 SWAP5 DUP8 SWAP7 PUSH0 SWAP3 PUSH2 0xB95 JUMPI POP POP DUP2 PUSH1 0x1 SHL SWAP2 PUSH0 NOT SWAP1 PUSH1 0x3 SHL SHR NOT AND OR SWAP1 JUMP JUMPDEST DUP8 SSTORE JUMPDEST ADD SWAP5 ADD SWAP2 ADD SWAP1 SWAP3 PUSH2 0x8B0 JUMP JUMPDEST SWAP1 PUSH1 0x1F NOT DUP4 AND SWAP2 DUP8 PUSH0 MSTORE DUP2 PUSH0 KECCAK256 SWAP3 PUSH0 JUMPDEST DUP2 DUP2 LT PUSH2 0xD30 JUMPI POP SWAP4 PUSH1 0x20 SWAP4 PUSH1 0x1 SWAP7 SWAP4 DUP8 SWAP7 SWAP4 DUP4 DUP9 SWAP6 LT PUSH2 0xD18 JUMPI JUMPDEST POP POP POP DUP2 SHL ADD DUP8 SSTORE PUSH2 0xCD3 JUMP JUMPDEST ADD MLOAD PUSH0 NOT PUSH1 0xF8 DUP5 PUSH1 0x3 SHL AND SHR NOT AND SWAP1 SSTORE PUSH0 DUP1 DUP1 PUSH2 0xD0B JUMP JUMPDEST SWAP3 SWAP4 PUSH1 0x20 PUSH1 0x1 DUP2 SWAP3 DUP8 DUP7 ADD MLOAD DUP2 SSTORE ADD SWAP6 ADD SWAP4 ADD PUSH2 0xCEF JUMP JUMPDEST SWAP1 PUSH1 0x1F NOT DUP4 AND SWAP2 DUP9 PUSH0 MSTORE DUP2 PUSH0 KECCAK256 SWAP3 PUSH0 JUMPDEST DUP2 DUP2 LT PUSH2 0xD93 JUMPI POP SWAP1 DUP5 PUSH1 0x1 SWAP6 SWAP5 SWAP4 SWAP3 LT PUSH2 0xD7B JUMPI JUMPDEST POP POP POP DUP2 SHL ADD DUP6 SSTORE PUSH2 0x88F JUMP JUMPDEST ADD MLOAD PUSH0 NOT PUSH1 0xF8 DUP5 PUSH1 0x3 SHL AND SHR NOT AND SWAP1 SSTORE PUSH0 DUP1 DUP1 PUSH2 0xD6E JUMP JUMPDEST SWAP3 SWAP4 PUSH1 0x20 PUSH1 0x1 DUP2 SWAP3 DUP8 DUP7 ADD MLOAD DUP2 SSTORE ADD SWAP6 ADD SWAP4 ADD PUSH2 0xD58 JUMP JUMPDEST SWAP1 SWAP2 DUP1 SWAP4 SWAP5 SWAP6 SWAP7 POP CALLDATALOAD PUSH1 0x1 PUSH1 0x1 PUSH1 0x40 SHL SUB DUP2 GT PUSH2 0x3CF JUMPI DUP10 ADD CALLDATASIZE PUSH1 0x43 DUP3 ADD SLT ISZERO PUSH2 0x3CF JUMPI PUSH1 0x20 SWAP2 PUSH2 0xDE7 DUP4 SWAP3 CALLDATASIZE SWAP1 PUSH1 0x44 PUSH1 0x24 DUP3 ADD CALLDATALOAD SWAP2 ADD PUSH2 0x282C JUMP JUMPDEST DUP2 MSTORE ADD SWAP3 ADD SWAP1 DUP15 SWAP6 SWAP5 SWAP4 SWAP3 PUSH2 0x7DE JUMP JUMPDEST PUSH1 0x40 MLOAD PUSH3 0x461BCD PUSH1 0xE5 SHL DUP2 MSTORE PUSH1 0x20 PUSH1 0x4 DUP3 ADD MSTORE PUSH1 0x12 PUSH1 0x24 DUP3 ADD MSTORE PUSH18 0x125B9D985B1A590818D85C990818DBDD5B9D PUSH1 0x72 SHL PUSH1 0x44 DUP3 ADD MSTORE PUSH1 0x64 SWAP1 REVERT JUMPDEST POP PUSH1 0x7 DUP3 GT ISZERO PUSH2 0x763 JUMP JUMPDEST PUSH1 0x40 MLOAD PUSH3 0x461BCD PUSH1 0xE5 SHL DUP2 MSTORE PUSH1 0x20 PUSH1 0x4 DUP3 ADD MSTORE PUSH1 0xF PUSH1 0x24 DUP3 ADD MSTORE PUSH15 0x125B9D985B1A59081D1E5C19481251 PUSH1 0x8A SHL PUSH1 0x44 DUP3 ADD MSTORE PUSH1 0x64 SWAP1 REVERT JUMPDEST CALLVALUE PUSH2 0x3CF JUMPI PUSH1 0x20 CALLDATASIZE PUSH1 0x3 NOT ADD SLT PUSH2 0x3CF JUMPI PUSH1 0x4 CALLDATALOAD PUSH0 DUP2 DUP2 MSTORE PUSH1 0x2 PUSH1 0x20 MSTORE PUSH1 0x40 SWAP1 KECCAK256 SLOAD PUSH1 0x1 PUSH1 0x1 PUSH1 0xA0 SHL SUB AND ISZERO PUSH2 0xEDE JUMPI PUSH0 MSTORE PUSH1 0x8 PUSH1 0x20 MSTORE PUSH2 0xEDA PUSH2 0x42F PUSH2 0xEC6 PUSH1 0x3 PUSH1 0x40 PUSH0 KECCAK256 ADD PUSH1 0x40 MLOAD SWAP3 DUP4 DUP1 SWAP3 PUSH2 0x289A JUMP JUMPDEST PUSH1 0x40 MLOAD SWAP2 DUP3 SWAP2 PUSH1 0x20 DUP4 MSTORE PUSH1 0x20 DUP4 ADD SWAP1 PUSH2 0x271E JUMP JUMPDEST SUB SWAP1 RETURN JUMPDEST PUSH1 0x40 MLOAD PUSH3 0x461BCD PUSH1 0xE5 SHL DUP2 MSTORE PUSH1 0x20 PUSH1 0x4 DUP3 ADD MSTORE PUSH1 0x2F PUSH1 0x24 DUP3 ADD MSTORE PUSH32 0x4552433732314D657461646174613A2055524920717565727920666F72206E6F PUSH1 0x44 DUP3 ADD MSTORE PUSH15 0x3732BC34B9BA32B73A103A37B5B2B7 PUSH1 0x89 SHL PUSH1 0x64 DUP3 ADD MSTORE PUSH1 0x84 SWAP1 REVERT JUMPDEST CALLVALUE PUSH2 0x3CF JUMPI PUSH1 0x20 CALLDATASIZE PUSH1 0x3 NOT ADD SLT PUSH2 0x3CF JUMPI PUSH1 0x1 PUSH1 0x1 PUSH1 0xA0 SHL SUB PUSH2 0xF5C PUSH2 0x2742 JUMP JUMPDEST AND DUP1 ISZERO PUSH2 0xFE1 JUMPI PUSH2 0xF76 PUSH2 0xF6F CALLER PUSH2 0x2C0F JUMP JUMPDEST ISZERO ISZERO PUSH2 0x2CE1 JUMP JUMPDEST PUSH2 0xF7F CALLER PUSH2 0x32A8 JUMP JUMPDEST PUSH2 0xF9B CALLER PUSH1 0x1 PUSH1 0x1 PUSH1 0xA0 SHL SUB PUSH2 0xF94 DUP5 PUSH2 0x2BEA JUMP JUMPDEST AND EQ PUSH2 0x29B9 JUMP JUMPDEST PUSH0 DUP2 DUP2 MSTORE PUSH1 0x8 PUSH1 0x20 MSTORE PUSH1 0x40 DUP2 KECCAK256 PUSH1 0x5 ADD DUP1 SLOAD PUSH1 0x1 PUSH1 0x1 PUSH1 0xA0 SHL SUB NOT AND DUP5 OR SWAP1 SSTORE PUSH32 0x1CFBC005935637E3F8ED3AF97B1A87AF94CF9A9F0C163E570E5ED7BD3446903A SWAP1 DUP1 LOG3 STOP JUMPDEST PUSH1 0x40 MLOAD PUSH3 0x461BCD PUSH1 0xE5 SHL DUP2 MSTORE PUSH1 0x20 PUSH1 0x4 DUP3 ADD MSTORE PUSH1 0x15 PUSH1 0x24 DUP3 ADD MSTORE PUSH21 0x496E76616C6964206167656E742061646472657373 PUSH1 0x58 SHL PUSH1 0x44 DUP3 ADD MSTORE PUSH1 0x64 SWAP1 REVERT JUMPDEST CALLVALUE PUSH2 0x3CF JUMPI PUSH1 0x20 CALLDATASIZE PUSH1 0x3 NOT ADD SLT PUSH2 0x3CF JUMPI PUSH1 0x4 CALLDATALOAD PUSH0 MSTORE PUSH1 0xC PUSH1 0x20 MSTORE PUSH1 0x40 PUSH0 KECCAK256 PUSH1 0x40 MLOAD SWAP1 PUSH1 0x80 DUP3 ADD SWAP2 DUP1 DUP4 LT PUSH1 0x1 PUSH1 0x1 PUSH1 0x40 SHL SUB DUP5 GT OR PUSH2 0x34A JUMPI PUSH2 0x10BA SWAP3 PUSH1 0x40 MSTORE PUSH1 0x60 PUSH1 0x40 MLOAD SWAP3 PUSH2 0x107A DUP5 PUSH2 0x1073 DUP2 DUP5 PUSH2 0x289A JUMP JUMPDEST SUB DUP6 PUSH2 0x27F0 JUMP JUMPDEST DUP4 DUP4 MSTORE PUSH1 0xFF PUSH1 0x1 DUP3 ADD SLOAD AND SWAP3 DUP4 PUSH1 0x20 DUP3 ADD MSTORE PUSH1 0xFF PUSH1 0x3 PUSH1 0x2 DUP5 ADD SLOAD SWAP4 DUP5 PUSH1 0x40 DUP6 ADD MSTORE ADD SLOAD AND ISZERO ISZERO SWAP3 DUP4 SWAP2 ADD MSTORE PUSH1 0x40 MLOAD SWAP5 DUP6 SWAP5 PUSH1 0x80 DUP7 MSTORE PUSH1 0x80 DUP7 ADD SWAP1 PUSH2 0x271E JUMP JUMPDEST SWAP3 PUSH1 0x20 DUP6 ADD MSTORE PUSH1 0x40 DUP5 ADD MSTORE PUSH1 0x60 DUP4 ADD MSTORE SUB SWAP1 RETURN JUMPDEST CALLVALUE PUSH2 0x3CF JUMPI PUSH1 0x40 CALLDATASIZE PUSH1 0x3 NOT ADD SLT PUSH2 0x3CF JUMPI PUSH1 0x4 CALLDATALOAD PUSH0 MSTORE PUSH1 0xA PUSH1 0x20 MSTORE PUSH1 0x40 PUSH0 KECCAK256 PUSH1 0x24 CALLDATALOAD PUSH0 MSTORE PUSH1 0x20 MSTORE PUSH1 0x20 PUSH1 0x40 PUSH0 KECCAK256 SLOAD PUSH1 0x40 MLOAD SWAP1 DUP2 MSTORE RETURN JUMPDEST CALLVALUE PUSH2 0x3CF JUMPI PUSH1 0x80 CALLDATASIZE PUSH1 0x3 NOT ADD SLT PUSH2 0x3CF JUMPI PUSH2 0x111D PUSH2 0x2742 JUMP JUMPDEST PUSH2 0x1125 PUSH2 0x2758 JUMP JUMPDEST SWAP1 PUSH1 0x64 CALLDATALOAD SWAP1 PUSH1 0x44 CALLDATALOAD PUSH1 0x1 PUSH1 0x1 PUSH1 0x40 SHL SUB DUP4 GT PUSH2 0x3CF JUMPI CALLDATASIZE PUSH1 0x23 DUP5 ADD SLT ISZERO PUSH2 0x3CF JUMPI PUSH2 0x666 SWAP4 PUSH2 0x1161 PUSH2 0x1184 SWAP5 CALLDATASIZE SWAP1 PUSH1 0x24 DUP2 PUSH1 0x4 ADD CALLDATALOAD SWAP2 ADD PUSH2 0x282C JUMP JUMPDEST SWAP3 PUSH2 0x1174 PUSH2 0x116F DUP5 CALLER PUSH2 0x2D2D JUMP JUMPDEST PUSH2 0x2957 JUMP JUMPDEST PUSH2 0x117F DUP4 DUP4 DUP4 PUSH2 0x2DFC JUMP JUMPDEST PUSH2 0x34CD JUMP JUMPDEST PUSH2 0x3396 JUMP JUMPDEST CALLVALUE PUSH2 0x3CF JUMPI PUSH0 CALLDATASIZE PUSH1 0x3 NOT ADD SLT PUSH2 0x3CF JUMPI PUSH2 0x11A5 PUSH2 0xF6F CALLER PUSH2 0x2C0F JUMP JUMPDEST PUSH2 0x11AE CALLER PUSH2 0x32A8 JUMP JUMPDEST PUSH2 0x11C3 CALLER PUSH1 0x1 PUSH1 0x1 PUSH1 0xA0 SHL SUB PUSH2 0xF94 DUP5 PUSH2 0x2BEA JUMP JUMPDEST PUSH0 DUP2 DUP2 MSTORE PUSH1 0x8 PUSH1 0x20 MSTORE PUSH1 0x40 SWAP1 KECCAK256 PUSH1 0x5 ADD SLOAD PUSH1 0x1 PUSH1 0x1 PUSH1 0xA0 SHL SUB AND ISZERO PUSH2 0x1226 JUMPI PUSH0 DUP2 DUP2 MSTORE PUSH1 0x8 PUSH1 0x20 MSTORE PUSH1 0x40 DUP2 KECCAK256 PUSH1 0x5 ADD DUP1 SLOAD PUSH1 0x1 PUSH1 0x1 PUSH1 0xA0 SHL SUB NOT AND SWAP1 SSTORE PUSH32 0xD3FFFF4BEB5D819451ADB4E8E366D2C3E6699C02A7849ED0CE73A893A2773266 SWAP1 DUP1 LOG2 STOP JUMPDEST PUSH1 0x40 MLOAD PUSH3 0x461BCD PUSH1 0xE5 SHL DUP2 MSTORE PUSH1 0x20 PUSH1 0x4 DUP3 ADD MSTORE PUSH1 0xE PUSH1 0x24 DUP3 ADD MSTORE PUSH14 0x139BC81859D95B9D08189BDD5B99 PUSH1 0x92 SHL PUSH1 0x44 DUP3 ADD MSTORE PUSH1 0x64 SWAP1 REVERT JUMPDEST CALLVALUE PUSH2 0x3CF JUMPI PUSH1 0x40 CALLDATASIZE PUSH1 0x3 NOT ADD SLT PUSH2 0x3CF JUMPI PUSH2 0x1275 PUSH2 0x2742 JUMP JUMPDEST PUSH1 0x24 CALLDATALOAD SWAP1 DUP2 ISZERO ISZERO DUP1 SWAP3 SUB PUSH2 0x3CF JUMPI PUSH1 0x1 PUSH1 0x1 PUSH1 0xA0 SHL SUB AND SWAP1 CALLER DUP3 EQ PUSH2 0x12E5 JUMPI CALLER PUSH0 MSTORE PUSH1 0x5 PUSH1 0x20 MSTORE PUSH1 0x40 PUSH0 KECCAK256 DUP3 PUSH0 MSTORE PUSH1 0x20 MSTORE PUSH1 0x40 PUSH0 KECCAK256 PUSH1 0xFF NOT DUP2 SLOAD AND PUSH1 0xFF DUP4 AND OR SWAP1 SSTORE PUSH1 0x40 MLOAD SWAP1 DUP2 MSTORE PUSH32 0x17307EAB39AB6107E8899845AD3D59BD9653F200F220920489CA2B5937696C31 PUSH1 0x20 CALLER SWAP3 LOG3 STOP JUMPDEST PUSH1 0x40 MLOAD PUSH3 0x461BCD PUSH1 0xE5 SHL DUP2 MSTORE PUSH1 0x20 PUSH1 0x4 DUP3 ADD MSTORE PUSH1 0x19 PUSH1 0x24 DUP3 ADD MSTORE PUSH32 0x4552433732313A20617070726F766520746F2063616C6C657200000000000000 PUSH1 0x44 DUP3 ADD MSTORE PUSH1 0x64 SWAP1 REVERT JUMPDEST CALLVALUE PUSH2 0x3CF JUMPI PUSH0 CALLDATASIZE PUSH1 0x3 NOT ADD SLT PUSH2 0x3CF JUMPI PUSH1 0x20 PUSH1 0x40 MLOAD PUSH0 DUP2 MSTORE RETURN JUMPDEST CALLVALUE PUSH2 0x3CF JUMPI PUSH0 CALLDATASIZE PUSH1 0x3 NOT ADD SLT PUSH2 0x3CF JUMPI PUSH1 0x40 MLOAD PUSH0 PUSH1 0x1 SLOAD PUSH2 0x1364 DUP2 PUSH2 0x2862 JUMP JUMPDEST DUP1 DUP5 MSTORE SWAP1 PUSH1 0x1 DUP2 AND SWAP1 DUP2 ISZERO PUSH2 0x13EA JUMPI POP PUSH1 0x1 EQ PUSH2 0x138C JUMPI JUMPDEST PUSH2 0xEDA DUP4 PUSH2 0xEC6 DUP2 DUP6 SUB DUP3 PUSH2 0x27F0 JUMP JUMPDEST PUSH1 0x1 PUSH0 SWAP1 DUP2 MSTORE PUSH32 0xB10E2D527612073B26EECDFD717E6A320CF44B4AFAC2B0732D9FCBE2B7FA0CF6 SWAP4 SWAP3 POP SWAP1 JUMPDEST DUP1 DUP3 LT PUSH2 0x13D0 JUMPI POP SWAP1 SWAP2 POP DUP2 ADD PUSH1 0x20 ADD PUSH2 0xEC6 PUSH2 0x137C JUMP JUMPDEST SWAP2 SWAP3 PUSH1 0x1 DUP2 PUSH1 0x20 SWAP3 SLOAD DUP4 DUP6 DUP9 ADD ADD MSTORE ADD SWAP2 ADD SWAP1 SWAP3 SWAP2 PUSH2 0x13B8 JUMP JUMPDEST PUSH1 0xFF NOT AND PUSH1 0x20 DUP1 DUP7 ADD SWAP2 SWAP1 SWAP2 MSTORE SWAP2 ISZERO ISZERO PUSH1 0x5 SHL DUP5 ADD SWAP1 SWAP2 ADD SWAP2 POP PUSH2 0xEC6 SWAP1 POP PUSH2 0x137C JUMP JUMPDEST CALLVALUE PUSH2 0x3CF JUMPI PUSH1 0x40 CALLDATASIZE PUSH1 0x3 NOT ADD SLT PUSH2 0x3CF JUMPI PUSH2 0x1427 PUSH2 0x2758 JUMP JUMPDEST PUSH1 0x4 CALLDATALOAD PUSH0 MSTORE PUSH1 0x6 PUSH1 0x20 MSTORE PUSH1 0x40 PUSH0 KECCAK256 SWAP1 PUSH1 0x1 DUP1 PUSH1 0xA0 SHL SUB AND PUSH0 MSTORE PUSH1 0x20 MSTORE PUSH1 0x20 PUSH1 0xFF PUSH1 0x40 PUSH0 KECCAK256 SLOAD AND PUSH1 0x40 MLOAD SWAP1 ISZERO ISZERO DUP2 MSTORE RETURN JUMPDEST CALLVALUE PUSH2 0x3CF JUMPI PUSH1 0x20 CALLDATASIZE PUSH1 0x3 NOT ADD SLT PUSH2 0x3CF JUMPI PUSH2 0x1470 PUSH2 0x2742 JUMP JUMPDEST PUSH1 0x1 PUSH1 0x1 PUSH1 0xA0 SHL SUB DUP2 AND SWAP1 DUP2 ISZERO PUSH2 0x19DB JUMPI PUSH2 0x148A CALLER PUSH2 0x32A8 JUMP JUMPDEST SWAP1 DUP2 PUSH0 MSTORE PUSH1 0x8 PUSH1 0x20 MSTORE PUSH1 0x40 PUSH0 KECCAK256 SWAP3 PUSH1 0x40 MLOAD PUSH2 0x14A4 DUP2 PUSH2 0x27D5 JUMP JUMPDEST PUSH1 0x40 MLOAD PUSH2 0x14B5 DUP2 PUSH2 0x42F DUP2 DUP10 PUSH2 0x289A JUMP JUMPDEST DUP2 MSTORE PUSH2 0x14C3 PUSH1 0x1 DUP7 ADD PUSH2 0x2C84 JUMP JUMPDEST SWAP5 PUSH1 0x20 DUP3 ADD SWAP6 DUP7 MSTORE PUSH1 0x40 MLOAD PUSH2 0x14DF DUP2 PUSH2 0x42F DUP2 PUSH1 0x2 DUP7 ADD PUSH2 0x289A JUMP JUMPDEST PUSH1 0x40 DUP4 ADD SWAP1 DUP2 MSTORE PUSH1 0xFF PUSH1 0x5 PUSH1 0x40 MLOAD SWAP4 PUSH2 0x1506 DUP6 PUSH2 0x14FF DUP2 PUSH1 0x3 DUP6 ADD PUSH2 0x289A JUMP JUMPDEST SUB DUP7 PUSH2 0x27F0 JUMP JUMPDEST PUSH1 0x60 DUP7 ADD SWAP5 DUP6 MSTORE PUSH1 0x4 DUP2 ADD SLOAD PUSH1 0x80 DUP8 ADD MSTORE ADD SLOAD PUSH1 0x1 DUP1 PUSH1 0xA0 SHL SUB DUP2 AND PUSH1 0xA0 DUP7 ADD MSTORE PUSH1 0xA0 SHR AND ISZERO ISZERO PUSH1 0xC0 DUP5 ADD MSTORE PUSH2 0x153C DUP4 MLOAD PUSH2 0x30F2 JUMP JUMPDEST PUSH0 MSTORE PUSH1 0xC PUSH1 0x20 MSTORE PUSH1 0xFF PUSH1 0x3 PUSH1 0x40 PUSH0 KECCAK256 ADD SLOAD AND ISZERO PUSH2 0x1996 JUMPI PUSH2 0x156C PUSH1 0x7 SLOAD DUP1 SWAP7 PUSH2 0x1564 DUP3 PUSH2 0x2A20 JUMP JUMPDEST PUSH1 0x7 SSTORE PUSH2 0x3194 JUMP JUMPDEST DUP3 MLOAD SWAP7 MLOAD SWAP1 MLOAD SWAP2 MLOAD SWAP7 PUSH1 0x40 MLOAD SWAP1 PUSH2 0x1582 DUP3 PUSH2 0x27D5 JUMP JUMPDEST DUP2 MSTORE PUSH1 0x20 DUP2 ADD SWAP2 DUP3 MSTORE PUSH1 0x40 DUP2 ADD SWAP3 DUP4 MSTORE PUSH1 0x60 DUP2 ADD SWAP8 DUP9 MSTORE PUSH1 0x80 DUP2 ADD TIMESTAMP DUP2 MSTORE PUSH1 0xA0 DUP3 ADD SWAP4 PUSH0 DUP6 MSTORE PUSH1 0xC0 DUP4 ADD SWAP4 PUSH0 DUP6 MSTORE DUP9 PUSH0 MSTORE PUSH1 0x8 PUSH1 0x20 MSTORE PUSH1 0x40 PUSH0 KECCAK256 SWAP4 MLOAD DUP1 MLOAD SWAP1 PUSH1 0x1 PUSH1 0x1 PUSH1 0x40 SHL SUB DUP3 GT PUSH2 0x34A JUMPI PUSH2 0x15DD DUP3 PUSH2 0xC94 DUP9 SLOAD PUSH2 0x2862 JUMP JUMPDEST PUSH1 0x20 SWAP1 PUSH1 0x1F DUP4 GT PUSH1 0x1 EQ PUSH2 0x1933 JUMPI PUSH2 0x160B SWAP3 SWAP2 PUSH0 SWAP2 DUP4 PUSH2 0x1928 JUMPI POP POP DUP2 PUSH1 0x1 SHL SWAP2 PUSH0 NOT SWAP1 PUSH1 0x3 SHL SHR NOT AND OR SWAP1 JUMP JUMPDEST DUP5 SSTORE JUMPDEST PUSH1 0x1 DUP5 ADD SWAP1 MLOAD PUSH1 0x20 DUP2 MLOAD SWAP2 PUSH2 0x1623 DUP4 DUP6 PUSH2 0x2AB2 JUMP JUMPDEST ADD SWAP2 PUSH0 MSTORE PUSH1 0x20 PUSH0 KECCAK256 SWAP2 PUSH0 SWAP1 JUMPDEST DUP3 DUP3 LT PUSH2 0x1859 JUMPI POP POP POP POP PUSH1 0x2 DUP4 ADD SWAP1 MLOAD DUP1 MLOAD SWAP1 PUSH1 0x1 PUSH1 0x1 PUSH1 0x40 SHL SUB DUP3 GT PUSH2 0x34A JUMPI PUSH2 0x165F DUP3 PUSH2 0x8E0 DUP6 SLOAD PUSH2 0x2862 JUMP JUMPDEST PUSH1 0x20 SWAP1 PUSH1 0x1F DUP4 GT PUSH1 0x1 EQ PUSH2 0x17F6 JUMPI PUSH2 0x168D SWAP3 SWAP2 PUSH0 SWAP2 DUP4 PUSH2 0x17EB JUMPI POP POP DUP2 PUSH1 0x1 SHL SWAP2 PUSH0 NOT SWAP1 PUSH1 0x3 SHL SHR NOT AND OR SWAP1 JUMP JUMPDEST SWAP1 SSTORE JUMPDEST PUSH1 0x3 DUP3 ADD SWAP9 MLOAD SWAP9 DUP10 MLOAD PUSH1 0x1 PUSH1 0x1 PUSH1 0x40 SHL SUB DUP2 GT PUSH2 0x34A JUMPI PUSH1 0x20 SWAP11 PUSH2 0x16B8 DUP3 PUSH2 0x8E0 DUP6 SLOAD PUSH2 0x2862 JUMP JUMPDEST DUP12 SWAP1 PUSH1 0x1F DUP4 GT PUSH1 0x1 EQ PUSH2 0x177F JUMPI DUP3 PUSH1 0x5 SWAP6 SWAP4 PUSH2 0x172D SWAP10 SWAP9 SWAP8 SWAP6 SWAP4 PUSH2 0x16F0 SWAP4 PUSH0 SWAP3 PUSH2 0x1774 JUMPI POP POP DUP2 PUSH1 0x1 SHL SWAP2 PUSH0 NOT SWAP1 PUSH1 0x3 SHL SHR NOT AND OR SWAP1 JUMP JUMPDEST SWAP1 SSTORE MLOAD PUSH1 0x4 DUP3 ADD SSTORE SWAP3 MLOAD SWAP3 ADD DUP1 SLOAD SWAP2 MLOAD PUSH1 0x1 PUSH1 0x1 PUSH1 0xA8 SHL SUB NOT SWAP1 SWAP3 AND PUSH1 0x1 PUSH1 0x1 PUSH1 0xA0 SHL SUB SWAP4 SWAP1 SWAP4 AND SWAP3 SWAP1 SWAP3 OR SWAP1 ISZERO ISZERO PUSH1 0xA0 SHL PUSH1 0xFF PUSH1 0xA0 SHL AND OR SWAP1 SSTORE JUMP JUMPDEST MLOAD DUP5 DUP2 MLOAD SWAP2 ADD KECCAK256 PUSH0 MSTORE PUSH1 0x9 DUP5 MSTORE PUSH2 0x1747 DUP3 PUSH1 0x40 PUSH0 KECCAK256 PUSH2 0x2B43 JUMP JUMPDEST DUP2 PUSH1 0x40 MLOAD SWAP4 PUSH32 0xAE70533DF440A7B44061C964CED6D9B99B31AB42E146AC886F34502284CD79FD PUSH0 DUP1 LOG4 DUP2 MSTORE RETURN JUMPDEST ADD MLOAD SWAP1 POP DUP16 DUP1 PUSH2 0x26E JUMP JUMPDEST SWAP1 PUSH1 0x1F NOT DUP4 AND SWAP2 DUP5 PUSH0 MSTORE DUP2 PUSH0 KECCAK256 SWAP3 PUSH0 JUMPDEST DUP2 DUP2 LT PUSH2 0x17D4 JUMPI POP SWAP3 PUSH1 0x1 SWAP3 DUP6 SWAP3 PUSH1 0x5 SWAP9 SWAP7 PUSH2 0x172D SWAP13 SWAP12 SWAP11 SWAP9 SWAP7 LT PUSH2 0x17BC JUMPI JUMPDEST POP POP POP DUP2 SHL ADD SWAP1 SSTORE PUSH2 0x97A JUMP JUMPDEST ADD MLOAD PUSH0 NOT PUSH1 0xF8 DUP5 PUSH1 0x3 SHL AND SHR NOT AND SWAP1 SSTORE DUP15 DUP1 DUP1 PUSH2 0x17AF JUMP JUMPDEST SWAP3 SWAP4 DUP16 PUSH1 0x1 DUP2 SWAP3 DUP8 DUP7 ADD MLOAD DUP2 SSTORE ADD SWAP6 ADD SWAP4 ADD PUSH2 0x178F JUMP JUMPDEST ADD MLOAD SWAP1 POP DUP14 DUP1 PUSH2 0x26E JUMP JUMPDEST SWAP1 PUSH1 0x1F NOT DUP4 AND SWAP2 DUP5 PUSH0 MSTORE DUP2 PUSH0 KECCAK256 SWAP3 PUSH0 JUMPDEST DUP2 DUP2 LT PUSH2 0x1841 JUMPI POP SWAP1 DUP5 PUSH1 0x1 SWAP6 SWAP5 SWAP4 SWAP3 LT PUSH2 0x1829 JUMPI JUMPDEST POP POP POP DUP2 SHL ADD SWAP1 SSTORE PUSH2 0x1690 JUMP JUMPDEST ADD MLOAD PUSH0 NOT PUSH1 0xF8 DUP5 PUSH1 0x3 SHL AND SHR NOT AND SWAP1 SSTORE DUP13 DUP1 DUP1 PUSH2 0x181C JUMP JUMPDEST SWAP3 SWAP4 PUSH1 0x20 PUSH1 0x1 DUP2 SWAP3 DUP8 DUP7 ADD MLOAD DUP2 SSTORE ADD SWAP6 ADD SWAP4 ADD PUSH2 0x1806 JUMP JUMPDEST DUP1 MLOAD DUP1 MLOAD SWAP1 PUSH1 0x1 PUSH1 0x1 PUSH1 0x40 SHL SUB DUP3 GT PUSH2 0x34A JUMPI PUSH2 0x187A DUP3 PUSH2 0xC94 DUP9 SLOAD PUSH2 0x2862 JUMP JUMPDEST PUSH1 0x20 SWAP1 PUSH1 0x1F DUP4 GT PUSH1 0x1 EQ PUSH2 0x18BF JUMPI SWAP3 PUSH2 0x18B0 DUP4 PUSH1 0x1 SWAP6 SWAP5 PUSH1 0x20 SWAP5 DUP8 SWAP7 PUSH0 SWAP3 PUSH2 0xB95 JUMPI POP POP DUP2 PUSH1 0x1 SHL SWAP2 PUSH0 NOT SWAP1 PUSH1 0x3 SHL SHR NOT AND OR SWAP1 JUMP JUMPDEST DUP8 SSTORE JUMPDEST ADD SWAP5 ADD SWAP2 ADD SWAP1 SWAP3 PUSH2 0x162F JUMP JUMPDEST SWAP1 PUSH1 0x1F NOT DUP4 AND SWAP2 DUP8 PUSH0 MSTORE DUP2 PUSH0 KECCAK256 SWAP3 PUSH0 JUMPDEST DUP2 DUP2 LT PUSH2 0x1910 JUMPI POP SWAP4 PUSH1 0x20 SWAP4 PUSH1 0x1 SWAP7 SWAP4 DUP8 SWAP7 SWAP4 DUP4 DUP9 SWAP6 LT PUSH2 0x18F8 JUMPI JUMPDEST POP POP POP DUP2 SHL ADD DUP8 SSTORE PUSH2 0x18B3 JUMP JUMPDEST ADD MLOAD PUSH0 NOT PUSH1 0xF8 DUP5 PUSH1 0x3 SHL AND SHR NOT AND SWAP1 SSTORE PUSH0 DUP1 DUP1 PUSH2 0x18EB JUMP JUMPDEST SWAP3 SWAP4 PUSH1 0x20 PUSH1 0x1 DUP2 SWAP3 DUP8 DUP7 ADD MLOAD DUP2 SSTORE ADD SWAP6 ADD SWAP4 ADD PUSH2 0x18CF JUMP JUMPDEST ADD MLOAD SWAP1 POP DUP15 DUP1 PUSH2 0x26E JUMP JUMPDEST SWAP1 PUSH1 0x1F NOT DUP4 AND SWAP2 DUP8 PUSH0 MSTORE DUP2 PUSH0 KECCAK256 SWAP3 PUSH0 JUMPDEST DUP2 DUP2 LT PUSH2 0x197E JUMPI POP SWAP1 DUP5 PUSH1 0x1 SWAP6 SWAP5 SWAP4 SWAP3 LT PUSH2 0x1966 JUMPI JUMPDEST POP POP POP DUP2 SHL ADD DUP5 SSTORE PUSH2 0x160E JUMP JUMPDEST ADD MLOAD PUSH0 NOT PUSH1 0xF8 DUP5 PUSH1 0x3 SHL AND SHR NOT AND SWAP1 SSTORE DUP14 DUP1 DUP1 PUSH2 0x1959 JUMP JUMPDEST SWAP3 SWAP4 PUSH1 0x20 PUSH1 0x1 DUP2 SWAP3 DUP8 DUP7 ADD MLOAD DUP2 SSTORE ADD SWAP6 ADD SWAP4 ADD PUSH2 0x1943 JUMP JUMPDEST PUSH1 0x40 MLOAD PUSH3 0x461BCD PUSH1 0xE5 SHL DUP2 MSTORE PUSH1 0x20 PUSH1 0x4 DUP3 ADD MSTORE PUSH1 0x1A PUSH1 0x24 DUP3 ADD MSTORE PUSH32 0x5468697320747970652063616E6E6F7420626520636C6F6E6564000000000000 PUSH1 0x44 DUP3 ADD MSTORE PUSH1 0x64 SWAP1 REVERT JUMPDEST PUSH1 0x40 MLOAD PUSH3 0x461BCD PUSH1 0xE5 SHL DUP2 MSTORE PUSH1 0x20 PUSH1 0x4 DUP3 ADD MSTORE PUSH1 0xD PUSH1 0x24 DUP3 ADD MSTORE PUSH13 0x24B73B30B634B21037BBB732B9 PUSH1 0x99 SHL PUSH1 0x44 DUP3 ADD MSTORE PUSH1 0x64 SWAP1 REVERT JUMPDEST CALLVALUE PUSH2 0x3CF JUMPI PUSH0 CALLDATASIZE PUSH1 0x3 NOT ADD SLT PUSH2 0x3CF JUMPI PUSH1 0x20 PUSH1 0x40 MLOAD PUSH1 0x4 DUP2 MSTORE RETURN JUMPDEST CALLVALUE PUSH2 0x3CF JUMPI PUSH0 CALLDATASIZE PUSH1 0x3 NOT ADD SLT PUSH2 0x3CF JUMPI PUSH1 0x20 PUSH1 0x40 MLOAD PUSH1 0x1 DUP2 MSTORE RETURN JUMPDEST CALLVALUE PUSH2 0x3CF JUMPI PUSH1 0x20 CALLDATASIZE PUSH1 0x3 NOT ADD SLT PUSH2 0x3CF JUMPI PUSH1 0x20 PUSH2 0x1A69 PUSH2 0x1A64 PUSH2 0x2742 JUMP JUMPDEST PUSH2 0x2C0F JUMP JUMPDEST PUSH1 0x40 MLOAD SWAP1 DUP2 MSTORE RETURN JUMPDEST CALLVALUE PUSH2 0x3CF JUMPI PUSH1 0x20 CALLDATASIZE PUSH1 0x3 NOT ADD SLT PUSH2 0x3CF JUMPI PUSH2 0x1A8A PUSH2 0x3148 JUMP JUMPDEST PUSH0 MSTORE PUSH1 0xA PUSH1 0x20 MSTORE PUSH1 0x40 PUSH0 KECCAK256 PUSH1 0x4 CALLDATALOAD PUSH0 MSTORE PUSH1 0x20 MSTORE PUSH1 0x20 PUSH1 0x40 PUSH0 KECCAK256 SLOAD PUSH1 0x40 MLOAD SWAP1 DUP2 MSTORE RETURN JUMPDEST CALLVALUE PUSH2 0x3CF JUMPI PUSH1 0x20 CALLDATASIZE PUSH1 0x3 NOT ADD SLT PUSH2 0x3CF JUMPI PUSH1 0x20 PUSH2 0x1ACA PUSH1 0x4 CALLDATALOAD PUSH2 0x2BEA JUMP JUMPDEST PUSH1 0x40 MLOAD PUSH1 0x1 PUSH1 0x1 PUSH1 0xA0 SHL SUB SWAP1 SWAP2 AND DUP2 MSTORE RETURN JUMPDEST CALLVALUE PUSH2 0x3CF JUMPI PUSH1 0x80 CALLDATASIZE PUSH1 0x3 NOT ADD SLT PUSH2 0x3CF JUMPI PUSH2 0x1AF5 PUSH2 0x2742 JUMP JUMPDEST PUSH1 0x24 CALLDATALOAD PUSH1 0x1 PUSH1 0x1 PUSH1 0x40 SHL SUB DUP2 GT PUSH2 0x3CF JUMPI PUSH2 0x1B14 SWAP1 CALLDATASIZE SWAP1 PUSH1 0x4 ADD PUSH2 0x27A8 JUMP JUMPDEST SWAP2 SWAP1 PUSH1 0x44 CALLDATALOAD PUSH1 0x1 PUSH1 0x1 PUSH1 0x40 SHL SUB DUP2 GT PUSH2 0x3CF JUMPI PUSH2 0x1B35 SWAP1 CALLDATASIZE SWAP1 PUSH1 0x4 ADD PUSH2 0x27A8 JUMP JUMPDEST SWAP4 SWAP1 SWAP3 PUSH1 0x64 CALLDATALOAD PUSH1 0x1 PUSH1 0x1 PUSH1 0x40 SHL SUB DUP2 GT PUSH2 0x3CF JUMPI PUSH2 0x1B57 SWAP1 CALLDATASIZE SWAP1 PUSH1 0x4 ADD PUSH2 0x27A8 JUMP JUMPDEST SWAP1 PUSH2 0x1B60 PUSH2 0x2F20 JUMP JUMPDEST PUSH1 0x1 PUSH1 0x1 PUSH1 0xA0 SHL SUB DUP4 AND ISZERO PUSH2 0x21BB JUMPI DUP4 ISZERO PUSH2 0x2182 JUMPI PUSH2 0x1B88 PUSH2 0x1B83 CALLDATASIZE DUP7 DUP9 PUSH2 0x282C JUMP JUMPDEST PUSH2 0x30F2 JUMP JUMPDEST PUSH0 NOT DUP2 EQ PUSH2 0x2149 JUMPI PUSH2 0x1B98 PUSH2 0x3148 JUMP JUMPDEST DUP1 PUSH0 MSTORE PUSH1 0xA PUSH1 0x20 MSTORE PUSH1 0x40 PUSH0 KECCAK256 DUP3 PUSH0 MSTORE PUSH1 0x20 MSTORE PUSH1 0x40 PUSH0 KECCAK256 PUSH2 0x1BB8 DUP2 SLOAD PUSH2 0x2A20 JUMP JUMPDEST SWAP1 SSTORE PUSH0 MSTORE PUSH1 0xA PUSH1 0x20 MSTORE PUSH1 0x40 PUSH0 KECCAK256 DUP2 PUSH0 MSTORE PUSH1 0x20 MSTORE PUSH1 0x40 PUSH0 KECCAK256 SLOAD SWAP1 PUSH0 MSTORE PUSH1 0xC PUSH1 0x20 MSTORE PUSH1 0x2 PUSH1 0x40 PUSH0 KECCAK256 ADD SLOAD LT PUSH2 0x20F3 JUMPI PUSH1 0x7 SLOAD PUSH1 0x80 MSTORE PUSH2 0x1BF6 PUSH1 0x80 MLOAD PUSH2 0x2A20 JUMP JUMPDEST PUSH1 0x7 SSTORE PUSH2 0x1C05 PUSH1 0x80 MLOAD DUP5 PUSH2 0x3194 JUMP JUMPDEST PUSH1 0x20 PUSH1 0xA0 DUP2 SWAP1 MSTORE PUSH1 0x40 MLOAD SWAP2 PUSH2 0x1C5A SWAP2 PUSH2 0x1C1E SWAP1 DUP5 PUSH2 0x27F0 JUMP JUMPDEST PUSH0 DUP4 MSTORE PUSH1 0x40 MLOAD SWAP4 PUSH2 0x1C2E DUP6 PUSH2 0x27D5 JUMP JUMPDEST PUSH2 0x1C39 CALLDATASIZE DUP9 DUP11 PUSH2 0x282C JUMP JUMPDEST DUP6 MSTORE PUSH1 0xA0 MLOAD DUP6 ADD SWAP4 DUP5 MSTORE PUSH2 0x1C4E CALLDATASIZE DUP12 DUP12 PUSH2 0x282C JUMP JUMPDEST PUSH1 0x40 DUP7 ADD MSTORE CALLDATASIZE SWAP2 PUSH2 0x282C JUMP JUMPDEST PUSH1 0x60 DUP4 ADD MSTORE TIMESTAMP PUSH1 0x80 DUP4 ADD MSTORE PUSH0 PUSH1 0xA0 DUP4 ADD MSTORE PUSH0 PUSH1 0xC0 DUP4 ADD MSTORE PUSH1 0x80 MLOAD PUSH0 MSTORE PUSH1 0x8 PUSH1 0xA0 MLOAD MSTORE PUSH1 0x40 PUSH0 KECCAK256 SWAP1 DUP3 MLOAD DUP1 MLOAD SWAP1 PUSH1 0x1 PUSH1 0x1 PUSH1 0x40 SHL SUB DUP3 GT PUSH2 0x34A JUMPI PUSH2 0x1CA8 DUP3 PUSH2 0x1CA2 DUP7 SLOAD PUSH2 0x2862 JUMP JUMPDEST DUP7 PUSH2 0x2A6F JUMP JUMPDEST PUSH1 0xA0 MLOAD SWAP1 PUSH1 0x1F DUP4 GT PUSH1 0x1 EQ PUSH2 0x208D JUMPI PUSH2 0x1CD7 SWAP3 SWAP2 PUSH0 SWAP2 DUP4 PUSH2 0x1F48 JUMPI POP POP DUP2 PUSH1 0x1 SHL SWAP2 PUSH0 NOT SWAP1 PUSH1 0x3 SHL SHR NOT AND OR SWAP1 JUMP JUMPDEST DUP3 SSTORE JUMPDEST MLOAD DUP1 MLOAD PUSH1 0x1 DUP4 ADD SWAP2 PUSH2 0x1CEC DUP3 DUP5 PUSH2 0x2AB2 JUMP JUMPDEST PUSH1 0xA0 MLOAD PUSH0 SWAP4 DUP5 MSTORE DUP1 DUP5 KECCAK256 SWAP4 SWAP2 ADD JUMPDEST DUP3 DUP3 LT PUSH2 0x1FB9 JUMPI POP POP POP POP PUSH1 0x2 DUP2 ADD PUSH1 0x40 DUP4 ADD MLOAD DUP1 MLOAD SWAP1 PUSH1 0x1 PUSH1 0x1 PUSH1 0x40 SHL SUB DUP3 GT PUSH2 0x34A JUMPI PUSH2 0x1D2D DUP3 PUSH2 0x8E0 DUP6 SLOAD PUSH2 0x2862 JUMP JUMPDEST PUSH1 0xA0 MLOAD SWAP1 PUSH1 0x1F DUP4 GT PUSH1 0x1 EQ PUSH2 0x1F53 JUMPI PUSH2 0x1D5C SWAP3 SWAP2 PUSH0 SWAP2 DUP4 PUSH2 0x1F48 JUMPI POP POP DUP2 PUSH1 0x1 SHL SWAP2 PUSH0 NOT SWAP1 PUSH1 0x3 SHL SHR NOT AND OR SWAP1 JUMP JUMPDEST SWAP1 SSTORE JUMPDEST PUSH1 0x60 DUP3 ADD MLOAD DUP1 MLOAD SWAP1 PUSH1 0x1 PUSH1 0x1 PUSH1 0x40 SHL SUB DUP3 GT PUSH2 0x34A JUMPI PUSH2 0x1D8F DUP3 PUSH2 0x1D86 PUSH1 0x3 DUP7 ADD SLOAD PUSH2 0x2862 JUMP JUMPDEST PUSH1 0x3 DUP7 ADD PUSH2 0x2A6F JUMP JUMPDEST PUSH1 0xA0 MLOAD SWAP1 PUSH1 0x1F DUP4 GT PUSH1 0x1 EQ PUSH2 0x1EAA JUMPI PUSH1 0x5 PUSH32 0xC75293173A228519BDD31083BD413729A88AA2C3B992C7400C771F84036EC424 SWAP9 SWAP8 SWAP7 SWAP5 PUSH2 0x1DEF DUP6 PUSH2 0x1E3C SWAP7 PUSH2 0x1E99 SWAP10 SWAP7 PUSH1 0xC0 SWAP7 PUSH0 SWAP3 PUSH2 0x1774 JUMPI POP POP DUP2 PUSH1 0x1 SHL SWAP2 PUSH0 NOT SWAP1 PUSH1 0x3 SHL SHR NOT AND OR SWAP1 JUMP JUMPDEST PUSH1 0x3 DUP3 ADD SSTORE JUMPDEST PUSH1 0x80 DUP5 ADD MLOAD PUSH1 0x4 DUP3 ADD SSTORE PUSH1 0xA0 DUP1 DUP6 ADD MLOAD SWAP3 SWAP1 SWAP2 ADD DUP1 SLOAD SWAP4 SWAP1 SWAP5 ADD MLOAD PUSH1 0x1 PUSH1 0x1 PUSH1 0xA8 SHL SUB NOT SWAP1 SWAP4 AND PUSH1 0x1 PUSH1 0x1 PUSH1 0xA0 SHL SUB SWAP3 SWAP1 SWAP3 AND SWAP2 SWAP1 SWAP2 OR SWAP2 ISZERO ISZERO SWAP1 SHL PUSH1 0xFF PUSH1 0xA0 SHL AND OR SWAP1 SSTORE JUMP JUMPDEST PUSH2 0x1E47 CALLDATASIZE DUP5 DUP7 PUSH2 0x282C JUMP JUMPDEST DUP1 MLOAD SWAP1 PUSH1 0xA0 MLOAD ADD KECCAK256 PUSH0 MSTORE PUSH1 0x9 PUSH1 0xA0 MLOAD MSTORE PUSH2 0x1E66 PUSH1 0x80 MLOAD PUSH1 0x40 PUSH0 KECCAK256 PUSH2 0x2B43 JUMP JUMPDEST PUSH2 0x1E7D PUSH1 0x40 MLOAD SWAP5 DUP6 SWAP5 PUSH1 0x40 DUP7 MSTORE PUSH1 0x40 DUP7 ADD SWAP2 PUSH2 0x2B7E JUMP JUMPDEST SWAP1 DUP4 DUP3 SUB PUSH1 0xA0 MLOAD DUP6 ADD MSTORE PUSH1 0x1 DUP1 PUSH1 0xA0 SHL SUB AND SWAP7 PUSH1 0x80 MLOAD SWAP7 PUSH2 0x2B7E JUMP JUMPDEST SUB SWAP1 LOG3 PUSH1 0x40 MLOAD PUSH1 0x80 MLOAD DUP2 MSTORE PUSH1 0xA0 MLOAD SWAP1 RETURN JUMPDEST SWAP1 PUSH1 0x3 DUP5 ADD PUSH0 MSTORE PUSH1 0xA0 MLOAD PUSH0 KECCAK256 SWAP2 PUSH0 JUMPDEST PUSH1 0x1F NOT DUP6 AND DUP2 LT PUSH2 0x1F2F JUMPI POP PUSH32 0xC75293173A228519BDD31083BD413729A88AA2C3B992C7400C771F84036EC424 SWAP9 SWAP8 SWAP7 SWAP5 PUSH1 0x1 DUP6 PUSH2 0x1E99 SWAP9 SWAP6 PUSH1 0xC0 SWAP6 PUSH1 0x5 SWAP6 PUSH2 0x1E3C SWAP10 PUSH1 0x1F NOT DUP2 AND LT PUSH2 0x1F17 JUMPI JUMPDEST POP POP POP DUP2 SHL ADD PUSH1 0x3 DUP3 ADD SSTORE PUSH2 0x1DF5 JUMP JUMPDEST ADD MLOAD PUSH0 NOT PUSH1 0xF8 DUP5 PUSH1 0x3 SHL AND SHR NOT AND SWAP1 SSTORE DUP15 DUP1 DUP1 PUSH2 0x1F07 JUMP JUMPDEST DUP2 DUP4 ADD MLOAD DUP5 SSTORE PUSH1 0xA0 MLOAD PUSH1 0x1 SWAP1 SWAP5 ADD SWAP4 SWAP3 DUP4 ADD SWAP3 ADD PUSH2 0x1EB9 JUMP JUMPDEST ADD MLOAD SWAP1 POP DUP12 DUP1 PUSH2 0x26E JUMP JUMPDEST SWAP1 PUSH1 0x1F NOT DUP4 AND SWAP2 DUP5 PUSH0 MSTORE PUSH1 0xA0 MLOAD PUSH0 KECCAK256 SWAP3 PUSH0 JUMPDEST DUP2 DUP2 LT PUSH2 0x1FA0 JUMPI POP SWAP1 DUP5 PUSH1 0x1 SWAP6 SWAP5 SWAP4 SWAP3 LT PUSH2 0x1F88 JUMPI JUMPDEST POP POP POP DUP2 SHL ADD SWAP1 SSTORE PUSH2 0x1D5F JUMP JUMPDEST ADD MLOAD PUSH0 NOT PUSH1 0xF8 DUP5 PUSH1 0x3 SHL AND SHR NOT AND SWAP1 SSTORE DUP11 DUP1 DUP1 PUSH2 0x1F7B JUMP JUMPDEST DUP3 DUP5 ADD MLOAD DUP6 SSTORE PUSH1 0xA0 MLOAD PUSH1 0x1 SWAP1 SWAP6 ADD SWAP5 SWAP4 DUP5 ADD SWAP4 ADD PUSH2 0x1F65 JUMP JUMPDEST DUP1 MLOAD DUP1 MLOAD SWAP1 PUSH1 0x1 PUSH1 0x1 PUSH1 0x40 SHL SUB DUP3 GT PUSH2 0x34A JUMPI PUSH2 0x1FDA DUP3 PUSH2 0xC94 DUP9 SLOAD PUSH2 0x2862 JUMP JUMPDEST PUSH1 0xA0 MLOAD SWAP1 PUSH1 0x1F DUP4 GT PUSH1 0x1 EQ PUSH2 0x2021 JUMPI DUP3 PUSH1 0x1 SWAP5 SWAP3 SWAP4 DUP6 SWAP5 PUSH2 0x200F SWAP4 PUSH0 SWAP3 PUSH2 0xB95 JUMPI POP POP DUP2 PUSH1 0x1 SHL SWAP2 PUSH0 NOT SWAP1 PUSH1 0x3 SHL SHR NOT AND OR SWAP1 JUMP JUMPDEST DUP7 SSTORE JUMPDEST PUSH1 0xA0 MLOAD ADD SWAP5 ADD SWAP2 ADD SWAP1 SWAP3 PUSH2 0x1CFA JUMP JUMPDEST SWAP1 DUP7 PUSH0 MSTORE PUSH1 0xA0 MLOAD PUSH0 KECCAK256 SWAP2 PUSH0 JUMPDEST PUSH1 0x1F NOT DUP6 AND DUP2 LT PUSH2 0x2074 JUMPI POP SWAP3 PUSH1 0x1 SWAP5 SWAP3 DUP6 SWAP5 SWAP3 DUP6 SWAP4 DUP4 PUSH1 0x1F NOT DUP2 AND LT PUSH2 0x205C JUMPI JUMPDEST POP POP POP DUP2 SHL ADD DUP7 SSTORE PUSH2 0x2012 JUMP JUMPDEST ADD MLOAD PUSH0 NOT PUSH1 0xF8 DUP5 PUSH1 0x3 SHL AND SHR NOT AND SWAP1 SSTORE DUP16 DUP1 DUP1 PUSH2 0x204F JUMP JUMPDEST DUP2 DUP4 ADD MLOAD DUP5 SSTORE PUSH1 0xA0 MLOAD PUSH1 0x1 SWAP1 SWAP5 ADD SWAP4 SWAP3 DUP4 ADD SWAP3 ADD PUSH2 0x202D JUMP JUMPDEST SWAP1 PUSH1 0x1F NOT DUP4 AND SWAP2 DUP6 PUSH0 MSTORE PUSH1 0xA0 MLOAD PUSH0 KECCAK256 SWAP3 PUSH0 JUMPDEST DUP2 DUP2 LT PUSH2 0x20DA JUMPI POP SWAP1 DUP5 PUSH1 0x1 SWAP6 SWAP5 SWAP4 SWAP3 LT PUSH2 0x20C2 JUMPI JUMPDEST POP POP POP DUP2 SHL ADD DUP3 SSTORE PUSH2 0x1CDA JUMP JUMPDEST ADD MLOAD PUSH0 NOT PUSH1 0xF8 DUP5 PUSH1 0x3 SHL AND SHR NOT AND SWAP1 SSTORE DUP11 DUP1 DUP1 PUSH2 0x20B5 JUMP JUMPDEST DUP3 DUP5 ADD MLOAD DUP6 SSTORE PUSH1 0xA0 MLOAD PUSH1 0x1 SWAP1 SWAP6 ADD SWAP5 SWAP4 DUP5 ADD SWAP4 ADD PUSH2 0x209F JUMP JUMPDEST PUSH1 0x40 MLOAD PUSH3 0x461BCD PUSH1 0xE5 SHL DUP2 MSTORE PUSH1 0x20 PUSH1 0x4 DUP3 ADD MSTORE PUSH1 0x28 PUSH1 0x24 DUP3 ADD MSTORE PUSH32 0x4D6F6E74686C79206C696D6974207265616368656420666F7220746869732068 PUSH1 0x44 DUP3 ADD MSTORE PUSH8 0x616E642074797065 PUSH1 0xC0 SHL PUSH1 0x64 DUP3 ADD MSTORE PUSH1 0x84 SWAP1 REVERT JUMPDEST PUSH1 0x40 MLOAD PUSH3 0x461BCD PUSH1 0xE5 SHL DUP2 MSTORE PUSH1 0x20 PUSH1 0x4 DUP3 ADD MSTORE PUSH1 0x11 PUSH1 0x24 DUP3 ADD MSTORE PUSH17 0x556E6B6E6F776E2068616E642074797065 PUSH1 0x78 SHL PUSH1 0x44 DUP3 ADD MSTORE PUSH1 0x64 SWAP1 REVERT JUMPDEST PUSH1 0x40 MLOAD PUSH3 0x461BCD PUSH1 0xE5 SHL DUP2 MSTORE PUSH1 0x20 PUSH1 0x4 DUP3 ADD MSTORE PUSH1 0x11 PUSH1 0x24 DUP3 ADD MSTORE PUSH17 0x496E76616C69642068616E642074797065 PUSH1 0x78 SHL PUSH1 0x44 DUP3 ADD MSTORE PUSH1 0x64 SWAP1 REVERT JUMPDEST PUSH1 0x40 MLOAD PUSH3 0x461BCD PUSH1 0xE5 SHL DUP2 MSTORE PUSH1 0x20 PUSH1 0x4 DUP3 ADD MSTORE PUSH1 0x1B PUSH1 0x24 DUP3 ADD MSTORE PUSH32 0x43616E6E6F74206D696E7420746F207A65726F20616464726573730000000000 PUSH1 0x44 DUP3 ADD MSTORE PUSH1 0x64 SWAP1 REVERT JUMPDEST CALLVALUE PUSH2 0x3CF JUMPI PUSH2 0x666 PUSH2 0x2211 CALLDATASIZE PUSH2 0x276E JUMP JUMPDEST SWAP2 PUSH2 0x29F7 JUMP JUMPDEST CALLVALUE PUSH2 0x3CF JUMPI PUSH1 0x20 CALLDATASIZE PUSH1 0x3 NOT ADD SLT PUSH2 0x3CF JUMPI PUSH1 0x4 CALLDATALOAD PUSH2 0x2247 PUSH2 0x2237 DUP3 PUSH2 0x2BEA JUMP JUMPDEST PUSH1 0x1 PUSH1 0x1 PUSH1 0xA0 SHL SUB AND CALLER EQ PUSH2 0x29B9 JUMP JUMPDEST PUSH0 MSTORE PUSH1 0xB PUSH1 0x20 MSTORE PUSH2 0xEDA PUSH2 0x42F PUSH2 0xEC6 PUSH1 0x40 PUSH0 KECCAK256 PUSH1 0x40 MLOAD SWAP3 DUP4 DUP1 SWAP3 PUSH2 0x289A JUMP JUMPDEST CALLVALUE PUSH2 0x3CF JUMPI PUSH1 0x40 CALLDATASIZE PUSH1 0x3 NOT ADD SLT PUSH2 0x3CF JUMPI PUSH2 0x2280 PUSH2 0x2758 JUMP JUMPDEST CALLER PUSH1 0x1 PUSH1 0x1 PUSH1 0xA0 SHL SUB DUP3 AND SUB PUSH2 0x229C JUMPI PUSH2 0x666 SWAP1 PUSH1 0x4 CALLDATALOAD PUSH2 0x3071 JUMP JUMPDEST PUSH1 0x40 MLOAD PUSH3 0x461BCD PUSH1 0xE5 SHL DUP2 MSTORE PUSH1 0x20 PUSH1 0x4 DUP3 ADD MSTORE PUSH1 0x2F PUSH1 0x24 DUP3 ADD MSTORE PUSH32 0x416363657373436F6E74726F6C3A2063616E206F6E6C792072656E6F756E6365 PUSH1 0x44 DUP3 ADD MSTORE PUSH15 0x103937B632B9903337B91039B2B633 PUSH1 0x89 SHL PUSH1 0x64 DUP3 ADD MSTORE PUSH1 0x84 SWAP1 REVERT JUMPDEST CALLVALUE PUSH2 0x3CF JUMPI PUSH1 0x40 CALLDATASIZE PUSH1 0x3 NOT ADD SLT PUSH2 0x3CF JUMPI PUSH1 0x4 CALLDATALOAD PUSH2 0x2315 PUSH2 0x2758 JUMP JUMPDEST SWAP1 PUSH2 0x232F PUSH2 0x65C DUP3 PUSH0 MSTORE PUSH1 0x6 PUSH1 0x20 MSTORE PUSH1 0x1 PUSH1 0x40 PUSH0 KECCAK256 ADD SLOAD SWAP1 JUMP JUMPDEST DUP1 PUSH0 MSTORE PUSH1 0x6 PUSH1 0x20 MSTORE PUSH1 0x40 PUSH0 KECCAK256 PUSH1 0x1 DUP1 PUSH1 0xA0 SHL SUB DUP4 AND PUSH0 MSTORE PUSH1 0x20 MSTORE PUSH1 0xFF PUSH1 0x40 PUSH0 KECCAK256 SLOAD AND ISZERO PUSH2 0x2358 JUMPI STOP JUMPDEST PUSH0 DUP2 DUP2 MSTORE PUSH1 0x6 PUSH1 0x20 SWAP1 DUP2 MSTORE PUSH1 0x40 DUP1 DUP4 KECCAK256 PUSH1 0x1 PUSH1 0x1 PUSH1 0xA0 SHL SUB SWAP6 SWAP1 SWAP6 AND DUP1 DUP5 MSTORE SWAP5 SWAP1 SWAP2 MSTORE DUP2 KECCAK256 DUP1 SLOAD PUSH1 0xFF NOT AND PUSH1 0x1 OR SWAP1 SSTORE CALLER SWAP3 SWAP2 SWAP1 PUSH32 0x2F8788117E7EFF1D82E926EC794901D17C78024A50270940304540A733656F0D SWAP1 DUP1 LOG4 STOP JUMPDEST CALLVALUE PUSH2 0x3CF JUMPI PUSH1 0x20 CALLDATASIZE PUSH1 0x3 NOT ADD SLT PUSH2 0x3CF JUMPI PUSH1 0x20 PUSH2 0x1A69 PUSH1 0x4 CALLDATALOAD PUSH0 MSTORE PUSH1 0x6 PUSH1 0x20 MSTORE PUSH1 0x1 PUSH1 0x40 PUSH0 KECCAK256 ADD SLOAD SWAP1 JUMP JUMPDEST CALLVALUE PUSH2 0x3CF JUMPI PUSH2 0x666 PUSH2 0x23EE CALLDATASIZE PUSH2 0x276E JUMP JUMPDEST SWAP2 PUSH2 0x23FC PUSH2 0x116F DUP5 CALLER PUSH2 0x2D2D JUMP JUMPDEST PUSH2 0x2DFC JUMP JUMPDEST CALLVALUE PUSH2 0x3CF JUMPI PUSH0 CALLDATASIZE PUSH1 0x3 NOT ADD SLT PUSH2 0x3CF JUMPI PUSH1 0x20 PUSH1 0x40 MLOAD PUSH1 0x5 DUP2 MSTORE RETURN JUMPDEST CALLVALUE PUSH2 0x3CF JUMPI PUSH0 CALLDATASIZE PUSH1 0x3 NOT ADD SLT PUSH2 0x3CF JUMPI PUSH1 0x20 PUSH1 0x40 MLOAD PUSH1 0x2 DUP2 MSTORE RETURN JUMPDEST CALLVALUE PUSH2 0x3CF JUMPI PUSH1 0x40 CALLDATASIZE PUSH1 0x3 NOT ADD SLT PUSH2 0x3CF JUMPI PUSH2 0x2450 PUSH2 0x2742 JUMP JUMPDEST PUSH1 0x24 CALLDATALOAD SWAP1 PUSH1 0x1 PUSH1 0x1 PUSH1 0xA0 SHL SUB PUSH2 0x2465 DUP4 PUSH2 0x2BEA JUMP JUMPDEST PUSH1 0x1 PUSH1 0x1 PUSH1 0xA0 SHL SUB SWAP1 SWAP3 AND SWAP2 AND DUP2 DUP2 EQ PUSH2 0x256E JUMPI DUP1 CALLER EQ SWAP1 DUP2 ISZERO PUSH2 0x254A JUMPI JUMPDEST POP ISZERO PUSH2 0x24DF JUMPI PUSH0 DUP3 DUP2 MSTORE PUSH1 0x4 PUSH1 0x20 MSTORE PUSH1 0x40 SWAP1 KECCAK256 DUP1 SLOAD PUSH1 0x1 PUSH1 0x1 PUSH1 0xA0 SHL SUB NOT AND DUP3 OR SWAP1 SSTORE PUSH1 0x1 PUSH1 0x1 PUSH1 0xA0 SHL SUB PUSH2 0x24B8 DUP4 PUSH2 0x2BEA JUMP JUMPDEST AND PUSH32 0x8C5BE1E5EBEC7D5BD14F71427D1E84F3DD0314C0F7B2291E5B200AC8C7C3B925 PUSH0 DUP1 LOG4 STOP JUMPDEST PUSH1 0x40 MLOAD PUSH3 0x461BCD PUSH1 0xE5 SHL DUP2 MSTORE PUSH1 0x20 PUSH1 0x4 DUP3 ADD MSTORE PUSH1 0x3D PUSH1 0x24 DUP3 ADD MSTORE PUSH32 0x4552433732313A20617070726F76652063616C6C6572206973206E6F7420746F PUSH1 0x44 DUP3 ADD MSTORE PUSH32 0x6B656E206F776E6572206F7220617070726F76656420666F7220616C6C000000 PUSH1 0x64 DUP3 ADD MSTORE PUSH1 0x84 SWAP1 REVERT JUMPDEST PUSH0 SWAP1 DUP2 MSTORE PUSH1 0x5 PUSH1 0x20 SWAP1 DUP2 MSTORE PUSH1 0x40 DUP1 DUP4 KECCAK256 CALLER DUP5 MSTORE SWAP1 SWAP2 MSTORE SWAP1 KECCAK256 SLOAD PUSH1 0xFF AND SWAP1 POP DUP4 PUSH2 0x2484 JUMP JUMPDEST PUSH1 0x40 MLOAD PUSH3 0x461BCD PUSH1 0xE5 SHL DUP2 MSTORE PUSH1 0x20 PUSH1 0x4 DUP3 ADD MSTORE PUSH1 0x21 PUSH1 0x24 DUP3 ADD MSTORE PUSH32 0x4552433732313A20617070726F76616C20746F2063757272656E74206F776E65 PUSH1 0x44 DUP3 ADD MSTORE PUSH1 0x39 PUSH1 0xF9 SHL PUSH1 0x64 DUP3 ADD MSTORE PUSH1 0x84 SWAP1 REVERT JUMPDEST CALLVALUE PUSH2 0x3CF JUMPI PUSH1 0x20 CALLDATASIZE PUSH1 0x3 NOT ADD SLT PUSH2 0x3CF JUMPI PUSH1 0x20 PUSH2 0x1ACA PUSH1 0x4 CALLDATALOAD PUSH2 0x291B JUMP JUMPDEST CALLVALUE PUSH2 0x3CF JUMPI PUSH0 CALLDATASIZE PUSH1 0x3 NOT ADD SLT PUSH2 0x3CF JUMPI PUSH1 0x40 MLOAD PUSH0 PUSH0 SLOAD PUSH2 0x25FA DUP2 PUSH2 0x2862 JUMP JUMPDEST DUP1 DUP5 MSTORE SWAP1 PUSH1 0x1 DUP2 AND SWAP1 DUP2 ISZERO PUSH2 0x13EA JUMPI POP PUSH1 0x1 EQ PUSH2 0x2621 JUMPI PUSH2 0xEDA DUP4 PUSH2 0xEC6 DUP2 DUP6 SUB DUP3 PUSH2 0x27F0 JUMP JUMPDEST PUSH0 DUP1 DUP1 MSTORE PUSH32 0x290DECD9548B62A8D60345A988386FC84BA6BC95484008F6362F93160EF3E563 SWAP4 SWAP3 POP SWAP1 JUMPDEST DUP1 DUP3 LT PUSH2 0x2663 JUMPI POP SWAP1 SWAP2 POP DUP2 ADD PUSH1 0x20 ADD PUSH2 0xEC6 PUSH2 0x137C JUMP JUMPDEST SWAP2 SWAP3 PUSH1 0x1 DUP2 PUSH1 0x20 SWAP3 SLOAD DUP4 DUP6 DUP9 ADD ADD MSTORE ADD SWAP2 ADD SWAP1 SWAP3 SWAP2 PUSH2 0x264B JUMP JUMPDEST CALLVALUE PUSH2 0x3CF JUMPI PUSH1 0x20 CALLDATASIZE PUSH1 0x3 NOT ADD SLT PUSH2 0x3CF JUMPI PUSH1 0x4 CALLDATALOAD PUSH4 0xFFFFFFFF PUSH1 0xE0 SHL DUP2 AND DUP1 SWAP2 SUB PUSH2 0x3CF JUMPI PUSH1 0x20 SWAP1 PUSH4 0x7965DB0B PUSH1 0xE0 SHL DUP2 EQ SWAP1 DUP2 ISZERO PUSH2 0x26C2 JUMPI JUMPDEST POP PUSH1 0x40 MLOAD SWAP1 ISZERO ISZERO DUP2 MSTORE RETURN JUMPDEST PUSH4 0x80AC58CD PUSH1 0xE0 SHL DUP2 EQ SWAP2 POP DUP2 ISZERO PUSH2 0x26F4 JUMPI JUMPDEST DUP2 ISZERO PUSH2 0x26E3 JUMPI JUMPDEST POP DUP3 PUSH2 0x26B7 JUMP JUMPDEST PUSH4 0x1FFC9A7 PUSH1 0xE0 SHL EQ SWAP1 POP DUP3 PUSH2 0x26DC JUMP JUMPDEST PUSH4 0x5B5E139F PUSH1 0xE0 SHL DUP2 EQ SWAP2 POP PUSH2 0x26D5 JUMP JUMPDEST CALLVALUE PUSH2 0x3CF JUMPI PUSH0 CALLDATASIZE PUSH1 0x3 NOT ADD SLT PUSH2 0x3CF JUMPI DUP1 PUSH1 0x3 PUSH1 0x20 SWAP3 MSTORE RETURN JUMPDEST DUP1 MLOAD DUP1 DUP4 MSTORE PUSH1 0x20 SWAP3 SWAP2 DUP2 SWAP1 DUP5 ADD DUP5 DUP5 ADD MCOPY PUSH0 DUP3 DUP3 ADD DUP5 ADD MSTORE PUSH1 0x1F ADD PUSH1 0x1F NOT AND ADD ADD SWAP1 JUMP JUMPDEST PUSH1 0x4 CALLDATALOAD SWAP1 PUSH1 0x1 PUSH1 0x1 PUSH1 0xA0 SHL SUB DUP3 AND DUP3 SUB PUSH2 0x3CF JUMPI JUMP JUMPDEST PUSH1 0x24 CALLDATALOAD SWAP1 PUSH1 0x1 PUSH1 0x1 PUSH1 0xA0 SHL SUB DUP3 AND DUP3 SUB PUSH2 0x3CF JUMPI JUMP JUMPDEST PUSH1 0x60 SWAP1 PUSH1 0x3 NOT ADD SLT PUSH2 0x3CF JUMPI PUSH1 0x4 CALLDATALOAD PUSH1 0x1 PUSH1 0x1 PUSH1 0xA0 SHL SUB DUP2 AND DUP2 SUB PUSH2 0x3CF JUMPI SWAP1 PUSH1 0x24 CALLDATALOAD PUSH1 0x1 PUSH1 0x1 PUSH1 0xA0 SHL SUB DUP2 AND DUP2 SUB PUSH2 0x3CF JUMPI SWAP1 PUSH1 0x44 CALLDATALOAD SWAP1 JUMP JUMPDEST SWAP2 DUP2 PUSH1 0x1F DUP5 ADD SLT ISZERO PUSH2 0x3CF JUMPI DUP3 CALLDATALOAD SWAP2 PUSH1 0x1 PUSH1 0x1 PUSH1 0x40 SHL SUB DUP4 GT PUSH2 0x3CF JUMPI PUSH1 0x20 DUP4 DUP2 DUP7 ADD SWAP6 ADD ADD GT PUSH2 0x3CF JUMPI JUMP JUMPDEST PUSH1 0xE0 DUP2 ADD SWAP1 DUP2 LT PUSH1 0x1 PUSH1 0x1 PUSH1 0x40 SHL SUB DUP3 GT OR PUSH2 0x34A JUMPI PUSH1 0x40 MSTORE JUMP JUMPDEST SWAP1 PUSH1 0x1F DUP1 NOT SWAP2 ADD AND DUP2 ADD SWAP1 DUP2 LT PUSH1 0x1 PUSH1 0x1 PUSH1 0x40 SHL SUB DUP3 GT OR PUSH2 0x34A JUMPI PUSH1 0x40 MSTORE JUMP JUMPDEST PUSH1 0x1 PUSH1 0x1 PUSH1 0x40 SHL SUB DUP2 GT PUSH2 0x34A JUMPI PUSH1 0x1F ADD PUSH1 0x1F NOT AND PUSH1 0x20 ADD SWAP1 JUMP JUMPDEST SWAP3 SWAP2 SWAP3 PUSH2 0x2838 DUP3 PUSH2 0x2811 JUMP JUMPDEST SWAP2 PUSH2 0x2846 PUSH1 0x40 MLOAD SWAP4 DUP5 PUSH2 0x27F0 JUMP JUMPDEST DUP3 SWAP5 DUP2 DUP5 MSTORE DUP2 DUP4 ADD GT PUSH2 0x3CF JUMPI DUP3 DUP2 PUSH1 0x20 SWAP4 DUP5 PUSH0 SWAP7 ADD CALLDATACOPY ADD ADD MSTORE JUMP JUMPDEST SWAP1 PUSH1 0x1 DUP3 DUP2 SHR SWAP3 AND DUP1 ISZERO PUSH2 0x2890 JUMPI JUMPDEST PUSH1 0x20 DUP4 LT EQ PUSH2 0x287C JUMPI JUMP JUMPDEST PUSH4 0x4E487B71 PUSH1 0xE0 SHL PUSH0 MSTORE PUSH1 0x22 PUSH1 0x4 MSTORE PUSH1 0x24 PUSH0 REVERT JUMPDEST SWAP2 PUSH1 0x7F AND SWAP2 PUSH2 0x2871 JUMP JUMPDEST PUSH0 SWAP3 SWAP2 DUP2 SLOAD SWAP2 PUSH2 0x28A9 DUP4 PUSH2 0x2862 JUMP JUMPDEST DUP1 DUP4 MSTORE SWAP3 PUSH1 0x1 DUP2 AND SWAP1 DUP2 ISZERO PUSH2 0x28FE JUMPI POP PUSH1 0x1 EQ PUSH2 0x28C5 JUMPI POP POP POP JUMP JUMPDEST PUSH0 SWAP1 DUP2 MSTORE PUSH1 0x20 DUP2 KECCAK256 SWAP4 SWAP5 POP SWAP2 SWAP3 JUMPDEST DUP4 DUP4 LT PUSH2 0x28E4 JUMPI POP PUSH1 0x20 SWAP3 POP ADD ADD SWAP1 JUMP JUMPDEST PUSH1 0x1 DUP2 PUSH1 0x20 SWAP3 SWAP5 SWAP4 SWAP5 SLOAD DUP4 DUP6 DUP8 ADD ADD MSTORE ADD SWAP2 ADD SWAP2 SWAP1 PUSH2 0x28D3 JUMP JUMPDEST SWAP2 POP POP PUSH1 0x20 SWAP4 SWAP5 POP PUSH1 0xFF SWAP3 SWAP2 SWAP3 NOT AND DUP4 DUP4 ADD MSTORE ISZERO ISZERO PUSH1 0x5 SHL ADD ADD SWAP1 JUMP JUMPDEST PUSH0 DUP2 DUP2 MSTORE PUSH1 0x2 PUSH1 0x20 MSTORE PUSH1 0x40 SWAP1 KECCAK256 SLOAD PUSH2 0x293D SWAP1 PUSH1 0x1 PUSH1 0x1 PUSH1 0xA0 SHL SUB AND ISZERO ISZERO PUSH2 0x2B9E JUMP JUMPDEST PUSH0 SWAP1 DUP2 MSTORE PUSH1 0x4 PUSH1 0x20 MSTORE PUSH1 0x40 SWAP1 KECCAK256 SLOAD PUSH1 0x1 PUSH1 0x1 PUSH1 0xA0 SHL SUB AND SWAP1 JUMP JUMPDEST ISZERO PUSH2 0x295E JUMPI JUMP JUMPDEST PUSH1 0x40 MLOAD PUSH3 0x461BCD PUSH1 0xE5 SHL DUP2 MSTORE PUSH1 0x20 PUSH1 0x4 DUP3 ADD MSTORE PUSH1 0x2D PUSH1 0x24 DUP3 ADD MSTORE PUSH32 0x4552433732313A2063616C6C6572206973206E6F7420746F6B656E206F776E65 PUSH1 0x44 DUP3 ADD MSTORE PUSH13 0x1C881BDC88185C1C1C9BDD9959 PUSH1 0x9A SHL PUSH1 0x64 DUP3 ADD MSTORE PUSH1 0x84 SWAP1 REVERT JUMPDEST ISZERO PUSH2 0x29C0 JUMPI JUMP JUMPDEST PUSH1 0x40 MLOAD PUSH3 0x461BCD PUSH1 0xE5 SHL DUP2 MSTORE PUSH1 0x20 PUSH1 0x4 DUP3 ADD MSTORE PUSH1 0xF PUSH1 0x24 DUP3 ADD MSTORE PUSH15 0x2737BA103A37B5B2B71037BBB732B9 PUSH1 0x89 SHL PUSH1 0x44 DUP3 ADD MSTORE PUSH1 0x64 SWAP1 REVERT JUMPDEST PUSH2 0x2A1E SWAP3 PUSH2 0x1184 SWAP3 PUSH1 0x40 MLOAD SWAP3 PUSH2 0x2A0E PUSH1 0x20 DUP6 PUSH2 0x27F0 JUMP JUMPDEST PUSH0 DUP5 MSTORE PUSH2 0x1174 PUSH2 0x116F DUP5 CALLER PUSH2 0x2D2D JUMP JUMPDEST JUMP JUMPDEST PUSH0 NOT DUP2 EQ PUSH2 0x2A2E JUMPI PUSH1 0x1 ADD SWAP1 JUMP JUMPDEST PUSH4 0x4E487B71 PUSH1 0xE0 SHL PUSH0 MSTORE PUSH1 0x11 PUSH1 0x4 MSTORE PUSH1 0x24 PUSH0 REVERT JUMPDEST PUSH1 0x1 PUSH1 0x1 PUSH1 0x40 SHL SUB DUP2 GT PUSH2 0x34A JUMPI PUSH1 0x5 SHL PUSH1 0x20 ADD SWAP1 JUMP JUMPDEST DUP2 DUP2 LT PUSH2 0x2A64 JUMPI POP POP JUMP JUMPDEST PUSH0 DUP2 SSTORE PUSH1 0x1 ADD PUSH2 0x2A59 JUMP JUMPDEST SWAP2 SWAP1 PUSH1 0x1F DUP2 GT PUSH2 0x2A7E JUMPI POP POP POP JUMP JUMPDEST PUSH2 0x2A1E SWAP3 PUSH0 MSTORE PUSH1 0x20 PUSH0 KECCAK256 SWAP1 PUSH1 0x20 PUSH1 0x1F DUP5 ADD PUSH1 0x5 SHR DUP4 ADD SWAP4 LT PUSH2 0x2AA8 JUMPI JUMPDEST PUSH1 0x1F ADD PUSH1 0x5 SHR ADD SWAP1 PUSH2 0x2A59 JUMP JUMPDEST SWAP1 SWAP2 POP DUP2 SWAP1 PUSH2 0x2A9B JUMP JUMPDEST SWAP1 PUSH1 0x1 PUSH1 0x40 SHL DUP2 GT PUSH2 0x34A JUMPI DUP2 SLOAD SWAP2 DUP2 DUP2 SSTORE DUP3 DUP3 LT PUSH2 0x2AD0 JUMPI POP POP POP JUMP JUMPDEST PUSH0 MSTORE PUSH1 0x20 PUSH0 KECCAK256 SWAP2 DUP3 ADD SWAP2 ADD JUMPDEST DUP2 DUP2 LT PUSH2 0x2AE7 JUMPI POP POP JUMP JUMPDEST DUP1 PUSH2 0x2AF4 PUSH1 0x1 SWAP3 SLOAD PUSH2 0x2862 JUMP JUMPDEST DUP1 PUSH2 0x2B01 JUMPI JUMPDEST POP ADD PUSH2 0x2ADC JUMP JUMPDEST PUSH1 0x1F DUP2 GT DUP4 EQ PUSH2 0x2B16 JUMPI POP PUSH0 DUP2 SSTORE JUMPDEST PUSH0 PUSH2 0x2AFA JUMP JUMPDEST PUSH2 0x2B32 SWAP1 DUP3 PUSH0 MSTORE DUP4 PUSH1 0x1F PUSH1 0x20 PUSH0 KECCAK256 SWAP3 ADD PUSH1 0x5 SHR DUP3 ADD SWAP2 ADD PUSH2 0x2A59 JUMP JUMPDEST DUP1 PUSH0 MSTORE PUSH0 PUSH1 0x20 DUP2 KECCAK256 DUP2 DUP4 SSTORE SSTORE PUSH2 0x2B10 JUMP JUMPDEST DUP1 SLOAD SWAP1 PUSH1 0x1 PUSH1 0x40 SHL DUP3 LT ISZERO PUSH2 0x34A JUMPI PUSH1 0x1 DUP3 ADD DUP1 DUP3 SSTORE DUP3 LT ISZERO PUSH2 0x2B6A JUMPI PUSH0 MSTORE PUSH1 0x20 PUSH0 KECCAK256 ADD SSTORE JUMP JUMPDEST PUSH4 0x4E487B71 PUSH1 0xE0 SHL PUSH0 MSTORE PUSH1 0x32 PUSH1 0x4 MSTORE PUSH1 0x24 PUSH0 REVERT JUMPDEST SWAP1 DUP1 PUSH1 0x20 SWAP4 SWAP3 DUP2 DUP5 MSTORE DUP5 DUP5 ADD CALLDATACOPY PUSH0 DUP3 DUP3 ADD DUP5 ADD MSTORE PUSH1 0x1F ADD PUSH1 0x1F NOT AND ADD ADD SWAP1 JUMP JUMPDEST ISZERO PUSH2 0x2BA5 JUMPI JUMP JUMPDEST PUSH1 0x40 MLOAD PUSH3 0x461BCD PUSH1 0xE5 SHL DUP2 MSTORE PUSH1 0x20 PUSH1 0x4 DUP3 ADD MSTORE PUSH1 0x18 PUSH1 0x24 DUP3 ADD MSTORE PUSH32 0x4552433732313A20696E76616C696420746F6B656E2049440000000000000000 PUSH1 0x44 DUP3 ADD MSTORE PUSH1 0x64 SWAP1 REVERT JUMPDEST PUSH0 SWAP1 DUP2 MSTORE PUSH1 0x2 PUSH1 0x20 MSTORE PUSH1 0x40 SWAP1 KECCAK256 SLOAD PUSH1 0x1 PUSH1 0x1 PUSH1 0xA0 SHL SUB AND PUSH2 0x2C0C DUP2 ISZERO ISZERO PUSH2 0x2B9E JUMP JUMPDEST SWAP1 JUMP JUMPDEST PUSH1 0x1 PUSH1 0x1 PUSH1 0xA0 SHL SUB AND DUP1 ISZERO PUSH2 0x2C2D JUMPI PUSH0 MSTORE PUSH1 0x3 PUSH1 0x20 MSTORE PUSH1 0x40 PUSH0 KECCAK256 SLOAD SWAP1 JUMP JUMPDEST PUSH1 0x40 MLOAD PUSH3 0x461BCD PUSH1 0xE5 SHL DUP2 MSTORE PUSH1 0x20 PUSH1 0x4 DUP3 ADD MSTORE PUSH1 0x29 PUSH1 0x24 DUP3 ADD MSTORE PUSH32 0x4552433732313A2061646472657373207A65726F206973206E6F742061207661 PUSH1 0x44 DUP3 ADD MSTORE PUSH9 0x3634B21037BBB732B9 PUSH1 0xB9 SHL PUSH1 0x64 DUP3 ADD MSTORE PUSH1 0x84 SWAP1 REVERT JUMPDEST SWAP1 DUP2 SLOAD PUSH2 0x2C90 DUP2 PUSH2 0x2A42 JUMP JUMPDEST SWAP3 PUSH2 0x2C9E PUSH1 0x40 MLOAD SWAP5 DUP6 PUSH2 0x27F0 JUMP JUMPDEST DUP2 DUP5 MSTORE PUSH1 0x20 DUP5 ADD SWAP1 PUSH0 MSTORE PUSH1 0x20 PUSH0 KECCAK256 PUSH0 SWAP2 JUMPDEST DUP4 DUP4 LT PUSH2 0x2CBC JUMPI POP POP POP POP JUMP JUMPDEST PUSH1 0x1 PUSH1 0x20 DUP2 SWAP3 PUSH1 0x40 MLOAD PUSH2 0x2CD3 DUP2 PUSH2 0x42F DUP2 DUP10 PUSH2 0x289A JUMP JUMPDEST DUP2 MSTORE ADD SWAP3 ADD SWAP3 ADD SWAP2 SWAP1 PUSH2 0x2CAF JUMP JUMPDEST ISZERO PUSH2 0x2CE8 JUMPI JUMP JUMPDEST PUSH1 0x40 MLOAD PUSH3 0x461BCD PUSH1 0xE5 SHL DUP2 MSTORE PUSH1 0x20 PUSH1 0x4 DUP3 ADD MSTORE PUSH1 0x17 PUSH1 0x24 DUP3 ADD MSTORE PUSH32 0x43616C6C6572206D757374206F776E206120746F6B656E000000000000000000 PUSH1 0x44 DUP3 ADD MSTORE PUSH1 0x64 SWAP1 REVERT JUMPDEST SWAP1 PUSH1 0x1 PUSH1 0x1 PUSH1 0xA0 SHL SUB PUSH2 0x2D3F DUP3 PUSH2 0x2BEA JUMP JUMPDEST PUSH1 0x1 PUSH1 0x1 PUSH1 0xA0 SHL SUB SWAP1 SWAP4 AND SWAP3 AND DUP3 DUP2 EQ SWAP3 SWAP2 SWAP1 DUP4 ISZERO PUSH2 0x2D7F JUMPI JUMPDEST POP DUP3 ISZERO PUSH2 0x2D65 JUMPI POP POP SWAP1 JUMP JUMPDEST SWAP1 SWAP2 POP PUSH1 0x1 PUSH1 0x1 PUSH1 0xA0 SHL SUB SWAP1 PUSH2 0x2D7A SWAP1 PUSH2 0x291B JUMP JUMPDEST AND EQ SWAP1 JUMP JUMPDEST SWAP1 SWAP3 POP PUSH0 MSTORE PUSH1 0x5 PUSH1 0x20 MSTORE PUSH1 0x40 PUSH0 KECCAK256 DUP2 PUSH0 MSTORE PUSH1 0x20 MSTORE PUSH1 0xFF PUSH1 0x40 PUSH0 KECCAK256 SLOAD AND SWAP2 PUSH0 PUSH2 0x2D59 JUMP JUMPDEST ISZERO PUSH2 0x2DA9 JUMPI JUMP JUMPDEST PUSH1 0x40 MLOAD PUSH3 0x461BCD PUSH1 0xE5 SHL DUP2 MSTORE PUSH1 0x20 PUSH1 0x4 DUP3 ADD MSTORE PUSH1 0x25 PUSH1 0x24 DUP3 ADD MSTORE PUSH32 0x4552433732313A207472616E736665722066726F6D20696E636F727265637420 PUSH1 0x44 DUP3 ADD MSTORE PUSH5 0x37BBB732B9 PUSH1 0xD9 SHL PUSH1 0x64 DUP3 ADD MSTORE PUSH1 0x84 SWAP1 REVERT JUMPDEST SWAP1 PUSH2 0x2E1D PUSH2 0x2E09 DUP5 PUSH2 0x2BEA JUMP JUMPDEST PUSH1 0x1 PUSH1 0x1 PUSH1 0xA0 SHL SUB SWAP4 DUP5 AND SWAP4 AND DUP4 EQ PUSH2 0x2DA2 JUMP JUMPDEST PUSH1 0x1 PUSH1 0x1 PUSH1 0xA0 SHL SUB AND SWAP1 DUP2 ISZERO PUSH2 0x2ECF JUMPI PUSH2 0x2E49 DUP2 PUSH1 0x1 PUSH1 0x1 PUSH1 0xA0 SHL SUB PUSH2 0x2E42 DUP7 PUSH2 0x2BEA JUMP JUMPDEST AND EQ PUSH2 0x2DA2 JUMP JUMPDEST DUP3 PUSH0 MSTORE PUSH1 0x4 PUSH1 0x20 MSTORE PUSH1 0x40 PUSH0 KECCAK256 PUSH1 0x1 PUSH1 0x1 PUSH1 0x60 SHL SUB PUSH1 0xA0 SHL DUP2 SLOAD AND SWAP1 SSTORE DUP1 PUSH0 MSTORE PUSH1 0x3 PUSH1 0x20 MSTORE PUSH1 0x40 PUSH0 KECCAK256 PUSH0 NOT DUP2 SLOAD ADD SWAP1 SSTORE DUP2 PUSH0 MSTORE PUSH1 0x3 PUSH1 0x20 MSTORE PUSH1 0x40 PUSH0 KECCAK256 PUSH1 0x1 DUP2 SLOAD ADD SWAP1 SSTORE DUP3 PUSH0 MSTORE PUSH1 0x2 PUSH1 0x20 MSTORE PUSH1 0x40 PUSH0 KECCAK256 DUP3 PUSH1 0x1 PUSH1 0x1 PUSH1 0x60 SHL SUB PUSH1 0xA0 SHL DUP3 SLOAD AND OR SWAP1 SSTORE PUSH32 0xDDF252AD1BE2C89B69C2B068FC378DAA952BA7F163C4A11628F55A4DF523B3EF PUSH0 DUP1 LOG4 JUMP JUMPDEST PUSH1 0x40 MLOAD PUSH3 0x461BCD PUSH1 0xE5 SHL DUP2 MSTORE PUSH1 0x20 PUSH1 0x4 DUP3 ADD MSTORE PUSH1 0x24 DUP1 DUP3 ADD MSTORE PUSH32 0x4552433732313A207472616E7366657220746F20746865207A65726F20616464 PUSH1 0x44 DUP3 ADD MSTORE PUSH4 0x72657373 PUSH1 0xE0 SHL PUSH1 0x64 DUP3 ADD MSTORE PUSH1 0x84 SWAP1 REVERT JUMPDEST CALLER PUSH0 SWAP1 DUP2 MSTORE PUSH32 0x3195C024B2DDD6D9B8F6C836AA52F67FE69376C8903D009B80229B3CE4425F51 PUSH1 0x20 MSTORE PUSH1 0x40 SWAP1 KECCAK256 SLOAD PUSH1 0xFF AND ISZERO PUSH2 0x2F58 JUMPI JUMP JUMPDEST PUSH2 0x3029 PUSH1 0x20 PUSH2 0x3009 PUSH1 0x11 PUSH2 0x2F6B CALLER PUSH2 0x3536 JUMP JUMPDEST PUSH1 0x37 DUP5 PUSH2 0x2F97 PUSH32 0x9F2DF0FED2C77648DE5860A4CC508CD0818C85B8B8A1AB4CEEEF8D981C8956A6 PUSH2 0x361C JUMP JUMPDEST PUSH1 0x40 MLOAD SWAP7 DUP8 SWAP5 PUSH32 0x416363657373436F6E74726F6C3A206163636F756E7420000000000000000000 DUP3 DUP8 ADD MSTORE DUP1 MLOAD SWAP2 DUP3 SWAP2 ADD DUP6 DUP8 ADD MCOPY DUP5 ADD SWAP1 PUSH17 0x1034B99036B4B9B9B4B733903937B6329 PUSH1 0x7D SHL DUP5 DUP4 ADD MSTORE DUP1 MLOAD SWAP3 DUP4 SWAP2 ADD PUSH1 0x48 DUP4 ADD MCOPY ADD ADD PUSH0 DUP4 DUP3 ADD MSTORE SUB ADD PUSH1 0x1F NOT DUP2 ADD DUP4 MSTORE DUP3 PUSH2 0x27F0 JUMP JUMPDEST PUSH1 0x40 MLOAD PUSH3 0x461BCD PUSH1 0xE5 SHL DUP2 MSTORE PUSH1 0x20 PUSH1 0x4 DUP3 ADD MSTORE SWAP2 DUP3 SWAP2 PUSH1 0x24 DUP4 ADD SWAP1 PUSH2 0x271E JUMP JUMPDEST SUB SWAP1 REVERT JUMPDEST PUSH0 DUP2 DUP2 MSTORE PUSH1 0x6 PUSH1 0x20 SWAP1 DUP2 MSTORE PUSH1 0x40 DUP1 DUP4 KECCAK256 CALLER DUP5 MSTORE SWAP1 SWAP2 MSTORE SWAP1 KECCAK256 SLOAD PUSH1 0xFF AND ISZERO PUSH2 0x3051 JUMPI POP JUMP JUMPDEST PUSH1 0x20 PUSH2 0x3009 PUSH1 0x11 PUSH2 0x3029 SWAP4 PUSH1 0x37 DUP5 PUSH2 0x2F97 PUSH2 0x306B CALLER PUSH2 0x3536 JUMP JUMPDEST SWAP4 PUSH2 0x361C JUMP JUMPDEST DUP1 PUSH0 MSTORE PUSH1 0x6 PUSH1 0x20 MSTORE PUSH1 0x40 PUSH0 KECCAK256 PUSH1 0x1 DUP1 PUSH1 0xA0 SHL SUB DUP4 AND PUSH0 MSTORE PUSH1 0x20 MSTORE PUSH1 0xFF PUSH1 0x40 PUSH0 KECCAK256 SLOAD AND PUSH2 0x309B JUMPI POP POP JUMP JUMPDEST PUSH0 DUP2 DUP2 MSTORE PUSH1 0x6 PUSH1 0x20 SWAP1 DUP2 MSTORE PUSH1 0x40 DUP1 DUP4 KECCAK256 PUSH1 0x1 PUSH1 0x1 PUSH1 0xA0 SHL SUB SWAP6 SWAP1 SWAP6 AND DUP1 DUP5 MSTORE SWAP5 SWAP1 SWAP2 MSTORE DUP2 KECCAK256 DUP1 SLOAD PUSH1 0xFF NOT AND SWAP1 SSTORE CALLER SWAP3 SWAP2 SWAP1 PUSH32 0xF6391F5C32D9C69D2A47EA670B442974B53935D1EDC7FD64EB21E047A839171B SWAP1 DUP1 LOG4 JUMP JUMPDEST PUSH0 JUMPDEST PUSH1 0x5 DUP2 GT ISZERO PUSH2 0x3104 JUMPI POP POP PUSH0 NOT SWAP1 JUMP JUMPDEST DUP1 PUSH0 MSTORE PUSH1 0xC PUSH1 0x20 MSTORE PUSH2 0x42F PUSH2 0x3122 PUSH1 0x40 PUSH0 KECCAK256 PUSH1 0x40 MLOAD SWAP3 DUP4 DUP1 SWAP3 PUSH2 0x289A JUMP JUMPDEST PUSH1 0x20 DUP2 MLOAD SWAP2 ADD KECCAK256 DUP3 MLOAD PUSH1 0x20 DUP5 ADD KECCAK256 EQ PUSH2 0x3143 JUMPI PUSH2 0x313E SWAP1 PUSH2 0x2A20 JUMP JUMPDEST PUSH2 0x30F4 JUMP JUMPDEST SWAP1 POP SWAP1 JUMP JUMPDEST PUSH4 0x1E13380 TIMESTAMP DIV PUSH2 0x7B2 DUP2 ADD DUP1 SWAP2 GT PUSH2 0x2A2E JUMPI PUSH3 0x3F480 PUSH4 0x1E13380 TIMESTAMP MOD DIV PUSH1 0x1 DUP2 ADD DUP2 GT PUSH2 0x2A2E JUMPI PUSH1 0x64 DUP3 MUL SWAP2 DUP1 DUP4 DIV PUSH1 0x64 EQ SWAP1 ISZERO OR ISZERO PUSH2 0x2A2E JUMPI PUSH1 0x1 SWAP1 DUP3 ADD ADD DUP1 SWAP2 GT PUSH2 0x2A2E JUMPI SWAP1 JUMP JUMPDEST PUSH1 0x40 MLOAD SWAP2 SWAP1 PUSH1 0x20 PUSH2 0x31A5 DUP2 DUP6 PUSH2 0x27F0 JUMP JUMPDEST PUSH0 DUP5 MSTORE PUSH1 0x1 PUSH1 0x1 PUSH1 0xA0 SHL SUB DUP3 AND SWAP1 DUP2 ISZERO PUSH2 0x3265 JUMPI SWAP2 DUP4 DUP1 SWAP3 PUSH1 0x2 PUSH2 0x2A1E SWAP8 SWAP6 PUSH2 0x31ED PUSH2 0x31E7 PUSH2 0x1184 SWAP10 PUSH0 MSTORE PUSH1 0x2 PUSH1 0x20 MSTORE PUSH1 0x1 DUP1 PUSH1 0xA0 SHL SUB PUSH1 0x40 PUSH0 KECCAK256 SLOAD AND ISZERO ISZERO SWAP1 JUMP JUMPDEST ISZERO PUSH2 0x36BE JUMP JUMPDEST PUSH0 DUP5 DUP2 MSTORE PUSH1 0x2 PUSH1 0x20 MSTORE PUSH1 0x40 SWAP1 KECCAK256 SLOAD PUSH2 0x320F SWAP1 PUSH1 0x1 PUSH1 0x1 PUSH1 0xA0 SHL SUB AND ISZERO ISZERO PUSH2 0x31E7 JUMP JUMPDEST DUP3 PUSH0 MSTORE PUSH1 0x3 DUP2 MSTORE PUSH1 0x40 PUSH0 KECCAK256 PUSH1 0x1 DUP2 SLOAD ADD SWAP1 SSTORE DUP4 PUSH0 MSTORE MSTORE PUSH1 0x40 PUSH0 KECCAK256 DUP2 PUSH1 0x1 PUSH1 0x1 PUSH1 0x60 SHL SUB PUSH1 0xA0 SHL DUP3 SLOAD AND OR SWAP1 SSTORE PUSH0 PUSH32 0xDDF252AD1BE2C89B69C2B068FC378DAA952BA7F163C4A11628F55A4DF523B3EF DUP2 DUP1 LOG4 PUSH2 0x33B6 JUMP JUMPDEST PUSH1 0x64 SWAP1 PUSH1 0x40 MLOAD SWAP1 PUSH3 0x461BCD PUSH1 0xE5 SHL DUP3 MSTORE DUP1 PUSH1 0x4 DUP4 ADD MSTORE PUSH1 0x24 DUP3 ADD MSTORE PUSH32 0x4552433732313A206D696E7420746F20746865207A65726F2061646472657373 PUSH1 0x44 DUP3 ADD MSTORE REVERT JUMPDEST PUSH0 SWAP2 PUSH1 0x1 SWAP2 PUSH1 0x7 SLOAD SWAP3 JUMPDEST DUP4 DUP2 LT PUSH2 0x32FE JUMPI PUSH1 0x40 MLOAD PUSH3 0x461BCD PUSH1 0xE5 SHL DUP2 MSTORE PUSH1 0x20 PUSH1 0x4 DUP3 ADD MSTORE PUSH1 0x18 PUSH1 0x24 DUP3 ADD MSTORE PUSH32 0x546F6B656E206E6F7420666F756E6420617420696E6465780000000000000000 PUSH1 0x44 DUP3 ADD MSTORE PUSH1 0x64 SWAP1 REVERT JUMPDEST PUSH2 0x3307 DUP2 PUSH2 0x2BEA JUMP JUMPDEST PUSH1 0x1 PUSH1 0x1 PUSH1 0xA0 SHL SUB DUP4 DUP2 AND SWAP2 AND EQ PUSH2 0x3322 JUMPI JUMPDEST PUSH1 0x1 ADD PUSH2 0x32B2 JUMP JUMPDEST SWAP4 DUP1 ISZERO PUSH2 0x333C JUMPI PUSH2 0x3334 PUSH1 0x1 SWAP2 PUSH2 0x2A20 JUMP JUMPDEST SWAP5 SWAP1 POP PUSH2 0x331A JUMP JUMPDEST POP SWAP1 SWAP2 POP POP JUMP JUMPDEST PUSH1 0x80 SWAP1 PUSH1 0x20 DUP2 MSTORE PUSH1 0x32 PUSH1 0x20 DUP3 ADD MSTORE PUSH32 0x4552433732313A207472616E7366657220746F206E6F6E204552433732315265 PUSH1 0x40 DUP3 ADD MSTORE PUSH18 0x31B2B4BB32B91034B6B83632B6B2B73A32B9 PUSH1 0x71 SHL PUSH1 0x60 DUP3 ADD MSTORE ADD SWAP1 JUMP JUMPDEST ISZERO PUSH2 0x339D JUMPI JUMP JUMPDEST PUSH1 0x40 MLOAD PUSH3 0x461BCD PUSH1 0xE5 SHL DUP2 MSTORE DUP1 PUSH2 0x3029 PUSH1 0x4 DUP3 ADD PUSH2 0x3343 JUMP JUMPDEST SWAP2 DUP3 EXTCODESIZE ISZERO PUSH2 0x34C5 JUMPI PUSH2 0x33FB SWAP3 PUSH1 0x20 SWAP3 PUSH0 PUSH1 0x40 MLOAD DUP1 SWAP7 DUP2 SWAP6 DUP3 SWAP5 PUSH4 0xA85BD01 PUSH1 0xE1 SHL DUP5 MSTORE CALLER PUSH1 0x4 DUP6 ADD MSTORE DUP5 PUSH1 0x24 DUP6 ADD MSTORE PUSH1 0x44 DUP5 ADD MSTORE PUSH1 0x80 PUSH1 0x64 DUP5 ADD MSTORE PUSH1 0x84 DUP4 ADD SWAP1 PUSH2 0x271E JUMP JUMPDEST SUB SWAP3 PUSH1 0x1 PUSH1 0x1 PUSH1 0xA0 SHL SUB AND GAS CALL PUSH0 SWAP2 DUP2 PUSH2 0x3480 JUMPI JUMPDEST POP PUSH2 0x346A JUMPI RETURNDATASIZE ISZERO PUSH2 0x3463 JUMPI RETURNDATASIZE PUSH2 0x3425 DUP2 PUSH2 0x2811 JUMP JUMPDEST SWAP1 PUSH2 0x3433 PUSH1 0x40 MLOAD SWAP3 DUP4 PUSH2 0x27F0 JUMP JUMPDEST DUP2 MSTORE RETURNDATASIZE PUSH0 PUSH1 0x20 DUP4 ADD RETURNDATACOPY JUMPDEST DUP1 MLOAD SWAP1 DUP2 PUSH2 0x345E JUMPI PUSH1 0x40 MLOAD PUSH3 0x461BCD PUSH1 0xE5 SHL DUP2 MSTORE DUP1 PUSH2 0x3029 PUSH1 0x4 DUP3 ADD PUSH2 0x3343 JUMP JUMPDEST PUSH1 0x20 ADD REVERT JUMPDEST PUSH1 0x60 PUSH2 0x343D JUMP JUMPDEST PUSH1 0x1 PUSH1 0x1 PUSH1 0xE0 SHL SUB NOT AND PUSH4 0xA85BD01 PUSH1 0xE1 SHL EQ SWAP1 JUMP JUMPDEST SWAP1 SWAP2 POP PUSH1 0x20 DUP2 RETURNDATASIZE PUSH1 0x20 GT PUSH2 0x34BD JUMPI JUMPDEST DUP2 PUSH2 0x349C PUSH1 0x20 SWAP4 DUP4 PUSH2 0x27F0 JUMP JUMPDEST DUP2 ADD SUB SLT PUSH2 0x3CF JUMPI MLOAD PUSH1 0x1 PUSH1 0x1 PUSH1 0xE0 SHL SUB NOT DUP2 AND DUP2 SUB PUSH2 0x3CF JUMPI SWAP1 PUSH0 PUSH2 0x3410 JUMP JUMPDEST RETURNDATASIZE SWAP2 POP PUSH2 0x348F JUMP JUMPDEST POP POP POP PUSH1 0x1 SWAP1 JUMP JUMPDEST SWAP2 SWAP3 SWAP1 DUP1 EXTCODESIZE ISZERO PUSH2 0x351C JUMPI PUSH2 0x33FB SWAP4 PUSH0 PUSH1 0x20 SWAP5 PUSH1 0x40 MLOAD SWAP7 DUP8 SWAP6 DUP7 SWAP5 DUP6 SWAP4 PUSH4 0xA85BD01 PUSH1 0xE1 SHL DUP6 MSTORE CALLER PUSH1 0x4 DUP7 ADD MSTORE PUSH1 0x1 DUP1 PUSH1 0xA0 SHL SUB AND PUSH1 0x24 DUP6 ADD MSTORE PUSH1 0x44 DUP5 ADD MSTORE PUSH1 0x80 PUSH1 0x64 DUP5 ADD MSTORE PUSH1 0x84 DUP4 ADD SWAP1 PUSH2 0x271E JUMP JUMPDEST POP POP POP POP PUSH1 0x1 SWAP1 JUMP JUMPDEST SWAP1 DUP2 MLOAD DUP2 LT ISZERO PUSH2 0x2B6A JUMPI ADD PUSH1 0x20 ADD SWAP1 JUMP JUMPDEST PUSH2 0x3540 PUSH1 0x2A PUSH2 0x2811 JUMP JUMPDEST SWAP1 PUSH2 0x354E PUSH1 0x40 MLOAD SWAP3 DUP4 PUSH2 0x27F0 JUMP JUMPDEST PUSH1 0x2A DUP3 MSTORE PUSH2 0x355C PUSH1 0x2A PUSH2 0x2811 JUMP JUMPDEST PUSH1 0x20 DUP4 ADD SWAP1 PUSH1 0x1F NOT ADD CALLDATASIZE DUP3 CALLDATACOPY DUP3 MLOAD ISZERO PUSH2 0x2B6A JUMPI PUSH1 0x30 SWAP1 MSTORE8 DUP2 MLOAD PUSH1 0x1 LT ISZERO PUSH2 0x2B6A JUMPI PUSH1 0x78 PUSH1 0x21 DUP4 ADD MSTORE8 PUSH1 0x29 JUMPDEST PUSH1 0x1 DUP2 GT PUSH2 0x35DB JUMPI POP PUSH2 0x3597 JUMPI SWAP1 JUMP JUMPDEST PUSH1 0x64 PUSH1 0x40 MLOAD PUSH3 0x461BCD PUSH1 0xE5 SHL DUP2 MSTORE PUSH1 0x20 PUSH1 0x4 DUP3 ADD MSTORE PUSH1 0x20 PUSH1 0x24 DUP3 ADD MSTORE PUSH32 0x537472696E67733A20686578206C656E67746820696E73756666696369656E74 PUSH1 0x44 DUP3 ADD MSTORE REVERT JUMPDEST SWAP1 PUSH1 0xF DUP2 AND PUSH1 0x10 DUP2 LT ISZERO PUSH2 0x2B6A JUMPI PUSH16 0x181899199A1A9B1B9C1CB0B131B232B3 PUSH1 0x81 SHL SWAP1 BYTE PUSH2 0x3609 DUP4 DUP6 PUSH2 0x3525 JUMP JUMPDEST MSTORE8 PUSH1 0x4 SHR SWAP1 DUP1 ISZERO PUSH2 0x2A2E JUMPI PUSH0 NOT ADD PUSH2 0x3587 JUMP JUMPDEST PUSH2 0x3626 PUSH1 0x42 PUSH2 0x2811 JUMP JUMPDEST SWAP1 PUSH2 0x3634 PUSH1 0x40 MLOAD SWAP3 DUP4 PUSH2 0x27F0 JUMP JUMPDEST PUSH1 0x42 DUP3 MSTORE PUSH2 0x3642 PUSH1 0x42 PUSH2 0x2811 JUMP JUMPDEST PUSH1 0x20 DUP4 ADD SWAP1 PUSH1 0x1F NOT ADD CALLDATASIZE DUP3 CALLDATACOPY DUP3 MLOAD ISZERO PUSH2 0x2B6A JUMPI PUSH1 0x30 SWAP1 MSTORE8 DUP2 MLOAD PUSH1 0x1 LT ISZERO PUSH2 0x2B6A JUMPI PUSH1 0x78 PUSH1 0x21 DUP4 ADD MSTORE8 PUSH1 0x41 JUMPDEST PUSH1 0x1 DUP2 GT PUSH2 0x367D JUMPI POP PUSH2 0x3597 JUMPI SWAP1 JUMP JUMPDEST SWAP1 PUSH1 0xF DUP2 AND PUSH1 0x10 DUP2 LT ISZERO PUSH2 0x2B6A JUMPI PUSH16 0x181899199A1A9B1B9C1CB0B131B232B3 PUSH1 0x81 SHL SWAP1 BYTE PUSH2 0x36AB DUP4 DUP6 PUSH2 0x3525 JUMP JUMPDEST MSTORE8 PUSH1 0x4 SHR SWAP1 DUP1 ISZERO PUSH2 0x2A2E JUMPI PUSH0 NOT ADD PUSH2 0x366D JUMP JUMPDEST ISZERO PUSH2 0x36C5 JUMPI JUMP JUMPDEST PUSH1 0x40 MLOAD PUSH3 0x461BCD PUSH1 0xE5 SHL DUP2 MSTORE PUSH1 0x20 PUSH1 0x4 DUP3 ADD MSTORE PUSH1 0x1C PUSH1 0x24 DUP3 ADD MSTORE PUSH32 0x4552433732313A20746F6B656E20616C7265616479206D696E74656400000000 PUSH1 0x44 DUP3 ADD MSTORE PUSH1 0x64 SWAP1 REVERT INVALID LOG2 PUSH5 0x6970667358 0x22 SLT KECCAK256 SAR INVALID SWAP6 SHL PUSH3 0xBF1538 SWAP12 0xD PUSH14 0xDA2741EAE6A3BABFFAFE9CE278DD 0xB4 0xAA 0xE3 0xD0 CHAINID 0xAC CREATE PUSH5 0x736F6C6343 STOP ADDMOD SHL STOP CALLER 0x2F DUP8 DUP9 GT PUSH31 0x7EFF1D82E926EC794901D17C78024A50270940304540A733656F0D3195C024 0xB2 0xDD 0xD6 0xD9 0xB8 0xF6 0xC8 CALLDATASIZE 0xAA MSTORE 0xF6 PUSH32 0xE69376C8903D009B80229B3CE4425F5154CDD369E4E8A8515E52CA72EC816C21 ADD DUP4 BYTE 0xD1 CALL DUP12 DELEGATECALL COINBASE MUL 0xED OR EQ MSIZE 0xC9 0xB4 0xF8 "},"methodIdentifiers":{"DEFAULT_ADMIN_ROLE()":"a217fddf","MINTER_ROLE()":"d5391393","TYPE_FLUSH()":"786ec4b8","TYPE_FOUR_OF_A_KIND()":"12abc66f","TYPE_FULL_HOUSE()":"0102ee33","TYPE_ROYAL_FLUSH()":"330077a3","TYPE_STRAIGHT()":"203d3576","TYPE_STRAIGHT_FLUSH()":"779dbbde","approve(address,uint256)":"095ea7b3","balanceOf(address)":"70a08231","bindAgent(address)":"c42a9fb6","clone(address)":"8124b78e","encryptedTransfer(address,bytes)":"fcd48a24","getApproved(uint256)":"081812fc","getCurrentMonthMintCount(uint256)":"67c56a0f","getEncryptedMetadata(uint256)":"3dd2e9a2","getHandTypeInfo(uint256)":"bf3e5885","getPokerData(uint256)":"f834da0a","getRoleAdmin(bytes32)":"248a9ca3","getTokenCards(uint256)":"dd9b2ae5","grantRole(bytes32,address)":"2f2ff15d","hasRole(bytes32,address)":"91d14854","isApprovedForAll(address,address)":"e985e9c5","mint(address,string,string,string)":"4a0706be","mintWithCards(address,uint256,string[],string,string)":"c881ea67","monthlyMintCount(uint256,uint256)":"bc6e5c15","name()":"06fdde03","ownerOf(uint256)":"6352211e","renounceRole(bytes32,address)":"36568abe","revokeRole(bytes32,address)":"d547741f","safeTransferFrom(address,address,uint256)":"42842e0e","safeTransferFrom(address,address,uint256,bytes)":"b88d4fde","setApprovalForAll(address,bool)":"a22cb465","supportsInterface(bytes4)":"01ffc9a7","symbol()":"95d89b41","tokenURI(uint256)":"c87b56dd","transferFrom(address,address,uint256)":"23b872dd","unbindAgent()":"a5ea1f21"}}}}}