{"contracts/Staking.sol":{"Staking":{"abi":[{"inputs":[{"internalType":"address","name":"_chipToken","type":"address"}],"stateMutability":"nonpayable","type":"constructor"},{"anonymous":false,"inputs":[{"indexed":false,"internalType":"uint256","name":"newLargestStake","type":"uint256"}],"name":"LargestStakeUpdated","type":"event"},{"anonymous":false,"inputs":[{"indexed":true,"internalType":"address","name":"previousOwner","type":"address"},{"indexed":true,"internalType":"address","name":"newOwner","type":"address"}],"name":"OwnershipTransferred","type":"event"},{"anonymous":false,"inputs":[{"indexed":false,"internalType":"address","name":"account","type":"address"}],"name":"Paused","type":"event"},{"anonymous":false,"inputs":[{"indexed":false,"internalType":"uint256","name":"newPenalty","type":"uint256"}],"name":"PenaltyUpdated","type":"event"},{"anonymous":false,"inputs":[{"indexed":false,"internalType":"uint256","name":"amount","type":"uint256"},{"indexed":false,"internalType":"uint256","name":"totalPool","type":"uint256"}],"name":"RewardAdded","type":"event"},{"anonymous":false,"inputs":[{"indexed":true,"internalType":"address","name":"user","type":"address"},{"indexed":false,"internalType":"uint256","name":"amount","type":"uint256"}],"name":"RewardClaimed","type":"event"},{"anonymous":false,"inputs":[{"indexed":true,"internalType":"address","name":"user","type":"address"},{"indexed":false,"internalType":"uint256","name":"amount","type":"uint256"},{"indexed":false,"internalType":"uint256","name":"lockDuration","type":"uint256"}],"name":"Staked","type":"event"},{"anonymous":false,"inputs":[{"indexed":false,"internalType":"address","name":"account","type":"address"}],"name":"Unpaused","type":"event"},{"anonymous":false,"inputs":[{"indexed":true,"internalType":"address","name":"user","type":"address"},{"indexed":false,"internalType":"uint256","name":"amount","type":"uint256"},{"indexed":false,"internalType":"uint256","name":"penalty","type":"uint256"}],"name":"Unstaked","type":"event"},{"stateMutability":"payable","type":"fallback"},{"inputs":[],"name":"EARLY_UNSTAKE_PENALTY","outputs":[{"internalType":"uint256","name":"","type":"uint256"}],"stateMutability":"view","type":"function"},{"inputs":[],"name":"MAX_DAILY_REWARD","outputs":[{"internalType":"uint256","name":"","type":"uint256"}],"stateMutability":"view","type":"function"},{"inputs":[],"name":"MAX_LOCK_DURATION","outputs":[{"internalType":"uint256","name":"","type":"uint256"}],"stateMutability":"view","type":"function"},{"inputs":[],"name":"MIN_DAILY_REWARD","outputs":[{"internalType":"uint256","name":"","type":"uint256"}],"stateMutability":"view","type":"function"},{"inputs":[],"name":"MIN_LOCK_DURATION","outputs":[{"internalType":"uint256","name":"","type":"uint256"}],"stateMutability":"view","type":"function"},{"inputs":[],"name":"MIN_STAKE","outputs":[{"internalType":"uint256","name":"","type":"uint256"}],"stateMutability":"view","type":"function"},{"inputs":[],"name":"REWARD_DENOMINATOR","outputs":[{"internalType":"uint256","name":"","type":"uint256"}],"stateMutability":"view","type":"function"},{"inputs":[{"internalType":"uint256","name":"amount","type":"uint256"}],"name":"addReward","outputs":[],"stateMutability":"nonpayable","type":"function"},{"inputs":[],"name":"chipToken","outputs":[{"internalType":"contract IERC20","name":"","type":"address"}],"stateMutability":"view","type":"function"},{"inputs":[],"name":"claimReward","outputs":[],"stateMutability":"nonpayable","type":"function"},{"inputs":[],"name":"earlyUnstakePenalty","outputs":[{"internalType":"uint256","name":"","type":"uint256"}],"stateMutability":"view","type":"function"},{"inputs":[],"name":"emergencyUnstake","outputs":[],"stateMutability":"nonpayable","type":"function"},{"inputs":[{"internalType":"address","name":"user","type":"address"}],"name":"getPendingReward","outputs":[{"internalType":"uint256","name":"","type":"uint256"}],"stateMutability":"view","type":"function"},{"inputs":[{"internalType":"address","name":"user","type":"address"}],"name":"getRemainingLockTime","outputs":[{"internalType":"uint256","name":"","type":"uint256"}],"stateMutability":"view","type":"function"},{"inputs":[{"internalType":"address","name":"user","type":"address"}],"name":"getStakeInfo","outputs":[{"internalType":"uint256","name":"amount","type":"uint256"},{"internalType":"uint256","name":"startTime","type":"uint256"},{"internalType":"uint256","name":"lockedUntil","type":"uint256"},{"internalType":"bool","name":"isLocked","type":"bool"},{"internalType":"bool","name":"isActive","type":"bool"}],"stateMutability":"view","type":"function"},{"inputs":[{"internalType":"uint256","name":"index","type":"uint256"}],"name":"getStaker","outputs":[{"internalType":"address","name":"","type":"address"}],"stateMutability":"view","type":"function"},{"inputs":[],"name":"getStakersCount","outputs":[{"internalType":"uint256","name":"","type":"uint256"}],"stateMutability":"view","type":"function"},{"inputs":[{"internalType":"address","name":"user","type":"address"}],"name":"isLocked","outputs":[{"internalType":"bool","name":"","type":"bool"}],"stateMutability":"view","type":"function"},{"inputs":[],"name":"largestStake","outputs":[{"internalType":"uint256","name":"","type":"uint256"}],"stateMutability":"view","type":"function"},{"inputs":[],"name":"maxLockDuration","outputs":[{"internalType":"uint256","name":"","type":"uint256"}],"stateMutability":"view","type":"function"},{"inputs":[],"name":"minLockDuration","outputs":[{"internalType":"uint256","name":"","type":"uint256"}],"stateMutability":"view","type":"function"},{"inputs":[],"name":"owner","outputs":[{"internalType":"address","name":"","type":"address"}],"stateMutability":"view","type":"function"},{"inputs":[],"name":"pause","outputs":[],"stateMutability":"nonpayable","type":"function"},{"inputs":[],"name":"paused","outputs":[{"internalType":"bool","name":"","type":"bool"}],"stateMutability":"view","type":"function"},{"inputs":[],"name":"renounceOwnership","outputs":[],"stateMutability":"nonpayable","type":"function"},{"inputs":[{"internalType":"uint256","name":"_penalty","type":"uint256"}],"name":"setEarlyUnstakePenalty","outputs":[],"stateMutability":"nonpayable","type":"function"},{"inputs":[{"internalType":"uint256","name":"_minDuration","type":"uint256"},{"internalType":"uint256","name":"_maxDuration","type":"uint256"}],"name":"setLockDuration","outputs":[],"stateMutability":"nonpayable","type":"function"},{"inputs":[{"internalType":"uint256","name":"amount","type":"uint256"},{"internalType":"uint256","name":"lockDuration","type":"uint256"}],"name":"stake","outputs":[],"stateMutability":"nonpayable","type":"function"},{"inputs":[{"internalType":"address","name":"","type":"address"}],"name":"stakerIndex","outputs":[{"internalType":"uint256","name":"","type":"uint256"}],"stateMutability":"view","type":"function"},{"inputs":[{"internalType":"uint256","name":"","type":"uint256"}],"name":"stakers","outputs":[{"internalType":"address","name":"","type":"address"}],"stateMutability":"view","type":"function"},{"inputs":[{"internalType":"address","name":"","type":"address"}],"name":"stakes","outputs":[{"internalType":"uint256","name":"amount","type":"uint256"},{"internalType":"uint256","name":"startTime","type":"uint256"},{"internalType":"uint256","name":"lockedUntil","type":"uint256"},{"internalType":"uint256","name":"lastClaimTime","type":"uint256"},{"internalType":"bool","name":"isActive","type":"bool"}],"stateMutability":"view","type":"function"},{"inputs":[],"name":"totalRewardPool","outputs":[{"internalType":"uint256","name":"","type":"uint256"}],"stateMutability":"view","type":"function"},{"inputs":[],"name":"totalRewardsClaimed","outputs":[{"internalType":"uint256","name":"","type":"uint256"}],"stateMutability":"view","type":"function"},{"inputs":[],"name":"totalStaked","outputs":[{"internalType":"uint256","name":"","type":"uint256"}],"stateMutability":"view","type":"function"},{"inputs":[{"internalType":"address","name":"","type":"address"}],"name":"totalUserRewardsClaimed","outputs":[{"internalType":"uint256","name":"","type":"uint256"}],"stateMutability":"view","type":"function"},{"inputs":[{"internalType":"address","name":"newOwner","type":"address"}],"name":"transferOwnership","outputs":[],"stateMutability":"nonpayable","type":"function"},{"inputs":[],"name":"unpause","outputs":[],"stateMutability":"nonpayable","type":"function"},{"inputs":[{"internalType":"uint256","name":"amount","type":"uint256"}],"name":"unstake","outputs":[],"stateMutability":"nonpayable","type":"function"},{"stateMutability":"payable","type":"receive"}],"evm":{"bytecode":{"linkReferences":{},"object":"60803461012357601f611ae238819003918201601f19168301916001600160401b038311848410176101275780849260209460405283398101031261012357516001600160a01b03811690819003610123575f80546040519133906001600160a01b038316907f8be0079c531659141344cd1fd0a4f28419497f9722a3daafe3b4186f6b6457e09080a36001600160a81b0319163360ff60a01b1916175f556001805562278d006006556301e133806007556103e860085581156100e15750600280546001600160a01b0319169190911790556040516119a6908161013c8239f35b62461bcd60e51b815260206004820152601660248201527f5374616b696e673a20696e76616c696420746f6b656e000000000000000000006044820152606490fd5b5f80fd5b634e487b7160e01b5f52604160045260245ffdfe608080604052600436101561001057005b5f3560e01c90816309c85e241461125b57508063126796dd146111ef5780631367eaf2146111d257806316934fc4146111655780631f4531f5146111495780632e17de7814610f995780633b61403c14610f715780633f4ba83a14610ed85780634730449414610ea95780634828478914610e8c5780634a4fbeec14610e4b5780634c8cab7914610e2e5780634df9d6ba14610df75780634f1bfc9e14610dd95780635c975abb14610db55780635eeea32014610d79578063715018a614610d2257806374de4ec414610ca75780637589cf2f14610bbe57806378b4330f14610ba157806378d60a5b14610b655780637b0472f0146108df578063817b1cd2146108c2578063819a9398146108a75780638456cb59146108475780638da5cb5b146108205780638e1eb32414610785578063a16cdbb114610768578063a34b0f761461074b578063b88a802f14610419578063be8c78dd146103fc578063c345315314610391578063c3bd8d0314610373578063cb1c2b5c14610355578063d6a298e914610338578063e3c998fe146102ca578063f2fde38b146102005763fd5e6dd1146101ba57005b346101fc5760203660031901126101fc57600435600a548110156101fc576101e360209161128b565b905460405160039290921b1c6001600160a01b03168152f35b5f80fd5b346101fc5760203660031901126101fc576004356001600160a01b038116908190036101fc5761022e611494565b8015610276575f80546001600160a01b03198116831782556001600160a01b0316907f8be0079c531659141344cd1fd0a4f28419497f9722a3daafe3b4186f6b6457e09080a3005b60405162461bcd60e51b815260206004820152602660248201527f4f776e61626c653a206e6577206f776e657220697320746865207a65726f206160448201526564647265737360d01b6064820152608490fd5b346101fc5760203660031901126101fc57600435600a548110156102f3576101e360209161128b565b60405162461bcd60e51b815260206004820152601c60248201527f5374616b696e673a20696e646578206f7574206f6620626f756e6473000000006044820152606490fd5b346101fc575f3660031901126101fc576020600654604051908152f35b346101fc575f3660031901126101fc5760206040516305f5e1008152f35b346101fc575f3660031901126101fc576020604051633b9aca008152f35b346101fc5760203660031901126101fc576004356001600160a01b038116908190036101fc575f52600c60205260a060405f2080549060018101549060ff60046002830154920154169160405193845260208401528060408401524210606083015215156080820152f35b346101fc575f3660031901126101fc576020604051620f42408152f35b346101fc575f3660031901126101fc576104316114eb565b610439611541565b335f52600c60205260405f2061045560ff6004830154166112b7565b80548015610706576003549182156106c15761048d600361048892019261047d845442611334565b928391600954611303565b611303565b601e8402848104601e036106ad5762278d008502908082046201518014901517156106ad576104bb91611316565b81620f424002620f4240810483036106ad576201518090049180633b9aca000290633b9aca008204036106ad5762015180900482821015610693575050915b821561064e576002546040516370a0823160e01b81523060048201529190602090839060249082906001600160a01b03165afa8015610643575f9061060f575b6105449250611334565b82116105c05742905561055981600554611465565b600555335f52600d60205260405f20610573828254611465565b905560025461058e90829033906001600160a01b031661170c565b6040519081527f106f923f993c2149d49b4255ff723acafa1f2d94393f561d3eda32ae348f724160203392a260018055005b60405162461bcd60e51b815260206004820152602160248201527f5374616b696e673a20696e73756666696369656e742072657761726420706f6f6044820152601b60fa1b6064820152608490fd5b506020823d60201161063b575b8161062960209383611472565b810103126101fc57610544915161053a565b3d915061061c565b6040513d5f823e3d90fd5b60405162461bcd60e51b815260206004820152601c60248201527f5374616b696e673a206e6f207265776172647320746f20636c61696d000000006044820152606490fd5b818192959350116106a5575b506104fa565b92508361069f565b634e487b7160e01b5f52601160045260245ffd5b60405162461bcd60e51b815260206004820152601860248201527f5374616b696e673a206e6f20746f74616c207374616b656400000000000000006044820152606490fd5b60405162461bcd60e51b815260206004820152601860248201527f5374616b696e673a206e6f207374616b6520616d6f756e7400000000000000006044820152606490fd5b346101fc575f3660031901126101fc576020600554604051908152f35b346101fc575f3660031901126101fc576020600754604051908152f35b346101fc5760203660031901126101fc576004356107a1611494565b610bb881116107db576020817fc831f5abc7bc27c011edea988b6e4e573af053efa7cfa703a1878827ec6acc1092600855604051908152a1005b60405162461bcd60e51b815260206004820152601960248201527f5374616b696e673a2070656e616c747920746f6f2068696768000000000000006044820152606490fd5b346101fc575f3660031901126101fc575f546040516001600160a01b039091168152602090f35b346101fc575f3660031901126101fc5761085f611494565b610867611541565b5f805460ff60a01b1916600160a01b1790556040513381527f62e78cea01bee320cd4e420270b5ea74000d11b0c9f74754ebdbfc544b05a25890602090a1005b346101fc575f3660031901126101fc576020604051601e8152f35b346101fc575f3660031901126101fc576020600354604051908152f35b346101fc576108ed36611275565b6108f56114eb565b6108fd611541565b6305f5e1008210610b20576006548110610adb576007548111610a9d57600254610935908390309033906001600160a01b031661174e565b335f52600c60205260405f2060048101805460ff81165f146109f757505061095e838254611465565b815561096a8242611465565b60028201555b61097c83600354611465565b6003555460095481116109c2575b5060405191825260208201527f1449c6dd7851abc30abf37f57715f492010519147cc2652fbc38202c18a6ee9060403392a260018055005b6020817f7c9f281f7037e20aaa7dc76eb2b3d9eae3449ef72c7fde39d0cbbc53cbb2a0a592600955604051908152a18261098a565b6001908584554282850155610a0c8542611465565b600285015542600385015560ff1916179055335f52600b60205260405f205461097057600a5468010000000000000000811015610a8957610a56816001610a749301600a5561128b565b81546001600160a01b0360039290921b91821b19163390911b179055565b600a54335f52600b60205260405f2055610970565b634e487b7160e01b5f52604160045260245ffd5b60405162461bcd60e51b81526020600482015260166024820152755374616b696e673a206c6f636b20746f6f206c6f6e6760501b6044820152606490fd5b60405162461bcd60e51b815260206004820152601760248201527f5374616b696e673a206c6f636b20746f6f2073686f72740000000000000000006044820152606490fd5b60405162461bcd60e51b815260206004820152601c60248201527f5374616b696e673a2062656c6f77206d696e696d756d207374616b65000000006044820152606490fd5b346101fc5760203660031901126101fc576004356001600160a01b038116908190036101fc575f52600b602052602060405f2054604051908152f35b346101fc575f3660031901126101fc57602060405162278d008152f35b346101fc575f3660031901126101fc57610bd66114eb565b335f52600c60205260405f206004810190610c53825491610bf960ff84166112b7565b805493612710610c0b60085487611303565b04935f610c188688611334565b935560ff19169055610c2c84600354611334565b600355610c3833611587565b610c40611678565b60025433906001600160a01b031661170c565b6002545f54610c709183916001600160a01b03908116911661170c565b60405191825260208201527f7fc4727e062e336010f2c282598ef5f14facb3de68cf8195c2f23e1454b2b74e60403392a260018055005b346101fc5760203660031901126101fc577f6c07ee05dcf262f13abf9d87b846ee789d2f90fe991d495acd7d7fc109ee1f556040600435610ce66114eb565b600254610d01908290309033906001600160a01b031661174e565b610d0d81600454611465565b8060045582519182526020820152a160018055005b346101fc575f3660031901126101fc57610d3a611494565b5f80546001600160a01b0319811682556001600160a01b03167f8be0079c531659141344cd1fd0a4f28419497f9722a3daafe3b4186f6b6457e08280a3005b346101fc5760203660031901126101fc576004356001600160a01b038116908190036101fc575f52600d602052602060405f2054604051908152f35b346101fc575f3660031901126101fc57602060ff5f5460a01c166040519015158152f35b346101fc575f3660031901126101fc5760206040516301e133808152f35b346101fc5760203660031901126101fc576004356001600160a01b03811681036101fc57610e26602091611376565b604051908152f35b346101fc575f3660031901126101fc576020600954604051908152f35b346101fc5760203660031901126101fc576004356001600160a01b038116908190036101fc575f52600c6020526020600260405f2001544210604051908152f35b346101fc575f3660031901126101fc576020600a54604051908152f35b346101fc5760203660031901126101fc576004356001600160a01b03811681036101fc57610e26602091611341565b346101fc575f3660031901126101fc57610ef0611494565b5f5460ff8160a01c1615610f355760ff60a01b19165f556040513381527f5db9ee0a495bf2e6ff9c91a7834c1ba4fdd244a5e8aa4e537bd38aeae4b073aa90602090a1005b60405162461bcd60e51b815260206004820152601460248201527314185d5cd8589b194e881b9bdd081c185d5cd95960621b6044820152606490fd5b346101fc575f3660031901126101fc576002546040516001600160a01b039091168152602090f35b346101fc5760203660031901126101fc57600435610fb56114eb565b610fbd611541565b335f52600c60205260405f2060048101805491610fdc60ff84166112b7565b805490848210611104575f92858093600284015442106110d1575b61104795969161100691611334565b808455156110bb575b505061101d85600354611334565b600355546009548091109081156110b2575b506110a55760025433906001600160a01b031661170c565b806110835760405191825260208201527f7fc4727e062e336010f2c282598ef5f14facb3de68cf8195c2f23e1454b2b74e60403392a260018055005b6002545f546110a09183916001600160a01b03908116911661170c565b610c70565b6110ad611678565b610c40565b9050158561102f565b60ff191690556110ca33611587565b858061100f565b93505061104793506127106110e860085488611303565b0494611006876110f88882611334565b95915091969550610ff7565b60405162461bcd60e51b815260206004820152601b60248201527f5374616b696e673a20696e73756666696369656e74207374616b6500000000006044820152606490fd5b346101fc575f3660031901126101fc5760206040516103e88152f35b346101fc5760203660031901126101fc576004356001600160a01b038116908190036101fc575f52600c60205260a060405f20805490600181015490600281015460ff60046003840154930154169260405194855260208501526040840152606083015215156080820152f35b346101fc575f3660031901126101fc576020600854604051908152f35b346101fc576111fd36611275565b90611206611494565b8181101561121657600655600755005b60405162461bcd60e51b815260206004820152601a60248201527f5374616b696e673a20696e76616c6964206475726174696f6e730000000000006044820152606490fd5b346101fc575f3660031901126101fc576020906004548152f35b60409060031901126101fc576004359060243590565b600a548110156112a357600a5f5260205f2001905f90565b634e487b7160e01b5f52603260045260245ffd5b156112be57565b60405162461bcd60e51b815260206004820152601860248201527f5374616b696e673a206e6f20616374697665207374616b6500000000000000006044820152606490fd5b818102929181159184041417156106ad57565b8115611320570490565b634e487b7160e01b5f52601260045260245ffd5b919082039182116106ad57565b6001600160a01b03165f908152600c6020526040902060020154428111156113715761136e904290611334565b90565b505f90565b6001600160a01b03165f908152600c60205260409020600481015460ff1615801561145c575b8015611452575b611371576113ca816113bc600361048894015442611334565b928391600954905490611303565b600354601e810290808204601e14811517156106ad5762278d0002908082046201518014901517156106ad576113ff91611316565b81620f424002620f4240810483036106ad576201518090049180633b9aca000290633b9aca008204036106ad576201518090048282101561143f57505090565b81819293501161144d575090565b905090565b50600354156113a3565b5080541561139c565b919082018092116106ad57565b90601f8019910116810190811067ffffffffffffffff821117610a8957604052565b5f546001600160a01b031633036114a757565b606460405162461bcd60e51b815260206004820152602060248201527f4f776e61626c653a2063616c6c6572206973206e6f7420746865206f776e65726044820152fd5b6002600154146114fc576002600155565b60405162461bcd60e51b815260206004820152601f60248201527f5265656e7472616e637947756172643a207265656e7472616e742063616c6c006044820152606490fd5b60ff5f5460a01c1661154f57565b60405162461bcd60e51b815260206004820152601060248201526f14185d5cd8589b194e881c185d5cd95960821b6044820152606490fd5b6001600160a01b03165f818152600b6020526040902054801561167457600a548082036115ff575b5050600a5480156115eb575f19016115c68161128b565b81549060018060a01b039060031b1b19169055600a555f52600b6020525f6040812055565b634e487b7160e01b5f52603160045260245ffd5b5f1981019081116106ad576116139061128b565b905460039190911b1c6001600160a01b03165f1982018281116106ad578161163d6116619261128b565b81546001600160a01b0393841660039290921b91821b9390911b1916919091179055565b5f52600b60205260405f20555f806115af565b5050565b5f5f600a54905b8181106116b95750506020817f7c9f281f7037e20aaa7dc76eb2b3d9eae3449ef72c7fde39d0cbbc53cbb2a0a592600955604051908152a1565b6116c28161128b565b60018060a01b0391549060031b1c165f52600c60205260405f2060ff60048201541680611702575b6116f8575b5060010161167f565b54925060016116ef565b50838154116116ea565b60405163a9059cbb60e01b60208201526001600160a01b03909216602483015260448083019390935291815261174c91611747606483611472565b611792565b565b6040516323b872dd60e01b60208201526001600160a01b03928316602482015292909116604483015260648083019390935291815261174c91611747608483611472565b60018060a01b0316905f80604051926117ac604085611472565b602084527f5361666545524332303a206c6f772d6c6576656c2063616c6c206661696c6564602085015260208151910182865af13d156118b3573d9067ffffffffffffffff8211610a8957604051611822949092611814601f8201601f191660200185611472565b83523d5f602085013e6118bc565b8051908115918215611890575b50501561183857565b60405162461bcd60e51b815260206004820152602a60248201527f5361666545524332303a204552433230206f7065726174696f6e20646964206e6044820152691bdd081cdd58d8d9595960b21b6064820152608490fd5b81925090602091810103126101fc576020015180151581036101fc575f8061182f565b91611822926060915b9192901561191e57508151156118d0575090565b3b156118d95790565b60405162461bcd60e51b815260206004820152601d60248201527f416464726573733a2063616c6c20746f206e6f6e2d636f6e74726163740000006044820152606490fd5b8251909150156119315750805190602001fd5b604460209160405192839162461bcd60e51b83528160048401528051918291826024860152018484015e5f828201840152601f01601f19168101030190fdfea264697066735822122026274fa8a5f7dcbfbe422c6f085f9a3b039e99776f2c2adc2b483d754a32049a64736f6c634300081b0033","opcodes":"PUSH1 0x80 CALLVALUE PUSH2 0x123 JUMPI PUSH1 0x1F PUSH2 0x1AE2 CODESIZE DUP2 SWAP1 SUB SWAP2 DUP3 ADD PUSH1 0x1F NOT AND DUP4 ADD SWAP2 PUSH1 0x1 PUSH1 0x1 PUSH1 0x40 SHL SUB DUP4 GT DUP5 DUP5 LT OR PUSH2 0x127 JUMPI DUP1 DUP5 SWAP3 PUSH1 0x20 SWAP5 PUSH1 0x40 MSTORE DUP4 CODECOPY DUP2 ADD SUB SLT PUSH2 0x123 JUMPI MLOAD PUSH1 0x1 PUSH1 0x1 PUSH1 0xA0 SHL SUB DUP2 AND SWAP1 DUP2 SWAP1 SUB PUSH2 0x123 JUMPI PUSH0 DUP1 SLOAD PUSH1 0x40 MLOAD SWAP2 CALLER SWAP1 PUSH1 0x1 PUSH1 0x1 PUSH1 0xA0 SHL SUB DUP4 AND SWAP1 PUSH32 0x8BE0079C531659141344CD1FD0A4F28419497F9722A3DAAFE3B4186F6B6457E0 SWAP1 DUP1 LOG3 PUSH1 0x1 PUSH1 0x1 PUSH1 0xA8 SHL SUB NOT AND CALLER PUSH1 0xFF PUSH1 0xA0 SHL NOT AND OR PUSH0 SSTORE PUSH1 0x1 DUP1 SSTORE PUSH3 0x278D00 PUSH1 0x6 SSTORE PUSH4 0x1E13380 PUSH1 0x7 SSTORE PUSH2 0x3E8 PUSH1 0x8 SSTORE DUP2 ISZERO PUSH2 0xE1 JUMPI POP PUSH1 0x2 DUP1 SLOAD PUSH1 0x1 PUSH1 0x1 PUSH1 0xA0 SHL SUB NOT AND SWAP2 SWAP1 SWAP2 OR SWAP1 SSTORE PUSH1 0x40 MLOAD PUSH2 0x19A6 SWAP1 DUP2 PUSH2 0x13C DUP3 CODECOPY RETURN JUMPDEST PUSH3 0x461BCD PUSH1 0xE5 SHL DUP2 MSTORE PUSH1 0x20 PUSH1 0x4 DUP3 ADD MSTORE PUSH1 0x16 PUSH1 0x24 DUP3 ADD MSTORE PUSH32 0x5374616B696E673A20696E76616C696420746F6B656E00000000000000000000 PUSH1 0x44 DUP3 ADD MSTORE PUSH1 0x64 SWAP1 REVERT JUMPDEST PUSH0 DUP1 REVERT JUMPDEST PUSH4 0x4E487B71 PUSH1 0xE0 SHL PUSH0 MSTORE PUSH1 0x41 PUSH1 0x4 MSTORE PUSH1 0x24 PUSH0 REVERT INVALID PUSH1 0x80 DUP1 PUSH1 0x40 MSTORE PUSH1 0x4 CALLDATASIZE LT ISZERO PUSH2 0x10 JUMPI STOP JUMPDEST PUSH0 CALLDATALOAD PUSH1 0xE0 SHR SWAP1 DUP2 PUSH4 0x9C85E24 EQ PUSH2 0x125B JUMPI POP DUP1 PUSH4 0x126796DD EQ PUSH2 0x11EF JUMPI DUP1 PUSH4 0x1367EAF2 EQ PUSH2 0x11D2 JUMPI DUP1 PUSH4 0x16934FC4 EQ PUSH2 0x1165 JUMPI DUP1 PUSH4 0x1F4531F5 EQ PUSH2 0x1149 JUMPI DUP1 PUSH4 0x2E17DE78 EQ PUSH2 0xF99 JUMPI DUP1 PUSH4 0x3B61403C EQ PUSH2 0xF71 JUMPI DUP1 PUSH4 0x3F4BA83A EQ PUSH2 0xED8 JUMPI DUP1 PUSH4 0x47304494 EQ PUSH2 0xEA9 JUMPI DUP1 PUSH4 0x48284789 EQ PUSH2 0xE8C JUMPI DUP1 PUSH4 0x4A4FBEEC EQ PUSH2 0xE4B JUMPI DUP1 PUSH4 0x4C8CAB79 EQ PUSH2 0xE2E JUMPI DUP1 PUSH4 0x4DF9D6BA EQ PUSH2 0xDF7 JUMPI DUP1 PUSH4 0x4F1BFC9E EQ PUSH2 0xDD9 JUMPI DUP1 PUSH4 0x5C975ABB EQ PUSH2 0xDB5 JUMPI DUP1 PUSH4 0x5EEEA320 EQ PUSH2 0xD79 JUMPI DUP1 PUSH4 0x715018A6 EQ PUSH2 0xD22 JUMPI DUP1 PUSH4 0x74DE4EC4 EQ PUSH2 0xCA7 JUMPI DUP1 PUSH4 0x7589CF2F EQ PUSH2 0xBBE JUMPI DUP1 PUSH4 0x78B4330F EQ PUSH2 0xBA1 JUMPI DUP1 PUSH4 0x78D60A5B EQ PUSH2 0xB65 JUMPI DUP1 PUSH4 0x7B0472F0 EQ PUSH2 0x8DF JUMPI DUP1 PUSH4 0x817B1CD2 EQ PUSH2 0x8C2 JUMPI DUP1 PUSH4 0x819A9398 EQ PUSH2 0x8A7 JUMPI DUP1 PUSH4 0x8456CB59 EQ PUSH2 0x847 JUMPI DUP1 PUSH4 0x8DA5CB5B EQ PUSH2 0x820 JUMPI DUP1 PUSH4 0x8E1EB324 EQ PUSH2 0x785 JUMPI DUP1 PUSH4 0xA16CDBB1 EQ PUSH2 0x768 JUMPI DUP1 PUSH4 0xA34B0F76 EQ PUSH2 0x74B JUMPI DUP1 PUSH4 0xB88A802F EQ PUSH2 0x419 JUMPI DUP1 PUSH4 0xBE8C78DD EQ PUSH2 0x3FC JUMPI DUP1 PUSH4 0xC3453153 EQ PUSH2 0x391 JUMPI DUP1 PUSH4 0xC3BD8D03 EQ PUSH2 0x373 JUMPI DUP1 PUSH4 0xCB1C2B5C EQ PUSH2 0x355 JUMPI DUP1 PUSH4 0xD6A298E9 EQ PUSH2 0x338 JUMPI DUP1 PUSH4 0xE3C998FE EQ PUSH2 0x2CA JUMPI DUP1 PUSH4 0xF2FDE38B EQ PUSH2 0x200 JUMPI PUSH4 0xFD5E6DD1 EQ PUSH2 0x1BA JUMPI STOP JUMPDEST CALLVALUE PUSH2 0x1FC JUMPI PUSH1 0x20 CALLDATASIZE PUSH1 0x3 NOT ADD SLT PUSH2 0x1FC JUMPI PUSH1 0x4 CALLDATALOAD PUSH1 0xA SLOAD DUP2 LT ISZERO PUSH2 0x1FC JUMPI PUSH2 0x1E3 PUSH1 0x20 SWAP2 PUSH2 0x128B JUMP JUMPDEST SWAP1 SLOAD PUSH1 0x40 MLOAD PUSH1 0x3 SWAP3 SWAP1 SWAP3 SHL SHR PUSH1 0x1 PUSH1 0x1 PUSH1 0xA0 SHL SUB AND DUP2 MSTORE RETURN JUMPDEST PUSH0 DUP1 REVERT JUMPDEST CALLVALUE PUSH2 0x1FC JUMPI PUSH1 0x20 CALLDATASIZE PUSH1 0x3 NOT ADD SLT PUSH2 0x1FC JUMPI PUSH1 0x4 CALLDATALOAD PUSH1 0x1 PUSH1 0x1 PUSH1 0xA0 SHL SUB DUP2 AND SWAP1 DUP2 SWAP1 SUB PUSH2 0x1FC JUMPI PUSH2 0x22E PUSH2 0x1494 JUMP JUMPDEST DUP1 ISZERO PUSH2 0x276 JUMPI PUSH0 DUP1 SLOAD PUSH1 0x1 PUSH1 0x1 PUSH1 0xA0 SHL SUB NOT DUP2 AND DUP4 OR DUP3 SSTORE PUSH1 0x1 PUSH1 0x1 PUSH1 0xA0 SHL SUB AND SWAP1 PUSH32 0x8BE0079C531659141344CD1FD0A4F28419497F9722A3DAAFE3B4186F6B6457E0 SWAP1 DUP1 LOG3 STOP JUMPDEST PUSH1 0x40 MLOAD PUSH3 0x461BCD PUSH1 0xE5 SHL DUP2 MSTORE PUSH1 0x20 PUSH1 0x4 DUP3 ADD MSTORE PUSH1 0x26 PUSH1 0x24 DUP3 ADD MSTORE PUSH32 0x4F776E61626C653A206E6577206F776E657220697320746865207A65726F2061 PUSH1 0x44 DUP3 ADD MSTORE PUSH6 0x646472657373 PUSH1 0xD0 SHL PUSH1 0x64 DUP3 ADD MSTORE PUSH1 0x84 SWAP1 REVERT JUMPDEST CALLVALUE PUSH2 0x1FC JUMPI PUSH1 0x20 CALLDATASIZE PUSH1 0x3 NOT ADD SLT PUSH2 0x1FC JUMPI PUSH1 0x4 CALLDATALOAD PUSH1 0xA SLOAD DUP2 LT ISZERO PUSH2 0x2F3 JUMPI PUSH2 0x1E3 PUSH1 0x20 SWAP2 PUSH2 0x128B JUMP JUMPDEST PUSH1 0x40 MLOAD PUSH3 0x461BCD PUSH1 0xE5 SHL DUP2 MSTORE PUSH1 0x20 PUSH1 0x4 DUP3 ADD MSTORE PUSH1 0x1C PUSH1 0x24 DUP3 ADD MSTORE PUSH32 0x5374616B696E673A20696E646578206F7574206F6620626F756E647300000000 PUSH1 0x44 DUP3 ADD MSTORE PUSH1 0x64 SWAP1 REVERT JUMPDEST CALLVALUE PUSH2 0x1FC JUMPI PUSH0 CALLDATASIZE PUSH1 0x3 NOT ADD SLT PUSH2 0x1FC JUMPI PUSH1 0x20 PUSH1 0x6 SLOAD PUSH1 0x40 MLOAD SWAP1 DUP2 MSTORE RETURN JUMPDEST CALLVALUE PUSH2 0x1FC JUMPI PUSH0 CALLDATASIZE PUSH1 0x3 NOT ADD SLT PUSH2 0x1FC JUMPI PUSH1 0x20 PUSH1 0x40 MLOAD PUSH4 0x5F5E100 DUP2 MSTORE RETURN JUMPDEST CALLVALUE PUSH2 0x1FC JUMPI PUSH0 CALLDATASIZE PUSH1 0x3 NOT ADD SLT PUSH2 0x1FC JUMPI PUSH1 0x20 PUSH1 0x40 MLOAD PUSH4 0x3B9ACA00 DUP2 MSTORE RETURN JUMPDEST CALLVALUE PUSH2 0x1FC JUMPI PUSH1 0x20 CALLDATASIZE PUSH1 0x3 NOT ADD SLT PUSH2 0x1FC JUMPI PUSH1 0x4 CALLDATALOAD PUSH1 0x1 PUSH1 0x1 PUSH1 0xA0 SHL SUB DUP2 AND SWAP1 DUP2 SWAP1 SUB PUSH2 0x1FC JUMPI PUSH0 MSTORE PUSH1 0xC PUSH1 0x20 MSTORE PUSH1 0xA0 PUSH1 0x40 PUSH0 KECCAK256 DUP1 SLOAD SWAP1 PUSH1 0x1 DUP2 ADD SLOAD SWAP1 PUSH1 0xFF PUSH1 0x4 PUSH1 0x2 DUP4 ADD SLOAD SWAP3 ADD SLOAD AND SWAP2 PUSH1 0x40 MLOAD SWAP4 DUP5 MSTORE PUSH1 0x20 DUP5 ADD MSTORE DUP1 PUSH1 0x40 DUP5 ADD MSTORE TIMESTAMP LT PUSH1 0x60 DUP4 ADD MSTORE ISZERO ISZERO PUSH1 0x80 DUP3 ADD MSTORE RETURN JUMPDEST CALLVALUE PUSH2 0x1FC JUMPI PUSH0 CALLDATASIZE PUSH1 0x3 NOT ADD SLT PUSH2 0x1FC JUMPI PUSH1 0x20 PUSH1 0x40 MLOAD PUSH3 0xF4240 DUP2 MSTORE RETURN JUMPDEST CALLVALUE PUSH2 0x1FC JUMPI PUSH0 CALLDATASIZE PUSH1 0x3 NOT ADD SLT PUSH2 0x1FC JUMPI PUSH2 0x431 PUSH2 0x14EB JUMP JUMPDEST PUSH2 0x439 PUSH2 0x1541 JUMP JUMPDEST CALLER PUSH0 MSTORE PUSH1 0xC PUSH1 0x20 MSTORE PUSH1 0x40 PUSH0 KECCAK256 PUSH2 0x455 PUSH1 0xFF PUSH1 0x4 DUP4 ADD SLOAD AND PUSH2 0x12B7 JUMP JUMPDEST DUP1 SLOAD DUP1 ISZERO PUSH2 0x706 JUMPI PUSH1 0x3 SLOAD SWAP2 DUP3 ISZERO PUSH2 0x6C1 JUMPI PUSH2 0x48D PUSH1 0x3 PUSH2 0x488 SWAP3 ADD SWAP3 PUSH2 0x47D DUP5 SLOAD TIMESTAMP PUSH2 0x1334 JUMP JUMPDEST SWAP3 DUP4 SWAP2 PUSH1 0x9 SLOAD PUSH2 0x1303 JUMP JUMPDEST PUSH2 0x1303 JUMP JUMPDEST PUSH1 0x1E DUP5 MUL DUP5 DUP2 DIV PUSH1 0x1E SUB PUSH2 0x6AD JUMPI PUSH3 0x278D00 DUP6 MUL SWAP1 DUP1 DUP3 DIV PUSH3 0x15180 EQ SWAP1 ISZERO OR ISZERO PUSH2 0x6AD JUMPI PUSH2 0x4BB SWAP2 PUSH2 0x1316 JUMP JUMPDEST DUP2 PUSH3 0xF4240 MUL PUSH3 0xF4240 DUP2 DIV DUP4 SUB PUSH2 0x6AD JUMPI PUSH3 0x15180 SWAP1 DIV SWAP2 DUP1 PUSH4 0x3B9ACA00 MUL SWAP1 PUSH4 0x3B9ACA00 DUP3 DIV SUB PUSH2 0x6AD JUMPI PUSH3 0x15180 SWAP1 DIV DUP3 DUP3 LT ISZERO PUSH2 0x693 JUMPI POP POP SWAP2 JUMPDEST DUP3 ISZERO PUSH2 0x64E JUMPI PUSH1 0x2 SLOAD PUSH1 0x40 MLOAD PUSH4 0x70A08231 PUSH1 0xE0 SHL DUP2 MSTORE ADDRESS PUSH1 0x4 DUP3 ADD MSTORE SWAP2 SWAP1 PUSH1 0x20 SWAP1 DUP4 SWAP1 PUSH1 0x24 SWAP1 DUP3 SWAP1 PUSH1 0x1 PUSH1 0x1 PUSH1 0xA0 SHL SUB AND GAS STATICCALL DUP1 ISZERO PUSH2 0x643 JUMPI PUSH0 SWAP1 PUSH2 0x60F JUMPI JUMPDEST PUSH2 0x544 SWAP3 POP PUSH2 0x1334 JUMP JUMPDEST DUP3 GT PUSH2 0x5C0 JUMPI TIMESTAMP SWAP1 SSTORE PUSH2 0x559 DUP2 PUSH1 0x5 SLOAD PUSH2 0x1465 JUMP JUMPDEST PUSH1 0x5 SSTORE CALLER PUSH0 MSTORE PUSH1 0xD PUSH1 0x20 MSTORE PUSH1 0x40 PUSH0 KECCAK256 PUSH2 0x573 DUP3 DUP3 SLOAD PUSH2 0x1465 JUMP JUMPDEST SWAP1 SSTORE PUSH1 0x2 SLOAD PUSH2 0x58E SWAP1 DUP3 SWAP1 CALLER SWAP1 PUSH1 0x1 PUSH1 0x1 PUSH1 0xA0 SHL SUB AND PUSH2 0x170C JUMP JUMPDEST PUSH1 0x40 MLOAD SWAP1 DUP2 MSTORE PUSH32 0x106F923F993C2149D49B4255FF723ACAFA1F2D94393F561D3EDA32AE348F7241 PUSH1 0x20 CALLER SWAP3 LOG2 PUSH1 0x1 DUP1 SSTORE STOP JUMPDEST PUSH1 0x40 MLOAD PUSH3 0x461BCD PUSH1 0xE5 SHL DUP2 MSTORE PUSH1 0x20 PUSH1 0x4 DUP3 ADD MSTORE PUSH1 0x21 PUSH1 0x24 DUP3 ADD MSTORE PUSH32 0x5374616B696E673A20696E73756666696369656E742072657761726420706F6F PUSH1 0x44 DUP3 ADD MSTORE PUSH1 0x1B PUSH1 0xFA SHL PUSH1 0x64 DUP3 ADD MSTORE PUSH1 0x84 SWAP1 REVERT JUMPDEST POP PUSH1 0x20 DUP3 RETURNDATASIZE PUSH1 0x20 GT PUSH2 0x63B JUMPI JUMPDEST DUP2 PUSH2 0x629 PUSH1 0x20 SWAP4 DUP4 PUSH2 0x1472 JUMP JUMPDEST DUP2 ADD SUB SLT PUSH2 0x1FC JUMPI PUSH2 0x544 SWAP2 MLOAD PUSH2 0x53A JUMP JUMPDEST RETURNDATASIZE SWAP2 POP PUSH2 0x61C JUMP JUMPDEST PUSH1 0x40 MLOAD RETURNDATASIZE PUSH0 DUP3 RETURNDATACOPY RETURNDATASIZE SWAP1 REVERT JUMPDEST PUSH1 0x40 MLOAD PUSH3 0x461BCD PUSH1 0xE5 SHL DUP2 MSTORE PUSH1 0x20 PUSH1 0x4 DUP3 ADD MSTORE PUSH1 0x1C PUSH1 0x24 DUP3 ADD MSTORE PUSH32 0x5374616B696E673A206E6F207265776172647320746F20636C61696D00000000 PUSH1 0x44 DUP3 ADD MSTORE PUSH1 0x64 SWAP1 REVERT JUMPDEST DUP2 DUP2 SWAP3 SWAP6 SWAP4 POP GT PUSH2 0x6A5 JUMPI JUMPDEST POP PUSH2 0x4FA JUMP JUMPDEST SWAP3 POP DUP4 PUSH2 0x69F JUMP JUMPDEST PUSH4 0x4E487B71 PUSH1 0xE0 SHL PUSH0 MSTORE PUSH1 0x11 PUSH1 0x4 MSTORE PUSH1 0x24 PUSH0 REVERT JUMPDEST PUSH1 0x40 MLOAD PUSH3 0x461BCD PUSH1 0xE5 SHL DUP2 MSTORE PUSH1 0x20 PUSH1 0x4 DUP3 ADD MSTORE PUSH1 0x18 PUSH1 0x24 DUP3 ADD MSTORE PUSH32 0x5374616B696E673A206E6F20746F74616C207374616B65640000000000000000 PUSH1 0x44 DUP3 ADD MSTORE PUSH1 0x64 SWAP1 REVERT JUMPDEST PUSH1 0x40 MLOAD PUSH3 0x461BCD PUSH1 0xE5 SHL DUP2 MSTORE PUSH1 0x20 PUSH1 0x4 DUP3 ADD MSTORE PUSH1 0x18 PUSH1 0x24 DUP3 ADD MSTORE PUSH32 0x5374616B696E673A206E6F207374616B6520616D6F756E740000000000000000 PUSH1 0x44 DUP3 ADD MSTORE PUSH1 0x64 SWAP1 REVERT JUMPDEST CALLVALUE PUSH2 0x1FC JUMPI PUSH0 CALLDATASIZE PUSH1 0x3 NOT ADD SLT PUSH2 0x1FC JUMPI PUSH1 0x20 PUSH1 0x5 SLOAD PUSH1 0x40 MLOAD SWAP1 DUP2 MSTORE RETURN JUMPDEST CALLVALUE PUSH2 0x1FC JUMPI PUSH0 CALLDATASIZE PUSH1 0x3 NOT ADD SLT PUSH2 0x1FC JUMPI PUSH1 0x20 PUSH1 0x7 SLOAD PUSH1 0x40 MLOAD SWAP1 DUP2 MSTORE RETURN JUMPDEST CALLVALUE PUSH2 0x1FC JUMPI PUSH1 0x20 CALLDATASIZE PUSH1 0x3 NOT ADD SLT PUSH2 0x1FC JUMPI PUSH1 0x4 CALLDATALOAD PUSH2 0x7A1 PUSH2 0x1494 JUMP JUMPDEST PUSH2 0xBB8 DUP2 GT PUSH2 0x7DB JUMPI PUSH1 0x20 DUP2 PUSH32 0xC831F5ABC7BC27C011EDEA988B6E4E573AF053EFA7CFA703A1878827EC6ACC10 SWAP3 PUSH1 0x8 SSTORE PUSH1 0x40 MLOAD SWAP1 DUP2 MSTORE LOG1 STOP JUMPDEST PUSH1 0x40 MLOAD PUSH3 0x461BCD PUSH1 0xE5 SHL DUP2 MSTORE PUSH1 0x20 PUSH1 0x4 DUP3 ADD MSTORE PUSH1 0x19 PUSH1 0x24 DUP3 ADD MSTORE PUSH32 0x5374616B696E673A2070656E616C747920746F6F206869676800000000000000 PUSH1 0x44 DUP3 ADD MSTORE PUSH1 0x64 SWAP1 REVERT JUMPDEST CALLVALUE PUSH2 0x1FC JUMPI PUSH0 CALLDATASIZE PUSH1 0x3 NOT ADD SLT PUSH2 0x1FC JUMPI PUSH0 SLOAD PUSH1 0x40 MLOAD PUSH1 0x1 PUSH1 0x1 PUSH1 0xA0 SHL SUB SWAP1 SWAP2 AND DUP2 MSTORE PUSH1 0x20 SWAP1 RETURN JUMPDEST CALLVALUE PUSH2 0x1FC JUMPI PUSH0 CALLDATASIZE PUSH1 0x3 NOT ADD SLT PUSH2 0x1FC JUMPI PUSH2 0x85F PUSH2 0x1494 JUMP JUMPDEST PUSH2 0x867 PUSH2 0x1541 JUMP JUMPDEST PUSH0 DUP1 SLOAD PUSH1 0xFF PUSH1 0xA0 SHL NOT AND PUSH1 0x1 PUSH1 0xA0 SHL OR SWAP1 SSTORE PUSH1 0x40 MLOAD CALLER DUP2 MSTORE PUSH32 0x62E78CEA01BEE320CD4E420270B5EA74000D11B0C9F74754EBDBFC544B05A258 SWAP1 PUSH1 0x20 SWAP1 LOG1 STOP JUMPDEST CALLVALUE PUSH2 0x1FC JUMPI PUSH0 CALLDATASIZE PUSH1 0x3 NOT ADD SLT PUSH2 0x1FC JUMPI PUSH1 0x20 PUSH1 0x40 MLOAD PUSH1 0x1E DUP2 MSTORE RETURN JUMPDEST CALLVALUE PUSH2 0x1FC JUMPI PUSH0 CALLDATASIZE PUSH1 0x3 NOT ADD SLT PUSH2 0x1FC JUMPI PUSH1 0x20 PUSH1 0x3 SLOAD PUSH1 0x40 MLOAD SWAP1 DUP2 MSTORE RETURN JUMPDEST CALLVALUE PUSH2 0x1FC JUMPI PUSH2 0x8ED CALLDATASIZE PUSH2 0x1275 JUMP JUMPDEST PUSH2 0x8F5 PUSH2 0x14EB JUMP JUMPDEST PUSH2 0x8FD PUSH2 0x1541 JUMP JUMPDEST PUSH4 0x5F5E100 DUP3 LT PUSH2 0xB20 JUMPI PUSH1 0x6 SLOAD DUP2 LT PUSH2 0xADB JUMPI PUSH1 0x7 SLOAD DUP2 GT PUSH2 0xA9D JUMPI PUSH1 0x2 SLOAD PUSH2 0x935 SWAP1 DUP4 SWAP1 ADDRESS SWAP1 CALLER SWAP1 PUSH1 0x1 PUSH1 0x1 PUSH1 0xA0 SHL SUB AND PUSH2 0x174E JUMP JUMPDEST CALLER PUSH0 MSTORE PUSH1 0xC PUSH1 0x20 MSTORE PUSH1 0x40 PUSH0 KECCAK256 PUSH1 0x4 DUP2 ADD DUP1 SLOAD PUSH1 0xFF DUP2 AND PUSH0 EQ PUSH2 0x9F7 JUMPI POP POP PUSH2 0x95E DUP4 DUP3 SLOAD PUSH2 0x1465 JUMP JUMPDEST DUP2 SSTORE PUSH2 0x96A DUP3 TIMESTAMP PUSH2 0x1465 JUMP JUMPDEST PUSH1 0x2 DUP3 ADD SSTORE JUMPDEST PUSH2 0x97C DUP4 PUSH1 0x3 SLOAD PUSH2 0x1465 JUMP JUMPDEST PUSH1 0x3 SSTORE SLOAD PUSH1 0x9 SLOAD DUP2 GT PUSH2 0x9C2 JUMPI JUMPDEST POP PUSH1 0x40 MLOAD SWAP2 DUP3 MSTORE PUSH1 0x20 DUP3 ADD MSTORE PUSH32 0x1449C6DD7851ABC30ABF37F57715F492010519147CC2652FBC38202C18A6EE90 PUSH1 0x40 CALLER SWAP3 LOG2 PUSH1 0x1 DUP1 SSTORE STOP JUMPDEST PUSH1 0x20 DUP2 PUSH32 0x7C9F281F7037E20AAA7DC76EB2B3D9EAE3449EF72C7FDE39D0CBBC53CBB2A0A5 SWAP3 PUSH1 0x9 SSTORE PUSH1 0x40 MLOAD SWAP1 DUP2 MSTORE LOG1 DUP3 PUSH2 0x98A JUMP JUMPDEST PUSH1 0x1 SWAP1 DUP6 DUP5 SSTORE TIMESTAMP DUP3 DUP6 ADD SSTORE PUSH2 0xA0C DUP6 TIMESTAMP PUSH2 0x1465 JUMP JUMPDEST PUSH1 0x2 DUP6 ADD SSTORE TIMESTAMP PUSH1 0x3 DUP6 ADD SSTORE PUSH1 0xFF NOT AND OR SWAP1 SSTORE CALLER PUSH0 MSTORE PUSH1 0xB PUSH1 0x20 MSTORE PUSH1 0x40 PUSH0 KECCAK256 SLOAD PUSH2 0x970 JUMPI PUSH1 0xA SLOAD PUSH9 0x10000000000000000 DUP2 LT ISZERO PUSH2 0xA89 JUMPI PUSH2 0xA56 DUP2 PUSH1 0x1 PUSH2 0xA74 SWAP4 ADD PUSH1 0xA SSTORE PUSH2 0x128B JUMP JUMPDEST DUP2 SLOAD PUSH1 0x1 PUSH1 0x1 PUSH1 0xA0 SHL SUB PUSH1 0x3 SWAP3 SWAP1 SWAP3 SHL SWAP2 DUP3 SHL NOT AND CALLER SWAP1 SWAP2 SHL OR SWAP1 SSTORE JUMP JUMPDEST PUSH1 0xA SLOAD CALLER PUSH0 MSTORE PUSH1 0xB PUSH1 0x20 MSTORE PUSH1 0x40 PUSH0 KECCAK256 SSTORE PUSH2 0x970 JUMP JUMPDEST PUSH4 0x4E487B71 PUSH1 0xE0 SHL PUSH0 MSTORE PUSH1 0x41 PUSH1 0x4 MSTORE PUSH1 0x24 PUSH0 REVERT JUMPDEST PUSH1 0x40 MLOAD PUSH3 0x461BCD PUSH1 0xE5 SHL DUP2 MSTORE PUSH1 0x20 PUSH1 0x4 DUP3 ADD MSTORE PUSH1 0x16 PUSH1 0x24 DUP3 ADD MSTORE PUSH22 0x5374616B696E673A206C6F636B20746F6F206C6F6E67 PUSH1 0x50 SHL PUSH1 0x44 DUP3 ADD MSTORE PUSH1 0x64 SWAP1 REVERT JUMPDEST PUSH1 0x40 MLOAD PUSH3 0x461BCD PUSH1 0xE5 SHL DUP2 MSTORE PUSH1 0x20 PUSH1 0x4 DUP3 ADD MSTORE PUSH1 0x17 PUSH1 0x24 DUP3 ADD MSTORE PUSH32 0x5374616B696E673A206C6F636B20746F6F2073686F7274000000000000000000 PUSH1 0x44 DUP3 ADD MSTORE PUSH1 0x64 SWAP1 REVERT JUMPDEST PUSH1 0x40 MLOAD PUSH3 0x461BCD PUSH1 0xE5 SHL DUP2 MSTORE PUSH1 0x20 PUSH1 0x4 DUP3 ADD MSTORE PUSH1 0x1C PUSH1 0x24 DUP3 ADD MSTORE PUSH32 0x5374616B696E673A2062656C6F77206D696E696D756D207374616B6500000000 PUSH1 0x44 DUP3 ADD MSTORE PUSH1 0x64 SWAP1 REVERT JUMPDEST CALLVALUE PUSH2 0x1FC JUMPI PUSH1 0x20 CALLDATASIZE PUSH1 0x3 NOT ADD SLT PUSH2 0x1FC JUMPI PUSH1 0x4 CALLDATALOAD PUSH1 0x1 PUSH1 0x1 PUSH1 0xA0 SHL SUB DUP2 AND SWAP1 DUP2 SWAP1 SUB PUSH2 0x1FC JUMPI PUSH0 MSTORE PUSH1 0xB PUSH1 0x20 MSTORE PUSH1 0x20 PUSH1 0x40 PUSH0 KECCAK256 SLOAD PUSH1 0x40 MLOAD SWAP1 DUP2 MSTORE RETURN JUMPDEST CALLVALUE PUSH2 0x1FC JUMPI PUSH0 CALLDATASIZE PUSH1 0x3 NOT ADD SLT PUSH2 0x1FC JUMPI PUSH1 0x20 PUSH1 0x40 MLOAD PUSH3 0x278D00 DUP2 MSTORE RETURN JUMPDEST CALLVALUE PUSH2 0x1FC JUMPI PUSH0 CALLDATASIZE PUSH1 0x3 NOT ADD SLT PUSH2 0x1FC JUMPI PUSH2 0xBD6 PUSH2 0x14EB JUMP JUMPDEST CALLER PUSH0 MSTORE PUSH1 0xC PUSH1 0x20 MSTORE PUSH1 0x40 PUSH0 KECCAK256 PUSH1 0x4 DUP2 ADD SWAP1 PUSH2 0xC53 DUP3 SLOAD SWAP2 PUSH2 0xBF9 PUSH1 0xFF DUP5 AND PUSH2 0x12B7 JUMP JUMPDEST DUP1 SLOAD SWAP4 PUSH2 0x2710 PUSH2 0xC0B PUSH1 0x8 SLOAD DUP8 PUSH2 0x1303 JUMP JUMPDEST DIV SWAP4 PUSH0 PUSH2 0xC18 DUP7 DUP9 PUSH2 0x1334 JUMP JUMPDEST SWAP4 SSTORE PUSH1 0xFF NOT AND SWAP1 SSTORE PUSH2 0xC2C DUP5 PUSH1 0x3 SLOAD PUSH2 0x1334 JUMP JUMPDEST PUSH1 0x3 SSTORE PUSH2 0xC38 CALLER PUSH2 0x1587 JUMP JUMPDEST PUSH2 0xC40 PUSH2 0x1678 JUMP JUMPDEST PUSH1 0x2 SLOAD CALLER SWAP1 PUSH1 0x1 PUSH1 0x1 PUSH1 0xA0 SHL SUB AND PUSH2 0x170C JUMP JUMPDEST PUSH1 0x2 SLOAD PUSH0 SLOAD PUSH2 0xC70 SWAP2 DUP4 SWAP2 PUSH1 0x1 PUSH1 0x1 PUSH1 0xA0 SHL SUB SWAP1 DUP2 AND SWAP2 AND PUSH2 0x170C JUMP JUMPDEST PUSH1 0x40 MLOAD SWAP2 DUP3 MSTORE PUSH1 0x20 DUP3 ADD MSTORE PUSH32 0x7FC4727E062E336010F2C282598EF5F14FACB3DE68CF8195C2F23E1454B2B74E PUSH1 0x40 CALLER SWAP3 LOG2 PUSH1 0x1 DUP1 SSTORE STOP JUMPDEST CALLVALUE PUSH2 0x1FC JUMPI PUSH1 0x20 CALLDATASIZE PUSH1 0x3 NOT ADD SLT PUSH2 0x1FC JUMPI PUSH32 0x6C07EE05DCF262F13ABF9D87B846EE789D2F90FE991D495ACD7D7FC109EE1F55 PUSH1 0x40 PUSH1 0x4 CALLDATALOAD PUSH2 0xCE6 PUSH2 0x14EB JUMP JUMPDEST PUSH1 0x2 SLOAD PUSH2 0xD01 SWAP1 DUP3 SWAP1 ADDRESS SWAP1 CALLER SWAP1 PUSH1 0x1 PUSH1 0x1 PUSH1 0xA0 SHL SUB AND PUSH2 0x174E JUMP JUMPDEST PUSH2 0xD0D DUP2 PUSH1 0x4 SLOAD PUSH2 0x1465 JUMP JUMPDEST DUP1 PUSH1 0x4 SSTORE DUP3 MLOAD SWAP2 DUP3 MSTORE PUSH1 0x20 DUP3 ADD MSTORE LOG1 PUSH1 0x1 DUP1 SSTORE STOP JUMPDEST CALLVALUE PUSH2 0x1FC JUMPI PUSH0 CALLDATASIZE PUSH1 0x3 NOT ADD SLT PUSH2 0x1FC JUMPI PUSH2 0xD3A PUSH2 0x1494 JUMP JUMPDEST PUSH0 DUP1 SLOAD PUSH1 0x1 PUSH1 0x1 PUSH1 0xA0 SHL SUB NOT DUP2 AND DUP3 SSTORE PUSH1 0x1 PUSH1 0x1 PUSH1 0xA0 SHL SUB AND PUSH32 0x8BE0079C531659141344CD1FD0A4F28419497F9722A3DAAFE3B4186F6B6457E0 DUP3 DUP1 LOG3 STOP JUMPDEST CALLVALUE PUSH2 0x1FC JUMPI PUSH1 0x20 CALLDATASIZE PUSH1 0x3 NOT ADD SLT PUSH2 0x1FC JUMPI PUSH1 0x4 CALLDATALOAD PUSH1 0x1 PUSH1 0x1 PUSH1 0xA0 SHL SUB DUP2 AND SWAP1 DUP2 SWAP1 SUB PUSH2 0x1FC JUMPI PUSH0 MSTORE PUSH1 0xD PUSH1 0x20 MSTORE PUSH1 0x20 PUSH1 0x40 PUSH0 KECCAK256 SLOAD PUSH1 0x40 MLOAD SWAP1 DUP2 MSTORE RETURN JUMPDEST CALLVALUE PUSH2 0x1FC JUMPI PUSH0 CALLDATASIZE PUSH1 0x3 NOT ADD SLT PUSH2 0x1FC JUMPI PUSH1 0x20 PUSH1 0xFF PUSH0 SLOAD PUSH1 0xA0 SHR AND PUSH1 0x40 MLOAD SWAP1 ISZERO ISZERO DUP2 MSTORE RETURN JUMPDEST CALLVALUE PUSH2 0x1FC JUMPI PUSH0 CALLDATASIZE PUSH1 0x3 NOT ADD SLT PUSH2 0x1FC JUMPI PUSH1 0x20 PUSH1 0x40 MLOAD PUSH4 0x1E13380 DUP2 MSTORE RETURN JUMPDEST CALLVALUE PUSH2 0x1FC JUMPI PUSH1 0x20 CALLDATASIZE PUSH1 0x3 NOT ADD SLT PUSH2 0x1FC JUMPI PUSH1 0x4 CALLDATALOAD PUSH1 0x1 PUSH1 0x1 PUSH1 0xA0 SHL SUB DUP2 AND DUP2 SUB PUSH2 0x1FC JUMPI PUSH2 0xE26 PUSH1 0x20 SWAP2 PUSH2 0x1376 JUMP JUMPDEST PUSH1 0x40 MLOAD SWAP1 DUP2 MSTORE RETURN JUMPDEST CALLVALUE PUSH2 0x1FC JUMPI PUSH0 CALLDATASIZE PUSH1 0x3 NOT ADD SLT PUSH2 0x1FC JUMPI PUSH1 0x20 PUSH1 0x9 SLOAD PUSH1 0x40 MLOAD SWAP1 DUP2 MSTORE RETURN JUMPDEST CALLVALUE PUSH2 0x1FC JUMPI PUSH1 0x20 CALLDATASIZE PUSH1 0x3 NOT ADD SLT PUSH2 0x1FC JUMPI PUSH1 0x4 CALLDATALOAD PUSH1 0x1 PUSH1 0x1 PUSH1 0xA0 SHL SUB DUP2 AND SWAP1 DUP2 SWAP1 SUB PUSH2 0x1FC JUMPI PUSH0 MSTORE PUSH1 0xC PUSH1 0x20 MSTORE PUSH1 0x20 PUSH1 0x2 PUSH1 0x40 PUSH0 KECCAK256 ADD SLOAD TIMESTAMP LT PUSH1 0x40 MLOAD SWAP1 DUP2 MSTORE RETURN JUMPDEST CALLVALUE PUSH2 0x1FC JUMPI PUSH0 CALLDATASIZE PUSH1 0x3 NOT ADD SLT PUSH2 0x1FC JUMPI PUSH1 0x20 PUSH1 0xA SLOAD PUSH1 0x40 MLOAD SWAP1 DUP2 MSTORE RETURN JUMPDEST CALLVALUE PUSH2 0x1FC JUMPI PUSH1 0x20 CALLDATASIZE PUSH1 0x3 NOT ADD SLT PUSH2 0x1FC JUMPI PUSH1 0x4 CALLDATALOAD PUSH1 0x1 PUSH1 0x1 PUSH1 0xA0 SHL SUB DUP2 AND DUP2 SUB PUSH2 0x1FC JUMPI PUSH2 0xE26 PUSH1 0x20 SWAP2 PUSH2 0x1341 JUMP JUMPDEST CALLVALUE PUSH2 0x1FC JUMPI PUSH0 CALLDATASIZE PUSH1 0x3 NOT ADD SLT PUSH2 0x1FC JUMPI PUSH2 0xEF0 PUSH2 0x1494 JUMP JUMPDEST PUSH0 SLOAD PUSH1 0xFF DUP2 PUSH1 0xA0 SHR AND ISZERO PUSH2 0xF35 JUMPI PUSH1 0xFF PUSH1 0xA0 SHL NOT AND PUSH0 SSTORE PUSH1 0x40 MLOAD CALLER DUP2 MSTORE PUSH32 0x5DB9EE0A495BF2E6FF9C91A7834C1BA4FDD244A5E8AA4E537BD38AEAE4B073AA SWAP1 PUSH1 0x20 SWAP1 LOG1 STOP JUMPDEST PUSH1 0x40 MLOAD PUSH3 0x461BCD PUSH1 0xE5 SHL DUP2 MSTORE PUSH1 0x20 PUSH1 0x4 DUP3 ADD MSTORE PUSH1 0x14 PUSH1 0x24 DUP3 ADD MSTORE PUSH20 0x14185D5CD8589B194E881B9BDD081C185D5CD959 PUSH1 0x62 SHL PUSH1 0x44 DUP3 ADD MSTORE PUSH1 0x64 SWAP1 REVERT JUMPDEST CALLVALUE PUSH2 0x1FC JUMPI PUSH0 CALLDATASIZE PUSH1 0x3 NOT ADD SLT PUSH2 0x1FC JUMPI PUSH1 0x2 SLOAD PUSH1 0x40 MLOAD PUSH1 0x1 PUSH1 0x1 PUSH1 0xA0 SHL SUB SWAP1 SWAP2 AND DUP2 MSTORE PUSH1 0x20 SWAP1 RETURN JUMPDEST CALLVALUE PUSH2 0x1FC JUMPI PUSH1 0x20 CALLDATASIZE PUSH1 0x3 NOT ADD SLT PUSH2 0x1FC JUMPI PUSH1 0x4 CALLDATALOAD PUSH2 0xFB5 PUSH2 0x14EB JUMP JUMPDEST PUSH2 0xFBD PUSH2 0x1541 JUMP JUMPDEST CALLER PUSH0 MSTORE PUSH1 0xC PUSH1 0x20 MSTORE PUSH1 0x40 PUSH0 KECCAK256 PUSH1 0x4 DUP2 ADD DUP1 SLOAD SWAP2 PUSH2 0xFDC PUSH1 0xFF DUP5 AND PUSH2 0x12B7 JUMP JUMPDEST DUP1 SLOAD SWAP1 DUP5 DUP3 LT PUSH2 0x1104 JUMPI PUSH0 SWAP3 DUP6 DUP1 SWAP4 PUSH1 0x2 DUP5 ADD SLOAD TIMESTAMP LT PUSH2 0x10D1 JUMPI JUMPDEST PUSH2 0x1047 SWAP6 SWAP7 SWAP2 PUSH2 0x1006 SWAP2 PUSH2 0x1334 JUMP JUMPDEST DUP1 DUP5 SSTORE ISZERO PUSH2 0x10BB JUMPI JUMPDEST POP POP PUSH2 0x101D DUP6 PUSH1 0x3 SLOAD PUSH2 0x1334 JUMP JUMPDEST PUSH1 0x3 SSTORE SLOAD PUSH1 0x9 SLOAD DUP1 SWAP2 LT SWAP1 DUP2 ISZERO PUSH2 0x10B2 JUMPI JUMPDEST POP PUSH2 0x10A5 JUMPI PUSH1 0x2 SLOAD CALLER SWAP1 PUSH1 0x1 PUSH1 0x1 PUSH1 0xA0 SHL SUB AND PUSH2 0x170C JUMP JUMPDEST DUP1 PUSH2 0x1083 JUMPI PUSH1 0x40 MLOAD SWAP2 DUP3 MSTORE PUSH1 0x20 DUP3 ADD MSTORE PUSH32 0x7FC4727E062E336010F2C282598EF5F14FACB3DE68CF8195C2F23E1454B2B74E PUSH1 0x40 CALLER SWAP3 LOG2 PUSH1 0x1 DUP1 SSTORE STOP JUMPDEST PUSH1 0x2 SLOAD PUSH0 SLOAD PUSH2 0x10A0 SWAP2 DUP4 SWAP2 PUSH1 0x1 PUSH1 0x1 PUSH1 0xA0 SHL SUB SWAP1 DUP2 AND SWAP2 AND PUSH2 0x170C JUMP JUMPDEST PUSH2 0xC70 JUMP JUMPDEST PUSH2 0x10AD PUSH2 0x1678 JUMP JUMPDEST PUSH2 0xC40 JUMP JUMPDEST SWAP1 POP ISZERO DUP6 PUSH2 0x102F JUMP JUMPDEST PUSH1 0xFF NOT AND SWAP1 SSTORE PUSH2 0x10CA CALLER PUSH2 0x1587 JUMP JUMPDEST DUP6 DUP1 PUSH2 0x100F JUMP JUMPDEST SWAP4 POP POP PUSH2 0x1047 SWAP4 POP PUSH2 0x2710 PUSH2 0x10E8 PUSH1 0x8 SLOAD DUP9 PUSH2 0x1303 JUMP JUMPDEST DIV SWAP5 PUSH2 0x1006 DUP8 PUSH2 0x10F8 DUP9 DUP3 PUSH2 0x1334 JUMP JUMPDEST SWAP6 SWAP2 POP SWAP2 SWAP7 SWAP6 POP PUSH2 0xFF7 JUMP JUMPDEST PUSH1 0x40 MLOAD PUSH3 0x461BCD PUSH1 0xE5 SHL DUP2 MSTORE PUSH1 0x20 PUSH1 0x4 DUP3 ADD MSTORE PUSH1 0x1B PUSH1 0x24 DUP3 ADD MSTORE PUSH32 0x5374616B696E673A20696E73756666696369656E74207374616B650000000000 PUSH1 0x44 DUP3 ADD MSTORE PUSH1 0x64 SWAP1 REVERT JUMPDEST CALLVALUE PUSH2 0x1FC JUMPI PUSH0 CALLDATASIZE PUSH1 0x3 NOT ADD SLT PUSH2 0x1FC JUMPI PUSH1 0x20 PUSH1 0x40 MLOAD PUSH2 0x3E8 DUP2 MSTORE RETURN JUMPDEST CALLVALUE PUSH2 0x1FC JUMPI PUSH1 0x20 CALLDATASIZE PUSH1 0x3 NOT ADD SLT PUSH2 0x1FC JUMPI PUSH1 0x4 CALLDATALOAD PUSH1 0x1 PUSH1 0x1 PUSH1 0xA0 SHL SUB DUP2 AND SWAP1 DUP2 SWAP1 SUB PUSH2 0x1FC JUMPI PUSH0 MSTORE PUSH1 0xC PUSH1 0x20 MSTORE PUSH1 0xA0 PUSH1 0x40 PUSH0 KECCAK256 DUP1 SLOAD SWAP1 PUSH1 0x1 DUP2 ADD SLOAD SWAP1 PUSH1 0x2 DUP2 ADD SLOAD PUSH1 0xFF PUSH1 0x4 PUSH1 0x3 DUP5 ADD SLOAD SWAP4 ADD SLOAD AND SWAP3 PUSH1 0x40 MLOAD SWAP5 DUP6 MSTORE PUSH1 0x20 DUP6 ADD MSTORE PUSH1 0x40 DUP5 ADD MSTORE PUSH1 0x60 DUP4 ADD MSTORE ISZERO ISZERO PUSH1 0x80 DUP3 ADD MSTORE RETURN JUMPDEST CALLVALUE PUSH2 0x1FC JUMPI PUSH0 CALLDATASIZE PUSH1 0x3 NOT ADD SLT PUSH2 0x1FC JUMPI PUSH1 0x20 PUSH1 0x8 SLOAD PUSH1 0x40 MLOAD SWAP1 DUP2 MSTORE RETURN JUMPDEST CALLVALUE PUSH2 0x1FC JUMPI PUSH2 0x11FD CALLDATASIZE PUSH2 0x1275 JUMP JUMPDEST SWAP1 PUSH2 0x1206 PUSH2 0x1494 JUMP JUMPDEST DUP2 DUP2 LT ISZERO PUSH2 0x1216 JUMPI PUSH1 0x6 SSTORE PUSH1 0x7 SSTORE STOP JUMPDEST PUSH1 0x40 MLOAD PUSH3 0x461BCD PUSH1 0xE5 SHL DUP2 MSTORE PUSH1 0x20 PUSH1 0x4 DUP3 ADD MSTORE PUSH1 0x1A PUSH1 0x24 DUP3 ADD MSTORE PUSH32 0x5374616B696E673A20696E76616C6964206475726174696F6E73000000000000 PUSH1 0x44 DUP3 ADD MSTORE PUSH1 0x64 SWAP1 REVERT JUMPDEST CALLVALUE PUSH2 0x1FC JUMPI PUSH0 CALLDATASIZE PUSH1 0x3 NOT ADD SLT PUSH2 0x1FC JUMPI PUSH1 0x20 SWAP1 PUSH1 0x4 SLOAD DUP2 MSTORE RETURN JUMPDEST PUSH1 0x40 SWAP1 PUSH1 0x3 NOT ADD SLT PUSH2 0x1FC JUMPI PUSH1 0x4 CALLDATALOAD SWAP1 PUSH1 0x24 CALLDATALOAD SWAP1 JUMP JUMPDEST PUSH1 0xA SLOAD DUP2 LT ISZERO PUSH2 0x12A3 JUMPI PUSH1 0xA PUSH0 MSTORE PUSH1 0x20 PUSH0 KECCAK256 ADD SWAP1 PUSH0 SWAP1 JUMP JUMPDEST PUSH4 0x4E487B71 PUSH1 0xE0 SHL PUSH0 MSTORE PUSH1 0x32 PUSH1 0x4 MSTORE PUSH1 0x24 PUSH0 REVERT JUMPDEST ISZERO PUSH2 0x12BE JUMPI JUMP JUMPDEST PUSH1 0x40 MLOAD PUSH3 0x461BCD PUSH1 0xE5 SHL DUP2 MSTORE PUSH1 0x20 PUSH1 0x4 DUP3 ADD MSTORE PUSH1 0x18 PUSH1 0x24 DUP3 ADD MSTORE PUSH32 0x5374616B696E673A206E6F20616374697665207374616B650000000000000000 PUSH1 0x44 DUP3 ADD MSTORE PUSH1 0x64 SWAP1 REVERT JUMPDEST DUP2 DUP2 MUL SWAP3 SWAP2 DUP2 ISZERO SWAP2 DUP5 DIV EQ OR ISZERO PUSH2 0x6AD JUMPI JUMP JUMPDEST DUP2 ISZERO PUSH2 0x1320 JUMPI DIV SWAP1 JUMP JUMPDEST PUSH4 0x4E487B71 PUSH1 0xE0 SHL PUSH0 MSTORE PUSH1 0x12 PUSH1 0x4 MSTORE PUSH1 0x24 PUSH0 REVERT JUMPDEST SWAP2 SWAP1 DUP3 SUB SWAP2 DUP3 GT PUSH2 0x6AD JUMPI JUMP JUMPDEST PUSH1 0x1 PUSH1 0x1 PUSH1 0xA0 SHL SUB AND PUSH0 SWAP1 DUP2 MSTORE PUSH1 0xC PUSH1 0x20 MSTORE PUSH1 0x40 SWAP1 KECCAK256 PUSH1 0x2 ADD SLOAD TIMESTAMP DUP2 GT ISZERO PUSH2 0x1371 JUMPI PUSH2 0x136E SWAP1 TIMESTAMP SWAP1 PUSH2 0x1334 JUMP JUMPDEST SWAP1 JUMP JUMPDEST POP PUSH0 SWAP1 JUMP JUMPDEST PUSH1 0x1 PUSH1 0x1 PUSH1 0xA0 SHL SUB AND PUSH0 SWAP1 DUP2 MSTORE PUSH1 0xC PUSH1 0x20 MSTORE PUSH1 0x40 SWAP1 KECCAK256 PUSH1 0x4 DUP2 ADD SLOAD PUSH1 0xFF AND ISZERO DUP1 ISZERO PUSH2 0x145C JUMPI JUMPDEST DUP1 ISZERO PUSH2 0x1452 JUMPI JUMPDEST PUSH2 0x1371 JUMPI PUSH2 0x13CA DUP2 PUSH2 0x13BC PUSH1 0x3 PUSH2 0x488 SWAP5 ADD SLOAD TIMESTAMP PUSH2 0x1334 JUMP JUMPDEST SWAP3 DUP4 SWAP2 PUSH1 0x9 SLOAD SWAP1 SLOAD SWAP1 PUSH2 0x1303 JUMP JUMPDEST PUSH1 0x3 SLOAD PUSH1 0x1E DUP2 MUL SWAP1 DUP1 DUP3 DIV PUSH1 0x1E EQ DUP2 ISZERO OR ISZERO PUSH2 0x6AD JUMPI PUSH3 0x278D00 MUL SWAP1 DUP1 DUP3 DIV PUSH3 0x15180 EQ SWAP1 ISZERO OR ISZERO PUSH2 0x6AD JUMPI PUSH2 0x13FF SWAP2 PUSH2 0x1316 JUMP JUMPDEST DUP2 PUSH3 0xF4240 MUL PUSH3 0xF4240 DUP2 DIV DUP4 SUB PUSH2 0x6AD JUMPI PUSH3 0x15180 SWAP1 DIV SWAP2 DUP1 PUSH4 0x3B9ACA00 MUL SWAP1 PUSH4 0x3B9ACA00 DUP3 DIV SUB PUSH2 0x6AD JUMPI PUSH3 0x15180 SWAP1 DIV DUP3 DUP3 LT ISZERO PUSH2 0x143F JUMPI POP POP SWAP1 JUMP JUMPDEST DUP2 DUP2 SWAP3 SWAP4 POP GT PUSH2 0x144D JUMPI POP SWAP1 JUMP JUMPDEST SWAP1 POP SWAP1 JUMP JUMPDEST POP PUSH1 0x3 SLOAD ISZERO PUSH2 0x13A3 JUMP JUMPDEST POP DUP1 SLOAD ISZERO PUSH2 0x139C JUMP JUMPDEST SWAP2 SWAP1 DUP3 ADD DUP1 SWAP3 GT PUSH2 0x6AD JUMPI JUMP JUMPDEST SWAP1 PUSH1 0x1F DUP1 NOT SWAP2 ADD AND DUP2 ADD SWAP1 DUP2 LT PUSH8 0xFFFFFFFFFFFFFFFF DUP3 GT OR PUSH2 0xA89 JUMPI PUSH1 0x40 MSTORE JUMP JUMPDEST PUSH0 SLOAD PUSH1 0x1 PUSH1 0x1 PUSH1 0xA0 SHL SUB AND CALLER SUB PUSH2 0x14A7 JUMPI JUMP JUMPDEST PUSH1 0x64 PUSH1 0x40 MLOAD PUSH3 0x461BCD PUSH1 0xE5 SHL DUP2 MSTORE PUSH1 0x20 PUSH1 0x4 DUP3 ADD MSTORE PUSH1 0x20 PUSH1 0x24 DUP3 ADD MSTORE PUSH32 0x4F776E61626C653A2063616C6C6572206973206E6F7420746865206F776E6572 PUSH1 0x44 DUP3 ADD MSTORE REVERT JUMPDEST PUSH1 0x2 PUSH1 0x1 SLOAD EQ PUSH2 0x14FC JUMPI PUSH1 0x2 PUSH1 0x1 SSTORE JUMP JUMPDEST PUSH1 0x40 MLOAD PUSH3 0x461BCD PUSH1 0xE5 SHL DUP2 MSTORE PUSH1 0x20 PUSH1 0x4 DUP3 ADD MSTORE PUSH1 0x1F PUSH1 0x24 DUP3 ADD MSTORE PUSH32 0x5265656E7472616E637947756172643A207265656E7472616E742063616C6C00 PUSH1 0x44 DUP3 ADD MSTORE PUSH1 0x64 SWAP1 REVERT JUMPDEST PUSH1 0xFF PUSH0 SLOAD PUSH1 0xA0 SHR AND PUSH2 0x154F JUMPI JUMP JUMPDEST PUSH1 0x40 MLOAD PUSH3 0x461BCD PUSH1 0xE5 SHL DUP2 MSTORE PUSH1 0x20 PUSH1 0x4 DUP3 ADD MSTORE PUSH1 0x10 PUSH1 0x24 DUP3 ADD MSTORE PUSH16 0x14185D5CD8589B194E881C185D5CD959 PUSH1 0x82 SHL PUSH1 0x44 DUP3 ADD MSTORE PUSH1 0x64 SWAP1 REVERT JUMPDEST PUSH1 0x1 PUSH1 0x1 PUSH1 0xA0 SHL SUB AND PUSH0 DUP2 DUP2 MSTORE PUSH1 0xB PUSH1 0x20 MSTORE PUSH1 0x40 SWAP1 KECCAK256 SLOAD DUP1 ISZERO PUSH2 0x1674 JUMPI PUSH1 0xA SLOAD DUP1 DUP3 SUB PUSH2 0x15FF JUMPI JUMPDEST POP POP PUSH1 0xA SLOAD DUP1 ISZERO PUSH2 0x15EB JUMPI PUSH0 NOT ADD PUSH2 0x15C6 DUP2 PUSH2 0x128B JUMP JUMPDEST DUP2 SLOAD SWAP1 PUSH1 0x1 DUP1 PUSH1 0xA0 SHL SUB SWAP1 PUSH1 0x3 SHL SHL NOT AND SWAP1 SSTORE PUSH1 0xA SSTORE PUSH0 MSTORE PUSH1 0xB PUSH1 0x20 MSTORE PUSH0 PUSH1 0x40 DUP2 KECCAK256 SSTORE JUMP JUMPDEST PUSH4 0x4E487B71 PUSH1 0xE0 SHL PUSH0 MSTORE PUSH1 0x31 PUSH1 0x4 MSTORE PUSH1 0x24 PUSH0 REVERT JUMPDEST PUSH0 NOT DUP2 ADD SWAP1 DUP2 GT PUSH2 0x6AD JUMPI PUSH2 0x1613 SWAP1 PUSH2 0x128B JUMP JUMPDEST SWAP1 SLOAD PUSH1 0x3 SWAP2 SWAP1 SWAP2 SHL SHR PUSH1 0x1 PUSH1 0x1 PUSH1 0xA0 SHL SUB AND PUSH0 NOT DUP3 ADD DUP3 DUP2 GT PUSH2 0x6AD JUMPI DUP2 PUSH2 0x163D PUSH2 0x1661 SWAP3 PUSH2 0x128B JUMP JUMPDEST DUP2 SLOAD PUSH1 0x1 PUSH1 0x1 PUSH1 0xA0 SHL SUB SWAP4 DUP5 AND PUSH1 0x3 SWAP3 SWAP1 SWAP3 SHL SWAP2 DUP3 SHL SWAP4 SWAP1 SWAP2 SHL NOT AND SWAP2 SWAP1 SWAP2 OR SWAP1 SSTORE JUMP JUMPDEST PUSH0 MSTORE PUSH1 0xB PUSH1 0x20 MSTORE PUSH1 0x40 PUSH0 KECCAK256 SSTORE PUSH0 DUP1 PUSH2 0x15AF JUMP JUMPDEST POP POP JUMP JUMPDEST PUSH0 PUSH0 PUSH1 0xA SLOAD SWAP1 JUMPDEST DUP2 DUP2 LT PUSH2 0x16B9 JUMPI POP POP PUSH1 0x20 DUP2 PUSH32 0x7C9F281F7037E20AAA7DC76EB2B3D9EAE3449EF72C7FDE39D0CBBC53CBB2A0A5 SWAP3 PUSH1 0x9 SSTORE PUSH1 0x40 MLOAD SWAP1 DUP2 MSTORE LOG1 JUMP JUMPDEST PUSH2 0x16C2 DUP2 PUSH2 0x128B JUMP JUMPDEST PUSH1 0x1 DUP1 PUSH1 0xA0 SHL SUB SWAP2 SLOAD SWAP1 PUSH1 0x3 SHL SHR AND PUSH0 MSTORE PUSH1 0xC PUSH1 0x20 MSTORE PUSH1 0x40 PUSH0 KECCAK256 PUSH1 0xFF PUSH1 0x4 DUP3 ADD SLOAD AND DUP1 PUSH2 0x1702 JUMPI JUMPDEST PUSH2 0x16F8 JUMPI JUMPDEST POP PUSH1 0x1 ADD PUSH2 0x167F JUMP JUMPDEST SLOAD SWAP3 POP PUSH1 0x1 PUSH2 0x16EF JUMP JUMPDEST POP DUP4 DUP2 SLOAD GT PUSH2 0x16EA JUMP JUMPDEST PUSH1 0x40 MLOAD PUSH4 0xA9059CBB PUSH1 0xE0 SHL PUSH1 0x20 DUP3 ADD MSTORE PUSH1 0x1 PUSH1 0x1 PUSH1 0xA0 SHL SUB SWAP1 SWAP3 AND PUSH1 0x24 DUP4 ADD MSTORE PUSH1 0x44 DUP1 DUP4 ADD SWAP4 SWAP1 SWAP4 MSTORE SWAP2 DUP2 MSTORE PUSH2 0x174C SWAP2 PUSH2 0x1747 PUSH1 0x64 DUP4 PUSH2 0x1472 JUMP JUMPDEST PUSH2 0x1792 JUMP JUMPDEST JUMP JUMPDEST PUSH1 0x40 MLOAD PUSH4 0x23B872DD PUSH1 0xE0 SHL PUSH1 0x20 DUP3 ADD MSTORE PUSH1 0x1 PUSH1 0x1 PUSH1 0xA0 SHL SUB SWAP3 DUP4 AND PUSH1 0x24 DUP3 ADD MSTORE SWAP3 SWAP1 SWAP2 AND PUSH1 0x44 DUP4 ADD MSTORE PUSH1 0x64 DUP1 DUP4 ADD SWAP4 SWAP1 SWAP4 MSTORE SWAP2 DUP2 MSTORE PUSH2 0x174C SWAP2 PUSH2 0x1747 PUSH1 0x84 DUP4 PUSH2 0x1472 JUMP JUMPDEST PUSH1 0x1 DUP1 PUSH1 0xA0 SHL SUB AND SWAP1 PUSH0 DUP1 PUSH1 0x40 MLOAD SWAP3 PUSH2 0x17AC PUSH1 0x40 DUP6 PUSH2 0x1472 JUMP JUMPDEST PUSH1 0x20 DUP5 MSTORE PUSH32 0x5361666545524332303A206C6F772D6C6576656C2063616C6C206661696C6564 PUSH1 0x20 DUP6 ADD MSTORE PUSH1 0x20 DUP2 MLOAD SWAP2 ADD DUP3 DUP7 GAS CALL RETURNDATASIZE ISZERO PUSH2 0x18B3 JUMPI RETURNDATASIZE SWAP1 PUSH8 0xFFFFFFFFFFFFFFFF DUP3 GT PUSH2 0xA89 JUMPI PUSH1 0x40 MLOAD PUSH2 0x1822 SWAP5 SWAP1 SWAP3 PUSH2 0x1814 PUSH1 0x1F DUP3 ADD PUSH1 0x1F NOT AND PUSH1 0x20 ADD DUP6 PUSH2 0x1472 JUMP JUMPDEST DUP4 MSTORE RETURNDATASIZE PUSH0 PUSH1 0x20 DUP6 ADD RETURNDATACOPY PUSH2 0x18BC JUMP JUMPDEST DUP1 MLOAD SWAP1 DUP2 ISZERO SWAP2 DUP3 ISZERO PUSH2 0x1890 JUMPI JUMPDEST POP POP ISZERO PUSH2 0x1838 JUMPI JUMP JUMPDEST PUSH1 0x40 MLOAD PUSH3 0x461BCD PUSH1 0xE5 SHL DUP2 MSTORE PUSH1 0x20 PUSH1 0x4 DUP3 ADD MSTORE PUSH1 0x2A PUSH1 0x24 DUP3 ADD MSTORE PUSH32 0x5361666545524332303A204552433230206F7065726174696F6E20646964206E PUSH1 0x44 DUP3 ADD MSTORE PUSH10 0x1BDD081CDD58D8D95959 PUSH1 0xB2 SHL PUSH1 0x64 DUP3 ADD MSTORE PUSH1 0x84 SWAP1 REVERT JUMPDEST DUP2 SWAP3 POP SWAP1 PUSH1 0x20 SWAP2 DUP2 ADD SUB SLT PUSH2 0x1FC JUMPI PUSH1 0x20 ADD MLOAD DUP1 ISZERO ISZERO DUP2 SUB PUSH2 0x1FC JUMPI PUSH0 DUP1 PUSH2 0x182F JUMP JUMPDEST SWAP2 PUSH2 0x1822 SWAP3 PUSH1 0x60 SWAP2 JUMPDEST SWAP2 SWAP3 SWAP1 ISZERO PUSH2 0x191E JUMPI POP DUP2 MLOAD ISZERO PUSH2 0x18D0 JUMPI POP SWAP1 JUMP JUMPDEST EXTCODESIZE ISZERO PUSH2 0x18D9 JUMPI SWAP1 JUMP JUMPDEST PUSH1 0x40 MLOAD PUSH3 0x461BCD PUSH1 0xE5 SHL DUP2 MSTORE PUSH1 0x20 PUSH1 0x4 DUP3 ADD MSTORE PUSH1 0x1D PUSH1 0x24 DUP3 ADD MSTORE PUSH32 0x416464726573733A2063616C6C20746F206E6F6E2D636F6E7472616374000000 PUSH1 0x44 DUP3 ADD MSTORE PUSH1 0x64 SWAP1 REVERT JUMPDEST DUP3 MLOAD SWAP1 SWAP2 POP ISZERO PUSH2 0x1931 JUMPI POP DUP1 MLOAD SWAP1 PUSH1 0x20 ADD REVERT JUMPDEST PUSH1 0x44 PUSH1 0x20 SWAP2 PUSH1 0x40 MLOAD SWAP3 DUP4 SWAP2 PUSH3 0x461BCD PUSH1 0xE5 SHL DUP4 MSTORE DUP2 PUSH1 0x4 DUP5 ADD MSTORE DUP1 MLOAD SWAP2 DUP3 SWAP2 DUP3 PUSH1 0x24 DUP7 ADD MSTORE ADD DUP5 DUP5 ADD MCOPY PUSH0 DUP3 DUP3 ADD DUP5 ADD MSTORE PUSH1 0x1F ADD PUSH1 0x1F NOT AND DUP2 ADD SUB ADD SWAP1 REVERT INVALID LOG2 PUSH5 0x6970667358 0x22 SLT KECCAK256 0x26 0x27 0x4F 0xA8 0xA5 0xF7 0xDC 0xBF 0xBE TIMESTAMP 0x2C PUSH16 0x85F9A3B039E99776F2C2ADC2B483D75 BLOBBASEFEE ORIGIN DIV SWAP11 PUSH5 0x736F6C6343 STOP ADDMOD SHL STOP CALLER "},"methodIdentifiers":{"EARLY_UNSTAKE_PENALTY()":"1f4531f5","MAX_DAILY_REWARD()":"c3bd8d03","MAX_LOCK_DURATION()":"4f1bfc9e","MIN_DAILY_REWARD()":"be8c78dd","MIN_LOCK_DURATION()":"78b4330f","MIN_STAKE()":"cb1c2b5c","REWARD_DENOMINATOR()":"819a9398","addReward(uint256)":"74de4ec4","chipToken()":"3b61403c","claimReward()":"b88a802f","earlyUnstakePenalty()":"1367eaf2","emergencyUnstake()":"7589cf2f","getPendingReward(address)":"4df9d6ba","getRemainingLockTime(address)":"47304494","getStakeInfo(address)":"c3453153","getStaker(uint256)":"e3c998fe","getStakersCount()":"48284789","isLocked(address)":"4a4fbeec","largestStake()":"4c8cab79","maxLockDuration()":"a16cdbb1","minLockDuration()":"d6a298e9","owner()":"8da5cb5b","pause()":"8456cb59","paused()":"5c975abb","renounceOwnership()":"715018a6","setEarlyUnstakePenalty(uint256)":"8e1eb324","setLockDuration(uint256,uint256)":"126796dd","stake(uint256,uint256)":"7b0472f0","stakerIndex(address)":"78d60a5b","stakers(uint256)":"fd5e6dd1","stakes(address)":"16934fc4","totalRewardPool()":"09c85e24","totalRewardsClaimed()":"a34b0f76","totalStaked()":"817b1cd2","totalUserRewardsClaimed(address)":"5eeea320","transferOwnership(address)":"f2fde38b","unpause()":"3f4ba83a","unstake(uint256)":"2e17de78"}}}}}