{"contracts/AMMRouter.sol":{"AMMRouter":{"abi":[{"inputs":[{"internalType":"address","name":"_pool","type":"address"},{"internalType":"address","name":"_token","type":"address"}],"stateMutability":"nonpayable","type":"constructor"},{"anonymous":false,"inputs":[{"indexed":true,"internalType":"address","name":"sender","type":"address"},{"indexed":false,"internalType":"uint256","name":"amountTRX","type":"uint256"},{"indexed":false,"internalType":"uint256","name":"amountCHIP","type":"uint256"},{"indexed":false,"internalType":"uint256","name":"liquidity","type":"uint256"}],"name":"LiquidityAdded","type":"event"},{"anonymous":false,"inputs":[{"indexed":true,"internalType":"address","name":"sender","type":"address"},{"indexed":false,"internalType":"uint256","name":"amountTRX","type":"uint256"},{"indexed":false,"internalType":"uint256","name":"amountCHIP","type":"uint256"},{"indexed":false,"internalType":"uint256","name":"liquidity","type":"uint256"}],"name":"LiquidityRemoved","type":"event"},{"anonymous":false,"inputs":[{"indexed":true,"internalType":"address","name":"sender","type":"address"},{"indexed":false,"internalType":"bool","name":"trxToChip","type":"bool"},{"indexed":false,"internalType":"uint256","name":"amountIn","type":"uint256"},{"indexed":false,"internalType":"uint256","name":"amountOut","type":"uint256"}],"name":"SwapExecuted","type":"event"},{"inputs":[{"internalType":"uint256","name":"amountCHIPDesired","type":"uint256"},{"internalType":"uint256","name":"amountCHIPMin","type":"uint256"},{"internalType":"uint256","name":"amountTRXMin","type":"uint256"},{"internalType":"address","name":"to","type":"address"},{"internalType":"uint256","name":"deadline","type":"uint256"}],"name":"addLiquidity","outputs":[{"internalType":"uint256","name":"amountTRX","type":"uint256"},{"internalType":"uint256","name":"amountCHIP","type":"uint256"},{"internalType":"uint256","name":"liquidity","type":"uint256"}],"stateMutability":"payable","type":"function"},{"inputs":[],"name":"factory","outputs":[{"internalType":"address","name":"","type":"address"}],"stateMutability":"view","type":"function"},{"inputs":[],"name":"getPoolInfo","outputs":[{"internalType":"uint256","name":"reserveTRX","type":"uint256"},{"internalType":"uint256","name":"reserveCHIP","type":"uint256"},{"internalType":"uint256","name":"price","type":"uint256"}],"stateMutability":"view","type":"function"},{"inputs":[{"internalType":"uint256","name":"amountIn","type":"uint256"},{"internalType":"bool","name":"isTRXToCHIP","type":"bool"}],"name":"getPriceImpact","outputs":[{"internalType":"uint256","name":"priceImpact","type":"uint256"}],"stateMutability":"view","type":"function"},{"inputs":[],"name":"owner","outputs":[{"internalType":"address","name":"","type":"address"}],"stateMutability":"view","type":"function"},{"inputs":[],"name":"pool","outputs":[{"internalType":"address","name":"","type":"address"}],"stateMutability":"view","type":"function"},{"inputs":[{"internalType":"uint256","name":"amountIn","type":"uint256"}],"name":"quoteCHIPToTRX","outputs":[{"internalType":"uint256","name":"amountOut","type":"uint256"}],"stateMutability":"view","type":"function"},{"inputs":[{"internalType":"uint256","name":"amountIn","type":"uint256"}],"name":"quoteTRXToCHIP","outputs":[{"internalType":"uint256","name":"amountOut","type":"uint256"}],"stateMutability":"view","type":"function"},{"inputs":[{"internalType":"uint256","name":"liquidity","type":"uint256"},{"internalType":"uint256","name":"amountTRXMin","type":"uint256"},{"internalType":"uint256","name":"amountCHIPMin","type":"uint256"},{"internalType":"address","name":"to","type":"address"},{"internalType":"uint256","name":"deadline","type":"uint256"}],"name":"removeLiquidity","outputs":[{"internalType":"uint256","name":"amountTRX","type":"uint256"},{"internalType":"uint256","name":"amountCHIP","type":"uint256"}],"stateMutability":"nonpayable","type":"function"},{"inputs":[{"internalType":"address","name":"_pool","type":"address"}],"name":"setPool","outputs":[],"stateMutability":"nonpayable","type":"function"},{"inputs":[{"internalType":"address","name":"_token","type":"address"}],"name":"setToken","outputs":[],"stateMutability":"nonpayable","type":"function"},{"inputs":[{"internalType":"uint256","name":"amountIn","type":"uint256"},{"internalType":"uint256","name":"amountOutMin","type":"uint256"},{"internalType":"address","name":"to","type":"address"},{"internalType":"uint256","name":"deadline","type":"uint256"}],"name":"swapCHIPForTRX","outputs":[{"internalType":"uint256","name":"amountOut","type":"uint256"}],"stateMutability":"nonpayable","type":"function"},{"inputs":[{"internalType":"uint256","name":"amountOutMin","type":"uint256"},{"internalType":"address","name":"to","type":"address"},{"internalType":"uint256","name":"deadline","type":"uint256"}],"name":"swapTRXForCHIP","outputs":[{"internalType":"uint256","name":"amountOut","type":"uint256"}],"stateMutability":"payable","type":"function"},{"inputs":[],"name":"token","outputs":[{"internalType":"address","name":"","type":"address"}],"stateMutability":"view","type":"function"},{"inputs":[{"internalType":"address","name":"newOwner","type":"address"}],"name":"transferOwnership","outputs":[],"stateMutability":"nonpayable","type":"function"},{"stateMutability":"payable","type":"receive"}],"evm":{"bytecode":{"linkReferences":{},"object":"608034609157601f6113b838819003918201601f19168301916001600160401b038311848410176095578084926040948552833981010312609157604b602060458360a9565b920160a9565b60038054336001600160a01b031991821617909155600180546001600160a01b03948516908316179055600280549290931691161790556040516112fb90816100bd8239f35b5f80fd5b634e487b7160e01b5f52604160045260245ffd5b51906001600160a01b038216820360915756fe6080604052600436101561001a575b3615610018575f80fd5b005b5f5f3560e01c8063144fa6d714610ea957806316f0115b14610e815780634437152a14610e2357806360246c8814610d2a578063859d21f414610b385780638ac29bbe14610ae05780638da5cb5b14610ab7578063c45a015514610a90578063c4dbea9514610683578063c768f723146104f2578063d2e7b978146103cf578063e30c8f5414610333578063ed856cdc1461014d578063f2fde38b146100f55763fc0c546a146100ca575061000e565b346100f257806003193601126100f2576002546040516001600160a01b039091168152602090f35b80fd5b50346100f25760203660031901126100f25761010f610f07565b60035490610127336001600160a01b03841614610f4f565b6001600160a01b03169061013c821515610f92565b6001600160a01b0319161760035580f35b50346100f25761016e61015f36610f1d565b9593929194909542111561102f565b81156102e4576001546040516323b872dd60e01b81523360048201526001600160a01b0390911660248201819052604482018490526020908290606490829088905af180156102ac57956040918596976102b7575b50600154825163226bf2d160e21b81526001600160a01b039283166004820152958692602492849291165af19283156102ac5784809461026b575b505060409461021261021a92861015611145565b83101561107b565b7f1dc8bb69df2b8e91fbdcbfcf93d951b3f0000f085a95fe3f7946d6161439245d84518061025c33948688846040919493926060820195825260208201520152565b0390a282519182526020820152f35b91935093506040843d6040116102a4575b8161028960409383610fde565b810103126100f25750825160209093015191846102126101fe565b3d915061027c565b6040513d86823e3d90fd5b6102d89060203d6020116102dd575b6102d08183610fde565b81019061112d565b6101c3565b503d6102c6565b60405162461bcd60e51b815260206004820152602160248201527f414d4d526f757465723a20696e73756666696369656e74206c697175696469746044820152607960f81b6064820152608490fd5b50346100f25760203660031901126100f25760015460405163e263821160e01b815260048035908201529190602090839060249082906001600160a01b03165afa9081156103c3579061038c575b602090604051908152f35b506020813d6020116103bb575b816103a660209383610fde565b810103126103b75760209051610381565b5f80fd5b3d9150610399565b604051903d90823e3d90fd5b50346100f25760403660031901126100f25760043560243580151581036104ee57600154604051630240bc6b60e21b81529190606090839060049082906001600160a01b03165afa9081156102ac57849285926104b9575b5015610481575061043981151561126c565b612710820292828404612710148315171561046d57509161045f610465926020946112b8565b906111c3565b604051908152f35b634e487b7160e01b81526011600452602490fd5b905061048e81151561126c565b612710820292828404612710148315171561046d57509161045f6104b4926020946112b8565b610465565b9092506104de915060603d6060116104e7575b6104d68183610fde565b810190611014565b5090915f610427565b503d6104cc565b8280fd5b5060603660031901126100f2576024356001600160a01b0381169081900361063b5761052260443542111561102f565b61052d341515611145565b60015460405163e263821160e01b81523460048201529183916001600160a01b0316602084602481845afa93841561063f57839461064a575b508280808061058f9461057d6004358a10156110d3565b34905af16105896111e1565b50611220565b6001546001600160a01b0316803b156104ee5760a48392604051948593849263022c0d9f60e01b84528260048501528860248501526044840152608060648401528160848401525af1801561063f57610626575b6020826040516001815234838201528160408201527fe467d5fa0f4dfdac4bf57d810740981998c5a70ea754dad39a1db51b4196948a60603392a2604051908152f35b610631838092610fde565b61063b57816105e3565b5080fd5b6040513d85823e3d90fd5b925092506020823d60201161067b575b8161066760209383610fde565b810103126103b75790519183919082610566565b3d915061065a565b600461069f8361069236610f1d565b969395909642111561102f565b6106aa341515611145565b6106b585151561107b565b600154604051630240bc6b60e21b81529360609185919082906001600160a01b03165afa80156102ac5784938591610a6a575b50831580610a62575b156109b857505050503491925b6002546040516323b872dd60e01b815233600482015230602482015260448101869052906020908290606490829087906001600160a01b03165af1801561063f5761099b575b5060025460015460405163095ea7b360e01b81526001600160a01b0391821660048201526024810187905291602091839160449183918891165af1801561063f5761097e575b506107a8828080808760018060a01b03600154165af16105896111e1565b60025460015460405163a9059cbb60e01b81526001600160a01b0391821660048201526024810187905291602091839160449183918891165af1801561063f57916020918493610963575b506001546040516335313c2160e11b81526001600160a01b039283166004820152948592602492849291165af1918215610956578192610922575b508234116108a4575b506108a0906040517f64b83944e79c3ce8d4c297411de637c3e102d064677aac0c163976ebdcd6f50e339180610880858989846040919493926060820195825260208201520152565b0390a2604051938493846040919493926060820195825260208201520152565b0390f35b82340334811161090e5781808092335af16108bd6111e1565b50156108c95783610837565b60405162461bcd60e51b815260206004820152601c60248201527f414d4d526f757465723a2054525820726566756e64206661696c6564000000006044820152606490fd5b634e487b7160e01b82526011600452602482fd5b9091506020813d60201161094e575b8161093e60209383610fde565b810103126103b75751908461082e565b3d9150610931565b50604051903d90823e3d90fd5b61097990833d85116102dd576102d08183610fde565b6107f3565b6109969060203d6020116102dd576102d08183610fde565b61078a565b6109b39060203d6020116102dd576102d08183610fde565b610744565b6109cf846109ca83989596983461119c565b6111c3565b958387116109ef57505050506109e79083101561107b565b3491926106fe565b83610a029497506109ca9293955061119c565b90348211610a1d57610a1690821015611145565b91926106fe565b60405162461bcd60e51b815260206004820152601f60248201527f414d4d526f757465723a206578636573736976652054525820616d6f756e74006044820152606490fd5b5080156106f1565b9050610a8691935060603d6060116104e7576104d68183610fde565b50929092876106e8565b50346100f257806003193601126100f257546040516001600160a01b039091168152602090f35b50346100f257806003193601126100f2576003546040516001600160a01b039091168152602090f35b50346100f25760203660031901126100f257600154604051634a35bd4960e11b815260048035908201529190602090839060249082906001600160a01b03165afa9081156103c3579061038c57602090604051908152f35b50346103b75760803660031901126103b7576044356001600160a01b03811691600435918390036103b757610b7160643542111561102f565b610b7c82151561107b565b600154604051634a35bd4960e11b81526004810184905292906001600160a01b0316602084602481845afa938415610ccd575f94610cf5575b50602082610c0e92610bcb6024358810156110d3565b6002546040516323b872dd60e01b81523360048201526001600160a01b0392831660248201526044810193909352919384929091169082905f9082906064820190565b03925af18015610ccd57610cd8575b506001546001600160a01b031693843b156103b7575f9460a48692604051978893849263022c0d9f60e01b84528960048501528260248501526044840152608060648401528160848401525af1938415610ccd57602094610cb8575b50604051918252838201528160408201527fe467d5fa0f4dfdac4bf57d810740981998c5a70ea754dad39a1db51b4196948a60603392a2604051908152f35b610cc59192505f90610fde565b5f905f610c79565b6040513d5f823e3d90fd5b610cf09060203d6020116102dd576102d08183610fde565b610c1d565b9093506020813d602011610d22575b81610d1160209383610fde565b810103126103b75751926020610bb5565b3d9150610d04565b346103b7575f3660031901126103b757600154604051630240bc6b60e21b81525f916001600160a01b0316606082600481845afa928315610ccd575f925f94610dfb575b5082610d97575b6108a09150604051938493846040919493926060820195825260208201520152565b506020600491604051928380926375c8e9bf60e11b82525afa8015610ccd575f90610dc7575b6108a09150610d75565b506020813d602011610df3575b81610de160209383610fde565b810103126103b7576108a09051610dbd565b3d9150610dd4565b909350610e1891925060603d6060116104e7576104d68183610fde565b509190919284610d6e565b346103b75760203660031901126103b757610e3c610f07565b610e5160018060a01b03600354163314610f4f565b6001600160a01b0316610e65811515610f92565b6bffffffffffffffffffffffff60a01b60015416176001555f80f35b346103b7575f3660031901126103b7576001546040516001600160a01b039091168152602090f35b346103b75760203660031901126103b757610ec2610f07565b610ed760018060a01b03600354163314610f4f565b6001600160a01b0316610eeb811515610f92565b6bffffffffffffffffffffffff60a01b60025416176002555f80f35b600435906001600160a01b03821682036103b757565b60a09060031901126103b7576004359060243590604435906064356001600160a01b03811681036103b7579060843590565b15610f5657565b60405162461bcd60e51b815260206004820152601460248201527320a6a6a937baba32b91d103737ba1037bbb732b960611b6044820152606490fd5b15610f9957565b60405162461bcd60e51b815260206004820152601760248201527f414d4d526f757465723a207a65726f20616464726573730000000000000000006044820152606490fd5b90601f8019910116810190811067ffffffffffffffff82111761100057604052565b634e487b7160e01b5f52604160045260245ffd5b908160609103126103b7578051916040602083015192015190565b1561103657565b60405162461bcd60e51b815260206004820152601b60248201527f414d4d526f757465723a206578706972656420646561646c696e6500000000006044820152606490fd5b1561108257565b60405162461bcd60e51b815260206004820152602360248201527f414d4d526f757465723a20696e73756666696369656e74204348495020616d6f6044820152621d5b9d60ea1b6064820152608490fd5b156110da57565b60405162461bcd60e51b815260206004820152602560248201527f414d4d526f757465723a20696e73756666696369656e74206f757470757420616044820152641b5bdd5b9d60da1b6064820152608490fd5b908160209103126103b7575180151581036103b75790565b1561114c57565b60405162461bcd60e51b815260206004820152602260248201527f414d4d526f757465723a20696e73756666696369656e742054525820616d6f756044820152611b9d60f21b6064820152608490fd5b818102929181159184041417156111af57565b634e487b7160e01b5f52601160045260245ffd5b81156111cd570490565b634e487b7160e01b5f52601260045260245ffd5b3d1561121b573d9067ffffffffffffffff82116110005760405191611210601f8201601f191660200184610fde565b82523d5f602084013e565b606090565b1561122757565b60405162461bcd60e51b815260206004820152601e60248201527f414d4d526f757465723a20545258207472616e73666572206661696c656400006044820152606490fd5b1561127357565b60405162461bcd60e51b815260206004820152601760248201527f414d4d526f757465723a206e6f206c69717569646974790000000000000000006044820152606490fd5b919082018092116111af5756fea2646970667358221220b7a9b2c37fc49004715fa85677f48467c937f1a674b969d0bfdbcc0d37029a1a64736f6c634300081b0033","opcodes":"PUSH1 0x80 CALLVALUE PUSH1 0x91 JUMPI PUSH1 0x1F PUSH2 0x13B8 CODESIZE DUP2 SWAP1 SUB SWAP2 DUP3 ADD PUSH1 0x1F NOT AND DUP4 ADD SWAP2 PUSH1 0x1 PUSH1 0x1 PUSH1 0x40 SHL SUB DUP4 GT DUP5 DUP5 LT OR PUSH1 0x95 JUMPI DUP1 DUP5 SWAP3 PUSH1 0x40 SWAP5 DUP6 MSTORE DUP4 CODECOPY DUP2 ADD SUB SLT PUSH1 0x91 JUMPI PUSH1 0x4B PUSH1 0x20 PUSH1 0x45 DUP4 PUSH1 0xA9 JUMP JUMPDEST SWAP3 ADD PUSH1 0xA9 JUMP JUMPDEST PUSH1 0x3 DUP1 SLOAD CALLER PUSH1 0x1 PUSH1 0x1 PUSH1 0xA0 SHL SUB NOT SWAP2 DUP3 AND OR SWAP1 SWAP2 SSTORE PUSH1 0x1 DUP1 SLOAD PUSH1 0x1 PUSH1 0x1 PUSH1 0xA0 SHL SUB SWAP5 DUP6 AND SWAP1 DUP4 AND OR SWAP1 SSTORE PUSH1 0x2 DUP1 SLOAD SWAP3 SWAP1 SWAP4 AND SWAP2 AND OR SWAP1 SSTORE PUSH1 0x40 MLOAD PUSH2 0x12FB SWAP1 DUP2 PUSH2 0xBD DUP3 CODECOPY RETURN JUMPDEST PUSH0 DUP1 REVERT JUMPDEST PUSH4 0x4E487B71 PUSH1 0xE0 SHL PUSH0 MSTORE PUSH1 0x41 PUSH1 0x4 MSTORE PUSH1 0x24 PUSH0 REVERT JUMPDEST MLOAD SWAP1 PUSH1 0x1 PUSH1 0x1 PUSH1 0xA0 SHL SUB DUP3 AND DUP3 SUB PUSH1 0x91 JUMPI JUMP INVALID PUSH1 0x80 PUSH1 0x40 MSTORE PUSH1 0x4 CALLDATASIZE LT ISZERO PUSH2 0x1A JUMPI JUMPDEST CALLDATASIZE ISZERO PUSH2 0x18 JUMPI PUSH0 DUP1 REVERT JUMPDEST STOP JUMPDEST PUSH0 PUSH0 CALLDATALOAD PUSH1 0xE0 SHR DUP1 PUSH4 0x144FA6D7 EQ PUSH2 0xEA9 JUMPI DUP1 PUSH4 0x16F0115B EQ PUSH2 0xE81 JUMPI DUP1 PUSH4 0x4437152A EQ PUSH2 0xE23 JUMPI DUP1 PUSH4 0x60246C88 EQ PUSH2 0xD2A JUMPI DUP1 PUSH4 0x859D21F4 EQ PUSH2 0xB38 JUMPI DUP1 PUSH4 0x8AC29BBE EQ PUSH2 0xAE0 JUMPI DUP1 PUSH4 0x8DA5CB5B EQ PUSH2 0xAB7 JUMPI DUP1 PUSH4 0xC45A0155 EQ PUSH2 0xA90 JUMPI DUP1 PUSH4 0xC4DBEA95 EQ PUSH2 0x683 JUMPI DUP1 PUSH4 0xC768F723 EQ PUSH2 0x4F2 JUMPI DUP1 PUSH4 0xD2E7B978 EQ PUSH2 0x3CF JUMPI DUP1 PUSH4 0xE30C8F54 EQ PUSH2 0x333 JUMPI DUP1 PUSH4 0xED856CDC EQ PUSH2 0x14D JUMPI DUP1 PUSH4 0xF2FDE38B EQ PUSH2 0xF5 JUMPI PUSH4 0xFC0C546A EQ PUSH2 0xCA JUMPI POP PUSH2 0xE JUMP JUMPDEST CALLVALUE PUSH2 0xF2 JUMPI DUP1 PUSH1 0x3 NOT CALLDATASIZE ADD SLT PUSH2 0xF2 JUMPI PUSH1 0x2 SLOAD PUSH1 0x40 MLOAD PUSH1 0x1 PUSH1 0x1 PUSH1 0xA0 SHL SUB SWAP1 SWAP2 AND DUP2 MSTORE PUSH1 0x20 SWAP1 RETURN JUMPDEST DUP1 REVERT JUMPDEST POP CALLVALUE PUSH2 0xF2 JUMPI PUSH1 0x20 CALLDATASIZE PUSH1 0x3 NOT ADD SLT PUSH2 0xF2 JUMPI PUSH2 0x10F PUSH2 0xF07 JUMP JUMPDEST PUSH1 0x3 SLOAD SWAP1 PUSH2 0x127 CALLER PUSH1 0x1 PUSH1 0x1 PUSH1 0xA0 SHL SUB DUP5 AND EQ PUSH2 0xF4F JUMP JUMPDEST PUSH1 0x1 PUSH1 0x1 PUSH1 0xA0 SHL SUB AND SWAP1 PUSH2 0x13C DUP3 ISZERO ISZERO PUSH2 0xF92 JUMP JUMPDEST PUSH1 0x1 PUSH1 0x1 PUSH1 0xA0 SHL SUB NOT AND OR PUSH1 0x3 SSTORE DUP1 RETURN JUMPDEST POP CALLVALUE PUSH2 0xF2 JUMPI PUSH2 0x16E PUSH2 0x15F CALLDATASIZE PUSH2 0xF1D JUMP JUMPDEST SWAP6 SWAP4 SWAP3 SWAP2 SWAP5 SWAP1 SWAP6 TIMESTAMP GT ISZERO PUSH2 0x102F JUMP JUMPDEST DUP2 ISZERO PUSH2 0x2E4 JUMPI PUSH1 0x1 SLOAD PUSH1 0x40 MLOAD PUSH4 0x23B872DD PUSH1 0xE0 SHL DUP2 MSTORE CALLER PUSH1 0x4 DUP3 ADD MSTORE PUSH1 0x1 PUSH1 0x1 PUSH1 0xA0 SHL SUB SWAP1 SWAP2 AND PUSH1 0x24 DUP3 ADD DUP2 SWAP1 MSTORE PUSH1 0x44 DUP3 ADD DUP5 SWAP1 MSTORE PUSH1 0x20 SWAP1 DUP3 SWAP1 PUSH1 0x64 SWAP1 DUP3 SWAP1 DUP9 SWAP1 GAS CALL DUP1 ISZERO PUSH2 0x2AC JUMPI SWAP6 PUSH1 0x40 SWAP2 DUP6 SWAP7 SWAP8 PUSH2 0x2B7 JUMPI JUMPDEST POP PUSH1 0x1 SLOAD DUP3 MLOAD PUSH4 0x226BF2D1 PUSH1 0xE2 SHL DUP2 MSTORE PUSH1 0x1 PUSH1 0x1 PUSH1 0xA0 SHL SUB SWAP3 DUP4 AND PUSH1 0x4 DUP3 ADD MSTORE SWAP6 DUP7 SWAP3 PUSH1 0x24 SWAP3 DUP5 SWAP3 SWAP2 AND GAS CALL SWAP3 DUP4 ISZERO PUSH2 0x2AC JUMPI DUP5 DUP1 SWAP5 PUSH2 0x26B JUMPI JUMPDEST POP POP PUSH1 0x40 SWAP5 PUSH2 0x212 PUSH2 0x21A SWAP3 DUP7 LT ISZERO PUSH2 0x1145 JUMP JUMPDEST DUP4 LT ISZERO PUSH2 0x107B JUMP JUMPDEST PUSH32 0x1DC8BB69DF2B8E91FBDCBFCF93D951B3F0000F085A95FE3F7946D6161439245D DUP5 MLOAD DUP1 PUSH2 0x25C CALLER SWAP5 DUP7 DUP9 DUP5 PUSH1 0x40 SWAP2 SWAP5 SWAP4 SWAP3 PUSH1 0x60 DUP3 ADD SWAP6 DUP3 MSTORE PUSH1 0x20 DUP3 ADD MSTORE ADD MSTORE JUMP JUMPDEST SUB SWAP1 LOG2 DUP3 MLOAD SWAP2 DUP3 MSTORE PUSH1 0x20 DUP3 ADD MSTORE RETURN JUMPDEST SWAP2 SWAP4 POP SWAP4 POP PUSH1 0x40 DUP5 RETURNDATASIZE PUSH1 0x40 GT PUSH2 0x2A4 JUMPI JUMPDEST DUP2 PUSH2 0x289 PUSH1 0x40 SWAP4 DUP4 PUSH2 0xFDE JUMP JUMPDEST DUP2 ADD SUB SLT PUSH2 0xF2 JUMPI POP DUP3 MLOAD PUSH1 0x20 SWAP1 SWAP4 ADD MLOAD SWAP2 DUP5 PUSH2 0x212 PUSH2 0x1FE JUMP JUMPDEST RETURNDATASIZE SWAP2 POP PUSH2 0x27C JUMP JUMPDEST PUSH1 0x40 MLOAD RETURNDATASIZE DUP7 DUP3 RETURNDATACOPY RETURNDATASIZE SWAP1 REVERT JUMPDEST PUSH2 0x2D8 SWAP1 PUSH1 0x20 RETURNDATASIZE PUSH1 0x20 GT PUSH2 0x2DD JUMPI JUMPDEST PUSH2 0x2D0 DUP2 DUP4 PUSH2 0xFDE JUMP JUMPDEST DUP2 ADD SWAP1 PUSH2 0x112D JUMP JUMPDEST PUSH2 0x1C3 JUMP JUMPDEST POP RETURNDATASIZE PUSH2 0x2C6 JUMP JUMPDEST PUSH1 0x40 MLOAD PUSH3 0x461BCD PUSH1 0xE5 SHL DUP2 MSTORE PUSH1 0x20 PUSH1 0x4 DUP3 ADD MSTORE PUSH1 0x21 PUSH1 0x24 DUP3 ADD MSTORE PUSH32 0x414D4D526F757465723A20696E73756666696369656E74206C69717569646974 PUSH1 0x44 DUP3 ADD MSTORE PUSH1 0x79 PUSH1 0xF8 SHL PUSH1 0x64 DUP3 ADD MSTORE PUSH1 0x84 SWAP1 REVERT JUMPDEST POP CALLVALUE PUSH2 0xF2 JUMPI PUSH1 0x20 CALLDATASIZE PUSH1 0x3 NOT ADD SLT PUSH2 0xF2 JUMPI PUSH1 0x1 SLOAD PUSH1 0x40 MLOAD PUSH4 0xE2638211 PUSH1 0xE0 SHL DUP2 MSTORE PUSH1 0x4 DUP1 CALLDATALOAD SWAP1 DUP3 ADD MSTORE SWAP2 SWAP1 PUSH1 0x20 SWAP1 DUP4 SWAP1 PUSH1 0x24 SWAP1 DUP3 SWAP1 PUSH1 0x1 PUSH1 0x1 PUSH1 0xA0 SHL SUB AND GAS STATICCALL SWAP1 DUP2 ISZERO PUSH2 0x3C3 JUMPI SWAP1 PUSH2 0x38C JUMPI JUMPDEST PUSH1 0x20 SWAP1 PUSH1 0x40 MLOAD SWAP1 DUP2 MSTORE RETURN JUMPDEST POP PUSH1 0x20 DUP2 RETURNDATASIZE PUSH1 0x20 GT PUSH2 0x3BB JUMPI JUMPDEST DUP2 PUSH2 0x3A6 PUSH1 0x20 SWAP4 DUP4 PUSH2 0xFDE JUMP JUMPDEST DUP2 ADD SUB SLT PUSH2 0x3B7 JUMPI PUSH1 0x20 SWAP1 MLOAD PUSH2 0x381 JUMP JUMPDEST PUSH0 DUP1 REVERT JUMPDEST RETURNDATASIZE SWAP2 POP PUSH2 0x399 JUMP JUMPDEST PUSH1 0x40 MLOAD SWAP1 RETURNDATASIZE SWAP1 DUP3 RETURNDATACOPY RETURNDATASIZE SWAP1 REVERT JUMPDEST POP CALLVALUE PUSH2 0xF2 JUMPI PUSH1 0x40 CALLDATASIZE PUSH1 0x3 NOT ADD SLT PUSH2 0xF2 JUMPI PUSH1 0x4 CALLDATALOAD PUSH1 0x24 CALLDATALOAD DUP1 ISZERO ISZERO DUP2 SUB PUSH2 0x4EE JUMPI PUSH1 0x1 SLOAD PUSH1 0x40 MLOAD PUSH4 0x240BC6B PUSH1 0xE2 SHL DUP2 MSTORE SWAP2 SWAP1 PUSH1 0x60 SWAP1 DUP4 SWAP1 PUSH1 0x4 SWAP1 DUP3 SWAP1 PUSH1 0x1 PUSH1 0x1 PUSH1 0xA0 SHL SUB AND GAS STATICCALL SWAP1 DUP2 ISZERO PUSH2 0x2AC JUMPI DUP5 SWAP3 DUP6 SWAP3 PUSH2 0x4B9 JUMPI JUMPDEST POP ISZERO PUSH2 0x481 JUMPI POP PUSH2 0x439 DUP2 ISZERO ISZERO PUSH2 0x126C JUMP JUMPDEST PUSH2 0x2710 DUP3 MUL SWAP3 DUP3 DUP5 DIV PUSH2 0x2710 EQ DUP4 ISZERO OR ISZERO PUSH2 0x46D JUMPI POP SWAP2 PUSH2 0x45F PUSH2 0x465 SWAP3 PUSH1 0x20 SWAP5 PUSH2 0x12B8 JUMP JUMPDEST SWAP1 PUSH2 0x11C3 JUMP JUMPDEST PUSH1 0x40 MLOAD SWAP1 DUP2 MSTORE RETURN JUMPDEST PUSH4 0x4E487B71 PUSH1 0xE0 SHL DUP2 MSTORE PUSH1 0x11 PUSH1 0x4 MSTORE PUSH1 0x24 SWAP1 REVERT JUMPDEST SWAP1 POP PUSH2 0x48E DUP2 ISZERO ISZERO PUSH2 0x126C JUMP JUMPDEST PUSH2 0x2710 DUP3 MUL SWAP3 DUP3 DUP5 DIV PUSH2 0x2710 EQ DUP4 ISZERO OR ISZERO PUSH2 0x46D JUMPI POP SWAP2 PUSH2 0x45F PUSH2 0x4B4 SWAP3 PUSH1 0x20 SWAP5 PUSH2 0x12B8 JUMP JUMPDEST PUSH2 0x465 JUMP JUMPDEST SWAP1 SWAP3 POP PUSH2 0x4DE SWAP2 POP PUSH1 0x60 RETURNDATASIZE PUSH1 0x60 GT PUSH2 0x4E7 JUMPI JUMPDEST PUSH2 0x4D6 DUP2 DUP4 PUSH2 0xFDE JUMP JUMPDEST DUP2 ADD SWAP1 PUSH2 0x1014 JUMP JUMPDEST POP SWAP1 SWAP2 PUSH0 PUSH2 0x427 JUMP JUMPDEST POP RETURNDATASIZE PUSH2 0x4CC JUMP JUMPDEST DUP3 DUP1 REVERT JUMPDEST POP PUSH1 0x60 CALLDATASIZE PUSH1 0x3 NOT ADD SLT PUSH2 0xF2 JUMPI PUSH1 0x24 CALLDATALOAD PUSH1 0x1 PUSH1 0x1 PUSH1 0xA0 SHL SUB DUP2 AND SWAP1 DUP2 SWAP1 SUB PUSH2 0x63B JUMPI PUSH2 0x522 PUSH1 0x44 CALLDATALOAD TIMESTAMP GT ISZERO PUSH2 0x102F JUMP JUMPDEST PUSH2 0x52D CALLVALUE ISZERO ISZERO PUSH2 0x1145 JUMP JUMPDEST PUSH1 0x1 SLOAD PUSH1 0x40 MLOAD PUSH4 0xE2638211 PUSH1 0xE0 SHL DUP2 MSTORE CALLVALUE PUSH1 0x4 DUP3 ADD MSTORE SWAP2 DUP4 SWAP2 PUSH1 0x1 PUSH1 0x1 PUSH1 0xA0 SHL SUB AND PUSH1 0x20 DUP5 PUSH1 0x24 DUP2 DUP5 GAS STATICCALL SWAP4 DUP5 ISZERO PUSH2 0x63F JUMPI DUP4 SWAP5 PUSH2 0x64A JUMPI JUMPDEST POP DUP3 DUP1 DUP1 DUP1 PUSH2 0x58F SWAP5 PUSH2 0x57D PUSH1 0x4 CALLDATALOAD DUP11 LT ISZERO PUSH2 0x10D3 JUMP JUMPDEST CALLVALUE SWAP1 GAS CALL PUSH2 0x589 PUSH2 0x11E1 JUMP JUMPDEST POP PUSH2 0x1220 JUMP JUMPDEST PUSH1 0x1 SLOAD PUSH1 0x1 PUSH1 0x1 PUSH1 0xA0 SHL SUB AND DUP1 EXTCODESIZE ISZERO PUSH2 0x4EE JUMPI PUSH1 0xA4 DUP4 SWAP3 PUSH1 0x40 MLOAD SWAP5 DUP6 SWAP4 DUP5 SWAP3 PUSH4 0x22C0D9F PUSH1 0xE0 SHL DUP5 MSTORE DUP3 PUSH1 0x4 DUP6 ADD MSTORE DUP9 PUSH1 0x24 DUP6 ADD MSTORE PUSH1 0x44 DUP5 ADD MSTORE PUSH1 0x80 PUSH1 0x64 DUP5 ADD MSTORE DUP2 PUSH1 0x84 DUP5 ADD MSTORE GAS CALL DUP1 ISZERO PUSH2 0x63F JUMPI PUSH2 0x626 JUMPI JUMPDEST PUSH1 0x20 DUP3 PUSH1 0x40 MLOAD PUSH1 0x1 DUP2 MSTORE CALLVALUE DUP4 DUP3 ADD MSTORE DUP2 PUSH1 0x40 DUP3 ADD MSTORE PUSH32 0xE467D5FA0F4DFDAC4BF57D810740981998C5A70EA754DAD39A1DB51B4196948A PUSH1 0x60 CALLER SWAP3 LOG2 PUSH1 0x40 MLOAD SWAP1 DUP2 MSTORE RETURN JUMPDEST PUSH2 0x631 DUP4 DUP1 SWAP3 PUSH2 0xFDE JUMP JUMPDEST PUSH2 0x63B JUMPI DUP2 PUSH2 0x5E3 JUMP JUMPDEST POP DUP1 REVERT JUMPDEST PUSH1 0x40 MLOAD RETURNDATASIZE DUP6 DUP3 RETURNDATACOPY RETURNDATASIZE SWAP1 REVERT JUMPDEST SWAP3 POP SWAP3 POP PUSH1 0x20 DUP3 RETURNDATASIZE PUSH1 0x20 GT PUSH2 0x67B JUMPI JUMPDEST DUP2 PUSH2 0x667 PUSH1 0x20 SWAP4 DUP4 PUSH2 0xFDE JUMP JUMPDEST DUP2 ADD SUB SLT PUSH2 0x3B7 JUMPI SWAP1 MLOAD SWAP2 DUP4 SWAP2 SWAP1 DUP3 PUSH2 0x566 JUMP JUMPDEST RETURNDATASIZE SWAP2 POP PUSH2 0x65A JUMP JUMPDEST PUSH1 0x4 PUSH2 0x69F DUP4 PUSH2 0x692 CALLDATASIZE PUSH2 0xF1D JUMP JUMPDEST SWAP7 SWAP4 SWAP6 SWAP1 SWAP7 TIMESTAMP GT ISZERO PUSH2 0x102F JUMP JUMPDEST PUSH2 0x6AA CALLVALUE ISZERO ISZERO PUSH2 0x1145 JUMP JUMPDEST PUSH2 0x6B5 DUP6 ISZERO ISZERO PUSH2 0x107B JUMP JUMPDEST PUSH1 0x1 SLOAD PUSH1 0x40 MLOAD PUSH4 0x240BC6B PUSH1 0xE2 SHL DUP2 MSTORE SWAP4 PUSH1 0x60 SWAP2 DUP6 SWAP2 SWAP1 DUP3 SWAP1 PUSH1 0x1 PUSH1 0x1 PUSH1 0xA0 SHL SUB AND GAS STATICCALL DUP1 ISZERO PUSH2 0x2AC JUMPI DUP5 SWAP4 DUP6 SWAP2 PUSH2 0xA6A JUMPI JUMPDEST POP DUP4 ISZERO DUP1 PUSH2 0xA62 JUMPI JUMPDEST ISZERO PUSH2 0x9B8 JUMPI POP POP POP POP CALLVALUE SWAP2 SWAP3 JUMPDEST PUSH1 0x2 SLOAD PUSH1 0x40 MLOAD PUSH4 0x23B872DD PUSH1 0xE0 SHL DUP2 MSTORE CALLER PUSH1 0x4 DUP3 ADD MSTORE ADDRESS PUSH1 0x24 DUP3 ADD MSTORE PUSH1 0x44 DUP2 ADD DUP7 SWAP1 MSTORE SWAP1 PUSH1 0x20 SWAP1 DUP3 SWAP1 PUSH1 0x64 SWAP1 DUP3 SWAP1 DUP8 SWAP1 PUSH1 0x1 PUSH1 0x1 PUSH1 0xA0 SHL SUB AND GAS CALL DUP1 ISZERO PUSH2 0x63F JUMPI PUSH2 0x99B JUMPI JUMPDEST POP PUSH1 0x2 SLOAD PUSH1 0x1 SLOAD PUSH1 0x40 MLOAD PUSH4 0x95EA7B3 PUSH1 0xE0 SHL DUP2 MSTORE PUSH1 0x1 PUSH1 0x1 PUSH1 0xA0 SHL SUB SWAP2 DUP3 AND PUSH1 0x4 DUP3 ADD MSTORE PUSH1 0x24 DUP2 ADD DUP8 SWAP1 MSTORE SWAP2 PUSH1 0x20 SWAP2 DUP4 SWAP2 PUSH1 0x44 SWAP2 DUP4 SWAP2 DUP9 SWAP2 AND GAS CALL DUP1 ISZERO PUSH2 0x63F JUMPI PUSH2 0x97E JUMPI JUMPDEST POP PUSH2 0x7A8 DUP3 DUP1 DUP1 DUP1 DUP8 PUSH1 0x1 DUP1 PUSH1 0xA0 SHL SUB PUSH1 0x1 SLOAD AND GAS CALL PUSH2 0x589 PUSH2 0x11E1 JUMP JUMPDEST PUSH1 0x2 SLOAD PUSH1 0x1 SLOAD PUSH1 0x40 MLOAD PUSH4 0xA9059CBB PUSH1 0xE0 SHL DUP2 MSTORE PUSH1 0x1 PUSH1 0x1 PUSH1 0xA0 SHL SUB SWAP2 DUP3 AND PUSH1 0x4 DUP3 ADD MSTORE PUSH1 0x24 DUP2 ADD DUP8 SWAP1 MSTORE SWAP2 PUSH1 0x20 SWAP2 DUP4 SWAP2 PUSH1 0x44 SWAP2 DUP4 SWAP2 DUP9 SWAP2 AND GAS CALL DUP1 ISZERO PUSH2 0x63F JUMPI SWAP2 PUSH1 0x20 SWAP2 DUP5 SWAP4 PUSH2 0x963 JUMPI JUMPDEST POP PUSH1 0x1 SLOAD PUSH1 0x40 MLOAD PUSH4 0x35313C21 PUSH1 0xE1 SHL DUP2 MSTORE PUSH1 0x1 PUSH1 0x1 PUSH1 0xA0 SHL SUB SWAP3 DUP4 AND PUSH1 0x4 DUP3 ADD MSTORE SWAP5 DUP6 SWAP3 PUSH1 0x24 SWAP3 DUP5 SWAP3 SWAP2 AND GAS CALL SWAP2 DUP3 ISZERO PUSH2 0x956 JUMPI DUP2 SWAP3 PUSH2 0x922 JUMPI JUMPDEST POP DUP3 CALLVALUE GT PUSH2 0x8A4 JUMPI JUMPDEST POP PUSH2 0x8A0 SWAP1 PUSH1 0x40 MLOAD PUSH32 0x64B83944E79C3CE8D4C297411DE637C3E102D064677AAC0C163976EBDCD6F50E CALLER SWAP2 DUP1 PUSH2 0x880 DUP6 DUP10 DUP10 DUP5 PUSH1 0x40 SWAP2 SWAP5 SWAP4 SWAP3 PUSH1 0x60 DUP3 ADD SWAP6 DUP3 MSTORE PUSH1 0x20 DUP3 ADD MSTORE ADD MSTORE JUMP JUMPDEST SUB SWAP1 LOG2 PUSH1 0x40 MLOAD SWAP4 DUP5 SWAP4 DUP5 PUSH1 0x40 SWAP2 SWAP5 SWAP4 SWAP3 PUSH1 0x60 DUP3 ADD SWAP6 DUP3 MSTORE PUSH1 0x20 DUP3 ADD MSTORE ADD MSTORE JUMP JUMPDEST SUB SWAP1 RETURN JUMPDEST DUP3 CALLVALUE SUB CALLVALUE DUP2 GT PUSH2 0x90E JUMPI DUP2 DUP1 DUP1 SWAP3 CALLER GAS CALL PUSH2 0x8BD PUSH2 0x11E1 JUMP JUMPDEST POP ISZERO PUSH2 0x8C9 JUMPI DUP4 PUSH2 0x837 JUMP JUMPDEST PUSH1 0x40 MLOAD PUSH3 0x461BCD PUSH1 0xE5 SHL DUP2 MSTORE PUSH1 0x20 PUSH1 0x4 DUP3 ADD MSTORE PUSH1 0x1C PUSH1 0x24 DUP3 ADD MSTORE PUSH32 0x414D4D526F757465723A2054525820726566756E64206661696C656400000000 PUSH1 0x44 DUP3 ADD MSTORE PUSH1 0x64 SWAP1 REVERT JUMPDEST PUSH4 0x4E487B71 PUSH1 0xE0 SHL DUP3 MSTORE PUSH1 0x11 PUSH1 0x4 MSTORE PUSH1 0x24 DUP3 REVERT JUMPDEST SWAP1 SWAP2 POP PUSH1 0x20 DUP2 RETURNDATASIZE PUSH1 0x20 GT PUSH2 0x94E JUMPI JUMPDEST DUP2 PUSH2 0x93E PUSH1 0x20 SWAP4 DUP4 PUSH2 0xFDE JUMP JUMPDEST DUP2 ADD SUB SLT PUSH2 0x3B7 JUMPI MLOAD SWAP1 DUP5 PUSH2 0x82E JUMP JUMPDEST RETURNDATASIZE SWAP2 POP PUSH2 0x931 JUMP JUMPDEST POP PUSH1 0x40 MLOAD SWAP1 RETURNDATASIZE SWAP1 DUP3 RETURNDATACOPY RETURNDATASIZE SWAP1 REVERT JUMPDEST PUSH2 0x979 SWAP1 DUP4 RETURNDATASIZE DUP6 GT PUSH2 0x2DD JUMPI PUSH2 0x2D0 DUP2 DUP4 PUSH2 0xFDE JUMP JUMPDEST PUSH2 0x7F3 JUMP JUMPDEST PUSH2 0x996 SWAP1 PUSH1 0x20 RETURNDATASIZE PUSH1 0x20 GT PUSH2 0x2DD JUMPI PUSH2 0x2D0 DUP2 DUP4 PUSH2 0xFDE JUMP JUMPDEST PUSH2 0x78A JUMP JUMPDEST PUSH2 0x9B3 SWAP1 PUSH1 0x20 RETURNDATASIZE PUSH1 0x20 GT PUSH2 0x2DD JUMPI PUSH2 0x2D0 DUP2 DUP4 PUSH2 0xFDE JUMP JUMPDEST PUSH2 0x744 JUMP JUMPDEST PUSH2 0x9CF DUP5 PUSH2 0x9CA DUP4 SWAP9 SWAP6 SWAP7 SWAP9 CALLVALUE PUSH2 0x119C JUMP JUMPDEST PUSH2 0x11C3 JUMP JUMPDEST SWAP6 DUP4 DUP8 GT PUSH2 0x9EF JUMPI POP POP POP POP PUSH2 0x9E7 SWAP1 DUP4 LT ISZERO PUSH2 0x107B JUMP JUMPDEST CALLVALUE SWAP2 SWAP3 PUSH2 0x6FE JUMP JUMPDEST DUP4 PUSH2 0xA02 SWAP5 SWAP8 POP PUSH2 0x9CA SWAP3 SWAP4 SWAP6 POP PUSH2 0x119C JUMP JUMPDEST SWAP1 CALLVALUE DUP3 GT PUSH2 0xA1D JUMPI PUSH2 0xA16 SWAP1 DUP3 LT ISZERO PUSH2 0x1145 JUMP JUMPDEST SWAP2 SWAP3 PUSH2 0x6FE JUMP JUMPDEST PUSH1 0x40 MLOAD PUSH3 0x461BCD PUSH1 0xE5 SHL DUP2 MSTORE PUSH1 0x20 PUSH1 0x4 DUP3 ADD MSTORE PUSH1 0x1F PUSH1 0x24 DUP3 ADD MSTORE PUSH32 0x414D4D526F757465723A206578636573736976652054525820616D6F756E7400 PUSH1 0x44 DUP3 ADD MSTORE PUSH1 0x64 SWAP1 REVERT JUMPDEST POP DUP1 ISZERO PUSH2 0x6F1 JUMP JUMPDEST SWAP1 POP PUSH2 0xA86 SWAP2 SWAP4 POP PUSH1 0x60 RETURNDATASIZE PUSH1 0x60 GT PUSH2 0x4E7 JUMPI PUSH2 0x4D6 DUP2 DUP4 PUSH2 0xFDE JUMP JUMPDEST POP SWAP3 SWAP1 SWAP3 DUP8 PUSH2 0x6E8 JUMP JUMPDEST POP CALLVALUE PUSH2 0xF2 JUMPI DUP1 PUSH1 0x3 NOT CALLDATASIZE ADD SLT PUSH2 0xF2 JUMPI SLOAD PUSH1 0x40 MLOAD PUSH1 0x1 PUSH1 0x1 PUSH1 0xA0 SHL SUB SWAP1 SWAP2 AND DUP2 MSTORE PUSH1 0x20 SWAP1 RETURN JUMPDEST POP CALLVALUE PUSH2 0xF2 JUMPI DUP1 PUSH1 0x3 NOT CALLDATASIZE ADD SLT PUSH2 0xF2 JUMPI PUSH1 0x3 SLOAD PUSH1 0x40 MLOAD PUSH1 0x1 PUSH1 0x1 PUSH1 0xA0 SHL SUB SWAP1 SWAP2 AND DUP2 MSTORE PUSH1 0x20 SWAP1 RETURN JUMPDEST POP CALLVALUE PUSH2 0xF2 JUMPI PUSH1 0x20 CALLDATASIZE PUSH1 0x3 NOT ADD SLT PUSH2 0xF2 JUMPI PUSH1 0x1 SLOAD PUSH1 0x40 MLOAD PUSH4 0x4A35BD49 PUSH1 0xE1 SHL DUP2 MSTORE PUSH1 0x4 DUP1 CALLDATALOAD SWAP1 DUP3 ADD MSTORE SWAP2 SWAP1 PUSH1 0x20 SWAP1 DUP4 SWAP1 PUSH1 0x24 SWAP1 DUP3 SWAP1 PUSH1 0x1 PUSH1 0x1 PUSH1 0xA0 SHL SUB AND GAS STATICCALL SWAP1 DUP2 ISZERO PUSH2 0x3C3 JUMPI SWAP1 PUSH2 0x38C JUMPI PUSH1 0x20 SWAP1 PUSH1 0x40 MLOAD SWAP1 DUP2 MSTORE RETURN JUMPDEST POP CALLVALUE PUSH2 0x3B7 JUMPI PUSH1 0x80 CALLDATASIZE PUSH1 0x3 NOT ADD SLT PUSH2 0x3B7 JUMPI PUSH1 0x44 CALLDATALOAD PUSH1 0x1 PUSH1 0x1 PUSH1 0xA0 SHL SUB DUP2 AND SWAP2 PUSH1 0x4 CALLDATALOAD SWAP2 DUP4 SWAP1 SUB PUSH2 0x3B7 JUMPI PUSH2 0xB71 PUSH1 0x64 CALLDATALOAD TIMESTAMP GT ISZERO PUSH2 0x102F JUMP JUMPDEST PUSH2 0xB7C DUP3 ISZERO ISZERO PUSH2 0x107B JUMP JUMPDEST PUSH1 0x1 SLOAD PUSH1 0x40 MLOAD PUSH4 0x4A35BD49 PUSH1 0xE1 SHL DUP2 MSTORE PUSH1 0x4 DUP2 ADD DUP5 SWAP1 MSTORE SWAP3 SWAP1 PUSH1 0x1 PUSH1 0x1 PUSH1 0xA0 SHL SUB AND PUSH1 0x20 DUP5 PUSH1 0x24 DUP2 DUP5 GAS STATICCALL SWAP4 DUP5 ISZERO PUSH2 0xCCD JUMPI PUSH0 SWAP5 PUSH2 0xCF5 JUMPI JUMPDEST POP PUSH1 0x20 DUP3 PUSH2 0xC0E SWAP3 PUSH2 0xBCB PUSH1 0x24 CALLDATALOAD DUP9 LT ISZERO PUSH2 0x10D3 JUMP JUMPDEST PUSH1 0x2 SLOAD PUSH1 0x40 MLOAD PUSH4 0x23B872DD PUSH1 0xE0 SHL DUP2 MSTORE CALLER PUSH1 0x4 DUP3 ADD MSTORE PUSH1 0x1 PUSH1 0x1 PUSH1 0xA0 SHL SUB SWAP3 DUP4 AND PUSH1 0x24 DUP3 ADD MSTORE PUSH1 0x44 DUP2 ADD SWAP4 SWAP1 SWAP4 MSTORE SWAP2 SWAP4 DUP5 SWAP3 SWAP1 SWAP2 AND SWAP1 DUP3 SWAP1 PUSH0 SWAP1 DUP3 SWAP1 PUSH1 0x64 DUP3 ADD SWAP1 JUMP JUMPDEST SUB SWAP3 GAS CALL DUP1 ISZERO PUSH2 0xCCD JUMPI PUSH2 0xCD8 JUMPI JUMPDEST POP PUSH1 0x1 SLOAD PUSH1 0x1 PUSH1 0x1 PUSH1 0xA0 SHL SUB AND SWAP4 DUP5 EXTCODESIZE ISZERO PUSH2 0x3B7 JUMPI PUSH0 SWAP5 PUSH1 0xA4 DUP7 SWAP3 PUSH1 0x40 MLOAD SWAP8 DUP9 SWAP4 DUP5 SWAP3 PUSH4 0x22C0D9F PUSH1 0xE0 SHL DUP5 MSTORE DUP10 PUSH1 0x4 DUP6 ADD MSTORE DUP3 PUSH1 0x24 DUP6 ADD MSTORE PUSH1 0x44 DUP5 ADD MSTORE PUSH1 0x80 PUSH1 0x64 DUP5 ADD MSTORE DUP2 PUSH1 0x84 DUP5 ADD MSTORE GAS CALL SWAP4 DUP5 ISZERO PUSH2 0xCCD JUMPI PUSH1 0x20 SWAP5 PUSH2 0xCB8 JUMPI JUMPDEST POP PUSH1 0x40 MLOAD SWAP2 DUP3 MSTORE DUP4 DUP3 ADD MSTORE DUP2 PUSH1 0x40 DUP3 ADD MSTORE PUSH32 0xE467D5FA0F4DFDAC4BF57D810740981998C5A70EA754DAD39A1DB51B4196948A PUSH1 0x60 CALLER SWAP3 LOG2 PUSH1 0x40 MLOAD SWAP1 DUP2 MSTORE RETURN JUMPDEST PUSH2 0xCC5 SWAP2 SWAP3 POP PUSH0 SWAP1 PUSH2 0xFDE JUMP JUMPDEST PUSH0 SWAP1 PUSH0 PUSH2 0xC79 JUMP JUMPDEST PUSH1 0x40 MLOAD RETURNDATASIZE PUSH0 DUP3 RETURNDATACOPY RETURNDATASIZE SWAP1 REVERT JUMPDEST PUSH2 0xCF0 SWAP1 PUSH1 0x20 RETURNDATASIZE PUSH1 0x20 GT PUSH2 0x2DD JUMPI PUSH2 0x2D0 DUP2 DUP4 PUSH2 0xFDE JUMP JUMPDEST PUSH2 0xC1D JUMP JUMPDEST SWAP1 SWAP4 POP PUSH1 0x20 DUP2 RETURNDATASIZE PUSH1 0x20 GT PUSH2 0xD22 JUMPI JUMPDEST DUP2 PUSH2 0xD11 PUSH1 0x20 SWAP4 DUP4 PUSH2 0xFDE JUMP JUMPDEST DUP2 ADD SUB SLT PUSH2 0x3B7 JUMPI MLOAD SWAP3 PUSH1 0x20 PUSH2 0xBB5 JUMP JUMPDEST RETURNDATASIZE SWAP2 POP PUSH2 0xD04 JUMP JUMPDEST CALLVALUE PUSH2 0x3B7 JUMPI PUSH0 CALLDATASIZE PUSH1 0x3 NOT ADD SLT PUSH2 0x3B7 JUMPI PUSH1 0x1 SLOAD PUSH1 0x40 MLOAD PUSH4 0x240BC6B PUSH1 0xE2 SHL DUP2 MSTORE PUSH0 SWAP2 PUSH1 0x1 PUSH1 0x1 PUSH1 0xA0 SHL SUB AND PUSH1 0x60 DUP3 PUSH1 0x4 DUP2 DUP5 GAS STATICCALL SWAP3 DUP4 ISZERO PUSH2 0xCCD JUMPI PUSH0 SWAP3 PUSH0 SWAP5 PUSH2 0xDFB JUMPI JUMPDEST POP DUP3 PUSH2 0xD97 JUMPI JUMPDEST PUSH2 0x8A0 SWAP2 POP PUSH1 0x40 MLOAD SWAP4 DUP5 SWAP4 DUP5 PUSH1 0x40 SWAP2 SWAP5 SWAP4 SWAP3 PUSH1 0x60 DUP3 ADD SWAP6 DUP3 MSTORE PUSH1 0x20 DUP3 ADD MSTORE ADD MSTORE JUMP JUMPDEST POP PUSH1 0x20 PUSH1 0x4 SWAP2 PUSH1 0x40 MLOAD SWAP3 DUP4 DUP1 SWAP3 PUSH4 0x75C8E9BF PUSH1 0xE1 SHL DUP3 MSTORE GAS STATICCALL DUP1 ISZERO PUSH2 0xCCD JUMPI PUSH0 SWAP1 PUSH2 0xDC7 JUMPI JUMPDEST PUSH2 0x8A0 SWAP2 POP PUSH2 0xD75 JUMP JUMPDEST POP PUSH1 0x20 DUP2 RETURNDATASIZE PUSH1 0x20 GT PUSH2 0xDF3 JUMPI JUMPDEST DUP2 PUSH2 0xDE1 PUSH1 0x20 SWAP4 DUP4 PUSH2 0xFDE JUMP JUMPDEST DUP2 ADD SUB SLT PUSH2 0x3B7 JUMPI PUSH2 0x8A0 SWAP1 MLOAD PUSH2 0xDBD JUMP JUMPDEST RETURNDATASIZE SWAP2 POP PUSH2 0xDD4 JUMP JUMPDEST SWAP1 SWAP4 POP PUSH2 0xE18 SWAP2 SWAP3 POP PUSH1 0x60 RETURNDATASIZE PUSH1 0x60 GT PUSH2 0x4E7 JUMPI PUSH2 0x4D6 DUP2 DUP4 PUSH2 0xFDE JUMP JUMPDEST POP SWAP2 SWAP1 SWAP2 SWAP3 DUP5 PUSH2 0xD6E JUMP JUMPDEST CALLVALUE PUSH2 0x3B7 JUMPI PUSH1 0x20 CALLDATASIZE PUSH1 0x3 NOT ADD SLT PUSH2 0x3B7 JUMPI PUSH2 0xE3C PUSH2 0xF07 JUMP JUMPDEST PUSH2 0xE51 PUSH1 0x1 DUP1 PUSH1 0xA0 SHL SUB PUSH1 0x3 SLOAD AND CALLER EQ PUSH2 0xF4F JUMP JUMPDEST PUSH1 0x1 PUSH1 0x1 PUSH1 0xA0 SHL SUB AND PUSH2 0xE65 DUP2 ISZERO ISZERO PUSH2 0xF92 JUMP JUMPDEST PUSH12 0xFFFFFFFFFFFFFFFFFFFFFFFF PUSH1 0xA0 SHL PUSH1 0x1 SLOAD AND OR PUSH1 0x1 SSTORE PUSH0 DUP1 RETURN JUMPDEST CALLVALUE PUSH2 0x3B7 JUMPI PUSH0 CALLDATASIZE PUSH1 0x3 NOT ADD SLT PUSH2 0x3B7 JUMPI PUSH1 0x1 SLOAD PUSH1 0x40 MLOAD PUSH1 0x1 PUSH1 0x1 PUSH1 0xA0 SHL SUB SWAP1 SWAP2 AND DUP2 MSTORE PUSH1 0x20 SWAP1 RETURN JUMPDEST CALLVALUE PUSH2 0x3B7 JUMPI PUSH1 0x20 CALLDATASIZE PUSH1 0x3 NOT ADD SLT PUSH2 0x3B7 JUMPI PUSH2 0xEC2 PUSH2 0xF07 JUMP JUMPDEST PUSH2 0xED7 PUSH1 0x1 DUP1 PUSH1 0xA0 SHL SUB PUSH1 0x3 SLOAD AND CALLER EQ PUSH2 0xF4F JUMP JUMPDEST PUSH1 0x1 PUSH1 0x1 PUSH1 0xA0 SHL SUB AND PUSH2 0xEEB DUP2 ISZERO ISZERO PUSH2 0xF92 JUMP JUMPDEST PUSH12 0xFFFFFFFFFFFFFFFFFFFFFFFF PUSH1 0xA0 SHL PUSH1 0x2 SLOAD AND OR PUSH1 0x2 SSTORE PUSH0 DUP1 RETURN JUMPDEST PUSH1 0x4 CALLDATALOAD SWAP1 PUSH1 0x1 PUSH1 0x1 PUSH1 0xA0 SHL SUB DUP3 AND DUP3 SUB PUSH2 0x3B7 JUMPI JUMP JUMPDEST PUSH1 0xA0 SWAP1 PUSH1 0x3 NOT ADD SLT PUSH2 0x3B7 JUMPI PUSH1 0x4 CALLDATALOAD SWAP1 PUSH1 0x24 CALLDATALOAD SWAP1 PUSH1 0x44 CALLDATALOAD SWAP1 PUSH1 0x64 CALLDATALOAD PUSH1 0x1 PUSH1 0x1 PUSH1 0xA0 SHL SUB DUP2 AND DUP2 SUB PUSH2 0x3B7 JUMPI SWAP1 PUSH1 0x84 CALLDATALOAD SWAP1 JUMP JUMPDEST ISZERO PUSH2 0xF56 JUMPI JUMP JUMPDEST PUSH1 0x40 MLOAD PUSH3 0x461BCD PUSH1 0xE5 SHL DUP2 MSTORE PUSH1 0x20 PUSH1 0x4 DUP3 ADD MSTORE PUSH1 0x14 PUSH1 0x24 DUP3 ADD MSTORE PUSH20 0x20A6A6A937BABA32B91D103737BA1037BBB732B9 PUSH1 0x61 SHL PUSH1 0x44 DUP3 ADD MSTORE PUSH1 0x64 SWAP1 REVERT JUMPDEST ISZERO PUSH2 0xF99 JUMPI JUMP JUMPDEST PUSH1 0x40 MLOAD PUSH3 0x461BCD PUSH1 0xE5 SHL DUP2 MSTORE PUSH1 0x20 PUSH1 0x4 DUP3 ADD MSTORE PUSH1 0x17 PUSH1 0x24 DUP3 ADD MSTORE PUSH32 0x414D4D526F757465723A207A65726F2061646472657373000000000000000000 PUSH1 0x44 DUP3 ADD MSTORE PUSH1 0x64 SWAP1 REVERT JUMPDEST SWAP1 PUSH1 0x1F DUP1 NOT SWAP2 ADD AND DUP2 ADD SWAP1 DUP2 LT PUSH8 0xFFFFFFFFFFFFFFFF DUP3 GT OR PUSH2 0x1000 JUMPI PUSH1 0x40 MSTORE JUMP JUMPDEST PUSH4 0x4E487B71 PUSH1 0xE0 SHL PUSH0 MSTORE PUSH1 0x41 PUSH1 0x4 MSTORE PUSH1 0x24 PUSH0 REVERT JUMPDEST SWAP1 DUP2 PUSH1 0x60 SWAP2 SUB SLT PUSH2 0x3B7 JUMPI DUP1 MLOAD SWAP2 PUSH1 0x40 PUSH1 0x20 DUP4 ADD MLOAD SWAP3 ADD MLOAD SWAP1 JUMP JUMPDEST ISZERO PUSH2 0x1036 JUMPI JUMP JUMPDEST PUSH1 0x40 MLOAD PUSH3 0x461BCD PUSH1 0xE5 SHL DUP2 MSTORE PUSH1 0x20 PUSH1 0x4 DUP3 ADD MSTORE PUSH1 0x1B PUSH1 0x24 DUP3 ADD MSTORE PUSH32 0x414D4D526F757465723A206578706972656420646561646C696E650000000000 PUSH1 0x44 DUP3 ADD MSTORE PUSH1 0x64 SWAP1 REVERT JUMPDEST ISZERO PUSH2 0x1082 JUMPI JUMP JUMPDEST PUSH1 0x40 MLOAD PUSH3 0x461BCD PUSH1 0xE5 SHL DUP2 MSTORE PUSH1 0x20 PUSH1 0x4 DUP3 ADD MSTORE PUSH1 0x23 PUSH1 0x24 DUP3 ADD MSTORE PUSH32 0x414D4D526F757465723A20696E73756666696369656E74204348495020616D6F PUSH1 0x44 DUP3 ADD MSTORE PUSH3 0x1D5B9D PUSH1 0xEA SHL PUSH1 0x64 DUP3 ADD MSTORE PUSH1 0x84 SWAP1 REVERT JUMPDEST ISZERO PUSH2 0x10DA JUMPI JUMP JUMPDEST PUSH1 0x40 MLOAD PUSH3 0x461BCD PUSH1 0xE5 SHL DUP2 MSTORE PUSH1 0x20 PUSH1 0x4 DUP3 ADD MSTORE PUSH1 0x25 PUSH1 0x24 DUP3 ADD MSTORE PUSH32 0x414D4D526F757465723A20696E73756666696369656E74206F75747075742061 PUSH1 0x44 DUP3 ADD MSTORE PUSH5 0x1B5BDD5B9D PUSH1 0xDA SHL PUSH1 0x64 DUP3 ADD MSTORE PUSH1 0x84 SWAP1 REVERT JUMPDEST SWAP1 DUP2 PUSH1 0x20 SWAP2 SUB SLT PUSH2 0x3B7 JUMPI MLOAD DUP1 ISZERO ISZERO DUP2 SUB PUSH2 0x3B7 JUMPI SWAP1 JUMP JUMPDEST ISZERO PUSH2 0x114C JUMPI JUMP JUMPDEST PUSH1 0x40 MLOAD PUSH3 0x461BCD PUSH1 0xE5 SHL DUP2 MSTORE PUSH1 0x20 PUSH1 0x4 DUP3 ADD MSTORE PUSH1 0x22 PUSH1 0x24 DUP3 ADD MSTORE PUSH32 0x414D4D526F757465723A20696E73756666696369656E742054525820616D6F75 PUSH1 0x44 DUP3 ADD MSTORE PUSH2 0x1B9D PUSH1 0xF2 SHL PUSH1 0x64 DUP3 ADD MSTORE PUSH1 0x84 SWAP1 REVERT JUMPDEST DUP2 DUP2 MUL SWAP3 SWAP2 DUP2 ISZERO SWAP2 DUP5 DIV EQ OR ISZERO PUSH2 0x11AF JUMPI JUMP JUMPDEST PUSH4 0x4E487B71 PUSH1 0xE0 SHL PUSH0 MSTORE PUSH1 0x11 PUSH1 0x4 MSTORE PUSH1 0x24 PUSH0 REVERT JUMPDEST DUP2 ISZERO PUSH2 0x11CD JUMPI DIV SWAP1 JUMP JUMPDEST PUSH4 0x4E487B71 PUSH1 0xE0 SHL PUSH0 MSTORE PUSH1 0x12 PUSH1 0x4 MSTORE PUSH1 0x24 PUSH0 REVERT JUMPDEST RETURNDATASIZE ISZERO PUSH2 0x121B JUMPI RETURNDATASIZE SWAP1 PUSH8 0xFFFFFFFFFFFFFFFF DUP3 GT PUSH2 0x1000 JUMPI PUSH1 0x40 MLOAD SWAP2 PUSH2 0x1210 PUSH1 0x1F DUP3 ADD PUSH1 0x1F NOT AND PUSH1 0x20 ADD DUP5 PUSH2 0xFDE JUMP JUMPDEST DUP3 MSTORE RETURNDATASIZE PUSH0 PUSH1 0x20 DUP5 ADD RETURNDATACOPY JUMP JUMPDEST PUSH1 0x60 SWAP1 JUMP JUMPDEST ISZERO PUSH2 0x1227 JUMPI JUMP JUMPDEST PUSH1 0x40 MLOAD PUSH3 0x461BCD PUSH1 0xE5 SHL DUP2 MSTORE PUSH1 0x20 PUSH1 0x4 DUP3 ADD MSTORE PUSH1 0x1E PUSH1 0x24 DUP3 ADD MSTORE PUSH32 0x414D4D526F757465723A20545258207472616E73666572206661696C65640000 PUSH1 0x44 DUP3 ADD MSTORE PUSH1 0x64 SWAP1 REVERT JUMPDEST ISZERO PUSH2 0x1273 JUMPI JUMP JUMPDEST PUSH1 0x40 MLOAD PUSH3 0x461BCD PUSH1 0xE5 SHL DUP2 MSTORE PUSH1 0x20 PUSH1 0x4 DUP3 ADD MSTORE PUSH1 0x17 PUSH1 0x24 DUP3 ADD MSTORE PUSH32 0x414D4D526F757465723A206E6F206C6971756964697479000000000000000000 PUSH1 0x44 DUP3 ADD MSTORE PUSH1 0x64 SWAP1 REVERT JUMPDEST SWAP2 SWAP1 DUP3 ADD DUP1 SWAP3 GT PUSH2 0x11AF JUMPI JUMP INVALID LOG2 PUSH5 0x6970667358 0x22 SLT KECCAK256 0xB7 0xA9 0xB2 0xC3 PUSH32 0xC49004715FA85677F48467C937F1A674B969D0BFDBCC0D37029A1A64736F6C63 NUMBER STOP ADDMOD SHL STOP CALLER "},"methodIdentifiers":{"addLiquidity(uint256,uint256,uint256,address,uint256)":"c4dbea95","factory()":"c45a0155","getPoolInfo()":"60246c88","getPriceImpact(uint256,bool)":"d2e7b978","owner()":"8da5cb5b","pool()":"16f0115b","quoteCHIPToTRX(uint256)":"8ac29bbe","quoteTRXToCHIP(uint256)":"e30c8f54","removeLiquidity(uint256,uint256,uint256,address,uint256)":"ed856cdc","setPool(address)":"4437152a","setToken(address)":"144fa6d7","swapCHIPForTRX(uint256,uint256,address,uint256)":"859d21f4","swapTRXForCHIP(uint256,address,uint256)":"c768f723","token()":"fc0c546a","transferOwnership(address)":"f2fde38b"}}}}}