{"contracts/AMMPool.sol":{"AMMPool":{"abi":[{"inputs":[{"internalType":"address","name":"_token","type":"address"}],"stateMutability":"nonpayable","type":"constructor"},{"anonymous":false,"inputs":[{"indexed":true,"internalType":"address","name":"owner","type":"address"},{"indexed":true,"internalType":"address","name":"spender","type":"address"},{"indexed":false,"internalType":"uint256","name":"value","type":"uint256"}],"name":"Approval","type":"event"},{"anonymous":false,"inputs":[{"indexed":true,"internalType":"address","name":"sender","type":"address"},{"indexed":false,"internalType":"uint256","name":"amount0","type":"uint256"},{"indexed":false,"internalType":"uint256","name":"amount1","type":"uint256"},{"indexed":false,"internalType":"uint256","name":"liquidity","type":"uint256"}],"name":"Burn","type":"event"},{"anonymous":false,"inputs":[{"indexed":true,"internalType":"address","name":"sender","type":"address"},{"indexed":false,"internalType":"uint256","name":"amount0","type":"uint256"},{"indexed":false,"internalType":"uint256","name":"amount1","type":"uint256"},{"indexed":false,"internalType":"uint256","name":"liquidity","type":"uint256"}],"name":"Mint","type":"event"},{"anonymous":false,"inputs":[{"indexed":false,"internalType":"bool","name":"paused","type":"bool"}],"name":"PauseChanged","type":"event"},{"anonymous":false,"inputs":[{"indexed":true,"internalType":"address","name":"sender","type":"address"},{"indexed":false,"internalType":"uint256","name":"amount0In","type":"uint256"},{"indexed":false,"internalType":"uint256","name":"amount1In","type":"uint256"},{"indexed":false,"internalType":"uint256","name":"amount0Out","type":"uint256"},{"indexed":false,"internalType":"uint256","name":"amount1Out","type":"uint256"},{"indexed":true,"internalType":"address","name":"to","type":"address"}],"name":"Swap","type":"event"},{"anonymous":false,"inputs":[{"indexed":false,"internalType":"uint256","name":"reserve0","type":"uint256"},{"indexed":false,"internalType":"uint256","name":"reserve1","type":"uint256"}],"name":"Sync","type":"event"},{"anonymous":false,"inputs":[{"indexed":true,"internalType":"address","name":"from","type":"address"},{"indexed":true,"internalType":"address","name":"to","type":"address"},{"indexed":false,"internalType":"uint256","name":"value","type":"uint256"}],"name":"Transfer","type":"event"},{"inputs":[],"name":"FEE_DENOMINATOR","outputs":[{"internalType":"uint256","name":"","type":"uint256"}],"stateMutability":"view","type":"function"},{"inputs":[],"name":"FEE_NUMERATOR","outputs":[{"internalType":"uint256","name":"","type":"uint256"}],"stateMutability":"view","type":"function"},{"inputs":[],"name":"MINIMUM_LIQUIDITY","outputs":[{"internalType":"uint256","name":"","type":"uint256"}],"stateMutability":"view","type":"function"},{"inputs":[{"internalType":"address","name":"","type":"address"},{"internalType":"address","name":"","type":"address"}],"name":"allowance","outputs":[{"internalType":"uint256","name":"","type":"uint256"}],"stateMutability":"view","type":"function"},{"inputs":[{"internalType":"address","name":"spender","type":"address"},{"internalType":"uint256","name":"value","type":"uint256"}],"name":"approve","outputs":[{"internalType":"bool","name":"","type":"bool"}],"stateMutability":"nonpayable","type":"function"},{"inputs":[{"internalType":"address","name":"","type":"address"}],"name":"balanceOf","outputs":[{"internalType":"uint256","name":"","type":"uint256"}],"stateMutability":"view","type":"function"},{"inputs":[],"name":"blockTimestampLast","outputs":[{"internalType":"uint32","name":"","type":"uint32"}],"stateMutability":"view","type":"function"},{"inputs":[{"internalType":"address","name":"to","type":"address"}],"name":"burn","outputs":[{"internalType":"uint256","name":"amount0","type":"uint256"},{"internalType":"uint256","name":"amount1","type":"uint256"}],"stateMutability":"nonpayable","type":"function"},{"inputs":[],"name":"decimals","outputs":[{"internalType":"uint8","name":"","type":"uint8"}],"stateMutability":"view","type":"function"},{"inputs":[{"internalType":"uint256","name":"amountIn","type":"uint256"}],"name":"getAmountOutCHIPToTRX","outputs":[{"internalType":"uint256","name":"amountOut","type":"uint256"}],"stateMutability":"view","type":"function"},{"inputs":[{"internalType":"uint256","name":"amountIn","type":"uint256"}],"name":"getAmountOutTRXToCHIP","outputs":[{"internalType":"uint256","name":"amountOut","type":"uint256"}],"stateMutability":"view","type":"function"},{"inputs":[],"name":"getCurrentPrice","outputs":[{"internalType":"uint256","name":"price","type":"uint256"}],"stateMutability":"view","type":"function"},{"inputs":[],"name":"getReserves","outputs":[{"internalType":"uint256","name":"_reserveTRX","type":"uint256"},{"internalType":"uint256","name":"_reserveCHIP","type":"uint256"},{"internalType":"uint32","name":"_blockTimestampLast","type":"uint32"}],"stateMutability":"view","type":"function"},{"inputs":[],"name":"kLast","outputs":[{"internalType":"uint256","name":"","type":"uint256"}],"stateMutability":"view","type":"function"},{"inputs":[{"internalType":"address","name":"to","type":"address"}],"name":"mint","outputs":[{"internalType":"uint256","name":"liquidity","type":"uint256"}],"stateMutability":"nonpayable","type":"function"},{"inputs":[],"name":"name","outputs":[{"internalType":"string","name":"","type":"string"}],"stateMutability":"view","type":"function"},{"inputs":[],"name":"owner","outputs":[{"internalType":"address","name":"","type":"address"}],"stateMutability":"view","type":"function"},{"inputs":[],"name":"paused","outputs":[{"internalType":"bool","name":"","type":"bool"}],"stateMutability":"view","type":"function"},{"inputs":[],"name":"price0CumulativeLast","outputs":[{"internalType":"uint256","name":"","type":"uint256"}],"stateMutability":"view","type":"function"},{"inputs":[],"name":"price1CumulativeLast","outputs":[{"internalType":"uint256","name":"","type":"uint256"}],"stateMutability":"view","type":"function"},{"inputs":[],"name":"reserveCHIP","outputs":[{"internalType":"uint256","name":"","type":"uint256"}],"stateMutability":"view","type":"function"},{"inputs":[],"name":"reserveTRX","outputs":[{"internalType":"uint256","name":"","type":"uint256"}],"stateMutability":"view","type":"function"},{"inputs":[{"internalType":"bool","name":"_paused","type":"bool"}],"name":"setPause","outputs":[],"stateMutability":"nonpayable","type":"function"},{"inputs":[{"internalType":"uint256","name":"amount0Out","type":"uint256"},{"internalType":"uint256","name":"amount1Out","type":"uint256"},{"internalType":"address","name":"to","type":"address"},{"internalType":"bytes","name":"data","type":"bytes"}],"name":"swap","outputs":[],"stateMutability":"nonpayable","type":"function"},{"inputs":[],"name":"symbol","outputs":[{"internalType":"string","name":"","type":"string"}],"stateMutability":"view","type":"function"},{"inputs":[],"name":"sync","outputs":[],"stateMutability":"nonpayable","type":"function"},{"inputs":[],"name":"token","outputs":[{"internalType":"address","name":"","type":"address"}],"stateMutability":"view","type":"function"},{"inputs":[],"name":"totalSupply","outputs":[{"internalType":"uint256","name":"","type":"uint256"}],"stateMutability":"view","type":"function"},{"inputs":[{"internalType":"address","name":"to","type":"address"},{"internalType":"uint256","name":"value","type":"uint256"}],"name":"transfer","outputs":[{"internalType":"bool","name":"","type":"bool"}],"stateMutability":"nonpayable","type":"function"},{"inputs":[{"internalType":"address","name":"from","type":"address"},{"internalType":"address","name":"to","type":"address"},{"internalType":"uint256","name":"value","type":"uint256"}],"name":"transferFrom","outputs":[{"internalType":"bool","name":"","type":"bool"}],"stateMutability":"nonpayable","type":"function"},{"inputs":[{"internalType":"address","name":"newOwner","type":"address"}],"name":"transferOwnership","outputs":[],"stateMutability":"nonpayable","type":"function"},{"stateMutability":"payable","type":"receive"}],"evm":{"bytecode":{"linkReferences":{},"object":"608034608f57601f61193238819003918201601f19168301916001600160401b03831184841017609357808492602094604052833981010312608f57516001600160a01b03811690819003608f57600680545f80546001600160a01b0319169093179092556001600160a81b03199091163360ff60a01b19161790556001600b5560405161188a90816100a88239f35b5f80fd5b634e487b7160e01b5f52604160045260245ffdfe6080604052600436101561001a575b3615610018575f80fd5b005b5f5f3560e01c8063022c0d9f14610e8c57806306fdde0314610e445780630902f1ac14610e0f578063095ea7b314610d9257806318160ddd14610d7457806323b872dd14610cdf578063313ce56714610cc357806341cd47bf14610ca65780635909c0d514610c885780635a3d549314610c6a5780635c975abb14610c445780636a6278421461096757806370a082311461092e5780637464fc3d1461091057806389afcb441461063f5780638da5cb5b14610616578063946b7a92146105da57806395d89b4114610597578063a9059cbb14610565578063ba9a7a561461049f578063bedb86fb146104e6578063c5700a02146104c2578063cecde765146104a4578063d73792a91461049f578063dd62ed3e1461044c578063e2638211146103ad578063eb91d37e14610308578063f2fde38b14610278578063fbc31dc41461025a578063fc0c546a146102335763fff6cae91461017a575061000e565b346102305780600319360112610230576101996002600b5414156113cf565b6002600b5580546040516370a0823160e01b8152306004820152904790602090839060249082906001600160a01b03165afa9081156102255783916101eb575b6101e3925061163f565b6001600b5580f35b90506020823d60201161021d575b8161020660209383611353565b81010312610219576101e39151906101d9565b5f80fd5b3d91506101f9565b6040513d85823e3d90fd5b80fd5b5034610230578060031936011261023057546040516001600160a01b039091168152602090f35b50346102305780600319360112610230576020600254604051908152f35b503461023057602036600319011261023057610292611327565b600654906102aa336001600160a01b038416146115fe565b6001600160a01b03169081156102cb576001600160a01b0319161760065580f35b60405162461bcd60e51b8152602060048201526015602482015274414d4d506f6f6c3a207a65726f206164647265737360581b6044820152606490fd5b50346102305780600319360112610230576001549081156103705760025490670de0b6b3a7640000820291808304670de0b6b3a7640000149015171561035c57602061035484846115d3565b604051908152f35b634e487b7160e01b81526011600452602490fd5b60405162461bcd60e51b8152602060048201526015602482015274414d4d506f6f6c3a206e6f206c697175696469747960581b6044820152606490fd5b5034610230576020366003190112610230576004358015916103cf8315611569565b60015490600254821594851580610443575b6103ea90611459565b6103e585029485046103e514171561042f5761040690846115c0565b936103e883029283046103e814171561035c5760206103548561042986866115f1565b906115d3565b634e487b7160e01b82526011600452602482fd5b508115156103e1565b5034610230576040366003190112610230576040610468611327565b9161047161133d565b9260018060a01b031681526005602052209060018060a01b03165f52602052602060405f2054604051908152f35b6113b3565b50346102305780600319360112610230576020600154604051908152f35b5034610230578060031936011261023057602063ffffffff600a5416604051908152f35b503461023057602036600319011261023057600435801515809103610561576006547f8fb6c181ee25a520cf3dd6565006ef91229fcfe5a989566c2a3b8c115570cec591602091610541336001600160a01b038316146115fe565b60ff60a01b191660a082901b60ff60a01b1617600655604051908152a180f35b5080fd5b50346102305760403660031901126102305761058c610582611327565b602435903361178c565b602060405160018152f35b5034610230578060031936011261023057506105d66040516105ba604082611353565b60038152620414c560ec1b602082015260405191829182611389565b0390f35b5034610230576020366003190112610230576004358015916105fc8315611569565b60025490600154821594851580610443576103ea90611459565b50346102305780600319360112610230576006546040516001600160a01b039091168152602090f35b503461023057602036600319011261023057610659611327565b906106696002600b5414156113cf565b6002600b5561068060ff60065460a01c161561141b565b3381526004602052604081205491610699831515611459565b60035491600154926106c5816106b96106be826106b9600254998b6115c0565b6115d3565b96886115c0565b9284151580610907575b156108b357836020916106e58861076795611548565b600355338552600483526106fd886040872054611548565b33865260048452604086205561072b858080808b6001600160a01b0387165af16107256114a5565b506114e4565b845460405163a9059cbb60e01b81526001600160a01b039283166004820152602481019390935291938492909116908290869082906044820190565b03925af180156108a85761087b575b5080546040516370a0823160e01b8152306004820152479591602090829060249082906001600160a01b03165afa908115610225578391610848575b506107bf9060409661163f565b6107ce600154600254906115c0565b6007558451848152602081018490526040810182905233907f743033787f4738ff4d6a7225ce2bd0977ee5f86b91a902a58f5e4d0b297b464490606090a284519081527fddf252ad1be2c89b69c2b068fc378daa952ba7f163c4a11628f55a4df523b3ef60203392a36001600b5582519182526020820152f35b90506020813d602011610873575b8161086360209383611353565b81010312610219575160406107b2565b3d9150610856565b61089c9060203d6020116108a1575b6108948183611353565b810190611530565b610776565b503d61088a565b6040513d84823e3d90fd5b60405162461bcd60e51b815260206004820152602660248201527f414d4d506f6f6c3a20696e73756666696369656e74206c697175696469747920604482015265189d5c9b995960d21b6064820152608490fd5b508315156106cf565b50346102305780600319360112610230576020600754604051908152f35b5034610230576020366003190112610230576020906040906001600160a01b03610956611327565b168152600483522054604051908152f35b5034610230576020366003190112610230576024610983611327565b916109936002600b5414156113cf565b6002600b556109aa60ff60065460a01c161561141b565b60035460015460025483546040516370a0823160e01b81523060048201529196919547959491602091889182906001600160a01b03165afa958615610c39578496610c05575b506109fb8386611548565b92610a068888611548565b9782610bd357505050610a1986836115c0565b836003821115610bc55750808060011c60018101809111610bb157905b828210610b925750505b6103e7198101908111610b7e579483805260046020526103e860408520556103e86003555b8515610b2a57602096610aca87927fb4c03061fb5b7fed76389d5af8f2e0ddb09f8c70d1333abbb62582835e10accb94610aa1856003546115f1565b60035560018060a01b03169788885260048b5260408820610ac38682546115f1565b905561163f565b610ad9600154600254906115c0565b6007556040805194855260208501919091528301523391606090a27fddf252ad1be2c89b69c2b068fc378daa952ba7f163c4a11628f55a4df523b3ef84604051858152a36001600b55604051908152f35b60405162461bcd60e51b815260206004820152602660248201527f414d4d506f6f6c3a20696e73756666696369656e74206c6971756964697479206044820152651b5a5b9d195960d21b6064820152608490fd5b634e487b7160e01b84526011600452602484fd5b909150610ba882610ba381846115d3565b6115f1565b60011c90610a36565b634e487b7160e01b86526011600452602486fd5b9015610a4057506001610a40565b6106b9610be7610bee936106b986896115c0565b938a6115c0565b80821015610bfe57505b94610a65565b9050610bf8565b9095506020813d602011610c31575b81610c2160209383611353565b810103126102195751945f6109f0565b3d9150610c14565b6040513d86823e3d90fd5b5034610230578060031936011261023057602060ff60065460a01c166040519015158152f35b50346102305780600319360112610230576020600954604051908152f35b50346102305780600319360112610230576020600854604051908152f35b503461023057806003193601126102305760206040516103e58152f35b5034610230578060031936011261023057602060405160128152f35b50346102305760603660031901126102305761058c90610cfd611327565b610d0561133d565b6001600160a01b038216808452600560209081526040808620335f908152925290205460443594929392859160018101610d43575b5050505061178c565b604092610d4f91611548565b92815260056020522060018060a01b0333165f5260205260405f20555f838180610d3a565b50346102305780600319360112610230576020600354604051908152f35b503461023057604036600319011261023057610dac611327565b60406024359233815260056020522060018060a01b0382165f526020528160405f205560405191825260018060a01b0316907f8c5be1e5ebec7d5bd14f71427d1e84f3dd0314c0f7b2291e5b200ac8c7c3b92560203392a3602060405160018152f35b5034610230578060031936011261023057606060015460025463ffffffff600a54169060405192835260208301526040820152f35b5034610230578060031936011261023057506105d6604051610e67604082611353565b600c81526b20a6a6902628102a37b5b2b760a11b602082015260405191829182611389565b5034610219576080366003190112610219576044356001600160a01b0381169060243590600435908381036102195760643567ffffffffffffffff811161021957366023820112156102195780600401359167ffffffffffffffff831161021957366024848401011161021957610f086002600b5414156113cf565b6002600b55610f1f60ff60065460a01c161561141b565b8315908115809261131e575b156112cd5785916001548610806112c2575b610f4690611459565b6112aa575b81611244575b5050816111b4575b505083546040516370a0823160e01b81523060048201529291904790602090859060249082906001600160a01b03165afa9384156111a9578694611175575b5060015490610fa78383611548565b81111561116e57610fc1610fbb8484611548565b82611548565b945b60025492610fd18685611548565b82111561116757610feb610fe58786611548565b83611548565b935b871580158161115e575b61100090611569565b6103e885028581046103e8148615171561114a5760038a02918a8304600314171561114a579061102f91611548565b6103e884028481046103e8148515171561114a57600387029087820460031488151715611136579161106861106e926110749594611548565b906115c0565b926115c0565b90620f4240820291808304620f4240149015171561112257106110dd5761109a9161163f565b6040519384526020840152604083015260608201527fd78ad95fa46c994b6551d0da85fc275fe613ce37657fb8d5e3d130840159d82260803392a36001600b5580f35b60405162461bcd60e51b815260206004820152601d60248201527f414d4d506f6f6c3a204b2076616c756520636865636b206661696c65640000006044820152606490fd5b634e487b7160e01b8a52601160045260248afd5b634e487b7160e01b8d52601160045260248dfd5b634e487b7160e01b8c52601160045260248cfd5b50851515610ff7565b8893610fed565b8694610fc3565b9093506020813d6020116111a1575b8161119160209383611353565b810103126102195751925f610f98565b3d9150611184565b6040513d88823e3d90fd5b843b1561021957602460a45f92846040519586948593635fea11f760e01b855233600486015289828601528a60448601526080606486015282608486015201848401378181018301859052601f01601f1916810103018183885af1801561123957611220575b80610f59565b6024929194505f61123091611353565b5f93909161121a565b6040513d5f823e3d90fd5b5f805460405163a9059cbb60e01b81526001600160a01b039384166004820152602481019490945260209284926044928492165af180156112395761128b575b8490610f51565b6112a39060203d6020116108a1576108948183611353565b505f611284565b6112bd5f808080898c5af16107256114a5565b610f4b565b506002548310610f3d565b60405162461bcd60e51b815260206004820152602360248201527f414d4d506f6f6c3a20696e73756666696369656e74206f757470757420616d6f6044820152621d5b9d60ea1b6064820152608490fd5b50851515610f2b565b600435906001600160a01b038216820361021957565b602435906001600160a01b038216820361021957565b90601f8019910116810190811067ffffffffffffffff82111761137557604052565b634e487b7160e01b5f52604160045260245ffd5b602060409281835280519182918282860152018484015e5f828201840152601f01601f1916010190565b34610219575f3660031901126102195760206040516103e88152f35b156113d657565b60405162461bcd60e51b815260206004820152601760248201527f414d4d506f6f6c3a207265656e7472616e742063616c6c0000000000000000006044820152606490fd5b1561142257565b60405162461bcd60e51b815260206004820152600f60248201526e105353541bdbdb0e881c185d5cd959608a1b6044820152606490fd5b1561146057565b60405162461bcd60e51b815260206004820152601f60248201527f414d4d506f6f6c3a20696e73756666696369656e74206c6971756964697479006044820152606490fd5b3d156114df573d9067ffffffffffffffff821161137557604051916114d4601f8201601f191660200184611353565b82523d5f602084013e565b606090565b156114eb57565b60405162461bcd60e51b815260206004820152601c60248201527f414d4d506f6f6c3a20545258207472616e73666572206661696c6564000000006044820152606490fd5b90816020910312610219575180151581036102195790565b9190820391821161155557565b634e487b7160e01b5f52601160045260245ffd5b1561157057565b60405162461bcd60e51b815260206004820152602260248201527f414d4d506f6f6c3a20696e73756666696369656e7420696e70757420616d6f756044820152611b9d60f21b6064820152608490fd5b8181029291811591840414171561155557565b81156115dd570490565b634e487b7160e01b5f52601260045260245ffd5b9190820180921161155557565b1561160557565b60405162461bcd60e51b815260206004820152601260248201527120a6a6a837b7b61d103737ba1037bbb732b960711b6044820152606490fd5b63ffffffff421691600a549263ffffffff8416810363ffffffff81116115555763ffffffff1680151580611781575b80611776575b6116c1575b509082917fcf2aa50876cdfbb541206f89af0ee78d44a2abf8d328e37fa4917f982149848a946040946001558260025563ffffffff191617600a5582519182526020820152a1565b92919060025494670de0b6b3a76400008602868104670de0b6b3a7640000148715171561155557611709611701876116fc60015480956115d3565b6115c0565b6008546115f1565b600855670de0b6b3a7640000810290808204670de0b6b3a76400001490151715611555576117616040966116fc7fcf2aa50876cdfbb541206f89af0ee78d44a2abf8d328e37fa4917f982149848a99611769946115d3565b6009546115f1565b6009559450909192611679565b506002541515611674565b50600154151561166e565b6001600160a01b03909116919082156118055760207fddf252ad1be2c89b69c2b068fc378daa952ba7f163c4a11628f55a4df523b3ef9160018060a01b031692835f526004825260405f206117e2828254611548565b9055845f526004825260405f206117fa8282546115f1565b9055604051908152a3565b60405162461bcd60e51b815260206004820152602160248201527f414d4d506f6f6c3a207472616e7366657220746f207a65726f206164647265736044820152607360f81b6064820152608490fdfea264697066735822122057d0e788a050346c2ddb8372eee05e8df906c2c528955eba66678f5ee609ddb764736f6c634300081b0033","opcodes":"PUSH1 0x80 CALLVALUE PUSH1 0x8F JUMPI PUSH1 0x1F PUSH2 0x1932 CODESIZE DUP2 SWAP1 SUB SWAP2 DUP3 ADD PUSH1 0x1F NOT AND DUP4 ADD SWAP2 PUSH1 0x1 PUSH1 0x1 PUSH1 0x40 SHL SUB DUP4 GT DUP5 DUP5 LT OR PUSH1 0x93 JUMPI DUP1 DUP5 SWAP3 PUSH1 0x20 SWAP5 PUSH1 0x40 MSTORE DUP4 CODECOPY DUP2 ADD SUB SLT PUSH1 0x8F JUMPI MLOAD PUSH1 0x1 PUSH1 0x1 PUSH1 0xA0 SHL SUB DUP2 AND SWAP1 DUP2 SWAP1 SUB PUSH1 0x8F JUMPI PUSH1 0x6 DUP1 SLOAD PUSH0 DUP1 SLOAD PUSH1 0x1 PUSH1 0x1 PUSH1 0xA0 SHL SUB NOT AND SWAP1 SWAP4 OR SWAP1 SWAP3 SSTORE PUSH1 0x1 PUSH1 0x1 PUSH1 0xA8 SHL SUB NOT SWAP1 SWAP2 AND CALLER PUSH1 0xFF PUSH1 0xA0 SHL NOT AND OR SWAP1 SSTORE PUSH1 0x1 PUSH1 0xB SSTORE PUSH1 0x40 MLOAD PUSH2 0x188A SWAP1 DUP2 PUSH2 0xA8 DUP3 CODECOPY RETURN JUMPDEST PUSH0 DUP1 REVERT JUMPDEST PUSH4 0x4E487B71 PUSH1 0xE0 SHL PUSH0 MSTORE PUSH1 0x41 PUSH1 0x4 MSTORE PUSH1 0x24 PUSH0 REVERT INVALID PUSH1 0x80 PUSH1 0x40 MSTORE PUSH1 0x4 CALLDATASIZE LT ISZERO PUSH2 0x1A JUMPI JUMPDEST CALLDATASIZE ISZERO PUSH2 0x18 JUMPI PUSH0 DUP1 REVERT JUMPDEST STOP JUMPDEST PUSH0 PUSH0 CALLDATALOAD PUSH1 0xE0 SHR DUP1 PUSH4 0x22C0D9F EQ PUSH2 0xE8C JUMPI DUP1 PUSH4 0x6FDDE03 EQ PUSH2 0xE44 JUMPI DUP1 PUSH4 0x902F1AC EQ PUSH2 0xE0F JUMPI DUP1 PUSH4 0x95EA7B3 EQ PUSH2 0xD92 JUMPI DUP1 PUSH4 0x18160DDD EQ PUSH2 0xD74 JUMPI DUP1 PUSH4 0x23B872DD EQ PUSH2 0xCDF JUMPI DUP1 PUSH4 0x313CE567 EQ PUSH2 0xCC3 JUMPI DUP1 PUSH4 0x41CD47BF EQ PUSH2 0xCA6 JUMPI DUP1 PUSH4 0x5909C0D5 EQ PUSH2 0xC88 JUMPI DUP1 PUSH4 0x5A3D5493 EQ PUSH2 0xC6A JUMPI DUP1 PUSH4 0x5C975ABB EQ PUSH2 0xC44 JUMPI DUP1 PUSH4 0x6A627842 EQ PUSH2 0x967 JUMPI DUP1 PUSH4 0x70A08231 EQ PUSH2 0x92E JUMPI DUP1 PUSH4 0x7464FC3D EQ PUSH2 0x910 JUMPI DUP1 PUSH4 0x89AFCB44 EQ PUSH2 0x63F JUMPI DUP1 PUSH4 0x8DA5CB5B EQ PUSH2 0x616 JUMPI DUP1 PUSH4 0x946B7A92 EQ PUSH2 0x5DA JUMPI DUP1 PUSH4 0x95D89B41 EQ PUSH2 0x597 JUMPI DUP1 PUSH4 0xA9059CBB EQ PUSH2 0x565 JUMPI DUP1 PUSH4 0xBA9A7A56 EQ PUSH2 0x49F JUMPI DUP1 PUSH4 0xBEDB86FB EQ PUSH2 0x4E6 JUMPI DUP1 PUSH4 0xC5700A02 EQ PUSH2 0x4C2 JUMPI DUP1 PUSH4 0xCECDE765 EQ PUSH2 0x4A4 JUMPI DUP1 PUSH4 0xD73792A9 EQ PUSH2 0x49F JUMPI DUP1 PUSH4 0xDD62ED3E EQ PUSH2 0x44C JUMPI DUP1 PUSH4 0xE2638211 EQ PUSH2 0x3AD JUMPI DUP1 PUSH4 0xEB91D37E EQ PUSH2 0x308 JUMPI DUP1 PUSH4 0xF2FDE38B EQ PUSH2 0x278 JUMPI DUP1 PUSH4 0xFBC31DC4 EQ PUSH2 0x25A JUMPI DUP1 PUSH4 0xFC0C546A EQ PUSH2 0x233 JUMPI PUSH4 0xFFF6CAE9 EQ PUSH2 0x17A JUMPI POP PUSH2 0xE JUMP JUMPDEST CALLVALUE PUSH2 0x230 JUMPI DUP1 PUSH1 0x3 NOT CALLDATASIZE ADD SLT PUSH2 0x230 JUMPI PUSH2 0x199 PUSH1 0x2 PUSH1 0xB SLOAD EQ ISZERO PUSH2 0x13CF JUMP JUMPDEST PUSH1 0x2 PUSH1 0xB SSTORE DUP1 SLOAD PUSH1 0x40 MLOAD PUSH4 0x70A08231 PUSH1 0xE0 SHL DUP2 MSTORE ADDRESS PUSH1 0x4 DUP3 ADD MSTORE SWAP1 SELFBALANCE SWAP1 PUSH1 0x20 SWAP1 DUP4 SWAP1 PUSH1 0x24 SWAP1 DUP3 SWAP1 PUSH1 0x1 PUSH1 0x1 PUSH1 0xA0 SHL SUB AND GAS STATICCALL SWAP1 DUP2 ISZERO PUSH2 0x225 JUMPI DUP4 SWAP2 PUSH2 0x1EB JUMPI JUMPDEST PUSH2 0x1E3 SWAP3 POP PUSH2 0x163F JUMP JUMPDEST PUSH1 0x1 PUSH1 0xB SSTORE DUP1 RETURN JUMPDEST SWAP1 POP PUSH1 0x20 DUP3 RETURNDATASIZE PUSH1 0x20 GT PUSH2 0x21D JUMPI JUMPDEST DUP2 PUSH2 0x206 PUSH1 0x20 SWAP4 DUP4 PUSH2 0x1353 JUMP JUMPDEST DUP2 ADD SUB SLT PUSH2 0x219 JUMPI PUSH2 0x1E3 SWAP2 MLOAD SWAP1 PUSH2 0x1D9 JUMP JUMPDEST PUSH0 DUP1 REVERT JUMPDEST RETURNDATASIZE SWAP2 POP PUSH2 0x1F9 JUMP JUMPDEST PUSH1 0x40 MLOAD RETURNDATASIZE DUP6 DUP3 RETURNDATACOPY RETURNDATASIZE SWAP1 REVERT JUMPDEST DUP1 REVERT JUMPDEST POP CALLVALUE PUSH2 0x230 JUMPI DUP1 PUSH1 0x3 NOT CALLDATASIZE ADD SLT PUSH2 0x230 JUMPI SLOAD PUSH1 0x40 MLOAD PUSH1 0x1 PUSH1 0x1 PUSH1 0xA0 SHL SUB SWAP1 SWAP2 AND DUP2 MSTORE PUSH1 0x20 SWAP1 RETURN JUMPDEST POP CALLVALUE PUSH2 0x230 JUMPI DUP1 PUSH1 0x3 NOT CALLDATASIZE ADD SLT PUSH2 0x230 JUMPI PUSH1 0x20 PUSH1 0x2 SLOAD PUSH1 0x40 MLOAD SWAP1 DUP2 MSTORE RETURN JUMPDEST POP CALLVALUE PUSH2 0x230 JUMPI PUSH1 0x20 CALLDATASIZE PUSH1 0x3 NOT ADD SLT PUSH2 0x230 JUMPI PUSH2 0x292 PUSH2 0x1327 JUMP JUMPDEST PUSH1 0x6 SLOAD SWAP1 PUSH2 0x2AA CALLER PUSH1 0x1 PUSH1 0x1 PUSH1 0xA0 SHL SUB DUP5 AND EQ PUSH2 0x15FE JUMP JUMPDEST PUSH1 0x1 PUSH1 0x1 PUSH1 0xA0 SHL SUB AND SWAP1 DUP2 ISZERO PUSH2 0x2CB JUMPI PUSH1 0x1 PUSH1 0x1 PUSH1 0xA0 SHL SUB NOT AND OR PUSH1 0x6 SSTORE DUP1 RETURN JUMPDEST PUSH1 0x40 MLOAD PUSH3 0x461BCD PUSH1 0xE5 SHL DUP2 MSTORE PUSH1 0x20 PUSH1 0x4 DUP3 ADD MSTORE PUSH1 0x15 PUSH1 0x24 DUP3 ADD MSTORE PUSH21 0x414D4D506F6F6C3A207A65726F2061646472657373 PUSH1 0x58 SHL PUSH1 0x44 DUP3 ADD MSTORE PUSH1 0x64 SWAP1 REVERT JUMPDEST POP CALLVALUE PUSH2 0x230 JUMPI DUP1 PUSH1 0x3 NOT CALLDATASIZE ADD SLT PUSH2 0x230 JUMPI PUSH1 0x1 SLOAD SWAP1 DUP2 ISZERO PUSH2 0x370 JUMPI PUSH1 0x2 SLOAD SWAP1 PUSH8 0xDE0B6B3A7640000 DUP3 MUL SWAP2 DUP1 DUP4 DIV PUSH8 0xDE0B6B3A7640000 EQ SWAP1 ISZERO OR ISZERO PUSH2 0x35C JUMPI PUSH1 0x20 PUSH2 0x354 DUP5 DUP5 PUSH2 0x15D3 JUMP JUMPDEST PUSH1 0x40 MLOAD SWAP1 DUP2 MSTORE RETURN JUMPDEST PUSH4 0x4E487B71 PUSH1 0xE0 SHL DUP2 MSTORE PUSH1 0x11 PUSH1 0x4 MSTORE PUSH1 0x24 SWAP1 REVERT JUMPDEST PUSH1 0x40 MLOAD PUSH3 0x461BCD PUSH1 0xE5 SHL DUP2 MSTORE PUSH1 0x20 PUSH1 0x4 DUP3 ADD MSTORE PUSH1 0x15 PUSH1 0x24 DUP3 ADD MSTORE PUSH21 0x414D4D506F6F6C3A206E6F206C6971756964697479 PUSH1 0x58 SHL PUSH1 0x44 DUP3 ADD MSTORE PUSH1 0x64 SWAP1 REVERT JUMPDEST POP CALLVALUE PUSH2 0x230 JUMPI PUSH1 0x20 CALLDATASIZE PUSH1 0x3 NOT ADD SLT PUSH2 0x230 JUMPI PUSH1 0x4 CALLDATALOAD DUP1 ISZERO SWAP2 PUSH2 0x3CF DUP4 ISZERO PUSH2 0x1569 JUMP JUMPDEST PUSH1 0x1 SLOAD SWAP1 PUSH1 0x2 SLOAD DUP3 ISZERO SWAP5 DUP6 ISZERO DUP1 PUSH2 0x443 JUMPI JUMPDEST PUSH2 0x3EA SWAP1 PUSH2 0x1459 JUMP JUMPDEST PUSH2 0x3E5 DUP6 MUL SWAP5 DUP6 DIV PUSH2 0x3E5 EQ OR ISZERO PUSH2 0x42F JUMPI PUSH2 0x406 SWAP1 DUP5 PUSH2 0x15C0 JUMP JUMPDEST SWAP4 PUSH2 0x3E8 DUP4 MUL SWAP3 DUP4 DIV PUSH2 0x3E8 EQ OR ISZERO PUSH2 0x35C JUMPI PUSH1 0x20 PUSH2 0x354 DUP6 PUSH2 0x429 DUP7 DUP7 PUSH2 0x15F1 JUMP JUMPDEST SWAP1 PUSH2 0x15D3 JUMP JUMPDEST PUSH4 0x4E487B71 PUSH1 0xE0 SHL DUP3 MSTORE PUSH1 0x11 PUSH1 0x4 MSTORE PUSH1 0x24 DUP3 REVERT JUMPDEST POP DUP2 ISZERO ISZERO PUSH2 0x3E1 JUMP JUMPDEST POP CALLVALUE PUSH2 0x230 JUMPI PUSH1 0x40 CALLDATASIZE PUSH1 0x3 NOT ADD SLT PUSH2 0x230 JUMPI PUSH1 0x40 PUSH2 0x468 PUSH2 0x1327 JUMP JUMPDEST SWAP2 PUSH2 0x471 PUSH2 0x133D JUMP JUMPDEST SWAP3 PUSH1 0x1 DUP1 PUSH1 0xA0 SHL SUB AND DUP2 MSTORE PUSH1 0x5 PUSH1 0x20 MSTORE KECCAK256 SWAP1 PUSH1 0x1 DUP1 PUSH1 0xA0 SHL SUB AND PUSH0 MSTORE PUSH1 0x20 MSTORE PUSH1 0x20 PUSH1 0x40 PUSH0 KECCAK256 SLOAD PUSH1 0x40 MLOAD SWAP1 DUP2 MSTORE RETURN JUMPDEST PUSH2 0x13B3 JUMP JUMPDEST POP CALLVALUE PUSH2 0x230 JUMPI DUP1 PUSH1 0x3 NOT CALLDATASIZE ADD SLT PUSH2 0x230 JUMPI PUSH1 0x20 PUSH1 0x1 SLOAD PUSH1 0x40 MLOAD SWAP1 DUP2 MSTORE RETURN JUMPDEST POP CALLVALUE PUSH2 0x230 JUMPI DUP1 PUSH1 0x3 NOT CALLDATASIZE ADD SLT PUSH2 0x230 JUMPI PUSH1 0x20 PUSH4 0xFFFFFFFF PUSH1 0xA SLOAD AND PUSH1 0x40 MLOAD SWAP1 DUP2 MSTORE RETURN JUMPDEST POP CALLVALUE PUSH2 0x230 JUMPI PUSH1 0x20 CALLDATASIZE PUSH1 0x3 NOT ADD SLT PUSH2 0x230 JUMPI PUSH1 0x4 CALLDATALOAD DUP1 ISZERO ISZERO DUP1 SWAP2 SUB PUSH2 0x561 JUMPI PUSH1 0x6 SLOAD PUSH32 0x8FB6C181EE25A520CF3DD6565006EF91229FCFE5A989566C2A3B8C115570CEC5 SWAP2 PUSH1 0x20 SWAP2 PUSH2 0x541 CALLER PUSH1 0x1 PUSH1 0x1 PUSH1 0xA0 SHL SUB DUP4 AND EQ PUSH2 0x15FE JUMP JUMPDEST PUSH1 0xFF PUSH1 0xA0 SHL NOT AND PUSH1 0xA0 DUP3 SWAP1 SHL PUSH1 0xFF PUSH1 0xA0 SHL AND OR PUSH1 0x6 SSTORE PUSH1 0x40 MLOAD SWAP1 DUP2 MSTORE LOG1 DUP1 RETURN JUMPDEST POP DUP1 REVERT JUMPDEST POP CALLVALUE PUSH2 0x230 JUMPI PUSH1 0x40 CALLDATASIZE PUSH1 0x3 NOT ADD SLT PUSH2 0x230 JUMPI PUSH2 0x58C PUSH2 0x582 PUSH2 0x1327 JUMP JUMPDEST PUSH1 0x24 CALLDATALOAD SWAP1 CALLER PUSH2 0x178C JUMP JUMPDEST PUSH1 0x20 PUSH1 0x40 MLOAD PUSH1 0x1 DUP2 MSTORE RETURN JUMPDEST POP CALLVALUE PUSH2 0x230 JUMPI DUP1 PUSH1 0x3 NOT CALLDATASIZE ADD SLT PUSH2 0x230 JUMPI POP PUSH2 0x5D6 PUSH1 0x40 MLOAD PUSH2 0x5BA PUSH1 0x40 DUP3 PUSH2 0x1353 JUMP JUMPDEST PUSH1 0x3 DUP2 MSTORE PUSH3 0x414C5 PUSH1 0xEC SHL PUSH1 0x20 DUP3 ADD MSTORE PUSH1 0x40 MLOAD SWAP2 DUP3 SWAP2 DUP3 PUSH2 0x1389 JUMP JUMPDEST SUB SWAP1 RETURN JUMPDEST POP CALLVALUE PUSH2 0x230 JUMPI PUSH1 0x20 CALLDATASIZE PUSH1 0x3 NOT ADD SLT PUSH2 0x230 JUMPI PUSH1 0x4 CALLDATALOAD DUP1 ISZERO SWAP2 PUSH2 0x5FC DUP4 ISZERO PUSH2 0x1569 JUMP JUMPDEST PUSH1 0x2 SLOAD SWAP1 PUSH1 0x1 SLOAD DUP3 ISZERO SWAP5 DUP6 ISZERO DUP1 PUSH2 0x443 JUMPI PUSH2 0x3EA SWAP1 PUSH2 0x1459 JUMP JUMPDEST POP CALLVALUE PUSH2 0x230 JUMPI DUP1 PUSH1 0x3 NOT CALLDATASIZE ADD SLT PUSH2 0x230 JUMPI PUSH1 0x6 SLOAD PUSH1 0x40 MLOAD PUSH1 0x1 PUSH1 0x1 PUSH1 0xA0 SHL SUB SWAP1 SWAP2 AND DUP2 MSTORE PUSH1 0x20 SWAP1 RETURN JUMPDEST POP CALLVALUE PUSH2 0x230 JUMPI PUSH1 0x20 CALLDATASIZE PUSH1 0x3 NOT ADD SLT PUSH2 0x230 JUMPI PUSH2 0x659 PUSH2 0x1327 JUMP JUMPDEST SWAP1 PUSH2 0x669 PUSH1 0x2 PUSH1 0xB SLOAD EQ ISZERO PUSH2 0x13CF JUMP JUMPDEST PUSH1 0x2 PUSH1 0xB SSTORE PUSH2 0x680 PUSH1 0xFF PUSH1 0x6 SLOAD PUSH1 0xA0 SHR AND ISZERO PUSH2 0x141B JUMP JUMPDEST CALLER DUP2 MSTORE PUSH1 0x4 PUSH1 0x20 MSTORE PUSH1 0x40 DUP2 KECCAK256 SLOAD SWAP2 PUSH2 0x699 DUP4 ISZERO ISZERO PUSH2 0x1459 JUMP JUMPDEST PUSH1 0x3 SLOAD SWAP2 PUSH1 0x1 SLOAD SWAP3 PUSH2 0x6C5 DUP2 PUSH2 0x6B9 PUSH2 0x6BE DUP3 PUSH2 0x6B9 PUSH1 0x2 SLOAD SWAP10 DUP12 PUSH2 0x15C0 JUMP JUMPDEST PUSH2 0x15D3 JUMP JUMPDEST SWAP7 DUP9 PUSH2 0x15C0 JUMP JUMPDEST SWAP3 DUP5 ISZERO ISZERO DUP1 PUSH2 0x907 JUMPI JUMPDEST ISZERO PUSH2 0x8B3 JUMPI DUP4 PUSH1 0x20 SWAP2 PUSH2 0x6E5 DUP9 PUSH2 0x767 SWAP6 PUSH2 0x1548 JUMP JUMPDEST PUSH1 0x3 SSTORE CALLER DUP6 MSTORE PUSH1 0x4 DUP4 MSTORE PUSH2 0x6FD DUP9 PUSH1 0x40 DUP8 KECCAK256 SLOAD PUSH2 0x1548 JUMP JUMPDEST CALLER DUP7 MSTORE PUSH1 0x4 DUP5 MSTORE PUSH1 0x40 DUP7 KECCAK256 SSTORE PUSH2 0x72B DUP6 DUP1 DUP1 DUP1 DUP12 PUSH1 0x1 PUSH1 0x1 PUSH1 0xA0 SHL SUB DUP8 AND GAS CALL PUSH2 0x725 PUSH2 0x14A5 JUMP JUMPDEST POP PUSH2 0x14E4 JUMP JUMPDEST DUP5 SLOAD PUSH1 0x40 MLOAD PUSH4 0xA9059CBB PUSH1 0xE0 SHL DUP2 MSTORE PUSH1 0x1 PUSH1 0x1 PUSH1 0xA0 SHL SUB SWAP3 DUP4 AND PUSH1 0x4 DUP3 ADD MSTORE PUSH1 0x24 DUP2 ADD SWAP4 SWAP1 SWAP4 MSTORE SWAP2 SWAP4 DUP5 SWAP3 SWAP1 SWAP2 AND SWAP1 DUP3 SWAP1 DUP7 SWAP1 DUP3 SWAP1 PUSH1 0x44 DUP3 ADD SWAP1 JUMP JUMPDEST SUB SWAP3 GAS CALL DUP1 ISZERO PUSH2 0x8A8 JUMPI PUSH2 0x87B JUMPI JUMPDEST POP DUP1 SLOAD PUSH1 0x40 MLOAD PUSH4 0x70A08231 PUSH1 0xE0 SHL DUP2 MSTORE ADDRESS PUSH1 0x4 DUP3 ADD MSTORE SELFBALANCE SWAP6 SWAP2 PUSH1 0x20 SWAP1 DUP3 SWAP1 PUSH1 0x24 SWAP1 DUP3 SWAP1 PUSH1 0x1 PUSH1 0x1 PUSH1 0xA0 SHL SUB AND GAS STATICCALL SWAP1 DUP2 ISZERO PUSH2 0x225 JUMPI DUP4 SWAP2 PUSH2 0x848 JUMPI JUMPDEST POP PUSH2 0x7BF SWAP1 PUSH1 0x40 SWAP7 PUSH2 0x163F JUMP JUMPDEST PUSH2 0x7CE PUSH1 0x1 SLOAD PUSH1 0x2 SLOAD SWAP1 PUSH2 0x15C0 JUMP JUMPDEST PUSH1 0x7 SSTORE DUP5 MLOAD DUP5 DUP2 MSTORE PUSH1 0x20 DUP2 ADD DUP5 SWAP1 MSTORE PUSH1 0x40 DUP2 ADD DUP3 SWAP1 MSTORE CALLER SWAP1 PUSH32 0x743033787F4738FF4D6A7225CE2BD0977EE5F86B91A902A58F5E4D0B297B4644 SWAP1 PUSH1 0x60 SWAP1 LOG2 DUP5 MLOAD SWAP1 DUP2 MSTORE PUSH32 0xDDF252AD1BE2C89B69C2B068FC378DAA952BA7F163C4A11628F55A4DF523B3EF PUSH1 0x20 CALLER SWAP3 LOG3 PUSH1 0x1 PUSH1 0xB SSTORE DUP3 MLOAD SWAP2 DUP3 MSTORE PUSH1 0x20 DUP3 ADD MSTORE RETURN JUMPDEST SWAP1 POP PUSH1 0x20 DUP2 RETURNDATASIZE PUSH1 0x20 GT PUSH2 0x873 JUMPI JUMPDEST DUP2 PUSH2 0x863 PUSH1 0x20 SWAP4 DUP4 PUSH2 0x1353 JUMP JUMPDEST DUP2 ADD SUB SLT PUSH2 0x219 JUMPI MLOAD PUSH1 0x40 PUSH2 0x7B2 JUMP JUMPDEST RETURNDATASIZE SWAP2 POP PUSH2 0x856 JUMP JUMPDEST PUSH2 0x89C SWAP1 PUSH1 0x20 RETURNDATASIZE PUSH1 0x20 GT PUSH2 0x8A1 JUMPI JUMPDEST PUSH2 0x894 DUP2 DUP4 PUSH2 0x1353 JUMP JUMPDEST DUP2 ADD SWAP1 PUSH2 0x1530 JUMP JUMPDEST PUSH2 0x776 JUMP JUMPDEST POP RETURNDATASIZE PUSH2 0x88A JUMP JUMPDEST PUSH1 0x40 MLOAD RETURNDATASIZE DUP5 DUP3 RETURNDATACOPY RETURNDATASIZE SWAP1 REVERT JUMPDEST PUSH1 0x40 MLOAD PUSH3 0x461BCD PUSH1 0xE5 SHL DUP2 MSTORE PUSH1 0x20 PUSH1 0x4 DUP3 ADD MSTORE PUSH1 0x26 PUSH1 0x24 DUP3 ADD MSTORE PUSH32 0x414D4D506F6F6C3A20696E73756666696369656E74206C697175696469747920 PUSH1 0x44 DUP3 ADD MSTORE PUSH6 0x189D5C9B9959 PUSH1 0xD2 SHL PUSH1 0x64 DUP3 ADD MSTORE PUSH1 0x84 SWAP1 REVERT JUMPDEST POP DUP4 ISZERO ISZERO PUSH2 0x6CF JUMP JUMPDEST POP CALLVALUE PUSH2 0x230 JUMPI DUP1 PUSH1 0x3 NOT CALLDATASIZE ADD SLT PUSH2 0x230 JUMPI PUSH1 0x20 PUSH1 0x7 SLOAD PUSH1 0x40 MLOAD SWAP1 DUP2 MSTORE RETURN JUMPDEST POP CALLVALUE PUSH2 0x230 JUMPI PUSH1 0x20 CALLDATASIZE PUSH1 0x3 NOT ADD SLT PUSH2 0x230 JUMPI PUSH1 0x20 SWAP1 PUSH1 0x40 SWAP1 PUSH1 0x1 PUSH1 0x1 PUSH1 0xA0 SHL SUB PUSH2 0x956 PUSH2 0x1327 JUMP JUMPDEST AND DUP2 MSTORE PUSH1 0x4 DUP4 MSTORE KECCAK256 SLOAD PUSH1 0x40 MLOAD SWAP1 DUP2 MSTORE RETURN JUMPDEST POP CALLVALUE PUSH2 0x230 JUMPI PUSH1 0x20 CALLDATASIZE PUSH1 0x3 NOT ADD SLT PUSH2 0x230 JUMPI PUSH1 0x24 PUSH2 0x983 PUSH2 0x1327 JUMP JUMPDEST SWAP2 PUSH2 0x993 PUSH1 0x2 PUSH1 0xB SLOAD EQ ISZERO PUSH2 0x13CF JUMP JUMPDEST PUSH1 0x2 PUSH1 0xB SSTORE PUSH2 0x9AA PUSH1 0xFF PUSH1 0x6 SLOAD PUSH1 0xA0 SHR AND ISZERO PUSH2 0x141B JUMP JUMPDEST PUSH1 0x3 SLOAD PUSH1 0x1 SLOAD PUSH1 0x2 SLOAD DUP4 SLOAD PUSH1 0x40 MLOAD PUSH4 0x70A08231 PUSH1 0xE0 SHL DUP2 MSTORE ADDRESS PUSH1 0x4 DUP3 ADD MSTORE SWAP2 SWAP7 SWAP2 SWAP6 SELFBALANCE SWAP6 SWAP5 SWAP2 PUSH1 0x20 SWAP2 DUP9 SWAP2 DUP3 SWAP1 PUSH1 0x1 PUSH1 0x1 PUSH1 0xA0 SHL SUB AND GAS STATICCALL SWAP6 DUP7 ISZERO PUSH2 0xC39 JUMPI DUP5 SWAP7 PUSH2 0xC05 JUMPI JUMPDEST POP PUSH2 0x9FB DUP4 DUP7 PUSH2 0x1548 JUMP JUMPDEST SWAP3 PUSH2 0xA06 DUP9 DUP9 PUSH2 0x1548 JUMP JUMPDEST SWAP8 DUP3 PUSH2 0xBD3 JUMPI POP POP POP PUSH2 0xA19 DUP7 DUP4 PUSH2 0x15C0 JUMP JUMPDEST DUP4 PUSH1 0x3 DUP3 GT ISZERO PUSH2 0xBC5 JUMPI POP DUP1 DUP1 PUSH1 0x1 SHR PUSH1 0x1 DUP2 ADD DUP1 SWAP2 GT PUSH2 0xBB1 JUMPI SWAP1 JUMPDEST DUP3 DUP3 LT PUSH2 0xB92 JUMPI POP POP JUMPDEST PUSH2 0x3E7 NOT DUP2 ADD SWAP1 DUP2 GT PUSH2 0xB7E JUMPI SWAP5 DUP4 DUP1 MSTORE PUSH1 0x4 PUSH1 0x20 MSTORE PUSH2 0x3E8 PUSH1 0x40 DUP6 KECCAK256 SSTORE PUSH2 0x3E8 PUSH1 0x3 SSTORE JUMPDEST DUP6 ISZERO PUSH2 0xB2A JUMPI PUSH1 0x20 SWAP7 PUSH2 0xACA DUP8 SWAP3 PUSH32 0xB4C03061FB5B7FED76389D5AF8F2E0DDB09F8C70D1333ABBB62582835E10ACCB SWAP5 PUSH2 0xAA1 DUP6 PUSH1 0x3 SLOAD PUSH2 0x15F1 JUMP JUMPDEST PUSH1 0x3 SSTORE PUSH1 0x1 DUP1 PUSH1 0xA0 SHL SUB AND SWAP8 DUP9 DUP9 MSTORE PUSH1 0x4 DUP12 MSTORE PUSH1 0x40 DUP9 KECCAK256 PUSH2 0xAC3 DUP7 DUP3 SLOAD PUSH2 0x15F1 JUMP JUMPDEST SWAP1 SSTORE PUSH2 0x163F JUMP JUMPDEST PUSH2 0xAD9 PUSH1 0x1 SLOAD PUSH1 0x2 SLOAD SWAP1 PUSH2 0x15C0 JUMP JUMPDEST PUSH1 0x7 SSTORE PUSH1 0x40 DUP1 MLOAD SWAP5 DUP6 MSTORE PUSH1 0x20 DUP6 ADD SWAP2 SWAP1 SWAP2 MSTORE DUP4 ADD MSTORE CALLER SWAP2 PUSH1 0x60 SWAP1 LOG2 PUSH32 0xDDF252AD1BE2C89B69C2B068FC378DAA952BA7F163C4A11628F55A4DF523B3EF DUP5 PUSH1 0x40 MLOAD DUP6 DUP2 MSTORE LOG3 PUSH1 0x1 PUSH1 0xB SSTORE PUSH1 0x40 MLOAD SWAP1 DUP2 MSTORE RETURN JUMPDEST PUSH1 0x40 MLOAD PUSH3 0x461BCD PUSH1 0xE5 SHL DUP2 MSTORE PUSH1 0x20 PUSH1 0x4 DUP3 ADD MSTORE PUSH1 0x26 PUSH1 0x24 DUP3 ADD MSTORE PUSH32 0x414D4D506F6F6C3A20696E73756666696369656E74206C697175696469747920 PUSH1 0x44 DUP3 ADD MSTORE PUSH6 0x1B5A5B9D1959 PUSH1 0xD2 SHL PUSH1 0x64 DUP3 ADD MSTORE PUSH1 0x84 SWAP1 REVERT JUMPDEST PUSH4 0x4E487B71 PUSH1 0xE0 SHL DUP5 MSTORE PUSH1 0x11 PUSH1 0x4 MSTORE PUSH1 0x24 DUP5 REVERT JUMPDEST SWAP1 SWAP2 POP PUSH2 0xBA8 DUP3 PUSH2 0xBA3 DUP2 DUP5 PUSH2 0x15D3 JUMP JUMPDEST PUSH2 0x15F1 JUMP JUMPDEST PUSH1 0x1 SHR SWAP1 PUSH2 0xA36 JUMP JUMPDEST PUSH4 0x4E487B71 PUSH1 0xE0 SHL DUP7 MSTORE PUSH1 0x11 PUSH1 0x4 MSTORE PUSH1 0x24 DUP7 REVERT JUMPDEST SWAP1 ISZERO PUSH2 0xA40 JUMPI POP PUSH1 0x1 PUSH2 0xA40 JUMP JUMPDEST PUSH2 0x6B9 PUSH2 0xBE7 PUSH2 0xBEE SWAP4 PUSH2 0x6B9 DUP7 DUP10 PUSH2 0x15C0 JUMP JUMPDEST SWAP4 DUP11 PUSH2 0x15C0 JUMP JUMPDEST DUP1 DUP3 LT ISZERO PUSH2 0xBFE JUMPI POP JUMPDEST SWAP5 PUSH2 0xA65 JUMP JUMPDEST SWAP1 POP PUSH2 0xBF8 JUMP JUMPDEST SWAP1 SWAP6 POP PUSH1 0x20 DUP2 RETURNDATASIZE PUSH1 0x20 GT PUSH2 0xC31 JUMPI JUMPDEST DUP2 PUSH2 0xC21 PUSH1 0x20 SWAP4 DUP4 PUSH2 0x1353 JUMP JUMPDEST DUP2 ADD SUB SLT PUSH2 0x219 JUMPI MLOAD SWAP5 PUSH0 PUSH2 0x9F0 JUMP JUMPDEST RETURNDATASIZE SWAP2 POP PUSH2 0xC14 JUMP JUMPDEST PUSH1 0x40 MLOAD RETURNDATASIZE DUP7 DUP3 RETURNDATACOPY RETURNDATASIZE SWAP1 REVERT JUMPDEST POP CALLVALUE PUSH2 0x230 JUMPI DUP1 PUSH1 0x3 NOT CALLDATASIZE ADD SLT PUSH2 0x230 JUMPI PUSH1 0x20 PUSH1 0xFF PUSH1 0x6 SLOAD PUSH1 0xA0 SHR AND PUSH1 0x40 MLOAD SWAP1 ISZERO ISZERO DUP2 MSTORE RETURN JUMPDEST POP CALLVALUE PUSH2 0x230 JUMPI DUP1 PUSH1 0x3 NOT CALLDATASIZE ADD SLT PUSH2 0x230 JUMPI PUSH1 0x20 PUSH1 0x9 SLOAD PUSH1 0x40 MLOAD SWAP1 DUP2 MSTORE RETURN JUMPDEST POP CALLVALUE PUSH2 0x230 JUMPI DUP1 PUSH1 0x3 NOT CALLDATASIZE ADD SLT PUSH2 0x230 JUMPI PUSH1 0x20 PUSH1 0x8 SLOAD PUSH1 0x40 MLOAD SWAP1 DUP2 MSTORE RETURN JUMPDEST POP CALLVALUE PUSH2 0x230 JUMPI DUP1 PUSH1 0x3 NOT CALLDATASIZE ADD SLT PUSH2 0x230 JUMPI PUSH1 0x20 PUSH1 0x40 MLOAD PUSH2 0x3E5 DUP2 MSTORE RETURN JUMPDEST POP CALLVALUE PUSH2 0x230 JUMPI DUP1 PUSH1 0x3 NOT CALLDATASIZE ADD SLT PUSH2 0x230 JUMPI PUSH1 0x20 PUSH1 0x40 MLOAD PUSH1 0x12 DUP2 MSTORE RETURN JUMPDEST POP CALLVALUE PUSH2 0x230 JUMPI PUSH1 0x60 CALLDATASIZE PUSH1 0x3 NOT ADD SLT PUSH2 0x230 JUMPI PUSH2 0x58C SWAP1 PUSH2 0xCFD PUSH2 0x1327 JUMP JUMPDEST PUSH2 0xD05 PUSH2 0x133D JUMP JUMPDEST PUSH1 0x1 PUSH1 0x1 PUSH1 0xA0 SHL SUB DUP3 AND DUP1 DUP5 MSTORE PUSH1 0x5 PUSH1 0x20 SWAP1 DUP2 MSTORE PUSH1 0x40 DUP1 DUP7 KECCAK256 CALLER PUSH0 SWAP1 DUP2 MSTORE SWAP3 MSTORE SWAP1 KECCAK256 SLOAD PUSH1 0x44 CALLDATALOAD SWAP5 SWAP3 SWAP4 SWAP3 DUP6 SWAP2 PUSH1 0x1 DUP2 ADD PUSH2 0xD43 JUMPI JUMPDEST POP POP POP POP PUSH2 0x178C JUMP JUMPDEST PUSH1 0x40 SWAP3 PUSH2 0xD4F SWAP2 PUSH2 0x1548 JUMP JUMPDEST SWAP3 DUP2 MSTORE PUSH1 0x5 PUSH1 0x20 MSTORE KECCAK256 PUSH1 0x1 DUP1 PUSH1 0xA0 SHL SUB CALLER AND PUSH0 MSTORE PUSH1 0x20 MSTORE PUSH1 0x40 PUSH0 KECCAK256 SSTORE PUSH0 DUP4 DUP2 DUP1 PUSH2 0xD3A JUMP JUMPDEST POP CALLVALUE PUSH2 0x230 JUMPI DUP1 PUSH1 0x3 NOT CALLDATASIZE ADD SLT PUSH2 0x230 JUMPI PUSH1 0x20 PUSH1 0x3 SLOAD PUSH1 0x40 MLOAD SWAP1 DUP2 MSTORE RETURN JUMPDEST POP CALLVALUE PUSH2 0x230 JUMPI PUSH1 0x40 CALLDATASIZE PUSH1 0x3 NOT ADD SLT PUSH2 0x230 JUMPI PUSH2 0xDAC PUSH2 0x1327 JUMP JUMPDEST PUSH1 0x40 PUSH1 0x24 CALLDATALOAD SWAP3 CALLER DUP2 MSTORE PUSH1 0x5 PUSH1 0x20 MSTORE KECCAK256 PUSH1 0x1 DUP1 PUSH1 0xA0 SHL SUB DUP3 AND PUSH0 MSTORE PUSH1 0x20 MSTORE DUP2 PUSH1 0x40 PUSH0 KECCAK256 SSTORE PUSH1 0x40 MLOAD SWAP2 DUP3 MSTORE PUSH1 0x1 DUP1 PUSH1 0xA0 SHL SUB AND SWAP1 PUSH32 0x8C5BE1E5EBEC7D5BD14F71427D1E84F3DD0314C0F7B2291E5B200AC8C7C3B925 PUSH1 0x20 CALLER SWAP3 LOG3 PUSH1 0x20 PUSH1 0x40 MLOAD PUSH1 0x1 DUP2 MSTORE RETURN JUMPDEST POP CALLVALUE PUSH2 0x230 JUMPI DUP1 PUSH1 0x3 NOT CALLDATASIZE ADD SLT PUSH2 0x230 JUMPI PUSH1 0x60 PUSH1 0x1 SLOAD PUSH1 0x2 SLOAD PUSH4 0xFFFFFFFF PUSH1 0xA SLOAD AND SWAP1 PUSH1 0x40 MLOAD SWAP3 DUP4 MSTORE PUSH1 0x20 DUP4 ADD MSTORE PUSH1 0x40 DUP3 ADD MSTORE RETURN JUMPDEST POP CALLVALUE PUSH2 0x230 JUMPI DUP1 PUSH1 0x3 NOT CALLDATASIZE ADD SLT PUSH2 0x230 JUMPI POP PUSH2 0x5D6 PUSH1 0x40 MLOAD PUSH2 0xE67 PUSH1 0x40 DUP3 PUSH2 0x1353 JUMP JUMPDEST PUSH1 0xC DUP2 MSTORE PUSH12 0x20A6A6902628102A37B5B2B7 PUSH1 0xA1 SHL PUSH1 0x20 DUP3 ADD MSTORE PUSH1 0x40 MLOAD SWAP2 DUP3 SWAP2 DUP3 PUSH2 0x1389 JUMP JUMPDEST POP CALLVALUE PUSH2 0x219 JUMPI PUSH1 0x80 CALLDATASIZE PUSH1 0x3 NOT ADD SLT PUSH2 0x219 JUMPI PUSH1 0x44 CALLDATALOAD PUSH1 0x1 PUSH1 0x1 PUSH1 0xA0 SHL SUB DUP2 AND SWAP1 PUSH1 0x24 CALLDATALOAD SWAP1 PUSH1 0x4 CALLDATALOAD SWAP1 DUP4 DUP2 SUB PUSH2 0x219 JUMPI PUSH1 0x64 CALLDATALOAD PUSH8 0xFFFFFFFFFFFFFFFF DUP2 GT PUSH2 0x219 JUMPI CALLDATASIZE PUSH1 0x23 DUP3 ADD SLT ISZERO PUSH2 0x219 JUMPI DUP1 PUSH1 0x4 ADD CALLDATALOAD SWAP2 PUSH8 0xFFFFFFFFFFFFFFFF DUP4 GT PUSH2 0x219 JUMPI CALLDATASIZE PUSH1 0x24 DUP5 DUP5 ADD ADD GT PUSH2 0x219 JUMPI PUSH2 0xF08 PUSH1 0x2 PUSH1 0xB SLOAD EQ ISZERO PUSH2 0x13CF JUMP JUMPDEST PUSH1 0x2 PUSH1 0xB SSTORE PUSH2 0xF1F PUSH1 0xFF PUSH1 0x6 SLOAD PUSH1 0xA0 SHR AND ISZERO PUSH2 0x141B JUMP JUMPDEST DUP4 ISZERO SWAP1 DUP2 ISZERO DUP1 SWAP3 PUSH2 0x131E JUMPI JUMPDEST ISZERO PUSH2 0x12CD JUMPI DUP6 SWAP2 PUSH1 0x1 SLOAD DUP7 LT DUP1 PUSH2 0x12C2 JUMPI JUMPDEST PUSH2 0xF46 SWAP1 PUSH2 0x1459 JUMP JUMPDEST PUSH2 0x12AA JUMPI JUMPDEST DUP2 PUSH2 0x1244 JUMPI JUMPDEST POP POP DUP2 PUSH2 0x11B4 JUMPI JUMPDEST POP POP DUP4 SLOAD PUSH1 0x40 MLOAD PUSH4 0x70A08231 PUSH1 0xE0 SHL DUP2 MSTORE ADDRESS PUSH1 0x4 DUP3 ADD MSTORE SWAP3 SWAP2 SWAP1 SELFBALANCE SWAP1 PUSH1 0x20 SWAP1 DUP6 SWAP1 PUSH1 0x24 SWAP1 DUP3 SWAP1 PUSH1 0x1 PUSH1 0x1 PUSH1 0xA0 SHL SUB AND GAS STATICCALL SWAP4 DUP5 ISZERO PUSH2 0x11A9 JUMPI DUP7 SWAP5 PUSH2 0x1175 JUMPI JUMPDEST POP PUSH1 0x1 SLOAD SWAP1 PUSH2 0xFA7 DUP4 DUP4 PUSH2 0x1548 JUMP JUMPDEST DUP2 GT ISZERO PUSH2 0x116E JUMPI PUSH2 0xFC1 PUSH2 0xFBB DUP5 DUP5 PUSH2 0x1548 JUMP JUMPDEST DUP3 PUSH2 0x1548 JUMP JUMPDEST SWAP5 JUMPDEST PUSH1 0x2 SLOAD SWAP3 PUSH2 0xFD1 DUP7 DUP6 PUSH2 0x1548 JUMP JUMPDEST DUP3 GT ISZERO PUSH2 0x1167 JUMPI PUSH2 0xFEB PUSH2 0xFE5 DUP8 DUP7 PUSH2 0x1548 JUMP JUMPDEST DUP4 PUSH2 0x1548 JUMP JUMPDEST SWAP4 JUMPDEST DUP8 ISZERO DUP1 ISZERO DUP2 PUSH2 0x115E JUMPI JUMPDEST PUSH2 0x1000 SWAP1 PUSH2 0x1569 JUMP JUMPDEST PUSH2 0x3E8 DUP6 MUL DUP6 DUP2 DIV PUSH2 0x3E8 EQ DUP7 ISZERO OR ISZERO PUSH2 0x114A JUMPI PUSH1 0x3 DUP11 MUL SWAP2 DUP11 DUP4 DIV PUSH1 0x3 EQ OR ISZERO PUSH2 0x114A JUMPI SWAP1 PUSH2 0x102F SWAP2 PUSH2 0x1548 JUMP JUMPDEST PUSH2 0x3E8 DUP5 MUL DUP5 DUP2 DIV PUSH2 0x3E8 EQ DUP6 ISZERO OR ISZERO PUSH2 0x114A JUMPI PUSH1 0x3 DUP8 MUL SWAP1 DUP8 DUP3 DIV PUSH1 0x3 EQ DUP9 ISZERO OR ISZERO PUSH2 0x1136 JUMPI SWAP2 PUSH2 0x1068 PUSH2 0x106E SWAP3 PUSH2 0x1074 SWAP6 SWAP5 PUSH2 0x1548 JUMP JUMPDEST SWAP1 PUSH2 0x15C0 JUMP JUMPDEST SWAP3 PUSH2 0x15C0 JUMP JUMPDEST SWAP1 PUSH3 0xF4240 DUP3 MUL SWAP2 DUP1 DUP4 DIV PUSH3 0xF4240 EQ SWAP1 ISZERO OR ISZERO PUSH2 0x1122 JUMPI LT PUSH2 0x10DD JUMPI PUSH2 0x109A SWAP2 PUSH2 0x163F JUMP JUMPDEST PUSH1 0x40 MLOAD SWAP4 DUP5 MSTORE PUSH1 0x20 DUP5 ADD MSTORE PUSH1 0x40 DUP4 ADD MSTORE PUSH1 0x60 DUP3 ADD MSTORE PUSH32 0xD78AD95FA46C994B6551D0DA85FC275FE613CE37657FB8D5E3D130840159D822 PUSH1 0x80 CALLER SWAP3 LOG3 PUSH1 0x1 PUSH1 0xB SSTORE DUP1 RETURN JUMPDEST PUSH1 0x40 MLOAD PUSH3 0x461BCD PUSH1 0xE5 SHL DUP2 MSTORE PUSH1 0x20 PUSH1 0x4 DUP3 ADD MSTORE PUSH1 0x1D PUSH1 0x24 DUP3 ADD MSTORE PUSH32 0x414D4D506F6F6C3A204B2076616C756520636865636B206661696C6564000000 PUSH1 0x44 DUP3 ADD MSTORE PUSH1 0x64 SWAP1 REVERT JUMPDEST PUSH4 0x4E487B71 PUSH1 0xE0 SHL DUP11 MSTORE PUSH1 0x11 PUSH1 0x4 MSTORE PUSH1 0x24 DUP11 REVERT JUMPDEST PUSH4 0x4E487B71 PUSH1 0xE0 SHL DUP14 MSTORE PUSH1 0x11 PUSH1 0x4 MSTORE PUSH1 0x24 DUP14 REVERT JUMPDEST PUSH4 0x4E487B71 PUSH1 0xE0 SHL DUP13 MSTORE PUSH1 0x11 PUSH1 0x4 MSTORE PUSH1 0x24 DUP13 REVERT JUMPDEST POP DUP6 ISZERO ISZERO PUSH2 0xFF7 JUMP JUMPDEST DUP9 SWAP4 PUSH2 0xFED JUMP JUMPDEST DUP7 SWAP5 PUSH2 0xFC3 JUMP JUMPDEST SWAP1 SWAP4 POP PUSH1 0x20 DUP2 RETURNDATASIZE PUSH1 0x20 GT PUSH2 0x11A1 JUMPI JUMPDEST DUP2 PUSH2 0x1191 PUSH1 0x20 SWAP4 DUP4 PUSH2 0x1353 JUMP JUMPDEST DUP2 ADD SUB SLT PUSH2 0x219 JUMPI MLOAD SWAP3 PUSH0 PUSH2 0xF98 JUMP JUMPDEST RETURNDATASIZE SWAP2 POP PUSH2 0x1184 JUMP JUMPDEST PUSH1 0x40 MLOAD RETURNDATASIZE DUP9 DUP3 RETURNDATACOPY RETURNDATASIZE SWAP1 REVERT JUMPDEST DUP5 EXTCODESIZE ISZERO PUSH2 0x219 JUMPI PUSH1 0x24 PUSH1 0xA4 PUSH0 SWAP3 DUP5 PUSH1 0x40 MLOAD SWAP6 DUP7 SWAP5 DUP6 SWAP4 PUSH4 0x5FEA11F7 PUSH1 0xE0 SHL DUP6 MSTORE CALLER PUSH1 0x4 DUP7 ADD MSTORE DUP10 DUP3 DUP7 ADD MSTORE DUP11 PUSH1 0x44 DUP7 ADD MSTORE PUSH1 0x80 PUSH1 0x64 DUP7 ADD MSTORE DUP3 PUSH1 0x84 DUP7 ADD MSTORE ADD DUP5 DUP5 ADD CALLDATACOPY DUP2 DUP2 ADD DUP4 ADD DUP6 SWAP1 MSTORE PUSH1 0x1F ADD PUSH1 0x1F NOT AND DUP2 ADD SUB ADD DUP2 DUP4 DUP9 GAS CALL DUP1 ISZERO PUSH2 0x1239 JUMPI PUSH2 0x1220 JUMPI JUMPDEST DUP1 PUSH2 0xF59 JUMP JUMPDEST PUSH1 0x24 SWAP3 SWAP2 SWAP5 POP PUSH0 PUSH2 0x1230 SWAP2 PUSH2 0x1353 JUMP JUMPDEST PUSH0 SWAP4 SWAP1 SWAP2 PUSH2 0x121A JUMP JUMPDEST PUSH1 0x40 MLOAD RETURNDATASIZE PUSH0 DUP3 RETURNDATACOPY RETURNDATASIZE SWAP1 REVERT JUMPDEST PUSH0 DUP1 SLOAD PUSH1 0x40 MLOAD PUSH4 0xA9059CBB PUSH1 0xE0 SHL DUP2 MSTORE PUSH1 0x1 PUSH1 0x1 PUSH1 0xA0 SHL SUB SWAP4 DUP5 AND PUSH1 0x4 DUP3 ADD MSTORE PUSH1 0x24 DUP2 ADD SWAP5 SWAP1 SWAP5 MSTORE PUSH1 0x20 SWAP3 DUP5 SWAP3 PUSH1 0x44 SWAP3 DUP5 SWAP3 AND GAS CALL DUP1 ISZERO PUSH2 0x1239 JUMPI PUSH2 0x128B JUMPI JUMPDEST DUP5 SWAP1 PUSH2 0xF51 JUMP JUMPDEST PUSH2 0x12A3 SWAP1 PUSH1 0x20 RETURNDATASIZE PUSH1 0x20 GT PUSH2 0x8A1 JUMPI PUSH2 0x894 DUP2 DUP4 PUSH2 0x1353 JUMP JUMPDEST POP PUSH0 PUSH2 0x1284 JUMP JUMPDEST PUSH2 0x12BD PUSH0 DUP1 DUP1 DUP1 DUP10 DUP13 GAS CALL PUSH2 0x725 PUSH2 0x14A5 JUMP JUMPDEST PUSH2 0xF4B JUMP JUMPDEST POP PUSH1 0x2 SLOAD DUP4 LT PUSH2 0xF3D JUMP JUMPDEST PUSH1 0x40 MLOAD PUSH3 0x461BCD PUSH1 0xE5 SHL DUP2 MSTORE PUSH1 0x20 PUSH1 0x4 DUP3 ADD MSTORE PUSH1 0x23 PUSH1 0x24 DUP3 ADD MSTORE PUSH32 0x414D4D506F6F6C3A20696E73756666696369656E74206F757470757420616D6F PUSH1 0x44 DUP3 ADD MSTORE PUSH3 0x1D5B9D PUSH1 0xEA SHL PUSH1 0x64 DUP3 ADD MSTORE PUSH1 0x84 SWAP1 REVERT JUMPDEST POP DUP6 ISZERO ISZERO PUSH2 0xF2B JUMP JUMPDEST PUSH1 0x4 CALLDATALOAD SWAP1 PUSH1 0x1 PUSH1 0x1 PUSH1 0xA0 SHL SUB DUP3 AND DUP3 SUB PUSH2 0x219 JUMPI JUMP JUMPDEST PUSH1 0x24 CALLDATALOAD SWAP1 PUSH1 0x1 PUSH1 0x1 PUSH1 0xA0 SHL SUB DUP3 AND DUP3 SUB PUSH2 0x219 JUMPI JUMP JUMPDEST SWAP1 PUSH1 0x1F DUP1 NOT SWAP2 ADD AND DUP2 ADD SWAP1 DUP2 LT PUSH8 0xFFFFFFFFFFFFFFFF DUP3 GT OR PUSH2 0x1375 JUMPI PUSH1 0x40 MSTORE JUMP JUMPDEST PUSH4 0x4E487B71 PUSH1 0xE0 SHL PUSH0 MSTORE PUSH1 0x41 PUSH1 0x4 MSTORE PUSH1 0x24 PUSH0 REVERT JUMPDEST PUSH1 0x20 PUSH1 0x40 SWAP3 DUP2 DUP4 MSTORE DUP1 MLOAD SWAP2 DUP3 SWAP2 DUP3 DUP3 DUP7 ADD MSTORE ADD DUP5 DUP5 ADD MCOPY PUSH0 DUP3 DUP3 ADD DUP5 ADD MSTORE PUSH1 0x1F ADD PUSH1 0x1F NOT AND ADD ADD SWAP1 JUMP JUMPDEST CALLVALUE PUSH2 0x219 JUMPI PUSH0 CALLDATASIZE PUSH1 0x3 NOT ADD SLT PUSH2 0x219 JUMPI PUSH1 0x20 PUSH1 0x40 MLOAD PUSH2 0x3E8 DUP2 MSTORE RETURN JUMPDEST ISZERO PUSH2 0x13D6 JUMPI JUMP JUMPDEST PUSH1 0x40 MLOAD PUSH3 0x461BCD PUSH1 0xE5 SHL DUP2 MSTORE PUSH1 0x20 PUSH1 0x4 DUP3 ADD MSTORE PUSH1 0x17 PUSH1 0x24 DUP3 ADD MSTORE PUSH32 0x414D4D506F6F6C3A207265656E7472616E742063616C6C000000000000000000 PUSH1 0x44 DUP3 ADD MSTORE PUSH1 0x64 SWAP1 REVERT JUMPDEST ISZERO PUSH2 0x1422 JUMPI JUMP JUMPDEST PUSH1 0x40 MLOAD PUSH3 0x461BCD PUSH1 0xE5 SHL DUP2 MSTORE PUSH1 0x20 PUSH1 0x4 DUP3 ADD MSTORE PUSH1 0xF PUSH1 0x24 DUP3 ADD MSTORE PUSH15 0x105353541BDBDB0E881C185D5CD959 PUSH1 0x8A SHL PUSH1 0x44 DUP3 ADD MSTORE PUSH1 0x64 SWAP1 REVERT JUMPDEST ISZERO PUSH2 0x1460 JUMPI JUMP JUMPDEST PUSH1 0x40 MLOAD PUSH3 0x461BCD PUSH1 0xE5 SHL DUP2 MSTORE PUSH1 0x20 PUSH1 0x4 DUP3 ADD MSTORE PUSH1 0x1F PUSH1 0x24 DUP3 ADD MSTORE PUSH32 0x414D4D506F6F6C3A20696E73756666696369656E74206C697175696469747900 PUSH1 0x44 DUP3 ADD MSTORE PUSH1 0x64 SWAP1 REVERT JUMPDEST RETURNDATASIZE ISZERO PUSH2 0x14DF JUMPI RETURNDATASIZE SWAP1 PUSH8 0xFFFFFFFFFFFFFFFF DUP3 GT PUSH2 0x1375 JUMPI PUSH1 0x40 MLOAD SWAP2 PUSH2 0x14D4 PUSH1 0x1F DUP3 ADD PUSH1 0x1F NOT AND PUSH1 0x20 ADD DUP5 PUSH2 0x1353 JUMP JUMPDEST DUP3 MSTORE RETURNDATASIZE PUSH0 PUSH1 0x20 DUP5 ADD RETURNDATACOPY JUMP JUMPDEST PUSH1 0x60 SWAP1 JUMP JUMPDEST ISZERO PUSH2 0x14EB JUMPI JUMP JUMPDEST PUSH1 0x40 MLOAD PUSH3 0x461BCD PUSH1 0xE5 SHL DUP2 MSTORE PUSH1 0x20 PUSH1 0x4 DUP3 ADD MSTORE PUSH1 0x1C PUSH1 0x24 DUP3 ADD MSTORE PUSH32 0x414D4D506F6F6C3A20545258207472616E73666572206661696C656400000000 PUSH1 0x44 DUP3 ADD MSTORE PUSH1 0x64 SWAP1 REVERT JUMPDEST SWAP1 DUP2 PUSH1 0x20 SWAP2 SUB SLT PUSH2 0x219 JUMPI MLOAD DUP1 ISZERO ISZERO DUP2 SUB PUSH2 0x219 JUMPI SWAP1 JUMP JUMPDEST SWAP2 SWAP1 DUP3 SUB SWAP2 DUP3 GT PUSH2 0x1555 JUMPI JUMP JUMPDEST PUSH4 0x4E487B71 PUSH1 0xE0 SHL PUSH0 MSTORE PUSH1 0x11 PUSH1 0x4 MSTORE PUSH1 0x24 PUSH0 REVERT JUMPDEST ISZERO PUSH2 0x1570 JUMPI JUMP JUMPDEST PUSH1 0x40 MLOAD PUSH3 0x461BCD PUSH1 0xE5 SHL DUP2 MSTORE PUSH1 0x20 PUSH1 0x4 DUP3 ADD MSTORE PUSH1 0x22 PUSH1 0x24 DUP3 ADD MSTORE PUSH32 0x414D4D506F6F6C3A20696E73756666696369656E7420696E70757420616D6F75 PUSH1 0x44 DUP3 ADD MSTORE PUSH2 0x1B9D PUSH1 0xF2 SHL PUSH1 0x64 DUP3 ADD MSTORE PUSH1 0x84 SWAP1 REVERT JUMPDEST DUP2 DUP2 MUL SWAP3 SWAP2 DUP2 ISZERO SWAP2 DUP5 DIV EQ OR ISZERO PUSH2 0x1555 JUMPI JUMP JUMPDEST DUP2 ISZERO PUSH2 0x15DD JUMPI DIV SWAP1 JUMP JUMPDEST PUSH4 0x4E487B71 PUSH1 0xE0 SHL PUSH0 MSTORE PUSH1 0x12 PUSH1 0x4 MSTORE PUSH1 0x24 PUSH0 REVERT JUMPDEST SWAP2 SWAP1 DUP3 ADD DUP1 SWAP3 GT PUSH2 0x1555 JUMPI JUMP JUMPDEST ISZERO PUSH2 0x1605 JUMPI JUMP JUMPDEST PUSH1 0x40 MLOAD PUSH3 0x461BCD PUSH1 0xE5 SHL DUP2 MSTORE PUSH1 0x20 PUSH1 0x4 DUP3 ADD MSTORE PUSH1 0x12 PUSH1 0x24 DUP3 ADD MSTORE PUSH18 0x20A6A6A837B7B61D103737BA1037BBB732B9 PUSH1 0x71 SHL PUSH1 0x44 DUP3 ADD MSTORE PUSH1 0x64 SWAP1 REVERT JUMPDEST PUSH4 0xFFFFFFFF TIMESTAMP AND SWAP2 PUSH1 0xA SLOAD SWAP3 PUSH4 0xFFFFFFFF DUP5 AND DUP2 SUB PUSH4 0xFFFFFFFF DUP2 GT PUSH2 0x1555 JUMPI PUSH4 0xFFFFFFFF AND DUP1 ISZERO ISZERO DUP1 PUSH2 0x1781 JUMPI JUMPDEST DUP1 PUSH2 0x1776 JUMPI JUMPDEST PUSH2 0x16C1 JUMPI JUMPDEST POP SWAP1 DUP3 SWAP2 PUSH32 0xCF2AA50876CDFBB541206F89AF0EE78D44A2ABF8D328E37FA4917F982149848A SWAP5 PUSH1 0x40 SWAP5 PUSH1 0x1 SSTORE DUP3 PUSH1 0x2 SSTORE PUSH4 0xFFFFFFFF NOT AND OR PUSH1 0xA SSTORE DUP3 MLOAD SWAP2 DUP3 MSTORE PUSH1 0x20 DUP3 ADD MSTORE LOG1 JUMP JUMPDEST SWAP3 SWAP2 SWAP1 PUSH1 0x2 SLOAD SWAP5 PUSH8 0xDE0B6B3A7640000 DUP7 MUL DUP7 DUP2 DIV PUSH8 0xDE0B6B3A7640000 EQ DUP8 ISZERO OR ISZERO PUSH2 0x1555 JUMPI PUSH2 0x1709 PUSH2 0x1701 DUP8 PUSH2 0x16FC PUSH1 0x1 SLOAD DUP1 SWAP6 PUSH2 0x15D3 JUMP JUMPDEST PUSH2 0x15C0 JUMP JUMPDEST PUSH1 0x8 SLOAD PUSH2 0x15F1 JUMP JUMPDEST PUSH1 0x8 SSTORE PUSH8 0xDE0B6B3A7640000 DUP2 MUL SWAP1 DUP1 DUP3 DIV PUSH8 0xDE0B6B3A7640000 EQ SWAP1 ISZERO OR ISZERO PUSH2 0x1555 JUMPI PUSH2 0x1761 PUSH1 0x40 SWAP7 PUSH2 0x16FC PUSH32 0xCF2AA50876CDFBB541206F89AF0EE78D44A2ABF8D328E37FA4917F982149848A SWAP10 PUSH2 0x1769 SWAP5 PUSH2 0x15D3 JUMP JUMPDEST PUSH1 0x9 SLOAD PUSH2 0x15F1 JUMP JUMPDEST PUSH1 0x9 SSTORE SWAP5 POP SWAP1 SWAP2 SWAP3 PUSH2 0x1679 JUMP JUMPDEST POP PUSH1 0x2 SLOAD ISZERO ISZERO PUSH2 0x1674 JUMP JUMPDEST POP PUSH1 0x1 SLOAD ISZERO ISZERO PUSH2 0x166E JUMP JUMPDEST PUSH1 0x1 PUSH1 0x1 PUSH1 0xA0 SHL SUB SWAP1 SWAP2 AND SWAP2 SWAP1 DUP3 ISZERO PUSH2 0x1805 JUMPI PUSH1 0x20 PUSH32 0xDDF252AD1BE2C89B69C2B068FC378DAA952BA7F163C4A11628F55A4DF523B3EF SWAP2 PUSH1 0x1 DUP1 PUSH1 0xA0 SHL SUB AND SWAP3 DUP4 PUSH0 MSTORE PUSH1 0x4 DUP3 MSTORE PUSH1 0x40 PUSH0 KECCAK256 PUSH2 0x17E2 DUP3 DUP3 SLOAD PUSH2 0x1548 JUMP JUMPDEST SWAP1 SSTORE DUP5 PUSH0 MSTORE PUSH1 0x4 DUP3 MSTORE PUSH1 0x40 PUSH0 KECCAK256 PUSH2 0x17FA DUP3 DUP3 SLOAD PUSH2 0x15F1 JUMP JUMPDEST SWAP1 SSTORE PUSH1 0x40 MLOAD SWAP1 DUP2 MSTORE LOG3 JUMP JUMPDEST PUSH1 0x40 MLOAD PUSH3 0x461BCD PUSH1 0xE5 SHL DUP2 MSTORE PUSH1 0x20 PUSH1 0x4 DUP3 ADD MSTORE PUSH1 0x21 PUSH1 0x24 DUP3 ADD MSTORE PUSH32 0x414D4D506F6F6C3A207472616E7366657220746F207A65726F20616464726573 PUSH1 0x44 DUP3 ADD MSTORE PUSH1 0x73 PUSH1 0xF8 SHL PUSH1 0x64 DUP3 ADD MSTORE PUSH1 0x84 SWAP1 REVERT INVALID LOG2 PUSH5 0x6970667358 0x22 SLT KECCAK256 JUMPI 0xD0 0xE7 DUP9 LOG0 POP CALLVALUE PUSH13 0x2DDB8372EEE05E8DF906C2C528 SWAP6 MCOPY 0xBA PUSH7 0x678F5EE609DDB7 PUSH5 0x736F6C6343 STOP ADDMOD SHL STOP CALLER "},"methodIdentifiers":{"FEE_DENOMINATOR()":"d73792a9","FEE_NUMERATOR()":"41cd47bf","MINIMUM_LIQUIDITY()":"ba9a7a56","allowance(address,address)":"dd62ed3e","approve(address,uint256)":"095ea7b3","balanceOf(address)":"70a08231","blockTimestampLast()":"c5700a02","burn(address)":"89afcb44","decimals()":"313ce567","getAmountOutCHIPToTRX(uint256)":"946b7a92","getAmountOutTRXToCHIP(uint256)":"e2638211","getCurrentPrice()":"eb91d37e","getReserves()":"0902f1ac","kLast()":"7464fc3d","mint(address)":"6a627842","name()":"06fdde03","owner()":"8da5cb5b","paused()":"5c975abb","price0CumulativeLast()":"5909c0d5","price1CumulativeLast()":"5a3d5493","reserveCHIP()":"fbc31dc4","reserveTRX()":"cecde765","setPause(bool)":"bedb86fb","swap(uint256,uint256,address,bytes)":"022c0d9f","symbol()":"95d89b41","sync()":"fff6cae9","token()":"fc0c546a","totalSupply()":"18160ddd","transfer(address,uint256)":"a9059cbb","transferFrom(address,address,uint256)":"23b872dd","transferOwnership(address)":"f2fde38b"}}}}}