{"contracts/Tournament.sol":{"Tournament":{"abi":[{"inputs":[{"internalType":"address","name":"_serverWallet","type":"address"},{"internalType":"address","name":"_chipToken","type":"address"}],"stateMutability":"nonpayable","type":"constructor"},{"anonymous":false,"inputs":[{"indexed":true,"internalType":"address","name":"previousOwner","type":"address"},{"indexed":true,"internalType":"address","name":"newOwner","type":"address"}],"name":"OwnershipTransferred","type":"event"},{"anonymous":false,"inputs":[{"indexed":false,"internalType":"address","name":"account","type":"address"}],"name":"Paused","type":"event"},{"anonymous":false,"inputs":[{"indexed":true,"internalType":"uint256","name":"tournamentId","type":"uint256"},{"indexed":true,"internalType":"address","name":"player","type":"address"},{"indexed":false,"internalType":"uint8","name":"position","type":"uint8"}],"name":"PlayerJoined","type":"event"},{"anonymous":false,"inputs":[{"indexed":true,"internalType":"uint256","name":"tournamentId","type":"uint256"},{"indexed":true,"internalType":"address","name":"player","type":"address"}],"name":"PlayerLeft","type":"event"},{"anonymous":false,"inputs":[{"indexed":true,"internalType":"uint256","name":"tournamentId","type":"uint256"},{"indexed":true,"internalType":"address","name":"player","type":"address"},{"indexed":false,"internalType":"uint256","name":"amount","type":"uint256"}],"name":"PrizeClaimed","type":"event"},{"anonymous":false,"inputs":[{"indexed":true,"internalType":"uint256","name":"tournamentId","type":"uint256"}],"name":"TournamentCancelled","type":"event"},{"anonymous":false,"inputs":[{"indexed":true,"internalType":"uint256","name":"configId","type":"uint256"},{"indexed":false,"internalType":"enum Tournament.TournamentType","name":"tournamentType","type":"uint8"},{"indexed":false,"internalType":"uint8","name":"playerCount","type":"uint8"}],"name":"TournamentConfigCreated","type":"event"},{"anonymous":false,"inputs":[{"indexed":true,"internalType":"uint256","name":"tournamentId","type":"uint256"},{"indexed":true,"internalType":"uint256","name":"configId","type":"uint256"}],"name":"TournamentCreated","type":"event"},{"anonymous":false,"inputs":[{"indexed":true,"internalType":"uint256","name":"tournamentId","type":"uint256"},{"indexed":false,"internalType":"address[]","name":"rankings","type":"address[]"},{"indexed":false,"internalType":"uint256","name":"rakeCollected","type":"uint256"}],"name":"TournamentFinished","type":"event"},{"anonymous":false,"inputs":[{"indexed":true,"internalType":"uint256","name":"tournamentId","type":"uint256"},{"indexed":false,"internalType":"uint256","name":"prizePool","type":"uint256"},{"indexed":false,"internalType":"uint256","name":"playerCount","type":"uint256"}],"name":"TournamentStarted","type":"event"},{"anonymous":false,"inputs":[{"indexed":false,"internalType":"address","name":"account","type":"address"}],"name":"Unpaused","type":"event"},{"stateMutability":"payable","type":"fallback"},{"inputs":[{"internalType":"uint256","name":"","type":"uint256"}],"name":"activeTournaments","outputs":[{"internalType":"uint256","name":"","type":"uint256"}],"stateMutability":"view","type":"function"},{"inputs":[{"internalType":"uint256","name":"tournamentId","type":"uint256"}],"name":"cancelJoin","outputs":[],"stateMutability":"nonpayable","type":"function"},{"inputs":[{"internalType":"uint256","name":"tournamentId","type":"uint256"}],"name":"cancelTournament","outputs":[],"stateMutability":"nonpayable","type":"function"},{"inputs":[],"name":"chipToken","outputs":[{"internalType":"address","name":"","type":"address"}],"stateMutability":"view","type":"function"},{"inputs":[{"internalType":"uint256","name":"tournamentId","type":"uint256"}],"name":"claimPrize","outputs":[],"stateMutability":"nonpayable","type":"function"},{"inputs":[{"internalType":"uint256","name":"","type":"uint256"}],"name":"configs","outputs":[{"internalType":"enum Tournament.TournamentType","name":"tournamentType","type":"uint8"},{"internalType":"uint8","name":"playerCount","type":"uint8"},{"internalType":"uint256","name":"buyIn","type":"uint256"},{"internalType":"uint256","name":"rakeRate","type":"uint256"},{"internalType":"uint256","name":"initialChips","type":"uint256"},{"internalType":"enum Tournament.StartMode","name":"startMode","type":"uint8"},{"internalType":"uint256","name":"waitTimeout","type":"uint256"}],"stateMutability":"view","type":"function"},{"inputs":[{"internalType":"uint256","name":"configId","type":"uint256"}],"name":"createTournament","outputs":[{"internalType":"uint256","name":"","type":"uint256"}],"stateMutability":"nonpayable","type":"function"},{"inputs":[{"internalType":"enum Tournament.TournamentType","name":"_tournamentType","type":"uint8"},{"internalType":"uint8","name":"_playerCount","type":"uint8"},{"internalType":"uint256","name":"_buyIn","type":"uint256"},{"internalType":"uint256","name":"_rakeRate","type":"uint256"},{"internalType":"uint256[]","name":"_prizeDistribution","type":"uint256[]"},{"internalType":"uint256","name":"_initialChips","type":"uint256"},{"internalType":"enum Tournament.StartMode","name":"_startMode","type":"uint8"},{"internalType":"uint256","name":"_waitTimeout","type":"uint256"}],"name":"createTournamentConfig","outputs":[{"internalType":"uint256","name":"","type":"uint256"}],"stateMutability":"nonpayable","type":"function"},{"inputs":[],"name":"emergencyWithdraw","outputs":[],"stateMutability":"nonpayable","type":"function"},{"inputs":[{"internalType":"uint256","name":"tournamentId","type":"uint256"},{"internalType":"address","name":"player","type":"address"}],"name":"findPlayerIndex","outputs":[{"internalType":"uint256","name":"","type":"uint256"}],"stateMutability":"view","type":"function"},{"inputs":[{"internalType":"uint256","name":"tournamentId","type":"uint256"},{"internalType":"address[]","name":"rankings","type":"address[]"}],"name":"finishTournament","outputs":[],"stateMutability":"nonpayable","type":"function"},{"inputs":[],"name":"getActiveTournaments","outputs":[{"internalType":"uint256[]","name":"","type":"uint256[]"}],"stateMutability":"view","type":"function"},{"inputs":[{"internalType":"uint256","name":"tournamentId","type":"uint256"},{"internalType":"address","name":"player","type":"address"}],"name":"getPlayerPrize","outputs":[{"internalType":"uint256","name":"","type":"uint256"}],"stateMutability":"view","type":"function"},{"inputs":[{"internalType":"uint256","name":"configId","type":"uint256"}],"name":"getTournamentConfig","outputs":[{"internalType":"enum Tournament.TournamentType","name":"tournamentType","type":"uint8"},{"internalType":"uint8","name":"playerCount","type":"uint8"},{"internalType":"uint256","name":"buyIn","type":"uint256"},{"internalType":"uint256","name":"rakeRate","type":"uint256"},{"internalType":"uint256[]","name":"prizeDistribution","type":"uint256[]"},{"internalType":"uint256","name":"initialChips","type":"uint256"},{"internalType":"enum Tournament.StartMode","name":"startMode","type":"uint8"},{"internalType":"uint256","name":"waitTimeout","type":"uint256"}],"stateMutability":"view","type":"function"},{"inputs":[{"internalType":"uint256","name":"tournamentId","type":"uint256"}],"name":"getTournamentInfo","outputs":[{"internalType":"uint256","name":"configId","type":"uint256"},{"internalType":"enum Tournament.TournamentStatus","name":"status","type":"uint8"},{"internalType":"address[]","name":"players","type":"address[]"},{"internalType":"uint256","name":"prizePool","type":"uint256"},{"internalType":"uint256","name":"rakeCollected","type":"uint256"},{"internalType":"uint256","name":"startTime","type":"uint256"},{"internalType":"uint256","name":"endTime","type":"uint256"},{"internalType":"address[]","name":"finalRankings","type":"address[]"}],"stateMutability":"view","type":"function"},{"inputs":[{"internalType":"uint256","name":"tournamentId","type":"uint256"}],"name":"getTournamentPlayers","outputs":[{"internalType":"address[]","name":"","type":"address[]"}],"stateMutability":"view","type":"function"},{"inputs":[{"internalType":"uint256","name":"tournamentId","type":"uint256"},{"internalType":"address","name":"player","type":"address"}],"name":"hasPlayerJoined","outputs":[{"internalType":"bool","name":"","type":"bool"}],"stateMutability":"view","type":"function"},{"inputs":[{"internalType":"uint256","name":"tournamentId","type":"uint256"}],"name":"joinTournament","outputs":[],"stateMutability":"payable","type":"function"},{"inputs":[],"name":"owner","outputs":[{"internalType":"address","name":"","type":"address"}],"stateMutability":"view","type":"function"},{"inputs":[],"name":"pause","outputs":[],"stateMutability":"nonpayable","type":"function"},{"inputs":[],"name":"paused","outputs":[{"internalType":"bool","name":"","type":"bool"}],"stateMutability":"view","type":"function"},{"inputs":[{"internalType":"address","name":"","type":"address"}],"name":"playerCurrentTournament","outputs":[{"internalType":"uint256","name":"","type":"uint256"}],"stateMutability":"view","type":"function"},{"inputs":[],"name":"renounceOwnership","outputs":[],"stateMutability":"nonpayable","type":"function"},{"inputs":[],"name":"serverWallet","outputs":[{"internalType":"address","name":"","type":"address"}],"stateMutability":"view","type":"function"},{"inputs":[{"internalType":"address","name":"_chipToken","type":"address"}],"name":"setChipToken","outputs":[],"stateMutability":"nonpayable","type":"function"},{"inputs":[{"internalType":"address","name":"_serverWallet","type":"address"}],"name":"setServerWallet","outputs":[],"stateMutability":"nonpayable","type":"function"},{"inputs":[{"internalType":"uint256","name":"tournamentId","type":"uint256"}],"name":"startTournament","outputs":[],"stateMutability":"nonpayable","type":"function"},{"inputs":[],"name":"tournamentCounter","outputs":[{"internalType":"uint256","name":"","type":"uint256"}],"stateMutability":"view","type":"function"},{"inputs":[{"internalType":"uint256","name":"","type":"uint256"}],"name":"tournaments","outputs":[{"internalType":"uint256","name":"configId","type":"uint256"},{"internalType":"enum Tournament.TournamentStatus","name":"status","type":"uint8"},{"internalType":"uint256","name":"prizePool","type":"uint256"},{"internalType":"uint256","name":"rakeCollected","type":"uint256"},{"internalType":"uint256","name":"startTime","type":"uint256"},{"internalType":"uint256","name":"endTime","type":"uint256"}],"stateMutability":"view","type":"function"},{"inputs":[{"internalType":"address","name":"newOwner","type":"address"}],"name":"transferOwnership","outputs":[],"stateMutability":"nonpayable","type":"function"},{"inputs":[],"name":"unpause","outputs":[],"stateMutability":"nonpayable","type":"function"},{"stateMutability":"payable","type":"receive"}],"evm":{"bytecode":{"linkReferences":{},"object":"608060405234610779576129fc6040813803918261001c8161079d565b9384928339810103126107795761003e6020610037836107c2565b92016107c2565b9060015f5560015490604051913360018060a01b0382167f8be0079c531659141344cd1fd0a4f28419497f9722a3daafe3b4186f6b6457e05f80a36001600160a81b0319163360ff60a01b1916176001556001600160a01b031690811561072d575060018060a01b0319600254161760025560018060a01b031660018060a01b031960035416176003555f60045560606100d78161079d565b6002815290601f19810136602084013760466100f2836107d6565b52601e6100fe836107e3565b5261010761077d565b5f81526020810160028152604082016305f5e10081528383016101f481526080840195865260a08401906103e8825260c08501925f845260e08601945f865260015f52600560205260405f2096519061015f82610803565b61016882610803565b60ff61ff008954925160081b1692169061ffff19161717865551600186015551600285015560038401955180519060018060401b03821161065757680100000000000000008211610657578754828955808310610707575b50602001965f5260205f20965f5b8281106106f35750505090600692915160048501556005840190516101f281610803565b6101fb81610803565b60ff801983541691161790555191015560806102168161079d565b60038152601f1982019290833660208301376032610233826107d6565b52601e61023f826107e3565b52601461024b826107f3565b5261025461077d565b905f825260208201906003825260408301906302faf0808252848401906101f4825286850190815260a08501916105dc835260c08601935f855260e08701955f875260025f52600560205260405f209751906102af82610803565b6102b882610803565b60ff61ff008a54925160081b1692169061ffff1916171787555160018701555160028601556003850190519081519160018060401b038311610657576801000000000000000083116106575781548383558084106106cd575b50602001905f5260205f205f5b8381106106b95750505050906006929151600485015560058401905161034381610803565b61034c81610803565b60ff80198354169116179055519101556103658261079d565b9260038452366020850137603261037b846107d6565b52601e610387846107e3565b526014610393846107f3565b5261039c61077d565b5f81526020810160068152604082016302faf08081528383016101f4815285840196875260a08401906105dc825260c08501925f845260e08601945f865260035f52600560205260405f209651906103f382610803565b6103fc82610803565b60ff61ff008954925160081b1692169061ffff19161717865551600186015551600285015560038401965180519060018060401b03821161065757680100000000000000008211610657578854828a55808310610693575b50602001975f5260205f20975f5b82811061067f57505050906006929151600485015560058401905161048681610803565b61048f81610803565b60ff80198354169116179055519101556104a960c061079d565b916005835260a0366020850137602d6104c1846107d6565b5260196104cd846107e3565b52600f6104d9846107f3565b5282516003101561066b57600a8184015282516004101561066b57600560a084015261050361077d565b916001835260208301916009835260408401916305f5e10083528401906101f48252840194855260a08401906107d0825260c08501926001845260e086019461012c865260045f52600560205260405f2096519061056082610803565b61056982610803565b60ff61ff008954925160081b1692169061ffff19161717865551600186015551600285015560038401945180519060018060401b03821161065757680100000000000000008211610657578654828855808310610631575b50602001955f5260205f20955f5b82811061061d578660068787875160048501556005840190516105f181610803565b6105fa81610803565b60ff8019835416911617905551910155600480556040516121da90816108228239f35b60019060208351930192818a0155016105cf565b875f528260205f2091820191015b81811061064c57506105c1565b5f815560010161063f565b634e487b7160e01b5f52604160045260245ffd5b634e487b7160e01b5f52603260045260245ffd5b60019060208351930192818c015501610462565b895f528260205f2091820191015b8181106106ae5750610454565b5f81556001016106a1565b60019060208451940193818401550161031e565b825f528360205f2091820191015b8181106106e85750610311565b5f81556001016106db565b60019060208351930192818b0155016101ce565b885f528260205f2091820191015b81811061072257506101c0565b5f8155600101610715565b62461bcd60e51b815260206004820152602160248201527f546f75726e616d656e743a20696e76616c6964207365727665722077616c6c656044820152601d60fa1b6064820152608490fd5b5f80fd5b6040519061010082016001600160401b0381118382101761065757604052565b6040519190601f01601f191682016001600160401b0381118382101761065757604052565b51906001600160a01b038216820361077957565b80511561066b5760200190565b80516001101561066b5760400190565b80516002101561066b5760600190565b6002111561080d57565b634e487b7160e01b5f52602160045260245ffdfe608080604052600436101561001057005b5f3560e01c90816298fa2214611be55750806307286e2f14611bb55780631372fe8f146117525780631a59f0f01461172a57806326f7519a146116e9578063324322331461159c57806337ada345146115595780633b61403c146115315780633f4ba83a146114965780633fbe4918146113ad578063464899ba146113665780634a88fd431461112657806356eafcc014610dca5780635c975abb14610da5578063651ea94314610c5b578063692734fe14610bf1578063715018a614610b9657806373ed5c1c14610b795780637503e1b714610b0d5780637a99aca414610adf5780638456cb5914610a7e5780638da5cb5b14610a56578063c441544614610a1e578063cac766d214610971578063d115cac6146106f8578063d706ab3c14610667578063d709815414610437578063db2e21bc146103b8578063dd20a53e1461026f578063f2fde38b146101a85763f780210b1461016c57005b346101a45760203660031901126101a4576001600160a01b0361018d611c87565b165f526007602052602060405f2054604051908152f35b5f80fd5b346101a45760203660031901126101a4576101c1611c87565b6101c96120b1565b6001600160a01b0316801561021b57600180546001600160a01b0319811683179091556001600160a01b03167f8be0079c531659141344cd1fd0a4f28419497f9722a3daafe3b4186f6b6457e05f80a3005b60405162461bcd60e51b815260206004820152602660248201527f4f776e61626c653a206e6577206f776e657220697320746865207a65726f206160448201526564647265737360d01b6064820152608490fd5b346101a45760203660031901126101a45760043561029860018060a01b03600254163314611eca565b805f52600560205260ff60405f205460081c1615610369576102bb600454611e03565b9081600455815f5260066020525f6006604082208381556001810160ff198154169055826003820155826004820155826005820155015560085491600160401b8310156103555761031483600160209501600855611d4a565b81549060031b9083821b915f19901b191617905560405191817fcbdd4006f4a0ca378f1c5d1f11060ba15bc180a12590dd3ea3c219454582939e5f80a38152f35b634e487b7160e01b5f52604160045260245ffd5b60405162461bcd60e51b815260206004820152602160248201527f546f75726e616d656e743a20636f6e66696720646f6573206e6f7420657869736044820152601d60fa1b6064820152608490fd5b346101a4575f3660031901126101a4576103d06120b1565b5f8080804760018060a01b03600154165af16103ea611f61565b50156103f257005b60405162461bcd60e51b815260206004820152601d60248201527f546f75726e616d656e743a207769746864726177616c206661696c65640000006044820152606490fd5b346101a45760203660031901126101a457600435610453612109565b8015158061065b575b61046590611f15565b805f52600660205260405f209060ff60018301541660048110156106475760020361060257600982019160018060a01b0333165f528260205260ff60405f2054166105bd5760080160018060a01b0333165f528060205260405f20541561058157335f818152602092835260408082205495909352918220805460ff1916600117905581908190819086905af16104fa611f61565b5015610532576040519182527f4aa95f981a8337cb337de335b965507da0879c3b49f799d20058e913f5ad2c2660203393a360015f55005b60405162461bcd60e51b815260206004820152602160248201527f546f75726e616d656e743a207072697a65207472616e73666572206661696c656044820152601960fa1b6064820152608490fd5b60405162461bcd60e51b8152602060048201526014602482015273546f75726e616d656e743a206e6f207072697a6560601b6044820152606490fd5b60405162461bcd60e51b815260206004820152601b60248201527f546f75726e616d656e743a20616c726561647920636c61696d656400000000006044820152606490fd5b60405162461bcd60e51b815260206004820152601960248201527f546f75726e616d656e743a206e6f7420636f6d706c65746564000000000000006044820152606490fd5b634e487b7160e01b5f52602160045260245ffd5b5060045481111561045c565b346101a45760203660031901126101a457610680611c87565b6106886120b1565b6001600160a01b031680156106b3576bffffffffffffffffffffffff60a01b60025416176002555f80f35b60405162461bcd60e51b815260206004820152601b60248201527f546f75726e616d656e743a20696e76616c6964206164647265737300000000006044820152606490fd5b60203660031901126101a45760043561070f612109565b61071761215d565b80151580610965575b61072990611f15565b805f52600660205260ff600160405f2001541660048110156106475761074f9015611fec565b335f52600760205260405f205461091657805f52600660205260405f2080545f52600560205260405f20600181015434036108c557600282019060ff8254915460081c16811015610880576107a43385611d8b565b61083b57600160401b8110156103555760ff926107ea6107cc83600160039501865585611d76565b81546001600160a01b0360039290921b91821b19163390911b179055565b016107f6348254611df6565b9055335f5260076020528260405f20555416906040519182527f267de9464a1783407eb0e8ba56bcd59ef059648e576c0703bfd6a3b84355e83160203393a360015f55005b60405162461bcd60e51b815260206004820152601a60248201527f546f75726e616d656e743a20616c7265616479206a6f696e65640000000000006044820152606490fd5b60405162461bcd60e51b815260206004820152601860248201527f546f75726e616d656e743a20616c72656164792066756c6c00000000000000006044820152606490fd5b60405162461bcd60e51b815260206004820152602360248201527f546f75726e616d656e743a20696e636f7272656374206275792d696e20616d6f6044820152621d5b9d60ea1b6064820152608490fd5b60405162461bcd60e51b815260206004820152602160248201527f546f75726e616d656e743a20616c726561647920696e20746f75726e616d656e6044820152601d60fa1b6064820152608490fd5b50600454811115610720565b346101a45760203660031901126101a4576004355f52600660205260405f208054610a1a60ff60018401541692600381015490600481015460058201546006830154916109f86109cf60076109c860028801611e77565b9601611e77565b946109e56040519a8b9a8b5260208b0190611d3d565b61010060408a0152610100890190611cce565b946060880152608087015260a086015260c085015283820360e0850152611cce565b0390f35b346101a45760203660031901126101a4576004356008548110156101a457610a47602091611d4a565b90549060031b1c604051908152f35b346101a4575f3660031901126101a4576001546040516001600160a01b039091168152602090f35b346101a4575f3660031901126101a457610a966120b1565b610a9e61215d565b6001805460ff60a01b1916600160a01b1790556040513381527f62e78cea01bee320cd4e420270b5ea74000d11b0c9f74754ebdbfc544b05a25890602090a1005b346101a45760403660031901126101a4576020610b05610afd611c71565b600435612059565b604051908152f35b346101a45760203660031901126101a4576004355f52600660205260c060405f2080549060ff600182015416906003810154600482015490610b6360066005850154940154946040519687526020870190611d3d565b60408501526060840152608083015260a0820152f35b346101a4575f3660031901126101a4576020600454604051908152f35b346101a4575f3660031901126101a457610bae6120b1565b600180546001600160a01b031981169091555f906001600160a01b03167f8be0079c531659141344cd1fd0a4f28419497f9722a3daafe3b4186f6b6457e08280a3005b346101a4575f3660031901126101a457604051600854808252602082019060085f5260205f20905f5b818110610c4557610a1a85610c3181870382611e11565b604051918291602083526020830190611d0a565b8254845260209093019260019283019201610c1a565b346101a45760203660031901126101a457600435610c8460018060a01b03600254163314611eca565b80151580610d99575b610c9690611f15565b805f52600660205260ff600160405f20015416600481101561064757610cbc9015611fec565b805f52600660205260405f2080545f52600560205260405f209060028101805460ff845460081c1603610d5d577f2b4fbc018be75e6ff98b219698828856ce311122193b11596150e17268e2ee319282610d3660036040950192612710610d296002865493015483611e33565b0490816004850155612038565b825560018101600160ff1982541617905560054291015554905482519182526020820152a2005b60405162461bcd60e51b8152602060048201526014602482015273151bdd5c9b985b595b9d0e881b9bdd08199d5b1b60621b6044820152606490fd5b50600454811115610c8d565b346101a4575f3660031901126101a457602060ff60015460a01c166040519015158152f35b346101a45760403660031901126101a45760043560243567ffffffffffffffff81116101a457610dfe903690600401611c9d565b90610e1460018060a01b03600254163314611eca565b8215158061111a575b610e2690611f15565b825f52600660205260405f209182545f52600560205260405f2092600181019360ff8554166004811015610647576001036110d55760028201948554840361109057805460ff191660021790554260068301556007820167ffffffffffffffff841161035557600160401b841161035557610ea984829897985481845583611e46565b84905f5260205f20905f5b85811061106f575050505f95600380840192019260088101975b85811080611065575b15610f3357610f2e906064610efe8654610ef1848a611d76565b90549060031b1c90611e33565b04610f12610f0d838a8c611de6565b612045565b6001600160a01b03165f90815260208c90526040902055611e03565b610ece565b508685875f5b8554811015610f705780610f4f60019288611d76565b838060a01b0391549060031b1c165f5260076020525f604081205501610f39565b5060048401805480610ff7575b505460405192806040850160408652526060840192905f905b808210610fcd57867f68ff998150d8d5bc22837fa5efdcd59959b9994717ca44d405597ff822cb7c1c8780888860208301520390a2005b90919384359060018060a01b0382168092036101a457602081600193829352019501920190610f96565b6002545f918291829182916001600160a01b03165af1611015611f61565b50156110215784610f7d565b606460405162461bcd60e51b815260206004820152602060248201527f546f75726e616d656e743a2072616b65207472616e73666572206661696c65646044820152fd5b5084548110610ed7565b6001906020611080849b9a9b612045565b9301928185015501979697610eb4565b60405162461bcd60e51b815260206004820152601c60248201527f546f75726e616d656e743a20696e76616c69642072616e6b696e6773000000006044820152606490fd5b60405162461bcd60e51b815260206004820152601b60248201527f546f75726e616d656e743a206e6f7420696e2070726f677265737300000000006044820152606490fd5b50600454831115610e1d565b346101a45760203660031901126101a457600435611142612109565b8015158061135a575b61115490611f15565b805f52600660205260ff600160405f2001541660048110156106475761117a9015611fec565b805f52600660205260405f2080545f52600560205260405f209061119e3384611d8b565b1561131c576111ad3384612059565b916002820192835490818110156112d7575f1982019182116112c3576111f26111d96112169387611d76565b905460039190911b1c6001600160a01b03169186611d76565b81546001600160a01b0393841660039290921b91821b9390911b1916919091179055565b82549081156112af575f809360018294936112839784958519019061123b8282611d76565b815490868060a01b039060031b1b19169055550190611261600383549201918254612038565b9055338252600760205281604081205554335af161127d611f61565b50611fa0565b33907fb2bd643202385c64d9814c6c3fa61b1ba098d6652292e9d9a6f1a0cdae6eb8245f80a360015f55005b634e487b7160e01b5f52603160045260245ffd5b634e487b7160e01b5f52601160045260245ffd5b60405162461bcd60e51b815260206004820152601c60248201527f546f75726e616d656e743a20706c61796572206e6f7420666f756e64000000006044820152606490fd5b60405162461bcd60e51b8152602060048201526016602482015275151bdd5c9b985b595b9d0e881b9bdd081a9bda5b995960521b6044820152606490fd5b5060045481111561114b565b346101a45760403660031901126101a45761137f611c71565b6004355f526006602052600860405f20019060018060a01b03165f52602052602060405f2054604051908152f35b346101a45760203660031901126101a4576004355f52600560205260405f2080549060ff821690600181015460028201549160038101600482015493600660ff6005850154169301549360405192805480855260208501915f5260205f20905f5b818110611480575050509061142a846114639594930384611e11565b60ff604051998961143b8c9b611c67565b8a5260081c166020890152604088015260608701526101006080870152610100860190611d0a565b9260a085015261147281611c67565b60c084015260e08301520390f35b825484526020909301926001928301920161140e565b346101a4575f3660031901126101a4576114ae6120b1565b60015460ff8160a01c16156114f55760ff60a01b19166001556040513381527f5db9ee0a495bf2e6ff9c91a7834c1ba4fdd244a5e8aa4e537bd38aeae4b073aa90602090a1005b60405162461bcd60e51b815260206004820152601460248201527314185d5cd8589b194e881b9bdd081c185d5cd95960621b6044820152606490fd5b346101a4575f3660031901126101a4576003546040516001600160a01b039091168152602090f35b346101a45760203660031901126101a457611572611c87565b61157a6120b1565b600380546001600160a01b0319166001600160a01b0392909216919091179055005b346101a45760203660031901126101a4576004356115c560018060a01b03600254163314611eca565b801515806116dd575b6115d790611f15565b805f52600660205260405f20906001820160ff815416600481101561064757611698578290600360ff1982541617905580545f526005602052600160405f200154915f9060028301915b825481101561166b57806116655f8080808a61163f6001988b611d76565b898060a01b0391549060031b1c1680835260076020528260408120555af161127d611f61565b01611621565b505f60038401557ffa61ec8d7e5a58ceba17772b10ba0c6caa65b40b200302be35f00efc264c78955f80a2005b60405162461bcd60e51b815260206004820152601960248201527f546f75726e616d656e743a2063616e6e6f742063616e63656c000000000000006044820152606490fd5b506004548111156115ce565b346101a45760203660031901126101a4576004355f526006602052610a1a611716600260405f2001611e77565b604051918291602083526020830190611cce565b346101a4575f3660031901126101a4576002546040516001600160a01b039091168152602090f35b346101a4576101003660031901126101a45760043560028110156101a4576024359060ff82168092036101a457604435906064359260843567ffffffffffffffff81116101a4576117a7903690600401611c9d565b949060c43560028110156101a4576117bd6120b1565b600284148015611bab575b8015611ba1575b8015611b97575b15611b53578515611afc576103e88311611ab7578615611a66575f805b888210611a465760649150036119ea5761180e600454611e03565b958660045560405193610100850185811067ffffffffffffffff8211176103555760405261183b87611c67565b8685526020850193868552604086019283526060860191825267ffffffffffffffff8a11610355578960051b6040519a611878602083018d611e11565b8b5260208b01908201913683116101a457905b8282106119da575050506080850198895260a085019160a435835260c08601936118b481611c67565b845260e086019460e4358652895f52600560205260405f209651906118d882611c67565b6118e182611c67565b60ff61ff008954925160081b1692169061ffff19161717865551600186015551600285015560038401975180519067ffffffffffffffff821161035557600160401b82116103555760209061193c838c81815491558d611e46565b01985f5260205f20985f5b8281106119c65760208a807f38493c0e0e8e5bfa42838675ac563952c7c48da1b9917b08348dc5cc303662b260408d8d8d60068e8e8e51600485015560058401905161199281611c67565b61199b81611c67565b60ff80198354169116179055519101558251916119b781611c67565b825286820152a2604051908152f35b60019060208351930192818d015501611947565b813581526020918201910161188b565b60405162461bcd60e51b815260206004820152602e60248201527f546f75726e616d656e743a207072697a6520646973747269627574696f6e206d60448201526d07573742073756d20746f203130360941b6064820152608490fd5b611a5e600191611a57848c88611de6565b3590611df6565b9101906117f3565b60405162461bcd60e51b8152602060048201526024808201527f546f75726e616d656e743a20656d707479207072697a652064697374726962756044820152633a34b7b760e11b6064820152608490fd5b60405162461bcd60e51b815260206004820152601e60248201527f546f75726e616d656e743a2072616b65207261746520746f6f206869676800006044820152606490fd5b60405162461bcd60e51b815260206004820152602960248201527f546f75726e616d656e743a206275792d696e206d75737420626520677265617460448201526806572207468616e20360bc1b6064820152608490fd5b606460405162461bcd60e51b815260206004820152602060248201527f546f75726e616d656e743a20696e76616c696420706c6179657220636f756e746044820152fd5b50600984146117d6565b50600684146117cf565b50600384146117c8565b346101a45760403660031901126101a4576020611bdb611bd3611c71565b600435611d8b565b6040519015158152f35b346101a45760203660031901126101a45760e0906004355f52600560205260405f2080549060ff821691600182015460028301549060ff60048501549360068260058801541696015496611c3881611c67565b885260081c166020870152604086015260608501526080840152611c5b81611c67565b60a083015260c0820152f35b6002111561064757565b602435906001600160a01b03821682036101a457565b600435906001600160a01b03821682036101a457565b9181601f840112156101a45782359167ffffffffffffffff83116101a4576020808501948460051b0101116101a457565b90602080835192838152019201905f5b818110611ceb5750505090565b82516001600160a01b0316845260209384019390920191600101611cde565b90602080835192838152019201905f5b818110611d275750505090565b8251845260209384019390920191600101611d1a565b9060048210156106475752565b600854811015611d625760085f5260205f2001905f90565b634e487b7160e01b5f52603260045260245ffd5b8054821015611d62575f5260205f2001905f90565b5f52600660205260405f209060025f92018054925b838110611daf57505050505f90565b611db98183611d76565b905460039190911b1c6001600160a01b0390811690841614611ddd57600101611da0565b50505050600190565b9190811015611d625760051b0190565b919082018092116112c357565b5f1981146112c35760010190565b90601f8019910116810190811067ffffffffffffffff82111761035557604052565b818102929181159184041417156112c357565b919091828210611e5557505050565b5f5260205f2091820191015b818110611e6c575050565b5f8155600101611e61565b90604051918281549182825260208201905f5260205f20925f5b818110611ea8575050611ea692500383611e11565b565b84546001600160a01b0316835260019485019487945060209093019201611e91565b15611ed157565b606460405162461bcd60e51b815260206004820152602060248201527f546f75726e616d656e743a2063616c6c6572206973206e6f74207365727665726044820152fd5b15611f1c57565b60405162461bcd60e51b815260206004820152601a60248201527f546f75726e616d656e743a20646f6573206e6f742065786973740000000000006044820152606490fd5b3d15611f9b573d9067ffffffffffffffff82116103555760405191611f90601f8201601f191660200184611e11565b82523d5f602084013e565b606090565b15611fa757565b60405162461bcd60e51b815260206004820152601960248201527f546f75726e616d656e743a20726566756e64206661696c6564000000000000006044820152606490fd5b15611ff357565b60405162461bcd60e51b815260206004820152601760248201527f546f75726e616d656e743a206e6f742077616974696e670000000000000000006044820152606490fd5b919082039182116112c357565b356001600160a01b03811681036101a45790565b5f52600660205260405f209060025f9201908154925b83811061207c5750505090565b6120868184611d76565b905460039190911b1c6001600160a01b03908116908316146120aa5760010161206f565b9250505090565b6001546001600160a01b031633036120c557565b606460405162461bcd60e51b815260206004820152602060248201527f4f776e61626c653a2063616c6c6572206973206e6f7420746865206f776e65726044820152fd5b60025f54146121185760025f55565b60405162461bcd60e51b815260206004820152601f60248201527f5265656e7472616e637947756172643a207265656e7472616e742063616c6c006044820152606490fd5b60ff60015460a01c1661216c57565b60405162461bcd60e51b815260206004820152601060248201526f14185d5cd8589b194e881c185d5cd95960821b6044820152606490fdfea2646970667358221220398257c7d95b22d55a3bc886d2a2e57da712b75428ffb8bc592719e7422e578c64736f6c634300081b0033","opcodes":"PUSH1 0x80 PUSH1 0x40 MSTORE CALLVALUE PUSH2 0x779 JUMPI PUSH2 0x29FC PUSH1 0x40 DUP2 CODESIZE SUB SWAP2 DUP3 PUSH2 0x1C DUP2 PUSH2 0x79D JUMP JUMPDEST SWAP4 DUP5 SWAP3 DUP4 CODECOPY DUP2 ADD SUB SLT PUSH2 0x779 JUMPI PUSH2 0x3E PUSH1 0x20 PUSH2 0x37 DUP4 PUSH2 0x7C2 JUMP JUMPDEST SWAP3 ADD PUSH2 0x7C2 JUMP JUMPDEST SWAP1 PUSH1 0x1 PUSH0 SSTORE PUSH1 0x1 SLOAD SWAP1 PUSH1 0x40 MLOAD SWAP2 CALLER PUSH1 0x1 DUP1 PUSH1 0xA0 SHL SUB DUP3 AND PUSH32 0x8BE0079C531659141344CD1FD0A4F28419497F9722A3DAAFE3B4186F6B6457E0 PUSH0 DUP1 LOG3 PUSH1 0x1 PUSH1 0x1 PUSH1 0xA8 SHL SUB NOT AND CALLER PUSH1 0xFF PUSH1 0xA0 SHL NOT AND OR PUSH1 0x1 SSTORE PUSH1 0x1 PUSH1 0x1 PUSH1 0xA0 SHL SUB AND SWAP1 DUP2 ISZERO PUSH2 0x72D JUMPI POP PUSH1 0x1 DUP1 PUSH1 0xA0 SHL SUB NOT PUSH1 0x2 SLOAD AND OR PUSH1 0x2 SSTORE PUSH1 0x1 DUP1 PUSH1 0xA0 SHL SUB AND PUSH1 0x1 DUP1 PUSH1 0xA0 SHL SUB NOT PUSH1 0x3 SLOAD AND OR PUSH1 0x3 SSTORE PUSH0 PUSH1 0x4 SSTORE PUSH1 0x60 PUSH2 0xD7 DUP2 PUSH2 0x79D JUMP JUMPDEST PUSH1 0x2 DUP2 MSTORE SWAP1 PUSH1 0x1F NOT DUP2 ADD CALLDATASIZE PUSH1 0x20 DUP5 ADD CALLDATACOPY PUSH1 0x46 PUSH2 0xF2 DUP4 PUSH2 0x7D6 JUMP JUMPDEST MSTORE PUSH1 0x1E PUSH2 0xFE DUP4 PUSH2 0x7E3 JUMP JUMPDEST MSTORE PUSH2 0x107 PUSH2 0x77D JUMP JUMPDEST PUSH0 DUP2 MSTORE PUSH1 0x20 DUP2 ADD PUSH1 0x2 DUP2 MSTORE PUSH1 0x40 DUP3 ADD PUSH4 0x5F5E100 DUP2 MSTORE DUP4 DUP4 ADD PUSH2 0x1F4 DUP2 MSTORE PUSH1 0x80 DUP5 ADD SWAP6 DUP7 MSTORE PUSH1 0xA0 DUP5 ADD SWAP1 PUSH2 0x3E8 DUP3 MSTORE PUSH1 0xC0 DUP6 ADD SWAP3 PUSH0 DUP5 MSTORE PUSH1 0xE0 DUP7 ADD SWAP5 PUSH0 DUP7 MSTORE PUSH1 0x1 PUSH0 MSTORE PUSH1 0x5 PUSH1 0x20 MSTORE PUSH1 0x40 PUSH0 KECCAK256 SWAP7 MLOAD SWAP1 PUSH2 0x15F DUP3 PUSH2 0x803 JUMP JUMPDEST PUSH2 0x168 DUP3 PUSH2 0x803 JUMP JUMPDEST PUSH1 0xFF PUSH2 0xFF00 DUP10 SLOAD SWAP3 MLOAD PUSH1 0x8 SHL AND SWAP3 AND SWAP1 PUSH2 0xFFFF NOT AND OR OR DUP7 SSTORE MLOAD PUSH1 0x1 DUP7 ADD SSTORE MLOAD PUSH1 0x2 DUP6 ADD SSTORE PUSH1 0x3 DUP5 ADD SWAP6 MLOAD DUP1 MLOAD SWAP1 PUSH1 0x1 DUP1 PUSH1 0x40 SHL SUB DUP3 GT PUSH2 0x657 JUMPI PUSH9 0x10000000000000000 DUP3 GT PUSH2 0x657 JUMPI DUP8 SLOAD DUP3 DUP10 SSTORE DUP1 DUP4 LT PUSH2 0x707 JUMPI JUMPDEST POP PUSH1 0x20 ADD SWAP7 PUSH0 MSTORE PUSH1 0x20 PUSH0 KECCAK256 SWAP7 PUSH0 JUMPDEST DUP3 DUP2 LT PUSH2 0x6F3 JUMPI POP POP POP SWAP1 PUSH1 0x6 SWAP3 SWAP2 MLOAD PUSH1 0x4 DUP6 ADD SSTORE PUSH1 0x5 DUP5 ADD SWAP1 MLOAD PUSH2 0x1F2 DUP2 PUSH2 0x803 JUMP JUMPDEST PUSH2 0x1FB DUP2 PUSH2 0x803 JUMP JUMPDEST PUSH1 0xFF DUP1 NOT DUP4 SLOAD AND SWAP2 AND OR SWAP1 SSTORE MLOAD SWAP2 ADD SSTORE PUSH1 0x80 PUSH2 0x216 DUP2 PUSH2 0x79D JUMP JUMPDEST PUSH1 0x3 DUP2 MSTORE PUSH1 0x1F NOT DUP3 ADD SWAP3 SWAP1 DUP4 CALLDATASIZE PUSH1 0x20 DUP4 ADD CALLDATACOPY PUSH1 0x32 PUSH2 0x233 DUP3 PUSH2 0x7D6 JUMP JUMPDEST MSTORE PUSH1 0x1E PUSH2 0x23F DUP3 PUSH2 0x7E3 JUMP JUMPDEST MSTORE PUSH1 0x14 PUSH2 0x24B DUP3 PUSH2 0x7F3 JUMP JUMPDEST MSTORE PUSH2 0x254 PUSH2 0x77D JUMP JUMPDEST SWAP1 PUSH0 DUP3 MSTORE PUSH1 0x20 DUP3 ADD SWAP1 PUSH1 0x3 DUP3 MSTORE PUSH1 0x40 DUP4 ADD SWAP1 PUSH4 0x2FAF080 DUP3 MSTORE DUP5 DUP5 ADD SWAP1 PUSH2 0x1F4 DUP3 MSTORE DUP7 DUP6 ADD SWAP1 DUP2 MSTORE PUSH1 0xA0 DUP6 ADD SWAP2 PUSH2 0x5DC DUP4 MSTORE PUSH1 0xC0 DUP7 ADD SWAP4 PUSH0 DUP6 MSTORE PUSH1 0xE0 DUP8 ADD SWAP6 PUSH0 DUP8 MSTORE PUSH1 0x2 PUSH0 MSTORE PUSH1 0x5 PUSH1 0x20 MSTORE PUSH1 0x40 PUSH0 KECCAK256 SWAP8 MLOAD SWAP1 PUSH2 0x2AF DUP3 PUSH2 0x803 JUMP JUMPDEST PUSH2 0x2B8 DUP3 PUSH2 0x803 JUMP JUMPDEST PUSH1 0xFF PUSH2 0xFF00 DUP11 SLOAD SWAP3 MLOAD PUSH1 0x8 SHL AND SWAP3 AND SWAP1 PUSH2 0xFFFF NOT AND OR OR DUP8 SSTORE MLOAD PUSH1 0x1 DUP8 ADD SSTORE MLOAD PUSH1 0x2 DUP7 ADD SSTORE PUSH1 0x3 DUP6 ADD SWAP1 MLOAD SWAP1 DUP2 MLOAD SWAP2 PUSH1 0x1 DUP1 PUSH1 0x40 SHL SUB DUP4 GT PUSH2 0x657 JUMPI PUSH9 0x10000000000000000 DUP4 GT PUSH2 0x657 JUMPI DUP2 SLOAD DUP4 DUP4 SSTORE DUP1 DUP5 LT PUSH2 0x6CD JUMPI JUMPDEST POP PUSH1 0x20 ADD SWAP1 PUSH0 MSTORE PUSH1 0x20 PUSH0 KECCAK256 PUSH0 JUMPDEST DUP4 DUP2 LT PUSH2 0x6B9 JUMPI POP POP POP POP SWAP1 PUSH1 0x6 SWAP3 SWAP2 MLOAD PUSH1 0x4 DUP6 ADD SSTORE PUSH1 0x5 DUP5 ADD SWAP1 MLOAD PUSH2 0x343 DUP2 PUSH2 0x803 JUMP JUMPDEST PUSH2 0x34C DUP2 PUSH2 0x803 JUMP JUMPDEST PUSH1 0xFF DUP1 NOT DUP4 SLOAD AND SWAP2 AND OR SWAP1 SSTORE MLOAD SWAP2 ADD SSTORE PUSH2 0x365 DUP3 PUSH2 0x79D JUMP JUMPDEST SWAP3 PUSH1 0x3 DUP5 MSTORE CALLDATASIZE PUSH1 0x20 DUP6 ADD CALLDATACOPY PUSH1 0x32 PUSH2 0x37B DUP5 PUSH2 0x7D6 JUMP JUMPDEST MSTORE PUSH1 0x1E PUSH2 0x387 DUP5 PUSH2 0x7E3 JUMP JUMPDEST MSTORE PUSH1 0x14 PUSH2 0x393 DUP5 PUSH2 0x7F3 JUMP JUMPDEST MSTORE PUSH2 0x39C PUSH2 0x77D JUMP JUMPDEST PUSH0 DUP2 MSTORE PUSH1 0x20 DUP2 ADD PUSH1 0x6 DUP2 MSTORE PUSH1 0x40 DUP3 ADD PUSH4 0x2FAF080 DUP2 MSTORE DUP4 DUP4 ADD PUSH2 0x1F4 DUP2 MSTORE DUP6 DUP5 ADD SWAP7 DUP8 MSTORE PUSH1 0xA0 DUP5 ADD SWAP1 PUSH2 0x5DC DUP3 MSTORE PUSH1 0xC0 DUP6 ADD SWAP3 PUSH0 DUP5 MSTORE PUSH1 0xE0 DUP7 ADD SWAP5 PUSH0 DUP7 MSTORE PUSH1 0x3 PUSH0 MSTORE PUSH1 0x5 PUSH1 0x20 MSTORE PUSH1 0x40 PUSH0 KECCAK256 SWAP7 MLOAD SWAP1 PUSH2 0x3F3 DUP3 PUSH2 0x803 JUMP JUMPDEST PUSH2 0x3FC DUP3 PUSH2 0x803 JUMP JUMPDEST PUSH1 0xFF PUSH2 0xFF00 DUP10 SLOAD SWAP3 MLOAD PUSH1 0x8 SHL AND SWAP3 AND SWAP1 PUSH2 0xFFFF NOT AND OR OR DUP7 SSTORE MLOAD PUSH1 0x1 DUP7 ADD SSTORE MLOAD PUSH1 0x2 DUP6 ADD SSTORE PUSH1 0x3 DUP5 ADD SWAP7 MLOAD DUP1 MLOAD SWAP1 PUSH1 0x1 DUP1 PUSH1 0x40 SHL SUB DUP3 GT PUSH2 0x657 JUMPI PUSH9 0x10000000000000000 DUP3 GT PUSH2 0x657 JUMPI DUP9 SLOAD DUP3 DUP11 SSTORE DUP1 DUP4 LT PUSH2 0x693 JUMPI JUMPDEST POP PUSH1 0x20 ADD SWAP8 PUSH0 MSTORE PUSH1 0x20 PUSH0 KECCAK256 SWAP8 PUSH0 JUMPDEST DUP3 DUP2 LT PUSH2 0x67F JUMPI POP POP POP SWAP1 PUSH1 0x6 SWAP3 SWAP2 MLOAD PUSH1 0x4 DUP6 ADD SSTORE PUSH1 0x5 DUP5 ADD SWAP1 MLOAD PUSH2 0x486 DUP2 PUSH2 0x803 JUMP JUMPDEST PUSH2 0x48F DUP2 PUSH2 0x803 JUMP JUMPDEST PUSH1 0xFF DUP1 NOT DUP4 SLOAD AND SWAP2 AND OR SWAP1 SSTORE MLOAD SWAP2 ADD SSTORE PUSH2 0x4A9 PUSH1 0xC0 PUSH2 0x79D JUMP JUMPDEST SWAP2 PUSH1 0x5 DUP4 MSTORE PUSH1 0xA0 CALLDATASIZE PUSH1 0x20 DUP6 ADD CALLDATACOPY PUSH1 0x2D PUSH2 0x4C1 DUP5 PUSH2 0x7D6 JUMP JUMPDEST MSTORE PUSH1 0x19 PUSH2 0x4CD DUP5 PUSH2 0x7E3 JUMP JUMPDEST MSTORE PUSH1 0xF PUSH2 0x4D9 DUP5 PUSH2 0x7F3 JUMP JUMPDEST MSTORE DUP3 MLOAD PUSH1 0x3 LT ISZERO PUSH2 0x66B JUMPI PUSH1 0xA DUP2 DUP5 ADD MSTORE DUP3 MLOAD PUSH1 0x4 LT ISZERO PUSH2 0x66B JUMPI PUSH1 0x5 PUSH1 0xA0 DUP5 ADD MSTORE PUSH2 0x503 PUSH2 0x77D JUMP JUMPDEST SWAP2 PUSH1 0x1 DUP4 MSTORE PUSH1 0x20 DUP4 ADD SWAP2 PUSH1 0x9 DUP4 MSTORE PUSH1 0x40 DUP5 ADD SWAP2 PUSH4 0x5F5E100 DUP4 MSTORE DUP5 ADD SWAP1 PUSH2 0x1F4 DUP3 MSTORE DUP5 ADD SWAP5 DUP6 MSTORE PUSH1 0xA0 DUP5 ADD SWAP1 PUSH2 0x7D0 DUP3 MSTORE PUSH1 0xC0 DUP6 ADD SWAP3 PUSH1 0x1 DUP5 MSTORE PUSH1 0xE0 DUP7 ADD SWAP5 PUSH2 0x12C DUP7 MSTORE PUSH1 0x4 PUSH0 MSTORE PUSH1 0x5 PUSH1 0x20 MSTORE PUSH1 0x40 PUSH0 KECCAK256 SWAP7 MLOAD SWAP1 PUSH2 0x560 DUP3 PUSH2 0x803 JUMP JUMPDEST PUSH2 0x569 DUP3 PUSH2 0x803 JUMP JUMPDEST PUSH1 0xFF PUSH2 0xFF00 DUP10 SLOAD SWAP3 MLOAD PUSH1 0x8 SHL AND SWAP3 AND SWAP1 PUSH2 0xFFFF NOT AND OR OR DUP7 SSTORE MLOAD PUSH1 0x1 DUP7 ADD SSTORE MLOAD PUSH1 0x2 DUP6 ADD SSTORE PUSH1 0x3 DUP5 ADD SWAP5 MLOAD DUP1 MLOAD SWAP1 PUSH1 0x1 DUP1 PUSH1 0x40 SHL SUB DUP3 GT PUSH2 0x657 JUMPI PUSH9 0x10000000000000000 DUP3 GT PUSH2 0x657 JUMPI DUP7 SLOAD DUP3 DUP9 SSTORE DUP1 DUP4 LT PUSH2 0x631 JUMPI JUMPDEST POP PUSH1 0x20 ADD SWAP6 PUSH0 MSTORE PUSH1 0x20 PUSH0 KECCAK256 SWAP6 PUSH0 JUMPDEST DUP3 DUP2 LT PUSH2 0x61D JUMPI DUP7 PUSH1 0x6 DUP8 DUP8 DUP8 MLOAD PUSH1 0x4 DUP6 ADD SSTORE PUSH1 0x5 DUP5 ADD SWAP1 MLOAD PUSH2 0x5F1 DUP2 PUSH2 0x803 JUMP JUMPDEST PUSH2 0x5FA DUP2 PUSH2 0x803 JUMP JUMPDEST PUSH1 0xFF DUP1 NOT DUP4 SLOAD AND SWAP2 AND OR SWAP1 SSTORE MLOAD SWAP2 ADD SSTORE PUSH1 0x4 DUP1 SSTORE PUSH1 0x40 MLOAD PUSH2 0x21DA SWAP1 DUP2 PUSH2 0x822 DUP3 CODECOPY RETURN JUMPDEST PUSH1 0x1 SWAP1 PUSH1 0x20 DUP4 MLOAD SWAP4 ADD SWAP3 DUP2 DUP11 ADD SSTORE ADD PUSH2 0x5CF JUMP JUMPDEST DUP8 PUSH0 MSTORE DUP3 PUSH1 0x20 PUSH0 KECCAK256 SWAP2 DUP3 ADD SWAP2 ADD JUMPDEST DUP2 DUP2 LT PUSH2 0x64C JUMPI POP PUSH2 0x5C1 JUMP JUMPDEST PUSH0 DUP2 SSTORE PUSH1 0x1 ADD PUSH2 0x63F JUMP JUMPDEST PUSH4 0x4E487B71 PUSH1 0xE0 SHL PUSH0 MSTORE PUSH1 0x41 PUSH1 0x4 MSTORE PUSH1 0x24 PUSH0 REVERT JUMPDEST PUSH4 0x4E487B71 PUSH1 0xE0 SHL PUSH0 MSTORE PUSH1 0x32 PUSH1 0x4 MSTORE PUSH1 0x24 PUSH0 REVERT JUMPDEST PUSH1 0x1 SWAP1 PUSH1 0x20 DUP4 MLOAD SWAP4 ADD SWAP3 DUP2 DUP13 ADD SSTORE ADD PUSH2 0x462 JUMP JUMPDEST DUP10 PUSH0 MSTORE DUP3 PUSH1 0x20 PUSH0 KECCAK256 SWAP2 DUP3 ADD SWAP2 ADD JUMPDEST DUP2 DUP2 LT PUSH2 0x6AE JUMPI POP PUSH2 0x454 JUMP JUMPDEST PUSH0 DUP2 SSTORE PUSH1 0x1 ADD PUSH2 0x6A1 JUMP JUMPDEST PUSH1 0x1 SWAP1 PUSH1 0x20 DUP5 MLOAD SWAP5 ADD SWAP4 DUP2 DUP5 ADD SSTORE ADD PUSH2 0x31E JUMP JUMPDEST DUP3 PUSH0 MSTORE DUP4 PUSH1 0x20 PUSH0 KECCAK256 SWAP2 DUP3 ADD SWAP2 ADD JUMPDEST DUP2 DUP2 LT PUSH2 0x6E8 JUMPI POP PUSH2 0x311 JUMP JUMPDEST PUSH0 DUP2 SSTORE PUSH1 0x1 ADD PUSH2 0x6DB JUMP JUMPDEST PUSH1 0x1 SWAP1 PUSH1 0x20 DUP4 MLOAD SWAP4 ADD SWAP3 DUP2 DUP12 ADD SSTORE ADD PUSH2 0x1CE JUMP JUMPDEST DUP9 PUSH0 MSTORE DUP3 PUSH1 0x20 PUSH0 KECCAK256 SWAP2 DUP3 ADD SWAP2 ADD JUMPDEST DUP2 DUP2 LT PUSH2 0x722 JUMPI POP PUSH2 0x1C0 JUMP JUMPDEST PUSH0 DUP2 SSTORE PUSH1 0x1 ADD PUSH2 0x715 JUMP JUMPDEST PUSH3 0x461BCD PUSH1 0xE5 SHL DUP2 MSTORE PUSH1 0x20 PUSH1 0x4 DUP3 ADD MSTORE PUSH1 0x21 PUSH1 0x24 DUP3 ADD MSTORE PUSH32 0x546F75726E616D656E743A20696E76616C6964207365727665722077616C6C65 PUSH1 0x44 DUP3 ADD MSTORE PUSH1 0x1D PUSH1 0xFA SHL PUSH1 0x64 DUP3 ADD MSTORE PUSH1 0x84 SWAP1 REVERT JUMPDEST PUSH0 DUP1 REVERT JUMPDEST PUSH1 0x40 MLOAD SWAP1 PUSH2 0x100 DUP3 ADD PUSH1 0x1 PUSH1 0x1 PUSH1 0x40 SHL SUB DUP2 GT DUP4 DUP3 LT OR PUSH2 0x657 JUMPI PUSH1 0x40 MSTORE JUMP JUMPDEST PUSH1 0x40 MLOAD SWAP2 SWAP1 PUSH1 0x1F ADD PUSH1 0x1F NOT AND DUP3 ADD PUSH1 0x1 PUSH1 0x1 PUSH1 0x40 SHL SUB DUP2 GT DUP4 DUP3 LT OR PUSH2 0x657 JUMPI PUSH1 0x40 MSTORE JUMP JUMPDEST MLOAD SWAP1 PUSH1 0x1 PUSH1 0x1 PUSH1 0xA0 SHL SUB DUP3 AND DUP3 SUB PUSH2 0x779 JUMPI JUMP JUMPDEST DUP1 MLOAD ISZERO PUSH2 0x66B JUMPI PUSH1 0x20 ADD SWAP1 JUMP JUMPDEST DUP1 MLOAD PUSH1 0x1 LT ISZERO PUSH2 0x66B JUMPI PUSH1 0x40 ADD SWAP1 JUMP JUMPDEST DUP1 MLOAD PUSH1 0x2 LT ISZERO PUSH2 0x66B JUMPI PUSH1 0x60 ADD SWAP1 JUMP JUMPDEST PUSH1 0x2 GT ISZERO PUSH2 0x80D JUMPI JUMP JUMPDEST PUSH4 0x4E487B71 PUSH1 0xE0 SHL PUSH0 MSTORE PUSH1 0x21 PUSH1 0x4 MSTORE PUSH1 0x24 PUSH0 REVERT INVALID PUSH1 0x80 DUP1 PUSH1 0x40 MSTORE PUSH1 0x4 CALLDATASIZE LT ISZERO PUSH2 0x10 JUMPI STOP JUMPDEST PUSH0 CALLDATALOAD PUSH1 0xE0 SHR SWAP1 DUP2 PUSH3 0x98FA22 EQ PUSH2 0x1BE5 JUMPI POP DUP1 PUSH4 0x7286E2F EQ PUSH2 0x1BB5 JUMPI DUP1 PUSH4 0x1372FE8F EQ PUSH2 0x1752 JUMPI DUP1 PUSH4 0x1A59F0F0 EQ PUSH2 0x172A JUMPI DUP1 PUSH4 0x26F7519A EQ PUSH2 0x16E9 JUMPI DUP1 PUSH4 0x32432233 EQ PUSH2 0x159C JUMPI DUP1 PUSH4 0x37ADA345 EQ PUSH2 0x1559 JUMPI DUP1 PUSH4 0x3B61403C EQ PUSH2 0x1531 JUMPI DUP1 PUSH4 0x3F4BA83A EQ PUSH2 0x1496 JUMPI DUP1 PUSH4 0x3FBE4918 EQ PUSH2 0x13AD JUMPI DUP1 PUSH4 0x464899BA EQ PUSH2 0x1366 JUMPI DUP1 PUSH4 0x4A88FD43 EQ PUSH2 0x1126 JUMPI DUP1 PUSH4 0x56EAFCC0 EQ PUSH2 0xDCA JUMPI DUP1 PUSH4 0x5C975ABB EQ PUSH2 0xDA5 JUMPI DUP1 PUSH4 0x651EA943 EQ PUSH2 0xC5B JUMPI DUP1 PUSH4 0x692734FE EQ PUSH2 0xBF1 JUMPI DUP1 PUSH4 0x715018A6 EQ PUSH2 0xB96 JUMPI DUP1 PUSH4 0x73ED5C1C EQ PUSH2 0xB79 JUMPI DUP1 PUSH4 0x7503E1B7 EQ PUSH2 0xB0D JUMPI DUP1 PUSH4 0x7A99ACA4 EQ PUSH2 0xADF JUMPI DUP1 PUSH4 0x8456CB59 EQ PUSH2 0xA7E JUMPI DUP1 PUSH4 0x8DA5CB5B EQ PUSH2 0xA56 JUMPI DUP1 PUSH4 0xC4415446 EQ PUSH2 0xA1E JUMPI DUP1 PUSH4 0xCAC766D2 EQ PUSH2 0x971 JUMPI DUP1 PUSH4 0xD115CAC6 EQ PUSH2 0x6F8 JUMPI DUP1 PUSH4 0xD706AB3C EQ PUSH2 0x667 JUMPI DUP1 PUSH4 0xD7098154 EQ PUSH2 0x437 JUMPI DUP1 PUSH4 0xDB2E21BC EQ PUSH2 0x3B8 JUMPI DUP1 PUSH4 0xDD20A53E EQ PUSH2 0x26F JUMPI DUP1 PUSH4 0xF2FDE38B EQ PUSH2 0x1A8 JUMPI PUSH4 0xF780210B EQ PUSH2 0x16C JUMPI STOP JUMPDEST CALLVALUE PUSH2 0x1A4 JUMPI PUSH1 0x20 CALLDATASIZE PUSH1 0x3 NOT ADD SLT PUSH2 0x1A4 JUMPI PUSH1 0x1 PUSH1 0x1 PUSH1 0xA0 SHL SUB PUSH2 0x18D PUSH2 0x1C87 JUMP JUMPDEST AND PUSH0 MSTORE PUSH1 0x7 PUSH1 0x20 MSTORE PUSH1 0x20 PUSH1 0x40 PUSH0 KECCAK256 SLOAD PUSH1 0x40 MLOAD SWAP1 DUP2 MSTORE RETURN JUMPDEST PUSH0 DUP1 REVERT JUMPDEST CALLVALUE PUSH2 0x1A4 JUMPI PUSH1 0x20 CALLDATASIZE PUSH1 0x3 NOT ADD SLT PUSH2 0x1A4 JUMPI PUSH2 0x1C1 PUSH2 0x1C87 JUMP JUMPDEST PUSH2 0x1C9 PUSH2 0x20B1 JUMP JUMPDEST PUSH1 0x1 PUSH1 0x1 PUSH1 0xA0 SHL SUB AND DUP1 ISZERO PUSH2 0x21B JUMPI PUSH1 0x1 DUP1 SLOAD PUSH1 0x1 PUSH1 0x1 PUSH1 0xA0 SHL SUB NOT DUP2 AND DUP4 OR SWAP1 SWAP2 SSTORE PUSH1 0x1 PUSH1 0x1 PUSH1 0xA0 SHL SUB AND PUSH32 0x8BE0079C531659141344CD1FD0A4F28419497F9722A3DAAFE3B4186F6B6457E0 PUSH0 DUP1 LOG3 STOP JUMPDEST PUSH1 0x40 MLOAD PUSH3 0x461BCD PUSH1 0xE5 SHL DUP2 MSTORE PUSH1 0x20 PUSH1 0x4 DUP3 ADD MSTORE PUSH1 0x26 PUSH1 0x24 DUP3 ADD MSTORE PUSH32 0x4F776E61626C653A206E6577206F776E657220697320746865207A65726F2061 PUSH1 0x44 DUP3 ADD MSTORE PUSH6 0x646472657373 PUSH1 0xD0 SHL PUSH1 0x64 DUP3 ADD MSTORE PUSH1 0x84 SWAP1 REVERT JUMPDEST CALLVALUE PUSH2 0x1A4 JUMPI PUSH1 0x20 CALLDATASIZE PUSH1 0x3 NOT ADD SLT PUSH2 0x1A4 JUMPI PUSH1 0x4 CALLDATALOAD PUSH2 0x298 PUSH1 0x1 DUP1 PUSH1 0xA0 SHL SUB PUSH1 0x2 SLOAD AND CALLER EQ PUSH2 0x1ECA JUMP JUMPDEST DUP1 PUSH0 MSTORE PUSH1 0x5 PUSH1 0x20 MSTORE PUSH1 0xFF PUSH1 0x40 PUSH0 KECCAK256 SLOAD PUSH1 0x8 SHR AND ISZERO PUSH2 0x369 JUMPI PUSH2 0x2BB PUSH1 0x4 SLOAD PUSH2 0x1E03 JUMP JUMPDEST SWAP1 DUP2 PUSH1 0x4 SSTORE DUP2 PUSH0 MSTORE PUSH1 0x6 PUSH1 0x20 MSTORE PUSH0 PUSH1 0x6 PUSH1 0x40 DUP3 KECCAK256 DUP4 DUP2 SSTORE PUSH1 0x1 DUP2 ADD PUSH1 0xFF NOT DUP2 SLOAD AND SWAP1 SSTORE DUP3 PUSH1 0x3 DUP3 ADD SSTORE DUP3 PUSH1 0x4 DUP3 ADD SSTORE DUP3 PUSH1 0x5 DUP3 ADD SSTORE ADD SSTORE PUSH1 0x8 SLOAD SWAP2 PUSH1 0x1 PUSH1 0x40 SHL DUP4 LT ISZERO PUSH2 0x355 JUMPI PUSH2 0x314 DUP4 PUSH1 0x1 PUSH1 0x20 SWAP6 ADD PUSH1 0x8 SSTORE PUSH2 0x1D4A JUMP JUMPDEST DUP2 SLOAD SWAP1 PUSH1 0x3 SHL SWAP1 DUP4 DUP3 SHL SWAP2 PUSH0 NOT SWAP1 SHL NOT AND OR SWAP1 SSTORE PUSH1 0x40 MLOAD SWAP2 DUP2 PUSH32 0xCBDD4006F4A0CA378F1C5D1F11060BA15BC180A12590DD3EA3C219454582939E PUSH0 DUP1 LOG3 DUP2 MSTORE RETURN JUMPDEST PUSH4 0x4E487B71 PUSH1 0xE0 SHL PUSH0 MSTORE PUSH1 0x41 PUSH1 0x4 MSTORE PUSH1 0x24 PUSH0 REVERT JUMPDEST PUSH1 0x40 MLOAD PUSH3 0x461BCD PUSH1 0xE5 SHL DUP2 MSTORE PUSH1 0x20 PUSH1 0x4 DUP3 ADD MSTORE PUSH1 0x21 PUSH1 0x24 DUP3 ADD MSTORE PUSH32 0x546F75726E616D656E743A20636F6E66696720646F6573206E6F742065786973 PUSH1 0x44 DUP3 ADD MSTORE PUSH1 0x1D PUSH1 0xFA SHL PUSH1 0x64 DUP3 ADD MSTORE PUSH1 0x84 SWAP1 REVERT JUMPDEST CALLVALUE PUSH2 0x1A4 JUMPI PUSH0 CALLDATASIZE PUSH1 0x3 NOT ADD SLT PUSH2 0x1A4 JUMPI PUSH2 0x3D0 PUSH2 0x20B1 JUMP JUMPDEST PUSH0 DUP1 DUP1 DUP1 SELFBALANCE PUSH1 0x1 DUP1 PUSH1 0xA0 SHL SUB PUSH1 0x1 SLOAD AND GAS CALL PUSH2 0x3EA PUSH2 0x1F61 JUMP JUMPDEST POP ISZERO PUSH2 0x3F2 JUMPI STOP JUMPDEST PUSH1 0x40 MLOAD PUSH3 0x461BCD PUSH1 0xE5 SHL DUP2 MSTORE PUSH1 0x20 PUSH1 0x4 DUP3 ADD MSTORE PUSH1 0x1D PUSH1 0x24 DUP3 ADD MSTORE PUSH32 0x546F75726E616D656E743A207769746864726177616C206661696C6564000000 PUSH1 0x44 DUP3 ADD MSTORE PUSH1 0x64 SWAP1 REVERT JUMPDEST CALLVALUE PUSH2 0x1A4 JUMPI PUSH1 0x20 CALLDATASIZE PUSH1 0x3 NOT ADD SLT PUSH2 0x1A4 JUMPI PUSH1 0x4 CALLDATALOAD PUSH2 0x453 PUSH2 0x2109 JUMP JUMPDEST DUP1 ISZERO ISZERO DUP1 PUSH2 0x65B JUMPI JUMPDEST PUSH2 0x465 SWAP1 PUSH2 0x1F15 JUMP JUMPDEST DUP1 PUSH0 MSTORE PUSH1 0x6 PUSH1 0x20 MSTORE PUSH1 0x40 PUSH0 KECCAK256 SWAP1 PUSH1 0xFF PUSH1 0x1 DUP4 ADD SLOAD AND PUSH1 0x4 DUP2 LT ISZERO PUSH2 0x647 JUMPI PUSH1 0x2 SUB PUSH2 0x602 JUMPI PUSH1 0x9 DUP3 ADD SWAP2 PUSH1 0x1 DUP1 PUSH1 0xA0 SHL SUB CALLER AND PUSH0 MSTORE DUP3 PUSH1 0x20 MSTORE PUSH1 0xFF PUSH1 0x40 PUSH0 KECCAK256 SLOAD AND PUSH2 0x5BD JUMPI PUSH1 0x8 ADD PUSH1 0x1 DUP1 PUSH1 0xA0 SHL SUB CALLER AND PUSH0 MSTORE DUP1 PUSH1 0x20 MSTORE PUSH1 0x40 PUSH0 KECCAK256 SLOAD ISZERO PUSH2 0x581 JUMPI CALLER PUSH0 DUP2 DUP2 MSTORE PUSH1 0x20 SWAP3 DUP4 MSTORE PUSH1 0x40 DUP1 DUP3 KECCAK256 SLOAD SWAP6 SWAP1 SWAP4 MSTORE SWAP2 DUP3 KECCAK256 DUP1 SLOAD PUSH1 0xFF NOT AND PUSH1 0x1 OR SWAP1 SSTORE DUP2 SWAP1 DUP2 SWAP1 DUP2 SWAP1 DUP7 SWAP1 GAS CALL PUSH2 0x4FA PUSH2 0x1F61 JUMP JUMPDEST POP ISZERO PUSH2 0x532 JUMPI PUSH1 0x40 MLOAD SWAP2 DUP3 MSTORE PUSH32 0x4AA95F981A8337CB337DE335B965507DA0879C3B49F799D20058E913F5AD2C26 PUSH1 0x20 CALLER SWAP4 LOG3 PUSH1 0x1 PUSH0 SSTORE STOP JUMPDEST PUSH1 0x40 MLOAD PUSH3 0x461BCD PUSH1 0xE5 SHL DUP2 MSTORE PUSH1 0x20 PUSH1 0x4 DUP3 ADD MSTORE PUSH1 0x21 PUSH1 0x24 DUP3 ADD MSTORE PUSH32 0x546F75726E616D656E743A207072697A65207472616E73666572206661696C65 PUSH1 0x44 DUP3 ADD MSTORE PUSH1 0x19 PUSH1 0xFA SHL PUSH1 0x64 DUP3 ADD MSTORE PUSH1 0x84 SWAP1 REVERT JUMPDEST PUSH1 0x40 MLOAD PUSH3 0x461BCD PUSH1 0xE5 SHL DUP2 MSTORE PUSH1 0x20 PUSH1 0x4 DUP3 ADD MSTORE PUSH1 0x14 PUSH1 0x24 DUP3 ADD MSTORE PUSH20 0x546F75726E616D656E743A206E6F207072697A65 PUSH1 0x60 SHL PUSH1 0x44 DUP3 ADD MSTORE PUSH1 0x64 SWAP1 REVERT JUMPDEST PUSH1 0x40 MLOAD PUSH3 0x461BCD PUSH1 0xE5 SHL DUP2 MSTORE PUSH1 0x20 PUSH1 0x4 DUP3 ADD MSTORE PUSH1 0x1B PUSH1 0x24 DUP3 ADD MSTORE PUSH32 0x546F75726E616D656E743A20616C726561647920636C61696D65640000000000 PUSH1 0x44 DUP3 ADD MSTORE PUSH1 0x64 SWAP1 REVERT JUMPDEST PUSH1 0x40 MLOAD PUSH3 0x461BCD PUSH1 0xE5 SHL DUP2 MSTORE PUSH1 0x20 PUSH1 0x4 DUP3 ADD MSTORE PUSH1 0x19 PUSH1 0x24 DUP3 ADD MSTORE PUSH32 0x546F75726E616D656E743A206E6F7420636F6D706C6574656400000000000000 PUSH1 0x44 DUP3 ADD MSTORE PUSH1 0x64 SWAP1 REVERT JUMPDEST PUSH4 0x4E487B71 PUSH1 0xE0 SHL PUSH0 MSTORE PUSH1 0x21 PUSH1 0x4 MSTORE PUSH1 0x24 PUSH0 REVERT JUMPDEST POP PUSH1 0x4 SLOAD DUP2 GT ISZERO PUSH2 0x45C JUMP JUMPDEST CALLVALUE PUSH2 0x1A4 JUMPI PUSH1 0x20 CALLDATASIZE PUSH1 0x3 NOT ADD SLT PUSH2 0x1A4 JUMPI PUSH2 0x680 PUSH2 0x1C87 JUMP JUMPDEST PUSH2 0x688 PUSH2 0x20B1 JUMP JUMPDEST PUSH1 0x1 PUSH1 0x1 PUSH1 0xA0 SHL SUB AND DUP1 ISZERO PUSH2 0x6B3 JUMPI PUSH12 0xFFFFFFFFFFFFFFFFFFFFFFFF PUSH1 0xA0 SHL PUSH1 0x2 SLOAD AND OR PUSH1 0x2 SSTORE PUSH0 DUP1 RETURN JUMPDEST PUSH1 0x40 MLOAD PUSH3 0x461BCD PUSH1 0xE5 SHL DUP2 MSTORE PUSH1 0x20 PUSH1 0x4 DUP3 ADD MSTORE PUSH1 0x1B PUSH1 0x24 DUP3 ADD MSTORE PUSH32 0x546F75726E616D656E743A20696E76616C696420616464726573730000000000 PUSH1 0x44 DUP3 ADD MSTORE PUSH1 0x64 SWAP1 REVERT JUMPDEST PUSH1 0x20 CALLDATASIZE PUSH1 0x3 NOT ADD SLT PUSH2 0x1A4 JUMPI PUSH1 0x4 CALLDATALOAD PUSH2 0x70F PUSH2 0x2109 JUMP JUMPDEST PUSH2 0x717 PUSH2 0x215D JUMP JUMPDEST DUP1 ISZERO ISZERO DUP1 PUSH2 0x965 JUMPI JUMPDEST PUSH2 0x729 SWAP1 PUSH2 0x1F15 JUMP JUMPDEST DUP1 PUSH0 MSTORE PUSH1 0x6 PUSH1 0x20 MSTORE PUSH1 0xFF PUSH1 0x1 PUSH1 0x40 PUSH0 KECCAK256 ADD SLOAD AND PUSH1 0x4 DUP2 LT ISZERO PUSH2 0x647 JUMPI PUSH2 0x74F SWAP1 ISZERO PUSH2 0x1FEC JUMP JUMPDEST CALLER PUSH0 MSTORE PUSH1 0x7 PUSH1 0x20 MSTORE PUSH1 0x40 PUSH0 KECCAK256 SLOAD PUSH2 0x916 JUMPI DUP1 PUSH0 MSTORE PUSH1 0x6 PUSH1 0x20 MSTORE PUSH1 0x40 PUSH0 KECCAK256 DUP1 SLOAD PUSH0 MSTORE PUSH1 0x5 PUSH1 0x20 MSTORE PUSH1 0x40 PUSH0 KECCAK256 PUSH1 0x1 DUP2 ADD SLOAD CALLVALUE SUB PUSH2 0x8C5 JUMPI PUSH1 0x2 DUP3 ADD SWAP1 PUSH1 0xFF DUP3 SLOAD SWAP2 SLOAD PUSH1 0x8 SHR AND DUP2 LT ISZERO PUSH2 0x880 JUMPI PUSH2 0x7A4 CALLER DUP6 PUSH2 0x1D8B JUMP JUMPDEST PUSH2 0x83B JUMPI PUSH1 0x1 PUSH1 0x40 SHL DUP2 LT ISZERO PUSH2 0x355 JUMPI PUSH1 0xFF SWAP3 PUSH2 0x7EA PUSH2 0x7CC DUP4 PUSH1 0x1 PUSH1 0x3 SWAP6 ADD DUP7 SSTORE DUP6 PUSH2 0x1D76 JUMP JUMPDEST DUP2 SLOAD PUSH1 0x1 PUSH1 0x1 PUSH1 0xA0 SHL SUB PUSH1 0x3 SWAP3 SWAP1 SWAP3 SHL SWAP2 DUP3 SHL NOT AND CALLER SWAP1 SWAP2 SHL OR SWAP1 SSTORE JUMP JUMPDEST ADD PUSH2 0x7F6 CALLVALUE DUP3 SLOAD PUSH2 0x1DF6 JUMP JUMPDEST SWAP1 SSTORE CALLER PUSH0 MSTORE PUSH1 0x7 PUSH1 0x20 MSTORE DUP3 PUSH1 0x40 PUSH0 KECCAK256 SSTORE SLOAD AND SWAP1 PUSH1 0x40 MLOAD SWAP2 DUP3 MSTORE PUSH32 0x267DE9464A1783407EB0E8BA56BCD59EF059648E576C0703BFD6A3B84355E831 PUSH1 0x20 CALLER SWAP4 LOG3 PUSH1 0x1 PUSH0 SSTORE STOP JUMPDEST PUSH1 0x40 MLOAD PUSH3 0x461BCD PUSH1 0xE5 SHL DUP2 MSTORE PUSH1 0x20 PUSH1 0x4 DUP3 ADD MSTORE PUSH1 0x1A PUSH1 0x24 DUP3 ADD MSTORE PUSH32 0x546F75726E616D656E743A20616C7265616479206A6F696E6564000000000000 PUSH1 0x44 DUP3 ADD MSTORE PUSH1 0x64 SWAP1 REVERT JUMPDEST PUSH1 0x40 MLOAD PUSH3 0x461BCD PUSH1 0xE5 SHL DUP2 MSTORE PUSH1 0x20 PUSH1 0x4 DUP3 ADD MSTORE PUSH1 0x18 PUSH1 0x24 DUP3 ADD MSTORE PUSH32 0x546F75726E616D656E743A20616C72656164792066756C6C0000000000000000 PUSH1 0x44 DUP3 ADD MSTORE PUSH1 0x64 SWAP1 REVERT JUMPDEST PUSH1 0x40 MLOAD PUSH3 0x461BCD PUSH1 0xE5 SHL DUP2 MSTORE PUSH1 0x20 PUSH1 0x4 DUP3 ADD MSTORE PUSH1 0x23 PUSH1 0x24 DUP3 ADD MSTORE PUSH32 0x546F75726E616D656E743A20696E636F7272656374206275792D696E20616D6F PUSH1 0x44 DUP3 ADD MSTORE PUSH3 0x1D5B9D PUSH1 0xEA SHL PUSH1 0x64 DUP3 ADD MSTORE PUSH1 0x84 SWAP1 REVERT JUMPDEST PUSH1 0x40 MLOAD PUSH3 0x461BCD PUSH1 0xE5 SHL DUP2 MSTORE PUSH1 0x20 PUSH1 0x4 DUP3 ADD MSTORE PUSH1 0x21 PUSH1 0x24 DUP3 ADD MSTORE PUSH32 0x546F75726E616D656E743A20616C726561647920696E20746F75726E616D656E PUSH1 0x44 DUP3 ADD MSTORE PUSH1 0x1D PUSH1 0xFA SHL PUSH1 0x64 DUP3 ADD MSTORE PUSH1 0x84 SWAP1 REVERT JUMPDEST POP PUSH1 0x4 SLOAD DUP2 GT ISZERO PUSH2 0x720 JUMP JUMPDEST CALLVALUE PUSH2 0x1A4 JUMPI PUSH1 0x20 CALLDATASIZE PUSH1 0x3 NOT ADD SLT PUSH2 0x1A4 JUMPI PUSH1 0x4 CALLDATALOAD PUSH0 MSTORE PUSH1 0x6 PUSH1 0x20 MSTORE PUSH1 0x40 PUSH0 KECCAK256 DUP1 SLOAD PUSH2 0xA1A PUSH1 0xFF PUSH1 0x1 DUP5 ADD SLOAD AND SWAP3 PUSH1 0x3 DUP2 ADD SLOAD SWAP1 PUSH1 0x4 DUP2 ADD SLOAD PUSH1 0x5 DUP3 ADD SLOAD PUSH1 0x6 DUP4 ADD SLOAD SWAP2 PUSH2 0x9F8 PUSH2 0x9CF PUSH1 0x7 PUSH2 0x9C8 PUSH1 0x2 DUP9 ADD PUSH2 0x1E77 JUMP JUMPDEST SWAP7 ADD PUSH2 0x1E77 JUMP JUMPDEST SWAP5 PUSH2 0x9E5 PUSH1 0x40 MLOAD SWAP11 DUP12 SWAP11 DUP12 MSTORE PUSH1 0x20 DUP12 ADD SWAP1 PUSH2 0x1D3D JUMP JUMPDEST PUSH2 0x100 PUSH1 0x40 DUP11 ADD MSTORE PUSH2 0x100 DUP10 ADD SWAP1 PUSH2 0x1CCE JUMP JUMPDEST SWAP5 PUSH1 0x60 DUP9 ADD MSTORE PUSH1 0x80 DUP8 ADD MSTORE PUSH1 0xA0 DUP7 ADD MSTORE PUSH1 0xC0 DUP6 ADD MSTORE DUP4 DUP3 SUB PUSH1 0xE0 DUP6 ADD MSTORE PUSH2 0x1CCE JUMP JUMPDEST SUB SWAP1 RETURN JUMPDEST CALLVALUE PUSH2 0x1A4 JUMPI PUSH1 0x20 CALLDATASIZE PUSH1 0x3 NOT ADD SLT PUSH2 0x1A4 JUMPI PUSH1 0x4 CALLDATALOAD PUSH1 0x8 SLOAD DUP2 LT ISZERO PUSH2 0x1A4 JUMPI PUSH2 0xA47 PUSH1 0x20 SWAP2 PUSH2 0x1D4A JUMP JUMPDEST SWAP1 SLOAD SWAP1 PUSH1 0x3 SHL SHR PUSH1 0x40 MLOAD SWAP1 DUP2 MSTORE RETURN JUMPDEST CALLVALUE PUSH2 0x1A4 JUMPI PUSH0 CALLDATASIZE PUSH1 0x3 NOT ADD SLT PUSH2 0x1A4 JUMPI PUSH1 0x1 SLOAD PUSH1 0x40 MLOAD PUSH1 0x1 PUSH1 0x1 PUSH1 0xA0 SHL SUB SWAP1 SWAP2 AND DUP2 MSTORE PUSH1 0x20 SWAP1 RETURN JUMPDEST CALLVALUE PUSH2 0x1A4 JUMPI PUSH0 CALLDATASIZE PUSH1 0x3 NOT ADD SLT PUSH2 0x1A4 JUMPI PUSH2 0xA96 PUSH2 0x20B1 JUMP JUMPDEST PUSH2 0xA9E PUSH2 0x215D JUMP JUMPDEST PUSH1 0x1 DUP1 SLOAD PUSH1 0xFF PUSH1 0xA0 SHL NOT AND PUSH1 0x1 PUSH1 0xA0 SHL OR SWAP1 SSTORE PUSH1 0x40 MLOAD CALLER DUP2 MSTORE PUSH32 0x62E78CEA01BEE320CD4E420270B5EA74000D11B0C9F74754EBDBFC544B05A258 SWAP1 PUSH1 0x20 SWAP1 LOG1 STOP JUMPDEST CALLVALUE PUSH2 0x1A4 JUMPI PUSH1 0x40 CALLDATASIZE PUSH1 0x3 NOT ADD SLT PUSH2 0x1A4 JUMPI PUSH1 0x20 PUSH2 0xB05 PUSH2 0xAFD PUSH2 0x1C71 JUMP JUMPDEST PUSH1 0x4 CALLDATALOAD PUSH2 0x2059 JUMP JUMPDEST PUSH1 0x40 MLOAD SWAP1 DUP2 MSTORE RETURN JUMPDEST CALLVALUE PUSH2 0x1A4 JUMPI PUSH1 0x20 CALLDATASIZE PUSH1 0x3 NOT ADD SLT PUSH2 0x1A4 JUMPI PUSH1 0x4 CALLDATALOAD PUSH0 MSTORE PUSH1 0x6 PUSH1 0x20 MSTORE PUSH1 0xC0 PUSH1 0x40 PUSH0 KECCAK256 DUP1 SLOAD SWAP1 PUSH1 0xFF PUSH1 0x1 DUP3 ADD SLOAD AND SWAP1 PUSH1 0x3 DUP2 ADD SLOAD PUSH1 0x4 DUP3 ADD SLOAD SWAP1 PUSH2 0xB63 PUSH1 0x6 PUSH1 0x5 DUP6 ADD SLOAD SWAP5 ADD SLOAD SWAP5 PUSH1 0x40 MLOAD SWAP7 DUP8 MSTORE PUSH1 0x20 DUP8 ADD SWAP1 PUSH2 0x1D3D JUMP JUMPDEST PUSH1 0x40 DUP6 ADD MSTORE PUSH1 0x60 DUP5 ADD MSTORE PUSH1 0x80 DUP4 ADD MSTORE PUSH1 0xA0 DUP3 ADD MSTORE RETURN JUMPDEST CALLVALUE PUSH2 0x1A4 JUMPI PUSH0 CALLDATASIZE PUSH1 0x3 NOT ADD SLT PUSH2 0x1A4 JUMPI PUSH1 0x20 PUSH1 0x4 SLOAD PUSH1 0x40 MLOAD SWAP1 DUP2 MSTORE RETURN JUMPDEST CALLVALUE PUSH2 0x1A4 JUMPI PUSH0 CALLDATASIZE PUSH1 0x3 NOT ADD SLT PUSH2 0x1A4 JUMPI PUSH2 0xBAE PUSH2 0x20B1 JUMP JUMPDEST PUSH1 0x1 DUP1 SLOAD PUSH1 0x1 PUSH1 0x1 PUSH1 0xA0 SHL SUB NOT DUP2 AND SWAP1 SWAP2 SSTORE PUSH0 SWAP1 PUSH1 0x1 PUSH1 0x1 PUSH1 0xA0 SHL SUB AND PUSH32 0x8BE0079C531659141344CD1FD0A4F28419497F9722A3DAAFE3B4186F6B6457E0 DUP3 DUP1 LOG3 STOP JUMPDEST CALLVALUE PUSH2 0x1A4 JUMPI PUSH0 CALLDATASIZE PUSH1 0x3 NOT ADD SLT PUSH2 0x1A4 JUMPI PUSH1 0x40 MLOAD PUSH1 0x8 SLOAD DUP1 DUP3 MSTORE PUSH1 0x20 DUP3 ADD SWAP1 PUSH1 0x8 PUSH0 MSTORE PUSH1 0x20 PUSH0 KECCAK256 SWAP1 PUSH0 JUMPDEST DUP2 DUP2 LT PUSH2 0xC45 JUMPI PUSH2 0xA1A DUP6 PUSH2 0xC31 DUP2 DUP8 SUB DUP3 PUSH2 0x1E11 JUMP JUMPDEST PUSH1 0x40 MLOAD SWAP2 DUP3 SWAP2 PUSH1 0x20 DUP4 MSTORE PUSH1 0x20 DUP4 ADD SWAP1 PUSH2 0x1D0A JUMP JUMPDEST DUP3 SLOAD DUP5 MSTORE PUSH1 0x20 SWAP1 SWAP4 ADD SWAP3 PUSH1 0x1 SWAP3 DUP4 ADD SWAP3 ADD PUSH2 0xC1A JUMP JUMPDEST CALLVALUE PUSH2 0x1A4 JUMPI PUSH1 0x20 CALLDATASIZE PUSH1 0x3 NOT ADD SLT PUSH2 0x1A4 JUMPI PUSH1 0x4 CALLDATALOAD PUSH2 0xC84 PUSH1 0x1 DUP1 PUSH1 0xA0 SHL SUB PUSH1 0x2 SLOAD AND CALLER EQ PUSH2 0x1ECA JUMP JUMPDEST DUP1 ISZERO ISZERO DUP1 PUSH2 0xD99 JUMPI JUMPDEST PUSH2 0xC96 SWAP1 PUSH2 0x1F15 JUMP JUMPDEST DUP1 PUSH0 MSTORE PUSH1 0x6 PUSH1 0x20 MSTORE PUSH1 0xFF PUSH1 0x1 PUSH1 0x40 PUSH0 KECCAK256 ADD SLOAD AND PUSH1 0x4 DUP2 LT ISZERO PUSH2 0x647 JUMPI PUSH2 0xCBC SWAP1 ISZERO PUSH2 0x1FEC JUMP JUMPDEST DUP1 PUSH0 MSTORE PUSH1 0x6 PUSH1 0x20 MSTORE PUSH1 0x40 PUSH0 KECCAK256 DUP1 SLOAD PUSH0 MSTORE PUSH1 0x5 PUSH1 0x20 MSTORE PUSH1 0x40 PUSH0 KECCAK256 SWAP1 PUSH1 0x2 DUP2 ADD DUP1 SLOAD PUSH1 0xFF DUP5 SLOAD PUSH1 0x8 SHR AND SUB PUSH2 0xD5D JUMPI PUSH32 0x2B4FBC018BE75E6FF98B219698828856CE311122193B11596150E17268E2EE31 SWAP3 DUP3 PUSH2 0xD36 PUSH1 0x3 PUSH1 0x40 SWAP6 ADD SWAP3 PUSH2 0x2710 PUSH2 0xD29 PUSH1 0x2 DUP7 SLOAD SWAP4 ADD SLOAD DUP4 PUSH2 0x1E33 JUMP JUMPDEST DIV SWAP1 DUP2 PUSH1 0x4 DUP6 ADD SSTORE PUSH2 0x2038 JUMP JUMPDEST DUP3 SSTORE PUSH1 0x1 DUP2 ADD PUSH1 0x1 PUSH1 0xFF NOT DUP3 SLOAD AND OR SWAP1 SSTORE PUSH1 0x5 TIMESTAMP SWAP2 ADD SSTORE SLOAD SWAP1 SLOAD DUP3 MLOAD SWAP2 DUP3 MSTORE PUSH1 0x20 DUP3 ADD MSTORE LOG2 STOP JUMPDEST PUSH1 0x40 MLOAD PUSH3 0x461BCD PUSH1 0xE5 SHL DUP2 MSTORE PUSH1 0x20 PUSH1 0x4 DUP3 ADD MSTORE PUSH1 0x14 PUSH1 0x24 DUP3 ADD MSTORE PUSH20 0x151BDD5C9B985B595B9D0E881B9BDD08199D5B1B PUSH1 0x62 SHL PUSH1 0x44 DUP3 ADD MSTORE PUSH1 0x64 SWAP1 REVERT JUMPDEST POP PUSH1 0x4 SLOAD DUP2 GT ISZERO PUSH2 0xC8D JUMP JUMPDEST CALLVALUE PUSH2 0x1A4 JUMPI PUSH0 CALLDATASIZE PUSH1 0x3 NOT ADD SLT PUSH2 0x1A4 JUMPI PUSH1 0x20 PUSH1 0xFF PUSH1 0x1 SLOAD PUSH1 0xA0 SHR AND PUSH1 0x40 MLOAD SWAP1 ISZERO ISZERO DUP2 MSTORE RETURN JUMPDEST CALLVALUE PUSH2 0x1A4 JUMPI PUSH1 0x40 CALLDATASIZE PUSH1 0x3 NOT ADD SLT PUSH2 0x1A4 JUMPI PUSH1 0x4 CALLDATALOAD PUSH1 0x24 CALLDATALOAD PUSH8 0xFFFFFFFFFFFFFFFF DUP2 GT PUSH2 0x1A4 JUMPI PUSH2 0xDFE SWAP1 CALLDATASIZE SWAP1 PUSH1 0x4 ADD PUSH2 0x1C9D JUMP JUMPDEST SWAP1 PUSH2 0xE14 PUSH1 0x1 DUP1 PUSH1 0xA0 SHL SUB PUSH1 0x2 SLOAD AND CALLER EQ PUSH2 0x1ECA JUMP JUMPDEST DUP3 ISZERO ISZERO DUP1 PUSH2 0x111A JUMPI JUMPDEST PUSH2 0xE26 SWAP1 PUSH2 0x1F15 JUMP JUMPDEST DUP3 PUSH0 MSTORE PUSH1 0x6 PUSH1 0x20 MSTORE PUSH1 0x40 PUSH0 KECCAK256 SWAP2 DUP3 SLOAD PUSH0 MSTORE PUSH1 0x5 PUSH1 0x20 MSTORE PUSH1 0x40 PUSH0 KECCAK256 SWAP3 PUSH1 0x1 DUP2 ADD SWAP4 PUSH1 0xFF DUP6 SLOAD AND PUSH1 0x4 DUP2 LT ISZERO PUSH2 0x647 JUMPI PUSH1 0x1 SUB PUSH2 0x10D5 JUMPI PUSH1 0x2 DUP3 ADD SWAP5 DUP6 SLOAD DUP5 SUB PUSH2 0x1090 JUMPI DUP1 SLOAD PUSH1 0xFF NOT AND PUSH1 0x2 OR SWAP1 SSTORE TIMESTAMP PUSH1 0x6 DUP4 ADD SSTORE PUSH1 0x7 DUP3 ADD PUSH8 0xFFFFFFFFFFFFFFFF DUP5 GT PUSH2 0x355 JUMPI PUSH1 0x1 PUSH1 0x40 SHL DUP5 GT PUSH2 0x355 JUMPI PUSH2 0xEA9 DUP5 DUP3 SWAP9 SWAP8 SWAP9 SLOAD DUP2 DUP5 SSTORE DUP4 PUSH2 0x1E46 JUMP JUMPDEST DUP5 SWAP1 PUSH0 MSTORE PUSH1 0x20 PUSH0 KECCAK256 SWAP1 PUSH0 JUMPDEST DUP6 DUP2 LT PUSH2 0x106F JUMPI POP POP POP PUSH0 SWAP6 PUSH1 0x3 DUP1 DUP5 ADD SWAP3 ADD SWAP3 PUSH1 0x8 DUP2 ADD SWAP8 JUMPDEST DUP6 DUP2 LT DUP1 PUSH2 0x1065 JUMPI JUMPDEST ISZERO PUSH2 0xF33 JUMPI PUSH2 0xF2E SWAP1 PUSH1 0x64 PUSH2 0xEFE DUP7 SLOAD PUSH2 0xEF1 DUP5 DUP11 PUSH2 0x1D76 JUMP JUMPDEST SWAP1 SLOAD SWAP1 PUSH1 0x3 SHL SHR SWAP1 PUSH2 0x1E33 JUMP JUMPDEST DIV PUSH2 0xF12 PUSH2 0xF0D DUP4 DUP11 DUP13 PUSH2 0x1DE6 JUMP JUMPDEST PUSH2 0x2045 JUMP JUMPDEST PUSH1 0x1 PUSH1 0x1 PUSH1 0xA0 SHL SUB AND PUSH0 SWAP1 DUP2 MSTORE PUSH1 0x20 DUP13 SWAP1 MSTORE PUSH1 0x40 SWAP1 KECCAK256 SSTORE PUSH2 0x1E03 JUMP JUMPDEST PUSH2 0xECE JUMP JUMPDEST POP DUP7 DUP6 DUP8 PUSH0 JUMPDEST DUP6 SLOAD DUP2 LT ISZERO PUSH2 0xF70 JUMPI DUP1 PUSH2 0xF4F PUSH1 0x1 SWAP3 DUP9 PUSH2 0x1D76 JUMP JUMPDEST DUP4 DUP1 PUSH1 0xA0 SHL SUB SWAP2 SLOAD SWAP1 PUSH1 0x3 SHL SHR AND PUSH0 MSTORE PUSH1 0x7 PUSH1 0x20 MSTORE PUSH0 PUSH1 0x40 DUP2 KECCAK256 SSTORE ADD PUSH2 0xF39 JUMP JUMPDEST POP PUSH1 0x4 DUP5 ADD DUP1 SLOAD DUP1 PUSH2 0xFF7 JUMPI JUMPDEST POP SLOAD PUSH1 0x40 MLOAD SWAP3 DUP1 PUSH1 0x40 DUP6 ADD PUSH1 0x40 DUP7 MSTORE MSTORE PUSH1 0x60 DUP5 ADD SWAP3 SWAP1 PUSH0 SWAP1 JUMPDEST DUP1 DUP3 LT PUSH2 0xFCD JUMPI DUP7 PUSH32 0x68FF998150D8D5BC22837FA5EFDCD59959B9994717CA44D405597FF822CB7C1C DUP8 DUP1 DUP9 DUP9 PUSH1 0x20 DUP4 ADD MSTORE SUB SWAP1 LOG2 STOP JUMPDEST SWAP1 SWAP2 SWAP4 DUP5 CALLDATALOAD SWAP1 PUSH1 0x1 DUP1 PUSH1 0xA0 SHL SUB DUP3 AND DUP1 SWAP3 SUB PUSH2 0x1A4 JUMPI PUSH1 0x20 DUP2 PUSH1 0x1 SWAP4 DUP3 SWAP4 MSTORE ADD SWAP6 ADD SWAP3 ADD SWAP1 PUSH2 0xF96 JUMP JUMPDEST PUSH1 0x2 SLOAD PUSH0 SWAP2 DUP3 SWAP2 DUP3 SWAP2 DUP3 SWAP2 PUSH1 0x1 PUSH1 0x1 PUSH1 0xA0 SHL SUB AND GAS CALL PUSH2 0x1015 PUSH2 0x1F61 JUMP JUMPDEST POP ISZERO PUSH2 0x1021 JUMPI DUP5 PUSH2 0xF7D JUMP JUMPDEST PUSH1 0x64 PUSH1 0x40 MLOAD PUSH3 0x461BCD PUSH1 0xE5 SHL DUP2 MSTORE PUSH1 0x20 PUSH1 0x4 DUP3 ADD MSTORE PUSH1 0x20 PUSH1 0x24 DUP3 ADD MSTORE PUSH32 0x546F75726E616D656E743A2072616B65207472616E73666572206661696C6564 PUSH1 0x44 DUP3 ADD MSTORE REVERT JUMPDEST POP DUP5 SLOAD DUP2 LT PUSH2 0xED7 JUMP JUMPDEST PUSH1 0x1 SWAP1 PUSH1 0x20 PUSH2 0x1080 DUP5 SWAP12 SWAP11 SWAP12 PUSH2 0x2045 JUMP JUMPDEST SWAP4 ADD SWAP3 DUP2 DUP6 ADD SSTORE ADD SWAP8 SWAP7 SWAP8 PUSH2 0xEB4 JUMP JUMPDEST PUSH1 0x40 MLOAD PUSH3 0x461BCD PUSH1 0xE5 SHL DUP2 MSTORE PUSH1 0x20 PUSH1 0x4 DUP3 ADD MSTORE PUSH1 0x1C PUSH1 0x24 DUP3 ADD MSTORE PUSH32 0x546F75726E616D656E743A20696E76616C69642072616E6B696E677300000000 PUSH1 0x44 DUP3 ADD MSTORE PUSH1 0x64 SWAP1 REVERT JUMPDEST PUSH1 0x40 MLOAD PUSH3 0x461BCD PUSH1 0xE5 SHL DUP2 MSTORE PUSH1 0x20 PUSH1 0x4 DUP3 ADD MSTORE PUSH1 0x1B PUSH1 0x24 DUP3 ADD MSTORE PUSH32 0x546F75726E616D656E743A206E6F7420696E2070726F67726573730000000000 PUSH1 0x44 DUP3 ADD MSTORE PUSH1 0x64 SWAP1 REVERT JUMPDEST POP PUSH1 0x4 SLOAD DUP4 GT ISZERO PUSH2 0xE1D JUMP JUMPDEST CALLVALUE PUSH2 0x1A4 JUMPI PUSH1 0x20 CALLDATASIZE PUSH1 0x3 NOT ADD SLT PUSH2 0x1A4 JUMPI PUSH1 0x4 CALLDATALOAD PUSH2 0x1142 PUSH2 0x2109 JUMP JUMPDEST DUP1 ISZERO ISZERO DUP1 PUSH2 0x135A JUMPI JUMPDEST PUSH2 0x1154 SWAP1 PUSH2 0x1F15 JUMP JUMPDEST DUP1 PUSH0 MSTORE PUSH1 0x6 PUSH1 0x20 MSTORE PUSH1 0xFF PUSH1 0x1 PUSH1 0x40 PUSH0 KECCAK256 ADD SLOAD AND PUSH1 0x4 DUP2 LT ISZERO PUSH2 0x647 JUMPI PUSH2 0x117A SWAP1 ISZERO PUSH2 0x1FEC JUMP JUMPDEST DUP1 PUSH0 MSTORE PUSH1 0x6 PUSH1 0x20 MSTORE PUSH1 0x40 PUSH0 KECCAK256 DUP1 SLOAD PUSH0 MSTORE PUSH1 0x5 PUSH1 0x20 MSTORE PUSH1 0x40 PUSH0 KECCAK256 SWAP1 PUSH2 0x119E CALLER DUP5 PUSH2 0x1D8B JUMP JUMPDEST ISZERO PUSH2 0x131C JUMPI PUSH2 0x11AD CALLER DUP5 PUSH2 0x2059 JUMP JUMPDEST SWAP2 PUSH1 0x2 DUP3 ADD SWAP3 DUP4 SLOAD SWAP1 DUP2 DUP2 LT ISZERO PUSH2 0x12D7 JUMPI PUSH0 NOT DUP3 ADD SWAP2 DUP3 GT PUSH2 0x12C3 JUMPI PUSH2 0x11F2 PUSH2 0x11D9 PUSH2 0x1216 SWAP4 DUP8 PUSH2 0x1D76 JUMP JUMPDEST SWAP1 SLOAD PUSH1 0x3 SWAP2 SWAP1 SWAP2 SHL SHR PUSH1 0x1 PUSH1 0x1 PUSH1 0xA0 SHL SUB AND SWAP2 DUP7 PUSH2 0x1D76 JUMP JUMPDEST DUP2 SLOAD PUSH1 0x1 PUSH1 0x1 PUSH1 0xA0 SHL SUB SWAP4 DUP5 AND PUSH1 0x3 SWAP3 SWAP1 SWAP3 SHL SWAP2 DUP3 SHL SWAP4 SWAP1 SWAP2 SHL NOT AND SWAP2 SWAP1 SWAP2 OR SWAP1 SSTORE JUMP JUMPDEST DUP3 SLOAD SWAP1 DUP2 ISZERO PUSH2 0x12AF JUMPI PUSH0 DUP1 SWAP4 PUSH1 0x1 DUP3 SWAP5 SWAP4 PUSH2 0x1283 SWAP8 DUP5 SWAP6 DUP6 NOT ADD SWAP1 PUSH2 0x123B DUP3 DUP3 PUSH2 0x1D76 JUMP JUMPDEST DUP2 SLOAD SWAP1 DUP7 DUP1 PUSH1 0xA0 SHL SUB SWAP1 PUSH1 0x3 SHL SHL NOT AND SWAP1 SSTORE SSTORE ADD SWAP1 PUSH2 0x1261 PUSH1 0x3 DUP4 SLOAD SWAP3 ADD SWAP2 DUP3 SLOAD PUSH2 0x2038 JUMP JUMPDEST SWAP1 SSTORE CALLER DUP3 MSTORE PUSH1 0x7 PUSH1 0x20 MSTORE DUP2 PUSH1 0x40 DUP2 KECCAK256 SSTORE SLOAD CALLER GAS CALL PUSH2 0x127D PUSH2 0x1F61 JUMP JUMPDEST POP PUSH2 0x1FA0 JUMP JUMPDEST CALLER SWAP1 PUSH32 0xB2BD643202385C64D9814C6C3FA61B1BA098D6652292E9D9A6F1A0CDAE6EB824 PUSH0 DUP1 LOG3 PUSH1 0x1 PUSH0 SSTORE STOP JUMPDEST PUSH4 0x4E487B71 PUSH1 0xE0 SHL PUSH0 MSTORE PUSH1 0x31 PUSH1 0x4 MSTORE PUSH1 0x24 PUSH0 REVERT JUMPDEST PUSH4 0x4E487B71 PUSH1 0xE0 SHL PUSH0 MSTORE PUSH1 0x11 PUSH1 0x4 MSTORE PUSH1 0x24 PUSH0 REVERT JUMPDEST PUSH1 0x40 MLOAD PUSH3 0x461BCD PUSH1 0xE5 SHL DUP2 MSTORE PUSH1 0x20 PUSH1 0x4 DUP3 ADD MSTORE PUSH1 0x1C PUSH1 0x24 DUP3 ADD MSTORE PUSH32 0x546F75726E616D656E743A20706C61796572206E6F7420666F756E6400000000 PUSH1 0x44 DUP3 ADD MSTORE PUSH1 0x64 SWAP1 REVERT JUMPDEST PUSH1 0x40 MLOAD PUSH3 0x461BCD PUSH1 0xE5 SHL DUP2 MSTORE PUSH1 0x20 PUSH1 0x4 DUP3 ADD MSTORE PUSH1 0x16 PUSH1 0x24 DUP3 ADD MSTORE PUSH22 0x151BDD5C9B985B595B9D0E881B9BDD081A9BDA5B9959 PUSH1 0x52 SHL PUSH1 0x44 DUP3 ADD MSTORE PUSH1 0x64 SWAP1 REVERT JUMPDEST POP PUSH1 0x4 SLOAD DUP2 GT ISZERO PUSH2 0x114B JUMP JUMPDEST CALLVALUE PUSH2 0x1A4 JUMPI PUSH1 0x40 CALLDATASIZE PUSH1 0x3 NOT ADD SLT PUSH2 0x1A4 JUMPI PUSH2 0x137F PUSH2 0x1C71 JUMP JUMPDEST PUSH1 0x4 CALLDATALOAD PUSH0 MSTORE PUSH1 0x6 PUSH1 0x20 MSTORE PUSH1 0x8 PUSH1 0x40 PUSH0 KECCAK256 ADD SWAP1 PUSH1 0x1 DUP1 PUSH1 0xA0 SHL SUB AND PUSH0 MSTORE PUSH1 0x20 MSTORE PUSH1 0x20 PUSH1 0x40 PUSH0 KECCAK256 SLOAD PUSH1 0x40 MLOAD SWAP1 DUP2 MSTORE RETURN JUMPDEST CALLVALUE PUSH2 0x1A4 JUMPI PUSH1 0x20 CALLDATASIZE PUSH1 0x3 NOT ADD SLT PUSH2 0x1A4 JUMPI PUSH1 0x4 CALLDATALOAD PUSH0 MSTORE PUSH1 0x5 PUSH1 0x20 MSTORE PUSH1 0x40 PUSH0 KECCAK256 DUP1 SLOAD SWAP1 PUSH1 0xFF DUP3 AND SWAP1 PUSH1 0x1 DUP2 ADD SLOAD PUSH1 0x2 DUP3 ADD SLOAD SWAP2 PUSH1 0x3 DUP2 ADD PUSH1 0x4 DUP3 ADD SLOAD SWAP4 PUSH1 0x6 PUSH1 0xFF PUSH1 0x5 DUP6 ADD SLOAD AND SWAP4 ADD SLOAD SWAP4 PUSH1 0x40 MLOAD SWAP3 DUP1 SLOAD DUP1 DUP6 MSTORE PUSH1 0x20 DUP6 ADD SWAP2 PUSH0 MSTORE PUSH1 0x20 PUSH0 KECCAK256 SWAP1 PUSH0 JUMPDEST DUP2 DUP2 LT PUSH2 0x1480 JUMPI POP POP POP SWAP1 PUSH2 0x142A DUP5 PUSH2 0x1463 SWAP6 SWAP5 SWAP4 SUB DUP5 PUSH2 0x1E11 JUMP JUMPDEST PUSH1 0xFF PUSH1 0x40 MLOAD SWAP10 DUP10 PUSH2 0x143B DUP13 SWAP12 PUSH2 0x1C67 JUMP JUMPDEST DUP11 MSTORE PUSH1 0x8 SHR AND PUSH1 0x20 DUP10 ADD MSTORE PUSH1 0x40 DUP9 ADD MSTORE PUSH1 0x60 DUP8 ADD MSTORE PUSH2 0x100 PUSH1 0x80 DUP8 ADD MSTORE PUSH2 0x100 DUP7 ADD SWAP1 PUSH2 0x1D0A JUMP JUMPDEST SWAP3 PUSH1 0xA0 DUP6 ADD MSTORE PUSH2 0x1472 DUP2 PUSH2 0x1C67 JUMP JUMPDEST PUSH1 0xC0 DUP5 ADD MSTORE PUSH1 0xE0 DUP4 ADD MSTORE SUB SWAP1 RETURN JUMPDEST DUP3 SLOAD DUP5 MSTORE PUSH1 0x20 SWAP1 SWAP4 ADD SWAP3 PUSH1 0x1 SWAP3 DUP4 ADD SWAP3 ADD PUSH2 0x140E JUMP JUMPDEST CALLVALUE PUSH2 0x1A4 JUMPI PUSH0 CALLDATASIZE PUSH1 0x3 NOT ADD SLT PUSH2 0x1A4 JUMPI PUSH2 0x14AE PUSH2 0x20B1 JUMP JUMPDEST PUSH1 0x1 SLOAD PUSH1 0xFF DUP2 PUSH1 0xA0 SHR AND ISZERO PUSH2 0x14F5 JUMPI PUSH1 0xFF PUSH1 0xA0 SHL NOT AND PUSH1 0x1 SSTORE PUSH1 0x40 MLOAD CALLER DUP2 MSTORE PUSH32 0x5DB9EE0A495BF2E6FF9C91A7834C1BA4FDD244A5E8AA4E537BD38AEAE4B073AA SWAP1 PUSH1 0x20 SWAP1 LOG1 STOP JUMPDEST PUSH1 0x40 MLOAD PUSH3 0x461BCD PUSH1 0xE5 SHL DUP2 MSTORE PUSH1 0x20 PUSH1 0x4 DUP3 ADD MSTORE PUSH1 0x14 PUSH1 0x24 DUP3 ADD MSTORE PUSH20 0x14185D5CD8589B194E881B9BDD081C185D5CD959 PUSH1 0x62 SHL PUSH1 0x44 DUP3 ADD MSTORE PUSH1 0x64 SWAP1 REVERT JUMPDEST CALLVALUE PUSH2 0x1A4 JUMPI PUSH0 CALLDATASIZE PUSH1 0x3 NOT ADD SLT PUSH2 0x1A4 JUMPI PUSH1 0x3 SLOAD PUSH1 0x40 MLOAD PUSH1 0x1 PUSH1 0x1 PUSH1 0xA0 SHL SUB SWAP1 SWAP2 AND DUP2 MSTORE PUSH1 0x20 SWAP1 RETURN JUMPDEST CALLVALUE PUSH2 0x1A4 JUMPI PUSH1 0x20 CALLDATASIZE PUSH1 0x3 NOT ADD SLT PUSH2 0x1A4 JUMPI PUSH2 0x1572 PUSH2 0x1C87 JUMP JUMPDEST PUSH2 0x157A PUSH2 0x20B1 JUMP JUMPDEST PUSH1 0x3 DUP1 SLOAD PUSH1 0x1 PUSH1 0x1 PUSH1 0xA0 SHL SUB NOT AND PUSH1 0x1 PUSH1 0x1 PUSH1 0xA0 SHL SUB SWAP3 SWAP1 SWAP3 AND SWAP2 SWAP1 SWAP2 OR SWAP1 SSTORE STOP JUMPDEST CALLVALUE PUSH2 0x1A4 JUMPI PUSH1 0x20 CALLDATASIZE PUSH1 0x3 NOT ADD SLT PUSH2 0x1A4 JUMPI PUSH1 0x4 CALLDATALOAD PUSH2 0x15C5 PUSH1 0x1 DUP1 PUSH1 0xA0 SHL SUB PUSH1 0x2 SLOAD AND CALLER EQ PUSH2 0x1ECA JUMP JUMPDEST DUP1 ISZERO ISZERO DUP1 PUSH2 0x16DD JUMPI JUMPDEST PUSH2 0x15D7 SWAP1 PUSH2 0x1F15 JUMP JUMPDEST DUP1 PUSH0 MSTORE PUSH1 0x6 PUSH1 0x20 MSTORE PUSH1 0x40 PUSH0 KECCAK256 SWAP1 PUSH1 0x1 DUP3 ADD PUSH1 0xFF DUP2 SLOAD AND PUSH1 0x4 DUP2 LT ISZERO PUSH2 0x647 JUMPI PUSH2 0x1698 JUMPI DUP3 SWAP1 PUSH1 0x3 PUSH1 0xFF NOT DUP3 SLOAD AND OR SWAP1 SSTORE DUP1 SLOAD PUSH0 MSTORE PUSH1 0x5 PUSH1 0x20 MSTORE PUSH1 0x1 PUSH1 0x40 PUSH0 KECCAK256 ADD SLOAD SWAP2 PUSH0 SWAP1 PUSH1 0x2 DUP4 ADD SWAP2 JUMPDEST DUP3 SLOAD DUP2 LT ISZERO PUSH2 0x166B JUMPI DUP1 PUSH2 0x1665 PUSH0 DUP1 DUP1 DUP1 DUP11 PUSH2 0x163F PUSH1 0x1 SWAP9 DUP12 PUSH2 0x1D76 JUMP JUMPDEST DUP10 DUP1 PUSH1 0xA0 SHL SUB SWAP2 SLOAD SWAP1 PUSH1 0x3 SHL SHR AND DUP1 DUP4 MSTORE PUSH1 0x7 PUSH1 0x20 MSTORE DUP3 PUSH1 0x40 DUP2 KECCAK256 SSTORE GAS CALL PUSH2 0x127D PUSH2 0x1F61 JUMP JUMPDEST ADD PUSH2 0x1621 JUMP JUMPDEST POP PUSH0 PUSH1 0x3 DUP5 ADD SSTORE PUSH32 0xFA61EC8D7E5A58CEBA17772B10BA0C6CAA65B40B200302BE35F00EFC264C7895 PUSH0 DUP1 LOG2 STOP JUMPDEST PUSH1 0x40 MLOAD PUSH3 0x461BCD PUSH1 0xE5 SHL DUP2 MSTORE PUSH1 0x20 PUSH1 0x4 DUP3 ADD MSTORE PUSH1 0x19 PUSH1 0x24 DUP3 ADD MSTORE PUSH32 0x546F75726E616D656E743A2063616E6E6F742063616E63656C00000000000000 PUSH1 0x44 DUP3 ADD MSTORE PUSH1 0x64 SWAP1 REVERT JUMPDEST POP PUSH1 0x4 SLOAD DUP2 GT ISZERO PUSH2 0x15CE JUMP JUMPDEST CALLVALUE PUSH2 0x1A4 JUMPI PUSH1 0x20 CALLDATASIZE PUSH1 0x3 NOT ADD SLT PUSH2 0x1A4 JUMPI PUSH1 0x4 CALLDATALOAD PUSH0 MSTORE PUSH1 0x6 PUSH1 0x20 MSTORE PUSH2 0xA1A PUSH2 0x1716 PUSH1 0x2 PUSH1 0x40 PUSH0 KECCAK256 ADD PUSH2 0x1E77 JUMP JUMPDEST PUSH1 0x40 MLOAD SWAP2 DUP3 SWAP2 PUSH1 0x20 DUP4 MSTORE PUSH1 0x20 DUP4 ADD SWAP1 PUSH2 0x1CCE JUMP JUMPDEST CALLVALUE PUSH2 0x1A4 JUMPI PUSH0 CALLDATASIZE PUSH1 0x3 NOT ADD SLT PUSH2 0x1A4 JUMPI PUSH1 0x2 SLOAD PUSH1 0x40 MLOAD PUSH1 0x1 PUSH1 0x1 PUSH1 0xA0 SHL SUB SWAP1 SWAP2 AND DUP2 MSTORE PUSH1 0x20 SWAP1 RETURN JUMPDEST CALLVALUE PUSH2 0x1A4 JUMPI PUSH2 0x100 CALLDATASIZE PUSH1 0x3 NOT ADD SLT PUSH2 0x1A4 JUMPI PUSH1 0x4 CALLDATALOAD PUSH1 0x2 DUP2 LT ISZERO PUSH2 0x1A4 JUMPI PUSH1 0x24 CALLDATALOAD SWAP1 PUSH1 0xFF DUP3 AND DUP1 SWAP3 SUB PUSH2 0x1A4 JUMPI PUSH1 0x44 CALLDATALOAD SWAP1 PUSH1 0x64 CALLDATALOAD SWAP3 PUSH1 0x84 CALLDATALOAD PUSH8 0xFFFFFFFFFFFFFFFF DUP2 GT PUSH2 0x1A4 JUMPI PUSH2 0x17A7 SWAP1 CALLDATASIZE SWAP1 PUSH1 0x4 ADD PUSH2 0x1C9D JUMP JUMPDEST SWAP5 SWAP1 PUSH1 0xC4 CALLDATALOAD PUSH1 0x2 DUP2 LT ISZERO PUSH2 0x1A4 JUMPI PUSH2 0x17BD PUSH2 0x20B1 JUMP JUMPDEST PUSH1 0x2 DUP5 EQ DUP1 ISZERO PUSH2 0x1BAB JUMPI JUMPDEST DUP1 ISZERO PUSH2 0x1BA1 JUMPI JUMPDEST DUP1 ISZERO PUSH2 0x1B97 JUMPI JUMPDEST ISZERO PUSH2 0x1B53 JUMPI DUP6 ISZERO PUSH2 0x1AFC JUMPI PUSH2 0x3E8 DUP4 GT PUSH2 0x1AB7 JUMPI DUP7 ISZERO PUSH2 0x1A66 JUMPI PUSH0 DUP1 JUMPDEST DUP9 DUP3 LT PUSH2 0x1A46 JUMPI PUSH1 0x64 SWAP2 POP SUB PUSH2 0x19EA JUMPI PUSH2 0x180E PUSH1 0x4 SLOAD PUSH2 0x1E03 JUMP JUMPDEST SWAP6 DUP7 PUSH1 0x4 SSTORE PUSH1 0x40 MLOAD SWAP4 PUSH2 0x100 DUP6 ADD DUP6 DUP2 LT PUSH8 0xFFFFFFFFFFFFFFFF DUP3 GT OR PUSH2 0x355 JUMPI PUSH1 0x40 MSTORE PUSH2 0x183B DUP8 PUSH2 0x1C67 JUMP JUMPDEST DUP7 DUP6 MSTORE PUSH1 0x20 DUP6 ADD SWAP4 DUP7 DUP6 MSTORE PUSH1 0x40 DUP7 ADD SWAP3 DUP4 MSTORE PUSH1 0x60 DUP7 ADD SWAP2 DUP3 MSTORE PUSH8 0xFFFFFFFFFFFFFFFF DUP11 GT PUSH2 0x355 JUMPI DUP10 PUSH1 0x5 SHL PUSH1 0x40 MLOAD SWAP11 PUSH2 0x1878 PUSH1 0x20 DUP4 ADD DUP14 PUSH2 0x1E11 JUMP JUMPDEST DUP12 MSTORE PUSH1 0x20 DUP12 ADD SWAP1 DUP3 ADD SWAP2 CALLDATASIZE DUP4 GT PUSH2 0x1A4 JUMPI SWAP1 JUMPDEST DUP3 DUP3 LT PUSH2 0x19DA JUMPI POP POP POP PUSH1 0x80 DUP6 ADD SWAP9 DUP10 MSTORE PUSH1 0xA0 DUP6 ADD SWAP2 PUSH1 0xA4 CALLDATALOAD DUP4 MSTORE PUSH1 0xC0 DUP7 ADD SWAP4 PUSH2 0x18B4 DUP2 PUSH2 0x1C67 JUMP JUMPDEST DUP5 MSTORE PUSH1 0xE0 DUP7 ADD SWAP5 PUSH1 0xE4 CALLDATALOAD DUP7 MSTORE DUP10 PUSH0 MSTORE PUSH1 0x5 PUSH1 0x20 MSTORE PUSH1 0x40 PUSH0 KECCAK256 SWAP7 MLOAD SWAP1 PUSH2 0x18D8 DUP3 PUSH2 0x1C67 JUMP JUMPDEST PUSH2 0x18E1 DUP3 PUSH2 0x1C67 JUMP JUMPDEST PUSH1 0xFF PUSH2 0xFF00 DUP10 SLOAD SWAP3 MLOAD PUSH1 0x8 SHL AND SWAP3 AND SWAP1 PUSH2 0xFFFF NOT AND OR OR DUP7 SSTORE MLOAD PUSH1 0x1 DUP7 ADD SSTORE MLOAD PUSH1 0x2 DUP6 ADD SSTORE PUSH1 0x3 DUP5 ADD SWAP8 MLOAD DUP1 MLOAD SWAP1 PUSH8 0xFFFFFFFFFFFFFFFF DUP3 GT PUSH2 0x355 JUMPI PUSH1 0x1 PUSH1 0x40 SHL DUP3 GT PUSH2 0x355 JUMPI PUSH1 0x20 SWAP1 PUSH2 0x193C DUP4 DUP13 DUP2 DUP2 SLOAD SWAP2 SSTORE DUP14 PUSH2 0x1E46 JUMP JUMPDEST ADD SWAP9 PUSH0 MSTORE PUSH1 0x20 PUSH0 KECCAK256 SWAP9 PUSH0 JUMPDEST DUP3 DUP2 LT PUSH2 0x19C6 JUMPI PUSH1 0x20 DUP11 DUP1 PUSH32 0x38493C0E0E8E5BFA42838675AC563952C7C48DA1B9917B08348DC5CC303662B2 PUSH1 0x40 DUP14 DUP14 DUP14 PUSH1 0x6 DUP15 DUP15 DUP15 MLOAD PUSH1 0x4 DUP6 ADD SSTORE PUSH1 0x5 DUP5 ADD SWAP1 MLOAD PUSH2 0x1992 DUP2 PUSH2 0x1C67 JUMP JUMPDEST PUSH2 0x199B DUP2 PUSH2 0x1C67 JUMP JUMPDEST PUSH1 0xFF DUP1 NOT DUP4 SLOAD AND SWAP2 AND OR SWAP1 SSTORE MLOAD SWAP2 ADD SSTORE DUP3 MLOAD SWAP2 PUSH2 0x19B7 DUP2 PUSH2 0x1C67 JUMP JUMPDEST DUP3 MSTORE DUP7 DUP3 ADD MSTORE LOG2 PUSH1 0x40 MLOAD SWAP1 DUP2 MSTORE RETURN JUMPDEST PUSH1 0x1 SWAP1 PUSH1 0x20 DUP4 MLOAD SWAP4 ADD SWAP3 DUP2 DUP14 ADD SSTORE ADD PUSH2 0x1947 JUMP JUMPDEST DUP2 CALLDATALOAD DUP2 MSTORE PUSH1 0x20 SWAP2 DUP3 ADD SWAP2 ADD PUSH2 0x188B JUMP JUMPDEST PUSH1 0x40 MLOAD PUSH3 0x461BCD PUSH1 0xE5 SHL DUP2 MSTORE PUSH1 0x20 PUSH1 0x4 DUP3 ADD MSTORE PUSH1 0x2E PUSH1 0x24 DUP3 ADD MSTORE PUSH32 0x546F75726E616D656E743A207072697A6520646973747269627574696F6E206D PUSH1 0x44 DUP3 ADD MSTORE PUSH14 0x7573742073756D20746F2031303 PUSH1 0x94 SHL PUSH1 0x64 DUP3 ADD MSTORE PUSH1 0x84 SWAP1 REVERT JUMPDEST PUSH2 0x1A5E PUSH1 0x1 SWAP2 PUSH2 0x1A57 DUP5 DUP13 DUP9 PUSH2 0x1DE6 JUMP JUMPDEST CALLDATALOAD SWAP1 PUSH2 0x1DF6 JUMP JUMPDEST SWAP2 ADD SWAP1 PUSH2 0x17F3 JUMP JUMPDEST PUSH1 0x40 MLOAD PUSH3 0x461BCD PUSH1 0xE5 SHL DUP2 MSTORE PUSH1 0x20 PUSH1 0x4 DUP3 ADD MSTORE PUSH1 0x24 DUP1 DUP3 ADD MSTORE PUSH32 0x546F75726E616D656E743A20656D707479207072697A65206469737472696275 PUSH1 0x44 DUP3 ADD MSTORE PUSH4 0x3A34B7B7 PUSH1 0xE1 SHL PUSH1 0x64 DUP3 ADD MSTORE PUSH1 0x84 SWAP1 REVERT JUMPDEST PUSH1 0x40 MLOAD PUSH3 0x461BCD PUSH1 0xE5 SHL DUP2 MSTORE PUSH1 0x20 PUSH1 0x4 DUP3 ADD MSTORE PUSH1 0x1E PUSH1 0x24 DUP3 ADD MSTORE PUSH32 0x546F75726E616D656E743A2072616B65207261746520746F6F20686967680000 PUSH1 0x44 DUP3 ADD MSTORE PUSH1 0x64 SWAP1 REVERT JUMPDEST PUSH1 0x40 MLOAD PUSH3 0x461BCD PUSH1 0xE5 SHL DUP2 MSTORE PUSH1 0x20 PUSH1 0x4 DUP3 ADD MSTORE PUSH1 0x29 PUSH1 0x24 DUP3 ADD MSTORE PUSH32 0x546F75726E616D656E743A206275792D696E206D757374206265206772656174 PUSH1 0x44 DUP3 ADD MSTORE PUSH9 0x6572207468616E203 PUSH1 0xBC SHL PUSH1 0x64 DUP3 ADD MSTORE PUSH1 0x84 SWAP1 REVERT JUMPDEST PUSH1 0x64 PUSH1 0x40 MLOAD PUSH3 0x461BCD PUSH1 0xE5 SHL DUP2 MSTORE PUSH1 0x20 PUSH1 0x4 DUP3 ADD MSTORE PUSH1 0x20 PUSH1 0x24 DUP3 ADD MSTORE PUSH32 0x546F75726E616D656E743A20696E76616C696420706C6179657220636F756E74 PUSH1 0x44 DUP3 ADD MSTORE REVERT JUMPDEST POP PUSH1 0x9 DUP5 EQ PUSH2 0x17D6 JUMP JUMPDEST POP PUSH1 0x6 DUP5 EQ PUSH2 0x17CF JUMP JUMPDEST POP PUSH1 0x3 DUP5 EQ PUSH2 0x17C8 JUMP JUMPDEST CALLVALUE PUSH2 0x1A4 JUMPI PUSH1 0x40 CALLDATASIZE PUSH1 0x3 NOT ADD SLT PUSH2 0x1A4 JUMPI PUSH1 0x20 PUSH2 0x1BDB PUSH2 0x1BD3 PUSH2 0x1C71 JUMP JUMPDEST PUSH1 0x4 CALLDATALOAD PUSH2 0x1D8B JUMP JUMPDEST PUSH1 0x40 MLOAD SWAP1 ISZERO ISZERO DUP2 MSTORE RETURN JUMPDEST CALLVALUE PUSH2 0x1A4 JUMPI PUSH1 0x20 CALLDATASIZE PUSH1 0x3 NOT ADD SLT PUSH2 0x1A4 JUMPI PUSH1 0xE0 SWAP1 PUSH1 0x4 CALLDATALOAD PUSH0 MSTORE PUSH1 0x5 PUSH1 0x20 MSTORE PUSH1 0x40 PUSH0 KECCAK256 DUP1 SLOAD SWAP1 PUSH1 0xFF DUP3 AND SWAP2 PUSH1 0x1 DUP3 ADD SLOAD PUSH1 0x2 DUP4 ADD SLOAD SWAP1 PUSH1 0xFF PUSH1 0x4 DUP6 ADD SLOAD SWAP4 PUSH1 0x6 DUP3 PUSH1 0x5 DUP9 ADD SLOAD AND SWAP7 ADD SLOAD SWAP7 PUSH2 0x1C38 DUP2 PUSH2 0x1C67 JUMP JUMPDEST DUP9 MSTORE PUSH1 0x8 SHR AND PUSH1 0x20 DUP8 ADD MSTORE PUSH1 0x40 DUP7 ADD MSTORE PUSH1 0x60 DUP6 ADD MSTORE PUSH1 0x80 DUP5 ADD MSTORE PUSH2 0x1C5B DUP2 PUSH2 0x1C67 JUMP JUMPDEST PUSH1 0xA0 DUP4 ADD MSTORE PUSH1 0xC0 DUP3 ADD MSTORE RETURN JUMPDEST PUSH1 0x2 GT ISZERO PUSH2 0x647 JUMPI JUMP JUMPDEST PUSH1 0x24 CALLDATALOAD SWAP1 PUSH1 0x1 PUSH1 0x1 PUSH1 0xA0 SHL SUB DUP3 AND DUP3 SUB PUSH2 0x1A4 JUMPI JUMP JUMPDEST PUSH1 0x4 CALLDATALOAD SWAP1 PUSH1 0x1 PUSH1 0x1 PUSH1 0xA0 SHL SUB DUP3 AND DUP3 SUB PUSH2 0x1A4 JUMPI JUMP JUMPDEST SWAP2 DUP2 PUSH1 0x1F DUP5 ADD SLT ISZERO PUSH2 0x1A4 JUMPI DUP3 CALLDATALOAD SWAP2 PUSH8 0xFFFFFFFFFFFFFFFF DUP4 GT PUSH2 0x1A4 JUMPI PUSH1 0x20 DUP1 DUP6 ADD SWAP5 DUP5 PUSH1 0x5 SHL ADD ADD GT PUSH2 0x1A4 JUMPI JUMP JUMPDEST SWAP1 PUSH1 0x20 DUP1 DUP4 MLOAD SWAP3 DUP4 DUP2 MSTORE ADD SWAP3 ADD SWAP1 PUSH0 JUMPDEST DUP2 DUP2 LT PUSH2 0x1CEB JUMPI POP POP POP SWAP1 JUMP JUMPDEST DUP3 MLOAD PUSH1 0x1 PUSH1 0x1 PUSH1 0xA0 SHL SUB AND DUP5 MSTORE PUSH1 0x20 SWAP4 DUP5 ADD SWAP4 SWAP1 SWAP3 ADD SWAP2 PUSH1 0x1 ADD PUSH2 0x1CDE JUMP JUMPDEST SWAP1 PUSH1 0x20 DUP1 DUP4 MLOAD SWAP3 DUP4 DUP2 MSTORE ADD SWAP3 ADD SWAP1 PUSH0 JUMPDEST DUP2 DUP2 LT PUSH2 0x1D27 JUMPI POP POP POP SWAP1 JUMP JUMPDEST DUP3 MLOAD DUP5 MSTORE PUSH1 0x20 SWAP4 DUP5 ADD SWAP4 SWAP1 SWAP3 ADD SWAP2 PUSH1 0x1 ADD PUSH2 0x1D1A JUMP JUMPDEST SWAP1 PUSH1 0x4 DUP3 LT ISZERO PUSH2 0x647 JUMPI MSTORE JUMP JUMPDEST PUSH1 0x8 SLOAD DUP2 LT ISZERO PUSH2 0x1D62 JUMPI PUSH1 0x8 PUSH0 MSTORE PUSH1 0x20 PUSH0 KECCAK256 ADD SWAP1 PUSH0 SWAP1 JUMP JUMPDEST PUSH4 0x4E487B71 PUSH1 0xE0 SHL PUSH0 MSTORE PUSH1 0x32 PUSH1 0x4 MSTORE PUSH1 0x24 PUSH0 REVERT JUMPDEST DUP1 SLOAD DUP3 LT ISZERO PUSH2 0x1D62 JUMPI PUSH0 MSTORE PUSH1 0x20 PUSH0 KECCAK256 ADD SWAP1 PUSH0 SWAP1 JUMP JUMPDEST PUSH0 MSTORE PUSH1 0x6 PUSH1 0x20 MSTORE PUSH1 0x40 PUSH0 KECCAK256 SWAP1 PUSH1 0x2 PUSH0 SWAP3 ADD DUP1 SLOAD SWAP3 JUMPDEST DUP4 DUP2 LT PUSH2 0x1DAF JUMPI POP POP POP POP PUSH0 SWAP1 JUMP JUMPDEST PUSH2 0x1DB9 DUP2 DUP4 PUSH2 0x1D76 JUMP JUMPDEST SWAP1 SLOAD PUSH1 0x3 SWAP2 SWAP1 SWAP2 SHL SHR PUSH1 0x1 PUSH1 0x1 PUSH1 0xA0 SHL SUB SWAP1 DUP2 AND SWAP1 DUP5 AND EQ PUSH2 0x1DDD JUMPI PUSH1 0x1 ADD PUSH2 0x1DA0 JUMP JUMPDEST POP POP POP POP PUSH1 0x1 SWAP1 JUMP JUMPDEST SWAP2 SWAP1 DUP2 LT ISZERO PUSH2 0x1D62 JUMPI PUSH1 0x5 SHL ADD SWAP1 JUMP JUMPDEST SWAP2 SWAP1 DUP3 ADD DUP1 SWAP3 GT PUSH2 0x12C3 JUMPI JUMP JUMPDEST PUSH0 NOT DUP2 EQ PUSH2 0x12C3 JUMPI PUSH1 0x1 ADD SWAP1 JUMP JUMPDEST SWAP1 PUSH1 0x1F DUP1 NOT SWAP2 ADD AND DUP2 ADD SWAP1 DUP2 LT PUSH8 0xFFFFFFFFFFFFFFFF DUP3 GT OR PUSH2 0x355 JUMPI PUSH1 0x40 MSTORE JUMP JUMPDEST DUP2 DUP2 MUL SWAP3 SWAP2 DUP2 ISZERO SWAP2 DUP5 DIV EQ OR ISZERO PUSH2 0x12C3 JUMPI JUMP JUMPDEST SWAP2 SWAP1 SWAP2 DUP3 DUP3 LT PUSH2 0x1E55 JUMPI POP POP POP JUMP JUMPDEST PUSH0 MSTORE PUSH1 0x20 PUSH0 KECCAK256 SWAP2 DUP3 ADD SWAP2 ADD JUMPDEST DUP2 DUP2 LT PUSH2 0x1E6C JUMPI POP POP JUMP JUMPDEST PUSH0 DUP2 SSTORE PUSH1 0x1 ADD PUSH2 0x1E61 JUMP JUMPDEST SWAP1 PUSH1 0x40 MLOAD SWAP2 DUP3 DUP2 SLOAD SWAP2 DUP3 DUP3 MSTORE PUSH1 0x20 DUP3 ADD SWAP1 PUSH0 MSTORE PUSH1 0x20 PUSH0 KECCAK256 SWAP3 PUSH0 JUMPDEST DUP2 DUP2 LT PUSH2 0x1EA8 JUMPI POP POP PUSH2 0x1EA6 SWAP3 POP SUB DUP4 PUSH2 0x1E11 JUMP JUMPDEST JUMP JUMPDEST DUP5 SLOAD PUSH1 0x1 PUSH1 0x1 PUSH1 0xA0 SHL SUB AND DUP4 MSTORE PUSH1 0x1 SWAP5 DUP6 ADD SWAP5 DUP8 SWAP5 POP PUSH1 0x20 SWAP1 SWAP4 ADD SWAP3 ADD PUSH2 0x1E91 JUMP JUMPDEST ISZERO PUSH2 0x1ED1 JUMPI JUMP JUMPDEST PUSH1 0x64 PUSH1 0x40 MLOAD PUSH3 0x461BCD PUSH1 0xE5 SHL DUP2 MSTORE PUSH1 0x20 PUSH1 0x4 DUP3 ADD MSTORE PUSH1 0x20 PUSH1 0x24 DUP3 ADD MSTORE PUSH32 0x546F75726E616D656E743A2063616C6C6572206973206E6F7420736572766572 PUSH1 0x44 DUP3 ADD MSTORE REVERT JUMPDEST ISZERO PUSH2 0x1F1C JUMPI JUMP JUMPDEST PUSH1 0x40 MLOAD PUSH3 0x461BCD PUSH1 0xE5 SHL DUP2 MSTORE PUSH1 0x20 PUSH1 0x4 DUP3 ADD MSTORE PUSH1 0x1A PUSH1 0x24 DUP3 ADD MSTORE PUSH32 0x546F75726E616D656E743A20646F6573206E6F74206578697374000000000000 PUSH1 0x44 DUP3 ADD MSTORE PUSH1 0x64 SWAP1 REVERT JUMPDEST RETURNDATASIZE ISZERO PUSH2 0x1F9B JUMPI RETURNDATASIZE SWAP1 PUSH8 0xFFFFFFFFFFFFFFFF DUP3 GT PUSH2 0x355 JUMPI PUSH1 0x40 MLOAD SWAP2 PUSH2 0x1F90 PUSH1 0x1F DUP3 ADD PUSH1 0x1F NOT AND PUSH1 0x20 ADD DUP5 PUSH2 0x1E11 JUMP JUMPDEST DUP3 MSTORE RETURNDATASIZE PUSH0 PUSH1 0x20 DUP5 ADD RETURNDATACOPY JUMP JUMPDEST PUSH1 0x60 SWAP1 JUMP JUMPDEST ISZERO PUSH2 0x1FA7 JUMPI JUMP JUMPDEST PUSH1 0x40 MLOAD PUSH3 0x461BCD PUSH1 0xE5 SHL DUP2 MSTORE PUSH1 0x20 PUSH1 0x4 DUP3 ADD MSTORE PUSH1 0x19 PUSH1 0x24 DUP3 ADD MSTORE PUSH32 0x546F75726E616D656E743A20726566756E64206661696C656400000000000000 PUSH1 0x44 DUP3 ADD MSTORE PUSH1 0x64 SWAP1 REVERT JUMPDEST ISZERO PUSH2 0x1FF3 JUMPI JUMP JUMPDEST PUSH1 0x40 MLOAD PUSH3 0x461BCD PUSH1 0xE5 SHL DUP2 MSTORE PUSH1 0x20 PUSH1 0x4 DUP3 ADD MSTORE PUSH1 0x17 PUSH1 0x24 DUP3 ADD MSTORE PUSH32 0x546F75726E616D656E743A206E6F742077616974696E67000000000000000000 PUSH1 0x44 DUP3 ADD MSTORE PUSH1 0x64 SWAP1 REVERT JUMPDEST SWAP2 SWAP1 DUP3 SUB SWAP2 DUP3 GT PUSH2 0x12C3 JUMPI JUMP JUMPDEST CALLDATALOAD PUSH1 0x1 PUSH1 0x1 PUSH1 0xA0 SHL SUB DUP2 AND DUP2 SUB PUSH2 0x1A4 JUMPI SWAP1 JUMP JUMPDEST PUSH0 MSTORE PUSH1 0x6 PUSH1 0x20 MSTORE PUSH1 0x40 PUSH0 KECCAK256 SWAP1 PUSH1 0x2 PUSH0 SWAP3 ADD SWAP1 DUP2 SLOAD SWAP3 JUMPDEST DUP4 DUP2 LT PUSH2 0x207C JUMPI POP POP POP SWAP1 JUMP JUMPDEST PUSH2 0x2086 DUP2 DUP5 PUSH2 0x1D76 JUMP JUMPDEST SWAP1 SLOAD PUSH1 0x3 SWAP2 SWAP1 SWAP2 SHL SHR PUSH1 0x1 PUSH1 0x1 PUSH1 0xA0 SHL SUB SWAP1 DUP2 AND SWAP1 DUP4 AND EQ PUSH2 0x20AA JUMPI PUSH1 0x1 ADD PUSH2 0x206F JUMP JUMPDEST SWAP3 POP POP POP SWAP1 JUMP JUMPDEST PUSH1 0x1 SLOAD PUSH1 0x1 PUSH1 0x1 PUSH1 0xA0 SHL SUB AND CALLER SUB PUSH2 0x20C5 JUMPI JUMP JUMPDEST PUSH1 0x64 PUSH1 0x40 MLOAD PUSH3 0x461BCD PUSH1 0xE5 SHL DUP2 MSTORE PUSH1 0x20 PUSH1 0x4 DUP3 ADD MSTORE PUSH1 0x20 PUSH1 0x24 DUP3 ADD MSTORE PUSH32 0x4F776E61626C653A2063616C6C6572206973206E6F7420746865206F776E6572 PUSH1 0x44 DUP3 ADD MSTORE REVERT JUMPDEST PUSH1 0x2 PUSH0 SLOAD EQ PUSH2 0x2118 JUMPI PUSH1 0x2 PUSH0 SSTORE JUMP JUMPDEST PUSH1 0x40 MLOAD PUSH3 0x461BCD PUSH1 0xE5 SHL DUP2 MSTORE PUSH1 0x20 PUSH1 0x4 DUP3 ADD MSTORE PUSH1 0x1F PUSH1 0x24 DUP3 ADD MSTORE PUSH32 0x5265656E7472616E637947756172643A207265656E7472616E742063616C6C00 PUSH1 0x44 DUP3 ADD MSTORE PUSH1 0x64 SWAP1 REVERT JUMPDEST PUSH1 0xFF PUSH1 0x1 SLOAD PUSH1 0xA0 SHR AND PUSH2 0x216C JUMPI JUMP JUMPDEST PUSH1 0x40 MLOAD PUSH3 0x461BCD PUSH1 0xE5 SHL DUP2 MSTORE PUSH1 0x20 PUSH1 0x4 DUP3 ADD MSTORE PUSH1 0x10 PUSH1 0x24 DUP3 ADD MSTORE PUSH16 0x14185D5CD8589B194E881C185D5CD959 PUSH1 0x82 SHL PUSH1 0x44 DUP3 ADD MSTORE PUSH1 0x64 SWAP1 REVERT INVALID LOG2 PUSH5 0x6970667358 0x22 SLT KECCAK256 CODECOPY DUP3 JUMPI 0xC7 0xD9 JUMPDEST 0x22 0xD5 GAS EXTCODESIZE 0xC8 DUP7 0xD2 LOG2 0xE5 PUSH30 0xA712B75428FFB8BC592719E7422E578C64736F6C634300081B0033000000 "},"methodIdentifiers":{"activeTournaments(uint256)":"c4415446","cancelJoin(uint256)":"4a88fd43","cancelTournament(uint256)":"32432233","chipToken()":"3b61403c","claimPrize(uint256)":"d7098154","configs(uint256)":"0098fa22","createTournament(uint256)":"dd20a53e","createTournamentConfig(uint8,uint8,uint256,uint256,uint256[],uint256,uint8,uint256)":"1372fe8f","emergencyWithdraw()":"db2e21bc","findPlayerIndex(uint256,address)":"7a99aca4","finishTournament(uint256,address[])":"56eafcc0","getActiveTournaments()":"692734fe","getPlayerPrize(uint256,address)":"464899ba","getTournamentConfig(uint256)":"3fbe4918","getTournamentInfo(uint256)":"cac766d2","getTournamentPlayers(uint256)":"26f7519a","hasPlayerJoined(uint256,address)":"07286e2f","joinTournament(uint256)":"d115cac6","owner()":"8da5cb5b","pause()":"8456cb59","paused()":"5c975abb","playerCurrentTournament(address)":"f780210b","renounceOwnership()":"715018a6","serverWallet()":"1a59f0f0","setChipToken(address)":"37ada345","setServerWallet(address)":"d706ab3c","startTournament(uint256)":"651ea943","tournamentCounter()":"73ed5c1c","tournaments(uint256)":"7503e1b7","transferOwnership(address)":"f2fde38b","unpause()":"3f4ba83a"}}}}}