{"contracts/Governance.sol":{"Governance":{"abi":[{"inputs":[{"internalType":"address","name":"_chipToken","type":"address"},{"internalType":"uint256","name":"_votingPeriod","type":"uint256"},{"internalType":"uint256","name":"_proposalThreshold","type":"uint256"},{"internalType":"uint256","name":"_quorumNumerator","type":"uint256"}],"stateMutability":"nonpayable","type":"constructor"},{"anonymous":false,"inputs":[{"indexed":true,"internalType":"address","name":"previousOwner","type":"address"},{"indexed":true,"internalType":"address","name":"newOwner","type":"address"}],"name":"OwnershipTransferred","type":"event"},{"anonymous":false,"inputs":[{"indexed":false,"internalType":"address","name":"account","type":"address"}],"name":"Paused","type":"event"},{"anonymous":false,"inputs":[{"indexed":true,"internalType":"uint256","name":"proposalId","type":"uint256"},{"indexed":true,"internalType":"address","name":"proposer","type":"address"},{"indexed":false,"internalType":"address","name":"target","type":"address"},{"indexed":false,"internalType":"string","name":"description","type":"string"}],"name":"ProposalCreated","type":"event"},{"anonymous":false,"inputs":[{"indexed":true,"internalType":"uint256","name":"proposalId","type":"uint256"},{"indexed":false,"internalType":"bool","name":"success","type":"bool"}],"name":"ProposalExecuted","type":"event"},{"anonymous":false,"inputs":[{"indexed":true,"internalType":"uint256","name":"proposalId","type":"uint256"},{"indexed":false,"internalType":"enum Governance.ProposalState","name":"newState","type":"uint8"}],"name":"ProposalStateChanged","type":"event"},{"anonymous":false,"inputs":[{"indexed":false,"internalType":"uint256","name":"newThreshold","type":"uint256"}],"name":"ProposalThresholdUpdated","type":"event"},{"anonymous":false,"inputs":[{"indexed":false,"internalType":"address","name":"account","type":"address"}],"name":"Unpaused","type":"event"},{"anonymous":false,"inputs":[{"indexed":true,"internalType":"uint256","name":"proposalId","type":"uint256"},{"indexed":true,"internalType":"address","name":"voter","type":"address"},{"indexed":false,"internalType":"uint8","name":"support","type":"uint8"},{"indexed":false,"internalType":"uint256","name":"weight","type":"uint256"}],"name":"VoteCast","type":"event"},{"anonymous":false,"inputs":[{"indexed":false,"internalType":"uint256","name":"newPeriod","type":"uint256"}],"name":"VotingPeriodUpdated","type":"event"},{"stateMutability":"payable","type":"fallback"},{"inputs":[{"internalType":"uint256","name":"proposalId","type":"uint256"},{"internalType":"uint8","name":"support","type":"uint8"}],"name":"castVote","outputs":[],"stateMutability":"nonpayable","type":"function"},{"inputs":[],"name":"chipToken","outputs":[{"internalType":"contract IERC20","name":"","type":"address"}],"stateMutability":"view","type":"function"},{"inputs":[{"internalType":"address","name":"target","type":"address"},{"internalType":"bytes","name":"callData","type":"bytes"},{"internalType":"string","name":"description","type":"string"}],"name":"createProposal","outputs":[{"internalType":"uint256","name":"","type":"uint256"}],"stateMutability":"nonpayable","type":"function"},{"inputs":[{"internalType":"uint256","name":"proposalId","type":"uint256"}],"name":"executeProposal","outputs":[{"internalType":"bool","name":"","type":"bool"}],"stateMutability":"nonpayable","type":"function"},{"inputs":[],"name":"getActiveProposals","outputs":[{"internalType":"uint256[]","name":"","type":"uint256[]"}],"stateMutability":"view","type":"function"},{"inputs":[{"internalType":"uint256","name":"proposalId","type":"uint256"}],"name":"getProposal","outputs":[{"internalType":"uint256","name":"id","type":"uint256"},{"internalType":"address","name":"proposer","type":"address"},{"internalType":"address","name":"target","type":"address"},{"internalType":"string","name":"description","type":"string"},{"internalType":"uint256","name":"forVotes","type":"uint256"},{"internalType":"uint256","name":"againstVotes","type":"uint256"},{"internalType":"uint256","name":"abstainVotes","type":"uint256"},{"internalType":"enum Governance.ProposalState","name":"state","type":"uint8"},{"internalType":"bool","name":"executed","type":"bool"}],"stateMutability":"view","type":"function"},{"inputs":[{"internalType":"uint256","name":"proposalId","type":"uint256"}],"name":"getProposalState","outputs":[{"internalType":"enum Governance.ProposalState","name":"","type":"uint8"}],"stateMutability":"view","type":"function"},{"inputs":[{"internalType":"uint256","name":"proposalId","type":"uint256"},{"internalType":"address","name":"voter","type":"address"}],"name":"getVote","outputs":[{"internalType":"bool","name":"","type":"bool"},{"internalType":"uint256","name":"","type":"uint256"}],"stateMutability":"view","type":"function"},{"inputs":[{"internalType":"uint256","name":"","type":"uint256"},{"internalType":"address","name":"","type":"address"}],"name":"hasVoted","outputs":[{"internalType":"bool","name":"","type":"bool"}],"stateMutability":"view","type":"function"},{"inputs":[],"name":"owner","outputs":[{"internalType":"address","name":"","type":"address"}],"stateMutability":"view","type":"function"},{"inputs":[],"name":"pause","outputs":[],"stateMutability":"nonpayable","type":"function"},{"inputs":[],"name":"paused","outputs":[{"internalType":"bool","name":"","type":"bool"}],"stateMutability":"view","type":"function"},{"inputs":[],"name":"proposalCount","outputs":[{"internalType":"uint256","name":"","type":"uint256"}],"stateMutability":"view","type":"function"},{"inputs":[],"name":"proposalThreshold","outputs":[{"internalType":"uint256","name":"","type":"uint256"}],"stateMutability":"view","type":"function"},{"inputs":[{"internalType":"uint256","name":"","type":"uint256"}],"name":"proposals","outputs":[{"internalType":"uint256","name":"id","type":"uint256"},{"internalType":"address","name":"proposer","type":"address"},{"internalType":"address","name":"target","type":"address"},{"internalType":"bytes","name":"callData","type":"bytes"},{"internalType":"uint256","name":"startBlock","type":"uint256"},{"internalType":"uint256","name":"endBlock","type":"uint256"},{"internalType":"uint256","name":"forVotes","type":"uint256"},{"internalType":"uint256","name":"againstVotes","type":"uint256"},{"internalType":"uint256","name":"abstainVotes","type":"uint256"},{"internalType":"uint256","name":"quorumVotes","type":"uint256"},{"internalType":"bool","name":"executed","type":"bool"},{"internalType":"string","name":"description","type":"string"},{"internalType":"enum Governance.ProposalState","name":"state","type":"uint8"}],"stateMutability":"view","type":"function"},{"inputs":[],"name":"quorum","outputs":[{"internalType":"uint256","name":"","type":"uint256"}],"stateMutability":"view","type":"function"},{"inputs":[],"name":"quorumNumerator","outputs":[{"internalType":"uint256","name":"","type":"uint256"}],"stateMutability":"view","type":"function"},{"inputs":[],"name":"renounceOwnership","outputs":[],"stateMutability":"nonpayable","type":"function"},{"inputs":[{"internalType":"uint256","name":"_threshold","type":"uint256"}],"name":"setProposalThreshold","outputs":[],"stateMutability":"nonpayable","type":"function"},{"inputs":[{"internalType":"uint256","name":"_quorumNumerator","type":"uint256"}],"name":"setQuorumNumerator","outputs":[],"stateMutability":"nonpayable","type":"function"},{"inputs":[{"internalType":"uint256","name":"_votingPeriod","type":"uint256"}],"name":"setVotingPeriod","outputs":[],"stateMutability":"nonpayable","type":"function"},{"inputs":[{"internalType":"address","name":"newOwner","type":"address"}],"name":"transferOwnership","outputs":[],"stateMutability":"nonpayable","type":"function"},{"inputs":[],"name":"unpause","outputs":[],"stateMutability":"nonpayable","type":"function"},{"inputs":[{"internalType":"uint256","name":"proposalId","type":"uint256"}],"name":"updateProposalState","outputs":[],"stateMutability":"nonpayable","type":"function"},{"inputs":[{"internalType":"uint256","name":"","type":"uint256"},{"internalType":"address","name":"","type":"address"}],"name":"votes","outputs":[{"internalType":"uint256","name":"","type":"uint256"}],"stateMutability":"view","type":"function"},{"inputs":[],"name":"votingPeriod","outputs":[{"internalType":"uint256","name":"","type":"uint256"}],"stateMutability":"view","type":"function"},{"stateMutability":"payable","type":"receive"}],"evm":{"bytecode":{"linkReferences":{},"object":"60803461012157601f611a8738819003918201601f19168301916001600160401b03831184841017610125578084926080946040528339810103126101215780516001600160a01b038116919082900361012157602081015160606040830151920151925f54604051903360018060a01b0382167f8be0079c531659141344cd1fd0a4f28419497f9722a3daafe3b4186f6b6457e05f80a36001600160a81b0319163360ff60a01b1916175f5581156100df5750600180546001600160a01b03191691909117905560025560035560045560405161194d908161013a8239f35b62461bcd60e51b815260206004820152601960248201527f476f7665726e616e63653a20696e76616c696420746f6b656e000000000000006044820152606490fd5b5f80fd5b634e487b7160e01b5f52604160045260245ffdfe6080806040526004361015610011575b005b5f3560e01c908163013cf08b146112ab5750806302a251a31461128e5780630d61b5191461105b5780631703a01814610fc85780633b61403c14610fa05780633f4ba83a14610f075780634385963214610ebe5780635584c4f914610de75780635678138814610b195780635c975abb14610af557806364bd0cb2146106655780636ac600c714610649578063715018a6146105f2578063737594ce146105835780638456cb59146105235780638da5cb5b146104fc5780639080936f146104cf578063a7713a70146104b2578063b58131b014610495578063bc3f931f1461042c578063c7f758a81461035f578063d23254b41461031b578063da35c664146102fe578063ea0217cf1461024d578063ece40cc1146102015763f2fde38b1461013757005b346101fd5760203660031901126101fd576101506114ec565b61015861169e565b6001600160a01b031680156101a9575f80546001600160a01b03198116831782556001600160a01b0316907f8be0079c531659141344cd1fd0a4f28419497f9722a3daafe3b4186f6b6457e09080a3005b60405162461bcd60e51b815260206004820152602660248201527f4f776e61626c653a206e6577206f776e657220697320746865207a65726f206160448201526564647265737360d01b6064820152608490fd5b5f80fd5b346101fd5760203660031901126101fd577f75176781f69c55e26fee85d480452b0b9038b9428704bb7b232fc1c638bbf803602060043561024061169e565b80600355604051908152a1005b346101fd5760203660031901126101fd5760043561026961169e565b62015180811015806102f1575b156102ac576020817f651c77f42613a075437aa794c44471e3abc3a661956a67aaee165bb7396974aa92600255604051908152a1005b60405162461bcd60e51b815260206004820152601a60248201527f476f7665726e616e63653a20696e76616c696420706572696f640000000000006044820152606490fd5b5062127500811115610276565b346101fd575f3660031901126101fd576020600554604051908152f35b346101fd5760403660031901126101fd576103346114d6565b6004355f52600860205260405f209060018060a01b03165f52602052602060405f2054604051908152f35b346101fd5760203660031901126101fd576004355f52600660205260405f20805460018060a01b036001830154169160018060a01b03600282015416906104206006820154926007830154600884015490610406600b60ff600c88015416946103e160ff600a8a015416986103da6040518095819301611402565b0383611483565b6040519a8b9a8b5260208b015260408a015261012060608a01526101208901906114a5565b95608088015260a087015260c086015260e08501906114c9565b15156101008301520390f35b346101fd5760403660031901126101fd57604060043561044a6114d6565b815f526007602052825f2060018060a01b0382165f5260205260ff835f205416915f526008602052825f209060018060a01b03165f52602052815f2054825191151582526020820152f35b346101fd575f3660031901126101fd576020600354604051908152f35b346101fd575f3660031901126101fd576020600454604051908152f35b346101fd5760203660031901126101fd5760206104ed600435611603565b6104fa60405180926114c9565bf35b346101fd575f3660031901126101fd575f546040516001600160a01b039091168152602090f35b346101fd575f3660031901126101fd5761053b61169e565b610543611658565b5f805460ff60a01b1916600160a01b1790556040513381527f62e78cea01bee320cd4e420270b5ea74000d11b0c9f74754ebdbfc544b05a25890602090a1005b346101fd5760203660031901126101fd5760043561059f61169e565b6101f481116105ad57600455005b60405162461bcd60e51b815260206004820152601b60248201527f476f7665726e616e63653a2071756f72756d20746f6f206869676800000000006044820152606490fd5b346101fd575f3660031901126101fd5761060a61169e565b5f80546001600160a01b0319811682556001600160a01b03167f8be0079c531659141344cd1fd0a4f28419497f9722a3daafe3b4186f6b6457e08280a3005b346101fd5760203660031901126101fd5761000f6004356116f5565b346101fd5760603660031901126101fd5761067e6114ec565b60243567ffffffffffffffff81116101fd5761069e903690600401611502565b9160443567ffffffffffffffff81116101fd576106bf903690600401611502565b916106c8611658565b6001600160a01b0316938415610ab0576001546040516370a0823160e01b815233600482015290602090829060249082906001600160a01b03165afa908115610929575f91610a7e575b5060035411610a39576005545f198114610a2557600190810160058190555f81815260066020526040902081815591820180546001600160a01b0319908116331790915560028301805490911688179055949091600383019167ffffffffffffffff82116109a25761078e8261078885546113ca565b856115b4565b5f90601f83116001146109c1576107bc92915f91836109b6575b50508160011b915f199060031b1c19161790565b90555b600b810167ffffffffffffffff84116109a2576107e6846107e083546113ca565b836115b4565b5f84601f811160011461093f5780610812925f91610934575b508160011b915f199060031b1c19161790565b90555b43600482015561082a600360025404436115a7565b6005820155600c8101805460ff19166001908117909155546040516318160ddd60e01b815290602090829060049082906001600160a01b03165afa908115610929575f916108f5575b50948385937fbf0fcd54b591a07a1943cf5eaf6fdd64e31bc7b4c469e9ba81fb00e21fd859f59360096103e86108ae60209b6004549061157c565b049101556108bb856118c2565b5060405192835260408884015281604084015260608301375f606085830101526060813395601f80199101168101030190a3604051908152f35b9590506020863d602011610921575b8161091160209383611483565b810103126101fd57945183610873565b3d9150610904565b6040513d5f823e3d90fd5b9050850135896107ff565b50601f19851690825f528560205f20925f5b81811061098757501061096e575b5050600184811b019055610815565b8401355f19600387901b60f8161c19169055868061095f565b87840135855560019094019360209384019389935001610951565b634e487b7160e01b5f52604160045260245ffd5b0135905089806107a8565b601f19831691845f5260205f20925f5b818110610a0d57509084600195949392106109f4575b505050811b0190556107bf565b01355f19600384901b60f8161c191690558880806109e7565b919360206001819287870135815501950192016109d1565b634e487b7160e01b5f52601160045260245ffd5b60405162461bcd60e51b815260206004820152601b60248201527f476f7665726e616e63653a2062656c6f77207468726573686f6c6400000000006044820152606490fd5b90506020813d602011610aa8575b81610a9960209383611483565b810103126101fd575186610712565b3d9150610a8c565b60405162461bcd60e51b815260206004820152601a60248201527f476f7665726e616e63653a20696e76616c6964207461726765740000000000006044820152606490fd5b346101fd575f3660031901126101fd57602060ff5f5460a01c166040519015158152f35b346101fd5760403660031901126101fd576004356024359060ff82168092036101fd57610b44611658565b805f52600660205260405f2091610b5d83541515611530565b60ff600c840154166006811015610dd357600103610d95575f82815260076020908152604080832033845290915290205460ff16610d505760028111610d0b576001546040516370a0823160e01b815233600482015290602090829060249082906001600160a01b03165afa908115610929575f91610cd9575b508015610c94575f83815260076020908152604080832033808552908352818420805460ff1916600117905586845260088352818420908452909152902082905561000f935f198301610c6c57600601610c328282546115a7565b90555b6040519182526020820152817fb83d25c6a5d258561330739951487acb4bd09ba5190b5d32c4f261817d90679260403393a36116f5565b82610c8657600701610c7f8282546115a7565b9055610c35565b600801610c7f8282546115a7565b60405162461bcd60e51b815260206004820152601b60248201527f476f7665726e616e63653a206e6f20766f74696e6720706f77657200000000006044820152606490fd5b90506020813d602011610d03575b81610cf460209383611483565b810103126101fd575184610bd7565b3d9150610ce7565b60405162461bcd60e51b815260206004820152601860248201527f476f7665726e616e63653a20696e76616c696420766f746500000000000000006044820152606490fd5b60405162461bcd60e51b815260206004820152601960248201527f476f7665726e616e63653a20616c726561647920766f746564000000000000006044820152606490fd5b60405162461bcd60e51b8152602060048201526016602482015275476f7665726e616e63653a206e6f742061637469766560501b6044820152606490fd5b634e487b7160e01b5f52602160045260245ffd5b346101fd575f3660031901126101fd57600954610e038161158f565b90610e116040519283611483565b808252610e1d8161158f565b602083019190601f19013683376009545f5b828110610e7a578385604051918291602083019060208452518091526040830191905f5b818110610e61575050500390f35b8251845285945060209384019390920191600101610e53565b81811015610eaa5760095f528060205f200154908551811015610eaa5760019160208260051b8801015201610e2f565b634e487b7160e01b5f52603260045260245ffd5b346101fd5760403660031901126101fd57610ed76114d6565b6004355f52600760205260405f209060018060a01b03165f52602052602060ff60405f2054166040519015158152f35b346101fd575f3660031901126101fd57610f1f61169e565b5f5460ff8160a01c1615610f645760ff60a01b19165f556040513381527f5db9ee0a495bf2e6ff9c91a7834c1ba4fdd244a5e8aa4e537bd38aeae4b073aa90602090a1005b60405162461bcd60e51b815260206004820152601460248201527314185d5cd8589b194e881b9bdd081c185d5cd95960621b6044820152606490fd5b346101fd575f3660031901126101fd576001546040516001600160a01b039091168152602090f35b346101fd575f3660031901126101fd576001546040516318160ddd60e01b815290602090829060049082906001600160a01b03165afa908115610929575f91611027575b60206103e861101e846004549061157c565b04604051908152f35b90506020813d602011611053575b8161104260209383611483565b810103126101fd57516103e861100c565b3d9150611035565b346101fd5760203660031901126101fd57600435611077611658565b805f52600660205260405f2061108f81541515611530565b600c810160ff8154166006811015610dd35760020361124957600a8201805460ff81166112045760ff1990811660011790915581541660041790556110d3826117e7565b50600360018060a01b036002830154169101604051905f908054906110f7826113ca565b91600181169081156111ed57506001146111bb575b505091815f809493819403925af13d156111b3573d9167ffffffffffffffff83116109a25760405160209361114a601f8201601f1916860183611483565b81525f843d92013e5b807f948f4a9cd986f1118c3fbd459f7a22b23c0693e1ca3ef06a6a8be5aa7d39cc038460405194151594858152a27fd6b3a81dd8b7dc419d8d0f20797397ea2eaba914386b89898aa638438803a1ec8360405160048152a2604051908152f35b602091611153565b9091505f5260205f205f905b8282106111d95750508101815f61110c565b6001816020925484870152019101906111c7565b60ff1916855250508015150282019050815f61110c565b60405162461bcd60e51b815260206004820152601c60248201527f476f7665726e616e63653a20616c7265616479206578656375746564000000006044820152606490fd5b60405162461bcd60e51b815260206004820152601960248201527f476f7665726e616e63653a206e6f7420737563636565646564000000000000006044820152606490fd5b346101fd575f3660031901126101fd576020600254604051908152f35b346101fd5760203660031901126101fd576004355f9081526006602052604090208054600182015460028301546001600160a01b03918216949293911691806112f78160038501611402565b036113029082611483565b600482015490600583015460068401546007850154600886015491600987015493600a88015460ff1695604051988980600b83019061134091611402565b0361134b908b611483565b600c015460ff16996040519c8d9c8d5260208d015260408c015260608b016101a090526101a08b0161137c916114a5565b9660808b015260a08a015260c089015260e088015261010087015261012086015215156101408501528381036101608501526113b7916114a5565b9061018083016113c6916114c9565b0390f35b90600182811c921680156113f8575b60208310146113e457565b634e487b7160e01b5f52602260045260245ffd5b91607f16916113d9565b5f9291815491611411836113ca565b8083529260018116908115611466575060011461142d57505050565b5f9081526020812093945091925b83831061144c575060209250010190565b60018160209294939454838587010152019101919061143b565b915050602093945060ff929192191683830152151560051b010190565b90601f8019910116810190811067ffffffffffffffff8211176109a257604052565b805180835260209291819084018484015e5f828201840152601f01601f1916010190565b906006821015610dd35752565b602435906001600160a01b03821682036101fd57565b600435906001600160a01b03821682036101fd57565b9181601f840112156101fd5782359167ffffffffffffffff83116101fd57602083818601950101116101fd57565b1561153757565b60405162461bcd60e51b815260206004820152601e60248201527f476f7665726e616e63653a2070726f706f73616c206e6f7420666f756e6400006044820152606490fd5b81810292918115918404141715610a2557565b67ffffffffffffffff81116109a25760051b60200190565b91908201809211610a2557565b601f82116115c157505050565b5f5260205f20906020601f840160051c830193106115f9575b601f0160051c01905b8181106115ee575050565b5f81556001016115e3565b90915081906115da565b5f52600660205260405f208054156116535760ff600c82015416906006821015610dd35760028214611633575090565b60050154620313808101809111610a2557431161164d5790565b50600590565b505f90565b60ff5f5460a01c1661166657565b60405162461bcd60e51b815260206004820152601060248201526f14185d5cd8589b194e881c185d5cd95960821b6044820152606490fd5b5f546001600160a01b031633036116b157565b606460405162461bcd60e51b815260206004820152602060248201527f4f776e61626c653a2063616c6c6572206973206e6f7420746865206f776e65726044820152fd5b805f52600660205260405f20600c810160ff8154166006811015610dd3576001036117cd57600582015443101561172b57505050565b60ff6020918360067fd6b3a81dd8b7dc419d8d0f20797397ea2eaba914386b89898aa638438803a1ec950154600782015491600961177761176c85856115a7565b6008840154906115a7565b91015411156117a9575050600382198254161781555b611796856117e7565b5054166117a660405180926114c9565ba2565b11156117be576002821982541617815561178d565b6003821982541617815561178d565b505050565b8054821015610eaa575f5260205f2001905f90565b5f818152600a602052604090205480156118bc575f198101818111610a25576009545f19810191908211610a255780820361186e575b505050600954801561185a575f19016118378160096117d2565b8154905f199060031b1b191690556009555f52600a6020525f6040812055600190565b634e487b7160e01b5f52603160045260245ffd5b6118a661187f6118909360096117d2565b90549060031b1c92839260096117d2565b819391549060031b91821b915f19901b19161790565b90555f52600a60205260405f20555f808061181d565b50505f90565b805f52600a60205260405f2054155f1461165357600954680100000000000000008110156109a25761190061189082600185940160095560096117d2565b9055600954905f52600a60205260405f205560019056fea2646970667358221220ace1213995152bdc52120ba808b511fdb0d1c52b529d476a6cde8a8f3b473a5b64736f6c634300081b0033","opcodes":"PUSH1 0x80 CALLVALUE PUSH2 0x121 JUMPI PUSH1 0x1F PUSH2 0x1A87 CODESIZE DUP2 SWAP1 SUB SWAP2 DUP3 ADD PUSH1 0x1F NOT AND DUP4 ADD SWAP2 PUSH1 0x1 PUSH1 0x1 PUSH1 0x40 SHL SUB DUP4 GT DUP5 DUP5 LT OR PUSH2 0x125 JUMPI DUP1 DUP5 SWAP3 PUSH1 0x80 SWAP5 PUSH1 0x40 MSTORE DUP4 CODECOPY DUP2 ADD SUB SLT PUSH2 0x121 JUMPI DUP1 MLOAD PUSH1 0x1 PUSH1 0x1 PUSH1 0xA0 SHL SUB DUP2 AND SWAP2 SWAP1 DUP3 SWAP1 SUB PUSH2 0x121 JUMPI PUSH1 0x20 DUP2 ADD MLOAD PUSH1 0x60 PUSH1 0x40 DUP4 ADD MLOAD SWAP3 ADD MLOAD SWAP3 PUSH0 SLOAD PUSH1 0x40 MLOAD SWAP1 CALLER PUSH1 0x1 DUP1 PUSH1 0xA0 SHL SUB DUP3 AND PUSH32 0x8BE0079C531659141344CD1FD0A4F28419497F9722A3DAAFE3B4186F6B6457E0 PUSH0 DUP1 LOG3 PUSH1 0x1 PUSH1 0x1 PUSH1 0xA8 SHL SUB NOT AND CALLER PUSH1 0xFF PUSH1 0xA0 SHL NOT AND OR PUSH0 SSTORE DUP2 ISZERO PUSH2 0xDF JUMPI POP PUSH1 0x1 DUP1 SLOAD PUSH1 0x1 PUSH1 0x1 PUSH1 0xA0 SHL SUB NOT AND SWAP2 SWAP1 SWAP2 OR SWAP1 SSTORE PUSH1 0x2 SSTORE PUSH1 0x3 SSTORE PUSH1 0x4 SSTORE PUSH1 0x40 MLOAD PUSH2 0x194D SWAP1 DUP2 PUSH2 0x13A DUP3 CODECOPY RETURN JUMPDEST PUSH3 0x461BCD PUSH1 0xE5 SHL DUP2 MSTORE PUSH1 0x20 PUSH1 0x4 DUP3 ADD MSTORE PUSH1 0x19 PUSH1 0x24 DUP3 ADD MSTORE PUSH32 0x476F7665726E616E63653A20696E76616C696420746F6B656E00000000000000 PUSH1 0x44 DUP3 ADD MSTORE PUSH1 0x64 SWAP1 REVERT JUMPDEST PUSH0 DUP1 REVERT JUMPDEST PUSH4 0x4E487B71 PUSH1 0xE0 SHL PUSH0 MSTORE PUSH1 0x41 PUSH1 0x4 MSTORE PUSH1 0x24 PUSH0 REVERT INVALID PUSH1 0x80 DUP1 PUSH1 0x40 MSTORE PUSH1 0x4 CALLDATASIZE LT ISZERO PUSH2 0x11 JUMPI JUMPDEST STOP JUMPDEST PUSH0 CALLDATALOAD PUSH1 0xE0 SHR SWAP1 DUP2 PUSH4 0x13CF08B EQ PUSH2 0x12AB JUMPI POP DUP1 PUSH4 0x2A251A3 EQ PUSH2 0x128E JUMPI DUP1 PUSH4 0xD61B519 EQ PUSH2 0x105B JUMPI DUP1 PUSH4 0x1703A018 EQ PUSH2 0xFC8 JUMPI DUP1 PUSH4 0x3B61403C EQ PUSH2 0xFA0 JUMPI DUP1 PUSH4 0x3F4BA83A EQ PUSH2 0xF07 JUMPI DUP1 PUSH4 0x43859632 EQ PUSH2 0xEBE JUMPI DUP1 PUSH4 0x5584C4F9 EQ PUSH2 0xDE7 JUMPI DUP1 PUSH4 0x56781388 EQ PUSH2 0xB19 JUMPI DUP1 PUSH4 0x5C975ABB EQ PUSH2 0xAF5 JUMPI DUP1 PUSH4 0x64BD0CB2 EQ PUSH2 0x665 JUMPI DUP1 PUSH4 0x6AC600C7 EQ PUSH2 0x649 JUMPI DUP1 PUSH4 0x715018A6 EQ PUSH2 0x5F2 JUMPI DUP1 PUSH4 0x737594CE EQ PUSH2 0x583 JUMPI DUP1 PUSH4 0x8456CB59 EQ PUSH2 0x523 JUMPI DUP1 PUSH4 0x8DA5CB5B EQ PUSH2 0x4FC JUMPI DUP1 PUSH4 0x9080936F EQ PUSH2 0x4CF JUMPI DUP1 PUSH4 0xA7713A70 EQ PUSH2 0x4B2 JUMPI DUP1 PUSH4 0xB58131B0 EQ PUSH2 0x495 JUMPI DUP1 PUSH4 0xBC3F931F EQ PUSH2 0x42C JUMPI DUP1 PUSH4 0xC7F758A8 EQ PUSH2 0x35F JUMPI DUP1 PUSH4 0xD23254B4 EQ PUSH2 0x31B JUMPI DUP1 PUSH4 0xDA35C664 EQ PUSH2 0x2FE JUMPI DUP1 PUSH4 0xEA0217CF EQ PUSH2 0x24D JUMPI DUP1 PUSH4 0xECE40CC1 EQ PUSH2 0x201 JUMPI PUSH4 0xF2FDE38B EQ PUSH2 0x137 JUMPI STOP JUMPDEST CALLVALUE PUSH2 0x1FD JUMPI PUSH1 0x20 CALLDATASIZE PUSH1 0x3 NOT ADD SLT PUSH2 0x1FD JUMPI PUSH2 0x150 PUSH2 0x14EC JUMP JUMPDEST PUSH2 0x158 PUSH2 0x169E JUMP JUMPDEST PUSH1 0x1 PUSH1 0x1 PUSH1 0xA0 SHL SUB AND DUP1 ISZERO PUSH2 0x1A9 JUMPI PUSH0 DUP1 SLOAD PUSH1 0x1 PUSH1 0x1 PUSH1 0xA0 SHL SUB NOT DUP2 AND DUP4 OR DUP3 SSTORE PUSH1 0x1 PUSH1 0x1 PUSH1 0xA0 SHL SUB AND SWAP1 PUSH32 0x8BE0079C531659141344CD1FD0A4F28419497F9722A3DAAFE3B4186F6B6457E0 SWAP1 DUP1 LOG3 STOP JUMPDEST PUSH1 0x40 MLOAD PUSH3 0x461BCD PUSH1 0xE5 SHL DUP2 MSTORE PUSH1 0x20 PUSH1 0x4 DUP3 ADD MSTORE PUSH1 0x26 PUSH1 0x24 DUP3 ADD MSTORE PUSH32 0x4F776E61626C653A206E6577206F776E657220697320746865207A65726F2061 PUSH1 0x44 DUP3 ADD MSTORE PUSH6 0x646472657373 PUSH1 0xD0 SHL PUSH1 0x64 DUP3 ADD MSTORE PUSH1 0x84 SWAP1 REVERT JUMPDEST PUSH0 DUP1 REVERT JUMPDEST CALLVALUE PUSH2 0x1FD JUMPI PUSH1 0x20 CALLDATASIZE PUSH1 0x3 NOT ADD SLT PUSH2 0x1FD JUMPI PUSH32 0x75176781F69C55E26FEE85D480452B0B9038B9428704BB7B232FC1C638BBF803 PUSH1 0x20 PUSH1 0x4 CALLDATALOAD PUSH2 0x240 PUSH2 0x169E JUMP JUMPDEST DUP1 PUSH1 0x3 SSTORE PUSH1 0x40 MLOAD SWAP1 DUP2 MSTORE LOG1 STOP JUMPDEST CALLVALUE PUSH2 0x1FD JUMPI PUSH1 0x20 CALLDATASIZE PUSH1 0x3 NOT ADD SLT PUSH2 0x1FD JUMPI PUSH1 0x4 CALLDATALOAD PUSH2 0x269 PUSH2 0x169E JUMP JUMPDEST PUSH3 0x15180 DUP2 LT ISZERO DUP1 PUSH2 0x2F1 JUMPI JUMPDEST ISZERO PUSH2 0x2AC JUMPI PUSH1 0x20 DUP2 PUSH32 0x651C77F42613A075437AA794C44471E3ABC3A661956A67AAEE165BB7396974AA SWAP3 PUSH1 0x2 SSTORE PUSH1 0x40 MLOAD SWAP1 DUP2 MSTORE LOG1 STOP JUMPDEST PUSH1 0x40 MLOAD PUSH3 0x461BCD PUSH1 0xE5 SHL DUP2 MSTORE PUSH1 0x20 PUSH1 0x4 DUP3 ADD MSTORE PUSH1 0x1A PUSH1 0x24 DUP3 ADD MSTORE PUSH32 0x476F7665726E616E63653A20696E76616C696420706572696F64000000000000 PUSH1 0x44 DUP3 ADD MSTORE PUSH1 0x64 SWAP1 REVERT JUMPDEST POP PUSH3 0x127500 DUP2 GT ISZERO PUSH2 0x276 JUMP JUMPDEST CALLVALUE PUSH2 0x1FD JUMPI PUSH0 CALLDATASIZE PUSH1 0x3 NOT ADD SLT PUSH2 0x1FD JUMPI PUSH1 0x20 PUSH1 0x5 SLOAD PUSH1 0x40 MLOAD SWAP1 DUP2 MSTORE RETURN JUMPDEST CALLVALUE PUSH2 0x1FD JUMPI PUSH1 0x40 CALLDATASIZE PUSH1 0x3 NOT ADD SLT PUSH2 0x1FD JUMPI PUSH2 0x334 PUSH2 0x14D6 JUMP JUMPDEST PUSH1 0x4 CALLDATALOAD PUSH0 MSTORE PUSH1 0x8 PUSH1 0x20 MSTORE PUSH1 0x40 PUSH0 KECCAK256 SWAP1 PUSH1 0x1 DUP1 PUSH1 0xA0 SHL SUB AND PUSH0 MSTORE PUSH1 0x20 MSTORE PUSH1 0x20 PUSH1 0x40 PUSH0 KECCAK256 SLOAD PUSH1 0x40 MLOAD SWAP1 DUP2 MSTORE RETURN JUMPDEST CALLVALUE PUSH2 0x1FD JUMPI PUSH1 0x20 CALLDATASIZE PUSH1 0x3 NOT ADD SLT PUSH2 0x1FD JUMPI PUSH1 0x4 CALLDATALOAD PUSH0 MSTORE PUSH1 0x6 PUSH1 0x20 MSTORE PUSH1 0x40 PUSH0 KECCAK256 DUP1 SLOAD PUSH1 0x1 DUP1 PUSH1 0xA0 SHL SUB PUSH1 0x1 DUP4 ADD SLOAD AND SWAP2 PUSH1 0x1 DUP1 PUSH1 0xA0 SHL SUB PUSH1 0x2 DUP3 ADD SLOAD AND SWAP1 PUSH2 0x420 PUSH1 0x6 DUP3 ADD SLOAD SWAP3 PUSH1 0x7 DUP4 ADD SLOAD PUSH1 0x8 DUP5 ADD SLOAD SWAP1 PUSH2 0x406 PUSH1 0xB PUSH1 0xFF PUSH1 0xC DUP9 ADD SLOAD AND SWAP5 PUSH2 0x3E1 PUSH1 0xFF PUSH1 0xA DUP11 ADD SLOAD AND SWAP9 PUSH2 0x3DA PUSH1 0x40 MLOAD DUP1 SWAP6 DUP2 SWAP4 ADD PUSH2 0x1402 JUMP JUMPDEST SUB DUP4 PUSH2 0x1483 JUMP JUMPDEST PUSH1 0x40 MLOAD SWAP11 DUP12 SWAP11 DUP12 MSTORE PUSH1 0x20 DUP12 ADD MSTORE PUSH1 0x40 DUP11 ADD MSTORE PUSH2 0x120 PUSH1 0x60 DUP11 ADD MSTORE PUSH2 0x120 DUP10 ADD SWAP1 PUSH2 0x14A5 JUMP JUMPDEST SWAP6 PUSH1 0x80 DUP9 ADD MSTORE PUSH1 0xA0 DUP8 ADD MSTORE PUSH1 0xC0 DUP7 ADD MSTORE PUSH1 0xE0 DUP6 ADD SWAP1 PUSH2 0x14C9 JUMP JUMPDEST ISZERO ISZERO PUSH2 0x100 DUP4 ADD MSTORE SUB SWAP1 RETURN JUMPDEST CALLVALUE PUSH2 0x1FD JUMPI PUSH1 0x40 CALLDATASIZE PUSH1 0x3 NOT ADD SLT PUSH2 0x1FD JUMPI PUSH1 0x40 PUSH1 0x4 CALLDATALOAD PUSH2 0x44A PUSH2 0x14D6 JUMP JUMPDEST DUP2 PUSH0 MSTORE PUSH1 0x7 PUSH1 0x20 MSTORE DUP3 PUSH0 KECCAK256 PUSH1 0x1 DUP1 PUSH1 0xA0 SHL SUB DUP3 AND PUSH0 MSTORE PUSH1 0x20 MSTORE PUSH1 0xFF DUP4 PUSH0 KECCAK256 SLOAD AND SWAP2 PUSH0 MSTORE PUSH1 0x8 PUSH1 0x20 MSTORE DUP3 PUSH0 KECCAK256 SWAP1 PUSH1 0x1 DUP1 PUSH1 0xA0 SHL SUB AND PUSH0 MSTORE PUSH1 0x20 MSTORE DUP2 PUSH0 KECCAK256 SLOAD DUP3 MLOAD SWAP2 ISZERO ISZERO DUP3 MSTORE PUSH1 0x20 DUP3 ADD MSTORE RETURN JUMPDEST CALLVALUE PUSH2 0x1FD JUMPI PUSH0 CALLDATASIZE PUSH1 0x3 NOT ADD SLT PUSH2 0x1FD JUMPI PUSH1 0x20 PUSH1 0x3 SLOAD PUSH1 0x40 MLOAD SWAP1 DUP2 MSTORE RETURN JUMPDEST CALLVALUE PUSH2 0x1FD JUMPI PUSH0 CALLDATASIZE PUSH1 0x3 NOT ADD SLT PUSH2 0x1FD JUMPI PUSH1 0x20 PUSH1 0x4 SLOAD PUSH1 0x40 MLOAD SWAP1 DUP2 MSTORE RETURN JUMPDEST CALLVALUE PUSH2 0x1FD JUMPI PUSH1 0x20 CALLDATASIZE PUSH1 0x3 NOT ADD SLT PUSH2 0x1FD JUMPI PUSH1 0x20 PUSH2 0x4ED PUSH1 0x4 CALLDATALOAD PUSH2 0x1603 JUMP JUMPDEST PUSH2 0x4FA PUSH1 0x40 MLOAD DUP1 SWAP3 PUSH2 0x14C9 JUMP JUMPDEST RETURN JUMPDEST CALLVALUE PUSH2 0x1FD JUMPI PUSH0 CALLDATASIZE PUSH1 0x3 NOT ADD SLT PUSH2 0x1FD JUMPI PUSH0 SLOAD PUSH1 0x40 MLOAD PUSH1 0x1 PUSH1 0x1 PUSH1 0xA0 SHL SUB SWAP1 SWAP2 AND DUP2 MSTORE PUSH1 0x20 SWAP1 RETURN JUMPDEST CALLVALUE PUSH2 0x1FD JUMPI PUSH0 CALLDATASIZE PUSH1 0x3 NOT ADD SLT PUSH2 0x1FD JUMPI PUSH2 0x53B PUSH2 0x169E JUMP JUMPDEST PUSH2 0x543 PUSH2 0x1658 JUMP JUMPDEST PUSH0 DUP1 SLOAD PUSH1 0xFF PUSH1 0xA0 SHL NOT AND PUSH1 0x1 PUSH1 0xA0 SHL OR SWAP1 SSTORE PUSH1 0x40 MLOAD CALLER DUP2 MSTORE PUSH32 0x62E78CEA01BEE320CD4E420270B5EA74000D11B0C9F74754EBDBFC544B05A258 SWAP1 PUSH1 0x20 SWAP1 LOG1 STOP JUMPDEST CALLVALUE PUSH2 0x1FD JUMPI PUSH1 0x20 CALLDATASIZE PUSH1 0x3 NOT ADD SLT PUSH2 0x1FD JUMPI PUSH1 0x4 CALLDATALOAD PUSH2 0x59F PUSH2 0x169E JUMP JUMPDEST PUSH2 0x1F4 DUP2 GT PUSH2 0x5AD JUMPI PUSH1 0x4 SSTORE STOP JUMPDEST PUSH1 0x40 MLOAD PUSH3 0x461BCD PUSH1 0xE5 SHL DUP2 MSTORE PUSH1 0x20 PUSH1 0x4 DUP3 ADD MSTORE PUSH1 0x1B PUSH1 0x24 DUP3 ADD MSTORE PUSH32 0x476F7665726E616E63653A2071756F72756D20746F6F20686967680000000000 PUSH1 0x44 DUP3 ADD MSTORE PUSH1 0x64 SWAP1 REVERT JUMPDEST CALLVALUE PUSH2 0x1FD JUMPI PUSH0 CALLDATASIZE PUSH1 0x3 NOT ADD SLT PUSH2 0x1FD JUMPI PUSH2 0x60A PUSH2 0x169E JUMP JUMPDEST PUSH0 DUP1 SLOAD PUSH1 0x1 PUSH1 0x1 PUSH1 0xA0 SHL SUB NOT DUP2 AND DUP3 SSTORE PUSH1 0x1 PUSH1 0x1 PUSH1 0xA0 SHL SUB AND PUSH32 0x8BE0079C531659141344CD1FD0A4F28419497F9722A3DAAFE3B4186F6B6457E0 DUP3 DUP1 LOG3 STOP JUMPDEST CALLVALUE PUSH2 0x1FD JUMPI PUSH1 0x20 CALLDATASIZE PUSH1 0x3 NOT ADD SLT PUSH2 0x1FD JUMPI PUSH2 0xF PUSH1 0x4 CALLDATALOAD PUSH2 0x16F5 JUMP JUMPDEST CALLVALUE PUSH2 0x1FD JUMPI PUSH1 0x60 CALLDATASIZE PUSH1 0x3 NOT ADD SLT PUSH2 0x1FD JUMPI PUSH2 0x67E PUSH2 0x14EC JUMP JUMPDEST PUSH1 0x24 CALLDATALOAD PUSH8 0xFFFFFFFFFFFFFFFF DUP2 GT PUSH2 0x1FD JUMPI PUSH2 0x69E SWAP1 CALLDATASIZE SWAP1 PUSH1 0x4 ADD PUSH2 0x1502 JUMP JUMPDEST SWAP2 PUSH1 0x44 CALLDATALOAD PUSH8 0xFFFFFFFFFFFFFFFF DUP2 GT PUSH2 0x1FD JUMPI PUSH2 0x6BF SWAP1 CALLDATASIZE SWAP1 PUSH1 0x4 ADD PUSH2 0x1502 JUMP JUMPDEST SWAP2 PUSH2 0x6C8 PUSH2 0x1658 JUMP JUMPDEST PUSH1 0x1 PUSH1 0x1 PUSH1 0xA0 SHL SUB AND SWAP4 DUP5 ISZERO PUSH2 0xAB0 JUMPI PUSH1 0x1 SLOAD PUSH1 0x40 MLOAD PUSH4 0x70A08231 PUSH1 0xE0 SHL DUP2 MSTORE CALLER PUSH1 0x4 DUP3 ADD MSTORE SWAP1 PUSH1 0x20 SWAP1 DUP3 SWAP1 PUSH1 0x24 SWAP1 DUP3 SWAP1 PUSH1 0x1 PUSH1 0x1 PUSH1 0xA0 SHL SUB AND GAS STATICCALL SWAP1 DUP2 ISZERO PUSH2 0x929 JUMPI PUSH0 SWAP2 PUSH2 0xA7E JUMPI JUMPDEST POP PUSH1 0x3 SLOAD GT PUSH2 0xA39 JUMPI PUSH1 0x5 SLOAD PUSH0 NOT DUP2 EQ PUSH2 0xA25 JUMPI PUSH1 0x1 SWAP1 DUP2 ADD PUSH1 0x5 DUP2 SWAP1 SSTORE PUSH0 DUP2 DUP2 MSTORE PUSH1 0x6 PUSH1 0x20 MSTORE PUSH1 0x40 SWAP1 KECCAK256 DUP2 DUP2 SSTORE SWAP2 DUP3 ADD DUP1 SLOAD PUSH1 0x1 PUSH1 0x1 PUSH1 0xA0 SHL SUB NOT SWAP1 DUP2 AND CALLER OR SWAP1 SWAP2 SSTORE PUSH1 0x2 DUP4 ADD DUP1 SLOAD SWAP1 SWAP2 AND DUP9 OR SWAP1 SSTORE SWAP5 SWAP1 SWAP2 PUSH1 0x3 DUP4 ADD SWAP2 PUSH8 0xFFFFFFFFFFFFFFFF DUP3 GT PUSH2 0x9A2 JUMPI PUSH2 0x78E DUP3 PUSH2 0x788 DUP6 SLOAD PUSH2 0x13CA JUMP JUMPDEST DUP6 PUSH2 0x15B4 JUMP JUMPDEST PUSH0 SWAP1 PUSH1 0x1F DUP4 GT PUSH1 0x1 EQ PUSH2 0x9C1 JUMPI PUSH2 0x7BC SWAP3 SWAP2 PUSH0 SWAP2 DUP4 PUSH2 0x9B6 JUMPI JUMPDEST POP POP DUP2 PUSH1 0x1 SHL SWAP2 PUSH0 NOT SWAP1 PUSH1 0x3 SHL SHR NOT AND OR SWAP1 JUMP JUMPDEST SWAP1 SSTORE JUMPDEST PUSH1 0xB DUP2 ADD PUSH8 0xFFFFFFFFFFFFFFFF DUP5 GT PUSH2 0x9A2 JUMPI PUSH2 0x7E6 DUP5 PUSH2 0x7E0 DUP4 SLOAD PUSH2 0x13CA JUMP JUMPDEST DUP4 PUSH2 0x15B4 JUMP JUMPDEST PUSH0 DUP5 PUSH1 0x1F DUP2 GT PUSH1 0x1 EQ PUSH2 0x93F JUMPI DUP1 PUSH2 0x812 SWAP3 PUSH0 SWAP2 PUSH2 0x934 JUMPI JUMPDEST POP DUP2 PUSH1 0x1 SHL SWAP2 PUSH0 NOT SWAP1 PUSH1 0x3 SHL SHR NOT AND OR SWAP1 JUMP JUMPDEST SWAP1 SSTORE JUMPDEST NUMBER PUSH1 0x4 DUP3 ADD SSTORE PUSH2 0x82A PUSH1 0x3 PUSH1 0x2 SLOAD DIV NUMBER PUSH2 0x15A7 JUMP JUMPDEST PUSH1 0x5 DUP3 ADD SSTORE PUSH1 0xC DUP2 ADD DUP1 SLOAD PUSH1 0xFF NOT AND PUSH1 0x1 SWAP1 DUP2 OR SWAP1 SWAP2 SSTORE SLOAD PUSH1 0x40 MLOAD PUSH4 0x18160DDD PUSH1 0xE0 SHL DUP2 MSTORE SWAP1 PUSH1 0x20 SWAP1 DUP3 SWAP1 PUSH1 0x4 SWAP1 DUP3 SWAP1 PUSH1 0x1 PUSH1 0x1 PUSH1 0xA0 SHL SUB AND GAS STATICCALL SWAP1 DUP2 ISZERO PUSH2 0x929 JUMPI PUSH0 SWAP2 PUSH2 0x8F5 JUMPI JUMPDEST POP SWAP5 DUP4 DUP6 SWAP4 PUSH32 0xBF0FCD54B591A07A1943CF5EAF6FDD64E31BC7B4C469E9BA81FB00E21FD859F5 SWAP4 PUSH1 0x9 PUSH2 0x3E8 PUSH2 0x8AE PUSH1 0x20 SWAP12 PUSH1 0x4 SLOAD SWAP1 PUSH2 0x157C JUMP JUMPDEST DIV SWAP2 ADD SSTORE PUSH2 0x8BB DUP6 PUSH2 0x18C2 JUMP JUMPDEST POP PUSH1 0x40 MLOAD SWAP3 DUP4 MSTORE PUSH1 0x40 DUP9 DUP5 ADD MSTORE DUP2 PUSH1 0x40 DUP5 ADD MSTORE PUSH1 0x60 DUP4 ADD CALLDATACOPY PUSH0 PUSH1 0x60 DUP6 DUP4 ADD ADD MSTORE PUSH1 0x60 DUP2 CALLER SWAP6 PUSH1 0x1F DUP1 NOT SWAP2 ADD AND DUP2 ADD SUB ADD SWAP1 LOG3 PUSH1 0x40 MLOAD SWAP1 DUP2 MSTORE RETURN JUMPDEST SWAP6 SWAP1 POP PUSH1 0x20 DUP7 RETURNDATASIZE PUSH1 0x20 GT PUSH2 0x921 JUMPI JUMPDEST DUP2 PUSH2 0x911 PUSH1 0x20 SWAP4 DUP4 PUSH2 0x1483 JUMP JUMPDEST DUP2 ADD SUB SLT PUSH2 0x1FD JUMPI SWAP5 MLOAD DUP4 PUSH2 0x873 JUMP JUMPDEST RETURNDATASIZE SWAP2 POP PUSH2 0x904 JUMP JUMPDEST PUSH1 0x40 MLOAD RETURNDATASIZE PUSH0 DUP3 RETURNDATACOPY RETURNDATASIZE SWAP1 REVERT JUMPDEST SWAP1 POP DUP6 ADD CALLDATALOAD DUP10 PUSH2 0x7FF JUMP JUMPDEST POP PUSH1 0x1F NOT DUP6 AND SWAP1 DUP3 PUSH0 MSTORE DUP6 PUSH1 0x20 PUSH0 KECCAK256 SWAP3 PUSH0 JUMPDEST DUP2 DUP2 LT PUSH2 0x987 JUMPI POP LT PUSH2 0x96E JUMPI JUMPDEST POP POP PUSH1 0x1 DUP5 DUP2 SHL ADD SWAP1 SSTORE PUSH2 0x815 JUMP JUMPDEST DUP5 ADD CALLDATALOAD PUSH0 NOT PUSH1 0x3 DUP8 SWAP1 SHL PUSH1 0xF8 AND SHR NOT AND SWAP1 SSTORE DUP7 DUP1 PUSH2 0x95F JUMP JUMPDEST DUP8 DUP5 ADD CALLDATALOAD DUP6 SSTORE PUSH1 0x1 SWAP1 SWAP5 ADD SWAP4 PUSH1 0x20 SWAP4 DUP5 ADD SWAP4 DUP10 SWAP4 POP ADD PUSH2 0x951 JUMP JUMPDEST PUSH4 0x4E487B71 PUSH1 0xE0 SHL PUSH0 MSTORE PUSH1 0x41 PUSH1 0x4 MSTORE PUSH1 0x24 PUSH0 REVERT JUMPDEST ADD CALLDATALOAD SWAP1 POP DUP10 DUP1 PUSH2 0x7A8 JUMP JUMPDEST PUSH1 0x1F NOT DUP4 AND SWAP2 DUP5 PUSH0 MSTORE PUSH1 0x20 PUSH0 KECCAK256 SWAP3 PUSH0 JUMPDEST DUP2 DUP2 LT PUSH2 0xA0D JUMPI POP SWAP1 DUP5 PUSH1 0x1 SWAP6 SWAP5 SWAP4 SWAP3 LT PUSH2 0x9F4 JUMPI JUMPDEST POP POP POP DUP2 SHL ADD SWAP1 SSTORE PUSH2 0x7BF JUMP JUMPDEST ADD CALLDATALOAD PUSH0 NOT PUSH1 0x3 DUP5 SWAP1 SHL PUSH1 0xF8 AND SHR NOT AND SWAP1 SSTORE DUP9 DUP1 DUP1 PUSH2 0x9E7 JUMP JUMPDEST SWAP2 SWAP4 PUSH1 0x20 PUSH1 0x1 DUP2 SWAP3 DUP8 DUP8 ADD CALLDATALOAD DUP2 SSTORE ADD SWAP6 ADD SWAP3 ADD PUSH2 0x9D1 JUMP JUMPDEST PUSH4 0x4E487B71 PUSH1 0xE0 SHL PUSH0 MSTORE PUSH1 0x11 PUSH1 0x4 MSTORE PUSH1 0x24 PUSH0 REVERT JUMPDEST PUSH1 0x40 MLOAD PUSH3 0x461BCD PUSH1 0xE5 SHL DUP2 MSTORE PUSH1 0x20 PUSH1 0x4 DUP3 ADD MSTORE PUSH1 0x1B PUSH1 0x24 DUP3 ADD MSTORE PUSH32 0x476F7665726E616E63653A2062656C6F77207468726573686F6C640000000000 PUSH1 0x44 DUP3 ADD MSTORE PUSH1 0x64 SWAP1 REVERT JUMPDEST SWAP1 POP PUSH1 0x20 DUP2 RETURNDATASIZE PUSH1 0x20 GT PUSH2 0xAA8 JUMPI JUMPDEST DUP2 PUSH2 0xA99 PUSH1 0x20 SWAP4 DUP4 PUSH2 0x1483 JUMP JUMPDEST DUP2 ADD SUB SLT PUSH2 0x1FD JUMPI MLOAD DUP7 PUSH2 0x712 JUMP JUMPDEST RETURNDATASIZE SWAP2 POP PUSH2 0xA8C JUMP JUMPDEST PUSH1 0x40 MLOAD PUSH3 0x461BCD PUSH1 0xE5 SHL DUP2 MSTORE PUSH1 0x20 PUSH1 0x4 DUP3 ADD MSTORE PUSH1 0x1A PUSH1 0x24 DUP3 ADD MSTORE PUSH32 0x476F7665726E616E63653A20696E76616C696420746172676574000000000000 PUSH1 0x44 DUP3 ADD MSTORE PUSH1 0x64 SWAP1 REVERT JUMPDEST CALLVALUE PUSH2 0x1FD JUMPI PUSH0 CALLDATASIZE PUSH1 0x3 NOT ADD SLT PUSH2 0x1FD JUMPI PUSH1 0x20 PUSH1 0xFF PUSH0 SLOAD PUSH1 0xA0 SHR AND PUSH1 0x40 MLOAD SWAP1 ISZERO ISZERO DUP2 MSTORE RETURN JUMPDEST CALLVALUE PUSH2 0x1FD JUMPI PUSH1 0x40 CALLDATASIZE PUSH1 0x3 NOT ADD SLT PUSH2 0x1FD JUMPI PUSH1 0x4 CALLDATALOAD PUSH1 0x24 CALLDATALOAD SWAP1 PUSH1 0xFF DUP3 AND DUP1 SWAP3 SUB PUSH2 0x1FD JUMPI PUSH2 0xB44 PUSH2 0x1658 JUMP JUMPDEST DUP1 PUSH0 MSTORE PUSH1 0x6 PUSH1 0x20 MSTORE PUSH1 0x40 PUSH0 KECCAK256 SWAP2 PUSH2 0xB5D DUP4 SLOAD ISZERO ISZERO PUSH2 0x1530 JUMP JUMPDEST PUSH1 0xFF PUSH1 0xC DUP5 ADD SLOAD AND PUSH1 0x6 DUP2 LT ISZERO PUSH2 0xDD3 JUMPI PUSH1 0x1 SUB PUSH2 0xD95 JUMPI PUSH0 DUP3 DUP2 MSTORE PUSH1 0x7 PUSH1 0x20 SWAP1 DUP2 MSTORE PUSH1 0x40 DUP1 DUP4 KECCAK256 CALLER DUP5 MSTORE SWAP1 SWAP2 MSTORE SWAP1 KECCAK256 SLOAD PUSH1 0xFF AND PUSH2 0xD50 JUMPI PUSH1 0x2 DUP2 GT PUSH2 0xD0B JUMPI PUSH1 0x1 SLOAD PUSH1 0x40 MLOAD PUSH4 0x70A08231 PUSH1 0xE0 SHL DUP2 MSTORE CALLER PUSH1 0x4 DUP3 ADD MSTORE SWAP1 PUSH1 0x20 SWAP1 DUP3 SWAP1 PUSH1 0x24 SWAP1 DUP3 SWAP1 PUSH1 0x1 PUSH1 0x1 PUSH1 0xA0 SHL SUB AND GAS STATICCALL SWAP1 DUP2 ISZERO PUSH2 0x929 JUMPI PUSH0 SWAP2 PUSH2 0xCD9 JUMPI JUMPDEST POP DUP1 ISZERO PUSH2 0xC94 JUMPI PUSH0 DUP4 DUP2 MSTORE PUSH1 0x7 PUSH1 0x20 SWAP1 DUP2 MSTORE PUSH1 0x40 DUP1 DUP4 KECCAK256 CALLER DUP1 DUP6 MSTORE SWAP1 DUP4 MSTORE DUP2 DUP5 KECCAK256 DUP1 SLOAD PUSH1 0xFF NOT AND PUSH1 0x1 OR SWAP1 SSTORE DUP7 DUP5 MSTORE PUSH1 0x8 DUP4 MSTORE DUP2 DUP5 KECCAK256 SWAP1 DUP5 MSTORE SWAP1 SWAP2 MSTORE SWAP1 KECCAK256 DUP3 SWAP1 SSTORE PUSH2 0xF SWAP4 PUSH0 NOT DUP4 ADD PUSH2 0xC6C JUMPI PUSH1 0x6 ADD PUSH2 0xC32 DUP3 DUP3 SLOAD PUSH2 0x15A7 JUMP JUMPDEST SWAP1 SSTORE JUMPDEST PUSH1 0x40 MLOAD SWAP2 DUP3 MSTORE PUSH1 0x20 DUP3 ADD MSTORE DUP2 PUSH32 0xB83D25C6A5D258561330739951487ACB4BD09BA5190B5D32C4F261817D906792 PUSH1 0x40 CALLER SWAP4 LOG3 PUSH2 0x16F5 JUMP JUMPDEST DUP3 PUSH2 0xC86 JUMPI PUSH1 0x7 ADD PUSH2 0xC7F DUP3 DUP3 SLOAD PUSH2 0x15A7 JUMP JUMPDEST SWAP1 SSTORE PUSH2 0xC35 JUMP JUMPDEST PUSH1 0x8 ADD PUSH2 0xC7F DUP3 DUP3 SLOAD PUSH2 0x15A7 JUMP JUMPDEST PUSH1 0x40 MLOAD PUSH3 0x461BCD PUSH1 0xE5 SHL DUP2 MSTORE PUSH1 0x20 PUSH1 0x4 DUP3 ADD MSTORE PUSH1 0x1B PUSH1 0x24 DUP3 ADD MSTORE PUSH32 0x476F7665726E616E63653A206E6F20766F74696E6720706F7765720000000000 PUSH1 0x44 DUP3 ADD MSTORE PUSH1 0x64 SWAP1 REVERT JUMPDEST SWAP1 POP PUSH1 0x20 DUP2 RETURNDATASIZE PUSH1 0x20 GT PUSH2 0xD03 JUMPI JUMPDEST DUP2 PUSH2 0xCF4 PUSH1 0x20 SWAP4 DUP4 PUSH2 0x1483 JUMP JUMPDEST DUP2 ADD SUB SLT PUSH2 0x1FD JUMPI MLOAD DUP5 PUSH2 0xBD7 JUMP JUMPDEST RETURNDATASIZE SWAP2 POP PUSH2 0xCE7 JUMP JUMPDEST PUSH1 0x40 MLOAD PUSH3 0x461BCD PUSH1 0xE5 SHL DUP2 MSTORE PUSH1 0x20 PUSH1 0x4 DUP3 ADD MSTORE PUSH1 0x18 PUSH1 0x24 DUP3 ADD MSTORE PUSH32 0x476F7665726E616E63653A20696E76616C696420766F74650000000000000000 PUSH1 0x44 DUP3 ADD MSTORE PUSH1 0x64 SWAP1 REVERT JUMPDEST PUSH1 0x40 MLOAD PUSH3 0x461BCD PUSH1 0xE5 SHL DUP2 MSTORE PUSH1 0x20 PUSH1 0x4 DUP3 ADD MSTORE PUSH1 0x19 PUSH1 0x24 DUP3 ADD MSTORE PUSH32 0x476F7665726E616E63653A20616C726561647920766F74656400000000000000 PUSH1 0x44 DUP3 ADD MSTORE PUSH1 0x64 SWAP1 REVERT JUMPDEST PUSH1 0x40 MLOAD PUSH3 0x461BCD PUSH1 0xE5 SHL DUP2 MSTORE PUSH1 0x20 PUSH1 0x4 DUP3 ADD MSTORE PUSH1 0x16 PUSH1 0x24 DUP3 ADD MSTORE PUSH22 0x476F7665726E616E63653A206E6F7420616374697665 PUSH1 0x50 SHL PUSH1 0x44 DUP3 ADD MSTORE PUSH1 0x64 SWAP1 REVERT JUMPDEST PUSH4 0x4E487B71 PUSH1 0xE0 SHL PUSH0 MSTORE PUSH1 0x21 PUSH1 0x4 MSTORE PUSH1 0x24 PUSH0 REVERT JUMPDEST CALLVALUE PUSH2 0x1FD JUMPI PUSH0 CALLDATASIZE PUSH1 0x3 NOT ADD SLT PUSH2 0x1FD JUMPI PUSH1 0x9 SLOAD PUSH2 0xE03 DUP2 PUSH2 0x158F JUMP JUMPDEST SWAP1 PUSH2 0xE11 PUSH1 0x40 MLOAD SWAP3 DUP4 PUSH2 0x1483 JUMP JUMPDEST DUP1 DUP3 MSTORE PUSH2 0xE1D DUP2 PUSH2 0x158F JUMP JUMPDEST PUSH1 0x20 DUP4 ADD SWAP2 SWAP1 PUSH1 0x1F NOT ADD CALLDATASIZE DUP4 CALLDATACOPY PUSH1 0x9 SLOAD PUSH0 JUMPDEST DUP3 DUP2 LT PUSH2 0xE7A JUMPI DUP4 DUP6 PUSH1 0x40 MLOAD SWAP2 DUP3 SWAP2 PUSH1 0x20 DUP4 ADD SWAP1 PUSH1 0x20 DUP5 MSTORE MLOAD DUP1 SWAP2 MSTORE PUSH1 0x40 DUP4 ADD SWAP2 SWAP1 PUSH0 JUMPDEST DUP2 DUP2 LT PUSH2 0xE61 JUMPI POP POP POP SUB SWAP1 RETURN JUMPDEST DUP3 MLOAD DUP5 MSTORE DUP6 SWAP5 POP PUSH1 0x20 SWAP4 DUP5 ADD SWAP4 SWAP1 SWAP3 ADD SWAP2 PUSH1 0x1 ADD PUSH2 0xE53 JUMP JUMPDEST DUP2 DUP2 LT ISZERO PUSH2 0xEAA JUMPI PUSH1 0x9 PUSH0 MSTORE DUP1 PUSH1 0x20 PUSH0 KECCAK256 ADD SLOAD SWAP1 DUP6 MLOAD DUP2 LT ISZERO PUSH2 0xEAA JUMPI PUSH1 0x1 SWAP2 PUSH1 0x20 DUP3 PUSH1 0x5 SHL DUP9 ADD ADD MSTORE ADD PUSH2 0xE2F JUMP JUMPDEST PUSH4 0x4E487B71 PUSH1 0xE0 SHL PUSH0 MSTORE PUSH1 0x32 PUSH1 0x4 MSTORE PUSH1 0x24 PUSH0 REVERT JUMPDEST CALLVALUE PUSH2 0x1FD JUMPI PUSH1 0x40 CALLDATASIZE PUSH1 0x3 NOT ADD SLT PUSH2 0x1FD JUMPI PUSH2 0xED7 PUSH2 0x14D6 JUMP JUMPDEST PUSH1 0x4 CALLDATALOAD PUSH0 MSTORE PUSH1 0x7 PUSH1 0x20 MSTORE PUSH1 0x40 PUSH0 KECCAK256 SWAP1 PUSH1 0x1 DUP1 PUSH1 0xA0 SHL SUB AND PUSH0 MSTORE PUSH1 0x20 MSTORE PUSH1 0x20 PUSH1 0xFF PUSH1 0x40 PUSH0 KECCAK256 SLOAD AND PUSH1 0x40 MLOAD SWAP1 ISZERO ISZERO DUP2 MSTORE RETURN JUMPDEST CALLVALUE PUSH2 0x1FD JUMPI PUSH0 CALLDATASIZE PUSH1 0x3 NOT ADD SLT PUSH2 0x1FD JUMPI PUSH2 0xF1F PUSH2 0x169E JUMP JUMPDEST PUSH0 SLOAD PUSH1 0xFF DUP2 PUSH1 0xA0 SHR AND ISZERO PUSH2 0xF64 JUMPI PUSH1 0xFF PUSH1 0xA0 SHL NOT AND PUSH0 SSTORE PUSH1 0x40 MLOAD CALLER DUP2 MSTORE PUSH32 0x5DB9EE0A495BF2E6FF9C91A7834C1BA4FDD244A5E8AA4E537BD38AEAE4B073AA SWAP1 PUSH1 0x20 SWAP1 LOG1 STOP JUMPDEST PUSH1 0x40 MLOAD PUSH3 0x461BCD PUSH1 0xE5 SHL DUP2 MSTORE PUSH1 0x20 PUSH1 0x4 DUP3 ADD MSTORE PUSH1 0x14 PUSH1 0x24 DUP3 ADD MSTORE PUSH20 0x14185D5CD8589B194E881B9BDD081C185D5CD959 PUSH1 0x62 SHL PUSH1 0x44 DUP3 ADD MSTORE PUSH1 0x64 SWAP1 REVERT JUMPDEST CALLVALUE PUSH2 0x1FD JUMPI PUSH0 CALLDATASIZE PUSH1 0x3 NOT ADD SLT PUSH2 0x1FD JUMPI PUSH1 0x1 SLOAD PUSH1 0x40 MLOAD PUSH1 0x1 PUSH1 0x1 PUSH1 0xA0 SHL SUB SWAP1 SWAP2 AND DUP2 MSTORE PUSH1 0x20 SWAP1 RETURN JUMPDEST CALLVALUE PUSH2 0x1FD JUMPI PUSH0 CALLDATASIZE PUSH1 0x3 NOT ADD SLT PUSH2 0x1FD JUMPI PUSH1 0x1 SLOAD PUSH1 0x40 MLOAD PUSH4 0x18160DDD PUSH1 0xE0 SHL DUP2 MSTORE SWAP1 PUSH1 0x20 SWAP1 DUP3 SWAP1 PUSH1 0x4 SWAP1 DUP3 SWAP1 PUSH1 0x1 PUSH1 0x1 PUSH1 0xA0 SHL SUB AND GAS STATICCALL SWAP1 DUP2 ISZERO PUSH2 0x929 JUMPI PUSH0 SWAP2 PUSH2 0x1027 JUMPI JUMPDEST PUSH1 0x20 PUSH2 0x3E8 PUSH2 0x101E DUP5 PUSH1 0x4 SLOAD SWAP1 PUSH2 0x157C JUMP JUMPDEST DIV PUSH1 0x40 MLOAD SWAP1 DUP2 MSTORE RETURN JUMPDEST SWAP1 POP PUSH1 0x20 DUP2 RETURNDATASIZE PUSH1 0x20 GT PUSH2 0x1053 JUMPI JUMPDEST DUP2 PUSH2 0x1042 PUSH1 0x20 SWAP4 DUP4 PUSH2 0x1483 JUMP JUMPDEST DUP2 ADD SUB SLT PUSH2 0x1FD JUMPI MLOAD PUSH2 0x3E8 PUSH2 0x100C JUMP JUMPDEST RETURNDATASIZE SWAP2 POP PUSH2 0x1035 JUMP JUMPDEST CALLVALUE PUSH2 0x1FD JUMPI PUSH1 0x20 CALLDATASIZE PUSH1 0x3 NOT ADD SLT PUSH2 0x1FD JUMPI PUSH1 0x4 CALLDATALOAD PUSH2 0x1077 PUSH2 0x1658 JUMP JUMPDEST DUP1 PUSH0 MSTORE PUSH1 0x6 PUSH1 0x20 MSTORE PUSH1 0x40 PUSH0 KECCAK256 PUSH2 0x108F DUP2 SLOAD ISZERO ISZERO PUSH2 0x1530 JUMP JUMPDEST PUSH1 0xC DUP2 ADD PUSH1 0xFF DUP2 SLOAD AND PUSH1 0x6 DUP2 LT ISZERO PUSH2 0xDD3 JUMPI PUSH1 0x2 SUB PUSH2 0x1249 JUMPI PUSH1 0xA DUP3 ADD DUP1 SLOAD PUSH1 0xFF DUP2 AND PUSH2 0x1204 JUMPI PUSH1 0xFF NOT SWAP1 DUP2 AND PUSH1 0x1 OR SWAP1 SWAP2 SSTORE DUP2 SLOAD AND PUSH1 0x4 OR SWAP1 SSTORE PUSH2 0x10D3 DUP3 PUSH2 0x17E7 JUMP JUMPDEST POP PUSH1 0x3 PUSH1 0x1 DUP1 PUSH1 0xA0 SHL SUB PUSH1 0x2 DUP4 ADD SLOAD AND SWAP2 ADD PUSH1 0x40 MLOAD SWAP1 PUSH0 SWAP1 DUP1 SLOAD SWAP1 PUSH2 0x10F7 DUP3 PUSH2 0x13CA JUMP JUMPDEST SWAP2 PUSH1 0x1 DUP2 AND SWAP1 DUP2 ISZERO PUSH2 0x11ED JUMPI POP PUSH1 0x1 EQ PUSH2 0x11BB JUMPI JUMPDEST POP POP SWAP2 DUP2 PUSH0 DUP1 SWAP5 SWAP4 DUP2 SWAP5 SUB SWAP3 GAS CALL RETURNDATASIZE ISZERO PUSH2 0x11B3 JUMPI RETURNDATASIZE SWAP2 PUSH8 0xFFFFFFFFFFFFFFFF DUP4 GT PUSH2 0x9A2 JUMPI PUSH1 0x40 MLOAD PUSH1 0x20 SWAP4 PUSH2 0x114A PUSH1 0x1F DUP3 ADD PUSH1 0x1F NOT AND DUP7 ADD DUP4 PUSH2 0x1483 JUMP JUMPDEST DUP2 MSTORE PUSH0 DUP5 RETURNDATASIZE SWAP3 ADD RETURNDATACOPY JUMPDEST DUP1 PUSH32 0x948F4A9CD986F1118C3FBD459F7A22B23C0693E1CA3EF06A6A8BE5AA7D39CC03 DUP5 PUSH1 0x40 MLOAD SWAP5 ISZERO ISZERO SWAP5 DUP6 DUP2 MSTORE LOG2 PUSH32 0xD6B3A81DD8B7DC419D8D0F20797397EA2EABA914386B89898AA638438803A1EC DUP4 PUSH1 0x40 MLOAD PUSH1 0x4 DUP2 MSTORE LOG2 PUSH1 0x40 MLOAD SWAP1 DUP2 MSTORE RETURN JUMPDEST PUSH1 0x20 SWAP2 PUSH2 0x1153 JUMP JUMPDEST SWAP1 SWAP2 POP PUSH0 MSTORE PUSH1 0x20 PUSH0 KECCAK256 PUSH0 SWAP1 JUMPDEST DUP3 DUP3 LT PUSH2 0x11D9 JUMPI POP POP DUP2 ADD DUP2 PUSH0 PUSH2 0x110C JUMP JUMPDEST PUSH1 0x1 DUP2 PUSH1 0x20 SWAP3 SLOAD DUP5 DUP8 ADD MSTORE ADD SWAP2 ADD SWAP1 PUSH2 0x11C7 JUMP JUMPDEST PUSH1 0xFF NOT AND DUP6 MSTORE POP POP DUP1 ISZERO ISZERO MUL DUP3 ADD SWAP1 POP DUP2 PUSH0 PUSH2 0x110C JUMP JUMPDEST PUSH1 0x40 MLOAD PUSH3 0x461BCD PUSH1 0xE5 SHL DUP2 MSTORE PUSH1 0x20 PUSH1 0x4 DUP3 ADD MSTORE PUSH1 0x1C PUSH1 0x24 DUP3 ADD MSTORE PUSH32 0x476F7665726E616E63653A20616C726561647920657865637574656400000000 PUSH1 0x44 DUP3 ADD MSTORE PUSH1 0x64 SWAP1 REVERT JUMPDEST PUSH1 0x40 MLOAD PUSH3 0x461BCD PUSH1 0xE5 SHL DUP2 MSTORE PUSH1 0x20 PUSH1 0x4 DUP3 ADD MSTORE PUSH1 0x19 PUSH1 0x24 DUP3 ADD MSTORE PUSH32 0x476F7665726E616E63653A206E6F742073756363656564656400000000000000 PUSH1 0x44 DUP3 ADD MSTORE PUSH1 0x64 SWAP1 REVERT JUMPDEST CALLVALUE PUSH2 0x1FD JUMPI PUSH0 CALLDATASIZE PUSH1 0x3 NOT ADD SLT PUSH2 0x1FD JUMPI PUSH1 0x20 PUSH1 0x2 SLOAD PUSH1 0x40 MLOAD SWAP1 DUP2 MSTORE RETURN JUMPDEST CALLVALUE PUSH2 0x1FD JUMPI PUSH1 0x20 CALLDATASIZE PUSH1 0x3 NOT ADD SLT PUSH2 0x1FD JUMPI PUSH1 0x4 CALLDATALOAD PUSH0 SWAP1 DUP2 MSTORE PUSH1 0x6 PUSH1 0x20 MSTORE PUSH1 0x40 SWAP1 KECCAK256 DUP1 SLOAD PUSH1 0x1 DUP3 ADD SLOAD PUSH1 0x2 DUP4 ADD SLOAD PUSH1 0x1 PUSH1 0x1 PUSH1 0xA0 SHL SUB SWAP2 DUP3 AND SWAP5 SWAP3 SWAP4 SWAP2 AND SWAP2 DUP1 PUSH2 0x12F7 DUP2 PUSH1 0x3 DUP6 ADD PUSH2 0x1402 JUMP JUMPDEST SUB PUSH2 0x1302 SWAP1 DUP3 PUSH2 0x1483 JUMP JUMPDEST PUSH1 0x4 DUP3 ADD SLOAD SWAP1 PUSH1 0x5 DUP4 ADD SLOAD PUSH1 0x6 DUP5 ADD SLOAD PUSH1 0x7 DUP6 ADD SLOAD PUSH1 0x8 DUP7 ADD SLOAD SWAP2 PUSH1 0x9 DUP8 ADD SLOAD SWAP4 PUSH1 0xA DUP9 ADD SLOAD PUSH1 0xFF AND SWAP6 PUSH1 0x40 MLOAD SWAP9 DUP10 DUP1 PUSH1 0xB DUP4 ADD SWAP1 PUSH2 0x1340 SWAP2 PUSH2 0x1402 JUMP JUMPDEST SUB PUSH2 0x134B SWAP1 DUP12 PUSH2 0x1483 JUMP JUMPDEST PUSH1 0xC ADD SLOAD PUSH1 0xFF AND SWAP10 PUSH1 0x40 MLOAD SWAP13 DUP14 SWAP13 DUP14 MSTORE PUSH1 0x20 DUP14 ADD MSTORE PUSH1 0x40 DUP13 ADD MSTORE PUSH1 0x60 DUP12 ADD PUSH2 0x1A0 SWAP1 MSTORE PUSH2 0x1A0 DUP12 ADD PUSH2 0x137C SWAP2 PUSH2 0x14A5 JUMP JUMPDEST SWAP7 PUSH1 0x80 DUP12 ADD MSTORE PUSH1 0xA0 DUP11 ADD MSTORE PUSH1 0xC0 DUP10 ADD MSTORE PUSH1 0xE0 DUP9 ADD MSTORE PUSH2 0x100 DUP8 ADD MSTORE PUSH2 0x120 DUP7 ADD MSTORE ISZERO ISZERO PUSH2 0x140 DUP6 ADD MSTORE DUP4 DUP2 SUB PUSH2 0x160 DUP6 ADD MSTORE PUSH2 0x13B7 SWAP2 PUSH2 0x14A5 JUMP JUMPDEST SWAP1 PUSH2 0x180 DUP4 ADD PUSH2 0x13C6 SWAP2 PUSH2 0x14C9 JUMP JUMPDEST SUB SWAP1 RETURN JUMPDEST SWAP1 PUSH1 0x1 DUP3 DUP2 SHR SWAP3 AND DUP1 ISZERO PUSH2 0x13F8 JUMPI JUMPDEST PUSH1 0x20 DUP4 LT EQ PUSH2 0x13E4 JUMPI JUMP JUMPDEST PUSH4 0x4E487B71 PUSH1 0xE0 SHL PUSH0 MSTORE PUSH1 0x22 PUSH1 0x4 MSTORE PUSH1 0x24 PUSH0 REVERT JUMPDEST SWAP2 PUSH1 0x7F AND SWAP2 PUSH2 0x13D9 JUMP JUMPDEST PUSH0 SWAP3 SWAP2 DUP2 SLOAD SWAP2 PUSH2 0x1411 DUP4 PUSH2 0x13CA JUMP JUMPDEST DUP1 DUP4 MSTORE SWAP3 PUSH1 0x1 DUP2 AND SWAP1 DUP2 ISZERO PUSH2 0x1466 JUMPI POP PUSH1 0x1 EQ PUSH2 0x142D JUMPI POP POP POP JUMP JUMPDEST PUSH0 SWAP1 DUP2 MSTORE PUSH1 0x20 DUP2 KECCAK256 SWAP4 SWAP5 POP SWAP2 SWAP3 JUMPDEST DUP4 DUP4 LT PUSH2 0x144C JUMPI POP PUSH1 0x20 SWAP3 POP ADD ADD SWAP1 JUMP JUMPDEST PUSH1 0x1 DUP2 PUSH1 0x20 SWAP3 SWAP5 SWAP4 SWAP5 SLOAD DUP4 DUP6 DUP8 ADD ADD MSTORE ADD SWAP2 ADD SWAP2 SWAP1 PUSH2 0x143B JUMP JUMPDEST SWAP2 POP POP PUSH1 0x20 SWAP4 SWAP5 POP PUSH1 0xFF SWAP3 SWAP2 SWAP3 NOT AND DUP4 DUP4 ADD MSTORE ISZERO ISZERO PUSH1 0x5 SHL ADD ADD SWAP1 JUMP JUMPDEST SWAP1 PUSH1 0x1F DUP1 NOT SWAP2 ADD AND DUP2 ADD SWAP1 DUP2 LT PUSH8 0xFFFFFFFFFFFFFFFF DUP3 GT OR PUSH2 0x9A2 JUMPI PUSH1 0x40 MSTORE JUMP JUMPDEST DUP1 MLOAD DUP1 DUP4 MSTORE PUSH1 0x20 SWAP3 SWAP2 DUP2 SWAP1 DUP5 ADD DUP5 DUP5 ADD MCOPY PUSH0 DUP3 DUP3 ADD DUP5 ADD MSTORE PUSH1 0x1F ADD PUSH1 0x1F NOT AND ADD ADD SWAP1 JUMP JUMPDEST SWAP1 PUSH1 0x6 DUP3 LT ISZERO PUSH2 0xDD3 JUMPI MSTORE JUMP JUMPDEST PUSH1 0x24 CALLDATALOAD SWAP1 PUSH1 0x1 PUSH1 0x1 PUSH1 0xA0 SHL SUB DUP3 AND DUP3 SUB PUSH2 0x1FD JUMPI JUMP JUMPDEST PUSH1 0x4 CALLDATALOAD SWAP1 PUSH1 0x1 PUSH1 0x1 PUSH1 0xA0 SHL SUB DUP3 AND DUP3 SUB PUSH2 0x1FD JUMPI JUMP JUMPDEST SWAP2 DUP2 PUSH1 0x1F DUP5 ADD SLT ISZERO PUSH2 0x1FD JUMPI DUP3 CALLDATALOAD SWAP2 PUSH8 0xFFFFFFFFFFFFFFFF DUP4 GT PUSH2 0x1FD JUMPI PUSH1 0x20 DUP4 DUP2 DUP7 ADD SWAP6 ADD ADD GT PUSH2 0x1FD JUMPI JUMP JUMPDEST ISZERO PUSH2 0x1537 JUMPI JUMP JUMPDEST PUSH1 0x40 MLOAD PUSH3 0x461BCD PUSH1 0xE5 SHL DUP2 MSTORE PUSH1 0x20 PUSH1 0x4 DUP3 ADD MSTORE PUSH1 0x1E PUSH1 0x24 DUP3 ADD MSTORE PUSH32 0x476F7665726E616E63653A2070726F706F73616C206E6F7420666F756E640000 PUSH1 0x44 DUP3 ADD MSTORE PUSH1 0x64 SWAP1 REVERT JUMPDEST DUP2 DUP2 MUL SWAP3 SWAP2 DUP2 ISZERO SWAP2 DUP5 DIV EQ OR ISZERO PUSH2 0xA25 JUMPI JUMP JUMPDEST PUSH8 0xFFFFFFFFFFFFFFFF DUP2 GT PUSH2 0x9A2 JUMPI PUSH1 0x5 SHL PUSH1 0x20 ADD SWAP1 JUMP JUMPDEST SWAP2 SWAP1 DUP3 ADD DUP1 SWAP3 GT PUSH2 0xA25 JUMPI JUMP JUMPDEST PUSH1 0x1F DUP3 GT PUSH2 0x15C1 JUMPI POP POP POP JUMP JUMPDEST PUSH0 MSTORE PUSH1 0x20 PUSH0 KECCAK256 SWAP1 PUSH1 0x20 PUSH1 0x1F DUP5 ADD PUSH1 0x5 SHR DUP4 ADD SWAP4 LT PUSH2 0x15F9 JUMPI JUMPDEST PUSH1 0x1F ADD PUSH1 0x5 SHR ADD SWAP1 JUMPDEST DUP2 DUP2 LT PUSH2 0x15EE JUMPI POP POP JUMP JUMPDEST PUSH0 DUP2 SSTORE PUSH1 0x1 ADD PUSH2 0x15E3 JUMP JUMPDEST SWAP1 SWAP2 POP DUP2 SWAP1 PUSH2 0x15DA JUMP JUMPDEST PUSH0 MSTORE PUSH1 0x6 PUSH1 0x20 MSTORE PUSH1 0x40 PUSH0 KECCAK256 DUP1 SLOAD ISZERO PUSH2 0x1653 JUMPI PUSH1 0xFF PUSH1 0xC DUP3 ADD SLOAD AND SWAP1 PUSH1 0x6 DUP3 LT ISZERO PUSH2 0xDD3 JUMPI PUSH1 0x2 DUP3 EQ PUSH2 0x1633 JUMPI POP SWAP1 JUMP JUMPDEST PUSH1 0x5 ADD SLOAD PUSH3 0x31380 DUP2 ADD DUP1 SWAP2 GT PUSH2 0xA25 JUMPI NUMBER GT PUSH2 0x164D JUMPI SWAP1 JUMP JUMPDEST POP PUSH1 0x5 SWAP1 JUMP JUMPDEST POP PUSH0 SWAP1 JUMP JUMPDEST PUSH1 0xFF PUSH0 SLOAD PUSH1 0xA0 SHR AND PUSH2 0x1666 JUMPI JUMP JUMPDEST PUSH1 0x40 MLOAD PUSH3 0x461BCD PUSH1 0xE5 SHL DUP2 MSTORE PUSH1 0x20 PUSH1 0x4 DUP3 ADD MSTORE PUSH1 0x10 PUSH1 0x24 DUP3 ADD MSTORE PUSH16 0x14185D5CD8589B194E881C185D5CD959 PUSH1 0x82 SHL PUSH1 0x44 DUP3 ADD MSTORE PUSH1 0x64 SWAP1 REVERT JUMPDEST PUSH0 SLOAD PUSH1 0x1 PUSH1 0x1 PUSH1 0xA0 SHL SUB AND CALLER SUB PUSH2 0x16B1 JUMPI JUMP JUMPDEST PUSH1 0x64 PUSH1 0x40 MLOAD PUSH3 0x461BCD PUSH1 0xE5 SHL DUP2 MSTORE PUSH1 0x20 PUSH1 0x4 DUP3 ADD MSTORE PUSH1 0x20 PUSH1 0x24 DUP3 ADD MSTORE PUSH32 0x4F776E61626C653A2063616C6C6572206973206E6F7420746865206F776E6572 PUSH1 0x44 DUP3 ADD MSTORE REVERT JUMPDEST DUP1 PUSH0 MSTORE PUSH1 0x6 PUSH1 0x20 MSTORE PUSH1 0x40 PUSH0 KECCAK256 PUSH1 0xC DUP2 ADD PUSH1 0xFF DUP2 SLOAD AND PUSH1 0x6 DUP2 LT ISZERO PUSH2 0xDD3 JUMPI PUSH1 0x1 SUB PUSH2 0x17CD JUMPI PUSH1 0x5 DUP3 ADD SLOAD NUMBER LT ISZERO PUSH2 0x172B JUMPI POP POP POP JUMP JUMPDEST PUSH1 0xFF PUSH1 0x20 SWAP2 DUP4 PUSH1 0x6 PUSH32 0xD6B3A81DD8B7DC419D8D0F20797397EA2EABA914386B89898AA638438803A1EC SWAP6 ADD SLOAD PUSH1 0x7 DUP3 ADD SLOAD SWAP2 PUSH1 0x9 PUSH2 0x1777 PUSH2 0x176C DUP6 DUP6 PUSH2 0x15A7 JUMP JUMPDEST PUSH1 0x8 DUP5 ADD SLOAD SWAP1 PUSH2 0x15A7 JUMP JUMPDEST SWAP2 ADD SLOAD GT ISZERO PUSH2 0x17A9 JUMPI POP POP PUSH1 0x3 DUP3 NOT DUP3 SLOAD AND OR DUP2 SSTORE JUMPDEST PUSH2 0x1796 DUP6 PUSH2 0x17E7 JUMP JUMPDEST POP SLOAD AND PUSH2 0x17A6 PUSH1 0x40 MLOAD DUP1 SWAP3 PUSH2 0x14C9 JUMP JUMPDEST LOG2 JUMP JUMPDEST GT ISZERO PUSH2 0x17BE JUMPI PUSH1 0x2 DUP3 NOT DUP3 SLOAD AND OR DUP2 SSTORE PUSH2 0x178D JUMP JUMPDEST PUSH1 0x3 DUP3 NOT DUP3 SLOAD AND OR DUP2 SSTORE PUSH2 0x178D JUMP JUMPDEST POP POP POP JUMP JUMPDEST DUP1 SLOAD DUP3 LT ISZERO PUSH2 0xEAA JUMPI PUSH0 MSTORE PUSH1 0x20 PUSH0 KECCAK256 ADD SWAP1 PUSH0 SWAP1 JUMP JUMPDEST PUSH0 DUP2 DUP2 MSTORE PUSH1 0xA PUSH1 0x20 MSTORE PUSH1 0x40 SWAP1 KECCAK256 SLOAD DUP1 ISZERO PUSH2 0x18BC JUMPI PUSH0 NOT DUP2 ADD DUP2 DUP2 GT PUSH2 0xA25 JUMPI PUSH1 0x9 SLOAD PUSH0 NOT DUP2 ADD SWAP2 SWAP1 DUP3 GT PUSH2 0xA25 JUMPI DUP1 DUP3 SUB PUSH2 0x186E JUMPI JUMPDEST POP POP POP PUSH1 0x9 SLOAD DUP1 ISZERO PUSH2 0x185A JUMPI PUSH0 NOT ADD PUSH2 0x1837 DUP2 PUSH1 0x9 PUSH2 0x17D2 JUMP JUMPDEST DUP2 SLOAD SWAP1 PUSH0 NOT SWAP1 PUSH1 0x3 SHL SHL NOT AND SWAP1 SSTORE PUSH1 0x9 SSTORE PUSH0 MSTORE PUSH1 0xA PUSH1 0x20 MSTORE PUSH0 PUSH1 0x40 DUP2 KECCAK256 SSTORE PUSH1 0x1 SWAP1 JUMP JUMPDEST PUSH4 0x4E487B71 PUSH1 0xE0 SHL PUSH0 MSTORE PUSH1 0x31 PUSH1 0x4 MSTORE PUSH1 0x24 PUSH0 REVERT JUMPDEST PUSH2 0x18A6 PUSH2 0x187F PUSH2 0x1890 SWAP4 PUSH1 0x9 PUSH2 0x17D2 JUMP JUMPDEST SWAP1 SLOAD SWAP1 PUSH1 0x3 SHL SHR SWAP3 DUP4 SWAP3 PUSH1 0x9 PUSH2 0x17D2 JUMP JUMPDEST DUP2 SWAP4 SWAP2 SLOAD SWAP1 PUSH1 0x3 SHL SWAP2 DUP3 SHL SWAP2 PUSH0 NOT SWAP1 SHL NOT AND OR SWAP1 JUMP JUMPDEST SWAP1 SSTORE PUSH0 MSTORE PUSH1 0xA PUSH1 0x20 MSTORE PUSH1 0x40 PUSH0 KECCAK256 SSTORE PUSH0 DUP1 DUP1 PUSH2 0x181D JUMP JUMPDEST POP POP PUSH0 SWAP1 JUMP JUMPDEST DUP1 PUSH0 MSTORE PUSH1 0xA PUSH1 0x20 MSTORE PUSH1 0x40 PUSH0 KECCAK256 SLOAD ISZERO PUSH0 EQ PUSH2 0x1653 JUMPI PUSH1 0x9 SLOAD PUSH9 0x10000000000000000 DUP2 LT ISZERO PUSH2 0x9A2 JUMPI PUSH2 0x1900 PUSH2 0x1890 DUP3 PUSH1 0x1 DUP6 SWAP5 ADD PUSH1 0x9 SSTORE PUSH1 0x9 PUSH2 0x17D2 JUMP JUMPDEST SWAP1 SSTORE PUSH1 0x9 SLOAD SWAP1 PUSH0 MSTORE PUSH1 0xA PUSH1 0x20 MSTORE PUSH1 0x40 PUSH0 KECCAK256 SSTORE PUSH1 0x1 SWAP1 JUMP INVALID LOG2 PUSH5 0x6970667358 0x22 SLT KECCAK256 0xAC 0xE1 0x21 CODECOPY SWAP6 ISZERO 0x2B 0xDC MSTORE SLT SIGNEXTEND 0xA8 ADDMOD 0xB5 GT REVERT 0xB0 0xD1 0xC5 0x2B MSTORE SWAP14 SELFBALANCE PUSH11 0x6CDE8A8F3B473A5B64736F PUSH13 0x634300081B0033000000000000 "},"methodIdentifiers":{"castVote(uint256,uint8)":"56781388","chipToken()":"3b61403c","createProposal(address,bytes,string)":"64bd0cb2","executeProposal(uint256)":"0d61b519","getActiveProposals()":"5584c4f9","getProposal(uint256)":"c7f758a8","getProposalState(uint256)":"9080936f","getVote(uint256,address)":"bc3f931f","hasVoted(uint256,address)":"43859632","owner()":"8da5cb5b","pause()":"8456cb59","paused()":"5c975abb","proposalCount()":"da35c664","proposalThreshold()":"b58131b0","proposals(uint256)":"013cf08b","quorum()":"1703a018","quorumNumerator()":"a7713a70","renounceOwnership()":"715018a6","setProposalThreshold(uint256)":"ece40cc1","setQuorumNumerator(uint256)":"737594ce","setVotingPeriod(uint256)":"ea0217cf","transferOwnership(address)":"f2fde38b","unpause()":"3f4ba83a","updateProposalState(uint256)":"6ac600c7","votes(uint256,address)":"d23254b4","votingPeriod()":"02a251a3"}}}}}