{"contracts/AchievementNFTOnChain.sol":{"AchievementNFTOnChain":{"abi":[{"inputs":[{"internalType":"address","name":"_signer","type":"address"}],"stateMutability":"nonpayable","type":"constructor"},{"anonymous":false,"inputs":[{"indexed":true,"internalType":"address","name":"player","type":"address"},{"indexed":true,"internalType":"uint256","name":"tokenId","type":"uint256"},{"indexed":false,"internalType":"uint256","name":"achievementTypeId","type":"uint256"}],"name":"AchievementMinted","type":"event"},{"anonymous":false,"inputs":[{"indexed":true,"internalType":"address","name":"owner","type":"address"},{"indexed":true,"internalType":"address","name":"approved","type":"address"},{"indexed":true,"internalType":"uint256","name":"tokenId","type":"uint256"}],"name":"Approval","type":"event"},{"anonymous":false,"inputs":[{"indexed":true,"internalType":"address","name":"owner","type":"address"},{"indexed":true,"internalType":"address","name":"operator","type":"address"},{"indexed":false,"internalType":"bool","name":"approved","type":"bool"}],"name":"ApprovalForAll","type":"event"},{"anonymous":false,"inputs":[{"indexed":true,"internalType":"address","name":"from","type":"address"},{"indexed":true,"internalType":"address","name":"to","type":"address"},{"indexed":true,"internalType":"uint256","name":"tokenId","type":"uint256"}],"name":"Transfer","type":"event"},{"inputs":[{"internalType":"uint256","name":"","type":"uint256"}],"name":"achievementMintPrices","outputs":[{"internalType":"uint256","name":"","type":"uint256"}],"stateMutability":"view","type":"function"},{"inputs":[{"internalType":"uint256","name":"","type":"uint256"}],"name":"achievementMonthlyLimits","outputs":[{"internalType":"uint256","name":"","type":"uint256"}],"stateMutability":"view","type":"function"},{"inputs":[{"internalType":"uint256","name":"","type":"uint256"}],"name":"achievementNames","outputs":[{"internalType":"string","name":"","type":"string"}],"stateMutability":"view","type":"function"},{"inputs":[{"internalType":"address","name":"to","type":"address"},{"internalType":"uint256","name":"tokenId","type":"uint256"}],"name":"approve","outputs":[],"stateMutability":"nonpayable","type":"function"},{"inputs":[{"internalType":"address","name":"account","type":"address"}],"name":"balanceOf","outputs":[{"internalType":"uint256","name":"","type":"uint256"}],"stateMutability":"view","type":"function"},{"inputs":[],"name":"baseURI","outputs":[{"internalType":"string","name":"","type":"string"}],"stateMutability":"view","type":"function"},{"inputs":[{"internalType":"uint256","name":"achievementTypeId","type":"uint256"},{"internalType":"uint256","name":"timestamp","type":"uint256"},{"internalType":"string","name":"gameId","type":"string"},{"internalType":"string","name":"metadata","type":"string"},{"internalType":"uint8","name":"v","type":"uint8"},{"internalType":"bytes32","name":"r","type":"bytes32"},{"internalType":"bytes32","name":"s","type":"bytes32"}],"name":"claimNFT","outputs":[{"internalType":"uint256","name":"","type":"uint256"}],"stateMutability":"payable","type":"function"},{"inputs":[{"internalType":"bytes32","name":"","type":"bytes32"}],"name":"claimRecord","outputs":[{"internalType":"bool","name":"","type":"bool"}],"stateMutability":"view","type":"function"},{"inputs":[{"internalType":"uint256","name":"tokenId","type":"uint256"}],"name":"getApproved","outputs":[{"internalType":"address","name":"","type":"address"}],"stateMutability":"view","type":"function"},{"inputs":[{"internalType":"uint256","name":"achievementTypeId","type":"uint256"}],"name":"getMonthlyRemaining","outputs":[{"internalType":"uint256","name":"","type":"uint256"}],"stateMutability":"view","type":"function"},{"inputs":[{"internalType":"address","name":"owner_","type":"address"},{"internalType":"address","name":"operator","type":"address"}],"name":"isApprovedForAll","outputs":[{"internalType":"bool","name":"","type":"bool"}],"stateMutability":"view","type":"function"},{"inputs":[{"internalType":"uint256","name":"","type":"uint256"},{"internalType":"uint256","name":"","type":"uint256"}],"name":"monthlyMinted","outputs":[{"internalType":"uint256","name":"","type":"uint256"}],"stateMutability":"view","type":"function"},{"inputs":[],"name":"name","outputs":[{"internalType":"string","name":"","type":"string"}],"stateMutability":"view","type":"function"},{"inputs":[],"name":"owner","outputs":[{"internalType":"address","name":"","type":"address"}],"stateMutability":"view","type":"function"},{"inputs":[{"internalType":"uint256","name":"tokenId","type":"uint256"}],"name":"ownerOf","outputs":[{"internalType":"address","name":"","type":"address"}],"stateMutability":"view","type":"function"},{"inputs":[{"internalType":"address","name":"from","type":"address"},{"internalType":"address","name":"to","type":"address"},{"internalType":"uint256","name":"tokenId","type":"uint256"}],"name":"safeTransferFrom","outputs":[],"stateMutability":"nonpayable","type":"function"},{"inputs":[{"internalType":"address","name":"operator","type":"address"},{"internalType":"bool","name":"approved","type":"bool"}],"name":"setApprovalForAll","outputs":[],"stateMutability":"nonpayable","type":"function"},{"inputs":[{"internalType":"string","name":"_baseURI","type":"string"}],"name":"setBaseURI","outputs":[],"stateMutability":"nonpayable","type":"function"},{"inputs":[{"internalType":"address","name":"_signer","type":"address"}],"name":"setSigner","outputs":[],"stateMutability":"nonpayable","type":"function"},{"inputs":[{"internalType":"uint256","name":"tokenId","type":"uint256"},{"internalType":"string","name":"metadata","type":"string"}],"name":"setTokenMetadata","outputs":[],"stateMutability":"nonpayable","type":"function"},{"inputs":[],"name":"signatureValidity","outputs":[{"internalType":"uint256","name":"","type":"uint256"}],"stateMutability":"view","type":"function"},{"inputs":[],"name":"signer","outputs":[{"internalType":"address","name":"","type":"address"}],"stateMutability":"view","type":"function"},{"inputs":[{"internalType":"bytes4","name":"interfaceId","type":"bytes4"}],"name":"supportsInterface","outputs":[{"internalType":"bool","name":"","type":"bool"}],"stateMutability":"pure","type":"function"},{"inputs":[],"name":"symbol","outputs":[{"internalType":"string","name":"","type":"string"}],"stateMutability":"view","type":"function"},{"inputs":[{"internalType":"uint256","name":"","type":"uint256"}],"name":"tokenAchievementType","outputs":[{"internalType":"uint256","name":"","type":"uint256"}],"stateMutability":"view","type":"function"},{"inputs":[{"internalType":"uint256","name":"","type":"uint256"}],"name":"tokenMetadata","outputs":[{"internalType":"string","name":"","type":"string"}],"stateMutability":"view","type":"function"},{"inputs":[{"internalType":"uint256","name":"tokenId","type":"uint256"}],"name":"tokenURI","outputs":[{"internalType":"string","name":"","type":"string"}],"stateMutability":"view","type":"function"},{"inputs":[{"internalType":"address","name":"from","type":"address"},{"internalType":"address","name":"to","type":"address"},{"internalType":"uint256","name":"tokenId","type":"uint256"}],"name":"transferFrom","outputs":[],"stateMutability":"nonpayable","type":"function"},{"inputs":[{"internalType":"uint256","name":"achievementTypeId","type":"uint256"},{"internalType":"uint256","name":"monthlyLimit","type":"uint256"},{"internalType":"uint256","name":"mintPrice","type":"uint256"}],"name":"updateAchievement","outputs":[],"stateMutability":"nonpayable","type":"function"},{"inputs":[],"name":"withdraw","outputs":[],"stateMutability":"nonpayable","type":"function"},{"stateMutability":"payable","type":"receive"}],"evm":{"bytecode":{"linkReferences":{},"object":"60803461064f57601f6120a538819003918201601f19168301916001600160401b038311848410176106535780849260209460405283398101031261064f57516001600160a01b0381169081900361064f5761005b5f54610667565b601f8111610608575b507f506f6b657220416368696576656d656e74204e4654000000000000000000002a5f5560015461009490610667565b601f81116105c0575b50600a64141053919560da1b0160015562093a80600555801561058a57600380546001600160a01b031990811633179091556004805490911691909117905560015f52600a6020527fbbc70db1b6c7afd11e79c0fb0051300458f1a3acb8ee9789d9b6b26c61ad9bc7805461011190610667565b601f8111610560575b507f526f79616c20466c7573680000000000000000000000000000000000000000169055600a7f72c6bfb7988af3a1efa6568f02a999bc52252641c659d85961ca3d372b57d5cf819055624c4b407fd421a5181c571bba3f01190c922c3b2a896fc1d84e86c9f17ac10e67ebef8b5c5560025f526020527fbff4442b8ed600beeb8e26b1279a0f0d14c6edfaec26d968ee13c86f7d4c2ba880546101c7906101c190610667565b8261069f565b7f537472616967687420466c75736800000000000000000000000000000000001c905560147fa50eece07c7db1631545c0069bd8f5f54d5935e215d59097edf258a44ba9163455624c4b407f5d6016397a73f5e079297ac5a36fef17b4d9c3831618e63ab105738020ddd7205560035f52600a6020527fa856840544dc26124927add067d799967eac11be13e14d82cc281ea46fa39759805461026d906101c190610667565b7f466f7572206f662061204b696e6400000000000000000000000000000000001c905560327f64c15cc42be7899b001f818cf4433057002112c418d1d3a67cd5cb453051d33e55624c4b407fc0da782485e77ae272268ae0a3ff44c1552ecb60b3743924de17a815e0a3cfd75560045f52600a6020527fe1eb2b2161a492c07c5a334e48012567cba93ec021043f53c1955516a3c5a841805461030f90610667565b601f8111610536575b507f46756c6c20486f75736500000000000000000000000000000000000000000014905560647f12d0c11577e2f0950f57c455c117796550b79f444811db8ba2f69c57b646c78455624c4b407f5b84bb9e0f5aa9cc45a8bb66468db5d4816d1e75ff86b5e1f1dd8d144dab80975560055f52600a6020527ff35035bc2b01d44bd35a1dcdc552315cffb73da35cfd60570b7b777f98036f9f80546103bb90610667565b601f811161050c575b50600a6408cd8eae6d60db1b01905560c87febae6141bae5521e99e0a8d610356b0f501fea54980b59c84841db43ba7204f455624c4b407f2cd9ebf6ff19cdd7ffcc447d7c7d47b5991f5c7392a04512134e765802361fa65560065f52600a6020527f10d9dd018e4cae503383c9f804c1c1603ada5856ee7894375d9b97cd8c8b27db805461045290610667565b601f81116104e2575b507f5374726169676874000000000000000000000000000000000000000000000010905560065f5261012c7f0387e9d1203691d8e3362a7e4c6723de358a4010d7f31ecbec3fbfc61d1c75fc55600c602052624c4b407f980f427e00e74f6d338adfccc7468518c8c8ea00836d0dce98c5fe154e17bf2b556040516119d290816106d38239f35b815f52601f60205f20910160051c8101905b818110610501575061045b565b5f81556001016104f4565b815f52601f60205f20910160051c8101905b81811061052b57506103c4565b5f815560010161051e565b815f52601f60205f20910160051c8101905b8181106105555750610318565b5f8155600101610548565b815f52601f60205f20910160051c8101905b81811061057f575061011a565b5f8155600101610572565b60405162461bcd60e51b815260206004820152600e60248201526d24b73b30b634b21039b4b3b732b960911b6044820152606490fd5b60015f52601f0160051c7fb10e2d527612073b26eecdfd717e6a320cf44b4afac2b0732d9fcbe2b7fa0cf6908101905b8181106105fd575061009d565b5f81556001016105f0565b5f8052601f0160051c7f290decd9548b62a8d60345a988386fc84ba6bc95484008f6362f93160ef3e563908101905b8181106106445750610064565b5f8155600101610637565b5f80fd5b634e487b7160e01b5f52604160045260245ffd5b90600182811c92168015610695575b602083101461068157565b634e487b7160e01b5f52602260045260245ffd5b91607f1691610676565b601f82116106ab575050565b5f52601f60205f20910160051c8101905b8181106106c7575050565b5f81556001016106bc56fe608080604052600436101561001c575b50361561001a575f80fd5b005b5f3560e01c90816301ffc9a7146112515750806306fdde0314611235578063081812fc146111e1578063095ea7b3146110c0578063238ac9331461109857806323b872dd1461104e5780633ccfd60b1461105357806342842e0e1461104e5780634c34938514611024578063510ef1de14610ead57806355f804b314610d425780635a98e56614610d185780636352211e14610ce857806364e4b8c214610ccb5780636914db6014610ca15780636c0360eb14610c0f5780636c19e78314610b805780636d8e89d014610b5657806370a0823114610b1357806371f79dc514610ae9578063852424ae14610aba5780638da5cb5b14610a9257806395d89b41146109c8578063a22cb4651461093f578063aa599a8f146108d4578063c2dce5761461089e578063c87b56dd1461086f578063e985e9c51461080d578063f91cc013146107a55763ffbfaec314610172575f61000f565b60e03660031901126107a15760243560043560443567ffffffffffffffff81116107a1576101a490369060040161158f565b909260643567ffffffffffffffff81116107a1576101c690369060040161158f565b92909460843560ff81168091036107a157600186101580610796575b6101eb90611691565b855f52600c60205260405f2054341061075a5760055461020b8186611821565b42116107215761021b9085611806565b42106106dc57610229611921565b5f52600d60205260405f20865f5260205260405f2054865f52600b60205260405f2054111561069f575f6080602092604051848101903360601b988983528b60348301526054820152878760748301376102966074828a810188838201520301601f1981018352826112dc565b519020604051858101917f19457468657265756d205369676e6564204d6573736167653a0a3332000000008352603c820152603c81526102d7605c826112dc565b519020906040519182528482015260a435604082015260c435606082015282805260015afa1561050c575f516004546001600160a01b03908116911603610666576020603461034492846040519586928584019889528484013781018883820152030180845201826112dc565b519020805f52600e60205260ff60405f20541661062f575f52600e60205260405f20600160ff1982541617905561037c600254611813565b908160025561038c331515611656565b5f828152600660205260409020546001600160a01b03166105fb57335f52600760205260405f20805490600182018092116105e757555f82815260066020526040812080546001600160a01b0319163390811790915583917fddf252ad1be2c89b69c2b068fc378daa952ba7f163c4a11628f55a4df523b3ef8180a4815f52600f6020528260405f2055815f52601060205260405f209067ffffffffffffffff81116105d35761043c82546112a4565b601f811161058e575b505f601f821160011461052b5781929394955f92610520575b50508160011b915f199060031b1c19161790555b61047a611921565b5f52600d60205260405f20825f5260205260405f206104998154611813565b9055815f52600c60205260405f20548034116104e8575b50806020926040519081527f226d2a645d7edd4fc8d019b3eae722231277e0665965dba0c711be16ef35ba9e843392a3604051908152f35b5f80806104f6819434611806565b818115610517575b3390f11561050c575f6104b0565b6040513d5f823e3d90fd5b506108fc6104fe565b013590505f8061045e565b601f19821695835f5260205f20915f5b8881106105765750836001959697981061055d575b505050811b019055610472565b01355f19600384901b60f8161c191690555f8080610550565b9092602060018192868601358155019401910161053b565b825f5260205f20601f830160051c810191602084106105c9575b601f0160051c01905b8181106105be5750610445565b5f81556001016105b1565b90915081906105a8565b634e487b7160e01b5f52604160045260245ffd5b634e487b7160e01b5f52601160045260245ffd5b60405162461bcd60e51b815260206004820152600c60248201526b546f6b656e2065786973747360a01b6044820152606490fd5b60405162461bcd60e51b815260206004820152600f60248201526e105b1c9958591e4818db185a5b5959608a1b6044820152606490fd5b60405162461bcd60e51b8152602060048201526011602482015270496e76616c6964207369676e617475726560781b6044820152606490fd5b60405162461bcd60e51b8152602060048201526015602482015274135bdb9d1a1b1e481b1a5b5a5d081c995858da1959605a1b6044820152606490fd5b60405162461bcd60e51b815260206004820152601760248201527f5369676e6174757265206e6f742076616c6964207965740000000000000000006044820152606490fd5b60405162461bcd60e51b815260206004820152601160248201527014da59db985d1d5c9948195e1c1a5c9959607a1b6044820152606490fd5b60405162461bcd60e51b8152602060048201526014602482015273125b9cdd59999a58da595b9d081c185e5b595b9d60621b6044820152606490fd5b5060068611156101e2565b5f80fd5b346107a15760203660031901126107a1576004356107c1611921565b5f52600d60205260405f20815f5260205260405f2054905f52600b60205260405f2054808210155f146107fc57505060205f5b604051908152f35b60209161080891611806565b6107f4565b346107a15760403660031901126107a1576108266113c8565b602435906001600160a01b03821682036107a15760018060a01b03165f52600960205260405f209060018060a01b03165f52602052602060ff60405f2054166040519015158152f35b346107a15760203660031901126107a15761089a61088e6004356116cc565b6040519182918261139e565b0390f35b346107a15760403660031901126107a1576004355f52600d60205260405f206024355f52602052602060405f2054604051908152f35b346107a15760603660031901126107a1576004356108fd60018060a01b036003541633146115f9565b600181101580610934575b61091190611691565b805f52600b60205260243560405f20555f52600c60205260443560405f20555f80f35b506006811115610908565b346107a15760403660031901126107a1576109586113c8565b602435908115158092036107a157335f52600960205260405f2060018060a01b0382165f5260205260405f2060ff1981541660ff841617905560405191825260018060a01b0316907f17307eab39ab6107e8899845ad3d59bd9653f200f220920489ca2b5937696c3160203392a3005b346107a1575f3660031901126107a1576040515f6001546109e8816112a4565b8084529060018116908115610a6e5750600114610a10575b61089a8361088e818503826112dc565b60015f9081527fb10e2d527612073b26eecdfd717e6a320cf44b4afac2b0732d9fcbe2b7fa0cf6939250905b808210610a545750909150810160200161088e610a00565b919260018160209254838588010152019101909291610a3c565b60ff191660208086019190915291151560051b8401909101915061088e9050610a00565b346107a1575f3660031901126107a1576003546040516001600160a01b039091168152602090f35b346107a15760203660031901126107a1576004355f52600e602052602060ff60405f2054166040519015158152f35b346107a15760203660031901126107a1576004355f52600c602052602060405f2054604051908152f35b346107a15760203660031901126107a1576001600160a01b03610b346113c8565b16610b40811515611656565b5f526007602052602060405f2054604051908152f35b346107a15760203660031901126107a1576004355f52600a60205261089a61088e60405f206112fe565b346107a15760203660031901126107a157610b996113c8565b610bae60018060a01b036003541633146115f9565b6001600160a01b03168015610bd9576bffffffffffffffffffffffff60a01b60045416176004555f80f35b60405162461bcd60e51b815260206004820152600e60248201526d24b73b30b634b21039b4b3b732b960911b6044820152606490fd5b346107a1575f3660031901126107a1576040515f601154610c2f816112a4565b8084529060018116908115610a6e5750600114610c565761089a8361088e818503826112dc565b60115f9081525f51602061197d5f395f51905f52939250905b808210610c875750909150810160200161088e610a00565b919260018160209254838588010152019101909291610c6f565b346107a15760203660031901126107a1576004355f52601060205261089a61088e60405f206112fe565b346107a1575f3660031901126107a1576020600554604051908152f35b346107a15760203660031901126107a1576020610d06600435611631565b6040516001600160a01b039091168152f35b346107a15760203660031901126107a1576004355f52600b602052602060405f2054604051908152f35b346107a15760203660031901126107a15760043567ffffffffffffffff81116107a157610d7390369060040161158f565b610d8860018060a01b036003541633146115f9565b67ffffffffffffffff81116105d357610da26011546112a4565b601f8111610e49575b505f601f8211600114610de45781925f92610dd9575b50505f19600383901b1c191660019190911b17601155005b013590508280610dc1565b601f198216925f51602061197d5f395f51905f52915f5b858110610e3157508360019510610e18575b505050811b01601155005b01355f19600384901b60f8161c19169055828080610e0d565b90926020600181928686013581550194019101610dfb565b601f820160051c5f51602061197d5f395f51905f52019060208310610e98575b601f0160051c5f51602061197d5f395f51905f5201905b818110610e8d5750610dab565b5f8155600101610e80565b5f51602061197d5f395f51905f529150610e69565b346107a15760403660031901126107a15760043560243567ffffffffffffffff81116107a157610ee190369060040161158f565b9091610ef860018060a01b036003541633146115f9565b5f81815260066020526040902054610f1a906001600160a01b031615156115bd565b5f52601060205260405f209067ffffffffffffffff81116105d357610f3f82546112a4565b601f8111610fdf575b505f601f8211600114610f81578192935f92610f76575b50505f19600383901b1c191660019190911b179055005b013590508380610f5f565b601f19821693835f5260205f20915f5b868110610fc75750836001959610610fae575b505050811b019055005b01355f19600384901b60f8161c19169055838080610fa4565b90926020600181928686013581550194019101610f91565b825f5260205f20601f830160051c8101916020841061101a575b601f0160051c01905b81811061100f5750610f48565b5f8155600101611002565b9091508190610ff9565b346107a15760203660031901126107a1576004355f52600f602052602060405f2054604051908152f35b6113de565b346107a1575f3660031901126107a1575f80808060018060a01b036003541661107d8133146115f9565b479082821561108f575bf11561050c57005b506108fc611087565b346107a1575f3660031901126107a1576004546040516001600160a01b039091168152602090f35b346107a15760403660031901126107a1576110d96113c8565b602435906001600160a01b036110ee83611631565b6001600160a01b0390921691168181146111ac57803314801561118a575b15611154575f83815260086020526040812080546001600160a01b031916841790557f8c5be1e5ebec7d5bd14f71427d1e84f3dd0314c0f7b2291e5b200ac8c7c3b9259080a4005b60405162461bcd60e51b815260206004820152600e60248201526d139bdd08185d5d1a1bdc9a5e995960921b6044820152606490fd5b505f81815260096020908152604080832033845290915290205460ff1661110c565b60405162461bcd60e51b815260206004820152600d60248201526c14d95b198b585c1c1c9bdd985b609a1b6044820152606490fd5b346107a15760203660031901126107a1576004355f81815260066020526040902054611217906001600160a01b031615156115bd565b5f526008602052602060018060a01b0360405f205416604051908152f35b346107a1575f3660031901126107a15761089a61088e5f6112fe565b346107a15760203660031901126107a1576004359063ffffffff60e01b82168092036107a1576020916380ac58cd60e01b8114908115611293575b5015158152f35b635b5e139f60e01b1490508361128c565b90600182811c921680156112d2575b60208310146112be57565b634e487b7160e01b5f52602260045260245ffd5b91607f16916112b3565b90601f8019910116810190811067ffffffffffffffff8211176105d357604052565b9060405191825f825492611311846112a4565b808452936001811690811561137c5750600114611338575b50611336925003836112dc565b565b90505f9291925260205f20905f915b818310611360575050906020611336928201015f611329565b6020919350806001915483858901015201910190918492611347565b90506020925061133694915060ff191682840152151560051b8201015f611329565b602060409281835280519182918282860152018484015e5f828201840152601f01601f1916010190565b600435906001600160a01b03821682036107a157565b346107a15760603660031901126107a1576004356001600160a01b038116908181036107a157506024356001600160a01b038116908181036107a15750604435916001600160a01b0361143084611631565b1680331490811561156f575b811561154c575b501561151857806001600160a01b0361145b85611631565b16036114e55761146c821515611656565b805f52600760205260405f208054905f1982019182116105e75755815f52600760205260405f20805490600182018092116105e757555f83815260066020526040812080546001600160a01b031916841790557fddf252ad1be2c89b69c2b068fc378daa952ba7f163c4a11628f55a4df523b3ef9080a4005b60405162461bcd60e51b815260206004820152600b60248201526a2bb937b7339037bbb732b960a91b6044820152606490fd5b60405162461bcd60e51b815260206004820152600c60248201526b139bdd08185c1c1c9bdd995960a21b6044820152606490fd5b5f90815260096020908152604080832033845290915281205460ff169150611443565b5f858152600860205260409020546001600160a01b03163314915061143c565b9181601f840112156107a15782359167ffffffffffffffff83116107a157602083818601950101116107a157565b156115c457565b60405162461bcd60e51b815260206004820152600d60248201526c24b73b30b634b2103a37b5b2b760991b6044820152606490fd5b1561160057565b60405162461bcd60e51b81526020600482015260096024820152682737ba1037bbb732b960b91b6044820152606490fd5b5f908152600660205260409020546001600160a01b03166116538115156115bd565b90565b1561165d57565b60405162461bcd60e51b815260206004820152600c60248201526b5a65726f206164647265737360a01b6044820152606490fd5b1561169857565b60405162461bcd60e51b815260206004820152600c60248201526b496e76616c6964207479706560a01b6044820152606490fd5b5f818152600660205260409020546116ee906001600160a01b031615156115bd565b6011546116fa816112a4565b61171257505f52601060205261165360405f206112fe565b90805f52600f60205261173161172b60405f205461184a565b9161184a565b906040519283915f91611743816112a4565b90600181169081156117e25750600114611795575b50611653936020600194938382945192839101825e0190602f60f81b82528051928391018583015e015f838201520301601f1981018352826112dc565b90915060115f525f51602061197d5f395f51905f525f905b8282106117c4575050820160200190611653611758565b60209192939450806001915483858a010152019101859392916117ad565b60ff1916602080870191909152821515909202850190910192506116539050611758565b919082039182116105e757565b5f1981146105e75760010190565b919082018092116105e757565b67ffffffffffffffff81116105d357601f01601f191660200190565b8015611901575f81805b6118ed57506118628161182e565b9061187060405192836112dc565b808252601f1961187f8261182e565b013660208401375b809280156118e657600a810660300191826030116105e75780156105e7575f19019383518510156118d257600a9260f81b6001600160f81b0319165f1a908401601f01530491611887565b634e487b7160e01b5f52603260045260245ffd5b5050905090565b906118f9600a91611813565b910480611854565b506040516119106040826112dc565b60018152600360fc1b602082015290565b6301e1338042046107b201806107b2116105e75762278d006301e1338042060490600182018092116105e7576064810290808204606414901517156105e75761165391600c8111156119765750600c90611821565b9061182156fe31ecc21a745e3968a04e9570e4425bc18fa8019c68028196b546d1669c200c68a26469706673582212207db3b3ae0e9d64601027f7b435abc8f4ef878d5bb531636f13f49cc3f732811f64736f6c634300081b0033","opcodes":"PUSH1 0x80 CALLVALUE PUSH2 0x64F JUMPI PUSH1 0x1F PUSH2 0x20A5 CODESIZE DUP2 SWAP1 SUB SWAP2 DUP3 ADD PUSH1 0x1F NOT AND DUP4 ADD SWAP2 PUSH1 0x1 PUSH1 0x1 PUSH1 0x40 SHL SUB DUP4 GT DUP5 DUP5 LT OR PUSH2 0x653 JUMPI DUP1 DUP5 SWAP3 PUSH1 0x20 SWAP5 PUSH1 0x40 MSTORE DUP4 CODECOPY DUP2 ADD SUB SLT PUSH2 0x64F JUMPI MLOAD PUSH1 0x1 PUSH1 0x1 PUSH1 0xA0 SHL SUB DUP2 AND SWAP1 DUP2 SWAP1 SUB PUSH2 0x64F JUMPI PUSH2 0x5B PUSH0 SLOAD PUSH2 0x667 JUMP JUMPDEST PUSH1 0x1F DUP2 GT PUSH2 0x608 JUMPI JUMPDEST POP PUSH32 0x506F6B657220416368696576656D656E74204E4654000000000000000000002A PUSH0 SSTORE PUSH1 0x1 SLOAD PUSH2 0x94 SWAP1 PUSH2 0x667 JUMP JUMPDEST PUSH1 0x1F DUP2 GT PUSH2 0x5C0 JUMPI JUMPDEST POP PUSH1 0xA PUSH5 0x1410539195 PUSH1 0xDA SHL ADD PUSH1 0x1 SSTORE PUSH3 0x93A80 PUSH1 0x5 SSTORE DUP1 ISZERO PUSH2 0x58A JUMPI PUSH1 0x3 DUP1 SLOAD PUSH1 0x1 PUSH1 0x1 PUSH1 0xA0 SHL SUB NOT SWAP1 DUP2 AND CALLER OR SWAP1 SWAP2 SSTORE PUSH1 0x4 DUP1 SLOAD SWAP1 SWAP2 AND SWAP2 SWAP1 SWAP2 OR SWAP1 SSTORE PUSH1 0x1 PUSH0 MSTORE PUSH1 0xA PUSH1 0x20 MSTORE PUSH32 0xBBC70DB1B6C7AFD11E79C0FB0051300458F1A3ACB8EE9789D9B6B26C61AD9BC7 DUP1 SLOAD PUSH2 0x111 SWAP1 PUSH2 0x667 JUMP JUMPDEST PUSH1 0x1F DUP2 GT PUSH2 0x560 JUMPI JUMPDEST POP PUSH32 0x526F79616C20466C757368000000000000000000000000000000000000000016 SWAP1 SSTORE PUSH1 0xA PUSH32 0x72C6BFB7988AF3A1EFA6568F02A999BC52252641C659D85961CA3D372B57D5CF DUP2 SWAP1 SSTORE PUSH3 0x4C4B40 PUSH32 0xD421A5181C571BBA3F01190C922C3B2A896FC1D84E86C9F17AC10E67EBEF8B5C SSTORE PUSH1 0x2 PUSH0 MSTORE PUSH1 0x20 MSTORE PUSH32 0xBFF4442B8ED600BEEB8E26B1279A0F0D14C6EDFAEC26D968EE13C86F7D4C2BA8 DUP1 SLOAD PUSH2 0x1C7 SWAP1 PUSH2 0x1C1 SWAP1 PUSH2 0x667 JUMP JUMPDEST DUP3 PUSH2 0x69F JUMP JUMPDEST PUSH32 0x537472616967687420466C75736800000000000000000000000000000000001C SWAP1 SSTORE PUSH1 0x14 PUSH32 0xA50EECE07C7DB1631545C0069BD8F5F54D5935E215D59097EDF258A44BA91634 SSTORE PUSH3 0x4C4B40 PUSH32 0x5D6016397A73F5E079297AC5A36FEF17B4D9C3831618E63AB105738020DDD720 SSTORE PUSH1 0x3 PUSH0 MSTORE PUSH1 0xA PUSH1 0x20 MSTORE PUSH32 0xA856840544DC26124927ADD067D799967EAC11BE13E14D82CC281EA46FA39759 DUP1 SLOAD PUSH2 0x26D SWAP1 PUSH2 0x1C1 SWAP1 PUSH2 0x667 JUMP JUMPDEST PUSH32 0x466F7572206F662061204B696E6400000000000000000000000000000000001C SWAP1 SSTORE PUSH1 0x32 PUSH32 0x64C15CC42BE7899B001F818CF4433057002112C418D1D3A67CD5CB453051D33E SSTORE PUSH3 0x4C4B40 PUSH32 0xC0DA782485E77AE272268AE0A3FF44C1552ECB60B3743924DE17A815E0A3CFD7 SSTORE PUSH1 0x4 PUSH0 MSTORE PUSH1 0xA PUSH1 0x20 MSTORE PUSH32 0xE1EB2B2161A492C07C5A334E48012567CBA93EC021043F53C1955516A3C5A841 DUP1 SLOAD PUSH2 0x30F SWAP1 PUSH2 0x667 JUMP JUMPDEST PUSH1 0x1F DUP2 GT PUSH2 0x536 JUMPI JUMPDEST POP PUSH32 0x46756C6C20486F75736500000000000000000000000000000000000000000014 SWAP1 SSTORE PUSH1 0x64 PUSH32 0x12D0C11577E2F0950F57C455C117796550B79F444811DB8BA2F69C57B646C784 SSTORE PUSH3 0x4C4B40 PUSH32 0x5B84BB9E0F5AA9CC45A8BB66468DB5D4816D1E75FF86B5E1F1DD8D144DAB8097 SSTORE PUSH1 0x5 PUSH0 MSTORE PUSH1 0xA PUSH1 0x20 MSTORE PUSH32 0xF35035BC2B01D44BD35A1DCDC552315CFFB73DA35CFD60570B7B777F98036F9F DUP1 SLOAD PUSH2 0x3BB SWAP1 PUSH2 0x667 JUMP JUMPDEST PUSH1 0x1F DUP2 GT PUSH2 0x50C JUMPI JUMPDEST POP PUSH1 0xA PUSH5 0x8CD8EAE6D PUSH1 0xDB SHL ADD SWAP1 SSTORE PUSH1 0xC8 PUSH32 0xEBAE6141BAE5521E99E0A8D610356B0F501FEA54980B59C84841DB43BA7204F4 SSTORE PUSH3 0x4C4B40 PUSH32 0x2CD9EBF6FF19CDD7FFCC447D7C7D47B5991F5C7392A04512134E765802361FA6 SSTORE PUSH1 0x6 PUSH0 MSTORE PUSH1 0xA PUSH1 0x20 MSTORE PUSH32 0x10D9DD018E4CAE503383C9F804C1C1603ADA5856EE7894375D9B97CD8C8B27DB DUP1 SLOAD PUSH2 0x452 SWAP1 PUSH2 0x667 JUMP JUMPDEST PUSH1 0x1F DUP2 GT PUSH2 0x4E2 JUMPI JUMPDEST POP PUSH32 0x5374726169676874000000000000000000000000000000000000000000000010 SWAP1 SSTORE PUSH1 0x6 PUSH0 MSTORE PUSH2 0x12C PUSH32 0x387E9D1203691D8E3362A7E4C6723DE358A4010D7F31ECBEC3FBFC61D1C75FC SSTORE PUSH1 0xC PUSH1 0x20 MSTORE PUSH3 0x4C4B40 PUSH32 0x980F427E00E74F6D338ADFCCC7468518C8C8EA00836D0DCE98C5FE154E17BF2B SSTORE PUSH1 0x40 MLOAD PUSH2 0x19D2 SWAP1 DUP2 PUSH2 0x6D3 DUP3 CODECOPY RETURN JUMPDEST DUP2 PUSH0 MSTORE PUSH1 0x1F PUSH1 0x20 PUSH0 KECCAK256 SWAP2 ADD PUSH1 0x5 SHR DUP2 ADD SWAP1 JUMPDEST DUP2 DUP2 LT PUSH2 0x501 JUMPI POP PUSH2 0x45B JUMP JUMPDEST PUSH0 DUP2 SSTORE PUSH1 0x1 ADD PUSH2 0x4F4 JUMP JUMPDEST DUP2 PUSH0 MSTORE PUSH1 0x1F PUSH1 0x20 PUSH0 KECCAK256 SWAP2 ADD PUSH1 0x5 SHR DUP2 ADD SWAP1 JUMPDEST DUP2 DUP2 LT PUSH2 0x52B JUMPI POP PUSH2 0x3C4 JUMP JUMPDEST PUSH0 DUP2 SSTORE PUSH1 0x1 ADD PUSH2 0x51E JUMP JUMPDEST DUP2 PUSH0 MSTORE PUSH1 0x1F PUSH1 0x20 PUSH0 KECCAK256 SWAP2 ADD PUSH1 0x5 SHR DUP2 ADD SWAP1 JUMPDEST DUP2 DUP2 LT PUSH2 0x555 JUMPI POP PUSH2 0x318 JUMP JUMPDEST PUSH0 DUP2 SSTORE PUSH1 0x1 ADD PUSH2 0x548 JUMP JUMPDEST DUP2 PUSH0 MSTORE PUSH1 0x1F PUSH1 0x20 PUSH0 KECCAK256 SWAP2 ADD PUSH1 0x5 SHR DUP2 ADD SWAP1 JUMPDEST DUP2 DUP2 LT PUSH2 0x57F JUMPI POP PUSH2 0x11A JUMP JUMPDEST PUSH0 DUP2 SSTORE PUSH1 0x1 ADD PUSH2 0x572 JUMP JUMPDEST PUSH1 0x40 MLOAD PUSH3 0x461BCD PUSH1 0xE5 SHL DUP2 MSTORE PUSH1 0x20 PUSH1 0x4 DUP3 ADD MSTORE PUSH1 0xE PUSH1 0x24 DUP3 ADD MSTORE PUSH14 0x24B73B30B634B21039B4B3B732B9 PUSH1 0x91 SHL PUSH1 0x44 DUP3 ADD MSTORE PUSH1 0x64 SWAP1 REVERT JUMPDEST PUSH1 0x1 PUSH0 MSTORE PUSH1 0x1F ADD PUSH1 0x5 SHR PUSH32 0xB10E2D527612073B26EECDFD717E6A320CF44B4AFAC2B0732D9FCBE2B7FA0CF6 SWAP1 DUP2 ADD SWAP1 JUMPDEST DUP2 DUP2 LT PUSH2 0x5FD JUMPI POP PUSH2 0x9D JUMP JUMPDEST PUSH0 DUP2 SSTORE PUSH1 0x1 ADD PUSH2 0x5F0 JUMP JUMPDEST PUSH0 DUP1 MSTORE PUSH1 0x1F ADD PUSH1 0x5 SHR PUSH32 0x290DECD9548B62A8D60345A988386FC84BA6BC95484008F6362F93160EF3E563 SWAP1 DUP2 ADD SWAP1 JUMPDEST DUP2 DUP2 LT PUSH2 0x644 JUMPI POP PUSH2 0x64 JUMP JUMPDEST PUSH0 DUP2 SSTORE PUSH1 0x1 ADD PUSH2 0x637 JUMP JUMPDEST PUSH0 DUP1 REVERT JUMPDEST PUSH4 0x4E487B71 PUSH1 0xE0 SHL PUSH0 MSTORE PUSH1 0x41 PUSH1 0x4 MSTORE PUSH1 0x24 PUSH0 REVERT JUMPDEST SWAP1 PUSH1 0x1 DUP3 DUP2 SHR SWAP3 AND DUP1 ISZERO PUSH2 0x695 JUMPI JUMPDEST PUSH1 0x20 DUP4 LT EQ PUSH2 0x681 JUMPI JUMP JUMPDEST PUSH4 0x4E487B71 PUSH1 0xE0 SHL PUSH0 MSTORE PUSH1 0x22 PUSH1 0x4 MSTORE PUSH1 0x24 PUSH0 REVERT JUMPDEST SWAP2 PUSH1 0x7F AND SWAP2 PUSH2 0x676 JUMP JUMPDEST PUSH1 0x1F DUP3 GT PUSH2 0x6AB JUMPI POP POP JUMP JUMPDEST PUSH0 MSTORE PUSH1 0x1F PUSH1 0x20 PUSH0 KECCAK256 SWAP2 ADD PUSH1 0x5 SHR DUP2 ADD SWAP1 JUMPDEST DUP2 DUP2 LT PUSH2 0x6C7 JUMPI POP POP JUMP JUMPDEST PUSH0 DUP2 SSTORE PUSH1 0x1 ADD PUSH2 0x6BC JUMP INVALID PUSH1 0x80 DUP1 PUSH1 0x40 MSTORE PUSH1 0x4 CALLDATASIZE LT ISZERO PUSH2 0x1C JUMPI JUMPDEST POP CALLDATASIZE ISZERO PUSH2 0x1A JUMPI PUSH0 DUP1 REVERT JUMPDEST STOP JUMPDEST PUSH0 CALLDATALOAD PUSH1 0xE0 SHR SWAP1 DUP2 PUSH4 0x1FFC9A7 EQ PUSH2 0x1251 JUMPI POP DUP1 PUSH4 0x6FDDE03 EQ PUSH2 0x1235 JUMPI DUP1 PUSH4 0x81812FC EQ PUSH2 0x11E1 JUMPI DUP1 PUSH4 0x95EA7B3 EQ PUSH2 0x10C0 JUMPI DUP1 PUSH4 0x238AC933 EQ PUSH2 0x1098 JUMPI DUP1 PUSH4 0x23B872DD EQ PUSH2 0x104E JUMPI DUP1 PUSH4 0x3CCFD60B EQ PUSH2 0x1053 JUMPI DUP1 PUSH4 0x42842E0E EQ PUSH2 0x104E JUMPI DUP1 PUSH4 0x4C349385 EQ PUSH2 0x1024 JUMPI DUP1 PUSH4 0x510EF1DE EQ PUSH2 0xEAD JUMPI DUP1 PUSH4 0x55F804B3 EQ PUSH2 0xD42 JUMPI DUP1 PUSH4 0x5A98E566 EQ PUSH2 0xD18 JUMPI DUP1 PUSH4 0x6352211E EQ PUSH2 0xCE8 JUMPI DUP1 PUSH4 0x64E4B8C2 EQ PUSH2 0xCCB JUMPI DUP1 PUSH4 0x6914DB60 EQ PUSH2 0xCA1 JUMPI DUP1 PUSH4 0x6C0360EB EQ PUSH2 0xC0F JUMPI DUP1 PUSH4 0x6C19E783 EQ PUSH2 0xB80 JUMPI DUP1 PUSH4 0x6D8E89D0 EQ PUSH2 0xB56 JUMPI DUP1 PUSH4 0x70A08231 EQ PUSH2 0xB13 JUMPI DUP1 PUSH4 0x71F79DC5 EQ PUSH2 0xAE9 JUMPI DUP1 PUSH4 0x852424AE EQ PUSH2 0xABA JUMPI DUP1 PUSH4 0x8DA5CB5B EQ PUSH2 0xA92 JUMPI DUP1 PUSH4 0x95D89B41 EQ PUSH2 0x9C8 JUMPI DUP1 PUSH4 0xA22CB465 EQ PUSH2 0x93F JUMPI DUP1 PUSH4 0xAA599A8F EQ PUSH2 0x8D4 JUMPI DUP1 PUSH4 0xC2DCE576 EQ PUSH2 0x89E JUMPI DUP1 PUSH4 0xC87B56DD EQ PUSH2 0x86F JUMPI DUP1 PUSH4 0xE985E9C5 EQ PUSH2 0x80D JUMPI DUP1 PUSH4 0xF91CC013 EQ PUSH2 0x7A5 JUMPI PUSH4 0xFFBFAEC3 EQ PUSH2 0x172 JUMPI PUSH0 PUSH2 0xF JUMP JUMPDEST PUSH1 0xE0 CALLDATASIZE PUSH1 0x3 NOT ADD SLT PUSH2 0x7A1 JUMPI PUSH1 0x24 CALLDATALOAD PUSH1 0x4 CALLDATALOAD PUSH1 0x44 CALLDATALOAD PUSH8 0xFFFFFFFFFFFFFFFF DUP2 GT PUSH2 0x7A1 JUMPI PUSH2 0x1A4 SWAP1 CALLDATASIZE SWAP1 PUSH1 0x4 ADD PUSH2 0x158F JUMP JUMPDEST SWAP1 SWAP3 PUSH1 0x64 CALLDATALOAD PUSH8 0xFFFFFFFFFFFFFFFF DUP2 GT PUSH2 0x7A1 JUMPI PUSH2 0x1C6 SWAP1 CALLDATASIZE SWAP1 PUSH1 0x4 ADD PUSH2 0x158F JUMP JUMPDEST SWAP3 SWAP1 SWAP5 PUSH1 0x84 CALLDATALOAD PUSH1 0xFF DUP2 AND DUP1 SWAP2 SUB PUSH2 0x7A1 JUMPI PUSH1 0x1 DUP7 LT ISZERO DUP1 PUSH2 0x796 JUMPI JUMPDEST PUSH2 0x1EB SWAP1 PUSH2 0x1691 JUMP JUMPDEST DUP6 PUSH0 MSTORE PUSH1 0xC PUSH1 0x20 MSTORE PUSH1 0x40 PUSH0 KECCAK256 SLOAD CALLVALUE LT PUSH2 0x75A JUMPI PUSH1 0x5 SLOAD PUSH2 0x20B DUP2 DUP7 PUSH2 0x1821 JUMP JUMPDEST TIMESTAMP GT PUSH2 0x721 JUMPI PUSH2 0x21B SWAP1 DUP6 PUSH2 0x1806 JUMP JUMPDEST TIMESTAMP LT PUSH2 0x6DC JUMPI PUSH2 0x229 PUSH2 0x1921 JUMP JUMPDEST PUSH0 MSTORE PUSH1 0xD PUSH1 0x20 MSTORE PUSH1 0x40 PUSH0 KECCAK256 DUP7 PUSH0 MSTORE PUSH1 0x20 MSTORE PUSH1 0x40 PUSH0 KECCAK256 SLOAD DUP7 PUSH0 MSTORE PUSH1 0xB PUSH1 0x20 MSTORE PUSH1 0x40 PUSH0 KECCAK256 SLOAD GT ISZERO PUSH2 0x69F JUMPI PUSH0 PUSH1 0x80 PUSH1 0x20 SWAP3 PUSH1 0x40 MLOAD DUP5 DUP2 ADD SWAP1 CALLER PUSH1 0x60 SHL SWAP9 DUP10 DUP4 MSTORE DUP12 PUSH1 0x34 DUP4 ADD MSTORE PUSH1 0x54 DUP3 ADD MSTORE DUP8 DUP8 PUSH1 0x74 DUP4 ADD CALLDATACOPY PUSH2 0x296 PUSH1 0x74 DUP3 DUP11 DUP2 ADD DUP9 DUP4 DUP3 ADD MSTORE SUB ADD PUSH1 0x1F NOT DUP2 ADD DUP4 MSTORE DUP3 PUSH2 0x12DC JUMP JUMPDEST MLOAD SWAP1 KECCAK256 PUSH1 0x40 MLOAD DUP6 DUP2 ADD SWAP2 PUSH32 0x19457468657265756D205369676E6564204D6573736167653A0A333200000000 DUP4 MSTORE PUSH1 0x3C DUP3 ADD MSTORE PUSH1 0x3C DUP2 MSTORE PUSH2 0x2D7 PUSH1 0x5C DUP3 PUSH2 0x12DC JUMP JUMPDEST MLOAD SWAP1 KECCAK256 SWAP1 PUSH1 0x40 MLOAD SWAP2 DUP3 MSTORE DUP5 DUP3 ADD MSTORE PUSH1 0xA4 CALLDATALOAD PUSH1 0x40 DUP3 ADD MSTORE PUSH1 0xC4 CALLDATALOAD PUSH1 0x60 DUP3 ADD MSTORE DUP3 DUP1 MSTORE PUSH1 0x1 GAS STATICCALL ISZERO PUSH2 0x50C JUMPI PUSH0 MLOAD PUSH1 0x4 SLOAD PUSH1 0x1 PUSH1 0x1 PUSH1 0xA0 SHL SUB SWAP1 DUP2 AND SWAP2 AND SUB PUSH2 0x666 JUMPI PUSH1 0x20 PUSH1 0x34 PUSH2 0x344 SWAP3 DUP5 PUSH1 0x40 MLOAD SWAP6 DUP7 SWAP3 DUP6 DUP5 ADD SWAP9 DUP10 MSTORE DUP5 DUP5 ADD CALLDATACOPY DUP2 ADD DUP9 DUP4 DUP3 ADD MSTORE SUB ADD DUP1 DUP5 MSTORE ADD DUP3 PUSH2 0x12DC JUMP JUMPDEST MLOAD SWAP1 KECCAK256 DUP1 PUSH0 MSTORE PUSH1 0xE PUSH1 0x20 MSTORE PUSH1 0xFF PUSH1 0x40 PUSH0 KECCAK256 SLOAD AND PUSH2 0x62F JUMPI PUSH0 MSTORE PUSH1 0xE PUSH1 0x20 MSTORE PUSH1 0x40 PUSH0 KECCAK256 PUSH1 0x1 PUSH1 0xFF NOT DUP3 SLOAD AND OR SWAP1 SSTORE PUSH2 0x37C PUSH1 0x2 SLOAD PUSH2 0x1813 JUMP JUMPDEST SWAP1 DUP2 PUSH1 0x2 SSTORE PUSH2 0x38C CALLER ISZERO ISZERO PUSH2 0x1656 JUMP JUMPDEST PUSH0 DUP3 DUP2 MSTORE PUSH1 0x6 PUSH1 0x20 MSTORE PUSH1 0x40 SWAP1 KECCAK256 SLOAD PUSH1 0x1 PUSH1 0x1 PUSH1 0xA0 SHL SUB AND PUSH2 0x5FB JUMPI CALLER PUSH0 MSTORE PUSH1 0x7 PUSH1 0x20 MSTORE PUSH1 0x40 PUSH0 KECCAK256 DUP1 SLOAD SWAP1 PUSH1 0x1 DUP3 ADD DUP1 SWAP3 GT PUSH2 0x5E7 JUMPI SSTORE PUSH0 DUP3 DUP2 MSTORE PUSH1 0x6 PUSH1 0x20 MSTORE PUSH1 0x40 DUP2 KECCAK256 DUP1 SLOAD PUSH1 0x1 PUSH1 0x1 PUSH1 0xA0 SHL SUB NOT AND CALLER SWAP1 DUP2 OR SWAP1 SWAP2 SSTORE DUP4 SWAP2 PUSH32 0xDDF252AD1BE2C89B69C2B068FC378DAA952BA7F163C4A11628F55A4DF523B3EF DUP2 DUP1 LOG4 DUP2 PUSH0 MSTORE PUSH1 0xF PUSH1 0x20 MSTORE DUP3 PUSH1 0x40 PUSH0 KECCAK256 SSTORE DUP2 PUSH0 MSTORE PUSH1 0x10 PUSH1 0x20 MSTORE PUSH1 0x40 PUSH0 KECCAK256 SWAP1 PUSH8 0xFFFFFFFFFFFFFFFF DUP2 GT PUSH2 0x5D3 JUMPI PUSH2 0x43C DUP3 SLOAD PUSH2 0x12A4 JUMP JUMPDEST PUSH1 0x1F DUP2 GT PUSH2 0x58E JUMPI JUMPDEST POP PUSH0 PUSH1 0x1F DUP3 GT PUSH1 0x1 EQ PUSH2 0x52B JUMPI DUP2 SWAP3 SWAP4 SWAP5 SWAP6 PUSH0 SWAP3 PUSH2 0x520 JUMPI JUMPDEST POP POP DUP2 PUSH1 0x1 SHL SWAP2 PUSH0 NOT SWAP1 PUSH1 0x3 SHL SHR NOT AND OR SWAP1 SSTORE JUMPDEST PUSH2 0x47A PUSH2 0x1921 JUMP JUMPDEST PUSH0 MSTORE PUSH1 0xD PUSH1 0x20 MSTORE PUSH1 0x40 PUSH0 KECCAK256 DUP3 PUSH0 MSTORE PUSH1 0x20 MSTORE PUSH1 0x40 PUSH0 KECCAK256 PUSH2 0x499 DUP2 SLOAD PUSH2 0x1813 JUMP JUMPDEST SWAP1 SSTORE DUP2 PUSH0 MSTORE PUSH1 0xC PUSH1 0x20 MSTORE PUSH1 0x40 PUSH0 KECCAK256 SLOAD DUP1 CALLVALUE GT PUSH2 0x4E8 JUMPI JUMPDEST POP DUP1 PUSH1 0x20 SWAP3 PUSH1 0x40 MLOAD SWAP1 DUP2 MSTORE PUSH32 0x226D2A645D7EDD4FC8D019B3EAE722231277E0665965DBA0C711BE16EF35BA9E DUP5 CALLER SWAP3 LOG3 PUSH1 0x40 MLOAD SWAP1 DUP2 MSTORE RETURN JUMPDEST PUSH0 DUP1 DUP1 PUSH2 0x4F6 DUP2 SWAP5 CALLVALUE PUSH2 0x1806 JUMP JUMPDEST DUP2 DUP2 ISZERO PUSH2 0x517 JUMPI JUMPDEST CALLER SWAP1 CALL ISZERO PUSH2 0x50C JUMPI PUSH0 PUSH2 0x4B0 JUMP JUMPDEST PUSH1 0x40 MLOAD RETURNDATASIZE PUSH0 DUP3 RETURNDATACOPY RETURNDATASIZE SWAP1 REVERT JUMPDEST POP PUSH2 0x8FC PUSH2 0x4FE JUMP JUMPDEST ADD CALLDATALOAD SWAP1 POP PUSH0 DUP1 PUSH2 0x45E JUMP JUMPDEST PUSH1 0x1F NOT DUP3 AND SWAP6 DUP4 PUSH0 MSTORE PUSH1 0x20 PUSH0 KECCAK256 SWAP2 PUSH0 JUMPDEST DUP9 DUP2 LT PUSH2 0x576 JUMPI POP DUP4 PUSH1 0x1 SWAP6 SWAP7 SWAP8 SWAP9 LT PUSH2 0x55D JUMPI JUMPDEST POP POP POP DUP2 SHL ADD SWAP1 SSTORE PUSH2 0x472 JUMP JUMPDEST ADD CALLDATALOAD PUSH0 NOT PUSH1 0x3 DUP5 SWAP1 SHL PUSH1 0xF8 AND SHR NOT AND SWAP1 SSTORE PUSH0 DUP1 DUP1 PUSH2 0x550 JUMP JUMPDEST SWAP1 SWAP3 PUSH1 0x20 PUSH1 0x1 DUP2 SWAP3 DUP7 DUP7 ADD CALLDATALOAD DUP2 SSTORE ADD SWAP5 ADD SWAP2 ADD PUSH2 0x53B JUMP JUMPDEST DUP3 PUSH0 MSTORE PUSH1 0x20 PUSH0 KECCAK256 PUSH1 0x1F DUP4 ADD PUSH1 0x5 SHR DUP2 ADD SWAP2 PUSH1 0x20 DUP5 LT PUSH2 0x5C9 JUMPI JUMPDEST PUSH1 0x1F ADD PUSH1 0x5 SHR ADD SWAP1 JUMPDEST DUP2 DUP2 LT PUSH2 0x5BE JUMPI POP PUSH2 0x445 JUMP JUMPDEST PUSH0 DUP2 SSTORE PUSH1 0x1 ADD PUSH2 0x5B1 JUMP JUMPDEST SWAP1 SWAP2 POP DUP2 SWAP1 PUSH2 0x5A8 JUMP JUMPDEST PUSH4 0x4E487B71 PUSH1 0xE0 SHL PUSH0 MSTORE PUSH1 0x41 PUSH1 0x4 MSTORE PUSH1 0x24 PUSH0 REVERT JUMPDEST PUSH4 0x4E487B71 PUSH1 0xE0 SHL PUSH0 MSTORE PUSH1 0x11 PUSH1 0x4 MSTORE PUSH1 0x24 PUSH0 REVERT JUMPDEST PUSH1 0x40 MLOAD PUSH3 0x461BCD PUSH1 0xE5 SHL DUP2 MSTORE PUSH1 0x20 PUSH1 0x4 DUP3 ADD MSTORE PUSH1 0xC PUSH1 0x24 DUP3 ADD MSTORE PUSH12 0x546F6B656E20657869737473 PUSH1 0xA0 SHL PUSH1 0x44 DUP3 ADD MSTORE PUSH1 0x64 SWAP1 REVERT JUMPDEST PUSH1 0x40 MLOAD PUSH3 0x461BCD PUSH1 0xE5 SHL DUP2 MSTORE PUSH1 0x20 PUSH1 0x4 DUP3 ADD MSTORE PUSH1 0xF PUSH1 0x24 DUP3 ADD MSTORE PUSH15 0x105B1C9958591E4818DB185A5B5959 PUSH1 0x8A SHL PUSH1 0x44 DUP3 ADD MSTORE PUSH1 0x64 SWAP1 REVERT JUMPDEST PUSH1 0x40 MLOAD PUSH3 0x461BCD PUSH1 0xE5 SHL DUP2 MSTORE PUSH1 0x20 PUSH1 0x4 DUP3 ADD MSTORE PUSH1 0x11 PUSH1 0x24 DUP3 ADD MSTORE PUSH17 0x496E76616C6964207369676E6174757265 PUSH1 0x78 SHL PUSH1 0x44 DUP3 ADD MSTORE PUSH1 0x64 SWAP1 REVERT JUMPDEST PUSH1 0x40 MLOAD PUSH3 0x461BCD PUSH1 0xE5 SHL DUP2 MSTORE PUSH1 0x20 PUSH1 0x4 DUP3 ADD MSTORE PUSH1 0x15 PUSH1 0x24 DUP3 ADD MSTORE PUSH21 0x135BDB9D1A1B1E481B1A5B5A5D081C995858DA1959 PUSH1 0x5A SHL PUSH1 0x44 DUP3 ADD MSTORE PUSH1 0x64 SWAP1 REVERT JUMPDEST PUSH1 0x40 MLOAD PUSH3 0x461BCD PUSH1 0xE5 SHL DUP2 MSTORE PUSH1 0x20 PUSH1 0x4 DUP3 ADD MSTORE PUSH1 0x17 PUSH1 0x24 DUP3 ADD MSTORE PUSH32 0x5369676E6174757265206E6F742076616C696420796574000000000000000000 PUSH1 0x44 DUP3 ADD MSTORE PUSH1 0x64 SWAP1 REVERT JUMPDEST PUSH1 0x40 MLOAD PUSH3 0x461BCD PUSH1 0xE5 SHL DUP2 MSTORE PUSH1 0x20 PUSH1 0x4 DUP3 ADD MSTORE PUSH1 0x11 PUSH1 0x24 DUP3 ADD MSTORE PUSH17 0x14DA59DB985D1D5C9948195E1C1A5C9959 PUSH1 0x7A SHL PUSH1 0x44 DUP3 ADD MSTORE PUSH1 0x64 SWAP1 REVERT JUMPDEST PUSH1 0x40 MLOAD PUSH3 0x461BCD PUSH1 0xE5 SHL DUP2 MSTORE PUSH1 0x20 PUSH1 0x4 DUP3 ADD MSTORE PUSH1 0x14 PUSH1 0x24 DUP3 ADD MSTORE PUSH20 0x125B9CDD59999A58DA595B9D081C185E5B595B9D PUSH1 0x62 SHL PUSH1 0x44 DUP3 ADD MSTORE PUSH1 0x64 SWAP1 REVERT JUMPDEST POP PUSH1 0x6 DUP7 GT ISZERO PUSH2 0x1E2 JUMP JUMPDEST PUSH0 DUP1 REVERT JUMPDEST CALLVALUE PUSH2 0x7A1 JUMPI PUSH1 0x20 CALLDATASIZE PUSH1 0x3 NOT ADD SLT PUSH2 0x7A1 JUMPI PUSH1 0x4 CALLDATALOAD PUSH2 0x7C1 PUSH2 0x1921 JUMP JUMPDEST PUSH0 MSTORE PUSH1 0xD PUSH1 0x20 MSTORE PUSH1 0x40 PUSH0 KECCAK256 DUP2 PUSH0 MSTORE PUSH1 0x20 MSTORE PUSH1 0x40 PUSH0 KECCAK256 SLOAD SWAP1 PUSH0 MSTORE PUSH1 0xB PUSH1 0x20 MSTORE PUSH1 0x40 PUSH0 KECCAK256 SLOAD DUP1 DUP3 LT ISZERO PUSH0 EQ PUSH2 0x7FC JUMPI POP POP PUSH1 0x20 PUSH0 JUMPDEST PUSH1 0x40 MLOAD SWAP1 DUP2 MSTORE RETURN JUMPDEST PUSH1 0x20 SWAP2 PUSH2 0x808 SWAP2 PUSH2 0x1806 JUMP JUMPDEST PUSH2 0x7F4 JUMP JUMPDEST CALLVALUE PUSH2 0x7A1 JUMPI PUSH1 0x40 CALLDATASIZE PUSH1 0x3 NOT ADD SLT PUSH2 0x7A1 JUMPI PUSH2 0x826 PUSH2 0x13C8 JUMP JUMPDEST PUSH1 0x24 CALLDATALOAD SWAP1 PUSH1 0x1 PUSH1 0x1 PUSH1 0xA0 SHL SUB DUP3 AND DUP3 SUB PUSH2 0x7A1 JUMPI PUSH1 0x1 DUP1 PUSH1 0xA0 SHL SUB AND PUSH0 MSTORE PUSH1 0x9 PUSH1 0x20 MSTORE PUSH1 0x40 PUSH0 KECCAK256 SWAP1 PUSH1 0x1 DUP1 PUSH1 0xA0 SHL SUB AND PUSH0 MSTORE PUSH1 0x20 MSTORE PUSH1 0x20 PUSH1 0xFF PUSH1 0x40 PUSH0 KECCAK256 SLOAD AND PUSH1 0x40 MLOAD SWAP1 ISZERO ISZERO DUP2 MSTORE RETURN JUMPDEST CALLVALUE PUSH2 0x7A1 JUMPI PUSH1 0x20 CALLDATASIZE PUSH1 0x3 NOT ADD SLT PUSH2 0x7A1 JUMPI PUSH2 0x89A PUSH2 0x88E PUSH1 0x4 CALLDATALOAD PUSH2 0x16CC JUMP JUMPDEST PUSH1 0x40 MLOAD SWAP2 DUP3 SWAP2 DUP3 PUSH2 0x139E JUMP JUMPDEST SUB SWAP1 RETURN JUMPDEST CALLVALUE PUSH2 0x7A1 JUMPI PUSH1 0x40 CALLDATASIZE PUSH1 0x3 NOT ADD SLT PUSH2 0x7A1 JUMPI PUSH1 0x4 CALLDATALOAD PUSH0 MSTORE PUSH1 0xD PUSH1 0x20 MSTORE PUSH1 0x40 PUSH0 KECCAK256 PUSH1 0x24 CALLDATALOAD PUSH0 MSTORE PUSH1 0x20 MSTORE PUSH1 0x20 PUSH1 0x40 PUSH0 KECCAK256 SLOAD PUSH1 0x40 MLOAD SWAP1 DUP2 MSTORE RETURN JUMPDEST CALLVALUE PUSH2 0x7A1 JUMPI PUSH1 0x60 CALLDATASIZE PUSH1 0x3 NOT ADD SLT PUSH2 0x7A1 JUMPI PUSH1 0x4 CALLDATALOAD PUSH2 0x8FD PUSH1 0x1 DUP1 PUSH1 0xA0 SHL SUB PUSH1 0x3 SLOAD AND CALLER EQ PUSH2 0x15F9 JUMP JUMPDEST PUSH1 0x1 DUP2 LT ISZERO DUP1 PUSH2 0x934 JUMPI JUMPDEST PUSH2 0x911 SWAP1 PUSH2 0x1691 JUMP JUMPDEST DUP1 PUSH0 MSTORE PUSH1 0xB PUSH1 0x20 MSTORE PUSH1 0x24 CALLDATALOAD PUSH1 0x40 PUSH0 KECCAK256 SSTORE PUSH0 MSTORE PUSH1 0xC PUSH1 0x20 MSTORE PUSH1 0x44 CALLDATALOAD PUSH1 0x40 PUSH0 KECCAK256 SSTORE PUSH0 DUP1 RETURN JUMPDEST POP PUSH1 0x6 DUP2 GT ISZERO PUSH2 0x908 JUMP JUMPDEST CALLVALUE PUSH2 0x7A1 JUMPI PUSH1 0x40 CALLDATASIZE PUSH1 0x3 NOT ADD SLT PUSH2 0x7A1 JUMPI PUSH2 0x958 PUSH2 0x13C8 JUMP JUMPDEST PUSH1 0x24 CALLDATALOAD SWAP1 DUP2 ISZERO ISZERO DUP1 SWAP3 SUB PUSH2 0x7A1 JUMPI CALLER PUSH0 MSTORE PUSH1 0x9 PUSH1 0x20 MSTORE PUSH1 0x40 PUSH0 KECCAK256 PUSH1 0x1 DUP1 PUSH1 0xA0 SHL SUB DUP3 AND PUSH0 MSTORE PUSH1 0x20 MSTORE PUSH1 0x40 PUSH0 KECCAK256 PUSH1 0xFF NOT DUP2 SLOAD AND PUSH1 0xFF DUP5 AND OR SWAP1 SSTORE PUSH1 0x40 MLOAD SWAP2 DUP3 MSTORE PUSH1 0x1 DUP1 PUSH1 0xA0 SHL SUB AND SWAP1 PUSH32 0x17307EAB39AB6107E8899845AD3D59BD9653F200F220920489CA2B5937696C31 PUSH1 0x20 CALLER SWAP3 LOG3 STOP JUMPDEST CALLVALUE PUSH2 0x7A1 JUMPI PUSH0 CALLDATASIZE PUSH1 0x3 NOT ADD SLT PUSH2 0x7A1 JUMPI PUSH1 0x40 MLOAD PUSH0 PUSH1 0x1 SLOAD PUSH2 0x9E8 DUP2 PUSH2 0x12A4 JUMP JUMPDEST DUP1 DUP5 MSTORE SWAP1 PUSH1 0x1 DUP2 AND SWAP1 DUP2 ISZERO PUSH2 0xA6E JUMPI POP PUSH1 0x1 EQ PUSH2 0xA10 JUMPI JUMPDEST PUSH2 0x89A DUP4 PUSH2 0x88E DUP2 DUP6 SUB DUP3 PUSH2 0x12DC JUMP JUMPDEST PUSH1 0x1 PUSH0 SWAP1 DUP2 MSTORE PUSH32 0xB10E2D527612073B26EECDFD717E6A320CF44B4AFAC2B0732D9FCBE2B7FA0CF6 SWAP4 SWAP3 POP SWAP1 JUMPDEST DUP1 DUP3 LT PUSH2 0xA54 JUMPI POP SWAP1 SWAP2 POP DUP2 ADD PUSH1 0x20 ADD PUSH2 0x88E PUSH2 0xA00 JUMP JUMPDEST SWAP2 SWAP3 PUSH1 0x1 DUP2 PUSH1 0x20 SWAP3 SLOAD DUP4 DUP6 DUP9 ADD ADD MSTORE ADD SWAP2 ADD SWAP1 SWAP3 SWAP2 PUSH2 0xA3C JUMP JUMPDEST PUSH1 0xFF NOT AND PUSH1 0x20 DUP1 DUP7 ADD SWAP2 SWAP1 SWAP2 MSTORE SWAP2 ISZERO ISZERO PUSH1 0x5 SHL DUP5 ADD SWAP1 SWAP2 ADD SWAP2 POP PUSH2 0x88E SWAP1 POP PUSH2 0xA00 JUMP JUMPDEST CALLVALUE PUSH2 0x7A1 JUMPI PUSH0 CALLDATASIZE PUSH1 0x3 NOT ADD SLT PUSH2 0x7A1 JUMPI PUSH1 0x3 SLOAD PUSH1 0x40 MLOAD PUSH1 0x1 PUSH1 0x1 PUSH1 0xA0 SHL SUB SWAP1 SWAP2 AND DUP2 MSTORE PUSH1 0x20 SWAP1 RETURN JUMPDEST CALLVALUE PUSH2 0x7A1 JUMPI PUSH1 0x20 CALLDATASIZE PUSH1 0x3 NOT ADD SLT PUSH2 0x7A1 JUMPI PUSH1 0x4 CALLDATALOAD PUSH0 MSTORE PUSH1 0xE PUSH1 0x20 MSTORE PUSH1 0x20 PUSH1 0xFF PUSH1 0x40 PUSH0 KECCAK256 SLOAD AND PUSH1 0x40 MLOAD SWAP1 ISZERO ISZERO DUP2 MSTORE RETURN JUMPDEST CALLVALUE PUSH2 0x7A1 JUMPI PUSH1 0x20 CALLDATASIZE PUSH1 0x3 NOT ADD SLT PUSH2 0x7A1 JUMPI PUSH1 0x4 CALLDATALOAD PUSH0 MSTORE PUSH1 0xC PUSH1 0x20 MSTORE PUSH1 0x20 PUSH1 0x40 PUSH0 KECCAK256 SLOAD PUSH1 0x40 MLOAD SWAP1 DUP2 MSTORE RETURN JUMPDEST CALLVALUE PUSH2 0x7A1 JUMPI PUSH1 0x20 CALLDATASIZE PUSH1 0x3 NOT ADD SLT PUSH2 0x7A1 JUMPI PUSH1 0x1 PUSH1 0x1 PUSH1 0xA0 SHL SUB PUSH2 0xB34 PUSH2 0x13C8 JUMP JUMPDEST AND PUSH2 0xB40 DUP2 ISZERO ISZERO PUSH2 0x1656 JUMP JUMPDEST PUSH0 MSTORE PUSH1 0x7 PUSH1 0x20 MSTORE PUSH1 0x20 PUSH1 0x40 PUSH0 KECCAK256 SLOAD PUSH1 0x40 MLOAD SWAP1 DUP2 MSTORE RETURN JUMPDEST CALLVALUE PUSH2 0x7A1 JUMPI PUSH1 0x20 CALLDATASIZE PUSH1 0x3 NOT ADD SLT PUSH2 0x7A1 JUMPI PUSH1 0x4 CALLDATALOAD PUSH0 MSTORE PUSH1 0xA PUSH1 0x20 MSTORE PUSH2 0x89A PUSH2 0x88E PUSH1 0x40 PUSH0 KECCAK256 PUSH2 0x12FE JUMP JUMPDEST CALLVALUE PUSH2 0x7A1 JUMPI PUSH1 0x20 CALLDATASIZE PUSH1 0x3 NOT ADD SLT PUSH2 0x7A1 JUMPI PUSH2 0xB99 PUSH2 0x13C8 JUMP JUMPDEST PUSH2 0xBAE PUSH1 0x1 DUP1 PUSH1 0xA0 SHL SUB PUSH1 0x3 SLOAD AND CALLER EQ PUSH2 0x15F9 JUMP JUMPDEST PUSH1 0x1 PUSH1 0x1 PUSH1 0xA0 SHL SUB AND DUP1 ISZERO PUSH2 0xBD9 JUMPI PUSH12 0xFFFFFFFFFFFFFFFFFFFFFFFF PUSH1 0xA0 SHL PUSH1 0x4 SLOAD AND OR PUSH1 0x4 SSTORE PUSH0 DUP1 RETURN JUMPDEST PUSH1 0x40 MLOAD PUSH3 0x461BCD PUSH1 0xE5 SHL DUP2 MSTORE PUSH1 0x20 PUSH1 0x4 DUP3 ADD MSTORE PUSH1 0xE PUSH1 0x24 DUP3 ADD MSTORE PUSH14 0x24B73B30B634B21039B4B3B732B9 PUSH1 0x91 SHL PUSH1 0x44 DUP3 ADD MSTORE PUSH1 0x64 SWAP1 REVERT JUMPDEST CALLVALUE PUSH2 0x7A1 JUMPI PUSH0 CALLDATASIZE PUSH1 0x3 NOT ADD SLT PUSH2 0x7A1 JUMPI PUSH1 0x40 MLOAD PUSH0 PUSH1 0x11 SLOAD PUSH2 0xC2F DUP2 PUSH2 0x12A4 JUMP JUMPDEST DUP1 DUP5 MSTORE SWAP1 PUSH1 0x1 DUP2 AND SWAP1 DUP2 ISZERO PUSH2 0xA6E JUMPI POP PUSH1 0x1 EQ PUSH2 0xC56 JUMPI PUSH2 0x89A DUP4 PUSH2 0x88E DUP2 DUP6 SUB DUP3 PUSH2 0x12DC JUMP JUMPDEST PUSH1 0x11 PUSH0 SWAP1 DUP2 MSTORE PUSH0 MLOAD PUSH1 0x20 PUSH2 0x197D PUSH0 CODECOPY PUSH0 MLOAD SWAP1 PUSH0 MSTORE SWAP4 SWAP3 POP SWAP1 JUMPDEST DUP1 DUP3 LT PUSH2 0xC87 JUMPI POP SWAP1 SWAP2 POP DUP2 ADD PUSH1 0x20 ADD PUSH2 0x88E PUSH2 0xA00 JUMP JUMPDEST SWAP2 SWAP3 PUSH1 0x1 DUP2 PUSH1 0x20 SWAP3 SLOAD DUP4 DUP6 DUP9 ADD ADD MSTORE ADD SWAP2 ADD SWAP1 SWAP3 SWAP2 PUSH2 0xC6F JUMP JUMPDEST CALLVALUE PUSH2 0x7A1 JUMPI PUSH1 0x20 CALLDATASIZE PUSH1 0x3 NOT ADD SLT PUSH2 0x7A1 JUMPI PUSH1 0x4 CALLDATALOAD PUSH0 MSTORE PUSH1 0x10 PUSH1 0x20 MSTORE PUSH2 0x89A PUSH2 0x88E PUSH1 0x40 PUSH0 KECCAK256 PUSH2 0x12FE JUMP JUMPDEST CALLVALUE PUSH2 0x7A1 JUMPI PUSH0 CALLDATASIZE PUSH1 0x3 NOT ADD SLT PUSH2 0x7A1 JUMPI PUSH1 0x20 PUSH1 0x5 SLOAD PUSH1 0x40 MLOAD SWAP1 DUP2 MSTORE RETURN JUMPDEST CALLVALUE PUSH2 0x7A1 JUMPI PUSH1 0x20 CALLDATASIZE PUSH1 0x3 NOT ADD SLT PUSH2 0x7A1 JUMPI PUSH1 0x20 PUSH2 0xD06 PUSH1 0x4 CALLDATALOAD PUSH2 0x1631 JUMP JUMPDEST PUSH1 0x40 MLOAD PUSH1 0x1 PUSH1 0x1 PUSH1 0xA0 SHL SUB SWAP1 SWAP2 AND DUP2 MSTORE RETURN JUMPDEST CALLVALUE PUSH2 0x7A1 JUMPI PUSH1 0x20 CALLDATASIZE PUSH1 0x3 NOT ADD SLT PUSH2 0x7A1 JUMPI PUSH1 0x4 CALLDATALOAD PUSH0 MSTORE PUSH1 0xB PUSH1 0x20 MSTORE PUSH1 0x20 PUSH1 0x40 PUSH0 KECCAK256 SLOAD PUSH1 0x40 MLOAD SWAP1 DUP2 MSTORE RETURN JUMPDEST CALLVALUE PUSH2 0x7A1 JUMPI PUSH1 0x20 CALLDATASIZE PUSH1 0x3 NOT ADD SLT PUSH2 0x7A1 JUMPI PUSH1 0x4 CALLDATALOAD PUSH8 0xFFFFFFFFFFFFFFFF DUP2 GT PUSH2 0x7A1 JUMPI PUSH2 0xD73 SWAP1 CALLDATASIZE SWAP1 PUSH1 0x4 ADD PUSH2 0x158F JUMP JUMPDEST PUSH2 0xD88 PUSH1 0x1 DUP1 PUSH1 0xA0 SHL SUB PUSH1 0x3 SLOAD AND CALLER EQ PUSH2 0x15F9 JUMP JUMPDEST PUSH8 0xFFFFFFFFFFFFFFFF DUP2 GT PUSH2 0x5D3 JUMPI PUSH2 0xDA2 PUSH1 0x11 SLOAD PUSH2 0x12A4 JUMP JUMPDEST PUSH1 0x1F DUP2 GT PUSH2 0xE49 JUMPI JUMPDEST POP PUSH0 PUSH1 0x1F DUP3 GT PUSH1 0x1 EQ PUSH2 0xDE4 JUMPI DUP2 SWAP3 PUSH0 SWAP3 PUSH2 0xDD9 JUMPI JUMPDEST POP POP PUSH0 NOT PUSH1 0x3 DUP4 SWAP1 SHL SHR NOT AND PUSH1 0x1 SWAP2 SWAP1 SWAP2 SHL OR PUSH1 0x11 SSTORE STOP JUMPDEST ADD CALLDATALOAD SWAP1 POP DUP3 DUP1 PUSH2 0xDC1 JUMP JUMPDEST PUSH1 0x1F NOT DUP3 AND SWAP3 PUSH0 MLOAD PUSH1 0x20 PUSH2 0x197D PUSH0 CODECOPY PUSH0 MLOAD SWAP1 PUSH0 MSTORE SWAP2 PUSH0 JUMPDEST DUP6 DUP2 LT PUSH2 0xE31 JUMPI POP DUP4 PUSH1 0x1 SWAP6 LT PUSH2 0xE18 JUMPI JUMPDEST POP POP POP DUP2 SHL ADD PUSH1 0x11 SSTORE STOP JUMPDEST ADD CALLDATALOAD PUSH0 NOT PUSH1 0x3 DUP5 SWAP1 SHL PUSH1 0xF8 AND SHR NOT AND SWAP1 SSTORE DUP3 DUP1 DUP1 PUSH2 0xE0D JUMP JUMPDEST SWAP1 SWAP3 PUSH1 0x20 PUSH1 0x1 DUP2 SWAP3 DUP7 DUP7 ADD CALLDATALOAD DUP2 SSTORE ADD SWAP5 ADD SWAP2 ADD PUSH2 0xDFB JUMP JUMPDEST PUSH1 0x1F DUP3 ADD PUSH1 0x5 SHR PUSH0 MLOAD PUSH1 0x20 PUSH2 0x197D PUSH0 CODECOPY PUSH0 MLOAD SWAP1 PUSH0 MSTORE ADD SWAP1 PUSH1 0x20 DUP4 LT PUSH2 0xE98 JUMPI JUMPDEST PUSH1 0x1F ADD PUSH1 0x5 SHR PUSH0 MLOAD PUSH1 0x20 PUSH2 0x197D PUSH0 CODECOPY PUSH0 MLOAD SWAP1 PUSH0 MSTORE ADD SWAP1 JUMPDEST DUP2 DUP2 LT PUSH2 0xE8D JUMPI POP PUSH2 0xDAB JUMP JUMPDEST PUSH0 DUP2 SSTORE PUSH1 0x1 ADD PUSH2 0xE80 JUMP JUMPDEST PUSH0 MLOAD PUSH1 0x20 PUSH2 0x197D PUSH0 CODECOPY PUSH0 MLOAD SWAP1 PUSH0 MSTORE SWAP2 POP PUSH2 0xE69 JUMP JUMPDEST CALLVALUE PUSH2 0x7A1 JUMPI PUSH1 0x40 CALLDATASIZE PUSH1 0x3 NOT ADD SLT PUSH2 0x7A1 JUMPI PUSH1 0x4 CALLDATALOAD PUSH1 0x24 CALLDATALOAD PUSH8 0xFFFFFFFFFFFFFFFF DUP2 GT PUSH2 0x7A1 JUMPI PUSH2 0xEE1 SWAP1 CALLDATASIZE SWAP1 PUSH1 0x4 ADD PUSH2 0x158F JUMP JUMPDEST SWAP1 SWAP2 PUSH2 0xEF8 PUSH1 0x1 DUP1 PUSH1 0xA0 SHL SUB PUSH1 0x3 SLOAD AND CALLER EQ PUSH2 0x15F9 JUMP JUMPDEST PUSH0 DUP2 DUP2 MSTORE PUSH1 0x6 PUSH1 0x20 MSTORE PUSH1 0x40 SWAP1 KECCAK256 SLOAD PUSH2 0xF1A SWAP1 PUSH1 0x1 PUSH1 0x1 PUSH1 0xA0 SHL SUB AND ISZERO ISZERO PUSH2 0x15BD JUMP JUMPDEST PUSH0 MSTORE PUSH1 0x10 PUSH1 0x20 MSTORE PUSH1 0x40 PUSH0 KECCAK256 SWAP1 PUSH8 0xFFFFFFFFFFFFFFFF DUP2 GT PUSH2 0x5D3 JUMPI PUSH2 0xF3F DUP3 SLOAD PUSH2 0x12A4 JUMP JUMPDEST PUSH1 0x1F DUP2 GT PUSH2 0xFDF JUMPI JUMPDEST POP PUSH0 PUSH1 0x1F DUP3 GT PUSH1 0x1 EQ PUSH2 0xF81 JUMPI DUP2 SWAP3 SWAP4 PUSH0 SWAP3 PUSH2 0xF76 JUMPI JUMPDEST POP POP PUSH0 NOT PUSH1 0x3 DUP4 SWAP1 SHL SHR NOT AND PUSH1 0x1 SWAP2 SWAP1 SWAP2 SHL OR SWAP1 SSTORE STOP JUMPDEST ADD CALLDATALOAD SWAP1 POP DUP4 DUP1 PUSH2 0xF5F JUMP JUMPDEST PUSH1 0x1F NOT DUP3 AND SWAP4 DUP4 PUSH0 MSTORE PUSH1 0x20 PUSH0 KECCAK256 SWAP2 PUSH0 JUMPDEST DUP7 DUP2 LT PUSH2 0xFC7 JUMPI POP DUP4 PUSH1 0x1 SWAP6 SWAP7 LT PUSH2 0xFAE JUMPI JUMPDEST POP POP POP DUP2 SHL ADD SWAP1 SSTORE STOP JUMPDEST ADD CALLDATALOAD PUSH0 NOT PUSH1 0x3 DUP5 SWAP1 SHL PUSH1 0xF8 AND SHR NOT AND SWAP1 SSTORE DUP4 DUP1 DUP1 PUSH2 0xFA4 JUMP JUMPDEST SWAP1 SWAP3 PUSH1 0x20 PUSH1 0x1 DUP2 SWAP3 DUP7 DUP7 ADD CALLDATALOAD DUP2 SSTORE ADD SWAP5 ADD SWAP2 ADD PUSH2 0xF91 JUMP JUMPDEST DUP3 PUSH0 MSTORE PUSH1 0x20 PUSH0 KECCAK256 PUSH1 0x1F DUP4 ADD PUSH1 0x5 SHR DUP2 ADD SWAP2 PUSH1 0x20 DUP5 LT PUSH2 0x101A JUMPI JUMPDEST PUSH1 0x1F ADD PUSH1 0x5 SHR ADD SWAP1 JUMPDEST DUP2 DUP2 LT PUSH2 0x100F JUMPI POP PUSH2 0xF48 JUMP JUMPDEST PUSH0 DUP2 SSTORE PUSH1 0x1 ADD PUSH2 0x1002 JUMP JUMPDEST SWAP1 SWAP2 POP DUP2 SWAP1 PUSH2 0xFF9 JUMP JUMPDEST CALLVALUE PUSH2 0x7A1 JUMPI PUSH1 0x20 CALLDATASIZE PUSH1 0x3 NOT ADD SLT PUSH2 0x7A1 JUMPI PUSH1 0x4 CALLDATALOAD PUSH0 MSTORE PUSH1 0xF PUSH1 0x20 MSTORE PUSH1 0x20 PUSH1 0x40 PUSH0 KECCAK256 SLOAD PUSH1 0x40 MLOAD SWAP1 DUP2 MSTORE RETURN JUMPDEST PUSH2 0x13DE JUMP JUMPDEST CALLVALUE PUSH2 0x7A1 JUMPI PUSH0 CALLDATASIZE PUSH1 0x3 NOT ADD SLT PUSH2 0x7A1 JUMPI PUSH0 DUP1 DUP1 DUP1 PUSH1 0x1 DUP1 PUSH1 0xA0 SHL SUB PUSH1 0x3 SLOAD AND PUSH2 0x107D DUP2 CALLER EQ PUSH2 0x15F9 JUMP JUMPDEST SELFBALANCE SWAP1 DUP3 DUP3 ISZERO PUSH2 0x108F JUMPI JUMPDEST CALL ISZERO PUSH2 0x50C JUMPI STOP JUMPDEST POP PUSH2 0x8FC PUSH2 0x1087 JUMP JUMPDEST CALLVALUE PUSH2 0x7A1 JUMPI PUSH0 CALLDATASIZE PUSH1 0x3 NOT ADD SLT PUSH2 0x7A1 JUMPI PUSH1 0x4 SLOAD PUSH1 0x40 MLOAD PUSH1 0x1 PUSH1 0x1 PUSH1 0xA0 SHL SUB SWAP1 SWAP2 AND DUP2 MSTORE PUSH1 0x20 SWAP1 RETURN JUMPDEST CALLVALUE PUSH2 0x7A1 JUMPI PUSH1 0x40 CALLDATASIZE PUSH1 0x3 NOT ADD SLT PUSH2 0x7A1 JUMPI PUSH2 0x10D9 PUSH2 0x13C8 JUMP JUMPDEST PUSH1 0x24 CALLDATALOAD SWAP1 PUSH1 0x1 PUSH1 0x1 PUSH1 0xA0 SHL SUB PUSH2 0x10EE DUP4 PUSH2 0x1631 JUMP JUMPDEST PUSH1 0x1 PUSH1 0x1 PUSH1 0xA0 SHL SUB SWAP1 SWAP3 AND SWAP2 AND DUP2 DUP2 EQ PUSH2 0x11AC JUMPI DUP1 CALLER EQ DUP1 ISZERO PUSH2 0x118A JUMPI JUMPDEST ISZERO PUSH2 0x1154 JUMPI PUSH0 DUP4 DUP2 MSTORE PUSH1 0x8 PUSH1 0x20 MSTORE PUSH1 0x40 DUP2 KECCAK256 DUP1 SLOAD PUSH1 0x1 PUSH1 0x1 PUSH1 0xA0 SHL SUB NOT AND DUP5 OR SWAP1 SSTORE PUSH32 0x8C5BE1E5EBEC7D5BD14F71427D1E84F3DD0314C0F7B2291E5B200AC8C7C3B925 SWAP1 DUP1 LOG4 STOP JUMPDEST PUSH1 0x40 MLOAD PUSH3 0x461BCD PUSH1 0xE5 SHL DUP2 MSTORE PUSH1 0x20 PUSH1 0x4 DUP3 ADD MSTORE PUSH1 0xE PUSH1 0x24 DUP3 ADD MSTORE PUSH14 0x139BDD08185D5D1A1BDC9A5E9959 PUSH1 0x92 SHL PUSH1 0x44 DUP3 ADD MSTORE PUSH1 0x64 SWAP1 REVERT JUMPDEST POP PUSH0 DUP2 DUP2 MSTORE PUSH1 0x9 PUSH1 0x20 SWAP1 DUP2 MSTORE PUSH1 0x40 DUP1 DUP4 KECCAK256 CALLER DUP5 MSTORE SWAP1 SWAP2 MSTORE SWAP1 KECCAK256 SLOAD PUSH1 0xFF AND PUSH2 0x110C JUMP JUMPDEST PUSH1 0x40 MLOAD PUSH3 0x461BCD PUSH1 0xE5 SHL DUP2 MSTORE PUSH1 0x20 PUSH1 0x4 DUP3 ADD MSTORE PUSH1 0xD PUSH1 0x24 DUP3 ADD MSTORE PUSH13 0x14D95B198B585C1C1C9BDD985B PUSH1 0x9A SHL PUSH1 0x44 DUP3 ADD MSTORE PUSH1 0x64 SWAP1 REVERT JUMPDEST CALLVALUE PUSH2 0x7A1 JUMPI PUSH1 0x20 CALLDATASIZE PUSH1 0x3 NOT ADD SLT PUSH2 0x7A1 JUMPI PUSH1 0x4 CALLDATALOAD PUSH0 DUP2 DUP2 MSTORE PUSH1 0x6 PUSH1 0x20 MSTORE PUSH1 0x40 SWAP1 KECCAK256 SLOAD PUSH2 0x1217 SWAP1 PUSH1 0x1 PUSH1 0x1 PUSH1 0xA0 SHL SUB AND ISZERO ISZERO PUSH2 0x15BD JUMP JUMPDEST PUSH0 MSTORE PUSH1 0x8 PUSH1 0x20 MSTORE PUSH1 0x20 PUSH1 0x1 DUP1 PUSH1 0xA0 SHL SUB PUSH1 0x40 PUSH0 KECCAK256 SLOAD AND PUSH1 0x40 MLOAD SWAP1 DUP2 MSTORE RETURN JUMPDEST CALLVALUE PUSH2 0x7A1 JUMPI PUSH0 CALLDATASIZE PUSH1 0x3 NOT ADD SLT PUSH2 0x7A1 JUMPI PUSH2 0x89A PUSH2 0x88E PUSH0 PUSH2 0x12FE JUMP JUMPDEST CALLVALUE PUSH2 0x7A1 JUMPI PUSH1 0x20 CALLDATASIZE PUSH1 0x3 NOT ADD SLT PUSH2 0x7A1 JUMPI PUSH1 0x4 CALLDATALOAD SWAP1 PUSH4 0xFFFFFFFF PUSH1 0xE0 SHL DUP3 AND DUP1 SWAP3 SUB PUSH2 0x7A1 JUMPI PUSH1 0x20 SWAP2 PUSH4 0x80AC58CD PUSH1 0xE0 SHL DUP2 EQ SWAP1 DUP2 ISZERO PUSH2 0x1293 JUMPI JUMPDEST POP ISZERO ISZERO DUP2 MSTORE RETURN JUMPDEST PUSH4 0x5B5E139F PUSH1 0xE0 SHL EQ SWAP1 POP DUP4 PUSH2 0x128C JUMP JUMPDEST SWAP1 PUSH1 0x1 DUP3 DUP2 SHR SWAP3 AND DUP1 ISZERO PUSH2 0x12D2 JUMPI JUMPDEST PUSH1 0x20 DUP4 LT EQ PUSH2 0x12BE JUMPI JUMP JUMPDEST PUSH4 0x4E487B71 PUSH1 0xE0 SHL PUSH0 MSTORE PUSH1 0x22 PUSH1 0x4 MSTORE PUSH1 0x24 PUSH0 REVERT JUMPDEST SWAP2 PUSH1 0x7F AND SWAP2 PUSH2 0x12B3 JUMP JUMPDEST SWAP1 PUSH1 0x1F DUP1 NOT SWAP2 ADD AND DUP2 ADD SWAP1 DUP2 LT PUSH8 0xFFFFFFFFFFFFFFFF DUP3 GT OR PUSH2 0x5D3 JUMPI PUSH1 0x40 MSTORE JUMP JUMPDEST SWAP1 PUSH1 0x40 MLOAD SWAP2 DUP3 PUSH0 DUP3 SLOAD SWAP3 PUSH2 0x1311 DUP5 PUSH2 0x12A4 JUMP JUMPDEST DUP1 DUP5 MSTORE SWAP4 PUSH1 0x1 DUP2 AND SWAP1 DUP2 ISZERO PUSH2 0x137C JUMPI POP PUSH1 0x1 EQ PUSH2 0x1338 JUMPI JUMPDEST POP PUSH2 0x1336 SWAP3 POP SUB DUP4 PUSH2 0x12DC JUMP JUMPDEST JUMP JUMPDEST SWAP1 POP PUSH0 SWAP3 SWAP2 SWAP3 MSTORE PUSH1 0x20 PUSH0 KECCAK256 SWAP1 PUSH0 SWAP2 JUMPDEST DUP2 DUP4 LT PUSH2 0x1360 JUMPI POP POP SWAP1 PUSH1 0x20 PUSH2 0x1336 SWAP3 DUP3 ADD ADD PUSH0 PUSH2 0x1329 JUMP JUMPDEST PUSH1 0x20 SWAP2 SWAP4 POP DUP1 PUSH1 0x1 SWAP2 SLOAD DUP4 DUP6 DUP10 ADD ADD MSTORE ADD SWAP2 ADD SWAP1 SWAP2 DUP5 SWAP3 PUSH2 0x1347 JUMP JUMPDEST SWAP1 POP PUSH1 0x20 SWAP3 POP PUSH2 0x1336 SWAP5 SWAP2 POP PUSH1 0xFF NOT AND DUP3 DUP5 ADD MSTORE ISZERO ISZERO PUSH1 0x5 SHL DUP3 ADD ADD PUSH0 PUSH2 0x1329 JUMP JUMPDEST PUSH1 0x20 PUSH1 0x40 SWAP3 DUP2 DUP4 MSTORE DUP1 MLOAD SWAP2 DUP3 SWAP2 DUP3 DUP3 DUP7 ADD MSTORE ADD DUP5 DUP5 ADD MCOPY PUSH0 DUP3 DUP3 ADD DUP5 ADD MSTORE PUSH1 0x1F ADD PUSH1 0x1F NOT AND ADD ADD SWAP1 JUMP JUMPDEST PUSH1 0x4 CALLDATALOAD SWAP1 PUSH1 0x1 PUSH1 0x1 PUSH1 0xA0 SHL SUB DUP3 AND DUP3 SUB PUSH2 0x7A1 JUMPI JUMP JUMPDEST CALLVALUE PUSH2 0x7A1 JUMPI PUSH1 0x60 CALLDATASIZE PUSH1 0x3 NOT ADD SLT PUSH2 0x7A1 JUMPI PUSH1 0x4 CALLDATALOAD PUSH1 0x1 PUSH1 0x1 PUSH1 0xA0 SHL SUB DUP2 AND SWAP1 DUP2 DUP2 SUB PUSH2 0x7A1 JUMPI POP PUSH1 0x24 CALLDATALOAD PUSH1 0x1 PUSH1 0x1 PUSH1 0xA0 SHL SUB DUP2 AND SWAP1 DUP2 DUP2 SUB PUSH2 0x7A1 JUMPI POP PUSH1 0x44 CALLDATALOAD SWAP2 PUSH1 0x1 PUSH1 0x1 PUSH1 0xA0 SHL SUB PUSH2 0x1430 DUP5 PUSH2 0x1631 JUMP JUMPDEST AND DUP1 CALLER EQ SWAP1 DUP2 ISZERO PUSH2 0x156F JUMPI JUMPDEST DUP2 ISZERO PUSH2 0x154C JUMPI JUMPDEST POP ISZERO PUSH2 0x1518 JUMPI DUP1 PUSH1 0x1 PUSH1 0x1 PUSH1 0xA0 SHL SUB PUSH2 0x145B DUP6 PUSH2 0x1631 JUMP JUMPDEST AND SUB PUSH2 0x14E5 JUMPI PUSH2 0x146C DUP3 ISZERO ISZERO PUSH2 0x1656 JUMP JUMPDEST DUP1 PUSH0 MSTORE PUSH1 0x7 PUSH1 0x20 MSTORE PUSH1 0x40 PUSH0 KECCAK256 DUP1 SLOAD SWAP1 PUSH0 NOT DUP3 ADD SWAP2 DUP3 GT PUSH2 0x5E7 JUMPI SSTORE DUP2 PUSH0 MSTORE PUSH1 0x7 PUSH1 0x20 MSTORE PUSH1 0x40 PUSH0 KECCAK256 DUP1 SLOAD SWAP1 PUSH1 0x1 DUP3 ADD DUP1 SWAP3 GT PUSH2 0x5E7 JUMPI SSTORE PUSH0 DUP4 DUP2 MSTORE PUSH1 0x6 PUSH1 0x20 MSTORE PUSH1 0x40 DUP2 KECCAK256 DUP1 SLOAD PUSH1 0x1 PUSH1 0x1 PUSH1 0xA0 SHL SUB NOT AND DUP5 OR SWAP1 SSTORE PUSH32 0xDDF252AD1BE2C89B69C2B068FC378DAA952BA7F163C4A11628F55A4DF523B3EF SWAP1 DUP1 LOG4 STOP JUMPDEST PUSH1 0x40 MLOAD PUSH3 0x461BCD PUSH1 0xE5 SHL DUP2 MSTORE PUSH1 0x20 PUSH1 0x4 DUP3 ADD MSTORE PUSH1 0xB PUSH1 0x24 DUP3 ADD MSTORE PUSH11 0x2BB937B7339037BBB732B9 PUSH1 0xA9 SHL PUSH1 0x44 DUP3 ADD MSTORE PUSH1 0x64 SWAP1 REVERT JUMPDEST PUSH1 0x40 MLOAD PUSH3 0x461BCD PUSH1 0xE5 SHL DUP2 MSTORE PUSH1 0x20 PUSH1 0x4 DUP3 ADD MSTORE PUSH1 0xC PUSH1 0x24 DUP3 ADD MSTORE PUSH12 0x139BDD08185C1C1C9BDD9959 PUSH1 0xA2 SHL PUSH1 0x44 DUP3 ADD MSTORE PUSH1 0x64 SWAP1 REVERT JUMPDEST PUSH0 SWAP1 DUP2 MSTORE PUSH1 0x9 PUSH1 0x20 SWAP1 DUP2 MSTORE PUSH1 0x40 DUP1 DUP4 KECCAK256 CALLER DUP5 MSTORE SWAP1 SWAP2 MSTORE DUP2 KECCAK256 SLOAD PUSH1 0xFF AND SWAP2 POP PUSH2 0x1443 JUMP JUMPDEST PUSH0 DUP6 DUP2 MSTORE PUSH1 0x8 PUSH1 0x20 MSTORE PUSH1 0x40 SWAP1 KECCAK256 SLOAD PUSH1 0x1 PUSH1 0x1 PUSH1 0xA0 SHL SUB AND CALLER EQ SWAP2 POP PUSH2 0x143C JUMP JUMPDEST SWAP2 DUP2 PUSH1 0x1F DUP5 ADD SLT ISZERO PUSH2 0x7A1 JUMPI DUP3 CALLDATALOAD SWAP2 PUSH8 0xFFFFFFFFFFFFFFFF DUP4 GT PUSH2 0x7A1 JUMPI PUSH1 0x20 DUP4 DUP2 DUP7 ADD SWAP6 ADD ADD GT PUSH2 0x7A1 JUMPI JUMP JUMPDEST ISZERO PUSH2 0x15C4 JUMPI JUMP JUMPDEST PUSH1 0x40 MLOAD PUSH3 0x461BCD PUSH1 0xE5 SHL DUP2 MSTORE PUSH1 0x20 PUSH1 0x4 DUP3 ADD MSTORE PUSH1 0xD PUSH1 0x24 DUP3 ADD MSTORE PUSH13 0x24B73B30B634B2103A37B5B2B7 PUSH1 0x99 SHL PUSH1 0x44 DUP3 ADD MSTORE PUSH1 0x64 SWAP1 REVERT JUMPDEST ISZERO PUSH2 0x1600 JUMPI JUMP JUMPDEST PUSH1 0x40 MLOAD PUSH3 0x461BCD PUSH1 0xE5 SHL DUP2 MSTORE PUSH1 0x20 PUSH1 0x4 DUP3 ADD MSTORE PUSH1 0x9 PUSH1 0x24 DUP3 ADD MSTORE PUSH9 0x2737BA1037BBB732B9 PUSH1 0xB9 SHL PUSH1 0x44 DUP3 ADD MSTORE PUSH1 0x64 SWAP1 REVERT JUMPDEST PUSH0 SWAP1 DUP2 MSTORE PUSH1 0x6 PUSH1 0x20 MSTORE PUSH1 0x40 SWAP1 KECCAK256 SLOAD PUSH1 0x1 PUSH1 0x1 PUSH1 0xA0 SHL SUB AND PUSH2 0x1653 DUP2 ISZERO ISZERO PUSH2 0x15BD JUMP JUMPDEST SWAP1 JUMP JUMPDEST ISZERO PUSH2 0x165D JUMPI JUMP JUMPDEST PUSH1 0x40 MLOAD PUSH3 0x461BCD PUSH1 0xE5 SHL DUP2 MSTORE PUSH1 0x20 PUSH1 0x4 DUP3 ADD MSTORE PUSH1 0xC PUSH1 0x24 DUP3 ADD MSTORE PUSH12 0x5A65726F2061646472657373 PUSH1 0xA0 SHL PUSH1 0x44 DUP3 ADD MSTORE PUSH1 0x64 SWAP1 REVERT JUMPDEST ISZERO PUSH2 0x1698 JUMPI JUMP JUMPDEST PUSH1 0x40 MLOAD PUSH3 0x461BCD PUSH1 0xE5 SHL DUP2 MSTORE PUSH1 0x20 PUSH1 0x4 DUP3 ADD MSTORE PUSH1 0xC PUSH1 0x24 DUP3 ADD MSTORE PUSH12 0x496E76616C69642074797065 PUSH1 0xA0 SHL PUSH1 0x44 DUP3 ADD MSTORE PUSH1 0x64 SWAP1 REVERT JUMPDEST PUSH0 DUP2 DUP2 MSTORE PUSH1 0x6 PUSH1 0x20 MSTORE PUSH1 0x40 SWAP1 KECCAK256 SLOAD PUSH2 0x16EE SWAP1 PUSH1 0x1 PUSH1 0x1 PUSH1 0xA0 SHL SUB AND ISZERO ISZERO PUSH2 0x15BD JUMP JUMPDEST PUSH1 0x11 SLOAD PUSH2 0x16FA DUP2 PUSH2 0x12A4 JUMP JUMPDEST PUSH2 0x1712 JUMPI POP PUSH0 MSTORE PUSH1 0x10 PUSH1 0x20 MSTORE PUSH2 0x1653 PUSH1 0x40 PUSH0 KECCAK256 PUSH2 0x12FE JUMP JUMPDEST SWAP1 DUP1 PUSH0 MSTORE PUSH1 0xF PUSH1 0x20 MSTORE PUSH2 0x1731 PUSH2 0x172B PUSH1 0x40 PUSH0 KECCAK256 SLOAD PUSH2 0x184A JUMP JUMPDEST SWAP2 PUSH2 0x184A JUMP JUMPDEST SWAP1 PUSH1 0x40 MLOAD SWAP3 DUP4 SWAP2 PUSH0 SWAP2 PUSH2 0x1743 DUP2 PUSH2 0x12A4 JUMP JUMPDEST SWAP1 PUSH1 0x1 DUP2 AND SWAP1 DUP2 ISZERO PUSH2 0x17E2 JUMPI POP PUSH1 0x1 EQ PUSH2 0x1795 JUMPI JUMPDEST POP PUSH2 0x1653 SWAP4 PUSH1 0x20 PUSH1 0x1 SWAP5 SWAP4 DUP4 DUP3 SWAP5 MLOAD SWAP3 DUP4 SWAP2 ADD DUP3 MCOPY ADD SWAP1 PUSH1 0x2F PUSH1 0xF8 SHL DUP3 MSTORE DUP1 MLOAD SWAP3 DUP4 SWAP2 ADD DUP6 DUP4 ADD MCOPY ADD PUSH0 DUP4 DUP3 ADD MSTORE SUB ADD PUSH1 0x1F NOT DUP2 ADD DUP4 MSTORE DUP3 PUSH2 0x12DC JUMP JUMPDEST SWAP1 SWAP2 POP PUSH1 0x11 PUSH0 MSTORE PUSH0 MLOAD PUSH1 0x20 PUSH2 0x197D PUSH0 CODECOPY PUSH0 MLOAD SWAP1 PUSH0 MSTORE PUSH0 SWAP1 JUMPDEST DUP3 DUP3 LT PUSH2 0x17C4 JUMPI POP POP DUP3 ADD PUSH1 0x20 ADD SWAP1 PUSH2 0x1653 PUSH2 0x1758 JUMP JUMPDEST PUSH1 0x20 SWAP2 SWAP3 SWAP4 SWAP5 POP DUP1 PUSH1 0x1 SWAP2 SLOAD DUP4 DUP6 DUP11 ADD ADD MSTORE ADD SWAP2 ADD DUP6 SWAP4 SWAP3 SWAP2 PUSH2 0x17AD JUMP JUMPDEST PUSH1 0xFF NOT AND PUSH1 0x20 DUP1 DUP8 ADD SWAP2 SWAP1 SWAP2 MSTORE DUP3 ISZERO ISZERO SWAP1 SWAP3 MUL DUP6 ADD SWAP1 SWAP2 ADD SWAP3 POP PUSH2 0x1653 SWAP1 POP PUSH2 0x1758 JUMP JUMPDEST SWAP2 SWAP1 DUP3 SUB SWAP2 DUP3 GT PUSH2 0x5E7 JUMPI JUMP JUMPDEST PUSH0 NOT DUP2 EQ PUSH2 0x5E7 JUMPI PUSH1 0x1 ADD SWAP1 JUMP JUMPDEST SWAP2 SWAP1 DUP3 ADD DUP1 SWAP3 GT PUSH2 0x5E7 JUMPI JUMP JUMPDEST PUSH8 0xFFFFFFFFFFFFFFFF DUP2 GT PUSH2 0x5D3 JUMPI PUSH1 0x1F ADD PUSH1 0x1F NOT AND PUSH1 0x20 ADD SWAP1 JUMP JUMPDEST DUP1 ISZERO PUSH2 0x1901 JUMPI PUSH0 DUP2 DUP1 JUMPDEST PUSH2 0x18ED JUMPI POP PUSH2 0x1862 DUP2 PUSH2 0x182E JUMP JUMPDEST SWAP1 PUSH2 0x1870 PUSH1 0x40 MLOAD SWAP3 DUP4 PUSH2 0x12DC JUMP JUMPDEST DUP1 DUP3 MSTORE PUSH1 0x1F NOT PUSH2 0x187F DUP3 PUSH2 0x182E JUMP JUMPDEST ADD CALLDATASIZE PUSH1 0x20 DUP5 ADD CALLDATACOPY JUMPDEST DUP1 SWAP3 DUP1 ISZERO PUSH2 0x18E6 JUMPI PUSH1 0xA DUP2 MOD PUSH1 0x30 ADD SWAP2 DUP3 PUSH1 0x30 GT PUSH2 0x5E7 JUMPI DUP1 ISZERO PUSH2 0x5E7 JUMPI PUSH0 NOT ADD SWAP4 DUP4 MLOAD DUP6 LT ISZERO PUSH2 0x18D2 JUMPI PUSH1 0xA SWAP3 PUSH1 0xF8 SHL PUSH1 0x1 PUSH1 0x1 PUSH1 0xF8 SHL SUB NOT AND PUSH0 BYTE SWAP1 DUP5 ADD PUSH1 0x1F ADD MSTORE8 DIV SWAP2 PUSH2 0x1887 JUMP JUMPDEST PUSH4 0x4E487B71 PUSH1 0xE0 SHL PUSH0 MSTORE PUSH1 0x32 PUSH1 0x4 MSTORE PUSH1 0x24 PUSH0 REVERT JUMPDEST POP POP SWAP1 POP SWAP1 JUMP JUMPDEST SWAP1 PUSH2 0x18F9 PUSH1 0xA SWAP2 PUSH2 0x1813 JUMP JUMPDEST SWAP2 DIV DUP1 PUSH2 0x1854 JUMP JUMPDEST POP PUSH1 0x40 MLOAD PUSH2 0x1910 PUSH1 0x40 DUP3 PUSH2 0x12DC JUMP JUMPDEST PUSH1 0x1 DUP2 MSTORE PUSH1 0x3 PUSH1 0xFC SHL PUSH1 0x20 DUP3 ADD MSTORE SWAP1 JUMP JUMPDEST PUSH4 0x1E13380 TIMESTAMP DIV PUSH2 0x7B2 ADD DUP1 PUSH2 0x7B2 GT PUSH2 0x5E7 JUMPI PUSH3 0x278D00 PUSH4 0x1E13380 TIMESTAMP MOD DIV SWAP1 PUSH1 0x1 DUP3 ADD DUP1 SWAP3 GT PUSH2 0x5E7 JUMPI PUSH1 0x64 DUP2 MUL SWAP1 DUP1 DUP3 DIV PUSH1 0x64 EQ SWAP1 ISZERO OR ISZERO PUSH2 0x5E7 JUMPI PUSH2 0x1653 SWAP2 PUSH1 0xC DUP2 GT ISZERO PUSH2 0x1976 JUMPI POP PUSH1 0xC SWAP1 PUSH2 0x1821 JUMP JUMPDEST SWAP1 PUSH2 0x1821 JUMP INVALID BALANCE 0xEC 0xC2 BYTE PUSH21 0x5E3968A04E9570E4425BC18FA8019C68028196B546 0xD1 PUSH7 0x9C200C68A26469 PUSH17 0x6673582212207DB3B3AE0E9D64601027F7 0xB4 CALLDATALOAD 0xAB 0xC8 DELEGATECALL 0xEF DUP8 DUP14 JUMPDEST 0xB5 BALANCE PUSH4 0x6F13F49C 0xC3 0xF7 ORIGIN DUP2 0x1F PUSH5 0x736F6C6343 STOP ADDMOD SHL STOP CALLER "},"methodIdentifiers":{"achievementMintPrices(uint256)":"71f79dc5","achievementMonthlyLimits(uint256)":"5a98e566","achievementNames(uint256)":"6d8e89d0","approve(address,uint256)":"095ea7b3","balanceOf(address)":"70a08231","baseURI()":"6c0360eb","claimNFT(uint256,uint256,string,string,uint8,bytes32,bytes32)":"ffbfaec3","claimRecord(bytes32)":"852424ae","getApproved(uint256)":"081812fc","getMonthlyRemaining(uint256)":"f91cc013","isApprovedForAll(address,address)":"e985e9c5","monthlyMinted(uint256,uint256)":"c2dce576","name()":"06fdde03","owner()":"8da5cb5b","ownerOf(uint256)":"6352211e","safeTransferFrom(address,address,uint256)":"42842e0e","setApprovalForAll(address,bool)":"a22cb465","setBaseURI(string)":"55f804b3","setSigner(address)":"6c19e783","setTokenMetadata(uint256,string)":"510ef1de","signatureValidity()":"64e4b8c2","signer()":"238ac933","supportsInterface(bytes4)":"01ffc9a7","symbol()":"95d89b41","tokenAchievementType(uint256)":"4c349385","tokenMetadata(uint256)":"6914db60","tokenURI(uint256)":"c87b56dd","transferFrom(address,address,uint256)":"23b872dd","updateAchievement(uint256,uint256,uint256)":"aa599a8f","withdraw()":"3ccfd60b"}}}}}