{"contracts/AchievementNFTSimple.sol":{"AchievementNFTSimple":{"abi":[{"inputs":[{"internalType":"address","name":"_signer","type":"address"},{"internalType":"string","name":"_baseURI","type":"string"}],"stateMutability":"nonpayable","type":"constructor"},{"anonymous":false,"inputs":[{"indexed":true,"internalType":"address","name":"player","type":"address"},{"indexed":true,"internalType":"uint256","name":"tokenId","type":"uint256"},{"indexed":false,"internalType":"uint256","name":"achievementTypeId","type":"uint256"}],"name":"AchievementMinted","type":"event"},{"anonymous":false,"inputs":[{"indexed":true,"internalType":"address","name":"owner","type":"address"},{"indexed":true,"internalType":"address","name":"approved","type":"address"},{"indexed":true,"internalType":"uint256","name":"tokenId","type":"uint256"}],"name":"Approval","type":"event"},{"anonymous":false,"inputs":[{"indexed":true,"internalType":"address","name":"owner","type":"address"},{"indexed":true,"internalType":"address","name":"operator","type":"address"},{"indexed":false,"internalType":"bool","name":"approved","type":"bool"}],"name":"ApprovalForAll","type":"event"},{"anonymous":false,"inputs":[{"indexed":true,"internalType":"address","name":"from","type":"address"},{"indexed":true,"internalType":"address","name":"to","type":"address"},{"indexed":true,"internalType":"uint256","name":"tokenId","type":"uint256"}],"name":"Transfer","type":"event"},{"inputs":[{"internalType":"uint256","name":"","type":"uint256"}],"name":"achievementMintPrices","outputs":[{"internalType":"uint256","name":"","type":"uint256"}],"stateMutability":"view","type":"function"},{"inputs":[{"internalType":"uint256","name":"","type":"uint256"}],"name":"achievementMonthlyLimits","outputs":[{"internalType":"uint256","name":"","type":"uint256"}],"stateMutability":"view","type":"function"},{"inputs":[{"internalType":"uint256","name":"","type":"uint256"}],"name":"achievementNames","outputs":[{"internalType":"string","name":"","type":"string"}],"stateMutability":"view","type":"function"},{"inputs":[{"internalType":"address","name":"to","type":"address"},{"internalType":"uint256","name":"tokenId","type":"uint256"}],"name":"approve","outputs":[],"stateMutability":"nonpayable","type":"function"},{"inputs":[{"internalType":"address","name":"account","type":"address"}],"name":"balanceOf","outputs":[{"internalType":"uint256","name":"","type":"uint256"}],"stateMutability":"view","type":"function"},{"inputs":[],"name":"baseURI","outputs":[{"internalType":"string","name":"","type":"string"}],"stateMutability":"view","type":"function"},{"inputs":[{"internalType":"uint256","name":"achievementTypeId","type":"uint256"},{"internalType":"uint256","name":"timestamp","type":"uint256"},{"internalType":"string","name":"gameId","type":"string"},{"internalType":"uint8","name":"v","type":"uint8"},{"internalType":"bytes32","name":"r","type":"bytes32"},{"internalType":"bytes32","name":"s","type":"bytes32"}],"name":"claimNFT","outputs":[{"internalType":"uint256","name":"","type":"uint256"}],"stateMutability":"payable","type":"function"},{"inputs":[{"internalType":"bytes32","name":"","type":"bytes32"}],"name":"claimRecord","outputs":[{"internalType":"bool","name":"","type":"bool"}],"stateMutability":"view","type":"function"},{"inputs":[{"internalType":"uint256","name":"achievementTypeId","type":"uint256"}],"name":"getAchievementInfo","outputs":[{"internalType":"string","name":"name","type":"string"},{"internalType":"uint256","name":"monthlyLimit","type":"uint256"},{"internalType":"uint256","name":"mintPrice","type":"uint256"}],"stateMutability":"view","type":"function"},{"inputs":[{"internalType":"uint256","name":"tokenId","type":"uint256"}],"name":"getApproved","outputs":[{"internalType":"address","name":"","type":"address"}],"stateMutability":"view","type":"function"},{"inputs":[{"internalType":"uint256","name":"achievementTypeId","type":"uint256"}],"name":"getMonthlyRemaining","outputs":[{"internalType":"uint256","name":"","type":"uint256"}],"stateMutability":"view","type":"function"},{"inputs":[{"internalType":"address","name":"owner_","type":"address"},{"internalType":"address","name":"operator","type":"address"}],"name":"isApprovedForAll","outputs":[{"internalType":"bool","name":"","type":"bool"}],"stateMutability":"view","type":"function"},{"inputs":[{"internalType":"uint256","name":"","type":"uint256"},{"internalType":"uint256","name":"","type":"uint256"}],"name":"monthlyMinted","outputs":[{"internalType":"uint256","name":"","type":"uint256"}],"stateMutability":"view","type":"function"},{"inputs":[],"name":"name","outputs":[{"internalType":"string","name":"","type":"string"}],"stateMutability":"view","type":"function"},{"inputs":[],"name":"owner","outputs":[{"internalType":"address","name":"","type":"address"}],"stateMutability":"view","type":"function"},{"inputs":[{"internalType":"uint256","name":"tokenId","type":"uint256"}],"name":"ownerOf","outputs":[{"internalType":"address","name":"","type":"address"}],"stateMutability":"view","type":"function"},{"inputs":[{"internalType":"address","name":"from","type":"address"},{"internalType":"address","name":"to","type":"address"},{"internalType":"uint256","name":"tokenId","type":"uint256"}],"name":"safeTransferFrom","outputs":[],"stateMutability":"nonpayable","type":"function"},{"inputs":[{"internalType":"address","name":"operator","type":"address"},{"internalType":"bool","name":"approved","type":"bool"}],"name":"setApprovalForAll","outputs":[],"stateMutability":"nonpayable","type":"function"},{"inputs":[{"internalType":"string","name":"_baseURI","type":"string"}],"name":"setBaseURI","outputs":[],"stateMutability":"nonpayable","type":"function"},{"inputs":[{"internalType":"address","name":"_signer","type":"address"}],"name":"setSigner","outputs":[],"stateMutability":"nonpayable","type":"function"},{"inputs":[],"name":"signatureValidity","outputs":[{"internalType":"uint256","name":"","type":"uint256"}],"stateMutability":"view","type":"function"},{"inputs":[],"name":"signer","outputs":[{"internalType":"address","name":"","type":"address"}],"stateMutability":"view","type":"function"},{"inputs":[{"internalType":"bytes4","name":"interfaceId","type":"bytes4"}],"name":"supportsInterface","outputs":[{"internalType":"bool","name":"","type":"bool"}],"stateMutability":"pure","type":"function"},{"inputs":[],"name":"symbol","outputs":[{"internalType":"string","name":"","type":"string"}],"stateMutability":"view","type":"function"},{"inputs":[{"internalType":"uint256","name":"","type":"uint256"}],"name":"tokenAchievementType","outputs":[{"internalType":"uint256","name":"","type":"uint256"}],"stateMutability":"view","type":"function"},{"inputs":[{"internalType":"uint256","name":"tokenId","type":"uint256"}],"name":"tokenURI","outputs":[{"internalType":"string","name":"","type":"string"}],"stateMutability":"view","type":"function"},{"inputs":[{"internalType":"address","name":"from","type":"address"},{"internalType":"address","name":"to","type":"address"},{"internalType":"uint256","name":"tokenId","type":"uint256"}],"name":"transferFrom","outputs":[],"stateMutability":"nonpayable","type":"function"},{"inputs":[{"internalType":"uint256","name":"achievementTypeId","type":"uint256"},{"internalType":"uint256","name":"monthlyLimit","type":"uint256"},{"internalType":"uint256","name":"mintPrice","type":"uint256"}],"name":"updateAchievement","outputs":[],"stateMutability":"nonpayable","type":"function"},{"inputs":[],"name":"withdraw","outputs":[],"stateMutability":"nonpayable","type":"function"},{"stateMutability":"payable","type":"receive"}],"evm":{"bytecode":{"linkReferences":{},"object":"60806040523461077057611f728038038061001981610774565b9283398101906040818303126107705780516001600160a01b0381169190829003610770576020810151906001600160401b038211610770570182601f82011215610770578051906001600160401b0382116106ab57610082601f8301601f1916602001610774565b938285526020838301011161077057815f9260208093018387015e840101526100ab5f54610799565b601f8111610733575b507f506f6b657220416368696576656d656e74204e4654000000000000000000002a5f556001546100e490610799565b601f81116106f5575b50600a64141053919560da1b0160015562093a8060065580156106bf57600380546001600160a01b031990811633179091556004805490911691909117905580516001600160401b0381116106ab57610147600554610799565b601f811161066f575b50602091601f821160011461060f579181925f92610604575b50508160011b915f199060031b1c1916176005555b60015f52600b6020527f72c6bfb7988af3a1efa6568f02a999bc52252641c659d85961ca3d372b57d5cf80546101b390610799565b601f81116105e4575b507f526f79616c20466c7573680000000000000000000000000000000000000000169055600a7fd421a5181c571bba3f01190c922c3b2a896fc1d84e86c9f17ac10e67ebef8b5c55624c4b407ffd54ff1ed53f34a900b24c5ba64f85761163b5d82d98a47b9bd80e45466993c55560025f52600b6020527fa50eece07c7db1631545c0069bd8f5f54d5935e215d59097edf258a44ba9163480546102699061026390610799565b826107e7565b7f537472616967687420466c75736800000000000000000000000000000000001c905560147f5d6016397a73f5e079297ac5a36fef17b4d9c3831618e63ab105738020ddd72055624c4b407f10a81eed9d63d16face5e76357905348e6253d3394086026bb2bf2145d7cc2495560035f52600b6020527f64c15cc42be7899b001f818cf4433057002112c418d1d3a67cd5cb453051d33e805461030f9061026390610799565b7f466f7572206f662061204b696e6400000000000000000000000000000000001c905560327fc0da782485e77ae272268ae0a3ff44c1552ecb60b3743924de17a815e0a3cfd755624c4b407f26b4a10d0f0b04925c23bd4480ee147c916e5e87a7d68206a533dad160ac81e25560045f52600b6020527f12d0c11577e2f0950f57c455c117796550b79f444811db8ba2f69c57b646c78480546103b190610799565b601f81116105c4575b507f46756c6c20486f75736500000000000000000000000000000000000000000014905560647f5b84bb9e0f5aa9cc45a8bb66468db5d4816d1e75ff86b5e1f1dd8d144dab809755624c4b407fafafe8948a4ed9d478b1e9a5780b119b5edd00ea7d07bc35bef7c814824eb94b5560055f52600b6020527febae6141bae5521e99e0a8d610356b0f501fea54980b59c84841db43ba7204f4805461045d90610799565b601f81116105a4575b50600a6408cd8eae6d60db1b01905560c87f2cd9ebf6ff19cdd7ffcc447d7c7d47b5991f5c7392a04512134e765802361fa655624c4b407fa5049387d9cb649c59f4bda666105ba636c2a103d8e2b232ba4d125737cd21495560065f52600b6020527f0387e9d1203691d8e3362a7e4c6723de358a4010d7f31ecbec3fbfc61d1c75fc80546104f490610799565b601f8111610584575b507f5374726169676874000000000000000000000000000000000000000000000010905560065f5261012c7f980f427e00e74f6d338adfccc7468518c8c8ea00836d0dce98c5fe154e17bf2b55600d602052624c4b407fa48544818c2c710afa9849c61ec9c60e8acdb3eaa2885f33b37e118cc8fd04ac5560405161176290816108108239f35b61059e90825f52601f60205f20910160051c8101906107d1565b5f6104fd565b6105be90825f52601f60205f20910160051c8101906107d1565b5f610466565b6105de90825f52601f60205f20910160051c8101906107d1565b5f6103ba565b6105fe90825f52601f60205f20910160051c8101906107d1565b5f6101bc565b015190505f80610169565b601f1982169260055f52805f20915f5b8581106106575750836001951061063f575b505050811b0160055561017e565b01515f1960f88460031b161c191690555f8080610631565b9192602060018192868501518155019401920161061f565b61069b9060055f5260205f20601f840160051c810191602085106106a1575b601f0160051c01906107d1565b5f610150565b909150819061068e565b634e487b7160e01b5f52604160045260245ffd5b60405162461bcd60e51b815260206004820152600e60248201526d24b73b30b634b21039b4b3b732b960911b6044820152606490fd5b60015f5261072d90601f0160051c7fb10e2d527612073b26eecdfd717e6a320cf44b4afac2b0732d9fcbe2b7fa0cf6908101906107d1565b5f6100ed565b5f805261076a90601f0160051c7f290decd9548b62a8d60345a988386fc84ba6bc95484008f6362f93160ef3e563908101906107d1565b5f6100b4565b5f80fd5b6040519190601f01601f191682016001600160401b038111838210176106ab57604052565b90600182811c921680156107c7575b60208310146107b357565b634e487b7160e01b5f52602260045260245ffd5b91607f16916107a8565b8181106107dc575050565b5f81556001016107d1565b90601f81116107f4575050565b61080d915f52601f60205f20910160051c8101906107d1565b56fe608080604052600436101561001c575b50361561001a575f80fd5b005b5f3560e01c90816301ffc9a71461114d5750806306fdde0314611131578063081812fc146110dd578063095ea7b314610fbc5780630cf524b914610abe578063238ac93314610a9657806323b872dd14610a415780633ccfd60b14610a4657806342842e0e14610a415780634c34938514610a1757806355f804b3146108535780635a98e566146108295780636352211e146107f957806364e4b8c2146107dc578063688d8903146107715780636c0360eb146106df5780636c19e783146106505780636d8e89d01461062657806370a08231146105e357806371f79dc5146105b9578063852424ae1461058a5780638da5cb5b1461056257806395d89b4114610498578063a22cb4651461040f578063aa599a8f146103a4578063c2dce5761461036e578063c87b56dd14610235578063e985e9c5146101d35763f91cc01314610167575f61000f565b346101cf5760203660031901126101cf576004356101836115d8565b5f52600e60205260405f20815f5260205260405f2054905f52600c60205260405f2054808210155f146101be57505060205f5b604051908152f35b6020916101ca916114eb565b6101b6565b5f80fd5b346101cf5760403660031901126101cf576101ec6112be565b602435906001600160a01b03821682036101cf5760018060a01b03165f52600a60205260405f209060018060a01b03165f52602052602060ff60405f2054166040519015158152f35b346101cf5760203660031901126101cf576004355f8181526007602052604090205461026b906001600160a01b031615156114a1565b805f52601060205261028961028360405f2054611633565b91611633565b90604051905f9060055461029c816111a0565b906001811690811561034c5750600114610309575b5082602061030595816102f195856001965192839101825e0190602f60f81b82528051928391018583015e015f838201520301601f1981018352826111d8565b60405191829160208352602083019061129a565b0390f35b90915060055f525f51602061170d5f395f51905f525f905b828210610336575050820160200190826102b1565b6001816020925483858901015201910190610321565b60ff1916602086810191909152821515909202850190910192508390506102b1565b346101cf5760403660031901126101cf576004355f52600e60205260405f206024355f52602052602060405f2054604051908152f35b346101cf5760603660031901126101cf576004356103cd60018060a01b036003541633146114f8565b600181101580610404575b6103e190611590565b805f52600c60205260243560405f20555f52600d60205260443560405f20555f80f35b5060068111156103d8565b346101cf5760403660031901126101cf576104286112be565b602435908115158092036101cf57335f52600a60205260405f2060018060a01b0382165f5260205260405f2060ff1981541660ff841617905560405191825260018060a01b0316907f17307eab39ab6107e8899845ad3d59bd9653f200f220920489ca2b5937696c3160203392a3005b346101cf575f3660031901126101cf576040515f6001546104b8816111a0565b808452906001811690811561053e57506001146104e0575b610305836102f1818503826111d8565b60015f9081527fb10e2d527612073b26eecdfd717e6a320cf44b4afac2b0732d9fcbe2b7fa0cf6939250905b808210610524575090915081016020016102f16104d0565b91926001816020925483858801015201910190929161050c565b60ff191660208086019190915291151560051b840190910191506102f190506104d0565b346101cf575f3660031901126101cf576003546040516001600160a01b039091168152602090f35b346101cf5760203660031901126101cf576004355f52600f602052602060ff60405f2054166040519015158152f35b346101cf5760203660031901126101cf576004355f52600d602052602060405f2054604051908152f35b346101cf5760203660031901126101cf576001600160a01b036106046112be565b16610610811515611555565b5f526008602052602060405f2054604051908152f35b346101cf5760203660031901126101cf576004355f52600b6020526103056102f160405f206111fa565b346101cf5760203660031901126101cf576106696112be565b61067e60018060a01b036003541633146114f8565b6001600160a01b031680156106a9576bffffffffffffffffffffffff60a01b60045416176004555f80f35b60405162461bcd60e51b815260206004820152600e60248201526d24b73b30b634b21039b4b3b732b960911b6044820152606490fd5b346101cf575f3660031901126101cf576040515f6005546106ff816111a0565b808452906001811690811561053e575060011461072657610305836102f1818503826111d8565b60055f9081525f51602061170d5f395f51905f52939250905b808210610757575090915081016020016102f16104d0565b91926001816020925483858801015201910190929161073f565b346101cf5760203660031901126101cf576107cd600435805f52600b60205260405f2090805f52600c60205260405f2054905f52600d6020526107b860405f2054926111fa565b9160405193849360608552606085019061129a565b91602084015260408301520390f35b346101cf575f3660031901126101cf576020600654604051908152f35b346101cf5760203660031901126101cf576020610817600435611530565b6040516001600160a01b039091168152f35b346101cf5760203660031901126101cf576004355f52600c602052602060405f2054604051908152f35b346101cf5760203660031901126101cf5760043567ffffffffffffffff81116101cf57366023820112156101cf57806004013561088f81611485565b9161089d60405193846111d8565b81835236602483830101116101cf57815f9260246020930183860137830101526108d260018060a01b036003541633146114f8565b805167ffffffffffffffff8111610a03576108ee6005546111a0565b601f811161099b575b50602091601f8211600114610933579181925f92610928575b50505f19600383901b1c191660019190911b17600555005b015190508280610910565b601f1982169260055f525f51602061170d5f395f51905f52915f5b8581106109835750836001951061096b575b505050811b01600555005b01515f1960f88460031b161c19169055828080610960565b9192602060018192868501518155019401920161094e565b60055f52601f820160051c5f51602061170d5f395f51905f520190602083106109ee575b601f0160051c5f51602061170d5f395f51905f5201905b8181106109e357506108f7565b5f81556001016109d6565b5f51602061170d5f395f51905f5291506109bf565b634e487b7160e01b5f52604160045260245ffd5b346101cf5760203660031901126101cf576004355f526010602052602060405f2054604051908152f35b6112d4565b346101cf575f3660031901126101cf575f80808060018060a01b0360035416610a708133146114f8565b4790828215610a8d575bf115610a8257005b6040513d5f823e3d90fd5b506108fc610a7a565b346101cf575f3660031901126101cf576004546040516001600160a01b039091168152602090f35b60c03660031901126101cf5760043560243560443567ffffffffffffffff81116101cf57366023820112156101cf5780600401359067ffffffffffffffff82116101cf57602481019060248336920101116101cf5760643560ff81168091036101cf57600185101580610fb1575b610b3590611590565b845f52600d60205260405f20543410610f7557600654610b5581866115cb565b4211610f3c57610b6590856114eb565b4210610ef757610b736115d8565b5f52600e60205260405f20855f5260205260405f2054855f52600c60205260405f20541115610eba575f6080602092604051848101903360601b988983528a6034830152605482015287876074830137610be06074828a810188838201520301601f1981018352826111d8565b519020604051858101917f19457468657265756d205369676e6564204d6573736167653a0a3332000000008352603c820152603c8152610c21605c826111d8565b5190209060405191825284820152608435604082015260a435606082015282805260015afa15610a82575f516004546001600160a01b03908116911603610e815760206034610c8e92846040519586928584019889528484013781018783820152030180845201826111d8565b519020805f52600f60205260ff60405f205416610e4a575f52600f60205260405f20600160ff19825416179055610cc66002546114dd565b80600255610cd5331515611555565b5f818152600760205260409020546001600160a01b0316610e1657335f52600860205260405f2080549060018201809211610e0257555f81815260076020526040812080546001600160a01b0319163390811790915582917fddf252ad1be2c89b69c2b068fc378daa952ba7f163c4a11628f55a4df523b3ef8180a4805f5260106020528160405f2055610d676115d8565b5f52600e60205260405f20825f5260205260405f20610d8681546114dd565b9055815f52600d60205260405f2054803411610dd5575b50806020926040519081527f226d2a645d7edd4fc8d019b3eae722231277e0665965dba0c711be16ef35ba9e843392a3604051908152f35b5f8080610de38194346114eb565b818115610df9575b3390f115610a825782610d9d565b506108fc610deb565b634e487b7160e01b5f52601160045260245ffd5b60405162461bcd60e51b815260206004820152600c60248201526b546f6b656e2065786973747360a01b6044820152606490fd5b60405162461bcd60e51b815260206004820152600f60248201526e105b1c9958591e4818db185a5b5959608a1b6044820152606490fd5b60405162461bcd60e51b8152602060048201526011602482015270496e76616c6964207369676e617475726560781b6044820152606490fd5b60405162461bcd60e51b8152602060048201526015602482015274135bdb9d1a1b1e481b1a5b5a5d081c995858da1959605a1b6044820152606490fd5b60405162461bcd60e51b815260206004820152601760248201527f5369676e6174757265206e6f742076616c6964207965740000000000000000006044820152606490fd5b60405162461bcd60e51b815260206004820152601160248201527014da59db985d1d5c9948195e1c1a5c9959607a1b6044820152606490fd5b60405162461bcd60e51b8152602060048201526014602482015273125b9cdd59999a58da595b9d081c185e5b595b9d60621b6044820152606490fd5b506006851115610b2c565b346101cf5760403660031901126101cf57610fd56112be565b602435906001600160a01b03610fea83611530565b6001600160a01b0390921691168181146110a8578033148015611086575b15611050575f83815260096020526040812080546001600160a01b031916841790557f8c5be1e5ebec7d5bd14f71427d1e84f3dd0314c0f7b2291e5b200ac8c7c3b9259080a4005b60405162461bcd60e51b815260206004820152600e60248201526d139bdd08185d5d1a1bdc9a5e995960921b6044820152606490fd5b505f818152600a6020908152604080832033845290915290205460ff16611008565b60405162461bcd60e51b815260206004820152600d60248201526c14d95b198b585c1c1c9bdd985b609a1b6044820152606490fd5b346101cf5760203660031901126101cf576004355f81815260076020526040902054611113906001600160a01b031615156114a1565b5f526009602052602060018060a01b0360405f205416604051908152f35b346101cf575f3660031901126101cf576103056102f15f6111fa565b346101cf5760203660031901126101cf576004359063ffffffff60e01b82168092036101cf576020916380ac58cd60e01b811490811561118f575b5015158152f35b635b5e139f60e01b14905083611188565b90600182811c921680156111ce575b60208310146111ba57565b634e487b7160e01b5f52602260045260245ffd5b91607f16916111af565b90601f8019910116810190811067ffffffffffffffff821117610a0357604052565b9060405191825f82549261120d846111a0565b80845293600181169081156112785750600114611234575b50611232925003836111d8565b565b90505f9291925260205f20905f915b81831061125c575050906020611232928201015f611225565b6020919350806001915483858901015201910190918492611243565b90506020925061123294915060ff191682840152151560051b8201015f611225565b805180835260209291819084018484015e5f828201840152601f01601f1916010190565b600435906001600160a01b03821682036101cf57565b346101cf5760603660031901126101cf576004356001600160a01b038116908181036101cf57506024356001600160a01b038116908181036101cf5750604435916001600160a01b0361132684611530565b16803314908115611465575b8115611442575b501561140e57806001600160a01b0361135185611530565b16036113db57611362821515611555565b805f52600860205260405f208054905f198201918211610e025755815f52600860205260405f2080549060018201809211610e0257555f83815260076020526040812080546001600160a01b031916841790557fddf252ad1be2c89b69c2b068fc378daa952ba7f163c4a11628f55a4df523b3ef9080a4005b60405162461bcd60e51b815260206004820152600b60248201526a2bb937b7339037bbb732b960a91b6044820152606490fd5b60405162461bcd60e51b815260206004820152600c60248201526b139bdd08185c1c1c9bdd995960a21b6044820152606490fd5b5f908152600a6020908152604080832033845290915281205460ff169150611339565b5f858152600960205260409020546001600160a01b031633149150611332565b67ffffffffffffffff8111610a0357601f01601f191660200190565b156114a857565b60405162461bcd60e51b815260206004820152600d60248201526c24b73b30b634b2103a37b5b2b760991b6044820152606490fd5b5f198114610e025760010190565b91908203918211610e0257565b156114ff57565b60405162461bcd60e51b81526020600482015260096024820152682737ba1037bbb732b960b91b6044820152606490fd5b5f908152600760205260409020546001600160a01b03166115528115156114a1565b90565b1561155c57565b60405162461bcd60e51b815260206004820152600c60248201526b5a65726f206164647265737360a01b6044820152606490fd5b1561159757565b60405162461bcd60e51b815260206004820152600c60248201526b496e76616c6964207479706560a01b6044820152606490fd5b91908201809211610e0257565b6301e1338042046107b201806107b211610e025762278d006301e133804206049060018201809211610e0257606481029080820460641490151715610e025761155291600c81111561162d5750600c906115cb565b906115cb565b80156116ec575f81805b6116d8575061164b81611485565b9061165960405192836111d8565b808252601f1961166882611485565b013660208401375b809280156116d1575f198201918211610e02578193600a82066030019283603011610e0257845111156116bd57600a9260f81b6001600160f81b0319165f1a908401601f01530491611670565b634e487b7160e01b5f52603260045260245ffd5b5050905090565b906116e4600a916114dd565b91048061163d565b506040516116fb6040826111d8565b60018152600360fc1b60208201529056fe036b6384b5eca791c62761152d0c79bb0604c104a5fb6f4eb0703f3154bb3db0a2646970667358221220adbe9a82e9867f848f5e20dccc907fd6e975f50fbdf2c3855d539b5211afb0a364736f6c634300081b0033","opcodes":"PUSH1 0x80 PUSH1 0x40 MSTORE CALLVALUE PUSH2 0x770 JUMPI PUSH2 0x1F72 DUP1 CODESIZE SUB DUP1 PUSH2 0x19 DUP2 PUSH2 0x774 JUMP JUMPDEST SWAP3 DUP4 CODECOPY DUP2 ADD SWAP1 PUSH1 0x40 DUP2 DUP4 SUB SLT PUSH2 0x770 JUMPI DUP1 MLOAD PUSH1 0x1 PUSH1 0x1 PUSH1 0xA0 SHL SUB DUP2 AND SWAP2 SWAP1 DUP3 SWAP1 SUB PUSH2 0x770 JUMPI PUSH1 0x20 DUP2 ADD MLOAD SWAP1 PUSH1 0x1 PUSH1 0x1 PUSH1 0x40 SHL SUB DUP3 GT PUSH2 0x770 JUMPI ADD DUP3 PUSH1 0x1F DUP3 ADD SLT ISZERO PUSH2 0x770 JUMPI DUP1 MLOAD SWAP1 PUSH1 0x1 PUSH1 0x1 PUSH1 0x40 SHL SUB DUP3 GT PUSH2 0x6AB JUMPI PUSH2 0x82 PUSH1 0x1F DUP4 ADD PUSH1 0x1F NOT AND PUSH1 0x20 ADD PUSH2 0x774 JUMP JUMPDEST SWAP4 DUP3 DUP6 MSTORE PUSH1 0x20 DUP4 DUP4 ADD ADD GT PUSH2 0x770 JUMPI DUP2 PUSH0 SWAP3 PUSH1 0x20 DUP1 SWAP4 ADD DUP4 DUP8 ADD MCOPY DUP5 ADD ADD MSTORE PUSH2 0xAB PUSH0 SLOAD PUSH2 0x799 JUMP JUMPDEST PUSH1 0x1F DUP2 GT PUSH2 0x733 JUMPI JUMPDEST POP PUSH32 0x506F6B657220416368696576656D656E74204E4654000000000000000000002A PUSH0 SSTORE PUSH1 0x1 SLOAD PUSH2 0xE4 SWAP1 PUSH2 0x799 JUMP JUMPDEST PUSH1 0x1F DUP2 GT PUSH2 0x6F5 JUMPI JUMPDEST POP PUSH1 0xA PUSH5 0x1410539195 PUSH1 0xDA SHL ADD PUSH1 0x1 SSTORE PUSH3 0x93A80 PUSH1 0x6 SSTORE DUP1 ISZERO PUSH2 0x6BF JUMPI PUSH1 0x3 DUP1 SLOAD PUSH1 0x1 PUSH1 0x1 PUSH1 0xA0 SHL SUB NOT SWAP1 DUP2 AND CALLER OR SWAP1 SWAP2 SSTORE PUSH1 0x4 DUP1 SLOAD SWAP1 SWAP2 AND SWAP2 SWAP1 SWAP2 OR SWAP1 SSTORE DUP1 MLOAD PUSH1 0x1 PUSH1 0x1 PUSH1 0x40 SHL SUB DUP2 GT PUSH2 0x6AB JUMPI PUSH2 0x147 PUSH1 0x5 SLOAD PUSH2 0x799 JUMP JUMPDEST PUSH1 0x1F DUP2 GT PUSH2 0x66F JUMPI JUMPDEST POP PUSH1 0x20 SWAP2 PUSH1 0x1F DUP3 GT PUSH1 0x1 EQ PUSH2 0x60F JUMPI SWAP2 DUP2 SWAP3 PUSH0 SWAP3 PUSH2 0x604 JUMPI JUMPDEST POP POP DUP2 PUSH1 0x1 SHL SWAP2 PUSH0 NOT SWAP1 PUSH1 0x3 SHL SHR NOT AND OR PUSH1 0x5 SSTORE JUMPDEST PUSH1 0x1 PUSH0 MSTORE PUSH1 0xB PUSH1 0x20 MSTORE PUSH32 0x72C6BFB7988AF3A1EFA6568F02A999BC52252641C659D85961CA3D372B57D5CF DUP1 SLOAD PUSH2 0x1B3 SWAP1 PUSH2 0x799 JUMP JUMPDEST PUSH1 0x1F DUP2 GT PUSH2 0x5E4 JUMPI JUMPDEST POP PUSH32 0x526F79616C20466C757368000000000000000000000000000000000000000016 SWAP1 SSTORE PUSH1 0xA PUSH32 0xD421A5181C571BBA3F01190C922C3B2A896FC1D84E86C9F17AC10E67EBEF8B5C SSTORE PUSH3 0x4C4B40 PUSH32 0xFD54FF1ED53F34A900B24C5BA64F85761163B5D82D98A47B9BD80E45466993C5 SSTORE PUSH1 0x2 PUSH0 MSTORE PUSH1 0xB PUSH1 0x20 MSTORE PUSH32 0xA50EECE07C7DB1631545C0069BD8F5F54D5935E215D59097EDF258A44BA91634 DUP1 SLOAD PUSH2 0x269 SWAP1 PUSH2 0x263 SWAP1 PUSH2 0x799 JUMP JUMPDEST DUP3 PUSH2 0x7E7 JUMP JUMPDEST PUSH32 0x537472616967687420466C75736800000000000000000000000000000000001C SWAP1 SSTORE PUSH1 0x14 PUSH32 0x5D6016397A73F5E079297AC5A36FEF17B4D9C3831618E63AB105738020DDD720 SSTORE PUSH3 0x4C4B40 PUSH32 0x10A81EED9D63D16FACE5E76357905348E6253D3394086026BB2BF2145D7CC249 SSTORE PUSH1 0x3 PUSH0 MSTORE PUSH1 0xB PUSH1 0x20 MSTORE PUSH32 0x64C15CC42BE7899B001F818CF4433057002112C418D1D3A67CD5CB453051D33E DUP1 SLOAD PUSH2 0x30F SWAP1 PUSH2 0x263 SWAP1 PUSH2 0x799 JUMP JUMPDEST PUSH32 0x466F7572206F662061204B696E6400000000000000000000000000000000001C SWAP1 SSTORE PUSH1 0x32 PUSH32 0xC0DA782485E77AE272268AE0A3FF44C1552ECB60B3743924DE17A815E0A3CFD7 SSTORE PUSH3 0x4C4B40 PUSH32 0x26B4A10D0F0B04925C23BD4480EE147C916E5E87A7D68206A533DAD160AC81E2 SSTORE PUSH1 0x4 PUSH0 MSTORE PUSH1 0xB PUSH1 0x20 MSTORE PUSH32 0x12D0C11577E2F0950F57C455C117796550B79F444811DB8BA2F69C57B646C784 DUP1 SLOAD PUSH2 0x3B1 SWAP1 PUSH2 0x799 JUMP JUMPDEST PUSH1 0x1F DUP2 GT PUSH2 0x5C4 JUMPI JUMPDEST POP PUSH32 0x46756C6C20486F75736500000000000000000000000000000000000000000014 SWAP1 SSTORE PUSH1 0x64 PUSH32 0x5B84BB9E0F5AA9CC45A8BB66468DB5D4816D1E75FF86B5E1F1DD8D144DAB8097 SSTORE PUSH3 0x4C4B40 PUSH32 0xAFAFE8948A4ED9D478B1E9A5780B119B5EDD00EA7D07BC35BEF7C814824EB94B SSTORE PUSH1 0x5 PUSH0 MSTORE PUSH1 0xB PUSH1 0x20 MSTORE PUSH32 0xEBAE6141BAE5521E99E0A8D610356B0F501FEA54980B59C84841DB43BA7204F4 DUP1 SLOAD PUSH2 0x45D SWAP1 PUSH2 0x799 JUMP JUMPDEST PUSH1 0x1F DUP2 GT PUSH2 0x5A4 JUMPI JUMPDEST POP PUSH1 0xA PUSH5 0x8CD8EAE6D PUSH1 0xDB SHL ADD SWAP1 SSTORE PUSH1 0xC8 PUSH32 0x2CD9EBF6FF19CDD7FFCC447D7C7D47B5991F5C7392A04512134E765802361FA6 SSTORE PUSH3 0x4C4B40 PUSH32 0xA5049387D9CB649C59F4BDA666105BA636C2A103D8E2B232BA4D125737CD2149 SSTORE PUSH1 0x6 PUSH0 MSTORE PUSH1 0xB PUSH1 0x20 MSTORE PUSH32 0x387E9D1203691D8E3362A7E4C6723DE358A4010D7F31ECBEC3FBFC61D1C75FC DUP1 SLOAD PUSH2 0x4F4 SWAP1 PUSH2 0x799 JUMP JUMPDEST PUSH1 0x1F DUP2 GT PUSH2 0x584 JUMPI JUMPDEST POP PUSH32 0x5374726169676874000000000000000000000000000000000000000000000010 SWAP1 SSTORE PUSH1 0x6 PUSH0 MSTORE PUSH2 0x12C PUSH32 0x980F427E00E74F6D338ADFCCC7468518C8C8EA00836D0DCE98C5FE154E17BF2B SSTORE PUSH1 0xD PUSH1 0x20 MSTORE PUSH3 0x4C4B40 PUSH32 0xA48544818C2C710AFA9849C61EC9C60E8ACDB3EAA2885F33B37E118CC8FD04AC SSTORE PUSH1 0x40 MLOAD PUSH2 0x1762 SWAP1 DUP2 PUSH2 0x810 DUP3 CODECOPY RETURN JUMPDEST PUSH2 0x59E SWAP1 DUP3 PUSH0 MSTORE PUSH1 0x1F PUSH1 0x20 PUSH0 KECCAK256 SWAP2 ADD PUSH1 0x5 SHR DUP2 ADD SWAP1 PUSH2 0x7D1 JUMP JUMPDEST PUSH0 PUSH2 0x4FD JUMP JUMPDEST PUSH2 0x5BE SWAP1 DUP3 PUSH0 MSTORE PUSH1 0x1F PUSH1 0x20 PUSH0 KECCAK256 SWAP2 ADD PUSH1 0x5 SHR DUP2 ADD SWAP1 PUSH2 0x7D1 JUMP JUMPDEST PUSH0 PUSH2 0x466 JUMP JUMPDEST PUSH2 0x5DE SWAP1 DUP3 PUSH0 MSTORE PUSH1 0x1F PUSH1 0x20 PUSH0 KECCAK256 SWAP2 ADD PUSH1 0x5 SHR DUP2 ADD SWAP1 PUSH2 0x7D1 JUMP JUMPDEST PUSH0 PUSH2 0x3BA JUMP JUMPDEST PUSH2 0x5FE SWAP1 DUP3 PUSH0 MSTORE PUSH1 0x1F PUSH1 0x20 PUSH0 KECCAK256 SWAP2 ADD PUSH1 0x5 SHR DUP2 ADD SWAP1 PUSH2 0x7D1 JUMP JUMPDEST PUSH0 PUSH2 0x1BC JUMP JUMPDEST ADD MLOAD SWAP1 POP PUSH0 DUP1 PUSH2 0x169 JUMP JUMPDEST PUSH1 0x1F NOT DUP3 AND SWAP3 PUSH1 0x5 PUSH0 MSTORE DUP1 PUSH0 KECCAK256 SWAP2 PUSH0 JUMPDEST DUP6 DUP2 LT PUSH2 0x657 JUMPI POP DUP4 PUSH1 0x1 SWAP6 LT PUSH2 0x63F JUMPI JUMPDEST POP POP POP DUP2 SHL ADD PUSH1 0x5 SSTORE PUSH2 0x17E JUMP JUMPDEST ADD MLOAD PUSH0 NOT PUSH1 0xF8 DUP5 PUSH1 0x3 SHL AND SHR NOT AND SWAP1 SSTORE PUSH0 DUP1 DUP1 PUSH2 0x631 JUMP JUMPDEST SWAP2 SWAP3 PUSH1 0x20 PUSH1 0x1 DUP2 SWAP3 DUP7 DUP6 ADD MLOAD DUP2 SSTORE ADD SWAP5 ADD SWAP3 ADD PUSH2 0x61F JUMP JUMPDEST PUSH2 0x69B SWAP1 PUSH1 0x5 PUSH0 MSTORE PUSH1 0x20 PUSH0 KECCAK256 PUSH1 0x1F DUP5 ADD PUSH1 0x5 SHR DUP2 ADD SWAP2 PUSH1 0x20 DUP6 LT PUSH2 0x6A1 JUMPI JUMPDEST PUSH1 0x1F ADD PUSH1 0x5 SHR ADD SWAP1 PUSH2 0x7D1 JUMP JUMPDEST PUSH0 PUSH2 0x150 JUMP JUMPDEST SWAP1 SWAP2 POP DUP2 SWAP1 PUSH2 0x68E JUMP JUMPDEST PUSH4 0x4E487B71 PUSH1 0xE0 SHL PUSH0 MSTORE PUSH1 0x41 PUSH1 0x4 MSTORE PUSH1 0x24 PUSH0 REVERT JUMPDEST PUSH1 0x40 MLOAD PUSH3 0x461BCD PUSH1 0xE5 SHL DUP2 MSTORE PUSH1 0x20 PUSH1 0x4 DUP3 ADD MSTORE PUSH1 0xE PUSH1 0x24 DUP3 ADD MSTORE PUSH14 0x24B73B30B634B21039B4B3B732B9 PUSH1 0x91 SHL PUSH1 0x44 DUP3 ADD MSTORE PUSH1 0x64 SWAP1 REVERT JUMPDEST PUSH1 0x1 PUSH0 MSTORE PUSH2 0x72D SWAP1 PUSH1 0x1F ADD PUSH1 0x5 SHR PUSH32 0xB10E2D527612073B26EECDFD717E6A320CF44B4AFAC2B0732D9FCBE2B7FA0CF6 SWAP1 DUP2 ADD SWAP1 PUSH2 0x7D1 JUMP JUMPDEST PUSH0 PUSH2 0xED JUMP JUMPDEST PUSH0 DUP1 MSTORE PUSH2 0x76A SWAP1 PUSH1 0x1F ADD PUSH1 0x5 SHR PUSH32 0x290DECD9548B62A8D60345A988386FC84BA6BC95484008F6362F93160EF3E563 SWAP1 DUP2 ADD SWAP1 PUSH2 0x7D1 JUMP JUMPDEST PUSH0 PUSH2 0xB4 JUMP JUMPDEST PUSH0 DUP1 REVERT JUMPDEST PUSH1 0x40 MLOAD SWAP2 SWAP1 PUSH1 0x1F ADD PUSH1 0x1F NOT AND DUP3 ADD PUSH1 0x1 PUSH1 0x1 PUSH1 0x40 SHL SUB DUP2 GT DUP4 DUP3 LT OR PUSH2 0x6AB JUMPI PUSH1 0x40 MSTORE JUMP JUMPDEST SWAP1 PUSH1 0x1 DUP3 DUP2 SHR SWAP3 AND DUP1 ISZERO PUSH2 0x7C7 JUMPI JUMPDEST PUSH1 0x20 DUP4 LT EQ PUSH2 0x7B3 JUMPI JUMP JUMPDEST PUSH4 0x4E487B71 PUSH1 0xE0 SHL PUSH0 MSTORE PUSH1 0x22 PUSH1 0x4 MSTORE PUSH1 0x24 PUSH0 REVERT JUMPDEST SWAP2 PUSH1 0x7F AND SWAP2 PUSH2 0x7A8 JUMP JUMPDEST DUP2 DUP2 LT PUSH2 0x7DC JUMPI POP POP JUMP JUMPDEST PUSH0 DUP2 SSTORE PUSH1 0x1 ADD PUSH2 0x7D1 JUMP JUMPDEST SWAP1 PUSH1 0x1F DUP2 GT PUSH2 0x7F4 JUMPI POP POP JUMP JUMPDEST PUSH2 0x80D SWAP2 PUSH0 MSTORE PUSH1 0x1F PUSH1 0x20 PUSH0 KECCAK256 SWAP2 ADD PUSH1 0x5 SHR DUP2 ADD SWAP1 PUSH2 0x7D1 JUMP JUMPDEST JUMP INVALID PUSH1 0x80 DUP1 PUSH1 0x40 MSTORE PUSH1 0x4 CALLDATASIZE LT ISZERO PUSH2 0x1C JUMPI JUMPDEST POP CALLDATASIZE ISZERO PUSH2 0x1A JUMPI PUSH0 DUP1 REVERT JUMPDEST STOP JUMPDEST PUSH0 CALLDATALOAD PUSH1 0xE0 SHR SWAP1 DUP2 PUSH4 0x1FFC9A7 EQ PUSH2 0x114D JUMPI POP DUP1 PUSH4 0x6FDDE03 EQ PUSH2 0x1131 JUMPI DUP1 PUSH4 0x81812FC EQ PUSH2 0x10DD JUMPI DUP1 PUSH4 0x95EA7B3 EQ PUSH2 0xFBC JUMPI DUP1 PUSH4 0xCF524B9 EQ PUSH2 0xABE JUMPI DUP1 PUSH4 0x238AC933 EQ PUSH2 0xA96 JUMPI DUP1 PUSH4 0x23B872DD EQ PUSH2 0xA41 JUMPI DUP1 PUSH4 0x3CCFD60B EQ PUSH2 0xA46 JUMPI DUP1 PUSH4 0x42842E0E EQ PUSH2 0xA41 JUMPI DUP1 PUSH4 0x4C349385 EQ PUSH2 0xA17 JUMPI DUP1 PUSH4 0x55F804B3 EQ PUSH2 0x853 JUMPI DUP1 PUSH4 0x5A98E566 EQ PUSH2 0x829 JUMPI DUP1 PUSH4 0x6352211E EQ PUSH2 0x7F9 JUMPI DUP1 PUSH4 0x64E4B8C2 EQ PUSH2 0x7DC JUMPI DUP1 PUSH4 0x688D8903 EQ PUSH2 0x771 JUMPI DUP1 PUSH4 0x6C0360EB EQ PUSH2 0x6DF JUMPI DUP1 PUSH4 0x6C19E783 EQ PUSH2 0x650 JUMPI DUP1 PUSH4 0x6D8E89D0 EQ PUSH2 0x626 JUMPI DUP1 PUSH4 0x70A08231 EQ PUSH2 0x5E3 JUMPI DUP1 PUSH4 0x71F79DC5 EQ PUSH2 0x5B9 JUMPI DUP1 PUSH4 0x852424AE EQ PUSH2 0x58A JUMPI DUP1 PUSH4 0x8DA5CB5B EQ PUSH2 0x562 JUMPI DUP1 PUSH4 0x95D89B41 EQ PUSH2 0x498 JUMPI DUP1 PUSH4 0xA22CB465 EQ PUSH2 0x40F JUMPI DUP1 PUSH4 0xAA599A8F EQ PUSH2 0x3A4 JUMPI DUP1 PUSH4 0xC2DCE576 EQ PUSH2 0x36E JUMPI DUP1 PUSH4 0xC87B56DD EQ PUSH2 0x235 JUMPI DUP1 PUSH4 0xE985E9C5 EQ PUSH2 0x1D3 JUMPI PUSH4 0xF91CC013 EQ PUSH2 0x167 JUMPI PUSH0 PUSH2 0xF JUMP JUMPDEST CALLVALUE PUSH2 0x1CF JUMPI PUSH1 0x20 CALLDATASIZE PUSH1 0x3 NOT ADD SLT PUSH2 0x1CF JUMPI PUSH1 0x4 CALLDATALOAD PUSH2 0x183 PUSH2 0x15D8 JUMP JUMPDEST PUSH0 MSTORE PUSH1 0xE PUSH1 0x20 MSTORE PUSH1 0x40 PUSH0 KECCAK256 DUP2 PUSH0 MSTORE PUSH1 0x20 MSTORE PUSH1 0x40 PUSH0 KECCAK256 SLOAD SWAP1 PUSH0 MSTORE PUSH1 0xC PUSH1 0x20 MSTORE PUSH1 0x40 PUSH0 KECCAK256 SLOAD DUP1 DUP3 LT ISZERO PUSH0 EQ PUSH2 0x1BE JUMPI POP POP PUSH1 0x20 PUSH0 JUMPDEST PUSH1 0x40 MLOAD SWAP1 DUP2 MSTORE RETURN JUMPDEST PUSH1 0x20 SWAP2 PUSH2 0x1CA SWAP2 PUSH2 0x14EB JUMP JUMPDEST PUSH2 0x1B6 JUMP JUMPDEST PUSH0 DUP1 REVERT JUMPDEST CALLVALUE PUSH2 0x1CF JUMPI PUSH1 0x40 CALLDATASIZE PUSH1 0x3 NOT ADD SLT PUSH2 0x1CF JUMPI PUSH2 0x1EC PUSH2 0x12BE JUMP JUMPDEST PUSH1 0x24 CALLDATALOAD SWAP1 PUSH1 0x1 PUSH1 0x1 PUSH1 0xA0 SHL SUB DUP3 AND DUP3 SUB PUSH2 0x1CF JUMPI PUSH1 0x1 DUP1 PUSH1 0xA0 SHL SUB AND PUSH0 MSTORE PUSH1 0xA PUSH1 0x20 MSTORE PUSH1 0x40 PUSH0 KECCAK256 SWAP1 PUSH1 0x1 DUP1 PUSH1 0xA0 SHL SUB AND PUSH0 MSTORE PUSH1 0x20 MSTORE PUSH1 0x20 PUSH1 0xFF PUSH1 0x40 PUSH0 KECCAK256 SLOAD AND PUSH1 0x40 MLOAD SWAP1 ISZERO ISZERO DUP2 MSTORE RETURN JUMPDEST CALLVALUE PUSH2 0x1CF JUMPI PUSH1 0x20 CALLDATASIZE PUSH1 0x3 NOT ADD SLT PUSH2 0x1CF JUMPI PUSH1 0x4 CALLDATALOAD PUSH0 DUP2 DUP2 MSTORE PUSH1 0x7 PUSH1 0x20 MSTORE PUSH1 0x40 SWAP1 KECCAK256 SLOAD PUSH2 0x26B SWAP1 PUSH1 0x1 PUSH1 0x1 PUSH1 0xA0 SHL SUB AND ISZERO ISZERO PUSH2 0x14A1 JUMP JUMPDEST DUP1 PUSH0 MSTORE PUSH1 0x10 PUSH1 0x20 MSTORE PUSH2 0x289 PUSH2 0x283 PUSH1 0x40 PUSH0 KECCAK256 SLOAD PUSH2 0x1633 JUMP JUMPDEST SWAP2 PUSH2 0x1633 JUMP JUMPDEST SWAP1 PUSH1 0x40 MLOAD SWAP1 PUSH0 SWAP1 PUSH1 0x5 SLOAD PUSH2 0x29C DUP2 PUSH2 0x11A0 JUMP JUMPDEST SWAP1 PUSH1 0x1 DUP2 AND SWAP1 DUP2 ISZERO PUSH2 0x34C JUMPI POP PUSH1 0x1 EQ PUSH2 0x309 JUMPI JUMPDEST POP DUP3 PUSH1 0x20 PUSH2 0x305 SWAP6 DUP2 PUSH2 0x2F1 SWAP6 DUP6 PUSH1 0x1 SWAP7 MLOAD SWAP3 DUP4 SWAP2 ADD DUP3 MCOPY ADD SWAP1 PUSH1 0x2F PUSH1 0xF8 SHL DUP3 MSTORE DUP1 MLOAD SWAP3 DUP4 SWAP2 ADD DUP6 DUP4 ADD MCOPY ADD PUSH0 DUP4 DUP3 ADD MSTORE SUB ADD PUSH1 0x1F NOT DUP2 ADD DUP4 MSTORE DUP3 PUSH2 0x11D8 JUMP JUMPDEST PUSH1 0x40 MLOAD SWAP2 DUP3 SWAP2 PUSH1 0x20 DUP4 MSTORE PUSH1 0x20 DUP4 ADD SWAP1 PUSH2 0x129A JUMP JUMPDEST SUB SWAP1 RETURN JUMPDEST SWAP1 SWAP2 POP PUSH1 0x5 PUSH0 MSTORE PUSH0 MLOAD PUSH1 0x20 PUSH2 0x170D PUSH0 CODECOPY PUSH0 MLOAD SWAP1 PUSH0 MSTORE PUSH0 SWAP1 JUMPDEST DUP3 DUP3 LT PUSH2 0x336 JUMPI POP POP DUP3 ADD PUSH1 0x20 ADD SWAP1 DUP3 PUSH2 0x2B1 JUMP JUMPDEST PUSH1 0x1 DUP2 PUSH1 0x20 SWAP3 SLOAD DUP4 DUP6 DUP10 ADD ADD MSTORE ADD SWAP2 ADD SWAP1 PUSH2 0x321 JUMP JUMPDEST PUSH1 0xFF NOT AND PUSH1 0x20 DUP7 DUP2 ADD SWAP2 SWAP1 SWAP2 MSTORE DUP3 ISZERO ISZERO SWAP1 SWAP3 MUL DUP6 ADD SWAP1 SWAP2 ADD SWAP3 POP DUP4 SWAP1 POP PUSH2 0x2B1 JUMP JUMPDEST CALLVALUE PUSH2 0x1CF JUMPI PUSH1 0x40 CALLDATASIZE PUSH1 0x3 NOT ADD SLT PUSH2 0x1CF JUMPI PUSH1 0x4 CALLDATALOAD PUSH0 MSTORE PUSH1 0xE PUSH1 0x20 MSTORE PUSH1 0x40 PUSH0 KECCAK256 PUSH1 0x24 CALLDATALOAD PUSH0 MSTORE PUSH1 0x20 MSTORE PUSH1 0x20 PUSH1 0x40 PUSH0 KECCAK256 SLOAD PUSH1 0x40 MLOAD SWAP1 DUP2 MSTORE RETURN JUMPDEST CALLVALUE PUSH2 0x1CF JUMPI PUSH1 0x60 CALLDATASIZE PUSH1 0x3 NOT ADD SLT PUSH2 0x1CF JUMPI PUSH1 0x4 CALLDATALOAD PUSH2 0x3CD PUSH1 0x1 DUP1 PUSH1 0xA0 SHL SUB PUSH1 0x3 SLOAD AND CALLER EQ PUSH2 0x14F8 JUMP JUMPDEST PUSH1 0x1 DUP2 LT ISZERO DUP1 PUSH2 0x404 JUMPI JUMPDEST PUSH2 0x3E1 SWAP1 PUSH2 0x1590 JUMP JUMPDEST DUP1 PUSH0 MSTORE PUSH1 0xC PUSH1 0x20 MSTORE PUSH1 0x24 CALLDATALOAD PUSH1 0x40 PUSH0 KECCAK256 SSTORE PUSH0 MSTORE PUSH1 0xD PUSH1 0x20 MSTORE PUSH1 0x44 CALLDATALOAD PUSH1 0x40 PUSH0 KECCAK256 SSTORE PUSH0 DUP1 RETURN JUMPDEST POP PUSH1 0x6 DUP2 GT ISZERO PUSH2 0x3D8 JUMP JUMPDEST CALLVALUE PUSH2 0x1CF JUMPI PUSH1 0x40 CALLDATASIZE PUSH1 0x3 NOT ADD SLT PUSH2 0x1CF JUMPI PUSH2 0x428 PUSH2 0x12BE JUMP JUMPDEST PUSH1 0x24 CALLDATALOAD SWAP1 DUP2 ISZERO ISZERO DUP1 SWAP3 SUB PUSH2 0x1CF JUMPI CALLER PUSH0 MSTORE PUSH1 0xA PUSH1 0x20 MSTORE PUSH1 0x40 PUSH0 KECCAK256 PUSH1 0x1 DUP1 PUSH1 0xA0 SHL SUB DUP3 AND PUSH0 MSTORE PUSH1 0x20 MSTORE PUSH1 0x40 PUSH0 KECCAK256 PUSH1 0xFF NOT DUP2 SLOAD AND PUSH1 0xFF DUP5 AND OR SWAP1 SSTORE PUSH1 0x40 MLOAD SWAP2 DUP3 MSTORE PUSH1 0x1 DUP1 PUSH1 0xA0 SHL SUB AND SWAP1 PUSH32 0x17307EAB39AB6107E8899845AD3D59BD9653F200F220920489CA2B5937696C31 PUSH1 0x20 CALLER SWAP3 LOG3 STOP JUMPDEST CALLVALUE PUSH2 0x1CF JUMPI PUSH0 CALLDATASIZE PUSH1 0x3 NOT ADD SLT PUSH2 0x1CF JUMPI PUSH1 0x40 MLOAD PUSH0 PUSH1 0x1 SLOAD PUSH2 0x4B8 DUP2 PUSH2 0x11A0 JUMP JUMPDEST DUP1 DUP5 MSTORE SWAP1 PUSH1 0x1 DUP2 AND SWAP1 DUP2 ISZERO PUSH2 0x53E JUMPI POP PUSH1 0x1 EQ PUSH2 0x4E0 JUMPI JUMPDEST PUSH2 0x305 DUP4 PUSH2 0x2F1 DUP2 DUP6 SUB DUP3 PUSH2 0x11D8 JUMP JUMPDEST PUSH1 0x1 PUSH0 SWAP1 DUP2 MSTORE PUSH32 0xB10E2D527612073B26EECDFD717E6A320CF44B4AFAC2B0732D9FCBE2B7FA0CF6 SWAP4 SWAP3 POP SWAP1 JUMPDEST DUP1 DUP3 LT PUSH2 0x524 JUMPI POP SWAP1 SWAP2 POP DUP2 ADD PUSH1 0x20 ADD PUSH2 0x2F1 PUSH2 0x4D0 JUMP JUMPDEST SWAP2 SWAP3 PUSH1 0x1 DUP2 PUSH1 0x20 SWAP3 SLOAD DUP4 DUP6 DUP9 ADD ADD MSTORE ADD SWAP2 ADD SWAP1 SWAP3 SWAP2 PUSH2 0x50C JUMP JUMPDEST PUSH1 0xFF NOT AND PUSH1 0x20 DUP1 DUP7 ADD SWAP2 SWAP1 SWAP2 MSTORE SWAP2 ISZERO ISZERO PUSH1 0x5 SHL DUP5 ADD SWAP1 SWAP2 ADD SWAP2 POP PUSH2 0x2F1 SWAP1 POP PUSH2 0x4D0 JUMP JUMPDEST CALLVALUE PUSH2 0x1CF JUMPI PUSH0 CALLDATASIZE PUSH1 0x3 NOT ADD SLT PUSH2 0x1CF JUMPI PUSH1 0x3 SLOAD PUSH1 0x40 MLOAD PUSH1 0x1 PUSH1 0x1 PUSH1 0xA0 SHL SUB SWAP1 SWAP2 AND DUP2 MSTORE PUSH1 0x20 SWAP1 RETURN JUMPDEST CALLVALUE PUSH2 0x1CF JUMPI PUSH1 0x20 CALLDATASIZE PUSH1 0x3 NOT ADD SLT PUSH2 0x1CF JUMPI PUSH1 0x4 CALLDATALOAD PUSH0 MSTORE PUSH1 0xF PUSH1 0x20 MSTORE PUSH1 0x20 PUSH1 0xFF PUSH1 0x40 PUSH0 KECCAK256 SLOAD AND PUSH1 0x40 MLOAD SWAP1 ISZERO ISZERO DUP2 MSTORE RETURN JUMPDEST CALLVALUE PUSH2 0x1CF JUMPI PUSH1 0x20 CALLDATASIZE PUSH1 0x3 NOT ADD SLT PUSH2 0x1CF JUMPI PUSH1 0x4 CALLDATALOAD PUSH0 MSTORE PUSH1 0xD PUSH1 0x20 MSTORE PUSH1 0x20 PUSH1 0x40 PUSH0 KECCAK256 SLOAD PUSH1 0x40 MLOAD SWAP1 DUP2 MSTORE RETURN JUMPDEST CALLVALUE PUSH2 0x1CF JUMPI PUSH1 0x20 CALLDATASIZE PUSH1 0x3 NOT ADD SLT PUSH2 0x1CF JUMPI PUSH1 0x1 PUSH1 0x1 PUSH1 0xA0 SHL SUB PUSH2 0x604 PUSH2 0x12BE JUMP JUMPDEST AND PUSH2 0x610 DUP2 ISZERO ISZERO PUSH2 0x1555 JUMP JUMPDEST PUSH0 MSTORE PUSH1 0x8 PUSH1 0x20 MSTORE PUSH1 0x20 PUSH1 0x40 PUSH0 KECCAK256 SLOAD PUSH1 0x40 MLOAD SWAP1 DUP2 MSTORE RETURN JUMPDEST CALLVALUE PUSH2 0x1CF JUMPI PUSH1 0x20 CALLDATASIZE PUSH1 0x3 NOT ADD SLT PUSH2 0x1CF JUMPI PUSH1 0x4 CALLDATALOAD PUSH0 MSTORE PUSH1 0xB PUSH1 0x20 MSTORE PUSH2 0x305 PUSH2 0x2F1 PUSH1 0x40 PUSH0 KECCAK256 PUSH2 0x11FA JUMP JUMPDEST CALLVALUE PUSH2 0x1CF JUMPI PUSH1 0x20 CALLDATASIZE PUSH1 0x3 NOT ADD SLT PUSH2 0x1CF JUMPI PUSH2 0x669 PUSH2 0x12BE JUMP JUMPDEST PUSH2 0x67E PUSH1 0x1 DUP1 PUSH1 0xA0 SHL SUB PUSH1 0x3 SLOAD AND CALLER EQ PUSH2 0x14F8 JUMP JUMPDEST PUSH1 0x1 PUSH1 0x1 PUSH1 0xA0 SHL SUB AND DUP1 ISZERO PUSH2 0x6A9 JUMPI PUSH12 0xFFFFFFFFFFFFFFFFFFFFFFFF PUSH1 0xA0 SHL PUSH1 0x4 SLOAD AND OR PUSH1 0x4 SSTORE PUSH0 DUP1 RETURN JUMPDEST PUSH1 0x40 MLOAD PUSH3 0x461BCD PUSH1 0xE5 SHL DUP2 MSTORE PUSH1 0x20 PUSH1 0x4 DUP3 ADD MSTORE PUSH1 0xE PUSH1 0x24 DUP3 ADD MSTORE PUSH14 0x24B73B30B634B21039B4B3B732B9 PUSH1 0x91 SHL PUSH1 0x44 DUP3 ADD MSTORE PUSH1 0x64 SWAP1 REVERT JUMPDEST CALLVALUE PUSH2 0x1CF JUMPI PUSH0 CALLDATASIZE PUSH1 0x3 NOT ADD SLT PUSH2 0x1CF JUMPI PUSH1 0x40 MLOAD PUSH0 PUSH1 0x5 SLOAD PUSH2 0x6FF DUP2 PUSH2 0x11A0 JUMP JUMPDEST DUP1 DUP5 MSTORE SWAP1 PUSH1 0x1 DUP2 AND SWAP1 DUP2 ISZERO PUSH2 0x53E JUMPI POP PUSH1 0x1 EQ PUSH2 0x726 JUMPI PUSH2 0x305 DUP4 PUSH2 0x2F1 DUP2 DUP6 SUB DUP3 PUSH2 0x11D8 JUMP JUMPDEST PUSH1 0x5 PUSH0 SWAP1 DUP2 MSTORE PUSH0 MLOAD PUSH1 0x20 PUSH2 0x170D PUSH0 CODECOPY PUSH0 MLOAD SWAP1 PUSH0 MSTORE SWAP4 SWAP3 POP SWAP1 JUMPDEST DUP1 DUP3 LT PUSH2 0x757 JUMPI POP SWAP1 SWAP2 POP DUP2 ADD PUSH1 0x20 ADD PUSH2 0x2F1 PUSH2 0x4D0 JUMP JUMPDEST SWAP2 SWAP3 PUSH1 0x1 DUP2 PUSH1 0x20 SWAP3 SLOAD DUP4 DUP6 DUP9 ADD ADD MSTORE ADD SWAP2 ADD SWAP1 SWAP3 SWAP2 PUSH2 0x73F JUMP JUMPDEST CALLVALUE PUSH2 0x1CF JUMPI PUSH1 0x20 CALLDATASIZE PUSH1 0x3 NOT ADD SLT PUSH2 0x1CF JUMPI PUSH2 0x7CD PUSH1 0x4 CALLDATALOAD DUP1 PUSH0 MSTORE PUSH1 0xB PUSH1 0x20 MSTORE PUSH1 0x40 PUSH0 KECCAK256 SWAP1 DUP1 PUSH0 MSTORE PUSH1 0xC PUSH1 0x20 MSTORE PUSH1 0x40 PUSH0 KECCAK256 SLOAD SWAP1 PUSH0 MSTORE PUSH1 0xD PUSH1 0x20 MSTORE PUSH2 0x7B8 PUSH1 0x40 PUSH0 KECCAK256 SLOAD SWAP3 PUSH2 0x11FA JUMP JUMPDEST SWAP2 PUSH1 0x40 MLOAD SWAP4 DUP5 SWAP4 PUSH1 0x60 DUP6 MSTORE PUSH1 0x60 DUP6 ADD SWAP1 PUSH2 0x129A JUMP JUMPDEST SWAP2 PUSH1 0x20 DUP5 ADD MSTORE PUSH1 0x40 DUP4 ADD MSTORE SUB SWAP1 RETURN JUMPDEST CALLVALUE PUSH2 0x1CF JUMPI PUSH0 CALLDATASIZE PUSH1 0x3 NOT ADD SLT PUSH2 0x1CF JUMPI PUSH1 0x20 PUSH1 0x6 SLOAD PUSH1 0x40 MLOAD SWAP1 DUP2 MSTORE RETURN JUMPDEST CALLVALUE PUSH2 0x1CF JUMPI PUSH1 0x20 CALLDATASIZE PUSH1 0x3 NOT ADD SLT PUSH2 0x1CF JUMPI PUSH1 0x20 PUSH2 0x817 PUSH1 0x4 CALLDATALOAD PUSH2 0x1530 JUMP JUMPDEST PUSH1 0x40 MLOAD PUSH1 0x1 PUSH1 0x1 PUSH1 0xA0 SHL SUB SWAP1 SWAP2 AND DUP2 MSTORE RETURN JUMPDEST CALLVALUE PUSH2 0x1CF JUMPI PUSH1 0x20 CALLDATASIZE PUSH1 0x3 NOT ADD SLT PUSH2 0x1CF JUMPI PUSH1 0x4 CALLDATALOAD PUSH0 MSTORE PUSH1 0xC PUSH1 0x20 MSTORE PUSH1 0x20 PUSH1 0x40 PUSH0 KECCAK256 SLOAD PUSH1 0x40 MLOAD SWAP1 DUP2 MSTORE RETURN JUMPDEST CALLVALUE PUSH2 0x1CF JUMPI PUSH1 0x20 CALLDATASIZE PUSH1 0x3 NOT ADD SLT PUSH2 0x1CF JUMPI PUSH1 0x4 CALLDATALOAD PUSH8 0xFFFFFFFFFFFFFFFF DUP2 GT PUSH2 0x1CF JUMPI CALLDATASIZE PUSH1 0x23 DUP3 ADD SLT ISZERO PUSH2 0x1CF JUMPI DUP1 PUSH1 0x4 ADD CALLDATALOAD PUSH2 0x88F DUP2 PUSH2 0x1485 JUMP JUMPDEST SWAP2 PUSH2 0x89D PUSH1 0x40 MLOAD SWAP4 DUP5 PUSH2 0x11D8 JUMP JUMPDEST DUP2 DUP4 MSTORE CALLDATASIZE PUSH1 0x24 DUP4 DUP4 ADD ADD GT PUSH2 0x1CF JUMPI DUP2 PUSH0 SWAP3 PUSH1 0x24 PUSH1 0x20 SWAP4 ADD DUP4 DUP7 ADD CALLDATACOPY DUP4 ADD ADD MSTORE PUSH2 0x8D2 PUSH1 0x1 DUP1 PUSH1 0xA0 SHL SUB PUSH1 0x3 SLOAD AND CALLER EQ PUSH2 0x14F8 JUMP JUMPDEST DUP1 MLOAD PUSH8 0xFFFFFFFFFFFFFFFF DUP2 GT PUSH2 0xA03 JUMPI PUSH2 0x8EE PUSH1 0x5 SLOAD PUSH2 0x11A0 JUMP JUMPDEST PUSH1 0x1F DUP2 GT PUSH2 0x99B JUMPI JUMPDEST POP PUSH1 0x20 SWAP2 PUSH1 0x1F DUP3 GT PUSH1 0x1 EQ PUSH2 0x933 JUMPI SWAP2 DUP2 SWAP3 PUSH0 SWAP3 PUSH2 0x928 JUMPI JUMPDEST POP POP PUSH0 NOT PUSH1 0x3 DUP4 SWAP1 SHL SHR NOT AND PUSH1 0x1 SWAP2 SWAP1 SWAP2 SHL OR PUSH1 0x5 SSTORE STOP JUMPDEST ADD MLOAD SWAP1 POP DUP3 DUP1 PUSH2 0x910 JUMP JUMPDEST PUSH1 0x1F NOT DUP3 AND SWAP3 PUSH1 0x5 PUSH0 MSTORE PUSH0 MLOAD PUSH1 0x20 PUSH2 0x170D PUSH0 CODECOPY PUSH0 MLOAD SWAP1 PUSH0 MSTORE SWAP2 PUSH0 JUMPDEST DUP6 DUP2 LT PUSH2 0x983 JUMPI POP DUP4 PUSH1 0x1 SWAP6 LT PUSH2 0x96B JUMPI JUMPDEST POP POP POP DUP2 SHL ADD PUSH1 0x5 SSTORE STOP JUMPDEST ADD MLOAD PUSH0 NOT PUSH1 0xF8 DUP5 PUSH1 0x3 SHL AND SHR NOT AND SWAP1 SSTORE DUP3 DUP1 DUP1 PUSH2 0x960 JUMP JUMPDEST SWAP2 SWAP3 PUSH1 0x20 PUSH1 0x1 DUP2 SWAP3 DUP7 DUP6 ADD MLOAD DUP2 SSTORE ADD SWAP5 ADD SWAP3 ADD PUSH2 0x94E JUMP JUMPDEST PUSH1 0x5 PUSH0 MSTORE PUSH1 0x1F DUP3 ADD PUSH1 0x5 SHR PUSH0 MLOAD PUSH1 0x20 PUSH2 0x170D PUSH0 CODECOPY PUSH0 MLOAD SWAP1 PUSH0 MSTORE ADD SWAP1 PUSH1 0x20 DUP4 LT PUSH2 0x9EE JUMPI JUMPDEST PUSH1 0x1F ADD PUSH1 0x5 SHR PUSH0 MLOAD PUSH1 0x20 PUSH2 0x170D PUSH0 CODECOPY PUSH0 MLOAD SWAP1 PUSH0 MSTORE ADD SWAP1 JUMPDEST DUP2 DUP2 LT PUSH2 0x9E3 JUMPI POP PUSH2 0x8F7 JUMP JUMPDEST PUSH0 DUP2 SSTORE PUSH1 0x1 ADD PUSH2 0x9D6 JUMP JUMPDEST PUSH0 MLOAD PUSH1 0x20 PUSH2 0x170D PUSH0 CODECOPY PUSH0 MLOAD SWAP1 PUSH0 MSTORE SWAP2 POP PUSH2 0x9BF JUMP JUMPDEST PUSH4 0x4E487B71 PUSH1 0xE0 SHL PUSH0 MSTORE PUSH1 0x41 PUSH1 0x4 MSTORE PUSH1 0x24 PUSH0 REVERT JUMPDEST CALLVALUE PUSH2 0x1CF JUMPI PUSH1 0x20 CALLDATASIZE PUSH1 0x3 NOT ADD SLT PUSH2 0x1CF JUMPI PUSH1 0x4 CALLDATALOAD PUSH0 MSTORE PUSH1 0x10 PUSH1 0x20 MSTORE PUSH1 0x20 PUSH1 0x40 PUSH0 KECCAK256 SLOAD PUSH1 0x40 MLOAD SWAP1 DUP2 MSTORE RETURN JUMPDEST PUSH2 0x12D4 JUMP JUMPDEST CALLVALUE PUSH2 0x1CF JUMPI PUSH0 CALLDATASIZE PUSH1 0x3 NOT ADD SLT PUSH2 0x1CF JUMPI PUSH0 DUP1 DUP1 DUP1 PUSH1 0x1 DUP1 PUSH1 0xA0 SHL SUB PUSH1 0x3 SLOAD AND PUSH2 0xA70 DUP2 CALLER EQ PUSH2 0x14F8 JUMP JUMPDEST SELFBALANCE SWAP1 DUP3 DUP3 ISZERO PUSH2 0xA8D JUMPI JUMPDEST CALL ISZERO PUSH2 0xA82 JUMPI STOP JUMPDEST PUSH1 0x40 MLOAD RETURNDATASIZE PUSH0 DUP3 RETURNDATACOPY RETURNDATASIZE SWAP1 REVERT JUMPDEST POP PUSH2 0x8FC PUSH2 0xA7A JUMP JUMPDEST CALLVALUE PUSH2 0x1CF JUMPI PUSH0 CALLDATASIZE PUSH1 0x3 NOT ADD SLT PUSH2 0x1CF JUMPI PUSH1 0x4 SLOAD PUSH1 0x40 MLOAD PUSH1 0x1 PUSH1 0x1 PUSH1 0xA0 SHL SUB SWAP1 SWAP2 AND DUP2 MSTORE PUSH1 0x20 SWAP1 RETURN JUMPDEST PUSH1 0xC0 CALLDATASIZE PUSH1 0x3 NOT ADD SLT PUSH2 0x1CF JUMPI PUSH1 0x4 CALLDATALOAD PUSH1 0x24 CALLDATALOAD PUSH1 0x44 CALLDATALOAD PUSH8 0xFFFFFFFFFFFFFFFF DUP2 GT PUSH2 0x1CF JUMPI CALLDATASIZE PUSH1 0x23 DUP3 ADD SLT ISZERO PUSH2 0x1CF JUMPI DUP1 PUSH1 0x4 ADD CALLDATALOAD SWAP1 PUSH8 0xFFFFFFFFFFFFFFFF DUP3 GT PUSH2 0x1CF JUMPI PUSH1 0x24 DUP2 ADD SWAP1 PUSH1 0x24 DUP4 CALLDATASIZE SWAP3 ADD ADD GT PUSH2 0x1CF JUMPI PUSH1 0x64 CALLDATALOAD PUSH1 0xFF DUP2 AND DUP1 SWAP2 SUB PUSH2 0x1CF JUMPI PUSH1 0x1 DUP6 LT ISZERO DUP1 PUSH2 0xFB1 JUMPI JUMPDEST PUSH2 0xB35 SWAP1 PUSH2 0x1590 JUMP JUMPDEST DUP5 PUSH0 MSTORE PUSH1 0xD PUSH1 0x20 MSTORE PUSH1 0x40 PUSH0 KECCAK256 SLOAD CALLVALUE LT PUSH2 0xF75 JUMPI PUSH1 0x6 SLOAD PUSH2 0xB55 DUP2 DUP7 PUSH2 0x15CB JUMP JUMPDEST TIMESTAMP GT PUSH2 0xF3C JUMPI PUSH2 0xB65 SWAP1 DUP6 PUSH2 0x14EB JUMP JUMPDEST TIMESTAMP LT PUSH2 0xEF7 JUMPI PUSH2 0xB73 PUSH2 0x15D8 JUMP JUMPDEST PUSH0 MSTORE PUSH1 0xE PUSH1 0x20 MSTORE PUSH1 0x40 PUSH0 KECCAK256 DUP6 PUSH0 MSTORE PUSH1 0x20 MSTORE PUSH1 0x40 PUSH0 KECCAK256 SLOAD DUP6 PUSH0 MSTORE PUSH1 0xC PUSH1 0x20 MSTORE PUSH1 0x40 PUSH0 KECCAK256 SLOAD GT ISZERO PUSH2 0xEBA JUMPI PUSH0 PUSH1 0x80 PUSH1 0x20 SWAP3 PUSH1 0x40 MLOAD DUP5 DUP2 ADD SWAP1 CALLER PUSH1 0x60 SHL SWAP9 DUP10 DUP4 MSTORE DUP11 PUSH1 0x34 DUP4 ADD MSTORE PUSH1 0x54 DUP3 ADD MSTORE DUP8 DUP8 PUSH1 0x74 DUP4 ADD CALLDATACOPY PUSH2 0xBE0 PUSH1 0x74 DUP3 DUP11 DUP2 ADD DUP9 DUP4 DUP3 ADD MSTORE SUB ADD PUSH1 0x1F NOT DUP2 ADD DUP4 MSTORE DUP3 PUSH2 0x11D8 JUMP JUMPDEST MLOAD SWAP1 KECCAK256 PUSH1 0x40 MLOAD DUP6 DUP2 ADD SWAP2 PUSH32 0x19457468657265756D205369676E6564204D6573736167653A0A333200000000 DUP4 MSTORE PUSH1 0x3C DUP3 ADD MSTORE PUSH1 0x3C DUP2 MSTORE PUSH2 0xC21 PUSH1 0x5C DUP3 PUSH2 0x11D8 JUMP JUMPDEST MLOAD SWAP1 KECCAK256 SWAP1 PUSH1 0x40 MLOAD SWAP2 DUP3 MSTORE DUP5 DUP3 ADD MSTORE PUSH1 0x84 CALLDATALOAD PUSH1 0x40 DUP3 ADD MSTORE PUSH1 0xA4 CALLDATALOAD PUSH1 0x60 DUP3 ADD MSTORE DUP3 DUP1 MSTORE PUSH1 0x1 GAS STATICCALL ISZERO PUSH2 0xA82 JUMPI PUSH0 MLOAD PUSH1 0x4 SLOAD PUSH1 0x1 PUSH1 0x1 PUSH1 0xA0 SHL SUB SWAP1 DUP2 AND SWAP2 AND SUB PUSH2 0xE81 JUMPI PUSH1 0x20 PUSH1 0x34 PUSH2 0xC8E SWAP3 DUP5 PUSH1 0x40 MLOAD SWAP6 DUP7 SWAP3 DUP6 DUP5 ADD SWAP9 DUP10 MSTORE DUP5 DUP5 ADD CALLDATACOPY DUP2 ADD DUP8 DUP4 DUP3 ADD MSTORE SUB ADD DUP1 DUP5 MSTORE ADD DUP3 PUSH2 0x11D8 JUMP JUMPDEST MLOAD SWAP1 KECCAK256 DUP1 PUSH0 MSTORE PUSH1 0xF PUSH1 0x20 MSTORE PUSH1 0xFF PUSH1 0x40 PUSH0 KECCAK256 SLOAD AND PUSH2 0xE4A JUMPI PUSH0 MSTORE PUSH1 0xF PUSH1 0x20 MSTORE PUSH1 0x40 PUSH0 KECCAK256 PUSH1 0x1 PUSH1 0xFF NOT DUP3 SLOAD AND OR SWAP1 SSTORE PUSH2 0xCC6 PUSH1 0x2 SLOAD PUSH2 0x14DD JUMP JUMPDEST DUP1 PUSH1 0x2 SSTORE PUSH2 0xCD5 CALLER ISZERO ISZERO PUSH2 0x1555 JUMP JUMPDEST PUSH0 DUP2 DUP2 MSTORE PUSH1 0x7 PUSH1 0x20 MSTORE PUSH1 0x40 SWAP1 KECCAK256 SLOAD PUSH1 0x1 PUSH1 0x1 PUSH1 0xA0 SHL SUB AND PUSH2 0xE16 JUMPI CALLER PUSH0 MSTORE PUSH1 0x8 PUSH1 0x20 MSTORE PUSH1 0x40 PUSH0 KECCAK256 DUP1 SLOAD SWAP1 PUSH1 0x1 DUP3 ADD DUP1 SWAP3 GT PUSH2 0xE02 JUMPI SSTORE PUSH0 DUP2 DUP2 MSTORE PUSH1 0x7 PUSH1 0x20 MSTORE PUSH1 0x40 DUP2 KECCAK256 DUP1 SLOAD PUSH1 0x1 PUSH1 0x1 PUSH1 0xA0 SHL SUB NOT AND CALLER SWAP1 DUP2 OR SWAP1 SWAP2 SSTORE DUP3 SWAP2 PUSH32 0xDDF252AD1BE2C89B69C2B068FC378DAA952BA7F163C4A11628F55A4DF523B3EF DUP2 DUP1 LOG4 DUP1 PUSH0 MSTORE PUSH1 0x10 PUSH1 0x20 MSTORE DUP2 PUSH1 0x40 PUSH0 KECCAK256 SSTORE PUSH2 0xD67 PUSH2 0x15D8 JUMP JUMPDEST PUSH0 MSTORE PUSH1 0xE PUSH1 0x20 MSTORE PUSH1 0x40 PUSH0 KECCAK256 DUP3 PUSH0 MSTORE PUSH1 0x20 MSTORE PUSH1 0x40 PUSH0 KECCAK256 PUSH2 0xD86 DUP2 SLOAD PUSH2 0x14DD JUMP JUMPDEST SWAP1 SSTORE DUP2 PUSH0 MSTORE PUSH1 0xD PUSH1 0x20 MSTORE PUSH1 0x40 PUSH0 KECCAK256 SLOAD DUP1 CALLVALUE GT PUSH2 0xDD5 JUMPI JUMPDEST POP DUP1 PUSH1 0x20 SWAP3 PUSH1 0x40 MLOAD SWAP1 DUP2 MSTORE PUSH32 0x226D2A645D7EDD4FC8D019B3EAE722231277E0665965DBA0C711BE16EF35BA9E DUP5 CALLER SWAP3 LOG3 PUSH1 0x40 MLOAD SWAP1 DUP2 MSTORE RETURN JUMPDEST PUSH0 DUP1 DUP1 PUSH2 0xDE3 DUP2 SWAP5 CALLVALUE PUSH2 0x14EB JUMP JUMPDEST DUP2 DUP2 ISZERO PUSH2 0xDF9 JUMPI JUMPDEST CALLER SWAP1 CALL ISZERO PUSH2 0xA82 JUMPI DUP3 PUSH2 0xD9D JUMP JUMPDEST POP PUSH2 0x8FC PUSH2 0xDEB JUMP JUMPDEST PUSH4 0x4E487B71 PUSH1 0xE0 SHL PUSH0 MSTORE PUSH1 0x11 PUSH1 0x4 MSTORE PUSH1 0x24 PUSH0 REVERT JUMPDEST PUSH1 0x40 MLOAD PUSH3 0x461BCD PUSH1 0xE5 SHL DUP2 MSTORE PUSH1 0x20 PUSH1 0x4 DUP3 ADD MSTORE PUSH1 0xC PUSH1 0x24 DUP3 ADD MSTORE PUSH12 0x546F6B656E20657869737473 PUSH1 0xA0 SHL PUSH1 0x44 DUP3 ADD MSTORE PUSH1 0x64 SWAP1 REVERT JUMPDEST PUSH1 0x40 MLOAD PUSH3 0x461BCD PUSH1 0xE5 SHL DUP2 MSTORE PUSH1 0x20 PUSH1 0x4 DUP3 ADD MSTORE PUSH1 0xF PUSH1 0x24 DUP3 ADD MSTORE PUSH15 0x105B1C9958591E4818DB185A5B5959 PUSH1 0x8A SHL PUSH1 0x44 DUP3 ADD MSTORE PUSH1 0x64 SWAP1 REVERT JUMPDEST PUSH1 0x40 MLOAD PUSH3 0x461BCD PUSH1 0xE5 SHL DUP2 MSTORE PUSH1 0x20 PUSH1 0x4 DUP3 ADD MSTORE PUSH1 0x11 PUSH1 0x24 DUP3 ADD MSTORE PUSH17 0x496E76616C6964207369676E6174757265 PUSH1 0x78 SHL PUSH1 0x44 DUP3 ADD MSTORE PUSH1 0x64 SWAP1 REVERT JUMPDEST PUSH1 0x40 MLOAD PUSH3 0x461BCD PUSH1 0xE5 SHL DUP2 MSTORE PUSH1 0x20 PUSH1 0x4 DUP3 ADD MSTORE PUSH1 0x15 PUSH1 0x24 DUP3 ADD MSTORE PUSH21 0x135BDB9D1A1B1E481B1A5B5A5D081C995858DA1959 PUSH1 0x5A SHL PUSH1 0x44 DUP3 ADD MSTORE PUSH1 0x64 SWAP1 REVERT JUMPDEST PUSH1 0x40 MLOAD PUSH3 0x461BCD PUSH1 0xE5 SHL DUP2 MSTORE PUSH1 0x20 PUSH1 0x4 DUP3 ADD MSTORE PUSH1 0x17 PUSH1 0x24 DUP3 ADD MSTORE PUSH32 0x5369676E6174757265206E6F742076616C696420796574000000000000000000 PUSH1 0x44 DUP3 ADD MSTORE PUSH1 0x64 SWAP1 REVERT JUMPDEST PUSH1 0x40 MLOAD PUSH3 0x461BCD PUSH1 0xE5 SHL DUP2 MSTORE PUSH1 0x20 PUSH1 0x4 DUP3 ADD MSTORE PUSH1 0x11 PUSH1 0x24 DUP3 ADD MSTORE PUSH17 0x14DA59DB985D1D5C9948195E1C1A5C9959 PUSH1 0x7A SHL PUSH1 0x44 DUP3 ADD MSTORE PUSH1 0x64 SWAP1 REVERT JUMPDEST PUSH1 0x40 MLOAD PUSH3 0x461BCD PUSH1 0xE5 SHL DUP2 MSTORE PUSH1 0x20 PUSH1 0x4 DUP3 ADD MSTORE PUSH1 0x14 PUSH1 0x24 DUP3 ADD MSTORE PUSH20 0x125B9CDD59999A58DA595B9D081C185E5B595B9D PUSH1 0x62 SHL PUSH1 0x44 DUP3 ADD MSTORE PUSH1 0x64 SWAP1 REVERT JUMPDEST POP PUSH1 0x6 DUP6 GT ISZERO PUSH2 0xB2C JUMP JUMPDEST CALLVALUE PUSH2 0x1CF JUMPI PUSH1 0x40 CALLDATASIZE PUSH1 0x3 NOT ADD SLT PUSH2 0x1CF JUMPI PUSH2 0xFD5 PUSH2 0x12BE JUMP JUMPDEST PUSH1 0x24 CALLDATALOAD SWAP1 PUSH1 0x1 PUSH1 0x1 PUSH1 0xA0 SHL SUB PUSH2 0xFEA DUP4 PUSH2 0x1530 JUMP JUMPDEST PUSH1 0x1 PUSH1 0x1 PUSH1 0xA0 SHL SUB SWAP1 SWAP3 AND SWAP2 AND DUP2 DUP2 EQ PUSH2 0x10A8 JUMPI DUP1 CALLER EQ DUP1 ISZERO PUSH2 0x1086 JUMPI JUMPDEST ISZERO PUSH2 0x1050 JUMPI PUSH0 DUP4 DUP2 MSTORE PUSH1 0x9 PUSH1 0x20 MSTORE PUSH1 0x40 DUP2 KECCAK256 DUP1 SLOAD PUSH1 0x1 PUSH1 0x1 PUSH1 0xA0 SHL SUB NOT AND DUP5 OR SWAP1 SSTORE PUSH32 0x8C5BE1E5EBEC7D5BD14F71427D1E84F3DD0314C0F7B2291E5B200AC8C7C3B925 SWAP1 DUP1 LOG4 STOP JUMPDEST PUSH1 0x40 MLOAD PUSH3 0x461BCD PUSH1 0xE5 SHL DUP2 MSTORE PUSH1 0x20 PUSH1 0x4 DUP3 ADD MSTORE PUSH1 0xE PUSH1 0x24 DUP3 ADD MSTORE PUSH14 0x139BDD08185D5D1A1BDC9A5E9959 PUSH1 0x92 SHL PUSH1 0x44 DUP3 ADD MSTORE PUSH1 0x64 SWAP1 REVERT JUMPDEST POP PUSH0 DUP2 DUP2 MSTORE PUSH1 0xA PUSH1 0x20 SWAP1 DUP2 MSTORE PUSH1 0x40 DUP1 DUP4 KECCAK256 CALLER DUP5 MSTORE SWAP1 SWAP2 MSTORE SWAP1 KECCAK256 SLOAD PUSH1 0xFF AND PUSH2 0x1008 JUMP JUMPDEST PUSH1 0x40 MLOAD PUSH3 0x461BCD PUSH1 0xE5 SHL DUP2 MSTORE PUSH1 0x20 PUSH1 0x4 DUP3 ADD MSTORE PUSH1 0xD PUSH1 0x24 DUP3 ADD MSTORE PUSH13 0x14D95B198B585C1C1C9BDD985B PUSH1 0x9A SHL PUSH1 0x44 DUP3 ADD MSTORE PUSH1 0x64 SWAP1 REVERT JUMPDEST CALLVALUE PUSH2 0x1CF JUMPI PUSH1 0x20 CALLDATASIZE PUSH1 0x3 NOT ADD SLT PUSH2 0x1CF JUMPI PUSH1 0x4 CALLDATALOAD PUSH0 DUP2 DUP2 MSTORE PUSH1 0x7 PUSH1 0x20 MSTORE PUSH1 0x40 SWAP1 KECCAK256 SLOAD PUSH2 0x1113 SWAP1 PUSH1 0x1 PUSH1 0x1 PUSH1 0xA0 SHL SUB AND ISZERO ISZERO PUSH2 0x14A1 JUMP JUMPDEST PUSH0 MSTORE PUSH1 0x9 PUSH1 0x20 MSTORE PUSH1 0x20 PUSH1 0x1 DUP1 PUSH1 0xA0 SHL SUB PUSH1 0x40 PUSH0 KECCAK256 SLOAD AND PUSH1 0x40 MLOAD SWAP1 DUP2 MSTORE RETURN JUMPDEST CALLVALUE PUSH2 0x1CF JUMPI PUSH0 CALLDATASIZE PUSH1 0x3 NOT ADD SLT PUSH2 0x1CF JUMPI PUSH2 0x305 PUSH2 0x2F1 PUSH0 PUSH2 0x11FA JUMP JUMPDEST CALLVALUE PUSH2 0x1CF JUMPI PUSH1 0x20 CALLDATASIZE PUSH1 0x3 NOT ADD SLT PUSH2 0x1CF JUMPI PUSH1 0x4 CALLDATALOAD SWAP1 PUSH4 0xFFFFFFFF PUSH1 0xE0 SHL DUP3 AND DUP1 SWAP3 SUB PUSH2 0x1CF JUMPI PUSH1 0x20 SWAP2 PUSH4 0x80AC58CD PUSH1 0xE0 SHL DUP2 EQ SWAP1 DUP2 ISZERO PUSH2 0x118F JUMPI JUMPDEST POP ISZERO ISZERO DUP2 MSTORE RETURN JUMPDEST PUSH4 0x5B5E139F PUSH1 0xE0 SHL EQ SWAP1 POP DUP4 PUSH2 0x1188 JUMP JUMPDEST SWAP1 PUSH1 0x1 DUP3 DUP2 SHR SWAP3 AND DUP1 ISZERO PUSH2 0x11CE JUMPI JUMPDEST PUSH1 0x20 DUP4 LT EQ PUSH2 0x11BA JUMPI JUMP JUMPDEST PUSH4 0x4E487B71 PUSH1 0xE0 SHL PUSH0 MSTORE PUSH1 0x22 PUSH1 0x4 MSTORE PUSH1 0x24 PUSH0 REVERT JUMPDEST SWAP2 PUSH1 0x7F AND SWAP2 PUSH2 0x11AF JUMP JUMPDEST SWAP1 PUSH1 0x1F DUP1 NOT SWAP2 ADD AND DUP2 ADD SWAP1 DUP2 LT PUSH8 0xFFFFFFFFFFFFFFFF DUP3 GT OR PUSH2 0xA03 JUMPI PUSH1 0x40 MSTORE JUMP JUMPDEST SWAP1 PUSH1 0x40 MLOAD SWAP2 DUP3 PUSH0 DUP3 SLOAD SWAP3 PUSH2 0x120D DUP5 PUSH2 0x11A0 JUMP JUMPDEST DUP1 DUP5 MSTORE SWAP4 PUSH1 0x1 DUP2 AND SWAP1 DUP2 ISZERO PUSH2 0x1278 JUMPI POP PUSH1 0x1 EQ PUSH2 0x1234 JUMPI JUMPDEST POP PUSH2 0x1232 SWAP3 POP SUB DUP4 PUSH2 0x11D8 JUMP JUMPDEST JUMP JUMPDEST SWAP1 POP PUSH0 SWAP3 SWAP2 SWAP3 MSTORE PUSH1 0x20 PUSH0 KECCAK256 SWAP1 PUSH0 SWAP2 JUMPDEST DUP2 DUP4 LT PUSH2 0x125C JUMPI POP POP SWAP1 PUSH1 0x20 PUSH2 0x1232 SWAP3 DUP3 ADD ADD PUSH0 PUSH2 0x1225 JUMP JUMPDEST PUSH1 0x20 SWAP2 SWAP4 POP DUP1 PUSH1 0x1 SWAP2 SLOAD DUP4 DUP6 DUP10 ADD ADD MSTORE ADD SWAP2 ADD SWAP1 SWAP2 DUP5 SWAP3 PUSH2 0x1243 JUMP JUMPDEST SWAP1 POP PUSH1 0x20 SWAP3 POP PUSH2 0x1232 SWAP5 SWAP2 POP PUSH1 0xFF NOT AND DUP3 DUP5 ADD MSTORE ISZERO ISZERO PUSH1 0x5 SHL DUP3 ADD ADD PUSH0 PUSH2 0x1225 JUMP JUMPDEST DUP1 MLOAD DUP1 DUP4 MSTORE PUSH1 0x20 SWAP3 SWAP2 DUP2 SWAP1 DUP5 ADD DUP5 DUP5 ADD MCOPY PUSH0 DUP3 DUP3 ADD DUP5 ADD MSTORE PUSH1 0x1F ADD PUSH1 0x1F NOT AND ADD ADD SWAP1 JUMP JUMPDEST PUSH1 0x4 CALLDATALOAD SWAP1 PUSH1 0x1 PUSH1 0x1 PUSH1 0xA0 SHL SUB DUP3 AND DUP3 SUB PUSH2 0x1CF JUMPI JUMP JUMPDEST CALLVALUE PUSH2 0x1CF JUMPI PUSH1 0x60 CALLDATASIZE PUSH1 0x3 NOT ADD SLT PUSH2 0x1CF JUMPI PUSH1 0x4 CALLDATALOAD PUSH1 0x1 PUSH1 0x1 PUSH1 0xA0 SHL SUB DUP2 AND SWAP1 DUP2 DUP2 SUB PUSH2 0x1CF JUMPI POP PUSH1 0x24 CALLDATALOAD PUSH1 0x1 PUSH1 0x1 PUSH1 0xA0 SHL SUB DUP2 AND SWAP1 DUP2 DUP2 SUB PUSH2 0x1CF JUMPI POP PUSH1 0x44 CALLDATALOAD SWAP2 PUSH1 0x1 PUSH1 0x1 PUSH1 0xA0 SHL SUB PUSH2 0x1326 DUP5 PUSH2 0x1530 JUMP JUMPDEST AND DUP1 CALLER EQ SWAP1 DUP2 ISZERO PUSH2 0x1465 JUMPI JUMPDEST DUP2 ISZERO PUSH2 0x1442 JUMPI JUMPDEST POP ISZERO PUSH2 0x140E JUMPI DUP1 PUSH1 0x1 PUSH1 0x1 PUSH1 0xA0 SHL SUB PUSH2 0x1351 DUP6 PUSH2 0x1530 JUMP JUMPDEST AND SUB PUSH2 0x13DB JUMPI PUSH2 0x1362 DUP3 ISZERO ISZERO PUSH2 0x1555 JUMP JUMPDEST DUP1 PUSH0 MSTORE PUSH1 0x8 PUSH1 0x20 MSTORE PUSH1 0x40 PUSH0 KECCAK256 DUP1 SLOAD SWAP1 PUSH0 NOT DUP3 ADD SWAP2 DUP3 GT PUSH2 0xE02 JUMPI SSTORE DUP2 PUSH0 MSTORE PUSH1 0x8 PUSH1 0x20 MSTORE PUSH1 0x40 PUSH0 KECCAK256 DUP1 SLOAD SWAP1 PUSH1 0x1 DUP3 ADD DUP1 SWAP3 GT PUSH2 0xE02 JUMPI SSTORE PUSH0 DUP4 DUP2 MSTORE PUSH1 0x7 PUSH1 0x20 MSTORE PUSH1 0x40 DUP2 KECCAK256 DUP1 SLOAD PUSH1 0x1 PUSH1 0x1 PUSH1 0xA0 SHL SUB NOT AND DUP5 OR SWAP1 SSTORE PUSH32 0xDDF252AD1BE2C89B69C2B068FC378DAA952BA7F163C4A11628F55A4DF523B3EF SWAP1 DUP1 LOG4 STOP JUMPDEST PUSH1 0x40 MLOAD PUSH3 0x461BCD PUSH1 0xE5 SHL DUP2 MSTORE PUSH1 0x20 PUSH1 0x4 DUP3 ADD MSTORE PUSH1 0xB PUSH1 0x24 DUP3 ADD MSTORE PUSH11 0x2BB937B7339037BBB732B9 PUSH1 0xA9 SHL PUSH1 0x44 DUP3 ADD MSTORE PUSH1 0x64 SWAP1 REVERT JUMPDEST PUSH1 0x40 MLOAD PUSH3 0x461BCD PUSH1 0xE5 SHL DUP2 MSTORE PUSH1 0x20 PUSH1 0x4 DUP3 ADD MSTORE PUSH1 0xC PUSH1 0x24 DUP3 ADD MSTORE PUSH12 0x139BDD08185C1C1C9BDD9959 PUSH1 0xA2 SHL PUSH1 0x44 DUP3 ADD MSTORE PUSH1 0x64 SWAP1 REVERT JUMPDEST PUSH0 SWAP1 DUP2 MSTORE PUSH1 0xA PUSH1 0x20 SWAP1 DUP2 MSTORE PUSH1 0x40 DUP1 DUP4 KECCAK256 CALLER DUP5 MSTORE SWAP1 SWAP2 MSTORE DUP2 KECCAK256 SLOAD PUSH1 0xFF AND SWAP2 POP PUSH2 0x1339 JUMP JUMPDEST PUSH0 DUP6 DUP2 MSTORE PUSH1 0x9 PUSH1 0x20 MSTORE PUSH1 0x40 SWAP1 KECCAK256 SLOAD PUSH1 0x1 PUSH1 0x1 PUSH1 0xA0 SHL SUB AND CALLER EQ SWAP2 POP PUSH2 0x1332 JUMP JUMPDEST PUSH8 0xFFFFFFFFFFFFFFFF DUP2 GT PUSH2 0xA03 JUMPI PUSH1 0x1F ADD PUSH1 0x1F NOT AND PUSH1 0x20 ADD SWAP1 JUMP JUMPDEST ISZERO PUSH2 0x14A8 JUMPI JUMP JUMPDEST PUSH1 0x40 MLOAD PUSH3 0x461BCD PUSH1 0xE5 SHL DUP2 MSTORE PUSH1 0x20 PUSH1 0x4 DUP3 ADD MSTORE PUSH1 0xD PUSH1 0x24 DUP3 ADD MSTORE PUSH13 0x24B73B30B634B2103A37B5B2B7 PUSH1 0x99 SHL PUSH1 0x44 DUP3 ADD MSTORE PUSH1 0x64 SWAP1 REVERT JUMPDEST PUSH0 NOT DUP2 EQ PUSH2 0xE02 JUMPI PUSH1 0x1 ADD SWAP1 JUMP JUMPDEST SWAP2 SWAP1 DUP3 SUB SWAP2 DUP3 GT PUSH2 0xE02 JUMPI JUMP JUMPDEST ISZERO PUSH2 0x14FF JUMPI JUMP JUMPDEST PUSH1 0x40 MLOAD PUSH3 0x461BCD PUSH1 0xE5 SHL DUP2 MSTORE PUSH1 0x20 PUSH1 0x4 DUP3 ADD MSTORE PUSH1 0x9 PUSH1 0x24 DUP3 ADD MSTORE PUSH9 0x2737BA1037BBB732B9 PUSH1 0xB9 SHL PUSH1 0x44 DUP3 ADD MSTORE PUSH1 0x64 SWAP1 REVERT JUMPDEST PUSH0 SWAP1 DUP2 MSTORE PUSH1 0x7 PUSH1 0x20 MSTORE PUSH1 0x40 SWAP1 KECCAK256 SLOAD PUSH1 0x1 PUSH1 0x1 PUSH1 0xA0 SHL SUB AND PUSH2 0x1552 DUP2 ISZERO ISZERO PUSH2 0x14A1 JUMP JUMPDEST SWAP1 JUMP JUMPDEST ISZERO PUSH2 0x155C JUMPI JUMP JUMPDEST PUSH1 0x40 MLOAD PUSH3 0x461BCD PUSH1 0xE5 SHL DUP2 MSTORE PUSH1 0x20 PUSH1 0x4 DUP3 ADD MSTORE PUSH1 0xC PUSH1 0x24 DUP3 ADD MSTORE PUSH12 0x5A65726F2061646472657373 PUSH1 0xA0 SHL PUSH1 0x44 DUP3 ADD MSTORE PUSH1 0x64 SWAP1 REVERT JUMPDEST ISZERO PUSH2 0x1597 JUMPI JUMP JUMPDEST PUSH1 0x40 MLOAD PUSH3 0x461BCD PUSH1 0xE5 SHL DUP2 MSTORE PUSH1 0x20 PUSH1 0x4 DUP3 ADD MSTORE PUSH1 0xC PUSH1 0x24 DUP3 ADD MSTORE PUSH12 0x496E76616C69642074797065 PUSH1 0xA0 SHL PUSH1 0x44 DUP3 ADD MSTORE PUSH1 0x64 SWAP1 REVERT JUMPDEST SWAP2 SWAP1 DUP3 ADD DUP1 SWAP3 GT PUSH2 0xE02 JUMPI JUMP JUMPDEST PUSH4 0x1E13380 TIMESTAMP DIV PUSH2 0x7B2 ADD DUP1 PUSH2 0x7B2 GT PUSH2 0xE02 JUMPI PUSH3 0x278D00 PUSH4 0x1E13380 TIMESTAMP MOD DIV SWAP1 PUSH1 0x1 DUP3 ADD DUP1 SWAP3 GT PUSH2 0xE02 JUMPI PUSH1 0x64 DUP2 MUL SWAP1 DUP1 DUP3 DIV PUSH1 0x64 EQ SWAP1 ISZERO OR ISZERO PUSH2 0xE02 JUMPI PUSH2 0x1552 SWAP2 PUSH1 0xC DUP2 GT ISZERO PUSH2 0x162D JUMPI POP PUSH1 0xC SWAP1 PUSH2 0x15CB JUMP JUMPDEST SWAP1 PUSH2 0x15CB JUMP JUMPDEST DUP1 ISZERO PUSH2 0x16EC JUMPI PUSH0 DUP2 DUP1 JUMPDEST PUSH2 0x16D8 JUMPI POP PUSH2 0x164B DUP2 PUSH2 0x1485 JUMP JUMPDEST SWAP1 PUSH2 0x1659 PUSH1 0x40 MLOAD SWAP3 DUP4 PUSH2 0x11D8 JUMP JUMPDEST DUP1 DUP3 MSTORE PUSH1 0x1F NOT PUSH2 0x1668 DUP3 PUSH2 0x1485 JUMP JUMPDEST ADD CALLDATASIZE PUSH1 0x20 DUP5 ADD CALLDATACOPY JUMPDEST DUP1 SWAP3 DUP1 ISZERO PUSH2 0x16D1 JUMPI PUSH0 NOT DUP3 ADD SWAP2 DUP3 GT PUSH2 0xE02 JUMPI DUP2 SWAP4 PUSH1 0xA DUP3 MOD PUSH1 0x30 ADD SWAP3 DUP4 PUSH1 0x30 GT PUSH2 0xE02 JUMPI DUP5 MLOAD GT ISZERO PUSH2 0x16BD JUMPI PUSH1 0xA SWAP3 PUSH1 0xF8 SHL PUSH1 0x1 PUSH1 0x1 PUSH1 0xF8 SHL SUB NOT AND PUSH0 BYTE SWAP1 DUP5 ADD PUSH1 0x1F ADD MSTORE8 DIV SWAP2 PUSH2 0x1670 JUMP JUMPDEST PUSH4 0x4E487B71 PUSH1 0xE0 SHL PUSH0 MSTORE PUSH1 0x32 PUSH1 0x4 MSTORE PUSH1 0x24 PUSH0 REVERT JUMPDEST POP POP SWAP1 POP SWAP1 JUMP JUMPDEST SWAP1 PUSH2 0x16E4 PUSH1 0xA SWAP2 PUSH2 0x14DD JUMP JUMPDEST SWAP2 DIV DUP1 PUSH2 0x163D JUMP JUMPDEST POP PUSH1 0x40 MLOAD PUSH2 0x16FB PUSH1 0x40 DUP3 PUSH2 0x11D8 JUMP JUMPDEST PUSH1 0x1 DUP2 MSTORE PUSH1 0x3 PUSH1 0xFC SHL PUSH1 0x20 DUP3 ADD MSTORE SWAP1 JUMP INVALID SUB PUSH12 0x6384B5ECA791C62761152D0C PUSH26 0xBB0604C104A5FB6F4EB0703F3154BB3DB0A26469706673582212 KECCAK256 0xAD 0xBE SWAP11 DUP3 0xE9 DUP7 PUSH32 0x848F5E20DCCC907FD6E975F50FBDF2C3855D539B5211AFB0A364736F6C634300 ADDMOD SHL STOP CALLER "},"methodIdentifiers":{"achievementMintPrices(uint256)":"71f79dc5","achievementMonthlyLimits(uint256)":"5a98e566","achievementNames(uint256)":"6d8e89d0","approve(address,uint256)":"095ea7b3","balanceOf(address)":"70a08231","baseURI()":"6c0360eb","claimNFT(uint256,uint256,string,uint8,bytes32,bytes32)":"0cf524b9","claimRecord(bytes32)":"852424ae","getAchievementInfo(uint256)":"688d8903","getApproved(uint256)":"081812fc","getMonthlyRemaining(uint256)":"f91cc013","isApprovedForAll(address,address)":"e985e9c5","monthlyMinted(uint256,uint256)":"c2dce576","name()":"06fdde03","owner()":"8da5cb5b","ownerOf(uint256)":"6352211e","safeTransferFrom(address,address,uint256)":"42842e0e","setApprovalForAll(address,bool)":"a22cb465","setBaseURI(string)":"55f804b3","setSigner(address)":"6c19e783","signatureValidity()":"64e4b8c2","signer()":"238ac933","supportsInterface(bytes4)":"01ffc9a7","symbol()":"95d89b41","tokenAchievementType(uint256)":"4c349385","tokenURI(uint256)":"c87b56dd","transferFrom(address,address,uint256)":"23b872dd","updateAchievement(uint256,uint256,uint256)":"aa599a8f","withdraw()":"3ccfd60b"}}}}}