{"contracts/AchievementNFTOnChainV2.sol":{"AchievementNFTOnChainV2":{"abi":[{"inputs":[{"internalType":"address","name":"_signer","type":"address"}],"stateMutability":"nonpayable","type":"constructor"},{"anonymous":false,"inputs":[{"indexed":true,"internalType":"address","name":"player","type":"address"},{"indexed":true,"internalType":"uint256","name":"tokenId","type":"uint256"},{"indexed":false,"internalType":"uint256","name":"achievementTypeId","type":"uint256"}],"name":"AchievementMinted","type":"event"},{"anonymous":false,"inputs":[{"indexed":true,"internalType":"address","name":"owner","type":"address"},{"indexed":true,"internalType":"address","name":"approved","type":"address"},{"indexed":true,"internalType":"uint256","name":"tokenId","type":"uint256"}],"name":"Approval","type":"event"},{"anonymous":false,"inputs":[{"indexed":true,"internalType":"address","name":"owner","type":"address"},{"indexed":true,"internalType":"address","name":"operator","type":"address"},{"indexed":false,"internalType":"bool","name":"approved","type":"bool"}],"name":"ApprovalForAll","type":"event"},{"anonymous":false,"inputs":[{"indexed":true,"internalType":"address","name":"from","type":"address"},{"indexed":true,"internalType":"address","name":"to","type":"address"},{"indexed":true,"internalType":"uint256","name":"tokenId","type":"uint256"}],"name":"Transfer","type":"event"},{"inputs":[{"internalType":"uint256","name":"","type":"uint256"}],"name":"achievementMintPrices","outputs":[{"internalType":"uint256","name":"","type":"uint256"}],"stateMutability":"view","type":"function"},{"inputs":[{"internalType":"uint256","name":"","type":"uint256"}],"name":"achievementMonthlyLimits","outputs":[{"internalType":"uint256","name":"","type":"uint256"}],"stateMutability":"view","type":"function"},{"inputs":[{"internalType":"uint256","name":"","type":"uint256"}],"name":"achievementNames","outputs":[{"internalType":"string","name":"","type":"string"}],"stateMutability":"view","type":"function"},{"inputs":[{"internalType":"address","name":"to","type":"address"},{"internalType":"uint256","name":"tokenId","type":"uint256"}],"name":"approve","outputs":[],"stateMutability":"nonpayable","type":"function"},{"inputs":[{"internalType":"address","name":"account","type":"address"}],"name":"balanceOf","outputs":[{"internalType":"uint256","name":"","type":"uint256"}],"stateMutability":"view","type":"function"},{"inputs":[],"name":"baseURI","outputs":[{"internalType":"string","name":"","type":"string"}],"stateMutability":"view","type":"function"},{"inputs":[{"internalType":"uint256","name":"achievementTypeId","type":"uint256"},{"internalType":"uint256","name":"timestamp","type":"uint256"},{"internalType":"string","name":"gameId","type":"string"},{"internalType":"uint8","name":"v","type":"uint8"},{"internalType":"bytes32","name":"r","type":"bytes32"},{"internalType":"bytes32","name":"s","type":"bytes32"}],"name":"claimNFT","outputs":[{"internalType":"uint256","name":"","type":"uint256"}],"stateMutability":"payable","type":"function"},{"inputs":[{"internalType":"bytes32","name":"","type":"bytes32"}],"name":"claimRecord","outputs":[{"internalType":"bool","name":"","type":"bool"}],"stateMutability":"view","type":"function"},{"inputs":[{"internalType":"uint256","name":"achievementTypeId","type":"uint256"}],"name":"getAchievementInfo","outputs":[{"internalType":"string","name":"achievementName","type":"string"},{"internalType":"uint256","name":"monthlyLimit","type":"uint256"},{"internalType":"uint256","name":"mintPrice","type":"uint256"},{"internalType":"uint256","name":"monthlyRemaining","type":"uint256"}],"stateMutability":"view","type":"function"},{"inputs":[{"internalType":"uint256","name":"tokenId","type":"uint256"}],"name":"getApproved","outputs":[{"internalType":"address","name":"","type":"address"}],"stateMutability":"view","type":"function"},{"inputs":[{"internalType":"uint256","name":"achievementTypeId","type":"uint256"}],"name":"getMonthlyRemaining","outputs":[{"internalType":"uint256","name":"","type":"uint256"}],"stateMutability":"view","type":"function"},{"inputs":[{"internalType":"address","name":"account","type":"address"},{"internalType":"address","name":"operator","type":"address"}],"name":"isApprovedForAll","outputs":[{"internalType":"bool","name":"","type":"bool"}],"stateMutability":"view","type":"function"},{"inputs":[{"internalType":"uint256","name":"","type":"uint256"},{"internalType":"uint256","name":"","type":"uint256"}],"name":"monthlyMinted","outputs":[{"internalType":"uint256","name":"","type":"uint256"}],"stateMutability":"view","type":"function"},{"inputs":[],"name":"name","outputs":[{"internalType":"string","name":"","type":"string"}],"stateMutability":"view","type":"function"},{"inputs":[],"name":"owner","outputs":[{"internalType":"address","name":"","type":"address"}],"stateMutability":"view","type":"function"},{"inputs":[{"internalType":"uint256","name":"tokenId","type":"uint256"}],"name":"ownerOf","outputs":[{"internalType":"address","name":"","type":"address"}],"stateMutability":"view","type":"function"},{"inputs":[{"internalType":"address","name":"from","type":"address"},{"internalType":"address","name":"to","type":"address"},{"internalType":"uint256","name":"tokenId","type":"uint256"}],"name":"safeTransferFrom","outputs":[],"stateMutability":"nonpayable","type":"function"},{"inputs":[{"internalType":"address","name":"operator","type":"address"},{"internalType":"bool","name":"approved","type":"bool"}],"name":"setApprovalForAll","outputs":[],"stateMutability":"nonpayable","type":"function"},{"inputs":[{"internalType":"string","name":"_baseURI","type":"string"}],"name":"setBaseURI","outputs":[],"stateMutability":"nonpayable","type":"function"},{"inputs":[{"internalType":"address","name":"_signer","type":"address"}],"name":"setSigner","outputs":[],"stateMutability":"nonpayable","type":"function"},{"inputs":[{"internalType":"uint256","name":"tokenId","type":"uint256"},{"internalType":"string","name":"customName","type":"string"},{"internalType":"string","name":"customDescription","type":"string"}],"name":"setTokenCustomData","outputs":[],"stateMutability":"nonpayable","type":"function"},{"inputs":[{"internalType":"uint256","name":"tokenId","type":"uint256"},{"internalType":"string","name":"metadata","type":"string"}],"name":"setTokenMetadata","outputs":[],"stateMutability":"nonpayable","type":"function"},{"inputs":[],"name":"signatureValidity","outputs":[{"internalType":"uint256","name":"","type":"uint256"}],"stateMutability":"view","type":"function"},{"inputs":[],"name":"signer","outputs":[{"internalType":"address","name":"","type":"address"}],"stateMutability":"view","type":"function"},{"inputs":[{"internalType":"bytes4","name":"interfaceId","type":"bytes4"}],"name":"supportsInterface","outputs":[{"internalType":"bool","name":"","type":"bool"}],"stateMutability":"pure","type":"function"},{"inputs":[],"name":"symbol","outputs":[{"internalType":"string","name":"","type":"string"}],"stateMutability":"view","type":"function"},{"inputs":[{"internalType":"uint256","name":"","type":"uint256"}],"name":"tokenAchievementType","outputs":[{"internalType":"uint256","name":"","type":"uint256"}],"stateMutability":"view","type":"function"},{"inputs":[{"internalType":"uint256","name":"","type":"uint256"}],"name":"tokenDescriptions","outputs":[{"internalType":"string","name":"","type":"string"}],"stateMutability":"view","type":"function"},{"inputs":[{"internalType":"uint256","name":"","type":"uint256"}],"name":"tokenMetadata","outputs":[{"internalType":"string","name":"","type":"string"}],"stateMutability":"view","type":"function"},{"inputs":[{"internalType":"uint256","name":"","type":"uint256"}],"name":"tokenNames","outputs":[{"internalType":"string","name":"","type":"string"}],"stateMutability":"view","type":"function"},{"inputs":[{"internalType":"uint256","name":"tokenId","type":"uint256"}],"name":"tokenURI","outputs":[{"internalType":"string","name":"","type":"string"}],"stateMutability":"view","type":"function"},{"inputs":[{"internalType":"address","name":"from","type":"address"},{"internalType":"address","name":"to","type":"address"},{"internalType":"uint256","name":"tokenId","type":"uint256"}],"name":"transferFrom","outputs":[],"stateMutability":"nonpayable","type":"function"},{"inputs":[{"internalType":"uint256","name":"achievementTypeId","type":"uint256"},{"internalType":"string","name":"achievementName","type":"string"},{"internalType":"uint256","name":"monthlyLimit","type":"uint256"},{"internalType":"uint256","name":"mintPrice","type":"uint256"}],"name":"updateAchievement","outputs":[],"stateMutability":"nonpayable","type":"function"},{"inputs":[],"name":"withdraw","outputs":[],"stateMutability":"nonpayable","type":"function"}],"evm":{"bytecode":{"linkReferences":{},"object":"60803461064f57601f6123ec38819003918201601f19168301916001600160401b038311848410176106535780849260209460405283398101031261064f57516001600160a01b0381169081900361064f5761005b5f54610667565b601f8111610608575b507f506f6b657220416368696576656d656e74204e4654000000000000000000002a5f5560015461009490610667565b601f81116105c0575b50600a64141053919560da1b0160015562093a80600555801561058a57600380546001600160a01b031990811633179091556004805490911691909117905560015f52600a6020527fbbc70db1b6c7afd11e79c0fb0051300458f1a3acb8ee9789d9b6b26c61ad9bc7805461011190610667565b601f8111610560575b507f526f79616c20466c7573680000000000000000000000000000000000000000169055600a7f72c6bfb7988af3a1efa6568f02a999bc52252641c659d85961ca3d372b57d5cf819055624c4b407fd421a5181c571bba3f01190c922c3b2a896fc1d84e86c9f17ac10e67ebef8b5c5560025f526020527fbff4442b8ed600beeb8e26b1279a0f0d14c6edfaec26d968ee13c86f7d4c2ba880546101c7906101c190610667565b8261069f565b7f537472616967687420466c75736800000000000000000000000000000000001c905560147fa50eece07c7db1631545c0069bd8f5f54d5935e215d59097edf258a44ba9163455624c4b407f5d6016397a73f5e079297ac5a36fef17b4d9c3831618e63ab105738020ddd7205560035f52600a6020527fa856840544dc26124927add067d799967eac11be13e14d82cc281ea46fa39759805461026d906101c190610667565b7f466f7572206f662061204b696e6400000000000000000000000000000000001c905560327f64c15cc42be7899b001f818cf4433057002112c418d1d3a67cd5cb453051d33e55624c4b407fc0da782485e77ae272268ae0a3ff44c1552ecb60b3743924de17a815e0a3cfd75560045f52600a6020527fe1eb2b2161a492c07c5a334e48012567cba93ec021043f53c1955516a3c5a841805461030f90610667565b601f8111610536575b507f46756c6c20486f75736500000000000000000000000000000000000000000014905560647f12d0c11577e2f0950f57c455c117796550b79f444811db8ba2f69c57b646c78455624c4b407f5b84bb9e0f5aa9cc45a8bb66468db5d4816d1e75ff86b5e1f1dd8d144dab80975560055f52600a6020527ff35035bc2b01d44bd35a1dcdc552315cffb73da35cfd60570b7b777f98036f9f80546103bb90610667565b601f811161050c575b50600a6408cd8eae6d60db1b01905560c87febae6141bae5521e99e0a8d610356b0f501fea54980b59c84841db43ba7204f455624c4b407f2cd9ebf6ff19cdd7ffcc447d7c7d47b5991f5c7392a04512134e765802361fa65560065f52600a6020527f10d9dd018e4cae503383c9f804c1c1603ada5856ee7894375d9b97cd8c8b27db805461045290610667565b601f81116104e2575b507f5374726169676874000000000000000000000000000000000000000000000010905560065f5261012c7f0387e9d1203691d8e3362a7e4c6723de358a4010d7f31ecbec3fbfc61d1c75fc55600c602052624c4b407f980f427e00e74f6d338adfccc7468518c8c8ea00836d0dce98c5fe154e17bf2b55604051611d1990816106d38239f35b815f52601f60205f20910160051c8101905b818110610501575061045b565b5f81556001016104f4565b815f52601f60205f20910160051c8101905b81811061052b57506103c4565b5f815560010161051e565b815f52601f60205f20910160051c8101905b8181106105555750610318565b5f8155600101610548565b815f52601f60205f20910160051c8101905b81811061057f575061011a565b5f8155600101610572565b60405162461bcd60e51b815260206004820152600e60248201526d24b73b30b634b21039b4b3b732b960911b6044820152606490fd5b60015f52601f0160051c7fb10e2d527612073b26eecdfd717e6a320cf44b4afac2b0732d9fcbe2b7fa0cf6908101905b8181106105fd575061009d565b5f81556001016105f0565b5f8052601f0160051c7f290decd9548b62a8d60345a988386fc84ba6bc95484008f6362f93160ef3e563908101905b8181106106445750610064565b5f8155600101610637565b5f80fd5b634e487b7160e01b5f52604160045260245ffd5b90600182811c92168015610695575b602083101461068157565b634e487b7160e01b5f52602260045260245ffd5b91607f1691610676565b601f82116106ab575050565b5f52601f60205f20910160051c8101905b8181106106c7575050565b5f81556001016106bc56fe6080806040526004361015610012575f80fd5b5f3560e01c90816301ffc9a7146115395750806306fdde031461151d578063081812fc146114ff578063095ea7b31461140e5780630bddfa9f146111835780630cf524b914610d1e578063238ac93314610cf657806323b872dd14610c77578063310495ab14610ccc5780633ccfd60b14610c7c57806342842e0e14610c775780634c34938514610c4d578063510ef1de14610ad857806355f804b31461096f5780635a98e566146109455780636352211e1461091557806364e4b8c2146108f8578063688d8903146108345780636914db601461080a5780636c0360eb146107785780636c19e783146106e95780636d8e89d0146106bf57806370a082311461067c57806371f79dc514610652578063852424ae146106235780638da5cb5b146105fb5780639473ca82146105d157806395d89b41146105075780639a88aaac1461035a578063a22cb465146102cc578063c2dce57614610296578063c87b56dd1461025f578063e985e9c5146101fd5763f91cc01314610192575f80fd5b346101f95760203660031901126101f9576004356101ae611b82565b815f52600d60205260405f20905f5260205260405f2054905f52600b60205260405f20548181115f146101ef576020916101e791611a00565b604051908152f35b505060205f6101e7565b5f80fd5b346101f95760403660031901126101f9576102166116a9565b602435906001600160a01b03821682036101f95760018060a01b03165f52600960205260405f209060018060a01b03165f52602052602060ff60405f2054166040519015158152f35b346101f95760203660031901126101f95761029261027e600435611a48565b604051918291602083526020830190611685565b0390f35b346101f95760403660031901126101f9576004355f52600d60205260405f206024355f52602052602060405f2054604051908152f35b346101f95760403660031901126101f9576102e56116a9565b602435908115158092036101f9576001600160a01b031690610309338314156118fd565b335f52600960205260405f20825f5260205260405f2060ff1981541660ff83161790556040519081527f17307eab39ab6107e8899845ad3d59bd9653f200f220920489ca2b5937696c3160203392a3005b346101f95760803660031901126101f9576004356024356001600160401b0381116101f95761038d9036906004016116bf565b6103a560018060a09594951b03600354163314611939565b6001821015806104fc575b6103b9906119c5565b815f52600a60205260405f20906001600160401b0381116104e8576103de825461158c565b601f81116104a3575b505f601f821160011461044157819293945f92610436575b50508160011b915f199060031b1c19161790555b805f52600b60205260443560405f20555f52600c60205260643560405f20555f80f35b0135905084806103ff565b601f19821694835f5260205f20915f5b87811061048b575083600195969710610472575b505050811b019055610413565b01355f19600384901b60f8161c19169055848080610465565b90926020600181928686013581550194019101610451565b825f5260205f20601f830160051c810191602084106104de575b601f0160051c01905b8181106104d357506103e7565b5f81556001016104c6565b90915081906104bd565b634e487b7160e01b5f52604160045260245ffd5b5060068211156103b0565b346101f9575f3660031901126101f9576040515f6001546105278161158c565b80845290600181169081156105ad575060011461054f575b6102928361027e818503826115c4565b60015f9081527fb10e2d527612073b26eecdfd717e6a320cf44b4afac2b0732d9fcbe2b7fa0cf6939250905b8082106105935750909150810160200161027e61053f565b91926001816020925483858801015201910190929161057b565b60ff191660208086019190915291151560051b8401909101915061027e905061053f565b346101f95760203660031901126101f9576004355f52601160205261029261027e60405f206115e5565b346101f9575f3660031901126101f9576003546040516001600160a01b039091168152602090f35b346101f95760203660031901126101f9576004355f52600e602052602060ff60405f2054166040519015158152f35b346101f95760203660031901126101f9576004355f52600c602052602060405f2054604051908152f35b346101f95760203660031901126101f9576001600160a01b0361069d6116a9565b166106a9811515611a0d565b5f526007602052602060405f2054604051908152f35b346101f95760203660031901126101f9576004355f52600a60205261029261027e60405f206115e5565b346101f95760203660031901126101f9576107026116a9565b61071760018060a01b03600354163314611939565b6001600160a01b03168015610742576bffffffffffffffffffffffff60a01b60045416176004555f80f35b60405162461bcd60e51b815260206004820152600e60248201526d24b73b30b634b21039b4b3b732b960911b6044820152606490fd5b346101f9575f3660031901126101f9576040515f6013546107988161158c565b80845290600181169081156105ad57506001146107bf576102928361027e818503826115c4565b60135f9081525f516020611cc45f395f51905f52939250905b8082106107f05750909150810160200161027e61053f565b9192600181602092548385880101520191019092916107d8565b346101f95760203660031901126101f9576004355f52601260205261029261027e60405f206115e5565b346101f95760203660031901126101f9576108ce6004356001811015806108ed575b61085f906119c5565b610867611b82565b5f828152600d6020908152604080832093835292815282822054938252600b815282822054600a8252838320600c909252929091205492808311156108e2576108b36108b99184611a00565b916115e5565b92604051948594608086526080860190611685565b926020850152604084015260608301520390f35b506108b95f916115e5565b506006811115610856565b346101f9575f3660031901126101f9576020600554604051908152f35b346101f95760203660031901126101f95760206109336004356119a0565b6040516001600160a01b039091168152f35b346101f95760203660031901126101f9576004355f52600b602052602060405f2054604051908152f35b346101f95760203660031901126101f9576004356001600160401b0381116101f95761099f9036906004016116bf565b6109b460018060a01b03600354163314611939565b6001600160401b0381116104e8576109cd60135461158c565b601f8111610a74575b505f601f8211600114610a0f5781925f92610a04575b50505f19600383901b1c191660019190911b17601355005b0135905082806109ec565b601f198216925f516020611cc45f395f51905f52915f5b858110610a5c57508360019510610a43575b505050811b01601355005b01355f19600384901b60f8161c19169055828080610a38565b90926020600181928686013581550194019101610a26565b601f820160051c5f516020611cc45f395f51905f52019060208310610ac3575b601f0160051c5f516020611cc45f395f51905f5201905b818110610ab857506109d6565b5f8155600101610aab565b5f516020611cc45f395f51905f529150610a94565b346101f95760403660031901126101f9576004356024356001600160401b0381116101f957610b0b9036906004016116bf565b9091610b2260018060a01b03600354163314611939565b5f81815260066020526040902054610b44906001600160a01b03161515611885565b5f52601260205260405f20906001600160401b0381116104e857610b68825461158c565b601f8111610c08575b505f601f8211600114610baa578192935f92610b9f575b50505f19600383901b1c191660019190911b179055005b013590508380610b88565b601f19821693835f5260205f20915f5b868110610bf05750836001959610610bd7575b505050811b019055005b01355f19600384901b60f8161c19169055838080610bcd565b90926020600181928686013581550194019101610bba565b825f5260205f20601f830160051c81019160208410610c43575b601f0160051c01905b818110610c385750610b71565b5f8155600101610c2b565b9091508190610c22565b346101f95760203660031901126101f9576004355f52600f602052602060405f2054604051908152f35b6116ec565b346101f9575f3660031901126101f9575f80808060018060a01b0360035416610ca6813314611939565b4790828215610cc3575bf115610cb857005b6040513d5f823e3d90fd5b506108fc610cb0565b346101f95760203660031901126101f9576004355f52601060205261029261027e60405f206115e5565b346101f9575f3660031901126101f9576004546040516001600160a01b039091168152602090f35b60c03660031901126101f9576004356024356044356001600160401b0381116101f957610d4f9036906004016116bf565b9060643560ff81168091036101f957600185101580611178575b1561113357845f52600c60205260405f205434106110f757610d8d60055485611971565b42116110be575f6080602092604051848101903360601b988983528a6034830152605482015287876074830137610dd76074828a810188838201520301601f1981018352826115c4565b519020604051858101917f19457468657265756d205369676e6564204d6573736167653a0a3332000000008352603c820152603c8152610e18605c826115c4565b5190209060405191825284820152608435604082015260a435606082015282805260015afa15610cb8575f516004546001600160a01b039081169116036110855760206034610e8592846040519586928584019889528484013781018783820152030180845201826115c4565b519020805f52600e60205260ff60405f20541661104e575f52600e60205260405f20600160ff19825416179055610eba611b82565b815f52600d60205260405f20815f5260205260405f2054825f52600b60205260405f2054111561101157815f52600d60205260405f20905f5260205260405f20610f048154611992565b9055610f11600254611992565b80600255610f20331515611a0d565b5f818152600660205260409020546001600160a01b0316610fdd5780602092335f526007845260405f20610f548154611992565b90555f82815260068552604080822080546001600160a01b03191633908117909155905192918491907fddf252ad1be2c89b69c2b068fc378daa952ba7f163c4a11628f55a4df523b3ef8180a4825f52600f85528060405f205581527f226d2a645d7edd4fc8d019b3eae722231277e0665965dba0c711be16ef35ba9e843392a3604051908152f35b60405162461bcd60e51b815260206004820152600c60248201526b546f6b656e2065786973747360a01b6044820152606490fd5b60405162461bcd60e51b8152602060048201526015602482015274135bdb9d1a1b1e481b1a5b5a5d081c995858da1959605a1b6044820152606490fd5b60405162461bcd60e51b815260206004820152600f60248201526e105b1c9958591e4818db185a5b5959608a1b6044820152606490fd5b60405162461bcd60e51b8152602060048201526011602482015270496e76616c6964207369676e617475726560781b6044820152606490fd5b60405162461bcd60e51b815260206004820152601160248201527014da59db985d1d5c9948195e1c1a5c9959607a1b6044820152606490fd5b60405162461bcd60e51b8152602060048201526014602482015273125b9cdd59999a58da595b9d081c185e5b595b9d60621b6044820152606490fd5b60405162461bcd60e51b815260206004820152601860248201527f496e76616c696420616368696576656d656e74207479706500000000000000006044820152606490fd5b506006851115610d69565b346101f95760603660031901126101f9576004356024356001600160401b0381116101f9576111b69036906004016116bf565b916044356001600160401b0381116101f9576111d69036906004016116bf565b9290936111ee60018060a01b03600354163314611939565b5f83815260066020526040902054611210906001600160a01b03161515611885565b825f52601060205260405f20916001600160401b0382116104e8578190611237845461158c565b601f81116113be575b505f90601f8311600114611357575f9261134c575b50508160011b915f199060031b1c19161790555b5f52601160205260405f20906001600160401b0381116104e85761128d825461158c565b601f8111611307575b505f601f82116001146112c3578192935f92610b9f5750505f19600383901b1c191660019190911b179055005b601f19821693835f5260205f20915f5b8681106112ef5750836001959610610bd757505050811b019055005b909260206001819286860135815501940191016112d3565b825f5260205f20601f830160051c81019160208410611342575b601f0160051c01905b8181106113375750611296565b5f815560010161132a565b9091508190611321565b013590508680611255565b909150601f19831691845f5260205f20925f5b8181106113a6575090846001959493921061138d575b505050811b019055611269565b01355f19600384901b60f8161c19169055868080611380565b9193602060018192878701358155019501920161136a565b909150835f5260205f20601f840160051c81019160208510611404575b90601f859493920160051c01905b8181106113f65750611240565b5f81558493506001016113e9565b90915081906113db565b346101f95760403660031901126101f9576114276116a9565b602435906001600160a01b0361143c836119a0565b6001600160a01b039092169116611455828214156118fd565b80331480156114dd575b156114a7575f83815260086020526040812080546001600160a01b031916841790557f8c5be1e5ebec7d5bd14f71427d1e84f3dd0314c0f7b2291e5b200ac8c7c3b9259080a4005b60405162461bcd60e51b815260206004820152600e60248201526d139bdd08185d5d1a1bdc9a5e995960921b6044820152606490fd5b505f81815260096020908152604080832033845290915290205460ff1661145f565b346101f95760203660031901126101f95760206109336004356118c1565b346101f9575f3660031901126101f95761029261027e5f6115e5565b346101f95760203660031901126101f9576004359063ffffffff60e01b82168092036101f9576020916380ac58cd60e01b811490811561157b575b5015158152f35b6301ffc9a760e01b14905083611574565b90600182811c921680156115ba575b60208310146115a657565b634e487b7160e01b5f52602260045260245ffd5b91607f169161159b565b90601f801991011681019081106001600160401b038211176104e857604052565b9060405191825f8254926115f88461158c565b8084529360018116908115611663575060011461161f575b5061161d925003836115c4565b565b90505f9291925260205f20905f915b81831061164757505090602061161d928201015f611610565b602091935080600191548385890101520191019091849261162e565b90506020925061161d94915060ff191682840152151560051b8201015f611610565b805180835260209291819084018484015e5f828201840152601f01601f1916010190565b600435906001600160a01b03821682036101f957565b9181601f840112156101f9578235916001600160401b0383116101f957602083818601950101116101f957565b346101f95760603660031901126101f9576004356001600160a01b038116908181036101f957506024356001600160a01b038116908181036101f95750604435916001600160a01b0361173e846119a0565b16803314908115611869575b8115611846575b501561181257611773816001600160a01b0361176c866119a0565b1614611939565b61177e821515611a0d565b825f52600860205260405f206bffffffffffffffffffffffff60a01b8154169055805f52600760205260405f206117b58154611bc8565b9055815f52600760205260405f206117cd8154611992565b90555f83815260066020526040812080546001600160a01b031916841790557fddf252ad1be2c89b69c2b068fc378daa952ba7f163c4a11628f55a4df523b3ef9080a4005b60405162461bcd60e51b815260206004820152600c60248201526b139bdd08185c1c1c9bdd995960a21b6044820152606490fd5b5f90815260096020908152604080832033845290915281205460ff169150611751565b9050336001600160a01b0361187d866118c1565b16149061174a565b1561188c57565b60405162461bcd60e51b815260206004820152600d60248201526c24b73b30b634b2103a37b5b2b760991b6044820152606490fd5b5f818152600660205260409020546118e3906001600160a01b03161515611885565b5f908152600860205260409020546001600160a01b031690565b1561190457565b60405162461bcd60e51b815260206004820152600d60248201526c14d95b198b585c1c1c9bdd985b609a1b6044820152606490fd5b1561194057565b60405162461bcd60e51b81526020600482015260096024820152682737ba1037bbb732b960b91b6044820152606490fd5b9190820180921161197e57565b634e487b7160e01b5f52601160045260245ffd5b5f19811461197e5760010190565b5f908152600660205260409020546001600160a01b03166119c2811515611885565b90565b156119cc57565b60405162461bcd60e51b815260206004820152600c60248201526b496e76616c6964207479706560a01b6044820152606490fd5b9190820391821161197e57565b15611a1457565b60405162461bcd60e51b815260206004820152600c60248201526b5a65726f206164647265737360a01b6044820152606490fd5b5f81815260066020526040902054611a6a906001600160a01b03161515611885565b601354611a768161158c565b611a8e57505f5260126020526119c260405f206115e5565b90805f52600f602052611aad611aa760405f2054611bef565b91611bef565b906040519283915f91611abf8161158c565b9060018116908115611b5e5750600114611b11575b506119c2936020600194938382945192839101825e0190602f60f81b82528051928391018583015e015f838201520301601f1981018352826115c4565b90915060135f525f516020611cc45f395f51905f525f905b828210611b405750508201602001906119c2611ad4565b60209192939450806001915483858a01015201910185939291611b29565b60ff1916602080870191909152821515909202850190910192506119c29050611ad4565b6301e1338042046107b2810180911161197e5762278d006301e133804206046001810180911161197e5760648202918083046064149015171561197e576119c291611971565b801561197e575f190190565b6001600160401b0381116104e857601f01601f191660200190565b8015611ca35780815f925b611c8f5750611c0882611bd4565b91611c1660405193846115c4565b80835281601f19611c2683611bd4565b013660208601375b611c3757505090565b611c4090611bc8565b90600a8106603001908160301161197e578351831015611c7b57600a9160f81b6001600160f81b0319165f1a84840160200153049081611c2e565b634e487b7160e01b5f52603260045260245ffd5b91611c9b600a91611992565b920480611bfa565b50604051611cb26040826115c4565b60018152600360fc1b60208201529056fe66de8ffda797e3de9c05e8fc57b3bf0ec28a930d40b0d285d93c06501cf6a090a26469706673582212204fe8866b99ac00741c9f99b513b2eff591571bd045438a1ffc3bcbfd351c894e64736f6c634300081b0033","opcodes":"PUSH1 0x80 CALLVALUE PUSH2 0x64F JUMPI PUSH1 0x1F PUSH2 0x23EC CODESIZE DUP2 SWAP1 SUB SWAP2 DUP3 ADD PUSH1 0x1F NOT AND DUP4 ADD SWAP2 PUSH1 0x1 PUSH1 0x1 PUSH1 0x40 SHL SUB DUP4 GT DUP5 DUP5 LT OR PUSH2 0x653 JUMPI DUP1 DUP5 SWAP3 PUSH1 0x20 SWAP5 PUSH1 0x40 MSTORE DUP4 CODECOPY DUP2 ADD SUB SLT PUSH2 0x64F JUMPI MLOAD PUSH1 0x1 PUSH1 0x1 PUSH1 0xA0 SHL SUB DUP2 AND SWAP1 DUP2 SWAP1 SUB PUSH2 0x64F JUMPI PUSH2 0x5B PUSH0 SLOAD PUSH2 0x667 JUMP JUMPDEST PUSH1 0x1F DUP2 GT PUSH2 0x608 JUMPI JUMPDEST POP PUSH32 0x506F6B657220416368696576656D656E74204E4654000000000000000000002A PUSH0 SSTORE PUSH1 0x1 SLOAD PUSH2 0x94 SWAP1 PUSH2 0x667 JUMP JUMPDEST PUSH1 0x1F DUP2 GT PUSH2 0x5C0 JUMPI JUMPDEST POP PUSH1 0xA PUSH5 0x1410539195 PUSH1 0xDA SHL ADD PUSH1 0x1 SSTORE PUSH3 0x93A80 PUSH1 0x5 SSTORE DUP1 ISZERO PUSH2 0x58A JUMPI PUSH1 0x3 DUP1 SLOAD PUSH1 0x1 PUSH1 0x1 PUSH1 0xA0 SHL SUB NOT SWAP1 DUP2 AND CALLER OR SWAP1 SWAP2 SSTORE PUSH1 0x4 DUP1 SLOAD SWAP1 SWAP2 AND SWAP2 SWAP1 SWAP2 OR SWAP1 SSTORE PUSH1 0x1 PUSH0 MSTORE PUSH1 0xA PUSH1 0x20 MSTORE PUSH32 0xBBC70DB1B6C7AFD11E79C0FB0051300458F1A3ACB8EE9789D9B6B26C61AD9BC7 DUP1 SLOAD PUSH2 0x111 SWAP1 PUSH2 0x667 JUMP JUMPDEST PUSH1 0x1F DUP2 GT PUSH2 0x560 JUMPI JUMPDEST POP PUSH32 0x526F79616C20466C757368000000000000000000000000000000000000000016 SWAP1 SSTORE PUSH1 0xA PUSH32 0x72C6BFB7988AF3A1EFA6568F02A999BC52252641C659D85961CA3D372B57D5CF DUP2 SWAP1 SSTORE PUSH3 0x4C4B40 PUSH32 0xD421A5181C571BBA3F01190C922C3B2A896FC1D84E86C9F17AC10E67EBEF8B5C SSTORE PUSH1 0x2 PUSH0 MSTORE PUSH1 0x20 MSTORE PUSH32 0xBFF4442B8ED600BEEB8E26B1279A0F0D14C6EDFAEC26D968EE13C86F7D4C2BA8 DUP1 SLOAD PUSH2 0x1C7 SWAP1 PUSH2 0x1C1 SWAP1 PUSH2 0x667 JUMP JUMPDEST DUP3 PUSH2 0x69F JUMP JUMPDEST PUSH32 0x537472616967687420466C75736800000000000000000000000000000000001C SWAP1 SSTORE PUSH1 0x14 PUSH32 0xA50EECE07C7DB1631545C0069BD8F5F54D5935E215D59097EDF258A44BA91634 SSTORE PUSH3 0x4C4B40 PUSH32 0x5D6016397A73F5E079297AC5A36FEF17B4D9C3831618E63AB105738020DDD720 SSTORE PUSH1 0x3 PUSH0 MSTORE PUSH1 0xA PUSH1 0x20 MSTORE PUSH32 0xA856840544DC26124927ADD067D799967EAC11BE13E14D82CC281EA46FA39759 DUP1 SLOAD PUSH2 0x26D SWAP1 PUSH2 0x1C1 SWAP1 PUSH2 0x667 JUMP JUMPDEST PUSH32 0x466F7572206F662061204B696E6400000000000000000000000000000000001C SWAP1 SSTORE PUSH1 0x32 PUSH32 0x64C15CC42BE7899B001F818CF4433057002112C418D1D3A67CD5CB453051D33E SSTORE PUSH3 0x4C4B40 PUSH32 0xC0DA782485E77AE272268AE0A3FF44C1552ECB60B3743924DE17A815E0A3CFD7 SSTORE PUSH1 0x4 PUSH0 MSTORE PUSH1 0xA PUSH1 0x20 MSTORE PUSH32 0xE1EB2B2161A492C07C5A334E48012567CBA93EC021043F53C1955516A3C5A841 DUP1 SLOAD PUSH2 0x30F SWAP1 PUSH2 0x667 JUMP JUMPDEST PUSH1 0x1F DUP2 GT PUSH2 0x536 JUMPI JUMPDEST POP PUSH32 0x46756C6C20486F75736500000000000000000000000000000000000000000014 SWAP1 SSTORE PUSH1 0x64 PUSH32 0x12D0C11577E2F0950F57C455C117796550B79F444811DB8BA2F69C57B646C784 SSTORE PUSH3 0x4C4B40 PUSH32 0x5B84BB9E0F5AA9CC45A8BB66468DB5D4816D1E75FF86B5E1F1DD8D144DAB8097 SSTORE PUSH1 0x5 PUSH0 MSTORE PUSH1 0xA PUSH1 0x20 MSTORE PUSH32 0xF35035BC2B01D44BD35A1DCDC552315CFFB73DA35CFD60570B7B777F98036F9F DUP1 SLOAD PUSH2 0x3BB SWAP1 PUSH2 0x667 JUMP JUMPDEST PUSH1 0x1F DUP2 GT PUSH2 0x50C JUMPI JUMPDEST POP PUSH1 0xA PUSH5 0x8CD8EAE6D PUSH1 0xDB SHL ADD SWAP1 SSTORE PUSH1 0xC8 PUSH32 0xEBAE6141BAE5521E99E0A8D610356B0F501FEA54980B59C84841DB43BA7204F4 SSTORE PUSH3 0x4C4B40 PUSH32 0x2CD9EBF6FF19CDD7FFCC447D7C7D47B5991F5C7392A04512134E765802361FA6 SSTORE PUSH1 0x6 PUSH0 MSTORE PUSH1 0xA PUSH1 0x20 MSTORE PUSH32 0x10D9DD018E4CAE503383C9F804C1C1603ADA5856EE7894375D9B97CD8C8B27DB DUP1 SLOAD PUSH2 0x452 SWAP1 PUSH2 0x667 JUMP JUMPDEST PUSH1 0x1F DUP2 GT PUSH2 0x4E2 JUMPI JUMPDEST POP PUSH32 0x5374726169676874000000000000000000000000000000000000000000000010 SWAP1 SSTORE PUSH1 0x6 PUSH0 MSTORE PUSH2 0x12C PUSH32 0x387E9D1203691D8E3362A7E4C6723DE358A4010D7F31ECBEC3FBFC61D1C75FC SSTORE PUSH1 0xC PUSH1 0x20 MSTORE PUSH3 0x4C4B40 PUSH32 0x980F427E00E74F6D338ADFCCC7468518C8C8EA00836D0DCE98C5FE154E17BF2B SSTORE PUSH1 0x40 MLOAD PUSH2 0x1D19 SWAP1 DUP2 PUSH2 0x6D3 DUP3 CODECOPY RETURN JUMPDEST DUP2 PUSH0 MSTORE PUSH1 0x1F PUSH1 0x20 PUSH0 KECCAK256 SWAP2 ADD PUSH1 0x5 SHR DUP2 ADD SWAP1 JUMPDEST DUP2 DUP2 LT PUSH2 0x501 JUMPI POP PUSH2 0x45B JUMP JUMPDEST PUSH0 DUP2 SSTORE PUSH1 0x1 ADD PUSH2 0x4F4 JUMP JUMPDEST DUP2 PUSH0 MSTORE PUSH1 0x1F PUSH1 0x20 PUSH0 KECCAK256 SWAP2 ADD PUSH1 0x5 SHR DUP2 ADD SWAP1 JUMPDEST DUP2 DUP2 LT PUSH2 0x52B JUMPI POP PUSH2 0x3C4 JUMP JUMPDEST PUSH0 DUP2 SSTORE PUSH1 0x1 ADD PUSH2 0x51E JUMP JUMPDEST DUP2 PUSH0 MSTORE PUSH1 0x1F PUSH1 0x20 PUSH0 KECCAK256 SWAP2 ADD PUSH1 0x5 SHR DUP2 ADD SWAP1 JUMPDEST DUP2 DUP2 LT PUSH2 0x555 JUMPI POP PUSH2 0x318 JUMP JUMPDEST PUSH0 DUP2 SSTORE PUSH1 0x1 ADD PUSH2 0x548 JUMP JUMPDEST DUP2 PUSH0 MSTORE PUSH1 0x1F PUSH1 0x20 PUSH0 KECCAK256 SWAP2 ADD PUSH1 0x5 SHR DUP2 ADD SWAP1 JUMPDEST DUP2 DUP2 LT PUSH2 0x57F JUMPI POP PUSH2 0x11A JUMP JUMPDEST PUSH0 DUP2 SSTORE PUSH1 0x1 ADD PUSH2 0x572 JUMP JUMPDEST PUSH1 0x40 MLOAD PUSH3 0x461BCD PUSH1 0xE5 SHL DUP2 MSTORE PUSH1 0x20 PUSH1 0x4 DUP3 ADD MSTORE PUSH1 0xE PUSH1 0x24 DUP3 ADD MSTORE PUSH14 0x24B73B30B634B21039B4B3B732B9 PUSH1 0x91 SHL PUSH1 0x44 DUP3 ADD MSTORE PUSH1 0x64 SWAP1 REVERT JUMPDEST PUSH1 0x1 PUSH0 MSTORE PUSH1 0x1F ADD PUSH1 0x5 SHR PUSH32 0xB10E2D527612073B26EECDFD717E6A320CF44B4AFAC2B0732D9FCBE2B7FA0CF6 SWAP1 DUP2 ADD SWAP1 JUMPDEST DUP2 DUP2 LT PUSH2 0x5FD JUMPI POP PUSH2 0x9D JUMP JUMPDEST PUSH0 DUP2 SSTORE PUSH1 0x1 ADD PUSH2 0x5F0 JUMP JUMPDEST PUSH0 DUP1 MSTORE PUSH1 0x1F ADD PUSH1 0x5 SHR PUSH32 0x290DECD9548B62A8D60345A988386FC84BA6BC95484008F6362F93160EF3E563 SWAP1 DUP2 ADD SWAP1 JUMPDEST DUP2 DUP2 LT PUSH2 0x644 JUMPI POP PUSH2 0x64 JUMP JUMPDEST PUSH0 DUP2 SSTORE PUSH1 0x1 ADD PUSH2 0x637 JUMP JUMPDEST PUSH0 DUP1 REVERT JUMPDEST PUSH4 0x4E487B71 PUSH1 0xE0 SHL PUSH0 MSTORE PUSH1 0x41 PUSH1 0x4 MSTORE PUSH1 0x24 PUSH0 REVERT JUMPDEST SWAP1 PUSH1 0x1 DUP3 DUP2 SHR SWAP3 AND DUP1 ISZERO PUSH2 0x695 JUMPI JUMPDEST PUSH1 0x20 DUP4 LT EQ PUSH2 0x681 JUMPI JUMP JUMPDEST PUSH4 0x4E487B71 PUSH1 0xE0 SHL PUSH0 MSTORE PUSH1 0x22 PUSH1 0x4 MSTORE PUSH1 0x24 PUSH0 REVERT JUMPDEST SWAP2 PUSH1 0x7F AND SWAP2 PUSH2 0x676 JUMP JUMPDEST PUSH1 0x1F DUP3 GT PUSH2 0x6AB JUMPI POP POP JUMP JUMPDEST PUSH0 MSTORE PUSH1 0x1F PUSH1 0x20 PUSH0 KECCAK256 SWAP2 ADD PUSH1 0x5 SHR DUP2 ADD SWAP1 JUMPDEST DUP2 DUP2 LT PUSH2 0x6C7 JUMPI POP POP JUMP JUMPDEST PUSH0 DUP2 SSTORE PUSH1 0x1 ADD PUSH2 0x6BC JUMP INVALID PUSH1 0x80 DUP1 PUSH1 0x40 MSTORE PUSH1 0x4 CALLDATASIZE LT ISZERO PUSH2 0x12 JUMPI PUSH0 DUP1 REVERT JUMPDEST PUSH0 CALLDATALOAD PUSH1 0xE0 SHR SWAP1 DUP2 PUSH4 0x1FFC9A7 EQ PUSH2 0x1539 JUMPI POP DUP1 PUSH4 0x6FDDE03 EQ PUSH2 0x151D JUMPI DUP1 PUSH4 0x81812FC EQ PUSH2 0x14FF JUMPI DUP1 PUSH4 0x95EA7B3 EQ PUSH2 0x140E JUMPI DUP1 PUSH4 0xBDDFA9F EQ PUSH2 0x1183 JUMPI DUP1 PUSH4 0xCF524B9 EQ PUSH2 0xD1E JUMPI DUP1 PUSH4 0x238AC933 EQ PUSH2 0xCF6 JUMPI DUP1 PUSH4 0x23B872DD EQ PUSH2 0xC77 JUMPI DUP1 PUSH4 0x310495AB EQ PUSH2 0xCCC JUMPI DUP1 PUSH4 0x3CCFD60B EQ PUSH2 0xC7C JUMPI DUP1 PUSH4 0x42842E0E EQ PUSH2 0xC77 JUMPI DUP1 PUSH4 0x4C349385 EQ PUSH2 0xC4D JUMPI DUP1 PUSH4 0x510EF1DE EQ PUSH2 0xAD8 JUMPI DUP1 PUSH4 0x55F804B3 EQ PUSH2 0x96F JUMPI DUP1 PUSH4 0x5A98E566 EQ PUSH2 0x945 JUMPI DUP1 PUSH4 0x6352211E EQ PUSH2 0x915 JUMPI DUP1 PUSH4 0x64E4B8C2 EQ PUSH2 0x8F8 JUMPI DUP1 PUSH4 0x688D8903 EQ PUSH2 0x834 JUMPI DUP1 PUSH4 0x6914DB60 EQ PUSH2 0x80A JUMPI DUP1 PUSH4 0x6C0360EB EQ PUSH2 0x778 JUMPI DUP1 PUSH4 0x6C19E783 EQ PUSH2 0x6E9 JUMPI DUP1 PUSH4 0x6D8E89D0 EQ PUSH2 0x6BF JUMPI DUP1 PUSH4 0x70A08231 EQ PUSH2 0x67C JUMPI DUP1 PUSH4 0x71F79DC5 EQ PUSH2 0x652 JUMPI DUP1 PUSH4 0x852424AE EQ PUSH2 0x623 JUMPI DUP1 PUSH4 0x8DA5CB5B EQ PUSH2 0x5FB JUMPI DUP1 PUSH4 0x9473CA82 EQ PUSH2 0x5D1 JUMPI DUP1 PUSH4 0x95D89B41 EQ PUSH2 0x507 JUMPI DUP1 PUSH4 0x9A88AAAC EQ PUSH2 0x35A JUMPI DUP1 PUSH4 0xA22CB465 EQ PUSH2 0x2CC JUMPI DUP1 PUSH4 0xC2DCE576 EQ PUSH2 0x296 JUMPI DUP1 PUSH4 0xC87B56DD EQ PUSH2 0x25F JUMPI DUP1 PUSH4 0xE985E9C5 EQ PUSH2 0x1FD JUMPI PUSH4 0xF91CC013 EQ PUSH2 0x192 JUMPI PUSH0 DUP1 REVERT JUMPDEST CALLVALUE PUSH2 0x1F9 JUMPI PUSH1 0x20 CALLDATASIZE PUSH1 0x3 NOT ADD SLT PUSH2 0x1F9 JUMPI PUSH1 0x4 CALLDATALOAD PUSH2 0x1AE PUSH2 0x1B82 JUMP JUMPDEST DUP2 PUSH0 MSTORE PUSH1 0xD PUSH1 0x20 MSTORE PUSH1 0x40 PUSH0 KECCAK256 SWAP1 PUSH0 MSTORE PUSH1 0x20 MSTORE PUSH1 0x40 PUSH0 KECCAK256 SLOAD SWAP1 PUSH0 MSTORE PUSH1 0xB PUSH1 0x20 MSTORE PUSH1 0x40 PUSH0 KECCAK256 SLOAD DUP2 DUP2 GT PUSH0 EQ PUSH2 0x1EF JUMPI PUSH1 0x20 SWAP2 PUSH2 0x1E7 SWAP2 PUSH2 0x1A00 JUMP JUMPDEST PUSH1 0x40 MLOAD SWAP1 DUP2 MSTORE RETURN JUMPDEST POP POP PUSH1 0x20 PUSH0 PUSH2 0x1E7 JUMP JUMPDEST PUSH0 DUP1 REVERT JUMPDEST CALLVALUE PUSH2 0x1F9 JUMPI PUSH1 0x40 CALLDATASIZE PUSH1 0x3 NOT ADD SLT PUSH2 0x1F9 JUMPI PUSH2 0x216 PUSH2 0x16A9 JUMP JUMPDEST PUSH1 0x24 CALLDATALOAD SWAP1 PUSH1 0x1 PUSH1 0x1 PUSH1 0xA0 SHL SUB DUP3 AND DUP3 SUB PUSH2 0x1F9 JUMPI PUSH1 0x1 DUP1 PUSH1 0xA0 SHL SUB AND PUSH0 MSTORE PUSH1 0x9 PUSH1 0x20 MSTORE PUSH1 0x40 PUSH0 KECCAK256 SWAP1 PUSH1 0x1 DUP1 PUSH1 0xA0 SHL SUB AND PUSH0 MSTORE PUSH1 0x20 MSTORE PUSH1 0x20 PUSH1 0xFF PUSH1 0x40 PUSH0 KECCAK256 SLOAD AND PUSH1 0x40 MLOAD SWAP1 ISZERO ISZERO DUP2 MSTORE RETURN JUMPDEST CALLVALUE PUSH2 0x1F9 JUMPI PUSH1 0x20 CALLDATASIZE PUSH1 0x3 NOT ADD SLT PUSH2 0x1F9 JUMPI PUSH2 0x292 PUSH2 0x27E PUSH1 0x4 CALLDATALOAD PUSH2 0x1A48 JUMP JUMPDEST PUSH1 0x40 MLOAD SWAP2 DUP3 SWAP2 PUSH1 0x20 DUP4 MSTORE PUSH1 0x20 DUP4 ADD SWAP1 PUSH2 0x1685 JUMP JUMPDEST SUB SWAP1 RETURN JUMPDEST CALLVALUE PUSH2 0x1F9 JUMPI PUSH1 0x40 CALLDATASIZE PUSH1 0x3 NOT ADD SLT PUSH2 0x1F9 JUMPI PUSH1 0x4 CALLDATALOAD PUSH0 MSTORE PUSH1 0xD PUSH1 0x20 MSTORE PUSH1 0x40 PUSH0 KECCAK256 PUSH1 0x24 CALLDATALOAD PUSH0 MSTORE PUSH1 0x20 MSTORE PUSH1 0x20 PUSH1 0x40 PUSH0 KECCAK256 SLOAD PUSH1 0x40 MLOAD SWAP1 DUP2 MSTORE RETURN JUMPDEST CALLVALUE PUSH2 0x1F9 JUMPI PUSH1 0x40 CALLDATASIZE PUSH1 0x3 NOT ADD SLT PUSH2 0x1F9 JUMPI PUSH2 0x2E5 PUSH2 0x16A9 JUMP JUMPDEST PUSH1 0x24 CALLDATALOAD SWAP1 DUP2 ISZERO ISZERO DUP1 SWAP3 SUB PUSH2 0x1F9 JUMPI PUSH1 0x1 PUSH1 0x1 PUSH1 0xA0 SHL SUB AND SWAP1 PUSH2 0x309 CALLER DUP4 EQ ISZERO PUSH2 0x18FD JUMP JUMPDEST CALLER PUSH0 MSTORE PUSH1 0x9 PUSH1 0x20 MSTORE PUSH1 0x40 PUSH0 KECCAK256 DUP3 PUSH0 MSTORE PUSH1 0x20 MSTORE PUSH1 0x40 PUSH0 KECCAK256 PUSH1 0xFF NOT DUP2 SLOAD AND PUSH1 0xFF DUP4 AND OR SWAP1 SSTORE PUSH1 0x40 MLOAD SWAP1 DUP2 MSTORE PUSH32 0x17307EAB39AB6107E8899845AD3D59BD9653F200F220920489CA2B5937696C31 PUSH1 0x20 CALLER SWAP3 LOG3 STOP JUMPDEST CALLVALUE PUSH2 0x1F9 JUMPI PUSH1 0x80 CALLDATASIZE PUSH1 0x3 NOT ADD SLT PUSH2 0x1F9 JUMPI PUSH1 0x4 CALLDATALOAD PUSH1 0x24 CALLDATALOAD PUSH1 0x1 PUSH1 0x1 PUSH1 0x40 SHL SUB DUP2 GT PUSH2 0x1F9 JUMPI PUSH2 0x38D SWAP1 CALLDATASIZE SWAP1 PUSH1 0x4 ADD PUSH2 0x16BF JUMP JUMPDEST PUSH2 0x3A5 PUSH1 0x1 DUP1 PUSH1 0xA0 SWAP6 SWAP5 SWAP6 SHL SUB PUSH1 0x3 SLOAD AND CALLER EQ PUSH2 0x1939 JUMP JUMPDEST PUSH1 0x1 DUP3 LT ISZERO DUP1 PUSH2 0x4FC JUMPI JUMPDEST PUSH2 0x3B9 SWAP1 PUSH2 0x19C5 JUMP JUMPDEST DUP2 PUSH0 MSTORE PUSH1 0xA PUSH1 0x20 MSTORE PUSH1 0x40 PUSH0 KECCAK256 SWAP1 PUSH1 0x1 PUSH1 0x1 PUSH1 0x40 SHL SUB DUP2 GT PUSH2 0x4E8 JUMPI PUSH2 0x3DE DUP3 SLOAD PUSH2 0x158C JUMP JUMPDEST PUSH1 0x1F DUP2 GT PUSH2 0x4A3 JUMPI JUMPDEST POP PUSH0 PUSH1 0x1F DUP3 GT PUSH1 0x1 EQ PUSH2 0x441 JUMPI DUP2 SWAP3 SWAP4 SWAP5 PUSH0 SWAP3 PUSH2 0x436 JUMPI JUMPDEST POP POP DUP2 PUSH1 0x1 SHL SWAP2 PUSH0 NOT SWAP1 PUSH1 0x3 SHL SHR NOT AND OR SWAP1 SSTORE JUMPDEST DUP1 PUSH0 MSTORE PUSH1 0xB PUSH1 0x20 MSTORE PUSH1 0x44 CALLDATALOAD PUSH1 0x40 PUSH0 KECCAK256 SSTORE PUSH0 MSTORE PUSH1 0xC PUSH1 0x20 MSTORE PUSH1 0x64 CALLDATALOAD PUSH1 0x40 PUSH0 KECCAK256 SSTORE PUSH0 DUP1 RETURN JUMPDEST ADD CALLDATALOAD SWAP1 POP DUP5 DUP1 PUSH2 0x3FF JUMP JUMPDEST PUSH1 0x1F NOT DUP3 AND SWAP5 DUP4 PUSH0 MSTORE PUSH1 0x20 PUSH0 KECCAK256 SWAP2 PUSH0 JUMPDEST DUP8 DUP2 LT PUSH2 0x48B JUMPI POP DUP4 PUSH1 0x1 SWAP6 SWAP7 SWAP8 LT PUSH2 0x472 JUMPI JUMPDEST POP POP POP DUP2 SHL ADD SWAP1 SSTORE PUSH2 0x413 JUMP JUMPDEST ADD CALLDATALOAD PUSH0 NOT PUSH1 0x3 DUP5 SWAP1 SHL PUSH1 0xF8 AND SHR NOT AND SWAP1 SSTORE DUP5 DUP1 DUP1 PUSH2 0x465 JUMP JUMPDEST SWAP1 SWAP3 PUSH1 0x20 PUSH1 0x1 DUP2 SWAP3 DUP7 DUP7 ADD CALLDATALOAD DUP2 SSTORE ADD SWAP5 ADD SWAP2 ADD PUSH2 0x451 JUMP JUMPDEST DUP3 PUSH0 MSTORE PUSH1 0x20 PUSH0 KECCAK256 PUSH1 0x1F DUP4 ADD PUSH1 0x5 SHR DUP2 ADD SWAP2 PUSH1 0x20 DUP5 LT PUSH2 0x4DE JUMPI JUMPDEST PUSH1 0x1F ADD PUSH1 0x5 SHR ADD SWAP1 JUMPDEST DUP2 DUP2 LT PUSH2 0x4D3 JUMPI POP PUSH2 0x3E7 JUMP JUMPDEST PUSH0 DUP2 SSTORE PUSH1 0x1 ADD PUSH2 0x4C6 JUMP JUMPDEST SWAP1 SWAP2 POP DUP2 SWAP1 PUSH2 0x4BD JUMP JUMPDEST PUSH4 0x4E487B71 PUSH1 0xE0 SHL PUSH0 MSTORE PUSH1 0x41 PUSH1 0x4 MSTORE PUSH1 0x24 PUSH0 REVERT JUMPDEST POP PUSH1 0x6 DUP3 GT ISZERO PUSH2 0x3B0 JUMP JUMPDEST CALLVALUE PUSH2 0x1F9 JUMPI PUSH0 CALLDATASIZE PUSH1 0x3 NOT ADD SLT PUSH2 0x1F9 JUMPI PUSH1 0x40 MLOAD PUSH0 PUSH1 0x1 SLOAD PUSH2 0x527 DUP2 PUSH2 0x158C JUMP JUMPDEST DUP1 DUP5 MSTORE SWAP1 PUSH1 0x1 DUP2 AND SWAP1 DUP2 ISZERO PUSH2 0x5AD JUMPI POP PUSH1 0x1 EQ PUSH2 0x54F JUMPI JUMPDEST PUSH2 0x292 DUP4 PUSH2 0x27E DUP2 DUP6 SUB DUP3 PUSH2 0x15C4 JUMP JUMPDEST PUSH1 0x1 PUSH0 SWAP1 DUP2 MSTORE PUSH32 0xB10E2D527612073B26EECDFD717E6A320CF44B4AFAC2B0732D9FCBE2B7FA0CF6 SWAP4 SWAP3 POP SWAP1 JUMPDEST DUP1 DUP3 LT PUSH2 0x593 JUMPI POP SWAP1 SWAP2 POP DUP2 ADD PUSH1 0x20 ADD PUSH2 0x27E PUSH2 0x53F JUMP JUMPDEST SWAP2 SWAP3 PUSH1 0x1 DUP2 PUSH1 0x20 SWAP3 SLOAD DUP4 DUP6 DUP9 ADD ADD MSTORE ADD SWAP2 ADD SWAP1 SWAP3 SWAP2 PUSH2 0x57B JUMP JUMPDEST PUSH1 0xFF NOT AND PUSH1 0x20 DUP1 DUP7 ADD SWAP2 SWAP1 SWAP2 MSTORE SWAP2 ISZERO ISZERO PUSH1 0x5 SHL DUP5 ADD SWAP1 SWAP2 ADD SWAP2 POP PUSH2 0x27E SWAP1 POP PUSH2 0x53F JUMP JUMPDEST CALLVALUE PUSH2 0x1F9 JUMPI PUSH1 0x20 CALLDATASIZE PUSH1 0x3 NOT ADD SLT PUSH2 0x1F9 JUMPI PUSH1 0x4 CALLDATALOAD PUSH0 MSTORE PUSH1 0x11 PUSH1 0x20 MSTORE PUSH2 0x292 PUSH2 0x27E PUSH1 0x40 PUSH0 KECCAK256 PUSH2 0x15E5 JUMP JUMPDEST CALLVALUE PUSH2 0x1F9 JUMPI PUSH0 CALLDATASIZE PUSH1 0x3 NOT ADD SLT PUSH2 0x1F9 JUMPI PUSH1 0x3 SLOAD PUSH1 0x40 MLOAD PUSH1 0x1 PUSH1 0x1 PUSH1 0xA0 SHL SUB SWAP1 SWAP2 AND DUP2 MSTORE PUSH1 0x20 SWAP1 RETURN JUMPDEST CALLVALUE PUSH2 0x1F9 JUMPI PUSH1 0x20 CALLDATASIZE PUSH1 0x3 NOT ADD SLT PUSH2 0x1F9 JUMPI PUSH1 0x4 CALLDATALOAD PUSH0 MSTORE PUSH1 0xE PUSH1 0x20 MSTORE PUSH1 0x20 PUSH1 0xFF PUSH1 0x40 PUSH0 KECCAK256 SLOAD AND PUSH1 0x40 MLOAD SWAP1 ISZERO ISZERO DUP2 MSTORE RETURN JUMPDEST CALLVALUE PUSH2 0x1F9 JUMPI PUSH1 0x20 CALLDATASIZE PUSH1 0x3 NOT ADD SLT PUSH2 0x1F9 JUMPI PUSH1 0x4 CALLDATALOAD PUSH0 MSTORE PUSH1 0xC PUSH1 0x20 MSTORE PUSH1 0x20 PUSH1 0x40 PUSH0 KECCAK256 SLOAD PUSH1 0x40 MLOAD SWAP1 DUP2 MSTORE RETURN JUMPDEST CALLVALUE PUSH2 0x1F9 JUMPI PUSH1 0x20 CALLDATASIZE PUSH1 0x3 NOT ADD SLT PUSH2 0x1F9 JUMPI PUSH1 0x1 PUSH1 0x1 PUSH1 0xA0 SHL SUB PUSH2 0x69D PUSH2 0x16A9 JUMP JUMPDEST AND PUSH2 0x6A9 DUP2 ISZERO ISZERO PUSH2 0x1A0D JUMP JUMPDEST PUSH0 MSTORE PUSH1 0x7 PUSH1 0x20 MSTORE PUSH1 0x20 PUSH1 0x40 PUSH0 KECCAK256 SLOAD PUSH1 0x40 MLOAD SWAP1 DUP2 MSTORE RETURN JUMPDEST CALLVALUE PUSH2 0x1F9 JUMPI PUSH1 0x20 CALLDATASIZE PUSH1 0x3 NOT ADD SLT PUSH2 0x1F9 JUMPI PUSH1 0x4 CALLDATALOAD PUSH0 MSTORE PUSH1 0xA PUSH1 0x20 MSTORE PUSH2 0x292 PUSH2 0x27E PUSH1 0x40 PUSH0 KECCAK256 PUSH2 0x15E5 JUMP JUMPDEST CALLVALUE PUSH2 0x1F9 JUMPI PUSH1 0x20 CALLDATASIZE PUSH1 0x3 NOT ADD SLT PUSH2 0x1F9 JUMPI PUSH2 0x702 PUSH2 0x16A9 JUMP JUMPDEST PUSH2 0x717 PUSH1 0x1 DUP1 PUSH1 0xA0 SHL SUB PUSH1 0x3 SLOAD AND CALLER EQ PUSH2 0x1939 JUMP JUMPDEST PUSH1 0x1 PUSH1 0x1 PUSH1 0xA0 SHL SUB AND DUP1 ISZERO PUSH2 0x742 JUMPI PUSH12 0xFFFFFFFFFFFFFFFFFFFFFFFF PUSH1 0xA0 SHL PUSH1 0x4 SLOAD AND OR PUSH1 0x4 SSTORE PUSH0 DUP1 RETURN JUMPDEST PUSH1 0x40 MLOAD PUSH3 0x461BCD PUSH1 0xE5 SHL DUP2 MSTORE PUSH1 0x20 PUSH1 0x4 DUP3 ADD MSTORE PUSH1 0xE PUSH1 0x24 DUP3 ADD MSTORE PUSH14 0x24B73B30B634B21039B4B3B732B9 PUSH1 0x91 SHL PUSH1 0x44 DUP3 ADD MSTORE PUSH1 0x64 SWAP1 REVERT JUMPDEST CALLVALUE PUSH2 0x1F9 JUMPI PUSH0 CALLDATASIZE PUSH1 0x3 NOT ADD SLT PUSH2 0x1F9 JUMPI PUSH1 0x40 MLOAD PUSH0 PUSH1 0x13 SLOAD PUSH2 0x798 DUP2 PUSH2 0x158C JUMP JUMPDEST DUP1 DUP5 MSTORE SWAP1 PUSH1 0x1 DUP2 AND SWAP1 DUP2 ISZERO PUSH2 0x5AD JUMPI POP PUSH1 0x1 EQ PUSH2 0x7BF JUMPI PUSH2 0x292 DUP4 PUSH2 0x27E DUP2 DUP6 SUB DUP3 PUSH2 0x15C4 JUMP JUMPDEST PUSH1 0x13 PUSH0 SWAP1 DUP2 MSTORE PUSH0 MLOAD PUSH1 0x20 PUSH2 0x1CC4 PUSH0 CODECOPY PUSH0 MLOAD SWAP1 PUSH0 MSTORE SWAP4 SWAP3 POP SWAP1 JUMPDEST DUP1 DUP3 LT PUSH2 0x7F0 JUMPI POP SWAP1 SWAP2 POP DUP2 ADD PUSH1 0x20 ADD PUSH2 0x27E PUSH2 0x53F JUMP JUMPDEST SWAP2 SWAP3 PUSH1 0x1 DUP2 PUSH1 0x20 SWAP3 SLOAD DUP4 DUP6 DUP9 ADD ADD MSTORE ADD SWAP2 ADD SWAP1 SWAP3 SWAP2 PUSH2 0x7D8 JUMP JUMPDEST CALLVALUE PUSH2 0x1F9 JUMPI PUSH1 0x20 CALLDATASIZE PUSH1 0x3 NOT ADD SLT PUSH2 0x1F9 JUMPI PUSH1 0x4 CALLDATALOAD PUSH0 MSTORE PUSH1 0x12 PUSH1 0x20 MSTORE PUSH2 0x292 PUSH2 0x27E PUSH1 0x40 PUSH0 KECCAK256 PUSH2 0x15E5 JUMP JUMPDEST CALLVALUE PUSH2 0x1F9 JUMPI PUSH1 0x20 CALLDATASIZE PUSH1 0x3 NOT ADD SLT PUSH2 0x1F9 JUMPI PUSH2 0x8CE PUSH1 0x4 CALLDATALOAD PUSH1 0x1 DUP2 LT ISZERO DUP1 PUSH2 0x8ED JUMPI JUMPDEST PUSH2 0x85F SWAP1 PUSH2 0x19C5 JUMP JUMPDEST PUSH2 0x867 PUSH2 0x1B82 JUMP JUMPDEST PUSH0 DUP3 DUP2 MSTORE PUSH1 0xD PUSH1 0x20 SWAP1 DUP2 MSTORE PUSH1 0x40 DUP1 DUP4 KECCAK256 SWAP4 DUP4 MSTORE SWAP3 DUP2 MSTORE DUP3 DUP3 KECCAK256 SLOAD SWAP4 DUP3 MSTORE PUSH1 0xB DUP2 MSTORE DUP3 DUP3 KECCAK256 SLOAD PUSH1 0xA DUP3 MSTORE DUP4 DUP4 KECCAK256 PUSH1 0xC SWAP1 SWAP3 MSTORE SWAP3 SWAP1 SWAP2 KECCAK256 SLOAD SWAP3 DUP1 DUP4 GT ISZERO PUSH2 0x8E2 JUMPI PUSH2 0x8B3 PUSH2 0x8B9 SWAP2 DUP5 PUSH2 0x1A00 JUMP JUMPDEST SWAP2 PUSH2 0x15E5 JUMP JUMPDEST SWAP3 PUSH1 0x40 MLOAD SWAP5 DUP6 SWAP5 PUSH1 0x80 DUP7 MSTORE PUSH1 0x80 DUP7 ADD SWAP1 PUSH2 0x1685 JUMP JUMPDEST SWAP3 PUSH1 0x20 DUP6 ADD MSTORE PUSH1 0x40 DUP5 ADD MSTORE PUSH1 0x60 DUP4 ADD MSTORE SUB SWAP1 RETURN JUMPDEST POP PUSH2 0x8B9 PUSH0 SWAP2 PUSH2 0x15E5 JUMP JUMPDEST POP PUSH1 0x6 DUP2 GT ISZERO PUSH2 0x856 JUMP JUMPDEST CALLVALUE PUSH2 0x1F9 JUMPI PUSH0 CALLDATASIZE PUSH1 0x3 NOT ADD SLT PUSH2 0x1F9 JUMPI PUSH1 0x20 PUSH1 0x5 SLOAD PUSH1 0x40 MLOAD SWAP1 DUP2 MSTORE RETURN JUMPDEST CALLVALUE PUSH2 0x1F9 JUMPI PUSH1 0x20 CALLDATASIZE PUSH1 0x3 NOT ADD SLT PUSH2 0x1F9 JUMPI PUSH1 0x20 PUSH2 0x933 PUSH1 0x4 CALLDATALOAD PUSH2 0x19A0 JUMP JUMPDEST PUSH1 0x40 MLOAD PUSH1 0x1 PUSH1 0x1 PUSH1 0xA0 SHL SUB SWAP1 SWAP2 AND DUP2 MSTORE RETURN JUMPDEST CALLVALUE PUSH2 0x1F9 JUMPI PUSH1 0x20 CALLDATASIZE PUSH1 0x3 NOT ADD SLT PUSH2 0x1F9 JUMPI PUSH1 0x4 CALLDATALOAD PUSH0 MSTORE PUSH1 0xB PUSH1 0x20 MSTORE PUSH1 0x20 PUSH1 0x40 PUSH0 KECCAK256 SLOAD PUSH1 0x40 MLOAD SWAP1 DUP2 MSTORE RETURN JUMPDEST CALLVALUE PUSH2 0x1F9 JUMPI PUSH1 0x20 CALLDATASIZE PUSH1 0x3 NOT ADD SLT PUSH2 0x1F9 JUMPI PUSH1 0x4 CALLDATALOAD PUSH1 0x1 PUSH1 0x1 PUSH1 0x40 SHL SUB DUP2 GT PUSH2 0x1F9 JUMPI PUSH2 0x99F SWAP1 CALLDATASIZE SWAP1 PUSH1 0x4 ADD PUSH2 0x16BF JUMP JUMPDEST PUSH2 0x9B4 PUSH1 0x1 DUP1 PUSH1 0xA0 SHL SUB PUSH1 0x3 SLOAD AND CALLER EQ PUSH2 0x1939 JUMP JUMPDEST PUSH1 0x1 PUSH1 0x1 PUSH1 0x40 SHL SUB DUP2 GT PUSH2 0x4E8 JUMPI PUSH2 0x9CD PUSH1 0x13 SLOAD PUSH2 0x158C JUMP JUMPDEST PUSH1 0x1F DUP2 GT PUSH2 0xA74 JUMPI JUMPDEST POP PUSH0 PUSH1 0x1F DUP3 GT PUSH1 0x1 EQ PUSH2 0xA0F JUMPI DUP2 SWAP3 PUSH0 SWAP3 PUSH2 0xA04 JUMPI JUMPDEST POP POP PUSH0 NOT PUSH1 0x3 DUP4 SWAP1 SHL SHR NOT AND PUSH1 0x1 SWAP2 SWAP1 SWAP2 SHL OR PUSH1 0x13 SSTORE STOP JUMPDEST ADD CALLDATALOAD SWAP1 POP DUP3 DUP1 PUSH2 0x9EC JUMP JUMPDEST PUSH1 0x1F NOT DUP3 AND SWAP3 PUSH0 MLOAD PUSH1 0x20 PUSH2 0x1CC4 PUSH0 CODECOPY PUSH0 MLOAD SWAP1 PUSH0 MSTORE SWAP2 PUSH0 JUMPDEST DUP6 DUP2 LT PUSH2 0xA5C JUMPI POP DUP4 PUSH1 0x1 SWAP6 LT PUSH2 0xA43 JUMPI JUMPDEST POP POP POP DUP2 SHL ADD PUSH1 0x13 SSTORE STOP JUMPDEST ADD CALLDATALOAD PUSH0 NOT PUSH1 0x3 DUP5 SWAP1 SHL PUSH1 0xF8 AND SHR NOT AND SWAP1 SSTORE DUP3 DUP1 DUP1 PUSH2 0xA38 JUMP JUMPDEST SWAP1 SWAP3 PUSH1 0x20 PUSH1 0x1 DUP2 SWAP3 DUP7 DUP7 ADD CALLDATALOAD DUP2 SSTORE ADD SWAP5 ADD SWAP2 ADD PUSH2 0xA26 JUMP JUMPDEST PUSH1 0x1F DUP3 ADD PUSH1 0x5 SHR PUSH0 MLOAD PUSH1 0x20 PUSH2 0x1CC4 PUSH0 CODECOPY PUSH0 MLOAD SWAP1 PUSH0 MSTORE ADD SWAP1 PUSH1 0x20 DUP4 LT PUSH2 0xAC3 JUMPI JUMPDEST PUSH1 0x1F ADD PUSH1 0x5 SHR PUSH0 MLOAD PUSH1 0x20 PUSH2 0x1CC4 PUSH0 CODECOPY PUSH0 MLOAD SWAP1 PUSH0 MSTORE ADD SWAP1 JUMPDEST DUP2 DUP2 LT PUSH2 0xAB8 JUMPI POP PUSH2 0x9D6 JUMP JUMPDEST PUSH0 DUP2 SSTORE PUSH1 0x1 ADD PUSH2 0xAAB JUMP JUMPDEST PUSH0 MLOAD PUSH1 0x20 PUSH2 0x1CC4 PUSH0 CODECOPY PUSH0 MLOAD SWAP1 PUSH0 MSTORE SWAP2 POP PUSH2 0xA94 JUMP JUMPDEST CALLVALUE PUSH2 0x1F9 JUMPI PUSH1 0x40 CALLDATASIZE PUSH1 0x3 NOT ADD SLT PUSH2 0x1F9 JUMPI PUSH1 0x4 CALLDATALOAD PUSH1 0x24 CALLDATALOAD PUSH1 0x1 PUSH1 0x1 PUSH1 0x40 SHL SUB DUP2 GT PUSH2 0x1F9 JUMPI PUSH2 0xB0B SWAP1 CALLDATASIZE SWAP1 PUSH1 0x4 ADD PUSH2 0x16BF JUMP JUMPDEST SWAP1 SWAP2 PUSH2 0xB22 PUSH1 0x1 DUP1 PUSH1 0xA0 SHL SUB PUSH1 0x3 SLOAD AND CALLER EQ PUSH2 0x1939 JUMP JUMPDEST PUSH0 DUP2 DUP2 MSTORE PUSH1 0x6 PUSH1 0x20 MSTORE PUSH1 0x40 SWAP1 KECCAK256 SLOAD PUSH2 0xB44 SWAP1 PUSH1 0x1 PUSH1 0x1 PUSH1 0xA0 SHL SUB AND ISZERO ISZERO PUSH2 0x1885 JUMP JUMPDEST PUSH0 MSTORE PUSH1 0x12 PUSH1 0x20 MSTORE PUSH1 0x40 PUSH0 KECCAK256 SWAP1 PUSH1 0x1 PUSH1 0x1 PUSH1 0x40 SHL SUB DUP2 GT PUSH2 0x4E8 JUMPI PUSH2 0xB68 DUP3 SLOAD PUSH2 0x158C JUMP JUMPDEST PUSH1 0x1F DUP2 GT PUSH2 0xC08 JUMPI JUMPDEST POP PUSH0 PUSH1 0x1F DUP3 GT PUSH1 0x1 EQ PUSH2 0xBAA JUMPI DUP2 SWAP3 SWAP4 PUSH0 SWAP3 PUSH2 0xB9F JUMPI JUMPDEST POP POP PUSH0 NOT PUSH1 0x3 DUP4 SWAP1 SHL SHR NOT AND PUSH1 0x1 SWAP2 SWAP1 SWAP2 SHL OR SWAP1 SSTORE STOP JUMPDEST ADD CALLDATALOAD SWAP1 POP DUP4 DUP1 PUSH2 0xB88 JUMP JUMPDEST PUSH1 0x1F NOT DUP3 AND SWAP4 DUP4 PUSH0 MSTORE PUSH1 0x20 PUSH0 KECCAK256 SWAP2 PUSH0 JUMPDEST DUP7 DUP2 LT PUSH2 0xBF0 JUMPI POP DUP4 PUSH1 0x1 SWAP6 SWAP7 LT PUSH2 0xBD7 JUMPI JUMPDEST POP POP POP DUP2 SHL ADD SWAP1 SSTORE STOP JUMPDEST ADD CALLDATALOAD PUSH0 NOT PUSH1 0x3 DUP5 SWAP1 SHL PUSH1 0xF8 AND SHR NOT AND SWAP1 SSTORE DUP4 DUP1 DUP1 PUSH2 0xBCD JUMP JUMPDEST SWAP1 SWAP3 PUSH1 0x20 PUSH1 0x1 DUP2 SWAP3 DUP7 DUP7 ADD CALLDATALOAD DUP2 SSTORE ADD SWAP5 ADD SWAP2 ADD PUSH2 0xBBA JUMP JUMPDEST DUP3 PUSH0 MSTORE PUSH1 0x20 PUSH0 KECCAK256 PUSH1 0x1F DUP4 ADD PUSH1 0x5 SHR DUP2 ADD SWAP2 PUSH1 0x20 DUP5 LT PUSH2 0xC43 JUMPI JUMPDEST PUSH1 0x1F ADD PUSH1 0x5 SHR ADD SWAP1 JUMPDEST DUP2 DUP2 LT PUSH2 0xC38 JUMPI POP PUSH2 0xB71 JUMP JUMPDEST PUSH0 DUP2 SSTORE PUSH1 0x1 ADD PUSH2 0xC2B JUMP JUMPDEST SWAP1 SWAP2 POP DUP2 SWAP1 PUSH2 0xC22 JUMP JUMPDEST CALLVALUE PUSH2 0x1F9 JUMPI PUSH1 0x20 CALLDATASIZE PUSH1 0x3 NOT ADD SLT PUSH2 0x1F9 JUMPI PUSH1 0x4 CALLDATALOAD PUSH0 MSTORE PUSH1 0xF PUSH1 0x20 MSTORE PUSH1 0x20 PUSH1 0x40 PUSH0 KECCAK256 SLOAD PUSH1 0x40 MLOAD SWAP1 DUP2 MSTORE RETURN JUMPDEST PUSH2 0x16EC JUMP JUMPDEST CALLVALUE PUSH2 0x1F9 JUMPI PUSH0 CALLDATASIZE PUSH1 0x3 NOT ADD SLT PUSH2 0x1F9 JUMPI PUSH0 DUP1 DUP1 DUP1 PUSH1 0x1 DUP1 PUSH1 0xA0 SHL SUB PUSH1 0x3 SLOAD AND PUSH2 0xCA6 DUP2 CALLER EQ PUSH2 0x1939 JUMP JUMPDEST SELFBALANCE SWAP1 DUP3 DUP3 ISZERO PUSH2 0xCC3 JUMPI JUMPDEST CALL ISZERO PUSH2 0xCB8 JUMPI STOP JUMPDEST PUSH1 0x40 MLOAD RETURNDATASIZE PUSH0 DUP3 RETURNDATACOPY RETURNDATASIZE SWAP1 REVERT JUMPDEST POP PUSH2 0x8FC PUSH2 0xCB0 JUMP JUMPDEST CALLVALUE PUSH2 0x1F9 JUMPI PUSH1 0x20 CALLDATASIZE PUSH1 0x3 NOT ADD SLT PUSH2 0x1F9 JUMPI PUSH1 0x4 CALLDATALOAD PUSH0 MSTORE PUSH1 0x10 PUSH1 0x20 MSTORE PUSH2 0x292 PUSH2 0x27E PUSH1 0x40 PUSH0 KECCAK256 PUSH2 0x15E5 JUMP JUMPDEST CALLVALUE PUSH2 0x1F9 JUMPI PUSH0 CALLDATASIZE PUSH1 0x3 NOT ADD SLT PUSH2 0x1F9 JUMPI PUSH1 0x4 SLOAD PUSH1 0x40 MLOAD PUSH1 0x1 PUSH1 0x1 PUSH1 0xA0 SHL SUB SWAP1 SWAP2 AND DUP2 MSTORE PUSH1 0x20 SWAP1 RETURN JUMPDEST PUSH1 0xC0 CALLDATASIZE PUSH1 0x3 NOT ADD SLT PUSH2 0x1F9 JUMPI PUSH1 0x4 CALLDATALOAD PUSH1 0x24 CALLDATALOAD PUSH1 0x44 CALLDATALOAD PUSH1 0x1 PUSH1 0x1 PUSH1 0x40 SHL SUB DUP2 GT PUSH2 0x1F9 JUMPI PUSH2 0xD4F SWAP1 CALLDATASIZE SWAP1 PUSH1 0x4 ADD PUSH2 0x16BF JUMP JUMPDEST SWAP1 PUSH1 0x64 CALLDATALOAD PUSH1 0xFF DUP2 AND DUP1 SWAP2 SUB PUSH2 0x1F9 JUMPI PUSH1 0x1 DUP6 LT ISZERO DUP1 PUSH2 0x1178 JUMPI JUMPDEST ISZERO PUSH2 0x1133 JUMPI DUP5 PUSH0 MSTORE PUSH1 0xC PUSH1 0x20 MSTORE PUSH1 0x40 PUSH0 KECCAK256 SLOAD CALLVALUE LT PUSH2 0x10F7 JUMPI PUSH2 0xD8D PUSH1 0x5 SLOAD DUP6 PUSH2 0x1971 JUMP JUMPDEST TIMESTAMP GT PUSH2 0x10BE JUMPI PUSH0 PUSH1 0x80 PUSH1 0x20 SWAP3 PUSH1 0x40 MLOAD DUP5 DUP2 ADD SWAP1 CALLER PUSH1 0x60 SHL SWAP9 DUP10 DUP4 MSTORE DUP11 PUSH1 0x34 DUP4 ADD MSTORE PUSH1 0x54 DUP3 ADD MSTORE DUP8 DUP8 PUSH1 0x74 DUP4 ADD CALLDATACOPY PUSH2 0xDD7 PUSH1 0x74 DUP3 DUP11 DUP2 ADD DUP9 DUP4 DUP3 ADD MSTORE SUB ADD PUSH1 0x1F NOT DUP2 ADD DUP4 MSTORE DUP3 PUSH2 0x15C4 JUMP JUMPDEST MLOAD SWAP1 KECCAK256 PUSH1 0x40 MLOAD DUP6 DUP2 ADD SWAP2 PUSH32 0x19457468657265756D205369676E6564204D6573736167653A0A333200000000 DUP4 MSTORE PUSH1 0x3C DUP3 ADD MSTORE PUSH1 0x3C DUP2 MSTORE PUSH2 0xE18 PUSH1 0x5C DUP3 PUSH2 0x15C4 JUMP JUMPDEST MLOAD SWAP1 KECCAK256 SWAP1 PUSH1 0x40 MLOAD SWAP2 DUP3 MSTORE DUP5 DUP3 ADD MSTORE PUSH1 0x84 CALLDATALOAD PUSH1 0x40 DUP3 ADD MSTORE PUSH1 0xA4 CALLDATALOAD PUSH1 0x60 DUP3 ADD MSTORE DUP3 DUP1 MSTORE PUSH1 0x1 GAS STATICCALL ISZERO PUSH2 0xCB8 JUMPI PUSH0 MLOAD PUSH1 0x4 SLOAD PUSH1 0x1 PUSH1 0x1 PUSH1 0xA0 SHL SUB SWAP1 DUP2 AND SWAP2 AND SUB PUSH2 0x1085 JUMPI PUSH1 0x20 PUSH1 0x34 PUSH2 0xE85 SWAP3 DUP5 PUSH1 0x40 MLOAD SWAP6 DUP7 SWAP3 DUP6 DUP5 ADD SWAP9 DUP10 MSTORE DUP5 DUP5 ADD CALLDATACOPY DUP2 ADD DUP8 DUP4 DUP3 ADD MSTORE SUB ADD DUP1 DUP5 MSTORE ADD DUP3 PUSH2 0x15C4 JUMP JUMPDEST MLOAD SWAP1 KECCAK256 DUP1 PUSH0 MSTORE PUSH1 0xE PUSH1 0x20 MSTORE PUSH1 0xFF PUSH1 0x40 PUSH0 KECCAK256 SLOAD AND PUSH2 0x104E JUMPI PUSH0 MSTORE PUSH1 0xE PUSH1 0x20 MSTORE PUSH1 0x40 PUSH0 KECCAK256 PUSH1 0x1 PUSH1 0xFF NOT DUP3 SLOAD AND OR SWAP1 SSTORE PUSH2 0xEBA PUSH2 0x1B82 JUMP JUMPDEST DUP2 PUSH0 MSTORE PUSH1 0xD PUSH1 0x20 MSTORE PUSH1 0x40 PUSH0 KECCAK256 DUP2 PUSH0 MSTORE PUSH1 0x20 MSTORE PUSH1 0x40 PUSH0 KECCAK256 SLOAD DUP3 PUSH0 MSTORE PUSH1 0xB PUSH1 0x20 MSTORE PUSH1 0x40 PUSH0 KECCAK256 SLOAD GT ISZERO PUSH2 0x1011 JUMPI DUP2 PUSH0 MSTORE PUSH1 0xD PUSH1 0x20 MSTORE PUSH1 0x40 PUSH0 KECCAK256 SWAP1 PUSH0 MSTORE PUSH1 0x20 MSTORE PUSH1 0x40 PUSH0 KECCAK256 PUSH2 0xF04 DUP2 SLOAD PUSH2 0x1992 JUMP JUMPDEST SWAP1 SSTORE PUSH2 0xF11 PUSH1 0x2 SLOAD PUSH2 0x1992 JUMP JUMPDEST DUP1 PUSH1 0x2 SSTORE PUSH2 0xF20 CALLER ISZERO ISZERO PUSH2 0x1A0D JUMP JUMPDEST PUSH0 DUP2 DUP2 MSTORE PUSH1 0x6 PUSH1 0x20 MSTORE PUSH1 0x40 SWAP1 KECCAK256 SLOAD PUSH1 0x1 PUSH1 0x1 PUSH1 0xA0 SHL SUB AND PUSH2 0xFDD JUMPI DUP1 PUSH1 0x20 SWAP3 CALLER PUSH0 MSTORE PUSH1 0x7 DUP5 MSTORE PUSH1 0x40 PUSH0 KECCAK256 PUSH2 0xF54 DUP2 SLOAD PUSH2 0x1992 JUMP JUMPDEST SWAP1 SSTORE PUSH0 DUP3 DUP2 MSTORE PUSH1 0x6 DUP6 MSTORE PUSH1 0x40 DUP1 DUP3 KECCAK256 DUP1 SLOAD PUSH1 0x1 PUSH1 0x1 PUSH1 0xA0 SHL SUB NOT AND CALLER SWAP1 DUP2 OR SWAP1 SWAP2 SSTORE SWAP1 MLOAD SWAP3 SWAP2 DUP5 SWAP2 SWAP1 PUSH32 0xDDF252AD1BE2C89B69C2B068FC378DAA952BA7F163C4A11628F55A4DF523B3EF DUP2 DUP1 LOG4 DUP3 PUSH0 MSTORE PUSH1 0xF DUP6 MSTORE DUP1 PUSH1 0x40 PUSH0 KECCAK256 SSTORE DUP2 MSTORE PUSH32 0x226D2A645D7EDD4FC8D019B3EAE722231277E0665965DBA0C711BE16EF35BA9E DUP5 CALLER SWAP3 LOG3 PUSH1 0x40 MLOAD SWAP1 DUP2 MSTORE RETURN JUMPDEST PUSH1 0x40 MLOAD PUSH3 0x461BCD PUSH1 0xE5 SHL DUP2 MSTORE PUSH1 0x20 PUSH1 0x4 DUP3 ADD MSTORE PUSH1 0xC PUSH1 0x24 DUP3 ADD MSTORE PUSH12 0x546F6B656E20657869737473 PUSH1 0xA0 SHL PUSH1 0x44 DUP3 ADD MSTORE PUSH1 0x64 SWAP1 REVERT JUMPDEST PUSH1 0x40 MLOAD PUSH3 0x461BCD PUSH1 0xE5 SHL DUP2 MSTORE PUSH1 0x20 PUSH1 0x4 DUP3 ADD MSTORE PUSH1 0x15 PUSH1 0x24 DUP3 ADD MSTORE PUSH21 0x135BDB9D1A1B1E481B1A5B5A5D081C995858DA1959 PUSH1 0x5A SHL PUSH1 0x44 DUP3 ADD MSTORE PUSH1 0x64 SWAP1 REVERT JUMPDEST PUSH1 0x40 MLOAD PUSH3 0x461BCD PUSH1 0xE5 SHL DUP2 MSTORE PUSH1 0x20 PUSH1 0x4 DUP3 ADD MSTORE PUSH1 0xF PUSH1 0x24 DUP3 ADD MSTORE PUSH15 0x105B1C9958591E4818DB185A5B5959 PUSH1 0x8A SHL PUSH1 0x44 DUP3 ADD MSTORE PUSH1 0x64 SWAP1 REVERT JUMPDEST PUSH1 0x40 MLOAD PUSH3 0x461BCD PUSH1 0xE5 SHL DUP2 MSTORE PUSH1 0x20 PUSH1 0x4 DUP3 ADD MSTORE PUSH1 0x11 PUSH1 0x24 DUP3 ADD MSTORE PUSH17 0x496E76616C6964207369676E6174757265 PUSH1 0x78 SHL PUSH1 0x44 DUP3 ADD MSTORE PUSH1 0x64 SWAP1 REVERT JUMPDEST PUSH1 0x40 MLOAD PUSH3 0x461BCD PUSH1 0xE5 SHL DUP2 MSTORE PUSH1 0x20 PUSH1 0x4 DUP3 ADD MSTORE PUSH1 0x11 PUSH1 0x24 DUP3 ADD MSTORE PUSH17 0x14DA59DB985D1D5C9948195E1C1A5C9959 PUSH1 0x7A SHL PUSH1 0x44 DUP3 ADD MSTORE PUSH1 0x64 SWAP1 REVERT JUMPDEST PUSH1 0x40 MLOAD PUSH3 0x461BCD PUSH1 0xE5 SHL DUP2 MSTORE PUSH1 0x20 PUSH1 0x4 DUP3 ADD MSTORE PUSH1 0x14 PUSH1 0x24 DUP3 ADD MSTORE PUSH20 0x125B9CDD59999A58DA595B9D081C185E5B595B9D PUSH1 0x62 SHL PUSH1 0x44 DUP3 ADD MSTORE PUSH1 0x64 SWAP1 REVERT JUMPDEST PUSH1 0x40 MLOAD PUSH3 0x461BCD PUSH1 0xE5 SHL DUP2 MSTORE PUSH1 0x20 PUSH1 0x4 DUP3 ADD MSTORE PUSH1 0x18 PUSH1 0x24 DUP3 ADD MSTORE PUSH32 0x496E76616C696420616368696576656D656E7420747970650000000000000000 PUSH1 0x44 DUP3 ADD MSTORE PUSH1 0x64 SWAP1 REVERT JUMPDEST POP PUSH1 0x6 DUP6 GT ISZERO PUSH2 0xD69 JUMP JUMPDEST CALLVALUE PUSH2 0x1F9 JUMPI PUSH1 0x60 CALLDATASIZE PUSH1 0x3 NOT ADD SLT PUSH2 0x1F9 JUMPI PUSH1 0x4 CALLDATALOAD PUSH1 0x24 CALLDATALOAD PUSH1 0x1 PUSH1 0x1 PUSH1 0x40 SHL SUB DUP2 GT PUSH2 0x1F9 JUMPI PUSH2 0x11B6 SWAP1 CALLDATASIZE SWAP1 PUSH1 0x4 ADD PUSH2 0x16BF JUMP JUMPDEST SWAP2 PUSH1 0x44 CALLDATALOAD PUSH1 0x1 PUSH1 0x1 PUSH1 0x40 SHL SUB DUP2 GT PUSH2 0x1F9 JUMPI PUSH2 0x11D6 SWAP1 CALLDATASIZE SWAP1 PUSH1 0x4 ADD PUSH2 0x16BF JUMP JUMPDEST SWAP3 SWAP1 SWAP4 PUSH2 0x11EE PUSH1 0x1 DUP1 PUSH1 0xA0 SHL SUB PUSH1 0x3 SLOAD AND CALLER EQ PUSH2 0x1939 JUMP JUMPDEST PUSH0 DUP4 DUP2 MSTORE PUSH1 0x6 PUSH1 0x20 MSTORE PUSH1 0x40 SWAP1 KECCAK256 SLOAD PUSH2 0x1210 SWAP1 PUSH1 0x1 PUSH1 0x1 PUSH1 0xA0 SHL SUB AND ISZERO ISZERO PUSH2 0x1885 JUMP JUMPDEST DUP3 PUSH0 MSTORE PUSH1 0x10 PUSH1 0x20 MSTORE PUSH1 0x40 PUSH0 KECCAK256 SWAP2 PUSH1 0x1 PUSH1 0x1 PUSH1 0x40 SHL SUB DUP3 GT PUSH2 0x4E8 JUMPI DUP2 SWAP1 PUSH2 0x1237 DUP5 SLOAD PUSH2 0x158C JUMP JUMPDEST PUSH1 0x1F DUP2 GT PUSH2 0x13BE JUMPI JUMPDEST POP PUSH0 SWAP1 PUSH1 0x1F DUP4 GT PUSH1 0x1 EQ PUSH2 0x1357 JUMPI PUSH0 SWAP3 PUSH2 0x134C JUMPI JUMPDEST POP POP DUP2 PUSH1 0x1 SHL SWAP2 PUSH0 NOT SWAP1 PUSH1 0x3 SHL SHR NOT AND OR SWAP1 SSTORE JUMPDEST PUSH0 MSTORE PUSH1 0x11 PUSH1 0x20 MSTORE PUSH1 0x40 PUSH0 KECCAK256 SWAP1 PUSH1 0x1 PUSH1 0x1 PUSH1 0x40 SHL SUB DUP2 GT PUSH2 0x4E8 JUMPI PUSH2 0x128D DUP3 SLOAD PUSH2 0x158C JUMP JUMPDEST PUSH1 0x1F DUP2 GT PUSH2 0x1307 JUMPI JUMPDEST POP PUSH0 PUSH1 0x1F DUP3 GT PUSH1 0x1 EQ PUSH2 0x12C3 JUMPI DUP2 SWAP3 SWAP4 PUSH0 SWAP3 PUSH2 0xB9F JUMPI POP POP PUSH0 NOT PUSH1 0x3 DUP4 SWAP1 SHL SHR NOT AND PUSH1 0x1 SWAP2 SWAP1 SWAP2 SHL OR SWAP1 SSTORE STOP JUMPDEST PUSH1 0x1F NOT DUP3 AND SWAP4 DUP4 PUSH0 MSTORE PUSH1 0x20 PUSH0 KECCAK256 SWAP2 PUSH0 JUMPDEST DUP7 DUP2 LT PUSH2 0x12EF JUMPI POP DUP4 PUSH1 0x1 SWAP6 SWAP7 LT PUSH2 0xBD7 JUMPI POP POP POP DUP2 SHL ADD SWAP1 SSTORE STOP JUMPDEST SWAP1 SWAP3 PUSH1 0x20 PUSH1 0x1 DUP2 SWAP3 DUP7 DUP7 ADD CALLDATALOAD DUP2 SSTORE ADD SWAP5 ADD SWAP2 ADD PUSH2 0x12D3 JUMP JUMPDEST DUP3 PUSH0 MSTORE PUSH1 0x20 PUSH0 KECCAK256 PUSH1 0x1F DUP4 ADD PUSH1 0x5 SHR DUP2 ADD SWAP2 PUSH1 0x20 DUP5 LT PUSH2 0x1342 JUMPI JUMPDEST PUSH1 0x1F ADD PUSH1 0x5 SHR ADD SWAP1 JUMPDEST DUP2 DUP2 LT PUSH2 0x1337 JUMPI POP PUSH2 0x1296 JUMP JUMPDEST PUSH0 DUP2 SSTORE PUSH1 0x1 ADD PUSH2 0x132A JUMP JUMPDEST SWAP1 SWAP2 POP DUP2 SWAP1 PUSH2 0x1321 JUMP JUMPDEST ADD CALLDATALOAD SWAP1 POP DUP7 DUP1 PUSH2 0x1255 JUMP JUMPDEST SWAP1 SWAP2 POP PUSH1 0x1F NOT DUP4 AND SWAP2 DUP5 PUSH0 MSTORE PUSH1 0x20 PUSH0 KECCAK256 SWAP3 PUSH0 JUMPDEST DUP2 DUP2 LT PUSH2 0x13A6 JUMPI POP SWAP1 DUP5 PUSH1 0x1 SWAP6 SWAP5 SWAP4 SWAP3 LT PUSH2 0x138D JUMPI JUMPDEST POP POP POP DUP2 SHL ADD SWAP1 SSTORE PUSH2 0x1269 JUMP JUMPDEST ADD CALLDATALOAD PUSH0 NOT PUSH1 0x3 DUP5 SWAP1 SHL PUSH1 0xF8 AND SHR NOT AND SWAP1 SSTORE DUP7 DUP1 DUP1 PUSH2 0x1380 JUMP JUMPDEST SWAP2 SWAP4 PUSH1 0x20 PUSH1 0x1 DUP2 SWAP3 DUP8 DUP8 ADD CALLDATALOAD DUP2 SSTORE ADD SWAP6 ADD SWAP3 ADD PUSH2 0x136A JUMP JUMPDEST SWAP1 SWAP2 POP DUP4 PUSH0 MSTORE PUSH1 0x20 PUSH0 KECCAK256 PUSH1 0x1F DUP5 ADD PUSH1 0x5 SHR DUP2 ADD SWAP2 PUSH1 0x20 DUP6 LT PUSH2 0x1404 JUMPI JUMPDEST SWAP1 PUSH1 0x1F DUP6 SWAP5 SWAP4 SWAP3 ADD PUSH1 0x5 SHR ADD SWAP1 JUMPDEST DUP2 DUP2 LT PUSH2 0x13F6 JUMPI POP PUSH2 0x1240 JUMP JUMPDEST PUSH0 DUP2 SSTORE DUP5 SWAP4 POP PUSH1 0x1 ADD PUSH2 0x13E9 JUMP JUMPDEST SWAP1 SWAP2 POP DUP2 SWAP1 PUSH2 0x13DB JUMP JUMPDEST CALLVALUE PUSH2 0x1F9 JUMPI PUSH1 0x40 CALLDATASIZE PUSH1 0x3 NOT ADD SLT PUSH2 0x1F9 JUMPI PUSH2 0x1427 PUSH2 0x16A9 JUMP JUMPDEST PUSH1 0x24 CALLDATALOAD SWAP1 PUSH1 0x1 PUSH1 0x1 PUSH1 0xA0 SHL SUB PUSH2 0x143C DUP4 PUSH2 0x19A0 JUMP JUMPDEST PUSH1 0x1 PUSH1 0x1 PUSH1 0xA0 SHL SUB SWAP1 SWAP3 AND SWAP2 AND PUSH2 0x1455 DUP3 DUP3 EQ ISZERO PUSH2 0x18FD JUMP JUMPDEST DUP1 CALLER EQ DUP1 ISZERO PUSH2 0x14DD JUMPI JUMPDEST ISZERO PUSH2 0x14A7 JUMPI PUSH0 DUP4 DUP2 MSTORE PUSH1 0x8 PUSH1 0x20 MSTORE PUSH1 0x40 DUP2 KECCAK256 DUP1 SLOAD PUSH1 0x1 PUSH1 0x1 PUSH1 0xA0 SHL SUB NOT AND DUP5 OR SWAP1 SSTORE PUSH32 0x8C5BE1E5EBEC7D5BD14F71427D1E84F3DD0314C0F7B2291E5B200AC8C7C3B925 SWAP1 DUP1 LOG4 STOP JUMPDEST PUSH1 0x40 MLOAD PUSH3 0x461BCD PUSH1 0xE5 SHL DUP2 MSTORE PUSH1 0x20 PUSH1 0x4 DUP3 ADD MSTORE PUSH1 0xE PUSH1 0x24 DUP3 ADD MSTORE PUSH14 0x139BDD08185D5D1A1BDC9A5E9959 PUSH1 0x92 SHL PUSH1 0x44 DUP3 ADD MSTORE PUSH1 0x64 SWAP1 REVERT JUMPDEST POP PUSH0 DUP2 DUP2 MSTORE PUSH1 0x9 PUSH1 0x20 SWAP1 DUP2 MSTORE PUSH1 0x40 DUP1 DUP4 KECCAK256 CALLER DUP5 MSTORE SWAP1 SWAP2 MSTORE SWAP1 KECCAK256 SLOAD PUSH1 0xFF AND PUSH2 0x145F JUMP JUMPDEST CALLVALUE PUSH2 0x1F9 JUMPI PUSH1 0x20 CALLDATASIZE PUSH1 0x3 NOT ADD SLT PUSH2 0x1F9 JUMPI PUSH1 0x20 PUSH2 0x933 PUSH1 0x4 CALLDATALOAD PUSH2 0x18C1 JUMP JUMPDEST CALLVALUE PUSH2 0x1F9 JUMPI PUSH0 CALLDATASIZE PUSH1 0x3 NOT ADD SLT PUSH2 0x1F9 JUMPI PUSH2 0x292 PUSH2 0x27E PUSH0 PUSH2 0x15E5 JUMP JUMPDEST CALLVALUE PUSH2 0x1F9 JUMPI PUSH1 0x20 CALLDATASIZE PUSH1 0x3 NOT ADD SLT PUSH2 0x1F9 JUMPI PUSH1 0x4 CALLDATALOAD SWAP1 PUSH4 0xFFFFFFFF PUSH1 0xE0 SHL DUP3 AND DUP1 SWAP3 SUB PUSH2 0x1F9 JUMPI PUSH1 0x20 SWAP2 PUSH4 0x80AC58CD PUSH1 0xE0 SHL DUP2 EQ SWAP1 DUP2 ISZERO PUSH2 0x157B JUMPI JUMPDEST POP ISZERO ISZERO DUP2 MSTORE RETURN JUMPDEST PUSH4 0x1FFC9A7 PUSH1 0xE0 SHL EQ SWAP1 POP DUP4 PUSH2 0x1574 JUMP JUMPDEST SWAP1 PUSH1 0x1 DUP3 DUP2 SHR SWAP3 AND DUP1 ISZERO PUSH2 0x15BA JUMPI JUMPDEST PUSH1 0x20 DUP4 LT EQ PUSH2 0x15A6 JUMPI JUMP JUMPDEST PUSH4 0x4E487B71 PUSH1 0xE0 SHL PUSH0 MSTORE PUSH1 0x22 PUSH1 0x4 MSTORE PUSH1 0x24 PUSH0 REVERT JUMPDEST SWAP2 PUSH1 0x7F AND SWAP2 PUSH2 0x159B JUMP JUMPDEST SWAP1 PUSH1 0x1F DUP1 NOT SWAP2 ADD AND DUP2 ADD SWAP1 DUP2 LT PUSH1 0x1 PUSH1 0x1 PUSH1 0x40 SHL SUB DUP3 GT OR PUSH2 0x4E8 JUMPI PUSH1 0x40 MSTORE JUMP JUMPDEST SWAP1 PUSH1 0x40 MLOAD SWAP2 DUP3 PUSH0 DUP3 SLOAD SWAP3 PUSH2 0x15F8 DUP5 PUSH2 0x158C JUMP JUMPDEST DUP1 DUP5 MSTORE SWAP4 PUSH1 0x1 DUP2 AND SWAP1 DUP2 ISZERO PUSH2 0x1663 JUMPI POP PUSH1 0x1 EQ PUSH2 0x161F JUMPI JUMPDEST POP PUSH2 0x161D SWAP3 POP SUB DUP4 PUSH2 0x15C4 JUMP JUMPDEST JUMP JUMPDEST SWAP1 POP PUSH0 SWAP3 SWAP2 SWAP3 MSTORE PUSH1 0x20 PUSH0 KECCAK256 SWAP1 PUSH0 SWAP2 JUMPDEST DUP2 DUP4 LT PUSH2 0x1647 JUMPI POP POP SWAP1 PUSH1 0x20 PUSH2 0x161D SWAP3 DUP3 ADD ADD PUSH0 PUSH2 0x1610 JUMP JUMPDEST PUSH1 0x20 SWAP2 SWAP4 POP DUP1 PUSH1 0x1 SWAP2 SLOAD DUP4 DUP6 DUP10 ADD ADD MSTORE ADD SWAP2 ADD SWAP1 SWAP2 DUP5 SWAP3 PUSH2 0x162E JUMP JUMPDEST SWAP1 POP PUSH1 0x20 SWAP3 POP PUSH2 0x161D SWAP5 SWAP2 POP PUSH1 0xFF NOT AND DUP3 DUP5 ADD MSTORE ISZERO ISZERO PUSH1 0x5 SHL DUP3 ADD ADD PUSH0 PUSH2 0x1610 JUMP JUMPDEST DUP1 MLOAD DUP1 DUP4 MSTORE PUSH1 0x20 SWAP3 SWAP2 DUP2 SWAP1 DUP5 ADD DUP5 DUP5 ADD MCOPY PUSH0 DUP3 DUP3 ADD DUP5 ADD MSTORE PUSH1 0x1F ADD PUSH1 0x1F NOT AND ADD ADD SWAP1 JUMP JUMPDEST PUSH1 0x4 CALLDATALOAD SWAP1 PUSH1 0x1 PUSH1 0x1 PUSH1 0xA0 SHL SUB DUP3 AND DUP3 SUB PUSH2 0x1F9 JUMPI JUMP JUMPDEST SWAP2 DUP2 PUSH1 0x1F DUP5 ADD SLT ISZERO PUSH2 0x1F9 JUMPI DUP3 CALLDATALOAD SWAP2 PUSH1 0x1 PUSH1 0x1 PUSH1 0x40 SHL SUB DUP4 GT PUSH2 0x1F9 JUMPI PUSH1 0x20 DUP4 DUP2 DUP7 ADD SWAP6 ADD ADD GT PUSH2 0x1F9 JUMPI JUMP JUMPDEST CALLVALUE PUSH2 0x1F9 JUMPI PUSH1 0x60 CALLDATASIZE PUSH1 0x3 NOT ADD SLT PUSH2 0x1F9 JUMPI PUSH1 0x4 CALLDATALOAD PUSH1 0x1 PUSH1 0x1 PUSH1 0xA0 SHL SUB DUP2 AND SWAP1 DUP2 DUP2 SUB PUSH2 0x1F9 JUMPI POP PUSH1 0x24 CALLDATALOAD PUSH1 0x1 PUSH1 0x1 PUSH1 0xA0 SHL SUB DUP2 AND SWAP1 DUP2 DUP2 SUB PUSH2 0x1F9 JUMPI POP PUSH1 0x44 CALLDATALOAD SWAP2 PUSH1 0x1 PUSH1 0x1 PUSH1 0xA0 SHL SUB PUSH2 0x173E DUP5 PUSH2 0x19A0 JUMP JUMPDEST AND DUP1 CALLER EQ SWAP1 DUP2 ISZERO PUSH2 0x1869 JUMPI JUMPDEST DUP2 ISZERO PUSH2 0x1846 JUMPI JUMPDEST POP ISZERO PUSH2 0x1812 JUMPI PUSH2 0x1773 DUP2 PUSH1 0x1 PUSH1 0x1 PUSH1 0xA0 SHL SUB PUSH2 0x176C DUP7 PUSH2 0x19A0 JUMP JUMPDEST AND EQ PUSH2 0x1939 JUMP JUMPDEST PUSH2 0x177E DUP3 ISZERO ISZERO PUSH2 0x1A0D JUMP JUMPDEST DUP3 PUSH0 MSTORE PUSH1 0x8 PUSH1 0x20 MSTORE PUSH1 0x40 PUSH0 KECCAK256 PUSH12 0xFFFFFFFFFFFFFFFFFFFFFFFF PUSH1 0xA0 SHL DUP2 SLOAD AND SWAP1 SSTORE DUP1 PUSH0 MSTORE PUSH1 0x7 PUSH1 0x20 MSTORE PUSH1 0x40 PUSH0 KECCAK256 PUSH2 0x17B5 DUP2 SLOAD PUSH2 0x1BC8 JUMP JUMPDEST SWAP1 SSTORE DUP2 PUSH0 MSTORE PUSH1 0x7 PUSH1 0x20 MSTORE PUSH1 0x40 PUSH0 KECCAK256 PUSH2 0x17CD DUP2 SLOAD PUSH2 0x1992 JUMP JUMPDEST SWAP1 SSTORE PUSH0 DUP4 DUP2 MSTORE PUSH1 0x6 PUSH1 0x20 MSTORE PUSH1 0x40 DUP2 KECCAK256 DUP1 SLOAD PUSH1 0x1 PUSH1 0x1 PUSH1 0xA0 SHL SUB NOT AND DUP5 OR SWAP1 SSTORE PUSH32 0xDDF252AD1BE2C89B69C2B068FC378DAA952BA7F163C4A11628F55A4DF523B3EF SWAP1 DUP1 LOG4 STOP JUMPDEST PUSH1 0x40 MLOAD PUSH3 0x461BCD PUSH1 0xE5 SHL DUP2 MSTORE PUSH1 0x20 PUSH1 0x4 DUP3 ADD MSTORE PUSH1 0xC PUSH1 0x24 DUP3 ADD MSTORE PUSH12 0x139BDD08185C1C1C9BDD9959 PUSH1 0xA2 SHL PUSH1 0x44 DUP3 ADD MSTORE PUSH1 0x64 SWAP1 REVERT JUMPDEST PUSH0 SWAP1 DUP2 MSTORE PUSH1 0x9 PUSH1 0x20 SWAP1 DUP2 MSTORE PUSH1 0x40 DUP1 DUP4 KECCAK256 CALLER DUP5 MSTORE SWAP1 SWAP2 MSTORE DUP2 KECCAK256 SLOAD PUSH1 0xFF AND SWAP2 POP PUSH2 0x1751 JUMP JUMPDEST SWAP1 POP CALLER PUSH1 0x1 PUSH1 0x1 PUSH1 0xA0 SHL SUB PUSH2 0x187D DUP7 PUSH2 0x18C1 JUMP JUMPDEST AND EQ SWAP1 PUSH2 0x174A JUMP JUMPDEST ISZERO PUSH2 0x188C JUMPI JUMP JUMPDEST PUSH1 0x40 MLOAD PUSH3 0x461BCD PUSH1 0xE5 SHL DUP2 MSTORE PUSH1 0x20 PUSH1 0x4 DUP3 ADD MSTORE PUSH1 0xD PUSH1 0x24 DUP3 ADD MSTORE PUSH13 0x24B73B30B634B2103A37B5B2B7 PUSH1 0x99 SHL PUSH1 0x44 DUP3 ADD MSTORE PUSH1 0x64 SWAP1 REVERT JUMPDEST PUSH0 DUP2 DUP2 MSTORE PUSH1 0x6 PUSH1 0x20 MSTORE PUSH1 0x40 SWAP1 KECCAK256 SLOAD PUSH2 0x18E3 SWAP1 PUSH1 0x1 PUSH1 0x1 PUSH1 0xA0 SHL SUB AND ISZERO ISZERO PUSH2 0x1885 JUMP JUMPDEST PUSH0 SWAP1 DUP2 MSTORE PUSH1 0x8 PUSH1 0x20 MSTORE PUSH1 0x40 SWAP1 KECCAK256 SLOAD PUSH1 0x1 PUSH1 0x1 PUSH1 0xA0 SHL SUB AND SWAP1 JUMP JUMPDEST ISZERO PUSH2 0x1904 JUMPI JUMP JUMPDEST PUSH1 0x40 MLOAD PUSH3 0x461BCD PUSH1 0xE5 SHL DUP2 MSTORE PUSH1 0x20 PUSH1 0x4 DUP3 ADD MSTORE PUSH1 0xD PUSH1 0x24 DUP3 ADD MSTORE PUSH13 0x14D95B198B585C1C1C9BDD985B PUSH1 0x9A SHL PUSH1 0x44 DUP3 ADD MSTORE PUSH1 0x64 SWAP1 REVERT JUMPDEST ISZERO PUSH2 0x1940 JUMPI JUMP JUMPDEST PUSH1 0x40 MLOAD PUSH3 0x461BCD PUSH1 0xE5 SHL DUP2 MSTORE PUSH1 0x20 PUSH1 0x4 DUP3 ADD MSTORE PUSH1 0x9 PUSH1 0x24 DUP3 ADD MSTORE PUSH9 0x2737BA1037BBB732B9 PUSH1 0xB9 SHL PUSH1 0x44 DUP3 ADD MSTORE PUSH1 0x64 SWAP1 REVERT JUMPDEST SWAP2 SWAP1 DUP3 ADD DUP1 SWAP3 GT PUSH2 0x197E JUMPI JUMP JUMPDEST PUSH4 0x4E487B71 PUSH1 0xE0 SHL PUSH0 MSTORE PUSH1 0x11 PUSH1 0x4 MSTORE PUSH1 0x24 PUSH0 REVERT JUMPDEST PUSH0 NOT DUP2 EQ PUSH2 0x197E JUMPI PUSH1 0x1 ADD SWAP1 JUMP JUMPDEST PUSH0 SWAP1 DUP2 MSTORE PUSH1 0x6 PUSH1 0x20 MSTORE PUSH1 0x40 SWAP1 KECCAK256 SLOAD PUSH1 0x1 PUSH1 0x1 PUSH1 0xA0 SHL SUB AND PUSH2 0x19C2 DUP2 ISZERO ISZERO PUSH2 0x1885 JUMP JUMPDEST SWAP1 JUMP JUMPDEST ISZERO PUSH2 0x19CC JUMPI JUMP JUMPDEST PUSH1 0x40 MLOAD PUSH3 0x461BCD PUSH1 0xE5 SHL DUP2 MSTORE PUSH1 0x20 PUSH1 0x4 DUP3 ADD MSTORE PUSH1 0xC PUSH1 0x24 DUP3 ADD MSTORE PUSH12 0x496E76616C69642074797065 PUSH1 0xA0 SHL PUSH1 0x44 DUP3 ADD MSTORE PUSH1 0x64 SWAP1 REVERT JUMPDEST SWAP2 SWAP1 DUP3 SUB SWAP2 DUP3 GT PUSH2 0x197E JUMPI JUMP JUMPDEST ISZERO PUSH2 0x1A14 JUMPI JUMP JUMPDEST PUSH1 0x40 MLOAD PUSH3 0x461BCD PUSH1 0xE5 SHL DUP2 MSTORE PUSH1 0x20 PUSH1 0x4 DUP3 ADD MSTORE PUSH1 0xC PUSH1 0x24 DUP3 ADD MSTORE PUSH12 0x5A65726F2061646472657373 PUSH1 0xA0 SHL PUSH1 0x44 DUP3 ADD MSTORE PUSH1 0x64 SWAP1 REVERT JUMPDEST PUSH0 DUP2 DUP2 MSTORE PUSH1 0x6 PUSH1 0x20 MSTORE PUSH1 0x40 SWAP1 KECCAK256 SLOAD PUSH2 0x1A6A SWAP1 PUSH1 0x1 PUSH1 0x1 PUSH1 0xA0 SHL SUB AND ISZERO ISZERO PUSH2 0x1885 JUMP JUMPDEST PUSH1 0x13 SLOAD PUSH2 0x1A76 DUP2 PUSH2 0x158C JUMP JUMPDEST PUSH2 0x1A8E JUMPI POP PUSH0 MSTORE PUSH1 0x12 PUSH1 0x20 MSTORE PUSH2 0x19C2 PUSH1 0x40 PUSH0 KECCAK256 PUSH2 0x15E5 JUMP JUMPDEST SWAP1 DUP1 PUSH0 MSTORE PUSH1 0xF PUSH1 0x20 MSTORE PUSH2 0x1AAD PUSH2 0x1AA7 PUSH1 0x40 PUSH0 KECCAK256 SLOAD PUSH2 0x1BEF JUMP JUMPDEST SWAP2 PUSH2 0x1BEF JUMP JUMPDEST SWAP1 PUSH1 0x40 MLOAD SWAP3 DUP4 SWAP2 PUSH0 SWAP2 PUSH2 0x1ABF DUP2 PUSH2 0x158C JUMP JUMPDEST SWAP1 PUSH1 0x1 DUP2 AND SWAP1 DUP2 ISZERO PUSH2 0x1B5E JUMPI POP PUSH1 0x1 EQ PUSH2 0x1B11 JUMPI JUMPDEST POP PUSH2 0x19C2 SWAP4 PUSH1 0x20 PUSH1 0x1 SWAP5 SWAP4 DUP4 DUP3 SWAP5 MLOAD SWAP3 DUP4 SWAP2 ADD DUP3 MCOPY ADD SWAP1 PUSH1 0x2F PUSH1 0xF8 SHL DUP3 MSTORE DUP1 MLOAD SWAP3 DUP4 SWAP2 ADD DUP6 DUP4 ADD MCOPY ADD PUSH0 DUP4 DUP3 ADD MSTORE SUB ADD PUSH1 0x1F NOT DUP2 ADD DUP4 MSTORE DUP3 PUSH2 0x15C4 JUMP JUMPDEST SWAP1 SWAP2 POP PUSH1 0x13 PUSH0 MSTORE PUSH0 MLOAD PUSH1 0x20 PUSH2 0x1CC4 PUSH0 CODECOPY PUSH0 MLOAD SWAP1 PUSH0 MSTORE PUSH0 SWAP1 JUMPDEST DUP3 DUP3 LT PUSH2 0x1B40 JUMPI POP POP DUP3 ADD PUSH1 0x20 ADD SWAP1 PUSH2 0x19C2 PUSH2 0x1AD4 JUMP JUMPDEST PUSH1 0x20 SWAP2 SWAP3 SWAP4 SWAP5 POP DUP1 PUSH1 0x1 SWAP2 SLOAD DUP4 DUP6 DUP11 ADD ADD MSTORE ADD SWAP2 ADD DUP6 SWAP4 SWAP3 SWAP2 PUSH2 0x1B29 JUMP JUMPDEST PUSH1 0xFF NOT AND PUSH1 0x20 DUP1 DUP8 ADD SWAP2 SWAP1 SWAP2 MSTORE DUP3 ISZERO ISZERO SWAP1 SWAP3 MUL DUP6 ADD SWAP1 SWAP2 ADD SWAP3 POP PUSH2 0x19C2 SWAP1 POP PUSH2 0x1AD4 JUMP JUMPDEST PUSH4 0x1E13380 TIMESTAMP DIV PUSH2 0x7B2 DUP2 ADD DUP1 SWAP2 GT PUSH2 0x197E JUMPI PUSH3 0x278D00 PUSH4 0x1E13380 TIMESTAMP MOD DIV PUSH1 0x1 DUP2 ADD DUP1 SWAP2 GT PUSH2 0x197E JUMPI PUSH1 0x64 DUP3 MUL SWAP2 DUP1 DUP4 DIV PUSH1 0x64 EQ SWAP1 ISZERO OR ISZERO PUSH2 0x197E JUMPI PUSH2 0x19C2 SWAP2 PUSH2 0x1971 JUMP JUMPDEST DUP1 ISZERO PUSH2 0x197E JUMPI PUSH0 NOT ADD SWAP1 JUMP JUMPDEST PUSH1 0x1 PUSH1 0x1 PUSH1 0x40 SHL SUB DUP2 GT PUSH2 0x4E8 JUMPI PUSH1 0x1F ADD PUSH1 0x1F NOT AND PUSH1 0x20 ADD SWAP1 JUMP JUMPDEST DUP1 ISZERO PUSH2 0x1CA3 JUMPI DUP1 DUP2 PUSH0 SWAP3 JUMPDEST PUSH2 0x1C8F JUMPI POP PUSH2 0x1C08 DUP3 PUSH2 0x1BD4 JUMP JUMPDEST SWAP2 PUSH2 0x1C16 PUSH1 0x40 MLOAD SWAP4 DUP5 PUSH2 0x15C4 JUMP JUMPDEST DUP1 DUP4 MSTORE DUP2 PUSH1 0x1F NOT PUSH2 0x1C26 DUP4 PUSH2 0x1BD4 JUMP JUMPDEST ADD CALLDATASIZE PUSH1 0x20 DUP7 ADD CALLDATACOPY JUMPDEST PUSH2 0x1C37 JUMPI POP POP SWAP1 JUMP JUMPDEST PUSH2 0x1C40 SWAP1 PUSH2 0x1BC8 JUMP JUMPDEST SWAP1 PUSH1 0xA DUP2 MOD PUSH1 0x30 ADD SWAP1 DUP2 PUSH1 0x30 GT PUSH2 0x197E JUMPI DUP4 MLOAD DUP4 LT ISZERO PUSH2 0x1C7B JUMPI PUSH1 0xA SWAP2 PUSH1 0xF8 SHL PUSH1 0x1 PUSH1 0x1 PUSH1 0xF8 SHL SUB NOT AND PUSH0 BYTE DUP5 DUP5 ADD PUSH1 0x20 ADD MSTORE8 DIV SWAP1 DUP2 PUSH2 0x1C2E JUMP JUMPDEST PUSH4 0x4E487B71 PUSH1 0xE0 SHL PUSH0 MSTORE PUSH1 0x32 PUSH1 0x4 MSTORE PUSH1 0x24 PUSH0 REVERT JUMPDEST SWAP2 PUSH2 0x1C9B PUSH1 0xA SWAP2 PUSH2 0x1992 JUMP JUMPDEST SWAP3 DIV DUP1 PUSH2 0x1BFA JUMP JUMPDEST POP PUSH1 0x40 MLOAD PUSH2 0x1CB2 PUSH1 0x40 DUP3 PUSH2 0x15C4 JUMP JUMPDEST PUSH1 0x1 DUP2 MSTORE PUSH1 0x3 PUSH1 0xFC SHL PUSH1 0x20 DUP3 ADD MSTORE SWAP1 JUMP INVALID PUSH7 0xDE8FFDA797E3DE SWAP13 SDIV 0xE8 0xFC JUMPI 0xB3 0xBF 0xE 0xC2 DUP11 SWAP4 0xD BLOCKHASH 0xB0 0xD2 DUP6 0xD9 EXTCODECOPY MOD POP SHR 0xF6 LOG0 SWAP1 LOG2 PUSH5 0x6970667358 0x22 SLT KECCAK256 0x4F 0xE8 DUP7 PUSH12 0x99AC00741C9F99B513B2EFF5 SWAP2 JUMPI SHL 0xD0 GASLIMIT NUMBER DUP11 0x1F 0xFC EXTCODESIZE 0xCB REVERT CALLDATALOAD SHR DUP10 0x4E PUSH5 0x736F6C6343 STOP ADDMOD SHL STOP CALLER "},"methodIdentifiers":{"achievementMintPrices(uint256)":"71f79dc5","achievementMonthlyLimits(uint256)":"5a98e566","achievementNames(uint256)":"6d8e89d0","approve(address,uint256)":"095ea7b3","balanceOf(address)":"70a08231","baseURI()":"6c0360eb","claimNFT(uint256,uint256,string,uint8,bytes32,bytes32)":"0cf524b9","claimRecord(bytes32)":"852424ae","getAchievementInfo(uint256)":"688d8903","getApproved(uint256)":"081812fc","getMonthlyRemaining(uint256)":"f91cc013","isApprovedForAll(address,address)":"e985e9c5","monthlyMinted(uint256,uint256)":"c2dce576","name()":"06fdde03","owner()":"8da5cb5b","ownerOf(uint256)":"6352211e","safeTransferFrom(address,address,uint256)":"42842e0e","setApprovalForAll(address,bool)":"a22cb465","setBaseURI(string)":"55f804b3","setSigner(address)":"6c19e783","setTokenCustomData(uint256,string,string)":"0bddfa9f","setTokenMetadata(uint256,string)":"510ef1de","signatureValidity()":"64e4b8c2","signer()":"238ac933","supportsInterface(bytes4)":"01ffc9a7","symbol()":"95d89b41","tokenAchievementType(uint256)":"4c349385","tokenDescriptions(uint256)":"9473ca82","tokenMetadata(uint256)":"6914db60","tokenNames(uint256)":"310495ab","tokenURI(uint256)":"c87b56dd","transferFrom(address,address,uint256)":"23b872dd","updateAchievement(uint256,string,uint256,uint256)":"9a88aaac","withdraw()":"3ccfd60b"}}}}}