{"contracts/0g/PokerHandINFT.sol":{"PokerHandINFT":{"abi":[{"inputs":[],"stateMutability":"nonpayable","type":"constructor"},{"anonymous":false,"inputs":[{"indexed":true,"internalType":"uint256","name":"tokenId","type":"uint256"},{"indexed":true,"internalType":"address","name":"agentAddress","type":"address"}],"name":"AgentBound","type":"event"},{"anonymous":false,"inputs":[{"indexed":true,"internalType":"uint256","name":"tokenId","type":"uint256"}],"name":"AgentUnbound","type":"event"},{"anonymous":false,"inputs":[{"indexed":true,"internalType":"address","name":"owner","type":"address"},{"indexed":true,"internalType":"address","name":"approved","type":"address"},{"indexed":true,"internalType":"uint256","name":"tokenId","type":"uint256"}],"name":"Approval","type":"event"},{"anonymous":false,"inputs":[{"indexed":true,"internalType":"address","name":"owner","type":"address"},{"indexed":true,"internalType":"address","name":"operator","type":"address"},{"indexed":false,"internalType":"bool","name":"approved","type":"bool"}],"name":"ApprovalForAll","type":"event"},{"anonymous":false,"inputs":[{"indexed":true,"internalType":"uint256","name":"originalTokenId","type":"uint256"},{"indexed":true,"internalType":"uint256","name":"newTokenId","type":"uint256"},{"indexed":true,"internalType":"address","name":"owner","type":"address"}],"name":"Cloned","type":"event"},{"anonymous":false,"inputs":[{"indexed":true,"internalType":"uint256","name":"tokenId","type":"uint256"},{"indexed":true,"internalType":"address","name":"from","type":"address"},{"indexed":true,"internalType":"address","name":"to","type":"address"}],"name":"EncryptedTransferEvent","type":"event"},{"anonymous":false,"inputs":[{"indexed":true,"internalType":"uint256","name":"tokenId","type":"uint256"},{"indexed":false,"internalType":"string","name":"handType","type":"string"},{"indexed":true,"internalType":"address","name":"to","type":"address"},{"indexed":false,"internalType":"string","name":"storageRootHash","type":"string"}],"name":"PokerHandMinted","type":"event"},{"anonymous":false,"inputs":[{"indexed":true,"internalType":"bytes32","name":"role","type":"bytes32"},{"indexed":true,"internalType":"bytes32","name":"previousAdminRole","type":"bytes32"},{"indexed":true,"internalType":"bytes32","name":"newAdminRole","type":"bytes32"}],"name":"RoleAdminChanged","type":"event"},{"anonymous":false,"inputs":[{"indexed":true,"internalType":"bytes32","name":"role","type":"bytes32"},{"indexed":true,"internalType":"address","name":"account","type":"address"},{"indexed":true,"internalType":"address","name":"sender","type":"address"}],"name":"RoleGranted","type":"event"},{"anonymous":false,"inputs":[{"indexed":true,"internalType":"bytes32","name":"role","type":"bytes32"},{"indexed":true,"internalType":"address","name":"account","type":"address"},{"indexed":true,"internalType":"address","name":"sender","type":"address"}],"name":"RoleRevoked","type":"event"},{"anonymous":false,"inputs":[{"indexed":true,"internalType":"address","name":"from","type":"address"},{"indexed":true,"internalType":"address","name":"to","type":"address"},{"indexed":true,"internalType":"uint256","name":"tokenId","type":"uint256"}],"name":"Transfer","type":"event"},{"inputs":[],"name":"DEFAULT_ADMIN_ROLE","outputs":[{"internalType":"bytes32","name":"","type":"bytes32"}],"stateMutability":"view","type":"function"},{"inputs":[],"name":"MINTER_ROLE","outputs":[{"internalType":"bytes32","name":"","type":"bytes32"}],"stateMutability":"view","type":"function"},{"inputs":[],"name":"TYPE_FLUSH","outputs":[{"internalType":"uint256","name":"","type":"uint256"}],"stateMutability":"view","type":"function"},{"inputs":[],"name":"TYPE_FOUR_OF_A_KIND","outputs":[{"internalType":"uint256","name":"","type":"uint256"}],"stateMutability":"view","type":"function"},{"inputs":[],"name":"TYPE_FULL_HOUSE","outputs":[{"internalType":"uint256","name":"","type":"uint256"}],"stateMutability":"view","type":"function"},{"inputs":[],"name":"TYPE_ROYAL_FLUSH","outputs":[{"internalType":"uint256","name":"","type":"uint256"}],"stateMutability":"view","type":"function"},{"inputs":[],"name":"TYPE_STRAIGHT","outputs":[{"internalType":"uint256","name":"","type":"uint256"}],"stateMutability":"view","type":"function"},{"inputs":[],"name":"TYPE_STRAIGHT_FLUSH","outputs":[{"internalType":"uint256","name":"","type":"uint256"}],"stateMutability":"view","type":"function"},{"inputs":[{"internalType":"address","name":"to","type":"address"},{"internalType":"uint256","name":"tokenId","type":"uint256"}],"name":"approve","outputs":[],"stateMutability":"nonpayable","type":"function"},{"inputs":[{"internalType":"address","name":"owner","type":"address"}],"name":"balanceOf","outputs":[{"internalType":"uint256","name":"","type":"uint256"}],"stateMutability":"view","type":"function"},{"inputs":[{"internalType":"address","name":"agent","type":"address"}],"name":"bindAgent","outputs":[],"stateMutability":"nonpayable","type":"function"},{"inputs":[{"internalType":"address","name":"newOwner","type":"address"}],"name":"clone","outputs":[{"internalType":"uint256","name":"","type":"uint256"}],"stateMutability":"nonpayable","type":"function"},{"inputs":[{"internalType":"address","name":"to","type":"address"},{"internalType":"bytes","name":"encryptedMetadata","type":"bytes"}],"name":"encryptedTransfer","outputs":[],"stateMutability":"nonpayable","type":"function"},{"inputs":[{"internalType":"uint256","name":"tokenId","type":"uint256"}],"name":"getApproved","outputs":[{"internalType":"address","name":"","type":"address"}],"stateMutability":"view","type":"function"},{"inputs":[{"internalType":"uint256","name":"typeId","type":"uint256"}],"name":"getCurrentMonthMintCount","outputs":[{"internalType":"uint256","name":"","type":"uint256"}],"stateMutability":"view","type":"function"},{"inputs":[{"internalType":"uint256","name":"tokenId","type":"uint256"}],"name":"getEncryptedMetadata","outputs":[{"internalType":"bytes","name":"","type":"bytes"}],"stateMutability":"view","type":"function"},{"inputs":[{"internalType":"uint256","name":"typeId","type":"uint256"}],"name":"getHandTypeInfo","outputs":[{"internalType":"string","name":"name","type":"string"},{"internalType":"uint8","name":"rarityLevel","type":"uint8"},{"internalType":"uint256","name":"monthlyLimit","type":"uint256"},{"internalType":"bool","name":"isClonable","type":"bool"}],"stateMutability":"view","type":"function"},{"inputs":[{"internalType":"uint256","name":"tokenId","type":"uint256"}],"name":"getPokerData","outputs":[{"internalType":"string","name":"handType","type":"string"},{"internalType":"string","name":"storageRootHash","type":"string"},{"internalType":"string","name":"metadataURI","type":"string"},{"internalType":"uint256","name":"timestamp","type":"uint256"},{"internalType":"address","name":"aiAgent","type":"address"},{"internalType":"bool","name":"isEncrypted","type":"bool"}],"stateMutability":"view","type":"function"},{"inputs":[{"internalType":"bytes32","name":"role","type":"bytes32"}],"name":"getRoleAdmin","outputs":[{"internalType":"bytes32","name":"","type":"bytes32"}],"stateMutability":"view","type":"function"},{"inputs":[{"internalType":"uint256","name":"tokenId","type":"uint256"}],"name":"getTokenCards","outputs":[{"internalType":"string[]","name":"","type":"string[]"}],"stateMutability":"view","type":"function"},{"inputs":[{"internalType":"bytes32","name":"role","type":"bytes32"},{"internalType":"address","name":"account","type":"address"}],"name":"grantRole","outputs":[],"stateMutability":"nonpayable","type":"function"},{"inputs":[{"internalType":"bytes32","name":"role","type":"bytes32"},{"internalType":"address","name":"account","type":"address"}],"name":"hasRole","outputs":[{"internalType":"bool","name":"","type":"bool"}],"stateMutability":"view","type":"function"},{"inputs":[{"internalType":"address","name":"owner","type":"address"},{"internalType":"address","name":"operator","type":"address"}],"name":"isApprovedForAll","outputs":[{"internalType":"bool","name":"","type":"bool"}],"stateMutability":"view","type":"function"},{"inputs":[{"internalType":"address","name":"to","type":"address"},{"internalType":"string","name":"handType","type":"string"},{"internalType":"string","name":"storageRootHash","type":"string"},{"internalType":"string","name":"metadataURI","type":"string"}],"name":"mint","outputs":[{"internalType":"uint256","name":"","type":"uint256"}],"stateMutability":"nonpayable","type":"function"},{"inputs":[{"internalType":"address","name":"to","type":"address"},{"internalType":"uint256","name":"typeId","type":"uint256"},{"internalType":"string[]","name":"cards","type":"string[]"},{"internalType":"string","name":"storageRootHash","type":"string"},{"internalType":"string","name":"metadataURI","type":"string"}],"name":"mintWithCards","outputs":[{"internalType":"uint256","name":"","type":"uint256"}],"stateMutability":"nonpayable","type":"function"},{"inputs":[{"internalType":"uint256","name":"","type":"uint256"},{"internalType":"uint256","name":"","type":"uint256"}],"name":"monthlyMintCount","outputs":[{"internalType":"uint256","name":"","type":"uint256"}],"stateMutability":"view","type":"function"},{"inputs":[],"name":"name","outputs":[{"internalType":"string","name":"","type":"string"}],"stateMutability":"view","type":"function"},{"inputs":[{"internalType":"uint256","name":"tokenId","type":"uint256"}],"name":"ownerOf","outputs":[{"internalType":"address","name":"","type":"address"}],"stateMutability":"view","type":"function"},{"inputs":[{"internalType":"bytes32","name":"role","type":"bytes32"},{"internalType":"address","name":"account","type":"address"}],"name":"renounceRole","outputs":[],"stateMutability":"nonpayable","type":"function"},{"inputs":[{"internalType":"bytes32","name":"role","type":"bytes32"},{"internalType":"address","name":"account","type":"address"}],"name":"revokeRole","outputs":[],"stateMutability":"nonpayable","type":"function"},{"inputs":[{"internalType":"address","name":"from","type":"address"},{"internalType":"address","name":"to","type":"address"},{"internalType":"uint256","name":"tokenId","type":"uint256"}],"name":"safeTransferFrom","outputs":[],"stateMutability":"nonpayable","type":"function"},{"inputs":[{"internalType":"address","name":"from","type":"address"},{"internalType":"address","name":"to","type":"address"},{"internalType":"uint256","name":"tokenId","type":"uint256"},{"internalType":"bytes","name":"data","type":"bytes"}],"name":"safeTransferFrom","outputs":[],"stateMutability":"nonpayable","type":"function"},{"inputs":[{"internalType":"address","name":"operator","type":"address"},{"internalType":"bool","name":"approved","type":"bool"}],"name":"setApprovalForAll","outputs":[],"stateMutability":"nonpayable","type":"function"},{"inputs":[{"internalType":"bytes4","name":"interfaceId","type":"bytes4"}],"name":"supportsInterface","outputs":[{"internalType":"bool","name":"","type":"bool"}],"stateMutability":"view","type":"function"},{"inputs":[],"name":"symbol","outputs":[{"internalType":"string","name":"","type":"string"}],"stateMutability":"view","type":"function"},{"inputs":[{"internalType":"uint256","name":"tokenId","type":"uint256"}],"name":"tokenURI","outputs":[{"internalType":"string","name":"","type":"string"}],"stateMutability":"view","type":"function"},{"inputs":[{"internalType":"address","name":"from","type":"address"},{"internalType":"address","name":"to","type":"address"},{"internalType":"uint256","name":"tokenId","type":"uint256"}],"name":"transferFrom","outputs":[],"stateMutability":"nonpayable","type":"function"},{"inputs":[],"name":"unbindAgent","outputs":[],"stateMutability":"nonpayable","type":"function"}],"evm":{"bytecode":{"linkReferences":{},"object":"608060405234610d36576100136040610d59565b60128152710c11c8141bdad95c8812185b99081253919560721b602082015261003c6040610d59565b60078152661823a837b5b2b960c91b602082015281516001600160401b0381116107b3575f54600181811c91168015610d2c575b602082101461079557601f8111610cca575b50602092601f8211600114610c6b57928192935f92610c60575b50508160011b915f199060031b1c1916175f555b80516001600160401b0381116107b357600154600181811c91168015610c56575b602082101461079557601f8111610bf3575b50602091601f8211600114610b93579181925f92610b88575b50508160011b915f199060031b1c1916176001555b6001600755335f9081525f51602061451b5f395f51905f52602052604090205460ff1615610b4b575b335f9081525f5160206144fb5f395f51905f52602052604090205460ff1615610aec575b610166610d3a565b6101706040610d59565b600b81526a0a4def2c2d8408cd8eae6d60ab1b6020820152815260208101905f825260408101600a815260608201925f84525f8052600c60205260405f20925180519060018060401b0382116107b3578454600181811c91168015610ae2575b602082101461079557601f8111610a9d575b50602090601f8311600114610a4b579180610245979492600396945f926106db575b50508160011b915f1990871b1c19161785555b60ff6001860191511660ff1982541617905551600284015551151591019060ff801983541691151516179055565b61024d610d3a565b6102576040610d59565b600e81526d0a6e8e4c2d2ced0e8408cd8eae6d60931b60208201528152602081019060018252604081016032815260608201926001845260015f52600c60205260405f20925180519060018060401b0382116107b3578454600181811c91168015610a41575b602082101461079557601f81116109fc575b50602090601f83116001146109aa579180610330979492600396945f926106db5750508160011b915f1990871b1c191617855560ff6001860191511660ff1982541617905551600284015551151591019060ff801983541691151516179055565b610338610d3a565b6103426040610d59565b600e81526d119bdd5c881bd988184812da5b9960921b602082015281526020810190600282526040810160c8815260608201926001845260025f52600c60205260405f20925180519060018060401b0382116107b3578454600181811c911680156109a0575b602082101461079557601f811161095b575b50602090601f831160011461090957918061041b979492600396945f926106db5750508160011b915f1990871b1c191617855560ff6001860191511660ff1982541617905551600284015551151591019060ff801983541691151516179055565b610423610d3a565b61042d6040610d59565b600a81526946756c6c20486f75736560b01b60208201528152602081019060038252604081016101f4815260608201926001845260035f52600c60205260405f20925180519060018060401b0382116107b3578454600181811c911680156108ff575b602082101461079557601f81116108ba575b50602090601f8311600114610868579180610503979492600396945f926106db5750508160011b915f1990871b1c191617855560ff6001860191511660ff1982541617905551600284015551151591019060ff801983541691151516179055565b61050b610d3a565b6105156040610d59565b600581526408cd8eae6d60db1b60208201528152602081019060038252604081016103e8815260608201926001845260045f52600c60205260405f20925180519060018060401b0382116107b3578454600181811c9116801561085e575b602082101461079557601f8111610819575b50602090601f83116001146107c75791806105e6979492600396945f926106db5750508160011b915f1990871b1c191617855560ff6001860191511660ff1982541617905551600284015551151591019060ff801983541691151516179055565b6105ee610d3a565b6105f86040610d59565b600881526714dd1c985a59da1d60c21b60208201528152602081019060038252604081016107d0815260608201926001845260055f52600c60205260405f20925180519060018060401b0382116107b3578454600181811c911680156107a9575b602082101461079557601f8111610750575b50602090601f83116001146106e65791806106cc979492600396945f926106db5750508160011b915f1990871b1c191617855560ff6001860191511660ff1982541617905551600284015551151591019060ff801983541691151516179055565b60405161375c9081610d7f8239f35b015190505f80610204565b90601f19831691865f52815f20925f5b8181106107385750926001928592600398966106cc9b989610610721575b505050811b018555610217565b01515f1983891b60f8161c191690555f8080610714565b929360206001819287860151815501950193016106f6565b855f5260205f20601f840160051c8101916020851061078b575b601f0160051c01905b818110610780575061066b565b5f8155600101610773565b909150819061076a565b634e487b7160e01b5f52602260045260245ffd5b90607f1690610659565b634e487b7160e01b5f52604160045260245ffd5b90601f19831691865f52815f20925f5b8181106108015750926001928592600398966105e69b98961061072157505050811b018555610217565b929360206001819287860151815501950193016107d7565b855f5260205f20601f840160051c81019160208510610854575b601f0160051c01905b8181106108495750610585565b5f815560010161083c565b9091508190610833565b90607f1690610573565b90601f19831691865f52815f20925f5b8181106108a25750926001928592600398966105039b98961061072157505050811b018555610217565b92936020600181928786015181550195019301610878565b855f5260205f20601f840160051c810191602085106108f5575b601f0160051c01905b8181106108ea57506104a2565b5f81556001016108dd565b90915081906108d4565b90607f1690610490565b90601f19831691865f52815f20925f5b81811061094357509260019285926003989661041b9b98961061072157505050811b018555610217565b92936020600181928786015181550195019301610919565b855f5260205f20601f840160051c81019160208510610996575b601f0160051c01905b81811061098b57506103ba565b5f815560010161097e565b9091508190610975565b90607f16906103a8565b90601f19831691865f52815f20925f5b8181106109e45750926001928592600398966103309b98961061072157505050811b018555610217565b929360206001819287860151815501950193016109ba565b855f5260205f20601f840160051c81019160208510610a37575b601f0160051c01905b818110610a2c57506102cf565b5f8155600101610a1f565b9091508190610a16565b90607f16906102bd565b90601f19831691865f52815f20925f5b818110610a855750926001928592600398966102459b98961061072157505050811b018555610217565b92936020600181928786015181550195019301610a5b565b855f5260205f20601f840160051c81019160208510610ad8575b601f0160051c01905b818110610acd57506101e2565b5f8155600101610ac0565b9091508190610ab7565b90607f16906101d0565b335f8181525f5160206144fb5f395f51905f5260205260408120805460ff1916600117905581907f9f2df0fed2c77648de5860a4cc508cd0818c85b8b8a1ab4ceeef8d981c8956a6905f5160206144db5f395f51905f529080a461015e565b335f8181525f51602061451b5f395f51905f5260205260408120805460ff1916600117905581905f5160206144db5f395f51905f528180a461013a565b015190505f806100fc565b601f1982169260015f52805f20915f5b858110610bdb57508360019510610bc3575b505050811b01600155610111565b01515f1960f88460031b161c191690555f8080610bb5565b91926020600181928685015181550194019201610ba3565b60015f527fb10e2d527612073b26eecdfd717e6a320cf44b4afac2b0732d9fcbe2b7fa0cf6601f830160051c81019160208410610c4c575b601f0160051c01905b818110610c4157506100e3565b5f8155600101610c34565b9091508190610c2b565b90607f16906100d1565b015190505f8061009c565b601f198216935f8052805f20915f5b868110610cb25750836001959610610c9a575b505050811b015f556100b0565b01515f1960f88460031b161c191690555f8080610c8d565b91926020600181928685015181550194019201610c7a565b5f80527f290decd9548b62a8d60345a988386fc84ba6bc95484008f6362f93160ef3e563601f830160051c81019160208410610d22575b601f0160051c01905b818110610d175750610082565b5f8155600101610d0a565b9091508190610d01565b90607f1690610070565b5f80fd5b60405190608082016001600160401b038111838210176107b357604052565b6040519190601f01601f191682016001600160401b038111838210176107b35760405256fe60c0806040526004361015610012575f80fd5b5f905f3560e01c9081630102ee33146127215750806301ffc9a71461269957806306fdde03146125f7578063081812fc146125d9578063095ea7b31461245357806312abc66f14612438578063203d35761461241d57806323b872dd146123f9578063248a9ca3146123ce5780632f2ff15d14612315578063330077a31461137657806336568abe146122835780633dd2e9a21461223357806342842e0e1461221c5780634a0706be14611afe5780636352211e14611ace57806367c56a0f14611a9357806370a0823114611a68578063779dbbde14611a4d578063786ec4b814611a325780638124b78e146114b757806391d148541461146e57806395d89b4114611390578063a217fddf14611376578063a22cb465146112a8578063a5ea1f21146111d5578063b88d4fde1461114e578063bc6e5c1514611118578063bf3e588514611054578063c42a9fb614610f71578063c87b56dd14610efb578063c881ea67146106ad578063d539139314610672578063d547741f1461062b578063dd9b2ae51461059d578063e985e9c514610545578063f834da0a146103d75763fcd48a24146101c0575f80fd5b346103d45760403660031901126103d4576101d961275e565b6024356001600160401b0381116103d2576101f89036906004016127c4565b9061020233612c2b565b1561039a576001600160a01b03831692831561036157610221336132c4565b92838652600b60205260408620906001600160401b03811161034d57908161025586949361024f845461287e565b84612a8b565b87601f82116001146102e3579080610286926102af978b926102d8575b50508160011b915f199060031b1c19161790565b90555b818652600860205260408620600501805460ff60a01b1916600160a01b17905533612a13565b33907f5d4081c14ee1721e51dde8b5e46ce9667329da7b356f8c2070a700d7888b3c758480a480f35b013590505f80610272565b828952602089209590601f1983168a5b8181106103325750916102af9791846001959410610319575b505050811b019055610289565b01355f19600384901b60f8161c191690555f808061030c565b828401358955600190980197899750602092830192016102f3565b634e487b7160e01b87526041600452602487fd5b60405162461bcd60e51b8152602060048201526011602482015270125b9d985b1a59081c9958da5c1a595b9d607a1b6044820152606490fd5b60405162461bcd60e51b815260206004820152601060248201526f2737ba103a37b5b2b7103437b63232b960811b6044820152606490fd5b825b80fd5b50346103d45760203660031901126103d4576004355f818152600260205260409020546001600160a01b03161561050957816040916104d9935260086020522060405190610424826127f1565b60405161043c8161043581856128b6565b038261280c565b825261044a60018201612ca0565b60208301526040519161046b8361046481600286016128b6565b038461280c565b604081019283526040516104868161043581600387016128b6565b8060608301526104f560056004850154948560808601520154916104e760ff60018060a01b038516948560a088015260a01c161515948560c082015251965160405198899860c08a5260c08a019061273a565b9088820360208a015261273a565b90868203604088015261273a565b926060850152608084015260a08301520390f35b60405162461bcd60e51b8152602060048201526014602482015273151bdad95b88191bd95cc81b9bdd08195e1a5cdd60621b6044820152606490fd5b50346103d45760403660031901126103d457604061056161275e565b9161056a612774565b9260018060a01b031681526005602052209060018060a01b03165f52602052602060ff60405f2054166040519015158152f35b50346103d45760203660031901126103d4576004358152600d6020526105c560408220612ca0565b906040519182916020830160208452825180915260408401602060408360051b870101940192905b8282106105fc57505050500390f35b9193600191939550602061061b8192603f198a8203018652885161273a565b96019201920185949391926105ed565b50346103d45760403660031901126103d45761066f60043561064b612774565b9061066a610665825f526006602052600160405f20015490565b613049565b61308d565b80f35b50346103d457806003193601126103d45760206040517f9f2df0fed2c77648de5860a4cc508cd0818c85b8b8a1ab4ceeef8d981c8956a68152f35b50346103d45760a03660031901126103d4576106c761275e565b906001600160401b03604435116103d4573660236044350112156103d4576001600160401b0360443560040135116103d45760246044356004013560051b604435010191368311610ef7576064356001600160401b0381116103d2576107319036906004016127c4565b6084929192356001600160401b038111610ef3576107539036906004016127c4565b61075e959195612f3c565b600560243511610ebc57600260443560040135101580610eab575b15610e71576107b9966007549661078f88612a3c565b60075561079c88876131b0565b6024358452600c6020526107c0604085206040519a8b80926128b6565b038a61280c565b604051906107cd826127f1565b8982526107df60443560040135612a5e565b926107ed604051948561280c565b6044356004810135855260240190602085015b818310610e2b5750505061082f906020830193845261082036888b612848565b94604084019586523691612848565b60608201908152608082019042825260a083019486865260c08401948786528b885260086020526040882094518051906001600160401b038211610e17576108818261087b895461287e565b89612a8b565b602090601f8311600114610db5576108af92918b9183610bcb5750508160011b915f199060031b1c19161790565b85555b6001850190519060208251926108c88484612ace565b019089526020892089915b838310610ccc57505050506002840190518051906001600160401b038211610cb85761090982610903855461287e565b85612a8b565b602090601f8311600114610c565761093792918a9183610bcb5750508160011b915f199060031b1c19161790565b90555b51805160038401916001600160401b038211610c425761095e82610903855461287e565b602090601f8311600114610bd65782600595936109d59998979593610997938c92610bcb5750508160011b915f199060031b1c19161790565b90555b51600482015592519201805491516001600160a81b03199092166001600160a01b03939093169290921790151560a01b60ff60a01b16179055565b848152600d602052604081206109f16044356004013582612ace565b81526020812060443536819003604219019083906024015b604435600401358210610abc5760208989817fc75293173a228519bdd31083bd413729a88aa2c3b992c7400c771f84036ec424610a998f610ab18e8e60408f85518c870120815260098c52610a6089838320612b5f565b610a68613164565b8152600a8c5281812060243582528c5220610a838154612a3c565b905560405194859460408652604086019061273a565b8481038b8601526001600160a01b0390921697612b9a565b0390a3604051908152f35b803583811215610bc757604435016024810135906001600160401b038211610bc3578136036044820113610bc357610afe82610af8885461287e565b88612a8b565b8690601f8311600114610b525792610b33836001959460209487968c92610b425750508160011b915f199060031b1c19161790565b87555b01940191019092610a09565b0185016024013590505f80610272565b8688526020882091601f198416895b818110610ba85750936020936001969387969383889510610b8a575b505050811b018755610b36565b018501602401355f19600384901b60f8161c191690555f8080610b7d565b60448484010135855560019094019360209283019201610b61565b8680fd5b8580fd5b015190505f80610272565b8389528189209190601f1984168a5b818110610c2a5750926001928592600598966109d59c9b9a989610610c12575b505050811b01905561099a565b01515f1960f88460031b161c191690555f8080610c05565b92936020600181928786015181550195019301610be5565b634e487b7160e01b88526041600452602488fd5b838a52818a209190601f1984168b5b818110610ca05750908460019594939210610c88575b505050811b01905561093a565b01515f1960f88460031b161c191690555f8080610c7b565b92936020600181928786015181550195019301610c65565b634e487b7160e01b89526041600452602489fd5b80518051906001600160401b038211610da157610cf382610ced865461287e565b86612a8b565b6020908d601f8411600114610d39578360019592946020948796610d2a9492610bcb5750508160011b915f199060031b1c19161790565b85555b019201920191906108d3565b9190601f198416868452828420935b818110610d895750936020936001969387969383889510610d71575b505050811b018555610d2d565b01515f1960f88460031b161c191690555f8080610d64565b92936020600181928786015181550195019301610d48565b634e487b7160e01b8d52604160045260248dfd5b878b52818b209190601f1984168c5b818110610dff5750908460019594939210610de7575b505050811b0185556108b2565b01515f1960f88460031b161c191690555f8080610dda565b92936020600181928786015181550195019301610dc4565b634e487b7160e01b8a52604160045260248afd5b82356001600160401b038111610e6d576044350136604382011215610e6d57602091610e6283923690604460248201359101612848565b815201920191610800565b8880fd5b60405162461bcd60e51b8152602060048201526012602482015271125b9d985b1a590818d85c990818dbdd5b9d60721b6044820152606490fd5b506007604435600401351115610779565b60405162461bcd60e51b815260206004820152600f60248201526e125b9d985b1a59081d1e5c19481251608a1b6044820152606490fd5b8480fd5b5080fd5b34610f6d576020366003190112610f6d576004355f90815260026020526040902054610f31906001600160a01b03161515612bba565b5f604051610f4060208261280c565b52610f69604051610f5260208261280c565b5f815260405191829160208352602083019061273a565b0390f35b5f80fd5b34610f6d576020366003190112610f6d576001600160a01b03610f9261275e565b16801561101757610fac610fa533612c2b565b1515612cfd565b610fb5336132c4565b610fd1336001600160a01b03610fca84612c06565b16146129d5565b5f81815260086020526040812060050180546001600160a01b031916841790557f1cfbc005935637e3f8ed3af97b1a87af94cf9a9f0c163e570e5ed7bd3446903a9080a3005b60405162461bcd60e51b8152602060048201526015602482015274496e76616c6964206167656e74206164647265737360581b6044820152606490fd5b34610f6d576020366003190112610f6d576004355f52600c60205260405f206040519060808201918083106001600160401b03841117611104576110f0926040526060604051926110b0846110a981846128b6565b038561280c565b83835260ff6001820154169283602082015260ff60036002840154938460408501520154161515928391015260405194859460808652608086019061273a565b926020850152604084015260608301520390f35b634e487b7160e01b5f52604160045260245ffd5b34610f6d576040366003190112610f6d576004355f52600a60205260405f206024355f52602052602060405f2054604051908152f35b34610f6d576080366003190112610f6d5761116761275e565b61116f612774565b90606435906044356001600160401b038311610f6d5736602384011215610f6d576111d3936111ab6111ce943690602481600401359101612848565b926111be6111b98433612d49565b612973565b6111c9838383612e18565b6134e9565b6133b2565b005b34610f6d575f366003190112610f6d576111f1610fa533612c2b565b6111fa336132c4565b61120f336001600160a01b03610fca84612c06565b5f818152600860205260409020600501546001600160a01b031615611272575f81815260086020526040812060050180546001600160a01b03191690557fd3ffff4beb5d819451adb4e8e366d2c3e6699c02a7849ed0ce73a893a27732669080a2005b60405162461bcd60e51b815260206004820152600e60248201526d139bc81859d95b9d08189bdd5b9960921b6044820152606490fd5b34610f6d576040366003190112610f6d576112c161275e565b60243590811515809203610f6d576001600160a01b03169033821461133157335f52600560205260405f20825f5260205260405f2060ff1981541660ff83161790556040519081527f17307eab39ab6107e8899845ad3d59bd9653f200f220920489ca2b5937696c3160203392a3005b60405162461bcd60e51b815260206004820152601960248201527f4552433732313a20617070726f766520746f2063616c6c6572000000000000006044820152606490fd5b34610f6d575f366003190112610f6d5760206040515f8152f35b34610f6d575f366003190112610f6d576040515f6001546113b08161287e565b808452906001811690811561144a57506001146113ec575b610f69836113d88185038261280c565b60405191829160208352602083019061273a565b60015f9081527fb10e2d527612073b26eecdfd717e6a320cf44b4afac2b0732d9fcbe2b7fa0cf6939250905b808210611430575090915081016020016113d86113c8565b919260018160209254838588010152019101909291611418565b60ff191660208086019190915291151560051b840190910191506113d890506113c8565b34610f6d576040366003190112610f6d57611487612774565b6004355f52600660205260405f209060018060a01b03165f52602052602060ff60405f2054166040519015158152f35b34610f6d576020366003190112610f6d576114d061275e565b6001600160a01b0381169081156119fd576114ea336132c4565b90815f52600860205260405f2092604051611504816127f1565b6040516115158161043581896128b6565b815261152360018601612ca0565b946020820195865260405161153f8161043581600286016128b6565b6040830190815260ff6005604051936115668561155f81600385016128b6565b038661280c565b6060860194855260048101546080870152015460018060a01b03811660a086015260a01c16151560c084015261159c835161310e565b5f52600c60205260ff600360405f20015416156119b8576115cc60075480966115c482612a3c565b6007556131b0565b825196519051915196604051906115e2826127f1565b81526020810191825260408101928352606081019788526080810142815260a08201935f855260c08301935f8552885f52600860205260405f2093518051906001600160401b0382116111045761163d82610af8885461287e565b602090601f83116001146119555761166b92915f918361194a5750508160011b915f199060031b1c19161790565b84555b60018401905160208151916116838385612ace565b01915f5260205f20915f905b82821061187b57505050506002830190518051906001600160401b038211611104576116bf82610903855461287e565b602090601f8311600114611818576116ed92915f918361180d5750508160011b915f199060031b1c19161790565b90555b6003820198519889516001600160401b0381116111045760209a61171882610903855461287e565b8b90601f83116001146117a25782600595936117509998979593610997935f926117975750508160011b915f199060031b1c19161790565b518481519101205f526009845261176a8260405f20612b5f565b81604051937fae70533df440a7b44061c964ced6d9b99b31ab42e146ac886f34502284cd79fd5f80a48152f35b015190508f80610272565b90601f19831691845f52815f20925f5b8181106117f65750926001928592600598966117509c9b9a9896106117de57505050811b01905561099a565b01515f1960f88460031b161c191690558e8080610c05565b92938f6001819287860151815501950193016117b2565b015190508d80610272565b90601f19831691845f52815f20925f5b818110611863575090846001959493921061184b575b505050811b0190556116f0565b01515f1960f88460031b161c191690558c808061183e565b92936020600181928786015181550195019301611828565b80518051906001600160401b0382116111045761189c82610af8885461287e565b602090601f83116001146118e157926118d2836001959460209487965f92610bcb5750508160011b915f199060031b1c19161790565b87555b0194019101909261168f565b90601f19831691875f52815f20925f5b818110611932575093602093600196938796938388951061191a575b505050811b0187556118d5565b01515f1960f88460031b161c191690555f808061190d565b929360206001819287860151815501950193016118f1565b015190508e80610272565b90601f19831691875f52815f20925f5b8181106119a05750908460019594939210611988575b505050811b01845561166e565b01515f1960f88460031b161c191690558d808061197b565b92936020600181928786015181550195019301611965565b60405162461bcd60e51b815260206004820152601a60248201527f5468697320747970652063616e6e6f7420626520636c6f6e65640000000000006044820152606490fd5b60405162461bcd60e51b815260206004820152600d60248201526c24b73b30b634b21037bbb732b960991b6044820152606490fd5b34610f6d575f366003190112610f6d57602060405160048152f35b34610f6d575f366003190112610f6d57602060405160018152f35b34610f6d576020366003190112610f6d576020611a8b611a8661275e565b612c2b565b604051908152f35b34610f6d576020366003190112610f6d57611aac613164565b5f52600a60205260405f206004355f52602052602060405f2054604051908152f35b34610f6d576020366003190112610f6d576020611aec600435612c06565b6040516001600160a01b039091168152f35b34610f6d576080366003190112610f6d57611b1761275e565b6024356001600160401b038111610f6d57611b369036906004016127c4565b91906044356001600160401b038111610f6d57611b579036906004016127c4565b9390926064356001600160401b038111610f6d57611b799036906004016127c4565b90611b82612f3c565b6001600160a01b038316156121d757831561219e57611baa611ba5368688612848565b61310e565b5f19811461216557611bba613164565b805f52600a60205260405f20825f5260205260405f20611bda8154612a3c565b90555f52600a60205260405f20815f5260205260405f2054905f52600c602052600260405f2001541061210f57600754608052611c18608051612a3c565b600755611c27608051846131b0565b602060a081905260405191611c7c91611c40908461280c565b5f835260405193611c50856127f1565b611c5b36888a612848565b855260a0518501938452611c70368b8b612848565b60408601523691612848565b60608301524260808301525f60a08301525f60c08301526080515f52600860a0515260405f209082518051906001600160401b03821161110457611cc482610ced865461287e565b60a05190601f83116001146120a957611cf392915f9183611f645750508160011b915f199060031b1c19161790565b82555b5180516001830191611d088284612ace565b60a0515f9384528084209391015b828210611fd557505050506002810160408301518051906001600160401b03821161110457611d4982610903855461287e565b60a05190601f8311600114611f6f57611d7892915f9183611f645750508160011b915f199060031b1c19161790565b90555b60608201518051906001600160401b03821161110457611dab82611da2600386015461287e565b60038601612a8b565b60a05190601f8311600114611ec65760057fc75293173a228519bdd31083bd413729a88aa2c3b992c7400c771f84036ec42498979694611e0b85611e5896611eb5999660c0965f926117975750508160011b915f199060031b1c19161790565b60038201555b6080840151600482015560a08085015192909101805493909401516001600160a81b03199093166001600160a01b039290921691909117911515901b60ff60a01b16179055565b611e63368486612848565b80519060a05101205f52600960a05152611e8260805160405f20612b5f565b611e99604051948594604086526040860191612b9a565b9083820360a05185015260018060a01b03169660805196612b9a565b0390a3604051608051815260a05190f35b90600384015f5260a0515f20915f5b601f1985168110611f4b57507fc75293173a228519bdd31083bd413729a88aa2c3b992c7400c771f84036ec42498979694600185611eb5989560c095600595611e5899601f19811610611f33575b505050811b016003820155611e11565b01515f1960f88460031b161c191690558e8080611f23565b81830151845560a0516001909401939283019201611ed5565b015190508b80610272565b90601f19831691845f5260a0515f20925f5b818110611fbc5750908460019594939210611fa4575b505050811b019055611d7b565b01515f1960f88460031b161c191690558a8080611f97565b82840151855560a0516001909501949384019301611f81565b80518051906001600160401b03821161110457611ff682610af8885461287e565b60a05190601f831160011461203d57826001949293859461202b935f92610bcb5750508160011b915f199060031b1c19161790565b86555b60a05101940191019092611d16565b90865f5260a0515f20915f5b601f198516811061209057509260019492859492859383601f19811610612078575b505050811b01865561202e565b01515f1960f88460031b161c191690558f808061206b565b81830151845560a0516001909401939283019201612049565b90601f19831691855f5260a0515f20925f5b8181106120f657509084600195949392106120de575b505050811b018255611cf6565b01515f1960f88460031b161c191690558a80806120d1565b82840151855560a05160019095019493840193016120bb565b60405162461bcd60e51b815260206004820152602860248201527f4d6f6e74686c79206c696d6974207265616368656420666f7220746869732068604482015267616e64207479706560c01b6064820152608490fd5b60405162461bcd60e51b8152602060048201526011602482015270556e6b6e6f776e2068616e64207479706560781b6044820152606490fd5b60405162461bcd60e51b8152602060048201526011602482015270496e76616c69642068616e64207479706560781b6044820152606490fd5b60405162461bcd60e51b815260206004820152601b60248201527f43616e6e6f74206d696e7420746f207a65726f206164647265737300000000006044820152606490fd5b34610f6d576111d361222d3661278a565b91612a13565b34610f6d576020366003190112610f6d5760043561226361225382612c06565b6001600160a01b031633146129d5565b5f52600b602052610f696104356113d860405f20604051928380926128b6565b34610f6d576040366003190112610f6d5761229c612774565b336001600160a01b038216036122b8576111d39060043561308d565b60405162461bcd60e51b815260206004820152602f60248201527f416363657373436f6e74726f6c3a2063616e206f6e6c792072656e6f756e636560448201526e103937b632b9903337b91039b2b63360891b6064820152608490fd5b34610f6d576040366003190112610f6d57600435612331612774565b9061234b610665825f526006602052600160405f20015490565b805f52600660205260405f2060018060a01b0383165f5260205260ff60405f2054161561237457005b5f8181526006602090815260408083206001600160a01b0395909516808452949091528120805460ff19166001179055339291907f2f8788117e7eff1d82e926ec794901d17c78024a50270940304540a733656f0d9080a4005b34610f6d576020366003190112610f6d576020611a8b6004355f526006602052600160405f20015490565b34610f6d576111d361240a3661278a565b916124186111b98433612d49565b612e18565b34610f6d575f366003190112610f6d57602060405160058152f35b34610f6d575f366003190112610f6d57602060405160028152f35b34610f6d576040366003190112610f6d5761246c61275e565b602435906001600160a01b0361248183612c06565b6001600160a01b03909216911681811461258a57803314908115612566575b50156124fb575f82815260046020526040902080546001600160a01b031916821790556001600160a01b036124d483612c06565b167f8c5be1e5ebec7d5bd14f71427d1e84f3dd0314c0f7b2291e5b200ac8c7c3b9255f80a4005b60405162461bcd60e51b815260206004820152603d60248201527f4552433732313a20617070726f76652063616c6c6572206973206e6f7420746f60448201527f6b656e206f776e6572206f7220617070726f76656420666f7220616c6c0000006064820152608490fd5b5f90815260056020908152604080832033845290915290205460ff169050836124a0565b60405162461bcd60e51b815260206004820152602160248201527f4552433732313a20617070726f76616c20746f2063757272656e74206f776e656044820152603960f91b6064820152608490fd5b34610f6d576020366003190112610f6d576020611aec600435612937565b34610f6d575f366003190112610f6d576040515f5f546126168161287e565b808452906001811690811561144a575060011461263d57610f69836113d88185038261280c565b5f8080527f290decd9548b62a8d60345a988386fc84ba6bc95484008f6362f93160ef3e563939250905b80821061267f575090915081016020016113d86113c8565b919260018160209254838588010152019101909291612667565b34610f6d576020366003190112610f6d5760043563ffffffff60e01b8116809103610f6d57602090637965db0b60e01b81149081156126de575b506040519015158152f35b6380ac58cd60e01b811491508115612710575b81156126ff575b50826126d3565b6301ffc9a760e01b149050826126f8565b635b5e139f60e01b811491506126f1565b34610f6d575f366003190112610f6d5780600360209252f35b805180835260209291819084018484015e5f828201840152601f01601f1916010190565b600435906001600160a01b0382168203610f6d57565b602435906001600160a01b0382168203610f6d57565b6060906003190112610f6d576004356001600160a01b0381168103610f6d57906024356001600160a01b0381168103610f6d579060443590565b9181601f84011215610f6d578235916001600160401b038311610f6d5760208381860195010111610f6d57565b60e081019081106001600160401b0382111761110457604052565b90601f801991011681019081106001600160401b0382111761110457604052565b6001600160401b03811161110457601f01601f191660200190565b9291926128548261282d565b91612862604051938461280c565b829481845281830111610f6d578281602093845f960137010152565b90600182811c921680156128ac575b602083101461289857565b634e487b7160e01b5f52602260045260245ffd5b91607f169161288d565b5f92918154916128c58361287e565b808352926001811690811561291a57506001146128e157505050565b5f9081526020812093945091925b838310612900575060209250010190565b6001816020929493945483858701015201910191906128ef565b915050602093945060ff929192191683830152151560051b010190565b5f81815260026020526040902054612959906001600160a01b03161515612bba565b5f908152600460205260409020546001600160a01b031690565b1561297a57565b60405162461bcd60e51b815260206004820152602d60248201527f4552433732313a2063616c6c6572206973206e6f7420746f6b656e206f776e6560448201526c1c881bdc88185c1c1c9bdd9959609a1b6064820152608490fd5b156129dc57565b60405162461bcd60e51b815260206004820152600f60248201526e2737ba103a37b5b2b71037bbb732b960891b6044820152606490fd5b612a3a926111ce9260405192612a2a60208561280c565b5f84526111be6111b98433612d49565b565b5f198114612a4a5760010190565b634e487b7160e01b5f52601160045260245ffd5b6001600160401b0381116111045760051b60200190565b818110612a80575050565b5f8155600101612a75565b9190601f8111612a9a57505050565b612a3a925f5260205f20906020601f840160051c83019310612ac4575b601f0160051c0190612a75565b9091508190612ab7565b90600160401b811161110457815491818155828210612aec57505050565b5f5260205f2091820191015b818110612b03575050565b80612b106001925461287e565b80612b1d575b5001612af8565b601f81118314612b3257505f81555b5f612b16565b612b4e90825f5283601f60205f20920160051c82019101612a75565b805f525f6020812081835555612b2c565b805490600160401b8210156111045760018201808255821015612b86575f5260205f200155565b634e487b7160e01b5f52603260045260245ffd5b908060209392818452848401375f828201840152601f01601f1916010190565b15612bc157565b60405162461bcd60e51b815260206004820152601860248201527f4552433732313a20696e76616c696420746f6b656e20494400000000000000006044820152606490fd5b5f908152600260205260409020546001600160a01b0316612c28811515612bba565b90565b6001600160a01b03168015612c49575f52600360205260405f205490565b60405162461bcd60e51b815260206004820152602960248201527f4552433732313a2061646472657373207a65726f206973206e6f7420612076616044820152683634b21037bbb732b960b91b6064820152608490fd5b908154612cac81612a5e565b92612cba604051948561280c565b81845260208401905f5260205f205f915b838310612cd85750505050565b600160208192604051612cef8161043581896128b6565b815201920192019190612ccb565b15612d0457565b60405162461bcd60e51b815260206004820152601760248201527f43616c6c6572206d757374206f776e206120746f6b656e0000000000000000006044820152606490fd5b906001600160a01b03612d5b82612c06565b6001600160a01b0390931692168281149291908315612d9b575b508215612d8157505090565b9091506001600160a01b0390612d9690612937565b161490565b9092505f52600560205260405f20815f5260205260ff60405f205416915f612d75565b15612dc557565b60405162461bcd60e51b815260206004820152602560248201527f4552433732313a207472616e736665722066726f6d20696e636f72726563742060448201526437bbb732b960d91b6064820152608490fd5b90612e39612e2584612c06565b6001600160a01b0393841693168314612dbe565b6001600160a01b0316908115612eeb57612e65816001600160a01b03612e5e86612c06565b1614612dbe565b825f52600460205260405f206001600160601b0360a01b8154169055805f52600360205260405f205f198154019055815f52600360205260405f2060018154019055825f52600260205260405f20826001600160601b0360a01b8254161790557fddf252ad1be2c89b69c2b068fc378daa952ba7f163c4a11628f55a4df523b3ef5f80a4565b60405162461bcd60e51b8152602060048201526024808201527f4552433732313a207472616e7366657220746f20746865207a65726f206164646044820152637265737360e01b6064820152608490fd5b335f9081527f3195c024b2ddd6d9b8f6c836aa52f67fe69376c8903d009b80229b3ce4425f51602052604090205460ff1615612f7457565b61304560206130256011612f8733613552565b603784612fb37f9f2df0fed2c77648de5860a4cc508cd0818c85b8b8a1ab4ceeef8d981c8956a6613638565b6040519687947f416363657373436f6e74726f6c3a206163636f756e7420000000000000000000828701528051918291018587015e8401907001034b99036b4b9b9b4b733903937b6329607d1b84830152805192839101604883015e01015f838201520301601f19810183528261280c565b60405162461bcd60e51b815260206004820152918291602483019061273a565b0390fd5b5f81815260066020908152604080832033845290915290205460ff161561306d5750565b6020613025601161304593603784612fb361308733613552565b93613638565b805f52600660205260405f2060018060a01b0383165f5260205260ff60405f2054166130b7575050565b5f8181526006602090815260408083206001600160a01b0395909516808452949091528120805460ff19169055339291907ff6391f5c32d9c69d2a47ea670b442974b53935d1edc7fd64eb21e047a839171b9080a4565b5f5b60058111156131205750505f1990565b805f52600c60205261043561313e60405f20604051928380926128b6565b60208151910120825160208401201461315f5761315a90612a3c565b613110565b905090565b6301e1338042046107b28101809111612a4a576203f4806301e13380420604600181018111612a4a57606482029180830460641490151715612a4a57600190820101809111612a4a5790565b604051919060206131c1818561280c565b5f84526001600160a01b03821690811561328157918380926002612a3a97956132096132036111ce995f52600260205260018060a01b0360405f205416151590565b156136da565b5f8481526002602052604090205461322b906001600160a01b03161515613203565b825f526003815260405f2060018154019055835f525260405f20816001600160601b0360a01b8254161790555f7fddf252ad1be2c89b69c2b068fc378daa952ba7f163c4a11628f55a4df523b3ef8180a46133d2565b6064906040519062461bcd60e51b825280600483015260248201527f4552433732313a206d696e7420746f20746865207a65726f20616464726573736044820152fd5b5f91600191600754925b83811061331a5760405162461bcd60e51b815260206004820152601860248201527f546f6b656e206e6f7420666f756e6420617420696e64657800000000000000006044820152606490fd5b61332381612c06565b6001600160a01b0383811691161461333e575b6001016132ce565b93801561335857613350600191612a3c565b949050613336565b5090915050565b60809060208152603260208201527f4552433732313a207472616e7366657220746f206e6f6e20455243373231526560408201527131b2b4bb32b91034b6b83632b6b2b73a32b960711b60608201520190565b156133b957565b60405162461bcd60e51b8152806130456004820161335f565b91823b156134e157613417926020925f604051809681958294630a85bd0160e11b8452336004850152846024850152604484015260806064840152608483019061273a565b03926001600160a01b03165af15f918161349c575b50613486573d1561347f573d6134418161282d565b9061344f604051928361280c565b81523d5f602083013e5b8051908161347a5760405162461bcd60e51b8152806130456004820161335f565b602001fd5b6060613459565b6001600160e01b031916630a85bd0160e11b1490565b9091506020813d6020116134d9575b816134b86020938361280c565b81010312610f6d57516001600160e01b031981168103610f6d57905f61342c565b3d91506134ab565b505050600190565b919290803b1561353857613417935f60209460405196879586948593630a85bd0160e11b855233600486015260018060a01b03166024850152604484015260806064840152608483019061273a565b50505050600190565b908151811015612b86570160200190565b61355c602a61282d565b9061356a604051928361280c565b602a8252613578602a61282d565b6020830190601f1901368237825115612b865760309053815160011015612b86576078602183015360295b600181116135f757506135b35790565b606460405162461bcd60e51b815260206004820152602060248201527f537472696e67733a20686578206c656e67746820696e73756666696369656e746044820152fd5b90600f81166010811015612b86576f181899199a1a9b1b9c1cb0b131b232b360811b901a6136258385613541565b5360041c908015612a4a575f19016135a3565b613642604261282d565b90613650604051928361280c565b6042825261365e604261282d565b6020830190601f1901368237825115612b865760309053815160011015612b86576078602183015360415b6001811161369957506135b35790565b90600f81166010811015612b86576f181899199a1a9b1b9c1cb0b131b232b360811b901a6136c78385613541565b5360041c908015612a4a575f1901613689565b156136e157565b60405162461bcd60e51b815260206004820152601c60248201527f4552433732313a20746f6b656e20616c7265616479206d696e746564000000006044820152606490fdfea2646970667358221220b7b669c832ee939533bab63e1112dde91c470d0abb6d84a3f1c90f2d59f7efc764736f6c634300081b00332f8788117e7eff1d82e926ec794901d17c78024a50270940304540a733656f0d3195c024b2ddd6d9b8f6c836aa52f67fe69376c8903d009b80229b3ce4425f5154cdd369e4e8a8515e52ca72ec816c2101831ad1f18bf44102ed171459c9b4f8","opcodes":"PUSH1 0x80 PUSH1 0x40 MSTORE CALLVALUE PUSH2 0xD36 JUMPI PUSH2 0x13 PUSH1 0x40 PUSH2 0xD59 JUMP JUMPDEST PUSH1 0x12 DUP2 MSTORE PUSH18 0xC11C8141BDAD95C8812185B990812539195 PUSH1 0x72 SHL PUSH1 0x20 DUP3 ADD MSTORE PUSH2 0x3C PUSH1 0x40 PUSH2 0xD59 JUMP JUMPDEST PUSH1 0x7 DUP2 MSTORE PUSH7 0x1823A837B5B2B9 PUSH1 0xC9 SHL PUSH1 0x20 DUP3 ADD MSTORE DUP2 MLOAD PUSH1 0x1 PUSH1 0x1 PUSH1 0x40 SHL SUB DUP2 GT PUSH2 0x7B3 JUMPI PUSH0 SLOAD PUSH1 0x1 DUP2 DUP2 SHR SWAP2 AND DUP1 ISZERO PUSH2 0xD2C JUMPI JUMPDEST PUSH1 0x20 DUP3 LT EQ PUSH2 0x795 JUMPI PUSH1 0x1F DUP2 GT PUSH2 0xCCA JUMPI JUMPDEST POP PUSH1 0x20 SWAP3 PUSH1 0x1F DUP3 GT PUSH1 0x1 EQ PUSH2 0xC6B JUMPI SWAP3 DUP2 SWAP3 SWAP4 PUSH0 SWAP3 PUSH2 0xC60 JUMPI JUMPDEST POP POP DUP2 PUSH1 0x1 SHL SWAP2 PUSH0 NOT SWAP1 PUSH1 0x3 SHL SHR NOT AND OR PUSH0 SSTORE JUMPDEST DUP1 MLOAD PUSH1 0x1 PUSH1 0x1 PUSH1 0x40 SHL SUB DUP2 GT PUSH2 0x7B3 JUMPI PUSH1 0x1 SLOAD PUSH1 0x1 DUP2 DUP2 SHR SWAP2 AND DUP1 ISZERO PUSH2 0xC56 JUMPI JUMPDEST PUSH1 0x20 DUP3 LT EQ PUSH2 0x795 JUMPI PUSH1 0x1F DUP2 GT PUSH2 0xBF3 JUMPI JUMPDEST POP PUSH1 0x20 SWAP2 PUSH1 0x1F DUP3 GT PUSH1 0x1 EQ PUSH2 0xB93 JUMPI SWAP2 DUP2 SWAP3 PUSH0 SWAP3 PUSH2 0xB88 JUMPI JUMPDEST POP POP DUP2 PUSH1 0x1 SHL SWAP2 PUSH0 NOT SWAP1 PUSH1 0x3 SHL SHR NOT AND OR PUSH1 0x1 SSTORE JUMPDEST PUSH1 0x1 PUSH1 0x7 SSTORE CALLER PUSH0 SWAP1 DUP2 MSTORE PUSH0 MLOAD PUSH1 0x20 PUSH2 0x451B PUSH0 CODECOPY PUSH0 MLOAD SWAP1 PUSH0 MSTORE PUSH1 0x20 MSTORE PUSH1 0x40 SWAP1 KECCAK256 SLOAD PUSH1 0xFF AND ISZERO PUSH2 0xB4B JUMPI JUMPDEST CALLER PUSH0 SWAP1 DUP2 MSTORE PUSH0 MLOAD PUSH1 0x20 PUSH2 0x44FB PUSH0 CODECOPY PUSH0 MLOAD SWAP1 PUSH0 MSTORE PUSH1 0x20 MSTORE PUSH1 0x40 SWAP1 KECCAK256 SLOAD PUSH1 0xFF AND ISZERO PUSH2 0xAEC JUMPI JUMPDEST PUSH2 0x166 PUSH2 0xD3A JUMP JUMPDEST PUSH2 0x170 PUSH1 0x40 PUSH2 0xD59 JUMP JUMPDEST PUSH1 0xB DUP2 MSTORE PUSH11 0xA4DEF2C2D8408CD8EAE6D PUSH1 0xAB SHL PUSH1 0x20 DUP3 ADD MSTORE DUP2 MSTORE PUSH1 0x20 DUP2 ADD SWAP1 PUSH0 DUP3 MSTORE PUSH1 0x40 DUP2 ADD PUSH1 0xA DUP2 MSTORE PUSH1 0x60 DUP3 ADD SWAP3 PUSH0 DUP5 MSTORE PUSH0 DUP1 MSTORE PUSH1 0xC PUSH1 0x20 MSTORE PUSH1 0x40 PUSH0 KECCAK256 SWAP3 MLOAD DUP1 MLOAD SWAP1 PUSH1 0x1 DUP1 PUSH1 0x40 SHL SUB DUP3 GT PUSH2 0x7B3 JUMPI DUP5 SLOAD PUSH1 0x1 DUP2 DUP2 SHR SWAP2 AND DUP1 ISZERO PUSH2 0xAE2 JUMPI JUMPDEST PUSH1 0x20 DUP3 LT EQ PUSH2 0x795 JUMPI PUSH1 0x1F DUP2 GT PUSH2 0xA9D JUMPI JUMPDEST POP PUSH1 0x20 SWAP1 PUSH1 0x1F DUP4 GT PUSH1 0x1 EQ PUSH2 0xA4B JUMPI SWAP2 DUP1 PUSH2 0x245 SWAP8 SWAP5 SWAP3 PUSH1 0x3 SWAP7 SWAP5 PUSH0 SWAP3 PUSH2 0x6DB JUMPI JUMPDEST POP POP DUP2 PUSH1 0x1 SHL SWAP2 PUSH0 NOT SWAP1 DUP8 SHL SHR NOT AND OR DUP6 SSTORE JUMPDEST PUSH1 0xFF PUSH1 0x1 DUP7 ADD SWAP2 MLOAD AND PUSH1 0xFF NOT DUP3 SLOAD AND OR SWAP1 SSTORE MLOAD PUSH1 0x2 DUP5 ADD SSTORE MLOAD ISZERO ISZERO SWAP2 ADD SWAP1 PUSH1 0xFF DUP1 NOT DUP4 SLOAD AND SWAP2 ISZERO ISZERO AND OR SWAP1 SSTORE JUMP JUMPDEST PUSH2 0x24D PUSH2 0xD3A JUMP JUMPDEST PUSH2 0x257 PUSH1 0x40 PUSH2 0xD59 JUMP JUMPDEST PUSH1 0xE DUP2 MSTORE PUSH14 0xA6E8E4C2D2CED0E8408CD8EAE6D PUSH1 0x93 SHL PUSH1 0x20 DUP3 ADD MSTORE DUP2 MSTORE PUSH1 0x20 DUP2 ADD SWAP1 PUSH1 0x1 DUP3 MSTORE PUSH1 0x40 DUP2 ADD PUSH1 0x32 DUP2 MSTORE PUSH1 0x60 DUP3 ADD SWAP3 PUSH1 0x1 DUP5 MSTORE PUSH1 0x1 PUSH0 MSTORE PUSH1 0xC PUSH1 0x20 MSTORE PUSH1 0x40 PUSH0 KECCAK256 SWAP3 MLOAD DUP1 MLOAD SWAP1 PUSH1 0x1 DUP1 PUSH1 0x40 SHL SUB DUP3 GT PUSH2 0x7B3 JUMPI DUP5 SLOAD PUSH1 0x1 DUP2 DUP2 SHR SWAP2 AND DUP1 ISZERO PUSH2 0xA41 JUMPI JUMPDEST PUSH1 0x20 DUP3 LT EQ PUSH2 0x795 JUMPI PUSH1 0x1F DUP2 GT PUSH2 0x9FC JUMPI JUMPDEST POP PUSH1 0x20 SWAP1 PUSH1 0x1F DUP4 GT PUSH1 0x1 EQ PUSH2 0x9AA JUMPI SWAP2 DUP1 PUSH2 0x330 SWAP8 SWAP5 SWAP3 PUSH1 0x3 SWAP7 SWAP5 PUSH0 SWAP3 PUSH2 0x6DB JUMPI POP POP DUP2 PUSH1 0x1 SHL SWAP2 PUSH0 NOT SWAP1 DUP8 SHL SHR NOT AND OR DUP6 SSTORE PUSH1 0xFF PUSH1 0x1 DUP7 ADD SWAP2 MLOAD AND PUSH1 0xFF NOT DUP3 SLOAD AND OR SWAP1 SSTORE MLOAD PUSH1 0x2 DUP5 ADD SSTORE MLOAD ISZERO ISZERO SWAP2 ADD SWAP1 PUSH1 0xFF DUP1 NOT DUP4 SLOAD AND SWAP2 ISZERO ISZERO AND OR SWAP1 SSTORE JUMP JUMPDEST PUSH2 0x338 PUSH2 0xD3A JUMP JUMPDEST PUSH2 0x342 PUSH1 0x40 PUSH2 0xD59 JUMP JUMPDEST PUSH1 0xE DUP2 MSTORE PUSH14 0x119BDD5C881BD988184812DA5B99 PUSH1 0x92 SHL PUSH1 0x20 DUP3 ADD MSTORE DUP2 MSTORE PUSH1 0x20 DUP2 ADD SWAP1 PUSH1 0x2 DUP3 MSTORE PUSH1 0x40 DUP2 ADD PUSH1 0xC8 DUP2 MSTORE PUSH1 0x60 DUP3 ADD SWAP3 PUSH1 0x1 DUP5 MSTORE PUSH1 0x2 PUSH0 MSTORE PUSH1 0xC PUSH1 0x20 MSTORE PUSH1 0x40 PUSH0 KECCAK256 SWAP3 MLOAD DUP1 MLOAD SWAP1 PUSH1 0x1 DUP1 PUSH1 0x40 SHL SUB DUP3 GT PUSH2 0x7B3 JUMPI DUP5 SLOAD PUSH1 0x1 DUP2 DUP2 SHR SWAP2 AND DUP1 ISZERO PUSH2 0x9A0 JUMPI JUMPDEST PUSH1 0x20 DUP3 LT EQ PUSH2 0x795 JUMPI PUSH1 0x1F DUP2 GT PUSH2 0x95B JUMPI JUMPDEST POP PUSH1 0x20 SWAP1 PUSH1 0x1F DUP4 GT PUSH1 0x1 EQ PUSH2 0x909 JUMPI SWAP2 DUP1 PUSH2 0x41B SWAP8 SWAP5 SWAP3 PUSH1 0x3 SWAP7 SWAP5 PUSH0 SWAP3 PUSH2 0x6DB JUMPI POP POP DUP2 PUSH1 0x1 SHL SWAP2 PUSH0 NOT SWAP1 DUP8 SHL SHR NOT AND OR DUP6 SSTORE PUSH1 0xFF PUSH1 0x1 DUP7 ADD SWAP2 MLOAD AND PUSH1 0xFF NOT DUP3 SLOAD AND OR SWAP1 SSTORE MLOAD PUSH1 0x2 DUP5 ADD SSTORE MLOAD ISZERO ISZERO SWAP2 ADD SWAP1 PUSH1 0xFF DUP1 NOT DUP4 SLOAD AND SWAP2 ISZERO ISZERO AND OR SWAP1 SSTORE JUMP JUMPDEST PUSH2 0x423 PUSH2 0xD3A JUMP JUMPDEST PUSH2 0x42D PUSH1 0x40 PUSH2 0xD59 JUMP JUMPDEST PUSH1 0xA DUP2 MSTORE PUSH10 0x46756C6C20486F757365 PUSH1 0xB0 SHL PUSH1 0x20 DUP3 ADD MSTORE DUP2 MSTORE PUSH1 0x20 DUP2 ADD SWAP1 PUSH1 0x3 DUP3 MSTORE PUSH1 0x40 DUP2 ADD PUSH2 0x1F4 DUP2 MSTORE PUSH1 0x60 DUP3 ADD SWAP3 PUSH1 0x1 DUP5 MSTORE PUSH1 0x3 PUSH0 MSTORE PUSH1 0xC PUSH1 0x20 MSTORE PUSH1 0x40 PUSH0 KECCAK256 SWAP3 MLOAD DUP1 MLOAD SWAP1 PUSH1 0x1 DUP1 PUSH1 0x40 SHL SUB DUP3 GT PUSH2 0x7B3 JUMPI DUP5 SLOAD PUSH1 0x1 DUP2 DUP2 SHR SWAP2 AND DUP1 ISZERO PUSH2 0x8FF JUMPI JUMPDEST PUSH1 0x20 DUP3 LT EQ PUSH2 0x795 JUMPI PUSH1 0x1F DUP2 GT PUSH2 0x8BA JUMPI JUMPDEST POP PUSH1 0x20 SWAP1 PUSH1 0x1F DUP4 GT PUSH1 0x1 EQ PUSH2 0x868 JUMPI SWAP2 DUP1 PUSH2 0x503 SWAP8 SWAP5 SWAP3 PUSH1 0x3 SWAP7 SWAP5 PUSH0 SWAP3 PUSH2 0x6DB JUMPI POP POP DUP2 PUSH1 0x1 SHL SWAP2 PUSH0 NOT SWAP1 DUP8 SHL SHR NOT AND OR DUP6 SSTORE PUSH1 0xFF PUSH1 0x1 DUP7 ADD SWAP2 MLOAD AND PUSH1 0xFF NOT DUP3 SLOAD AND OR SWAP1 SSTORE MLOAD PUSH1 0x2 DUP5 ADD SSTORE MLOAD ISZERO ISZERO SWAP2 ADD SWAP1 PUSH1 0xFF DUP1 NOT DUP4 SLOAD AND SWAP2 ISZERO ISZERO AND OR SWAP1 SSTORE JUMP JUMPDEST PUSH2 0x50B PUSH2 0xD3A JUMP JUMPDEST PUSH2 0x515 PUSH1 0x40 PUSH2 0xD59 JUMP JUMPDEST PUSH1 0x5 DUP2 MSTORE PUSH5 0x8CD8EAE6D PUSH1 0xDB SHL PUSH1 0x20 DUP3 ADD MSTORE DUP2 MSTORE PUSH1 0x20 DUP2 ADD SWAP1 PUSH1 0x3 DUP3 MSTORE PUSH1 0x40 DUP2 ADD PUSH2 0x3E8 DUP2 MSTORE PUSH1 0x60 DUP3 ADD SWAP3 PUSH1 0x1 DUP5 MSTORE PUSH1 0x4 PUSH0 MSTORE PUSH1 0xC PUSH1 0x20 MSTORE PUSH1 0x40 PUSH0 KECCAK256 SWAP3 MLOAD DUP1 MLOAD SWAP1 PUSH1 0x1 DUP1 PUSH1 0x40 SHL SUB DUP3 GT PUSH2 0x7B3 JUMPI DUP5 SLOAD PUSH1 0x1 DUP2 DUP2 SHR SWAP2 AND DUP1 ISZERO PUSH2 0x85E JUMPI JUMPDEST PUSH1 0x20 DUP3 LT EQ PUSH2 0x795 JUMPI PUSH1 0x1F DUP2 GT PUSH2 0x819 JUMPI JUMPDEST POP PUSH1 0x20 SWAP1 PUSH1 0x1F DUP4 GT PUSH1 0x1 EQ PUSH2 0x7C7 JUMPI SWAP2 DUP1 PUSH2 0x5E6 SWAP8 SWAP5 SWAP3 PUSH1 0x3 SWAP7 SWAP5 PUSH0 SWAP3 PUSH2 0x6DB JUMPI POP POP DUP2 PUSH1 0x1 SHL SWAP2 PUSH0 NOT SWAP1 DUP8 SHL SHR NOT AND OR DUP6 SSTORE PUSH1 0xFF PUSH1 0x1 DUP7 ADD SWAP2 MLOAD AND PUSH1 0xFF NOT DUP3 SLOAD AND OR SWAP1 SSTORE MLOAD PUSH1 0x2 DUP5 ADD SSTORE MLOAD ISZERO ISZERO SWAP2 ADD SWAP1 PUSH1 0xFF DUP1 NOT DUP4 SLOAD AND SWAP2 ISZERO ISZERO AND OR SWAP1 SSTORE JUMP JUMPDEST PUSH2 0x5EE PUSH2 0xD3A JUMP JUMPDEST PUSH2 0x5F8 PUSH1 0x40 PUSH2 0xD59 JUMP JUMPDEST PUSH1 0x8 DUP2 MSTORE PUSH8 0x14DD1C985A59DA1D PUSH1 0xC2 SHL PUSH1 0x20 DUP3 ADD MSTORE DUP2 MSTORE PUSH1 0x20 DUP2 ADD SWAP1 PUSH1 0x3 DUP3 MSTORE PUSH1 0x40 DUP2 ADD PUSH2 0x7D0 DUP2 MSTORE PUSH1 0x60 DUP3 ADD SWAP3 PUSH1 0x1 DUP5 MSTORE PUSH1 0x5 PUSH0 MSTORE PUSH1 0xC PUSH1 0x20 MSTORE PUSH1 0x40 PUSH0 KECCAK256 SWAP3 MLOAD DUP1 MLOAD SWAP1 PUSH1 0x1 DUP1 PUSH1 0x40 SHL SUB DUP3 GT PUSH2 0x7B3 JUMPI DUP5 SLOAD PUSH1 0x1 DUP2 DUP2 SHR SWAP2 AND DUP1 ISZERO PUSH2 0x7A9 JUMPI JUMPDEST PUSH1 0x20 DUP3 LT EQ PUSH2 0x795 JUMPI PUSH1 0x1F DUP2 GT PUSH2 0x750 JUMPI JUMPDEST POP PUSH1 0x20 SWAP1 PUSH1 0x1F DUP4 GT PUSH1 0x1 EQ PUSH2 0x6E6 JUMPI SWAP2 DUP1 PUSH2 0x6CC SWAP8 SWAP5 SWAP3 PUSH1 0x3 SWAP7 SWAP5 PUSH0 SWAP3 PUSH2 0x6DB JUMPI POP POP DUP2 PUSH1 0x1 SHL SWAP2 PUSH0 NOT SWAP1 DUP8 SHL SHR NOT AND OR DUP6 SSTORE PUSH1 0xFF PUSH1 0x1 DUP7 ADD SWAP2 MLOAD AND PUSH1 0xFF NOT DUP3 SLOAD AND OR SWAP1 SSTORE MLOAD PUSH1 0x2 DUP5 ADD SSTORE MLOAD ISZERO ISZERO SWAP2 ADD SWAP1 PUSH1 0xFF DUP1 NOT DUP4 SLOAD AND SWAP2 ISZERO ISZERO AND OR SWAP1 SSTORE JUMP JUMPDEST PUSH1 0x40 MLOAD PUSH2 0x375C SWAP1 DUP2 PUSH2 0xD7F DUP3 CODECOPY RETURN JUMPDEST ADD MLOAD SWAP1 POP PUSH0 DUP1 PUSH2 0x204 JUMP JUMPDEST SWAP1 PUSH1 0x1F NOT DUP4 AND SWAP2 DUP7 PUSH0 MSTORE DUP2 PUSH0 KECCAK256 SWAP3 PUSH0 JUMPDEST DUP2 DUP2 LT PUSH2 0x738 JUMPI POP SWAP3 PUSH1 0x1 SWAP3 DUP6 SWAP3 PUSH1 0x3 SWAP9 SWAP7 PUSH2 0x6CC SWAP12 SWAP9 SWAP7 LT PUSH2 0x721 JUMPI JUMPDEST POP POP POP DUP2 SHL ADD DUP6 SSTORE PUSH2 0x217 JUMP JUMPDEST ADD MLOAD PUSH0 NOT DUP4 DUP10 SHL PUSH1 0xF8 AND SHR NOT AND SWAP1 SSTORE PUSH0 DUP1 DUP1 PUSH2 0x714 JUMP JUMPDEST SWAP3 SWAP4 PUSH1 0x20 PUSH1 0x1 DUP2 SWAP3 DUP8 DUP7 ADD MLOAD DUP2 SSTORE ADD SWAP6 ADD SWAP4 ADD PUSH2 0x6F6 JUMP JUMPDEST DUP6 PUSH0 MSTORE PUSH1 0x20 PUSH0 KECCAK256 PUSH1 0x1F DUP5 ADD PUSH1 0x5 SHR DUP2 ADD SWAP2 PUSH1 0x20 DUP6 LT PUSH2 0x78B JUMPI JUMPDEST PUSH1 0x1F ADD PUSH1 0x5 SHR ADD SWAP1 JUMPDEST DUP2 DUP2 LT PUSH2 0x780 JUMPI POP PUSH2 0x66B JUMP JUMPDEST PUSH0 DUP2 SSTORE PUSH1 0x1 ADD PUSH2 0x773 JUMP JUMPDEST SWAP1 SWAP2 POP DUP2 SWAP1 PUSH2 0x76A JUMP JUMPDEST PUSH4 0x4E487B71 PUSH1 0xE0 SHL PUSH0 MSTORE PUSH1 0x22 PUSH1 0x4 MSTORE PUSH1 0x24 PUSH0 REVERT JUMPDEST SWAP1 PUSH1 0x7F AND SWAP1 PUSH2 0x659 JUMP JUMPDEST PUSH4 0x4E487B71 PUSH1 0xE0 SHL PUSH0 MSTORE PUSH1 0x41 PUSH1 0x4 MSTORE PUSH1 0x24 PUSH0 REVERT JUMPDEST SWAP1 PUSH1 0x1F NOT DUP4 AND SWAP2 DUP7 PUSH0 MSTORE DUP2 PUSH0 KECCAK256 SWAP3 PUSH0 JUMPDEST DUP2 DUP2 LT PUSH2 0x801 JUMPI POP SWAP3 PUSH1 0x1 SWAP3 DUP6 SWAP3 PUSH1 0x3 SWAP9 SWAP7 PUSH2 0x5E6 SWAP12 SWAP9 SWAP7 LT PUSH2 0x721 JUMPI POP POP POP DUP2 SHL ADD DUP6 SSTORE PUSH2 0x217 JUMP JUMPDEST SWAP3 SWAP4 PUSH1 0x20 PUSH1 0x1 DUP2 SWAP3 DUP8 DUP7 ADD MLOAD DUP2 SSTORE ADD SWAP6 ADD SWAP4 ADD PUSH2 0x7D7 JUMP JUMPDEST DUP6 PUSH0 MSTORE PUSH1 0x20 PUSH0 KECCAK256 PUSH1 0x1F DUP5 ADD PUSH1 0x5 SHR DUP2 ADD SWAP2 PUSH1 0x20 DUP6 LT PUSH2 0x854 JUMPI JUMPDEST PUSH1 0x1F ADD PUSH1 0x5 SHR ADD SWAP1 JUMPDEST DUP2 DUP2 LT PUSH2 0x849 JUMPI POP PUSH2 0x585 JUMP JUMPDEST PUSH0 DUP2 SSTORE PUSH1 0x1 ADD PUSH2 0x83C JUMP JUMPDEST SWAP1 SWAP2 POP DUP2 SWAP1 PUSH2 0x833 JUMP JUMPDEST SWAP1 PUSH1 0x7F AND SWAP1 PUSH2 0x573 JUMP JUMPDEST SWAP1 PUSH1 0x1F NOT DUP4 AND SWAP2 DUP7 PUSH0 MSTORE DUP2 PUSH0 KECCAK256 SWAP3 PUSH0 JUMPDEST DUP2 DUP2 LT PUSH2 0x8A2 JUMPI POP SWAP3 PUSH1 0x1 SWAP3 DUP6 SWAP3 PUSH1 0x3 SWAP9 SWAP7 PUSH2 0x503 SWAP12 SWAP9 SWAP7 LT PUSH2 0x721 JUMPI POP POP POP DUP2 SHL ADD DUP6 SSTORE PUSH2 0x217 JUMP JUMPDEST SWAP3 SWAP4 PUSH1 0x20 PUSH1 0x1 DUP2 SWAP3 DUP8 DUP7 ADD MLOAD DUP2 SSTORE ADD SWAP6 ADD SWAP4 ADD PUSH2 0x878 JUMP JUMPDEST DUP6 PUSH0 MSTORE PUSH1 0x20 PUSH0 KECCAK256 PUSH1 0x1F DUP5 ADD PUSH1 0x5 SHR DUP2 ADD SWAP2 PUSH1 0x20 DUP6 LT PUSH2 0x8F5 JUMPI JUMPDEST PUSH1 0x1F ADD PUSH1 0x5 SHR ADD SWAP1 JUMPDEST DUP2 DUP2 LT PUSH2 0x8EA JUMPI POP PUSH2 0x4A2 JUMP JUMPDEST PUSH0 DUP2 SSTORE PUSH1 0x1 ADD PUSH2 0x8DD JUMP JUMPDEST SWAP1 SWAP2 POP DUP2 SWAP1 PUSH2 0x8D4 JUMP JUMPDEST SWAP1 PUSH1 0x7F AND SWAP1 PUSH2 0x490 JUMP JUMPDEST SWAP1 PUSH1 0x1F NOT DUP4 AND SWAP2 DUP7 PUSH0 MSTORE DUP2 PUSH0 KECCAK256 SWAP3 PUSH0 JUMPDEST DUP2 DUP2 LT PUSH2 0x943 JUMPI POP SWAP3 PUSH1 0x1 SWAP3 DUP6 SWAP3 PUSH1 0x3 SWAP9 SWAP7 PUSH2 0x41B SWAP12 SWAP9 SWAP7 LT PUSH2 0x721 JUMPI POP POP POP DUP2 SHL ADD DUP6 SSTORE PUSH2 0x217 JUMP JUMPDEST SWAP3 SWAP4 PUSH1 0x20 PUSH1 0x1 DUP2 SWAP3 DUP8 DUP7 ADD MLOAD DUP2 SSTORE ADD SWAP6 ADD SWAP4 ADD PUSH2 0x919 JUMP JUMPDEST DUP6 PUSH0 MSTORE PUSH1 0x20 PUSH0 KECCAK256 PUSH1 0x1F DUP5 ADD PUSH1 0x5 SHR DUP2 ADD SWAP2 PUSH1 0x20 DUP6 LT PUSH2 0x996 JUMPI JUMPDEST PUSH1 0x1F ADD PUSH1 0x5 SHR ADD SWAP1 JUMPDEST DUP2 DUP2 LT PUSH2 0x98B JUMPI POP PUSH2 0x3BA JUMP JUMPDEST PUSH0 DUP2 SSTORE PUSH1 0x1 ADD PUSH2 0x97E JUMP JUMPDEST SWAP1 SWAP2 POP DUP2 SWAP1 PUSH2 0x975 JUMP JUMPDEST SWAP1 PUSH1 0x7F AND SWAP1 PUSH2 0x3A8 JUMP JUMPDEST SWAP1 PUSH1 0x1F NOT DUP4 AND SWAP2 DUP7 PUSH0 MSTORE DUP2 PUSH0 KECCAK256 SWAP3 PUSH0 JUMPDEST DUP2 DUP2 LT PUSH2 0x9E4 JUMPI POP SWAP3 PUSH1 0x1 SWAP3 DUP6 SWAP3 PUSH1 0x3 SWAP9 SWAP7 PUSH2 0x330 SWAP12 SWAP9 SWAP7 LT PUSH2 0x721 JUMPI POP POP POP DUP2 SHL ADD DUP6 SSTORE PUSH2 0x217 JUMP JUMPDEST SWAP3 SWAP4 PUSH1 0x20 PUSH1 0x1 DUP2 SWAP3 DUP8 DUP7 ADD MLOAD DUP2 SSTORE ADD SWAP6 ADD SWAP4 ADD PUSH2 0x9BA JUMP JUMPDEST DUP6 PUSH0 MSTORE PUSH1 0x20 PUSH0 KECCAK256 PUSH1 0x1F DUP5 ADD PUSH1 0x5 SHR DUP2 ADD SWAP2 PUSH1 0x20 DUP6 LT PUSH2 0xA37 JUMPI JUMPDEST PUSH1 0x1F ADD PUSH1 0x5 SHR ADD SWAP1 JUMPDEST DUP2 DUP2 LT PUSH2 0xA2C JUMPI POP PUSH2 0x2CF JUMP JUMPDEST PUSH0 DUP2 SSTORE PUSH1 0x1 ADD PUSH2 0xA1F JUMP JUMPDEST SWAP1 SWAP2 POP DUP2 SWAP1 PUSH2 0xA16 JUMP JUMPDEST SWAP1 PUSH1 0x7F AND SWAP1 PUSH2 0x2BD JUMP JUMPDEST SWAP1 PUSH1 0x1F NOT DUP4 AND SWAP2 DUP7 PUSH0 MSTORE DUP2 PUSH0 KECCAK256 SWAP3 PUSH0 JUMPDEST DUP2 DUP2 LT PUSH2 0xA85 JUMPI POP SWAP3 PUSH1 0x1 SWAP3 DUP6 SWAP3 PUSH1 0x3 SWAP9 SWAP7 PUSH2 0x245 SWAP12 SWAP9 SWAP7 LT PUSH2 0x721 JUMPI POP POP POP DUP2 SHL ADD DUP6 SSTORE PUSH2 0x217 JUMP JUMPDEST SWAP3 SWAP4 PUSH1 0x20 PUSH1 0x1 DUP2 SWAP3 DUP8 DUP7 ADD MLOAD DUP2 SSTORE ADD SWAP6 ADD SWAP4 ADD PUSH2 0xA5B JUMP JUMPDEST DUP6 PUSH0 MSTORE PUSH1 0x20 PUSH0 KECCAK256 PUSH1 0x1F DUP5 ADD PUSH1 0x5 SHR DUP2 ADD SWAP2 PUSH1 0x20 DUP6 LT PUSH2 0xAD8 JUMPI JUMPDEST PUSH1 0x1F ADD PUSH1 0x5 SHR ADD SWAP1 JUMPDEST DUP2 DUP2 LT PUSH2 0xACD JUMPI POP PUSH2 0x1E2 JUMP JUMPDEST PUSH0 DUP2 SSTORE PUSH1 0x1 ADD PUSH2 0xAC0 JUMP JUMPDEST SWAP1 SWAP2 POP DUP2 SWAP1 PUSH2 0xAB7 JUMP JUMPDEST SWAP1 PUSH1 0x7F AND SWAP1 PUSH2 0x1D0 JUMP JUMPDEST CALLER PUSH0 DUP2 DUP2 MSTORE PUSH0 MLOAD PUSH1 0x20 PUSH2 0x44FB PUSH0 CODECOPY PUSH0 MLOAD SWAP1 PUSH0 MSTORE PUSH1 0x20 MSTORE PUSH1 0x40 DUP2 KECCAK256 DUP1 SLOAD PUSH1 0xFF NOT AND PUSH1 0x1 OR SWAP1 SSTORE DUP2 SWAP1 PUSH32 0x9F2DF0FED2C77648DE5860A4CC508CD0818C85B8B8A1AB4CEEEF8D981C8956A6 SWAP1 PUSH0 MLOAD PUSH1 0x20 PUSH2 0x44DB PUSH0 CODECOPY PUSH0 MLOAD SWAP1 PUSH0 MSTORE SWAP1 DUP1 LOG4 PUSH2 0x15E JUMP JUMPDEST CALLER PUSH0 DUP2 DUP2 MSTORE PUSH0 MLOAD PUSH1 0x20 PUSH2 0x451B PUSH0 CODECOPY PUSH0 MLOAD SWAP1 PUSH0 MSTORE PUSH1 0x20 MSTORE PUSH1 0x40 DUP2 KECCAK256 DUP1 SLOAD PUSH1 0xFF NOT AND PUSH1 0x1 OR SWAP1 SSTORE DUP2 SWAP1 PUSH0 MLOAD PUSH1 0x20 PUSH2 0x44DB PUSH0 CODECOPY PUSH0 MLOAD SWAP1 PUSH0 MSTORE DUP2 DUP1 LOG4 PUSH2 0x13A JUMP JUMPDEST ADD MLOAD SWAP1 POP PUSH0 DUP1 PUSH2 0xFC JUMP JUMPDEST PUSH1 0x1F NOT DUP3 AND SWAP3 PUSH1 0x1 PUSH0 MSTORE DUP1 PUSH0 KECCAK256 SWAP2 PUSH0 JUMPDEST DUP6 DUP2 LT PUSH2 0xBDB JUMPI POP DUP4 PUSH1 0x1 SWAP6 LT PUSH2 0xBC3 JUMPI JUMPDEST POP POP POP DUP2 SHL ADD PUSH1 0x1 SSTORE PUSH2 0x111 JUMP JUMPDEST ADD MLOAD PUSH0 NOT PUSH1 0xF8 DUP5 PUSH1 0x3 SHL AND SHR NOT AND SWAP1 SSTORE PUSH0 DUP1 DUP1 PUSH2 0xBB5 JUMP JUMPDEST SWAP2 SWAP3 PUSH1 0x20 PUSH1 0x1 DUP2 SWAP3 DUP7 DUP6 ADD MLOAD DUP2 SSTORE ADD SWAP5 ADD SWAP3 ADD PUSH2 0xBA3 JUMP JUMPDEST PUSH1 0x1 PUSH0 MSTORE PUSH32 0xB10E2D527612073B26EECDFD717E6A320CF44B4AFAC2B0732D9FCBE2B7FA0CF6 PUSH1 0x1F DUP4 ADD PUSH1 0x5 SHR DUP2 ADD SWAP2 PUSH1 0x20 DUP5 LT PUSH2 0xC4C JUMPI JUMPDEST PUSH1 0x1F ADD PUSH1 0x5 SHR ADD SWAP1 JUMPDEST DUP2 DUP2 LT PUSH2 0xC41 JUMPI POP PUSH2 0xE3 JUMP JUMPDEST PUSH0 DUP2 SSTORE PUSH1 0x1 ADD PUSH2 0xC34 JUMP JUMPDEST SWAP1 SWAP2 POP DUP2 SWAP1 PUSH2 0xC2B JUMP JUMPDEST SWAP1 PUSH1 0x7F AND SWAP1 PUSH2 0xD1 JUMP JUMPDEST ADD MLOAD SWAP1 POP PUSH0 DUP1 PUSH2 0x9C JUMP JUMPDEST PUSH1 0x1F NOT DUP3 AND SWAP4 PUSH0 DUP1 MSTORE DUP1 PUSH0 KECCAK256 SWAP2 PUSH0 JUMPDEST DUP7 DUP2 LT PUSH2 0xCB2 JUMPI POP DUP4 PUSH1 0x1 SWAP6 SWAP7 LT PUSH2 0xC9A JUMPI JUMPDEST POP POP POP DUP2 SHL ADD PUSH0 SSTORE PUSH2 0xB0 JUMP JUMPDEST ADD MLOAD PUSH0 NOT PUSH1 0xF8 DUP5 PUSH1 0x3 SHL AND SHR NOT AND SWAP1 SSTORE PUSH0 DUP1 DUP1 PUSH2 0xC8D JUMP JUMPDEST SWAP2 SWAP3 PUSH1 0x20 PUSH1 0x1 DUP2 SWAP3 DUP7 DUP6 ADD MLOAD DUP2 SSTORE ADD SWAP5 ADD SWAP3 ADD PUSH2 0xC7A JUMP JUMPDEST PUSH0 DUP1 MSTORE PUSH32 0x290DECD9548B62A8D60345A988386FC84BA6BC95484008F6362F93160EF3E563 PUSH1 0x1F DUP4 ADD PUSH1 0x5 SHR DUP2 ADD SWAP2 PUSH1 0x20 DUP5 LT PUSH2 0xD22 JUMPI JUMPDEST PUSH1 0x1F ADD PUSH1 0x5 SHR ADD SWAP1 JUMPDEST DUP2 DUP2 LT PUSH2 0xD17 JUMPI POP PUSH2 0x82 JUMP JUMPDEST PUSH0 DUP2 SSTORE PUSH1 0x1 ADD PUSH2 0xD0A JUMP JUMPDEST SWAP1 SWAP2 POP DUP2 SWAP1 PUSH2 0xD01 JUMP JUMPDEST SWAP1 PUSH1 0x7F AND SWAP1 PUSH2 0x70 JUMP JUMPDEST PUSH0 DUP1 REVERT JUMPDEST PUSH1 0x40 MLOAD SWAP1 PUSH1 0x80 DUP3 ADD PUSH1 0x1 PUSH1 0x1 PUSH1 0x40 SHL SUB DUP2 GT DUP4 DUP3 LT OR PUSH2 0x7B3 JUMPI PUSH1 0x40 MSTORE JUMP JUMPDEST PUSH1 0x40 MLOAD SWAP2 SWAP1 PUSH1 0x1F ADD PUSH1 0x1F NOT AND DUP3 ADD PUSH1 0x1 PUSH1 0x1 PUSH1 0x40 SHL SUB DUP2 GT DUP4 DUP3 LT OR PUSH2 0x7B3 JUMPI PUSH1 0x40 MSTORE JUMP INVALID PUSH1 0xC0 DUP1 PUSH1 0x40 MSTORE PUSH1 0x4 CALLDATASIZE LT ISZERO PUSH2 0x12 JUMPI PUSH0 DUP1 REVERT JUMPDEST PUSH0 SWAP1 PUSH0 CALLDATALOAD PUSH1 0xE0 SHR SWAP1 DUP2 PUSH4 0x102EE33 EQ PUSH2 0x2721 JUMPI POP DUP1 PUSH4 0x1FFC9A7 EQ PUSH2 0x2699 JUMPI DUP1 PUSH4 0x6FDDE03 EQ PUSH2 0x25F7 JUMPI DUP1 PUSH4 0x81812FC EQ PUSH2 0x25D9 JUMPI DUP1 PUSH4 0x95EA7B3 EQ PUSH2 0x2453 JUMPI DUP1 PUSH4 0x12ABC66F EQ PUSH2 0x2438 JUMPI DUP1 PUSH4 0x203D3576 EQ PUSH2 0x241D JUMPI DUP1 PUSH4 0x23B872DD EQ PUSH2 0x23F9 JUMPI DUP1 PUSH4 0x248A9CA3 EQ PUSH2 0x23CE JUMPI DUP1 PUSH4 0x2F2FF15D EQ PUSH2 0x2315 JUMPI DUP1 PUSH4 0x330077A3 EQ PUSH2 0x1376 JUMPI DUP1 PUSH4 0x36568ABE EQ PUSH2 0x2283 JUMPI DUP1 PUSH4 0x3DD2E9A2 EQ PUSH2 0x2233 JUMPI DUP1 PUSH4 0x42842E0E EQ PUSH2 0x221C JUMPI DUP1 PUSH4 0x4A0706BE EQ PUSH2 0x1AFE JUMPI DUP1 PUSH4 0x6352211E EQ PUSH2 0x1ACE JUMPI DUP1 PUSH4 0x67C56A0F EQ PUSH2 0x1A93 JUMPI DUP1 PUSH4 0x70A08231 EQ PUSH2 0x1A68 JUMPI DUP1 PUSH4 0x779DBBDE EQ PUSH2 0x1A4D JUMPI DUP1 PUSH4 0x786EC4B8 EQ PUSH2 0x1A32 JUMPI DUP1 PUSH4 0x8124B78E EQ PUSH2 0x14B7 JUMPI DUP1 PUSH4 0x91D14854 EQ PUSH2 0x146E JUMPI DUP1 PUSH4 0x95D89B41 EQ PUSH2 0x1390 JUMPI DUP1 PUSH4 0xA217FDDF EQ PUSH2 0x1376 JUMPI DUP1 PUSH4 0xA22CB465 EQ PUSH2 0x12A8 JUMPI DUP1 PUSH4 0xA5EA1F21 EQ PUSH2 0x11D5 JUMPI DUP1 PUSH4 0xB88D4FDE EQ PUSH2 0x114E JUMPI DUP1 PUSH4 0xBC6E5C15 EQ PUSH2 0x1118 JUMPI DUP1 PUSH4 0xBF3E5885 EQ PUSH2 0x1054 JUMPI DUP1 PUSH4 0xC42A9FB6 EQ PUSH2 0xF71 JUMPI DUP1 PUSH4 0xC87B56DD EQ PUSH2 0xEFB JUMPI DUP1 PUSH4 0xC881EA67 EQ PUSH2 0x6AD JUMPI DUP1 PUSH4 0xD5391393 EQ PUSH2 0x672 JUMPI DUP1 PUSH4 0xD547741F EQ PUSH2 0x62B JUMPI DUP1 PUSH4 0xDD9B2AE5 EQ PUSH2 0x59D JUMPI DUP1 PUSH4 0xE985E9C5 EQ PUSH2 0x545 JUMPI DUP1 PUSH4 0xF834DA0A EQ PUSH2 0x3D7 JUMPI PUSH4 0xFCD48A24 EQ PUSH2 0x1C0 JUMPI PUSH0 DUP1 REVERT JUMPDEST CALLVALUE PUSH2 0x3D4 JUMPI PUSH1 0x40 CALLDATASIZE PUSH1 0x3 NOT ADD SLT PUSH2 0x3D4 JUMPI PUSH2 0x1D9 PUSH2 0x275E JUMP JUMPDEST PUSH1 0x24 CALLDATALOAD PUSH1 0x1 PUSH1 0x1 PUSH1 0x40 SHL SUB DUP2 GT PUSH2 0x3D2 JUMPI PUSH2 0x1F8 SWAP1 CALLDATASIZE SWAP1 PUSH1 0x4 ADD PUSH2 0x27C4 JUMP JUMPDEST SWAP1 PUSH2 0x202 CALLER PUSH2 0x2C2B JUMP JUMPDEST ISZERO PUSH2 0x39A JUMPI PUSH1 0x1 PUSH1 0x1 PUSH1 0xA0 SHL SUB DUP4 AND SWAP3 DUP4 ISZERO PUSH2 0x361 JUMPI PUSH2 0x221 CALLER PUSH2 0x32C4 JUMP JUMPDEST SWAP3 DUP4 DUP7 MSTORE PUSH1 0xB PUSH1 0x20 MSTORE PUSH1 0x40 DUP7 KECCAK256 SWAP1 PUSH1 0x1 PUSH1 0x1 PUSH1 0x40 SHL SUB DUP2 GT PUSH2 0x34D JUMPI SWAP1 DUP2 PUSH2 0x255 DUP7 SWAP5 SWAP4 PUSH2 0x24F DUP5 SLOAD PUSH2 0x287E JUMP JUMPDEST DUP5 PUSH2 0x2A8B JUMP JUMPDEST DUP8 PUSH1 0x1F DUP3 GT PUSH1 0x1 EQ PUSH2 0x2E3 JUMPI SWAP1 DUP1 PUSH2 0x286 SWAP3 PUSH2 0x2AF SWAP8 DUP12 SWAP3 PUSH2 0x2D8 JUMPI JUMPDEST POP POP DUP2 PUSH1 0x1 SHL SWAP2 PUSH0 NOT SWAP1 PUSH1 0x3 SHL SHR NOT AND OR SWAP1 JUMP JUMPDEST SWAP1 SSTORE JUMPDEST DUP2 DUP7 MSTORE PUSH1 0x8 PUSH1 0x20 MSTORE PUSH1 0x40 DUP7 KECCAK256 PUSH1 0x5 ADD DUP1 SLOAD PUSH1 0xFF PUSH1 0xA0 SHL NOT AND PUSH1 0x1 PUSH1 0xA0 SHL OR SWAP1 SSTORE CALLER PUSH2 0x2A13 JUMP JUMPDEST CALLER SWAP1 PUSH32 0x5D4081C14EE1721E51DDE8B5E46CE9667329DA7B356F8C2070A700D7888B3C75 DUP5 DUP1 LOG4 DUP1 RETURN JUMPDEST ADD CALLDATALOAD SWAP1 POP PUSH0 DUP1 PUSH2 0x272 JUMP JUMPDEST DUP3 DUP10 MSTORE PUSH1 0x20 DUP10 KECCAK256 SWAP6 SWAP1 PUSH1 0x1F NOT DUP4 AND DUP11 JUMPDEST DUP2 DUP2 LT PUSH2 0x332 JUMPI POP SWAP2 PUSH2 0x2AF SWAP8 SWAP2 DUP5 PUSH1 0x1 SWAP6 SWAP5 LT PUSH2 0x319 JUMPI JUMPDEST POP POP POP DUP2 SHL ADD SWAP1 SSTORE PUSH2 0x289 JUMP JUMPDEST ADD CALLDATALOAD PUSH0 NOT PUSH1 0x3 DUP5 SWAP1 SHL PUSH1 0xF8 AND SHR NOT AND SWAP1 SSTORE PUSH0 DUP1 DUP1 PUSH2 0x30C JUMP JUMPDEST DUP3 DUP5 ADD CALLDATALOAD DUP10 SSTORE PUSH1 0x1 SWAP1 SWAP9 ADD SWAP8 DUP10 SWAP8 POP PUSH1 0x20 SWAP3 DUP4 ADD SWAP3 ADD PUSH2 0x2F3 JUMP JUMPDEST PUSH4 0x4E487B71 PUSH1 0xE0 SHL DUP8 MSTORE PUSH1 0x41 PUSH1 0x4 MSTORE PUSH1 0x24 DUP8 REVERT JUMPDEST PUSH1 0x40 MLOAD PUSH3 0x461BCD PUSH1 0xE5 SHL DUP2 MSTORE PUSH1 0x20 PUSH1 0x4 DUP3 ADD MSTORE PUSH1 0x11 PUSH1 0x24 DUP3 ADD MSTORE PUSH17 0x125B9D985B1A59081C9958DA5C1A595B9D PUSH1 0x7A SHL PUSH1 0x44 DUP3 ADD MSTORE PUSH1 0x64 SWAP1 REVERT JUMPDEST PUSH1 0x40 MLOAD PUSH3 0x461BCD PUSH1 0xE5 SHL DUP2 MSTORE PUSH1 0x20 PUSH1 0x4 DUP3 ADD MSTORE PUSH1 0x10 PUSH1 0x24 DUP3 ADD MSTORE PUSH16 0x2737BA103A37B5B2B7103437B63232B9 PUSH1 0x81 SHL PUSH1 0x44 DUP3 ADD MSTORE PUSH1 0x64 SWAP1 REVERT JUMPDEST DUP3 JUMPDEST DUP1 REVERT JUMPDEST POP CALLVALUE PUSH2 0x3D4 JUMPI PUSH1 0x20 CALLDATASIZE PUSH1 0x3 NOT ADD SLT PUSH2 0x3D4 JUMPI PUSH1 0x4 CALLDATALOAD PUSH0 DUP2 DUP2 MSTORE PUSH1 0x2 PUSH1 0x20 MSTORE PUSH1 0x40 SWAP1 KECCAK256 SLOAD PUSH1 0x1 PUSH1 0x1 PUSH1 0xA0 SHL SUB AND ISZERO PUSH2 0x509 JUMPI DUP2 PUSH1 0x40 SWAP2 PUSH2 0x4D9 SWAP4 MSTORE PUSH1 0x8 PUSH1 0x20 MSTORE KECCAK256 PUSH1 0x40 MLOAD SWAP1 PUSH2 0x424 DUP3 PUSH2 0x27F1 JUMP JUMPDEST PUSH1 0x40 MLOAD PUSH2 0x43C DUP2 PUSH2 0x435 DUP2 DUP6 PUSH2 0x28B6 JUMP JUMPDEST SUB DUP3 PUSH2 0x280C JUMP JUMPDEST DUP3 MSTORE PUSH2 0x44A PUSH1 0x1 DUP3 ADD PUSH2 0x2CA0 JUMP JUMPDEST PUSH1 0x20 DUP4 ADD MSTORE PUSH1 0x40 MLOAD SWAP2 PUSH2 0x46B DUP4 PUSH2 0x464 DUP2 PUSH1 0x2 DUP7 ADD PUSH2 0x28B6 JUMP JUMPDEST SUB DUP5 PUSH2 0x280C JUMP JUMPDEST PUSH1 0x40 DUP2 ADD SWAP3 DUP4 MSTORE PUSH1 0x40 MLOAD PUSH2 0x486 DUP2 PUSH2 0x435 DUP2 PUSH1 0x3 DUP8 ADD PUSH2 0x28B6 JUMP JUMPDEST DUP1 PUSH1 0x60 DUP4 ADD MSTORE PUSH2 0x4F5 PUSH1 0x5 PUSH1 0x4 DUP6 ADD SLOAD SWAP5 DUP6 PUSH1 0x80 DUP7 ADD MSTORE ADD SLOAD SWAP2 PUSH2 0x4E7 PUSH1 0xFF PUSH1 0x1 DUP1 PUSH1 0xA0 SHL SUB DUP6 AND SWAP5 DUP6 PUSH1 0xA0 DUP9 ADD MSTORE PUSH1 0xA0 SHR AND ISZERO ISZERO SWAP5 DUP6 PUSH1 0xC0 DUP3 ADD MSTORE MLOAD SWAP7 MLOAD PUSH1 0x40 MLOAD SWAP9 DUP10 SWAP9 PUSH1 0xC0 DUP11 MSTORE PUSH1 0xC0 DUP11 ADD SWAP1 PUSH2 0x273A JUMP JUMPDEST SWAP1 DUP9 DUP3 SUB PUSH1 0x20 DUP11 ADD MSTORE PUSH2 0x273A JUMP JUMPDEST SWAP1 DUP7 DUP3 SUB PUSH1 0x40 DUP9 ADD MSTORE PUSH2 0x273A JUMP JUMPDEST SWAP3 PUSH1 0x60 DUP6 ADD MSTORE PUSH1 0x80 DUP5 ADD MSTORE PUSH1 0xA0 DUP4 ADD MSTORE SUB SWAP1 RETURN JUMPDEST PUSH1 0x40 MLOAD PUSH3 0x461BCD PUSH1 0xE5 SHL DUP2 MSTORE PUSH1 0x20 PUSH1 0x4 DUP3 ADD MSTORE PUSH1 0x14 PUSH1 0x24 DUP3 ADD MSTORE PUSH20 0x151BDAD95B88191BD95CC81B9BDD08195E1A5CDD PUSH1 0x62 SHL PUSH1 0x44 DUP3 ADD MSTORE PUSH1 0x64 SWAP1 REVERT JUMPDEST POP CALLVALUE PUSH2 0x3D4 JUMPI PUSH1 0x40 CALLDATASIZE PUSH1 0x3 NOT ADD SLT PUSH2 0x3D4 JUMPI PUSH1 0x40 PUSH2 0x561 PUSH2 0x275E JUMP JUMPDEST SWAP2 PUSH2 0x56A PUSH2 0x2774 JUMP JUMPDEST SWAP3 PUSH1 0x1 DUP1 PUSH1 0xA0 SHL SUB AND DUP2 MSTORE PUSH1 0x5 PUSH1 0x20 MSTORE KECCAK256 SWAP1 PUSH1 0x1 DUP1 PUSH1 0xA0 SHL SUB AND PUSH0 MSTORE PUSH1 0x20 MSTORE PUSH1 0x20 PUSH1 0xFF PUSH1 0x40 PUSH0 KECCAK256 SLOAD AND PUSH1 0x40 MLOAD SWAP1 ISZERO ISZERO DUP2 MSTORE RETURN JUMPDEST POP CALLVALUE PUSH2 0x3D4 JUMPI PUSH1 0x20 CALLDATASIZE PUSH1 0x3 NOT ADD SLT PUSH2 0x3D4 JUMPI PUSH1 0x4 CALLDATALOAD DUP2 MSTORE PUSH1 0xD PUSH1 0x20 MSTORE PUSH2 0x5C5 PUSH1 0x40 DUP3 KECCAK256 PUSH2 0x2CA0 JUMP JUMPDEST SWAP1 PUSH1 0x40 MLOAD SWAP2 DUP3 SWAP2 PUSH1 0x20 DUP4 ADD PUSH1 0x20 DUP5 MSTORE DUP3 MLOAD DUP1 SWAP2 MSTORE PUSH1 0x40 DUP5 ADD PUSH1 0x20 PUSH1 0x40 DUP4 PUSH1 0x5 SHL DUP8 ADD ADD SWAP5 ADD SWAP3 SWAP1 JUMPDEST DUP3 DUP3 LT PUSH2 0x5FC JUMPI POP POP POP POP SUB SWAP1 RETURN JUMPDEST SWAP2 SWAP4 PUSH1 0x1 SWAP2 SWAP4 SWAP6 POP PUSH1 0x20 PUSH2 0x61B DUP2 SWAP3 PUSH1 0x3F NOT DUP11 DUP3 SUB ADD DUP7 MSTORE DUP9 MLOAD PUSH2 0x273A JUMP JUMPDEST SWAP7 ADD SWAP3 ADD SWAP3 ADD DUP6 SWAP5 SWAP4 SWAP2 SWAP3 PUSH2 0x5ED JUMP JUMPDEST POP CALLVALUE PUSH2 0x3D4 JUMPI PUSH1 0x40 CALLDATASIZE PUSH1 0x3 NOT ADD SLT PUSH2 0x3D4 JUMPI PUSH2 0x66F PUSH1 0x4 CALLDATALOAD PUSH2 0x64B PUSH2 0x2774 JUMP JUMPDEST SWAP1 PUSH2 0x66A PUSH2 0x665 DUP3 PUSH0 MSTORE PUSH1 0x6 PUSH1 0x20 MSTORE PUSH1 0x1 PUSH1 0x40 PUSH0 KECCAK256 ADD SLOAD SWAP1 JUMP JUMPDEST PUSH2 0x3049 JUMP JUMPDEST PUSH2 0x308D JUMP JUMPDEST DUP1 RETURN JUMPDEST POP CALLVALUE PUSH2 0x3D4 JUMPI DUP1 PUSH1 0x3 NOT CALLDATASIZE ADD SLT PUSH2 0x3D4 JUMPI PUSH1 0x20 PUSH1 0x40 MLOAD PUSH32 0x9F2DF0FED2C77648DE5860A4CC508CD0818C85B8B8A1AB4CEEEF8D981C8956A6 DUP2 MSTORE RETURN JUMPDEST POP CALLVALUE PUSH2 0x3D4 JUMPI PUSH1 0xA0 CALLDATASIZE PUSH1 0x3 NOT ADD SLT PUSH2 0x3D4 JUMPI PUSH2 0x6C7 PUSH2 0x275E JUMP JUMPDEST SWAP1 PUSH1 0x1 PUSH1 0x1 PUSH1 0x40 SHL SUB PUSH1 0x44 CALLDATALOAD GT PUSH2 0x3D4 JUMPI CALLDATASIZE PUSH1 0x23 PUSH1 0x44 CALLDATALOAD ADD SLT ISZERO PUSH2 0x3D4 JUMPI PUSH1 0x1 PUSH1 0x1 PUSH1 0x40 SHL SUB PUSH1 0x44 CALLDATALOAD PUSH1 0x4 ADD CALLDATALOAD GT PUSH2 0x3D4 JUMPI PUSH1 0x24 PUSH1 0x44 CALLDATALOAD PUSH1 0x4 ADD CALLDATALOAD PUSH1 0x5 SHL PUSH1 0x44 CALLDATALOAD ADD ADD SWAP2 CALLDATASIZE DUP4 GT PUSH2 0xEF7 JUMPI PUSH1 0x64 CALLDATALOAD PUSH1 0x1 PUSH1 0x1 PUSH1 0x40 SHL SUB DUP2 GT PUSH2 0x3D2 JUMPI PUSH2 0x731 SWAP1 CALLDATASIZE SWAP1 PUSH1 0x4 ADD PUSH2 0x27C4 JUMP JUMPDEST PUSH1 0x84 SWAP3 SWAP2 SWAP3 CALLDATALOAD PUSH1 0x1 PUSH1 0x1 PUSH1 0x40 SHL SUB DUP2 GT PUSH2 0xEF3 JUMPI PUSH2 0x753 SWAP1 CALLDATASIZE SWAP1 PUSH1 0x4 ADD PUSH2 0x27C4 JUMP JUMPDEST PUSH2 0x75E SWAP6 SWAP2 SWAP6 PUSH2 0x2F3C JUMP JUMPDEST PUSH1 0x5 PUSH1 0x24 CALLDATALOAD GT PUSH2 0xEBC JUMPI PUSH1 0x2 PUSH1 0x44 CALLDATALOAD PUSH1 0x4 ADD CALLDATALOAD LT ISZERO DUP1 PUSH2 0xEAB JUMPI JUMPDEST ISZERO PUSH2 0xE71 JUMPI PUSH2 0x7B9 SWAP7 PUSH1 0x7 SLOAD SWAP7 PUSH2 0x78F DUP9 PUSH2 0x2A3C JUMP JUMPDEST PUSH1 0x7 SSTORE PUSH2 0x79C DUP9 DUP8 PUSH2 0x31B0 JUMP JUMPDEST PUSH1 0x24 CALLDATALOAD DUP5 MSTORE PUSH1 0xC PUSH1 0x20 MSTORE PUSH2 0x7C0 PUSH1 0x40 DUP6 KECCAK256 PUSH1 0x40 MLOAD SWAP11 DUP12 DUP1 SWAP3 PUSH2 0x28B6 JUMP JUMPDEST SUB DUP11 PUSH2 0x280C JUMP JUMPDEST PUSH1 0x40 MLOAD SWAP1 PUSH2 0x7CD DUP3 PUSH2 0x27F1 JUMP JUMPDEST DUP10 DUP3 MSTORE PUSH2 0x7DF PUSH1 0x44 CALLDATALOAD PUSH1 0x4 ADD CALLDATALOAD PUSH2 0x2A5E JUMP JUMPDEST SWAP3 PUSH2 0x7ED PUSH1 0x40 MLOAD SWAP5 DUP6 PUSH2 0x280C JUMP JUMPDEST PUSH1 0x44 CALLDATALOAD PUSH1 0x4 DUP2 ADD CALLDATALOAD DUP6 MSTORE PUSH1 0x24 ADD SWAP1 PUSH1 0x20 DUP6 ADD JUMPDEST DUP2 DUP4 LT PUSH2 0xE2B JUMPI POP POP POP PUSH2 0x82F SWAP1 PUSH1 0x20 DUP4 ADD SWAP4 DUP5 MSTORE PUSH2 0x820 CALLDATASIZE DUP9 DUP12 PUSH2 0x2848 JUMP JUMPDEST SWAP5 PUSH1 0x40 DUP5 ADD SWAP6 DUP7 MSTORE CALLDATASIZE SWAP2 PUSH2 0x2848 JUMP JUMPDEST PUSH1 0x60 DUP3 ADD SWAP1 DUP2 MSTORE PUSH1 0x80 DUP3 ADD SWAP1 TIMESTAMP DUP3 MSTORE PUSH1 0xA0 DUP4 ADD SWAP5 DUP7 DUP7 MSTORE PUSH1 0xC0 DUP5 ADD SWAP5 DUP8 DUP7 MSTORE DUP12 DUP9 MSTORE PUSH1 0x8 PUSH1 0x20 MSTORE PUSH1 0x40 DUP9 KECCAK256 SWAP5 MLOAD DUP1 MLOAD SWAP1 PUSH1 0x1 PUSH1 0x1 PUSH1 0x40 SHL SUB DUP3 GT PUSH2 0xE17 JUMPI PUSH2 0x881 DUP3 PUSH2 0x87B DUP10 SLOAD PUSH2 0x287E JUMP JUMPDEST DUP10 PUSH2 0x2A8B JUMP JUMPDEST PUSH1 0x20 SWAP1 PUSH1 0x1F DUP4 GT PUSH1 0x1 EQ PUSH2 0xDB5 JUMPI PUSH2 0x8AF SWAP3 SWAP2 DUP12 SWAP2 DUP4 PUSH2 0xBCB JUMPI POP POP DUP2 PUSH1 0x1 SHL SWAP2 PUSH0 NOT SWAP1 PUSH1 0x3 SHL SHR NOT AND OR SWAP1 JUMP JUMPDEST DUP6 SSTORE JUMPDEST PUSH1 0x1 DUP6 ADD SWAP1 MLOAD SWAP1 PUSH1 0x20 DUP3 MLOAD SWAP3 PUSH2 0x8C8 DUP5 DUP5 PUSH2 0x2ACE JUMP JUMPDEST ADD SWAP1 DUP10 MSTORE PUSH1 0x20 DUP10 KECCAK256 DUP10 SWAP2 JUMPDEST DUP4 DUP4 LT PUSH2 0xCCC JUMPI POP POP POP POP PUSH1 0x2 DUP5 ADD SWAP1 MLOAD DUP1 MLOAD SWAP1 PUSH1 0x1 PUSH1 0x1 PUSH1 0x40 SHL SUB DUP3 GT PUSH2 0xCB8 JUMPI PUSH2 0x909 DUP3 PUSH2 0x903 DUP6 SLOAD PUSH2 0x287E JUMP JUMPDEST DUP6 PUSH2 0x2A8B JUMP JUMPDEST PUSH1 0x20 SWAP1 PUSH1 0x1F DUP4 GT PUSH1 0x1 EQ PUSH2 0xC56 JUMPI PUSH2 0x937 SWAP3 SWAP2 DUP11 SWAP2 DUP4 PUSH2 0xBCB JUMPI POP POP DUP2 PUSH1 0x1 SHL SWAP2 PUSH0 NOT SWAP1 PUSH1 0x3 SHL SHR NOT AND OR SWAP1 JUMP JUMPDEST SWAP1 SSTORE JUMPDEST MLOAD DUP1 MLOAD PUSH1 0x3 DUP5 ADD SWAP2 PUSH1 0x1 PUSH1 0x1 PUSH1 0x40 SHL SUB DUP3 GT PUSH2 0xC42 JUMPI PUSH2 0x95E DUP3 PUSH2 0x903 DUP6 SLOAD PUSH2 0x287E JUMP JUMPDEST PUSH1 0x20 SWAP1 PUSH1 0x1F DUP4 GT PUSH1 0x1 EQ PUSH2 0xBD6 JUMPI DUP3 PUSH1 0x5 SWAP6 SWAP4 PUSH2 0x9D5 SWAP10 SWAP9 SWAP8 SWAP6 SWAP4 PUSH2 0x997 SWAP4 DUP13 SWAP3 PUSH2 0xBCB JUMPI POP POP DUP2 PUSH1 0x1 SHL SWAP2 PUSH0 NOT SWAP1 PUSH1 0x3 SHL SHR NOT AND OR SWAP1 JUMP JUMPDEST SWAP1 SSTORE JUMPDEST MLOAD PUSH1 0x4 DUP3 ADD SSTORE SWAP3 MLOAD SWAP3 ADD DUP1 SLOAD SWAP2 MLOAD PUSH1 0x1 PUSH1 0x1 PUSH1 0xA8 SHL SUB NOT SWAP1 SWAP3 AND PUSH1 0x1 PUSH1 0x1 PUSH1 0xA0 SHL SUB SWAP4 SWAP1 SWAP4 AND SWAP3 SWAP1 SWAP3 OR SWAP1 ISZERO ISZERO PUSH1 0xA0 SHL PUSH1 0xFF PUSH1 0xA0 SHL AND OR SWAP1 SSTORE JUMP JUMPDEST DUP5 DUP2 MSTORE PUSH1 0xD PUSH1 0x20 MSTORE PUSH1 0x40 DUP2 KECCAK256 PUSH2 0x9F1 PUSH1 0x44 CALLDATALOAD PUSH1 0x4 ADD CALLDATALOAD DUP3 PUSH2 0x2ACE JUMP JUMPDEST DUP2 MSTORE PUSH1 0x20 DUP2 KECCAK256 PUSH1 0x44 CALLDATALOAD CALLDATASIZE DUP2 SWAP1 SUB PUSH1 0x42 NOT ADD SWAP1 DUP4 SWAP1 PUSH1 0x24 ADD JUMPDEST PUSH1 0x44 CALLDATALOAD PUSH1 0x4 ADD CALLDATALOAD DUP3 LT PUSH2 0xABC JUMPI PUSH1 0x20 DUP10 DUP10 DUP2 PUSH32 0xC75293173A228519BDD31083BD413729A88AA2C3B992C7400C771F84036EC424 PUSH2 0xA99 DUP16 PUSH2 0xAB1 DUP15 DUP15 PUSH1 0x40 DUP16 DUP6 MLOAD DUP13 DUP8 ADD KECCAK256 DUP2 MSTORE PUSH1 0x9 DUP13 MSTORE PUSH2 0xA60 DUP10 DUP4 DUP4 KECCAK256 PUSH2 0x2B5F JUMP JUMPDEST PUSH2 0xA68 PUSH2 0x3164 JUMP JUMPDEST DUP2 MSTORE PUSH1 0xA DUP13 MSTORE DUP2 DUP2 KECCAK256 PUSH1 0x24 CALLDATALOAD DUP3 MSTORE DUP13 MSTORE KECCAK256 PUSH2 0xA83 DUP2 SLOAD PUSH2 0x2A3C JUMP JUMPDEST SWAP1 SSTORE PUSH1 0x40 MLOAD SWAP5 DUP6 SWAP5 PUSH1 0x40 DUP7 MSTORE PUSH1 0x40 DUP7 ADD SWAP1 PUSH2 0x273A JUMP JUMPDEST DUP5 DUP2 SUB DUP12 DUP7 ADD MSTORE PUSH1 0x1 PUSH1 0x1 PUSH1 0xA0 SHL SUB SWAP1 SWAP3 AND SWAP8 PUSH2 0x2B9A JUMP JUMPDEST SUB SWAP1 LOG3 PUSH1 0x40 MLOAD SWAP1 DUP2 MSTORE RETURN JUMPDEST DUP1 CALLDATALOAD DUP4 DUP2 SLT ISZERO PUSH2 0xBC7 JUMPI PUSH1 0x44 CALLDATALOAD ADD PUSH1 0x24 DUP2 ADD CALLDATALOAD SWAP1 PUSH1 0x1 PUSH1 0x1 PUSH1 0x40 SHL SUB DUP3 GT PUSH2 0xBC3 JUMPI DUP2 CALLDATASIZE SUB PUSH1 0x44 DUP3 ADD SGT PUSH2 0xBC3 JUMPI PUSH2 0xAFE DUP3 PUSH2 0xAF8 DUP9 SLOAD PUSH2 0x287E JUMP JUMPDEST DUP9 PUSH2 0x2A8B JUMP JUMPDEST DUP7 SWAP1 PUSH1 0x1F DUP4 GT PUSH1 0x1 EQ PUSH2 0xB52 JUMPI SWAP3 PUSH2 0xB33 DUP4 PUSH1 0x1 SWAP6 SWAP5 PUSH1 0x20 SWAP5 DUP8 SWAP7 DUP13 SWAP3 PUSH2 0xB42 JUMPI POP POP DUP2 PUSH1 0x1 SHL SWAP2 PUSH0 NOT SWAP1 PUSH1 0x3 SHL SHR NOT AND OR SWAP1 JUMP JUMPDEST DUP8 SSTORE JUMPDEST ADD SWAP5 ADD SWAP2 ADD SWAP1 SWAP3 PUSH2 0xA09 JUMP JUMPDEST ADD DUP6 ADD PUSH1 0x24 ADD CALLDATALOAD SWAP1 POP PUSH0 DUP1 PUSH2 0x272 JUMP JUMPDEST DUP7 DUP9 MSTORE PUSH1 0x20 DUP9 KECCAK256 SWAP2 PUSH1 0x1F NOT DUP5 AND DUP10 JUMPDEST DUP2 DUP2 LT PUSH2 0xBA8 JUMPI POP SWAP4 PUSH1 0x20 SWAP4 PUSH1 0x1 SWAP7 SWAP4 DUP8 SWAP7 SWAP4 DUP4 DUP9 SWAP6 LT PUSH2 0xB8A JUMPI JUMPDEST POP POP POP DUP2 SHL ADD DUP8 SSTORE PUSH2 0xB36 JUMP JUMPDEST ADD DUP6 ADD PUSH1 0x24 ADD CALLDATALOAD PUSH0 NOT PUSH1 0x3 DUP5 SWAP1 SHL PUSH1 0xF8 AND SHR NOT AND SWAP1 SSTORE PUSH0 DUP1 DUP1 PUSH2 0xB7D JUMP JUMPDEST PUSH1 0x44 DUP5 DUP5 ADD ADD CALLDATALOAD DUP6 SSTORE PUSH1 0x1 SWAP1 SWAP5 ADD SWAP4 PUSH1 0x20 SWAP3 DUP4 ADD SWAP3 ADD PUSH2 0xB61 JUMP JUMPDEST DUP7 DUP1 REVERT JUMPDEST DUP6 DUP1 REVERT JUMPDEST ADD MLOAD SWAP1 POP PUSH0 DUP1 PUSH2 0x272 JUMP JUMPDEST DUP4 DUP10 MSTORE DUP2 DUP10 KECCAK256 SWAP2 SWAP1 PUSH1 0x1F NOT DUP5 AND DUP11 JUMPDEST DUP2 DUP2 LT PUSH2 0xC2A JUMPI POP SWAP3 PUSH1 0x1 SWAP3 DUP6 SWAP3 PUSH1 0x5 SWAP9 SWAP7 PUSH2 0x9D5 SWAP13 SWAP12 SWAP11 SWAP9 SWAP7 LT PUSH2 0xC12 JUMPI JUMPDEST POP POP POP DUP2 SHL ADD SWAP1 SSTORE PUSH2 0x99A JUMP JUMPDEST ADD MLOAD PUSH0 NOT PUSH1 0xF8 DUP5 PUSH1 0x3 SHL AND SHR NOT AND SWAP1 SSTORE PUSH0 DUP1 DUP1 PUSH2 0xC05 JUMP JUMPDEST SWAP3 SWAP4 PUSH1 0x20 PUSH1 0x1 DUP2 SWAP3 DUP8 DUP7 ADD MLOAD DUP2 SSTORE ADD SWAP6 ADD SWAP4 ADD PUSH2 0xBE5 JUMP JUMPDEST PUSH4 0x4E487B71 PUSH1 0xE0 SHL DUP9 MSTORE PUSH1 0x41 PUSH1 0x4 MSTORE PUSH1 0x24 DUP9 REVERT JUMPDEST DUP4 DUP11 MSTORE DUP2 DUP11 KECCAK256 SWAP2 SWAP1 PUSH1 0x1F NOT DUP5 AND DUP12 JUMPDEST DUP2 DUP2 LT PUSH2 0xCA0 JUMPI POP SWAP1 DUP5 PUSH1 0x1 SWAP6 SWAP5 SWAP4 SWAP3 LT PUSH2 0xC88 JUMPI JUMPDEST POP POP POP DUP2 SHL ADD SWAP1 SSTORE PUSH2 0x93A JUMP JUMPDEST ADD MLOAD PUSH0 NOT PUSH1 0xF8 DUP5 PUSH1 0x3 SHL AND SHR NOT AND SWAP1 SSTORE PUSH0 DUP1 DUP1 PUSH2 0xC7B JUMP JUMPDEST SWAP3 SWAP4 PUSH1 0x20 PUSH1 0x1 DUP2 SWAP3 DUP8 DUP7 ADD MLOAD DUP2 SSTORE ADD SWAP6 ADD SWAP4 ADD PUSH2 0xC65 JUMP JUMPDEST PUSH4 0x4E487B71 PUSH1 0xE0 SHL DUP10 MSTORE PUSH1 0x41 PUSH1 0x4 MSTORE PUSH1 0x24 DUP10 REVERT JUMPDEST DUP1 MLOAD DUP1 MLOAD SWAP1 PUSH1 0x1 PUSH1 0x1 PUSH1 0x40 SHL SUB DUP3 GT PUSH2 0xDA1 JUMPI PUSH2 0xCF3 DUP3 PUSH2 0xCED DUP7 SLOAD PUSH2 0x287E JUMP JUMPDEST DUP7 PUSH2 0x2A8B JUMP JUMPDEST PUSH1 0x20 SWAP1 DUP14 PUSH1 0x1F DUP5 GT PUSH1 0x1 EQ PUSH2 0xD39 JUMPI DUP4 PUSH1 0x1 SWAP6 SWAP3 SWAP5 PUSH1 0x20 SWAP5 DUP8 SWAP7 PUSH2 0xD2A SWAP5 SWAP3 PUSH2 0xBCB JUMPI POP POP DUP2 PUSH1 0x1 SHL SWAP2 PUSH0 NOT SWAP1 PUSH1 0x3 SHL SHR NOT AND OR SWAP1 JUMP JUMPDEST DUP6 SSTORE JUMPDEST ADD SWAP3 ADD SWAP3 ADD SWAP2 SWAP1 PUSH2 0x8D3 JUMP JUMPDEST SWAP2 SWAP1 PUSH1 0x1F NOT DUP5 AND DUP7 DUP5 MSTORE DUP3 DUP5 KECCAK256 SWAP4 JUMPDEST DUP2 DUP2 LT PUSH2 0xD89 JUMPI POP SWAP4 PUSH1 0x20 SWAP4 PUSH1 0x1 SWAP7 SWAP4 DUP8 SWAP7 SWAP4 DUP4 DUP9 SWAP6 LT PUSH2 0xD71 JUMPI JUMPDEST POP POP POP DUP2 SHL ADD DUP6 SSTORE PUSH2 0xD2D JUMP JUMPDEST ADD MLOAD PUSH0 NOT PUSH1 0xF8 DUP5 PUSH1 0x3 SHL AND SHR NOT AND SWAP1 SSTORE PUSH0 DUP1 DUP1 PUSH2 0xD64 JUMP JUMPDEST SWAP3 SWAP4 PUSH1 0x20 PUSH1 0x1 DUP2 SWAP3 DUP8 DUP7 ADD MLOAD DUP2 SSTORE ADD SWAP6 ADD SWAP4 ADD PUSH2 0xD48 JUMP JUMPDEST PUSH4 0x4E487B71 PUSH1 0xE0 SHL DUP14 MSTORE PUSH1 0x41 PUSH1 0x4 MSTORE PUSH1 0x24 DUP14 REVERT JUMPDEST DUP8 DUP12 MSTORE DUP2 DUP12 KECCAK256 SWAP2 SWAP1 PUSH1 0x1F NOT DUP5 AND DUP13 JUMPDEST DUP2 DUP2 LT PUSH2 0xDFF JUMPI POP SWAP1 DUP5 PUSH1 0x1 SWAP6 SWAP5 SWAP4 SWAP3 LT PUSH2 0xDE7 JUMPI JUMPDEST POP POP POP DUP2 SHL ADD DUP6 SSTORE PUSH2 0x8B2 JUMP JUMPDEST ADD MLOAD PUSH0 NOT PUSH1 0xF8 DUP5 PUSH1 0x3 SHL AND SHR NOT AND SWAP1 SSTORE PUSH0 DUP1 DUP1 PUSH2 0xDDA JUMP JUMPDEST SWAP3 SWAP4 PUSH1 0x20 PUSH1 0x1 DUP2 SWAP3 DUP8 DUP7 ADD MLOAD DUP2 SSTORE ADD SWAP6 ADD SWAP4 ADD PUSH2 0xDC4 JUMP JUMPDEST PUSH4 0x4E487B71 PUSH1 0xE0 SHL DUP11 MSTORE PUSH1 0x41 PUSH1 0x4 MSTORE PUSH1 0x24 DUP11 REVERT JUMPDEST DUP3 CALLDATALOAD PUSH1 0x1 PUSH1 0x1 PUSH1 0x40 SHL SUB DUP2 GT PUSH2 0xE6D JUMPI PUSH1 0x44 CALLDATALOAD ADD CALLDATASIZE PUSH1 0x43 DUP3 ADD SLT ISZERO PUSH2 0xE6D JUMPI PUSH1 0x20 SWAP2 PUSH2 0xE62 DUP4 SWAP3 CALLDATASIZE SWAP1 PUSH1 0x44 PUSH1 0x24 DUP3 ADD CALLDATALOAD SWAP2 ADD PUSH2 0x2848 JUMP JUMPDEST DUP2 MSTORE ADD SWAP3 ADD SWAP2 PUSH2 0x800 JUMP JUMPDEST DUP9 DUP1 REVERT JUMPDEST PUSH1 0x40 MLOAD PUSH3 0x461BCD PUSH1 0xE5 SHL DUP2 MSTORE PUSH1 0x20 PUSH1 0x4 DUP3 ADD MSTORE PUSH1 0x12 PUSH1 0x24 DUP3 ADD MSTORE PUSH18 0x125B9D985B1A590818D85C990818DBDD5B9D PUSH1 0x72 SHL PUSH1 0x44 DUP3 ADD MSTORE PUSH1 0x64 SWAP1 REVERT JUMPDEST POP PUSH1 0x7 PUSH1 0x44 CALLDATALOAD PUSH1 0x4 ADD CALLDATALOAD GT ISZERO PUSH2 0x779 JUMP JUMPDEST PUSH1 0x40 MLOAD PUSH3 0x461BCD PUSH1 0xE5 SHL DUP2 MSTORE PUSH1 0x20 PUSH1 0x4 DUP3 ADD MSTORE PUSH1 0xF PUSH1 0x24 DUP3 ADD MSTORE PUSH15 0x125B9D985B1A59081D1E5C19481251 PUSH1 0x8A SHL PUSH1 0x44 DUP3 ADD MSTORE PUSH1 0x64 SWAP1 REVERT JUMPDEST DUP5 DUP1 REVERT JUMPDEST POP DUP1 REVERT JUMPDEST CALLVALUE PUSH2 0xF6D JUMPI PUSH1 0x20 CALLDATASIZE PUSH1 0x3 NOT ADD SLT PUSH2 0xF6D JUMPI PUSH1 0x4 CALLDATALOAD PUSH0 SWAP1 DUP2 MSTORE PUSH1 0x2 PUSH1 0x20 MSTORE PUSH1 0x40 SWAP1 KECCAK256 SLOAD PUSH2 0xF31 SWAP1 PUSH1 0x1 PUSH1 0x1 PUSH1 0xA0 SHL SUB AND ISZERO ISZERO PUSH2 0x2BBA JUMP JUMPDEST PUSH0 PUSH1 0x40 MLOAD PUSH2 0xF40 PUSH1 0x20 DUP3 PUSH2 0x280C JUMP JUMPDEST MSTORE PUSH2 0xF69 PUSH1 0x40 MLOAD PUSH2 0xF52 PUSH1 0x20 DUP3 PUSH2 0x280C JUMP JUMPDEST PUSH0 DUP2 MSTORE PUSH1 0x40 MLOAD SWAP2 DUP3 SWAP2 PUSH1 0x20 DUP4 MSTORE PUSH1 0x20 DUP4 ADD SWAP1 PUSH2 0x273A JUMP JUMPDEST SUB SWAP1 RETURN JUMPDEST PUSH0 DUP1 REVERT JUMPDEST CALLVALUE PUSH2 0xF6D JUMPI PUSH1 0x20 CALLDATASIZE PUSH1 0x3 NOT ADD SLT PUSH2 0xF6D JUMPI PUSH1 0x1 PUSH1 0x1 PUSH1 0xA0 SHL SUB PUSH2 0xF92 PUSH2 0x275E JUMP JUMPDEST AND DUP1 ISZERO PUSH2 0x1017 JUMPI PUSH2 0xFAC PUSH2 0xFA5 CALLER PUSH2 0x2C2B JUMP JUMPDEST ISZERO ISZERO PUSH2 0x2CFD JUMP JUMPDEST PUSH2 0xFB5 CALLER PUSH2 0x32C4 JUMP JUMPDEST PUSH2 0xFD1 CALLER PUSH1 0x1 PUSH1 0x1 PUSH1 0xA0 SHL SUB PUSH2 0xFCA DUP5 PUSH2 0x2C06 JUMP JUMPDEST AND EQ PUSH2 0x29D5 JUMP JUMPDEST PUSH0 DUP2 DUP2 MSTORE PUSH1 0x8 PUSH1 0x20 MSTORE PUSH1 0x40 DUP2 KECCAK256 PUSH1 0x5 ADD DUP1 SLOAD PUSH1 0x1 PUSH1 0x1 PUSH1 0xA0 SHL SUB NOT AND DUP5 OR SWAP1 SSTORE PUSH32 0x1CFBC005935637E3F8ED3AF97B1A87AF94CF9A9F0C163E570E5ED7BD3446903A SWAP1 DUP1 LOG3 STOP JUMPDEST PUSH1 0x40 MLOAD PUSH3 0x461BCD PUSH1 0xE5 SHL DUP2 MSTORE PUSH1 0x20 PUSH1 0x4 DUP3 ADD MSTORE PUSH1 0x15 PUSH1 0x24 DUP3 ADD MSTORE PUSH21 0x496E76616C6964206167656E742061646472657373 PUSH1 0x58 SHL PUSH1 0x44 DUP3 ADD MSTORE PUSH1 0x64 SWAP1 REVERT JUMPDEST CALLVALUE PUSH2 0xF6D JUMPI PUSH1 0x20 CALLDATASIZE PUSH1 0x3 NOT ADD SLT PUSH2 0xF6D JUMPI PUSH1 0x4 CALLDATALOAD PUSH0 MSTORE PUSH1 0xC PUSH1 0x20 MSTORE PUSH1 0x40 PUSH0 KECCAK256 PUSH1 0x40 MLOAD SWAP1 PUSH1 0x80 DUP3 ADD SWAP2 DUP1 DUP4 LT PUSH1 0x1 PUSH1 0x1 PUSH1 0x40 SHL SUB DUP5 GT OR PUSH2 0x1104 JUMPI PUSH2 0x10F0 SWAP3 PUSH1 0x40 MSTORE PUSH1 0x60 PUSH1 0x40 MLOAD SWAP3 PUSH2 0x10B0 DUP5 PUSH2 0x10A9 DUP2 DUP5 PUSH2 0x28B6 JUMP JUMPDEST SUB DUP6 PUSH2 0x280C JUMP JUMPDEST DUP4 DUP4 MSTORE PUSH1 0xFF PUSH1 0x1 DUP3 ADD SLOAD AND SWAP3 DUP4 PUSH1 0x20 DUP3 ADD MSTORE PUSH1 0xFF PUSH1 0x3 PUSH1 0x2 DUP5 ADD SLOAD SWAP4 DUP5 PUSH1 0x40 DUP6 ADD MSTORE ADD SLOAD AND ISZERO ISZERO SWAP3 DUP4 SWAP2 ADD MSTORE PUSH1 0x40 MLOAD SWAP5 DUP6 SWAP5 PUSH1 0x80 DUP7 MSTORE PUSH1 0x80 DUP7 ADD SWAP1 PUSH2 0x273A JUMP JUMPDEST SWAP3 PUSH1 0x20 DUP6 ADD MSTORE PUSH1 0x40 DUP5 ADD MSTORE PUSH1 0x60 DUP4 ADD MSTORE SUB SWAP1 RETURN JUMPDEST PUSH4 0x4E487B71 PUSH1 0xE0 SHL PUSH0 MSTORE PUSH1 0x41 PUSH1 0x4 MSTORE PUSH1 0x24 PUSH0 REVERT JUMPDEST CALLVALUE PUSH2 0xF6D JUMPI PUSH1 0x40 CALLDATASIZE PUSH1 0x3 NOT ADD SLT PUSH2 0xF6D JUMPI PUSH1 0x4 CALLDATALOAD PUSH0 MSTORE PUSH1 0xA PUSH1 0x20 MSTORE PUSH1 0x40 PUSH0 KECCAK256 PUSH1 0x24 CALLDATALOAD PUSH0 MSTORE PUSH1 0x20 MSTORE PUSH1 0x20 PUSH1 0x40 PUSH0 KECCAK256 SLOAD PUSH1 0x40 MLOAD SWAP1 DUP2 MSTORE RETURN JUMPDEST CALLVALUE PUSH2 0xF6D JUMPI PUSH1 0x80 CALLDATASIZE PUSH1 0x3 NOT ADD SLT PUSH2 0xF6D JUMPI PUSH2 0x1167 PUSH2 0x275E JUMP JUMPDEST PUSH2 0x116F PUSH2 0x2774 JUMP JUMPDEST SWAP1 PUSH1 0x64 CALLDATALOAD SWAP1 PUSH1 0x44 CALLDATALOAD PUSH1 0x1 PUSH1 0x1 PUSH1 0x40 SHL SUB DUP4 GT PUSH2 0xF6D JUMPI CALLDATASIZE PUSH1 0x23 DUP5 ADD SLT ISZERO PUSH2 0xF6D JUMPI PUSH2 0x11D3 SWAP4 PUSH2 0x11AB PUSH2 0x11CE SWAP5 CALLDATASIZE SWAP1 PUSH1 0x24 DUP2 PUSH1 0x4 ADD CALLDATALOAD SWAP2 ADD PUSH2 0x2848 JUMP JUMPDEST SWAP3 PUSH2 0x11BE PUSH2 0x11B9 DUP5 CALLER PUSH2 0x2D49 JUMP JUMPDEST PUSH2 0x2973 JUMP JUMPDEST PUSH2 0x11C9 DUP4 DUP4 DUP4 PUSH2 0x2E18 JUMP JUMPDEST PUSH2 0x34E9 JUMP JUMPDEST PUSH2 0x33B2 JUMP JUMPDEST STOP JUMPDEST CALLVALUE PUSH2 0xF6D JUMPI PUSH0 CALLDATASIZE PUSH1 0x3 NOT ADD SLT PUSH2 0xF6D JUMPI PUSH2 0x11F1 PUSH2 0xFA5 CALLER PUSH2 0x2C2B JUMP JUMPDEST PUSH2 0x11FA CALLER PUSH2 0x32C4 JUMP JUMPDEST PUSH2 0x120F CALLER PUSH1 0x1 PUSH1 0x1 PUSH1 0xA0 SHL SUB PUSH2 0xFCA DUP5 PUSH2 0x2C06 JUMP JUMPDEST PUSH0 DUP2 DUP2 MSTORE PUSH1 0x8 PUSH1 0x20 MSTORE PUSH1 0x40 SWAP1 KECCAK256 PUSH1 0x5 ADD SLOAD PUSH1 0x1 PUSH1 0x1 PUSH1 0xA0 SHL SUB AND ISZERO PUSH2 0x1272 JUMPI PUSH0 DUP2 DUP2 MSTORE PUSH1 0x8 PUSH1 0x20 MSTORE PUSH1 0x40 DUP2 KECCAK256 PUSH1 0x5 ADD DUP1 SLOAD PUSH1 0x1 PUSH1 0x1 PUSH1 0xA0 SHL SUB NOT AND SWAP1 SSTORE PUSH32 0xD3FFFF4BEB5D819451ADB4E8E366D2C3E6699C02A7849ED0CE73A893A2773266 SWAP1 DUP1 LOG2 STOP JUMPDEST PUSH1 0x40 MLOAD PUSH3 0x461BCD PUSH1 0xE5 SHL DUP2 MSTORE PUSH1 0x20 PUSH1 0x4 DUP3 ADD MSTORE PUSH1 0xE PUSH1 0x24 DUP3 ADD MSTORE PUSH14 0x139BC81859D95B9D08189BDD5B99 PUSH1 0x92 SHL PUSH1 0x44 DUP3 ADD MSTORE PUSH1 0x64 SWAP1 REVERT JUMPDEST CALLVALUE PUSH2 0xF6D JUMPI PUSH1 0x40 CALLDATASIZE PUSH1 0x3 NOT ADD SLT PUSH2 0xF6D JUMPI PUSH2 0x12C1 PUSH2 0x275E JUMP JUMPDEST PUSH1 0x24 CALLDATALOAD SWAP1 DUP2 ISZERO ISZERO DUP1 SWAP3 SUB PUSH2 0xF6D JUMPI PUSH1 0x1 PUSH1 0x1 PUSH1 0xA0 SHL SUB AND SWAP1 CALLER DUP3 EQ PUSH2 0x1331 JUMPI CALLER PUSH0 MSTORE PUSH1 0x5 PUSH1 0x20 MSTORE PUSH1 0x40 PUSH0 KECCAK256 DUP3 PUSH0 MSTORE PUSH1 0x20 MSTORE PUSH1 0x40 PUSH0 KECCAK256 PUSH1 0xFF NOT DUP2 SLOAD AND PUSH1 0xFF DUP4 AND OR SWAP1 SSTORE PUSH1 0x40 MLOAD SWAP1 DUP2 MSTORE PUSH32 0x17307EAB39AB6107E8899845AD3D59BD9653F200F220920489CA2B5937696C31 PUSH1 0x20 CALLER SWAP3 LOG3 STOP JUMPDEST PUSH1 0x40 MLOAD PUSH3 0x461BCD PUSH1 0xE5 SHL DUP2 MSTORE PUSH1 0x20 PUSH1 0x4 DUP3 ADD MSTORE PUSH1 0x19 PUSH1 0x24 DUP3 ADD MSTORE PUSH32 0x4552433732313A20617070726F766520746F2063616C6C657200000000000000 PUSH1 0x44 DUP3 ADD MSTORE PUSH1 0x64 SWAP1 REVERT JUMPDEST CALLVALUE PUSH2 0xF6D JUMPI PUSH0 CALLDATASIZE PUSH1 0x3 NOT ADD SLT PUSH2 0xF6D JUMPI PUSH1 0x20 PUSH1 0x40 MLOAD PUSH0 DUP2 MSTORE RETURN JUMPDEST CALLVALUE PUSH2 0xF6D JUMPI PUSH0 CALLDATASIZE PUSH1 0x3 NOT ADD SLT PUSH2 0xF6D JUMPI PUSH1 0x40 MLOAD PUSH0 PUSH1 0x1 SLOAD PUSH2 0x13B0 DUP2 PUSH2 0x287E JUMP JUMPDEST DUP1 DUP5 MSTORE SWAP1 PUSH1 0x1 DUP2 AND SWAP1 DUP2 ISZERO PUSH2 0x144A JUMPI POP PUSH1 0x1 EQ PUSH2 0x13EC JUMPI JUMPDEST PUSH2 0xF69 DUP4 PUSH2 0x13D8 DUP2 DUP6 SUB DUP3 PUSH2 0x280C JUMP JUMPDEST PUSH1 0x40 MLOAD SWAP2 DUP3 SWAP2 PUSH1 0x20 DUP4 MSTORE PUSH1 0x20 DUP4 ADD SWAP1 PUSH2 0x273A JUMP JUMPDEST PUSH1 0x1 PUSH0 SWAP1 DUP2 MSTORE PUSH32 0xB10E2D527612073B26EECDFD717E6A320CF44B4AFAC2B0732D9FCBE2B7FA0CF6 SWAP4 SWAP3 POP SWAP1 JUMPDEST DUP1 DUP3 LT PUSH2 0x1430 JUMPI POP SWAP1 SWAP2 POP DUP2 ADD PUSH1 0x20 ADD PUSH2 0x13D8 PUSH2 0x13C8 JUMP JUMPDEST SWAP2 SWAP3 PUSH1 0x1 DUP2 PUSH1 0x20 SWAP3 SLOAD DUP4 DUP6 DUP9 ADD ADD MSTORE ADD SWAP2 ADD SWAP1 SWAP3 SWAP2 PUSH2 0x1418 JUMP JUMPDEST PUSH1 0xFF NOT AND PUSH1 0x20 DUP1 DUP7 ADD SWAP2 SWAP1 SWAP2 MSTORE SWAP2 ISZERO ISZERO PUSH1 0x5 SHL DUP5 ADD SWAP1 SWAP2 ADD SWAP2 POP PUSH2 0x13D8 SWAP1 POP PUSH2 0x13C8 JUMP JUMPDEST CALLVALUE PUSH2 0xF6D JUMPI PUSH1 0x40 CALLDATASIZE PUSH1 0x3 NOT ADD SLT PUSH2 0xF6D JUMPI PUSH2 0x1487 PUSH2 0x2774 JUMP JUMPDEST PUSH1 0x4 CALLDATALOAD PUSH0 MSTORE PUSH1 0x6 PUSH1 0x20 MSTORE PUSH1 0x40 PUSH0 KECCAK256 SWAP1 PUSH1 0x1 DUP1 PUSH1 0xA0 SHL SUB AND PUSH0 MSTORE PUSH1 0x20 MSTORE PUSH1 0x20 PUSH1 0xFF PUSH1 0x40 PUSH0 KECCAK256 SLOAD AND PUSH1 0x40 MLOAD SWAP1 ISZERO ISZERO DUP2 MSTORE RETURN JUMPDEST CALLVALUE PUSH2 0xF6D JUMPI PUSH1 0x20 CALLDATASIZE PUSH1 0x3 NOT ADD SLT PUSH2 0xF6D JUMPI PUSH2 0x14D0 PUSH2 0x275E JUMP JUMPDEST PUSH1 0x1 PUSH1 0x1 PUSH1 0xA0 SHL SUB DUP2 AND SWAP1 DUP2 ISZERO PUSH2 0x19FD JUMPI PUSH2 0x14EA CALLER PUSH2 0x32C4 JUMP JUMPDEST SWAP1 DUP2 PUSH0 MSTORE PUSH1 0x8 PUSH1 0x20 MSTORE PUSH1 0x40 PUSH0 KECCAK256 SWAP3 PUSH1 0x40 MLOAD PUSH2 0x1504 DUP2 PUSH2 0x27F1 JUMP JUMPDEST PUSH1 0x40 MLOAD PUSH2 0x1515 DUP2 PUSH2 0x435 DUP2 DUP10 PUSH2 0x28B6 JUMP JUMPDEST DUP2 MSTORE PUSH2 0x1523 PUSH1 0x1 DUP7 ADD PUSH2 0x2CA0 JUMP JUMPDEST SWAP5 PUSH1 0x20 DUP3 ADD SWAP6 DUP7 MSTORE PUSH1 0x40 MLOAD PUSH2 0x153F DUP2 PUSH2 0x435 DUP2 PUSH1 0x2 DUP7 ADD PUSH2 0x28B6 JUMP JUMPDEST PUSH1 0x40 DUP4 ADD SWAP1 DUP2 MSTORE PUSH1 0xFF PUSH1 0x5 PUSH1 0x40 MLOAD SWAP4 PUSH2 0x1566 DUP6 PUSH2 0x155F DUP2 PUSH1 0x3 DUP6 ADD PUSH2 0x28B6 JUMP JUMPDEST SUB DUP7 PUSH2 0x280C JUMP JUMPDEST PUSH1 0x60 DUP7 ADD SWAP5 DUP6 MSTORE PUSH1 0x4 DUP2 ADD SLOAD PUSH1 0x80 DUP8 ADD MSTORE ADD SLOAD PUSH1 0x1 DUP1 PUSH1 0xA0 SHL SUB DUP2 AND PUSH1 0xA0 DUP7 ADD MSTORE PUSH1 0xA0 SHR AND ISZERO ISZERO PUSH1 0xC0 DUP5 ADD MSTORE PUSH2 0x159C DUP4 MLOAD PUSH2 0x310E JUMP JUMPDEST PUSH0 MSTORE PUSH1 0xC PUSH1 0x20 MSTORE PUSH1 0xFF PUSH1 0x3 PUSH1 0x40 PUSH0 KECCAK256 ADD SLOAD AND ISZERO PUSH2 0x19B8 JUMPI PUSH2 0x15CC PUSH1 0x7 SLOAD DUP1 SWAP7 PUSH2 0x15C4 DUP3 PUSH2 0x2A3C JUMP JUMPDEST PUSH1 0x7 SSTORE PUSH2 0x31B0 JUMP JUMPDEST DUP3 MLOAD SWAP7 MLOAD SWAP1 MLOAD SWAP2 MLOAD SWAP7 PUSH1 0x40 MLOAD SWAP1 PUSH2 0x15E2 DUP3 PUSH2 0x27F1 JUMP JUMPDEST DUP2 MSTORE PUSH1 0x20 DUP2 ADD SWAP2 DUP3 MSTORE PUSH1 0x40 DUP2 ADD SWAP3 DUP4 MSTORE PUSH1 0x60 DUP2 ADD SWAP8 DUP9 MSTORE PUSH1 0x80 DUP2 ADD TIMESTAMP DUP2 MSTORE PUSH1 0xA0 DUP3 ADD SWAP4 PUSH0 DUP6 MSTORE PUSH1 0xC0 DUP4 ADD SWAP4 PUSH0 DUP6 MSTORE DUP9 PUSH0 MSTORE PUSH1 0x8 PUSH1 0x20 MSTORE PUSH1 0x40 PUSH0 KECCAK256 SWAP4 MLOAD DUP1 MLOAD SWAP1 PUSH1 0x1 PUSH1 0x1 PUSH1 0x40 SHL SUB DUP3 GT PUSH2 0x1104 JUMPI PUSH2 0x163D DUP3 PUSH2 0xAF8 DUP9 SLOAD PUSH2 0x287E JUMP JUMPDEST PUSH1 0x20 SWAP1 PUSH1 0x1F DUP4 GT PUSH1 0x1 EQ PUSH2 0x1955 JUMPI PUSH2 0x166B SWAP3 SWAP2 PUSH0 SWAP2 DUP4 PUSH2 0x194A JUMPI POP POP DUP2 PUSH1 0x1 SHL SWAP2 PUSH0 NOT SWAP1 PUSH1 0x3 SHL SHR NOT AND OR SWAP1 JUMP JUMPDEST DUP5 SSTORE JUMPDEST PUSH1 0x1 DUP5 ADD SWAP1 MLOAD PUSH1 0x20 DUP2 MLOAD SWAP2 PUSH2 0x1683 DUP4 DUP6 PUSH2 0x2ACE JUMP JUMPDEST ADD SWAP2 PUSH0 MSTORE PUSH1 0x20 PUSH0 KECCAK256 SWAP2 PUSH0 SWAP1 JUMPDEST DUP3 DUP3 LT PUSH2 0x187B JUMPI POP POP POP POP PUSH1 0x2 DUP4 ADD SWAP1 MLOAD DUP1 MLOAD SWAP1 PUSH1 0x1 PUSH1 0x1 PUSH1 0x40 SHL SUB DUP3 GT PUSH2 0x1104 JUMPI PUSH2 0x16BF DUP3 PUSH2 0x903 DUP6 SLOAD PUSH2 0x287E JUMP JUMPDEST PUSH1 0x20 SWAP1 PUSH1 0x1F DUP4 GT PUSH1 0x1 EQ PUSH2 0x1818 JUMPI PUSH2 0x16ED SWAP3 SWAP2 PUSH0 SWAP2 DUP4 PUSH2 0x180D JUMPI POP POP DUP2 PUSH1 0x1 SHL SWAP2 PUSH0 NOT SWAP1 PUSH1 0x3 SHL SHR NOT AND OR SWAP1 JUMP JUMPDEST SWAP1 SSTORE JUMPDEST PUSH1 0x3 DUP3 ADD SWAP9 MLOAD SWAP9 DUP10 MLOAD PUSH1 0x1 PUSH1 0x1 PUSH1 0x40 SHL SUB DUP2 GT PUSH2 0x1104 JUMPI PUSH1 0x20 SWAP11 PUSH2 0x1718 DUP3 PUSH2 0x903 DUP6 SLOAD PUSH2 0x287E JUMP JUMPDEST DUP12 SWAP1 PUSH1 0x1F DUP4 GT PUSH1 0x1 EQ PUSH2 0x17A2 JUMPI DUP3 PUSH1 0x5 SWAP6 SWAP4 PUSH2 0x1750 SWAP10 SWAP9 SWAP8 SWAP6 SWAP4 PUSH2 0x997 SWAP4 PUSH0 SWAP3 PUSH2 0x1797 JUMPI POP POP DUP2 PUSH1 0x1 SHL SWAP2 PUSH0 NOT SWAP1 PUSH1 0x3 SHL SHR NOT AND OR SWAP1 JUMP JUMPDEST MLOAD DUP5 DUP2 MLOAD SWAP2 ADD KECCAK256 PUSH0 MSTORE PUSH1 0x9 DUP5 MSTORE PUSH2 0x176A DUP3 PUSH1 0x40 PUSH0 KECCAK256 PUSH2 0x2B5F JUMP JUMPDEST DUP2 PUSH1 0x40 MLOAD SWAP4 PUSH32 0xAE70533DF440A7B44061C964CED6D9B99B31AB42E146AC886F34502284CD79FD PUSH0 DUP1 LOG4 DUP2 MSTORE RETURN JUMPDEST ADD MLOAD SWAP1 POP DUP16 DUP1 PUSH2 0x272 JUMP JUMPDEST SWAP1 PUSH1 0x1F NOT DUP4 AND SWAP2 DUP5 PUSH0 MSTORE DUP2 PUSH0 KECCAK256 SWAP3 PUSH0 JUMPDEST DUP2 DUP2 LT PUSH2 0x17F6 JUMPI POP SWAP3 PUSH1 0x1 SWAP3 DUP6 SWAP3 PUSH1 0x5 SWAP9 SWAP7 PUSH2 0x1750 SWAP13 SWAP12 SWAP11 SWAP9 SWAP7 LT PUSH2 0x17DE JUMPI POP POP POP DUP2 SHL ADD SWAP1 SSTORE PUSH2 0x99A JUMP JUMPDEST ADD MLOAD PUSH0 NOT PUSH1 0xF8 DUP5 PUSH1 0x3 SHL AND SHR NOT AND SWAP1 SSTORE DUP15 DUP1 DUP1 PUSH2 0xC05 JUMP JUMPDEST SWAP3 SWAP4 DUP16 PUSH1 0x1 DUP2 SWAP3 DUP8 DUP7 ADD MLOAD DUP2 SSTORE ADD SWAP6 ADD SWAP4 ADD PUSH2 0x17B2 JUMP JUMPDEST ADD MLOAD SWAP1 POP DUP14 DUP1 PUSH2 0x272 JUMP JUMPDEST SWAP1 PUSH1 0x1F NOT DUP4 AND SWAP2 DUP5 PUSH0 MSTORE DUP2 PUSH0 KECCAK256 SWAP3 PUSH0 JUMPDEST DUP2 DUP2 LT PUSH2 0x1863 JUMPI POP SWAP1 DUP5 PUSH1 0x1 SWAP6 SWAP5 SWAP4 SWAP3 LT PUSH2 0x184B JUMPI JUMPDEST POP POP POP DUP2 SHL ADD SWAP1 SSTORE PUSH2 0x16F0 JUMP JUMPDEST ADD MLOAD PUSH0 NOT PUSH1 0xF8 DUP5 PUSH1 0x3 SHL AND SHR NOT AND SWAP1 SSTORE DUP13 DUP1 DUP1 PUSH2 0x183E JUMP JUMPDEST SWAP3 SWAP4 PUSH1 0x20 PUSH1 0x1 DUP2 SWAP3 DUP8 DUP7 ADD MLOAD DUP2 SSTORE ADD SWAP6 ADD SWAP4 ADD PUSH2 0x1828 JUMP JUMPDEST DUP1 MLOAD DUP1 MLOAD SWAP1 PUSH1 0x1 PUSH1 0x1 PUSH1 0x40 SHL SUB DUP3 GT PUSH2 0x1104 JUMPI PUSH2 0x189C DUP3 PUSH2 0xAF8 DUP9 SLOAD PUSH2 0x287E JUMP JUMPDEST PUSH1 0x20 SWAP1 PUSH1 0x1F DUP4 GT PUSH1 0x1 EQ PUSH2 0x18E1 JUMPI SWAP3 PUSH2 0x18D2 DUP4 PUSH1 0x1 SWAP6 SWAP5 PUSH1 0x20 SWAP5 DUP8 SWAP7 PUSH0 SWAP3 PUSH2 0xBCB JUMPI POP POP DUP2 PUSH1 0x1 SHL SWAP2 PUSH0 NOT SWAP1 PUSH1 0x3 SHL SHR NOT AND OR SWAP1 JUMP JUMPDEST DUP8 SSTORE JUMPDEST ADD SWAP5 ADD SWAP2 ADD SWAP1 SWAP3 PUSH2 0x168F JUMP JUMPDEST SWAP1 PUSH1 0x1F NOT DUP4 AND SWAP2 DUP8 PUSH0 MSTORE DUP2 PUSH0 KECCAK256 SWAP3 PUSH0 JUMPDEST DUP2 DUP2 LT PUSH2 0x1932 JUMPI POP SWAP4 PUSH1 0x20 SWAP4 PUSH1 0x1 SWAP7 SWAP4 DUP8 SWAP7 SWAP4 DUP4 DUP9 SWAP6 LT PUSH2 0x191A JUMPI JUMPDEST POP POP POP DUP2 SHL ADD DUP8 SSTORE PUSH2 0x18D5 JUMP JUMPDEST ADD MLOAD PUSH0 NOT PUSH1 0xF8 DUP5 PUSH1 0x3 SHL AND SHR NOT AND SWAP1 SSTORE PUSH0 DUP1 DUP1 PUSH2 0x190D JUMP JUMPDEST SWAP3 SWAP4 PUSH1 0x20 PUSH1 0x1 DUP2 SWAP3 DUP8 DUP7 ADD MLOAD DUP2 SSTORE ADD SWAP6 ADD SWAP4 ADD PUSH2 0x18F1 JUMP JUMPDEST ADD MLOAD SWAP1 POP DUP15 DUP1 PUSH2 0x272 JUMP JUMPDEST SWAP1 PUSH1 0x1F NOT DUP4 AND SWAP2 DUP8 PUSH0 MSTORE DUP2 PUSH0 KECCAK256 SWAP3 PUSH0 JUMPDEST DUP2 DUP2 LT PUSH2 0x19A0 JUMPI POP SWAP1 DUP5 PUSH1 0x1 SWAP6 SWAP5 SWAP4 SWAP3 LT PUSH2 0x1988 JUMPI JUMPDEST POP POP POP DUP2 SHL ADD DUP5 SSTORE PUSH2 0x166E JUMP JUMPDEST ADD MLOAD PUSH0 NOT PUSH1 0xF8 DUP5 PUSH1 0x3 SHL AND SHR NOT AND SWAP1 SSTORE DUP14 DUP1 DUP1 PUSH2 0x197B JUMP JUMPDEST SWAP3 SWAP4 PUSH1 0x20 PUSH1 0x1 DUP2 SWAP3 DUP8 DUP7 ADD MLOAD DUP2 SSTORE ADD SWAP6 ADD SWAP4 ADD PUSH2 0x1965 JUMP JUMPDEST PUSH1 0x40 MLOAD PUSH3 0x461BCD PUSH1 0xE5 SHL DUP2 MSTORE PUSH1 0x20 PUSH1 0x4 DUP3 ADD MSTORE PUSH1 0x1A PUSH1 0x24 DUP3 ADD MSTORE PUSH32 0x5468697320747970652063616E6E6F7420626520636C6F6E6564000000000000 PUSH1 0x44 DUP3 ADD MSTORE PUSH1 0x64 SWAP1 REVERT JUMPDEST PUSH1 0x40 MLOAD PUSH3 0x461BCD PUSH1 0xE5 SHL DUP2 MSTORE PUSH1 0x20 PUSH1 0x4 DUP3 ADD MSTORE PUSH1 0xD PUSH1 0x24 DUP3 ADD MSTORE PUSH13 0x24B73B30B634B21037BBB732B9 PUSH1 0x99 SHL PUSH1 0x44 DUP3 ADD MSTORE PUSH1 0x64 SWAP1 REVERT JUMPDEST CALLVALUE PUSH2 0xF6D JUMPI PUSH0 CALLDATASIZE PUSH1 0x3 NOT ADD SLT PUSH2 0xF6D JUMPI PUSH1 0x20 PUSH1 0x40 MLOAD PUSH1 0x4 DUP2 MSTORE RETURN JUMPDEST CALLVALUE PUSH2 0xF6D JUMPI PUSH0 CALLDATASIZE PUSH1 0x3 NOT ADD SLT PUSH2 0xF6D JUMPI PUSH1 0x20 PUSH1 0x40 MLOAD PUSH1 0x1 DUP2 MSTORE RETURN JUMPDEST CALLVALUE PUSH2 0xF6D JUMPI PUSH1 0x20 CALLDATASIZE PUSH1 0x3 NOT ADD SLT PUSH2 0xF6D JUMPI PUSH1 0x20 PUSH2 0x1A8B PUSH2 0x1A86 PUSH2 0x275E JUMP JUMPDEST PUSH2 0x2C2B JUMP JUMPDEST PUSH1 0x40 MLOAD SWAP1 DUP2 MSTORE RETURN JUMPDEST CALLVALUE PUSH2 0xF6D JUMPI PUSH1 0x20 CALLDATASIZE PUSH1 0x3 NOT ADD SLT PUSH2 0xF6D JUMPI PUSH2 0x1AAC PUSH2 0x3164 JUMP JUMPDEST PUSH0 MSTORE PUSH1 0xA PUSH1 0x20 MSTORE PUSH1 0x40 PUSH0 KECCAK256 PUSH1 0x4 CALLDATALOAD PUSH0 MSTORE PUSH1 0x20 MSTORE PUSH1 0x20 PUSH1 0x40 PUSH0 KECCAK256 SLOAD PUSH1 0x40 MLOAD SWAP1 DUP2 MSTORE RETURN JUMPDEST CALLVALUE PUSH2 0xF6D JUMPI PUSH1 0x20 CALLDATASIZE PUSH1 0x3 NOT ADD SLT PUSH2 0xF6D JUMPI PUSH1 0x20 PUSH2 0x1AEC PUSH1 0x4 CALLDATALOAD PUSH2 0x2C06 JUMP JUMPDEST PUSH1 0x40 MLOAD PUSH1 0x1 PUSH1 0x1 PUSH1 0xA0 SHL SUB SWAP1 SWAP2 AND DUP2 MSTORE RETURN JUMPDEST CALLVALUE PUSH2 0xF6D JUMPI PUSH1 0x80 CALLDATASIZE PUSH1 0x3 NOT ADD SLT PUSH2 0xF6D JUMPI PUSH2 0x1B17 PUSH2 0x275E JUMP JUMPDEST PUSH1 0x24 CALLDATALOAD PUSH1 0x1 PUSH1 0x1 PUSH1 0x40 SHL SUB DUP2 GT PUSH2 0xF6D JUMPI PUSH2 0x1B36 SWAP1 CALLDATASIZE SWAP1 PUSH1 0x4 ADD PUSH2 0x27C4 JUMP JUMPDEST SWAP2 SWAP1 PUSH1 0x44 CALLDATALOAD PUSH1 0x1 PUSH1 0x1 PUSH1 0x40 SHL SUB DUP2 GT PUSH2 0xF6D JUMPI PUSH2 0x1B57 SWAP1 CALLDATASIZE SWAP1 PUSH1 0x4 ADD PUSH2 0x27C4 JUMP JUMPDEST SWAP4 SWAP1 SWAP3 PUSH1 0x64 CALLDATALOAD PUSH1 0x1 PUSH1 0x1 PUSH1 0x40 SHL SUB DUP2 GT PUSH2 0xF6D JUMPI PUSH2 0x1B79 SWAP1 CALLDATASIZE SWAP1 PUSH1 0x4 ADD PUSH2 0x27C4 JUMP JUMPDEST SWAP1 PUSH2 0x1B82 PUSH2 0x2F3C JUMP JUMPDEST PUSH1 0x1 PUSH1 0x1 PUSH1 0xA0 SHL SUB DUP4 AND ISZERO PUSH2 0x21D7 JUMPI DUP4 ISZERO PUSH2 0x219E JUMPI PUSH2 0x1BAA PUSH2 0x1BA5 CALLDATASIZE DUP7 DUP9 PUSH2 0x2848 JUMP JUMPDEST PUSH2 0x310E JUMP JUMPDEST PUSH0 NOT DUP2 EQ PUSH2 0x2165 JUMPI PUSH2 0x1BBA PUSH2 0x3164 JUMP JUMPDEST DUP1 PUSH0 MSTORE PUSH1 0xA PUSH1 0x20 MSTORE PUSH1 0x40 PUSH0 KECCAK256 DUP3 PUSH0 MSTORE PUSH1 0x20 MSTORE PUSH1 0x40 PUSH0 KECCAK256 PUSH2 0x1BDA DUP2 SLOAD PUSH2 0x2A3C JUMP JUMPDEST SWAP1 SSTORE PUSH0 MSTORE PUSH1 0xA PUSH1 0x20 MSTORE PUSH1 0x40 PUSH0 KECCAK256 DUP2 PUSH0 MSTORE PUSH1 0x20 MSTORE PUSH1 0x40 PUSH0 KECCAK256 SLOAD SWAP1 PUSH0 MSTORE PUSH1 0xC PUSH1 0x20 MSTORE PUSH1 0x2 PUSH1 0x40 PUSH0 KECCAK256 ADD SLOAD LT PUSH2 0x210F JUMPI PUSH1 0x7 SLOAD PUSH1 0x80 MSTORE PUSH2 0x1C18 PUSH1 0x80 MLOAD PUSH2 0x2A3C JUMP JUMPDEST PUSH1 0x7 SSTORE PUSH2 0x1C27 PUSH1 0x80 MLOAD DUP5 PUSH2 0x31B0 JUMP JUMPDEST PUSH1 0x20 PUSH1 0xA0 DUP2 SWAP1 MSTORE PUSH1 0x40 MLOAD SWAP2 PUSH2 0x1C7C SWAP2 PUSH2 0x1C40 SWAP1 DUP5 PUSH2 0x280C JUMP JUMPDEST PUSH0 DUP4 MSTORE PUSH1 0x40 MLOAD SWAP4 PUSH2 0x1C50 DUP6 PUSH2 0x27F1 JUMP JUMPDEST PUSH2 0x1C5B CALLDATASIZE DUP9 DUP11 PUSH2 0x2848 JUMP JUMPDEST DUP6 MSTORE PUSH1 0xA0 MLOAD DUP6 ADD SWAP4 DUP5 MSTORE PUSH2 0x1C70 CALLDATASIZE DUP12 DUP12 PUSH2 0x2848 JUMP JUMPDEST PUSH1 0x40 DUP7 ADD MSTORE CALLDATASIZE SWAP2 PUSH2 0x2848 JUMP JUMPDEST PUSH1 0x60 DUP4 ADD MSTORE TIMESTAMP PUSH1 0x80 DUP4 ADD MSTORE PUSH0 PUSH1 0xA0 DUP4 ADD MSTORE PUSH0 PUSH1 0xC0 DUP4 ADD MSTORE PUSH1 0x80 MLOAD PUSH0 MSTORE PUSH1 0x8 PUSH1 0xA0 MLOAD MSTORE PUSH1 0x40 PUSH0 KECCAK256 SWAP1 DUP3 MLOAD DUP1 MLOAD SWAP1 PUSH1 0x1 PUSH1 0x1 PUSH1 0x40 SHL SUB DUP3 GT PUSH2 0x1104 JUMPI PUSH2 0x1CC4 DUP3 PUSH2 0xCED DUP7 SLOAD PUSH2 0x287E JUMP JUMPDEST PUSH1 0xA0 MLOAD SWAP1 PUSH1 0x1F DUP4 GT PUSH1 0x1 EQ PUSH2 0x20A9 JUMPI PUSH2 0x1CF3 SWAP3 SWAP2 PUSH0 SWAP2 DUP4 PUSH2 0x1F64 JUMPI POP POP DUP2 PUSH1 0x1 SHL SWAP2 PUSH0 NOT SWAP1 PUSH1 0x3 SHL SHR NOT AND OR SWAP1 JUMP JUMPDEST DUP3 SSTORE JUMPDEST MLOAD DUP1 MLOAD PUSH1 0x1 DUP4 ADD SWAP2 PUSH2 0x1D08 DUP3 DUP5 PUSH2 0x2ACE JUMP JUMPDEST PUSH1 0xA0 MLOAD PUSH0 SWAP4 DUP5 MSTORE DUP1 DUP5 KECCAK256 SWAP4 SWAP2 ADD JUMPDEST DUP3 DUP3 LT PUSH2 0x1FD5 JUMPI POP POP POP POP PUSH1 0x2 DUP2 ADD PUSH1 0x40 DUP4 ADD MLOAD DUP1 MLOAD SWAP1 PUSH1 0x1 PUSH1 0x1 PUSH1 0x40 SHL SUB DUP3 GT PUSH2 0x1104 JUMPI PUSH2 0x1D49 DUP3 PUSH2 0x903 DUP6 SLOAD PUSH2 0x287E JUMP JUMPDEST PUSH1 0xA0 MLOAD SWAP1 PUSH1 0x1F DUP4 GT PUSH1 0x1 EQ PUSH2 0x1F6F JUMPI PUSH2 0x1D78 SWAP3 SWAP2 PUSH0 SWAP2 DUP4 PUSH2 0x1F64 JUMPI POP POP DUP2 PUSH1 0x1 SHL SWAP2 PUSH0 NOT SWAP1 PUSH1 0x3 SHL SHR NOT AND OR SWAP1 JUMP JUMPDEST SWAP1 SSTORE JUMPDEST PUSH1 0x60 DUP3 ADD MLOAD DUP1 MLOAD SWAP1 PUSH1 0x1 PUSH1 0x1 PUSH1 0x40 SHL SUB DUP3 GT PUSH2 0x1104 JUMPI PUSH2 0x1DAB DUP3 PUSH2 0x1DA2 PUSH1 0x3 DUP7 ADD SLOAD PUSH2 0x287E JUMP JUMPDEST PUSH1 0x3 DUP7 ADD PUSH2 0x2A8B JUMP JUMPDEST PUSH1 0xA0 MLOAD SWAP1 PUSH1 0x1F DUP4 GT PUSH1 0x1 EQ PUSH2 0x1EC6 JUMPI PUSH1 0x5 PUSH32 0xC75293173A228519BDD31083BD413729A88AA2C3B992C7400C771F84036EC424 SWAP9 SWAP8 SWAP7 SWAP5 PUSH2 0x1E0B DUP6 PUSH2 0x1E58 SWAP7 PUSH2 0x1EB5 SWAP10 SWAP7 PUSH1 0xC0 SWAP7 PUSH0 SWAP3 PUSH2 0x1797 JUMPI POP POP DUP2 PUSH1 0x1 SHL SWAP2 PUSH0 NOT SWAP1 PUSH1 0x3 SHL SHR NOT AND OR SWAP1 JUMP JUMPDEST PUSH1 0x3 DUP3 ADD SSTORE JUMPDEST PUSH1 0x80 DUP5 ADD MLOAD PUSH1 0x4 DUP3 ADD SSTORE PUSH1 0xA0 DUP1 DUP6 ADD MLOAD SWAP3 SWAP1 SWAP2 ADD DUP1 SLOAD SWAP4 SWAP1 SWAP5 ADD MLOAD PUSH1 0x1 PUSH1 0x1 PUSH1 0xA8 SHL SUB NOT SWAP1 SWAP4 AND PUSH1 0x1 PUSH1 0x1 PUSH1 0xA0 SHL SUB SWAP3 SWAP1 SWAP3 AND SWAP2 SWAP1 SWAP2 OR SWAP2 ISZERO ISZERO SWAP1 SHL PUSH1 0xFF PUSH1 0xA0 SHL AND OR SWAP1 SSTORE JUMP JUMPDEST PUSH2 0x1E63 CALLDATASIZE DUP5 DUP7 PUSH2 0x2848 JUMP JUMPDEST DUP1 MLOAD SWAP1 PUSH1 0xA0 MLOAD ADD KECCAK256 PUSH0 MSTORE PUSH1 0x9 PUSH1 0xA0 MLOAD MSTORE PUSH2 0x1E82 PUSH1 0x80 MLOAD PUSH1 0x40 PUSH0 KECCAK256 PUSH2 0x2B5F JUMP JUMPDEST PUSH2 0x1E99 PUSH1 0x40 MLOAD SWAP5 DUP6 SWAP5 PUSH1 0x40 DUP7 MSTORE PUSH1 0x40 DUP7 ADD SWAP2 PUSH2 0x2B9A JUMP JUMPDEST SWAP1 DUP4 DUP3 SUB PUSH1 0xA0 MLOAD DUP6 ADD MSTORE PUSH1 0x1 DUP1 PUSH1 0xA0 SHL SUB AND SWAP7 PUSH1 0x80 MLOAD SWAP7 PUSH2 0x2B9A JUMP JUMPDEST SUB SWAP1 LOG3 PUSH1 0x40 MLOAD PUSH1 0x80 MLOAD DUP2 MSTORE PUSH1 0xA0 MLOAD SWAP1 RETURN JUMPDEST SWAP1 PUSH1 0x3 DUP5 ADD PUSH0 MSTORE PUSH1 0xA0 MLOAD PUSH0 KECCAK256 SWAP2 PUSH0 JUMPDEST PUSH1 0x1F NOT DUP6 AND DUP2 LT PUSH2 0x1F4B JUMPI POP PUSH32 0xC75293173A228519BDD31083BD413729A88AA2C3B992C7400C771F84036EC424 SWAP9 SWAP8 SWAP7 SWAP5 PUSH1 0x1 DUP6 PUSH2 0x1EB5 SWAP9 SWAP6 PUSH1 0xC0 SWAP6 PUSH1 0x5 SWAP6 PUSH2 0x1E58 SWAP10 PUSH1 0x1F NOT DUP2 AND LT PUSH2 0x1F33 JUMPI JUMPDEST POP POP POP DUP2 SHL ADD PUSH1 0x3 DUP3 ADD SSTORE PUSH2 0x1E11 JUMP JUMPDEST ADD MLOAD PUSH0 NOT PUSH1 0xF8 DUP5 PUSH1 0x3 SHL AND SHR NOT AND SWAP1 SSTORE DUP15 DUP1 DUP1 PUSH2 0x1F23 JUMP JUMPDEST DUP2 DUP4 ADD MLOAD DUP5 SSTORE PUSH1 0xA0 MLOAD PUSH1 0x1 SWAP1 SWAP5 ADD SWAP4 SWAP3 DUP4 ADD SWAP3 ADD PUSH2 0x1ED5 JUMP JUMPDEST ADD MLOAD SWAP1 POP DUP12 DUP1 PUSH2 0x272 JUMP JUMPDEST SWAP1 PUSH1 0x1F NOT DUP4 AND SWAP2 DUP5 PUSH0 MSTORE PUSH1 0xA0 MLOAD PUSH0 KECCAK256 SWAP3 PUSH0 JUMPDEST DUP2 DUP2 LT PUSH2 0x1FBC JUMPI POP SWAP1 DUP5 PUSH1 0x1 SWAP6 SWAP5 SWAP4 SWAP3 LT PUSH2 0x1FA4 JUMPI JUMPDEST POP POP POP DUP2 SHL ADD SWAP1 SSTORE PUSH2 0x1D7B JUMP JUMPDEST ADD MLOAD PUSH0 NOT PUSH1 0xF8 DUP5 PUSH1 0x3 SHL AND SHR NOT AND SWAP1 SSTORE DUP11 DUP1 DUP1 PUSH2 0x1F97 JUMP JUMPDEST DUP3 DUP5 ADD MLOAD DUP6 SSTORE PUSH1 0xA0 MLOAD PUSH1 0x1 SWAP1 SWAP6 ADD SWAP5 SWAP4 DUP5 ADD SWAP4 ADD PUSH2 0x1F81 JUMP JUMPDEST DUP1 MLOAD DUP1 MLOAD SWAP1 PUSH1 0x1 PUSH1 0x1 PUSH1 0x40 SHL SUB DUP3 GT PUSH2 0x1104 JUMPI PUSH2 0x1FF6 DUP3 PUSH2 0xAF8 DUP9 SLOAD PUSH2 0x287E JUMP JUMPDEST PUSH1 0xA0 MLOAD SWAP1 PUSH1 0x1F DUP4 GT PUSH1 0x1 EQ PUSH2 0x203D JUMPI DUP3 PUSH1 0x1 SWAP5 SWAP3 SWAP4 DUP6 SWAP5 PUSH2 0x202B SWAP4 PUSH0 SWAP3 PUSH2 0xBCB JUMPI POP POP DUP2 PUSH1 0x1 SHL SWAP2 PUSH0 NOT SWAP1 PUSH1 0x3 SHL SHR NOT AND OR SWAP1 JUMP JUMPDEST DUP7 SSTORE JUMPDEST PUSH1 0xA0 MLOAD ADD SWAP5 ADD SWAP2 ADD SWAP1 SWAP3 PUSH2 0x1D16 JUMP JUMPDEST SWAP1 DUP7 PUSH0 MSTORE PUSH1 0xA0 MLOAD PUSH0 KECCAK256 SWAP2 PUSH0 JUMPDEST PUSH1 0x1F NOT DUP6 AND DUP2 LT PUSH2 0x2090 JUMPI POP SWAP3 PUSH1 0x1 SWAP5 SWAP3 DUP6 SWAP5 SWAP3 DUP6 SWAP4 DUP4 PUSH1 0x1F NOT DUP2 AND LT PUSH2 0x2078 JUMPI JUMPDEST POP POP POP DUP2 SHL ADD DUP7 SSTORE PUSH2 0x202E JUMP JUMPDEST ADD MLOAD PUSH0 NOT PUSH1 0xF8 DUP5 PUSH1 0x3 SHL AND SHR NOT AND SWAP1 SSTORE DUP16 DUP1 DUP1 PUSH2 0x206B JUMP JUMPDEST DUP2 DUP4 ADD MLOAD DUP5 SSTORE PUSH1 0xA0 MLOAD PUSH1 0x1 SWAP1 SWAP5 ADD SWAP4 SWAP3 DUP4 ADD SWAP3 ADD PUSH2 0x2049 JUMP JUMPDEST SWAP1 PUSH1 0x1F NOT DUP4 AND SWAP2 DUP6 PUSH0 MSTORE PUSH1 0xA0 MLOAD PUSH0 KECCAK256 SWAP3 PUSH0 JUMPDEST DUP2 DUP2 LT PUSH2 0x20F6 JUMPI POP SWAP1 DUP5 PUSH1 0x1 SWAP6 SWAP5 SWAP4 SWAP3 LT PUSH2 0x20DE JUMPI JUMPDEST POP POP POP DUP2 SHL ADD DUP3 SSTORE PUSH2 0x1CF6 JUMP JUMPDEST ADD MLOAD PUSH0 NOT PUSH1 0xF8 DUP5 PUSH1 0x3 SHL AND SHR NOT AND SWAP1 SSTORE DUP11 DUP1 DUP1 PUSH2 0x20D1 JUMP JUMPDEST DUP3 DUP5 ADD MLOAD DUP6 SSTORE PUSH1 0xA0 MLOAD PUSH1 0x1 SWAP1 SWAP6 ADD SWAP5 SWAP4 DUP5 ADD SWAP4 ADD PUSH2 0x20BB JUMP JUMPDEST PUSH1 0x40 MLOAD PUSH3 0x461BCD PUSH1 0xE5 SHL DUP2 MSTORE PUSH1 0x20 PUSH1 0x4 DUP3 ADD MSTORE PUSH1 0x28 PUSH1 0x24 DUP3 ADD MSTORE PUSH32 0x4D6F6E74686C79206C696D6974207265616368656420666F7220746869732068 PUSH1 0x44 DUP3 ADD MSTORE PUSH8 0x616E642074797065 PUSH1 0xC0 SHL PUSH1 0x64 DUP3 ADD MSTORE PUSH1 0x84 SWAP1 REVERT JUMPDEST PUSH1 0x40 MLOAD PUSH3 0x461BCD PUSH1 0xE5 SHL DUP2 MSTORE PUSH1 0x20 PUSH1 0x4 DUP3 ADD MSTORE PUSH1 0x11 PUSH1 0x24 DUP3 ADD MSTORE PUSH17 0x556E6B6E6F776E2068616E642074797065 PUSH1 0x78 SHL PUSH1 0x44 DUP3 ADD MSTORE PUSH1 0x64 SWAP1 REVERT JUMPDEST PUSH1 0x40 MLOAD PUSH3 0x461BCD PUSH1 0xE5 SHL DUP2 MSTORE PUSH1 0x20 PUSH1 0x4 DUP3 ADD MSTORE PUSH1 0x11 PUSH1 0x24 DUP3 ADD MSTORE PUSH17 0x496E76616C69642068616E642074797065 PUSH1 0x78 SHL PUSH1 0x44 DUP3 ADD MSTORE PUSH1 0x64 SWAP1 REVERT JUMPDEST PUSH1 0x40 MLOAD PUSH3 0x461BCD PUSH1 0xE5 SHL DUP2 MSTORE PUSH1 0x20 PUSH1 0x4 DUP3 ADD MSTORE PUSH1 0x1B PUSH1 0x24 DUP3 ADD MSTORE PUSH32 0x43616E6E6F74206D696E7420746F207A65726F20616464726573730000000000 PUSH1 0x44 DUP3 ADD MSTORE PUSH1 0x64 SWAP1 REVERT JUMPDEST CALLVALUE PUSH2 0xF6D JUMPI PUSH2 0x11D3 PUSH2 0x222D CALLDATASIZE PUSH2 0x278A JUMP JUMPDEST SWAP2 PUSH2 0x2A13 JUMP JUMPDEST CALLVALUE PUSH2 0xF6D JUMPI PUSH1 0x20 CALLDATASIZE PUSH1 0x3 NOT ADD SLT PUSH2 0xF6D JUMPI PUSH1 0x4 CALLDATALOAD PUSH2 0x2263 PUSH2 0x2253 DUP3 PUSH2 0x2C06 JUMP JUMPDEST PUSH1 0x1 PUSH1 0x1 PUSH1 0xA0 SHL SUB AND CALLER EQ PUSH2 0x29D5 JUMP JUMPDEST PUSH0 MSTORE PUSH1 0xB PUSH1 0x20 MSTORE PUSH2 0xF69 PUSH2 0x435 PUSH2 0x13D8 PUSH1 0x40 PUSH0 KECCAK256 PUSH1 0x40 MLOAD SWAP3 DUP4 DUP1 SWAP3 PUSH2 0x28B6 JUMP JUMPDEST CALLVALUE PUSH2 0xF6D JUMPI PUSH1 0x40 CALLDATASIZE PUSH1 0x3 NOT ADD SLT PUSH2 0xF6D JUMPI PUSH2 0x229C PUSH2 0x2774 JUMP JUMPDEST CALLER PUSH1 0x1 PUSH1 0x1 PUSH1 0xA0 SHL SUB DUP3 AND SUB PUSH2 0x22B8 JUMPI PUSH2 0x11D3 SWAP1 PUSH1 0x4 CALLDATALOAD PUSH2 0x308D JUMP JUMPDEST PUSH1 0x40 MLOAD PUSH3 0x461BCD PUSH1 0xE5 SHL DUP2 MSTORE PUSH1 0x20 PUSH1 0x4 DUP3 ADD MSTORE PUSH1 0x2F PUSH1 0x24 DUP3 ADD MSTORE PUSH32 0x416363657373436F6E74726F6C3A2063616E206F6E6C792072656E6F756E6365 PUSH1 0x44 DUP3 ADD MSTORE PUSH15 0x103937B632B9903337B91039B2B633 PUSH1 0x89 SHL PUSH1 0x64 DUP3 ADD MSTORE PUSH1 0x84 SWAP1 REVERT JUMPDEST CALLVALUE PUSH2 0xF6D JUMPI PUSH1 0x40 CALLDATASIZE PUSH1 0x3 NOT ADD SLT PUSH2 0xF6D JUMPI PUSH1 0x4 CALLDATALOAD PUSH2 0x2331 PUSH2 0x2774 JUMP JUMPDEST SWAP1 PUSH2 0x234B PUSH2 0x665 DUP3 PUSH0 MSTORE PUSH1 0x6 PUSH1 0x20 MSTORE PUSH1 0x1 PUSH1 0x40 PUSH0 KECCAK256 ADD SLOAD SWAP1 JUMP JUMPDEST DUP1 PUSH0 MSTORE PUSH1 0x6 PUSH1 0x20 MSTORE PUSH1 0x40 PUSH0 KECCAK256 PUSH1 0x1 DUP1 PUSH1 0xA0 SHL SUB DUP4 AND PUSH0 MSTORE PUSH1 0x20 MSTORE PUSH1 0xFF PUSH1 0x40 PUSH0 KECCAK256 SLOAD AND ISZERO PUSH2 0x2374 JUMPI STOP JUMPDEST PUSH0 DUP2 DUP2 MSTORE PUSH1 0x6 PUSH1 0x20 SWAP1 DUP2 MSTORE PUSH1 0x40 DUP1 DUP4 KECCAK256 PUSH1 0x1 PUSH1 0x1 PUSH1 0xA0 SHL SUB SWAP6 SWAP1 SWAP6 AND DUP1 DUP5 MSTORE SWAP5 SWAP1 SWAP2 MSTORE DUP2 KECCAK256 DUP1 SLOAD PUSH1 0xFF NOT AND PUSH1 0x1 OR SWAP1 SSTORE CALLER SWAP3 SWAP2 SWAP1 PUSH32 0x2F8788117E7EFF1D82E926EC794901D17C78024A50270940304540A733656F0D SWAP1 DUP1 LOG4 STOP JUMPDEST CALLVALUE PUSH2 0xF6D JUMPI PUSH1 0x20 CALLDATASIZE PUSH1 0x3 NOT ADD SLT PUSH2 0xF6D JUMPI PUSH1 0x20 PUSH2 0x1A8B PUSH1 0x4 CALLDATALOAD PUSH0 MSTORE PUSH1 0x6 PUSH1 0x20 MSTORE PUSH1 0x1 PUSH1 0x40 PUSH0 KECCAK256 ADD SLOAD SWAP1 JUMP JUMPDEST CALLVALUE PUSH2 0xF6D JUMPI PUSH2 0x11D3 PUSH2 0x240A CALLDATASIZE PUSH2 0x278A JUMP JUMPDEST SWAP2 PUSH2 0x2418 PUSH2 0x11B9 DUP5 CALLER PUSH2 0x2D49 JUMP JUMPDEST PUSH2 0x2E18 JUMP JUMPDEST CALLVALUE PUSH2 0xF6D JUMPI PUSH0 CALLDATASIZE PUSH1 0x3 NOT ADD SLT PUSH2 0xF6D JUMPI PUSH1 0x20 PUSH1 0x40 MLOAD PUSH1 0x5 DUP2 MSTORE RETURN JUMPDEST CALLVALUE PUSH2 0xF6D JUMPI PUSH0 CALLDATASIZE PUSH1 0x3 NOT ADD SLT PUSH2 0xF6D JUMPI PUSH1 0x20 PUSH1 0x40 MLOAD PUSH1 0x2 DUP2 MSTORE RETURN JUMPDEST CALLVALUE PUSH2 0xF6D JUMPI PUSH1 0x40 CALLDATASIZE PUSH1 0x3 NOT ADD SLT PUSH2 0xF6D JUMPI PUSH2 0x246C PUSH2 0x275E JUMP JUMPDEST PUSH1 0x24 CALLDATALOAD SWAP1 PUSH1 0x1 PUSH1 0x1 PUSH1 0xA0 SHL SUB PUSH2 0x2481 DUP4 PUSH2 0x2C06 JUMP JUMPDEST PUSH1 0x1 PUSH1 0x1 PUSH1 0xA0 SHL SUB SWAP1 SWAP3 AND SWAP2 AND DUP2 DUP2 EQ PUSH2 0x258A JUMPI DUP1 CALLER EQ SWAP1 DUP2 ISZERO PUSH2 0x2566 JUMPI JUMPDEST POP ISZERO PUSH2 0x24FB JUMPI PUSH0 DUP3 DUP2 MSTORE PUSH1 0x4 PUSH1 0x20 MSTORE PUSH1 0x40 SWAP1 KECCAK256 DUP1 SLOAD PUSH1 0x1 PUSH1 0x1 PUSH1 0xA0 SHL SUB NOT AND DUP3 OR SWAP1 SSTORE PUSH1 0x1 PUSH1 0x1 PUSH1 0xA0 SHL SUB PUSH2 0x24D4 DUP4 PUSH2 0x2C06 JUMP JUMPDEST AND PUSH32 0x8C5BE1E5EBEC7D5BD14F71427D1E84F3DD0314C0F7B2291E5B200AC8C7C3B925 PUSH0 DUP1 LOG4 STOP JUMPDEST PUSH1 0x40 MLOAD PUSH3 0x461BCD PUSH1 0xE5 SHL DUP2 MSTORE PUSH1 0x20 PUSH1 0x4 DUP3 ADD MSTORE PUSH1 0x3D PUSH1 0x24 DUP3 ADD MSTORE PUSH32 0x4552433732313A20617070726F76652063616C6C6572206973206E6F7420746F PUSH1 0x44 DUP3 ADD MSTORE PUSH32 0x6B656E206F776E6572206F7220617070726F76656420666F7220616C6C000000 PUSH1 0x64 DUP3 ADD MSTORE PUSH1 0x84 SWAP1 REVERT JUMPDEST PUSH0 SWAP1 DUP2 MSTORE PUSH1 0x5 PUSH1 0x20 SWAP1 DUP2 MSTORE PUSH1 0x40 DUP1 DUP4 KECCAK256 CALLER DUP5 MSTORE SWAP1 SWAP2 MSTORE SWAP1 KECCAK256 SLOAD PUSH1 0xFF AND SWAP1 POP DUP4 PUSH2 0x24A0 JUMP JUMPDEST PUSH1 0x40 MLOAD PUSH3 0x461BCD PUSH1 0xE5 SHL DUP2 MSTORE PUSH1 0x20 PUSH1 0x4 DUP3 ADD MSTORE PUSH1 0x21 PUSH1 0x24 DUP3 ADD MSTORE PUSH32 0x4552433732313A20617070726F76616C20746F2063757272656E74206F776E65 PUSH1 0x44 DUP3 ADD MSTORE PUSH1 0x39 PUSH1 0xF9 SHL PUSH1 0x64 DUP3 ADD MSTORE PUSH1 0x84 SWAP1 REVERT JUMPDEST CALLVALUE PUSH2 0xF6D JUMPI PUSH1 0x20 CALLDATASIZE PUSH1 0x3 NOT ADD SLT PUSH2 0xF6D JUMPI PUSH1 0x20 PUSH2 0x1AEC PUSH1 0x4 CALLDATALOAD PUSH2 0x2937 JUMP JUMPDEST CALLVALUE PUSH2 0xF6D JUMPI PUSH0 CALLDATASIZE PUSH1 0x3 NOT ADD SLT PUSH2 0xF6D JUMPI PUSH1 0x40 MLOAD PUSH0 PUSH0 SLOAD PUSH2 0x2616 DUP2 PUSH2 0x287E JUMP JUMPDEST DUP1 DUP5 MSTORE SWAP1 PUSH1 0x1 DUP2 AND SWAP1 DUP2 ISZERO PUSH2 0x144A JUMPI POP PUSH1 0x1 EQ PUSH2 0x263D JUMPI PUSH2 0xF69 DUP4 PUSH2 0x13D8 DUP2 DUP6 SUB DUP3 PUSH2 0x280C JUMP JUMPDEST PUSH0 DUP1 DUP1 MSTORE PUSH32 0x290DECD9548B62A8D60345A988386FC84BA6BC95484008F6362F93160EF3E563 SWAP4 SWAP3 POP SWAP1 JUMPDEST DUP1 DUP3 LT PUSH2 0x267F JUMPI POP SWAP1 SWAP2 POP DUP2 ADD PUSH1 0x20 ADD PUSH2 0x13D8 PUSH2 0x13C8 JUMP JUMPDEST SWAP2 SWAP3 PUSH1 0x1 DUP2 PUSH1 0x20 SWAP3 SLOAD DUP4 DUP6 DUP9 ADD ADD MSTORE ADD SWAP2 ADD SWAP1 SWAP3 SWAP2 PUSH2 0x2667 JUMP JUMPDEST CALLVALUE PUSH2 0xF6D JUMPI PUSH1 0x20 CALLDATASIZE PUSH1 0x3 NOT ADD SLT PUSH2 0xF6D JUMPI PUSH1 0x4 CALLDATALOAD PUSH4 0xFFFFFFFF PUSH1 0xE0 SHL DUP2 AND DUP1 SWAP2 SUB PUSH2 0xF6D JUMPI PUSH1 0x20 SWAP1 PUSH4 0x7965DB0B PUSH1 0xE0 SHL DUP2 EQ SWAP1 DUP2 ISZERO PUSH2 0x26DE JUMPI JUMPDEST POP PUSH1 0x40 MLOAD SWAP1 ISZERO ISZERO DUP2 MSTORE RETURN JUMPDEST PUSH4 0x80AC58CD PUSH1 0xE0 SHL DUP2 EQ SWAP2 POP DUP2 ISZERO PUSH2 0x2710 JUMPI JUMPDEST DUP2 ISZERO PUSH2 0x26FF JUMPI JUMPDEST POP DUP3 PUSH2 0x26D3 JUMP JUMPDEST PUSH4 0x1FFC9A7 PUSH1 0xE0 SHL EQ SWAP1 POP DUP3 PUSH2 0x26F8 JUMP JUMPDEST PUSH4 0x5B5E139F PUSH1 0xE0 SHL DUP2 EQ SWAP2 POP PUSH2 0x26F1 JUMP JUMPDEST CALLVALUE PUSH2 0xF6D JUMPI PUSH0 CALLDATASIZE PUSH1 0x3 NOT ADD SLT PUSH2 0xF6D JUMPI DUP1 PUSH1 0x3 PUSH1 0x20 SWAP3 MSTORE RETURN JUMPDEST DUP1 MLOAD DUP1 DUP4 MSTORE PUSH1 0x20 SWAP3 SWAP2 DUP2 SWAP1 DUP5 ADD DUP5 DUP5 ADD MCOPY PUSH0 DUP3 DUP3 ADD DUP5 ADD MSTORE PUSH1 0x1F ADD PUSH1 0x1F NOT AND ADD ADD SWAP1 JUMP JUMPDEST PUSH1 0x4 CALLDATALOAD SWAP1 PUSH1 0x1 PUSH1 0x1 PUSH1 0xA0 SHL SUB DUP3 AND DUP3 SUB PUSH2 0xF6D JUMPI JUMP JUMPDEST PUSH1 0x24 CALLDATALOAD SWAP1 PUSH1 0x1 PUSH1 0x1 PUSH1 0xA0 SHL SUB DUP3 AND DUP3 SUB PUSH2 0xF6D JUMPI JUMP JUMPDEST PUSH1 0x60 SWAP1 PUSH1 0x3 NOT ADD SLT PUSH2 0xF6D JUMPI PUSH1 0x4 CALLDATALOAD PUSH1 0x1 PUSH1 0x1 PUSH1 0xA0 SHL SUB DUP2 AND DUP2 SUB PUSH2 0xF6D JUMPI SWAP1 PUSH1 0x24 CALLDATALOAD PUSH1 0x1 PUSH1 0x1 PUSH1 0xA0 SHL SUB DUP2 AND DUP2 SUB PUSH2 0xF6D JUMPI SWAP1 PUSH1 0x44 CALLDATALOAD SWAP1 JUMP JUMPDEST SWAP2 DUP2 PUSH1 0x1F DUP5 ADD SLT ISZERO PUSH2 0xF6D JUMPI DUP3 CALLDATALOAD SWAP2 PUSH1 0x1 PUSH1 0x1 PUSH1 0x40 SHL SUB DUP4 GT PUSH2 0xF6D JUMPI PUSH1 0x20 DUP4 DUP2 DUP7 ADD SWAP6 ADD ADD GT PUSH2 0xF6D JUMPI JUMP JUMPDEST PUSH1 0xE0 DUP2 ADD SWAP1 DUP2 LT PUSH1 0x1 PUSH1 0x1 PUSH1 0x40 SHL SUB DUP3 GT OR PUSH2 0x1104 JUMPI PUSH1 0x40 MSTORE JUMP JUMPDEST SWAP1 PUSH1 0x1F DUP1 NOT SWAP2 ADD AND DUP2 ADD SWAP1 DUP2 LT PUSH1 0x1 PUSH1 0x1 PUSH1 0x40 SHL SUB DUP3 GT OR PUSH2 0x1104 JUMPI PUSH1 0x40 MSTORE JUMP JUMPDEST PUSH1 0x1 PUSH1 0x1 PUSH1 0x40 SHL SUB DUP2 GT PUSH2 0x1104 JUMPI PUSH1 0x1F ADD PUSH1 0x1F NOT AND PUSH1 0x20 ADD SWAP1 JUMP JUMPDEST SWAP3 SWAP2 SWAP3 PUSH2 0x2854 DUP3 PUSH2 0x282D JUMP JUMPDEST SWAP2 PUSH2 0x2862 PUSH1 0x40 MLOAD SWAP4 DUP5 PUSH2 0x280C JUMP JUMPDEST DUP3 SWAP5 DUP2 DUP5 MSTORE DUP2 DUP4 ADD GT PUSH2 0xF6D JUMPI DUP3 DUP2 PUSH1 0x20 SWAP4 DUP5 PUSH0 SWAP7 ADD CALLDATACOPY ADD ADD MSTORE JUMP JUMPDEST SWAP1 PUSH1 0x1 DUP3 DUP2 SHR SWAP3 AND DUP1 ISZERO PUSH2 0x28AC JUMPI JUMPDEST PUSH1 0x20 DUP4 LT EQ PUSH2 0x2898 JUMPI JUMP JUMPDEST PUSH4 0x4E487B71 PUSH1 0xE0 SHL PUSH0 MSTORE PUSH1 0x22 PUSH1 0x4 MSTORE PUSH1 0x24 PUSH0 REVERT JUMPDEST SWAP2 PUSH1 0x7F AND SWAP2 PUSH2 0x288D JUMP JUMPDEST PUSH0 SWAP3 SWAP2 DUP2 SLOAD SWAP2 PUSH2 0x28C5 DUP4 PUSH2 0x287E JUMP JUMPDEST DUP1 DUP4 MSTORE SWAP3 PUSH1 0x1 DUP2 AND SWAP1 DUP2 ISZERO PUSH2 0x291A JUMPI POP PUSH1 0x1 EQ PUSH2 0x28E1 JUMPI POP POP POP JUMP JUMPDEST PUSH0 SWAP1 DUP2 MSTORE PUSH1 0x20 DUP2 KECCAK256 SWAP4 SWAP5 POP SWAP2 SWAP3 JUMPDEST DUP4 DUP4 LT PUSH2 0x2900 JUMPI POP PUSH1 0x20 SWAP3 POP ADD ADD SWAP1 JUMP JUMPDEST PUSH1 0x1 DUP2 PUSH1 0x20 SWAP3 SWAP5 SWAP4 SWAP5 SLOAD DUP4 DUP6 DUP8 ADD ADD MSTORE ADD SWAP2 ADD SWAP2 SWAP1 PUSH2 0x28EF JUMP JUMPDEST SWAP2 POP POP PUSH1 0x20 SWAP4 SWAP5 POP PUSH1 0xFF SWAP3 SWAP2 SWAP3 NOT AND DUP4 DUP4 ADD MSTORE ISZERO ISZERO PUSH1 0x5 SHL ADD ADD SWAP1 JUMP JUMPDEST PUSH0 DUP2 DUP2 MSTORE PUSH1 0x2 PUSH1 0x20 MSTORE PUSH1 0x40 SWAP1 KECCAK256 SLOAD PUSH2 0x2959 SWAP1 PUSH1 0x1 PUSH1 0x1 PUSH1 0xA0 SHL SUB AND ISZERO ISZERO PUSH2 0x2BBA JUMP JUMPDEST PUSH0 SWAP1 DUP2 MSTORE PUSH1 0x4 PUSH1 0x20 MSTORE PUSH1 0x40 SWAP1 KECCAK256 SLOAD PUSH1 0x1 PUSH1 0x1 PUSH1 0xA0 SHL SUB AND SWAP1 JUMP JUMPDEST ISZERO PUSH2 0x297A JUMPI JUMP JUMPDEST PUSH1 0x40 MLOAD PUSH3 0x461BCD PUSH1 0xE5 SHL DUP2 MSTORE PUSH1 0x20 PUSH1 0x4 DUP3 ADD MSTORE PUSH1 0x2D PUSH1 0x24 DUP3 ADD MSTORE PUSH32 0x4552433732313A2063616C6C6572206973206E6F7420746F6B656E206F776E65 PUSH1 0x44 DUP3 ADD MSTORE PUSH13 0x1C881BDC88185C1C1C9BDD9959 PUSH1 0x9A SHL PUSH1 0x64 DUP3 ADD MSTORE PUSH1 0x84 SWAP1 REVERT JUMPDEST ISZERO PUSH2 0x29DC JUMPI JUMP JUMPDEST PUSH1 0x40 MLOAD PUSH3 0x461BCD PUSH1 0xE5 SHL DUP2 MSTORE PUSH1 0x20 PUSH1 0x4 DUP3 ADD MSTORE PUSH1 0xF PUSH1 0x24 DUP3 ADD MSTORE PUSH15 0x2737BA103A37B5B2B71037BBB732B9 PUSH1 0x89 SHL PUSH1 0x44 DUP3 ADD MSTORE PUSH1 0x64 SWAP1 REVERT JUMPDEST PUSH2 0x2A3A SWAP3 PUSH2 0x11CE SWAP3 PUSH1 0x40 MLOAD SWAP3 PUSH2 0x2A2A PUSH1 0x20 DUP6 PUSH2 0x280C JUMP JUMPDEST PUSH0 DUP5 MSTORE PUSH2 0x11BE PUSH2 0x11B9 DUP5 CALLER PUSH2 0x2D49 JUMP JUMPDEST JUMP JUMPDEST PUSH0 NOT DUP2 EQ PUSH2 0x2A4A JUMPI PUSH1 0x1 ADD SWAP1 JUMP JUMPDEST PUSH4 0x4E487B71 PUSH1 0xE0 SHL PUSH0 MSTORE PUSH1 0x11 PUSH1 0x4 MSTORE PUSH1 0x24 PUSH0 REVERT JUMPDEST PUSH1 0x1 PUSH1 0x1 PUSH1 0x40 SHL SUB DUP2 GT PUSH2 0x1104 JUMPI PUSH1 0x5 SHL PUSH1 0x20 ADD SWAP1 JUMP JUMPDEST DUP2 DUP2 LT PUSH2 0x2A80 JUMPI POP POP JUMP JUMPDEST PUSH0 DUP2 SSTORE PUSH1 0x1 ADD PUSH2 0x2A75 JUMP JUMPDEST SWAP2 SWAP1 PUSH1 0x1F DUP2 GT PUSH2 0x2A9A JUMPI POP POP POP JUMP JUMPDEST PUSH2 0x2A3A SWAP3 PUSH0 MSTORE PUSH1 0x20 PUSH0 KECCAK256 SWAP1 PUSH1 0x20 PUSH1 0x1F DUP5 ADD PUSH1 0x5 SHR DUP4 ADD SWAP4 LT PUSH2 0x2AC4 JUMPI JUMPDEST PUSH1 0x1F ADD PUSH1 0x5 SHR ADD SWAP1 PUSH2 0x2A75 JUMP JUMPDEST SWAP1 SWAP2 POP DUP2 SWAP1 PUSH2 0x2AB7 JUMP JUMPDEST SWAP1 PUSH1 0x1 PUSH1 0x40 SHL DUP2 GT PUSH2 0x1104 JUMPI DUP2 SLOAD SWAP2 DUP2 DUP2 SSTORE DUP3 DUP3 LT PUSH2 0x2AEC JUMPI POP POP POP JUMP JUMPDEST PUSH0 MSTORE PUSH1 0x20 PUSH0 KECCAK256 SWAP2 DUP3 ADD SWAP2 ADD JUMPDEST DUP2 DUP2 LT PUSH2 0x2B03 JUMPI POP POP JUMP JUMPDEST DUP1 PUSH2 0x2B10 PUSH1 0x1 SWAP3 SLOAD PUSH2 0x287E JUMP JUMPDEST DUP1 PUSH2 0x2B1D JUMPI JUMPDEST POP ADD PUSH2 0x2AF8 JUMP JUMPDEST PUSH1 0x1F DUP2 GT DUP4 EQ PUSH2 0x2B32 JUMPI POP PUSH0 DUP2 SSTORE JUMPDEST PUSH0 PUSH2 0x2B16 JUMP JUMPDEST PUSH2 0x2B4E SWAP1 DUP3 PUSH0 MSTORE DUP4 PUSH1 0x1F PUSH1 0x20 PUSH0 KECCAK256 SWAP3 ADD PUSH1 0x5 SHR DUP3 ADD SWAP2 ADD PUSH2 0x2A75 JUMP JUMPDEST DUP1 PUSH0 MSTORE PUSH0 PUSH1 0x20 DUP2 KECCAK256 DUP2 DUP4 SSTORE SSTORE PUSH2 0x2B2C JUMP JUMPDEST DUP1 SLOAD SWAP1 PUSH1 0x1 PUSH1 0x40 SHL DUP3 LT ISZERO PUSH2 0x1104 JUMPI PUSH1 0x1 DUP3 ADD DUP1 DUP3 SSTORE DUP3 LT ISZERO PUSH2 0x2B86 JUMPI PUSH0 MSTORE PUSH1 0x20 PUSH0 KECCAK256 ADD SSTORE JUMP JUMPDEST PUSH4 0x4E487B71 PUSH1 0xE0 SHL PUSH0 MSTORE PUSH1 0x32 PUSH1 0x4 MSTORE PUSH1 0x24 PUSH0 REVERT JUMPDEST SWAP1 DUP1 PUSH1 0x20 SWAP4 SWAP3 DUP2 DUP5 MSTORE DUP5 DUP5 ADD CALLDATACOPY PUSH0 DUP3 DUP3 ADD DUP5 ADD MSTORE PUSH1 0x1F ADD PUSH1 0x1F NOT AND ADD ADD SWAP1 JUMP JUMPDEST ISZERO PUSH2 0x2BC1 JUMPI JUMP JUMPDEST PUSH1 0x40 MLOAD PUSH3 0x461BCD PUSH1 0xE5 SHL DUP2 MSTORE PUSH1 0x20 PUSH1 0x4 DUP3 ADD MSTORE PUSH1 0x18 PUSH1 0x24 DUP3 ADD MSTORE PUSH32 0x4552433732313A20696E76616C696420746F6B656E2049440000000000000000 PUSH1 0x44 DUP3 ADD MSTORE PUSH1 0x64 SWAP1 REVERT JUMPDEST PUSH0 SWAP1 DUP2 MSTORE PUSH1 0x2 PUSH1 0x20 MSTORE PUSH1 0x40 SWAP1 KECCAK256 SLOAD PUSH1 0x1 PUSH1 0x1 PUSH1 0xA0 SHL SUB AND PUSH2 0x2C28 DUP2 ISZERO ISZERO PUSH2 0x2BBA JUMP JUMPDEST SWAP1 JUMP JUMPDEST PUSH1 0x1 PUSH1 0x1 PUSH1 0xA0 SHL SUB AND DUP1 ISZERO PUSH2 0x2C49 JUMPI PUSH0 MSTORE PUSH1 0x3 PUSH1 0x20 MSTORE PUSH1 0x40 PUSH0 KECCAK256 SLOAD SWAP1 JUMP JUMPDEST PUSH1 0x40 MLOAD PUSH3 0x461BCD PUSH1 0xE5 SHL DUP2 MSTORE PUSH1 0x20 PUSH1 0x4 DUP3 ADD MSTORE PUSH1 0x29 PUSH1 0x24 DUP3 ADD MSTORE PUSH32 0x4552433732313A2061646472657373207A65726F206973206E6F742061207661 PUSH1 0x44 DUP3 ADD MSTORE PUSH9 0x3634B21037BBB732B9 PUSH1 0xB9 SHL PUSH1 0x64 DUP3 ADD MSTORE PUSH1 0x84 SWAP1 REVERT JUMPDEST SWAP1 DUP2 SLOAD PUSH2 0x2CAC DUP2 PUSH2 0x2A5E JUMP JUMPDEST SWAP3 PUSH2 0x2CBA PUSH1 0x40 MLOAD SWAP5 DUP6 PUSH2 0x280C JUMP JUMPDEST DUP2 DUP5 MSTORE PUSH1 0x20 DUP5 ADD SWAP1 PUSH0 MSTORE PUSH1 0x20 PUSH0 KECCAK256 PUSH0 SWAP2 JUMPDEST DUP4 DUP4 LT PUSH2 0x2CD8 JUMPI POP POP POP POP JUMP JUMPDEST PUSH1 0x1 PUSH1 0x20 DUP2 SWAP3 PUSH1 0x40 MLOAD PUSH2 0x2CEF DUP2 PUSH2 0x435 DUP2 DUP10 PUSH2 0x28B6 JUMP JUMPDEST DUP2 MSTORE ADD SWAP3 ADD SWAP3 ADD SWAP2 SWAP1 PUSH2 0x2CCB JUMP JUMPDEST ISZERO PUSH2 0x2D04 JUMPI JUMP JUMPDEST PUSH1 0x40 MLOAD PUSH3 0x461BCD PUSH1 0xE5 SHL DUP2 MSTORE PUSH1 0x20 PUSH1 0x4 DUP3 ADD MSTORE PUSH1 0x17 PUSH1 0x24 DUP3 ADD MSTORE PUSH32 0x43616C6C6572206D757374206F776E206120746F6B656E000000000000000000 PUSH1 0x44 DUP3 ADD MSTORE PUSH1 0x64 SWAP1 REVERT JUMPDEST SWAP1 PUSH1 0x1 PUSH1 0x1 PUSH1 0xA0 SHL SUB PUSH2 0x2D5B DUP3 PUSH2 0x2C06 JUMP JUMPDEST PUSH1 0x1 PUSH1 0x1 PUSH1 0xA0 SHL SUB SWAP1 SWAP4 AND SWAP3 AND DUP3 DUP2 EQ SWAP3 SWAP2 SWAP1 DUP4 ISZERO PUSH2 0x2D9B JUMPI JUMPDEST POP DUP3 ISZERO PUSH2 0x2D81 JUMPI POP POP SWAP1 JUMP JUMPDEST SWAP1 SWAP2 POP PUSH1 0x1 PUSH1 0x1 PUSH1 0xA0 SHL SUB SWAP1 PUSH2 0x2D96 SWAP1 PUSH2 0x2937 JUMP JUMPDEST AND EQ SWAP1 JUMP JUMPDEST SWAP1 SWAP3 POP PUSH0 MSTORE PUSH1 0x5 PUSH1 0x20 MSTORE PUSH1 0x40 PUSH0 KECCAK256 DUP2 PUSH0 MSTORE PUSH1 0x20 MSTORE PUSH1 0xFF PUSH1 0x40 PUSH0 KECCAK256 SLOAD AND SWAP2 PUSH0 PUSH2 0x2D75 JUMP JUMPDEST ISZERO PUSH2 0x2DC5 JUMPI JUMP JUMPDEST PUSH1 0x40 MLOAD PUSH3 0x461BCD PUSH1 0xE5 SHL DUP2 MSTORE PUSH1 0x20 PUSH1 0x4 DUP3 ADD MSTORE PUSH1 0x25 PUSH1 0x24 DUP3 ADD MSTORE PUSH32 0x4552433732313A207472616E736665722066726F6D20696E636F727265637420 PUSH1 0x44 DUP3 ADD MSTORE PUSH5 0x37BBB732B9 PUSH1 0xD9 SHL PUSH1 0x64 DUP3 ADD MSTORE PUSH1 0x84 SWAP1 REVERT JUMPDEST SWAP1 PUSH2 0x2E39 PUSH2 0x2E25 DUP5 PUSH2 0x2C06 JUMP JUMPDEST PUSH1 0x1 PUSH1 0x1 PUSH1 0xA0 SHL SUB SWAP4 DUP5 AND SWAP4 AND DUP4 EQ PUSH2 0x2DBE JUMP JUMPDEST PUSH1 0x1 PUSH1 0x1 PUSH1 0xA0 SHL SUB AND SWAP1 DUP2 ISZERO PUSH2 0x2EEB JUMPI PUSH2 0x2E65 DUP2 PUSH1 0x1 PUSH1 0x1 PUSH1 0xA0 SHL SUB PUSH2 0x2E5E DUP7 PUSH2 0x2C06 JUMP JUMPDEST AND EQ PUSH2 0x2DBE JUMP JUMPDEST DUP3 PUSH0 MSTORE PUSH1 0x4 PUSH1 0x20 MSTORE PUSH1 0x40 PUSH0 KECCAK256 PUSH1 0x1 PUSH1 0x1 PUSH1 0x60 SHL SUB PUSH1 0xA0 SHL DUP2 SLOAD AND SWAP1 SSTORE DUP1 PUSH0 MSTORE PUSH1 0x3 PUSH1 0x20 MSTORE PUSH1 0x40 PUSH0 KECCAK256 PUSH0 NOT DUP2 SLOAD ADD SWAP1 SSTORE DUP2 PUSH0 MSTORE PUSH1 0x3 PUSH1 0x20 MSTORE PUSH1 0x40 PUSH0 KECCAK256 PUSH1 0x1 DUP2 SLOAD ADD SWAP1 SSTORE DUP3 PUSH0 MSTORE PUSH1 0x2 PUSH1 0x20 MSTORE PUSH1 0x40 PUSH0 KECCAK256 DUP3 PUSH1 0x1 PUSH1 0x1 PUSH1 0x60 SHL SUB PUSH1 0xA0 SHL DUP3 SLOAD AND OR SWAP1 SSTORE PUSH32 0xDDF252AD1BE2C89B69C2B068FC378DAA952BA7F163C4A11628F55A4DF523B3EF PUSH0 DUP1 LOG4 JUMP JUMPDEST PUSH1 0x40 MLOAD PUSH3 0x461BCD PUSH1 0xE5 SHL DUP2 MSTORE PUSH1 0x20 PUSH1 0x4 DUP3 ADD MSTORE PUSH1 0x24 DUP1 DUP3 ADD MSTORE PUSH32 0x4552433732313A207472616E7366657220746F20746865207A65726F20616464 PUSH1 0x44 DUP3 ADD MSTORE PUSH4 0x72657373 PUSH1 0xE0 SHL PUSH1 0x64 DUP3 ADD MSTORE PUSH1 0x84 SWAP1 REVERT JUMPDEST CALLER PUSH0 SWAP1 DUP2 MSTORE PUSH32 0x3195C024B2DDD6D9B8F6C836AA52F67FE69376C8903D009B80229B3CE4425F51 PUSH1 0x20 MSTORE PUSH1 0x40 SWAP1 KECCAK256 SLOAD PUSH1 0xFF AND ISZERO PUSH2 0x2F74 JUMPI JUMP JUMPDEST PUSH2 0x3045 PUSH1 0x20 PUSH2 0x3025 PUSH1 0x11 PUSH2 0x2F87 CALLER PUSH2 0x3552 JUMP JUMPDEST PUSH1 0x37 DUP5 PUSH2 0x2FB3 PUSH32 0x9F2DF0FED2C77648DE5860A4CC508CD0818C85B8B8A1AB4CEEEF8D981C8956A6 PUSH2 0x3638 JUMP JUMPDEST PUSH1 0x40 MLOAD SWAP7 DUP8 SWAP5 PUSH32 0x416363657373436F6E74726F6C3A206163636F756E7420000000000000000000 DUP3 DUP8 ADD MSTORE DUP1 MLOAD SWAP2 DUP3 SWAP2 ADD DUP6 DUP8 ADD MCOPY DUP5 ADD SWAP1 PUSH17 0x1034B99036B4B9B9B4B733903937B6329 PUSH1 0x7D SHL DUP5 DUP4 ADD MSTORE DUP1 MLOAD SWAP3 DUP4 SWAP2 ADD PUSH1 0x48 DUP4 ADD MCOPY ADD ADD PUSH0 DUP4 DUP3 ADD MSTORE SUB ADD PUSH1 0x1F NOT DUP2 ADD DUP4 MSTORE DUP3 PUSH2 0x280C JUMP JUMPDEST PUSH1 0x40 MLOAD PUSH3 0x461BCD PUSH1 0xE5 SHL DUP2 MSTORE PUSH1 0x20 PUSH1 0x4 DUP3 ADD MSTORE SWAP2 DUP3 SWAP2 PUSH1 0x24 DUP4 ADD SWAP1 PUSH2 0x273A JUMP JUMPDEST SUB SWAP1 REVERT JUMPDEST PUSH0 DUP2 DUP2 MSTORE PUSH1 0x6 PUSH1 0x20 SWAP1 DUP2 MSTORE PUSH1 0x40 DUP1 DUP4 KECCAK256 CALLER DUP5 MSTORE SWAP1 SWAP2 MSTORE SWAP1 KECCAK256 SLOAD PUSH1 0xFF AND ISZERO PUSH2 0x306D JUMPI POP JUMP JUMPDEST PUSH1 0x20 PUSH2 0x3025 PUSH1 0x11 PUSH2 0x3045 SWAP4 PUSH1 0x37 DUP5 PUSH2 0x2FB3 PUSH2 0x3087 CALLER PUSH2 0x3552 JUMP JUMPDEST SWAP4 PUSH2 0x3638 JUMP JUMPDEST DUP1 PUSH0 MSTORE PUSH1 0x6 PUSH1 0x20 MSTORE PUSH1 0x40 PUSH0 KECCAK256 PUSH1 0x1 DUP1 PUSH1 0xA0 SHL SUB DUP4 AND PUSH0 MSTORE PUSH1 0x20 MSTORE PUSH1 0xFF PUSH1 0x40 PUSH0 KECCAK256 SLOAD AND PUSH2 0x30B7 JUMPI POP POP JUMP JUMPDEST PUSH0 DUP2 DUP2 MSTORE PUSH1 0x6 PUSH1 0x20 SWAP1 DUP2 MSTORE PUSH1 0x40 DUP1 DUP4 KECCAK256 PUSH1 0x1 PUSH1 0x1 PUSH1 0xA0 SHL SUB SWAP6 SWAP1 SWAP6 AND DUP1 DUP5 MSTORE SWAP5 SWAP1 SWAP2 MSTORE DUP2 KECCAK256 DUP1 SLOAD PUSH1 0xFF NOT AND SWAP1 SSTORE CALLER SWAP3 SWAP2 SWAP1 PUSH32 0xF6391F5C32D9C69D2A47EA670B442974B53935D1EDC7FD64EB21E047A839171B SWAP1 DUP1 LOG4 JUMP JUMPDEST PUSH0 JUMPDEST PUSH1 0x5 DUP2 GT ISZERO PUSH2 0x3120 JUMPI POP POP PUSH0 NOT SWAP1 JUMP JUMPDEST DUP1 PUSH0 MSTORE PUSH1 0xC PUSH1 0x20 MSTORE PUSH2 0x435 PUSH2 0x313E PUSH1 0x40 PUSH0 KECCAK256 PUSH1 0x40 MLOAD SWAP3 DUP4 DUP1 SWAP3 PUSH2 0x28B6 JUMP JUMPDEST PUSH1 0x20 DUP2 MLOAD SWAP2 ADD KECCAK256 DUP3 MLOAD PUSH1 0x20 DUP5 ADD KECCAK256 EQ PUSH2 0x315F JUMPI PUSH2 0x315A SWAP1 PUSH2 0x2A3C JUMP JUMPDEST PUSH2 0x3110 JUMP JUMPDEST SWAP1 POP SWAP1 JUMP JUMPDEST PUSH4 0x1E13380 TIMESTAMP DIV PUSH2 0x7B2 DUP2 ADD DUP1 SWAP2 GT PUSH2 0x2A4A JUMPI PUSH3 0x3F480 PUSH4 0x1E13380 TIMESTAMP MOD DIV PUSH1 0x1 DUP2 ADD DUP2 GT PUSH2 0x2A4A JUMPI PUSH1 0x64 DUP3 MUL SWAP2 DUP1 DUP4 DIV PUSH1 0x64 EQ SWAP1 ISZERO OR ISZERO PUSH2 0x2A4A JUMPI PUSH1 0x1 SWAP1 DUP3 ADD ADD DUP1 SWAP2 GT PUSH2 0x2A4A JUMPI SWAP1 JUMP JUMPDEST PUSH1 0x40 MLOAD SWAP2 SWAP1 PUSH1 0x20 PUSH2 0x31C1 DUP2 DUP6 PUSH2 0x280C JUMP JUMPDEST PUSH0 DUP5 MSTORE PUSH1 0x1 PUSH1 0x1 PUSH1 0xA0 SHL SUB DUP3 AND SWAP1 DUP2 ISZERO PUSH2 0x3281 JUMPI SWAP2 DUP4 DUP1 SWAP3 PUSH1 0x2 PUSH2 0x2A3A SWAP8 SWAP6 PUSH2 0x3209 PUSH2 0x3203 PUSH2 0x11CE SWAP10 PUSH0 MSTORE PUSH1 0x2 PUSH1 0x20 MSTORE PUSH1 0x1 DUP1 PUSH1 0xA0 SHL SUB PUSH1 0x40 PUSH0 KECCAK256 SLOAD AND ISZERO ISZERO SWAP1 JUMP JUMPDEST ISZERO PUSH2 0x36DA JUMP JUMPDEST PUSH0 DUP5 DUP2 MSTORE PUSH1 0x2 PUSH1 0x20 MSTORE PUSH1 0x40 SWAP1 KECCAK256 SLOAD PUSH2 0x322B SWAP1 PUSH1 0x1 PUSH1 0x1 PUSH1 0xA0 SHL SUB AND ISZERO ISZERO PUSH2 0x3203 JUMP JUMPDEST DUP3 PUSH0 MSTORE PUSH1 0x3 DUP2 MSTORE PUSH1 0x40 PUSH0 KECCAK256 PUSH1 0x1 DUP2 SLOAD ADD SWAP1 SSTORE DUP4 PUSH0 MSTORE MSTORE PUSH1 0x40 PUSH0 KECCAK256 DUP2 PUSH1 0x1 PUSH1 0x1 PUSH1 0x60 SHL SUB PUSH1 0xA0 SHL DUP3 SLOAD AND OR SWAP1 SSTORE PUSH0 PUSH32 0xDDF252AD1BE2C89B69C2B068FC378DAA952BA7F163C4A11628F55A4DF523B3EF DUP2 DUP1 LOG4 PUSH2 0x33D2 JUMP JUMPDEST PUSH1 0x64 SWAP1 PUSH1 0x40 MLOAD SWAP1 PUSH3 0x461BCD PUSH1 0xE5 SHL DUP3 MSTORE DUP1 PUSH1 0x4 DUP4 ADD MSTORE PUSH1 0x24 DUP3 ADD MSTORE PUSH32 0x4552433732313A206D696E7420746F20746865207A65726F2061646472657373 PUSH1 0x44 DUP3 ADD MSTORE REVERT JUMPDEST PUSH0 SWAP2 PUSH1 0x1 SWAP2 PUSH1 0x7 SLOAD SWAP3 JUMPDEST DUP4 DUP2 LT PUSH2 0x331A JUMPI PUSH1 0x40 MLOAD PUSH3 0x461BCD PUSH1 0xE5 SHL DUP2 MSTORE PUSH1 0x20 PUSH1 0x4 DUP3 ADD MSTORE PUSH1 0x18 PUSH1 0x24 DUP3 ADD MSTORE PUSH32 0x546F6B656E206E6F7420666F756E6420617420696E6465780000000000000000 PUSH1 0x44 DUP3 ADD MSTORE PUSH1 0x64 SWAP1 REVERT JUMPDEST PUSH2 0x3323 DUP2 PUSH2 0x2C06 JUMP JUMPDEST PUSH1 0x1 PUSH1 0x1 PUSH1 0xA0 SHL SUB DUP4 DUP2 AND SWAP2 AND EQ PUSH2 0x333E JUMPI JUMPDEST PUSH1 0x1 ADD PUSH2 0x32CE JUMP JUMPDEST SWAP4 DUP1 ISZERO PUSH2 0x3358 JUMPI PUSH2 0x3350 PUSH1 0x1 SWAP2 PUSH2 0x2A3C JUMP JUMPDEST SWAP5 SWAP1 POP PUSH2 0x3336 JUMP JUMPDEST POP SWAP1 SWAP2 POP POP JUMP JUMPDEST PUSH1 0x80 SWAP1 PUSH1 0x20 DUP2 MSTORE PUSH1 0x32 PUSH1 0x20 DUP3 ADD MSTORE PUSH32 0x4552433732313A207472616E7366657220746F206E6F6E204552433732315265 PUSH1 0x40 DUP3 ADD MSTORE PUSH18 0x31B2B4BB32B91034B6B83632B6B2B73A32B9 PUSH1 0x71 SHL PUSH1 0x60 DUP3 ADD MSTORE ADD SWAP1 JUMP JUMPDEST ISZERO PUSH2 0x33B9 JUMPI JUMP JUMPDEST PUSH1 0x40 MLOAD PUSH3 0x461BCD PUSH1 0xE5 SHL DUP2 MSTORE DUP1 PUSH2 0x3045 PUSH1 0x4 DUP3 ADD PUSH2 0x335F JUMP JUMPDEST SWAP2 DUP3 EXTCODESIZE ISZERO PUSH2 0x34E1 JUMPI PUSH2 0x3417 SWAP3 PUSH1 0x20 SWAP3 PUSH0 PUSH1 0x40 MLOAD DUP1 SWAP7 DUP2 SWAP6 DUP3 SWAP5 PUSH4 0xA85BD01 PUSH1 0xE1 SHL DUP5 MSTORE CALLER PUSH1 0x4 DUP6 ADD MSTORE DUP5 PUSH1 0x24 DUP6 ADD MSTORE PUSH1 0x44 DUP5 ADD MSTORE PUSH1 0x80 PUSH1 0x64 DUP5 ADD MSTORE PUSH1 0x84 DUP4 ADD SWAP1 PUSH2 0x273A JUMP JUMPDEST SUB SWAP3 PUSH1 0x1 PUSH1 0x1 PUSH1 0xA0 SHL SUB AND GAS CALL PUSH0 SWAP2 DUP2 PUSH2 0x349C JUMPI JUMPDEST POP PUSH2 0x3486 JUMPI RETURNDATASIZE ISZERO PUSH2 0x347F JUMPI RETURNDATASIZE PUSH2 0x3441 DUP2 PUSH2 0x282D JUMP JUMPDEST SWAP1 PUSH2 0x344F PUSH1 0x40 MLOAD SWAP3 DUP4 PUSH2 0x280C JUMP JUMPDEST DUP2 MSTORE RETURNDATASIZE PUSH0 PUSH1 0x20 DUP4 ADD RETURNDATACOPY JUMPDEST DUP1 MLOAD SWAP1 DUP2 PUSH2 0x347A JUMPI PUSH1 0x40 MLOAD PUSH3 0x461BCD PUSH1 0xE5 SHL DUP2 MSTORE DUP1 PUSH2 0x3045 PUSH1 0x4 DUP3 ADD PUSH2 0x335F JUMP JUMPDEST PUSH1 0x20 ADD REVERT JUMPDEST PUSH1 0x60 PUSH2 0x3459 JUMP JUMPDEST PUSH1 0x1 PUSH1 0x1 PUSH1 0xE0 SHL SUB NOT AND PUSH4 0xA85BD01 PUSH1 0xE1 SHL EQ SWAP1 JUMP JUMPDEST SWAP1 SWAP2 POP PUSH1 0x20 DUP2 RETURNDATASIZE PUSH1 0x20 GT PUSH2 0x34D9 JUMPI JUMPDEST DUP2 PUSH2 0x34B8 PUSH1 0x20 SWAP4 DUP4 PUSH2 0x280C JUMP JUMPDEST DUP2 ADD SUB SLT PUSH2 0xF6D JUMPI MLOAD PUSH1 0x1 PUSH1 0x1 PUSH1 0xE0 SHL SUB NOT DUP2 AND DUP2 SUB PUSH2 0xF6D JUMPI SWAP1 PUSH0 PUSH2 0x342C JUMP JUMPDEST RETURNDATASIZE SWAP2 POP PUSH2 0x34AB JUMP JUMPDEST POP POP POP PUSH1 0x1 SWAP1 JUMP JUMPDEST SWAP2 SWAP3 SWAP1 DUP1 EXTCODESIZE ISZERO PUSH2 0x3538 JUMPI PUSH2 0x3417 SWAP4 PUSH0 PUSH1 0x20 SWAP5 PUSH1 0x40 MLOAD SWAP7 DUP8 SWAP6 DUP7 SWAP5 DUP6 SWAP4 PUSH4 0xA85BD01 PUSH1 0xE1 SHL DUP6 MSTORE CALLER PUSH1 0x4 DUP7 ADD MSTORE PUSH1 0x1 DUP1 PUSH1 0xA0 SHL SUB AND PUSH1 0x24 DUP6 ADD MSTORE PUSH1 0x44 DUP5 ADD MSTORE PUSH1 0x80 PUSH1 0x64 DUP5 ADD MSTORE PUSH1 0x84 DUP4 ADD SWAP1 PUSH2 0x273A JUMP JUMPDEST POP POP POP POP PUSH1 0x1 SWAP1 JUMP JUMPDEST SWAP1 DUP2 MLOAD DUP2 LT ISZERO PUSH2 0x2B86 JUMPI ADD PUSH1 0x20 ADD SWAP1 JUMP JUMPDEST PUSH2 0x355C PUSH1 0x2A PUSH2 0x282D JUMP JUMPDEST SWAP1 PUSH2 0x356A PUSH1 0x40 MLOAD SWAP3 DUP4 PUSH2 0x280C JUMP JUMPDEST PUSH1 0x2A DUP3 MSTORE PUSH2 0x3578 PUSH1 0x2A PUSH2 0x282D JUMP JUMPDEST PUSH1 0x20 DUP4 ADD SWAP1 PUSH1 0x1F NOT ADD CALLDATASIZE DUP3 CALLDATACOPY DUP3 MLOAD ISZERO PUSH2 0x2B86 JUMPI PUSH1 0x30 SWAP1 MSTORE8 DUP2 MLOAD PUSH1 0x1 LT ISZERO PUSH2 0x2B86 JUMPI PUSH1 0x78 PUSH1 0x21 DUP4 ADD MSTORE8 PUSH1 0x29 JUMPDEST PUSH1 0x1 DUP2 GT PUSH2 0x35F7 JUMPI POP PUSH2 0x35B3 JUMPI SWAP1 JUMP JUMPDEST PUSH1 0x64 PUSH1 0x40 MLOAD PUSH3 0x461BCD PUSH1 0xE5 SHL DUP2 MSTORE PUSH1 0x20 PUSH1 0x4 DUP3 ADD MSTORE PUSH1 0x20 PUSH1 0x24 DUP3 ADD MSTORE PUSH32 0x537472696E67733A20686578206C656E67746820696E73756666696369656E74 PUSH1 0x44 DUP3 ADD MSTORE REVERT JUMPDEST SWAP1 PUSH1 0xF DUP2 AND PUSH1 0x10 DUP2 LT ISZERO PUSH2 0x2B86 JUMPI PUSH16 0x181899199A1A9B1B9C1CB0B131B232B3 PUSH1 0x81 SHL SWAP1 BYTE PUSH2 0x3625 DUP4 DUP6 PUSH2 0x3541 JUMP JUMPDEST MSTORE8 PUSH1 0x4 SHR SWAP1 DUP1 ISZERO PUSH2 0x2A4A JUMPI PUSH0 NOT ADD PUSH2 0x35A3 JUMP JUMPDEST PUSH2 0x3642 PUSH1 0x42 PUSH2 0x282D JUMP JUMPDEST SWAP1 PUSH2 0x3650 PUSH1 0x40 MLOAD SWAP3 DUP4 PUSH2 0x280C JUMP JUMPDEST PUSH1 0x42 DUP3 MSTORE PUSH2 0x365E PUSH1 0x42 PUSH2 0x282D JUMP JUMPDEST PUSH1 0x20 DUP4 ADD SWAP1 PUSH1 0x1F NOT ADD CALLDATASIZE DUP3 CALLDATACOPY DUP3 MLOAD ISZERO PUSH2 0x2B86 JUMPI PUSH1 0x30 SWAP1 MSTORE8 DUP2 MLOAD PUSH1 0x1 LT ISZERO PUSH2 0x2B86 JUMPI PUSH1 0x78 PUSH1 0x21 DUP4 ADD MSTORE8 PUSH1 0x41 JUMPDEST PUSH1 0x1 DUP2 GT PUSH2 0x3699 JUMPI POP PUSH2 0x35B3 JUMPI SWAP1 JUMP JUMPDEST SWAP1 PUSH1 0xF DUP2 AND PUSH1 0x10 DUP2 LT ISZERO PUSH2 0x2B86 JUMPI PUSH16 0x181899199A1A9B1B9C1CB0B131B232B3 PUSH1 0x81 SHL SWAP1 BYTE PUSH2 0x36C7 DUP4 DUP6 PUSH2 0x3541 JUMP JUMPDEST MSTORE8 PUSH1 0x4 SHR SWAP1 DUP1 ISZERO PUSH2 0x2A4A JUMPI PUSH0 NOT ADD PUSH2 0x3689 JUMP JUMPDEST ISZERO PUSH2 0x36E1 JUMPI JUMP JUMPDEST PUSH1 0x40 MLOAD PUSH3 0x461BCD PUSH1 0xE5 SHL DUP2 MSTORE PUSH1 0x20 PUSH1 0x4 DUP3 ADD MSTORE PUSH1 0x1C PUSH1 0x24 DUP3 ADD MSTORE PUSH32 0x4552433732313A20746F6B656E20616C7265616479206D696E74656400000000 PUSH1 0x44 DUP3 ADD MSTORE PUSH1 0x64 SWAP1 REVERT INVALID LOG2 PUSH5 0x6970667358 0x22 SLT KECCAK256 0xB7 0xB6 PUSH10 0xC832EE939533BAB63E11 SLT 0xDD 0xE9 SHR SELFBALANCE 0xD EXP 0xBB PUSH14 0x84A3F1C90F2D59F7EFC764736F6C PUSH4 0x4300081B STOP CALLER 0x2F DUP8 DUP9 GT PUSH31 0x7EFF1D82E926EC794901D17C78024A50270940304540A733656F0D3195C024 0xB2 0xDD 0xD6 0xD9 0xB8 0xF6 0xC8 CALLDATASIZE 0xAA MSTORE 0xF6 PUSH32 0xE69376C8903D009B80229B3CE4425F5154CDD369E4E8A8515E52CA72EC816C21 ADD DUP4 BYTE 0xD1 CALL DUP12 DELEGATECALL COINBASE MUL 0xED OR EQ MSIZE 0xC9 0xB4 0xF8 "},"methodIdentifiers":{"DEFAULT_ADMIN_ROLE()":"a217fddf","MINTER_ROLE()":"d5391393","TYPE_FLUSH()":"786ec4b8","TYPE_FOUR_OF_A_KIND()":"12abc66f","TYPE_FULL_HOUSE()":"0102ee33","TYPE_ROYAL_FLUSH()":"330077a3","TYPE_STRAIGHT()":"203d3576","TYPE_STRAIGHT_FLUSH()":"779dbbde","approve(address,uint256)":"095ea7b3","balanceOf(address)":"70a08231","bindAgent(address)":"c42a9fb6","clone(address)":"8124b78e","encryptedTransfer(address,bytes)":"fcd48a24","getApproved(uint256)":"081812fc","getCurrentMonthMintCount(uint256)":"67c56a0f","getEncryptedMetadata(uint256)":"3dd2e9a2","getHandTypeInfo(uint256)":"bf3e5885","getPokerData(uint256)":"f834da0a","getRoleAdmin(bytes32)":"248a9ca3","getTokenCards(uint256)":"dd9b2ae5","grantRole(bytes32,address)":"2f2ff15d","hasRole(bytes32,address)":"91d14854","isApprovedForAll(address,address)":"e985e9c5","mint(address,string,string,string)":"4a0706be","mintWithCards(address,uint256,string[],string,string)":"c881ea67","monthlyMintCount(uint256,uint256)":"bc6e5c15","name()":"06fdde03","ownerOf(uint256)":"6352211e","renounceRole(bytes32,address)":"36568abe","revokeRole(bytes32,address)":"d547741f","safeTransferFrom(address,address,uint256)":"42842e0e","safeTransferFrom(address,address,uint256,bytes)":"b88d4fde","setApprovalForAll(address,bool)":"a22cb465","supportsInterface(bytes4)":"01ffc9a7","symbol()":"95d89b41","tokenURI(uint256)":"c87b56dd","transferFrom(address,address,uint256)":"23b872dd","unbindAgent()":"a5ea1f21"}}}}}