{"contracts/0g/PokerGame0G.sol":{"PokerGame0G":{"abi":[{"inputs":[{"internalType":"address","name":"_feeRecipient","type":"address"}],"stateMutability":"nonpayable","type":"constructor"},{"anonymous":false,"inputs":[{"indexed":true,"internalType":"address","name":"player","type":"address"},{"indexed":true,"internalType":"address","name":"delegate","type":"address"}],"name":"DelegateAuthorized","type":"event"},{"anonymous":false,"inputs":[{"indexed":true,"internalType":"address","name":"player","type":"address"}],"name":"DelegateRevoked","type":"event"},{"anonymous":false,"inputs":[{"indexed":true,"internalType":"address","name":"player","type":"address"},{"indexed":false,"internalType":"uint256","name":"amount","type":"uint256"}],"name":"Deposited","type":"event"},{"anonymous":false,"inputs":[{"indexed":true,"internalType":"address","name":"oldOperator","type":"address"},{"indexed":true,"internalType":"address","name":"newOperator","type":"address"}],"name":"OperatorChanged","type":"event"},{"anonymous":false,"inputs":[{"indexed":true,"internalType":"address","name":"player","type":"address"},{"indexed":false,"internalType":"uint256","name":"finalStack","type":"uint256"}],"name":"PlayerLeftTable","type":"event"},{"anonymous":false,"inputs":[{"indexed":true,"internalType":"bytes32","name":"role","type":"bytes32"},{"indexed":true,"internalType":"bytes32","name":"previousAdminRole","type":"bytes32"},{"indexed":true,"internalType":"bytes32","name":"newAdminRole","type":"bytes32"}],"name":"RoleAdminChanged","type":"event"},{"anonymous":false,"inputs":[{"indexed":true,"internalType":"bytes32","name":"role","type":"bytes32"},{"indexed":true,"internalType":"address","name":"account","type":"address"},{"indexed":true,"internalType":"address","name":"sender","type":"address"}],"name":"RoleGranted","type":"event"},{"anonymous":false,"inputs":[{"indexed":true,"internalType":"bytes32","name":"role","type":"bytes32"},{"indexed":true,"internalType":"address","name":"account","type":"address"},{"indexed":true,"internalType":"address","name":"sender","type":"address"}],"name":"RoleRevoked","type":"event"},{"anonymous":false,"inputs":[{"indexed":true,"internalType":"uint256","name":"handId","type":"uint256"},{"indexed":false,"internalType":"address[]","name":"winners","type":"address[]"},{"indexed":false,"internalType":"uint256[]","name":"amounts","type":"uint256[]"},{"indexed":false,"internalType":"uint256","name":"totalPot","type":"uint256"},{"indexed":false,"internalType":"uint256","name":"rake","type":"uint256"},{"indexed":false,"internalType":"bytes32","name":"stateHash","type":"bytes32"}],"name":"Settled","type":"event"},{"anonymous":false,"inputs":[{"indexed":true,"internalType":"address","name":"player","type":"address"},{"indexed":false,"internalType":"uint256","name":"amount","type":"uint256"}],"name":"Withdrawn","type":"event"},{"inputs":[],"name":"DEFAULT_ADMIN_ROLE","outputs":[{"internalType":"bytes32","name":"","type":"bytes32"}],"stateMutability":"view","type":"function"},{"inputs":[],"name":"MINTER_ROLE","outputs":[{"internalType":"bytes32","name":"","type":"bytes32"}],"stateMutability":"view","type":"function"},{"inputs":[],"name":"OPERATOR_ROLE","outputs":[{"internalType":"bytes32","name":"","type":"bytes32"}],"stateMutability":"view","type":"function"},{"inputs":[{"internalType":"address","name":"delegate","type":"address"}],"name":"authorizeDelegate","outputs":[],"stateMutability":"nonpayable","type":"function"},{"inputs":[{"internalType":"address","name":"","type":"address"}],"name":"custodyBalance","outputs":[{"internalType":"uint256","name":"","type":"uint256"}],"stateMutability":"view","type":"function"},{"inputs":[{"internalType":"address","name":"","type":"address"}],"name":"delegates","outputs":[{"internalType":"address","name":"","type":"address"}],"stateMutability":"view","type":"function"},{"inputs":[],"name":"deposit","outputs":[],"stateMutability":"payable","type":"function"},{"inputs":[{"internalType":"contract IERC20","name":"token","type":"address"},{"internalType":"uint256","name":"amount","type":"uint256"}],"name":"depositToken","outputs":[],"stateMutability":"nonpayable","type":"function"},{"inputs":[{"internalType":"address","name":"player","type":"address"},{"internalType":"uint256","name":"amount","type":"uint256"}],"name":"executeDepositFor","outputs":[],"stateMutability":"payable","type":"function"},{"inputs":[],"name":"feeRecipient","outputs":[{"internalType":"address","name":"","type":"address"}],"stateMutability":"view","type":"function"},{"inputs":[{"internalType":"address","name":"player","type":"address"}],"name":"getCustodyBalance","outputs":[{"internalType":"uint256","name":"","type":"uint256"}],"stateMutability":"view","type":"function"},{"inputs":[{"internalType":"uint256","name":"handId","type":"uint256"}],"name":"getHandStateHash","outputs":[{"internalType":"bytes32","name":"","type":"bytes32"}],"stateMutability":"view","type":"function"},{"inputs":[{"internalType":"bytes32","name":"role","type":"bytes32"}],"name":"getRoleAdmin","outputs":[{"internalType":"bytes32","name":"","type":"bytes32"}],"stateMutability":"view","type":"function"},{"inputs":[{"internalType":"bytes32","name":"role","type":"bytes32"},{"internalType":"address","name":"account","type":"address"}],"name":"grantRole","outputs":[],"stateMutability":"nonpayable","type":"function"},{"inputs":[{"internalType":"uint256","name":"","type":"uint256"}],"name":"handStateHashes","outputs":[{"internalType":"bytes32","name":"","type":"bytes32"}],"stateMutability":"view","type":"function"},{"inputs":[{"internalType":"bytes32","name":"role","type":"bytes32"},{"internalType":"address","name":"account","type":"address"}],"name":"hasRole","outputs":[{"internalType":"bool","name":"","type":"bool"}],"stateMutability":"view","type":"function"},{"inputs":[{"internalType":"address","name":"player","type":"address"},{"internalType":"address","name":"delegate","type":"address"}],"name":"isDelegateFor","outputs":[{"internalType":"bool","name":"","type":"bool"}],"stateMutability":"view","type":"function"},{"inputs":[{"internalType":"address","name":"player","type":"address"},{"internalType":"uint256","name":"finalStack","type":"uint256"}],"name":"leaveTableSession","outputs":[],"stateMutability":"nonpayable","type":"function"},{"inputs":[{"internalType":"bytes32","name":"role","type":"bytes32"},{"internalType":"address","name":"account","type":"address"}],"name":"renounceRole","outputs":[],"stateMutability":"nonpayable","type":"function"},{"inputs":[],"name":"revokeDelegate","outputs":[],"stateMutability":"nonpayable","type":"function"},{"inputs":[{"internalType":"bytes32","name":"role","type":"bytes32"},{"internalType":"address","name":"account","type":"address"}],"name":"revokeRole","outputs":[],"stateMutability":"nonpayable","type":"function"},{"inputs":[{"internalType":"address","name":"newRecipient","type":"address"}],"name":"setFeeRecipient","outputs":[],"stateMutability":"nonpayable","type":"function"},{"inputs":[{"internalType":"uint256","name":"handId","type":"uint256"},{"internalType":"address[]","name":"winners","type":"address[]"},{"internalType":"uint256[]","name":"amounts","type":"uint256[]"},{"internalType":"uint256","name":"totalPot","type":"uint256"},{"internalType":"uint256","name":"rake","type":"uint256"},{"internalType":"bytes32","name":"stateHash","type":"bytes32"}],"name":"settle","outputs":[],"stateMutability":"nonpayable","type":"function"},{"inputs":[{"internalType":"bytes4","name":"interfaceId","type":"bytes4"}],"name":"supportsInterface","outputs":[{"internalType":"bool","name":"","type":"bool"}],"stateMutability":"view","type":"function"},{"inputs":[],"name":"totalCustody","outputs":[{"internalType":"uint256","name":"","type":"uint256"}],"stateMutability":"view","type":"function"},{"inputs":[{"internalType":"uint256","name":"amount","type":"uint256"}],"name":"withdraw","outputs":[],"stateMutability":"nonpayable","type":"function"}],"evm":{"bytecode":{"linkReferences":{},"object":"60803461022657601f61166738819003918201601f19168301916001600160401b0383118484101761022a5780849260209460405283398101031261022657516001600160a01b038116908190036102265780156101e157335f9081525f5160206116475f395f51905f52602052604090205460ff16156101a4575b335f9081525f5160206116275f395f51905f52602052604090205460ff1615610145575b335f9081525f5160206116075f395f51905f52602052604090205460ff16156100e6575b600580546001600160a01b0319169190911790556040516113a8908161023f8239f35b335f8181525f5160206116075f395f51905f5260205260408120805460ff1916600117905581907f9f2df0fed2c77648de5860a4cc508cd0818c85b8b8a1ab4ceeef8d981c8956a6905f5160206115e75f395f51905f529080a46100c3565b335f8181525f5160206116275f395f51905f5260205260408120805460ff1916600117905581907f97667070c54ef182b0f5858b034beac1b6f3089aa2d3188bb1e8929f4fa9b929905f5160206115e75f395f51905f529080a461009f565b335f8181525f5160206116475f395f51905f5260205260408120805460ff1916600117905581905f5160206115e75f395f51905f528180a461007b565b60405162461bcd60e51b815260206004820152601560248201527f496e76616c69642066656520726563697069656e7400000000000000000000006044820152606490fd5b5f80fd5b634e487b7160e01b5f52604160045260245ffdfe6080806040526004361015610012575f80fd5b5f3560e01c90816262f16714610f645750806301ffc9a714610f0e57806302dbed9d146109bd5780630cac139e14610e5d578063248a9ca314610e2b5780632e1a7d4d14610d3e5780632f2ff15d14610c87578063338b5dea14610b4157806336568abe14610aaf5780634690484014610a8757806355d1ef3814610a35578063587cde1e146109f55780635d5f8cd81461017757806369e08a0c146109bd578063791340361461070157806391d14854146106b9578063a217fddf1461069f578063c23a246514610654578063d0e30db0146105e8578063d5391393146105ae578063d547741f1461056a578063e6aa142714610492578063e74b981b14610317578063ed1f67c5146101a1578063f01fd7a9146101775763f5b541a614610139575f80fd5b34610173575f3660031901126101735760206040517f97667070c54ef182b0f5858b034beac1b6f3089aa2d3188bb1e8929f4fa9b9298152f35b5f80fd5b34610173576020366003190112610173576004355f526003602052602060405f2054604051908152f35b6040366003190112610173576101b5610f7e565b335f9081525f5160206113535f395f51905f52602052604090205460243591906101e19060ff16611080565b6001600160a01b039081165f8181526002602052604090205490929116331480156102f3575b156102bd578034108015906102b5575b1561027b5760208161024b7f2da466a7b24304f47e87fa2e1e5a81b9831ce54fec19055ce277ca2f39ba42c4931515610fdb565b835f526001825260405f20610261828254611073565b905561026f81600454611073565b600455604051908152a2005b60405162461bcd60e51b8152602060048201526012602482015271496e73756666696369656e742076616c756560701b6044820152606490fd5b508015610217565b60405162461bcd60e51b815260206004820152600e60248201526d139bdd08185d5d1a1bdc9a5e995960921b6044820152606490fd5b50335f9081525f5160206113535f395f51905f52602052604090205460ff16610207565b3461017357602036600319011261017357610330610f7e565b335f9081527fad3228b676f7d3cd4284a5443f17f1962b36e491b30a40b2405849e597ba5fb5602052604090205460ff16156103c8576001600160a01b03168015610391576bffffffffffffffffffffffff60a01b60055416176005555f80f35b60405162461bcd60e51b815260206004820152600f60248201526e496e76616c6964206164647265737360881b6044820152606490fd5b6103d1336111ca565b6044602061045a60116103e35f6112b0565b603760405194859281808501997f416363657373436f6e74726f6c3a206163636f756e74200000000000000000008b528051918291018587015e8401907001034b99036b4b9b9b4b733903937b6329607d1b84830152805192839101604883015e01015f838201520301601f19810183528261103d565b60405192839162461bcd60e51b8352602060048401525180918160248501528484015e5f828201840152601f01601f19168101030190fd5b34610173576040366003190112610173576104ab610f7e565b335f9081525f5160206113535f395f51905f52602052604090205460243591906104d79060ff16611080565b6001600160a01b031690811561052c5760207f3bb383b2f8177e04677b7c6bd84d61cc2f4e0121d47f33d8ea137f6e110afa4691835f526001825260405f20610521828254611073565b9055604051908152a2005b60405162461bcd60e51b8152602060048201526016602482015275496e76616c696420706c61796572206164647265737360501b6044820152606490fd5b34610173576040366003190112610173576105ac600435610589610f94565b906105a76105a2825f525f602052600160405f20015490565b6110e0565b61111d565b005b34610173575f3660031901126101735760206040517f9f2df0fed2c77648de5860a4cc508cd0818c85b8b8a1ab4ceeef8d981c8956a68152f35b5f366003190112610173576105fe341515610fdb565b335f52600160205260405f20610615348254611073565b905561062334600454611073565b6004556040513481527f2da466a7b24304f47e87fa2e1e5a81b9831ce54fec19055ce277ca2f39ba42c460203392a2005b3461017357604036600319011261017357602061066f610f7e565b610677610f94565b6001600160a01b039182165f9081526002845260409081902054905190831691909216148152f35b34610173575f3660031901126101735760206040515f8152f35b34610173576040366003190112610173576106d2610f94565b6004355f525f60205260405f209060018060a01b03165f52602052602060ff60405f2054166040519015158152f35b346101735760c03660031901126101735760043560243567ffffffffffffffff811161017357610735903690600401610faa565b60443567ffffffffffffffff811161017357610755903690600401610faa565b335f9081525f5160206113535f395f51905f52602052604090205460843594606435939160a435906107899060ff16611080565b83860361097857851561093c5784875f5f5b8781106108d25750906107ad91611073565b116108985786610870575b875f5260036020528060405f2055604051958060a0880160a089525260c0870192905f905b8082106108465750505085820360208701528382526001600160fb1b038411610173577f641bcd60dca6e837d11a8be67b4d6462e10fed4cdae68b6bc90ae2794a310b2d96602095879560051b80958886013760408601526060850152608084015201030190a2005b90919384359060018060a01b038216809203610173576020816001938293520195019201906107dd565b60018060a01b03600554165f52600160205260405f20610891888254611073565b90556107b8565b60405162461bcd60e51b8152602060048201526012602482015271105b5bdd5b9d1cc8195e18d95959081c1bdd60721b6044820152606490fd5b92506108eb91506108e48388886110bc565b3590611073565b906108f78187876110bc565b3590610904818a876110bc565b356001600160a01b0381169290839003610173576001925f528260205261093060405f20918254611073565b9055018691899161079b565b60405162461bcd60e51b8152602060048201526014602482015273139bc81dda5b9b995c9cc81cdc1958da599a595960621b6044820152606490fd5b60405162461bcd60e51b815260206004820152601f60248201527f57696e6e6572732f616d6f756e7473206c656e677468206d69736d61746368006044820152606490fd5b34610173576020366003190112610173576001600160a01b036109de610f7e565b165f526001602052602060405f2054604051908152f35b34610173576020366003190112610173576001600160a01b03610a16610f7e565b165f526002602052602060018060a01b0360405f205416604051908152f35b34610173575f36600319011261017357335f81815260026020526040812080546001600160a01b03191690557fbf7c2a6c0beccbbb4e820a8cf0e5b3e1eef2ba00e02333658d521636adf414589080a2005b34610173575f366003190112610173576005546040516001600160a01b039091168152602090f35b3461017357604036600319011261017357610ac8610f94565b336001600160a01b03821603610ae4576105ac9060043561111d565b60405162461bcd60e51b815260206004820152602f60248201527f416363657373436f6e74726f6c3a2063616e206f6e6c792072656e6f756e636560448201526e103937b632b9903337b91039b2b63360891b6064820152608490fd5b34610173576040366003190112610173576004356001600160a01b03811690819003610173575f602060243592610b79841515610fdb565b6064604051809481936323b872dd60e01b83523360048401523060248401528760448401525af1908115610c7c575f91610c41575b5015610c0a57335f52600160205260405f20610bcb828254611073565b9055610bd981600454611073565b6004556040519081527f2da466a7b24304f47e87fa2e1e5a81b9831ce54fec19055ce277ca2f39ba42c460203392a2005b60405162461bcd60e51b815260206004820152600f60248201526e151c985b9cd9995c8819985a5b1959608a1b6044820152606490fd5b90506020813d602011610c74575b81610c5c6020938361103d565b81010312610173575180151581036101735782610bae565b3d9150610c4f565b6040513d5f823e3d90fd5b3461017357604036600319011261017357600435610ca3610f94565b90610cbc6105a2825f525f602052600160405f20015490565b5f818152602081815260408083206001600160a01b038616845290915290205460ff1615610ce657005b5f818152602081815260408083206001600160a01b0395909516808452949091528120805460ff19166001179055339291907f2f8788117e7eff1d82e926ec794901d17c78024a50270940304540a733656f0d9080a4005b3461017357602036600319011261017357600435335f5260016020528060405f205410610de657808015610d728115610fdb565b335f52600160205260405f20610d8983825461101c565b9055610d978260045461101c565b6004555f90610ddd575b5f80809381933390f115610c7c576040519081527f7084f5476618d8e60b11ef0d7d3f06914655adb8793e28ff7f018d4c76d505d560203392a2005b506108fc610da1565b60405162461bcd60e51b815260206004820152601c60248201527f496e73756666696369656e7420637573746f64792062616c616e6365000000006044820152606490fd5b34610173576020366003190112610173576020610e556004355f525f602052600160405f20015490565b604051908152f35b34610173576020366003190112610173576001600160a01b03610e7e610f7e565b168015610ec957335f81815260026020526040812080546001600160a01b031916841790557fe0568110c5befd8fe07f34a5ecf41a7b844a789efa0e02be8b074c00e1e1ad009080a3005b60405162461bcd60e51b815260206004820152601860248201527f496e76616c69642064656c6567617465206164647265737300000000000000006044820152606490fd5b346101735760203660031901126101735760043563ffffffff60e01b811680910361017357602090637965db0b60e01b8114908115610f53575b506040519015158152f35b6301ffc9a760e01b14905082610f48565b34610173575f366003190112610173576020906004548152f35b600435906001600160a01b038216820361017357565b602435906001600160a01b038216820361017357565b9181601f840112156101735782359167ffffffffffffffff8311610173576020808501948460051b01011161017357565b15610fe257565b60405162461bcd60e51b81526020600482015260126024820152710416d6f756e74206d757374206265203e20360741b6044820152606490fd5b9190820391821161102957565b634e487b7160e01b5f52601160045260245ffd5b90601f8019910116810190811067ffffffffffffffff82111761105f57604052565b634e487b7160e01b5f52604160045260245ffd5b9190820180921161102957565b1561108757565b60405162461bcd60e51b815260206004820152600d60248201526c27b7363c9037b832b930ba37b960991b6044820152606490fd5b91908110156110cc5760051b0190565b634e487b7160e01b5f52603260045260245ffd5b5f8181526020818152604080832033845290915290205460ff16156111025750565b6044602061045a60116103e3611117336111ca565b956112b0565b5f818152602081815260408083206001600160a01b038616845290915290205460ff16611148575050565b5f818152602081815260408083206001600160a01b0395909516808452949091528120805460ff19169055339291907ff6391f5c32d9c69d2a47ea670b442974b53935d1edc7fd64eb21e047a839171b9080a4565b67ffffffffffffffff811161105f57601f01601f191660200190565b9081518110156110cc570160200190565b6111d4602a61119d565b906111e2604051928361103d565b602a82526111f0602a61119d565b6020830190601f19013682378251156110cc57603090538151600110156110cc576078602183015360295b6001811161126f575061122b5790565b606460405162461bcd60e51b815260206004820152602060248201527f537472696e67733a20686578206c656e67746820696e73756666696369656e746044820152fd5b90600f811660108110156110cc576f181899199a1a9b1b9c1cb0b131b232b360811b901a61129d83856111b9565b5360041c908015611029575f190161121b565b6112ba604261119d565b906112c8604051928361103d565b604282526112d6604261119d565b6020830190601f19013682378251156110cc57603090538151600110156110cc576078602183015360415b60018111611311575061122b5790565b90600f811660108110156110cc576f181899199a1a9b1b9c1cb0b131b232b360811b901a61133f83856111b9565b5360041c908015611029575f190161130156feee57cd81e84075558e8fcc182a1f4393f91fc97f963a136e66b7f949a62f319fa26469706673582212207043b68a95064abc92ed771ed2a980b00bca05c651ff85edfc22a13f0f159e5f64736f6c634300081b00332f8788117e7eff1d82e926ec794901d17c78024a50270940304540a733656f0d0781d7cac9c378efa22a7481e4d4d29704a680ddf504b3bc50b517700ee11e6cee57cd81e84075558e8fcc182a1f4393f91fc97f963a136e66b7f949a62f319fad3228b676f7d3cd4284a5443f17f1962b36e491b30a40b2405849e597ba5fb5","opcodes":"PUSH1 0x80 CALLVALUE PUSH2 0x226 JUMPI PUSH1 0x1F PUSH2 0x1667 CODESIZE DUP2 SWAP1 SUB SWAP2 DUP3 ADD PUSH1 0x1F NOT AND DUP4 ADD SWAP2 PUSH1 0x1 PUSH1 0x1 PUSH1 0x40 SHL SUB DUP4 GT DUP5 DUP5 LT OR PUSH2 0x22A JUMPI DUP1 DUP5 SWAP3 PUSH1 0x20 SWAP5 PUSH1 0x40 MSTORE DUP4 CODECOPY DUP2 ADD SUB SLT PUSH2 0x226 JUMPI MLOAD PUSH1 0x1 PUSH1 0x1 PUSH1 0xA0 SHL SUB DUP2 AND SWAP1 DUP2 SWAP1 SUB PUSH2 0x226 JUMPI DUP1 ISZERO PUSH2 0x1E1 JUMPI CALLER PUSH0 SWAP1 DUP2 MSTORE PUSH0 MLOAD PUSH1 0x20 PUSH2 0x1647 PUSH0 CODECOPY PUSH0 MLOAD SWAP1 PUSH0 MSTORE PUSH1 0x20 MSTORE PUSH1 0x40 SWAP1 KECCAK256 SLOAD PUSH1 0xFF AND ISZERO PUSH2 0x1A4 JUMPI JUMPDEST CALLER PUSH0 SWAP1 DUP2 MSTORE PUSH0 MLOAD PUSH1 0x20 PUSH2 0x1627 PUSH0 CODECOPY PUSH0 MLOAD SWAP1 PUSH0 MSTORE PUSH1 0x20 MSTORE PUSH1 0x40 SWAP1 KECCAK256 SLOAD PUSH1 0xFF AND ISZERO PUSH2 0x145 JUMPI JUMPDEST CALLER PUSH0 SWAP1 DUP2 MSTORE PUSH0 MLOAD PUSH1 0x20 PUSH2 0x1607 PUSH0 CODECOPY PUSH0 MLOAD SWAP1 PUSH0 MSTORE PUSH1 0x20 MSTORE PUSH1 0x40 SWAP1 KECCAK256 SLOAD PUSH1 0xFF AND ISZERO PUSH2 0xE6 JUMPI JUMPDEST PUSH1 0x5 DUP1 SLOAD PUSH1 0x1 PUSH1 0x1 PUSH1 0xA0 SHL SUB NOT AND SWAP2 SWAP1 SWAP2 OR SWAP1 SSTORE PUSH1 0x40 MLOAD PUSH2 0x13A8 SWAP1 DUP2 PUSH2 0x23F DUP3 CODECOPY RETURN JUMPDEST CALLER PUSH0 DUP2 DUP2 MSTORE PUSH0 MLOAD PUSH1 0x20 PUSH2 0x1607 PUSH0 CODECOPY PUSH0 MLOAD SWAP1 PUSH0 MSTORE PUSH1 0x20 MSTORE PUSH1 0x40 DUP2 KECCAK256 DUP1 SLOAD PUSH1 0xFF NOT AND PUSH1 0x1 OR SWAP1 SSTORE DUP2 SWAP1 PUSH32 0x9F2DF0FED2C77648DE5860A4CC508CD0818C85B8B8A1AB4CEEEF8D981C8956A6 SWAP1 PUSH0 MLOAD PUSH1 0x20 PUSH2 0x15E7 PUSH0 CODECOPY PUSH0 MLOAD SWAP1 PUSH0 MSTORE SWAP1 DUP1 LOG4 PUSH2 0xC3 JUMP JUMPDEST CALLER PUSH0 DUP2 DUP2 MSTORE PUSH0 MLOAD PUSH1 0x20 PUSH2 0x1627 PUSH0 CODECOPY PUSH0 MLOAD SWAP1 PUSH0 MSTORE PUSH1 0x20 MSTORE PUSH1 0x40 DUP2 KECCAK256 DUP1 SLOAD PUSH1 0xFF NOT AND PUSH1 0x1 OR SWAP1 SSTORE DUP2 SWAP1 PUSH32 0x97667070C54EF182B0F5858B034BEAC1B6F3089AA2D3188BB1E8929F4FA9B929 SWAP1 PUSH0 MLOAD PUSH1 0x20 PUSH2 0x15E7 PUSH0 CODECOPY PUSH0 MLOAD SWAP1 PUSH0 MSTORE SWAP1 DUP1 LOG4 PUSH2 0x9F JUMP JUMPDEST CALLER PUSH0 DUP2 DUP2 MSTORE PUSH0 MLOAD PUSH1 0x20 PUSH2 0x1647 PUSH0 CODECOPY PUSH0 MLOAD SWAP1 PUSH0 MSTORE PUSH1 0x20 MSTORE PUSH1 0x40 DUP2 KECCAK256 DUP1 SLOAD PUSH1 0xFF NOT AND PUSH1 0x1 OR SWAP1 SSTORE DUP2 SWAP1 PUSH0 MLOAD PUSH1 0x20 PUSH2 0x15E7 PUSH0 CODECOPY PUSH0 MLOAD SWAP1 PUSH0 MSTORE DUP2 DUP1 LOG4 PUSH2 0x7B JUMP JUMPDEST PUSH1 0x40 MLOAD PUSH3 0x461BCD PUSH1 0xE5 SHL DUP2 MSTORE PUSH1 0x20 PUSH1 0x4 DUP3 ADD MSTORE PUSH1 0x15 PUSH1 0x24 DUP3 ADD MSTORE PUSH32 0x496E76616C69642066656520726563697069656E740000000000000000000000 PUSH1 0x44 DUP3 ADD MSTORE PUSH1 0x64 SWAP1 REVERT JUMPDEST PUSH0 DUP1 REVERT JUMPDEST PUSH4 0x4E487B71 PUSH1 0xE0 SHL PUSH0 MSTORE PUSH1 0x41 PUSH1 0x4 MSTORE PUSH1 0x24 PUSH0 REVERT INVALID PUSH1 0x80 DUP1 PUSH1 0x40 MSTORE PUSH1 0x4 CALLDATASIZE LT ISZERO PUSH2 0x12 JUMPI PUSH0 DUP1 REVERT JUMPDEST PUSH0 CALLDATALOAD PUSH1 0xE0 SHR SWAP1 DUP2 PUSH3 0x62F167 EQ PUSH2 0xF64 JUMPI POP DUP1 PUSH4 0x1FFC9A7 EQ PUSH2 0xF0E JUMPI DUP1 PUSH4 0x2DBED9D EQ PUSH2 0x9BD JUMPI DUP1 PUSH4 0xCAC139E EQ PUSH2 0xE5D JUMPI DUP1 PUSH4 0x248A9CA3 EQ PUSH2 0xE2B JUMPI DUP1 PUSH4 0x2E1A7D4D EQ PUSH2 0xD3E JUMPI DUP1 PUSH4 0x2F2FF15D EQ PUSH2 0xC87 JUMPI DUP1 PUSH4 0x338B5DEA EQ PUSH2 0xB41 JUMPI DUP1 PUSH4 0x36568ABE EQ PUSH2 0xAAF JUMPI DUP1 PUSH4 0x46904840 EQ PUSH2 0xA87 JUMPI DUP1 PUSH4 0x55D1EF38 EQ PUSH2 0xA35 JUMPI DUP1 PUSH4 0x587CDE1E EQ PUSH2 0x9F5 JUMPI DUP1 PUSH4 0x5D5F8CD8 EQ PUSH2 0x177 JUMPI DUP1 PUSH4 0x69E08A0C EQ PUSH2 0x9BD JUMPI DUP1 PUSH4 0x79134036 EQ PUSH2 0x701 JUMPI DUP1 PUSH4 0x91D14854 EQ PUSH2 0x6B9 JUMPI DUP1 PUSH4 0xA217FDDF EQ PUSH2 0x69F JUMPI DUP1 PUSH4 0xC23A2465 EQ PUSH2 0x654 JUMPI DUP1 PUSH4 0xD0E30DB0 EQ PUSH2 0x5E8 JUMPI DUP1 PUSH4 0xD5391393 EQ PUSH2 0x5AE JUMPI DUP1 PUSH4 0xD547741F EQ PUSH2 0x56A JUMPI DUP1 PUSH4 0xE6AA1427 EQ PUSH2 0x492 JUMPI DUP1 PUSH4 0xE74B981B EQ PUSH2 0x317 JUMPI DUP1 PUSH4 0xED1F67C5 EQ PUSH2 0x1A1 JUMPI DUP1 PUSH4 0xF01FD7A9 EQ PUSH2 0x177 JUMPI PUSH4 0xF5B541A6 EQ PUSH2 0x139 JUMPI PUSH0 DUP1 REVERT JUMPDEST CALLVALUE PUSH2 0x173 JUMPI PUSH0 CALLDATASIZE PUSH1 0x3 NOT ADD SLT PUSH2 0x173 JUMPI PUSH1 0x20 PUSH1 0x40 MLOAD PUSH32 0x97667070C54EF182B0F5858B034BEAC1B6F3089AA2D3188BB1E8929F4FA9B929 DUP2 MSTORE RETURN JUMPDEST PUSH0 DUP1 REVERT JUMPDEST CALLVALUE PUSH2 0x173 JUMPI PUSH1 0x20 CALLDATASIZE PUSH1 0x3 NOT ADD SLT PUSH2 0x173 JUMPI PUSH1 0x4 CALLDATALOAD PUSH0 MSTORE PUSH1 0x3 PUSH1 0x20 MSTORE PUSH1 0x20 PUSH1 0x40 PUSH0 KECCAK256 SLOAD PUSH1 0x40 MLOAD SWAP1 DUP2 MSTORE RETURN JUMPDEST PUSH1 0x40 CALLDATASIZE PUSH1 0x3 NOT ADD SLT PUSH2 0x173 JUMPI PUSH2 0x1B5 PUSH2 0xF7E JUMP JUMPDEST CALLER PUSH0 SWAP1 DUP2 MSTORE PUSH0 MLOAD PUSH1 0x20 PUSH2 0x1353 PUSH0 CODECOPY PUSH0 MLOAD SWAP1 PUSH0 MSTORE PUSH1 0x20 MSTORE PUSH1 0x40 SWAP1 KECCAK256 SLOAD PUSH1 0x24 CALLDATALOAD SWAP2 SWAP1 PUSH2 0x1E1 SWAP1 PUSH1 0xFF AND PUSH2 0x1080 JUMP JUMPDEST PUSH1 0x1 PUSH1 0x1 PUSH1 0xA0 SHL SUB SWAP1 DUP2 AND PUSH0 DUP2 DUP2 MSTORE PUSH1 0x2 PUSH1 0x20 MSTORE PUSH1 0x40 SWAP1 KECCAK256 SLOAD SWAP1 SWAP3 SWAP2 AND CALLER EQ DUP1 ISZERO PUSH2 0x2F3 JUMPI JUMPDEST ISZERO PUSH2 0x2BD JUMPI DUP1 CALLVALUE LT DUP1 ISZERO SWAP1 PUSH2 0x2B5 JUMPI JUMPDEST ISZERO PUSH2 0x27B JUMPI PUSH1 0x20 DUP2 PUSH2 0x24B PUSH32 0x2DA466A7B24304F47E87FA2E1E5A81B9831CE54FEC19055CE277CA2F39BA42C4 SWAP4 ISZERO ISZERO PUSH2 0xFDB JUMP JUMPDEST DUP4 PUSH0 MSTORE PUSH1 0x1 DUP3 MSTORE PUSH1 0x40 PUSH0 KECCAK256 PUSH2 0x261 DUP3 DUP3 SLOAD PUSH2 0x1073 JUMP JUMPDEST SWAP1 SSTORE PUSH2 0x26F DUP2 PUSH1 0x4 SLOAD PUSH2 0x1073 JUMP JUMPDEST PUSH1 0x4 SSTORE PUSH1 0x40 MLOAD SWAP1 DUP2 MSTORE LOG2 STOP JUMPDEST PUSH1 0x40 MLOAD PUSH3 0x461BCD PUSH1 0xE5 SHL DUP2 MSTORE PUSH1 0x20 PUSH1 0x4 DUP3 ADD MSTORE PUSH1 0x12 PUSH1 0x24 DUP3 ADD MSTORE PUSH18 0x496E73756666696369656E742076616C7565 PUSH1 0x70 SHL PUSH1 0x44 DUP3 ADD MSTORE PUSH1 0x64 SWAP1 REVERT JUMPDEST POP DUP1 ISZERO PUSH2 0x217 JUMP JUMPDEST PUSH1 0x40 MLOAD PUSH3 0x461BCD PUSH1 0xE5 SHL DUP2 MSTORE PUSH1 0x20 PUSH1 0x4 DUP3 ADD MSTORE PUSH1 0xE PUSH1 0x24 DUP3 ADD MSTORE PUSH14 0x139BDD08185D5D1A1BDC9A5E9959 PUSH1 0x92 SHL PUSH1 0x44 DUP3 ADD MSTORE PUSH1 0x64 SWAP1 REVERT JUMPDEST POP CALLER PUSH0 SWAP1 DUP2 MSTORE PUSH0 MLOAD PUSH1 0x20 PUSH2 0x1353 PUSH0 CODECOPY PUSH0 MLOAD SWAP1 PUSH0 MSTORE PUSH1 0x20 MSTORE PUSH1 0x40 SWAP1 KECCAK256 SLOAD PUSH1 0xFF AND PUSH2 0x207 JUMP JUMPDEST CALLVALUE PUSH2 0x173 JUMPI PUSH1 0x20 CALLDATASIZE PUSH1 0x3 NOT ADD SLT PUSH2 0x173 JUMPI PUSH2 0x330 PUSH2 0xF7E JUMP JUMPDEST CALLER PUSH0 SWAP1 DUP2 MSTORE PUSH32 0xAD3228B676F7D3CD4284A5443F17F1962B36E491B30A40B2405849E597BA5FB5 PUSH1 0x20 MSTORE PUSH1 0x40 SWAP1 KECCAK256 SLOAD PUSH1 0xFF AND ISZERO PUSH2 0x3C8 JUMPI PUSH1 0x1 PUSH1 0x1 PUSH1 0xA0 SHL SUB AND DUP1 ISZERO PUSH2 0x391 JUMPI PUSH12 0xFFFFFFFFFFFFFFFFFFFFFFFF PUSH1 0xA0 SHL PUSH1 0x5 SLOAD AND OR PUSH1 0x5 SSTORE PUSH0 DUP1 RETURN JUMPDEST PUSH1 0x40 MLOAD PUSH3 0x461BCD PUSH1 0xE5 SHL DUP2 MSTORE PUSH1 0x20 PUSH1 0x4 DUP3 ADD MSTORE PUSH1 0xF PUSH1 0x24 DUP3 ADD MSTORE PUSH15 0x496E76616C69642061646472657373 PUSH1 0x88 SHL PUSH1 0x44 DUP3 ADD MSTORE PUSH1 0x64 SWAP1 REVERT JUMPDEST PUSH2 0x3D1 CALLER PUSH2 0x11CA JUMP JUMPDEST PUSH1 0x44 PUSH1 0x20 PUSH2 0x45A PUSH1 0x11 PUSH2 0x3E3 PUSH0 PUSH2 0x12B0 JUMP JUMPDEST PUSH1 0x37 PUSH1 0x40 MLOAD SWAP5 DUP6 SWAP3 DUP2 DUP1 DUP6 ADD SWAP10 PUSH32 0x416363657373436F6E74726F6C3A206163636F756E7420000000000000000000 DUP12 MSTORE DUP1 MLOAD SWAP2 DUP3 SWAP2 ADD DUP6 DUP8 ADD MCOPY DUP5 ADD SWAP1 PUSH17 0x1034B99036B4B9B9B4B733903937B6329 PUSH1 0x7D SHL DUP5 DUP4 ADD MSTORE DUP1 MLOAD SWAP3 DUP4 SWAP2 ADD PUSH1 0x48 DUP4 ADD MCOPY ADD ADD PUSH0 DUP4 DUP3 ADD MSTORE SUB ADD PUSH1 0x1F NOT DUP2 ADD DUP4 MSTORE DUP3 PUSH2 0x103D JUMP JUMPDEST PUSH1 0x40 MLOAD SWAP3 DUP4 SWAP2 PUSH3 0x461BCD PUSH1 0xE5 SHL DUP4 MSTORE PUSH1 0x20 PUSH1 0x4 DUP5 ADD MSTORE MLOAD DUP1 SWAP2 DUP2 PUSH1 0x24 DUP6 ADD MSTORE DUP5 DUP5 ADD MCOPY PUSH0 DUP3 DUP3 ADD DUP5 ADD MSTORE PUSH1 0x1F ADD PUSH1 0x1F NOT AND DUP2 ADD SUB ADD SWAP1 REVERT JUMPDEST CALLVALUE PUSH2 0x173 JUMPI PUSH1 0x40 CALLDATASIZE PUSH1 0x3 NOT ADD SLT PUSH2 0x173 JUMPI PUSH2 0x4AB PUSH2 0xF7E JUMP JUMPDEST CALLER PUSH0 SWAP1 DUP2 MSTORE PUSH0 MLOAD PUSH1 0x20 PUSH2 0x1353 PUSH0 CODECOPY PUSH0 MLOAD SWAP1 PUSH0 MSTORE PUSH1 0x20 MSTORE PUSH1 0x40 SWAP1 KECCAK256 SLOAD PUSH1 0x24 CALLDATALOAD SWAP2 SWAP1 PUSH2 0x4D7 SWAP1 PUSH1 0xFF AND PUSH2 0x1080 JUMP JUMPDEST PUSH1 0x1 PUSH1 0x1 PUSH1 0xA0 SHL SUB AND SWAP1 DUP2 ISZERO PUSH2 0x52C JUMPI PUSH1 0x20 PUSH32 0x3BB383B2F8177E04677B7C6BD84D61CC2F4E0121D47F33D8EA137F6E110AFA46 SWAP2 DUP4 PUSH0 MSTORE PUSH1 0x1 DUP3 MSTORE PUSH1 0x40 PUSH0 KECCAK256 PUSH2 0x521 DUP3 DUP3 SLOAD PUSH2 0x1073 JUMP JUMPDEST SWAP1 SSTORE PUSH1 0x40 MLOAD SWAP1 DUP2 MSTORE LOG2 STOP JUMPDEST PUSH1 0x40 MLOAD PUSH3 0x461BCD PUSH1 0xE5 SHL DUP2 MSTORE PUSH1 0x20 PUSH1 0x4 DUP3 ADD MSTORE PUSH1 0x16 PUSH1 0x24 DUP3 ADD MSTORE PUSH22 0x496E76616C696420706C617965722061646472657373 PUSH1 0x50 SHL PUSH1 0x44 DUP3 ADD MSTORE PUSH1 0x64 SWAP1 REVERT JUMPDEST CALLVALUE PUSH2 0x173 JUMPI PUSH1 0x40 CALLDATASIZE PUSH1 0x3 NOT ADD SLT PUSH2 0x173 JUMPI PUSH2 0x5AC PUSH1 0x4 CALLDATALOAD PUSH2 0x589 PUSH2 0xF94 JUMP JUMPDEST SWAP1 PUSH2 0x5A7 PUSH2 0x5A2 DUP3 PUSH0 MSTORE PUSH0 PUSH1 0x20 MSTORE PUSH1 0x1 PUSH1 0x40 PUSH0 KECCAK256 ADD SLOAD SWAP1 JUMP JUMPDEST PUSH2 0x10E0 JUMP JUMPDEST PUSH2 0x111D JUMP JUMPDEST STOP JUMPDEST CALLVALUE PUSH2 0x173 JUMPI PUSH0 CALLDATASIZE PUSH1 0x3 NOT ADD SLT PUSH2 0x173 JUMPI PUSH1 0x20 PUSH1 0x40 MLOAD PUSH32 0x9F2DF0FED2C77648DE5860A4CC508CD0818C85B8B8A1AB4CEEEF8D981C8956A6 DUP2 MSTORE RETURN JUMPDEST PUSH0 CALLDATASIZE PUSH1 0x3 NOT ADD SLT PUSH2 0x173 JUMPI PUSH2 0x5FE CALLVALUE ISZERO ISZERO PUSH2 0xFDB JUMP JUMPDEST CALLER PUSH0 MSTORE PUSH1 0x1 PUSH1 0x20 MSTORE PUSH1 0x40 PUSH0 KECCAK256 PUSH2 0x615 CALLVALUE DUP3 SLOAD PUSH2 0x1073 JUMP JUMPDEST SWAP1 SSTORE PUSH2 0x623 CALLVALUE PUSH1 0x4 SLOAD PUSH2 0x1073 JUMP JUMPDEST PUSH1 0x4 SSTORE PUSH1 0x40 MLOAD CALLVALUE DUP2 MSTORE PUSH32 0x2DA466A7B24304F47E87FA2E1E5A81B9831CE54FEC19055CE277CA2F39BA42C4 PUSH1 0x20 CALLER SWAP3 LOG2 STOP JUMPDEST CALLVALUE PUSH2 0x173 JUMPI PUSH1 0x40 CALLDATASIZE PUSH1 0x3 NOT ADD SLT PUSH2 0x173 JUMPI PUSH1 0x20 PUSH2 0x66F PUSH2 0xF7E JUMP JUMPDEST PUSH2 0x677 PUSH2 0xF94 JUMP JUMPDEST PUSH1 0x1 PUSH1 0x1 PUSH1 0xA0 SHL SUB SWAP2 DUP3 AND PUSH0 SWAP1 DUP2 MSTORE PUSH1 0x2 DUP5 MSTORE PUSH1 0x40 SWAP1 DUP2 SWAP1 KECCAK256 SLOAD SWAP1 MLOAD SWAP1 DUP4 AND SWAP2 SWAP1 SWAP3 AND EQ DUP2 MSTORE RETURN JUMPDEST CALLVALUE PUSH2 0x173 JUMPI PUSH0 CALLDATASIZE PUSH1 0x3 NOT ADD SLT PUSH2 0x173 JUMPI PUSH1 0x20 PUSH1 0x40 MLOAD PUSH0 DUP2 MSTORE RETURN JUMPDEST CALLVALUE PUSH2 0x173 JUMPI PUSH1 0x40 CALLDATASIZE PUSH1 0x3 NOT ADD SLT PUSH2 0x173 JUMPI PUSH2 0x6D2 PUSH2 0xF94 JUMP JUMPDEST PUSH1 0x4 CALLDATALOAD PUSH0 MSTORE PUSH0 PUSH1 0x20 MSTORE PUSH1 0x40 PUSH0 KECCAK256 SWAP1 PUSH1 0x1 DUP1 PUSH1 0xA0 SHL SUB AND PUSH0 MSTORE PUSH1 0x20 MSTORE PUSH1 0x20 PUSH1 0xFF PUSH1 0x40 PUSH0 KECCAK256 SLOAD AND PUSH1 0x40 MLOAD SWAP1 ISZERO ISZERO DUP2 MSTORE RETURN JUMPDEST CALLVALUE PUSH2 0x173 JUMPI PUSH1 0xC0 CALLDATASIZE PUSH1 0x3 NOT ADD SLT PUSH2 0x173 JUMPI PUSH1 0x4 CALLDATALOAD PUSH1 0x24 CALLDATALOAD PUSH8 0xFFFFFFFFFFFFFFFF DUP2 GT PUSH2 0x173 JUMPI PUSH2 0x735 SWAP1 CALLDATASIZE SWAP1 PUSH1 0x4 ADD PUSH2 0xFAA JUMP JUMPDEST PUSH1 0x44 CALLDATALOAD PUSH8 0xFFFFFFFFFFFFFFFF DUP2 GT PUSH2 0x173 JUMPI PUSH2 0x755 SWAP1 CALLDATASIZE SWAP1 PUSH1 0x4 ADD PUSH2 0xFAA JUMP JUMPDEST CALLER PUSH0 SWAP1 DUP2 MSTORE PUSH0 MLOAD PUSH1 0x20 PUSH2 0x1353 PUSH0 CODECOPY PUSH0 MLOAD SWAP1 PUSH0 MSTORE PUSH1 0x20 MSTORE PUSH1 0x40 SWAP1 KECCAK256 SLOAD PUSH1 0x84 CALLDATALOAD SWAP5 PUSH1 0x64 CALLDATALOAD SWAP4 SWAP2 PUSH1 0xA4 CALLDATALOAD SWAP1 PUSH2 0x789 SWAP1 PUSH1 0xFF AND PUSH2 0x1080 JUMP JUMPDEST DUP4 DUP7 SUB PUSH2 0x978 JUMPI DUP6 ISZERO PUSH2 0x93C JUMPI DUP5 DUP8 PUSH0 PUSH0 JUMPDEST DUP8 DUP2 LT PUSH2 0x8D2 JUMPI POP SWAP1 PUSH2 0x7AD SWAP2 PUSH2 0x1073 JUMP JUMPDEST GT PUSH2 0x898 JUMPI DUP7 PUSH2 0x870 JUMPI JUMPDEST DUP8 PUSH0 MSTORE PUSH1 0x3 PUSH1 0x20 MSTORE DUP1 PUSH1 0x40 PUSH0 KECCAK256 SSTORE PUSH1 0x40 MLOAD SWAP6 DUP1 PUSH1 0xA0 DUP9 ADD PUSH1 0xA0 DUP10 MSTORE MSTORE PUSH1 0xC0 DUP8 ADD SWAP3 SWAP1 PUSH0 SWAP1 JUMPDEST DUP1 DUP3 LT PUSH2 0x846 JUMPI POP POP POP DUP6 DUP3 SUB PUSH1 0x20 DUP8 ADD MSTORE DUP4 DUP3 MSTORE PUSH1 0x1 PUSH1 0x1 PUSH1 0xFB SHL SUB DUP5 GT PUSH2 0x173 JUMPI PUSH32 0x641BCD60DCA6E837D11A8BE67B4D6462E10FED4CDAE68B6BC90AE2794A310B2D SWAP7 PUSH1 0x20 SWAP6 DUP8 SWAP6 PUSH1 0x5 SHL DUP1 SWAP6 DUP9 DUP7 ADD CALLDATACOPY PUSH1 0x40 DUP7 ADD MSTORE PUSH1 0x60 DUP6 ADD MSTORE PUSH1 0x80 DUP5 ADD MSTORE ADD SUB ADD SWAP1 LOG2 STOP JUMPDEST SWAP1 SWAP2 SWAP4 DUP5 CALLDATALOAD SWAP1 PUSH1 0x1 DUP1 PUSH1 0xA0 SHL SUB DUP3 AND DUP1 SWAP3 SUB PUSH2 0x173 JUMPI PUSH1 0x20 DUP2 PUSH1 0x1 SWAP4 DUP3 SWAP4 MSTORE ADD SWAP6 ADD SWAP3 ADD SWAP1 PUSH2 0x7DD JUMP JUMPDEST PUSH1 0x1 DUP1 PUSH1 0xA0 SHL SUB PUSH1 0x5 SLOAD AND PUSH0 MSTORE PUSH1 0x1 PUSH1 0x20 MSTORE PUSH1 0x40 PUSH0 KECCAK256 PUSH2 0x891 DUP9 DUP3 SLOAD PUSH2 0x1073 JUMP JUMPDEST SWAP1 SSTORE PUSH2 0x7B8 JUMP JUMPDEST PUSH1 0x40 MLOAD PUSH3 0x461BCD PUSH1 0xE5 SHL DUP2 MSTORE PUSH1 0x20 PUSH1 0x4 DUP3 ADD MSTORE PUSH1 0x12 PUSH1 0x24 DUP3 ADD MSTORE PUSH18 0x105B5BDD5B9D1CC8195E18D95959081C1BDD PUSH1 0x72 SHL PUSH1 0x44 DUP3 ADD MSTORE PUSH1 0x64 SWAP1 REVERT JUMPDEST SWAP3 POP PUSH2 0x8EB SWAP2 POP PUSH2 0x8E4 DUP4 DUP9 DUP9 PUSH2 0x10BC JUMP JUMPDEST CALLDATALOAD SWAP1 PUSH2 0x1073 JUMP JUMPDEST SWAP1 PUSH2 0x8F7 DUP2 DUP8 DUP8 PUSH2 0x10BC JUMP JUMPDEST CALLDATALOAD SWAP1 PUSH2 0x904 DUP2 DUP11 DUP8 PUSH2 0x10BC JUMP JUMPDEST CALLDATALOAD PUSH1 0x1 PUSH1 0x1 PUSH1 0xA0 SHL SUB DUP2 AND SWAP3 SWAP1 DUP4 SWAP1 SUB PUSH2 0x173 JUMPI PUSH1 0x1 SWAP3 PUSH0 MSTORE DUP3 PUSH1 0x20 MSTORE PUSH2 0x930 PUSH1 0x40 PUSH0 KECCAK256 SWAP2 DUP3 SLOAD PUSH2 0x1073 JUMP JUMPDEST SWAP1 SSTORE ADD DUP7 SWAP2 DUP10 SWAP2 PUSH2 0x79B JUMP JUMPDEST PUSH1 0x40 MLOAD PUSH3 0x461BCD PUSH1 0xE5 SHL DUP2 MSTORE PUSH1 0x20 PUSH1 0x4 DUP3 ADD MSTORE PUSH1 0x14 PUSH1 0x24 DUP3 ADD MSTORE PUSH20 0x139BC81DDA5B9B995C9CC81CDC1958DA599A5959 PUSH1 0x62 SHL PUSH1 0x44 DUP3 ADD MSTORE PUSH1 0x64 SWAP1 REVERT JUMPDEST PUSH1 0x40 MLOAD PUSH3 0x461BCD PUSH1 0xE5 SHL DUP2 MSTORE PUSH1 0x20 PUSH1 0x4 DUP3 ADD MSTORE PUSH1 0x1F PUSH1 0x24 DUP3 ADD MSTORE PUSH32 0x57696E6E6572732F616D6F756E7473206C656E677468206D69736D6174636800 PUSH1 0x44 DUP3 ADD MSTORE PUSH1 0x64 SWAP1 REVERT JUMPDEST CALLVALUE PUSH2 0x173 JUMPI PUSH1 0x20 CALLDATASIZE PUSH1 0x3 NOT ADD SLT PUSH2 0x173 JUMPI PUSH1 0x1 PUSH1 0x1 PUSH1 0xA0 SHL SUB PUSH2 0x9DE PUSH2 0xF7E JUMP JUMPDEST AND PUSH0 MSTORE PUSH1 0x1 PUSH1 0x20 MSTORE PUSH1 0x20 PUSH1 0x40 PUSH0 KECCAK256 SLOAD PUSH1 0x40 MLOAD SWAP1 DUP2 MSTORE RETURN JUMPDEST CALLVALUE PUSH2 0x173 JUMPI PUSH1 0x20 CALLDATASIZE PUSH1 0x3 NOT ADD SLT PUSH2 0x173 JUMPI PUSH1 0x1 PUSH1 0x1 PUSH1 0xA0 SHL SUB PUSH2 0xA16 PUSH2 0xF7E JUMP JUMPDEST AND PUSH0 MSTORE PUSH1 0x2 PUSH1 0x20 MSTORE PUSH1 0x20 PUSH1 0x1 DUP1 PUSH1 0xA0 SHL SUB PUSH1 0x40 PUSH0 KECCAK256 SLOAD AND PUSH1 0x40 MLOAD SWAP1 DUP2 MSTORE RETURN JUMPDEST CALLVALUE PUSH2 0x173 JUMPI PUSH0 CALLDATASIZE PUSH1 0x3 NOT ADD SLT PUSH2 0x173 JUMPI CALLER PUSH0 DUP2 DUP2 MSTORE PUSH1 0x2 PUSH1 0x20 MSTORE PUSH1 0x40 DUP2 KECCAK256 DUP1 SLOAD PUSH1 0x1 PUSH1 0x1 PUSH1 0xA0 SHL SUB NOT AND SWAP1 SSTORE PUSH32 0xBF7C2A6C0BECCBBB4E820A8CF0E5B3E1EEF2BA00E02333658D521636ADF41458 SWAP1 DUP1 LOG2 STOP JUMPDEST CALLVALUE PUSH2 0x173 JUMPI PUSH0 CALLDATASIZE PUSH1 0x3 NOT ADD SLT PUSH2 0x173 JUMPI PUSH1 0x5 SLOAD PUSH1 0x40 MLOAD PUSH1 0x1 PUSH1 0x1 PUSH1 0xA0 SHL SUB SWAP1 SWAP2 AND DUP2 MSTORE PUSH1 0x20 SWAP1 RETURN JUMPDEST CALLVALUE PUSH2 0x173 JUMPI PUSH1 0x40 CALLDATASIZE PUSH1 0x3 NOT ADD SLT PUSH2 0x173 JUMPI PUSH2 0xAC8 PUSH2 0xF94 JUMP JUMPDEST CALLER PUSH1 0x1 PUSH1 0x1 PUSH1 0xA0 SHL SUB DUP3 AND SUB PUSH2 0xAE4 JUMPI PUSH2 0x5AC SWAP1 PUSH1 0x4 CALLDATALOAD PUSH2 0x111D JUMP JUMPDEST PUSH1 0x40 MLOAD PUSH3 0x461BCD PUSH1 0xE5 SHL DUP2 MSTORE PUSH1 0x20 PUSH1 0x4 DUP3 ADD MSTORE PUSH1 0x2F PUSH1 0x24 DUP3 ADD MSTORE PUSH32 0x416363657373436F6E74726F6C3A2063616E206F6E6C792072656E6F756E6365 PUSH1 0x44 DUP3 ADD MSTORE PUSH15 0x103937B632B9903337B91039B2B633 PUSH1 0x89 SHL PUSH1 0x64 DUP3 ADD MSTORE PUSH1 0x84 SWAP1 REVERT JUMPDEST CALLVALUE PUSH2 0x173 JUMPI PUSH1 0x40 CALLDATASIZE PUSH1 0x3 NOT ADD SLT PUSH2 0x173 JUMPI PUSH1 0x4 CALLDATALOAD PUSH1 0x1 PUSH1 0x1 PUSH1 0xA0 SHL SUB DUP2 AND SWAP1 DUP2 SWAP1 SUB PUSH2 0x173 JUMPI PUSH0 PUSH1 0x20 PUSH1 0x24 CALLDATALOAD SWAP3 PUSH2 0xB79 DUP5 ISZERO ISZERO PUSH2 0xFDB JUMP JUMPDEST PUSH1 0x64 PUSH1 0x40 MLOAD DUP1 SWAP5 DUP2 SWAP4 PUSH4 0x23B872DD PUSH1 0xE0 SHL DUP4 MSTORE CALLER PUSH1 0x4 DUP5 ADD MSTORE ADDRESS PUSH1 0x24 DUP5 ADD MSTORE DUP8 PUSH1 0x44 DUP5 ADD MSTORE GAS CALL SWAP1 DUP2 ISZERO PUSH2 0xC7C JUMPI PUSH0 SWAP2 PUSH2 0xC41 JUMPI JUMPDEST POP ISZERO PUSH2 0xC0A JUMPI CALLER PUSH0 MSTORE PUSH1 0x1 PUSH1 0x20 MSTORE PUSH1 0x40 PUSH0 KECCAK256 PUSH2 0xBCB DUP3 DUP3 SLOAD PUSH2 0x1073 JUMP JUMPDEST SWAP1 SSTORE PUSH2 0xBD9 DUP2 PUSH1 0x4 SLOAD PUSH2 0x1073 JUMP JUMPDEST PUSH1 0x4 SSTORE PUSH1 0x40 MLOAD SWAP1 DUP2 MSTORE PUSH32 0x2DA466A7B24304F47E87FA2E1E5A81B9831CE54FEC19055CE277CA2F39BA42C4 PUSH1 0x20 CALLER SWAP3 LOG2 STOP JUMPDEST PUSH1 0x40 MLOAD PUSH3 0x461BCD PUSH1 0xE5 SHL DUP2 MSTORE PUSH1 0x20 PUSH1 0x4 DUP3 ADD MSTORE PUSH1 0xF PUSH1 0x24 DUP3 ADD MSTORE PUSH15 0x151C985B9CD9995C8819985A5B1959 PUSH1 0x8A SHL PUSH1 0x44 DUP3 ADD MSTORE PUSH1 0x64 SWAP1 REVERT JUMPDEST SWAP1 POP PUSH1 0x20 DUP2 RETURNDATASIZE PUSH1 0x20 GT PUSH2 0xC74 JUMPI JUMPDEST DUP2 PUSH2 0xC5C PUSH1 0x20 SWAP4 DUP4 PUSH2 0x103D JUMP JUMPDEST DUP2 ADD SUB SLT PUSH2 0x173 JUMPI MLOAD DUP1 ISZERO ISZERO DUP2 SUB PUSH2 0x173 JUMPI DUP3 PUSH2 0xBAE JUMP JUMPDEST RETURNDATASIZE SWAP2 POP PUSH2 0xC4F JUMP JUMPDEST PUSH1 0x40 MLOAD RETURNDATASIZE PUSH0 DUP3 RETURNDATACOPY RETURNDATASIZE SWAP1 REVERT JUMPDEST CALLVALUE PUSH2 0x173 JUMPI PUSH1 0x40 CALLDATASIZE PUSH1 0x3 NOT ADD SLT PUSH2 0x173 JUMPI PUSH1 0x4 CALLDATALOAD PUSH2 0xCA3 PUSH2 0xF94 JUMP JUMPDEST SWAP1 PUSH2 0xCBC PUSH2 0x5A2 DUP3 PUSH0 MSTORE PUSH0 PUSH1 0x20 MSTORE PUSH1 0x1 PUSH1 0x40 PUSH0 KECCAK256 ADD SLOAD SWAP1 JUMP JUMPDEST PUSH0 DUP2 DUP2 MSTORE PUSH1 0x20 DUP2 DUP2 MSTORE PUSH1 0x40 DUP1 DUP4 KECCAK256 PUSH1 0x1 PUSH1 0x1 PUSH1 0xA0 SHL SUB DUP7 AND DUP5 MSTORE SWAP1 SWAP2 MSTORE SWAP1 KECCAK256 SLOAD PUSH1 0xFF AND ISZERO PUSH2 0xCE6 JUMPI STOP JUMPDEST PUSH0 DUP2 DUP2 MSTORE PUSH1 0x20 DUP2 DUP2 MSTORE PUSH1 0x40 DUP1 DUP4 KECCAK256 PUSH1 0x1 PUSH1 0x1 PUSH1 0xA0 SHL SUB SWAP6 SWAP1 SWAP6 AND DUP1 DUP5 MSTORE SWAP5 SWAP1 SWAP2 MSTORE DUP2 KECCAK256 DUP1 SLOAD PUSH1 0xFF NOT AND PUSH1 0x1 OR SWAP1 SSTORE CALLER SWAP3 SWAP2 SWAP1 PUSH32 0x2F8788117E7EFF1D82E926EC794901D17C78024A50270940304540A733656F0D SWAP1 DUP1 LOG4 STOP JUMPDEST CALLVALUE PUSH2 0x173 JUMPI PUSH1 0x20 CALLDATASIZE PUSH1 0x3 NOT ADD SLT PUSH2 0x173 JUMPI PUSH1 0x4 CALLDATALOAD CALLER PUSH0 MSTORE PUSH1 0x1 PUSH1 0x20 MSTORE DUP1 PUSH1 0x40 PUSH0 KECCAK256 SLOAD LT PUSH2 0xDE6 JUMPI DUP1 DUP1 ISZERO PUSH2 0xD72 DUP2 ISZERO PUSH2 0xFDB JUMP JUMPDEST CALLER PUSH0 MSTORE PUSH1 0x1 PUSH1 0x20 MSTORE PUSH1 0x40 PUSH0 KECCAK256 PUSH2 0xD89 DUP4 DUP3 SLOAD PUSH2 0x101C JUMP JUMPDEST SWAP1 SSTORE PUSH2 0xD97 DUP3 PUSH1 0x4 SLOAD PUSH2 0x101C JUMP JUMPDEST PUSH1 0x4 SSTORE PUSH0 SWAP1 PUSH2 0xDDD JUMPI JUMPDEST PUSH0 DUP1 DUP1 SWAP4 DUP2 SWAP4 CALLER SWAP1 CALL ISZERO PUSH2 0xC7C JUMPI PUSH1 0x40 MLOAD SWAP1 DUP2 MSTORE PUSH32 0x7084F5476618D8E60B11EF0D7D3F06914655ADB8793E28FF7F018D4C76D505D5 PUSH1 0x20 CALLER SWAP3 LOG2 STOP JUMPDEST POP PUSH2 0x8FC PUSH2 0xDA1 JUMP JUMPDEST PUSH1 0x40 MLOAD PUSH3 0x461BCD PUSH1 0xE5 SHL DUP2 MSTORE PUSH1 0x20 PUSH1 0x4 DUP3 ADD MSTORE PUSH1 0x1C PUSH1 0x24 DUP3 ADD MSTORE PUSH32 0x496E73756666696369656E7420637573746F64792062616C616E636500000000 PUSH1 0x44 DUP3 ADD MSTORE PUSH1 0x64 SWAP1 REVERT JUMPDEST CALLVALUE PUSH2 0x173 JUMPI PUSH1 0x20 CALLDATASIZE PUSH1 0x3 NOT ADD SLT PUSH2 0x173 JUMPI PUSH1 0x20 PUSH2 0xE55 PUSH1 0x4 CALLDATALOAD PUSH0 MSTORE PUSH0 PUSH1 0x20 MSTORE PUSH1 0x1 PUSH1 0x40 PUSH0 KECCAK256 ADD SLOAD SWAP1 JUMP JUMPDEST PUSH1 0x40 MLOAD SWAP1 DUP2 MSTORE RETURN JUMPDEST CALLVALUE PUSH2 0x173 JUMPI PUSH1 0x20 CALLDATASIZE PUSH1 0x3 NOT ADD SLT PUSH2 0x173 JUMPI PUSH1 0x1 PUSH1 0x1 PUSH1 0xA0 SHL SUB PUSH2 0xE7E PUSH2 0xF7E JUMP JUMPDEST AND DUP1 ISZERO PUSH2 0xEC9 JUMPI CALLER PUSH0 DUP2 DUP2 MSTORE PUSH1 0x2 PUSH1 0x20 MSTORE PUSH1 0x40 DUP2 KECCAK256 DUP1 SLOAD PUSH1 0x1 PUSH1 0x1 PUSH1 0xA0 SHL SUB NOT AND DUP5 OR SWAP1 SSTORE PUSH32 0xE0568110C5BEFD8FE07F34A5ECF41A7B844A789EFA0E02BE8B074C00E1E1AD00 SWAP1 DUP1 LOG3 STOP JUMPDEST PUSH1 0x40 MLOAD PUSH3 0x461BCD PUSH1 0xE5 SHL DUP2 MSTORE PUSH1 0x20 PUSH1 0x4 DUP3 ADD MSTORE PUSH1 0x18 PUSH1 0x24 DUP3 ADD MSTORE PUSH32 0x496E76616C69642064656C656761746520616464726573730000000000000000 PUSH1 0x44 DUP3 ADD MSTORE PUSH1 0x64 SWAP1 REVERT JUMPDEST CALLVALUE PUSH2 0x173 JUMPI PUSH1 0x20 CALLDATASIZE PUSH1 0x3 NOT ADD SLT PUSH2 0x173 JUMPI PUSH1 0x4 CALLDATALOAD PUSH4 0xFFFFFFFF PUSH1 0xE0 SHL DUP2 AND DUP1 SWAP2 SUB PUSH2 0x173 JUMPI PUSH1 0x20 SWAP1 PUSH4 0x7965DB0B PUSH1 0xE0 SHL DUP2 EQ SWAP1 DUP2 ISZERO PUSH2 0xF53 JUMPI JUMPDEST POP PUSH1 0x40 MLOAD SWAP1 ISZERO ISZERO DUP2 MSTORE RETURN JUMPDEST PUSH4 0x1FFC9A7 PUSH1 0xE0 SHL EQ SWAP1 POP DUP3 PUSH2 0xF48 JUMP JUMPDEST CALLVALUE PUSH2 0x173 JUMPI PUSH0 CALLDATASIZE PUSH1 0x3 NOT ADD SLT PUSH2 0x173 JUMPI PUSH1 0x20 SWAP1 PUSH1 0x4 SLOAD DUP2 MSTORE RETURN JUMPDEST PUSH1 0x4 CALLDATALOAD SWAP1 PUSH1 0x1 PUSH1 0x1 PUSH1 0xA0 SHL SUB DUP3 AND DUP3 SUB PUSH2 0x173 JUMPI JUMP JUMPDEST PUSH1 0x24 CALLDATALOAD SWAP1 PUSH1 0x1 PUSH1 0x1 PUSH1 0xA0 SHL SUB DUP3 AND DUP3 SUB PUSH2 0x173 JUMPI JUMP JUMPDEST SWAP2 DUP2 PUSH1 0x1F DUP5 ADD SLT ISZERO PUSH2 0x173 JUMPI DUP3 CALLDATALOAD SWAP2 PUSH8 0xFFFFFFFFFFFFFFFF DUP4 GT PUSH2 0x173 JUMPI PUSH1 0x20 DUP1 DUP6 ADD SWAP5 DUP5 PUSH1 0x5 SHL ADD ADD GT PUSH2 0x173 JUMPI JUMP JUMPDEST ISZERO PUSH2 0xFE2 JUMPI JUMP JUMPDEST PUSH1 0x40 MLOAD PUSH3 0x461BCD PUSH1 0xE5 SHL DUP2 MSTORE PUSH1 0x20 PUSH1 0x4 DUP3 ADD MSTORE PUSH1 0x12 PUSH1 0x24 DUP3 ADD MSTORE PUSH18 0x416D6F756E74206D757374206265203E203 PUSH1 0x74 SHL PUSH1 0x44 DUP3 ADD MSTORE PUSH1 0x64 SWAP1 REVERT JUMPDEST SWAP2 SWAP1 DUP3 SUB SWAP2 DUP3 GT PUSH2 0x1029 JUMPI JUMP JUMPDEST PUSH4 0x4E487B71 PUSH1 0xE0 SHL PUSH0 MSTORE PUSH1 0x11 PUSH1 0x4 MSTORE PUSH1 0x24 PUSH0 REVERT JUMPDEST SWAP1 PUSH1 0x1F DUP1 NOT SWAP2 ADD AND DUP2 ADD SWAP1 DUP2 LT PUSH8 0xFFFFFFFFFFFFFFFF DUP3 GT OR PUSH2 0x105F JUMPI PUSH1 0x40 MSTORE JUMP JUMPDEST PUSH4 0x4E487B71 PUSH1 0xE0 SHL PUSH0 MSTORE PUSH1 0x41 PUSH1 0x4 MSTORE PUSH1 0x24 PUSH0 REVERT JUMPDEST SWAP2 SWAP1 DUP3 ADD DUP1 SWAP3 GT PUSH2 0x1029 JUMPI JUMP JUMPDEST ISZERO PUSH2 0x1087 JUMPI JUMP JUMPDEST PUSH1 0x40 MLOAD PUSH3 0x461BCD PUSH1 0xE5 SHL DUP2 MSTORE PUSH1 0x20 PUSH1 0x4 DUP3 ADD MSTORE PUSH1 0xD PUSH1 0x24 DUP3 ADD MSTORE PUSH13 0x27B7363C9037B832B930BA37B9 PUSH1 0x99 SHL PUSH1 0x44 DUP3 ADD MSTORE PUSH1 0x64 SWAP1 REVERT JUMPDEST SWAP2 SWAP1 DUP2 LT ISZERO PUSH2 0x10CC JUMPI PUSH1 0x5 SHL ADD SWAP1 JUMP JUMPDEST PUSH4 0x4E487B71 PUSH1 0xE0 SHL PUSH0 MSTORE PUSH1 0x32 PUSH1 0x4 MSTORE PUSH1 0x24 PUSH0 REVERT JUMPDEST PUSH0 DUP2 DUP2 MSTORE PUSH1 0x20 DUP2 DUP2 MSTORE PUSH1 0x40 DUP1 DUP4 KECCAK256 CALLER DUP5 MSTORE SWAP1 SWAP2 MSTORE SWAP1 KECCAK256 SLOAD PUSH1 0xFF AND ISZERO PUSH2 0x1102 JUMPI POP JUMP JUMPDEST PUSH1 0x44 PUSH1 0x20 PUSH2 0x45A PUSH1 0x11 PUSH2 0x3E3 PUSH2 0x1117 CALLER PUSH2 0x11CA JUMP JUMPDEST SWAP6 PUSH2 0x12B0 JUMP JUMPDEST PUSH0 DUP2 DUP2 MSTORE PUSH1 0x20 DUP2 DUP2 MSTORE PUSH1 0x40 DUP1 DUP4 KECCAK256 PUSH1 0x1 PUSH1 0x1 PUSH1 0xA0 SHL SUB DUP7 AND DUP5 MSTORE SWAP1 SWAP2 MSTORE SWAP1 KECCAK256 SLOAD PUSH1 0xFF AND PUSH2 0x1148 JUMPI POP POP JUMP JUMPDEST PUSH0 DUP2 DUP2 MSTORE PUSH1 0x20 DUP2 DUP2 MSTORE PUSH1 0x40 DUP1 DUP4 KECCAK256 PUSH1 0x1 PUSH1 0x1 PUSH1 0xA0 SHL SUB SWAP6 SWAP1 SWAP6 AND DUP1 DUP5 MSTORE SWAP5 SWAP1 SWAP2 MSTORE DUP2 KECCAK256 DUP1 SLOAD PUSH1 0xFF NOT AND SWAP1 SSTORE CALLER SWAP3 SWAP2 SWAP1 PUSH32 0xF6391F5C32D9C69D2A47EA670B442974B53935D1EDC7FD64EB21E047A839171B SWAP1 DUP1 LOG4 JUMP JUMPDEST PUSH8 0xFFFFFFFFFFFFFFFF DUP2 GT PUSH2 0x105F JUMPI PUSH1 0x1F ADD PUSH1 0x1F NOT AND PUSH1 0x20 ADD SWAP1 JUMP JUMPDEST SWAP1 DUP2 MLOAD DUP2 LT ISZERO PUSH2 0x10CC JUMPI ADD PUSH1 0x20 ADD SWAP1 JUMP JUMPDEST PUSH2 0x11D4 PUSH1 0x2A PUSH2 0x119D JUMP JUMPDEST SWAP1 PUSH2 0x11E2 PUSH1 0x40 MLOAD SWAP3 DUP4 PUSH2 0x103D JUMP JUMPDEST PUSH1 0x2A DUP3 MSTORE PUSH2 0x11F0 PUSH1 0x2A PUSH2 0x119D JUMP JUMPDEST PUSH1 0x20 DUP4 ADD SWAP1 PUSH1 0x1F NOT ADD CALLDATASIZE DUP3 CALLDATACOPY DUP3 MLOAD ISZERO PUSH2 0x10CC JUMPI PUSH1 0x30 SWAP1 MSTORE8 DUP2 MLOAD PUSH1 0x1 LT ISZERO PUSH2 0x10CC JUMPI PUSH1 0x78 PUSH1 0x21 DUP4 ADD MSTORE8 PUSH1 0x29 JUMPDEST PUSH1 0x1 DUP2 GT PUSH2 0x126F JUMPI POP PUSH2 0x122B JUMPI SWAP1 JUMP JUMPDEST PUSH1 0x64 PUSH1 0x40 MLOAD PUSH3 0x461BCD PUSH1 0xE5 SHL DUP2 MSTORE PUSH1 0x20 PUSH1 0x4 DUP3 ADD MSTORE PUSH1 0x20 PUSH1 0x24 DUP3 ADD MSTORE PUSH32 0x537472696E67733A20686578206C656E67746820696E73756666696369656E74 PUSH1 0x44 DUP3 ADD MSTORE REVERT JUMPDEST SWAP1 PUSH1 0xF DUP2 AND PUSH1 0x10 DUP2 LT ISZERO PUSH2 0x10CC JUMPI PUSH16 0x181899199A1A9B1B9C1CB0B131B232B3 PUSH1 0x81 SHL SWAP1 BYTE PUSH2 0x129D DUP4 DUP6 PUSH2 0x11B9 JUMP JUMPDEST MSTORE8 PUSH1 0x4 SHR SWAP1 DUP1 ISZERO PUSH2 0x1029 JUMPI PUSH0 NOT ADD PUSH2 0x121B JUMP JUMPDEST PUSH2 0x12BA PUSH1 0x42 PUSH2 0x119D JUMP JUMPDEST SWAP1 PUSH2 0x12C8 PUSH1 0x40 MLOAD SWAP3 DUP4 PUSH2 0x103D JUMP JUMPDEST PUSH1 0x42 DUP3 MSTORE PUSH2 0x12D6 PUSH1 0x42 PUSH2 0x119D JUMP JUMPDEST PUSH1 0x20 DUP4 ADD SWAP1 PUSH1 0x1F NOT ADD CALLDATASIZE DUP3 CALLDATACOPY DUP3 MLOAD ISZERO PUSH2 0x10CC JUMPI PUSH1 0x30 SWAP1 MSTORE8 DUP2 MLOAD PUSH1 0x1 LT ISZERO PUSH2 0x10CC JUMPI PUSH1 0x78 PUSH1 0x21 DUP4 ADD MSTORE8 PUSH1 0x41 JUMPDEST PUSH1 0x1 DUP2 GT PUSH2 0x1311 JUMPI POP PUSH2 0x122B JUMPI SWAP1 JUMP JUMPDEST SWAP1 PUSH1 0xF DUP2 AND PUSH1 0x10 DUP2 LT ISZERO PUSH2 0x10CC JUMPI PUSH16 0x181899199A1A9B1B9C1CB0B131B232B3 PUSH1 0x81 SHL SWAP1 BYTE PUSH2 0x133F DUP4 DUP6 PUSH2 0x11B9 JUMP JUMPDEST MSTORE8 PUSH1 0x4 SHR SWAP1 DUP1 ISZERO PUSH2 0x1029 JUMPI PUSH0 NOT ADD PUSH2 0x1301 JUMP INVALID 0xEE JUMPI 0xCD DUP2 0xE8 BLOCKHASH PUSH22 0x558E8FCC182A1F4393F91FC97F963A136E66B7F949A6 0x2F BALANCE SWAP16 LOG2 PUSH5 0x6970667358 0x22 SLT KECCAK256 PUSH17 0x43B68A95064ABC92ED771ED2A980B00BCA SDIV 0xC6 MLOAD SELFDESTRUCT DUP6 0xED 0xFC 0x22 LOG1 EXTCODEHASH 0xF ISZERO SWAP15 PUSH0 PUSH5 0x736F6C6343 STOP ADDMOD SHL STOP CALLER 0x2F DUP8 DUP9 GT PUSH31 0x7EFF1D82E926EC794901D17C78024A50270940304540A733656F0D0781D7CA 0xC9 0xC3 PUSH25 0xEFA22A7481E4D4D29704A680DDF504B3BC50B517700EE11E6C 0xEE JUMPI 0xCD DUP2 0xE8 BLOCKHASH PUSH22 0x558E8FCC182A1F4393F91FC97F963A136E66B7F949A6 0x2F BALANCE SWAP16 0xAD ORIGIN 0x28 0xB6 PUSH23 0xF7D3CD4284A5443F17F1962B36E491B30A40B2405849E5 SWAP8 0xBA PUSH0 0xB5 "},"methodIdentifiers":{"DEFAULT_ADMIN_ROLE()":"a217fddf","MINTER_ROLE()":"d5391393","OPERATOR_ROLE()":"f5b541a6","authorizeDelegate(address)":"0cac139e","custodyBalance(address)":"69e08a0c","delegates(address)":"587cde1e","deposit()":"d0e30db0","depositToken(address,uint256)":"338b5dea","executeDepositFor(address,uint256)":"ed1f67c5","feeRecipient()":"46904840","getCustodyBalance(address)":"02dbed9d","getHandStateHash(uint256)":"f01fd7a9","getRoleAdmin(bytes32)":"248a9ca3","grantRole(bytes32,address)":"2f2ff15d","handStateHashes(uint256)":"5d5f8cd8","hasRole(bytes32,address)":"91d14854","isDelegateFor(address,address)":"c23a2465","leaveTableSession(address,uint256)":"e6aa1427","renounceRole(bytes32,address)":"36568abe","revokeDelegate()":"55d1ef38","revokeRole(bytes32,address)":"d547741f","setFeeRecipient(address)":"e74b981b","settle(uint256,address[],uint256[],uint256,uint256,bytes32)":"79134036","supportsInterface(bytes4)":"01ffc9a7","totalCustody()":"0062f167","withdraw(uint256)":"2e1a7d4d"}}}}}