{"contracts/0g/PokerGame0G.sol":{"PokerGame0G":{"abi":[{"inputs":[{"internalType":"address","name":"_feeRecipient","type":"address"}],"stateMutability":"nonpayable","type":"constructor"},{"anonymous":false,"inputs":[{"indexed":true,"internalType":"address","name":"player","type":"address"},{"indexed":true,"internalType":"address","name":"delegate","type":"address"}],"name":"DelegateAuthorized","type":"event"},{"anonymous":false,"inputs":[{"indexed":true,"internalType":"address","name":"player","type":"address"}],"name":"DelegateRevoked","type":"event"},{"anonymous":false,"inputs":[{"indexed":true,"internalType":"address","name":"player","type":"address"},{"indexed":false,"internalType":"uint256","name":"amount","type":"uint256"}],"name":"Deposited","type":"event"},{"anonymous":false,"inputs":[{"indexed":true,"internalType":"address","name":"player","type":"address"},{"indexed":false,"internalType":"uint256","name":"amount","type":"uint256"}],"name":"ForceUnlocked","type":"event"},{"anonymous":false,"inputs":[{"indexed":true,"internalType":"address","name":"player","type":"address"},{"indexed":true,"internalType":"uint256","name":"tableId","type":"uint256"},{"indexed":false,"internalType":"uint256","name":"buyIn","type":"uint256"},{"indexed":true,"internalType":"address","name":"operator","type":"address"}],"name":"JoinedTableFor","type":"event"},{"anonymous":false,"inputs":[{"indexed":true,"internalType":"address","name":"player","type":"address"},{"indexed":true,"internalType":"uint256","name":"tableId","type":"uint256"},{"indexed":false,"internalType":"uint256","name":"finalStack","type":"uint256"},{"indexed":true,"internalType":"address","name":"operator","type":"address"}],"name":"LeftTableFor","type":"event"},{"anonymous":false,"inputs":[{"indexed":true,"internalType":"address","name":"oldOperator","type":"address"},{"indexed":true,"internalType":"address","name":"newOperator","type":"address"}],"name":"OperatorChanged","type":"event"},{"anonymous":false,"inputs":[{"indexed":true,"internalType":"address","name":"player","type":"address"},{"indexed":false,"internalType":"uint256","name":"finalStack","type":"uint256"}],"name":"PlayerLeftTable","type":"event"},{"anonymous":false,"inputs":[{"indexed":true,"internalType":"uint256","name":"tableId","type":"uint256"},{"indexed":true,"internalType":"address","name":"player","type":"address"},{"indexed":false,"internalType":"uint256","name":"rakeAmount","type":"uint256"}],"name":"RakeCollected","type":"event"},{"anonymous":false,"inputs":[{"indexed":true,"internalType":"bytes32","name":"role","type":"bytes32"},{"indexed":true,"internalType":"bytes32","name":"previousAdminRole","type":"bytes32"},{"indexed":true,"internalType":"bytes32","name":"newAdminRole","type":"bytes32"}],"name":"RoleAdminChanged","type":"event"},{"anonymous":false,"inputs":[{"indexed":true,"internalType":"bytes32","name":"role","type":"bytes32"},{"indexed":true,"internalType":"address","name":"account","type":"address"},{"indexed":true,"internalType":"address","name":"sender","type":"address"}],"name":"RoleGranted","type":"event"},{"anonymous":false,"inputs":[{"indexed":true,"internalType":"bytes32","name":"role","type":"bytes32"},{"indexed":true,"internalType":"address","name":"account","type":"address"},{"indexed":true,"internalType":"address","name":"sender","type":"address"}],"name":"RoleRevoked","type":"event"},{"anonymous":false,"inputs":[{"indexed":true,"internalType":"uint256","name":"handId","type":"uint256"},{"indexed":false,"internalType":"address[]","name":"winners","type":"address[]"},{"indexed":false,"internalType":"uint256[]","name":"amounts","type":"uint256[]"},{"indexed":false,"internalType":"uint256","name":"totalPot","type":"uint256"},{"indexed":false,"internalType":"uint256","name":"rake","type":"uint256"},{"indexed":false,"internalType":"bytes32","name":"stateHash","type":"bytes32"}],"name":"Settled","type":"event"},{"anonymous":false,"inputs":[{"indexed":true,"internalType":"uint256","name":"tournamentId","type":"uint256"},{"indexed":false,"internalType":"address[]","name":"players","type":"address[]"},{"indexed":false,"internalType":"uint256[]","name":"payouts","type":"uint256[]"},{"indexed":false,"internalType":"uint256","name":"rake","type":"uint256"},{"indexed":false,"internalType":"bytes32","name":"stateHash","type":"bytes32"}],"name":"TournamentSettled","type":"event"},{"anonymous":false,"inputs":[{"indexed":true,"internalType":"address","name":"player","type":"address"},{"indexed":false,"internalType":"uint256","name":"amount","type":"uint256"}],"name":"Withdrawn","type":"event"},{"inputs":[],"name":"DEFAULT_ADMIN_ROLE","outputs":[{"internalType":"bytes32","name":"","type":"bytes32"}],"stateMutability":"view","type":"function"},{"inputs":[],"name":"MINTER_ROLE","outputs":[{"internalType":"bytes32","name":"","type":"bytes32"}],"stateMutability":"view","type":"function"},{"inputs":[],"name":"OPERATOR_ROLE","outputs":[{"internalType":"bytes32","name":"","type":"bytes32"}],"stateMutability":"view","type":"function"},{"inputs":[{"internalType":"address","name":"delegate","type":"address"}],"name":"authorizeDelegate","outputs":[],"stateMutability":"nonpayable","type":"function"},{"inputs":[{"internalType":"address","name":"","type":"address"}],"name":"custodyBalance","outputs":[{"internalType":"uint256","name":"","type":"uint256"}],"stateMutability":"view","type":"function"},{"inputs":[{"internalType":"address","name":"","type":"address"}],"name":"delegates","outputs":[{"internalType":"address","name":"","type":"address"}],"stateMutability":"view","type":"function"},{"inputs":[],"name":"deposit","outputs":[],"stateMutability":"payable","type":"function"},{"inputs":[{"internalType":"contract IERC20","name":"token","type":"address"},{"internalType":"uint256","name":"amount","type":"uint256"}],"name":"depositToken","outputs":[],"stateMutability":"nonpayable","type":"function"},{"inputs":[{"internalType":"address","name":"player","type":"address"},{"internalType":"uint256","name":"amount","type":"uint256"}],"name":"executeDepositFor","outputs":[],"stateMutability":"payable","type":"function"},{"inputs":[],"name":"feeRecipient","outputs":[{"internalType":"address","name":"","type":"address"}],"stateMutability":"view","type":"function"},{"inputs":[{"internalType":"address","name":"player","type":"address"}],"name":"forceUnlockPlayer","outputs":[],"stateMutability":"nonpayable","type":"function"},{"inputs":[{"internalType":"address","name":"player","type":"address"}],"name":"getCustodyBalance","outputs":[{"internalType":"uint256","name":"","type":"uint256"}],"stateMutability":"view","type":"function"},{"inputs":[{"internalType":"uint256","name":"handId","type":"uint256"}],"name":"getHandStateHash","outputs":[{"internalType":"bytes32","name":"","type":"bytes32"}],"stateMutability":"view","type":"function"},{"inputs":[{"internalType":"address","name":"player","type":"address"}],"name":"getLockedBalance","outputs":[{"internalType":"uint256","name":"","type":"uint256"}],"stateMutability":"view","type":"function"},{"inputs":[{"internalType":"address","name":"player","type":"address"}],"name":"getPlayerInfo","outputs":[{"internalType":"uint256","name":"balance","type":"uint256"},{"internalType":"uint256","name":"lockedAmount","type":"uint256"},{"internalType":"bool","name":"isRegistered","type":"bool"}],"stateMutability":"view","type":"function"},{"inputs":[{"internalType":"bytes32","name":"role","type":"bytes32"}],"name":"getRoleAdmin","outputs":[{"internalType":"bytes32","name":"","type":"bytes32"}],"stateMutability":"view","type":"function"},{"inputs":[{"internalType":"uint256","name":"tableId","type":"uint256"},{"internalType":"address","name":"player","type":"address"}],"name":"getTableSession","outputs":[{"internalType":"uint256","name":"buyIn","type":"uint256"},{"internalType":"bool","name":"active","type":"bool"}],"stateMutability":"view","type":"function"},{"inputs":[{"internalType":"bytes32","name":"role","type":"bytes32"},{"internalType":"address","name":"account","type":"address"}],"name":"grantRole","outputs":[],"stateMutability":"nonpayable","type":"function"},{"inputs":[{"internalType":"uint256","name":"","type":"uint256"}],"name":"handStateHashes","outputs":[{"internalType":"bytes32","name":"","type":"bytes32"}],"stateMutability":"view","type":"function"},{"inputs":[{"internalType":"bytes32","name":"role","type":"bytes32"},{"internalType":"address","name":"account","type":"address"}],"name":"hasRole","outputs":[{"internalType":"bool","name":"","type":"bool"}],"stateMutability":"view","type":"function"},{"inputs":[{"internalType":"address","name":"player","type":"address"},{"internalType":"address","name":"delegate","type":"address"}],"name":"isDelegateFor","outputs":[{"internalType":"bool","name":"","type":"bool"}],"stateMutability":"view","type":"function"},{"inputs":[{"internalType":"address","name":"player","type":"address"},{"internalType":"uint256","name":"tableId","type":"uint256"},{"internalType":"uint256","name":"buyIn","type":"uint256"}],"name":"joinTableFor","outputs":[],"stateMutability":"nonpayable","type":"function"},{"inputs":[{"internalType":"address","name":"player","type":"address"},{"internalType":"uint256","name":"tableId","type":"uint256"},{"internalType":"uint256","name":"finalStack","type":"uint256"}],"name":"leaveTableFor","outputs":[],"stateMutability":"nonpayable","type":"function"},{"inputs":[{"internalType":"uint256","name":"tableId","type":"uint256"},{"internalType":"uint256","name":"finalStack","type":"uint256"}],"name":"leaveTableSession","outputs":[],"stateMutability":"nonpayable","type":"function"},{"inputs":[{"internalType":"address","name":"player","type":"address"},{"internalType":"uint256","name":"finalStack","type":"uint256"}],"name":"leaveTableSession","outputs":[],"stateMutability":"nonpayable","type":"function"},{"inputs":[{"internalType":"address","name":"","type":"address"}],"name":"lockedBalance","outputs":[{"internalType":"uint256","name":"","type":"uint256"}],"stateMutability":"view","type":"function"},{"inputs":[],"name":"rakeRate","outputs":[{"internalType":"uint256","name":"","type":"uint256"}],"stateMutability":"view","type":"function"},{"inputs":[{"internalType":"bytes32","name":"role","type":"bytes32"},{"internalType":"address","name":"account","type":"address"}],"name":"renounceRole","outputs":[],"stateMutability":"nonpayable","type":"function"},{"inputs":[],"name":"revokeDelegate","outputs":[],"stateMutability":"nonpayable","type":"function"},{"inputs":[{"internalType":"bytes32","name":"role","type":"bytes32"},{"internalType":"address","name":"account","type":"address"}],"name":"revokeRole","outputs":[],"stateMutability":"nonpayable","type":"function"},{"inputs":[{"internalType":"address","name":"newRecipient","type":"address"}],"name":"setFeeRecipient","outputs":[],"stateMutability":"nonpayable","type":"function"},{"inputs":[{"internalType":"uint256","name":"handId","type":"uint256"},{"internalType":"address[]","name":"winners","type":"address[]"},{"internalType":"uint256[]","name":"amounts","type":"uint256[]"},{"internalType":"uint256","name":"totalPot","type":"uint256"},{"internalType":"uint256","name":"rake","type":"uint256"},{"internalType":"bytes32","name":"stateHash","type":"bytes32"}],"name":"settle","outputs":[],"stateMutability":"nonpayable","type":"function"},{"inputs":[{"internalType":"uint256","name":"tournamentId","type":"uint256"},{"internalType":"address[]","name":"players","type":"address[]"},{"internalType":"uint256[]","name":"payouts","type":"uint256[]"},{"internalType":"uint256","name":"rake","type":"uint256"},{"internalType":"bytes32","name":"stateHash","type":"bytes32"}],"name":"settleTournament","outputs":[],"stateMutability":"nonpayable","type":"function"},{"inputs":[{"internalType":"bytes4","name":"interfaceId","type":"bytes4"}],"name":"supportsInterface","outputs":[{"internalType":"bool","name":"","type":"bool"}],"stateMutability":"view","type":"function"},{"inputs":[{"internalType":"uint256","name":"","type":"uint256"},{"internalType":"address","name":"","type":"address"}],"name":"tableSessions","outputs":[{"internalType":"uint256","name":"buyIn","type":"uint256"},{"internalType":"bool","name":"active","type":"bool"}],"stateMutability":"view","type":"function"},{"inputs":[],"name":"totalCustody","outputs":[{"internalType":"uint256","name":"","type":"uint256"}],"stateMutability":"view","type":"function"},{"inputs":[{"internalType":"uint256","name":"amount","type":"uint256"}],"name":"withdraw","outputs":[],"stateMutability":"nonpayable","type":"function"}],"evm":{"bytecode":{"linkReferences":{},"object":"60803461023057601f61214b38819003918201601f19168301916001600160401b038311848410176102345780849260209460405283398101031261023057516001600160a01b0381169081900361023057600180556101f460085580156101eb57335f9081525f51602061212b5f395f51905f52602052604090205460ff16156101ae575b335f9081525f51602061210b5f395f51905f52602052604090205460ff161561014f575b335f9081525f5160206120eb5f395f51905f52602052604090205460ff16156100f0575b600980546001600160a01b031916919091179055604051611e8290816102498239f35b335f8181525f5160206120eb5f395f51905f5260205260408120805460ff1916600117905581907f9f2df0fed2c77648de5860a4cc508cd0818c85b8b8a1ab4ceeef8d981c8956a6905f5160206120cb5f395f51905f529080a46100cd565b335f8181525f51602061210b5f395f51905f5260205260408120805460ff1916600117905581907f97667070c54ef182b0f5858b034beac1b6f3089aa2d3188bb1e8929f4fa9b929905f5160206120cb5f395f51905f529080a46100a9565b335f8181525f51602061212b5f395f51905f5260205260408120805460ff1916600117905581905f5160206120cb5f395f51905f528180a4610085565b60405162461bcd60e51b815260206004820152601560248201527f496e76616c69642066656520726563697069656e7400000000000000000000006044820152606490fd5b5f80fd5b634e487b7160e01b5f52604160045260245ffdfe6080806040526004361015610012575f80fd5b5f3560e01c90816262f1671461158357508063010c96c81461128857806301ffc9a71461123257806302dbed9d14610ba65780630cac139e14611181578063248a9ca31461114f5780632e1a7d4d1461104a5780632e9988b914610f845780632f2ff15d14610ecd578063338b5dea14610d8757806336568abe14610cf55780634690484014610ccd57806355d1ef3814610c7b578063587cde1e14610c3b5780635932840114610bde5780635d5f8cd8146103bd57806361e6f0351461086c57806369e08a0c14610ba65780636a39f29014610b6457806379134036146108f357806383956e72146108d25780638bedff8c1461086c57806391d14854146108245780639ae697bf1461076a5780639d9d0d8814610807578063a217fddf146107ed578063c23a2465146107a2578063c40868931461076a578063d0e30db0146106fe578063d5391393146106c4578063d547741f14610680578063e6aa1427146105e0578063e74b981b1461055d578063ed1f67c5146103e7578063f01fd7a9146103bd578063f4615180146101f05763f5b541a6146101b2575f80fd5b346101ec575f3660031901126101ec5760206040517f97667070c54ef182b0f5858b034beac1b6f3089aa2d3188bb1e8929f4fa9b9298152f35b5f80fd5b346101ec576101fe366115fa565b335f9081525f516020611e2d5f395f51905f5260205260409020549092906102289060ff16611624565b6001600160a01b031661023c811515611826565b61024782151561186b565b821561038757805f5260026020526102658360405f20541015611777565b815f52600660205260405f20815f5260205260ff600160405f2001541661034f57805f52600260205260405f2061029d8482546116f6565b9055805f52600360205260405f206102b68482546116d5565b90556040516040810181811067ffffffffffffffff82111761033b5760405283815260016020820191818352845f52600660205260405f20845f5260205260405f2090518155019051151560ff801983541691161790556040519283527f08c3c521c51b06e0c8b39405241e485a75299f370b4e33350bc25967ff2590a660203394a4005b634e487b7160e01b5f52604160045260245ffd5b60405162461bcd60e51b815260206004820152601060248201526f416c7265616479206174207461626c6560801b6044820152606490fd5b60405162461bcd60e51b815260206004820152600e60248201526d24b73b30b634b210313abc96b4b760911b6044820152606490fd5b346101ec5760203660031901126101ec576004355f526005602052602060405f2054604051908152f35b60403660031901126101ec576103fb6115ce565b335f9081525f516020611e2d5f395f51905f52602052604090205460243591906104279060ff16611624565b6001600160a01b039081165f818152600460205260409020549092911633148015610539575b15610503578034108015906104fb575b156104c1576020816104917f2da466a7b24304f47e87fa2e1e5a81b9831ce54fec19055ce277ca2f39ba42c49315156117c3565b835f526002825260405f206104a78282546116d5565b90556104b5816007546116d5565b600755604051908152a2005b60405162461bcd60e51b8152602060048201526012602482015271496e73756666696369656e742076616c756560701b6044820152606490fd5b50801561045d565b60405162461bcd60e51b815260206004820152600e60248201526d139bdd08185d5d1a1bdc9a5e995960921b6044820152606490fd5b50335f9081525f516020611e2d5f395f51905f52602052604090205460ff1661044d565b346101ec5760203660031901126101ec576105766115ce565b61057e6118a9565b6001600160a01b031680156105a9576bffffffffffffffffffffffff60a01b60095416176009555f80f35b60405162461bcd60e51b815260206004820152600f60248201526e496e76616c6964206164647265737360881b6044820152606490fd5b346101ec5760403660031901126101ec576105f96115ce565b335f9081525f516020611e2d5f395f51905f526020908152604090912054602435927f3bb383b2f8177e04677b7c6bd84d61cc2f4e0121d47f33d8ea137f6e110afa46929161064a9060ff16611624565b6001600160a01b03169261065f841515611826565b835f526002825260405f206106758282546116d5565b9055604051908152a2005b346101ec5760403660031901126101ec576106c260043561069f6115e4565b906106bd6106b8825f525f602052600160405f20015490565b6119ab565b6119e8565b005b346101ec575f3660031901126101ec5760206040517f9f2df0fed2c77648de5860a4cc508cd0818c85b8b8a1ab4ceeef8d981c8956a68152f35b5f3660031901126101ec576107143415156117c3565b335f52600260205260405f2061072b3482546116d5565b9055610739346007546116d5565b6007556040513481527f2da466a7b24304f47e87fa2e1e5a81b9831ce54fec19055ce277ca2f39ba42c460203392a2005b346101ec5760203660031901126101ec576001600160a01b0361078b6115ce565b165f526003602052602060405f2054604051908152f35b346101ec5760403660031901126101ec5760206107bd6115ce565b6107c56115e4565b6001600160a01b039182165f9081526004845260409081902054905190831691909216148152f35b346101ec575f3660031901126101ec5760206040515f8152f35b346101ec575f3660031901126101ec576020600854604051908152f35b346101ec5760403660031901126101ec5761083d6115e4565b6004355f525f60205260405f209060018060a01b03165f52602052602060ff60405f2054166040519015158152f35b346101ec5760403660031901126101ec576108856115e4565b6004355f52600660205260405f209060018060a01b03165f5260205260405f2060ff6001825492015416906108ce60405192839283909291602090604083019483521515910152565b0390f35b346101ec5760403660031901126101ec576106c23360243560043533611a68565b346101ec5760c03660031901126101ec5760043560243567ffffffffffffffff81116101ec5761092790369060040161159d565b9060443567ffffffffffffffff81116101ec5761094890369060040161159d565b335f9081525f516020611e2d5f395f51905f5260205260409020549193916064359160a43591608435919061097f9060ff16611624565b808503610b1f578415610ae3575f8483825b848410610a7e576109a39293506116d5565b11610a44577f641bcd60dca6e837d11a8be67b4d6462e10fed4cdae68b6bc90ae2794a310b2d96610a079183610a1c575b895f5260056020528460405f20556109f960405198899860a08a5260a08a0191611703565b918783036020890152611753565b926040850152606084015260808301520390a2005b60018060a01b03600954165f52600260205260405f20610a3d8582546116d5565b90556109d4565b60405162461bcd60e51b8152602060048201526012602482015271105b5bdd5b9d1cc8195e18d95959081c1bdd60721b6044820152606490fd5b60019250610a999150610a9284868d611660565b35906116d5565b91610aa581858c611660565b3589610ac0610abb848c878060a01b0394611660565b611684565b165f526002602052610ad760405f209182546116d5565b90550190838691610991565b60405162461bcd60e51b8152602060048201526014602482015273139bc81dda5b9b995c9cc81cdc1958da599a595960621b6044820152606490fd5b60405162461bcd60e51b815260206004820152601f60248201527f57696e6e6572732f616d6f756e7473206c656e677468206d69736d61746368006044820152606490fd5b346101ec576106c2610b75366115fa565b335f9081525f516020611e2d5f395f51905f526020526040902054909190610b9f9060ff16611624565b3392611a68565b346101ec5760203660031901126101ec576001600160a01b03610bc76115ce565b165f526002602052602060405f2054604051908152f35b346101ec5760203660031901126101ec5760606001600160a01b03610c016115ce565b165f90815260026020908152604080832054600390925290912054610c2681836116d5565b15159060405192835260208301526040820152f35b346101ec5760203660031901126101ec576001600160a01b03610c5c6115ce565b165f526004602052602060018060a01b0360405f205416604051908152f35b346101ec575f3660031901126101ec57335f81815260046020526040812080546001600160a01b03191690557fbf7c2a6c0beccbbb4e820a8cf0e5b3e1eef2ba00e02333658d521636adf414589080a2005b346101ec575f3660031901126101ec576009546040516001600160a01b039091168152602090f35b346101ec5760403660031901126101ec57610d0e6115e4565b336001600160a01b03821603610d2a576106c2906004356119e8565b60405162461bcd60e51b815260206004820152602f60248201527f416363657373436f6e74726f6c3a2063616e206f6e6c792072656e6f756e636560448201526e103937b632b9903337b91039b2b63360891b6064820152608490fd5b346101ec5760403660031901126101ec576004356001600160a01b038116908190036101ec575f602060243592610dbf8415156117c3565b6064604051809481936323b872dd60e01b83523360048401523060248401528760448401525af1908115610ec2575f91610e87575b5015610e5057335f52600260205260405f20610e118282546116d5565b9055610e1f816007546116d5565b6007556040519081527f2da466a7b24304f47e87fa2e1e5a81b9831ce54fec19055ce277ca2f39ba42c460203392a2005b60405162461bcd60e51b815260206004820152600f60248201526e151c985b9cd9995c8819985a5b1959608a1b6044820152606490fd5b90506020813d602011610eba575b81610ea260209383611804565b810103126101ec575180151581036101ec5782610df4565b3d9150610e95565b6040513d5f823e3d90fd5b346101ec5760403660031901126101ec57600435610ee96115e4565b90610f026106b8825f525f602052600160405f20015490565b5f818152602081815260408083206001600160a01b038616845290915290205460ff1615610f2c57005b5f818152602081815260408083206001600160a01b0395909516808452949091528120805460ff19166001179055339291907f2f8788117e7eff1d82e926ec794901d17c78024a50270940304540a733656f0d9080a4005b346101ec5760203660031901126101ec57610f9d6115ce565b610fa56118a9565b6001600160a01b0316610fb9811515611698565b805f52600360205260405f205480156110135760207f6ac38e093d1eef7bfad88ca3681c7d60445c7ffc439fdc6257bffa53e9b2060991835f52600382525f6040812055835f526002825260405f206106758282546116d5565b60405162461bcd60e51b815260206004820152600f60248201526e4e6f206c6f636b65642066756e647360881b6044820152606490fd5b346101ec5760203660031901126101ec5760043560026001541461110a576002600155335f5260026020526110858160405f20541015611777565b80801561109281156117c3565b335f52600260205260405f206110a98382546116f6565b90556110b7826007546116f6565b6007555f90611101575b5f80809381933390f115610ec2576040519081527f7084f5476618d8e60b11ef0d7d3f06914655adb8793e28ff7f018d4c76d505d560203392a260018055005b506108fc6110c1565b60405162461bcd60e51b815260206004820152601f60248201527f5265656e7472616e637947756172643a207265656e7472616e742063616c6c006044820152606490fd5b346101ec5760203660031901126101ec5760206111796004355f525f602052600160405f20015490565b604051908152f35b346101ec5760203660031901126101ec576001600160a01b036111a26115ce565b1680156111ed57335f81815260046020526040812080546001600160a01b031916841790557fe0568110c5befd8fe07f34a5ecf41a7b844a789efa0e02be8b074c00e1e1ad009080a3005b60405162461bcd60e51b815260206004820152601860248201527f496e76616c69642064656c6567617465206164647265737300000000000000006044820152606490fd5b346101ec5760203660031901126101ec5760043563ffffffff60e01b81168091036101ec57602090637965db0b60e01b8114908115611277575b506040519015158152f35b6301ffc9a760e01b1490508261126c565b346101ec5760a03660031901126101ec5760043560243567ffffffffffffffff81116101ec576112bc90369060040161159d565b9060443567ffffffffffffffff81116101ec576112dd90369060040161159d565b335f9081525f516020611e2d5f395f51905f526020526040902054919391606435916084359161130f9060ff16611624565b80840361153e57831561150c575f8084815b878110611414575061133391926116d5565b036113cf577fee831e7460380a7a6fcd0fa6dafd14f6c2a0f7d0ded3716a5ee3ba6ace22b0f59561139791846113a7575b885f5260056020528360405f2055611389604051978897608089526080890191611703565b918683036020880152611753565b91604084015260608301520390a2005b60018060a01b03600954165f52600260205260405f206113c88682546116d5565b9055611364565b60405162461bcd60e51b815260206004820152601760248201527f536574746c656d656e74206d7573742062616c616e63650000000000000000006044820152606490fd5b90506001600160a01b0361142c610abb838a8c611660565b1690611439821515611698565b8a5f52600660205260405f20825f5260205260405f2091600183019060ff825416156114d357835f916114a5858f8b9061148661147a60019b54809d6116d5565b9c610a92858585611660565b9a858852600360205261149e604089209182546116f6565b9055611660565b3590835260026020526114bd604084209182546116d5565b905555805460ff19169055919291869101611321565b60405162461bcd60e51b8152602060048201526011602482015270141b185e595c881b9bdd081b1bd8dad959607a1b6044820152606490fd5b60405162461bcd60e51b815260206004820152600a6024820152694e6f20706c617965727360b01b6044820152606490fd5b60405162461bcd60e51b815260206004820152601f60248201527f506c61796572732f7061796f757473206c656e677468206d69736d61746368006044820152606490fd5b346101ec575f3660031901126101ec576020906007548152f35b9181601f840112156101ec5782359167ffffffffffffffff83116101ec576020808501948460051b0101116101ec57565b600435906001600160a01b03821682036101ec57565b602435906001600160a01b03821682036101ec57565b60609060031901126101ec576004356001600160a01b03811681036101ec57906024359060443590565b1561162b57565b60405162461bcd60e51b815260206004820152600d60248201526c27b7363c9037b832b930ba37b960991b6044820152606490fd5b91908110156116705760051b0190565b634e487b7160e01b5f52603260045260245ffd5b356001600160a01b03811681036101ec5790565b1561169f57565b60405162461bcd60e51b815260206004820152600e60248201526d24b73b30b634b210383630bcb2b960911b6044820152606490fd5b919082018092116116e257565b634e487b7160e01b5f52601160045260245ffd5b919082039182116116e257565b916020908281520191905f905b80821061171d5750505090565b91929091908335906001600160a01b03821682036101ec576001600160a01b039091168152602090810193019160010190611710565b81835290916001600160fb1b0383116101ec5760209260051b809284830137010190565b1561177e57565b60405162461bcd60e51b815260206004820152601c60248201527f496e73756666696369656e7420637573746f64792062616c616e6365000000006044820152606490fd5b156117ca57565b60405162461bcd60e51b81526020600482015260126024820152710416d6f756e74206d757374206265203e20360741b6044820152606490fd5b90601f8019910116810190811067ffffffffffffffff82111761033b57604052565b1561182d57565b60405162461bcd60e51b8152602060048201526016602482015275496e76616c696420706c61796572206164647265737360501b6044820152606490fd5b1561187257565b60405162461bcd60e51b815260206004820152600f60248201526e125b9d985b1a59081d18589b195259608a1b6044820152606490fd5b335f9081527fad3228b676f7d3cd4284a5443f17f1962b36e491b30a40b2405849e597ba5fb5602052604090205460ff16156118e157565b6118ea33611ca4565b6044602061197360116118fc5f611d8a565b603760405194859281808501997f416363657373436f6e74726f6c3a206163636f756e74200000000000000000008b528051918291018587015e8401907001034b99036b4b9b9b4b733903937b6329607d1b84830152805192839101604883015e01015f838201520301601f198101835282611804565b60405192839162461bcd60e51b8352602060048401525180918160248501528484015e5f828201840152601f01601f19168101030190fd5b5f8181526020818152604080832033845290915290205460ff16156119cd5750565b6044602061197360116118fc6119e233611ca4565b95611d8a565b5f818152602081815260408083206001600160a01b038616845290915290205460ff16611a13575050565b5f818152602081815260408083206001600160a01b0395909516808452949091528120805460ff19169055339291907ff6391f5c32d9c69d2a47ea670b442974b53935d1edc7fd64eb21e047a839171b9080a4565b6001600160a01b031692909190611a80841515611826565b611a8b83151561186b565b825f52600660205260405f20845f5260205260405f20926001840160ff81541615611c4357855f8587549081811180611c38575b611bca575b509682855f937f3bb383b2f8177e04677b7c6bd84d61cc2f4e0121d47f33d8ea137f6e110afa469a60209a99989796865260038b52611b08604087209182546116f6565b905582855260028a5260408520611b208a82546116d5565b905580611b76575b50505055805460ff191690556040518381526001600160a01b039092169186907fd19cd5b9c13d78956f68aecd28f8c908f321522a14ef33542d52552ced3e4edc908690a4604051908152a2565b897ff0bfd1b99c6423e7001435e00acc02d4585fad3fd13c294e1f16742a55f3fb0b9160018060a01b036009541687526002825260408720611bb98282546116d5565b9055604051908152a388845f611b28565b809750819695949350611bdd92506116f6565b600854908181029181830414901517156116e2577f3bb383b2f8177e04677b7c6bd84d61cc2f4e0121d47f33d8ea137f6e110afa46968884602098611c286127105f960480926116f6565b9950935050929394959097611ac4565b506008541515611abf565b60405162461bcd60e51b815260206004820152600c60248201526b4e6f74206174207461626c6560a01b6044820152606490fd5b67ffffffffffffffff811161033b57601f01601f191660200190565b908151811015611670570160200190565b611cae602a611c77565b90611cbc6040519283611804565b602a8252611cca602a611c77565b6020830190601f19013682378251156116705760309053815160011015611670576078602183015360295b60018111611d495750611d055790565b606460405162461bcd60e51b815260206004820152602060248201527f537472696e67733a20686578206c656e67746820696e73756666696369656e746044820152fd5b90600f81166010811015611670576f181899199a1a9b1b9c1cb0b131b232b360811b901a611d778385611c93565b5360041c9080156116e2575f1901611cf5565b611d946042611c77565b90611da26040519283611804565b60428252611db06042611c77565b6020830190601f19013682378251156116705760309053815160011015611670576078602183015360415b60018111611deb5750611d055790565b90600f81166010811015611670576f181899199a1a9b1b9c1cb0b131b232b360811b901a611e198385611c93565b5360041c9080156116e2575f1901611ddb56feee57cd81e84075558e8fcc182a1f4393f91fc97f963a136e66b7f949a62f319fa26469706673582212200026e9343737dc6f559a8535da4796b55fdfe14914b970b5de62dae542d7718f64736f6c634300081b00332f8788117e7eff1d82e926ec794901d17c78024a50270940304540a733656f0d0781d7cac9c378efa22a7481e4d4d29704a680ddf504b3bc50b517700ee11e6cee57cd81e84075558e8fcc182a1f4393f91fc97f963a136e66b7f949a62f319fad3228b676f7d3cd4284a5443f17f1962b36e491b30a40b2405849e597ba5fb5","opcodes":"PUSH1 0x80 CALLVALUE PUSH2 0x230 JUMPI PUSH1 0x1F PUSH2 0x214B CODESIZE DUP2 SWAP1 SUB SWAP2 DUP3 ADD PUSH1 0x1F NOT AND DUP4 ADD SWAP2 PUSH1 0x1 PUSH1 0x1 PUSH1 0x40 SHL SUB DUP4 GT DUP5 DUP5 LT OR PUSH2 0x234 JUMPI DUP1 DUP5 SWAP3 PUSH1 0x20 SWAP5 PUSH1 0x40 MSTORE DUP4 CODECOPY DUP2 ADD SUB SLT PUSH2 0x230 JUMPI MLOAD PUSH1 0x1 PUSH1 0x1 PUSH1 0xA0 SHL SUB DUP2 AND SWAP1 DUP2 SWAP1 SUB PUSH2 0x230 JUMPI PUSH1 0x1 DUP1 SSTORE PUSH2 0x1F4 PUSH1 0x8 SSTORE DUP1 ISZERO PUSH2 0x1EB JUMPI CALLER PUSH0 SWAP1 DUP2 MSTORE PUSH0 MLOAD PUSH1 0x20 PUSH2 0x212B PUSH0 CODECOPY PUSH0 MLOAD SWAP1 PUSH0 MSTORE PUSH1 0x20 MSTORE PUSH1 0x40 SWAP1 KECCAK256 SLOAD PUSH1 0xFF AND ISZERO PUSH2 0x1AE JUMPI JUMPDEST CALLER PUSH0 SWAP1 DUP2 MSTORE PUSH0 MLOAD PUSH1 0x20 PUSH2 0x210B PUSH0 CODECOPY PUSH0 MLOAD SWAP1 PUSH0 MSTORE PUSH1 0x20 MSTORE PUSH1 0x40 SWAP1 KECCAK256 SLOAD PUSH1 0xFF AND ISZERO PUSH2 0x14F JUMPI JUMPDEST CALLER PUSH0 SWAP1 DUP2 MSTORE PUSH0 MLOAD PUSH1 0x20 PUSH2 0x20EB PUSH0 CODECOPY PUSH0 MLOAD SWAP1 PUSH0 MSTORE PUSH1 0x20 MSTORE PUSH1 0x40 SWAP1 KECCAK256 SLOAD PUSH1 0xFF AND ISZERO PUSH2 0xF0 JUMPI JUMPDEST PUSH1 0x9 DUP1 SLOAD PUSH1 0x1 PUSH1 0x1 PUSH1 0xA0 SHL SUB NOT AND SWAP2 SWAP1 SWAP2 OR SWAP1 SSTORE PUSH1 0x40 MLOAD PUSH2 0x1E82 SWAP1 DUP2 PUSH2 0x249 DUP3 CODECOPY RETURN JUMPDEST CALLER PUSH0 DUP2 DUP2 MSTORE PUSH0 MLOAD PUSH1 0x20 PUSH2 0x20EB PUSH0 CODECOPY PUSH0 MLOAD SWAP1 PUSH0 MSTORE PUSH1 0x20 MSTORE PUSH1 0x40 DUP2 KECCAK256 DUP1 SLOAD PUSH1 0xFF NOT AND PUSH1 0x1 OR SWAP1 SSTORE DUP2 SWAP1 PUSH32 0x9F2DF0FED2C77648DE5860A4CC508CD0818C85B8B8A1AB4CEEEF8D981C8956A6 SWAP1 PUSH0 MLOAD PUSH1 0x20 PUSH2 0x20CB PUSH0 CODECOPY PUSH0 MLOAD SWAP1 PUSH0 MSTORE SWAP1 DUP1 LOG4 PUSH2 0xCD JUMP JUMPDEST CALLER PUSH0 DUP2 DUP2 MSTORE PUSH0 MLOAD PUSH1 0x20 PUSH2 0x210B PUSH0 CODECOPY PUSH0 MLOAD SWAP1 PUSH0 MSTORE PUSH1 0x20 MSTORE PUSH1 0x40 DUP2 KECCAK256 DUP1 SLOAD PUSH1 0xFF NOT AND PUSH1 0x1 OR SWAP1 SSTORE DUP2 SWAP1 PUSH32 0x97667070C54EF182B0F5858B034BEAC1B6F3089AA2D3188BB1E8929F4FA9B929 SWAP1 PUSH0 MLOAD PUSH1 0x20 PUSH2 0x20CB PUSH0 CODECOPY PUSH0 MLOAD SWAP1 PUSH0 MSTORE SWAP1 DUP1 LOG4 PUSH2 0xA9 JUMP JUMPDEST CALLER PUSH0 DUP2 DUP2 MSTORE PUSH0 MLOAD PUSH1 0x20 PUSH2 0x212B PUSH0 CODECOPY PUSH0 MLOAD SWAP1 PUSH0 MSTORE PUSH1 0x20 MSTORE PUSH1 0x40 DUP2 KECCAK256 DUP1 SLOAD PUSH1 0xFF NOT AND PUSH1 0x1 OR SWAP1 SSTORE DUP2 SWAP1 PUSH0 MLOAD PUSH1 0x20 PUSH2 0x20CB PUSH0 CODECOPY PUSH0 MLOAD SWAP1 PUSH0 MSTORE DUP2 DUP1 LOG4 PUSH2 0x85 JUMP JUMPDEST PUSH1 0x40 MLOAD PUSH3 0x461BCD PUSH1 0xE5 SHL DUP2 MSTORE PUSH1 0x20 PUSH1 0x4 DUP3 ADD MSTORE PUSH1 0x15 PUSH1 0x24 DUP3 ADD MSTORE PUSH32 0x496E76616C69642066656520726563697069656E740000000000000000000000 PUSH1 0x44 DUP3 ADD MSTORE PUSH1 0x64 SWAP1 REVERT JUMPDEST PUSH0 DUP1 REVERT JUMPDEST PUSH4 0x4E487B71 PUSH1 0xE0 SHL PUSH0 MSTORE PUSH1 0x41 PUSH1 0x4 MSTORE PUSH1 0x24 PUSH0 REVERT INVALID PUSH1 0x80 DUP1 PUSH1 0x40 MSTORE PUSH1 0x4 CALLDATASIZE LT ISZERO PUSH2 0x12 JUMPI PUSH0 DUP1 REVERT JUMPDEST PUSH0 CALLDATALOAD PUSH1 0xE0 SHR SWAP1 DUP2 PUSH3 0x62F167 EQ PUSH2 0x1583 JUMPI POP DUP1 PUSH4 0x10C96C8 EQ PUSH2 0x1288 JUMPI DUP1 PUSH4 0x1FFC9A7 EQ PUSH2 0x1232 JUMPI DUP1 PUSH4 0x2DBED9D EQ PUSH2 0xBA6 JUMPI DUP1 PUSH4 0xCAC139E EQ PUSH2 0x1181 JUMPI DUP1 PUSH4 0x248A9CA3 EQ PUSH2 0x114F JUMPI DUP1 PUSH4 0x2E1A7D4D EQ PUSH2 0x104A JUMPI DUP1 PUSH4 0x2E9988B9 EQ PUSH2 0xF84 JUMPI DUP1 PUSH4 0x2F2FF15D EQ PUSH2 0xECD JUMPI DUP1 PUSH4 0x338B5DEA EQ PUSH2 0xD87 JUMPI DUP1 PUSH4 0x36568ABE EQ PUSH2 0xCF5 JUMPI DUP1 PUSH4 0x46904840 EQ PUSH2 0xCCD JUMPI DUP1 PUSH4 0x55D1EF38 EQ PUSH2 0xC7B JUMPI DUP1 PUSH4 0x587CDE1E EQ PUSH2 0xC3B JUMPI DUP1 PUSH4 0x59328401 EQ PUSH2 0xBDE JUMPI DUP1 PUSH4 0x5D5F8CD8 EQ PUSH2 0x3BD JUMPI DUP1 PUSH4 0x61E6F035 EQ PUSH2 0x86C JUMPI DUP1 PUSH4 0x69E08A0C EQ PUSH2 0xBA6 JUMPI DUP1 PUSH4 0x6A39F290 EQ PUSH2 0xB64 JUMPI DUP1 PUSH4 0x79134036 EQ PUSH2 0x8F3 JUMPI DUP1 PUSH4 0x83956E72 EQ PUSH2 0x8D2 JUMPI DUP1 PUSH4 0x8BEDFF8C EQ PUSH2 0x86C JUMPI DUP1 PUSH4 0x91D14854 EQ PUSH2 0x824 JUMPI DUP1 PUSH4 0x9AE697BF EQ PUSH2 0x76A JUMPI DUP1 PUSH4 0x9D9D0D88 EQ PUSH2 0x807 JUMPI DUP1 PUSH4 0xA217FDDF EQ PUSH2 0x7ED JUMPI DUP1 PUSH4 0xC23A2465 EQ PUSH2 0x7A2 JUMPI DUP1 PUSH4 0xC4086893 EQ PUSH2 0x76A JUMPI DUP1 PUSH4 0xD0E30DB0 EQ PUSH2 0x6FE JUMPI DUP1 PUSH4 0xD5391393 EQ PUSH2 0x6C4 JUMPI DUP1 PUSH4 0xD547741F EQ PUSH2 0x680 JUMPI DUP1 PUSH4 0xE6AA1427 EQ PUSH2 0x5E0 JUMPI DUP1 PUSH4 0xE74B981B EQ PUSH2 0x55D JUMPI DUP1 PUSH4 0xED1F67C5 EQ PUSH2 0x3E7 JUMPI DUP1 PUSH4 0xF01FD7A9 EQ PUSH2 0x3BD JUMPI DUP1 PUSH4 0xF4615180 EQ PUSH2 0x1F0 JUMPI PUSH4 0xF5B541A6 EQ PUSH2 0x1B2 JUMPI PUSH0 DUP1 REVERT JUMPDEST CALLVALUE PUSH2 0x1EC JUMPI PUSH0 CALLDATASIZE PUSH1 0x3 NOT ADD SLT PUSH2 0x1EC JUMPI PUSH1 0x20 PUSH1 0x40 MLOAD PUSH32 0x97667070C54EF182B0F5858B034BEAC1B6F3089AA2D3188BB1E8929F4FA9B929 DUP2 MSTORE RETURN JUMPDEST PUSH0 DUP1 REVERT JUMPDEST CALLVALUE PUSH2 0x1EC JUMPI PUSH2 0x1FE CALLDATASIZE PUSH2 0x15FA JUMP JUMPDEST CALLER PUSH0 SWAP1 DUP2 MSTORE PUSH0 MLOAD PUSH1 0x20 PUSH2 0x1E2D PUSH0 CODECOPY PUSH0 MLOAD SWAP1 PUSH0 MSTORE PUSH1 0x20 MSTORE PUSH1 0x40 SWAP1 KECCAK256 SLOAD SWAP1 SWAP3 SWAP1 PUSH2 0x228 SWAP1 PUSH1 0xFF AND PUSH2 0x1624 JUMP JUMPDEST PUSH1 0x1 PUSH1 0x1 PUSH1 0xA0 SHL SUB AND PUSH2 0x23C DUP2 ISZERO ISZERO PUSH2 0x1826 JUMP JUMPDEST PUSH2 0x247 DUP3 ISZERO ISZERO PUSH2 0x186B JUMP JUMPDEST DUP3 ISZERO PUSH2 0x387 JUMPI DUP1 PUSH0 MSTORE PUSH1 0x2 PUSH1 0x20 MSTORE PUSH2 0x265 DUP4 PUSH1 0x40 PUSH0 KECCAK256 SLOAD LT ISZERO PUSH2 0x1777 JUMP JUMPDEST DUP2 PUSH0 MSTORE PUSH1 0x6 PUSH1 0x20 MSTORE PUSH1 0x40 PUSH0 KECCAK256 DUP2 PUSH0 MSTORE PUSH1 0x20 MSTORE PUSH1 0xFF PUSH1 0x1 PUSH1 0x40 PUSH0 KECCAK256 ADD SLOAD AND PUSH2 0x34F JUMPI DUP1 PUSH0 MSTORE PUSH1 0x2 PUSH1 0x20 MSTORE PUSH1 0x40 PUSH0 KECCAK256 PUSH2 0x29D DUP5 DUP3 SLOAD PUSH2 0x16F6 JUMP JUMPDEST SWAP1 SSTORE DUP1 PUSH0 MSTORE PUSH1 0x3 PUSH1 0x20 MSTORE PUSH1 0x40 PUSH0 KECCAK256 PUSH2 0x2B6 DUP5 DUP3 SLOAD PUSH2 0x16D5 JUMP JUMPDEST SWAP1 SSTORE PUSH1 0x40 MLOAD PUSH1 0x40 DUP2 ADD DUP2 DUP2 LT PUSH8 0xFFFFFFFFFFFFFFFF DUP3 GT OR PUSH2 0x33B JUMPI PUSH1 0x40 MSTORE DUP4 DUP2 MSTORE PUSH1 0x1 PUSH1 0x20 DUP3 ADD SWAP2 DUP2 DUP4 MSTORE DUP5 PUSH0 MSTORE PUSH1 0x6 PUSH1 0x20 MSTORE PUSH1 0x40 PUSH0 KECCAK256 DUP5 PUSH0 MSTORE PUSH1 0x20 MSTORE PUSH1 0x40 PUSH0 KECCAK256 SWAP1 MLOAD DUP2 SSTORE ADD SWAP1 MLOAD ISZERO ISZERO PUSH1 0xFF DUP1 NOT DUP4 SLOAD AND SWAP2 AND OR SWAP1 SSTORE PUSH1 0x40 MLOAD SWAP3 DUP4 MSTORE PUSH32 0x8C3C521C51B06E0C8B39405241E485A75299F370B4E33350BC25967FF2590A6 PUSH1 0x20 CALLER SWAP5 LOG4 STOP JUMPDEST PUSH4 0x4E487B71 PUSH1 0xE0 SHL PUSH0 MSTORE PUSH1 0x41 PUSH1 0x4 MSTORE PUSH1 0x24 PUSH0 REVERT JUMPDEST PUSH1 0x40 MLOAD PUSH3 0x461BCD PUSH1 0xE5 SHL DUP2 MSTORE PUSH1 0x20 PUSH1 0x4 DUP3 ADD MSTORE PUSH1 0x10 PUSH1 0x24 DUP3 ADD MSTORE PUSH16 0x416C7265616479206174207461626C65 PUSH1 0x80 SHL PUSH1 0x44 DUP3 ADD MSTORE PUSH1 0x64 SWAP1 REVERT JUMPDEST PUSH1 0x40 MLOAD PUSH3 0x461BCD PUSH1 0xE5 SHL DUP2 MSTORE PUSH1 0x20 PUSH1 0x4 DUP3 ADD MSTORE PUSH1 0xE PUSH1 0x24 DUP3 ADD MSTORE PUSH14 0x24B73B30B634B210313ABC96B4B7 PUSH1 0x91 SHL PUSH1 0x44 DUP3 ADD MSTORE PUSH1 0x64 SWAP1 REVERT JUMPDEST CALLVALUE PUSH2 0x1EC JUMPI PUSH1 0x20 CALLDATASIZE PUSH1 0x3 NOT ADD SLT PUSH2 0x1EC JUMPI PUSH1 0x4 CALLDATALOAD PUSH0 MSTORE PUSH1 0x5 PUSH1 0x20 MSTORE PUSH1 0x20 PUSH1 0x40 PUSH0 KECCAK256 SLOAD PUSH1 0x40 MLOAD SWAP1 DUP2 MSTORE RETURN JUMPDEST PUSH1 0x40 CALLDATASIZE PUSH1 0x3 NOT ADD SLT PUSH2 0x1EC JUMPI PUSH2 0x3FB PUSH2 0x15CE JUMP JUMPDEST CALLER PUSH0 SWAP1 DUP2 MSTORE PUSH0 MLOAD PUSH1 0x20 PUSH2 0x1E2D PUSH0 CODECOPY PUSH0 MLOAD SWAP1 PUSH0 MSTORE PUSH1 0x20 MSTORE PUSH1 0x40 SWAP1 KECCAK256 SLOAD PUSH1 0x24 CALLDATALOAD SWAP2 SWAP1 PUSH2 0x427 SWAP1 PUSH1 0xFF AND PUSH2 0x1624 JUMP JUMPDEST PUSH1 0x1 PUSH1 0x1 PUSH1 0xA0 SHL SUB SWAP1 DUP2 AND PUSH0 DUP2 DUP2 MSTORE PUSH1 0x4 PUSH1 0x20 MSTORE PUSH1 0x40 SWAP1 KECCAK256 SLOAD SWAP1 SWAP3 SWAP2 AND CALLER EQ DUP1 ISZERO PUSH2 0x539 JUMPI JUMPDEST ISZERO PUSH2 0x503 JUMPI DUP1 CALLVALUE LT DUP1 ISZERO SWAP1 PUSH2 0x4FB JUMPI JUMPDEST ISZERO PUSH2 0x4C1 JUMPI PUSH1 0x20 DUP2 PUSH2 0x491 PUSH32 0x2DA466A7B24304F47E87FA2E1E5A81B9831CE54FEC19055CE277CA2F39BA42C4 SWAP4 ISZERO ISZERO PUSH2 0x17C3 JUMP JUMPDEST DUP4 PUSH0 MSTORE PUSH1 0x2 DUP3 MSTORE PUSH1 0x40 PUSH0 KECCAK256 PUSH2 0x4A7 DUP3 DUP3 SLOAD PUSH2 0x16D5 JUMP JUMPDEST SWAP1 SSTORE PUSH2 0x4B5 DUP2 PUSH1 0x7 SLOAD PUSH2 0x16D5 JUMP JUMPDEST PUSH1 0x7 SSTORE PUSH1 0x40 MLOAD SWAP1 DUP2 MSTORE LOG2 STOP JUMPDEST PUSH1 0x40 MLOAD PUSH3 0x461BCD PUSH1 0xE5 SHL DUP2 MSTORE PUSH1 0x20 PUSH1 0x4 DUP3 ADD MSTORE PUSH1 0x12 PUSH1 0x24 DUP3 ADD MSTORE PUSH18 0x496E73756666696369656E742076616C7565 PUSH1 0x70 SHL PUSH1 0x44 DUP3 ADD MSTORE PUSH1 0x64 SWAP1 REVERT JUMPDEST POP DUP1 ISZERO PUSH2 0x45D JUMP JUMPDEST PUSH1 0x40 MLOAD PUSH3 0x461BCD PUSH1 0xE5 SHL DUP2 MSTORE PUSH1 0x20 PUSH1 0x4 DUP3 ADD MSTORE PUSH1 0xE PUSH1 0x24 DUP3 ADD MSTORE PUSH14 0x139BDD08185D5D1A1BDC9A5E9959 PUSH1 0x92 SHL PUSH1 0x44 DUP3 ADD MSTORE PUSH1 0x64 SWAP1 REVERT JUMPDEST POP CALLER PUSH0 SWAP1 DUP2 MSTORE PUSH0 MLOAD PUSH1 0x20 PUSH2 0x1E2D PUSH0 CODECOPY PUSH0 MLOAD SWAP1 PUSH0 MSTORE PUSH1 0x20 MSTORE PUSH1 0x40 SWAP1 KECCAK256 SLOAD PUSH1 0xFF AND PUSH2 0x44D JUMP JUMPDEST CALLVALUE PUSH2 0x1EC JUMPI PUSH1 0x20 CALLDATASIZE PUSH1 0x3 NOT ADD SLT PUSH2 0x1EC JUMPI PUSH2 0x576 PUSH2 0x15CE JUMP JUMPDEST PUSH2 0x57E PUSH2 0x18A9 JUMP JUMPDEST PUSH1 0x1 PUSH1 0x1 PUSH1 0xA0 SHL SUB AND DUP1 ISZERO PUSH2 0x5A9 JUMPI PUSH12 0xFFFFFFFFFFFFFFFFFFFFFFFF PUSH1 0xA0 SHL PUSH1 0x9 SLOAD AND OR PUSH1 0x9 SSTORE PUSH0 DUP1 RETURN JUMPDEST PUSH1 0x40 MLOAD PUSH3 0x461BCD PUSH1 0xE5 SHL DUP2 MSTORE PUSH1 0x20 PUSH1 0x4 DUP3 ADD MSTORE PUSH1 0xF PUSH1 0x24 DUP3 ADD MSTORE PUSH15 0x496E76616C69642061646472657373 PUSH1 0x88 SHL PUSH1 0x44 DUP3 ADD MSTORE PUSH1 0x64 SWAP1 REVERT JUMPDEST CALLVALUE PUSH2 0x1EC JUMPI PUSH1 0x40 CALLDATASIZE PUSH1 0x3 NOT ADD SLT PUSH2 0x1EC JUMPI PUSH2 0x5F9 PUSH2 0x15CE JUMP JUMPDEST CALLER PUSH0 SWAP1 DUP2 MSTORE PUSH0 MLOAD PUSH1 0x20 PUSH2 0x1E2D PUSH0 CODECOPY PUSH0 MLOAD SWAP1 PUSH0 MSTORE PUSH1 0x20 SWAP1 DUP2 MSTORE PUSH1 0x40 SWAP1 SWAP2 KECCAK256 SLOAD PUSH1 0x24 CALLDATALOAD SWAP3 PUSH32 0x3BB383B2F8177E04677B7C6BD84D61CC2F4E0121D47F33D8EA137F6E110AFA46 SWAP3 SWAP2 PUSH2 0x64A SWAP1 PUSH1 0xFF AND PUSH2 0x1624 JUMP JUMPDEST PUSH1 0x1 PUSH1 0x1 PUSH1 0xA0 SHL SUB AND SWAP3 PUSH2 0x65F DUP5 ISZERO ISZERO PUSH2 0x1826 JUMP JUMPDEST DUP4 PUSH0 MSTORE PUSH1 0x2 DUP3 MSTORE PUSH1 0x40 PUSH0 KECCAK256 PUSH2 0x675 DUP3 DUP3 SLOAD PUSH2 0x16D5 JUMP JUMPDEST SWAP1 SSTORE PUSH1 0x40 MLOAD SWAP1 DUP2 MSTORE LOG2 STOP JUMPDEST CALLVALUE PUSH2 0x1EC JUMPI PUSH1 0x40 CALLDATASIZE PUSH1 0x3 NOT ADD SLT PUSH2 0x1EC JUMPI PUSH2 0x6C2 PUSH1 0x4 CALLDATALOAD PUSH2 0x69F PUSH2 0x15E4 JUMP JUMPDEST SWAP1 PUSH2 0x6BD PUSH2 0x6B8 DUP3 PUSH0 MSTORE PUSH0 PUSH1 0x20 MSTORE PUSH1 0x1 PUSH1 0x40 PUSH0 KECCAK256 ADD SLOAD SWAP1 JUMP JUMPDEST PUSH2 0x19AB JUMP JUMPDEST PUSH2 0x19E8 JUMP JUMPDEST STOP JUMPDEST CALLVALUE PUSH2 0x1EC JUMPI PUSH0 CALLDATASIZE PUSH1 0x3 NOT ADD SLT PUSH2 0x1EC JUMPI PUSH1 0x20 PUSH1 0x40 MLOAD PUSH32 0x9F2DF0FED2C77648DE5860A4CC508CD0818C85B8B8A1AB4CEEEF8D981C8956A6 DUP2 MSTORE RETURN JUMPDEST PUSH0 CALLDATASIZE PUSH1 0x3 NOT ADD SLT PUSH2 0x1EC JUMPI PUSH2 0x714 CALLVALUE ISZERO ISZERO PUSH2 0x17C3 JUMP JUMPDEST CALLER PUSH0 MSTORE PUSH1 0x2 PUSH1 0x20 MSTORE PUSH1 0x40 PUSH0 KECCAK256 PUSH2 0x72B CALLVALUE DUP3 SLOAD PUSH2 0x16D5 JUMP JUMPDEST SWAP1 SSTORE PUSH2 0x739 CALLVALUE PUSH1 0x7 SLOAD PUSH2 0x16D5 JUMP JUMPDEST PUSH1 0x7 SSTORE PUSH1 0x40 MLOAD CALLVALUE DUP2 MSTORE PUSH32 0x2DA466A7B24304F47E87FA2E1E5A81B9831CE54FEC19055CE277CA2F39BA42C4 PUSH1 0x20 CALLER SWAP3 LOG2 STOP JUMPDEST CALLVALUE PUSH2 0x1EC JUMPI PUSH1 0x20 CALLDATASIZE PUSH1 0x3 NOT ADD SLT PUSH2 0x1EC JUMPI PUSH1 0x1 PUSH1 0x1 PUSH1 0xA0 SHL SUB PUSH2 0x78B PUSH2 0x15CE JUMP JUMPDEST AND PUSH0 MSTORE PUSH1 0x3 PUSH1 0x20 MSTORE PUSH1 0x20 PUSH1 0x40 PUSH0 KECCAK256 SLOAD PUSH1 0x40 MLOAD SWAP1 DUP2 MSTORE RETURN JUMPDEST CALLVALUE PUSH2 0x1EC JUMPI PUSH1 0x40 CALLDATASIZE PUSH1 0x3 NOT ADD SLT PUSH2 0x1EC JUMPI PUSH1 0x20 PUSH2 0x7BD PUSH2 0x15CE JUMP JUMPDEST PUSH2 0x7C5 PUSH2 0x15E4 JUMP JUMPDEST PUSH1 0x1 PUSH1 0x1 PUSH1 0xA0 SHL SUB SWAP2 DUP3 AND PUSH0 SWAP1 DUP2 MSTORE PUSH1 0x4 DUP5 MSTORE PUSH1 0x40 SWAP1 DUP2 SWAP1 KECCAK256 SLOAD SWAP1 MLOAD SWAP1 DUP4 AND SWAP2 SWAP1 SWAP3 AND EQ DUP2 MSTORE RETURN JUMPDEST CALLVALUE PUSH2 0x1EC JUMPI PUSH0 CALLDATASIZE PUSH1 0x3 NOT ADD SLT PUSH2 0x1EC JUMPI PUSH1 0x20 PUSH1 0x40 MLOAD PUSH0 DUP2 MSTORE RETURN JUMPDEST CALLVALUE PUSH2 0x1EC JUMPI PUSH0 CALLDATASIZE PUSH1 0x3 NOT ADD SLT PUSH2 0x1EC JUMPI PUSH1 0x20 PUSH1 0x8 SLOAD PUSH1 0x40 MLOAD SWAP1 DUP2 MSTORE RETURN JUMPDEST CALLVALUE PUSH2 0x1EC JUMPI PUSH1 0x40 CALLDATASIZE PUSH1 0x3 NOT ADD SLT PUSH2 0x1EC JUMPI PUSH2 0x83D PUSH2 0x15E4 JUMP JUMPDEST PUSH1 0x4 CALLDATALOAD PUSH0 MSTORE PUSH0 PUSH1 0x20 MSTORE PUSH1 0x40 PUSH0 KECCAK256 SWAP1 PUSH1 0x1 DUP1 PUSH1 0xA0 SHL SUB AND PUSH0 MSTORE PUSH1 0x20 MSTORE PUSH1 0x20 PUSH1 0xFF PUSH1 0x40 PUSH0 KECCAK256 SLOAD AND PUSH1 0x40 MLOAD SWAP1 ISZERO ISZERO DUP2 MSTORE RETURN JUMPDEST CALLVALUE PUSH2 0x1EC JUMPI PUSH1 0x40 CALLDATASIZE PUSH1 0x3 NOT ADD SLT PUSH2 0x1EC JUMPI PUSH2 0x885 PUSH2 0x15E4 JUMP JUMPDEST PUSH1 0x4 CALLDATALOAD PUSH0 MSTORE PUSH1 0x6 PUSH1 0x20 MSTORE PUSH1 0x40 PUSH0 KECCAK256 SWAP1 PUSH1 0x1 DUP1 PUSH1 0xA0 SHL SUB AND PUSH0 MSTORE PUSH1 0x20 MSTORE PUSH1 0x40 PUSH0 KECCAK256 PUSH1 0xFF PUSH1 0x1 DUP3 SLOAD SWAP3 ADD SLOAD AND SWAP1 PUSH2 0x8CE PUSH1 0x40 MLOAD SWAP3 DUP4 SWAP3 DUP4 SWAP1 SWAP3 SWAP2 PUSH1 0x20 SWAP1 PUSH1 0x40 DUP4 ADD SWAP5 DUP4 MSTORE ISZERO ISZERO SWAP2 ADD MSTORE JUMP JUMPDEST SUB SWAP1 RETURN JUMPDEST CALLVALUE PUSH2 0x1EC JUMPI PUSH1 0x40 CALLDATASIZE PUSH1 0x3 NOT ADD SLT PUSH2 0x1EC JUMPI PUSH2 0x6C2 CALLER PUSH1 0x24 CALLDATALOAD PUSH1 0x4 CALLDATALOAD CALLER PUSH2 0x1A68 JUMP JUMPDEST CALLVALUE PUSH2 0x1EC JUMPI PUSH1 0xC0 CALLDATASIZE PUSH1 0x3 NOT ADD SLT PUSH2 0x1EC JUMPI PUSH1 0x4 CALLDATALOAD PUSH1 0x24 CALLDATALOAD PUSH8 0xFFFFFFFFFFFFFFFF DUP2 GT PUSH2 0x1EC JUMPI PUSH2 0x927 SWAP1 CALLDATASIZE SWAP1 PUSH1 0x4 ADD PUSH2 0x159D JUMP JUMPDEST SWAP1 PUSH1 0x44 CALLDATALOAD PUSH8 0xFFFFFFFFFFFFFFFF DUP2 GT PUSH2 0x1EC JUMPI PUSH2 0x948 SWAP1 CALLDATASIZE SWAP1 PUSH1 0x4 ADD PUSH2 0x159D JUMP JUMPDEST CALLER PUSH0 SWAP1 DUP2 MSTORE PUSH0 MLOAD PUSH1 0x20 PUSH2 0x1E2D PUSH0 CODECOPY PUSH0 MLOAD SWAP1 PUSH0 MSTORE PUSH1 0x20 MSTORE PUSH1 0x40 SWAP1 KECCAK256 SLOAD SWAP2 SWAP4 SWAP2 PUSH1 0x64 CALLDATALOAD SWAP2 PUSH1 0xA4 CALLDATALOAD SWAP2 PUSH1 0x84 CALLDATALOAD SWAP2 SWAP1 PUSH2 0x97F SWAP1 PUSH1 0xFF AND PUSH2 0x1624 JUMP JUMPDEST DUP1 DUP6 SUB PUSH2 0xB1F JUMPI DUP5 ISZERO PUSH2 0xAE3 JUMPI PUSH0 DUP5 DUP4 DUP3 JUMPDEST DUP5 DUP5 LT PUSH2 0xA7E JUMPI PUSH2 0x9A3 SWAP3 SWAP4 POP PUSH2 0x16D5 JUMP JUMPDEST GT PUSH2 0xA44 JUMPI PUSH32 0x641BCD60DCA6E837D11A8BE67B4D6462E10FED4CDAE68B6BC90AE2794A310B2D SWAP7 PUSH2 0xA07 SWAP2 DUP4 PUSH2 0xA1C JUMPI JUMPDEST DUP10 PUSH0 MSTORE PUSH1 0x5 PUSH1 0x20 MSTORE DUP5 PUSH1 0x40 PUSH0 KECCAK256 SSTORE PUSH2 0x9F9 PUSH1 0x40 MLOAD SWAP9 DUP10 SWAP9 PUSH1 0xA0 DUP11 MSTORE PUSH1 0xA0 DUP11 ADD SWAP2 PUSH2 0x1703 JUMP JUMPDEST SWAP2 DUP8 DUP4 SUB PUSH1 0x20 DUP10 ADD MSTORE PUSH2 0x1753 JUMP JUMPDEST SWAP3 PUSH1 0x40 DUP6 ADD MSTORE PUSH1 0x60 DUP5 ADD MSTORE PUSH1 0x80 DUP4 ADD MSTORE SUB SWAP1 LOG2 STOP JUMPDEST PUSH1 0x1 DUP1 PUSH1 0xA0 SHL SUB PUSH1 0x9 SLOAD AND PUSH0 MSTORE PUSH1 0x2 PUSH1 0x20 MSTORE PUSH1 0x40 PUSH0 KECCAK256 PUSH2 0xA3D DUP6 DUP3 SLOAD PUSH2 0x16D5 JUMP JUMPDEST SWAP1 SSTORE PUSH2 0x9D4 JUMP JUMPDEST PUSH1 0x40 MLOAD PUSH3 0x461BCD PUSH1 0xE5 SHL DUP2 MSTORE PUSH1 0x20 PUSH1 0x4 DUP3 ADD MSTORE PUSH1 0x12 PUSH1 0x24 DUP3 ADD MSTORE PUSH18 0x105B5BDD5B9D1CC8195E18D95959081C1BDD PUSH1 0x72 SHL PUSH1 0x44 DUP3 ADD MSTORE PUSH1 0x64 SWAP1 REVERT JUMPDEST PUSH1 0x1 SWAP3 POP PUSH2 0xA99 SWAP2 POP PUSH2 0xA92 DUP5 DUP7 DUP14 PUSH2 0x1660 JUMP JUMPDEST CALLDATALOAD SWAP1 PUSH2 0x16D5 JUMP JUMPDEST SWAP2 PUSH2 0xAA5 DUP2 DUP6 DUP13 PUSH2 0x1660 JUMP JUMPDEST CALLDATALOAD DUP10 PUSH2 0xAC0 PUSH2 0xABB DUP5 DUP13 DUP8 DUP1 PUSH1 0xA0 SHL SUB SWAP5 PUSH2 0x1660 JUMP JUMPDEST PUSH2 0x1684 JUMP JUMPDEST AND PUSH0 MSTORE PUSH1 0x2 PUSH1 0x20 MSTORE PUSH2 0xAD7 PUSH1 0x40 PUSH0 KECCAK256 SWAP2 DUP3 SLOAD PUSH2 0x16D5 JUMP JUMPDEST SWAP1 SSTORE ADD SWAP1 DUP4 DUP7 SWAP2 PUSH2 0x991 JUMP JUMPDEST PUSH1 0x40 MLOAD PUSH3 0x461BCD PUSH1 0xE5 SHL DUP2 MSTORE PUSH1 0x20 PUSH1 0x4 DUP3 ADD MSTORE PUSH1 0x14 PUSH1 0x24 DUP3 ADD MSTORE PUSH20 0x139BC81DDA5B9B995C9CC81CDC1958DA599A5959 PUSH1 0x62 SHL PUSH1 0x44 DUP3 ADD MSTORE PUSH1 0x64 SWAP1 REVERT JUMPDEST PUSH1 0x40 MLOAD PUSH3 0x461BCD PUSH1 0xE5 SHL DUP2 MSTORE PUSH1 0x20 PUSH1 0x4 DUP3 ADD MSTORE PUSH1 0x1F PUSH1 0x24 DUP3 ADD MSTORE PUSH32 0x57696E6E6572732F616D6F756E7473206C656E677468206D69736D6174636800 PUSH1 0x44 DUP3 ADD MSTORE PUSH1 0x64 SWAP1 REVERT JUMPDEST CALLVALUE PUSH2 0x1EC JUMPI PUSH2 0x6C2 PUSH2 0xB75 CALLDATASIZE PUSH2 0x15FA JUMP JUMPDEST CALLER PUSH0 SWAP1 DUP2 MSTORE PUSH0 MLOAD PUSH1 0x20 PUSH2 0x1E2D PUSH0 CODECOPY PUSH0 MLOAD SWAP1 PUSH0 MSTORE PUSH1 0x20 MSTORE PUSH1 0x40 SWAP1 KECCAK256 SLOAD SWAP1 SWAP2 SWAP1 PUSH2 0xB9F SWAP1 PUSH1 0xFF AND PUSH2 0x1624 JUMP JUMPDEST CALLER SWAP3 PUSH2 0x1A68 JUMP JUMPDEST CALLVALUE PUSH2 0x1EC JUMPI PUSH1 0x20 CALLDATASIZE PUSH1 0x3 NOT ADD SLT PUSH2 0x1EC JUMPI PUSH1 0x1 PUSH1 0x1 PUSH1 0xA0 SHL SUB PUSH2 0xBC7 PUSH2 0x15CE JUMP JUMPDEST AND PUSH0 MSTORE PUSH1 0x2 PUSH1 0x20 MSTORE PUSH1 0x20 PUSH1 0x40 PUSH0 KECCAK256 SLOAD PUSH1 0x40 MLOAD SWAP1 DUP2 MSTORE RETURN JUMPDEST CALLVALUE PUSH2 0x1EC JUMPI PUSH1 0x20 CALLDATASIZE PUSH1 0x3 NOT ADD SLT PUSH2 0x1EC JUMPI PUSH1 0x60 PUSH1 0x1 PUSH1 0x1 PUSH1 0xA0 SHL SUB PUSH2 0xC01 PUSH2 0x15CE JUMP JUMPDEST AND PUSH0 SWAP1 DUP2 MSTORE PUSH1 0x2 PUSH1 0x20 SWAP1 DUP2 MSTORE PUSH1 0x40 DUP1 DUP4 KECCAK256 SLOAD PUSH1 0x3 SWAP1 SWAP3 MSTORE SWAP1 SWAP2 KECCAK256 SLOAD PUSH2 0xC26 DUP2 DUP4 PUSH2 0x16D5 JUMP JUMPDEST ISZERO ISZERO SWAP1 PUSH1 0x40 MLOAD SWAP3 DUP4 MSTORE PUSH1 0x20 DUP4 ADD MSTORE PUSH1 0x40 DUP3 ADD MSTORE RETURN JUMPDEST CALLVALUE PUSH2 0x1EC JUMPI PUSH1 0x20 CALLDATASIZE PUSH1 0x3 NOT ADD SLT PUSH2 0x1EC JUMPI PUSH1 0x1 PUSH1 0x1 PUSH1 0xA0 SHL SUB PUSH2 0xC5C PUSH2 0x15CE JUMP JUMPDEST AND PUSH0 MSTORE PUSH1 0x4 PUSH1 0x20 MSTORE PUSH1 0x20 PUSH1 0x1 DUP1 PUSH1 0xA0 SHL SUB PUSH1 0x40 PUSH0 KECCAK256 SLOAD AND PUSH1 0x40 MLOAD SWAP1 DUP2 MSTORE RETURN JUMPDEST CALLVALUE PUSH2 0x1EC JUMPI PUSH0 CALLDATASIZE PUSH1 0x3 NOT ADD SLT PUSH2 0x1EC JUMPI CALLER PUSH0 DUP2 DUP2 MSTORE PUSH1 0x4 PUSH1 0x20 MSTORE PUSH1 0x40 DUP2 KECCAK256 DUP1 SLOAD PUSH1 0x1 PUSH1 0x1 PUSH1 0xA0 SHL SUB NOT AND SWAP1 SSTORE PUSH32 0xBF7C2A6C0BECCBBB4E820A8CF0E5B3E1EEF2BA00E02333658D521636ADF41458 SWAP1 DUP1 LOG2 STOP JUMPDEST CALLVALUE PUSH2 0x1EC JUMPI PUSH0 CALLDATASIZE PUSH1 0x3 NOT ADD SLT PUSH2 0x1EC JUMPI PUSH1 0x9 SLOAD PUSH1 0x40 MLOAD PUSH1 0x1 PUSH1 0x1 PUSH1 0xA0 SHL SUB SWAP1 SWAP2 AND DUP2 MSTORE PUSH1 0x20 SWAP1 RETURN JUMPDEST CALLVALUE PUSH2 0x1EC JUMPI PUSH1 0x40 CALLDATASIZE PUSH1 0x3 NOT ADD SLT PUSH2 0x1EC JUMPI PUSH2 0xD0E PUSH2 0x15E4 JUMP JUMPDEST CALLER PUSH1 0x1 PUSH1 0x1 PUSH1 0xA0 SHL SUB DUP3 AND SUB PUSH2 0xD2A JUMPI PUSH2 0x6C2 SWAP1 PUSH1 0x4 CALLDATALOAD PUSH2 0x19E8 JUMP JUMPDEST PUSH1 0x40 MLOAD PUSH3 0x461BCD PUSH1 0xE5 SHL DUP2 MSTORE PUSH1 0x20 PUSH1 0x4 DUP3 ADD MSTORE PUSH1 0x2F PUSH1 0x24 DUP3 ADD MSTORE PUSH32 0x416363657373436F6E74726F6C3A2063616E206F6E6C792072656E6F756E6365 PUSH1 0x44 DUP3 ADD MSTORE PUSH15 0x103937B632B9903337B91039B2B633 PUSH1 0x89 SHL PUSH1 0x64 DUP3 ADD MSTORE PUSH1 0x84 SWAP1 REVERT JUMPDEST CALLVALUE PUSH2 0x1EC JUMPI PUSH1 0x40 CALLDATASIZE PUSH1 0x3 NOT ADD SLT PUSH2 0x1EC JUMPI PUSH1 0x4 CALLDATALOAD PUSH1 0x1 PUSH1 0x1 PUSH1 0xA0 SHL SUB DUP2 AND SWAP1 DUP2 SWAP1 SUB PUSH2 0x1EC JUMPI PUSH0 PUSH1 0x20 PUSH1 0x24 CALLDATALOAD SWAP3 PUSH2 0xDBF DUP5 ISZERO ISZERO PUSH2 0x17C3 JUMP JUMPDEST PUSH1 0x64 PUSH1 0x40 MLOAD DUP1 SWAP5 DUP2 SWAP4 PUSH4 0x23B872DD PUSH1 0xE0 SHL DUP4 MSTORE CALLER PUSH1 0x4 DUP5 ADD MSTORE ADDRESS PUSH1 0x24 DUP5 ADD MSTORE DUP8 PUSH1 0x44 DUP5 ADD MSTORE GAS CALL SWAP1 DUP2 ISZERO PUSH2 0xEC2 JUMPI PUSH0 SWAP2 PUSH2 0xE87 JUMPI JUMPDEST POP ISZERO PUSH2 0xE50 JUMPI CALLER PUSH0 MSTORE PUSH1 0x2 PUSH1 0x20 MSTORE PUSH1 0x40 PUSH0 KECCAK256 PUSH2 0xE11 DUP3 DUP3 SLOAD PUSH2 0x16D5 JUMP JUMPDEST SWAP1 SSTORE PUSH2 0xE1F DUP2 PUSH1 0x7 SLOAD PUSH2 0x16D5 JUMP JUMPDEST PUSH1 0x7 SSTORE PUSH1 0x40 MLOAD SWAP1 DUP2 MSTORE PUSH32 0x2DA466A7B24304F47E87FA2E1E5A81B9831CE54FEC19055CE277CA2F39BA42C4 PUSH1 0x20 CALLER SWAP3 LOG2 STOP JUMPDEST PUSH1 0x40 MLOAD PUSH3 0x461BCD PUSH1 0xE5 SHL DUP2 MSTORE PUSH1 0x20 PUSH1 0x4 DUP3 ADD MSTORE PUSH1 0xF PUSH1 0x24 DUP3 ADD MSTORE PUSH15 0x151C985B9CD9995C8819985A5B1959 PUSH1 0x8A SHL PUSH1 0x44 DUP3 ADD MSTORE PUSH1 0x64 SWAP1 REVERT JUMPDEST SWAP1 POP PUSH1 0x20 DUP2 RETURNDATASIZE PUSH1 0x20 GT PUSH2 0xEBA JUMPI JUMPDEST DUP2 PUSH2 0xEA2 PUSH1 0x20 SWAP4 DUP4 PUSH2 0x1804 JUMP JUMPDEST DUP2 ADD SUB SLT PUSH2 0x1EC JUMPI MLOAD DUP1 ISZERO ISZERO DUP2 SUB PUSH2 0x1EC JUMPI DUP3 PUSH2 0xDF4 JUMP JUMPDEST RETURNDATASIZE SWAP2 POP PUSH2 0xE95 JUMP JUMPDEST PUSH1 0x40 MLOAD RETURNDATASIZE PUSH0 DUP3 RETURNDATACOPY RETURNDATASIZE SWAP1 REVERT JUMPDEST CALLVALUE PUSH2 0x1EC JUMPI PUSH1 0x40 CALLDATASIZE PUSH1 0x3 NOT ADD SLT PUSH2 0x1EC JUMPI PUSH1 0x4 CALLDATALOAD PUSH2 0xEE9 PUSH2 0x15E4 JUMP JUMPDEST SWAP1 PUSH2 0xF02 PUSH2 0x6B8 DUP3 PUSH0 MSTORE PUSH0 PUSH1 0x20 MSTORE PUSH1 0x1 PUSH1 0x40 PUSH0 KECCAK256 ADD SLOAD SWAP1 JUMP JUMPDEST PUSH0 DUP2 DUP2 MSTORE PUSH1 0x20 DUP2 DUP2 MSTORE PUSH1 0x40 DUP1 DUP4 KECCAK256 PUSH1 0x1 PUSH1 0x1 PUSH1 0xA0 SHL SUB DUP7 AND DUP5 MSTORE SWAP1 SWAP2 MSTORE SWAP1 KECCAK256 SLOAD PUSH1 0xFF AND ISZERO PUSH2 0xF2C JUMPI STOP JUMPDEST PUSH0 DUP2 DUP2 MSTORE PUSH1 0x20 DUP2 DUP2 MSTORE PUSH1 0x40 DUP1 DUP4 KECCAK256 PUSH1 0x1 PUSH1 0x1 PUSH1 0xA0 SHL SUB SWAP6 SWAP1 SWAP6 AND DUP1 DUP5 MSTORE SWAP5 SWAP1 SWAP2 MSTORE DUP2 KECCAK256 DUP1 SLOAD PUSH1 0xFF NOT AND PUSH1 0x1 OR SWAP1 SSTORE CALLER SWAP3 SWAP2 SWAP1 PUSH32 0x2F8788117E7EFF1D82E926EC794901D17C78024A50270940304540A733656F0D SWAP1 DUP1 LOG4 STOP JUMPDEST CALLVALUE PUSH2 0x1EC JUMPI PUSH1 0x20 CALLDATASIZE PUSH1 0x3 NOT ADD SLT PUSH2 0x1EC JUMPI PUSH2 0xF9D PUSH2 0x15CE JUMP JUMPDEST PUSH2 0xFA5 PUSH2 0x18A9 JUMP JUMPDEST PUSH1 0x1 PUSH1 0x1 PUSH1 0xA0 SHL SUB AND PUSH2 0xFB9 DUP2 ISZERO ISZERO PUSH2 0x1698 JUMP JUMPDEST DUP1 PUSH0 MSTORE PUSH1 0x3 PUSH1 0x20 MSTORE PUSH1 0x40 PUSH0 KECCAK256 SLOAD DUP1 ISZERO PUSH2 0x1013 JUMPI PUSH1 0x20 PUSH32 0x6AC38E093D1EEF7BFAD88CA3681C7D60445C7FFC439FDC6257BFFA53E9B20609 SWAP2 DUP4 PUSH0 MSTORE PUSH1 0x3 DUP3 MSTORE PUSH0 PUSH1 0x40 DUP2 KECCAK256 SSTORE DUP4 PUSH0 MSTORE PUSH1 0x2 DUP3 MSTORE PUSH1 0x40 PUSH0 KECCAK256 PUSH2 0x675 DUP3 DUP3 SLOAD PUSH2 0x16D5 JUMP JUMPDEST PUSH1 0x40 MLOAD PUSH3 0x461BCD PUSH1 0xE5 SHL DUP2 MSTORE PUSH1 0x20 PUSH1 0x4 DUP3 ADD MSTORE PUSH1 0xF PUSH1 0x24 DUP3 ADD MSTORE PUSH15 0x4E6F206C6F636B65642066756E6473 PUSH1 0x88 SHL PUSH1 0x44 DUP3 ADD MSTORE PUSH1 0x64 SWAP1 REVERT JUMPDEST CALLVALUE PUSH2 0x1EC JUMPI PUSH1 0x20 CALLDATASIZE PUSH1 0x3 NOT ADD SLT PUSH2 0x1EC JUMPI PUSH1 0x4 CALLDATALOAD PUSH1 0x2 PUSH1 0x1 SLOAD EQ PUSH2 0x110A JUMPI PUSH1 0x2 PUSH1 0x1 SSTORE CALLER PUSH0 MSTORE PUSH1 0x2 PUSH1 0x20 MSTORE PUSH2 0x1085 DUP2 PUSH1 0x40 PUSH0 KECCAK256 SLOAD LT ISZERO PUSH2 0x1777 JUMP JUMPDEST DUP1 DUP1 ISZERO PUSH2 0x1092 DUP2 ISZERO PUSH2 0x17C3 JUMP JUMPDEST CALLER PUSH0 MSTORE PUSH1 0x2 PUSH1 0x20 MSTORE PUSH1 0x40 PUSH0 KECCAK256 PUSH2 0x10A9 DUP4 DUP3 SLOAD PUSH2 0x16F6 JUMP JUMPDEST SWAP1 SSTORE PUSH2 0x10B7 DUP3 PUSH1 0x7 SLOAD PUSH2 0x16F6 JUMP JUMPDEST PUSH1 0x7 SSTORE PUSH0 SWAP1 PUSH2 0x1101 JUMPI JUMPDEST PUSH0 DUP1 DUP1 SWAP4 DUP2 SWAP4 CALLER SWAP1 CALL ISZERO PUSH2 0xEC2 JUMPI PUSH1 0x40 MLOAD SWAP1 DUP2 MSTORE PUSH32 0x7084F5476618D8E60B11EF0D7D3F06914655ADB8793E28FF7F018D4C76D505D5 PUSH1 0x20 CALLER SWAP3 LOG2 PUSH1 0x1 DUP1 SSTORE STOP JUMPDEST POP PUSH2 0x8FC PUSH2 0x10C1 JUMP JUMPDEST PUSH1 0x40 MLOAD PUSH3 0x461BCD PUSH1 0xE5 SHL DUP2 MSTORE PUSH1 0x20 PUSH1 0x4 DUP3 ADD MSTORE PUSH1 0x1F PUSH1 0x24 DUP3 ADD MSTORE PUSH32 0x5265656E7472616E637947756172643A207265656E7472616E742063616C6C00 PUSH1 0x44 DUP3 ADD MSTORE PUSH1 0x64 SWAP1 REVERT JUMPDEST CALLVALUE PUSH2 0x1EC JUMPI PUSH1 0x20 CALLDATASIZE PUSH1 0x3 NOT ADD SLT PUSH2 0x1EC JUMPI PUSH1 0x20 PUSH2 0x1179 PUSH1 0x4 CALLDATALOAD PUSH0 MSTORE PUSH0 PUSH1 0x20 MSTORE PUSH1 0x1 PUSH1 0x40 PUSH0 KECCAK256 ADD SLOAD SWAP1 JUMP JUMPDEST PUSH1 0x40 MLOAD SWAP1 DUP2 MSTORE RETURN JUMPDEST CALLVALUE PUSH2 0x1EC JUMPI PUSH1 0x20 CALLDATASIZE PUSH1 0x3 NOT ADD SLT PUSH2 0x1EC JUMPI PUSH1 0x1 PUSH1 0x1 PUSH1 0xA0 SHL SUB PUSH2 0x11A2 PUSH2 0x15CE JUMP JUMPDEST AND DUP1 ISZERO PUSH2 0x11ED JUMPI CALLER PUSH0 DUP2 DUP2 MSTORE PUSH1 0x4 PUSH1 0x20 MSTORE PUSH1 0x40 DUP2 KECCAK256 DUP1 SLOAD PUSH1 0x1 PUSH1 0x1 PUSH1 0xA0 SHL SUB NOT AND DUP5 OR SWAP1 SSTORE PUSH32 0xE0568110C5BEFD8FE07F34A5ECF41A7B844A789EFA0E02BE8B074C00E1E1AD00 SWAP1 DUP1 LOG3 STOP JUMPDEST PUSH1 0x40 MLOAD PUSH3 0x461BCD PUSH1 0xE5 SHL DUP2 MSTORE PUSH1 0x20 PUSH1 0x4 DUP3 ADD MSTORE PUSH1 0x18 PUSH1 0x24 DUP3 ADD MSTORE PUSH32 0x496E76616C69642064656C656761746520616464726573730000000000000000 PUSH1 0x44 DUP3 ADD MSTORE PUSH1 0x64 SWAP1 REVERT JUMPDEST CALLVALUE PUSH2 0x1EC JUMPI PUSH1 0x20 CALLDATASIZE PUSH1 0x3 NOT ADD SLT PUSH2 0x1EC JUMPI PUSH1 0x4 CALLDATALOAD PUSH4 0xFFFFFFFF PUSH1 0xE0 SHL DUP2 AND DUP1 SWAP2 SUB PUSH2 0x1EC JUMPI PUSH1 0x20 SWAP1 PUSH4 0x7965DB0B PUSH1 0xE0 SHL DUP2 EQ SWAP1 DUP2 ISZERO PUSH2 0x1277 JUMPI JUMPDEST POP PUSH1 0x40 MLOAD SWAP1 ISZERO ISZERO DUP2 MSTORE RETURN JUMPDEST PUSH4 0x1FFC9A7 PUSH1 0xE0 SHL EQ SWAP1 POP DUP3 PUSH2 0x126C JUMP JUMPDEST CALLVALUE PUSH2 0x1EC JUMPI PUSH1 0xA0 CALLDATASIZE PUSH1 0x3 NOT ADD SLT PUSH2 0x1EC JUMPI PUSH1 0x4 CALLDATALOAD PUSH1 0x24 CALLDATALOAD PUSH8 0xFFFFFFFFFFFFFFFF DUP2 GT PUSH2 0x1EC JUMPI PUSH2 0x12BC SWAP1 CALLDATASIZE SWAP1 PUSH1 0x4 ADD PUSH2 0x159D JUMP JUMPDEST SWAP1 PUSH1 0x44 CALLDATALOAD PUSH8 0xFFFFFFFFFFFFFFFF DUP2 GT PUSH2 0x1EC JUMPI PUSH2 0x12DD SWAP1 CALLDATASIZE SWAP1 PUSH1 0x4 ADD PUSH2 0x159D JUMP JUMPDEST CALLER PUSH0 SWAP1 DUP2 MSTORE PUSH0 MLOAD PUSH1 0x20 PUSH2 0x1E2D PUSH0 CODECOPY PUSH0 MLOAD SWAP1 PUSH0 MSTORE PUSH1 0x20 MSTORE PUSH1 0x40 SWAP1 KECCAK256 SLOAD SWAP2 SWAP4 SWAP2 PUSH1 0x64 CALLDATALOAD SWAP2 PUSH1 0x84 CALLDATALOAD SWAP2 PUSH2 0x130F SWAP1 PUSH1 0xFF AND PUSH2 0x1624 JUMP JUMPDEST DUP1 DUP5 SUB PUSH2 0x153E JUMPI DUP4 ISZERO PUSH2 0x150C JUMPI PUSH0 DUP1 DUP5 DUP2 JUMPDEST DUP8 DUP2 LT PUSH2 0x1414 JUMPI POP PUSH2 0x1333 SWAP2 SWAP3 PUSH2 0x16D5 JUMP JUMPDEST SUB PUSH2 0x13CF JUMPI PUSH32 0xEE831E7460380A7A6FCD0FA6DAFD14F6C2A0F7D0DED3716A5EE3BA6ACE22B0F5 SWAP6 PUSH2 0x1397 SWAP2 DUP5 PUSH2 0x13A7 JUMPI JUMPDEST DUP9 PUSH0 MSTORE PUSH1 0x5 PUSH1 0x20 MSTORE DUP4 PUSH1 0x40 PUSH0 KECCAK256 SSTORE PUSH2 0x1389 PUSH1 0x40 MLOAD SWAP8 DUP9 SWAP8 PUSH1 0x80 DUP10 MSTORE PUSH1 0x80 DUP10 ADD SWAP2 PUSH2 0x1703 JUMP JUMPDEST SWAP2 DUP7 DUP4 SUB PUSH1 0x20 DUP9 ADD MSTORE PUSH2 0x1753 JUMP JUMPDEST SWAP2 PUSH1 0x40 DUP5 ADD MSTORE PUSH1 0x60 DUP4 ADD MSTORE SUB SWAP1 LOG2 STOP JUMPDEST PUSH1 0x1 DUP1 PUSH1 0xA0 SHL SUB PUSH1 0x9 SLOAD AND PUSH0 MSTORE PUSH1 0x2 PUSH1 0x20 MSTORE PUSH1 0x40 PUSH0 KECCAK256 PUSH2 0x13C8 DUP7 DUP3 SLOAD PUSH2 0x16D5 JUMP JUMPDEST SWAP1 SSTORE PUSH2 0x1364 JUMP JUMPDEST PUSH1 0x40 MLOAD PUSH3 0x461BCD PUSH1 0xE5 SHL DUP2 MSTORE PUSH1 0x20 PUSH1 0x4 DUP3 ADD MSTORE PUSH1 0x17 PUSH1 0x24 DUP3 ADD MSTORE PUSH32 0x536574746C656D656E74206D7573742062616C616E6365000000000000000000 PUSH1 0x44 DUP3 ADD MSTORE PUSH1 0x64 SWAP1 REVERT JUMPDEST SWAP1 POP PUSH1 0x1 PUSH1 0x1 PUSH1 0xA0 SHL SUB PUSH2 0x142C PUSH2 0xABB DUP4 DUP11 DUP13 PUSH2 0x1660 JUMP JUMPDEST AND SWAP1 PUSH2 0x1439 DUP3 ISZERO ISZERO PUSH2 0x1698 JUMP JUMPDEST DUP11 PUSH0 MSTORE PUSH1 0x6 PUSH1 0x20 MSTORE PUSH1 0x40 PUSH0 KECCAK256 DUP3 PUSH0 MSTORE PUSH1 0x20 MSTORE PUSH1 0x40 PUSH0 KECCAK256 SWAP2 PUSH1 0x1 DUP4 ADD SWAP1 PUSH1 0xFF DUP3 SLOAD AND ISZERO PUSH2 0x14D3 JUMPI DUP4 PUSH0 SWAP2 PUSH2 0x14A5 DUP6 DUP16 DUP12 SWAP1 PUSH2 0x1486 PUSH2 0x147A PUSH1 0x1 SWAP12 SLOAD DUP1 SWAP14 PUSH2 0x16D5 JUMP JUMPDEST SWAP13 PUSH2 0xA92 DUP6 DUP6 DUP6 PUSH2 0x1660 JUMP JUMPDEST SWAP11 DUP6 DUP9 MSTORE PUSH1 0x3 PUSH1 0x20 MSTORE PUSH2 0x149E PUSH1 0x40 DUP10 KECCAK256 SWAP2 DUP3 SLOAD PUSH2 0x16F6 JUMP JUMPDEST SWAP1 SSTORE PUSH2 0x1660 JUMP JUMPDEST CALLDATALOAD SWAP1 DUP4 MSTORE PUSH1 0x2 PUSH1 0x20 MSTORE PUSH2 0x14BD PUSH1 0x40 DUP5 KECCAK256 SWAP2 DUP3 SLOAD PUSH2 0x16D5 JUMP JUMPDEST SWAP1 SSTORE SSTORE DUP1 SLOAD PUSH1 0xFF NOT AND SWAP1 SSTORE SWAP2 SWAP3 SWAP2 DUP7 SWAP2 ADD PUSH2 0x1321 JUMP JUMPDEST PUSH1 0x40 MLOAD PUSH3 0x461BCD PUSH1 0xE5 SHL DUP2 MSTORE PUSH1 0x20 PUSH1 0x4 DUP3 ADD MSTORE PUSH1 0x11 PUSH1 0x24 DUP3 ADD MSTORE PUSH17 0x141B185E595C881B9BDD081B1BD8DAD959 PUSH1 0x7A SHL PUSH1 0x44 DUP3 ADD MSTORE PUSH1 0x64 SWAP1 REVERT JUMPDEST PUSH1 0x40 MLOAD PUSH3 0x461BCD PUSH1 0xE5 SHL DUP2 MSTORE PUSH1 0x20 PUSH1 0x4 DUP3 ADD MSTORE PUSH1 0xA PUSH1 0x24 DUP3 ADD MSTORE PUSH10 0x4E6F20706C6179657273 PUSH1 0xB0 SHL PUSH1 0x44 DUP3 ADD MSTORE PUSH1 0x64 SWAP1 REVERT JUMPDEST PUSH1 0x40 MLOAD PUSH3 0x461BCD PUSH1 0xE5 SHL DUP2 MSTORE PUSH1 0x20 PUSH1 0x4 DUP3 ADD MSTORE PUSH1 0x1F PUSH1 0x24 DUP3 ADD MSTORE PUSH32 0x506C61796572732F7061796F757473206C656E677468206D69736D6174636800 PUSH1 0x44 DUP3 ADD MSTORE PUSH1 0x64 SWAP1 REVERT JUMPDEST CALLVALUE PUSH2 0x1EC JUMPI PUSH0 CALLDATASIZE PUSH1 0x3 NOT ADD SLT PUSH2 0x1EC JUMPI PUSH1 0x20 SWAP1 PUSH1 0x7 SLOAD DUP2 MSTORE RETURN JUMPDEST SWAP2 DUP2 PUSH1 0x1F DUP5 ADD SLT ISZERO PUSH2 0x1EC JUMPI DUP3 CALLDATALOAD SWAP2 PUSH8 0xFFFFFFFFFFFFFFFF DUP4 GT PUSH2 0x1EC JUMPI PUSH1 0x20 DUP1 DUP6 ADD SWAP5 DUP5 PUSH1 0x5 SHL ADD ADD GT PUSH2 0x1EC JUMPI JUMP JUMPDEST PUSH1 0x4 CALLDATALOAD SWAP1 PUSH1 0x1 PUSH1 0x1 PUSH1 0xA0 SHL SUB DUP3 AND DUP3 SUB PUSH2 0x1EC JUMPI JUMP JUMPDEST PUSH1 0x24 CALLDATALOAD SWAP1 PUSH1 0x1 PUSH1 0x1 PUSH1 0xA0 SHL SUB DUP3 AND DUP3 SUB PUSH2 0x1EC JUMPI JUMP JUMPDEST PUSH1 0x60 SWAP1 PUSH1 0x3 NOT ADD SLT PUSH2 0x1EC JUMPI PUSH1 0x4 CALLDATALOAD PUSH1 0x1 PUSH1 0x1 PUSH1 0xA0 SHL SUB DUP2 AND DUP2 SUB PUSH2 0x1EC JUMPI SWAP1 PUSH1 0x24 CALLDATALOAD SWAP1 PUSH1 0x44 CALLDATALOAD SWAP1 JUMP JUMPDEST ISZERO PUSH2 0x162B JUMPI JUMP JUMPDEST PUSH1 0x40 MLOAD PUSH3 0x461BCD PUSH1 0xE5 SHL DUP2 MSTORE PUSH1 0x20 PUSH1 0x4 DUP3 ADD MSTORE PUSH1 0xD PUSH1 0x24 DUP3 ADD MSTORE PUSH13 0x27B7363C9037B832B930BA37B9 PUSH1 0x99 SHL PUSH1 0x44 DUP3 ADD MSTORE PUSH1 0x64 SWAP1 REVERT JUMPDEST SWAP2 SWAP1 DUP2 LT ISZERO PUSH2 0x1670 JUMPI PUSH1 0x5 SHL ADD SWAP1 JUMP JUMPDEST PUSH4 0x4E487B71 PUSH1 0xE0 SHL PUSH0 MSTORE PUSH1 0x32 PUSH1 0x4 MSTORE PUSH1 0x24 PUSH0 REVERT JUMPDEST CALLDATALOAD PUSH1 0x1 PUSH1 0x1 PUSH1 0xA0 SHL SUB DUP2 AND DUP2 SUB PUSH2 0x1EC JUMPI SWAP1 JUMP JUMPDEST ISZERO PUSH2 0x169F JUMPI JUMP JUMPDEST PUSH1 0x40 MLOAD PUSH3 0x461BCD PUSH1 0xE5 SHL DUP2 MSTORE PUSH1 0x20 PUSH1 0x4 DUP3 ADD MSTORE PUSH1 0xE PUSH1 0x24 DUP3 ADD MSTORE PUSH14 0x24B73B30B634B210383630BCB2B9 PUSH1 0x91 SHL PUSH1 0x44 DUP3 ADD MSTORE PUSH1 0x64 SWAP1 REVERT JUMPDEST SWAP2 SWAP1 DUP3 ADD DUP1 SWAP3 GT PUSH2 0x16E2 JUMPI JUMP JUMPDEST PUSH4 0x4E487B71 PUSH1 0xE0 SHL PUSH0 MSTORE PUSH1 0x11 PUSH1 0x4 MSTORE PUSH1 0x24 PUSH0 REVERT JUMPDEST SWAP2 SWAP1 DUP3 SUB SWAP2 DUP3 GT PUSH2 0x16E2 JUMPI JUMP JUMPDEST SWAP2 PUSH1 0x20 SWAP1 DUP3 DUP2 MSTORE ADD SWAP2 SWAP1 PUSH0 SWAP1 JUMPDEST DUP1 DUP3 LT PUSH2 0x171D JUMPI POP POP POP SWAP1 JUMP JUMPDEST SWAP2 SWAP3 SWAP1 SWAP2 SWAP1 DUP4 CALLDATALOAD SWAP1 PUSH1 0x1 PUSH1 0x1 PUSH1 0xA0 SHL SUB DUP3 AND DUP3 SUB PUSH2 0x1EC JUMPI PUSH1 0x1 PUSH1 0x1 PUSH1 0xA0 SHL SUB SWAP1 SWAP2 AND DUP2 MSTORE PUSH1 0x20 SWAP1 DUP2 ADD SWAP4 ADD SWAP2 PUSH1 0x1 ADD SWAP1 PUSH2 0x1710 JUMP JUMPDEST DUP2 DUP4 MSTORE SWAP1 SWAP2 PUSH1 0x1 PUSH1 0x1 PUSH1 0xFB SHL SUB DUP4 GT PUSH2 0x1EC JUMPI PUSH1 0x20 SWAP3 PUSH1 0x5 SHL DUP1 SWAP3 DUP5 DUP4 ADD CALLDATACOPY ADD ADD SWAP1 JUMP JUMPDEST ISZERO PUSH2 0x177E JUMPI JUMP JUMPDEST PUSH1 0x40 MLOAD PUSH3 0x461BCD PUSH1 0xE5 SHL DUP2 MSTORE PUSH1 0x20 PUSH1 0x4 DUP3 ADD MSTORE PUSH1 0x1C PUSH1 0x24 DUP3 ADD MSTORE PUSH32 0x496E73756666696369656E7420637573746F64792062616C616E636500000000 PUSH1 0x44 DUP3 ADD MSTORE PUSH1 0x64 SWAP1 REVERT JUMPDEST ISZERO PUSH2 0x17CA JUMPI JUMP JUMPDEST PUSH1 0x40 MLOAD PUSH3 0x461BCD PUSH1 0xE5 SHL DUP2 MSTORE PUSH1 0x20 PUSH1 0x4 DUP3 ADD MSTORE PUSH1 0x12 PUSH1 0x24 DUP3 ADD MSTORE PUSH18 0x416D6F756E74206D757374206265203E203 PUSH1 0x74 SHL PUSH1 0x44 DUP3 ADD MSTORE PUSH1 0x64 SWAP1 REVERT JUMPDEST SWAP1 PUSH1 0x1F DUP1 NOT SWAP2 ADD AND DUP2 ADD SWAP1 DUP2 LT PUSH8 0xFFFFFFFFFFFFFFFF DUP3 GT OR PUSH2 0x33B JUMPI PUSH1 0x40 MSTORE JUMP JUMPDEST ISZERO PUSH2 0x182D JUMPI JUMP JUMPDEST PUSH1 0x40 MLOAD PUSH3 0x461BCD PUSH1 0xE5 SHL DUP2 MSTORE PUSH1 0x20 PUSH1 0x4 DUP3 ADD MSTORE PUSH1 0x16 PUSH1 0x24 DUP3 ADD MSTORE PUSH22 0x496E76616C696420706C617965722061646472657373 PUSH1 0x50 SHL PUSH1 0x44 DUP3 ADD MSTORE PUSH1 0x64 SWAP1 REVERT JUMPDEST ISZERO PUSH2 0x1872 JUMPI JUMP JUMPDEST PUSH1 0x40 MLOAD PUSH3 0x461BCD PUSH1 0xE5 SHL DUP2 MSTORE PUSH1 0x20 PUSH1 0x4 DUP3 ADD MSTORE PUSH1 0xF PUSH1 0x24 DUP3 ADD MSTORE PUSH15 0x125B9D985B1A59081D18589B195259 PUSH1 0x8A SHL PUSH1 0x44 DUP3 ADD MSTORE PUSH1 0x64 SWAP1 REVERT JUMPDEST CALLER PUSH0 SWAP1 DUP2 MSTORE PUSH32 0xAD3228B676F7D3CD4284A5443F17F1962B36E491B30A40B2405849E597BA5FB5 PUSH1 0x20 MSTORE PUSH1 0x40 SWAP1 KECCAK256 SLOAD PUSH1 0xFF AND ISZERO PUSH2 0x18E1 JUMPI JUMP JUMPDEST PUSH2 0x18EA CALLER PUSH2 0x1CA4 JUMP JUMPDEST PUSH1 0x44 PUSH1 0x20 PUSH2 0x1973 PUSH1 0x11 PUSH2 0x18FC PUSH0 PUSH2 0x1D8A JUMP JUMPDEST PUSH1 0x37 PUSH1 0x40 MLOAD SWAP5 DUP6 SWAP3 DUP2 DUP1 DUP6 ADD SWAP10 PUSH32 0x416363657373436F6E74726F6C3A206163636F756E7420000000000000000000 DUP12 MSTORE DUP1 MLOAD SWAP2 DUP3 SWAP2 ADD DUP6 DUP8 ADD MCOPY DUP5 ADD SWAP1 PUSH17 0x1034B99036B4B9B9B4B733903937B6329 PUSH1 0x7D SHL DUP5 DUP4 ADD MSTORE DUP1 MLOAD SWAP3 DUP4 SWAP2 ADD PUSH1 0x48 DUP4 ADD MCOPY ADD ADD PUSH0 DUP4 DUP3 ADD MSTORE SUB ADD PUSH1 0x1F NOT DUP2 ADD DUP4 MSTORE DUP3 PUSH2 0x1804 JUMP JUMPDEST PUSH1 0x40 MLOAD SWAP3 DUP4 SWAP2 PUSH3 0x461BCD PUSH1 0xE5 SHL DUP4 MSTORE PUSH1 0x20 PUSH1 0x4 DUP5 ADD MSTORE MLOAD DUP1 SWAP2 DUP2 PUSH1 0x24 DUP6 ADD MSTORE DUP5 DUP5 ADD MCOPY PUSH0 DUP3 DUP3 ADD DUP5 ADD MSTORE PUSH1 0x1F ADD PUSH1 0x1F NOT AND DUP2 ADD SUB ADD SWAP1 REVERT JUMPDEST PUSH0 DUP2 DUP2 MSTORE PUSH1 0x20 DUP2 DUP2 MSTORE PUSH1 0x40 DUP1 DUP4 KECCAK256 CALLER DUP5 MSTORE SWAP1 SWAP2 MSTORE SWAP1 KECCAK256 SLOAD PUSH1 0xFF AND ISZERO PUSH2 0x19CD JUMPI POP JUMP JUMPDEST PUSH1 0x44 PUSH1 0x20 PUSH2 0x1973 PUSH1 0x11 PUSH2 0x18FC PUSH2 0x19E2 CALLER PUSH2 0x1CA4 JUMP JUMPDEST SWAP6 PUSH2 0x1D8A JUMP JUMPDEST PUSH0 DUP2 DUP2 MSTORE PUSH1 0x20 DUP2 DUP2 MSTORE PUSH1 0x40 DUP1 DUP4 KECCAK256 PUSH1 0x1 PUSH1 0x1 PUSH1 0xA0 SHL SUB DUP7 AND DUP5 MSTORE SWAP1 SWAP2 MSTORE SWAP1 KECCAK256 SLOAD PUSH1 0xFF AND PUSH2 0x1A13 JUMPI POP POP JUMP JUMPDEST PUSH0 DUP2 DUP2 MSTORE PUSH1 0x20 DUP2 DUP2 MSTORE PUSH1 0x40 DUP1 DUP4 KECCAK256 PUSH1 0x1 PUSH1 0x1 PUSH1 0xA0 SHL SUB SWAP6 SWAP1 SWAP6 AND DUP1 DUP5 MSTORE SWAP5 SWAP1 SWAP2 MSTORE DUP2 KECCAK256 DUP1 SLOAD PUSH1 0xFF NOT AND SWAP1 SSTORE CALLER SWAP3 SWAP2 SWAP1 PUSH32 0xF6391F5C32D9C69D2A47EA670B442974B53935D1EDC7FD64EB21E047A839171B SWAP1 DUP1 LOG4 JUMP JUMPDEST PUSH1 0x1 PUSH1 0x1 PUSH1 0xA0 SHL SUB AND SWAP3 SWAP1 SWAP2 SWAP1 PUSH2 0x1A80 DUP5 ISZERO ISZERO PUSH2 0x1826 JUMP JUMPDEST PUSH2 0x1A8B DUP4 ISZERO ISZERO PUSH2 0x186B JUMP JUMPDEST DUP3 PUSH0 MSTORE PUSH1 0x6 PUSH1 0x20 MSTORE PUSH1 0x40 PUSH0 KECCAK256 DUP5 PUSH0 MSTORE PUSH1 0x20 MSTORE PUSH1 0x40 PUSH0 KECCAK256 SWAP3 PUSH1 0x1 DUP5 ADD PUSH1 0xFF DUP2 SLOAD AND ISZERO PUSH2 0x1C43 JUMPI DUP6 PUSH0 DUP6 DUP8 SLOAD SWAP1 DUP2 DUP2 GT DUP1 PUSH2 0x1C38 JUMPI JUMPDEST PUSH2 0x1BCA JUMPI JUMPDEST POP SWAP7 DUP3 DUP6 PUSH0 SWAP4 PUSH32 0x3BB383B2F8177E04677B7C6BD84D61CC2F4E0121D47F33D8EA137F6E110AFA46 SWAP11 PUSH1 0x20 SWAP11 SWAP10 SWAP9 SWAP8 SWAP7 DUP7 MSTORE PUSH1 0x3 DUP12 MSTORE PUSH2 0x1B08 PUSH1 0x40 DUP8 KECCAK256 SWAP2 DUP3 SLOAD PUSH2 0x16F6 JUMP JUMPDEST SWAP1 SSTORE DUP3 DUP6 MSTORE PUSH1 0x2 DUP11 MSTORE PUSH1 0x40 DUP6 KECCAK256 PUSH2 0x1B20 DUP11 DUP3 SLOAD PUSH2 0x16D5 JUMP JUMPDEST SWAP1 SSTORE DUP1 PUSH2 0x1B76 JUMPI JUMPDEST POP POP POP SSTORE DUP1 SLOAD PUSH1 0xFF NOT AND SWAP1 SSTORE PUSH1 0x40 MLOAD DUP4 DUP2 MSTORE PUSH1 0x1 PUSH1 0x1 PUSH1 0xA0 SHL SUB SWAP1 SWAP3 AND SWAP2 DUP7 SWAP1 PUSH32 0xD19CD5B9C13D78956F68AECD28F8C908F321522A14EF33542D52552CED3E4EDC SWAP1 DUP7 SWAP1 LOG4 PUSH1 0x40 MLOAD SWAP1 DUP2 MSTORE LOG2 JUMP JUMPDEST DUP10 PUSH32 0xF0BFD1B99C6423E7001435E00ACC02D4585FAD3FD13C294E1F16742A55F3FB0B SWAP2 PUSH1 0x1 DUP1 PUSH1 0xA0 SHL SUB PUSH1 0x9 SLOAD AND DUP8 MSTORE PUSH1 0x2 DUP3 MSTORE PUSH1 0x40 DUP8 KECCAK256 PUSH2 0x1BB9 DUP3 DUP3 SLOAD PUSH2 0x16D5 JUMP JUMPDEST SWAP1 SSTORE PUSH1 0x40 MLOAD SWAP1 DUP2 MSTORE LOG3 DUP9 DUP5 PUSH0 PUSH2 0x1B28 JUMP JUMPDEST DUP1 SWAP8 POP DUP2 SWAP7 SWAP6 SWAP5 SWAP4 POP PUSH2 0x1BDD SWAP3 POP PUSH2 0x16F6 JUMP JUMPDEST PUSH1 0x8 SLOAD SWAP1 DUP2 DUP2 MUL SWAP2 DUP2 DUP4 DIV EQ SWAP1 ISZERO OR ISZERO PUSH2 0x16E2 JUMPI PUSH32 0x3BB383B2F8177E04677B7C6BD84D61CC2F4E0121D47F33D8EA137F6E110AFA46 SWAP7 DUP9 DUP5 PUSH1 0x20 SWAP9 PUSH2 0x1C28 PUSH2 0x2710 PUSH0 SWAP7 DIV DUP1 SWAP3 PUSH2 0x16F6 JUMP JUMPDEST SWAP10 POP SWAP4 POP POP SWAP3 SWAP4 SWAP5 SWAP6 SWAP1 SWAP8 PUSH2 0x1AC4 JUMP JUMPDEST POP PUSH1 0x8 SLOAD ISZERO ISZERO PUSH2 0x1ABF JUMP JUMPDEST PUSH1 0x40 MLOAD PUSH3 0x461BCD PUSH1 0xE5 SHL DUP2 MSTORE PUSH1 0x20 PUSH1 0x4 DUP3 ADD MSTORE PUSH1 0xC PUSH1 0x24 DUP3 ADD MSTORE PUSH12 0x4E6F74206174207461626C65 PUSH1 0xA0 SHL PUSH1 0x44 DUP3 ADD MSTORE PUSH1 0x64 SWAP1 REVERT JUMPDEST PUSH8 0xFFFFFFFFFFFFFFFF DUP2 GT PUSH2 0x33B JUMPI PUSH1 0x1F ADD PUSH1 0x1F NOT AND PUSH1 0x20 ADD SWAP1 JUMP JUMPDEST SWAP1 DUP2 MLOAD DUP2 LT ISZERO PUSH2 0x1670 JUMPI ADD PUSH1 0x20 ADD SWAP1 JUMP JUMPDEST PUSH2 0x1CAE PUSH1 0x2A PUSH2 0x1C77 JUMP JUMPDEST SWAP1 PUSH2 0x1CBC PUSH1 0x40 MLOAD SWAP3 DUP4 PUSH2 0x1804 JUMP JUMPDEST PUSH1 0x2A DUP3 MSTORE PUSH2 0x1CCA PUSH1 0x2A PUSH2 0x1C77 JUMP JUMPDEST PUSH1 0x20 DUP4 ADD SWAP1 PUSH1 0x1F NOT ADD CALLDATASIZE DUP3 CALLDATACOPY DUP3 MLOAD ISZERO PUSH2 0x1670 JUMPI PUSH1 0x30 SWAP1 MSTORE8 DUP2 MLOAD PUSH1 0x1 LT ISZERO PUSH2 0x1670 JUMPI PUSH1 0x78 PUSH1 0x21 DUP4 ADD MSTORE8 PUSH1 0x29 JUMPDEST PUSH1 0x1 DUP2 GT PUSH2 0x1D49 JUMPI POP PUSH2 0x1D05 JUMPI SWAP1 JUMP JUMPDEST PUSH1 0x64 PUSH1 0x40 MLOAD PUSH3 0x461BCD PUSH1 0xE5 SHL DUP2 MSTORE PUSH1 0x20 PUSH1 0x4 DUP3 ADD MSTORE PUSH1 0x20 PUSH1 0x24 DUP3 ADD MSTORE PUSH32 0x537472696E67733A20686578206C656E67746820696E73756666696369656E74 PUSH1 0x44 DUP3 ADD MSTORE REVERT JUMPDEST SWAP1 PUSH1 0xF DUP2 AND PUSH1 0x10 DUP2 LT ISZERO PUSH2 0x1670 JUMPI PUSH16 0x181899199A1A9B1B9C1CB0B131B232B3 PUSH1 0x81 SHL SWAP1 BYTE PUSH2 0x1D77 DUP4 DUP6 PUSH2 0x1C93 JUMP JUMPDEST MSTORE8 PUSH1 0x4 SHR SWAP1 DUP1 ISZERO PUSH2 0x16E2 JUMPI PUSH0 NOT ADD PUSH2 0x1CF5 JUMP JUMPDEST PUSH2 0x1D94 PUSH1 0x42 PUSH2 0x1C77 JUMP JUMPDEST SWAP1 PUSH2 0x1DA2 PUSH1 0x40 MLOAD SWAP3 DUP4 PUSH2 0x1804 JUMP JUMPDEST PUSH1 0x42 DUP3 MSTORE PUSH2 0x1DB0 PUSH1 0x42 PUSH2 0x1C77 JUMP JUMPDEST PUSH1 0x20 DUP4 ADD SWAP1 PUSH1 0x1F NOT ADD CALLDATASIZE DUP3 CALLDATACOPY DUP3 MLOAD ISZERO PUSH2 0x1670 JUMPI PUSH1 0x30 SWAP1 MSTORE8 DUP2 MLOAD PUSH1 0x1 LT ISZERO PUSH2 0x1670 JUMPI PUSH1 0x78 PUSH1 0x21 DUP4 ADD MSTORE8 PUSH1 0x41 JUMPDEST PUSH1 0x1 DUP2 GT PUSH2 0x1DEB JUMPI POP PUSH2 0x1D05 JUMPI SWAP1 JUMP JUMPDEST SWAP1 PUSH1 0xF DUP2 AND PUSH1 0x10 DUP2 LT ISZERO PUSH2 0x1670 JUMPI PUSH16 0x181899199A1A9B1B9C1CB0B131B232B3 PUSH1 0x81 SHL SWAP1 BYTE PUSH2 0x1E19 DUP4 DUP6 PUSH2 0x1C93 JUMP JUMPDEST MSTORE8 PUSH1 0x4 SHR SWAP1 DUP1 ISZERO PUSH2 0x16E2 JUMPI PUSH0 NOT ADD PUSH2 0x1DDB JUMP INVALID 0xEE JUMPI 0xCD DUP2 0xE8 BLOCKHASH PUSH22 0x558E8FCC182A1F4393F91FC97F963A136E66B7F949A6 0x2F BALANCE SWAP16 LOG2 PUSH5 0x6970667358 0x22 SLT KECCAK256 STOP 0x26 0xE9 CALLVALUE CALLDATACOPY CALLDATACOPY 0xDC PUSH16 0x559A8535DA4796B55FDFE14914B970B5 0xDE PUSH3 0xDAE542 0xD7 PUSH18 0x8F64736F6C634300081B00332F8788117E7E SELFDESTRUCT SAR DUP3 0xE9 0x26 0xEC PUSH26 0x4901D17C78024A50270940304540A733656F0D0781D7CAC9C378 0xEF LOG2 0x2A PUSH21 0x81E4D4D29704A680DDF504B3BC50B517700EE11E6C 0xEE JUMPI 0xCD DUP2 0xE8 BLOCKHASH PUSH22 0x558E8FCC182A1F4393F91FC97F963A136E66B7F949A6 0x2F BALANCE SWAP16 0xAD ORIGIN 0x28 0xB6 PUSH23 0xF7D3CD4284A5443F17F1962B36E491B30A40B2405849E5 SWAP8 0xBA PUSH0 0xB5 "},"methodIdentifiers":{"DEFAULT_ADMIN_ROLE()":"a217fddf","MINTER_ROLE()":"d5391393","OPERATOR_ROLE()":"f5b541a6","authorizeDelegate(address)":"0cac139e","custodyBalance(address)":"69e08a0c","delegates(address)":"587cde1e","deposit()":"d0e30db0","depositToken(address,uint256)":"338b5dea","executeDepositFor(address,uint256)":"ed1f67c5","feeRecipient()":"46904840","forceUnlockPlayer(address)":"2e9988b9","getCustodyBalance(address)":"02dbed9d","getHandStateHash(uint256)":"f01fd7a9","getLockedBalance(address)":"c4086893","getPlayerInfo(address)":"59328401","getRoleAdmin(bytes32)":"248a9ca3","getTableSession(uint256,address)":"8bedff8c","grantRole(bytes32,address)":"2f2ff15d","handStateHashes(uint256)":"5d5f8cd8","hasRole(bytes32,address)":"91d14854","isDelegateFor(address,address)":"c23a2465","joinTableFor(address,uint256,uint256)":"f4615180","leaveTableFor(address,uint256,uint256)":"6a39f290","leaveTableSession(address,uint256)":"e6aa1427","leaveTableSession(uint256,uint256)":"83956e72","lockedBalance(address)":"9ae697bf","rakeRate()":"9d9d0d88","renounceRole(bytes32,address)":"36568abe","revokeDelegate()":"55d1ef38","revokeRole(bytes32,address)":"d547741f","setFeeRecipient(address)":"e74b981b","settle(uint256,address[],uint256[],uint256,uint256,bytes32)":"79134036","settleTournament(uint256,address[],uint256[],uint256,bytes32)":"010c96c8","supportsInterface(bytes4)":"01ffc9a7","tableSessions(uint256,address)":"61e6f035","totalCustody()":"0062f167","withdraw(uint256)":"2e1a7d4d"}}}}}