{
  "_format": "hh-sol-artifact-1",
  "contractName": "AMMRouter",
  "sourceName": "contracts/AMMRouter.sol",
  "abi": [
    {
      "inputs": [
        {
          "internalType": "address",
          "name": "_pool",
          "type": "address"
        },
        {
          "internalType": "address",
          "name": "_token",
          "type": "address"
        }
      ],
      "stateMutability": "nonpayable",
      "type": "constructor"
    },
    {
      "anonymous": false,
      "inputs": [
        {
          "indexed": true,
          "internalType": "address",
          "name": "sender",
          "type": "address"
        },
        {
          "indexed": false,
          "internalType": "uint256",
          "name": "amountTRX",
          "type": "uint256"
        },
        {
          "indexed": false,
          "internalType": "uint256",
          "name": "amountCHIP",
          "type": "uint256"
        },
        {
          "indexed": false,
          "internalType": "uint256",
          "name": "liquidity",
          "type": "uint256"
        }
      ],
      "name": "LiquidityAdded",
      "type": "event"
    },
    {
      "anonymous": false,
      "inputs": [
        {
          "indexed": true,
          "internalType": "address",
          "name": "sender",
          "type": "address"
        },
        {
          "indexed": false,
          "internalType": "uint256",
          "name": "amountTRX",
          "type": "uint256"
        },
        {
          "indexed": false,
          "internalType": "uint256",
          "name": "amountCHIP",
          "type": "uint256"
        },
        {
          "indexed": false,
          "internalType": "uint256",
          "name": "liquidity",
          "type": "uint256"
        }
      ],
      "name": "LiquidityRemoved",
      "type": "event"
    },
    {
      "anonymous": false,
      "inputs": [
        {
          "indexed": true,
          "internalType": "address",
          "name": "sender",
          "type": "address"
        },
        {
          "indexed": false,
          "internalType": "bool",
          "name": "trxToChip",
          "type": "bool"
        },
        {
          "indexed": false,
          "internalType": "uint256",
          "name": "amountIn",
          "type": "uint256"
        },
        {
          "indexed": false,
          "internalType": "uint256",
          "name": "amountOut",
          "type": "uint256"
        }
      ],
      "name": "SwapExecuted",
      "type": "event"
    },
    {
      "inputs": [
        {
          "internalType": "uint256",
          "name": "amountCHIPDesired",
          "type": "uint256"
        },
        {
          "internalType": "uint256",
          "name": "amountCHIPMin",
          "type": "uint256"
        },
        {
          "internalType": "uint256",
          "name": "amountTRXMin",
          "type": "uint256"
        },
        {
          "internalType": "address",
          "name": "to",
          "type": "address"
        },
        {
          "internalType": "uint256",
          "name": "deadline",
          "type": "uint256"
        }
      ],
      "name": "addLiquidity",
      "outputs": [
        {
          "internalType": "uint256",
          "name": "amountTRX",
          "type": "uint256"
        },
        {
          "internalType": "uint256",
          "name": "amountCHIP",
          "type": "uint256"
        },
        {
          "internalType": "uint256",
          "name": "liquidity",
          "type": "uint256"
        }
      ],
      "stateMutability": "payable",
      "type": "function"
    },
    {
      "inputs": [],
      "name": "factory",
      "outputs": [
        {
          "internalType": "address",
          "name": "",
          "type": "address"
        }
      ],
      "stateMutability": "view",
      "type": "function"
    },
    {
      "inputs": [],
      "name": "getPoolInfo",
      "outputs": [
        {
          "internalType": "uint256",
          "name": "reserveTRX",
          "type": "uint256"
        },
        {
          "internalType": "uint256",
          "name": "reserveCHIP",
          "type": "uint256"
        },
        {
          "internalType": "uint256",
          "name": "price",
          "type": "uint256"
        }
      ],
      "stateMutability": "view",
      "type": "function"
    },
    {
      "inputs": [
        {
          "internalType": "uint256",
          "name": "amountIn",
          "type": "uint256"
        },
        {
          "internalType": "bool",
          "name": "isTRXToCHIP",
          "type": "bool"
        }
      ],
      "name": "getPriceImpact",
      "outputs": [
        {
          "internalType": "uint256",
          "name": "priceImpact",
          "type": "uint256"
        }
      ],
      "stateMutability": "view",
      "type": "function"
    },
    {
      "inputs": [],
      "name": "owner",
      "outputs": [
        {
          "internalType": "address",
          "name": "",
          "type": "address"
        }
      ],
      "stateMutability": "view",
      "type": "function"
    },
    {
      "inputs": [],
      "name": "pool",
      "outputs": [
        {
          "internalType": "address",
          "name": "",
          "type": "address"
        }
      ],
      "stateMutability": "view",
      "type": "function"
    },
    {
      "inputs": [
        {
          "internalType": "uint256",
          "name": "amountIn",
          "type": "uint256"
        }
      ],
      "name": "quoteCHIPToTRX",
      "outputs": [
        {
          "internalType": "uint256",
          "name": "amountOut",
          "type": "uint256"
        }
      ],
      "stateMutability": "view",
      "type": "function"
    },
    {
      "inputs": [
        {
          "internalType": "uint256",
          "name": "amountIn",
          "type": "uint256"
        }
      ],
      "name": "quoteTRXToCHIP",
      "outputs": [
        {
          "internalType": "uint256",
          "name": "amountOut",
          "type": "uint256"
        }
      ],
      "stateMutability": "view",
      "type": "function"
    },
    {
      "inputs": [
        {
          "internalType": "uint256",
          "name": "liquidity",
          "type": "uint256"
        },
        {
          "internalType": "uint256",
          "name": "amountTRXMin",
          "type": "uint256"
        },
        {
          "internalType": "uint256",
          "name": "amountCHIPMin",
          "type": "uint256"
        },
        {
          "internalType": "address",
          "name": "to",
          "type": "address"
        },
        {
          "internalType": "uint256",
          "name": "deadline",
          "type": "uint256"
        }
      ],
      "name": "removeLiquidity",
      "outputs": [
        {
          "internalType": "uint256",
          "name": "amountTRX",
          "type": "uint256"
        },
        {
          "internalType": "uint256",
          "name": "amountCHIP",
          "type": "uint256"
        }
      ],
      "stateMutability": "nonpayable",
      "type": "function"
    },
    {
      "inputs": [
        {
          "internalType": "address",
          "name": "_pool",
          "type": "address"
        }
      ],
      "name": "setPool",
      "outputs": [],
      "stateMutability": "nonpayable",
      "type": "function"
    },
    {
      "inputs": [
        {
          "internalType": "address",
          "name": "_token",
          "type": "address"
        }
      ],
      "name": "setToken",
      "outputs": [],
      "stateMutability": "nonpayable",
      "type": "function"
    },
    {
      "inputs": [
        {
          "internalType": "uint256",
          "name": "amountIn",
          "type": "uint256"
        },
        {
          "internalType": "uint256",
          "name": "amountOutMin",
          "type": "uint256"
        },
        {
          "internalType": "address",
          "name": "to",
          "type": "address"
        },
        {
          "internalType": "uint256",
          "name": "deadline",
          "type": "uint256"
        }
      ],
      "name": "swapCHIPForTRX",
      "outputs": [
        {
          "internalType": "uint256",
          "name": "amountOut",
          "type": "uint256"
        }
      ],
      "stateMutability": "nonpayable",
      "type": "function"
    },
    {
      "inputs": [
        {
          "internalType": "uint256",
          "name": "amountOutMin",
          "type": "uint256"
        },
        {
          "internalType": "address",
          "name": "to",
          "type": "address"
        },
        {
          "internalType": "uint256",
          "name": "deadline",
          "type": "uint256"
        }
      ],
      "name": "swapTRXForCHIP",
      "outputs": [
        {
          "internalType": "uint256",
          "name": "amountOut",
          "type": "uint256"
        }
      ],
      "stateMutability": "payable",
      "type": "function"
    },
    {
      "inputs": [],
      "name": "token",
      "outputs": [
        {
          "internalType": "address",
          "name": "",
          "type": "address"
        }
      ],
      "stateMutability": "view",
      "type": "function"
    },
    {
      "inputs": [
        {
          "internalType": "address",
          "name": "newOwner",
          "type": "address"
        }
      ],
      "name": "transferOwnership",
      "outputs": [],
      "stateMutability": "nonpayable",
      "type": "function"
    },
    {
      "stateMutability": "payable",
      "type": "receive"
    }
  ],
  "bytecode": "0x608034609157601f6113b838819003918201601f19168301916001600160401b038311848410176095578084926040948552833981010312609157604b602060458360a9565b920160a9565b60038054336001600160a01b031991821617909155600180546001600160a01b03948516908316179055600280549290931691161790556040516112fb90816100bd8239f35b5f80fd5b634e487b7160e01b5f52604160045260245ffd5b51906001600160a01b038216820360915756fe6080604052600436101561001a575b3615610018575f80fd5b005b5f5f3560e01c8063144fa6d714610ea957806316f0115b14610e815780634437152a14610e2357806360246c8814610d2a578063859d21f414610b385780638ac29bbe14610ae05780638da5cb5b14610ab7578063c45a015514610a90578063c4dbea9514610683578063c768f723146104f2578063d2e7b978146103cf578063e30c8f5414610333578063ed856cdc1461014d578063f2fde38b146100f55763fc0c546a146100ca575061000e565b346100f257806003193601126100f2576002546040516001600160a01b039091168152602090f35b80fd5b50346100f25760203660031901126100f25761010f610f07565b60035490610127336001600160a01b03841614610f4f565b6001600160a01b03169061013c821515610f92565b6001600160a01b0319161760035580f35b50346100f25761016e61015f36610f1d565b9593929194909542111561102f565b81156102e4576001546040516323b872dd60e01b81523360048201526001600160a01b0390911660248201819052604482018490526020908290606490829088905af180156102ac57956040918596976102b7575b50600154825163226bf2d160e21b81526001600160a01b039283166004820152958692602492849291165af19283156102ac5784809461026b575b505060409461021261021a92861015611145565b83101561107b565b7f1dc8bb69df2b8e91fbdcbfcf93d951b3f0000f085a95fe3f7946d6161439245d84518061025c33948688846040919493926060820195825260208201520152565b0390a282519182526020820152f35b91935093506040843d6040116102a4575b8161028960409383610fde565b810103126100f25750825160209093015191846102126101fe565b3d915061027c565b6040513d86823e3d90fd5b6102d89060203d6020116102dd575b6102d08183610fde565b81019061112d565b6101c3565b503d6102c6565b60405162461bcd60e51b815260206004820152602160248201527f414d4d526f757465723a20696e73756666696369656e74206c697175696469746044820152607960f81b6064820152608490fd5b50346100f25760203660031901126100f25760015460405163e263821160e01b815260048035908201529190602090839060249082906001600160a01b03165afa9081156103c3579061038c575b602090604051908152f35b506020813d6020116103bb575b816103a660209383610fde565b810103126103b75760209051610381565b5f80fd5b3d9150610399565b604051903d90823e3d90fd5b50346100f25760403660031901126100f25760043560243580151581036104ee57600154604051630240bc6b60e21b81529190606090839060049082906001600160a01b03165afa9081156102ac57849285926104b9575b5015610481575061043981151561126c565b612710820292828404612710148315171561046d57509161045f610465926020946112b8565b906111c3565b604051908152f35b634e487b7160e01b81526011600452602490fd5b905061048e81151561126c565b612710820292828404612710148315171561046d57509161045f6104b4926020946112b8565b610465565b9092506104de915060603d6060116104e7575b6104d68183610fde565b810190611014565b5090915f610427565b503d6104cc565b8280fd5b5060603660031901126100f2576024356001600160a01b0381169081900361063b5761052260443542111561102f565b61052d341515611145565b60015460405163e263821160e01b81523460048201529183916001600160a01b0316602084602481845afa93841561063f57839461064a575b508280808061058f9461057d6004358a10156110d3565b34905af16105896111e1565b50611220565b6001546001600160a01b0316803b156104ee5760a48392604051948593849263022c0d9f60e01b84528260048501528860248501526044840152608060648401528160848401525af1801561063f57610626575b6020826040516001815234838201528160408201527fe467d5fa0f4dfdac4bf57d810740981998c5a70ea754dad39a1db51b4196948a60603392a2604051908152f35b610631838092610fde565b61063b57816105e3565b5080fd5b6040513d85823e3d90fd5b925092506020823d60201161067b575b8161066760209383610fde565b810103126103b75790519183919082610566565b3d915061065a565b600461069f8361069236610f1d565b969395909642111561102f565b6106aa341515611145565b6106b585151561107b565b600154604051630240bc6b60e21b81529360609185919082906001600160a01b03165afa80156102ac5784938591610a6a575b50831580610a62575b156109b857505050503491925b6002546040516323b872dd60e01b815233600482015230602482015260448101869052906020908290606490829087906001600160a01b03165af1801561063f5761099b575b5060025460015460405163095ea7b360e01b81526001600160a01b0391821660048201526024810187905291602091839160449183918891165af1801561063f5761097e575b506107a8828080808760018060a01b03600154165af16105896111e1565b60025460015460405163a9059cbb60e01b81526001600160a01b0391821660048201526024810187905291602091839160449183918891165af1801561063f57916020918493610963575b506001546040516335313c2160e11b81526001600160a01b039283166004820152948592602492849291165af1918215610956578192610922575b508234116108a4575b506108a0906040517f64b83944e79c3ce8d4c297411de637c3e102d064677aac0c163976ebdcd6f50e339180610880858989846040919493926060820195825260208201520152565b0390a2604051938493846040919493926060820195825260208201520152565b0390f35b82340334811161090e5781808092335af16108bd6111e1565b50156108c95783610837565b60405162461bcd60e51b815260206004820152601c60248201527f414d4d526f757465723a2054525820726566756e64206661696c6564000000006044820152606490fd5b634e487b7160e01b82526011600452602482fd5b9091506020813d60201161094e575b8161093e60209383610fde565b810103126103b75751908461082e565b3d9150610931565b50604051903d90823e3d90fd5b61097990833d85116102dd576102d08183610fde565b6107f3565b6109969060203d6020116102dd576102d08183610fde565b61078a565b6109b39060203d6020116102dd576102d08183610fde565b610744565b6109cf846109ca83989596983461119c565b6111c3565b958387116109ef57505050506109e79083101561107b565b3491926106fe565b83610a029497506109ca9293955061119c565b90348211610a1d57610a1690821015611145565b91926106fe565b60405162461bcd60e51b815260206004820152601f60248201527f414d4d526f757465723a206578636573736976652054525820616d6f756e74006044820152606490fd5b5080156106f1565b9050610a8691935060603d6060116104e7576104d68183610fde565b50929092876106e8565b50346100f257806003193601126100f257546040516001600160a01b039091168152602090f35b50346100f257806003193601126100f2576003546040516001600160a01b039091168152602090f35b50346100f25760203660031901126100f257600154604051634a35bd4960e11b815260048035908201529190602090839060249082906001600160a01b03165afa9081156103c3579061038c57602090604051908152f35b50346103b75760803660031901126103b7576044356001600160a01b03811691600435918390036103b757610b7160643542111561102f565b610b7c82151561107b565b600154604051634a35bd4960e11b81526004810184905292906001600160a01b0316602084602481845afa938415610ccd575f94610cf5575b50602082610c0e92610bcb6024358810156110d3565b6002546040516323b872dd60e01b81523360048201526001600160a01b0392831660248201526044810193909352919384929091169082905f9082906064820190565b03925af18015610ccd57610cd8575b506001546001600160a01b031693843b156103b7575f9460a48692604051978893849263022c0d9f60e01b84528960048501528260248501526044840152608060648401528160848401525af1938415610ccd57602094610cb8575b50604051918252838201528160408201527fe467d5fa0f4dfdac4bf57d810740981998c5a70ea754dad39a1db51b4196948a60603392a2604051908152f35b610cc59192505f90610fde565b5f905f610c79565b6040513d5f823e3d90fd5b610cf09060203d6020116102dd576102d08183610fde565b610c1d565b9093506020813d602011610d22575b81610d1160209383610fde565b810103126103b75751926020610bb5565b3d9150610d04565b346103b7575f3660031901126103b757600154604051630240bc6b60e21b81525f916001600160a01b0316606082600481845afa928315610ccd575f925f94610dfb575b5082610d97575b6108a09150604051938493846040919493926060820195825260208201520152565b506020600491604051928380926375c8e9bf60e11b82525afa8015610ccd575f90610dc7575b6108a09150610d75565b506020813d602011610df3575b81610de160209383610fde565b810103126103b7576108a09051610dbd565b3d9150610dd4565b909350610e1891925060603d6060116104e7576104d68183610fde565b509190919284610d6e565b346103b75760203660031901126103b757610e3c610f07565b610e5160018060a01b03600354163314610f4f565b6001600160a01b0316610e65811515610f92565b6bffffffffffffffffffffffff60a01b60015416176001555f80f35b346103b7575f3660031901126103b7576001546040516001600160a01b039091168152602090f35b346103b75760203660031901126103b757610ec2610f07565b610ed760018060a01b03600354163314610f4f565b6001600160a01b0316610eeb811515610f92565b6bffffffffffffffffffffffff60a01b60025416176002555f80f35b600435906001600160a01b03821682036103b757565b60a09060031901126103b7576004359060243590604435906064356001600160a01b03811681036103b7579060843590565b15610f5657565b60405162461bcd60e51b815260206004820152601460248201527320a6a6a937baba32b91d103737ba1037bbb732b960611b6044820152606490fd5b15610f9957565b60405162461bcd60e51b815260206004820152601760248201527f414d4d526f757465723a207a65726f20616464726573730000000000000000006044820152606490fd5b90601f8019910116810190811067ffffffffffffffff82111761100057604052565b634e487b7160e01b5f52604160045260245ffd5b908160609103126103b7578051916040602083015192015190565b1561103657565b60405162461bcd60e51b815260206004820152601b60248201527f414d4d526f757465723a206578706972656420646561646c696e6500000000006044820152606490fd5b1561108257565b60405162461bcd60e51b815260206004820152602360248201527f414d4d526f757465723a20696e73756666696369656e74204348495020616d6f6044820152621d5b9d60ea1b6064820152608490fd5b156110da57565b60405162461bcd60e51b815260206004820152602560248201527f414d4d526f757465723a20696e73756666696369656e74206f757470757420616044820152641b5bdd5b9d60da1b6064820152608490fd5b908160209103126103b7575180151581036103b75790565b1561114c57565b60405162461bcd60e51b815260206004820152602260248201527f414d4d526f757465723a20696e73756666696369656e742054525820616d6f756044820152611b9d60f21b6064820152608490fd5b818102929181159184041417156111af57565b634e487b7160e01b5f52601160045260245ffd5b81156111cd570490565b634e487b7160e01b5f52601260045260245ffd5b3d1561121b573d9067ffffffffffffffff82116110005760405191611210601f8201601f191660200184610fde565b82523d5f602084013e565b606090565b1561122757565b60405162461bcd60e51b815260206004820152601e60248201527f414d4d526f757465723a20545258207472616e73666572206661696c656400006044820152606490fd5b1561127357565b60405162461bcd60e51b815260206004820152601760248201527f414d4d526f757465723a206e6f206c69717569646974790000000000000000006044820152606490fd5b919082018092116111af5756fea2646970667358221220b7a9b2c37fc49004715fa85677f48467c937f1a674b969d0bfdbcc0d37029a1a64736f6c634300081b0033",
  "linkReferences": {},
  "deployedLinkReferences": {}
}