{
  "_format": "hh-sol-artifact-1",
  "contractName": "Governance",
  "sourceName": "contracts/Governance.sol",
  "abi": [
    {
      "inputs": [
        {
          "internalType": "address",
          "name": "_chipToken",
          "type": "address"
        },
        {
          "internalType": "uint256",
          "name": "_votingPeriod",
          "type": "uint256"
        },
        {
          "internalType": "uint256",
          "name": "_proposalThreshold",
          "type": "uint256"
        },
        {
          "internalType": "uint256",
          "name": "_quorumNumerator",
          "type": "uint256"
        }
      ],
      "stateMutability": "nonpayable",
      "type": "constructor"
    },
    {
      "anonymous": false,
      "inputs": [
        {
          "indexed": true,
          "internalType": "address",
          "name": "previousOwner",
          "type": "address"
        },
        {
          "indexed": true,
          "internalType": "address",
          "name": "newOwner",
          "type": "address"
        }
      ],
      "name": "OwnershipTransferred",
      "type": "event"
    },
    {
      "anonymous": false,
      "inputs": [
        {
          "indexed": false,
          "internalType": "address",
          "name": "account",
          "type": "address"
        }
      ],
      "name": "Paused",
      "type": "event"
    },
    {
      "anonymous": false,
      "inputs": [
        {
          "indexed": true,
          "internalType": "uint256",
          "name": "proposalId",
          "type": "uint256"
        },
        {
          "indexed": true,
          "internalType": "address",
          "name": "proposer",
          "type": "address"
        },
        {
          "indexed": false,
          "internalType": "address",
          "name": "target",
          "type": "address"
        },
        {
          "indexed": false,
          "internalType": "string",
          "name": "description",
          "type": "string"
        }
      ],
      "name": "ProposalCreated",
      "type": "event"
    },
    {
      "anonymous": false,
      "inputs": [
        {
          "indexed": true,
          "internalType": "uint256",
          "name": "proposalId",
          "type": "uint256"
        },
        {
          "indexed": false,
          "internalType": "bool",
          "name": "success",
          "type": "bool"
        }
      ],
      "name": "ProposalExecuted",
      "type": "event"
    },
    {
      "anonymous": false,
      "inputs": [
        {
          "indexed": true,
          "internalType": "uint256",
          "name": "proposalId",
          "type": "uint256"
        },
        {
          "indexed": false,
          "internalType": "enum Governance.ProposalState",
          "name": "newState",
          "type": "uint8"
        }
      ],
      "name": "ProposalStateChanged",
      "type": "event"
    },
    {
      "anonymous": false,
      "inputs": [
        {
          "indexed": false,
          "internalType": "uint256",
          "name": "newThreshold",
          "type": "uint256"
        }
      ],
      "name": "ProposalThresholdUpdated",
      "type": "event"
    },
    {
      "anonymous": false,
      "inputs": [
        {
          "indexed": false,
          "internalType": "address",
          "name": "account",
          "type": "address"
        }
      ],
      "name": "Unpaused",
      "type": "event"
    },
    {
      "anonymous": false,
      "inputs": [
        {
          "indexed": true,
          "internalType": "uint256",
          "name": "proposalId",
          "type": "uint256"
        },
        {
          "indexed": true,
          "internalType": "address",
          "name": "voter",
          "type": "address"
        },
        {
          "indexed": false,
          "internalType": "uint8",
          "name": "support",
          "type": "uint8"
        },
        {
          "indexed": false,
          "internalType": "uint256",
          "name": "weight",
          "type": "uint256"
        }
      ],
      "name": "VoteCast",
      "type": "event"
    },
    {
      "anonymous": false,
      "inputs": [
        {
          "indexed": false,
          "internalType": "uint256",
          "name": "newPeriod",
          "type": "uint256"
        }
      ],
      "name": "VotingPeriodUpdated",
      "type": "event"
    },
    {
      "stateMutability": "payable",
      "type": "fallback"
    },
    {
      "inputs": [
        {
          "internalType": "uint256",
          "name": "proposalId",
          "type": "uint256"
        },
        {
          "internalType": "uint8",
          "name": "support",
          "type": "uint8"
        }
      ],
      "name": "castVote",
      "outputs": [],
      "stateMutability": "nonpayable",
      "type": "function"
    },
    {
      "inputs": [],
      "name": "chipToken",
      "outputs": [
        {
          "internalType": "contract IERC20",
          "name": "",
          "type": "address"
        }
      ],
      "stateMutability": "view",
      "type": "function"
    },
    {
      "inputs": [
        {
          "internalType": "address",
          "name": "target",
          "type": "address"
        },
        {
          "internalType": "bytes",
          "name": "callData",
          "type": "bytes"
        },
        {
          "internalType": "string",
          "name": "description",
          "type": "string"
        }
      ],
      "name": "createProposal",
      "outputs": [
        {
          "internalType": "uint256",
          "name": "",
          "type": "uint256"
        }
      ],
      "stateMutability": "nonpayable",
      "type": "function"
    },
    {
      "inputs": [
        {
          "internalType": "uint256",
          "name": "proposalId",
          "type": "uint256"
        }
      ],
      "name": "executeProposal",
      "outputs": [
        {
          "internalType": "bool",
          "name": "",
          "type": "bool"
        }
      ],
      "stateMutability": "nonpayable",
      "type": "function"
    },
    {
      "inputs": [],
      "name": "getActiveProposals",
      "outputs": [
        {
          "internalType": "uint256[]",
          "name": "",
          "type": "uint256[]"
        }
      ],
      "stateMutability": "view",
      "type": "function"
    },
    {
      "inputs": [
        {
          "internalType": "uint256",
          "name": "proposalId",
          "type": "uint256"
        }
      ],
      "name": "getProposal",
      "outputs": [
        {
          "internalType": "uint256",
          "name": "id",
          "type": "uint256"
        },
        {
          "internalType": "address",
          "name": "proposer",
          "type": "address"
        },
        {
          "internalType": "address",
          "name": "target",
          "type": "address"
        },
        {
          "internalType": "string",
          "name": "description",
          "type": "string"
        },
        {
          "internalType": "uint256",
          "name": "forVotes",
          "type": "uint256"
        },
        {
          "internalType": "uint256",
          "name": "againstVotes",
          "type": "uint256"
        },
        {
          "internalType": "uint256",
          "name": "abstainVotes",
          "type": "uint256"
        },
        {
          "internalType": "enum Governance.ProposalState",
          "name": "state",
          "type": "uint8"
        },
        {
          "internalType": "bool",
          "name": "executed",
          "type": "bool"
        }
      ],
      "stateMutability": "view",
      "type": "function"
    },
    {
      "inputs": [
        {
          "internalType": "uint256",
          "name": "proposalId",
          "type": "uint256"
        }
      ],
      "name": "getProposalState",
      "outputs": [
        {
          "internalType": "enum Governance.ProposalState",
          "name": "",
          "type": "uint8"
        }
      ],
      "stateMutability": "view",
      "type": "function"
    },
    {
      "inputs": [
        {
          "internalType": "uint256",
          "name": "proposalId",
          "type": "uint256"
        },
        {
          "internalType": "address",
          "name": "voter",
          "type": "address"
        }
      ],
      "name": "getVote",
      "outputs": [
        {
          "internalType": "bool",
          "name": "",
          "type": "bool"
        },
        {
          "internalType": "uint256",
          "name": "",
          "type": "uint256"
        }
      ],
      "stateMutability": "view",
      "type": "function"
    },
    {
      "inputs": [
        {
          "internalType": "uint256",
          "name": "",
          "type": "uint256"
        },
        {
          "internalType": "address",
          "name": "",
          "type": "address"
        }
      ],
      "name": "hasVoted",
      "outputs": [
        {
          "internalType": "bool",
          "name": "",
          "type": "bool"
        }
      ],
      "stateMutability": "view",
      "type": "function"
    },
    {
      "inputs": [],
      "name": "owner",
      "outputs": [
        {
          "internalType": "address",
          "name": "",
          "type": "address"
        }
      ],
      "stateMutability": "view",
      "type": "function"
    },
    {
      "inputs": [],
      "name": "pause",
      "outputs": [],
      "stateMutability": "nonpayable",
      "type": "function"
    },
    {
      "inputs": [],
      "name": "paused",
      "outputs": [
        {
          "internalType": "bool",
          "name": "",
          "type": "bool"
        }
      ],
      "stateMutability": "view",
      "type": "function"
    },
    {
      "inputs": [],
      "name": "proposalCount",
      "outputs": [
        {
          "internalType": "uint256",
          "name": "",
          "type": "uint256"
        }
      ],
      "stateMutability": "view",
      "type": "function"
    },
    {
      "inputs": [],
      "name": "proposalThreshold",
      "outputs": [
        {
          "internalType": "uint256",
          "name": "",
          "type": "uint256"
        }
      ],
      "stateMutability": "view",
      "type": "function"
    },
    {
      "inputs": [
        {
          "internalType": "uint256",
          "name": "",
          "type": "uint256"
        }
      ],
      "name": "proposals",
      "outputs": [
        {
          "internalType": "uint256",
          "name": "id",
          "type": "uint256"
        },
        {
          "internalType": "address",
          "name": "proposer",
          "type": "address"
        },
        {
          "internalType": "address",
          "name": "target",
          "type": "address"
        },
        {
          "internalType": "bytes",
          "name": "callData",
          "type": "bytes"
        },
        {
          "internalType": "uint256",
          "name": "startBlock",
          "type": "uint256"
        },
        {
          "internalType": "uint256",
          "name": "endBlock",
          "type": "uint256"
        },
        {
          "internalType": "uint256",
          "name": "forVotes",
          "type": "uint256"
        },
        {
          "internalType": "uint256",
          "name": "againstVotes",
          "type": "uint256"
        },
        {
          "internalType": "uint256",
          "name": "abstainVotes",
          "type": "uint256"
        },
        {
          "internalType": "uint256",
          "name": "quorumVotes",
          "type": "uint256"
        },
        {
          "internalType": "bool",
          "name": "executed",
          "type": "bool"
        },
        {
          "internalType": "string",
          "name": "description",
          "type": "string"
        },
        {
          "internalType": "enum Governance.ProposalState",
          "name": "state",
          "type": "uint8"
        }
      ],
      "stateMutability": "view",
      "type": "function"
    },
    {
      "inputs": [],
      "name": "quorum",
      "outputs": [
        {
          "internalType": "uint256",
          "name": "",
          "type": "uint256"
        }
      ],
      "stateMutability": "view",
      "type": "function"
    },
    {
      "inputs": [],
      "name": "quorumNumerator",
      "outputs": [
        {
          "internalType": "uint256",
          "name": "",
          "type": "uint256"
        }
      ],
      "stateMutability": "view",
      "type": "function"
    },
    {
      "inputs": [],
      "name": "renounceOwnership",
      "outputs": [],
      "stateMutability": "nonpayable",
      "type": "function"
    },
    {
      "inputs": [
        {
          "internalType": "uint256",
          "name": "_threshold",
          "type": "uint256"
        }
      ],
      "name": "setProposalThreshold",
      "outputs": [],
      "stateMutability": "nonpayable",
      "type": "function"
    },
    {
      "inputs": [
        {
          "internalType": "uint256",
          "name": "_quorumNumerator",
          "type": "uint256"
        }
      ],
      "name": "setQuorumNumerator",
      "outputs": [],
      "stateMutability": "nonpayable",
      "type": "function"
    },
    {
      "inputs": [
        {
          "internalType": "uint256",
          "name": "_votingPeriod",
          "type": "uint256"
        }
      ],
      "name": "setVotingPeriod",
      "outputs": [],
      "stateMutability": "nonpayable",
      "type": "function"
    },
    {
      "inputs": [
        {
          "internalType": "address",
          "name": "newOwner",
          "type": "address"
        }
      ],
      "name": "transferOwnership",
      "outputs": [],
      "stateMutability": "nonpayable",
      "type": "function"
    },
    {
      "inputs": [],
      "name": "unpause",
      "outputs": [],
      "stateMutability": "nonpayable",
      "type": "function"
    },
    {
      "inputs": [
        {
          "internalType": "uint256",
          "name": "proposalId",
          "type": "uint256"
        }
      ],
      "name": "updateProposalState",
      "outputs": [],
      "stateMutability": "nonpayable",
      "type": "function"
    },
    {
      "inputs": [
        {
          "internalType": "uint256",
          "name": "",
          "type": "uint256"
        },
        {
          "internalType": "address",
          "name": "",
          "type": "address"
        }
      ],
      "name": "votes",
      "outputs": [
        {
          "internalType": "uint256",
          "name": "",
          "type": "uint256"
        }
      ],
      "stateMutability": "view",
      "type": "function"
    },
    {
      "inputs": [],
      "name": "votingPeriod",
      "outputs": [
        {
          "internalType": "uint256",
          "name": "",
          "type": "uint256"
        }
      ],
      "stateMutability": "view",
      "type": "function"
    },
    {
      "stateMutability": "payable",
      "type": "receive"
    }
  ],
  "bytecode": "0x60803461012157601f611a8738819003918201601f19168301916001600160401b03831184841017610125578084926080946040528339810103126101215780516001600160a01b038116919082900361012157602081015160606040830151920151925f54604051903360018060a01b0382167f8be0079c531659141344cd1fd0a4f28419497f9722a3daafe3b4186f6b6457e05f80a36001600160a81b0319163360ff60a01b1916175f5581156100df5750600180546001600160a01b03191691909117905560025560035560045560405161194d908161013a8239f35b62461bcd60e51b815260206004820152601960248201527f476f7665726e616e63653a20696e76616c696420746f6b656e000000000000006044820152606490fd5b5f80fd5b634e487b7160e01b5f52604160045260245ffdfe6080806040526004361015610011575b005b5f3560e01c908163013cf08b146112ab5750806302a251a31461128e5780630d61b5191461105b5780631703a01814610fc85780633b61403c14610fa05780633f4ba83a14610f075780634385963214610ebe5780635584c4f914610de75780635678138814610b195780635c975abb14610af557806364bd0cb2146106655780636ac600c714610649578063715018a6146105f2578063737594ce146105835780638456cb59146105235780638da5cb5b146104fc5780639080936f146104cf578063a7713a70146104b2578063b58131b014610495578063bc3f931f1461042c578063c7f758a81461035f578063d23254b41461031b578063da35c664146102fe578063ea0217cf1461024d578063ece40cc1146102015763f2fde38b1461013757005b346101fd5760203660031901126101fd576101506114ec565b61015861169e565b6001600160a01b031680156101a9575f80546001600160a01b03198116831782556001600160a01b0316907f8be0079c531659141344cd1fd0a4f28419497f9722a3daafe3b4186f6b6457e09080a3005b60405162461bcd60e51b815260206004820152602660248201527f4f776e61626c653a206e6577206f776e657220697320746865207a65726f206160448201526564647265737360d01b6064820152608490fd5b5f80fd5b346101fd5760203660031901126101fd577f75176781f69c55e26fee85d480452b0b9038b9428704bb7b232fc1c638bbf803602060043561024061169e565b80600355604051908152a1005b346101fd5760203660031901126101fd5760043561026961169e565b62015180811015806102f1575b156102ac576020817f651c77f42613a075437aa794c44471e3abc3a661956a67aaee165bb7396974aa92600255604051908152a1005b60405162461bcd60e51b815260206004820152601a60248201527f476f7665726e616e63653a20696e76616c696420706572696f640000000000006044820152606490fd5b5062127500811115610276565b346101fd575f3660031901126101fd576020600554604051908152f35b346101fd5760403660031901126101fd576103346114d6565b6004355f52600860205260405f209060018060a01b03165f52602052602060405f2054604051908152f35b346101fd5760203660031901126101fd576004355f52600660205260405f20805460018060a01b036001830154169160018060a01b03600282015416906104206006820154926007830154600884015490610406600b60ff600c88015416946103e160ff600a8a015416986103da6040518095819301611402565b0383611483565b6040519a8b9a8b5260208b015260408a015261012060608a01526101208901906114a5565b95608088015260a087015260c086015260e08501906114c9565b15156101008301520390f35b346101fd5760403660031901126101fd57604060043561044a6114d6565b815f526007602052825f2060018060a01b0382165f5260205260ff835f205416915f526008602052825f209060018060a01b03165f52602052815f2054825191151582526020820152f35b346101fd575f3660031901126101fd576020600354604051908152f35b346101fd575f3660031901126101fd576020600454604051908152f35b346101fd5760203660031901126101fd5760206104ed600435611603565b6104fa60405180926114c9565bf35b346101fd575f3660031901126101fd575f546040516001600160a01b039091168152602090f35b346101fd575f3660031901126101fd5761053b61169e565b610543611658565b5f805460ff60a01b1916600160a01b1790556040513381527f62e78cea01bee320cd4e420270b5ea74000d11b0c9f74754ebdbfc544b05a25890602090a1005b346101fd5760203660031901126101fd5760043561059f61169e565b6101f481116105ad57600455005b60405162461bcd60e51b815260206004820152601b60248201527f476f7665726e616e63653a2071756f72756d20746f6f206869676800000000006044820152606490fd5b346101fd575f3660031901126101fd5761060a61169e565b5f80546001600160a01b0319811682556001600160a01b03167f8be0079c531659141344cd1fd0a4f28419497f9722a3daafe3b4186f6b6457e08280a3005b346101fd5760203660031901126101fd5761000f6004356116f5565b346101fd5760603660031901126101fd5761067e6114ec565b60243567ffffffffffffffff81116101fd5761069e903690600401611502565b9160443567ffffffffffffffff81116101fd576106bf903690600401611502565b916106c8611658565b6001600160a01b0316938415610ab0576001546040516370a0823160e01b815233600482015290602090829060249082906001600160a01b03165afa908115610929575f91610a7e575b5060035411610a39576005545f198114610a2557600190810160058190555f81815260066020526040902081815591820180546001600160a01b0319908116331790915560028301805490911688179055949091600383019167ffffffffffffffff82116109a25761078e8261078885546113ca565b856115b4565b5f90601f83116001146109c1576107bc92915f91836109b6575b50508160011b915f199060031b1c19161790565b90555b600b810167ffffffffffffffff84116109a2576107e6846107e083546113ca565b836115b4565b5f84601f811160011461093f5780610812925f91610934575b508160011b915f199060031b1c19161790565b90555b43600482015561082a600360025404436115a7565b6005820155600c8101805460ff19166001908117909155546040516318160ddd60e01b815290602090829060049082906001600160a01b03165afa908115610929575f916108f5575b50948385937fbf0fcd54b591a07a1943cf5eaf6fdd64e31bc7b4c469e9ba81fb00e21fd859f59360096103e86108ae60209b6004549061157c565b049101556108bb856118c2565b5060405192835260408884015281604084015260608301375f606085830101526060813395601f80199101168101030190a3604051908152f35b9590506020863d602011610921575b8161091160209383611483565b810103126101fd57945183610873565b3d9150610904565b6040513d5f823e3d90fd5b9050850135896107ff565b50601f19851690825f528560205f20925f5b81811061098757501061096e575b5050600184811b019055610815565b8401355f19600387901b60f8161c19169055868061095f565b87840135855560019094019360209384019389935001610951565b634e487b7160e01b5f52604160045260245ffd5b0135905089806107a8565b601f19831691845f5260205f20925f5b818110610a0d57509084600195949392106109f4575b505050811b0190556107bf565b01355f19600384901b60f8161c191690558880806109e7565b919360206001819287870135815501950192016109d1565b634e487b7160e01b5f52601160045260245ffd5b60405162461bcd60e51b815260206004820152601b60248201527f476f7665726e616e63653a2062656c6f77207468726573686f6c6400000000006044820152606490fd5b90506020813d602011610aa8575b81610a9960209383611483565b810103126101fd575186610712565b3d9150610a8c565b60405162461bcd60e51b815260206004820152601a60248201527f476f7665726e616e63653a20696e76616c6964207461726765740000000000006044820152606490fd5b346101fd575f3660031901126101fd57602060ff5f5460a01c166040519015158152f35b346101fd5760403660031901126101fd576004356024359060ff82168092036101fd57610b44611658565b805f52600660205260405f2091610b5d83541515611530565b60ff600c840154166006811015610dd357600103610d95575f82815260076020908152604080832033845290915290205460ff16610d505760028111610d0b576001546040516370a0823160e01b815233600482015290602090829060249082906001600160a01b03165afa908115610929575f91610cd9575b508015610c94575f83815260076020908152604080832033808552908352818420805460ff1916600117905586845260088352818420908452909152902082905561000f935f198301610c6c57600601610c328282546115a7565b90555b6040519182526020820152817fb83d25c6a5d258561330739951487acb4bd09ba5190b5d32c4f261817d90679260403393a36116f5565b82610c8657600701610c7f8282546115a7565b9055610c35565b600801610c7f8282546115a7565b60405162461bcd60e51b815260206004820152601b60248201527f476f7665726e616e63653a206e6f20766f74696e6720706f77657200000000006044820152606490fd5b90506020813d602011610d03575b81610cf460209383611483565b810103126101fd575184610bd7565b3d9150610ce7565b60405162461bcd60e51b815260206004820152601860248201527f476f7665726e616e63653a20696e76616c696420766f746500000000000000006044820152606490fd5b60405162461bcd60e51b815260206004820152601960248201527f476f7665726e616e63653a20616c726561647920766f746564000000000000006044820152606490fd5b60405162461bcd60e51b8152602060048201526016602482015275476f7665726e616e63653a206e6f742061637469766560501b6044820152606490fd5b634e487b7160e01b5f52602160045260245ffd5b346101fd575f3660031901126101fd57600954610e038161158f565b90610e116040519283611483565b808252610e1d8161158f565b602083019190601f19013683376009545f5b828110610e7a578385604051918291602083019060208452518091526040830191905f5b818110610e61575050500390f35b8251845285945060209384019390920191600101610e53565b81811015610eaa5760095f528060205f200154908551811015610eaa5760019160208260051b8801015201610e2f565b634e487b7160e01b5f52603260045260245ffd5b346101fd5760403660031901126101fd57610ed76114d6565b6004355f52600760205260405f209060018060a01b03165f52602052602060ff60405f2054166040519015158152f35b346101fd575f3660031901126101fd57610f1f61169e565b5f5460ff8160a01c1615610f645760ff60a01b19165f556040513381527f5db9ee0a495bf2e6ff9c91a7834c1ba4fdd244a5e8aa4e537bd38aeae4b073aa90602090a1005b60405162461bcd60e51b815260206004820152601460248201527314185d5cd8589b194e881b9bdd081c185d5cd95960621b6044820152606490fd5b346101fd575f3660031901126101fd576001546040516001600160a01b039091168152602090f35b346101fd575f3660031901126101fd576001546040516318160ddd60e01b815290602090829060049082906001600160a01b03165afa908115610929575f91611027575b60206103e861101e846004549061157c565b04604051908152f35b90506020813d602011611053575b8161104260209383611483565b810103126101fd57516103e861100c565b3d9150611035565b346101fd5760203660031901126101fd57600435611077611658565b805f52600660205260405f2061108f81541515611530565b600c810160ff8154166006811015610dd35760020361124957600a8201805460ff81166112045760ff1990811660011790915581541660041790556110d3826117e7565b50600360018060a01b036002830154169101604051905f908054906110f7826113ca565b91600181169081156111ed57506001146111bb575b505091815f809493819403925af13d156111b3573d9167ffffffffffffffff83116109a25760405160209361114a601f8201601f1916860183611483565b81525f843d92013e5b807f948f4a9cd986f1118c3fbd459f7a22b23c0693e1ca3ef06a6a8be5aa7d39cc038460405194151594858152a27fd6b3a81dd8b7dc419d8d0f20797397ea2eaba914386b89898aa638438803a1ec8360405160048152a2604051908152f35b602091611153565b9091505f5260205f205f905b8282106111d95750508101815f61110c565b6001816020925484870152019101906111c7565b60ff1916855250508015150282019050815f61110c565b60405162461bcd60e51b815260206004820152601c60248201527f476f7665726e616e63653a20616c7265616479206578656375746564000000006044820152606490fd5b60405162461bcd60e51b815260206004820152601960248201527f476f7665726e616e63653a206e6f7420737563636565646564000000000000006044820152606490fd5b346101fd575f3660031901126101fd576020600254604051908152f35b346101fd5760203660031901126101fd576004355f9081526006602052604090208054600182015460028301546001600160a01b03918216949293911691806112f78160038501611402565b036113029082611483565b600482015490600583015460068401546007850154600886015491600987015493600a88015460ff1695604051988980600b83019061134091611402565b0361134b908b611483565b600c015460ff16996040519c8d9c8d5260208d015260408c015260608b016101a090526101a08b0161137c916114a5565b9660808b015260a08a015260c089015260e088015261010087015261012086015215156101408501528381036101608501526113b7916114a5565b9061018083016113c6916114c9565b0390f35b90600182811c921680156113f8575b60208310146113e457565b634e487b7160e01b5f52602260045260245ffd5b91607f16916113d9565b5f9291815491611411836113ca565b8083529260018116908115611466575060011461142d57505050565b5f9081526020812093945091925b83831061144c575060209250010190565b60018160209294939454838587010152019101919061143b565b915050602093945060ff929192191683830152151560051b010190565b90601f8019910116810190811067ffffffffffffffff8211176109a257604052565b805180835260209291819084018484015e5f828201840152601f01601f1916010190565b906006821015610dd35752565b602435906001600160a01b03821682036101fd57565b600435906001600160a01b03821682036101fd57565b9181601f840112156101fd5782359167ffffffffffffffff83116101fd57602083818601950101116101fd57565b1561153757565b60405162461bcd60e51b815260206004820152601e60248201527f476f7665726e616e63653a2070726f706f73616c206e6f7420666f756e6400006044820152606490fd5b81810292918115918404141715610a2557565b67ffffffffffffffff81116109a25760051b60200190565b91908201809211610a2557565b601f82116115c157505050565b5f5260205f20906020601f840160051c830193106115f9575b601f0160051c01905b8181106115ee575050565b5f81556001016115e3565b90915081906115da565b5f52600660205260405f208054156116535760ff600c82015416906006821015610dd35760028214611633575090565b60050154620313808101809111610a2557431161164d5790565b50600590565b505f90565b60ff5f5460a01c1661166657565b60405162461bcd60e51b815260206004820152601060248201526f14185d5cd8589b194e881c185d5cd95960821b6044820152606490fd5b5f546001600160a01b031633036116b157565b606460405162461bcd60e51b815260206004820152602060248201527f4f776e61626c653a2063616c6c6572206973206e6f7420746865206f776e65726044820152fd5b805f52600660205260405f20600c810160ff8154166006811015610dd3576001036117cd57600582015443101561172b57505050565b60ff6020918360067fd6b3a81dd8b7dc419d8d0f20797397ea2eaba914386b89898aa638438803a1ec950154600782015491600961177761176c85856115a7565b6008840154906115a7565b91015411156117a9575050600382198254161781555b611796856117e7565b5054166117a660405180926114c9565ba2565b11156117be576002821982541617815561178d565b6003821982541617815561178d565b505050565b8054821015610eaa575f5260205f2001905f90565b5f818152600a602052604090205480156118bc575f198101818111610a25576009545f19810191908211610a255780820361186e575b505050600954801561185a575f19016118378160096117d2565b8154905f199060031b1b191690556009555f52600a6020525f6040812055600190565b634e487b7160e01b5f52603160045260245ffd5b6118a661187f6118909360096117d2565b90549060031b1c92839260096117d2565b819391549060031b91821b915f19901b19161790565b90555f52600a60205260405f20555f808061181d565b50505f90565b805f52600a60205260405f2054155f1461165357600954680100000000000000008110156109a25761190061189082600185940160095560096117d2565b9055600954905f52600a60205260405f205560019056fea2646970667358221220ace1213995152bdc52120ba808b511fdb0d1c52b529d476a6cde8a8f3b473a5b64736f6c634300081b0033",
  "linkReferences": {},
  "deployedLinkReferences": {}
}