{
  "_format": "hh-sol-artifact-1",
  "contractName": "Governance",
  "sourceName": "contracts/Governance.sol",
  "abi": [
    {
      "inputs": [
        {
          "internalType": "address",
          "name": "_chipToken",
          "type": "address"
        },
        {
          "internalType": "uint256",
          "name": "_votingPeriod",
          "type": "uint256"
        },
        {
          "internalType": "uint256",
          "name": "_proposalThreshold",
          "type": "uint256"
        },
        {
          "internalType": "uint256",
          "name": "_quorumNumerator",
          "type": "uint256"
        }
      ],
      "stateMutability": "nonpayable",
      "type": "constructor"
    },
    {
      "inputs": [],
      "name": "EnforcedPause",
      "type": "error"
    },
    {
      "inputs": [],
      "name": "ExpectedPause",
      "type": "error"
    },
    {
      "inputs": [
        {
          "internalType": "address",
          "name": "owner",
          "type": "address"
        }
      ],
      "name": "OwnableInvalidOwner",
      "type": "error"
    },
    {
      "inputs": [
        {
          "internalType": "address",
          "name": "account",
          "type": "address"
        }
      ],
      "name": "OwnableUnauthorizedAccount",
      "type": "error"
    },
    {
      "anonymous": false,
      "inputs": [
        {
          "indexed": true,
          "internalType": "address",
          "name": "previousOwner",
          "type": "address"
        },
        {
          "indexed": true,
          "internalType": "address",
          "name": "newOwner",
          "type": "address"
        }
      ],
      "name": "OwnershipTransferred",
      "type": "event"
    },
    {
      "anonymous": false,
      "inputs": [
        {
          "indexed": false,
          "internalType": "address",
          "name": "account",
          "type": "address"
        }
      ],
      "name": "Paused",
      "type": "event"
    },
    {
      "anonymous": false,
      "inputs": [
        {
          "indexed": true,
          "internalType": "uint256",
          "name": "proposalId",
          "type": "uint256"
        },
        {
          "indexed": true,
          "internalType": "address",
          "name": "proposer",
          "type": "address"
        },
        {
          "indexed": false,
          "internalType": "address",
          "name": "target",
          "type": "address"
        },
        {
          "indexed": false,
          "internalType": "string",
          "name": "description",
          "type": "string"
        }
      ],
      "name": "ProposalCreated",
      "type": "event"
    },
    {
      "anonymous": false,
      "inputs": [
        {
          "indexed": true,
          "internalType": "uint256",
          "name": "proposalId",
          "type": "uint256"
        },
        {
          "indexed": false,
          "internalType": "bool",
          "name": "success",
          "type": "bool"
        }
      ],
      "name": "ProposalExecuted",
      "type": "event"
    },
    {
      "anonymous": false,
      "inputs": [
        {
          "indexed": true,
          "internalType": "uint256",
          "name": "proposalId",
          "type": "uint256"
        },
        {
          "indexed": false,
          "internalType": "enum Governance.ProposalState",
          "name": "newState",
          "type": "uint8"
        }
      ],
      "name": "ProposalStateChanged",
      "type": "event"
    },
    {
      "anonymous": false,
      "inputs": [
        {
          "indexed": false,
          "internalType": "uint256",
          "name": "newThreshold",
          "type": "uint256"
        }
      ],
      "name": "ProposalThresholdUpdated",
      "type": "event"
    },
    {
      "anonymous": false,
      "inputs": [
        {
          "indexed": false,
          "internalType": "address",
          "name": "account",
          "type": "address"
        }
      ],
      "name": "Unpaused",
      "type": "event"
    },
    {
      "anonymous": false,
      "inputs": [
        {
          "indexed": true,
          "internalType": "uint256",
          "name": "proposalId",
          "type": "uint256"
        },
        {
          "indexed": true,
          "internalType": "address",
          "name": "voter",
          "type": "address"
        },
        {
          "indexed": false,
          "internalType": "uint8",
          "name": "support",
          "type": "uint8"
        },
        {
          "indexed": false,
          "internalType": "uint256",
          "name": "weight",
          "type": "uint256"
        }
      ],
      "name": "VoteCast",
      "type": "event"
    },
    {
      "anonymous": false,
      "inputs": [
        {
          "indexed": false,
          "internalType": "uint256",
          "name": "newPeriod",
          "type": "uint256"
        }
      ],
      "name": "VotingPeriodUpdated",
      "type": "event"
    },
    {
      "stateMutability": "payable",
      "type": "fallback"
    },
    {
      "inputs": [
        {
          "internalType": "uint256",
          "name": "proposalId",
          "type": "uint256"
        },
        {
          "internalType": "uint8",
          "name": "support",
          "type": "uint8"
        }
      ],
      "name": "castVote",
      "outputs": [],
      "stateMutability": "nonpayable",
      "type": "function"
    },
    {
      "inputs": [],
      "name": "chipToken",
      "outputs": [
        {
          "internalType": "contract IERC20",
          "name": "",
          "type": "address"
        }
      ],
      "stateMutability": "view",
      "type": "function"
    },
    {
      "inputs": [
        {
          "internalType": "address",
          "name": "target",
          "type": "address"
        },
        {
          "internalType": "bytes",
          "name": "callData",
          "type": "bytes"
        },
        {
          "internalType": "string",
          "name": "description",
          "type": "string"
        }
      ],
      "name": "createProposal",
      "outputs": [
        {
          "internalType": "uint256",
          "name": "",
          "type": "uint256"
        }
      ],
      "stateMutability": "nonpayable",
      "type": "function"
    },
    {
      "inputs": [
        {
          "internalType": "uint256",
          "name": "proposalId",
          "type": "uint256"
        }
      ],
      "name": "executeProposal",
      "outputs": [
        {
          "internalType": "bool",
          "name": "",
          "type": "bool"
        }
      ],
      "stateMutability": "nonpayable",
      "type": "function"
    },
    {
      "inputs": [],
      "name": "getActiveProposals",
      "outputs": [
        {
          "internalType": "uint256[]",
          "name": "",
          "type": "uint256[]"
        }
      ],
      "stateMutability": "view",
      "type": "function"
    },
    {
      "inputs": [
        {
          "internalType": "uint256",
          "name": "proposalId",
          "type": "uint256"
        }
      ],
      "name": "getProposal",
      "outputs": [
        {
          "internalType": "uint256",
          "name": "id",
          "type": "uint256"
        },
        {
          "internalType": "address",
          "name": "proposer",
          "type": "address"
        },
        {
          "internalType": "address",
          "name": "target",
          "type": "address"
        },
        {
          "internalType": "string",
          "name": "description",
          "type": "string"
        },
        {
          "internalType": "uint256",
          "name": "forVotes",
          "type": "uint256"
        },
        {
          "internalType": "uint256",
          "name": "againstVotes",
          "type": "uint256"
        },
        {
          "internalType": "uint256",
          "name": "abstainVotes",
          "type": "uint256"
        },
        {
          "internalType": "enum Governance.ProposalState",
          "name": "state",
          "type": "uint8"
        },
        {
          "internalType": "bool",
          "name": "executed",
          "type": "bool"
        }
      ],
      "stateMutability": "view",
      "type": "function"
    },
    {
      "inputs": [
        {
          "internalType": "uint256",
          "name": "proposalId",
          "type": "uint256"
        }
      ],
      "name": "getProposalState",
      "outputs": [
        {
          "internalType": "enum Governance.ProposalState",
          "name": "",
          "type": "uint8"
        }
      ],
      "stateMutability": "view",
      "type": "function"
    },
    {
      "inputs": [
        {
          "internalType": "uint256",
          "name": "proposalId",
          "type": "uint256"
        },
        {
          "internalType": "address",
          "name": "voter",
          "type": "address"
        }
      ],
      "name": "getVote",
      "outputs": [
        {
          "internalType": "bool",
          "name": "",
          "type": "bool"
        },
        {
          "internalType": "uint256",
          "name": "",
          "type": "uint256"
        }
      ],
      "stateMutability": "view",
      "type": "function"
    },
    {
      "inputs": [
        {
          "internalType": "uint256",
          "name": "",
          "type": "uint256"
        },
        {
          "internalType": "address",
          "name": "",
          "type": "address"
        }
      ],
      "name": "hasVoted",
      "outputs": [
        {
          "internalType": "bool",
          "name": "",
          "type": "bool"
        }
      ],
      "stateMutability": "view",
      "type": "function"
    },
    {
      "inputs": [],
      "name": "owner",
      "outputs": [
        {
          "internalType": "address",
          "name": "",
          "type": "address"
        }
      ],
      "stateMutability": "view",
      "type": "function"
    },
    {
      "inputs": [],
      "name": "pause",
      "outputs": [],
      "stateMutability": "nonpayable",
      "type": "function"
    },
    {
      "inputs": [],
      "name": "paused",
      "outputs": [
        {
          "internalType": "bool",
          "name": "",
          "type": "bool"
        }
      ],
      "stateMutability": "view",
      "type": "function"
    },
    {
      "inputs": [],
      "name": "proposalCount",
      "outputs": [
        {
          "internalType": "uint256",
          "name": "",
          "type": "uint256"
        }
      ],
      "stateMutability": "view",
      "type": "function"
    },
    {
      "inputs": [],
      "name": "proposalThreshold",
      "outputs": [
        {
          "internalType": "uint256",
          "name": "",
          "type": "uint256"
        }
      ],
      "stateMutability": "view",
      "type": "function"
    },
    {
      "inputs": [
        {
          "internalType": "uint256",
          "name": "",
          "type": "uint256"
        }
      ],
      "name": "proposals",
      "outputs": [
        {
          "internalType": "uint256",
          "name": "id",
          "type": "uint256"
        },
        {
          "internalType": "address",
          "name": "proposer",
          "type": "address"
        },
        {
          "internalType": "address",
          "name": "target",
          "type": "address"
        },
        {
          "internalType": "bytes",
          "name": "callData",
          "type": "bytes"
        },
        {
          "internalType": "uint256",
          "name": "startBlock",
          "type": "uint256"
        },
        {
          "internalType": "uint256",
          "name": "endBlock",
          "type": "uint256"
        },
        {
          "internalType": "uint256",
          "name": "forVotes",
          "type": "uint256"
        },
        {
          "internalType": "uint256",
          "name": "againstVotes",
          "type": "uint256"
        },
        {
          "internalType": "uint256",
          "name": "abstainVotes",
          "type": "uint256"
        },
        {
          "internalType": "uint256",
          "name": "quorumVotes",
          "type": "uint256"
        },
        {
          "internalType": "bool",
          "name": "executed",
          "type": "bool"
        },
        {
          "internalType": "string",
          "name": "description",
          "type": "string"
        },
        {
          "internalType": "enum Governance.ProposalState",
          "name": "state",
          "type": "uint8"
        }
      ],
      "stateMutability": "view",
      "type": "function"
    },
    {
      "inputs": [],
      "name": "quorum",
      "outputs": [
        {
          "internalType": "uint256",
          "name": "",
          "type": "uint256"
        }
      ],
      "stateMutability": "view",
      "type": "function"
    },
    {
      "inputs": [],
      "name": "quorumNumerator",
      "outputs": [
        {
          "internalType": "uint256",
          "name": "",
          "type": "uint256"
        }
      ],
      "stateMutability": "view",
      "type": "function"
    },
    {
      "inputs": [],
      "name": "renounceOwnership",
      "outputs": [],
      "stateMutability": "nonpayable",
      "type": "function"
    },
    {
      "inputs": [
        {
          "internalType": "uint256",
          "name": "_threshold",
          "type": "uint256"
        }
      ],
      "name": "setProposalThreshold",
      "outputs": [],
      "stateMutability": "nonpayable",
      "type": "function"
    },
    {
      "inputs": [
        {
          "internalType": "uint256",
          "name": "_quorumNumerator",
          "type": "uint256"
        }
      ],
      "name": "setQuorumNumerator",
      "outputs": [],
      "stateMutability": "nonpayable",
      "type": "function"
    },
    {
      "inputs": [
        {
          "internalType": "uint256",
          "name": "_votingPeriod",
          "type": "uint256"
        }
      ],
      "name": "setVotingPeriod",
      "outputs": [],
      "stateMutability": "nonpayable",
      "type": "function"
    },
    {
      "inputs": [
        {
          "internalType": "address",
          "name": "newOwner",
          "type": "address"
        }
      ],
      "name": "transferOwnership",
      "outputs": [],
      "stateMutability": "nonpayable",
      "type": "function"
    },
    {
      "inputs": [],
      "name": "unpause",
      "outputs": [],
      "stateMutability": "nonpayable",
      "type": "function"
    },
    {
      "inputs": [
        {
          "internalType": "uint256",
          "name": "proposalId",
          "type": "uint256"
        }
      ],
      "name": "updateProposalState",
      "outputs": [],
      "stateMutability": "nonpayable",
      "type": "function"
    },
    {
      "inputs": [
        {
          "internalType": "uint256",
          "name": "",
          "type": "uint256"
        },
        {
          "internalType": "address",
          "name": "",
          "type": "address"
        }
      ],
      "name": "votes",
      "outputs": [
        {
          "internalType": "uint256",
          "name": "",
          "type": "uint256"
        }
      ],
      "stateMutability": "view",
      "type": "function"
    },
    {
      "inputs": [],
      "name": "votingPeriod",
      "outputs": [
        {
          "internalType": "uint256",
          "name": "",
          "type": "uint256"
        }
      ],
      "stateMutability": "view",
      "type": "function"
    },
    {
      "stateMutability": "payable",
      "type": "receive"
    }
  ],
  "bytecode": "0x60803461013857601f6119d638819003918201601f19168301916001600160401b0383118484101761013c578084926080946040528339810103126101385780516001600160a01b038116919082900361013857602081015160606040830151920151923315610125575f8054336001600160a01b03198216811783556040519290916001600160a01b0316907f8be0079c531659141344cd1fd0a4f28419497f9722a3daafe3b4186f6b6457e09080a381156100e35750600180546001600160a01b03191691909117905560025560035560045560405161188590816101518239f35b62461bcd60e51b815260206004820152601960248201527f476f7665726e616e63653a20696e76616c696420746f6b656e000000000000006044820152606490fd5b631e4fbdf760e01b5f525f60045260245ffd5b5f80fd5b634e487b7160e01b5f52604160045260245ffdfe6080806040526004361015610011575b005b5f3560e01c908163013cf08b1461123d5750806302a251a3146112205780630d61b51914610fed5780631703a01814610f5a5780633b61403c14610f325780633f4ba83a14610ec65780634385963214610e7d5780635584c4f914610da65780635678138814610ad85780635c975abb14610ab457806364bd0cb2146106245780636ac600c714610608578063715018a6146105b1578063737594ce146105425780638456cb59146104e25780638da5cb5b146104bb5780639080936f1461048e578063a7713a7014610471578063b58131b014610454578063bc3f931f146103eb578063c7f758a81461031e578063d23254b4146102da578063da35c664146102bd578063ea0217cf1461020c578063ece40cc1146101c05763f2fde38b1461013757005b346101bc5760203660031901126101bc5761015061147e565b610158611607565b6001600160a01b031680156101a9575f80546001600160a01b03198116831782556001600160a01b0316907f8be0079c531659141344cd1fd0a4f28419497f9722a3daafe3b4186f6b6457e09080a3005b631e4fbdf760e01b5f525f60045260245ffd5b5f80fd5b346101bc5760203660031901126101bc577f75176781f69c55e26fee85d480452b0b9038b9428704bb7b232fc1c638bbf80360206004356101ff611607565b80600355604051908152a1005b346101bc5760203660031901126101bc57600435610228611607565b62015180811015806102b0575b1561026b576020817f651c77f42613a075437aa794c44471e3abc3a661956a67aaee165bb7396974aa92600255604051908152a1005b60405162461bcd60e51b815260206004820152601a60248201527f476f7665726e616e63653a20696e76616c696420706572696f640000000000006044820152606490fd5b5062127500811115610235565b346101bc575f3660031901126101bc576020600554604051908152f35b346101bc5760403660031901126101bc576102f3611468565b6004355f52600860205260405f209060018060a01b03165f52602052602060405f2054604051908152f35b346101bc5760203660031901126101bc576004355f52600660205260405f20805460018060a01b036001830154169160018060a01b03600282015416906103df60068201549260078301546008840154906103c5600b60ff600c88015416946103a060ff600a8a015416986103996040518095819301611394565b0383611415565b6040519a8b9a8b5260208b015260408a015261012060608a0152610120890190611437565b95608088015260a087015260c086015260e085019061145b565b15156101008301520390f35b346101bc5760403660031901126101bc576040600435610409611468565b815f526007602052825f2060018060a01b0382165f5260205260ff835f205416915f526008602052825f209060018060a01b03165f52602052815f2054825191151582526020820152f35b346101bc575f3660031901126101bc576020600354604051908152f35b346101bc575f3660031901126101bc576020600454604051908152f35b346101bc5760203660031901126101bc5760206104ac600435611595565b6104b9604051809261145b565bf35b346101bc575f3660031901126101bc575f546040516001600160a01b039091168152602090f35b346101bc575f3660031901126101bc576104fa611607565b6105026115ea565b5f805460ff60a01b1916600160a01b1790556040513381527f62e78cea01bee320cd4e420270b5ea74000d11b0c9f74754ebdbfc544b05a25890602090a1005b346101bc5760203660031901126101bc5760043561055e611607565b6101f4811161056c57600455005b60405162461bcd60e51b815260206004820152601b60248201527f476f7665726e616e63653a2071756f72756d20746f6f206869676800000000006044820152606490fd5b346101bc575f3660031901126101bc576105c9611607565b5f80546001600160a01b0319811682556001600160a01b03167f8be0079c531659141344cd1fd0a4f28419497f9722a3daafe3b4186f6b6457e08280a3005b346101bc5760203660031901126101bc5761000f60043561162d565b346101bc5760603660031901126101bc5761063d61147e565b60243567ffffffffffffffff81116101bc5761065d903690600401611494565b9160443567ffffffffffffffff81116101bc5761067e903690600401611494565b916106876115ea565b6001600160a01b0316938415610a6f576001546040516370a0823160e01b815233600482015290602090829060249082906001600160a01b03165afa9081156108e8575f91610a3d575b50600354116109f8576005545f1981146109e457600190810160058190555f81815260066020526040902081815591820180546001600160a01b0319908116331790915560028301805490911688179055949091600383019167ffffffffffffffff82116109615761074d82610747855461135c565b85611546565b5f90601f83116001146109805761077b92915f9183610975575b50508160011b915f199060031b1c19161790565b90555b600b810167ffffffffffffffff8411610961576107a58461079f835461135c565b83611546565b5f84601f81116001146108fe57806107d1925f916108f3575b508160011b915f199060031b1c19161790565b90555b4360048201556107e960036002540443611539565b6005820155600c8101805460ff19166001908117909155546040516318160ddd60e01b815290602090829060049082906001600160a01b03165afa9081156108e8575f916108b4575b50948385937fbf0fcd54b591a07a1943cf5eaf6fdd64e31bc7b4c469e9ba81fb00e21fd859f59360096103e861086d60209b6004549061150e565b0491015561087a856117fa565b5060405192835260408884015281604084015260608301375f606085830101526060813395601f80199101168101030190a3604051908152f35b9590506020863d6020116108e0575b816108d060209383611415565b810103126101bc57945183610832565b3d91506108c3565b6040513d5f823e3d90fd5b9050850135896107be565b50601f19851690825f528560205f20925f5b81811061094657501061092d575b5050600184811b0190556107d4565b8401355f19600387901b60f8161c19169055868061091e565b87840135855560019094019360209384019389935001610910565b634e487b7160e01b5f52604160045260245ffd5b013590508980610767565b601f19831691845f5260205f20925f5b8181106109cc57509084600195949392106109b3575b505050811b01905561077e565b01355f19600384901b60f8161c191690558880806109a6565b91936020600181928787013581550195019201610990565b634e487b7160e01b5f52601160045260245ffd5b60405162461bcd60e51b815260206004820152601b60248201527f476f7665726e616e63653a2062656c6f77207468726573686f6c6400000000006044820152606490fd5b90506020813d602011610a67575b81610a5860209383611415565b810103126101bc5751866106d1565b3d9150610a4b565b60405162461bcd60e51b815260206004820152601a60248201527f476f7665726e616e63653a20696e76616c6964207461726765740000000000006044820152606490fd5b346101bc575f3660031901126101bc57602060ff5f5460a01c166040519015158152f35b346101bc5760403660031901126101bc576004356024359060ff82168092036101bc57610b036115ea565b805f52600660205260405f2091610b1c835415156114c2565b60ff600c840154166006811015610d9257600103610d54575f82815260076020908152604080832033845290915290205460ff16610d0f5760028111610cca576001546040516370a0823160e01b815233600482015290602090829060249082906001600160a01b03165afa9081156108e8575f91610c98575b508015610c53575f83815260076020908152604080832033808552908352818420805460ff1916600117905586845260088352818420908452909152902082905561000f935f198301610c2b57600601610bf1828254611539565b90555b6040519182526020820152817fb83d25c6a5d258561330739951487acb4bd09ba5190b5d32c4f261817d90679260403393a361162d565b82610c4557600701610c3e828254611539565b9055610bf4565b600801610c3e828254611539565b60405162461bcd60e51b815260206004820152601b60248201527f476f7665726e616e63653a206e6f20766f74696e6720706f77657200000000006044820152606490fd5b90506020813d602011610cc2575b81610cb360209383611415565b810103126101bc575184610b96565b3d9150610ca6565b60405162461bcd60e51b815260206004820152601860248201527f476f7665726e616e63653a20696e76616c696420766f746500000000000000006044820152606490fd5b60405162461bcd60e51b815260206004820152601960248201527f476f7665726e616e63653a20616c726561647920766f746564000000000000006044820152606490fd5b60405162461bcd60e51b8152602060048201526016602482015275476f7665726e616e63653a206e6f742061637469766560501b6044820152606490fd5b634e487b7160e01b5f52602160045260245ffd5b346101bc575f3660031901126101bc57600954610dc281611521565b90610dd06040519283611415565b808252610ddc81611521565b602083019190601f19013683376009545f5b828110610e39578385604051918291602083019060208452518091526040830191905f5b818110610e20575050500390f35b8251845285945060209384019390920191600101610e12565b81811015610e695760095f528060205f200154908551811015610e695760019160208260051b8801015201610dee565b634e487b7160e01b5f52603260045260245ffd5b346101bc5760403660031901126101bc57610e96611468565b6004355f52600760205260405f209060018060a01b03165f52602052602060ff60405f2054166040519015158152f35b346101bc575f3660031901126101bc57610ede611607565b5f5460ff8160a01c1615610f235760ff60a01b19165f556040513381527f5db9ee0a495bf2e6ff9c91a7834c1ba4fdd244a5e8aa4e537bd38aeae4b073aa90602090a1005b638dfc202b60e01b5f5260045ffd5b346101bc575f3660031901126101bc576001546040516001600160a01b039091168152602090f35b346101bc575f3660031901126101bc576001546040516318160ddd60e01b815290602090829060049082906001600160a01b03165afa9081156108e8575f91610fb9575b60206103e8610fb0846004549061150e565b04604051908152f35b90506020813d602011610fe5575b81610fd460209383611415565b810103126101bc57516103e8610f9e565b3d9150610fc7565b346101bc5760203660031901126101bc576004356110096115ea565b805f52600660205260405f20611021815415156114c2565b600c810160ff8154166006811015610d92576002036111db57600a8201805460ff81166111965760ff1990811660011790915581541660041790556110658261171f565b50600360018060a01b036002830154169101604051905f908054906110898261135c565b916001811690811561117f575060011461114d575b505091815f809493819403925af13d15611145573d9167ffffffffffffffff8311610961576040516020936110dc601f8201601f1916860183611415565b81525f843d92013e5b807f948f4a9cd986f1118c3fbd459f7a22b23c0693e1ca3ef06a6a8be5aa7d39cc038460405194151594858152a27fd6b3a81dd8b7dc419d8d0f20797397ea2eaba914386b89898aa638438803a1ec8360405160048152a2604051908152f35b6020916110e5565b9091505f5260205f205f905b82821061116b5750508101815f61109e565b600181602092548487015201910190611159565b60ff1916855250508015150282019050815f61109e565b60405162461bcd60e51b815260206004820152601c60248201527f476f7665726e616e63653a20616c7265616479206578656375746564000000006044820152606490fd5b60405162461bcd60e51b815260206004820152601960248201527f476f7665726e616e63653a206e6f7420737563636565646564000000000000006044820152606490fd5b346101bc575f3660031901126101bc576020600254604051908152f35b346101bc5760203660031901126101bc576004355f9081526006602052604090208054600182015460028301546001600160a01b03918216949293911691806112898160038501611394565b036112949082611415565b600482015490600583015460068401546007850154600886015491600987015493600a88015460ff1695604051988980600b8301906112d291611394565b036112dd908b611415565b600c015460ff16996040519c8d9c8d5260208d015260408c015260608b016101a090526101a08b0161130e91611437565b9660808b015260a08a015260c089015260e0880152610100870152610120860152151561014085015283810361016085015261134991611437565b9061018083016113589161145b565b0390f35b90600182811c9216801561138a575b602083101461137657565b634e487b7160e01b5f52602260045260245ffd5b91607f169161136b565b5f92918154916113a38361135c565b80835292600181169081156113f857506001146113bf57505050565b5f9081526020812093945091925b8383106113de575060209250010190565b6001816020929493945483858701015201910191906113cd565b915050602093945060ff929192191683830152151560051b010190565b90601f8019910116810190811067ffffffffffffffff82111761096157604052565b805180835260209291819084018484015e5f828201840152601f01601f1916010190565b906006821015610d925752565b602435906001600160a01b03821682036101bc57565b600435906001600160a01b03821682036101bc57565b9181601f840112156101bc5782359167ffffffffffffffff83116101bc57602083818601950101116101bc57565b156114c957565b60405162461bcd60e51b815260206004820152601e60248201527f476f7665726e616e63653a2070726f706f73616c206e6f7420666f756e6400006044820152606490fd5b818102929181159184041417156109e457565b67ffffffffffffffff81116109615760051b60200190565b919082018092116109e457565b601f821161155357505050565b5f5260205f20906020601f840160051c8301931061158b575b601f0160051c01905b818110611580575050565b5f8155600101611575565b909150819061156c565b5f52600660205260405f208054156115e55760ff600c82015416906006821015610d9257600282146115c5575090565b600501546203138081018091116109e45743116115df5790565b50600590565b505f90565b60ff5f5460a01c166115f857565b63d93c066560e01b5f5260045ffd5b5f546001600160a01b0316330361161a57565b63118cdaa760e01b5f523360045260245ffd5b805f52600660205260405f20600c810160ff8154166006811015610d925760010361170557600582015443101561166357505050565b60ff6020918360067fd6b3a81dd8b7dc419d8d0f20797397ea2eaba914386b89898aa638438803a1ec95015460078201549160096116af6116a48585611539565b600884015490611539565b91015411156116e1575050600382198254161781555b6116ce8561171f565b5054166116de604051809261145b565ba2565b11156116f657600282198254161781556116c5565b600382198254161781556116c5565b505050565b8054821015610e69575f5260205f2001905f90565b5f818152600a602052604090205480156117f4575f1981018181116109e4576009545f198101919082116109e4578181036117a6575b5050506009548015611792575f190161176f81600961170a565b8154905f199060031b1b191690556009555f52600a6020525f6040812055600190565b634e487b7160e01b5f52603160045260245ffd5b6117de6117b76117c893600961170a565b90549060031b1c928392600961170a565b819391549060031b91821b915f19901b19161790565b90555f52600a60205260405f20555f8080611755565b50505f90565b805f52600a60205260405f2054155f146115e55760095468010000000000000000811015610961576118386117c8826001859401600955600961170a565b9055600954905f52600a60205260405f205560019056fea2646970667358221220ba0341779139afa9d872d5eb49113ac1a6e76657b0078d85e8b60dac54edbb5864736f6c634300081b0033",
  "linkReferences": {},
  "deployedLinkReferences": {}
}