{
  "_format": "hh-sol-artifact-1",
  "contractName": "AchievementNFT",
  "sourceName": "contracts/AchievementNFT.sol",
  "abi": [
    {
      "inputs": [
        {
          "internalType": "address",
          "name": "_signer",
          "type": "address"
        },
        {
          "internalType": "string",
          "name": "_baseURI",
          "type": "string"
        }
      ],
      "stateMutability": "nonpayable",
      "type": "constructor"
    },
    {
      "inputs": [],
      "name": "ERC721EnumerableForbiddenBatchMint",
      "type": "error"
    },
    {
      "inputs": [
        {
          "internalType": "address",
          "name": "sender",
          "type": "address"
        },
        {
          "internalType": "uint256",
          "name": "tokenId",
          "type": "uint256"
        },
        {
          "internalType": "address",
          "name": "owner",
          "type": "address"
        }
      ],
      "name": "ERC721IncorrectOwner",
      "type": "error"
    },
    {
      "inputs": [
        {
          "internalType": "address",
          "name": "operator",
          "type": "address"
        },
        {
          "internalType": "uint256",
          "name": "tokenId",
          "type": "uint256"
        }
      ],
      "name": "ERC721InsufficientApproval",
      "type": "error"
    },
    {
      "inputs": [
        {
          "internalType": "address",
          "name": "approver",
          "type": "address"
        }
      ],
      "name": "ERC721InvalidApprover",
      "type": "error"
    },
    {
      "inputs": [
        {
          "internalType": "address",
          "name": "operator",
          "type": "address"
        }
      ],
      "name": "ERC721InvalidOperator",
      "type": "error"
    },
    {
      "inputs": [
        {
          "internalType": "address",
          "name": "owner",
          "type": "address"
        }
      ],
      "name": "ERC721InvalidOwner",
      "type": "error"
    },
    {
      "inputs": [
        {
          "internalType": "address",
          "name": "receiver",
          "type": "address"
        }
      ],
      "name": "ERC721InvalidReceiver",
      "type": "error"
    },
    {
      "inputs": [
        {
          "internalType": "address",
          "name": "sender",
          "type": "address"
        }
      ],
      "name": "ERC721InvalidSender",
      "type": "error"
    },
    {
      "inputs": [
        {
          "internalType": "uint256",
          "name": "tokenId",
          "type": "uint256"
        }
      ],
      "name": "ERC721NonexistentToken",
      "type": "error"
    },
    {
      "inputs": [
        {
          "internalType": "address",
          "name": "owner",
          "type": "address"
        },
        {
          "internalType": "uint256",
          "name": "index",
          "type": "uint256"
        }
      ],
      "name": "ERC721OutOfBoundsIndex",
      "type": "error"
    },
    {
      "inputs": [],
      "name": "EnforcedPause",
      "type": "error"
    },
    {
      "inputs": [],
      "name": "ExpectedPause",
      "type": "error"
    },
    {
      "inputs": [
        {
          "internalType": "address",
          "name": "owner",
          "type": "address"
        }
      ],
      "name": "OwnableInvalidOwner",
      "type": "error"
    },
    {
      "inputs": [
        {
          "internalType": "address",
          "name": "account",
          "type": "address"
        }
      ],
      "name": "OwnableUnauthorizedAccount",
      "type": "error"
    },
    {
      "anonymous": false,
      "inputs": [
        {
          "indexed": true,
          "internalType": "address",
          "name": "player",
          "type": "address"
        },
        {
          "indexed": true,
          "internalType": "uint256",
          "name": "tokenId",
          "type": "uint256"
        },
        {
          "indexed": false,
          "internalType": "uint256",
          "name": "achievementTypeId",
          "type": "uint256"
        },
        {
          "indexed": false,
          "internalType": "uint256",
          "name": "yearMonth",
          "type": "uint256"
        }
      ],
      "name": "AchievementMinted",
      "type": "event"
    },
    {
      "anonymous": false,
      "inputs": [
        {
          "indexed": true,
          "internalType": "address",
          "name": "owner",
          "type": "address"
        },
        {
          "indexed": true,
          "internalType": "address",
          "name": "approved",
          "type": "address"
        },
        {
          "indexed": true,
          "internalType": "uint256",
          "name": "tokenId",
          "type": "uint256"
        }
      ],
      "name": "Approval",
      "type": "event"
    },
    {
      "anonymous": false,
      "inputs": [
        {
          "indexed": true,
          "internalType": "address",
          "name": "owner",
          "type": "address"
        },
        {
          "indexed": true,
          "internalType": "address",
          "name": "operator",
          "type": "address"
        },
        {
          "indexed": false,
          "internalType": "bool",
          "name": "approved",
          "type": "bool"
        }
      ],
      "name": "ApprovalForAll",
      "type": "event"
    },
    {
      "anonymous": false,
      "inputs": [
        {
          "indexed": false,
          "internalType": "string",
          "name": "newBaseURI",
          "type": "string"
        }
      ],
      "name": "BaseURIUpdated",
      "type": "event"
    },
    {
      "anonymous": false,
      "inputs": [
        {
          "indexed": false,
          "internalType": "uint256",
          "name": "_fromTokenId",
          "type": "uint256"
        },
        {
          "indexed": false,
          "internalType": "uint256",
          "name": "_toTokenId",
          "type": "uint256"
        }
      ],
      "name": "BatchMetadataUpdate",
      "type": "event"
    },
    {
      "anonymous": false,
      "inputs": [
        {
          "indexed": false,
          "internalType": "uint256",
          "name": "_tokenId",
          "type": "uint256"
        }
      ],
      "name": "MetadataUpdate",
      "type": "event"
    },
    {
      "anonymous": false,
      "inputs": [
        {
          "indexed": true,
          "internalType": "address",
          "name": "previousOwner",
          "type": "address"
        },
        {
          "indexed": true,
          "internalType": "address",
          "name": "newOwner",
          "type": "address"
        }
      ],
      "name": "OwnershipTransferred",
      "type": "event"
    },
    {
      "anonymous": false,
      "inputs": [
        {
          "indexed": false,
          "internalType": "address",
          "name": "account",
          "type": "address"
        }
      ],
      "name": "Paused",
      "type": "event"
    },
    {
      "anonymous": false,
      "inputs": [
        {
          "indexed": true,
          "internalType": "address",
          "name": "oldSigner",
          "type": "address"
        },
        {
          "indexed": true,
          "internalType": "address",
          "name": "newSigner",
          "type": "address"
        }
      ],
      "name": "SignerUpdated",
      "type": "event"
    },
    {
      "anonymous": false,
      "inputs": [
        {
          "indexed": true,
          "internalType": "address",
          "name": "from",
          "type": "address"
        },
        {
          "indexed": true,
          "internalType": "address",
          "name": "to",
          "type": "address"
        },
        {
          "indexed": true,
          "internalType": "uint256",
          "name": "tokenId",
          "type": "uint256"
        }
      ],
      "name": "Transfer",
      "type": "event"
    },
    {
      "anonymous": false,
      "inputs": [
        {
          "indexed": false,
          "internalType": "address",
          "name": "account",
          "type": "address"
        }
      ],
      "name": "Unpaused",
      "type": "event"
    },
    {
      "stateMutability": "payable",
      "type": "fallback"
    },
    {
      "inputs": [
        {
          "internalType": "uint256",
          "name": "",
          "type": "uint256"
        }
      ],
      "name": "achievements",
      "outputs": [
        {
          "internalType": "enum AchievementNFT.AchievementType",
          "name": "achievementType",
          "type": "uint8"
        },
        {
          "internalType": "enum AchievementNFT.Rarity",
          "name": "rarity",
          "type": "uint8"
        },
        {
          "internalType": "string",
          "name": "name",
          "type": "string"
        },
        {
          "internalType": "string",
          "name": "description",
          "type": "string"
        },
        {
          "internalType": "uint256",
          "name": "monthlyLimit",
          "type": "uint256"
        },
        {
          "internalType": "uint256",
          "name": "mintPrice",
          "type": "uint256"
        }
      ],
      "stateMutability": "view",
      "type": "function"
    },
    {
      "inputs": [
        {
          "internalType": "address",
          "name": "to",
          "type": "address"
        },
        {
          "internalType": "uint256",
          "name": "tokenId",
          "type": "uint256"
        }
      ],
      "name": "approve",
      "outputs": [],
      "stateMutability": "nonpayable",
      "type": "function"
    },
    {
      "inputs": [
        {
          "internalType": "address",
          "name": "owner",
          "type": "address"
        }
      ],
      "name": "balanceOf",
      "outputs": [
        {
          "internalType": "uint256",
          "name": "",
          "type": "uint256"
        }
      ],
      "stateMutability": "view",
      "type": "function"
    },
    {
      "inputs": [],
      "name": "baseURI",
      "outputs": [
        {
          "internalType": "string",
          "name": "",
          "type": "string"
        }
      ],
      "stateMutability": "view",
      "type": "function"
    },
    {
      "inputs": [
        {
          "internalType": "uint256",
          "name": "achievementTypeId",
          "type": "uint256"
        },
        {
          "internalType": "uint256",
          "name": "timestamp",
          "type": "uint256"
        },
        {
          "internalType": "string",
          "name": "gameId",
          "type": "string"
        },
        {
          "internalType": "uint8",
          "name": "v",
          "type": "uint8"
        },
        {
          "internalType": "bytes32",
          "name": "r",
          "type": "bytes32"
        },
        {
          "internalType": "bytes32",
          "name": "s",
          "type": "bytes32"
        }
      ],
      "name": "claimNFT",
      "outputs": [
        {
          "internalType": "uint256",
          "name": "",
          "type": "uint256"
        }
      ],
      "stateMutability": "payable",
      "type": "function"
    },
    {
      "inputs": [
        {
          "internalType": "uint256",
          "name": "achievementTypeId",
          "type": "uint256"
        },
        {
          "internalType": "uint256",
          "name": "timestamp",
          "type": "uint256"
        },
        {
          "internalType": "string",
          "name": "gameId",
          "type": "string"
        },
        {
          "internalType": "bytes",
          "name": "signature",
          "type": "bytes"
        }
      ],
      "name": "claimNFTCompact",
      "outputs": [
        {
          "internalType": "uint256",
          "name": "",
          "type": "uint256"
        }
      ],
      "stateMutability": "payable",
      "type": "function"
    },
    {
      "inputs": [
        {
          "internalType": "bytes32",
          "name": "",
          "type": "bytes32"
        }
      ],
      "name": "claimRecord",
      "outputs": [
        {
          "internalType": "bool",
          "name": "",
          "type": "bool"
        }
      ],
      "stateMutability": "view",
      "type": "function"
    },
    {
      "inputs": [
        {
          "internalType": "uint256",
          "name": "achievementTypeId",
          "type": "uint256"
        }
      ],
      "name": "getAchievementInfo",
      "outputs": [
        {
          "internalType": "enum AchievementNFT.AchievementType",
          "name": "achievementType",
          "type": "uint8"
        },
        {
          "internalType": "enum AchievementNFT.Rarity",
          "name": "rarity",
          "type": "uint8"
        },
        {
          "internalType": "string",
          "name": "name",
          "type": "string"
        },
        {
          "internalType": "string",
          "name": "description",
          "type": "string"
        },
        {
          "internalType": "uint256",
          "name": "monthlyLimit",
          "type": "uint256"
        },
        {
          "internalType": "uint256",
          "name": "mintPrice",
          "type": "uint256"
        }
      ],
      "stateMutability": "view",
      "type": "function"
    },
    {
      "inputs": [
        {
          "internalType": "uint256",
          "name": "tokenId",
          "type": "uint256"
        }
      ],
      "name": "getApproved",
      "outputs": [
        {
          "internalType": "address",
          "name": "",
          "type": "address"
        }
      ],
      "stateMutability": "view",
      "type": "function"
    },
    {
      "inputs": [],
      "name": "getCurrentYearMonth",
      "outputs": [
        {
          "internalType": "uint256",
          "name": "",
          "type": "uint256"
        }
      ],
      "stateMutability": "view",
      "type": "function"
    },
    {
      "inputs": [
        {
          "internalType": "uint256",
          "name": "achievementTypeId",
          "type": "uint256"
        }
      ],
      "name": "getMonthlyRemaining",
      "outputs": [
        {
          "internalType": "uint256",
          "name": "",
          "type": "uint256"
        }
      ],
      "stateMutability": "view",
      "type": "function"
    },
    {
      "inputs": [
        {
          "internalType": "address",
          "name": "player",
          "type": "address"
        }
      ],
      "name": "getPlayerAchievements",
      "outputs": [
        {
          "internalType": "uint256[]",
          "name": "",
          "type": "uint256[]"
        }
      ],
      "stateMutability": "view",
      "type": "function"
    },
    {
      "inputs": [
        {
          "internalType": "address",
          "name": "owner",
          "type": "address"
        },
        {
          "internalType": "address",
          "name": "operator",
          "type": "address"
        }
      ],
      "name": "isApprovedForAll",
      "outputs": [
        {
          "internalType": "bool",
          "name": "",
          "type": "bool"
        }
      ],
      "stateMutability": "view",
      "type": "function"
    },
    {
      "inputs": [
        {
          "internalType": "uint256",
          "name": "",
          "type": "uint256"
        },
        {
          "internalType": "uint256",
          "name": "",
          "type": "uint256"
        }
      ],
      "name": "monthlyMinted",
      "outputs": [
        {
          "internalType": "uint256",
          "name": "",
          "type": "uint256"
        }
      ],
      "stateMutability": "view",
      "type": "function"
    },
    {
      "inputs": [],
      "name": "name",
      "outputs": [
        {
          "internalType": "string",
          "name": "",
          "type": "string"
        }
      ],
      "stateMutability": "view",
      "type": "function"
    },
    {
      "inputs": [],
      "name": "owner",
      "outputs": [
        {
          "internalType": "address",
          "name": "",
          "type": "address"
        }
      ],
      "stateMutability": "view",
      "type": "function"
    },
    {
      "inputs": [
        {
          "internalType": "uint256",
          "name": "tokenId",
          "type": "uint256"
        }
      ],
      "name": "ownerOf",
      "outputs": [
        {
          "internalType": "address",
          "name": "",
          "type": "address"
        }
      ],
      "stateMutability": "view",
      "type": "function"
    },
    {
      "inputs": [],
      "name": "pause",
      "outputs": [],
      "stateMutability": "nonpayable",
      "type": "function"
    },
    {
      "inputs": [],
      "name": "paused",
      "outputs": [
        {
          "internalType": "bool",
          "name": "",
          "type": "bool"
        }
      ],
      "stateMutability": "view",
      "type": "function"
    },
    {
      "inputs": [],
      "name": "renounceOwnership",
      "outputs": [],
      "stateMutability": "nonpayable",
      "type": "function"
    },
    {
      "inputs": [
        {
          "internalType": "address",
          "name": "from",
          "type": "address"
        },
        {
          "internalType": "address",
          "name": "to",
          "type": "address"
        },
        {
          "internalType": "uint256",
          "name": "tokenId",
          "type": "uint256"
        }
      ],
      "name": "safeTransferFrom",
      "outputs": [],
      "stateMutability": "nonpayable",
      "type": "function"
    },
    {
      "inputs": [
        {
          "internalType": "address",
          "name": "from",
          "type": "address"
        },
        {
          "internalType": "address",
          "name": "to",
          "type": "address"
        },
        {
          "internalType": "uint256",
          "name": "tokenId",
          "type": "uint256"
        },
        {
          "internalType": "bytes",
          "name": "data",
          "type": "bytes"
        }
      ],
      "name": "safeTransferFrom",
      "outputs": [],
      "stateMutability": "nonpayable",
      "type": "function"
    },
    {
      "inputs": [
        {
          "internalType": "address",
          "name": "operator",
          "type": "address"
        },
        {
          "internalType": "bool",
          "name": "approved",
          "type": "bool"
        }
      ],
      "name": "setApprovalForAll",
      "outputs": [],
      "stateMutability": "nonpayable",
      "type": "function"
    },
    {
      "inputs": [
        {
          "internalType": "string",
          "name": "_baseURI",
          "type": "string"
        }
      ],
      "name": "setBaseURI",
      "outputs": [],
      "stateMutability": "nonpayable",
      "type": "function"
    },
    {
      "inputs": [
        {
          "internalType": "uint256",
          "name": "_validity",
          "type": "uint256"
        }
      ],
      "name": "setSignatureValidity",
      "outputs": [],
      "stateMutability": "nonpayable",
      "type": "function"
    },
    {
      "inputs": [
        {
          "internalType": "address",
          "name": "_signer",
          "type": "address"
        }
      ],
      "name": "setSigner",
      "outputs": [],
      "stateMutability": "nonpayable",
      "type": "function"
    },
    {
      "inputs": [],
      "name": "signatureValidity",
      "outputs": [
        {
          "internalType": "uint256",
          "name": "",
          "type": "uint256"
        }
      ],
      "stateMutability": "view",
      "type": "function"
    },
    {
      "inputs": [],
      "name": "signer",
      "outputs": [
        {
          "internalType": "address",
          "name": "",
          "type": "address"
        }
      ],
      "stateMutability": "view",
      "type": "function"
    },
    {
      "inputs": [
        {
          "internalType": "bytes4",
          "name": "interfaceId",
          "type": "bytes4"
        }
      ],
      "name": "supportsInterface",
      "outputs": [
        {
          "internalType": "bool",
          "name": "",
          "type": "bool"
        }
      ],
      "stateMutability": "view",
      "type": "function"
    },
    {
      "inputs": [],
      "name": "symbol",
      "outputs": [
        {
          "internalType": "string",
          "name": "",
          "type": "string"
        }
      ],
      "stateMutability": "view",
      "type": "function"
    },
    {
      "inputs": [
        {
          "internalType": "uint256",
          "name": "",
          "type": "uint256"
        }
      ],
      "name": "tokenAchievementType",
      "outputs": [
        {
          "internalType": "uint256",
          "name": "",
          "type": "uint256"
        }
      ],
      "stateMutability": "view",
      "type": "function"
    },
    {
      "inputs": [
        {
          "internalType": "uint256",
          "name": "index",
          "type": "uint256"
        }
      ],
      "name": "tokenByIndex",
      "outputs": [
        {
          "internalType": "uint256",
          "name": "",
          "type": "uint256"
        }
      ],
      "stateMutability": "view",
      "type": "function"
    },
    {
      "inputs": [
        {
          "internalType": "address",
          "name": "owner",
          "type": "address"
        },
        {
          "internalType": "uint256",
          "name": "index",
          "type": "uint256"
        }
      ],
      "name": "tokenOfOwnerByIndex",
      "outputs": [
        {
          "internalType": "uint256",
          "name": "",
          "type": "uint256"
        }
      ],
      "stateMutability": "view",
      "type": "function"
    },
    {
      "inputs": [
        {
          "internalType": "uint256",
          "name": "tokenId",
          "type": "uint256"
        }
      ],
      "name": "tokenURI",
      "outputs": [
        {
          "internalType": "string",
          "name": "",
          "type": "string"
        }
      ],
      "stateMutability": "view",
      "type": "function"
    },
    {
      "inputs": [],
      "name": "totalSupply",
      "outputs": [
        {
          "internalType": "uint256",
          "name": "",
          "type": "uint256"
        }
      ],
      "stateMutability": "view",
      "type": "function"
    },
    {
      "inputs": [
        {
          "internalType": "address",
          "name": "from",
          "type": "address"
        },
        {
          "internalType": "address",
          "name": "to",
          "type": "address"
        },
        {
          "internalType": "uint256",
          "name": "tokenId",
          "type": "uint256"
        }
      ],
      "name": "transferFrom",
      "outputs": [],
      "stateMutability": "nonpayable",
      "type": "function"
    },
    {
      "inputs": [
        {
          "internalType": "address",
          "name": "newOwner",
          "type": "address"
        }
      ],
      "name": "transferOwnership",
      "outputs": [],
      "stateMutability": "nonpayable",
      "type": "function"
    },
    {
      "inputs": [],
      "name": "unpause",
      "outputs": [],
      "stateMutability": "nonpayable",
      "type": "function"
    },
    {
      "inputs": [
        {
          "internalType": "uint256",
          "name": "achievementTypeId",
          "type": "uint256"
        },
        {
          "internalType": "uint256",
          "name": "monthlyLimit",
          "type": "uint256"
        },
        {
          "internalType": "uint256",
          "name": "mintPrice",
          "type": "uint256"
        }
      ],
      "name": "updateAchievement",
      "outputs": [],
      "stateMutability": "nonpayable",
      "type": "function"
    },
    {
      "inputs": [],
      "name": "withdraw",
      "outputs": [],
      "stateMutability": "nonpayable",
      "type": "function"
    },
    {
      "stateMutability": "payable",
      "type": "receive"
    }
  ],
  "bytecode": "0x6080604052346118e257613dc78038038061001981611905565b92833981016040828203126118e25781516001600160a01b03811692908390036118e2576020810151906001600160401b0382116118e2570181601f820112156118e2578051906001600160401b038211610d5757610081601f8301601f1916602001611905565b92828452602083830101116118e257815f9260208093018386015e8301015260406100ab81611905565b92601584527f506f6b657220416368696576656d656e74204e4654000000000000000000000060208501526100df82611905565b600681526514104813919560d21b6020820152845190946001600160401b038211610d57575f5490600182811c921680156118d8575b6020831014610d395781601f84931161186b575b50602090601f8311600114611808575f926117fd575b50508160011b915f199060031b1c1916175f555b83516001600160401b038111610d5757600154600181811c911680156117f3575b6020821014610d3957601f8111611790575b50602094601f821160011461172d579481929394955f92611722575b50508160011b915f199060031b1c1916176001555b331561170f57600b8054336001600160a01b031982168117909255835191906001600160a01b03167f8be0079c531659141344cd1fd0a4f28419497f9722a3daafe3b4186f6b6457e05f80a362093a80600f5581156116cd5750600d80546001600160a01b03191691909117905581516001600160401b038111610d5757600e54600181811c911680156116c3575b6020821014610d3957601f8111611660575b50602092601f82116001146115ff57928192935f926115f4575b50508160011b915f199060031b1c191617600e555b61028f6118e6565b905f82526020820190600382526102a581611905565b92600b84526a0a4def2c2d8408cd8eae6d60ab1b60208501528181019384526060926102d084611905565b94602e86527f54686520756c74696d6174652068616e643a20412d4b2d512d4a2d3130206f6660208701526d081d1a19481cd85b59481cdd5a5d60921b8487015284830195865260808301906005825260a0840192624c4b40845260015f526010602052855f209451906006821015610e3357855490516004811015610e335761ff0060ff9160081b1692169061ffff19161717845560018401905180519060018060401b038211610d5757825490600182811c921680156115ea575b6020831014610d395781601f84931161159a575b50602090601f8311600114611537575f9261152c575b50508160011b915f199060031b1c19161790555b9451805190959060028401906001600160401b038111610d57578154600181811c91168015611522575b6020821014610d3957601f81116114dd575b506020601f82116001146114765781906004969798995f9261146b575b50508160011b915f199060031b1c19161790555b5160038401555191015561044a6118e6565b916001835260208301926002845261046183611905565b93600e85526d0a6e8e4c2d2ced0e8408cd8eae6d60931b602086015283820194855261048c83611905565b94602786527f4669766520636f6e7365637574697665206361726473206f66207468652073616020870152661b59481cdd5a5d60ca1b858701528383019586526080830190600a825260a0840192624c4b40845260025f526010602052865f209451906006821015610e3357855490516004811015610e335761ff0060ff9160081b1692169061ffff19161717845560018401905180519060018060401b038211610d5757825490600182811c92168015611461575b6020831014610d395781601f849311611411575b50602090601f83116001146113ae575f926113a3575b50508160011b915f199060031b1c19161790555b9451805190959060028401906001600160401b038111610d57578154600181811c91168015611399575b6020821014610d3957601f8111611354575b506020601f82116001146112ed5781906004969798995f926112e2575b50508160011b915f199060031b1c19161790555b516003840155519101556105ff6118e6565b916002835260208301926001845261061682611905565b93600e85526d119bdd5c881bd988184812da5b9960921b602086015282820194855261064183611905565b94601b86527f466f7572206361726473206f66207468652073616d652072616e6b0000000000602087015284830195865260808301906032825260a0840192624c4b40845260035f526010602052855f209451906006821015610e3357855490516004811015610e335761ff0060ff9160081b1692169061ffff19161717845560018401905180519060018060401b038211610d5757825490600182811c921680156112d8575b6020831014610d395781601f849311611288575b50602090601f8311600114611225575f9261121a575b50508160011b915f199060031b1c19161790555b9451805190959060028401906001600160401b038111610d57578154600181811c91168015611210575b6020821014610d3957601f81116111cb575b506020601f82116001146111645781906004969798995f92611159575b50508160011b915f199060031b1c19161790555b516003840155519101556107a56118e6565b91600383526020830192600184526107bc83611905565b93600a85526946756c6c20486f75736560b01b60208601528382019485526107e384611905565b94601b86527f5468726565206f662061206b696e6420706c7573206120706169720000000000602087015283830195865260808301906064825260a0840192624c4b40845260045f526010602052865f209451906006821015610e3357855490516004811015610e335761ff0060ff9160081b1692169061ffff19161717845560018401905180519060018060401b038211610d5757825490600182811c9216801561114f575b6020831014610d395781601f8493116110ff575b50602090601f831160011461109c575f92611091575b50508160011b915f199060031b1c19161790555b9451805190959060028401906001600160401b038111610d57578154600181811c91168015611087575b6020821014610d3957601f8111611042575b506020601f8211600114610fdb5781906004969798995f92610fd0575b50508160011b915f199060031b1c19161790555b516003840155519101556109476118e6565b916004835260208301925f845261095d82611905565b93600585526408cd8eae6d60db1b602086015282820194855261097f83611905565b94601b86527f46697665206361726473206f66207468652073616d65207375697400000000006020870152848301958652608083019060c8825260a0840192624c4b40845260055f526010602052855f209451906006821015610e3357855490516004811015610e335761ff0060ff9160081b1692169061ffff19161717845560018401905180519060018060401b038211610d5757825490600182811c92168015610fc6575b6020831014610d395781601f849311610f76575b50602090601f8311600114610f13575f92610f08575b50508160011b915f199060031b1c19161790555b9451805190959060028401906001600160401b038111610d57578154600181811c91168015610efe575b6020821014610d3957601f8111610eb9575b506020601f8211600114610e525781906004969798995f92610e47575b50508160011b915f199060031b1c19161790555b51600384015551910155610ae36118e6565b60058152602081015f8152610af783611905565b600881526714dd1c985a59da1d60c21b6020820152838301908152610b1b84611905565b94601686527f4669766520636f6e73656375746976652063617264730000000000000000000060208701528301948552608083019061012c825260a0840192624c4b40845260065f526010602052855f209451906006821015610e3357855490516004811015610e335761ff0060ff9160081b1692169061ffff19161717845560018401905180519060018060401b038211610d5757825490600182811c92168015610e29575b6020831014610d395781601f849311610dd9575b50602090601f8311600114610d76575f92610d6b575b50508160011b915f199060031b1c19161790555b9351805190949060028401906001600160401b038111610d57578154600181811c91168015610d4d575b6020821014610d3957601f8111610cf4575b506020601f8211600114610c8e57819060049697985f92610c83575b50508160011b915f199060031b1c19161790555b516003840155519101555161249c908161192b8239f35b015190505f80610c58565b601f19821697835f52815f20985f5b818110610cdc575091600497989991846001959410610cc4575b505050811b019055610c6c565b01515f1960f88460031b161c191690555f8080610cb7565b838301518b556001909a019960209384019301610c9d565b825f5260205f20601f830160051c81019160208410610d2f575b601f0160051c01905b818110610d245750610c3c565b5f8155600101610d17565b9091508190610d0e565b634e487b7160e01b5f52602260045260245ffd5b90607f1690610c2a565b634e487b7160e01b5f52604160045260245ffd5b015190505f80610bec565b5f8581528281209350601f198516905b818110610dc15750908460019594939210610da9575b505050811b019055610c00565b01515f1960f88460031b161c191690555f8080610d9c565b92936020600181928786015181550195019301610d86565b909150835f5260205f20601f840160051c81019160208510610e1f575b90601f859493920160051c01905b818110610e115750610bd6565b5f8155849350600101610e04565b9091508190610df6565b91607f1691610bc2565b634e487b7160e01b5f52602160045260245ffd5b015190505f80610abd565b601f19821698835f52815f20995f5b818110610ea157509160049798999a91846001959410610e89575b505050811b019055610ad1565b01515f1960f88460031b161c191690555f8080610e7c565b838301518c556001909b019a60209384019301610e61565b825f5260205f20601f830160051c81019160208410610ef4575b601f0160051c01905b818110610ee95750610aa0565b5f8155600101610edc565b9091508190610ed3565b90607f1690610a8e565b015190505f80610a50565b5f8581528281209350601f198516905b818110610f5e5750908460019594939210610f46575b505050811b019055610a64565b01515f1960f88460031b161c191690555f8080610f39565b92936020600181928786015181550195019301610f23565b909150835f5260205f20601f840160051c81019160208510610fbc575b90601f859493920160051c01905b818110610fae5750610a3a565b5f8155849350600101610fa1565b9091508190610f93565b91607f1691610a26565b015190505f80610921565b601f19821698835f52815f20995f5b81811061102a57509160049798999a91846001959410611012575b505050811b019055610935565b01515f1960f88460031b161c191690555f8080611005565b838301518c556001909b019a60209384019301610fea565b825f5260205f20601f830160051c8101916020841061107d575b601f0160051c01905b8181106110725750610904565b5f8155600101611065565b909150819061105c565b90607f16906108f2565b015190505f806108b4565b5f8581528281209350601f198516905b8181106110e757509084600195949392106110cf575b505050811b0190556108c8565b01515f1960f88460031b161c191690555f80806110c2565b929360206001819287860151815501950193016110ac565b909150835f5260205f20601f840160051c81019160208510611145575b90601f859493920160051c01905b818110611137575061089e565b5f815584935060010161112a565b909150819061111c565b91607f169161088a565b015190505f8061077f565b601f19821698835f52815f20995f5b8181106111b357509160049798999a9184600195941061119b575b505050811b019055610793565b01515f1960f88460031b161c191690555f808061118e565b838301518c556001909b019a60209384019301611173565b825f5260205f20601f830160051c81019160208410611206575b601f0160051c01905b8181106111fb5750610762565b5f81556001016111ee565b90915081906111e5565b90607f1690610750565b015190505f80610712565b5f8581528281209350601f198516905b8181106112705750908460019594939210611258575b505050811b019055610726565b01515f1960f88460031b161c191690555f808061124b565b92936020600181928786015181550195019301611235565b909150835f5260205f20601f840160051c810191602085106112ce575b90601f859493920160051c01905b8181106112c057506106fc565b5f81558493506001016112b3565b90915081906112a5565b91607f16916106e8565b015190505f806105d9565b601f19821698835f52815f20995f5b81811061133c57509160049798999a91846001959410611324575b505050811b0190556105ed565b01515f1960f88460031b161c191690555f8080611317565b838301518c556001909b019a602093840193016112fc565b825f5260205f20601f830160051c8101916020841061138f575b601f0160051c01905b81811061138457506105bc565b5f8155600101611377565b909150819061136e565b90607f16906105aa565b015190505f8061056c565b5f8581528281209350601f198516905b8181106113f957509084600195949392106113e1575b505050811b019055610580565b01515f1960f88460031b161c191690555f80806113d4565b929360206001819287860151815501950193016113be565b909150835f5260205f20601f840160051c81019160208510611457575b90601f859493920160051c01905b8181106114495750610556565b5f815584935060010161143c565b909150819061142e565b91607f1691610542565b015190505f80610424565b601f19821698835f52815f20995f5b8181106114c557509160049798999a918460019594106114ad575b505050811b019055610438565b01515f1960f88460031b161c191690555f80806114a0565b838301518c556001909b019a60209384019301611485565b825f5260205f20601f830160051c81019160208410611518575b601f0160051c01905b81811061150d5750610407565b5f8155600101611500565b90915081906114f7565b90607f16906103f5565b015190505f806103b7565b5f8581528281209350601f198516905b818110611582575090846001959493921061156a575b505050811b0190556103cb565b01515f1960f88460031b161c191690555f808061155d565b92936020600181928786015181550195019301611547565b909150835f5260205f20601f840160051c810191602085106115e0575b90601f859493920160051c01905b8181106115d257506103a1565b5f81558493506001016115c5565b90915081906115b7565b91607f169161038d565b015190505f80610272565b601f19821693600e5f52805f20915f5b8681106116485750836001959610611630575b505050811b01600e55610287565b01515f1960f88460031b161c191690555f8080611622565b9192602060018192868501518155019401920161160f565b600e5f527fbb7b4a454dc3493923482f07822329ed19e8244eff582cc204f8554c3620c3fd601f830160051c810191602084106116b9575b601f0160051c01905b8181106116ae5750610258565b5f81556001016116a1565b9091508190611698565b90607f1690610246565b62461bcd60e51b815260206004820152601e60248201527f416368696576656d656e744e46543a20696e76616c6964207369676e657200006044820152606490fd5b631e4fbdf760e01b5f525f60045260245ffd5b015190505f806101a2565b601f1982169560015f52805f20915f5b88811061177857508360019596979810611760575b505050811b016001556101b7565b01515f1960f88460031b161c191690555f8080611752565b9192602060018192868501518155019401920161173d565b60015f527fb10e2d527612073b26eecdfd717e6a320cf44b4afac2b0732d9fcbe2b7fa0cf6601f830160051c810191602084106117e9575b601f0160051c01905b8181106117de5750610186565b5f81556001016117d1565b90915081906117c8565b90607f1690610174565b015190505f8061013f565b5f8080528281209350601f198516905b818110611853575090846001959493921061183b575b505050811b015f55610153565b01515f1960f88460031b161c191690555f808061182e565b92936020600181928786015181550195019301611818565b5f80529091507f290decd9548b62a8d60345a988386fc84ba6bc95484008f6362f93160ef3e563601f840160051c810191602085106118ce575b90601f859493920160051c01905b8181106118c05750610129565b5f81558493506001016118b3565b90915081906118a5565b91607f1691610115565b5f80fd5b6040519060c082016001600160401b03811183821017610d5757604052565b6040519190601f01601f191682016001600160401b03811183821017610d575760405256fe6080806040526004361015610011575b005b5f3560e01c90816301ffc9a7146111735750806306fdde03146110d1578063081812fc14611095578063095ea7b314610fab5780630cf524b914610f5757806318160ddd14610f3a578063238ac93314610f1257806323b872dd14610efb57806327aed72e14610e9c5780632f745c5914610e755780633ccfd60b14610dec5780633f4ba83a14610d7e57806342842e0e14610d4f5780634c34938514610d255780634f6ccce714610cd757806355f804b314610ae65780635722fdfa14610acc5780635c975abb14610aa75780636352211e14610a7757806364e4b8c214610a5a578063677c7e321461096a578063688d89031461090d5780636c0360eb146108f25780636c19e7831461083a57806370a0823114610817578063715018a6146107bc5780638456cb591461075b578063852424ae1461072c5780638da5cb5b1461070457806395d89b411461063a5780639ce67bdd1461055f578063a22cb465146104ab578063aa599a8f14610450578063b88d4fde146103e4578063c2dce576146103ae578063c87b56dd146102f9578063d9a23a6d146102d8578063e985e9c514610281578063f2fde38b146101fb5763f91cc013146101d157005b346101f75760203660031901126101f75760206101ef60043561211a565b604051908152f35b5f80fd5b346101f75760203660031901126101f757610214611236565b61021c61225d565b6001600160a01b0316801561026e57600b80546001600160a01b0319811683179091556001600160a01b03167f8be0079c531659141344cd1fd0a4f28419497f9722a3daafe3b4186f6b6457e05f80a3005b631e4fbdf760e01b5f525f60045260245ffd5b346101f75760403660031901126101f75761029a611236565b6102a261124c565b9060018060a01b03165f52600560205260405f209060018060a01b03165f52602052602060ff60405f2054166040519015158152f35b346101f75760203660031901126101f7576102f161225d565b600435600f55005b346101f75760203660031901126101f7576103aa6020610396600160043561032081612166565b50805f52601384528360405f205491818061034b61034561033f611324565b96612381565b93612381565b9260405198868a9751918291018489015e8601908282015f8152815193849201905e010190602f60f81b82528051928391018583015e015f838201520301601f198101835282611302565b604051918291602083526020830190611212565b0390f35b346101f75760403660031901126101f7576004355f52601160205260405f206024355f52602052602060405f2054604051908152f35b346101f75760803660031901126101f7576103fd611236565b61040561124c565b906044356064359267ffffffffffffffff84116101f757366023850112156101f75761043e61000f9436906024816004013591016114ea565b9261044a838383611de3565b33612284565b346101f75760603660031901126101f75760043561046c61225d565b6001811015806104a0575b61048090611d40565b5f9081526010602052604090206024356003820155604435600490910155005b506006811115610477565b346101f75760403660031901126101f7576104c4611236565b602435908115158092036101f757331561054c576001600160a01b031690811561053957335f52600560205260405f20825f5260205260405f2060ff1981541660ff83161790556040519081527f17307eab39ab6107e8899845ad3d59bd9653f200f220920489ca2b5937696c3160203392a3005b50630b61174360e31b5f5260045260245ffd5b63a9fbf51f60e01b5f525f60045260245ffd5b346101f75760203660031901126101f757610578611236565b610581816120d1565b9061058b82612102565b916105996040519384611302565b8083526105a581612102565b602084019290601f19013684375f5b8281106105ff578385604051918291602083019060208452518091526040830191905f5b8181106105e6575050500390f35b82518452859450602093840193909201916001016105d8565b610609818361206b565b9085518110156106265760019160208260051b88010152016105b4565b634e487b7160e01b5f52603260045260245ffd5b346101f7575f3660031901126101f7576040515f60015461065a816112ca565b80845290600181169081156106e05750600114610682575b6103aa8361039681850382611302565b60015f9081527fb10e2d527612073b26eecdfd717e6a320cf44b4afac2b0732d9fcbe2b7fa0cf6939250905b8082106106c657509091508101602001610396610672565b9192600181602092548385880101520191019092916106ae565b60ff191660208086019190915291151560051b840190910191506103969050610672565b346101f7575f3660031901126101f757600b546040516001600160a01b039091168152602090f35b346101f75760203660031901126101f7576004355f526012602052602060ff60405f2054166040519015158152f35b346101f7575f3660031901126101f75761077361225d565b61077b61219a565b600b805460ff60a01b1916600160a01b1790556040513381527f62e78cea01bee320cd4e420270b5ea74000d11b0c9f74754ebdbfc544b05a25890602090a1005b346101f7575f3660031901126101f7576107d461225d565b600b80546001600160a01b031981169091555f906001600160a01b03167f8be0079c531659141344cd1fd0a4f28419497f9722a3daafe3b4186f6b6457e08280a3005b346101f75760203660031901126101f75760206101ef610835611236565b6120d1565b346101f75760203660031901126101f757610853611236565b61085b61225d565b6001600160a01b031680156108ad57600d80546001600160a01b0319811683179091556001600160a01b03167f2d025324f0a785e8c12d0a0d91a9caa49df4ef20ff87e0df7213a1d4f3157beb5f80a3005b60405162461bcd60e51b815260206004820152601e60248201527f416368696576656d656e744e46543a20696e76616c6964207369676e657200006044820152606490fd5b346101f7575f3660031901126101f7576103aa610396611324565b346101f75760203660031901126101f7576004355f52601060205260405f2080546103aa6003830154600484015490610954600261094d600188016113c8565b96016113c8565b604051958560ff80899860081c16911687611466565b60803660031901126101f75760443567ffffffffffffffff81116101f757610996903690600401611262565b9060643567ffffffffffffffff81116101f7576109b7903690600401611262565b90916109c161219a565b60418203610a0457816020116101f757823590826040116101f757602084013592604010156106265760209460406101ef95013560f81c91602435600435611520565b60405162461bcd60e51b815260206004820152602860248201527f416368696576656d656e744e46543a20696e76616c6964207369676e617475726044820152670ca40d8cadccee8d60c31b6064820152608490fd5b346101f7575f3660031901126101f7576020600f54604051908152f35b346101f75760203660031901126101f7576020610a95600435612166565b6040516001600160a01b039091168152f35b346101f7575f3660031901126101f757602060ff600b5460a01c166040519015158152f35b346101f7575f3660031901126101f75760206101ef6121b8565b346101f75760203660031901126101f75760043567ffffffffffffffff81116101f757366023820112156101f757610b289036906024816004013591016114ea565b610b3061225d565b805167ffffffffffffffff8111610cc357610b4c600e546112ca565b601f8111610c5b575b506020601f8211600114610bc9579181610bb9927f6741b2fc379fad678116fe3d4d4b9a1a184ab53ba36b86ad0fa66340b1ab41ad945f91610bbe575b508160011b915f199060031b1c191617600e55604051918291602083526020830190611212565b0390a1005b905082015185610b92565b601f19821690600e5f525f5160206124475f395f51905f52915f5b818110610c435750927f6741b2fc379fad678116fe3d4d4b9a1a184ab53ba36b86ad0fa66340b1ab41ad949260019282610bb99610610c2b575b5050811b01600e55610396565b8401515f1960f88460031b161c191690558580610c1e565b91926020600181928689015181550194019201610be4565b600e5f52601f820160051c5f5160206124475f395f51905f52019060208310610cae575b601f0160051c5f5160206124475f395f51905f5201905b818110610ca35750610b55565b5f8155600101610c96565b5f5160206124475f395f51905f529150610c7f565b634e487b7160e01b5f52604160045260245ffd5b346101f75760203660031901126101f757600435600954811015610d0f57610d006020916120b9565b90549060031b1c604051908152f35b63295f44f760e21b5f525f60045260245260445ffd5b346101f75760203660031901126101f7576004355f526013602052602060405f2054604051908152f35b346101f75761000f610d6036611290565b9060405192610d70602085611302565b5f845261044a838383611de3565b346101f7575f3660031901126101f757610d9661225d565b600b5460ff8160a01c1615610ddd5760ff60a01b1916600b556040513381527f5db9ee0a495bf2e6ff9c91a7834c1ba4fdd244a5e8aa4e537bd38aeae4b073aa90602090a1005b638dfc202b60e01b5f5260045ffd5b346101f7575f3660031901126101f757610e0461225d565b5f8080804760018060a01b03600b54165af1610e1e611db4565b5015610e2657005b60405162461bcd60e51b815260206004820152602160248201527f416368696576656d656e744e46543a207769746864726177616c206661696c656044820152601960fa1b6064820152608490fd5b346101f75760403660031901126101f75760206101ef610e93611236565b6024359061206b565b346101f75760203660031901126101f7576004355f52601060205260405f2080546103aa610ecc600184016113c8565b92610ed9600282016113c8565b906004600382015491015491604051958560ff80899860081c16911687611466565b346101f75761000f610f0c36611290565b91611de3565b346101f7575f3660031901126101f757600d546040516001600160a01b039091168152602090f35b346101f7575f3660031901126101f7576020600954604051908152f35b60c03660031901126101f75760443567ffffffffffffffff81116101f757610f83903690600401611262565b6064359060ff821682036101f7576020926101ef9260a4359260843592602435600435611520565b346101f75760403660031901126101f757610fc4611236565b602435610fd081612166565b33151580611082575b80611055575b6110425781906001600160a01b0384811691167f8c5be1e5ebec7d5bd14f71427d1e84f3dd0314c0f7b2291e5b200ac8c7c3b9255f80a45f90815260046020526040902080546001600160a01b0319166001600160a01b03909216919091179055005b63a9fbf51f60e01b5f523360045260245ffd5b506001600160a01b0381165f90815260056020908152604080832033845290915290205460ff1615610fdf565b506001600160a01b038116331415610fd9565b346101f75760203660031901126101f7576004356110b281612166565b505f526004602052602060018060a01b0360405f205416604051908152f35b346101f7575f3660031901126101f7576040515f5f546110f0816112ca565b80845290600181169081156106e05750600114611117576103aa8361039681850382611302565b5f8080527f290decd9548b62a8d60345a988386fc84ba6bc95484008f6362f93160ef3e563939250905b80821061115957509091508101602001610396610672565b919260018160209254838588010152019101909291611141565b346101f75760203660031901126101f7576004359063ffffffff60e01b82168092036101f75760209163780e9d6360e01b81149081156111b5575b5015158152f35b632483248360e11b8114915081156111cf575b50836111ae565b6380ac58cd60e01b811491508115611201575b81156111f0575b50836111c8565b6301ffc9a760e01b149050836111e9565b635b5e139f60e01b811491506111e2565b805180835260209291819084018484015e5f828201840152601f01601f1916010190565b600435906001600160a01b03821682036101f757565b602435906001600160a01b03821682036101f757565b9181601f840112156101f75782359167ffffffffffffffff83116101f757602083818601950101116101f757565b60609060031901126101f7576004356001600160a01b03811681036101f757906024356001600160a01b03811681036101f7579060443590565b90600182811c921680156112f8575b60208310146112e457565b634e487b7160e01b5f52602260045260245ffd5b91607f16916112d9565b90601f8019910116810190811067ffffffffffffffff821117610cc357604052565b604051905f82600e5491611337836112ca565b80835292600181169081156113a9575060011461135d575b61135b92500383611302565b565b50600e5f90815290915f5160206124475f395f51905f525b81831061138d57505090602061135b9282010161134f565b6020919350806001915483858901015201910190918492611375565b6020925061135b94915060ff191682840152151560051b82010161134f565b9060405191825f8254926113db846112ca565b80845293600181169081156114445750600114611400575b5061135b92500383611302565b90505f9291925260205f20905f915b81831061142857505090602061135b928201015f6113f3565b602091935080600191548385890101520191019091849261140f565b90506020925061135b94915060ff191682840152151560051b8201015f6113f3565b929193909695949660068110156114ba57835260048410156114ba576114a26114b09260a095602086015260c0604086015260c0850190611212565b908382036060850152611212565b9460808201520152565b634e487b7160e01b5f52602160045260245ffd5b67ffffffffffffffff8111610cc357601f01601f191660200190565b9291926114f6826114ce565b916115046040519384611302565b8294818452818301116101f7578281602093845f960137010152565b939694969291909261153061219a565b600185101580611d35575b61154490611d40565b845f52601060205260405f2096600488019889543410611ce457600f5461156b8188611d8c565b4211611c955761157b9087611d99565b4210611c40576115896121b8565b98895f52601160205260405f20885f52602052600360405f20549101541115611bed576020925f92608092604051868101903360601b9a8b83528c60348301526054820152898960748301376115f26074828c81018a838201520301601f198101835282611302565b5190207f19457468657265756d205369676e6564204d6573736167653a0a3332000000008652601c5260ff603c86209360405194855216868401526040830152606082015282805260015afa15611be2575f51600d546001600160a01b03908116911603611b9357602060346116869284604051958692858401988952848401378101878382015203018084520182611302565b519020805f52601260205260ff60405f205416611b4e575f52601260205260405f20600160ff198254161790556116be600c54611da6565b9081600c55602093604051956116d48688611302565b5f87523315611b3b575f8481526002875260409020546001600160a01b0316801597908815611b0a575b33988915908115611af3575b875f5260028a5260405f208b6bffffffffffffffffffffffff60a01b825416179055878b847fddf252ad1be2c89b69c2b068fc378daa952ba7f163c4a11628f55a4df523b3ef5f80a415611a7d57600954875f52600a8a528060405f2055600160401b811015610cc357876117888260016117a094016009556120b9565b90919082549060031b91821b915f19901b1916179055565b15611a3b576009545f198101908111611a2757865f52600a89526117c860405f2054916120b9565b90549060031b1c6117dc81611788846120b9565b5f52600a895260405f2055855f52600a88525f60408120556009548015611a13575f1901611809816120b9565b8154905f199060031b1b191690556009555b6001600160a01b0316611a0057333b61190d575b5090919280949596505f52601386528260405f2055815f526011865260405f20835f52865260405f206118628154611da6565b9055548034116118a3575b508293946040519283528201527fd32938dacaf2816ad02f9be453d83d9ba88fa8eb05ce09229c7fc174168086a760403392a390565b5f80806118b1819434611d99565b335af16118bc611db4565b50156118c8575f61186d565b60405162461bcd60e51b815260048101869052601d60248201527f416368696576656d656e744e46543a20726566756e64206661696c65640000006044820152606490fd5b866119469160405180938192630a85bd0160e11b83528c60048401525f6024840152896044840152608060648401526084830190611212565b03815f8c5af15f91816119c0575b50611982578787611963611db4565b805191908261197f5783633250574960e11b5f5260045260245ffd5b01fd5b630a85bd0160e198929394959697981b9063ffffffff60e01b16036119ae57509085949392915f61182f565b633250574960e11b5f5260045260245ffd5b9091508781813d83116119f9575b6119d88183611302565b810103126101f757516001600160e01b0319811681036101f757905f611954565b503d6119ce565b6339e3563760e11b5f525f60045260245ffd5b634e487b7160e01b5f52603160045260245ffd5b634e487b7160e01b5f52601160045260245ffd5b80891461181b57611a4b336120d1565b5f198101908111611a2757895f526007895260405f20815f5289528660405f2055865f526008895260405f205561181b565b818a146117a057611a8d826120d1565b875f5260088a5260405f205490835f5260078b5260405f2091818103611acb575b50885f5260088b525f60408120555f5289525f60408120556117a0565b815f52828c5260405f2054815f52838d528060405f20555f5260088c5260405f20555f611aae565b8a5f5260038a5260405f206001815401905561170a565b5f8681526004602052604080822080546001600160a01b031916905582825260038a52902080545f190190556116fe565b633250574960e11b5f525f60045260245ffd5b60405162461bcd60e51b815260206004820152601f60248201527f416368696576656d656e744e46543a20616c726561647920636c61696d6564006044820152606490fd5b60405162461bcd60e51b815260206004820152602160248201527f416368696576656d656e744e46543a20696e76616c6964207369676e617475726044820152606560f81b6064820152608490fd5b6040513d5f823e3d90fd5b60405162461bcd60e51b815260206004820152602560248201527f416368696576656d656e744e46543a206d6f6e74686c79206c696d69742072656044820152641858da195960da1b6064820152608490fd5b60405162461bcd60e51b815260206004820152602760248201527f416368696576656d656e744e46543a207369676e6174757265206e6f742079656044820152661d081d985b1a5960ca1b6064820152608490fd5b60405162461bcd60e51b815260206004820152602160248201527f416368696576656d656e744e46543a207369676e6174757265206578706972656044820152601960fa1b6064820152608490fd5b60405162461bcd60e51b8152602060048201526024808201527f416368696576656d656e744e46543a20696e73756666696369656e74207061796044820152631b595b9d60e21b6064820152608490fd5b50600685111561153b565b15611d4757565b60405162461bcd60e51b815260206004820152601c60248201527f416368696576656d656e744e46543a20696e76616c69642074797065000000006044820152606490fd5b91908201809211611a2757565b91908203918211611a2757565b5f198114611a275760010190565b3d15611dde573d90611dc5826114ce565b91611dd36040519384611302565b82523d5f602084013e565b606090565b9091906001600160a01b0383168015611b3b575f838152600260205260409020546001600160a01b03169333151580611fdb575b5084158015611fa8575b825f52600360205260405f2060018154019055845f52600260205260405f20836bffffffffffffffffffffffff60a01b8254161790558483877fddf252ad1be2c89b69c2b068fc378daa952ba7f163c4a11628f55a4df523b3ef5f80a415611f2b57600954845f52600a6020528060405f2055600160401b811015610cc35784611788826001611eb494016009556120b9565b818503611eeb575b50506001600160a01b0316808303611ed357505050565b6364283d7b60e01b5f5260045260245260445260645ffd5b611ef4906120d1565b5f19810191908211611a27575f52600760205260405f20815f526020528260405f2055825f52600860205260405f20555f80611ebc565b848214611eb457611f3b856120d1565b845f52600860205260405f205490865f52600760205260405f2091818103611f7d575b50855f5260086020525f60408120555f526020525f6040812055611eb4565b815f528260205260405f2054815f52836020528060405f20555f52600860205260405f20555f611f5e565b5f85815260046020526040902080546001600160a01b0319169055855f52600360205260405f205f198154019055611e21565b8061201a575b15611fec575f611e17565b838561200457637e27328960e01b5f5260045260245ffd5b63177e802f60e01b5f523360045260245260445ffd5b503385148015612049575b80611fe157505f848152600460205260409020546001600160a01b03163314611fe1565b505f85815260056020908152604080832033845290915290205460ff16612025565b612074816120d1565b82101561209c5760018060a01b03165f52600760205260405f20905f5260205260405f205490565b63295f44f760e21b5f5260018060a01b031660045260245260445ffd5b6009548110156106265760095f5260205f2001905f90565b6001600160a01b031680156120ef575f52600360205260405f205490565b6322718ad960e21b5f525f60045260245ffd5b67ffffffffffffffff8111610cc35760051b60200190565b6121226121b8565b90805f52601060205260405f20915f52601160205260405f20905f52602052600360405f205491015490818110156121605761215d91611d99565b90565b50505f90565b5f818152600260205260409020546001600160a01b0316908115612188575090565b637e27328960e01b5f5260045260245ffd5b60ff600b5460a01c166121a957565b63d93c066560e01b5f5260045ffd5b62015180420461019081028181046101901482151715611a275762023ab1900490816107b20191826107b211611a2757828111611a275761016d81029080820461016d1490151715611a275761220d91611d99565b600c810290808204600c1490151715611a275761016d900460018101809111611a2757600c8111612255575b606482029180830460641490151715611a275761215d91611d8c565b50600c612239565b600b546001600160a01b0316330361227157565b63118cdaa760e01b5f523360045260245ffd5b823b612292575b5050505050565b604051630a85bd0160e11b81526001600160a01b0391821660048201529181166024830152604482019390935260806064820152911691602090829081906122de906084830190611212565b03815f865af15f918161233c575b5061231a57506122fa611db4565b805190816123155782633250574960e11b5f5260045260245ffd5b602001fd5b6001600160e01b03191663757a42ff60e11b016119ae57505f8080808061228b565b9091506020813d602011612379575b8161235860209383611302565b810103126101f757516001600160e01b0319811681036101f757905f6122ec565b3d915061234b565b8015612426575f81805b6124125750612399816114ce565b906123a76040519283611302565b808252601f196123b6826114ce565b013660208401375b8092801561240b575f198201918211611a27578193600a82066030019283603011611a27578451111561062657600a9260f81b6001600160f81b0319165f1a908401601f015304916123be565b5050905090565b9061241e600a91611da6565b91048061238b565b50604051612435604082611302565b60018152600360fc1b60208201529056febb7b4a454dc3493923482f07822329ed19e8244eff582cc204f8554c3620c3fda2646970667358221220c42bdcf2d4ef517a52477b54f8f74c3d67450891869c5eb06a01659c660bf7b264736f6c634300081b0033",
  "linkReferences": {},
  "deployedLinkReferences": {}
}