{
  "_format": "hh-sol-artifact-1",
  "contractName": "PokerHandINFT",
  "sourceName": "contracts/0g/PokerHandINFT.sol",
  "abi": [
    {
      "inputs": [],
      "stateMutability": "nonpayable",
      "type": "constructor"
    },
    {
      "anonymous": false,
      "inputs": [
        {
          "indexed": true,
          "internalType": "uint256",
          "name": "tokenId",
          "type": "uint256"
        },
        {
          "indexed": true,
          "internalType": "address",
          "name": "agentAddress",
          "type": "address"
        }
      ],
      "name": "AgentBound",
      "type": "event"
    },
    {
      "anonymous": false,
      "inputs": [
        {
          "indexed": true,
          "internalType": "uint256",
          "name": "tokenId",
          "type": "uint256"
        }
      ],
      "name": "AgentUnbound",
      "type": "event"
    },
    {
      "anonymous": false,
      "inputs": [
        {
          "indexed": true,
          "internalType": "address",
          "name": "owner",
          "type": "address"
        },
        {
          "indexed": true,
          "internalType": "address",
          "name": "approved",
          "type": "address"
        },
        {
          "indexed": true,
          "internalType": "uint256",
          "name": "tokenId",
          "type": "uint256"
        }
      ],
      "name": "Approval",
      "type": "event"
    },
    {
      "anonymous": false,
      "inputs": [
        {
          "indexed": true,
          "internalType": "address",
          "name": "owner",
          "type": "address"
        },
        {
          "indexed": true,
          "internalType": "address",
          "name": "operator",
          "type": "address"
        },
        {
          "indexed": false,
          "internalType": "bool",
          "name": "approved",
          "type": "bool"
        }
      ],
      "name": "ApprovalForAll",
      "type": "event"
    },
    {
      "anonymous": false,
      "inputs": [
        {
          "indexed": true,
          "internalType": "uint256",
          "name": "originalTokenId",
          "type": "uint256"
        },
        {
          "indexed": true,
          "internalType": "uint256",
          "name": "newTokenId",
          "type": "uint256"
        },
        {
          "indexed": true,
          "internalType": "address",
          "name": "owner",
          "type": "address"
        }
      ],
      "name": "Cloned",
      "type": "event"
    },
    {
      "anonymous": false,
      "inputs": [
        {
          "indexed": true,
          "internalType": "uint256",
          "name": "tokenId",
          "type": "uint256"
        },
        {
          "indexed": true,
          "internalType": "address",
          "name": "from",
          "type": "address"
        },
        {
          "indexed": true,
          "internalType": "address",
          "name": "to",
          "type": "address"
        }
      ],
      "name": "EncryptedTransferEvent",
      "type": "event"
    },
    {
      "anonymous": false,
      "inputs": [
        {
          "indexed": true,
          "internalType": "uint256",
          "name": "tokenId",
          "type": "uint256"
        },
        {
          "indexed": false,
          "internalType": "string",
          "name": "handType",
          "type": "string"
        },
        {
          "indexed": true,
          "internalType": "address",
          "name": "to",
          "type": "address"
        },
        {
          "indexed": false,
          "internalType": "string",
          "name": "storageRootHash",
          "type": "string"
        }
      ],
      "name": "PokerHandMinted",
      "type": "event"
    },
    {
      "anonymous": false,
      "inputs": [
        {
          "indexed": true,
          "internalType": "bytes32",
          "name": "role",
          "type": "bytes32"
        },
        {
          "indexed": true,
          "internalType": "bytes32",
          "name": "previousAdminRole",
          "type": "bytes32"
        },
        {
          "indexed": true,
          "internalType": "bytes32",
          "name": "newAdminRole",
          "type": "bytes32"
        }
      ],
      "name": "RoleAdminChanged",
      "type": "event"
    },
    {
      "anonymous": false,
      "inputs": [
        {
          "indexed": true,
          "internalType": "bytes32",
          "name": "role",
          "type": "bytes32"
        },
        {
          "indexed": true,
          "internalType": "address",
          "name": "account",
          "type": "address"
        },
        {
          "indexed": true,
          "internalType": "address",
          "name": "sender",
          "type": "address"
        }
      ],
      "name": "RoleGranted",
      "type": "event"
    },
    {
      "anonymous": false,
      "inputs": [
        {
          "indexed": true,
          "internalType": "bytes32",
          "name": "role",
          "type": "bytes32"
        },
        {
          "indexed": true,
          "internalType": "address",
          "name": "account",
          "type": "address"
        },
        {
          "indexed": true,
          "internalType": "address",
          "name": "sender",
          "type": "address"
        }
      ],
      "name": "RoleRevoked",
      "type": "event"
    },
    {
      "anonymous": false,
      "inputs": [
        {
          "indexed": true,
          "internalType": "address",
          "name": "from",
          "type": "address"
        },
        {
          "indexed": true,
          "internalType": "address",
          "name": "to",
          "type": "address"
        },
        {
          "indexed": true,
          "internalType": "uint256",
          "name": "tokenId",
          "type": "uint256"
        }
      ],
      "name": "Transfer",
      "type": "event"
    },
    {
      "inputs": [],
      "name": "DEFAULT_ADMIN_ROLE",
      "outputs": [
        {
          "internalType": "bytes32",
          "name": "",
          "type": "bytes32"
        }
      ],
      "stateMutability": "view",
      "type": "function"
    },
    {
      "inputs": [],
      "name": "MINTER_ROLE",
      "outputs": [
        {
          "internalType": "bytes32",
          "name": "",
          "type": "bytes32"
        }
      ],
      "stateMutability": "view",
      "type": "function"
    },
    {
      "inputs": [],
      "name": "TYPE_FLUSH",
      "outputs": [
        {
          "internalType": "uint256",
          "name": "",
          "type": "uint256"
        }
      ],
      "stateMutability": "view",
      "type": "function"
    },
    {
      "inputs": [],
      "name": "TYPE_FOUR_OF_A_KIND",
      "outputs": [
        {
          "internalType": "uint256",
          "name": "",
          "type": "uint256"
        }
      ],
      "stateMutability": "view",
      "type": "function"
    },
    {
      "inputs": [],
      "name": "TYPE_FULL_HOUSE",
      "outputs": [
        {
          "internalType": "uint256",
          "name": "",
          "type": "uint256"
        }
      ],
      "stateMutability": "view",
      "type": "function"
    },
    {
      "inputs": [],
      "name": "TYPE_ROYAL_FLUSH",
      "outputs": [
        {
          "internalType": "uint256",
          "name": "",
          "type": "uint256"
        }
      ],
      "stateMutability": "view",
      "type": "function"
    },
    {
      "inputs": [],
      "name": "TYPE_STRAIGHT",
      "outputs": [
        {
          "internalType": "uint256",
          "name": "",
          "type": "uint256"
        }
      ],
      "stateMutability": "view",
      "type": "function"
    },
    {
      "inputs": [],
      "name": "TYPE_STRAIGHT_FLUSH",
      "outputs": [
        {
          "internalType": "uint256",
          "name": "",
          "type": "uint256"
        }
      ],
      "stateMutability": "view",
      "type": "function"
    },
    {
      "inputs": [
        {
          "internalType": "address",
          "name": "to",
          "type": "address"
        },
        {
          "internalType": "uint256",
          "name": "tokenId",
          "type": "uint256"
        }
      ],
      "name": "approve",
      "outputs": [],
      "stateMutability": "nonpayable",
      "type": "function"
    },
    {
      "inputs": [
        {
          "internalType": "address",
          "name": "owner",
          "type": "address"
        }
      ],
      "name": "balanceOf",
      "outputs": [
        {
          "internalType": "uint256",
          "name": "",
          "type": "uint256"
        }
      ],
      "stateMutability": "view",
      "type": "function"
    },
    {
      "inputs": [
        {
          "internalType": "address",
          "name": "agent",
          "type": "address"
        }
      ],
      "name": "bindAgent",
      "outputs": [],
      "stateMutability": "nonpayable",
      "type": "function"
    },
    {
      "inputs": [
        {
          "internalType": "address",
          "name": "newOwner",
          "type": "address"
        }
      ],
      "name": "clone",
      "outputs": [
        {
          "internalType": "uint256",
          "name": "",
          "type": "uint256"
        }
      ],
      "stateMutability": "nonpayable",
      "type": "function"
    },
    {
      "inputs": [
        {
          "internalType": "address",
          "name": "to",
          "type": "address"
        },
        {
          "internalType": "bytes",
          "name": "encryptedMetadata",
          "type": "bytes"
        }
      ],
      "name": "encryptedTransfer",
      "outputs": [],
      "stateMutability": "nonpayable",
      "type": "function"
    },
    {
      "inputs": [
        {
          "internalType": "uint256",
          "name": "tokenId",
          "type": "uint256"
        }
      ],
      "name": "getApproved",
      "outputs": [
        {
          "internalType": "address",
          "name": "",
          "type": "address"
        }
      ],
      "stateMutability": "view",
      "type": "function"
    },
    {
      "inputs": [
        {
          "internalType": "uint256",
          "name": "typeId",
          "type": "uint256"
        }
      ],
      "name": "getCurrentMonthMintCount",
      "outputs": [
        {
          "internalType": "uint256",
          "name": "",
          "type": "uint256"
        }
      ],
      "stateMutability": "view",
      "type": "function"
    },
    {
      "inputs": [
        {
          "internalType": "uint256",
          "name": "tokenId",
          "type": "uint256"
        }
      ],
      "name": "getEncryptedMetadata",
      "outputs": [
        {
          "internalType": "bytes",
          "name": "",
          "type": "bytes"
        }
      ],
      "stateMutability": "view",
      "type": "function"
    },
    {
      "inputs": [
        {
          "internalType": "uint256",
          "name": "typeId",
          "type": "uint256"
        }
      ],
      "name": "getHandTypeInfo",
      "outputs": [
        {
          "internalType": "string",
          "name": "name",
          "type": "string"
        },
        {
          "internalType": "uint8",
          "name": "rarityLevel",
          "type": "uint8"
        },
        {
          "internalType": "uint256",
          "name": "monthlyLimit",
          "type": "uint256"
        },
        {
          "internalType": "bool",
          "name": "isClonable",
          "type": "bool"
        }
      ],
      "stateMutability": "view",
      "type": "function"
    },
    {
      "inputs": [
        {
          "internalType": "uint256",
          "name": "tokenId",
          "type": "uint256"
        }
      ],
      "name": "getPokerData",
      "outputs": [
        {
          "internalType": "string",
          "name": "handType",
          "type": "string"
        },
        {
          "internalType": "string",
          "name": "storageRootHash",
          "type": "string"
        },
        {
          "internalType": "string",
          "name": "metadataURI",
          "type": "string"
        },
        {
          "internalType": "uint256",
          "name": "timestamp",
          "type": "uint256"
        },
        {
          "internalType": "address",
          "name": "aiAgent",
          "type": "address"
        },
        {
          "internalType": "bool",
          "name": "isEncrypted",
          "type": "bool"
        }
      ],
      "stateMutability": "view",
      "type": "function"
    },
    {
      "inputs": [
        {
          "internalType": "bytes32",
          "name": "role",
          "type": "bytes32"
        }
      ],
      "name": "getRoleAdmin",
      "outputs": [
        {
          "internalType": "bytes32",
          "name": "",
          "type": "bytes32"
        }
      ],
      "stateMutability": "view",
      "type": "function"
    },
    {
      "inputs": [
        {
          "internalType": "uint256",
          "name": "tokenId",
          "type": "uint256"
        }
      ],
      "name": "getTokenCards",
      "outputs": [
        {
          "internalType": "string[]",
          "name": "",
          "type": "string[]"
        }
      ],
      "stateMutability": "view",
      "type": "function"
    },
    {
      "inputs": [
        {
          "internalType": "bytes32",
          "name": "role",
          "type": "bytes32"
        },
        {
          "internalType": "address",
          "name": "account",
          "type": "address"
        }
      ],
      "name": "grantRole",
      "outputs": [],
      "stateMutability": "nonpayable",
      "type": "function"
    },
    {
      "inputs": [
        {
          "internalType": "bytes32",
          "name": "role",
          "type": "bytes32"
        },
        {
          "internalType": "address",
          "name": "account",
          "type": "address"
        }
      ],
      "name": "hasRole",
      "outputs": [
        {
          "internalType": "bool",
          "name": "",
          "type": "bool"
        }
      ],
      "stateMutability": "view",
      "type": "function"
    },
    {
      "inputs": [
        {
          "internalType": "address",
          "name": "owner",
          "type": "address"
        },
        {
          "internalType": "address",
          "name": "operator",
          "type": "address"
        }
      ],
      "name": "isApprovedForAll",
      "outputs": [
        {
          "internalType": "bool",
          "name": "",
          "type": "bool"
        }
      ],
      "stateMutability": "view",
      "type": "function"
    },
    {
      "inputs": [
        {
          "internalType": "address",
          "name": "to",
          "type": "address"
        },
        {
          "internalType": "string",
          "name": "handType",
          "type": "string"
        },
        {
          "internalType": "string",
          "name": "storageRootHash",
          "type": "string"
        },
        {
          "internalType": "string",
          "name": "metadataURI",
          "type": "string"
        }
      ],
      "name": "mint",
      "outputs": [
        {
          "internalType": "uint256",
          "name": "",
          "type": "uint256"
        }
      ],
      "stateMutability": "nonpayable",
      "type": "function"
    },
    {
      "inputs": [
        {
          "internalType": "address",
          "name": "to",
          "type": "address"
        },
        {
          "internalType": "uint256",
          "name": "typeId",
          "type": "uint256"
        },
        {
          "internalType": "string[]",
          "name": "cards",
          "type": "string[]"
        },
        {
          "internalType": "string",
          "name": "storageRootHash",
          "type": "string"
        },
        {
          "internalType": "string",
          "name": "metadataURI",
          "type": "string"
        }
      ],
      "name": "mintWithCards",
      "outputs": [
        {
          "internalType": "uint256",
          "name": "",
          "type": "uint256"
        }
      ],
      "stateMutability": "nonpayable",
      "type": "function"
    },
    {
      "inputs": [
        {
          "internalType": "uint256",
          "name": "",
          "type": "uint256"
        },
        {
          "internalType": "uint256",
          "name": "",
          "type": "uint256"
        }
      ],
      "name": "monthlyMintCount",
      "outputs": [
        {
          "internalType": "uint256",
          "name": "",
          "type": "uint256"
        }
      ],
      "stateMutability": "view",
      "type": "function"
    },
    {
      "inputs": [],
      "name": "name",
      "outputs": [
        {
          "internalType": "string",
          "name": "",
          "type": "string"
        }
      ],
      "stateMutability": "view",
      "type": "function"
    },
    {
      "inputs": [
        {
          "internalType": "uint256",
          "name": "tokenId",
          "type": "uint256"
        }
      ],
      "name": "ownerOf",
      "outputs": [
        {
          "internalType": "address",
          "name": "",
          "type": "address"
        }
      ],
      "stateMutability": "view",
      "type": "function"
    },
    {
      "inputs": [
        {
          "internalType": "bytes32",
          "name": "role",
          "type": "bytes32"
        },
        {
          "internalType": "address",
          "name": "account",
          "type": "address"
        }
      ],
      "name": "renounceRole",
      "outputs": [],
      "stateMutability": "nonpayable",
      "type": "function"
    },
    {
      "inputs": [
        {
          "internalType": "bytes32",
          "name": "role",
          "type": "bytes32"
        },
        {
          "internalType": "address",
          "name": "account",
          "type": "address"
        }
      ],
      "name": "revokeRole",
      "outputs": [],
      "stateMutability": "nonpayable",
      "type": "function"
    },
    {
      "inputs": [
        {
          "internalType": "address",
          "name": "from",
          "type": "address"
        },
        {
          "internalType": "address",
          "name": "to",
          "type": "address"
        },
        {
          "internalType": "uint256",
          "name": "tokenId",
          "type": "uint256"
        }
      ],
      "name": "safeTransferFrom",
      "outputs": [],
      "stateMutability": "nonpayable",
      "type": "function"
    },
    {
      "inputs": [
        {
          "internalType": "address",
          "name": "from",
          "type": "address"
        },
        {
          "internalType": "address",
          "name": "to",
          "type": "address"
        },
        {
          "internalType": "uint256",
          "name": "tokenId",
          "type": "uint256"
        },
        {
          "internalType": "bytes",
          "name": "data",
          "type": "bytes"
        }
      ],
      "name": "safeTransferFrom",
      "outputs": [],
      "stateMutability": "nonpayable",
      "type": "function"
    },
    {
      "inputs": [
        {
          "internalType": "address",
          "name": "operator",
          "type": "address"
        },
        {
          "internalType": "bool",
          "name": "approved",
          "type": "bool"
        }
      ],
      "name": "setApprovalForAll",
      "outputs": [],
      "stateMutability": "nonpayable",
      "type": "function"
    },
    {
      "inputs": [
        {
          "internalType": "bytes4",
          "name": "interfaceId",
          "type": "bytes4"
        }
      ],
      "name": "supportsInterface",
      "outputs": [
        {
          "internalType": "bool",
          "name": "",
          "type": "bool"
        }
      ],
      "stateMutability": "view",
      "type": "function"
    },
    {
      "inputs": [],
      "name": "symbol",
      "outputs": [
        {
          "internalType": "string",
          "name": "",
          "type": "string"
        }
      ],
      "stateMutability": "view",
      "type": "function"
    },
    {
      "inputs": [
        {
          "internalType": "uint256",
          "name": "tokenId",
          "type": "uint256"
        }
      ],
      "name": "tokenURI",
      "outputs": [
        {
          "internalType": "string",
          "name": "",
          "type": "string"
        }
      ],
      "stateMutability": "view",
      "type": "function"
    },
    {
      "inputs": [
        {
          "internalType": "address",
          "name": "from",
          "type": "address"
        },
        {
          "internalType": "address",
          "name": "to",
          "type": "address"
        },
        {
          "internalType": "uint256",
          "name": "tokenId",
          "type": "uint256"
        }
      ],
      "name": "transferFrom",
      "outputs": [],
      "stateMutability": "nonpayable",
      "type": "function"
    },
    {
      "inputs": [],
      "name": "unbindAgent",
      "outputs": [],
      "stateMutability": "nonpayable",
      "type": "function"
    }
  ],
  "bytecode": "0x608060405234610d36576100136040610d59565b60128152710c11c8141bdad95c8812185b99081253919560721b602082015261003c6040610d59565b60078152661823a837b5b2b960c91b602082015281516001600160401b0381116107b3575f54600181811c91168015610d2c575b602082101461079557601f8111610cca575b50602092601f8211600114610c6b57928192935f92610c60575b50508160011b915f199060031b1c1916175f555b80516001600160401b0381116107b357600154600181811c91168015610c56575b602082101461079557601f8111610bf3575b50602091601f8211600114610b93579181925f92610b88575b50508160011b915f199060031b1c1916176001555b6001600755335f9081525f5160206144ff5f395f51905f52602052604090205460ff1615610b4b575b335f9081525f5160206144df5f395f51905f52602052604090205460ff1615610aec575b610166610d3a565b6101706040610d59565b600b81526a0a4def2c2d8408cd8eae6d60ab1b6020820152815260208101905f825260408101600a815260608201925f84525f8052600c60205260405f20925180519060018060401b0382116107b3578454600181811c91168015610ae2575b602082101461079557601f8111610a9d575b50602090601f8311600114610a4b579180610245979492600396945f926106db575b50508160011b915f1990871b1c19161785555b60ff6001860191511660ff1982541617905551600284015551151591019060ff801983541691151516179055565b61024d610d3a565b6102576040610d59565b600e81526d0a6e8e4c2d2ced0e8408cd8eae6d60931b60208201528152602081019060018252604081016032815260608201926001845260015f52600c60205260405f20925180519060018060401b0382116107b3578454600181811c91168015610a41575b602082101461079557601f81116109fc575b50602090601f83116001146109aa579180610330979492600396945f926106db5750508160011b915f1990871b1c191617855560ff6001860191511660ff1982541617905551600284015551151591019060ff801983541691151516179055565b610338610d3a565b6103426040610d59565b600e81526d119bdd5c881bd988184812da5b9960921b602082015281526020810190600282526040810160c8815260608201926001845260025f52600c60205260405f20925180519060018060401b0382116107b3578454600181811c911680156109a0575b602082101461079557601f811161095b575b50602090601f831160011461090957918061041b979492600396945f926106db5750508160011b915f1990871b1c191617855560ff6001860191511660ff1982541617905551600284015551151591019060ff801983541691151516179055565b610423610d3a565b61042d6040610d59565b600a81526946756c6c20486f75736560b01b60208201528152602081019060038252604081016101f4815260608201926001845260035f52600c60205260405f20925180519060018060401b0382116107b3578454600181811c911680156108ff575b602082101461079557601f81116108ba575b50602090601f8311600114610868579180610503979492600396945f926106db5750508160011b915f1990871b1c191617855560ff6001860191511660ff1982541617905551600284015551151591019060ff801983541691151516179055565b61050b610d3a565b6105156040610d59565b600581526408cd8eae6d60db1b60208201528152602081019060038252604081016103e8815260608201926001845260045f52600c60205260405f20925180519060018060401b0382116107b3578454600181811c9116801561085e575b602082101461079557601f8111610819575b50602090601f83116001146107c75791806105e6979492600396945f926106db5750508160011b915f1990871b1c191617855560ff6001860191511660ff1982541617905551600284015551151591019060ff801983541691151516179055565b6105ee610d3a565b6105f86040610d59565b600881526714dd1c985a59da1d60c21b60208201528152602081019060038252604081016107d0815260608201926001845260055f52600c60205260405f20925180519060018060401b0382116107b3578454600181811c911680156107a9575b602082101461079557601f8111610750575b50602090601f83116001146106e65791806106cc979492600396945f926106db5750508160011b915f1990871b1c191617855560ff6001860191511660ff1982541617905551600284015551151591019060ff801983541691151516179055565b6040516137409081610d7f8239f35b015190505f80610204565b90601f19831691865f52815f20925f5b8181106107385750926001928592600398966106cc9b989610610721575b505050811b018555610217565b01515f1983891b60f8161c191690555f8080610714565b929360206001819287860151815501950193016106f6565b855f5260205f20601f840160051c8101916020851061078b575b601f0160051c01905b818110610780575061066b565b5f8155600101610773565b909150819061076a565b634e487b7160e01b5f52602260045260245ffd5b90607f1690610659565b634e487b7160e01b5f52604160045260245ffd5b90601f19831691865f52815f20925f5b8181106108015750926001928592600398966105e69b98961061072157505050811b018555610217565b929360206001819287860151815501950193016107d7565b855f5260205f20601f840160051c81019160208510610854575b601f0160051c01905b8181106108495750610585565b5f815560010161083c565b9091508190610833565b90607f1690610573565b90601f19831691865f52815f20925f5b8181106108a25750926001928592600398966105039b98961061072157505050811b018555610217565b92936020600181928786015181550195019301610878565b855f5260205f20601f840160051c810191602085106108f5575b601f0160051c01905b8181106108ea57506104a2565b5f81556001016108dd565b90915081906108d4565b90607f1690610490565b90601f19831691865f52815f20925f5b81811061094357509260019285926003989661041b9b98961061072157505050811b018555610217565b92936020600181928786015181550195019301610919565b855f5260205f20601f840160051c81019160208510610996575b601f0160051c01905b81811061098b57506103ba565b5f815560010161097e565b9091508190610975565b90607f16906103a8565b90601f19831691865f52815f20925f5b8181106109e45750926001928592600398966103309b98961061072157505050811b018555610217565b929360206001819287860151815501950193016109ba565b855f5260205f20601f840160051c81019160208510610a37575b601f0160051c01905b818110610a2c57506102cf565b5f8155600101610a1f565b9091508190610a16565b90607f16906102bd565b90601f19831691865f52815f20925f5b818110610a855750926001928592600398966102459b98961061072157505050811b018555610217565b92936020600181928786015181550195019301610a5b565b855f5260205f20601f840160051c81019160208510610ad8575b601f0160051c01905b818110610acd57506101e2565b5f8155600101610ac0565b9091508190610ab7565b90607f16906101d0565b335f8181525f5160206144df5f395f51905f5260205260408120805460ff1916600117905581907f9f2df0fed2c77648de5860a4cc508cd0818c85b8b8a1ab4ceeef8d981c8956a6905f5160206144bf5f395f51905f529080a461015e565b335f8181525f5160206144ff5f395f51905f5260205260408120805460ff1916600117905581905f5160206144bf5f395f51905f528180a461013a565b015190505f806100fc565b601f1982169260015f52805f20915f5b858110610bdb57508360019510610bc3575b505050811b01600155610111565b01515f1960f88460031b161c191690555f8080610bb5565b91926020600181928685015181550194019201610ba3565b60015f527fb10e2d527612073b26eecdfd717e6a320cf44b4afac2b0732d9fcbe2b7fa0cf6601f830160051c81019160208410610c4c575b601f0160051c01905b818110610c4157506100e3565b5f8155600101610c34565b9091508190610c2b565b90607f16906100d1565b015190505f8061009c565b601f198216935f8052805f20915f5b868110610cb25750836001959610610c9a575b505050811b015f556100b0565b01515f1960f88460031b161c191690555f8080610c8d565b91926020600181928685015181550194019201610c7a565b5f80527f290decd9548b62a8d60345a988386fc84ba6bc95484008f6362f93160ef3e563601f830160051c81019160208410610d22575b601f0160051c01905b818110610d175750610082565b5f8155600101610d0a565b9091508190610d01565b90607f1690610070565b5f80fd5b60405190608082016001600160401b038111838210176107b357604052565b6040519190601f01601f191682016001600160401b038111838210176107b35760405256fe60c0806040526004361015610012575f80fd5b5f3560e01c9081630102ee33146127055750806301ffc9a71461267d57806306fdde03146125db578063081812fc146125bd578063095ea7b31461243757806312abc66f1461241c578063203d35761461240157806323b872dd146123dd578063248a9ca3146123b25780632f2ff15d146122f9578063330077a31461132a57806336568abe146122675780633dd2e9a21461221757806342842e0e146122005780634a0706be14611adc5780636352211e14611aac57806367c56a0f14611a7157806370a0823114611a46578063779dbbde14611a2b578063786ec4b814611a105780638124b78e1461145757806391d148541461140e57806395d89b4114611344578063a217fddf1461132a578063a22cb4651461125c578063a5ea1f2114611189578063b88d4fde14611104578063bc6e5c15146110ce578063bf3e58851461101e578063c42a9fb614610f3b578063c87b56dd14610e73578063c881ea67146106a2578063d539139314610668578063d547741f14610623578063dd9b2ae514610596578063e985e9c51461053f578063f834da0a146103d35763fcd48a24146101be575f80fd5b346103cf5760403660031901126103cf576101d7612742565b6024356001600160401b0381116103cf576101f69036906004016127a8565b919061020133612c0f565b15610397576001600160a01b03821692831561035e57610220336132a8565b92835f52600b60205260405f206001600160401b03831161034a5782610251869461024b8454612862565b84612a6f565b5f601f82116001146102df579080610282926102ac975f926102d4575b50508160011b915f199060031b1c19161790565b90555b5f828152600860205260409020600501805460ff60a01b1916600160a01b179055336129f7565b33907f5d4081c14ee1721e51dde8b5e46ce9667329da7b356f8c2070a700d7888b3c755f80a4005b013590505f8061026e565b94601f19821695835f5260205f20965f5b81811061032f5750916102ac9791846001959410610316575b505050811b019055610285565b01355f19600384901b60f8161c191690555f8080610309565b828401358955600190980197899750602092830192016102f0565b634e487b7160e01b5f52604160045260245ffd5b60405162461bcd60e51b8152602060048201526011602482015270125b9d985b1a59081c9958da5c1a595b9d607a1b6044820152606490fd5b60405162461bcd60e51b815260206004820152601060248201526f2737ba103a37b5b2b7103437b63232b960811b6044820152606490fd5b5f80fd5b346103cf5760203660031901126103cf576004355f818152600260205260409020546001600160a01b031615610503575f5260086020526104d360405f206040519061041e826127d5565b6040516104368161042f818561289a565b03826127f0565b825261044460018201612c84565b6020830152604051916104658361045e816002860161289a565b03846127f0565b604081019283526040516104808161042f816003870161289a565b8060608301526104ef60056004850154948560808601520154916104e160ff60018060a01b038516948560a088015260a01c161515948560c082015251965160405198899860c08a5260c08a019061271e565b9088820360208a015261271e565b90868203604088015261271e565b926060850152608084015260a08301520390f35b60405162461bcd60e51b8152602060048201526014602482015273151bdad95b88191bd95cc81b9bdd08195e1a5cdd60621b6044820152606490fd5b346103cf5760403660031901126103cf57610558612742565b610560612758565b9060018060a01b03165f52600560205260405f209060018060a01b03165f52602052602060ff60405f2054166040519015158152f35b346103cf5760203660031901126103cf576004355f52600d6020526105bd60405f20612c84565b6040518091602082016020835281518091526040830190602060408260051b8601019301915f905b8282106105f457505050500390f35b919360019193955060206106138192603f198a8203018652885161271e565b96019201920185949391926105e5565b346103cf5760403660031901126103cf57610666600435610642612758565b9061066161065c825f526006602052600160405f20015490565b61302d565b613071565b005b346103cf575f3660031901126103cf5760206040517f9f2df0fed2c77648de5860a4cc508cd0818c85b8b8a1ab4ceeef8d981c8956a68152f35b346103cf5760a03660031901126103cf576106bb612742565b602435906044356001600160401b0381116103cf57366023820112156103cf578060040135916001600160401b0383116103cf576024820160248460051b840101943686116103cf576064356001600160401b0381116103cf576107239036906004016127a8565b9290946084356001600160401b0381116103cf576107459036906004016127a8565b979098610750612f20565b60058511610e3c57600282101580610e31575b15610df7576007549899899061077882612a20565b600755610785828a613194565b865f52600c60205260405f209b6107ad6107a66040519e8f9182809261289a565b03906127f0565b604051916107ba836127d5565b8d83526107c686612a42565b946107d460405196876127f0565b8686528890602087015b818310610dab575050506020830194855261080d906107fe368c8f61282c565b9260408501938452369161282c565b60608301908152608083019142835260a08401955f875260c08501955f87525f52600860205260405f2094518051906001600160401b03821161034a5761085e826108588954612862565b89612a6f565b602090601f8311600114610d485761088c92915f9183610b955750508160011b915f199060031b1c19161790565b85555b60018501905160208151916108a48385612ab2565b01915f5260205f20915f905b828210610c7357505050506002840190518051906001600160401b03821161034a576108e6826108e08554612862565b85612a6f565b602090601f8311600114610c105761091492915f9183610b955750508160011b915f199060031b1c19161790565b90555b51805160038401916001600160401b03821161034a5761093b826108e08554612862565b602090601f8311600114610ba05782600595936109b59998979593610974935f92610b955750508160011b915f199060031b1c19161790565b90559695965b51600482015592519201805491516001600160a81b03199092166001600160a01b03939093169290921790151560a01b60ff60a01b16179055565b875f52600d60205260405f20926109cc8385612ab2565b925f5260205f20925f9160421981360301915b848410610a8f57505060208989817fc75293173a228519bdd31083bd413729a88aa2c3b992c7400c771f84036ec424610a6c8f610a848e8e8e84518b8601205f5260098b52610a318860405f20612b43565b610a39613148565b5f52600a8b5260405f20905f528a5260405f20610a568154612a20565b905560405194859460408652604086019061271e565b8481038b8601526001600160a01b0390921697612b7e565b0390a3604051908152f35b8035838112156103cf5782016024810135906001600160401b0382116103cf5781360360448201136103cf57610acf82610ac98a54612862565b8a612a6f565b5f90601f8311600114610b235792610b04836001959460209487965f92610b135750508160011b915f199060031b1c19161790565b89555b019601930192946109df565b0185016024013590505f8061026e565b601f19831691895f5260205f20925f5b818110610b7a5750936020936001969387969383889510610b5c575b505050811b018955610b07565b018501602401355f19600384901b60f8161c191690555f8080610b4f565b60448484010135855560019094019360209283019201610b33565b015190505f8061026e565b90601f19831691845f52815f20925f5b818110610bf85750926001928592600598966109b59c9b9a989610610be0575b505050811b01905596959661097a565b01515f1960f88460031b161c191690555f8080610bd0565b92936020600181928786015181550195019301610bb0565b90601f19831691845f52815f20925f5b818110610c5b5750908460019594939210610c43575b505050811b019055610917565b01515f1960f88460031b161c191690555f8080610c36565b92936020600181928786015181550195019301610c20565b80518051906001600160401b03821161034a57610c9a82610c948854612862565b88612a6f565b602090601f8311600114610cdf5792610cd0836001959460209487965f92610b955750508160011b915f199060031b1c19161790565b87555b019401910190926108b0565b90601f19831691875f52815f20925f5b818110610d305750936020936001969387969383889510610d18575b505050811b018755610cd3565b01515f1960f88460031b161c191690555f8080610d0b565b92936020600181928786015181550195019301610cef565b90601f19831691885f52815f20925f5b818110610d935750908460019594939210610d7b575b505050811b01855561088f565b01515f1960f88460031b161c191690555f8080610d6e565b92936020600181928786015181550195019301610d58565b9091809394959650356001600160401b0381116103cf578901366043820112156103cf57602091610de78392369060446024820135910161282c565b8152019201908e959493926107de565b60405162461bcd60e51b8152602060048201526012602482015271125b9d985b1a590818d85c990818dbdd5b9d60721b6044820152606490fd5b506007821115610763565b60405162461bcd60e51b815260206004820152600f60248201526e125b9d985b1a59081d1e5c19481251608a1b6044820152606490fd5b346103cf5760203660031901126103cf576004355f818152600260205260409020546001600160a01b031615610ede575f526008602052610eda61042f610ec6600360405f20016040519283809261289a565b60405191829160208352602083019061271e565b0390f35b60405162461bcd60e51b815260206004820152602f60248201527f4552433732314d657461646174613a2055524920717565727920666f72206e6f60448201526e3732bc34b9ba32b73a103a37b5b2b760891b6064820152608490fd5b346103cf5760203660031901126103cf576001600160a01b03610f5c612742565b168015610fe157610f76610f6f33612c0f565b1515612ce1565b610f7f336132a8565b610f9b336001600160a01b03610f9484612bea565b16146129b9565b5f81815260086020526040812060050180546001600160a01b031916841790557f1cfbc005935637e3f8ed3af97b1a87af94cf9a9f0c163e570e5ed7bd3446903a9080a3005b60405162461bcd60e51b8152602060048201526015602482015274496e76616c6964206167656e74206164647265737360581b6044820152606490fd5b346103cf5760203660031901126103cf576004355f52600c60205260405f206040519060808201918083106001600160401b0384111761034a576110ba9260405260606040519261107a84611073818461289a565b03856127f0565b83835260ff6001820154169283602082015260ff60036002840154938460408501520154161515928391015260405194859460808652608086019061271e565b926020850152604084015260608301520390f35b346103cf5760403660031901126103cf576004355f52600a60205260405f206024355f52602052602060405f2054604051908152f35b346103cf5760803660031901126103cf5761111d612742565b611125612758565b90606435906044356001600160401b0383116103cf57366023840112156103cf576106669361116161118494369060248160040135910161282c565b9261117461116f8433612d2d565b612957565b61117f838383612dfc565b6134cd565b613396565b346103cf575f3660031901126103cf576111a5610f6f33612c0f565b6111ae336132a8565b6111c3336001600160a01b03610f9484612bea565b5f818152600860205260409020600501546001600160a01b031615611226575f81815260086020526040812060050180546001600160a01b03191690557fd3ffff4beb5d819451adb4e8e366d2c3e6699c02a7849ed0ce73a893a27732669080a2005b60405162461bcd60e51b815260206004820152600e60248201526d139bc81859d95b9d08189bdd5b9960921b6044820152606490fd5b346103cf5760403660031901126103cf57611275612742565b602435908115158092036103cf576001600160a01b0316903382146112e557335f52600560205260405f20825f5260205260405f2060ff1981541660ff83161790556040519081527f17307eab39ab6107e8899845ad3d59bd9653f200f220920489ca2b5937696c3160203392a3005b60405162461bcd60e51b815260206004820152601960248201527f4552433732313a20617070726f766520746f2063616c6c6572000000000000006044820152606490fd5b346103cf575f3660031901126103cf5760206040515f8152f35b346103cf575f3660031901126103cf576040515f60015461136481612862565b80845290600181169081156113ea575060011461138c575b610eda83610ec6818503826127f0565b60015f9081527fb10e2d527612073b26eecdfd717e6a320cf44b4afac2b0732d9fcbe2b7fa0cf6939250905b8082106113d057509091508101602001610ec661137c565b9192600181602092548385880101520191019092916113b8565b60ff191660208086019190915291151560051b84019091019150610ec6905061137c565b346103cf5760403660031901126103cf57611427612758565b6004355f52600660205260405f209060018060a01b03165f52602052602060ff60405f2054166040519015158152f35b346103cf5760203660031901126103cf57611470612742565b6001600160a01b0381169081156119db5761148a336132a8565b90815f52600860205260405f20926040516114a4816127d5565b6040516114b58161042f818961289a565b81526114c360018601612c84565b94602082019586526040516114df8161042f816002860161289a565b6040830190815260ff600560405193611506856114ff816003850161289a565b03866127f0565b6060860194855260048101546080870152015460018060a01b03811660a086015260a01c16151560c084015261153c83516130f2565b5f52600c60205260ff600360405f20015416156119965761156c600754809661156482612a20565b600755613194565b82519651905191519660405190611582826127d5565b81526020810191825260408101928352606081019788526080810142815260a08201935f855260c08301935f8552885f52600860205260405f2093518051906001600160401b03821161034a576115dd82610c948854612862565b602090601f83116001146119335761160b92915f91836119285750508160011b915f199060031b1c19161790565b84555b60018401905160208151916116238385612ab2565b01915f5260205f20915f905b82821061185957505050506002830190518051906001600160401b03821161034a5761165f826108e08554612862565b602090601f83116001146117f65761168d92915f91836117eb5750508160011b915f199060031b1c19161790565b90555b6003820198519889516001600160401b03811161034a5760209a6116b8826108e08554612862565b8b90601f831160011461177f57826005959361172d99989795936116f0935f926117745750508160011b915f199060031b1c19161790565b905551600482015592519201805491516001600160a81b03199092166001600160a01b03939093169290921790151560a01b60ff60a01b16179055565b518481519101205f52600984526117478260405f20612b43565b81604051937fae70533df440a7b44061c964ced6d9b99b31ab42e146ac886f34502284cd79fd5f80a48152f35b015190508f8061026e565b90601f19831691845f52815f20925f5b8181106117d457509260019285926005989661172d9c9b9a9896106117bc575b505050811b01905561097a565b01515f1960f88460031b161c191690558e80806117af565b92938f60018192878601518155019501930161178f565b015190508d8061026e565b90601f19831691845f52815f20925f5b8181106118415750908460019594939210611829575b505050811b019055611690565b01515f1960f88460031b161c191690558c808061181c565b92936020600181928786015181550195019301611806565b80518051906001600160401b03821161034a5761187a82610c948854612862565b602090601f83116001146118bf57926118b0836001959460209487965f92610b955750508160011b915f199060031b1c19161790565b87555b0194019101909261162f565b90601f19831691875f52815f20925f5b81811061191057509360209360019693879693838895106118f8575b505050811b0187556118b3565b01515f1960f88460031b161c191690555f80806118eb565b929360206001819287860151815501950193016118cf565b015190508e8061026e565b90601f19831691875f52815f20925f5b81811061197e5750908460019594939210611966575b505050811b01845561160e565b01515f1960f88460031b161c191690558d8080611959565b92936020600181928786015181550195019301611943565b60405162461bcd60e51b815260206004820152601a60248201527f5468697320747970652063616e6e6f7420626520636c6f6e65640000000000006044820152606490fd5b60405162461bcd60e51b815260206004820152600d60248201526c24b73b30b634b21037bbb732b960991b6044820152606490fd5b346103cf575f3660031901126103cf57602060405160048152f35b346103cf575f3660031901126103cf57602060405160018152f35b346103cf5760203660031901126103cf576020611a69611a64612742565b612c0f565b604051908152f35b346103cf5760203660031901126103cf57611a8a613148565b5f52600a60205260405f206004355f52602052602060405f2054604051908152f35b346103cf5760203660031901126103cf576020611aca600435612bea565b6040516001600160a01b039091168152f35b346103cf5760803660031901126103cf57611af5612742565b6024356001600160401b0381116103cf57611b149036906004016127a8565b91906044356001600160401b0381116103cf57611b359036906004016127a8565b9390926064356001600160401b0381116103cf57611b579036906004016127a8565b90611b60612f20565b6001600160a01b038316156121bb57831561218257611b88611b8336868861282c565b6130f2565b5f19811461214957611b98613148565b805f52600a60205260405f20825f5260205260405f20611bb88154612a20565b90555f52600a60205260405f20815f5260205260405f2054905f52600c602052600260405f200154106120f357600754608052611bf6608051612a20565b600755611c0560805184613194565b602060a081905260405191611c5a91611c1e90846127f0565b5f835260405193611c2e856127d5565b611c3936888a61282c565b855260a0518501938452611c4e368b8b61282c565b6040860152369161282c565b60608301524260808301525f60a08301525f60c08301526080515f52600860a0515260405f209082518051906001600160401b03821161034a57611ca882611ca28654612862565b86612a6f565b60a05190601f831160011461208d57611cd792915f9183611f485750508160011b915f199060031b1c19161790565b82555b5180516001830191611cec8284612ab2565b60a0515f9384528084209391015b828210611fb957505050506002810160408301518051906001600160401b03821161034a57611d2d826108e08554612862565b60a05190601f8311600114611f5357611d5c92915f9183611f485750508160011b915f199060031b1c19161790565b90555b60608201518051906001600160401b03821161034a57611d8f82611d866003860154612862565b60038601612a6f565b60a05190601f8311600114611eaa5760057fc75293173a228519bdd31083bd413729a88aa2c3b992c7400c771f84036ec42498979694611def85611e3c96611e99999660c0965f926117745750508160011b915f199060031b1c19161790565b60038201555b6080840151600482015560a08085015192909101805493909401516001600160a81b03199093166001600160a01b039290921691909117911515901b60ff60a01b16179055565b611e4736848661282c565b80519060a05101205f52600960a05152611e6660805160405f20612b43565b611e7d604051948594604086526040860191612b7e565b9083820360a05185015260018060a01b03169660805196612b7e565b0390a3604051608051815260a05190f35b90600384015f5260a0515f20915f5b601f1985168110611f2f57507fc75293173a228519bdd31083bd413729a88aa2c3b992c7400c771f84036ec42498979694600185611e99989560c095600595611e3c99601f19811610611f17575b505050811b016003820155611df5565b01515f1960f88460031b161c191690558e8080611f07565b81830151845560a0516001909401939283019201611eb9565b015190508b8061026e565b90601f19831691845f5260a0515f20925f5b818110611fa05750908460019594939210611f88575b505050811b019055611d5f565b01515f1960f88460031b161c191690558a8080611f7b565b82840151855560a0516001909501949384019301611f65565b80518051906001600160401b03821161034a57611fda82610c948854612862565b60a05190601f831160011461202157826001949293859461200f935f92610b955750508160011b915f199060031b1c19161790565b86555b60a05101940191019092611cfa565b90865f5260a0515f20915f5b601f198516811061207457509260019492859492859383601f1981161061205c575b505050811b018655612012565b01515f1960f88460031b161c191690558f808061204f565b81830151845560a051600190940193928301920161202d565b90601f19831691855f5260a0515f20925f5b8181106120da57509084600195949392106120c2575b505050811b018255611cda565b01515f1960f88460031b161c191690558a80806120b5565b82840151855560a051600190950194938401930161209f565b60405162461bcd60e51b815260206004820152602860248201527f4d6f6e74686c79206c696d6974207265616368656420666f7220746869732068604482015267616e64207479706560c01b6064820152608490fd5b60405162461bcd60e51b8152602060048201526011602482015270556e6b6e6f776e2068616e64207479706560781b6044820152606490fd5b60405162461bcd60e51b8152602060048201526011602482015270496e76616c69642068616e64207479706560781b6044820152606490fd5b60405162461bcd60e51b815260206004820152601b60248201527f43616e6e6f74206d696e7420746f207a65726f206164647265737300000000006044820152606490fd5b346103cf576106666122113661276e565b916129f7565b346103cf5760203660031901126103cf5760043561224761223782612bea565b6001600160a01b031633146129b9565b5f52600b602052610eda61042f610ec660405f206040519283809261289a565b346103cf5760403660031901126103cf57612280612758565b336001600160a01b0382160361229c5761066690600435613071565b60405162461bcd60e51b815260206004820152602f60248201527f416363657373436f6e74726f6c3a2063616e206f6e6c792072656e6f756e636560448201526e103937b632b9903337b91039b2b63360891b6064820152608490fd5b346103cf5760403660031901126103cf57600435612315612758565b9061232f61065c825f526006602052600160405f20015490565b805f52600660205260405f2060018060a01b0383165f5260205260ff60405f2054161561235857005b5f8181526006602090815260408083206001600160a01b0395909516808452949091528120805460ff19166001179055339291907f2f8788117e7eff1d82e926ec794901d17c78024a50270940304540a733656f0d9080a4005b346103cf5760203660031901126103cf576020611a696004355f526006602052600160405f20015490565b346103cf576106666123ee3661276e565b916123fc61116f8433612d2d565b612dfc565b346103cf575f3660031901126103cf57602060405160058152f35b346103cf575f3660031901126103cf57602060405160028152f35b346103cf5760403660031901126103cf57612450612742565b602435906001600160a01b0361246583612bea565b6001600160a01b03909216911681811461256e5780331490811561254a575b50156124df575f82815260046020526040902080546001600160a01b031916821790556001600160a01b036124b883612bea565b167f8c5be1e5ebec7d5bd14f71427d1e84f3dd0314c0f7b2291e5b200ac8c7c3b9255f80a4005b60405162461bcd60e51b815260206004820152603d60248201527f4552433732313a20617070726f76652063616c6c6572206973206e6f7420746f60448201527f6b656e206f776e6572206f7220617070726f76656420666f7220616c6c0000006064820152608490fd5b5f90815260056020908152604080832033845290915290205460ff16905083612484565b60405162461bcd60e51b815260206004820152602160248201527f4552433732313a20617070726f76616c20746f2063757272656e74206f776e656044820152603960f91b6064820152608490fd5b346103cf5760203660031901126103cf576020611aca60043561291b565b346103cf575f3660031901126103cf576040515f5f546125fa81612862565b80845290600181169081156113ea575060011461262157610eda83610ec6818503826127f0565b5f8080527f290decd9548b62a8d60345a988386fc84ba6bc95484008f6362f93160ef3e563939250905b80821061266357509091508101602001610ec661137c565b91926001816020925483858801015201910190929161264b565b346103cf5760203660031901126103cf5760043563ffffffff60e01b81168091036103cf57602090637965db0b60e01b81149081156126c2575b506040519015158152f35b6380ac58cd60e01b8114915081156126f4575b81156126e3575b50826126b7565b6301ffc9a760e01b149050826126dc565b635b5e139f60e01b811491506126d5565b346103cf575f3660031901126103cf5780600360209252f35b805180835260209291819084018484015e5f828201840152601f01601f1916010190565b600435906001600160a01b03821682036103cf57565b602435906001600160a01b03821682036103cf57565b60609060031901126103cf576004356001600160a01b03811681036103cf57906024356001600160a01b03811681036103cf579060443590565b9181601f840112156103cf578235916001600160401b0383116103cf57602083818601950101116103cf57565b60e081019081106001600160401b0382111761034a57604052565b90601f801991011681019081106001600160401b0382111761034a57604052565b6001600160401b03811161034a57601f01601f191660200190565b92919261283882612811565b9161284660405193846127f0565b8294818452818301116103cf578281602093845f960137010152565b90600182811c92168015612890575b602083101461287c57565b634e487b7160e01b5f52602260045260245ffd5b91607f1691612871565b5f92918154916128a983612862565b80835292600181169081156128fe57506001146128c557505050565b5f9081526020812093945091925b8383106128e4575060209250010190565b6001816020929493945483858701015201910191906128d3565b915050602093945060ff929192191683830152151560051b010190565b5f8181526002602052604090205461293d906001600160a01b03161515612b9e565b5f908152600460205260409020546001600160a01b031690565b1561295e57565b60405162461bcd60e51b815260206004820152602d60248201527f4552433732313a2063616c6c6572206973206e6f7420746f6b656e206f776e6560448201526c1c881bdc88185c1c1c9bdd9959609a1b6064820152608490fd5b156129c057565b60405162461bcd60e51b815260206004820152600f60248201526e2737ba103a37b5b2b71037bbb732b960891b6044820152606490fd5b612a1e926111849260405192612a0e6020856127f0565b5f845261117461116f8433612d2d565b565b5f198114612a2e5760010190565b634e487b7160e01b5f52601160045260245ffd5b6001600160401b03811161034a5760051b60200190565b818110612a64575050565b5f8155600101612a59565b9190601f8111612a7e57505050565b612a1e925f5260205f20906020601f840160051c83019310612aa8575b601f0160051c0190612a59565b9091508190612a9b565b90600160401b811161034a57815491818155828210612ad057505050565b5f5260205f2091820191015b818110612ae7575050565b80612af460019254612862565b80612b01575b5001612adc565b601f81118314612b1657505f81555b5f612afa565b612b3290825f5283601f60205f20920160051c82019101612a59565b805f525f6020812081835555612b10565b805490600160401b82101561034a5760018201808255821015612b6a575f5260205f200155565b634e487b7160e01b5f52603260045260245ffd5b908060209392818452848401375f828201840152601f01601f1916010190565b15612ba557565b60405162461bcd60e51b815260206004820152601860248201527f4552433732313a20696e76616c696420746f6b656e20494400000000000000006044820152606490fd5b5f908152600260205260409020546001600160a01b0316612c0c811515612b9e565b90565b6001600160a01b03168015612c2d575f52600360205260405f205490565b60405162461bcd60e51b815260206004820152602960248201527f4552433732313a2061646472657373207a65726f206973206e6f7420612076616044820152683634b21037bbb732b960b91b6064820152608490fd5b908154612c9081612a42565b92612c9e60405194856127f0565b81845260208401905f5260205f205f915b838310612cbc5750505050565b600160208192604051612cd38161042f818961289a565b815201920192019190612caf565b15612ce857565b60405162461bcd60e51b815260206004820152601760248201527f43616c6c6572206d757374206f776e206120746f6b656e0000000000000000006044820152606490fd5b906001600160a01b03612d3f82612bea565b6001600160a01b0390931692168281149291908315612d7f575b508215612d6557505090565b9091506001600160a01b0390612d7a9061291b565b161490565b9092505f52600560205260405f20815f5260205260ff60405f205416915f612d59565b15612da957565b60405162461bcd60e51b815260206004820152602560248201527f4552433732313a207472616e736665722066726f6d20696e636f72726563742060448201526437bbb732b960d91b6064820152608490fd5b90612e1d612e0984612bea565b6001600160a01b0393841693168314612da2565b6001600160a01b0316908115612ecf57612e49816001600160a01b03612e4286612bea565b1614612da2565b825f52600460205260405f206001600160601b0360a01b8154169055805f52600360205260405f205f198154019055815f52600360205260405f2060018154019055825f52600260205260405f20826001600160601b0360a01b8254161790557fddf252ad1be2c89b69c2b068fc378daa952ba7f163c4a11628f55a4df523b3ef5f80a4565b60405162461bcd60e51b8152602060048201526024808201527f4552433732313a207472616e7366657220746f20746865207a65726f206164646044820152637265737360e01b6064820152608490fd5b335f9081527f3195c024b2ddd6d9b8f6c836aa52f67fe69376c8903d009b80229b3ce4425f51602052604090205460ff1615612f5857565b61302960206130096011612f6b33613536565b603784612f977f9f2df0fed2c77648de5860a4cc508cd0818c85b8b8a1ab4ceeef8d981c8956a661361c565b6040519687947f416363657373436f6e74726f6c3a206163636f756e7420000000000000000000828701528051918291018587015e8401907001034b99036b4b9b9b4b733903937b6329607d1b84830152805192839101604883015e01015f838201520301601f1981018352826127f0565b60405162461bcd60e51b815260206004820152918291602483019061271e565b0390fd5b5f81815260066020908152604080832033845290915290205460ff16156130515750565b6020613009601161302993603784612f9761306b33613536565b9361361c565b805f52600660205260405f2060018060a01b0383165f5260205260ff60405f20541661309b575050565b5f8181526006602090815260408083206001600160a01b0395909516808452949091528120805460ff19169055339291907ff6391f5c32d9c69d2a47ea670b442974b53935d1edc7fd64eb21e047a839171b9080a4565b5f5b60058111156131045750505f1990565b805f52600c60205261042f61312260405f206040519283809261289a565b6020815191012082516020840120146131435761313e90612a20565b6130f4565b905090565b6301e1338042046107b28101809111612a2e576203f4806301e13380420604600181018111612a2e57606482029180830460641490151715612a2e57600190820101809111612a2e5790565b604051919060206131a581856127f0565b5f84526001600160a01b03821690811561326557918380926002612a1e97956131ed6131e7611184995f52600260205260018060a01b0360405f205416151590565b156136be565b5f8481526002602052604090205461320f906001600160a01b031615156131e7565b825f526003815260405f2060018154019055835f525260405f20816001600160601b0360a01b8254161790555f7fddf252ad1be2c89b69c2b068fc378daa952ba7f163c4a11628f55a4df523b3ef8180a46133b6565b6064906040519062461bcd60e51b825280600483015260248201527f4552433732313a206d696e7420746f20746865207a65726f20616464726573736044820152fd5b5f91600191600754925b8381106132fe5760405162461bcd60e51b815260206004820152601860248201527f546f6b656e206e6f7420666f756e6420617420696e64657800000000000000006044820152606490fd5b61330781612bea565b6001600160a01b03838116911614613322575b6001016132b2565b93801561333c57613334600191612a20565b94905061331a565b5090915050565b60809060208152603260208201527f4552433732313a207472616e7366657220746f206e6f6e20455243373231526560408201527131b2b4bb32b91034b6b83632b6b2b73a32b960711b60608201520190565b1561339d57565b60405162461bcd60e51b81528061302960048201613343565b91823b156134c5576133fb926020925f604051809681958294630a85bd0160e11b8452336004850152846024850152604484015260806064840152608483019061271e565b03926001600160a01b03165af15f9181613480575b5061346a573d15613463573d61342581612811565b9061343360405192836127f0565b81523d5f602083013e5b8051908161345e5760405162461bcd60e51b81528061302960048201613343565b602001fd5b606061343d565b6001600160e01b031916630a85bd0160e11b1490565b9091506020813d6020116134bd575b8161349c602093836127f0565b810103126103cf57516001600160e01b0319811681036103cf57905f613410565b3d915061348f565b505050600190565b919290803b1561351c576133fb935f60209460405196879586948593630a85bd0160e11b855233600486015260018060a01b03166024850152604484015260806064840152608483019061271e565b50505050600190565b908151811015612b6a570160200190565b613540602a612811565b9061354e60405192836127f0565b602a825261355c602a612811565b6020830190601f1901368237825115612b6a5760309053815160011015612b6a576078602183015360295b600181116135db57506135975790565b606460405162461bcd60e51b815260206004820152602060248201527f537472696e67733a20686578206c656e67746820696e73756666696369656e746044820152fd5b90600f81166010811015612b6a576f181899199a1a9b1b9c1cb0b131b232b360811b901a6136098385613525565b5360041c908015612a2e575f1901613587565b6136266042612811565b9061363460405192836127f0565b604282526136426042612811565b6020830190601f1901368237825115612b6a5760309053815160011015612b6a576078602183015360415b6001811161367d57506135975790565b90600f81166010811015612b6a576f181899199a1a9b1b9c1cb0b131b232b360811b901a6136ab8385613525565b5360041c908015612a2e575f190161366d565b156136c557565b60405162461bcd60e51b815260206004820152601c60248201527f4552433732313a20746f6b656e20616c7265616479206d696e746564000000006044820152606490fdfea26469706673582212201dfe951b62bf15389b0d6dda2741eae6a3babffafe9ce278ddb4aae3d046acf064736f6c634300081b00332f8788117e7eff1d82e926ec794901d17c78024a50270940304540a733656f0d3195c024b2ddd6d9b8f6c836aa52f67fe69376c8903d009b80229b3ce4425f5154cdd369e4e8a8515e52ca72ec816c2101831ad1f18bf44102ed171459c9b4f8",
  "linkReferences": {},
  "deployedLinkReferences": {}
}