{
  "_format": "hh-sol-artifact-1",
  "contractName": "PokerHandINFT",
  "sourceName": "contracts/0g/PokerHandINFT.sol",
  "abi": [
    {
      "inputs": [],
      "stateMutability": "nonpayable",
      "type": "constructor"
    },
    {
      "anonymous": false,
      "inputs": [
        {
          "indexed": true,
          "internalType": "uint256",
          "name": "tokenId",
          "type": "uint256"
        },
        {
          "indexed": true,
          "internalType": "address",
          "name": "agentAddress",
          "type": "address"
        }
      ],
      "name": "AgentBound",
      "type": "event"
    },
    {
      "anonymous": false,
      "inputs": [
        {
          "indexed": true,
          "internalType": "uint256",
          "name": "tokenId",
          "type": "uint256"
        }
      ],
      "name": "AgentUnbound",
      "type": "event"
    },
    {
      "anonymous": false,
      "inputs": [
        {
          "indexed": true,
          "internalType": "address",
          "name": "owner",
          "type": "address"
        },
        {
          "indexed": true,
          "internalType": "address",
          "name": "approved",
          "type": "address"
        },
        {
          "indexed": true,
          "internalType": "uint256",
          "name": "tokenId",
          "type": "uint256"
        }
      ],
      "name": "Approval",
      "type": "event"
    },
    {
      "anonymous": false,
      "inputs": [
        {
          "indexed": true,
          "internalType": "address",
          "name": "owner",
          "type": "address"
        },
        {
          "indexed": true,
          "internalType": "address",
          "name": "operator",
          "type": "address"
        },
        {
          "indexed": false,
          "internalType": "bool",
          "name": "approved",
          "type": "bool"
        }
      ],
      "name": "ApprovalForAll",
      "type": "event"
    },
    {
      "anonymous": false,
      "inputs": [
        {
          "indexed": true,
          "internalType": "uint256",
          "name": "originalTokenId",
          "type": "uint256"
        },
        {
          "indexed": true,
          "internalType": "uint256",
          "name": "newTokenId",
          "type": "uint256"
        },
        {
          "indexed": true,
          "internalType": "address",
          "name": "owner",
          "type": "address"
        }
      ],
      "name": "Cloned",
      "type": "event"
    },
    {
      "anonymous": false,
      "inputs": [
        {
          "indexed": true,
          "internalType": "uint256",
          "name": "tokenId",
          "type": "uint256"
        },
        {
          "indexed": true,
          "internalType": "address",
          "name": "from",
          "type": "address"
        },
        {
          "indexed": true,
          "internalType": "address",
          "name": "to",
          "type": "address"
        }
      ],
      "name": "EncryptedTransferEvent",
      "type": "event"
    },
    {
      "anonymous": false,
      "inputs": [
        {
          "indexed": true,
          "internalType": "uint256",
          "name": "tokenId",
          "type": "uint256"
        },
        {
          "indexed": false,
          "internalType": "string",
          "name": "handType",
          "type": "string"
        },
        {
          "indexed": true,
          "internalType": "address",
          "name": "to",
          "type": "address"
        },
        {
          "indexed": false,
          "internalType": "string",
          "name": "storageRootHash",
          "type": "string"
        }
      ],
      "name": "PokerHandMinted",
      "type": "event"
    },
    {
      "anonymous": false,
      "inputs": [
        {
          "indexed": true,
          "internalType": "bytes32",
          "name": "role",
          "type": "bytes32"
        },
        {
          "indexed": true,
          "internalType": "bytes32",
          "name": "previousAdminRole",
          "type": "bytes32"
        },
        {
          "indexed": true,
          "internalType": "bytes32",
          "name": "newAdminRole",
          "type": "bytes32"
        }
      ],
      "name": "RoleAdminChanged",
      "type": "event"
    },
    {
      "anonymous": false,
      "inputs": [
        {
          "indexed": true,
          "internalType": "bytes32",
          "name": "role",
          "type": "bytes32"
        },
        {
          "indexed": true,
          "internalType": "address",
          "name": "account",
          "type": "address"
        },
        {
          "indexed": true,
          "internalType": "address",
          "name": "sender",
          "type": "address"
        }
      ],
      "name": "RoleGranted",
      "type": "event"
    },
    {
      "anonymous": false,
      "inputs": [
        {
          "indexed": true,
          "internalType": "bytes32",
          "name": "role",
          "type": "bytes32"
        },
        {
          "indexed": true,
          "internalType": "address",
          "name": "account",
          "type": "address"
        },
        {
          "indexed": true,
          "internalType": "address",
          "name": "sender",
          "type": "address"
        }
      ],
      "name": "RoleRevoked",
      "type": "event"
    },
    {
      "anonymous": false,
      "inputs": [
        {
          "indexed": true,
          "internalType": "address",
          "name": "from",
          "type": "address"
        },
        {
          "indexed": true,
          "internalType": "address",
          "name": "to",
          "type": "address"
        },
        {
          "indexed": true,
          "internalType": "uint256",
          "name": "tokenId",
          "type": "uint256"
        }
      ],
      "name": "Transfer",
      "type": "event"
    },
    {
      "inputs": [],
      "name": "DEFAULT_ADMIN_ROLE",
      "outputs": [
        {
          "internalType": "bytes32",
          "name": "",
          "type": "bytes32"
        }
      ],
      "stateMutability": "view",
      "type": "function"
    },
    {
      "inputs": [],
      "name": "MINTER_ROLE",
      "outputs": [
        {
          "internalType": "bytes32",
          "name": "",
          "type": "bytes32"
        }
      ],
      "stateMutability": "view",
      "type": "function"
    },
    {
      "inputs": [],
      "name": "TYPE_FLUSH",
      "outputs": [
        {
          "internalType": "uint256",
          "name": "",
          "type": "uint256"
        }
      ],
      "stateMutability": "view",
      "type": "function"
    },
    {
      "inputs": [],
      "name": "TYPE_FOUR_OF_A_KIND",
      "outputs": [
        {
          "internalType": "uint256",
          "name": "",
          "type": "uint256"
        }
      ],
      "stateMutability": "view",
      "type": "function"
    },
    {
      "inputs": [],
      "name": "TYPE_FULL_HOUSE",
      "outputs": [
        {
          "internalType": "uint256",
          "name": "",
          "type": "uint256"
        }
      ],
      "stateMutability": "view",
      "type": "function"
    },
    {
      "inputs": [],
      "name": "TYPE_ROYAL_FLUSH",
      "outputs": [
        {
          "internalType": "uint256",
          "name": "",
          "type": "uint256"
        }
      ],
      "stateMutability": "view",
      "type": "function"
    },
    {
      "inputs": [],
      "name": "TYPE_STRAIGHT",
      "outputs": [
        {
          "internalType": "uint256",
          "name": "",
          "type": "uint256"
        }
      ],
      "stateMutability": "view",
      "type": "function"
    },
    {
      "inputs": [],
      "name": "TYPE_STRAIGHT_FLUSH",
      "outputs": [
        {
          "internalType": "uint256",
          "name": "",
          "type": "uint256"
        }
      ],
      "stateMutability": "view",
      "type": "function"
    },
    {
      "inputs": [
        {
          "internalType": "address",
          "name": "to",
          "type": "address"
        },
        {
          "internalType": "uint256",
          "name": "tokenId",
          "type": "uint256"
        }
      ],
      "name": "approve",
      "outputs": [],
      "stateMutability": "nonpayable",
      "type": "function"
    },
    {
      "inputs": [
        {
          "internalType": "address",
          "name": "owner",
          "type": "address"
        }
      ],
      "name": "balanceOf",
      "outputs": [
        {
          "internalType": "uint256",
          "name": "",
          "type": "uint256"
        }
      ],
      "stateMutability": "view",
      "type": "function"
    },
    {
      "inputs": [
        {
          "internalType": "address",
          "name": "agent",
          "type": "address"
        }
      ],
      "name": "bindAgent",
      "outputs": [],
      "stateMutability": "nonpayable",
      "type": "function"
    },
    {
      "inputs": [
        {
          "internalType": "address",
          "name": "newOwner",
          "type": "address"
        }
      ],
      "name": "clone",
      "outputs": [
        {
          "internalType": "uint256",
          "name": "",
          "type": "uint256"
        }
      ],
      "stateMutability": "nonpayable",
      "type": "function"
    },
    {
      "inputs": [
        {
          "internalType": "address",
          "name": "to",
          "type": "address"
        },
        {
          "internalType": "bytes",
          "name": "encryptedMetadata",
          "type": "bytes"
        }
      ],
      "name": "encryptedTransfer",
      "outputs": [],
      "stateMutability": "nonpayable",
      "type": "function"
    },
    {
      "inputs": [
        {
          "internalType": "uint256",
          "name": "tokenId",
          "type": "uint256"
        }
      ],
      "name": "getApproved",
      "outputs": [
        {
          "internalType": "address",
          "name": "",
          "type": "address"
        }
      ],
      "stateMutability": "view",
      "type": "function"
    },
    {
      "inputs": [
        {
          "internalType": "uint256",
          "name": "typeId",
          "type": "uint256"
        }
      ],
      "name": "getCurrentMonthMintCount",
      "outputs": [
        {
          "internalType": "uint256",
          "name": "",
          "type": "uint256"
        }
      ],
      "stateMutability": "view",
      "type": "function"
    },
    {
      "inputs": [
        {
          "internalType": "uint256",
          "name": "tokenId",
          "type": "uint256"
        }
      ],
      "name": "getEncryptedMetadata",
      "outputs": [
        {
          "internalType": "bytes",
          "name": "",
          "type": "bytes"
        }
      ],
      "stateMutability": "view",
      "type": "function"
    },
    {
      "inputs": [
        {
          "internalType": "uint256",
          "name": "typeId",
          "type": "uint256"
        }
      ],
      "name": "getHandTypeInfo",
      "outputs": [
        {
          "internalType": "string",
          "name": "name",
          "type": "string"
        },
        {
          "internalType": "uint8",
          "name": "rarityLevel",
          "type": "uint8"
        },
        {
          "internalType": "uint256",
          "name": "monthlyLimit",
          "type": "uint256"
        },
        {
          "internalType": "bool",
          "name": "isClonable",
          "type": "bool"
        }
      ],
      "stateMutability": "view",
      "type": "function"
    },
    {
      "inputs": [
        {
          "internalType": "uint256",
          "name": "tokenId",
          "type": "uint256"
        }
      ],
      "name": "getPokerData",
      "outputs": [
        {
          "internalType": "string",
          "name": "handType",
          "type": "string"
        },
        {
          "internalType": "string",
          "name": "storageRootHash",
          "type": "string"
        },
        {
          "internalType": "string",
          "name": "metadataURI",
          "type": "string"
        },
        {
          "internalType": "uint256",
          "name": "timestamp",
          "type": "uint256"
        },
        {
          "internalType": "address",
          "name": "aiAgent",
          "type": "address"
        },
        {
          "internalType": "bool",
          "name": "isEncrypted",
          "type": "bool"
        }
      ],
      "stateMutability": "view",
      "type": "function"
    },
    {
      "inputs": [
        {
          "internalType": "bytes32",
          "name": "role",
          "type": "bytes32"
        }
      ],
      "name": "getRoleAdmin",
      "outputs": [
        {
          "internalType": "bytes32",
          "name": "",
          "type": "bytes32"
        }
      ],
      "stateMutability": "view",
      "type": "function"
    },
    {
      "inputs": [
        {
          "internalType": "uint256",
          "name": "tokenId",
          "type": "uint256"
        }
      ],
      "name": "getTokenCards",
      "outputs": [
        {
          "internalType": "string[]",
          "name": "",
          "type": "string[]"
        }
      ],
      "stateMutability": "view",
      "type": "function"
    },
    {
      "inputs": [
        {
          "internalType": "bytes32",
          "name": "role",
          "type": "bytes32"
        },
        {
          "internalType": "address",
          "name": "account",
          "type": "address"
        }
      ],
      "name": "grantRole",
      "outputs": [],
      "stateMutability": "nonpayable",
      "type": "function"
    },
    {
      "inputs": [
        {
          "internalType": "bytes32",
          "name": "role",
          "type": "bytes32"
        },
        {
          "internalType": "address",
          "name": "account",
          "type": "address"
        }
      ],
      "name": "hasRole",
      "outputs": [
        {
          "internalType": "bool",
          "name": "",
          "type": "bool"
        }
      ],
      "stateMutability": "view",
      "type": "function"
    },
    {
      "inputs": [
        {
          "internalType": "address",
          "name": "owner",
          "type": "address"
        },
        {
          "internalType": "address",
          "name": "operator",
          "type": "address"
        }
      ],
      "name": "isApprovedForAll",
      "outputs": [
        {
          "internalType": "bool",
          "name": "",
          "type": "bool"
        }
      ],
      "stateMutability": "view",
      "type": "function"
    },
    {
      "inputs": [
        {
          "internalType": "address",
          "name": "to",
          "type": "address"
        },
        {
          "internalType": "string",
          "name": "handType",
          "type": "string"
        },
        {
          "internalType": "string",
          "name": "storageRootHash",
          "type": "string"
        },
        {
          "internalType": "string",
          "name": "metadataURI",
          "type": "string"
        }
      ],
      "name": "mint",
      "outputs": [
        {
          "internalType": "uint256",
          "name": "",
          "type": "uint256"
        }
      ],
      "stateMutability": "nonpayable",
      "type": "function"
    },
    {
      "inputs": [
        {
          "internalType": "address",
          "name": "to",
          "type": "address"
        },
        {
          "internalType": "uint256",
          "name": "typeId",
          "type": "uint256"
        },
        {
          "internalType": "string[]",
          "name": "cards",
          "type": "string[]"
        },
        {
          "internalType": "string",
          "name": "storageRootHash",
          "type": "string"
        },
        {
          "internalType": "string",
          "name": "metadataURI",
          "type": "string"
        }
      ],
      "name": "mintWithCards",
      "outputs": [
        {
          "internalType": "uint256",
          "name": "",
          "type": "uint256"
        }
      ],
      "stateMutability": "nonpayable",
      "type": "function"
    },
    {
      "inputs": [
        {
          "internalType": "uint256",
          "name": "",
          "type": "uint256"
        },
        {
          "internalType": "uint256",
          "name": "",
          "type": "uint256"
        }
      ],
      "name": "monthlyMintCount",
      "outputs": [
        {
          "internalType": "uint256",
          "name": "",
          "type": "uint256"
        }
      ],
      "stateMutability": "view",
      "type": "function"
    },
    {
      "inputs": [],
      "name": "name",
      "outputs": [
        {
          "internalType": "string",
          "name": "",
          "type": "string"
        }
      ],
      "stateMutability": "view",
      "type": "function"
    },
    {
      "inputs": [
        {
          "internalType": "uint256",
          "name": "tokenId",
          "type": "uint256"
        }
      ],
      "name": "ownerOf",
      "outputs": [
        {
          "internalType": "address",
          "name": "",
          "type": "address"
        }
      ],
      "stateMutability": "view",
      "type": "function"
    },
    {
      "inputs": [
        {
          "internalType": "bytes32",
          "name": "role",
          "type": "bytes32"
        },
        {
          "internalType": "address",
          "name": "account",
          "type": "address"
        }
      ],
      "name": "renounceRole",
      "outputs": [],
      "stateMutability": "nonpayable",
      "type": "function"
    },
    {
      "inputs": [
        {
          "internalType": "bytes32",
          "name": "role",
          "type": "bytes32"
        },
        {
          "internalType": "address",
          "name": "account",
          "type": "address"
        }
      ],
      "name": "revokeRole",
      "outputs": [],
      "stateMutability": "nonpayable",
      "type": "function"
    },
    {
      "inputs": [
        {
          "internalType": "address",
          "name": "from",
          "type": "address"
        },
        {
          "internalType": "address",
          "name": "to",
          "type": "address"
        },
        {
          "internalType": "uint256",
          "name": "tokenId",
          "type": "uint256"
        }
      ],
      "name": "safeTransferFrom",
      "outputs": [],
      "stateMutability": "nonpayable",
      "type": "function"
    },
    {
      "inputs": [
        {
          "internalType": "address",
          "name": "from",
          "type": "address"
        },
        {
          "internalType": "address",
          "name": "to",
          "type": "address"
        },
        {
          "internalType": "uint256",
          "name": "tokenId",
          "type": "uint256"
        },
        {
          "internalType": "bytes",
          "name": "data",
          "type": "bytes"
        }
      ],
      "name": "safeTransferFrom",
      "outputs": [],
      "stateMutability": "nonpayable",
      "type": "function"
    },
    {
      "inputs": [
        {
          "internalType": "address",
          "name": "operator",
          "type": "address"
        },
        {
          "internalType": "bool",
          "name": "approved",
          "type": "bool"
        }
      ],
      "name": "setApprovalForAll",
      "outputs": [],
      "stateMutability": "nonpayable",
      "type": "function"
    },
    {
      "inputs": [
        {
          "internalType": "bytes4",
          "name": "interfaceId",
          "type": "bytes4"
        }
      ],
      "name": "supportsInterface",
      "outputs": [
        {
          "internalType": "bool",
          "name": "",
          "type": "bool"
        }
      ],
      "stateMutability": "view",
      "type": "function"
    },
    {
      "inputs": [],
      "name": "symbol",
      "outputs": [
        {
          "internalType": "string",
          "name": "",
          "type": "string"
        }
      ],
      "stateMutability": "view",
      "type": "function"
    },
    {
      "inputs": [
        {
          "internalType": "uint256",
          "name": "tokenId",
          "type": "uint256"
        }
      ],
      "name": "tokenURI",
      "outputs": [
        {
          "internalType": "string",
          "name": "",
          "type": "string"
        }
      ],
      "stateMutability": "view",
      "type": "function"
    },
    {
      "inputs": [
        {
          "internalType": "address",
          "name": "from",
          "type": "address"
        },
        {
          "internalType": "address",
          "name": "to",
          "type": "address"
        },
        {
          "internalType": "uint256",
          "name": "tokenId",
          "type": "uint256"
        }
      ],
      "name": "transferFrom",
      "outputs": [],
      "stateMutability": "nonpayable",
      "type": "function"
    },
    {
      "inputs": [],
      "name": "unbindAgent",
      "outputs": [],
      "stateMutability": "nonpayable",
      "type": "function"
    }
  ],
  "bytecode": "0x608060405234610d36576100136040610d59565b60128152710c11c8141bdad95c8812185b99081253919560721b602082015261003c6040610d59565b60078152661823a837b5b2b960c91b602082015281516001600160401b0381116107b3575f54600181811c91168015610d2c575b602082101461079557601f8111610cca575b50602092601f8211600114610c6b57928192935f92610c60575b50508160011b915f199060031b1c1916175f555b80516001600160401b0381116107b357600154600181811c91168015610c56575b602082101461079557601f8111610bf3575b50602091601f8211600114610b93579181925f92610b88575b50508160011b915f199060031b1c1916176001555b6001600755335f9081525f51602061451b5f395f51905f52602052604090205460ff1615610b4b575b335f9081525f5160206144fb5f395f51905f52602052604090205460ff1615610aec575b610166610d3a565b6101706040610d59565b600b81526a0a4def2c2d8408cd8eae6d60ab1b6020820152815260208101905f825260408101600a815260608201925f84525f8052600c60205260405f20925180519060018060401b0382116107b3578454600181811c91168015610ae2575b602082101461079557601f8111610a9d575b50602090601f8311600114610a4b579180610245979492600396945f926106db575b50508160011b915f1990871b1c19161785555b60ff6001860191511660ff1982541617905551600284015551151591019060ff801983541691151516179055565b61024d610d3a565b6102576040610d59565b600e81526d0a6e8e4c2d2ced0e8408cd8eae6d60931b60208201528152602081019060018252604081016032815260608201926001845260015f52600c60205260405f20925180519060018060401b0382116107b3578454600181811c91168015610a41575b602082101461079557601f81116109fc575b50602090601f83116001146109aa579180610330979492600396945f926106db5750508160011b915f1990871b1c191617855560ff6001860191511660ff1982541617905551600284015551151591019060ff801983541691151516179055565b610338610d3a565b6103426040610d59565b600e81526d119bdd5c881bd988184812da5b9960921b602082015281526020810190600282526040810160c8815260608201926001845260025f52600c60205260405f20925180519060018060401b0382116107b3578454600181811c911680156109a0575b602082101461079557601f811161095b575b50602090601f831160011461090957918061041b979492600396945f926106db5750508160011b915f1990871b1c191617855560ff6001860191511660ff1982541617905551600284015551151591019060ff801983541691151516179055565b610423610d3a565b61042d6040610d59565b600a81526946756c6c20486f75736560b01b60208201528152602081019060038252604081016101f4815260608201926001845260035f52600c60205260405f20925180519060018060401b0382116107b3578454600181811c911680156108ff575b602082101461079557601f81116108ba575b50602090601f8311600114610868579180610503979492600396945f926106db5750508160011b915f1990871b1c191617855560ff6001860191511660ff1982541617905551600284015551151591019060ff801983541691151516179055565b61050b610d3a565b6105156040610d59565b600581526408cd8eae6d60db1b60208201528152602081019060038252604081016103e8815260608201926001845260045f52600c60205260405f20925180519060018060401b0382116107b3578454600181811c9116801561085e575b602082101461079557601f8111610819575b50602090601f83116001146107c75791806105e6979492600396945f926106db5750508160011b915f1990871b1c191617855560ff6001860191511660ff1982541617905551600284015551151591019060ff801983541691151516179055565b6105ee610d3a565b6105f86040610d59565b600881526714dd1c985a59da1d60c21b60208201528152602081019060038252604081016107d0815260608201926001845260055f52600c60205260405f20925180519060018060401b0382116107b3578454600181811c911680156107a9575b602082101461079557601f8111610750575b50602090601f83116001146106e65791806106cc979492600396945f926106db5750508160011b915f1990871b1c191617855560ff6001860191511660ff1982541617905551600284015551151591019060ff801983541691151516179055565b60405161375c9081610d7f8239f35b015190505f80610204565b90601f19831691865f52815f20925f5b8181106107385750926001928592600398966106cc9b989610610721575b505050811b018555610217565b01515f1983891b60f8161c191690555f8080610714565b929360206001819287860151815501950193016106f6565b855f5260205f20601f840160051c8101916020851061078b575b601f0160051c01905b818110610780575061066b565b5f8155600101610773565b909150819061076a565b634e487b7160e01b5f52602260045260245ffd5b90607f1690610659565b634e487b7160e01b5f52604160045260245ffd5b90601f19831691865f52815f20925f5b8181106108015750926001928592600398966105e69b98961061072157505050811b018555610217565b929360206001819287860151815501950193016107d7565b855f5260205f20601f840160051c81019160208510610854575b601f0160051c01905b8181106108495750610585565b5f815560010161083c565b9091508190610833565b90607f1690610573565b90601f19831691865f52815f20925f5b8181106108a25750926001928592600398966105039b98961061072157505050811b018555610217565b92936020600181928786015181550195019301610878565b855f5260205f20601f840160051c810191602085106108f5575b601f0160051c01905b8181106108ea57506104a2565b5f81556001016108dd565b90915081906108d4565b90607f1690610490565b90601f19831691865f52815f20925f5b81811061094357509260019285926003989661041b9b98961061072157505050811b018555610217565b92936020600181928786015181550195019301610919565b855f5260205f20601f840160051c81019160208510610996575b601f0160051c01905b81811061098b57506103ba565b5f815560010161097e565b9091508190610975565b90607f16906103a8565b90601f19831691865f52815f20925f5b8181106109e45750926001928592600398966103309b98961061072157505050811b018555610217565b929360206001819287860151815501950193016109ba565b855f5260205f20601f840160051c81019160208510610a37575b601f0160051c01905b818110610a2c57506102cf565b5f8155600101610a1f565b9091508190610a16565b90607f16906102bd565b90601f19831691865f52815f20925f5b818110610a855750926001928592600398966102459b98961061072157505050811b018555610217565b92936020600181928786015181550195019301610a5b565b855f5260205f20601f840160051c81019160208510610ad8575b601f0160051c01905b818110610acd57506101e2565b5f8155600101610ac0565b9091508190610ab7565b90607f16906101d0565b335f8181525f5160206144fb5f395f51905f5260205260408120805460ff1916600117905581907f9f2df0fed2c77648de5860a4cc508cd0818c85b8b8a1ab4ceeef8d981c8956a6905f5160206144db5f395f51905f529080a461015e565b335f8181525f51602061451b5f395f51905f5260205260408120805460ff1916600117905581905f5160206144db5f395f51905f528180a461013a565b015190505f806100fc565b601f1982169260015f52805f20915f5b858110610bdb57508360019510610bc3575b505050811b01600155610111565b01515f1960f88460031b161c191690555f8080610bb5565b91926020600181928685015181550194019201610ba3565b60015f527fb10e2d527612073b26eecdfd717e6a320cf44b4afac2b0732d9fcbe2b7fa0cf6601f830160051c81019160208410610c4c575b601f0160051c01905b818110610c4157506100e3565b5f8155600101610c34565b9091508190610c2b565b90607f16906100d1565b015190505f8061009c565b601f198216935f8052805f20915f5b868110610cb25750836001959610610c9a575b505050811b015f556100b0565b01515f1960f88460031b161c191690555f8080610c8d565b91926020600181928685015181550194019201610c7a565b5f80527f290decd9548b62a8d60345a988386fc84ba6bc95484008f6362f93160ef3e563601f830160051c81019160208410610d22575b601f0160051c01905b818110610d175750610082565b5f8155600101610d0a565b9091508190610d01565b90607f1690610070565b5f80fd5b60405190608082016001600160401b038111838210176107b357604052565b6040519190601f01601f191682016001600160401b038111838210176107b35760405256fe60c0806040526004361015610012575f80fd5b5f905f3560e01c9081630102ee33146127215750806301ffc9a71461269957806306fdde03146125f7578063081812fc146125d9578063095ea7b31461245357806312abc66f14612438578063203d35761461241d57806323b872dd146123f9578063248a9ca3146123ce5780632f2ff15d14612315578063330077a31461137657806336568abe146122835780633dd2e9a21461223357806342842e0e1461221c5780634a0706be14611afe5780636352211e14611ace57806367c56a0f14611a9357806370a0823114611a68578063779dbbde14611a4d578063786ec4b814611a325780638124b78e146114b757806391d148541461146e57806395d89b4114611390578063a217fddf14611376578063a22cb465146112a8578063a5ea1f21146111d5578063b88d4fde1461114e578063bc6e5c1514611118578063bf3e588514611054578063c42a9fb614610f71578063c87b56dd14610efb578063c881ea67146106ad578063d539139314610672578063d547741f1461062b578063dd9b2ae51461059d578063e985e9c514610545578063f834da0a146103d75763fcd48a24146101c0575f80fd5b346103d45760403660031901126103d4576101d961275e565b6024356001600160401b0381116103d2576101f89036906004016127c4565b9061020233612c2b565b1561039a576001600160a01b03831692831561036157610221336132c4565b92838652600b60205260408620906001600160401b03811161034d57908161025586949361024f845461287e565b84612a8b565b87601f82116001146102e3579080610286926102af978b926102d8575b50508160011b915f199060031b1c19161790565b90555b818652600860205260408620600501805460ff60a01b1916600160a01b17905533612a13565b33907f5d4081c14ee1721e51dde8b5e46ce9667329da7b356f8c2070a700d7888b3c758480a480f35b013590505f80610272565b828952602089209590601f1983168a5b8181106103325750916102af9791846001959410610319575b505050811b019055610289565b01355f19600384901b60f8161c191690555f808061030c565b828401358955600190980197899750602092830192016102f3565b634e487b7160e01b87526041600452602487fd5b60405162461bcd60e51b8152602060048201526011602482015270125b9d985b1a59081c9958da5c1a595b9d607a1b6044820152606490fd5b60405162461bcd60e51b815260206004820152601060248201526f2737ba103a37b5b2b7103437b63232b960811b6044820152606490fd5b825b80fd5b50346103d45760203660031901126103d4576004355f818152600260205260409020546001600160a01b03161561050957816040916104d9935260086020522060405190610424826127f1565b60405161043c8161043581856128b6565b038261280c565b825261044a60018201612ca0565b60208301526040519161046b8361046481600286016128b6565b038461280c565b604081019283526040516104868161043581600387016128b6565b8060608301526104f560056004850154948560808601520154916104e760ff60018060a01b038516948560a088015260a01c161515948560c082015251965160405198899860c08a5260c08a019061273a565b9088820360208a015261273a565b90868203604088015261273a565b926060850152608084015260a08301520390f35b60405162461bcd60e51b8152602060048201526014602482015273151bdad95b88191bd95cc81b9bdd08195e1a5cdd60621b6044820152606490fd5b50346103d45760403660031901126103d457604061056161275e565b9161056a612774565b9260018060a01b031681526005602052209060018060a01b03165f52602052602060ff60405f2054166040519015158152f35b50346103d45760203660031901126103d4576004358152600d6020526105c560408220612ca0565b906040519182916020830160208452825180915260408401602060408360051b870101940192905b8282106105fc57505050500390f35b9193600191939550602061061b8192603f198a8203018652885161273a565b96019201920185949391926105ed565b50346103d45760403660031901126103d45761066f60043561064b612774565b9061066a610665825f526006602052600160405f20015490565b613049565b61308d565b80f35b50346103d457806003193601126103d45760206040517f9f2df0fed2c77648de5860a4cc508cd0818c85b8b8a1ab4ceeef8d981c8956a68152f35b50346103d45760a03660031901126103d4576106c761275e565b906001600160401b03604435116103d4573660236044350112156103d4576001600160401b0360443560040135116103d45760246044356004013560051b604435010191368311610ef7576064356001600160401b0381116103d2576107319036906004016127c4565b6084929192356001600160401b038111610ef3576107539036906004016127c4565b61075e959195612f3c565b600560243511610ebc57600260443560040135101580610eab575b15610e71576107b9966007549661078f88612a3c565b60075561079c88876131b0565b6024358452600c6020526107c0604085206040519a8b80926128b6565b038a61280c565b604051906107cd826127f1565b8982526107df60443560040135612a5e565b926107ed604051948561280c565b6044356004810135855260240190602085015b818310610e2b5750505061082f906020830193845261082036888b612848565b94604084019586523691612848565b60608201908152608082019042825260a083019486865260c08401948786528b885260086020526040882094518051906001600160401b038211610e17576108818261087b895461287e565b89612a8b565b602090601f8311600114610db5576108af92918b9183610bcb5750508160011b915f199060031b1c19161790565b85555b6001850190519060208251926108c88484612ace565b019089526020892089915b838310610ccc57505050506002840190518051906001600160401b038211610cb85761090982610903855461287e565b85612a8b565b602090601f8311600114610c565761093792918a9183610bcb5750508160011b915f199060031b1c19161790565b90555b51805160038401916001600160401b038211610c425761095e82610903855461287e565b602090601f8311600114610bd65782600595936109d59998979593610997938c92610bcb5750508160011b915f199060031b1c19161790565b90555b51600482015592519201805491516001600160a81b03199092166001600160a01b03939093169290921790151560a01b60ff60a01b16179055565b848152600d602052604081206109f16044356004013582612ace565b81526020812060443536819003604219019083906024015b604435600401358210610abc5760208989817fc75293173a228519bdd31083bd413729a88aa2c3b992c7400c771f84036ec424610a998f610ab18e8e60408f85518c870120815260098c52610a6089838320612b5f565b610a68613164565b8152600a8c5281812060243582528c5220610a838154612a3c565b905560405194859460408652604086019061273a565b8481038b8601526001600160a01b0390921697612b9a565b0390a3604051908152f35b803583811215610bc757604435016024810135906001600160401b038211610bc3578136036044820113610bc357610afe82610af8885461287e565b88612a8b565b8690601f8311600114610b525792610b33836001959460209487968c92610b425750508160011b915f199060031b1c19161790565b87555b01940191019092610a09565b0185016024013590505f80610272565b8688526020882091601f198416895b818110610ba85750936020936001969387969383889510610b8a575b505050811b018755610b36565b018501602401355f19600384901b60f8161c191690555f8080610b7d565b60448484010135855560019094019360209283019201610b61565b8680fd5b8580fd5b015190505f80610272565b8389528189209190601f1984168a5b818110610c2a5750926001928592600598966109d59c9b9a989610610c12575b505050811b01905561099a565b01515f1960f88460031b161c191690555f8080610c05565b92936020600181928786015181550195019301610be5565b634e487b7160e01b88526041600452602488fd5b838a52818a209190601f1984168b5b818110610ca05750908460019594939210610c88575b505050811b01905561093a565b01515f1960f88460031b161c191690555f8080610c7b565b92936020600181928786015181550195019301610c65565b634e487b7160e01b89526041600452602489fd5b80518051906001600160401b038211610da157610cf382610ced865461287e565b86612a8b565b6020908d601f8411600114610d39578360019592946020948796610d2a9492610bcb5750508160011b915f199060031b1c19161790565b85555b019201920191906108d3565b9190601f198416868452828420935b818110610d895750936020936001969387969383889510610d71575b505050811b018555610d2d565b01515f1960f88460031b161c191690555f8080610d64565b92936020600181928786015181550195019301610d48565b634e487b7160e01b8d52604160045260248dfd5b878b52818b209190601f1984168c5b818110610dff5750908460019594939210610de7575b505050811b0185556108b2565b01515f1960f88460031b161c191690555f8080610dda565b92936020600181928786015181550195019301610dc4565b634e487b7160e01b8a52604160045260248afd5b82356001600160401b038111610e6d576044350136604382011215610e6d57602091610e6283923690604460248201359101612848565b815201920191610800565b8880fd5b60405162461bcd60e51b8152602060048201526012602482015271125b9d985b1a590818d85c990818dbdd5b9d60721b6044820152606490fd5b506007604435600401351115610779565b60405162461bcd60e51b815260206004820152600f60248201526e125b9d985b1a59081d1e5c19481251608a1b6044820152606490fd5b8480fd5b5080fd5b34610f6d576020366003190112610f6d576004355f90815260026020526040902054610f31906001600160a01b03161515612bba565b5f604051610f4060208261280c565b52610f69604051610f5260208261280c565b5f815260405191829160208352602083019061273a565b0390f35b5f80fd5b34610f6d576020366003190112610f6d576001600160a01b03610f9261275e565b16801561101757610fac610fa533612c2b565b1515612cfd565b610fb5336132c4565b610fd1336001600160a01b03610fca84612c06565b16146129d5565b5f81815260086020526040812060050180546001600160a01b031916841790557f1cfbc005935637e3f8ed3af97b1a87af94cf9a9f0c163e570e5ed7bd3446903a9080a3005b60405162461bcd60e51b8152602060048201526015602482015274496e76616c6964206167656e74206164647265737360581b6044820152606490fd5b34610f6d576020366003190112610f6d576004355f52600c60205260405f206040519060808201918083106001600160401b03841117611104576110f0926040526060604051926110b0846110a981846128b6565b038561280c565b83835260ff6001820154169283602082015260ff60036002840154938460408501520154161515928391015260405194859460808652608086019061273a565b926020850152604084015260608301520390f35b634e487b7160e01b5f52604160045260245ffd5b34610f6d576040366003190112610f6d576004355f52600a60205260405f206024355f52602052602060405f2054604051908152f35b34610f6d576080366003190112610f6d5761116761275e565b61116f612774565b90606435906044356001600160401b038311610f6d5736602384011215610f6d576111d3936111ab6111ce943690602481600401359101612848565b926111be6111b98433612d49565b612973565b6111c9838383612e18565b6134e9565b6133b2565b005b34610f6d575f366003190112610f6d576111f1610fa533612c2b565b6111fa336132c4565b61120f336001600160a01b03610fca84612c06565b5f818152600860205260409020600501546001600160a01b031615611272575f81815260086020526040812060050180546001600160a01b03191690557fd3ffff4beb5d819451adb4e8e366d2c3e6699c02a7849ed0ce73a893a27732669080a2005b60405162461bcd60e51b815260206004820152600e60248201526d139bc81859d95b9d08189bdd5b9960921b6044820152606490fd5b34610f6d576040366003190112610f6d576112c161275e565b60243590811515809203610f6d576001600160a01b03169033821461133157335f52600560205260405f20825f5260205260405f2060ff1981541660ff83161790556040519081527f17307eab39ab6107e8899845ad3d59bd9653f200f220920489ca2b5937696c3160203392a3005b60405162461bcd60e51b815260206004820152601960248201527f4552433732313a20617070726f766520746f2063616c6c6572000000000000006044820152606490fd5b34610f6d575f366003190112610f6d5760206040515f8152f35b34610f6d575f366003190112610f6d576040515f6001546113b08161287e565b808452906001811690811561144a57506001146113ec575b610f69836113d88185038261280c565b60405191829160208352602083019061273a565b60015f9081527fb10e2d527612073b26eecdfd717e6a320cf44b4afac2b0732d9fcbe2b7fa0cf6939250905b808210611430575090915081016020016113d86113c8565b919260018160209254838588010152019101909291611418565b60ff191660208086019190915291151560051b840190910191506113d890506113c8565b34610f6d576040366003190112610f6d57611487612774565b6004355f52600660205260405f209060018060a01b03165f52602052602060ff60405f2054166040519015158152f35b34610f6d576020366003190112610f6d576114d061275e565b6001600160a01b0381169081156119fd576114ea336132c4565b90815f52600860205260405f2092604051611504816127f1565b6040516115158161043581896128b6565b815261152360018601612ca0565b946020820195865260405161153f8161043581600286016128b6565b6040830190815260ff6005604051936115668561155f81600385016128b6565b038661280c565b6060860194855260048101546080870152015460018060a01b03811660a086015260a01c16151560c084015261159c835161310e565b5f52600c60205260ff600360405f20015416156119b8576115cc60075480966115c482612a3c565b6007556131b0565b825196519051915196604051906115e2826127f1565b81526020810191825260408101928352606081019788526080810142815260a08201935f855260c08301935f8552885f52600860205260405f2093518051906001600160401b0382116111045761163d82610af8885461287e565b602090601f83116001146119555761166b92915f918361194a5750508160011b915f199060031b1c19161790565b84555b60018401905160208151916116838385612ace565b01915f5260205f20915f905b82821061187b57505050506002830190518051906001600160401b038211611104576116bf82610903855461287e565b602090601f8311600114611818576116ed92915f918361180d5750508160011b915f199060031b1c19161790565b90555b6003820198519889516001600160401b0381116111045760209a61171882610903855461287e565b8b90601f83116001146117a25782600595936117509998979593610997935f926117975750508160011b915f199060031b1c19161790565b518481519101205f526009845261176a8260405f20612b5f565b81604051937fae70533df440a7b44061c964ced6d9b99b31ab42e146ac886f34502284cd79fd5f80a48152f35b015190508f80610272565b90601f19831691845f52815f20925f5b8181106117f65750926001928592600598966117509c9b9a9896106117de57505050811b01905561099a565b01515f1960f88460031b161c191690558e8080610c05565b92938f6001819287860151815501950193016117b2565b015190508d80610272565b90601f19831691845f52815f20925f5b818110611863575090846001959493921061184b575b505050811b0190556116f0565b01515f1960f88460031b161c191690558c808061183e565b92936020600181928786015181550195019301611828565b80518051906001600160401b0382116111045761189c82610af8885461287e565b602090601f83116001146118e157926118d2836001959460209487965f92610bcb5750508160011b915f199060031b1c19161790565b87555b0194019101909261168f565b90601f19831691875f52815f20925f5b818110611932575093602093600196938796938388951061191a575b505050811b0187556118d5565b01515f1960f88460031b161c191690555f808061190d565b929360206001819287860151815501950193016118f1565b015190508e80610272565b90601f19831691875f52815f20925f5b8181106119a05750908460019594939210611988575b505050811b01845561166e565b01515f1960f88460031b161c191690558d808061197b565b92936020600181928786015181550195019301611965565b60405162461bcd60e51b815260206004820152601a60248201527f5468697320747970652063616e6e6f7420626520636c6f6e65640000000000006044820152606490fd5b60405162461bcd60e51b815260206004820152600d60248201526c24b73b30b634b21037bbb732b960991b6044820152606490fd5b34610f6d575f366003190112610f6d57602060405160048152f35b34610f6d575f366003190112610f6d57602060405160018152f35b34610f6d576020366003190112610f6d576020611a8b611a8661275e565b612c2b565b604051908152f35b34610f6d576020366003190112610f6d57611aac613164565b5f52600a60205260405f206004355f52602052602060405f2054604051908152f35b34610f6d576020366003190112610f6d576020611aec600435612c06565b6040516001600160a01b039091168152f35b34610f6d576080366003190112610f6d57611b1761275e565b6024356001600160401b038111610f6d57611b369036906004016127c4565b91906044356001600160401b038111610f6d57611b579036906004016127c4565b9390926064356001600160401b038111610f6d57611b799036906004016127c4565b90611b82612f3c565b6001600160a01b038316156121d757831561219e57611baa611ba5368688612848565b61310e565b5f19811461216557611bba613164565b805f52600a60205260405f20825f5260205260405f20611bda8154612a3c565b90555f52600a60205260405f20815f5260205260405f2054905f52600c602052600260405f2001541061210f57600754608052611c18608051612a3c565b600755611c27608051846131b0565b602060a081905260405191611c7c91611c40908461280c565b5f835260405193611c50856127f1565b611c5b36888a612848565b855260a0518501938452611c70368b8b612848565b60408601523691612848565b60608301524260808301525f60a08301525f60c08301526080515f52600860a0515260405f209082518051906001600160401b03821161110457611cc482610ced865461287e565b60a05190601f83116001146120a957611cf392915f9183611f645750508160011b915f199060031b1c19161790565b82555b5180516001830191611d088284612ace565b60a0515f9384528084209391015b828210611fd557505050506002810160408301518051906001600160401b03821161110457611d4982610903855461287e565b60a05190601f8311600114611f6f57611d7892915f9183611f645750508160011b915f199060031b1c19161790565b90555b60608201518051906001600160401b03821161110457611dab82611da2600386015461287e565b60038601612a8b565b60a05190601f8311600114611ec65760057fc75293173a228519bdd31083bd413729a88aa2c3b992c7400c771f84036ec42498979694611e0b85611e5896611eb5999660c0965f926117975750508160011b915f199060031b1c19161790565b60038201555b6080840151600482015560a08085015192909101805493909401516001600160a81b03199093166001600160a01b039290921691909117911515901b60ff60a01b16179055565b611e63368486612848565b80519060a05101205f52600960a05152611e8260805160405f20612b5f565b611e99604051948594604086526040860191612b9a565b9083820360a05185015260018060a01b03169660805196612b9a565b0390a3604051608051815260a05190f35b90600384015f5260a0515f20915f5b601f1985168110611f4b57507fc75293173a228519bdd31083bd413729a88aa2c3b992c7400c771f84036ec42498979694600185611eb5989560c095600595611e5899601f19811610611f33575b505050811b016003820155611e11565b01515f1960f88460031b161c191690558e8080611f23565b81830151845560a0516001909401939283019201611ed5565b015190508b80610272565b90601f19831691845f5260a0515f20925f5b818110611fbc5750908460019594939210611fa4575b505050811b019055611d7b565b01515f1960f88460031b161c191690558a8080611f97565b82840151855560a0516001909501949384019301611f81565b80518051906001600160401b03821161110457611ff682610af8885461287e565b60a05190601f831160011461203d57826001949293859461202b935f92610bcb5750508160011b915f199060031b1c19161790565b86555b60a05101940191019092611d16565b90865f5260a0515f20915f5b601f198516811061209057509260019492859492859383601f19811610612078575b505050811b01865561202e565b01515f1960f88460031b161c191690558f808061206b565b81830151845560a0516001909401939283019201612049565b90601f19831691855f5260a0515f20925f5b8181106120f657509084600195949392106120de575b505050811b018255611cf6565b01515f1960f88460031b161c191690558a80806120d1565b82840151855560a05160019095019493840193016120bb565b60405162461bcd60e51b815260206004820152602860248201527f4d6f6e74686c79206c696d6974207265616368656420666f7220746869732068604482015267616e64207479706560c01b6064820152608490fd5b60405162461bcd60e51b8152602060048201526011602482015270556e6b6e6f776e2068616e64207479706560781b6044820152606490fd5b60405162461bcd60e51b8152602060048201526011602482015270496e76616c69642068616e64207479706560781b6044820152606490fd5b60405162461bcd60e51b815260206004820152601b60248201527f43616e6e6f74206d696e7420746f207a65726f206164647265737300000000006044820152606490fd5b34610f6d576111d361222d3661278a565b91612a13565b34610f6d576020366003190112610f6d5760043561226361225382612c06565b6001600160a01b031633146129d5565b5f52600b602052610f696104356113d860405f20604051928380926128b6565b34610f6d576040366003190112610f6d5761229c612774565b336001600160a01b038216036122b8576111d39060043561308d565b60405162461bcd60e51b815260206004820152602f60248201527f416363657373436f6e74726f6c3a2063616e206f6e6c792072656e6f756e636560448201526e103937b632b9903337b91039b2b63360891b6064820152608490fd5b34610f6d576040366003190112610f6d57600435612331612774565b9061234b610665825f526006602052600160405f20015490565b805f52600660205260405f2060018060a01b0383165f5260205260ff60405f2054161561237457005b5f8181526006602090815260408083206001600160a01b0395909516808452949091528120805460ff19166001179055339291907f2f8788117e7eff1d82e926ec794901d17c78024a50270940304540a733656f0d9080a4005b34610f6d576020366003190112610f6d576020611a8b6004355f526006602052600160405f20015490565b34610f6d576111d361240a3661278a565b916124186111b98433612d49565b612e18565b34610f6d575f366003190112610f6d57602060405160058152f35b34610f6d575f366003190112610f6d57602060405160028152f35b34610f6d576040366003190112610f6d5761246c61275e565b602435906001600160a01b0361248183612c06565b6001600160a01b03909216911681811461258a57803314908115612566575b50156124fb575f82815260046020526040902080546001600160a01b031916821790556001600160a01b036124d483612c06565b167f8c5be1e5ebec7d5bd14f71427d1e84f3dd0314c0f7b2291e5b200ac8c7c3b9255f80a4005b60405162461bcd60e51b815260206004820152603d60248201527f4552433732313a20617070726f76652063616c6c6572206973206e6f7420746f60448201527f6b656e206f776e6572206f7220617070726f76656420666f7220616c6c0000006064820152608490fd5b5f90815260056020908152604080832033845290915290205460ff169050836124a0565b60405162461bcd60e51b815260206004820152602160248201527f4552433732313a20617070726f76616c20746f2063757272656e74206f776e656044820152603960f91b6064820152608490fd5b34610f6d576020366003190112610f6d576020611aec600435612937565b34610f6d575f366003190112610f6d576040515f5f546126168161287e565b808452906001811690811561144a575060011461263d57610f69836113d88185038261280c565b5f8080527f290decd9548b62a8d60345a988386fc84ba6bc95484008f6362f93160ef3e563939250905b80821061267f575090915081016020016113d86113c8565b919260018160209254838588010152019101909291612667565b34610f6d576020366003190112610f6d5760043563ffffffff60e01b8116809103610f6d57602090637965db0b60e01b81149081156126de575b506040519015158152f35b6380ac58cd60e01b811491508115612710575b81156126ff575b50826126d3565b6301ffc9a760e01b149050826126f8565b635b5e139f60e01b811491506126f1565b34610f6d575f366003190112610f6d5780600360209252f35b805180835260209291819084018484015e5f828201840152601f01601f1916010190565b600435906001600160a01b0382168203610f6d57565b602435906001600160a01b0382168203610f6d57565b6060906003190112610f6d576004356001600160a01b0381168103610f6d57906024356001600160a01b0381168103610f6d579060443590565b9181601f84011215610f6d578235916001600160401b038311610f6d5760208381860195010111610f6d57565b60e081019081106001600160401b0382111761110457604052565b90601f801991011681019081106001600160401b0382111761110457604052565b6001600160401b03811161110457601f01601f191660200190565b9291926128548261282d565b91612862604051938461280c565b829481845281830111610f6d578281602093845f960137010152565b90600182811c921680156128ac575b602083101461289857565b634e487b7160e01b5f52602260045260245ffd5b91607f169161288d565b5f92918154916128c58361287e565b808352926001811690811561291a57506001146128e157505050565b5f9081526020812093945091925b838310612900575060209250010190565b6001816020929493945483858701015201910191906128ef565b915050602093945060ff929192191683830152151560051b010190565b5f81815260026020526040902054612959906001600160a01b03161515612bba565b5f908152600460205260409020546001600160a01b031690565b1561297a57565b60405162461bcd60e51b815260206004820152602d60248201527f4552433732313a2063616c6c6572206973206e6f7420746f6b656e206f776e6560448201526c1c881bdc88185c1c1c9bdd9959609a1b6064820152608490fd5b156129dc57565b60405162461bcd60e51b815260206004820152600f60248201526e2737ba103a37b5b2b71037bbb732b960891b6044820152606490fd5b612a3a926111ce9260405192612a2a60208561280c565b5f84526111be6111b98433612d49565b565b5f198114612a4a5760010190565b634e487b7160e01b5f52601160045260245ffd5b6001600160401b0381116111045760051b60200190565b818110612a80575050565b5f8155600101612a75565b9190601f8111612a9a57505050565b612a3a925f5260205f20906020601f840160051c83019310612ac4575b601f0160051c0190612a75565b9091508190612ab7565b90600160401b811161110457815491818155828210612aec57505050565b5f5260205f2091820191015b818110612b03575050565b80612b106001925461287e565b80612b1d575b5001612af8565b601f81118314612b3257505f81555b5f612b16565b612b4e90825f5283601f60205f20920160051c82019101612a75565b805f525f6020812081835555612b2c565b805490600160401b8210156111045760018201808255821015612b86575f5260205f200155565b634e487b7160e01b5f52603260045260245ffd5b908060209392818452848401375f828201840152601f01601f1916010190565b15612bc157565b60405162461bcd60e51b815260206004820152601860248201527f4552433732313a20696e76616c696420746f6b656e20494400000000000000006044820152606490fd5b5f908152600260205260409020546001600160a01b0316612c28811515612bba565b90565b6001600160a01b03168015612c49575f52600360205260405f205490565b60405162461bcd60e51b815260206004820152602960248201527f4552433732313a2061646472657373207a65726f206973206e6f7420612076616044820152683634b21037bbb732b960b91b6064820152608490fd5b908154612cac81612a5e565b92612cba604051948561280c565b81845260208401905f5260205f205f915b838310612cd85750505050565b600160208192604051612cef8161043581896128b6565b815201920192019190612ccb565b15612d0457565b60405162461bcd60e51b815260206004820152601760248201527f43616c6c6572206d757374206f776e206120746f6b656e0000000000000000006044820152606490fd5b906001600160a01b03612d5b82612c06565b6001600160a01b0390931692168281149291908315612d9b575b508215612d8157505090565b9091506001600160a01b0390612d9690612937565b161490565b9092505f52600560205260405f20815f5260205260ff60405f205416915f612d75565b15612dc557565b60405162461bcd60e51b815260206004820152602560248201527f4552433732313a207472616e736665722066726f6d20696e636f72726563742060448201526437bbb732b960d91b6064820152608490fd5b90612e39612e2584612c06565b6001600160a01b0393841693168314612dbe565b6001600160a01b0316908115612eeb57612e65816001600160a01b03612e5e86612c06565b1614612dbe565b825f52600460205260405f206001600160601b0360a01b8154169055805f52600360205260405f205f198154019055815f52600360205260405f2060018154019055825f52600260205260405f20826001600160601b0360a01b8254161790557fddf252ad1be2c89b69c2b068fc378daa952ba7f163c4a11628f55a4df523b3ef5f80a4565b60405162461bcd60e51b8152602060048201526024808201527f4552433732313a207472616e7366657220746f20746865207a65726f206164646044820152637265737360e01b6064820152608490fd5b335f9081527f3195c024b2ddd6d9b8f6c836aa52f67fe69376c8903d009b80229b3ce4425f51602052604090205460ff1615612f7457565b61304560206130256011612f8733613552565b603784612fb37f9f2df0fed2c77648de5860a4cc508cd0818c85b8b8a1ab4ceeef8d981c8956a6613638565b6040519687947f416363657373436f6e74726f6c3a206163636f756e7420000000000000000000828701528051918291018587015e8401907001034b99036b4b9b9b4b733903937b6329607d1b84830152805192839101604883015e01015f838201520301601f19810183528261280c565b60405162461bcd60e51b815260206004820152918291602483019061273a565b0390fd5b5f81815260066020908152604080832033845290915290205460ff161561306d5750565b6020613025601161304593603784612fb361308733613552565b93613638565b805f52600660205260405f2060018060a01b0383165f5260205260ff60405f2054166130b7575050565b5f8181526006602090815260408083206001600160a01b0395909516808452949091528120805460ff19169055339291907ff6391f5c32d9c69d2a47ea670b442974b53935d1edc7fd64eb21e047a839171b9080a4565b5f5b60058111156131205750505f1990565b805f52600c60205261043561313e60405f20604051928380926128b6565b60208151910120825160208401201461315f5761315a90612a3c565b613110565b905090565b6301e1338042046107b28101809111612a4a576203f4806301e13380420604600181018111612a4a57606482029180830460641490151715612a4a57600190820101809111612a4a5790565b604051919060206131c1818561280c565b5f84526001600160a01b03821690811561328157918380926002612a3a97956132096132036111ce995f52600260205260018060a01b0360405f205416151590565b156136da565b5f8481526002602052604090205461322b906001600160a01b03161515613203565b825f526003815260405f2060018154019055835f525260405f20816001600160601b0360a01b8254161790555f7fddf252ad1be2c89b69c2b068fc378daa952ba7f163c4a11628f55a4df523b3ef8180a46133d2565b6064906040519062461bcd60e51b825280600483015260248201527f4552433732313a206d696e7420746f20746865207a65726f20616464726573736044820152fd5b5f91600191600754925b83811061331a5760405162461bcd60e51b815260206004820152601860248201527f546f6b656e206e6f7420666f756e6420617420696e64657800000000000000006044820152606490fd5b61332381612c06565b6001600160a01b0383811691161461333e575b6001016132ce565b93801561335857613350600191612a3c565b949050613336565b5090915050565b60809060208152603260208201527f4552433732313a207472616e7366657220746f206e6f6e20455243373231526560408201527131b2b4bb32b91034b6b83632b6b2b73a32b960711b60608201520190565b156133b957565b60405162461bcd60e51b8152806130456004820161335f565b91823b156134e157613417926020925f604051809681958294630a85bd0160e11b8452336004850152846024850152604484015260806064840152608483019061273a565b03926001600160a01b03165af15f918161349c575b50613486573d1561347f573d6134418161282d565b9061344f604051928361280c565b81523d5f602083013e5b8051908161347a5760405162461bcd60e51b8152806130456004820161335f565b602001fd5b6060613459565b6001600160e01b031916630a85bd0160e11b1490565b9091506020813d6020116134d9575b816134b86020938361280c565b81010312610f6d57516001600160e01b031981168103610f6d57905f61342c565b3d91506134ab565b505050600190565b919290803b1561353857613417935f60209460405196879586948593630a85bd0160e11b855233600486015260018060a01b03166024850152604484015260806064840152608483019061273a565b50505050600190565b908151811015612b86570160200190565b61355c602a61282d565b9061356a604051928361280c565b602a8252613578602a61282d565b6020830190601f1901368237825115612b865760309053815160011015612b86576078602183015360295b600181116135f757506135b35790565b606460405162461bcd60e51b815260206004820152602060248201527f537472696e67733a20686578206c656e67746820696e73756666696369656e746044820152fd5b90600f81166010811015612b86576f181899199a1a9b1b9c1cb0b131b232b360811b901a6136258385613541565b5360041c908015612a4a575f19016135a3565b613642604261282d565b90613650604051928361280c565b6042825261365e604261282d565b6020830190601f1901368237825115612b865760309053815160011015612b86576078602183015360415b6001811161369957506135b35790565b90600f81166010811015612b86576f181899199a1a9b1b9c1cb0b131b232b360811b901a6136c78385613541565b5360041c908015612a4a575f1901613689565b156136e157565b60405162461bcd60e51b815260206004820152601c60248201527f4552433732313a20746f6b656e20616c7265616479206d696e746564000000006044820152606490fdfea2646970667358221220b7b669c832ee939533bab63e1112dde91c470d0abb6d84a3f1c90f2d59f7efc764736f6c634300081b00332f8788117e7eff1d82e926ec794901d17c78024a50270940304540a733656f0d3195c024b2ddd6d9b8f6c836aa52f67fe69376c8903d009b80229b3ce4425f5154cdd369e4e8a8515e52ca72ec816c2101831ad1f18bf44102ed171459c9b4f8",
  "linkReferences": {},
  "deployedLinkReferences": {}
}