{
  "_format": "hh-sol-artifact-1",
  "contractName": "BridgeGameV1",
  "sourceName": "contracts/BridgeGameV1.sol",
  "abi": [
    {
      "inputs": [
        {
          "internalType": "uint256",
          "name": "_initialRakeRate",
          "type": "uint256"
        },
        {
          "internalType": "address",
          "name": "initialOwner",
          "type": "address"
        }
      ],
      "stateMutability": "nonpayable",
      "type": "constructor"
    },
    {
      "inputs": [],
      "name": "EnforcedPause",
      "type": "error"
    },
    {
      "inputs": [],
      "name": "ExpectedPause",
      "type": "error"
    },
    {
      "inputs": [
        {
          "internalType": "address",
          "name": "owner",
          "type": "address"
        }
      ],
      "name": "OwnableInvalidOwner",
      "type": "error"
    },
    {
      "inputs": [
        {
          "internalType": "address",
          "name": "account",
          "type": "address"
        }
      ],
      "name": "OwnableUnauthorizedAccount",
      "type": "error"
    },
    {
      "inputs": [],
      "name": "ReentrancyGuardReentrantCall",
      "type": "error"
    },
    {
      "anonymous": false,
      "inputs": [
        {
          "indexed": true,
          "internalType": "address",
          "name": "player",
          "type": "address"
        },
        {
          "indexed": true,
          "internalType": "address",
          "name": "delegate",
          "type": "address"
        }
      ],
      "name": "DelegateRevoked",
      "type": "event"
    },
    {
      "anonymous": false,
      "inputs": [
        {
          "indexed": true,
          "internalType": "address",
          "name": "player",
          "type": "address"
        },
        {
          "indexed": true,
          "internalType": "address",
          "name": "delegate",
          "type": "address"
        }
      ],
      "name": "DelegateSet",
      "type": "event"
    },
    {
      "anonymous": false,
      "inputs": [
        {
          "indexed": true,
          "internalType": "address",
          "name": "player",
          "type": "address"
        },
        {
          "indexed": false,
          "internalType": "uint256",
          "name": "amount",
          "type": "uint256"
        }
      ],
      "name": "Deposited",
      "type": "event"
    },
    {
      "anonymous": false,
      "inputs": [
        {
          "indexed": true,
          "internalType": "address",
          "name": "player",
          "type": "address"
        },
        {
          "indexed": false,
          "internalType": "uint256",
          "name": "amount",
          "type": "uint256"
        }
      ],
      "name": "ForceUnlocked",
      "type": "event"
    },
    {
      "anonymous": false,
      "inputs": [
        {
          "indexed": true,
          "internalType": "uint256",
          "name": "tableId",
          "type": "uint256"
        }
      ],
      "name": "GameSessionReset",
      "type": "event"
    },
    {
      "anonymous": false,
      "inputs": [
        {
          "indexed": true,
          "internalType": "uint256",
          "name": "gameId",
          "type": "uint256"
        },
        {
          "indexed": false,
          "internalType": "address[]",
          "name": "winners",
          "type": "address[]"
        },
        {
          "indexed": false,
          "internalType": "uint256[]",
          "name": "amounts",
          "type": "uint256[]"
        },
        {
          "indexed": false,
          "internalType": "uint256",
          "name": "rakeCollected",
          "type": "uint256"
        }
      ],
      "name": "GameSettled",
      "type": "event"
    },
    {
      "anonymous": false,
      "inputs": [
        {
          "indexed": true,
          "internalType": "uint256",
          "name": "gameId",
          "type": "uint256"
        },
        {
          "indexed": false,
          "internalType": "address[]",
          "name": "players",
          "type": "address[]"
        },
        {
          "indexed": false,
          "internalType": "int256[]",
          "name": "stackDeltas",
          "type": "int256[]"
        }
      ],
      "name": "GameSettledSession",
      "type": "event"
    },
    {
      "anonymous": false,
      "inputs": [
        {
          "indexed": true,
          "internalType": "uint256",
          "name": "tableId",
          "type": "uint256"
        },
        {
          "indexed": true,
          "internalType": "uint256",
          "name": "gameId",
          "type": "uint256"
        },
        {
          "indexed": false,
          "internalType": "address[]",
          "name": "players",
          "type": "address[]"
        }
      ],
      "name": "GameStarted",
      "type": "event"
    },
    {
      "anonymous": false,
      "inputs": [
        {
          "indexed": true,
          "internalType": "address",
          "name": "player",
          "type": "address"
        },
        {
          "indexed": true,
          "internalType": "uint256",
          "name": "tableId",
          "type": "uint256"
        },
        {
          "indexed": false,
          "internalType": "uint256",
          "name": "buyIn",
          "type": "uint256"
        }
      ],
      "name": "JoinedTable",
      "type": "event"
    },
    {
      "anonymous": false,
      "inputs": [
        {
          "indexed": true,
          "internalType": "address",
          "name": "player",
          "type": "address"
        },
        {
          "indexed": true,
          "internalType": "uint256",
          "name": "tableId",
          "type": "uint256"
        },
        {
          "indexed": false,
          "internalType": "uint256",
          "name": "buyIn",
          "type": "uint256"
        },
        {
          "indexed": true,
          "internalType": "address",
          "name": "delegate",
          "type": "address"
        }
      ],
      "name": "JoinedTableFor",
      "type": "event"
    },
    {
      "anonymous": false,
      "inputs": [
        {
          "indexed": true,
          "internalType": "address",
          "name": "player",
          "type": "address"
        },
        {
          "indexed": true,
          "internalType": "uint256",
          "name": "tableId",
          "type": "uint256"
        },
        {
          "indexed": false,
          "internalType": "uint256",
          "name": "amount",
          "type": "uint256"
        }
      ],
      "name": "LeftTable",
      "type": "event"
    },
    {
      "anonymous": false,
      "inputs": [
        {
          "indexed": true,
          "internalType": "address",
          "name": "player",
          "type": "address"
        },
        {
          "indexed": true,
          "internalType": "uint256",
          "name": "tableId",
          "type": "uint256"
        },
        {
          "indexed": false,
          "internalType": "uint256",
          "name": "amount",
          "type": "uint256"
        },
        {
          "indexed": true,
          "internalType": "address",
          "name": "delegate",
          "type": "address"
        }
      ],
      "name": "LeftTableFor",
      "type": "event"
    },
    {
      "anonymous": false,
      "inputs": [
        {
          "indexed": true,
          "internalType": "address",
          "name": "previousOwner",
          "type": "address"
        },
        {
          "indexed": true,
          "internalType": "address",
          "name": "newOwner",
          "type": "address"
        }
      ],
      "name": "OwnershipTransferred",
      "type": "event"
    },
    {
      "anonymous": false,
      "inputs": [
        {
          "indexed": false,
          "internalType": "address",
          "name": "account",
          "type": "address"
        }
      ],
      "name": "Paused",
      "type": "event"
    },
    {
      "anonymous": false,
      "inputs": [
        {
          "indexed": true,
          "internalType": "address",
          "name": "player",
          "type": "address"
        },
        {
          "indexed": false,
          "internalType": "uint256",
          "name": "timestamp",
          "type": "uint256"
        }
      ],
      "name": "PlayerRegistered",
      "type": "event"
    },
    {
      "anonymous": false,
      "inputs": [],
      "name": "RakeRateChangeCancelled",
      "type": "event"
    },
    {
      "anonymous": false,
      "inputs": [
        {
          "indexed": false,
          "internalType": "uint256",
          "name": "newRate",
          "type": "uint256"
        },
        {
          "indexed": false,
          "internalType": "uint256",
          "name": "effectiveTime",
          "type": "uint256"
        }
      ],
      "name": "RakeRateChangeScheduled",
      "type": "event"
    },
    {
      "anonymous": false,
      "inputs": [
        {
          "indexed": false,
          "internalType": "uint256",
          "name": "oldRate",
          "type": "uint256"
        },
        {
          "indexed": false,
          "internalType": "uint256",
          "name": "newRate",
          "type": "uint256"
        },
        {
          "indexed": false,
          "internalType": "uint256",
          "name": "effectiveTime",
          "type": "uint256"
        }
      ],
      "name": "RakeRateChanged",
      "type": "event"
    },
    {
      "anonymous": false,
      "inputs": [
        {
          "indexed": true,
          "internalType": "address",
          "name": "to",
          "type": "address"
        },
        {
          "indexed": false,
          "internalType": "uint256",
          "name": "amount",
          "type": "uint256"
        }
      ],
      "name": "RakeWithdrawn",
      "type": "event"
    },
    {
      "anonymous": false,
      "inputs": [
        {
          "indexed": true,
          "internalType": "address",
          "name": "player",
          "type": "address"
        },
        {
          "indexed": true,
          "internalType": "uint256",
          "name": "tableId",
          "type": "uint256"
        },
        {
          "indexed": false,
          "internalType": "uint256",
          "name": "amount",
          "type": "uint256"
        }
      ],
      "name": "RebuyEvent",
      "type": "event"
    },
    {
      "anonymous": false,
      "inputs": [
        {
          "indexed": false,
          "internalType": "address",
          "name": "account",
          "type": "address"
        }
      ],
      "name": "Unpaused",
      "type": "event"
    },
    {
      "anonymous": false,
      "inputs": [
        {
          "indexed": true,
          "internalType": "address",
          "name": "player",
          "type": "address"
        },
        {
          "indexed": false,
          "internalType": "uint256",
          "name": "amount",
          "type": "uint256"
        }
      ],
      "name": "Withdrawn",
      "type": "event"
    },
    {
      "inputs": [],
      "name": "MAX_BUY_IN",
      "outputs": [
        {
          "internalType": "uint256",
          "name": "",
          "type": "uint256"
        }
      ],
      "stateMutability": "view",
      "type": "function"
    },
    {
      "inputs": [],
      "name": "MAX_RAKE_CHANGE",
      "outputs": [
        {
          "internalType": "uint256",
          "name": "",
          "type": "uint256"
        }
      ],
      "stateMutability": "view",
      "type": "function"
    },
    {
      "inputs": [],
      "name": "MAX_RAKE_RATE",
      "outputs": [
        {
          "internalType": "uint256",
          "name": "",
          "type": "uint256"
        }
      ],
      "stateMutability": "view",
      "type": "function"
    },
    {
      "inputs": [],
      "name": "MIN_BUY_IN",
      "outputs": [
        {
          "internalType": "uint256",
          "name": "",
          "type": "uint256"
        }
      ],
      "stateMutability": "view",
      "type": "function"
    },
    {
      "inputs": [],
      "name": "MIN_RAKE_RATE",
      "outputs": [
        {
          "internalType": "uint256",
          "name": "",
          "type": "uint256"
        }
      ],
      "stateMutability": "view",
      "type": "function"
    },
    {
      "inputs": [],
      "name": "RAKE_TIMELOCK",
      "outputs": [
        {
          "internalType": "uint256",
          "name": "",
          "type": "uint256"
        }
      ],
      "stateMutability": "view",
      "type": "function"
    },
    {
      "inputs": [],
      "name": "accumulatedRake",
      "outputs": [
        {
          "internalType": "uint256",
          "name": "",
          "type": "uint256"
        }
      ],
      "stateMutability": "view",
      "type": "function"
    },
    {
      "inputs": [],
      "name": "applyRakeRateChange",
      "outputs": [],
      "stateMutability": "nonpayable",
      "type": "function"
    },
    {
      "inputs": [],
      "name": "cancelRakeRateChange",
      "outputs": [],
      "stateMutability": "nonpayable",
      "type": "function"
    },
    {
      "inputs": [],
      "name": "deposit",
      "outputs": [],
      "stateMutability": "payable",
      "type": "function"
    },
    {
      "inputs": [
        {
          "internalType": "address",
          "name": "playerAddress",
          "type": "address"
        }
      ],
      "name": "forceUnlockPlayer",
      "outputs": [],
      "stateMutability": "nonpayable",
      "type": "function"
    },
    {
      "inputs": [],
      "name": "gameCounter",
      "outputs": [
        {
          "internalType": "uint256",
          "name": "",
          "type": "uint256"
        }
      ],
      "stateMutability": "view",
      "type": "function"
    },
    {
      "inputs": [
        {
          "internalType": "uint256",
          "name": "",
          "type": "uint256"
        }
      ],
      "name": "gameResultHashes",
      "outputs": [
        {
          "internalType": "bytes32",
          "name": "",
          "type": "bytes32"
        }
      ],
      "stateMutability": "view",
      "type": "function"
    },
    {
      "inputs": [
        {
          "internalType": "uint256",
          "name": "",
          "type": "uint256"
        }
      ],
      "name": "gameSessions",
      "outputs": [
        {
          "internalType": "uint256",
          "name": "tableId",
          "type": "uint256"
        },
        {
          "internalType": "uint256",
          "name": "totalPot",
          "type": "uint256"
        },
        {
          "internalType": "uint256",
          "name": "createdAt",
          "type": "uint256"
        },
        {
          "internalType": "uint256",
          "name": "settledAt",
          "type": "uint256"
        },
        {
          "internalType": "enum BridgeGameV1.GameState",
          "name": "state",
          "type": "uint8"
        },
        {
          "internalType": "uint256",
          "name": "rakeRateUsed",
          "type": "uint256"
        }
      ],
      "stateMutability": "view",
      "type": "function"
    },
    {
      "inputs": [
        {
          "internalType": "uint256",
          "name": "tableId",
          "type": "uint256"
        }
      ],
      "name": "getGameSession",
      "outputs": [
        {
          "internalType": "uint256",
          "name": "tableId_",
          "type": "uint256"
        },
        {
          "internalType": "address[]",
          "name": "players_",
          "type": "address[]"
        },
        {
          "internalType": "uint256[]",
          "name": "buyInAmounts_",
          "type": "uint256[]"
        },
        {
          "internalType": "uint256",
          "name": "totalPot",
          "type": "uint256"
        },
        {
          "internalType": "enum BridgeGameV1.GameState",
          "name": "state",
          "type": "uint8"
        },
        {
          "internalType": "uint256",
          "name": "rakeRateUsed",
          "type": "uint256"
        }
      ],
      "stateMutability": "view",
      "type": "function"
    },
    {
      "inputs": [],
      "name": "getPendingRakeChange",
      "outputs": [
        {
          "internalType": "bool",
          "name": "exists",
          "type": "bool"
        },
        {
          "internalType": "uint256",
          "name": "newRate",
          "type": "uint256"
        },
        {
          "internalType": "uint256",
          "name": "effectiveTime",
          "type": "uint256"
        }
      ],
      "stateMutability": "view",
      "type": "function"
    },
    {
      "inputs": [
        {
          "internalType": "address",
          "name": "player",
          "type": "address"
        }
      ],
      "name": "getPlayerBalance",
      "outputs": [
        {
          "internalType": "uint256",
          "name": "",
          "type": "uint256"
        }
      ],
      "stateMutability": "view",
      "type": "function"
    },
    {
      "inputs": [
        {
          "internalType": "address",
          "name": "player",
          "type": "address"
        }
      ],
      "name": "getPlayerDelegate",
      "outputs": [
        {
          "internalType": "address",
          "name": "",
          "type": "address"
        }
      ],
      "stateMutability": "view",
      "type": "function"
    },
    {
      "inputs": [
        {
          "internalType": "address",
          "name": "player",
          "type": "address"
        }
      ],
      "name": "getPlayerInfo",
      "outputs": [
        {
          "internalType": "uint256",
          "name": "balance",
          "type": "uint256"
        },
        {
          "internalType": "uint256",
          "name": "lockedAmount",
          "type": "uint256"
        },
        {
          "internalType": "bool",
          "name": "isRegistered",
          "type": "bool"
        },
        {
          "internalType": "uint256",
          "name": "registeredAt",
          "type": "uint256"
        }
      ],
      "stateMutability": "view",
      "type": "function"
    },
    {
      "inputs": [
        {
          "internalType": "address",
          "name": "player",
          "type": "address"
        }
      ],
      "name": "getPlayerLockedBalance",
      "outputs": [
        {
          "internalType": "uint256",
          "name": "",
          "type": "uint256"
        }
      ],
      "stateMutability": "view",
      "type": "function"
    },
    {
      "inputs": [],
      "name": "getStatistics",
      "outputs": [
        {
          "internalType": "uint256",
          "name": "_totalVolume",
          "type": "uint256"
        },
        {
          "internalType": "uint256",
          "name": "_totalRakeCollected",
          "type": "uint256"
        },
        {
          "internalType": "uint256",
          "name": "_totalGamesPlayed",
          "type": "uint256"
        },
        {
          "internalType": "uint256",
          "name": "_accumulatedRake",
          "type": "uint256"
        },
        {
          "internalType": "uint256",
          "name": "_rakeRate",
          "type": "uint256"
        },
        {
          "internalType": "uint256",
          "name": "_playerCount",
          "type": "uint256"
        }
      ],
      "stateMutability": "view",
      "type": "function"
    },
    {
      "inputs": [
        {
          "internalType": "address",
          "name": "player",
          "type": "address"
        },
        {
          "internalType": "address",
          "name": "delegate",
          "type": "address"
        }
      ],
      "name": "isAuthorizedDelegate",
      "outputs": [
        {
          "internalType": "bool",
          "name": "",
          "type": "bool"
        }
      ],
      "stateMutability": "view",
      "type": "function"
    },
    {
      "inputs": [
        {
          "internalType": "address",
          "name": "",
          "type": "address"
        },
        {
          "internalType": "address",
          "name": "",
          "type": "address"
        }
      ],
      "name": "isDelegateAuthorized",
      "outputs": [
        {
          "internalType": "bool",
          "name": "",
          "type": "bool"
        }
      ],
      "stateMutability": "view",
      "type": "function"
    },
    {
      "inputs": [
        {
          "internalType": "uint256",
          "name": "tableId",
          "type": "uint256"
        },
        {
          "internalType": "uint256",
          "name": "buyInAmount",
          "type": "uint256"
        }
      ],
      "name": "joinTable",
      "outputs": [],
      "stateMutability": "nonpayable",
      "type": "function"
    },
    {
      "inputs": [
        {
          "internalType": "address",
          "name": "playerAddr",
          "type": "address"
        },
        {
          "internalType": "uint256",
          "name": "tableId",
          "type": "uint256"
        },
        {
          "internalType": "uint256",
          "name": "buyInAmount",
          "type": "uint256"
        }
      ],
      "name": "joinTableFor",
      "outputs": [],
      "stateMutability": "nonpayable",
      "type": "function"
    },
    {
      "inputs": [],
      "name": "lastRakeChangeTime",
      "outputs": [
        {
          "internalType": "uint256",
          "name": "",
          "type": "uint256"
        }
      ],
      "stateMutability": "view",
      "type": "function"
    },
    {
      "inputs": [
        {
          "internalType": "uint256",
          "name": "tableId",
          "type": "uint256"
        }
      ],
      "name": "leaveTable",
      "outputs": [],
      "stateMutability": "nonpayable",
      "type": "function"
    },
    {
      "inputs": [
        {
          "internalType": "address",
          "name": "playerAddr",
          "type": "address"
        },
        {
          "internalType": "uint256",
          "name": "tableId",
          "type": "uint256"
        },
        {
          "internalType": "uint256",
          "name": "finalStack",
          "type": "uint256"
        }
      ],
      "name": "leaveTableFor",
      "outputs": [],
      "stateMutability": "nonpayable",
      "type": "function"
    },
    {
      "inputs": [
        {
          "internalType": "uint256",
          "name": "tableId",
          "type": "uint256"
        },
        {
          "internalType": "uint256",
          "name": "finalStack",
          "type": "uint256"
        }
      ],
      "name": "leaveTableSession",
      "outputs": [],
      "stateMutability": "nonpayable",
      "type": "function"
    },
    {
      "inputs": [],
      "name": "owner",
      "outputs": [
        {
          "internalType": "address",
          "name": "",
          "type": "address"
        }
      ],
      "stateMutability": "view",
      "type": "function"
    },
    {
      "inputs": [],
      "name": "pause",
      "outputs": [],
      "stateMutability": "nonpayable",
      "type": "function"
    },
    {
      "inputs": [],
      "name": "paused",
      "outputs": [
        {
          "internalType": "bool",
          "name": "",
          "type": "bool"
        }
      ],
      "stateMutability": "view",
      "type": "function"
    },
    {
      "inputs": [],
      "name": "pendingRakeChange",
      "outputs": [
        {
          "internalType": "uint256",
          "name": "newRate",
          "type": "uint256"
        },
        {
          "internalType": "uint256",
          "name": "effectiveTime",
          "type": "uint256"
        },
        {
          "internalType": "bool",
          "name": "exists",
          "type": "bool"
        }
      ],
      "stateMutability": "view",
      "type": "function"
    },
    {
      "inputs": [
        {
          "internalType": "address",
          "name": "",
          "type": "address"
        }
      ],
      "name": "playerDelegates",
      "outputs": [
        {
          "internalType": "address",
          "name": "",
          "type": "address"
        }
      ],
      "stateMutability": "view",
      "type": "function"
    },
    {
      "inputs": [
        {
          "internalType": "address",
          "name": "",
          "type": "address"
        }
      ],
      "name": "players",
      "outputs": [
        {
          "internalType": "uint256",
          "name": "balance",
          "type": "uint256"
        },
        {
          "internalType": "uint256",
          "name": "lockedAmount",
          "type": "uint256"
        },
        {
          "internalType": "bool",
          "name": "isRegistered",
          "type": "bool"
        },
        {
          "internalType": "uint256",
          "name": "registeredAt",
          "type": "uint256"
        }
      ],
      "stateMutability": "view",
      "type": "function"
    },
    {
      "inputs": [],
      "name": "rakeRate",
      "outputs": [
        {
          "internalType": "uint256",
          "name": "",
          "type": "uint256"
        }
      ],
      "stateMutability": "view",
      "type": "function"
    },
    {
      "inputs": [
        {
          "internalType": "uint256",
          "name": "tableId",
          "type": "uint256"
        },
        {
          "internalType": "uint256",
          "name": "rebuyAmount",
          "type": "uint256"
        }
      ],
      "name": "rebuy",
      "outputs": [],
      "stateMutability": "nonpayable",
      "type": "function"
    },
    {
      "inputs": [],
      "name": "registerPlayer",
      "outputs": [],
      "stateMutability": "nonpayable",
      "type": "function"
    },
    {
      "inputs": [],
      "name": "renounceOwnership",
      "outputs": [],
      "stateMutability": "nonpayable",
      "type": "function"
    },
    {
      "inputs": [
        {
          "internalType": "uint256",
          "name": "tableId",
          "type": "uint256"
        }
      ],
      "name": "resetGameSession",
      "outputs": [],
      "stateMutability": "nonpayable",
      "type": "function"
    },
    {
      "inputs": [],
      "name": "revokeDelegate",
      "outputs": [],
      "stateMutability": "nonpayable",
      "type": "function"
    },
    {
      "inputs": [
        {
          "internalType": "uint256",
          "name": "newRate",
          "type": "uint256"
        }
      ],
      "name": "scheduleRakeRateChange",
      "outputs": [],
      "stateMutability": "nonpayable",
      "type": "function"
    },
    {
      "inputs": [
        {
          "internalType": "address",
          "name": "delegate",
          "type": "address"
        }
      ],
      "name": "setDelegate",
      "outputs": [],
      "stateMutability": "nonpayable",
      "type": "function"
    },
    {
      "inputs": [
        {
          "internalType": "uint256",
          "name": "tableId",
          "type": "uint256"
        },
        {
          "internalType": "address",
          "name": "owner",
          "type": "address"
        }
      ],
      "name": "setTableOwner",
      "outputs": [],
      "stateMutability": "nonpayable",
      "type": "function"
    },
    {
      "inputs": [
        {
          "internalType": "uint256",
          "name": "tableId",
          "type": "uint256"
        },
        {
          "internalType": "address[]",
          "name": "winners",
          "type": "address[]"
        },
        {
          "internalType": "uint256[]",
          "name": "amounts",
          "type": "uint256[]"
        },
        {
          "internalType": "bytes32",
          "name": "resultHash",
          "type": "bytes32"
        }
      ],
      "name": "settleGame",
      "outputs": [],
      "stateMutability": "nonpayable",
      "type": "function"
    },
    {
      "inputs": [
        {
          "internalType": "uint256",
          "name": "tableId",
          "type": "uint256"
        },
        {
          "internalType": "address[]",
          "name": "playersToUpdate",
          "type": "address[]"
        },
        {
          "internalType": "int256[]",
          "name": "stackDeltas",
          "type": "int256[]"
        },
        {
          "internalType": "bytes32",
          "name": "resultHash",
          "type": "bytes32"
        }
      ],
      "name": "settleGameSession",
      "outputs": [],
      "stateMutability": "nonpayable",
      "type": "function"
    },
    {
      "inputs": [
        {
          "internalType": "uint256",
          "name": "",
          "type": "uint256"
        }
      ],
      "name": "tableOwners",
      "outputs": [
        {
          "internalType": "address",
          "name": "",
          "type": "address"
        }
      ],
      "stateMutability": "view",
      "type": "function"
    },
    {
      "inputs": [],
      "name": "totalGamesPlayed",
      "outputs": [
        {
          "internalType": "uint256",
          "name": "",
          "type": "uint256"
        }
      ],
      "stateMutability": "view",
      "type": "function"
    },
    {
      "inputs": [],
      "name": "totalRakeCollected",
      "outputs": [
        {
          "internalType": "uint256",
          "name": "",
          "type": "uint256"
        }
      ],
      "stateMutability": "view",
      "type": "function"
    },
    {
      "inputs": [],
      "name": "totalVolume",
      "outputs": [
        {
          "internalType": "uint256",
          "name": "",
          "type": "uint256"
        }
      ],
      "stateMutability": "view",
      "type": "function"
    },
    {
      "inputs": [
        {
          "internalType": "address",
          "name": "newOwner",
          "type": "address"
        }
      ],
      "name": "transferOwnership",
      "outputs": [],
      "stateMutability": "nonpayable",
      "type": "function"
    },
    {
      "inputs": [],
      "name": "unpause",
      "outputs": [],
      "stateMutability": "nonpayable",
      "type": "function"
    },
    {
      "inputs": [
        {
          "internalType": "uint256",
          "name": "amount",
          "type": "uint256"
        }
      ],
      "name": "withdraw",
      "outputs": [],
      "stateMutability": "nonpayable",
      "type": "function"
    },
    {
      "inputs": [
        {
          "internalType": "address payable",
          "name": "to",
          "type": "address"
        },
        {
          "internalType": "uint256",
          "name": "amount",
          "type": "uint256"
        }
      ],
      "name": "withdrawRake",
      "outputs": [],
      "stateMutability": "nonpayable",
      "type": "function"
    },
    {
      "stateMutability": "payable",
      "type": "receive"
    }
  ],
  "bytecode": "0x60803461015c57601f612e5b38819003918201601f19168301916001600160401b0383118484101761016057808492604094855283398101031261015c5780516020909101516001600160a01b03811680820361015c5760017f9b779b17422d0df92223018b32b4d1fa46e071723d6817e2486d003becc55f00558015610149575f8054610100600160a81b03198116600894851b610100600160a81b0316178255604051931c6001600160a01b0316907f8be0079c531659141344cd1fd0a4f28419497f9722a3daafe3b4186f6b6457e09080a360648210158061013d575b156100fb575060015542600255604051612ce690816101758239f35b62461bcd60e51b815260206004820152601960248201527f496e76616c696420696e697469616c2072616b652072617465000000000000006044820152606490fd5b506103e88211156100df565b631e4fbdf760e01b5f525f60045260245ffd5b5f80fd5b634e487b7160e01b5f52604160045260245ffdfe60806040526004361015610078575b3615610018575f80fd5b335f52600660205260ff600260405f2001541661003157005b335f52600660205260405f2061004834825461283a565b90556040513481527f2da466a7b24304f47e87fa2e1e5a81b9831ce54fec19055ce277ca2f39ba42c460203392a2005b5f3560e01c806308ce20111461238a5780630edc413a146121795780630fcd91eb146120ac5780631258825114611e8157806317c1b81514611e315780631ff7efc014611cb25780632805ab0714611c945780632e0be39a14611c775780632e1a7d4d14611bdb5780632e9988b914611b1657806334a8014b14611aaa578063372d6b2714611a635780633d90a3c014611a0b5780633f4ba83a146119a757806345f47177146105c557806355d1ef38146118bf578063593284011461070e5780635c07a4b0146117b55780635c492129146117985780635c975abb146117775780635f81a57c1461175a5780636a39f29014611468578063715018a61461140d5780637a2b4eec146113f157806383956e72146111d55780638456cb591461117e5780638aa0721a146111635780638ab06fea146110465780638c289c7314610d6e5780638da5cb5b14610d435780639341a29414610bad5780639d9d0d8814610b90578063a2b5c74c14610b73578063a2c5d43f14610b56578063a82527c214610b2c578063aa34331b14610b0f578063b443a13b146107d0578063ca5eb5e1146109da578063d0e30db0146108fe578063d1f55303146108c3578063d23e6830146108a6578063d36ae96114610843578063d5c0fcc714610810578063d65f660f146107d0578063dc7e9610146107b5578063e2734c931461077d578063e2eb41ff1461070e578063e3ddaa43146106db578063ec340f291461061c578063ed45975d146105c5578063f2fde38b1461052c578063f3160dde146104fa578063f4615180146102ef5763fc4a2a950361000e57346102eb575f3660031901126102eb576020604051629896808152f35b5f80fd5b346102eb576102fd3661255e565b91610306612c15565b6001600160a01b0381165f818152600c602090815260408083203384529091529020549091906103389060ff16612a84565b815f526006602052600160405f2061035660ff600283015416612683565b61038c868254610368828210156128e6565b61037762989680831015612932565b610387633b9aca00831115612975565b6127c6565b81550161039a85825461283a565b9055825f52600760205260405f20600681019160ff8354169060048210156104e657600393826103dd93159081156104dc575b50610452575b50600183016129f7565b6103ea8560028301612a1c565b016103f684825461283a565b905581817f63a388d91c3f5a1131bd9feb9743949035680eb44216ae3145054922851dd63d6020604051878152a36040519283527f08c3c521c51b06e0c8b39405241e485a75299f370b4e33350bc25967ff2590a660203394a4005b868455600160ff1982541617905542600484015560015460078401555f84840155610485600184018054905f81556129cd565b610497600284018054905f81556129cd565b5f868152600960205260409020546001600160a01b0316156104ba575b876103d3565b5f86815260096020526040902080546001600160a01b031916331790556104b4565b86915014896103cd565b634e487b7160e01b5f52602160045260245ffd5b346102eb5760203660031901126102eb576004355f526009602052602060018060a01b0360405f205416604051908152f35b346102eb5760203660031901126102eb5761054561253b565b61054d612c2f565b6001600160a01b0381169081156105b2575f8054610100600160a81b03198116600893841b610100600160a81b031617825590911c6001600160a01b0316907f8be0079c531659141344cd1fd0a4f28419497f9722a3daafe3b4186f6b6457e09080a3005b631e4fbdf760e01b5f525f60045260245ffd5b346102eb5760403660031901126102eb576105de61253b565b6105e6612525565b9060018060a01b03165f52600c60205260405f209060018060a01b03165f52602052602060ff60405f2054166040519015158152f35b346102eb575f3660031901126102eb57610634612c2f565b61064260ff60055416612a3f565b600454421061069e577fa444f4a7ddedad2fc2889f4a9eec9e2609297c14a6f7123f9dc15cd25128ac64606060015460035480600155426002556040519182526020820152426040820152a15f6003555f6004555f6005555f80f35b60405162461bcd60e51b8152602060048201526015602482015274151a5b59481b1bd8dac81b9bdd08195e1c1a5c9959605a1b6044820152606490fd5b346102eb575f3660031901126102eb57606060035460045460ff6005541690604051928352602083015215156040820152f35b346102eb5760203660031901126102eb576001600160a01b0361072f61253b565b165f52600660205260405f208054610779600183015492600360ff600283015416910154906040519485948590949392606092608083019683526020830152151560408201520152565b0390f35b346102eb5760203660031901126102eb576001600160a01b0361079e61253b565b165f526006602052602060405f2054604051908152f35b346102eb575f3660031901126102eb57602060405160648152f35b346102eb5760203660031901126102eb576001600160a01b036107f161253b565b165f52600b602052602060018060a01b0360405f205416604051908152f35b346102eb575f3660031901126102eb57606060ff6005541660035460045490604051921515835260208301526040820152f35b346102eb5760203660031901126102eb5760043561085f612c2f565b805f52600760205260405f2060068101600360ff198254161790556005429101557fd85a699777e0e179bb6e6002d17ea6ca29f5433687cff4bd3b72bc4560d200145f80a2005b346102eb575f3660031901126102eb576020604051620151808152f35b346102eb5760203660031901126102eb576001600160a01b036108e461253b565b165f5260066020526020600160405f200154604051908152f35b5f3660031901126102eb57335f52600660205261092460ff600260405f20015416612683565b61092c612c15565b62989680341061099d57633b9aca00341161095857335f52600660205260405f2061004834825461283a565b60405162461bcd60e51b815260206004820152601760248201527f45786365656473206d6178696d756d206465706f7369740000000000000000006044820152606490fd5b60405162461bcd60e51b815260206004820152601560248201527410995b1bddc81b5a5b9a5b5d5b4819195c1bdcda5d605a1b6044820152606490fd5b346102eb5760203660031901126102eb576109f361253b565b335f526006602052610a0e60ff600260405f20015416612683565b6001600160a01b03168015610aca57338114610a8557335f818152600b6020908152604080832080546001600160a01b03191686179055600c82528083208584529091528120805460ff191660011790557f6ee10e9ed4d6ce9742703a498707862f4b00f1396a87195eb93267b3d79839819080a3005b60405162461bcd60e51b815260206004820152601760248201527f43616e6e6f742064656c656761746520746f2073656c660000000000000000006044820152606490fd5b60405162461bcd60e51b815260206004820152601860248201527f496e76616c69642064656c6567617465206164647265737300000000000000006044820152606490fd5b346102eb575f3660031901126102eb576020600f54604051908152f35b346102eb5760203660031901126102eb576004355f52600a602052602060405f2054604051908152f35b346102eb575f3660031901126102eb576020600d54604051908152f35b346102eb575f3660031901126102eb576020600254604051908152f35b346102eb575f3660031901126102eb576020600154604051908152f35b346102eb57610bbb36612628565b9091929394805f526009602052610bdf60018060a01b0360405f2054163314612b11565b610be7612c58565b610bef612c15565b610bfa838614612b4f565b805f52600760205260ff600660405f2001541660048110156104e6576001610c2291146126c7565b5f52600a60205260405f20555f5b838110610cea575060105460018101809111610cd6576010556020610c70610c59600854612bb7565b958660085560405195604087526040870191612bc5565b848103828601528281520191905f5b818110610cc057857f08329633d3b2fc844df34acbe14e38f8d007c86ea45a4e29887c90af93de0e4186860387a260015f516020612c915f395f51905f5255005b8235845260209384019390920191600101610c7f565b634e487b7160e01b5f52601160045260245ffd5b6001906001600160a01b03610d08610d0383888a612b93565b612ba3565b165f52600660205260405f20610d1f828587612b93565b355f811315610d3c57610d3390825461283a565b90555b01610c30565b5050610d36565b346102eb575f3660031901126102eb575f5460405160089190911c6001600160a01b03168152602090f35b346102eb57610d7c36612628565b93949190825f526009602052610d9f60018060a01b0360405f2054163314612b11565b610da7612c58565b610daf612c15565b825f52600760205260405f2094600686019360ff85541660048110156104e6576001610dde91989698146126c7565b610de9838714612b4f565b600260ff198854161787555f52600a60205260405f20555f905f5f60078601905b89888210610fa657505050505f9360018101945b8554811015610ec157610e318187612751565b90545f9160031b1c6001600160a01b0316815b8b8a808310610e8c575b50505090600192915f52600660205260405f20901580610e80575b610e75575b5001610e1e565b825f9101558a610e6e565b50828101541515610e69565b83916001600160a01b0391610ea691610d03918691612b93565b1614610eb457600101610e44565b5060019150818b8a610e4e565b509193509194610ed384600d5461283a565b600d55610ee284600f5461283a565b600f55610ef56003830154600e5461283a565b600e5560105460018101809111610cd657601055600360ff19825416179055600542910155610f3f610f28600854612bb7565b958660085560405194606086526060860191612bc5565b8381036020850152818152936001600160fb1b0382116102eb577fcd30e0b79e32d586d80976853dfd0d2cff58c6326093a5e83421f98ab3586cd194602093859360051b809386840137604084015201030190a260015f516020612c915f395f51905f5255005b81929395611022610fc3610d036001958d9c9e9c61102896612b93565b91610fcf86898c612b93565b3590612710610fdf8954846129ba565b0491610feb83826127c6565b94878060a01b03165f5260066020528660405f2061100a87825461283a565b8155019081549080821015611033575b50505061283a565b9661283a565b969896929101610e0a565b61103c916127c6565b90558f808061101a565b346102eb5760203660031901126102eb576004355f52600760205260405f208054600182019160028101600382015491600760ff60068301541691015491604051808760208299549384815201905f5260205f20925f5b8181106111415750506110b292500387612847565b6040519081602082549182815201915f5260205f20905f5b81811061112b57505050816110e86111229493611112930382612847565b611104604051988998895260c060208a015260c0890190612588565b9087820360408901526125c4565b9360608601526080850190612551565b60a08301520390f35b82548452602090930192600192830192016110ca565b84546001600160a01b031683526001948501948b94506020909301920161109d565b346102eb575f3660031901126102eb57602060405160c88152f35b346102eb575f3660031901126102eb57611196612c2f565b61119e612c15565b600160ff195f5416175f557f62e78cea01bee320cd4e420270b5ea74000d11b0c9f74754ebdbfc544b05a2586020604051338152a1005b346102eb576111e33661250f565b335f5260066020526111fe60ff600260405f20015416612683565b611206612c15565b815f52600760205260405f2060ff60068201541660048110156104e65780600161123992149081156113e6575b50612ad0565b335f52600660205260405f20906001820161125681541515612713565b6001820180545f199390915f5b8381106113b4575b506112795f1986141561277a565b60028201946112888187612751565b90549060031b1c935f198101908111610cd657808210611305575b50506112c7916112be5f966112b96003946127d3565b612813565b019182546127c6565b9055556112d582825461283a565b90556040519081527f2ba6d6ebe4f37892b977ffeef27b7df28623be706b5d4818e56e760289557f6160203392a3005b909290611356906113169084612751565b905460039190911b1c6001600160a01b03166113328585612751565b81546001600160a01b0393841660039290921b91821b9390911b1916919091179055565b85545f198101908111610cd657866112b96003946113a76112c79761138f6113826112be975f9e612751565b9054908a1b1c9186612751565b90919082549060031b91821b915f19901b1916179055565b94505096508193506112a3565b6113be8183612751565b905460039190911b1c6001600160a01b031633146113de57600101611263565b94508861126b565b600391501485611233565b346102eb575f3660031901126102eb5760206040516103e88152f35b346102eb575f3660031901126102eb57611425612c2f565b5f8054610100600160a81b03198116825560081c6001600160a01b03167f8be0079c531659141344cd1fd0a4f28419497f9722a3daafe3b4186f6b6457e08280a3005b346102eb576114763661255e565b9161147f612c15565b6001600160a01b03165f818152600c602090815260408083203384529091529020546114ad9060ff16612a84565b815f52600760205260405f209160ff60068401541660048110156104e6578060016114e0921490811561174f5750612ad0565b815f52600660205260405f209160018301926114fe84541515612713565b60018501805494905f195f5b87811061171d575b506115205f1982141561277a565b600288019061152f8183612751565b90549060031b1c975f198101908111610cd6578082106116bb575b50506112b9611558926127d3565b600386016115678682546127c6565b90555f968095808211611668575b50505f905561158584825461283a565b905581817f2ba6d6ebe4f37892b977ffeef27b7df28623be706b5d4818e56e760289557f616020604051878152a36040519283527fd19cd5b9c13d78956f68aecd28f8c908f321522a14ef33542d52552ced3e4edc60203394a4816115e657005b6116507fcd30e0b79e32d586d80976853dfd0d2cff58c6326093a5e83421f98ab3586cd191549260209061165d604051926116218185612847565b5f84525f3681376040516116358282612847565b5f81525f368137604051958695606087526060870190612588565b91858303908601526125c4565b9060408301520390a2005b8198505f92965061168d61168261271092611695946127c6565b60078a0154906129ba565b0480986127c6565b946116a288600d5461283a565b600d556116b188600f5461283a565b600f559088611575565b6116c86116e49185612751565b905460039190911b1c6001600160a01b03166113328386612751565b81545f19810193908411610cd6576117176112b99261138f6117096115589787612751565b90549060031b1c9186612751565b9261154a565b856117288285612751565b905460039190911b1c6001600160a01b0316146117475760010161150a565b905089611512565b600391501486611233565b346102eb575f3660031901126102eb576020600e54604051908152f35b346102eb575f3660031901126102eb57602060ff5f54166040519015158152f35b346102eb575f3660031901126102eb576020601054604051908152f35b346102eb575f3660031901126102eb57335f52600660205260ff600260405f20015416611885576040516080810181811067ffffffffffffffff821117611871576040525f81526003602082015f815260408301600181526060840191428352335f52600660205260405f2094518555516001850155600284019051151560ff80198354169116179055519101556040514281527f324cb0062138d65997c86cd3012489ceb351d602f2f55c7408306e8040c79f3f60203392a2005b634e487b7160e01b5f52604160045260245ffd5b60405162461bcd60e51b8152602060048201526012602482015271105b1c9958591e481c9959da5cdd195c995960721b6044820152606490fd5b346102eb575f3660031901126102eb57335f5260066020526118ea60ff600260405f20015416612683565b335f908152600b60205260409020546001600160a01b0316801561197057335f818152600c602090815260408083206001600160a01b03861684528252808320805460ff19169055838352600b909152812080546001600160a01b03191690557f76e6646868d096078ac7f3f1401c3aaa55dc84890ec74b99c699e4754714b18e9080a3005b60405162461bcd60e51b815260206004820152600f60248201526e139bc819195b1959d85d19481cd95d608a1b6044820152606490fd5b346102eb575f3660031901126102eb576119bf612c2f565b5f5460ff8116156119fc5760ff19165f557f5db9ee0a495bf2e6ff9c91a7834c1ba4fdd244a5e8aa4e537bd38aeae4b073aa6020604051338152a1005b638dfc202b60e01b5f5260045ffd5b346102eb575f3660031901126102eb57611a23612c2f565b611a3160ff60055416612a3f565b5f6003555f6004555f6005557fb5f89c3a911ce30ee69fe501044ff3099af2228d0a9c0e8ba11ec98d2aabebf35f80a1005b346102eb575f3660031901126102eb5760c0600e54600f54601054600d546001549160085493604051958652602086015260408501526060840152608083015260a0820152f35b346102eb5760203660031901126102eb576004355f52600760205260c060405f20805490611b0f6003820154916004810154600582015490600760ff600685015416930154946040519687526020870152604086015260608501526080840190612551565b60a0820152f35b346102eb5760203660031901126102eb57611b2f61253b565b611b37612c2f565b6001600160a01b03165f8181526006602052604090206001810180548015611b96577f6ac38e093d1eef7bfad88ca3681c7d60445c7ffc439fdc6257bffa53e9b20609925f60209355611b8b82825461283a565b9055604051908152a2005b60405162461bcd60e51b815260206004820152601960248201527f4e6f206c6f636b65642066756e647320746f20756e6c6f636b000000000000006044820152606490fd5b346102eb5760203660031901126102eb57600435611bf7612c58565b611bff612c15565b335f52600660205260405f20611c1d828254610387828210156128e6565b9055611c385f80808085335af1611c32612869565b506128a8565b6040519081527f7084f5476618d8e60b11ef0d7d3f06914655adb8793e28ff7f018d4c76d505d560203392a260015f516020612c915f395f51905f5255005b346102eb575f3660031901126102eb576020600854604051908152f35b346102eb575f3660031901126102eb576020604051633b9aca008152f35b346102eb57611cc03661250f565b335f526006602052611cdb60ff600260405f20015416612683565b611ce3612c15565b335f526006602052600160405f20611d03838254610368828210156128e6565b815501611d1182825461283a565b9055815f52600760205260405f20600681019060ff8254169160048310156104e6578260039315908115611e27575b50611d9d575b50611d5433600183016129f7565b611d618360028301612a1c565b01611d6d82825461283a565b90556040519081527f63a388d91c3f5a1131bd9feb9743949035680eb44216ae3145054922851dd63d60203392a3005b848255600160ff1982541617905542600482015560015460078201555f82820155611dd0600182018054905f81556129cd565b611de2600282018054905f81556129cd565b5f848152600960205260409020546001600160a01b031615611e05575b84611d46565b5f84815260096020526040902080546001600160a01b03191633179055611dff565b8491501486611d40565b346102eb5760403660031901126102eb57611e4a612525565b611e52612c2f565b6004355f90815260096020526040902080546001600160a01b0319166001600160a01b03909216919091179055005b346102eb57611e8f3661250f565b335f526006602052611eaa60ff600260405f20015416612683565b611eb2612c15565b335f52600660205260405f2090808254106120675762989680811061202c57633b9aca008111611fef57825f52600760205260405f209160ff60068401541660048110156104e6576001611f0691146126c7565b5f9260018101845b8154811015611fe057611f218183612751565b905460039190911b1c6001600160a01b03163314611f4157600101611f0e565b905060019394506003611f9792611f84611f5f879460028401612751565b611f6e8a835483881b1c61283a565b82545f1960039390931b92831b1916911b179055565b01611f9086825461283a565b905561277a565b611fa28382546127c6565b815501611fb082825461283a565b90556040519081527f831b898f5c63fb1661c4fe2f18c712f8a51a01ffcb177769e5bb0d2bf81a80ec60203392a3005b505050611f976001929361277a565b60405162461bcd60e51b815260206004820152601560248201527445786365656473206d6178696d756d20726562757960581b6044820152606490fd5b60405162461bcd60e51b815260206004820152601360248201527242656c6f77206d696e696d756d20726562757960681b6044820152606490fd5b60405162461bcd60e51b815260206004820152601e60248201527f496e73756666696369656e742062616c616e636520666f7220726562757900006044820152606490fd5b346102eb5760403660031901126102eb576004356001600160a01b038116908190036102eb576024356120dd612c2f565b600d5480821161213457816121157f068253e15222684f4b4c34ae82903b1a01fa80ead1b43059ce3edc0d7bdf78bf936020936127c6565b600d5561212b5f80808085895af1611c32612869565b604051908152a2005b60405162461bcd60e51b815260206004820152601960248201527f496e73756666696369656e742072616b652062616c616e6365000000000000006044820152606490fd5b346102eb5760203660031901126102eb57600435612195612c2f565b60648110612345576103e881116123005760c8600154828181115f146122f257906121bf916127c6565b1161229f57600254620151808101809111610cd657421061225a57620151804201804211610cd65760405191606083019183831067ffffffffffffffff84111761187157600160407f19e11cd22510b4e10c682115977064cf0c419c481c32b0a735caffd3dd90fd91958195825284815283602082015201528160035580600455600160ff19600554161760055582519182526020820152a1005b60405162461bcd60e51b815260206004820152601860248201527f52616b65206368616e676520746f6f206672657175656e7400000000000000006044820152606490fd5b60405162461bcd60e51b815260206004820152602560248201527f52616b65206368616e67652065786365656473206d6178696d756d20616d706c604482015264697475646560d81b6064820152608490fd5b6122fb916127c6565b6121bf565b60405162461bcd60e51b815260206004820152601760248201527f52616b6520726174652061626f7665206d6178696d756d0000000000000000006044820152606490fd5b60405162461bcd60e51b815260206004820152601760248201527f52616b6520726174652062656c6f77206d696e696d756d0000000000000000006044820152606490fd5b346102eb5760203660031901126102eb57600435335f5260066020526123b960ff600260405f20015416612683565b6123c1612c15565b805f52600760205260405f2060ff60068201541660048110156104e65760016123ea91146126c7565b335f52600660205260405f206001810161240681541515612713565b6001830180545f94905f1990865b8181106124c5575b5061242a5f1983141561277a565b5f198101908111610cd65780821061247c575b505061244a6003926127d3565b61245660028201612813565b016124628482546127c6565b905561246f8382546127c6565b90556112d582825461283a565b6116c86124899185612751565b60028201928354915f198301928311610cd6578461138f6124bf926124b361244a96600399612751565b905490891b1c92612751565b9261243d565b6124cf8186612751565b905460039190911b1c6001600160a01b031633146124ef57600101612414565b90965090506125018160028401612751565b90549060031b1c958861241c565b60409060031901126102eb576004359060243590565b602435906001600160a01b03821682036102eb57565b600435906001600160a01b03821682036102eb57565b9060048210156104e65752565b60609060031901126102eb576004356001600160a01b03811681036102eb57906024359060443590565b90602080835192838152019201905f5b8181106125a55750505090565b82516001600160a01b0316845260209384019390920191600101612598565b90602080835192838152019201905f5b8181106125e15750505090565b82518452602093840193909201916001016125d4565b9181601f840112156102eb5782359167ffffffffffffffff83116102eb576020808501948460051b0101116102eb57565b9060806003198301126102eb576004359160243567ffffffffffffffff81116102eb5781612658916004016125f7565b929092916044359067ffffffffffffffff82116102eb5761267b916004016125f7565b909160643590565b1561268a57565b60405162461bcd60e51b8152602060048201526015602482015274141b185e595c881b9bdd081c9959da5cdd195c9959605a1b6044820152606490fd5b156126ce57565b60405162461bcd60e51b815260206004820152601960248201527f47616d65206e6f7420696e20706c6179696e67207374617465000000000000006044820152606490fd5b1561271a57565b60405162461bcd60e51b815260206004820152600f60248201526e4e6f206c6f636b65642066756e647360881b6044820152606490fd5b8054821015612766575f5260205f2001905f90565b634e487b7160e01b5f52603260045260245ffd5b1561278157565b60405162461bcd60e51b815260206004820152601860248201527f506c61796572206e6f7420696e2074686973207461626c6500000000000000006044820152606490fd5b91908203918211610cd657565b805480156127ff575f1901906127e98282612751565b81549060018060a01b039060031b1b1916905555565b634e487b7160e01b5f52603160045260245ffd5b805480156127ff575f1901906128298282612751565b8154905f199060031b1b1916905555565b91908201809211610cd657565b90601f8019910116810190811067ffffffffffffffff82111761187157604052565b3d156128a3573d9067ffffffffffffffff82116118715760405191612898601f8201601f191660200184612847565b82523d5f602084013e565b606090565b156128af57565b60405162461bcd60e51b815260206004820152600f60248201526e151c985b9cd9995c8819985a5b1959608a1b6044820152606490fd5b156128ed57565b60405162461bcd60e51b815260206004820152601e60248201527f496e73756666696369656e7420617661696c61626c652062616c616e636500006044820152606490fd5b1561293957565b60405162461bcd60e51b81526020600482015260146024820152732132b637bb9036b4b734b6bab690313abc96b4b760611b6044820152606490fd5b1561297c57565b60405162461bcd60e51b815260206004820152601660248201527522bc31b2b2b2399036b0bc34b6bab690313abc96b4b760511b6044820152606490fd5b81810292918115918404141715610cd657565b816129d6575050565b5f5260205f20908101905b8181106129ec575050565b5f81556001016129e1565b90815491600160401b8310156118715782611332916001612a1a95018155612751565b565b90815491600160401b831015611871578261138f916001612a1a95018155612751565b15612a4657565b60405162461bcd60e51b81526020600482015260166024820152754e6f2070656e64696e672072616b65206368616e676560501b6044820152606490fd5b15612a8b57565b60405162461bcd60e51b815260206004820152601760248201527f4e6f7420617574686f72697a65642064656c65676174650000000000000000006044820152606490fd5b15612ad757565b60405162461bcd60e51b8152602060048201526012602482015271496e76616c69642067616d6520737461746560701b6044820152606490fd5b15612b1857565b60405162461bcd60e51b815260206004820152600f60248201526e2737ba103a30b136329037bbb732b960891b6044820152606490fd5b15612b5657565b60405162461bcd60e51b8152602060048201526015602482015274082e4e4c2f240d8cadccee8d040dad2e6dac2e8c6d605b1b6044820152606490fd5b91908110156127665760051b0190565b356001600160a01b03811681036102eb5790565b5f198114610cd65760010190565b916020908281520191905f905b808210612bdf5750505090565b91929091908335906001600160a01b03821682036102eb576001600160a01b039091168152602090810193019160010190612bd2565b60ff5f5416612c2057565b63d93c066560e01b5f5260045ffd5b5f5460081c6001600160a01b03163303612c4557565b63118cdaa760e01b5f523360045260245ffd5b60025f516020612c915f395f51905f525414612c815760025f516020612c915f395f51905f5255565b633ee5aeb560e01b5f5260045ffdfe9b779b17422d0df92223018b32b4d1fa46e071723d6817e2486d003becc55f00a26469706673582212201a00b1c5502a7e96fa696e9db7ec3e47f4e25b0628034290e56c883582de213d64736f6c634300081b0033",
  "linkReferences": {},
  "deployedLinkReferences": {}
}