{
  "_format": "hh-sol-artifact-1",
  "contractName": "Tournament",
  "sourceName": "contracts/Tournament.sol",
  "abi": [
    {
      "inputs": [
        {
          "internalType": "address",
          "name": "_serverWallet",
          "type": "address"
        },
        {
          "internalType": "address",
          "name": "_chipToken",
          "type": "address"
        }
      ],
      "stateMutability": "nonpayable",
      "type": "constructor"
    },
    {
      "inputs": [],
      "name": "EnforcedPause",
      "type": "error"
    },
    {
      "inputs": [],
      "name": "ExpectedPause",
      "type": "error"
    },
    {
      "inputs": [
        {
          "internalType": "address",
          "name": "owner",
          "type": "address"
        }
      ],
      "name": "OwnableInvalidOwner",
      "type": "error"
    },
    {
      "inputs": [
        {
          "internalType": "address",
          "name": "account",
          "type": "address"
        }
      ],
      "name": "OwnableUnauthorizedAccount",
      "type": "error"
    },
    {
      "inputs": [],
      "name": "ReentrancyGuardReentrantCall",
      "type": "error"
    },
    {
      "anonymous": false,
      "inputs": [
        {
          "indexed": true,
          "internalType": "address",
          "name": "previousOwner",
          "type": "address"
        },
        {
          "indexed": true,
          "internalType": "address",
          "name": "newOwner",
          "type": "address"
        }
      ],
      "name": "OwnershipTransferred",
      "type": "event"
    },
    {
      "anonymous": false,
      "inputs": [
        {
          "indexed": false,
          "internalType": "address",
          "name": "account",
          "type": "address"
        }
      ],
      "name": "Paused",
      "type": "event"
    },
    {
      "anonymous": false,
      "inputs": [
        {
          "indexed": true,
          "internalType": "uint256",
          "name": "tournamentId",
          "type": "uint256"
        },
        {
          "indexed": true,
          "internalType": "address",
          "name": "player",
          "type": "address"
        },
        {
          "indexed": false,
          "internalType": "uint8",
          "name": "position",
          "type": "uint8"
        }
      ],
      "name": "PlayerJoined",
      "type": "event"
    },
    {
      "anonymous": false,
      "inputs": [
        {
          "indexed": true,
          "internalType": "uint256",
          "name": "tournamentId",
          "type": "uint256"
        },
        {
          "indexed": true,
          "internalType": "address",
          "name": "player",
          "type": "address"
        }
      ],
      "name": "PlayerLeft",
      "type": "event"
    },
    {
      "anonymous": false,
      "inputs": [
        {
          "indexed": true,
          "internalType": "uint256",
          "name": "tournamentId",
          "type": "uint256"
        },
        {
          "indexed": true,
          "internalType": "address",
          "name": "player",
          "type": "address"
        },
        {
          "indexed": false,
          "internalType": "uint256",
          "name": "amount",
          "type": "uint256"
        }
      ],
      "name": "PrizeClaimed",
      "type": "event"
    },
    {
      "anonymous": false,
      "inputs": [
        {
          "indexed": true,
          "internalType": "uint256",
          "name": "tournamentId",
          "type": "uint256"
        }
      ],
      "name": "TournamentCancelled",
      "type": "event"
    },
    {
      "anonymous": false,
      "inputs": [
        {
          "indexed": true,
          "internalType": "uint256",
          "name": "configId",
          "type": "uint256"
        },
        {
          "indexed": false,
          "internalType": "enum Tournament.TournamentType",
          "name": "tournamentType",
          "type": "uint8"
        },
        {
          "indexed": false,
          "internalType": "uint8",
          "name": "playerCount",
          "type": "uint8"
        }
      ],
      "name": "TournamentConfigCreated",
      "type": "event"
    },
    {
      "anonymous": false,
      "inputs": [
        {
          "indexed": true,
          "internalType": "uint256",
          "name": "tournamentId",
          "type": "uint256"
        },
        {
          "indexed": true,
          "internalType": "uint256",
          "name": "configId",
          "type": "uint256"
        }
      ],
      "name": "TournamentCreated",
      "type": "event"
    },
    {
      "anonymous": false,
      "inputs": [
        {
          "indexed": true,
          "internalType": "uint256",
          "name": "tournamentId",
          "type": "uint256"
        },
        {
          "indexed": false,
          "internalType": "address[]",
          "name": "rankings",
          "type": "address[]"
        },
        {
          "indexed": false,
          "internalType": "uint256",
          "name": "rakeCollected",
          "type": "uint256"
        }
      ],
      "name": "TournamentFinished",
      "type": "event"
    },
    {
      "anonymous": false,
      "inputs": [
        {
          "indexed": true,
          "internalType": "uint256",
          "name": "tournamentId",
          "type": "uint256"
        },
        {
          "indexed": false,
          "internalType": "uint256",
          "name": "prizePool",
          "type": "uint256"
        },
        {
          "indexed": false,
          "internalType": "uint256",
          "name": "playerCount",
          "type": "uint256"
        }
      ],
      "name": "TournamentStarted",
      "type": "event"
    },
    {
      "anonymous": false,
      "inputs": [
        {
          "indexed": false,
          "internalType": "address",
          "name": "account",
          "type": "address"
        }
      ],
      "name": "Unpaused",
      "type": "event"
    },
    {
      "stateMutability": "payable",
      "type": "fallback"
    },
    {
      "inputs": [
        {
          "internalType": "uint256",
          "name": "",
          "type": "uint256"
        }
      ],
      "name": "activeTournaments",
      "outputs": [
        {
          "internalType": "uint256",
          "name": "",
          "type": "uint256"
        }
      ],
      "stateMutability": "view",
      "type": "function"
    },
    {
      "inputs": [
        {
          "internalType": "uint256",
          "name": "tournamentId",
          "type": "uint256"
        }
      ],
      "name": "cancelJoin",
      "outputs": [],
      "stateMutability": "nonpayable",
      "type": "function"
    },
    {
      "inputs": [
        {
          "internalType": "uint256",
          "name": "tournamentId",
          "type": "uint256"
        }
      ],
      "name": "cancelTournament",
      "outputs": [],
      "stateMutability": "nonpayable",
      "type": "function"
    },
    {
      "inputs": [],
      "name": "chipToken",
      "outputs": [
        {
          "internalType": "address",
          "name": "",
          "type": "address"
        }
      ],
      "stateMutability": "view",
      "type": "function"
    },
    {
      "inputs": [
        {
          "internalType": "uint256",
          "name": "tournamentId",
          "type": "uint256"
        }
      ],
      "name": "claimPrize",
      "outputs": [],
      "stateMutability": "nonpayable",
      "type": "function"
    },
    {
      "inputs": [
        {
          "internalType": "uint256",
          "name": "",
          "type": "uint256"
        }
      ],
      "name": "configs",
      "outputs": [
        {
          "internalType": "enum Tournament.TournamentType",
          "name": "tournamentType",
          "type": "uint8"
        },
        {
          "internalType": "uint8",
          "name": "playerCount",
          "type": "uint8"
        },
        {
          "internalType": "uint256",
          "name": "buyIn",
          "type": "uint256"
        },
        {
          "internalType": "uint256",
          "name": "rakeRate",
          "type": "uint256"
        },
        {
          "internalType": "uint256",
          "name": "initialChips",
          "type": "uint256"
        },
        {
          "internalType": "enum Tournament.StartMode",
          "name": "startMode",
          "type": "uint8"
        },
        {
          "internalType": "uint256",
          "name": "waitTimeout",
          "type": "uint256"
        }
      ],
      "stateMutability": "view",
      "type": "function"
    },
    {
      "inputs": [
        {
          "internalType": "uint256",
          "name": "configId",
          "type": "uint256"
        }
      ],
      "name": "createTournament",
      "outputs": [
        {
          "internalType": "uint256",
          "name": "",
          "type": "uint256"
        }
      ],
      "stateMutability": "nonpayable",
      "type": "function"
    },
    {
      "inputs": [
        {
          "internalType": "enum Tournament.TournamentType",
          "name": "_tournamentType",
          "type": "uint8"
        },
        {
          "internalType": "uint8",
          "name": "_playerCount",
          "type": "uint8"
        },
        {
          "internalType": "uint256",
          "name": "_buyIn",
          "type": "uint256"
        },
        {
          "internalType": "uint256",
          "name": "_rakeRate",
          "type": "uint256"
        },
        {
          "internalType": "uint256[]",
          "name": "_prizeDistribution",
          "type": "uint256[]"
        },
        {
          "internalType": "uint256",
          "name": "_initialChips",
          "type": "uint256"
        },
        {
          "internalType": "enum Tournament.StartMode",
          "name": "_startMode",
          "type": "uint8"
        },
        {
          "internalType": "uint256",
          "name": "_waitTimeout",
          "type": "uint256"
        }
      ],
      "name": "createTournamentConfig",
      "outputs": [
        {
          "internalType": "uint256",
          "name": "",
          "type": "uint256"
        }
      ],
      "stateMutability": "nonpayable",
      "type": "function"
    },
    {
      "inputs": [],
      "name": "emergencyWithdraw",
      "outputs": [],
      "stateMutability": "nonpayable",
      "type": "function"
    },
    {
      "inputs": [
        {
          "internalType": "uint256",
          "name": "tournamentId",
          "type": "uint256"
        },
        {
          "internalType": "address",
          "name": "player",
          "type": "address"
        }
      ],
      "name": "findPlayerIndex",
      "outputs": [
        {
          "internalType": "uint256",
          "name": "",
          "type": "uint256"
        }
      ],
      "stateMutability": "view",
      "type": "function"
    },
    {
      "inputs": [
        {
          "internalType": "uint256",
          "name": "tournamentId",
          "type": "uint256"
        },
        {
          "internalType": "address[]",
          "name": "rankings",
          "type": "address[]"
        }
      ],
      "name": "finishTournament",
      "outputs": [],
      "stateMutability": "nonpayable",
      "type": "function"
    },
    {
      "inputs": [],
      "name": "getActiveTournaments",
      "outputs": [
        {
          "internalType": "uint256[]",
          "name": "",
          "type": "uint256[]"
        }
      ],
      "stateMutability": "view",
      "type": "function"
    },
    {
      "inputs": [
        {
          "internalType": "uint256",
          "name": "tournamentId",
          "type": "uint256"
        },
        {
          "internalType": "address",
          "name": "player",
          "type": "address"
        }
      ],
      "name": "getPlayerPrize",
      "outputs": [
        {
          "internalType": "uint256",
          "name": "",
          "type": "uint256"
        }
      ],
      "stateMutability": "view",
      "type": "function"
    },
    {
      "inputs": [
        {
          "internalType": "uint256",
          "name": "configId",
          "type": "uint256"
        }
      ],
      "name": "getTournamentConfig",
      "outputs": [
        {
          "internalType": "enum Tournament.TournamentType",
          "name": "tournamentType",
          "type": "uint8"
        },
        {
          "internalType": "uint8",
          "name": "playerCount",
          "type": "uint8"
        },
        {
          "internalType": "uint256",
          "name": "buyIn",
          "type": "uint256"
        },
        {
          "internalType": "uint256",
          "name": "rakeRate",
          "type": "uint256"
        },
        {
          "internalType": "uint256[]",
          "name": "prizeDistribution",
          "type": "uint256[]"
        },
        {
          "internalType": "uint256",
          "name": "initialChips",
          "type": "uint256"
        },
        {
          "internalType": "enum Tournament.StartMode",
          "name": "startMode",
          "type": "uint8"
        },
        {
          "internalType": "uint256",
          "name": "waitTimeout",
          "type": "uint256"
        }
      ],
      "stateMutability": "view",
      "type": "function"
    },
    {
      "inputs": [
        {
          "internalType": "uint256",
          "name": "tournamentId",
          "type": "uint256"
        }
      ],
      "name": "getTournamentInfo",
      "outputs": [
        {
          "internalType": "uint256",
          "name": "configId",
          "type": "uint256"
        },
        {
          "internalType": "enum Tournament.TournamentStatus",
          "name": "status",
          "type": "uint8"
        },
        {
          "internalType": "address[]",
          "name": "players",
          "type": "address[]"
        },
        {
          "internalType": "uint256",
          "name": "prizePool",
          "type": "uint256"
        },
        {
          "internalType": "uint256",
          "name": "rakeCollected",
          "type": "uint256"
        },
        {
          "internalType": "uint256",
          "name": "startTime",
          "type": "uint256"
        },
        {
          "internalType": "uint256",
          "name": "endTime",
          "type": "uint256"
        },
        {
          "internalType": "address[]",
          "name": "finalRankings",
          "type": "address[]"
        }
      ],
      "stateMutability": "view",
      "type": "function"
    },
    {
      "inputs": [
        {
          "internalType": "uint256",
          "name": "tournamentId",
          "type": "uint256"
        }
      ],
      "name": "getTournamentPlayers",
      "outputs": [
        {
          "internalType": "address[]",
          "name": "",
          "type": "address[]"
        }
      ],
      "stateMutability": "view",
      "type": "function"
    },
    {
      "inputs": [
        {
          "internalType": "uint256",
          "name": "tournamentId",
          "type": "uint256"
        },
        {
          "internalType": "address",
          "name": "player",
          "type": "address"
        }
      ],
      "name": "hasPlayerJoined",
      "outputs": [
        {
          "internalType": "bool",
          "name": "",
          "type": "bool"
        }
      ],
      "stateMutability": "view",
      "type": "function"
    },
    {
      "inputs": [
        {
          "internalType": "uint256",
          "name": "tournamentId",
          "type": "uint256"
        }
      ],
      "name": "joinTournament",
      "outputs": [],
      "stateMutability": "payable",
      "type": "function"
    },
    {
      "inputs": [],
      "name": "owner",
      "outputs": [
        {
          "internalType": "address",
          "name": "",
          "type": "address"
        }
      ],
      "stateMutability": "view",
      "type": "function"
    },
    {
      "inputs": [],
      "name": "pause",
      "outputs": [],
      "stateMutability": "nonpayable",
      "type": "function"
    },
    {
      "inputs": [],
      "name": "paused",
      "outputs": [
        {
          "internalType": "bool",
          "name": "",
          "type": "bool"
        }
      ],
      "stateMutability": "view",
      "type": "function"
    },
    {
      "inputs": [
        {
          "internalType": "address",
          "name": "",
          "type": "address"
        }
      ],
      "name": "playerCurrentTournament",
      "outputs": [
        {
          "internalType": "uint256",
          "name": "",
          "type": "uint256"
        }
      ],
      "stateMutability": "view",
      "type": "function"
    },
    {
      "inputs": [],
      "name": "renounceOwnership",
      "outputs": [],
      "stateMutability": "nonpayable",
      "type": "function"
    },
    {
      "inputs": [],
      "name": "serverWallet",
      "outputs": [
        {
          "internalType": "address",
          "name": "",
          "type": "address"
        }
      ],
      "stateMutability": "view",
      "type": "function"
    },
    {
      "inputs": [
        {
          "internalType": "address",
          "name": "_chipToken",
          "type": "address"
        }
      ],
      "name": "setChipToken",
      "outputs": [],
      "stateMutability": "nonpayable",
      "type": "function"
    },
    {
      "inputs": [
        {
          "internalType": "address",
          "name": "_serverWallet",
          "type": "address"
        }
      ],
      "name": "setServerWallet",
      "outputs": [],
      "stateMutability": "nonpayable",
      "type": "function"
    },
    {
      "inputs": [
        {
          "internalType": "uint256",
          "name": "tournamentId",
          "type": "uint256"
        }
      ],
      "name": "startTournament",
      "outputs": [],
      "stateMutability": "nonpayable",
      "type": "function"
    },
    {
      "inputs": [],
      "name": "tournamentCounter",
      "outputs": [
        {
          "internalType": "uint256",
          "name": "",
          "type": "uint256"
        }
      ],
      "stateMutability": "view",
      "type": "function"
    },
    {
      "inputs": [
        {
          "internalType": "uint256",
          "name": "",
          "type": "uint256"
        }
      ],
      "name": "tournaments",
      "outputs": [
        {
          "internalType": "uint256",
          "name": "configId",
          "type": "uint256"
        },
        {
          "internalType": "enum Tournament.TournamentStatus",
          "name": "status",
          "type": "uint8"
        },
        {
          "internalType": "uint256",
          "name": "prizePool",
          "type": "uint256"
        },
        {
          "internalType": "uint256",
          "name": "rakeCollected",
          "type": "uint256"
        },
        {
          "internalType": "uint256",
          "name": "startTime",
          "type": "uint256"
        },
        {
          "internalType": "uint256",
          "name": "endTime",
          "type": "uint256"
        }
      ],
      "stateMutability": "view",
      "type": "function"
    },
    {
      "inputs": [
        {
          "internalType": "address",
          "name": "newOwner",
          "type": "address"
        }
      ],
      "name": "transferOwnership",
      "outputs": [],
      "stateMutability": "nonpayable",
      "type": "function"
    },
    {
      "inputs": [],
      "name": "unpause",
      "outputs": [],
      "stateMutability": "nonpayable",
      "type": "function"
    },
    {
      "stateMutability": "payable",
      "type": "receive"
    }
  ],
  "bytecode": "0x6080604052346107af576129886040813803918261001c816107d3565b9384928339810103126107af5761003e6020610037836107f8565b92016107f8565b9060017f9b779b17422d0df92223018b32b4d1fa46e071723d6817e2486d003becc55f0055331561079c575f8054336001600160a01b0319821681178355604051939290916001600160a01b0316907f8be0079c531659141344cd1fd0a4f28419497f9722a3daafe3b4186f6b6457e09080a36001600160a01b0316908115610750575060018060a01b0319600154161760015560018060a01b031660018060a01b031960025416176002555f60035560606100f9816107d3565b6002815290601f19810136602084013760466101148361080c565b52601e61012083610819565b526101296107b3565b5f81526020810160028152604082016305f5e10081528383016101f481526080840195865260a08401906103e8825260c08501925f845260e08601945f865260015f52600460205260405f2096519061018182610839565b61018a82610839565b60ff61ff008954925160081b1692169061ffff19161717865551600186015551600285015560038401955180519060018060401b03821161067a5768010000000000000000821161067a57875482895580831061072a575b50602001965f5260205f20965f5b82811061071657505050906006929151600485015560058401905161021481610839565b61021d81610839565b60ff80198354169116179055519101556080610238816107d3565b60038152601f19820192908336602083013760326102558261080c565b52601e61026182610819565b52601461026d82610829565b526102766107b3565b905f825260208201906003825260408301906302faf0808252848401906101f4825286850190815260a08501916105dc835260c08601935f855260e08701955f875260025f52600460205260405f209751906102d182610839565b6102da82610839565b60ff61ff008a54925160081b1692169061ffff1916171787555160018701555160028601556003850190519081519160018060401b03831161067a5768010000000000000000831161067a5781548383558084106106f0575b50602001905f5260205f205f5b8381106106dc5750505050906006929151600485015560058401905161036581610839565b61036e81610839565b60ff8019835416911617905551910155610387826107d3565b9260038452366020850137603261039d8461080c565b52601e6103a984610819565b5260146103b584610829565b526103be6107b3565b5f81526020810160068152604082016302faf08081528383016101f4815285840196875260a08401906105dc825260c08501925f845260e08601945f865260035f52600460205260405f2096519061041582610839565b61041e82610839565b60ff61ff008954925160081b1692169061ffff19161717865551600186015551600285015560038401965180519060018060401b03821161067a5768010000000000000000821161067a578854828a558083106106b6575b50602001975f5260205f20975f5b8281106106a25750505090600692915160048501556005840190516104a881610839565b6104b181610839565b60ff80198354169116179055519101556104cb60c06107d3565b916005835260a0366020850137602d6104e38461080c565b5260196104ef84610819565b52600f6104fb84610829565b5282516003101561068e57600a8184015282516004101561068e57600560a08401526105256107b3565b916001835260208301916009835260408401916305f5e10083528401906101f48252840194855260a08401906107d0825260c08501926001845260e086019461012c865260045f52600460205260405f2096519061058282610839565b61058b82610839565b60ff61ff008954925160081b1692169061ffff19161717865551600186015551600285015560038401945180519060018060401b03821161067a5768010000000000000000821161067a578654828855808310610654575b50602001955f5260205f20955f5b8281106106405786600687878751600485015560058401905161061381610839565b61061c81610839565b60ff8019835416911617905551910155600460035560405161213090816108588239f35b60019060208351930192818a0155016105f1565b875f528260205f2091820191015b81811061066f57506105e3565b5f8155600101610662565b634e487b7160e01b5f52604160045260245ffd5b634e487b7160e01b5f52603260045260245ffd5b60019060208351930192818c015501610484565b895f528260205f2091820191015b8181106106d15750610476565b5f81556001016106c4565b600190602084519401938184015501610340565b825f528360205f2091820191015b81811061070b5750610333565b5f81556001016106fe565b60019060208351930192818b0155016101f0565b885f528260205f2091820191015b81811061074557506101e2565b5f8155600101610738565b62461bcd60e51b815260206004820152602160248201527f546f75726e616d656e743a20696e76616c6964207365727665722077616c6c656044820152601d60fa1b6064820152608490fd5b631e4fbdf760e01b5f525f60045260245ffd5b5f80fd5b6040519061010082016001600160401b0381118382101761067a57604052565b6040519190601f01601f191682016001600160401b0381118382101761067a57604052565b51906001600160a01b03821682036107af57565b80511561068e5760200190565b80516001101561068e5760400190565b80516002101561068e5760600190565b6002111561084357565b634e487b7160e01b5f52602160045260245ffdfe608080604052600436101561001057005b5f3560e01c90816298fa2214611b935750806307286e2f14611b635780631372fe8f146117005780631a59f0f0146116d857806326f7519a14611697578063324322331461154a57806337ada345146115075780633b61403c146114df5780633f4ba83a146114735780633fbe49181461138a578063464899ba146113435780634a88fd43146110f657806356eafcc014610d9a5780635c975abb14610d76578063651ea94314610c2c578063692734fe14610bc2578063715018a614610b6b57806373ed5c1c14610b4e5780637503e1b714610ae25780637a99aca414610ab45780638456cb5914610a545780638da5cb5b14610a2d578063c4415446146109f5578063cac766d214610948578063d115cac6146106c2578063d706ab3c14610631578063d7098154146103f4578063db2e21bc14610376578063dd20a53e1461022d578063f2fde38b146101a85763f780210b1461016c57005b346101a45760203660031901126101a4576001600160a01b0361018d611c35565b165f526006602052602060405f2054604051908152f35b5f80fd5b346101a45760203660031901126101a4576101c1611c35565b6101c961205f565b6001600160a01b0316801561021a575f80546001600160a01b03198116831782556001600160a01b0316907f8be0079c531659141344cd1fd0a4f28419497f9722a3daafe3b4186f6b6457e09080a3005b631e4fbdf760e01b5f525f60045260245ffd5b346101a45760203660031901126101a45760043561025660018060a01b03600154163314611e78565b805f52600460205260ff60405f205460081c161561032757610279600354611db1565b9081600355815f5260056020525f6006604082208381556001810160ff198154169055826003820155826004820155826005820155015560075491600160401b831015610313576102d283600160209501600755611cf8565b81549060031b9083821b915f19901b191617905560405191817fcbdd4006f4a0ca378f1c5d1f11060ba15bc180a12590dd3ea3c219454582939e5f80a38152f35b634e487b7160e01b5f52604160045260245ffd5b60405162461bcd60e51b815260206004820152602160248201527f546f75726e616d656e743a20636f6e66696720646f6573206e6f7420657869736044820152601d60fa1b6064820152608490fd5b346101a4575f3660031901126101a45761038e61205f565b5f8080804760018060a01b038254165af16103a7611f0f565b50156103af57005b60405162461bcd60e51b815260206004820152601d60248201527f546f75726e616d656e743a207769746864726177616c206661696c65640000006044820152606490fd5b346101a45760203660031901126101a457600435610410612085565b80151580610625575b61042290611ec3565b805f52600560205260405f209060ff6001830154166004811015610611576002036105cc57600982019160018060a01b0333165f528260205260ff60405f2054166105875760080160018060a01b0333165f528060205260405f20541561054b57335f818152602092835260408082205495909352918220805460ff1916600117905581908190819086905af16104b7611f0f565b50156104fc576040519182527f4aa95f981a8337cb337de335b965507da0879c3b49f799d20058e913f5ad2c2660203393a360015f5160206120db5f395f51905f5255005b60405162461bcd60e51b815260206004820152602160248201527f546f75726e616d656e743a207072697a65207472616e73666572206661696c656044820152601960fa1b6064820152608490fd5b60405162461bcd60e51b8152602060048201526014602482015273546f75726e616d656e743a206e6f207072697a6560601b6044820152606490fd5b60405162461bcd60e51b815260206004820152601b60248201527f546f75726e616d656e743a20616c726561647920636c61696d656400000000006044820152606490fd5b60405162461bcd60e51b815260206004820152601960248201527f546f75726e616d656e743a206e6f7420636f6d706c65746564000000000000006044820152606490fd5b634e487b7160e01b5f52602160045260245ffd5b50600354811115610419565b346101a45760203660031901126101a45761064a611c35565b61065261205f565b6001600160a01b0316801561067d576bffffffffffffffffffffffff60a01b60015416176001555f80f35b60405162461bcd60e51b815260206004820152601b60248201527f546f75726e616d656e743a20696e76616c6964206164647265737300000000006044820152606490fd5b60203660031901126101a4576004356106d9612085565b6106e16120bd565b8015158061093c575b6106f390611ec3565b805f52600560205260ff600160405f200154166004811015610611576107199015611f9a565b335f52600660205260405f20546108ed57805f52600560205260405f2080545f52600460205260405f206001810154340361089c57600282019060ff8254915460081c168110156108575761076e3385611d39565b61081257600160401b8110156103135760ff926107b461079683600160039501865585611d24565b81546001600160a01b0360039290921b91821b19163390911b179055565b016107c0348254611da4565b9055335f5260066020528260405f20555416906040519182527f267de9464a1783407eb0e8ba56bcd59ef059648e576c0703bfd6a3b84355e83160203393a360015f5160206120db5f395f51905f5255005b60405162461bcd60e51b815260206004820152601a60248201527f546f75726e616d656e743a20616c7265616479206a6f696e65640000000000006044820152606490fd5b60405162461bcd60e51b815260206004820152601860248201527f546f75726e616d656e743a20616c72656164792066756c6c00000000000000006044820152606490fd5b60405162461bcd60e51b815260206004820152602360248201527f546f75726e616d656e743a20696e636f7272656374206275792d696e20616d6f6044820152621d5b9d60ea1b6064820152608490fd5b60405162461bcd60e51b815260206004820152602160248201527f546f75726e616d656e743a20616c726561647920696e20746f75726e616d656e6044820152601d60fa1b6064820152608490fd5b506003548111156106ea565b346101a45760203660031901126101a4576004355f52600560205260405f2080546109f160ff60018401541692600381015490600481015460058201546006830154916109cf6109a6600761099f60028801611e25565b9601611e25565b946109bc6040519a8b9a8b5260208b0190611ceb565b61010060408a0152610100890190611c7c565b946060880152608087015260a086015260c085015283820360e0850152611c7c565b0390f35b346101a45760203660031901126101a4576004356007548110156101a457610a1e602091611cf8565b90549060031b1c604051908152f35b346101a4575f3660031901126101a4575f546040516001600160a01b039091168152602090f35b346101a4575f3660031901126101a457610a6c61205f565b610a746120bd565b5f805460ff60a01b1916600160a01b1790556040513381527f62e78cea01bee320cd4e420270b5ea74000d11b0c9f74754ebdbfc544b05a25890602090a1005b346101a45760403660031901126101a4576020610ada610ad2611c1f565b600435612007565b604051908152f35b346101a45760203660031901126101a4576004355f52600560205260c060405f2080549060ff600182015416906003810154600482015490610b3860066005850154940154946040519687526020870190611ceb565b60408501526060840152608083015260a0820152f35b346101a4575f3660031901126101a4576020600354604051908152f35b346101a4575f3660031901126101a457610b8361205f565b5f80546001600160a01b0319811682556001600160a01b03167f8be0079c531659141344cd1fd0a4f28419497f9722a3daafe3b4186f6b6457e08280a3005b346101a4575f3660031901126101a457604051600754808252602082019060075f5260205f20905f5b818110610c16576109f185610c0281870382611dbf565b604051918291602083526020830190611cb8565b8254845260209093019260019283019201610beb565b346101a45760203660031901126101a457600435610c5560018060a01b03600154163314611e78565b80151580610d6a575b610c6790611ec3565b805f52600560205260ff600160405f20015416600481101561061157610c8d9015611f9a565b805f52600560205260405f2080545f52600460205260405f209060028101805460ff845460081c1603610d2e577f2b4fbc018be75e6ff98b219698828856ce311122193b11596150e17268e2ee319282610d0760036040950192612710610cfa6002865493015483611de1565b0490816004850155611fe6565b825560018101600160ff1982541617905560054291015554905482519182526020820152a2005b60405162461bcd60e51b8152602060048201526014602482015273151bdd5c9b985b595b9d0e881b9bdd08199d5b1b60621b6044820152606490fd5b50600354811115610c5e565b346101a4575f3660031901126101a457602060ff5f5460a01c166040519015158152f35b346101a45760403660031901126101a45760043560243567ffffffffffffffff81116101a457610dce903690600401611c4b565b90610de460018060a01b03600154163314611e78565b821515806110ea575b610df690611ec3565b825f52600560205260405f209182545f52600460205260405f2092600181019360ff8554166004811015610611576001036110a55760028201948554840361106057805460ff191660021790554260068301556007820167ffffffffffffffff841161031357600160401b841161031357610e7984829897985481845583611df4565b84905f5260205f20905f5b85811061103f575050505f95600380840192019260088101975b85811080611035575b15610f0357610efe906064610ece8654610ec1848a611d24565b90549060031b1c90611de1565b04610ee2610edd838a8c611d94565b611ff3565b6001600160a01b03165f90815260208c90526040902055611db1565b610e9e565b508685875f5b8554811015610f405780610f1f60019288611d24565b838060a01b0391549060031b1c165f5260066020525f604081205501610f09565b5060048401805480610fc7575b505460405192806040850160408652526060840192905f905b808210610f9d57867f68ff998150d8d5bc22837fa5efdcd59959b9994717ca44d405597ff822cb7c1c8780888860208301520390a2005b90919384359060018060a01b0382168092036101a457602081600193829352019501920190610f66565b6001545f918291829182916001600160a01b03165af1610fe5611f0f565b5015610ff15784610f4d565b606460405162461bcd60e51b815260206004820152602060248201527f546f75726e616d656e743a2072616b65207472616e73666572206661696c65646044820152fd5b5084548110610ea7565b6001906020611050849b9a9b611ff3565b9301928185015501979697610e84565b60405162461bcd60e51b815260206004820152601c60248201527f546f75726e616d656e743a20696e76616c69642072616e6b696e6773000000006044820152606490fd5b60405162461bcd60e51b815260206004820152601b60248201527f546f75726e616d656e743a206e6f7420696e2070726f677265737300000000006044820152606490fd5b50600354831115610ded565b346101a45760203660031901126101a457600435611112612085565b80151580611337575b61112490611ec3565b805f52600560205260ff600160405f2001541660048110156106115761114a9015611f9a565b805f52600560205260405f2080545f52600460205260405f209061116e3384611d39565b156112f95761117d3384612007565b916002820192835490818110156112b4575f1982019182116112a0576111c26111a96111e69387611d24565b905460039190911b1c6001600160a01b03169186611d24565b81546001600160a01b0393841660039290921b91821b9390911b1916919091179055565b825490811561128c575f809360018294936112539784958519019061120b8282611d24565b815490868060a01b039060031b1b19169055550190611231600383549201918254611fe6565b9055338252600660205281604081205554335af161124d611f0f565b50611f4e565b33907fb2bd643202385c64d9814c6c3fa61b1ba098d6652292e9d9a6f1a0cdae6eb8245f80a360015f5160206120db5f395f51905f5255005b634e487b7160e01b5f52603160045260245ffd5b634e487b7160e01b5f52601160045260245ffd5b60405162461bcd60e51b815260206004820152601c60248201527f546f75726e616d656e743a20706c61796572206e6f7420666f756e64000000006044820152606490fd5b60405162461bcd60e51b8152602060048201526016602482015275151bdd5c9b985b595b9d0e881b9bdd081a9bda5b995960521b6044820152606490fd5b5060035481111561111b565b346101a45760403660031901126101a45761135c611c1f565b6004355f526005602052600860405f20019060018060a01b03165f52602052602060405f2054604051908152f35b346101a45760203660031901126101a4576004355f52600460205260405f2080549060ff821690600181015460028201549160038101600482015493600660ff6005850154169301549360405192805480855260208501915f5260205f20905f5b81811061145d5750505090611407846114409594930384611dbf565b60ff60405199896114188c9b611c15565b8a5260081c166020890152604088015260608701526101006080870152610100860190611cb8565b9260a085015261144f81611c15565b60c084015260e08301520390f35b82548452602090930192600192830192016113eb565b346101a4575f3660031901126101a45761148b61205f565b5f5460ff8160a01c16156114d05760ff60a01b19165f556040513381527f5db9ee0a495bf2e6ff9c91a7834c1ba4fdd244a5e8aa4e537bd38aeae4b073aa90602090a1005b638dfc202b60e01b5f5260045ffd5b346101a4575f3660031901126101a4576002546040516001600160a01b039091168152602090f35b346101a45760203660031901126101a457611520611c35565b61152861205f565b600280546001600160a01b0319166001600160a01b0392909216919091179055005b346101a45760203660031901126101a45760043561157360018060a01b03600154163314611e78565b8015158061168b575b61158590611ec3565b805f52600560205260405f20906001820160ff815416600481101561061157611646578290600360ff1982541617905580545f526004602052600160405f200154915f9060028301915b825481101561161957806116135f8080808a6115ed6001988b611d24565b898060a01b0391549060031b1c1680835260066020528260408120555af161124d611f0f565b016115cf565b505f60038401557ffa61ec8d7e5a58ceba17772b10ba0c6caa65b40b200302be35f00efc264c78955f80a2005b60405162461bcd60e51b815260206004820152601960248201527f546f75726e616d656e743a2063616e6e6f742063616e63656c000000000000006044820152606490fd5b5060035481111561157c565b346101a45760203660031901126101a4576004355f5260056020526109f16116c4600260405f2001611e25565b604051918291602083526020830190611c7c565b346101a4575f3660031901126101a4576001546040516001600160a01b039091168152602090f35b346101a4576101003660031901126101a45760043560028110156101a4576024359060ff82168092036101a457604435906064359260843567ffffffffffffffff81116101a457611755903690600401611c4b565b949060c43560028110156101a45761176b61205f565b600284148015611b59575b8015611b4f575b8015611b45575b15611b01578515611aaa576103e88311611a65578615611a14575f805b8882106119f4576064915003611998576117bc600354611db1565b958660035560405193610100850185811067ffffffffffffffff821117610313576040526117e987611c15565b8685526020850193868552604086019283526060860191825267ffffffffffffffff8a11610313578960051b6040519a611826602083018d611dbf565b8b5260208b01908201913683116101a457905b828210611988575050506080850198895260a085019160a435835260c086019361186281611c15565b845260e086019460e4358652895f52600460205260405f2096519061188682611c15565b61188f82611c15565b60ff61ff008954925160081b1692169061ffff19161717865551600186015551600285015560038401975180519067ffffffffffffffff821161031357600160401b8211610313576020906118ea838c81815491558d611df4565b01985f5260205f20985f5b8281106119745760208a807f38493c0e0e8e5bfa42838675ac563952c7c48da1b9917b08348dc5cc303662b260408d8d8d60068e8e8e51600485015560058401905161194081611c15565b61194981611c15565b60ff801983541691161790555191015582519161196581611c15565b825286820152a2604051908152f35b60019060208351930192818d0155016118f5565b8135815260209182019101611839565b60405162461bcd60e51b815260206004820152602e60248201527f546f75726e616d656e743a207072697a6520646973747269627574696f6e206d60448201526d07573742073756d20746f203130360941b6064820152608490fd5b611a0c600191611a05848c88611d94565b3590611da4565b9101906117a1565b60405162461bcd60e51b8152602060048201526024808201527f546f75726e616d656e743a20656d707479207072697a652064697374726962756044820152633a34b7b760e11b6064820152608490fd5b60405162461bcd60e51b815260206004820152601e60248201527f546f75726e616d656e743a2072616b65207261746520746f6f206869676800006044820152606490fd5b60405162461bcd60e51b815260206004820152602960248201527f546f75726e616d656e743a206275792d696e206d75737420626520677265617460448201526806572207468616e20360bc1b6064820152608490fd5b606460405162461bcd60e51b815260206004820152602060248201527f546f75726e616d656e743a20696e76616c696420706c6179657220636f756e746044820152fd5b5060098414611784565b506006841461177d565b5060038414611776565b346101a45760403660031901126101a4576020611b89611b81611c1f565b600435611d39565b6040519015158152f35b346101a45760203660031901126101a45760e0906004355f52600460205260405f2080549060ff821691600182015460028301549060ff60048501549360068260058801541696015496611be681611c15565b885260081c166020870152604086015260608501526080840152611c0981611c15565b60a083015260c0820152f35b6002111561061157565b602435906001600160a01b03821682036101a457565b600435906001600160a01b03821682036101a457565b9181601f840112156101a45782359167ffffffffffffffff83116101a4576020808501948460051b0101116101a457565b90602080835192838152019201905f5b818110611c995750505090565b82516001600160a01b0316845260209384019390920191600101611c8c565b90602080835192838152019201905f5b818110611cd55750505090565b8251845260209384019390920191600101611cc8565b9060048210156106115752565b600754811015611d105760075f5260205f2001905f90565b634e487b7160e01b5f52603260045260245ffd5b8054821015611d10575f5260205f2001905f90565b5f52600560205260405f209060025f92018054925b838110611d5d57505050505f90565b611d678183611d24565b905460039190911b1c6001600160a01b0390811690841614611d8b57600101611d4e565b50505050600190565b9190811015611d105760051b0190565b919082018092116112a057565b5f1981146112a05760010190565b90601f8019910116810190811067ffffffffffffffff82111761031357604052565b818102929181159184041417156112a057565b919091828210611e0357505050565b5f5260205f2091820191015b818110611e1a575050565b5f8155600101611e0f565b90604051918281549182825260208201905f5260205f20925f5b818110611e56575050611e5492500383611dbf565b565b84546001600160a01b0316835260019485019487945060209093019201611e3f565b15611e7f57565b606460405162461bcd60e51b815260206004820152602060248201527f546f75726e616d656e743a2063616c6c6572206973206e6f74207365727665726044820152fd5b15611eca57565b60405162461bcd60e51b815260206004820152601a60248201527f546f75726e616d656e743a20646f6573206e6f742065786973740000000000006044820152606490fd5b3d15611f49573d9067ffffffffffffffff82116103135760405191611f3e601f8201601f191660200184611dbf565b82523d5f602084013e565b606090565b15611f5557565b60405162461bcd60e51b815260206004820152601960248201527f546f75726e616d656e743a20726566756e64206661696c6564000000000000006044820152606490fd5b15611fa157565b60405162461bcd60e51b815260206004820152601760248201527f546f75726e616d656e743a206e6f742077616974696e670000000000000000006044820152606490fd5b919082039182116112a057565b356001600160a01b03811681036101a45790565b5f52600560205260405f209060025f9201908154925b83811061202a5750505090565b6120348184611d24565b905460039190911b1c6001600160a01b03908116908316146120585760010161201d565b9250505090565b5f546001600160a01b0316330361207257565b63118cdaa760e01b5f523360045260245ffd5b60025f5160206120db5f395f51905f5254146120ae5760025f5160206120db5f395f51905f5255565b633ee5aeb560e01b5f5260045ffd5b60ff5f5460a01c166120cb57565b63d93c066560e01b5f5260045ffdfe9b779b17422d0df92223018b32b4d1fa46e071723d6817e2486d003becc55f00a2646970667358221220d395cc0b1f7aead7eefa4830611979618ba23592ee9da8332e777db00ff76dd264736f6c634300081b0033",
  "linkReferences": {},
  "deployedLinkReferences": {}
}