{
  "_format": "hh-sol-artifact-1",
  "contractName": "Tournament",
  "sourceName": "contracts/Tournament.sol",
  "abi": [
    {
      "inputs": [
        {
          "internalType": "address",
          "name": "_serverWallet",
          "type": "address"
        },
        {
          "internalType": "address",
          "name": "_chipToken",
          "type": "address"
        }
      ],
      "stateMutability": "nonpayable",
      "type": "constructor"
    },
    {
      "anonymous": false,
      "inputs": [
        {
          "indexed": true,
          "internalType": "address",
          "name": "previousOwner",
          "type": "address"
        },
        {
          "indexed": true,
          "internalType": "address",
          "name": "newOwner",
          "type": "address"
        }
      ],
      "name": "OwnershipTransferred",
      "type": "event"
    },
    {
      "anonymous": false,
      "inputs": [
        {
          "indexed": false,
          "internalType": "address",
          "name": "account",
          "type": "address"
        }
      ],
      "name": "Paused",
      "type": "event"
    },
    {
      "anonymous": false,
      "inputs": [
        {
          "indexed": true,
          "internalType": "uint256",
          "name": "tournamentId",
          "type": "uint256"
        },
        {
          "indexed": true,
          "internalType": "address",
          "name": "player",
          "type": "address"
        },
        {
          "indexed": false,
          "internalType": "uint8",
          "name": "position",
          "type": "uint8"
        }
      ],
      "name": "PlayerJoined",
      "type": "event"
    },
    {
      "anonymous": false,
      "inputs": [
        {
          "indexed": true,
          "internalType": "uint256",
          "name": "tournamentId",
          "type": "uint256"
        },
        {
          "indexed": true,
          "internalType": "address",
          "name": "player",
          "type": "address"
        }
      ],
      "name": "PlayerLeft",
      "type": "event"
    },
    {
      "anonymous": false,
      "inputs": [
        {
          "indexed": true,
          "internalType": "uint256",
          "name": "tournamentId",
          "type": "uint256"
        },
        {
          "indexed": true,
          "internalType": "address",
          "name": "player",
          "type": "address"
        },
        {
          "indexed": false,
          "internalType": "uint256",
          "name": "amount",
          "type": "uint256"
        }
      ],
      "name": "PrizeClaimed",
      "type": "event"
    },
    {
      "anonymous": false,
      "inputs": [
        {
          "indexed": true,
          "internalType": "uint256",
          "name": "tournamentId",
          "type": "uint256"
        }
      ],
      "name": "TournamentCancelled",
      "type": "event"
    },
    {
      "anonymous": false,
      "inputs": [
        {
          "indexed": true,
          "internalType": "uint256",
          "name": "configId",
          "type": "uint256"
        },
        {
          "indexed": false,
          "internalType": "enum Tournament.TournamentType",
          "name": "tournamentType",
          "type": "uint8"
        },
        {
          "indexed": false,
          "internalType": "uint8",
          "name": "playerCount",
          "type": "uint8"
        }
      ],
      "name": "TournamentConfigCreated",
      "type": "event"
    },
    {
      "anonymous": false,
      "inputs": [
        {
          "indexed": true,
          "internalType": "uint256",
          "name": "tournamentId",
          "type": "uint256"
        },
        {
          "indexed": true,
          "internalType": "uint256",
          "name": "configId",
          "type": "uint256"
        }
      ],
      "name": "TournamentCreated",
      "type": "event"
    },
    {
      "anonymous": false,
      "inputs": [
        {
          "indexed": true,
          "internalType": "uint256",
          "name": "tournamentId",
          "type": "uint256"
        },
        {
          "indexed": false,
          "internalType": "address[]",
          "name": "rankings",
          "type": "address[]"
        },
        {
          "indexed": false,
          "internalType": "uint256",
          "name": "rakeCollected",
          "type": "uint256"
        }
      ],
      "name": "TournamentFinished",
      "type": "event"
    },
    {
      "anonymous": false,
      "inputs": [
        {
          "indexed": true,
          "internalType": "uint256",
          "name": "tournamentId",
          "type": "uint256"
        },
        {
          "indexed": false,
          "internalType": "uint256",
          "name": "prizePool",
          "type": "uint256"
        },
        {
          "indexed": false,
          "internalType": "uint256",
          "name": "playerCount",
          "type": "uint256"
        }
      ],
      "name": "TournamentStarted",
      "type": "event"
    },
    {
      "anonymous": false,
      "inputs": [
        {
          "indexed": false,
          "internalType": "address",
          "name": "account",
          "type": "address"
        }
      ],
      "name": "Unpaused",
      "type": "event"
    },
    {
      "stateMutability": "payable",
      "type": "fallback"
    },
    {
      "inputs": [
        {
          "internalType": "uint256",
          "name": "",
          "type": "uint256"
        }
      ],
      "name": "activeTournaments",
      "outputs": [
        {
          "internalType": "uint256",
          "name": "",
          "type": "uint256"
        }
      ],
      "stateMutability": "view",
      "type": "function"
    },
    {
      "inputs": [
        {
          "internalType": "uint256",
          "name": "tournamentId",
          "type": "uint256"
        }
      ],
      "name": "cancelJoin",
      "outputs": [],
      "stateMutability": "nonpayable",
      "type": "function"
    },
    {
      "inputs": [
        {
          "internalType": "uint256",
          "name": "tournamentId",
          "type": "uint256"
        }
      ],
      "name": "cancelTournament",
      "outputs": [],
      "stateMutability": "nonpayable",
      "type": "function"
    },
    {
      "inputs": [],
      "name": "chipToken",
      "outputs": [
        {
          "internalType": "address",
          "name": "",
          "type": "address"
        }
      ],
      "stateMutability": "view",
      "type": "function"
    },
    {
      "inputs": [
        {
          "internalType": "uint256",
          "name": "tournamentId",
          "type": "uint256"
        }
      ],
      "name": "claimPrize",
      "outputs": [],
      "stateMutability": "nonpayable",
      "type": "function"
    },
    {
      "inputs": [
        {
          "internalType": "uint256",
          "name": "",
          "type": "uint256"
        }
      ],
      "name": "configs",
      "outputs": [
        {
          "internalType": "enum Tournament.TournamentType",
          "name": "tournamentType",
          "type": "uint8"
        },
        {
          "internalType": "uint8",
          "name": "playerCount",
          "type": "uint8"
        },
        {
          "internalType": "uint256",
          "name": "buyIn",
          "type": "uint256"
        },
        {
          "internalType": "uint256",
          "name": "rakeRate",
          "type": "uint256"
        },
        {
          "internalType": "uint256",
          "name": "initialChips",
          "type": "uint256"
        },
        {
          "internalType": "enum Tournament.StartMode",
          "name": "startMode",
          "type": "uint8"
        },
        {
          "internalType": "uint256",
          "name": "waitTimeout",
          "type": "uint256"
        }
      ],
      "stateMutability": "view",
      "type": "function"
    },
    {
      "inputs": [
        {
          "internalType": "uint256",
          "name": "configId",
          "type": "uint256"
        }
      ],
      "name": "createTournament",
      "outputs": [
        {
          "internalType": "uint256",
          "name": "",
          "type": "uint256"
        }
      ],
      "stateMutability": "nonpayable",
      "type": "function"
    },
    {
      "inputs": [
        {
          "internalType": "enum Tournament.TournamentType",
          "name": "_tournamentType",
          "type": "uint8"
        },
        {
          "internalType": "uint8",
          "name": "_playerCount",
          "type": "uint8"
        },
        {
          "internalType": "uint256",
          "name": "_buyIn",
          "type": "uint256"
        },
        {
          "internalType": "uint256",
          "name": "_rakeRate",
          "type": "uint256"
        },
        {
          "internalType": "uint256[]",
          "name": "_prizeDistribution",
          "type": "uint256[]"
        },
        {
          "internalType": "uint256",
          "name": "_initialChips",
          "type": "uint256"
        },
        {
          "internalType": "enum Tournament.StartMode",
          "name": "_startMode",
          "type": "uint8"
        },
        {
          "internalType": "uint256",
          "name": "_waitTimeout",
          "type": "uint256"
        }
      ],
      "name": "createTournamentConfig",
      "outputs": [
        {
          "internalType": "uint256",
          "name": "",
          "type": "uint256"
        }
      ],
      "stateMutability": "nonpayable",
      "type": "function"
    },
    {
      "inputs": [],
      "name": "emergencyWithdraw",
      "outputs": [],
      "stateMutability": "nonpayable",
      "type": "function"
    },
    {
      "inputs": [
        {
          "internalType": "uint256",
          "name": "tournamentId",
          "type": "uint256"
        },
        {
          "internalType": "address",
          "name": "player",
          "type": "address"
        }
      ],
      "name": "findPlayerIndex",
      "outputs": [
        {
          "internalType": "uint256",
          "name": "",
          "type": "uint256"
        }
      ],
      "stateMutability": "view",
      "type": "function"
    },
    {
      "inputs": [
        {
          "internalType": "uint256",
          "name": "tournamentId",
          "type": "uint256"
        },
        {
          "internalType": "address[]",
          "name": "rankings",
          "type": "address[]"
        }
      ],
      "name": "finishTournament",
      "outputs": [],
      "stateMutability": "nonpayable",
      "type": "function"
    },
    {
      "inputs": [],
      "name": "getActiveTournaments",
      "outputs": [
        {
          "internalType": "uint256[]",
          "name": "",
          "type": "uint256[]"
        }
      ],
      "stateMutability": "view",
      "type": "function"
    },
    {
      "inputs": [
        {
          "internalType": "uint256",
          "name": "tournamentId",
          "type": "uint256"
        },
        {
          "internalType": "address",
          "name": "player",
          "type": "address"
        }
      ],
      "name": "getPlayerPrize",
      "outputs": [
        {
          "internalType": "uint256",
          "name": "",
          "type": "uint256"
        }
      ],
      "stateMutability": "view",
      "type": "function"
    },
    {
      "inputs": [
        {
          "internalType": "uint256",
          "name": "configId",
          "type": "uint256"
        }
      ],
      "name": "getTournamentConfig",
      "outputs": [
        {
          "internalType": "enum Tournament.TournamentType",
          "name": "tournamentType",
          "type": "uint8"
        },
        {
          "internalType": "uint8",
          "name": "playerCount",
          "type": "uint8"
        },
        {
          "internalType": "uint256",
          "name": "buyIn",
          "type": "uint256"
        },
        {
          "internalType": "uint256",
          "name": "rakeRate",
          "type": "uint256"
        },
        {
          "internalType": "uint256[]",
          "name": "prizeDistribution",
          "type": "uint256[]"
        },
        {
          "internalType": "uint256",
          "name": "initialChips",
          "type": "uint256"
        },
        {
          "internalType": "enum Tournament.StartMode",
          "name": "startMode",
          "type": "uint8"
        },
        {
          "internalType": "uint256",
          "name": "waitTimeout",
          "type": "uint256"
        }
      ],
      "stateMutability": "view",
      "type": "function"
    },
    {
      "inputs": [
        {
          "internalType": "uint256",
          "name": "tournamentId",
          "type": "uint256"
        }
      ],
      "name": "getTournamentInfo",
      "outputs": [
        {
          "internalType": "uint256",
          "name": "configId",
          "type": "uint256"
        },
        {
          "internalType": "enum Tournament.TournamentStatus",
          "name": "status",
          "type": "uint8"
        },
        {
          "internalType": "address[]",
          "name": "players",
          "type": "address[]"
        },
        {
          "internalType": "uint256",
          "name": "prizePool",
          "type": "uint256"
        },
        {
          "internalType": "uint256",
          "name": "rakeCollected",
          "type": "uint256"
        },
        {
          "internalType": "uint256",
          "name": "startTime",
          "type": "uint256"
        },
        {
          "internalType": "uint256",
          "name": "endTime",
          "type": "uint256"
        },
        {
          "internalType": "address[]",
          "name": "finalRankings",
          "type": "address[]"
        }
      ],
      "stateMutability": "view",
      "type": "function"
    },
    {
      "inputs": [
        {
          "internalType": "uint256",
          "name": "tournamentId",
          "type": "uint256"
        }
      ],
      "name": "getTournamentPlayers",
      "outputs": [
        {
          "internalType": "address[]",
          "name": "",
          "type": "address[]"
        }
      ],
      "stateMutability": "view",
      "type": "function"
    },
    {
      "inputs": [
        {
          "internalType": "uint256",
          "name": "tournamentId",
          "type": "uint256"
        },
        {
          "internalType": "address",
          "name": "player",
          "type": "address"
        }
      ],
      "name": "hasPlayerJoined",
      "outputs": [
        {
          "internalType": "bool",
          "name": "",
          "type": "bool"
        }
      ],
      "stateMutability": "view",
      "type": "function"
    },
    {
      "inputs": [
        {
          "internalType": "uint256",
          "name": "tournamentId",
          "type": "uint256"
        }
      ],
      "name": "joinTournament",
      "outputs": [],
      "stateMutability": "payable",
      "type": "function"
    },
    {
      "inputs": [],
      "name": "owner",
      "outputs": [
        {
          "internalType": "address",
          "name": "",
          "type": "address"
        }
      ],
      "stateMutability": "view",
      "type": "function"
    },
    {
      "inputs": [],
      "name": "pause",
      "outputs": [],
      "stateMutability": "nonpayable",
      "type": "function"
    },
    {
      "inputs": [],
      "name": "paused",
      "outputs": [
        {
          "internalType": "bool",
          "name": "",
          "type": "bool"
        }
      ],
      "stateMutability": "view",
      "type": "function"
    },
    {
      "inputs": [
        {
          "internalType": "address",
          "name": "",
          "type": "address"
        }
      ],
      "name": "playerCurrentTournament",
      "outputs": [
        {
          "internalType": "uint256",
          "name": "",
          "type": "uint256"
        }
      ],
      "stateMutability": "view",
      "type": "function"
    },
    {
      "inputs": [],
      "name": "renounceOwnership",
      "outputs": [],
      "stateMutability": "nonpayable",
      "type": "function"
    },
    {
      "inputs": [],
      "name": "serverWallet",
      "outputs": [
        {
          "internalType": "address",
          "name": "",
          "type": "address"
        }
      ],
      "stateMutability": "view",
      "type": "function"
    },
    {
      "inputs": [
        {
          "internalType": "address",
          "name": "_chipToken",
          "type": "address"
        }
      ],
      "name": "setChipToken",
      "outputs": [],
      "stateMutability": "nonpayable",
      "type": "function"
    },
    {
      "inputs": [
        {
          "internalType": "address",
          "name": "_serverWallet",
          "type": "address"
        }
      ],
      "name": "setServerWallet",
      "outputs": [],
      "stateMutability": "nonpayable",
      "type": "function"
    },
    {
      "inputs": [
        {
          "internalType": "uint256",
          "name": "tournamentId",
          "type": "uint256"
        }
      ],
      "name": "startTournament",
      "outputs": [],
      "stateMutability": "nonpayable",
      "type": "function"
    },
    {
      "inputs": [],
      "name": "tournamentCounter",
      "outputs": [
        {
          "internalType": "uint256",
          "name": "",
          "type": "uint256"
        }
      ],
      "stateMutability": "view",
      "type": "function"
    },
    {
      "inputs": [
        {
          "internalType": "uint256",
          "name": "",
          "type": "uint256"
        }
      ],
      "name": "tournaments",
      "outputs": [
        {
          "internalType": "uint256",
          "name": "configId",
          "type": "uint256"
        },
        {
          "internalType": "enum Tournament.TournamentStatus",
          "name": "status",
          "type": "uint8"
        },
        {
          "internalType": "uint256",
          "name": "prizePool",
          "type": "uint256"
        },
        {
          "internalType": "uint256",
          "name": "rakeCollected",
          "type": "uint256"
        },
        {
          "internalType": "uint256",
          "name": "startTime",
          "type": "uint256"
        },
        {
          "internalType": "uint256",
          "name": "endTime",
          "type": "uint256"
        }
      ],
      "stateMutability": "view",
      "type": "function"
    },
    {
      "inputs": [
        {
          "internalType": "address",
          "name": "newOwner",
          "type": "address"
        }
      ],
      "name": "transferOwnership",
      "outputs": [],
      "stateMutability": "nonpayable",
      "type": "function"
    },
    {
      "inputs": [],
      "name": "unpause",
      "outputs": [],
      "stateMutability": "nonpayable",
      "type": "function"
    },
    {
      "stateMutability": "payable",
      "type": "receive"
    }
  ],
  "bytecode": "0x608060405234610779576129fc6040813803918261001c8161079d565b9384928339810103126107795761003e6020610037836107c2565b92016107c2565b9060015f5560015490604051913360018060a01b0382167f8be0079c531659141344cd1fd0a4f28419497f9722a3daafe3b4186f6b6457e05f80a36001600160a81b0319163360ff60a01b1916176001556001600160a01b031690811561072d575060018060a01b0319600254161760025560018060a01b031660018060a01b031960035416176003555f60045560606100d78161079d565b6002815290601f19810136602084013760466100f2836107d6565b52601e6100fe836107e3565b5261010761077d565b5f81526020810160028152604082016305f5e10081528383016101f481526080840195865260a08401906103e8825260c08501925f845260e08601945f865260015f52600560205260405f2096519061015f82610803565b61016882610803565b60ff61ff008954925160081b1692169061ffff19161717865551600186015551600285015560038401955180519060018060401b03821161065757680100000000000000008211610657578754828955808310610707575b50602001965f5260205f20965f5b8281106106f35750505090600692915160048501556005840190516101f281610803565b6101fb81610803565b60ff801983541691161790555191015560806102168161079d565b60038152601f1982019290833660208301376032610233826107d6565b52601e61023f826107e3565b52601461024b826107f3565b5261025461077d565b905f825260208201906003825260408301906302faf0808252848401906101f4825286850190815260a08501916105dc835260c08601935f855260e08701955f875260025f52600560205260405f209751906102af82610803565b6102b882610803565b60ff61ff008a54925160081b1692169061ffff1916171787555160018701555160028601556003850190519081519160018060401b038311610657576801000000000000000083116106575781548383558084106106cd575b50602001905f5260205f205f5b8381106106b95750505050906006929151600485015560058401905161034381610803565b61034c81610803565b60ff80198354169116179055519101556103658261079d565b9260038452366020850137603261037b846107d6565b52601e610387846107e3565b526014610393846107f3565b5261039c61077d565b5f81526020810160068152604082016302faf08081528383016101f4815285840196875260a08401906105dc825260c08501925f845260e08601945f865260035f52600560205260405f209651906103f382610803565b6103fc82610803565b60ff61ff008954925160081b1692169061ffff19161717865551600186015551600285015560038401965180519060018060401b03821161065757680100000000000000008211610657578854828a55808310610693575b50602001975f5260205f20975f5b82811061067f57505050906006929151600485015560058401905161048681610803565b61048f81610803565b60ff80198354169116179055519101556104a960c061079d565b916005835260a0366020850137602d6104c1846107d6565b5260196104cd846107e3565b52600f6104d9846107f3565b5282516003101561066b57600a8184015282516004101561066b57600560a084015261050361077d565b916001835260208301916009835260408401916305f5e10083528401906101f48252840194855260a08401906107d0825260c08501926001845260e086019461012c865260045f52600560205260405f2096519061056082610803565b61056982610803565b60ff61ff008954925160081b1692169061ffff19161717865551600186015551600285015560038401945180519060018060401b03821161065757680100000000000000008211610657578654828855808310610631575b50602001955f5260205f20955f5b82811061061d578660068787875160048501556005840190516105f181610803565b6105fa81610803565b60ff8019835416911617905551910155600480556040516121da90816108228239f35b60019060208351930192818a0155016105cf565b875f528260205f2091820191015b81811061064c57506105c1565b5f815560010161063f565b634e487b7160e01b5f52604160045260245ffd5b634e487b7160e01b5f52603260045260245ffd5b60019060208351930192818c015501610462565b895f528260205f2091820191015b8181106106ae5750610454565b5f81556001016106a1565b60019060208451940193818401550161031e565b825f528360205f2091820191015b8181106106e85750610311565b5f81556001016106db565b60019060208351930192818b0155016101ce565b885f528260205f2091820191015b81811061072257506101c0565b5f8155600101610715565b62461bcd60e51b815260206004820152602160248201527f546f75726e616d656e743a20696e76616c6964207365727665722077616c6c656044820152601d60fa1b6064820152608490fd5b5f80fd5b6040519061010082016001600160401b0381118382101761065757604052565b6040519190601f01601f191682016001600160401b0381118382101761065757604052565b51906001600160a01b038216820361077957565b80511561066b5760200190565b80516001101561066b5760400190565b80516002101561066b5760600190565b6002111561080d57565b634e487b7160e01b5f52602160045260245ffdfe608080604052600436101561001057005b5f3560e01c90816298fa2214611be55750806307286e2f14611bb55780631372fe8f146117525780631a59f0f01461172a57806326f7519a146116e9578063324322331461159c57806337ada345146115595780633b61403c146115315780633f4ba83a146114965780633fbe4918146113ad578063464899ba146113665780634a88fd431461112657806356eafcc014610dca5780635c975abb14610da5578063651ea94314610c5b578063692734fe14610bf1578063715018a614610b9657806373ed5c1c14610b795780637503e1b714610b0d5780637a99aca414610adf5780638456cb5914610a7e5780638da5cb5b14610a56578063c441544614610a1e578063cac766d214610971578063d115cac6146106f8578063d706ab3c14610667578063d709815414610437578063db2e21bc146103b8578063dd20a53e1461026f578063f2fde38b146101a85763f780210b1461016c57005b346101a45760203660031901126101a4576001600160a01b0361018d611c87565b165f526007602052602060405f2054604051908152f35b5f80fd5b346101a45760203660031901126101a4576101c1611c87565b6101c96120b1565b6001600160a01b0316801561021b57600180546001600160a01b0319811683179091556001600160a01b03167f8be0079c531659141344cd1fd0a4f28419497f9722a3daafe3b4186f6b6457e05f80a3005b60405162461bcd60e51b815260206004820152602660248201527f4f776e61626c653a206e6577206f776e657220697320746865207a65726f206160448201526564647265737360d01b6064820152608490fd5b346101a45760203660031901126101a45760043561029860018060a01b03600254163314611eca565b805f52600560205260ff60405f205460081c1615610369576102bb600454611e03565b9081600455815f5260066020525f6006604082208381556001810160ff198154169055826003820155826004820155826005820155015560085491600160401b8310156103555761031483600160209501600855611d4a565b81549060031b9083821b915f19901b191617905560405191817fcbdd4006f4a0ca378f1c5d1f11060ba15bc180a12590dd3ea3c219454582939e5f80a38152f35b634e487b7160e01b5f52604160045260245ffd5b60405162461bcd60e51b815260206004820152602160248201527f546f75726e616d656e743a20636f6e66696720646f6573206e6f7420657869736044820152601d60fa1b6064820152608490fd5b346101a4575f3660031901126101a4576103d06120b1565b5f8080804760018060a01b03600154165af16103ea611f61565b50156103f257005b60405162461bcd60e51b815260206004820152601d60248201527f546f75726e616d656e743a207769746864726177616c206661696c65640000006044820152606490fd5b346101a45760203660031901126101a457600435610453612109565b8015158061065b575b61046590611f15565b805f52600660205260405f209060ff60018301541660048110156106475760020361060257600982019160018060a01b0333165f528260205260ff60405f2054166105bd5760080160018060a01b0333165f528060205260405f20541561058157335f818152602092835260408082205495909352918220805460ff1916600117905581908190819086905af16104fa611f61565b5015610532576040519182527f4aa95f981a8337cb337de335b965507da0879c3b49f799d20058e913f5ad2c2660203393a360015f55005b60405162461bcd60e51b815260206004820152602160248201527f546f75726e616d656e743a207072697a65207472616e73666572206661696c656044820152601960fa1b6064820152608490fd5b60405162461bcd60e51b8152602060048201526014602482015273546f75726e616d656e743a206e6f207072697a6560601b6044820152606490fd5b60405162461bcd60e51b815260206004820152601b60248201527f546f75726e616d656e743a20616c726561647920636c61696d656400000000006044820152606490fd5b60405162461bcd60e51b815260206004820152601960248201527f546f75726e616d656e743a206e6f7420636f6d706c65746564000000000000006044820152606490fd5b634e487b7160e01b5f52602160045260245ffd5b5060045481111561045c565b346101a45760203660031901126101a457610680611c87565b6106886120b1565b6001600160a01b031680156106b3576bffffffffffffffffffffffff60a01b60025416176002555f80f35b60405162461bcd60e51b815260206004820152601b60248201527f546f75726e616d656e743a20696e76616c6964206164647265737300000000006044820152606490fd5b60203660031901126101a45760043561070f612109565b61071761215d565b80151580610965575b61072990611f15565b805f52600660205260ff600160405f2001541660048110156106475761074f9015611fec565b335f52600760205260405f205461091657805f52600660205260405f2080545f52600560205260405f20600181015434036108c557600282019060ff8254915460081c16811015610880576107a43385611d8b565b61083b57600160401b8110156103555760ff926107ea6107cc83600160039501865585611d76565b81546001600160a01b0360039290921b91821b19163390911b179055565b016107f6348254611df6565b9055335f5260076020528260405f20555416906040519182527f267de9464a1783407eb0e8ba56bcd59ef059648e576c0703bfd6a3b84355e83160203393a360015f55005b60405162461bcd60e51b815260206004820152601a60248201527f546f75726e616d656e743a20616c7265616479206a6f696e65640000000000006044820152606490fd5b60405162461bcd60e51b815260206004820152601860248201527f546f75726e616d656e743a20616c72656164792066756c6c00000000000000006044820152606490fd5b60405162461bcd60e51b815260206004820152602360248201527f546f75726e616d656e743a20696e636f7272656374206275792d696e20616d6f6044820152621d5b9d60ea1b6064820152608490fd5b60405162461bcd60e51b815260206004820152602160248201527f546f75726e616d656e743a20616c726561647920696e20746f75726e616d656e6044820152601d60fa1b6064820152608490fd5b50600454811115610720565b346101a45760203660031901126101a4576004355f52600660205260405f208054610a1a60ff60018401541692600381015490600481015460058201546006830154916109f86109cf60076109c860028801611e77565b9601611e77565b946109e56040519a8b9a8b5260208b0190611d3d565b61010060408a0152610100890190611cce565b946060880152608087015260a086015260c085015283820360e0850152611cce565b0390f35b346101a45760203660031901126101a4576004356008548110156101a457610a47602091611d4a565b90549060031b1c604051908152f35b346101a4575f3660031901126101a4576001546040516001600160a01b039091168152602090f35b346101a4575f3660031901126101a457610a966120b1565b610a9e61215d565b6001805460ff60a01b1916600160a01b1790556040513381527f62e78cea01bee320cd4e420270b5ea74000d11b0c9f74754ebdbfc544b05a25890602090a1005b346101a45760403660031901126101a4576020610b05610afd611c71565b600435612059565b604051908152f35b346101a45760203660031901126101a4576004355f52600660205260c060405f2080549060ff600182015416906003810154600482015490610b6360066005850154940154946040519687526020870190611d3d565b60408501526060840152608083015260a0820152f35b346101a4575f3660031901126101a4576020600454604051908152f35b346101a4575f3660031901126101a457610bae6120b1565b600180546001600160a01b031981169091555f906001600160a01b03167f8be0079c531659141344cd1fd0a4f28419497f9722a3daafe3b4186f6b6457e08280a3005b346101a4575f3660031901126101a457604051600854808252602082019060085f5260205f20905f5b818110610c4557610a1a85610c3181870382611e11565b604051918291602083526020830190611d0a565b8254845260209093019260019283019201610c1a565b346101a45760203660031901126101a457600435610c8460018060a01b03600254163314611eca565b80151580610d99575b610c9690611f15565b805f52600660205260ff600160405f20015416600481101561064757610cbc9015611fec565b805f52600660205260405f2080545f52600560205260405f209060028101805460ff845460081c1603610d5d577f2b4fbc018be75e6ff98b219698828856ce311122193b11596150e17268e2ee319282610d3660036040950192612710610d296002865493015483611e33565b0490816004850155612038565b825560018101600160ff1982541617905560054291015554905482519182526020820152a2005b60405162461bcd60e51b8152602060048201526014602482015273151bdd5c9b985b595b9d0e881b9bdd08199d5b1b60621b6044820152606490fd5b50600454811115610c8d565b346101a4575f3660031901126101a457602060ff60015460a01c166040519015158152f35b346101a45760403660031901126101a45760043560243567ffffffffffffffff81116101a457610dfe903690600401611c9d565b90610e1460018060a01b03600254163314611eca565b8215158061111a575b610e2690611f15565b825f52600660205260405f209182545f52600560205260405f2092600181019360ff8554166004811015610647576001036110d55760028201948554840361109057805460ff191660021790554260068301556007820167ffffffffffffffff841161035557600160401b841161035557610ea984829897985481845583611e46565b84905f5260205f20905f5b85811061106f575050505f95600380840192019260088101975b85811080611065575b15610f3357610f2e906064610efe8654610ef1848a611d76565b90549060031b1c90611e33565b04610f12610f0d838a8c611de6565b612045565b6001600160a01b03165f90815260208c90526040902055611e03565b610ece565b508685875f5b8554811015610f705780610f4f60019288611d76565b838060a01b0391549060031b1c165f5260076020525f604081205501610f39565b5060048401805480610ff7575b505460405192806040850160408652526060840192905f905b808210610fcd57867f68ff998150d8d5bc22837fa5efdcd59959b9994717ca44d405597ff822cb7c1c8780888860208301520390a2005b90919384359060018060a01b0382168092036101a457602081600193829352019501920190610f96565b6002545f918291829182916001600160a01b03165af1611015611f61565b50156110215784610f7d565b606460405162461bcd60e51b815260206004820152602060248201527f546f75726e616d656e743a2072616b65207472616e73666572206661696c65646044820152fd5b5084548110610ed7565b6001906020611080849b9a9b612045565b9301928185015501979697610eb4565b60405162461bcd60e51b815260206004820152601c60248201527f546f75726e616d656e743a20696e76616c69642072616e6b696e6773000000006044820152606490fd5b60405162461bcd60e51b815260206004820152601b60248201527f546f75726e616d656e743a206e6f7420696e2070726f677265737300000000006044820152606490fd5b50600454831115610e1d565b346101a45760203660031901126101a457600435611142612109565b8015158061135a575b61115490611f15565b805f52600660205260ff600160405f2001541660048110156106475761117a9015611fec565b805f52600660205260405f2080545f52600560205260405f209061119e3384611d8b565b1561131c576111ad3384612059565b916002820192835490818110156112d7575f1982019182116112c3576111f26111d96112169387611d76565b905460039190911b1c6001600160a01b03169186611d76565b81546001600160a01b0393841660039290921b91821b9390911b1916919091179055565b82549081156112af575f809360018294936112839784958519019061123b8282611d76565b815490868060a01b039060031b1b19169055550190611261600383549201918254612038565b9055338252600760205281604081205554335af161127d611f61565b50611fa0565b33907fb2bd643202385c64d9814c6c3fa61b1ba098d6652292e9d9a6f1a0cdae6eb8245f80a360015f55005b634e487b7160e01b5f52603160045260245ffd5b634e487b7160e01b5f52601160045260245ffd5b60405162461bcd60e51b815260206004820152601c60248201527f546f75726e616d656e743a20706c61796572206e6f7420666f756e64000000006044820152606490fd5b60405162461bcd60e51b8152602060048201526016602482015275151bdd5c9b985b595b9d0e881b9bdd081a9bda5b995960521b6044820152606490fd5b5060045481111561114b565b346101a45760403660031901126101a45761137f611c71565b6004355f526006602052600860405f20019060018060a01b03165f52602052602060405f2054604051908152f35b346101a45760203660031901126101a4576004355f52600560205260405f2080549060ff821690600181015460028201549160038101600482015493600660ff6005850154169301549360405192805480855260208501915f5260205f20905f5b818110611480575050509061142a846114639594930384611e11565b60ff604051998961143b8c9b611c67565b8a5260081c166020890152604088015260608701526101006080870152610100860190611d0a565b9260a085015261147281611c67565b60c084015260e08301520390f35b825484526020909301926001928301920161140e565b346101a4575f3660031901126101a4576114ae6120b1565b60015460ff8160a01c16156114f55760ff60a01b19166001556040513381527f5db9ee0a495bf2e6ff9c91a7834c1ba4fdd244a5e8aa4e537bd38aeae4b073aa90602090a1005b60405162461bcd60e51b815260206004820152601460248201527314185d5cd8589b194e881b9bdd081c185d5cd95960621b6044820152606490fd5b346101a4575f3660031901126101a4576003546040516001600160a01b039091168152602090f35b346101a45760203660031901126101a457611572611c87565b61157a6120b1565b600380546001600160a01b0319166001600160a01b0392909216919091179055005b346101a45760203660031901126101a4576004356115c560018060a01b03600254163314611eca565b801515806116dd575b6115d790611f15565b805f52600660205260405f20906001820160ff815416600481101561064757611698578290600360ff1982541617905580545f526005602052600160405f200154915f9060028301915b825481101561166b57806116655f8080808a61163f6001988b611d76565b898060a01b0391549060031b1c1680835260076020528260408120555af161127d611f61565b01611621565b505f60038401557ffa61ec8d7e5a58ceba17772b10ba0c6caa65b40b200302be35f00efc264c78955f80a2005b60405162461bcd60e51b815260206004820152601960248201527f546f75726e616d656e743a2063616e6e6f742063616e63656c000000000000006044820152606490fd5b506004548111156115ce565b346101a45760203660031901126101a4576004355f526006602052610a1a611716600260405f2001611e77565b604051918291602083526020830190611cce565b346101a4575f3660031901126101a4576002546040516001600160a01b039091168152602090f35b346101a4576101003660031901126101a45760043560028110156101a4576024359060ff82168092036101a457604435906064359260843567ffffffffffffffff81116101a4576117a7903690600401611c9d565b949060c43560028110156101a4576117bd6120b1565b600284148015611bab575b8015611ba1575b8015611b97575b15611b53578515611afc576103e88311611ab7578615611a66575f805b888210611a465760649150036119ea5761180e600454611e03565b958660045560405193610100850185811067ffffffffffffffff8211176103555760405261183b87611c67565b8685526020850193868552604086019283526060860191825267ffffffffffffffff8a11610355578960051b6040519a611878602083018d611e11565b8b5260208b01908201913683116101a457905b8282106119da575050506080850198895260a085019160a435835260c08601936118b481611c67565b845260e086019460e4358652895f52600560205260405f209651906118d882611c67565b6118e182611c67565b60ff61ff008954925160081b1692169061ffff19161717865551600186015551600285015560038401975180519067ffffffffffffffff821161035557600160401b82116103555760209061193c838c81815491558d611e46565b01985f5260205f20985f5b8281106119c65760208a807f38493c0e0e8e5bfa42838675ac563952c7c48da1b9917b08348dc5cc303662b260408d8d8d60068e8e8e51600485015560058401905161199281611c67565b61199b81611c67565b60ff80198354169116179055519101558251916119b781611c67565b825286820152a2604051908152f35b60019060208351930192818d015501611947565b813581526020918201910161188b565b60405162461bcd60e51b815260206004820152602e60248201527f546f75726e616d656e743a207072697a6520646973747269627574696f6e206d60448201526d07573742073756d20746f203130360941b6064820152608490fd5b611a5e600191611a57848c88611de6565b3590611df6565b9101906117f3565b60405162461bcd60e51b8152602060048201526024808201527f546f75726e616d656e743a20656d707479207072697a652064697374726962756044820152633a34b7b760e11b6064820152608490fd5b60405162461bcd60e51b815260206004820152601e60248201527f546f75726e616d656e743a2072616b65207261746520746f6f206869676800006044820152606490fd5b60405162461bcd60e51b815260206004820152602960248201527f546f75726e616d656e743a206275792d696e206d75737420626520677265617460448201526806572207468616e20360bc1b6064820152608490fd5b606460405162461bcd60e51b815260206004820152602060248201527f546f75726e616d656e743a20696e76616c696420706c6179657220636f756e746044820152fd5b50600984146117d6565b50600684146117cf565b50600384146117c8565b346101a45760403660031901126101a4576020611bdb611bd3611c71565b600435611d8b565b6040519015158152f35b346101a45760203660031901126101a45760e0906004355f52600560205260405f2080549060ff821691600182015460028301549060ff60048501549360068260058801541696015496611c3881611c67565b885260081c166020870152604086015260608501526080840152611c5b81611c67565b60a083015260c0820152f35b6002111561064757565b602435906001600160a01b03821682036101a457565b600435906001600160a01b03821682036101a457565b9181601f840112156101a45782359167ffffffffffffffff83116101a4576020808501948460051b0101116101a457565b90602080835192838152019201905f5b818110611ceb5750505090565b82516001600160a01b0316845260209384019390920191600101611cde565b90602080835192838152019201905f5b818110611d275750505090565b8251845260209384019390920191600101611d1a565b9060048210156106475752565b600854811015611d625760085f5260205f2001905f90565b634e487b7160e01b5f52603260045260245ffd5b8054821015611d62575f5260205f2001905f90565b5f52600660205260405f209060025f92018054925b838110611daf57505050505f90565b611db98183611d76565b905460039190911b1c6001600160a01b0390811690841614611ddd57600101611da0565b50505050600190565b9190811015611d625760051b0190565b919082018092116112c357565b5f1981146112c35760010190565b90601f8019910116810190811067ffffffffffffffff82111761035557604052565b818102929181159184041417156112c357565b919091828210611e5557505050565b5f5260205f2091820191015b818110611e6c575050565b5f8155600101611e61565b90604051918281549182825260208201905f5260205f20925f5b818110611ea8575050611ea692500383611e11565b565b84546001600160a01b0316835260019485019487945060209093019201611e91565b15611ed157565b606460405162461bcd60e51b815260206004820152602060248201527f546f75726e616d656e743a2063616c6c6572206973206e6f74207365727665726044820152fd5b15611f1c57565b60405162461bcd60e51b815260206004820152601a60248201527f546f75726e616d656e743a20646f6573206e6f742065786973740000000000006044820152606490fd5b3d15611f9b573d9067ffffffffffffffff82116103555760405191611f90601f8201601f191660200184611e11565b82523d5f602084013e565b606090565b15611fa757565b60405162461bcd60e51b815260206004820152601960248201527f546f75726e616d656e743a20726566756e64206661696c6564000000000000006044820152606490fd5b15611ff357565b60405162461bcd60e51b815260206004820152601760248201527f546f75726e616d656e743a206e6f742077616974696e670000000000000000006044820152606490fd5b919082039182116112c357565b356001600160a01b03811681036101a45790565b5f52600660205260405f209060025f9201908154925b83811061207c5750505090565b6120868184611d76565b905460039190911b1c6001600160a01b03908116908316146120aa5760010161206f565b9250505090565b6001546001600160a01b031633036120c557565b606460405162461bcd60e51b815260206004820152602060248201527f4f776e61626c653a2063616c6c6572206973206e6f7420746865206f776e65726044820152fd5b60025f54146121185760025f55565b60405162461bcd60e51b815260206004820152601f60248201527f5265656e7472616e637947756172643a207265656e7472616e742063616c6c006044820152606490fd5b60ff60015460a01c1661216c57565b60405162461bcd60e51b815260206004820152601060248201526f14185d5cd8589b194e881c185d5cd95960821b6044820152606490fdfea2646970667358221220398257c7d95b22d55a3bc886d2a2e57da712b75428ffb8bc592719e7422e578c64736f6c634300081b0033",
  "linkReferences": {},
  "deployedLinkReferences": {}
}