{
  "_format": "hh-sol-artifact-1",
  "contractName": "BridgeGameV2",
  "sourceName": "contracts/BridgeGameV2.sol",
  "abi": [
    {
      "inputs": [
        {
          "internalType": "uint256",
          "name": "_rakeRate",
          "type": "uint256"
        },
        {
          "internalType": "address",
          "name": "_rakeRecipient",
          "type": "address"
        }
      ],
      "stateMutability": "nonpayable",
      "type": "constructor"
    },
    {
      "anonymous": false,
      "inputs": [
        {
          "indexed": true,
          "internalType": "address",
          "name": "player",
          "type": "address"
        },
        {
          "indexed": true,
          "internalType": "address",
          "name": "delegate",
          "type": "address"
        }
      ],
      "name": "DelegateRevoked",
      "type": "event"
    },
    {
      "anonymous": false,
      "inputs": [
        {
          "indexed": true,
          "internalType": "address",
          "name": "player",
          "type": "address"
        },
        {
          "indexed": true,
          "internalType": "address",
          "name": "delegate",
          "type": "address"
        }
      ],
      "name": "DelegateSet",
      "type": "event"
    },
    {
      "anonymous": false,
      "inputs": [
        {
          "indexed": true,
          "internalType": "address",
          "name": "player",
          "type": "address"
        },
        {
          "indexed": false,
          "internalType": "uint256",
          "name": "amount",
          "type": "uint256"
        }
      ],
      "name": "Deposited",
      "type": "event"
    },
    {
      "anonymous": false,
      "inputs": [
        {
          "indexed": true,
          "internalType": "address",
          "name": "player",
          "type": "address"
        },
        {
          "indexed": false,
          "internalType": "uint256",
          "name": "amount",
          "type": "uint256"
        }
      ],
      "name": "ForceUnlocked",
      "type": "event"
    },
    {
      "anonymous": false,
      "inputs": [
        {
          "indexed": true,
          "internalType": "address",
          "name": "player",
          "type": "address"
        },
        {
          "indexed": true,
          "internalType": "uint256",
          "name": "tableId",
          "type": "uint256"
        },
        {
          "indexed": false,
          "internalType": "uint256",
          "name": "buyIn",
          "type": "uint256"
        },
        {
          "indexed": true,
          "internalType": "address",
          "name": "delegate",
          "type": "address"
        }
      ],
      "name": "JoinedTableFor",
      "type": "event"
    },
    {
      "anonymous": false,
      "inputs": [
        {
          "indexed": true,
          "internalType": "address",
          "name": "player",
          "type": "address"
        },
        {
          "indexed": true,
          "internalType": "uint256",
          "name": "tableId",
          "type": "uint256"
        },
        {
          "indexed": false,
          "internalType": "uint256",
          "name": "amount",
          "type": "uint256"
        }
      ],
      "name": "LeftTable",
      "type": "event"
    },
    {
      "anonymous": false,
      "inputs": [
        {
          "indexed": true,
          "internalType": "address",
          "name": "player",
          "type": "address"
        },
        {
          "indexed": true,
          "internalType": "uint256",
          "name": "tableId",
          "type": "uint256"
        },
        {
          "indexed": false,
          "internalType": "uint256",
          "name": "amount",
          "type": "uint256"
        },
        {
          "indexed": true,
          "internalType": "address",
          "name": "delegate",
          "type": "address"
        }
      ],
      "name": "LeftTableFor",
      "type": "event"
    },
    {
      "anonymous": false,
      "inputs": [
        {
          "indexed": true,
          "internalType": "address",
          "name": "player",
          "type": "address"
        }
      ],
      "name": "PlayerRegistered",
      "type": "event"
    },
    {
      "anonymous": false,
      "inputs": [
        {
          "indexed": true,
          "internalType": "uint256",
          "name": "tableId",
          "type": "uint256"
        },
        {
          "indexed": true,
          "internalType": "address",
          "name": "player",
          "type": "address"
        },
        {
          "indexed": false,
          "internalType": "uint256",
          "name": "rakeAmount",
          "type": "uint256"
        },
        {
          "indexed": false,
          "internalType": "address",
          "name": "recipient",
          "type": "address"
        }
      ],
      "name": "RakeCollected",
      "type": "event"
    },
    {
      "anonymous": false,
      "inputs": [
        {
          "indexed": true,
          "internalType": "address",
          "name": "recipient",
          "type": "address"
        }
      ],
      "name": "RakeRecipientSet",
      "type": "event"
    },
    {
      "anonymous": false,
      "inputs": [
        {
          "indexed": true,
          "internalType": "address",
          "name": "to",
          "type": "address"
        },
        {
          "indexed": false,
          "internalType": "uint256",
          "name": "amount",
          "type": "uint256"
        }
      ],
      "name": "RakeWithdrawn",
      "type": "event"
    },
    {
      "anonymous": false,
      "inputs": [
        {
          "indexed": true,
          "internalType": "address",
          "name": "player",
          "type": "address"
        },
        {
          "indexed": false,
          "internalType": "uint256",
          "name": "amount",
          "type": "uint256"
        }
      ],
      "name": "Withdrawn",
      "type": "event"
    },
    {
      "inputs": [],
      "name": "MAX_BUY_IN",
      "outputs": [
        {
          "internalType": "uint256",
          "name": "",
          "type": "uint256"
        }
      ],
      "stateMutability": "view",
      "type": "function"
    },
    {
      "inputs": [],
      "name": "MIN_BUY_IN",
      "outputs": [
        {
          "internalType": "uint256",
          "name": "",
          "type": "uint256"
        }
      ],
      "stateMutability": "view",
      "type": "function"
    },
    {
      "inputs": [],
      "name": "accumulatedRake",
      "outputs": [
        {
          "internalType": "uint256",
          "name": "",
          "type": "uint256"
        }
      ],
      "stateMutability": "view",
      "type": "function"
    },
    {
      "inputs": [],
      "name": "deposit",
      "outputs": [],
      "stateMutability": "payable",
      "type": "function"
    },
    {
      "inputs": [
        {
          "internalType": "address",
          "name": "playerAddress",
          "type": "address"
        }
      ],
      "name": "forceUnlockPlayer",
      "outputs": [],
      "stateMutability": "nonpayable",
      "type": "function"
    },
    {
      "inputs": [
        {
          "internalType": "address",
          "name": "player",
          "type": "address"
        }
      ],
      "name": "getPlayerDelegate",
      "outputs": [
        {
          "internalType": "address",
          "name": "",
          "type": "address"
        }
      ],
      "stateMutability": "view",
      "type": "function"
    },
    {
      "inputs": [
        {
          "internalType": "address",
          "name": "player",
          "type": "address"
        }
      ],
      "name": "getPlayerInfo",
      "outputs": [
        {
          "internalType": "uint256",
          "name": "balance",
          "type": "uint256"
        },
        {
          "internalType": "uint256",
          "name": "lockedAmount",
          "type": "uint256"
        },
        {
          "internalType": "bool",
          "name": "isRegistered",
          "type": "bool"
        }
      ],
      "stateMutability": "view",
      "type": "function"
    },
    {
      "inputs": [
        {
          "internalType": "address",
          "name": "player",
          "type": "address"
        },
        {
          "internalType": "address",
          "name": "delegate",
          "type": "address"
        }
      ],
      "name": "isAuthorizedDelegate",
      "outputs": [
        {
          "internalType": "bool",
          "name": "",
          "type": "bool"
        }
      ],
      "stateMutability": "view",
      "type": "function"
    },
    {
      "inputs": [
        {
          "internalType": "address",
          "name": "",
          "type": "address"
        },
        {
          "internalType": "address",
          "name": "",
          "type": "address"
        }
      ],
      "name": "isDelegateAuthorized",
      "outputs": [
        {
          "internalType": "bool",
          "name": "",
          "type": "bool"
        }
      ],
      "stateMutability": "view",
      "type": "function"
    },
    {
      "inputs": [
        {
          "internalType": "address",
          "name": "playerAddr",
          "type": "address"
        },
        {
          "internalType": "uint256",
          "name": "tableId",
          "type": "uint256"
        },
        {
          "internalType": "uint256",
          "name": "buyInAmount",
          "type": "uint256"
        }
      ],
      "name": "joinTableFor",
      "outputs": [],
      "stateMutability": "nonpayable",
      "type": "function"
    },
    {
      "inputs": [
        {
          "internalType": "address",
          "name": "playerAddr",
          "type": "address"
        },
        {
          "internalType": "uint256",
          "name": "tableId",
          "type": "uint256"
        },
        {
          "internalType": "uint256",
          "name": "finalStack",
          "type": "uint256"
        }
      ],
      "name": "leaveTableFor",
      "outputs": [],
      "stateMutability": "nonpayable",
      "type": "function"
    },
    {
      "inputs": [
        {
          "internalType": "uint256",
          "name": "tableId",
          "type": "uint256"
        },
        {
          "internalType": "uint256",
          "name": "finalStack",
          "type": "uint256"
        }
      ],
      "name": "leaveTableSession",
      "outputs": [],
      "stateMutability": "nonpayable",
      "type": "function"
    },
    {
      "inputs": [],
      "name": "owner",
      "outputs": [
        {
          "internalType": "address",
          "name": "",
          "type": "address"
        }
      ],
      "stateMutability": "view",
      "type": "function"
    },
    {
      "inputs": [],
      "name": "pause",
      "outputs": [],
      "stateMutability": "nonpayable",
      "type": "function"
    },
    {
      "inputs": [],
      "name": "paused",
      "outputs": [
        {
          "internalType": "bool",
          "name": "",
          "type": "bool"
        }
      ],
      "stateMutability": "view",
      "type": "function"
    },
    {
      "inputs": [
        {
          "internalType": "uint256",
          "name": "",
          "type": "uint256"
        },
        {
          "internalType": "address",
          "name": "",
          "type": "address"
        }
      ],
      "name": "playerAtTable",
      "outputs": [
        {
          "internalType": "bool",
          "name": "",
          "type": "bool"
        }
      ],
      "stateMutability": "view",
      "type": "function"
    },
    {
      "inputs": [
        {
          "internalType": "uint256",
          "name": "",
          "type": "uint256"
        },
        {
          "internalType": "address",
          "name": "",
          "type": "address"
        }
      ],
      "name": "playerBuyIn",
      "outputs": [
        {
          "internalType": "uint256",
          "name": "",
          "type": "uint256"
        }
      ],
      "stateMutability": "view",
      "type": "function"
    },
    {
      "inputs": [
        {
          "internalType": "address",
          "name": "",
          "type": "address"
        }
      ],
      "name": "playerDelegates",
      "outputs": [
        {
          "internalType": "address",
          "name": "",
          "type": "address"
        }
      ],
      "stateMutability": "view",
      "type": "function"
    },
    {
      "inputs": [
        {
          "internalType": "address",
          "name": "",
          "type": "address"
        }
      ],
      "name": "players",
      "outputs": [
        {
          "internalType": "uint256",
          "name": "balance",
          "type": "uint256"
        },
        {
          "internalType": "uint256",
          "name": "lockedAmount",
          "type": "uint256"
        },
        {
          "internalType": "bool",
          "name": "isRegistered",
          "type": "bool"
        }
      ],
      "stateMutability": "view",
      "type": "function"
    },
    {
      "inputs": [],
      "name": "rakeRate",
      "outputs": [
        {
          "internalType": "uint256",
          "name": "",
          "type": "uint256"
        }
      ],
      "stateMutability": "view",
      "type": "function"
    },
    {
      "inputs": [],
      "name": "rakeRecipient",
      "outputs": [
        {
          "internalType": "address",
          "name": "",
          "type": "address"
        }
      ],
      "stateMutability": "view",
      "type": "function"
    },
    {
      "inputs": [],
      "name": "registerPlayer",
      "outputs": [],
      "stateMutability": "nonpayable",
      "type": "function"
    },
    {
      "inputs": [],
      "name": "revokeDelegate",
      "outputs": [],
      "stateMutability": "nonpayable",
      "type": "function"
    },
    {
      "inputs": [
        {
          "internalType": "address",
          "name": "delegate",
          "type": "address"
        }
      ],
      "name": "setDelegate",
      "outputs": [],
      "stateMutability": "nonpayable",
      "type": "function"
    },
    {
      "inputs": [
        {
          "internalType": "uint256",
          "name": "newRate",
          "type": "uint256"
        }
      ],
      "name": "setRakeRate",
      "outputs": [],
      "stateMutability": "nonpayable",
      "type": "function"
    },
    {
      "inputs": [
        {
          "internalType": "address",
          "name": "_recipient",
          "type": "address"
        }
      ],
      "name": "setRakeRecipient",
      "outputs": [],
      "stateMutability": "nonpayable",
      "type": "function"
    },
    {
      "inputs": [
        {
          "internalType": "uint256",
          "name": "tableId",
          "type": "uint256"
        },
        {
          "internalType": "address",
          "name": "tableOwner",
          "type": "address"
        }
      ],
      "name": "setTableOwner",
      "outputs": [],
      "stateMutability": "nonpayable",
      "type": "function"
    },
    {
      "inputs": [
        {
          "internalType": "uint256",
          "name": "",
          "type": "uint256"
        }
      ],
      "name": "tableOwners",
      "outputs": [
        {
          "internalType": "address",
          "name": "",
          "type": "address"
        }
      ],
      "stateMutability": "view",
      "type": "function"
    },
    {
      "inputs": [],
      "name": "unpause",
      "outputs": [],
      "stateMutability": "nonpayable",
      "type": "function"
    },
    {
      "inputs": [
        {
          "internalType": "uint256",
          "name": "amount",
          "type": "uint256"
        }
      ],
      "name": "withdraw",
      "outputs": [],
      "stateMutability": "nonpayable",
      "type": "function"
    },
    {
      "inputs": [
        {
          "internalType": "address payable",
          "name": "to",
          "type": "address"
        },
        {
          "internalType": "uint256",
          "name": "amount",
          "type": "uint256"
        }
      ],
      "name": "withdrawRake",
      "outputs": [],
      "stateMutability": "nonpayable",
      "type": "function"
    },
    {
      "stateMutability": "payable",
      "type": "receive"
    }
  ],
  "bytecode": "0x60803460a257601f6114e638819003918201601f19168301916001600160401b0383118484101760a657808492604094855283398101031260a2578051602090910151906001600160a01b0382169081830360a2575f80546001600160a01b0319163317905560015515609c575b600880546001600160a01b0319166001600160a01b039290921691909117905560405161142b90816100bb8239f35b5033606d565b5f80fd5b634e487b7160e01b5f52604160045260245ffdfe60806040526004361015610078575b3615610018575f80fd5b335f52600260205260ff600260405f2001541661003157005b335f52600260205260405f2061004834825461135f565b90556040513481527f2da466a7b24304f47e87fa2e1e5a81b9831ce54fec19055ce277ca2f39ba42c460203392a2005b5f3560e01c80630fcd91eb1461106157806317c1b8151461100557806324ed02e614610fc15780632805ab0714610fa35780632894705714610f5a57806328df30bc14610f325780632e1a7d4d14610e905780632e9988b914610dfe5780633f4ba83a14610dcc57806345f471771461040957806355d1ef3814610ce857806359328401146104c55780635c07a4b014610c465780635c975abb14610c225780636a39f2901461093b57806383956e72146108695780638456cb59146108325780638da5cb5b1461080b5780639d9d0d88146107ee578063a2c5d43f146107d1578063a345758e14610726578063b443a13b14610529578063ca5eb5e114610638578063d0e30db014610569578063d65f660f14610529578063e2eb41ff146104c5578063e83d978214610460578063ed45975d14610409578063f3160dde146103d7578063f4615180146101f25763fc4a2a950361000e57346101ee575f3660031901126101ee576020604051629896808152f35b5f80fd5b346101ee576102003661115a565b9161021260ff5f5460a01c16156112a9565b6001600160a01b03165f8181526004602090815260408083203384529091529020546102409060ff166113a9565b805f52600260205260405f2061025c60ff60028301541661136c565b80549061026b858310156112de565b62989680851015806103c9575b1561039357835f52600660205260405f20835f5260205260ff60405f20541661035b576102a7856001936111bc565b8155016102b584825461135f565b9055815f52600660205260405f20815f5260205260405f20600160ff19825416179055815f52600760205260405f20815f526020528260405f2055815f52600560205260018060a01b0360405f20541615610339575b6040519283527f08c3c521c51b06e0c8b39405241e485a75299f370b4e33350bc25967ff2590a660203394a4005b5f82815260056020526040902080546001600160a01b0319163317905561030b565b60405162461bcd60e51b815260206004820152601060248201526f416c7265616479206174207461626c6560801b6044820152606490fd5b60405162461bcd60e51b815260206004820152600e60248201526d24b73b30b634b210313abc96b4b760911b6044820152606490fd5b50633b9aca00851115610278565b346101ee5760203660031901126101ee576004355f526005602052602060018060a01b0360405f205416604051908152f35b346101ee5760403660031901126101ee57610422611144565b61042a61112e565b9060018060a01b03165f52600460205260405f209060018060a01b03165f52602052602060ff60405f2054166040519015158152f35b346101ee5760203660031901126101ee5760043561048860018060a01b035f54163314611184565b6103e8811161049657600155005b60405162461bcd60e51b81526020600482015260076024820152664d61782031302560c81b6044820152606490fd5b346101ee5760203660031901126101ee576001600160a01b036104e6611144565b165f52600260205260405f20805461052560ff600260018501549401541660405193849384919260409194936060840195845260208401521515910152565b0390f35b346101ee5760203660031901126101ee576001600160a01b0361054a611144565b165f526003602052602060018060a01b0360405f205416604051908152f35b5f3660031901126101ee57335f52600260205261058f60ff600260405f2001541661136c565b6105a060ff5f5460a01c16156112a9565b62989680341061060357633b9aca0034116105cc57335f52600260205260405f2061004834825461135f565b60405162461bcd60e51b815260206004820152600f60248201526e45786365656473206d6178696d756d60881b6044820152606490fd5b60405162461bcd60e51b815260206004820152600d60248201526c42656c6f77206d696e696d756d60981b6044820152606490fd5b346101ee5760203660031901126101ee57610651611144565b335f52600260205261066c60ff600260405f2001541661136c565b6001600160a01b03168015158061071c575b156106e457335f81815260036020908152604080832080546001600160a01b03191686179055600482528083208584529091528120805460ff191660011790557f6ee10e9ed4d6ce9742703a498707862f4b00f1396a87195eb93267b3d79839819080a3005b60405162461bcd60e51b815260206004820152601060248201526f496e76616c69642064656c656761746560801b6044820152606490fd5b503381141561067e565b346101ee5760203660031901126101ee5761073f611144565b61075360018060a01b035f54163314611184565b6001600160a01b0316801561079a57600880546001600160a01b031916821790557f81151a133c58bd2c5b8ac560b6372848db4e4681b076bf0028a28716be2bae045f80a2005b60405162461bcd60e51b815260206004820152600f60248201526e496e76616c6964206164647265737360881b6044820152606490fd5b346101ee575f3660031901126101ee576020600954604051908152f35b346101ee575f3660031901126101ee576020600154604051908152f35b346101ee575f3660031901126101ee575f546040516001600160a01b039091168152602090f35b346101ee575f3660031901126101ee575f54610858336001600160a01b03831614611184565b60ff60a01b1916600160a01b175f55005b346101ee5760403660031901126101ee57600435602435335f52600260205261089b60ff600260405f2001541661136c565b6108ac60ff5f5460a01c16156112a9565b335f52600260205260405f205f600182016108c981541515611321565b556108d582825461135f565b90555f82815260066020908152604080832033808552908352818420805460ff19169055858452600783528184208185528352818420939093555192835290917f2ba6d6ebe4f37892b977ffeef27b7df28623be706b5d4818e56e760289557f619190a3005b346101ee576109493661115a565b909161097c60ff5f54610961828260a81c161561126c565b60a882901b1916600160a81b175f81905560a01c16156112a9565b6001600160a01b03165f8181526004602090815260408083203384529091529020549091906109ad9060ff166113a9565b815f52600260205260405f209060018201906109cb82541515611321565b845f52600660205260405f20845f5260205260ff60405f20541615610bee57848491815f52600760205260405f20835f5260205260405f2054935f91809580821180610be3575b610b63575b5050907f2ba6d6ebe4f37892b977ffeef27b7df28623be706b5d4818e56e760289557f61955f60209695949355610a4f85825461135f565b90555f8281526006865260408082208583528752808220805460ff1916905583825260078752808220858352875281205580151580610b4f575b610ad3575b50505060405181815285857fd19cd5b9c13d78956f68aecd28f8c908f321522a14ef33542d52552ced3e4edc853394a4604051908152a35f805460ff60a81b19169055005b5f8080808460018060a01b03600854165af1610aed6111c9565b5015610b3857600854604080519283526001600160a01b03909116868301527f883ed4e72e743ac01928269f47de119b2c638c87ff1fbaadcd323223e48195ba91a35b838587610a8e565b9050610b47915060095461135f565b600955610b30565b506008546001600160a01b03161515610a89565b925094509250610b749150836111bc565b9260015493848102948186041490151715610bcf578560209386925f610bc06127107f2ba6d6ebe4f37892b977ffeef27b7df28623be706b5d4818e56e760289557f61990480946111bc565b96508197509491929394610a17565b634e487b7160e01b5f52601160045260245ffd5b506001541515610a12565b60405162461bcd60e51b815260206004820152600c60248201526b4e6f74206174207461626c6560a01b6044820152606490fd5b346101ee575f3660031901126101ee57602060ff5f5460a01c166040519015158152f35b346101ee575f3660031901126101ee57335f52600260205260ff600260405f20015416610cae57335f526002602052600260405f2001600160ff19825416179055337f8cd3331e32cec677d80b82cf0f71496605e7ed6ff864a3ccedc7d5d11d838c835f80a2005b60405162461bcd60e51b8152602060048201526012602482015271105b1c9958591e481c9959da5cdd195c995960721b6044820152606490fd5b346101ee575f3660031901126101ee57335f526002602052610d1360ff600260405f2001541661136c565b335f908152600360205260409020546001600160a01b03168015610d9957335f8181526004602090815260408083206001600160a01b03861684528252808320805460ff191690558383526003909152812080546001600160a01b03191690557f76e6646868d096078ac7f3f1401c3aaa55dc84890ec74b99c699e4754714b18e9080a3005b60405162461bcd60e51b815260206004820152600b60248201526a4e6f2064656c656761746560a81b6044820152606490fd5b346101ee575f3660031901126101ee57610df060018060a01b035f54163314611184565b5f805460ff60a01b19169055005b346101ee5760203660031901126101ee57610e17611144565b610e2b60018060a01b035f54163314611184565b6001600160a01b03165f81815260026020908152604082206001810180547f6ac38e093d1eef7bfad88ca3681c7d60445c7ffc439fdc6257bffa53e9b2060994909291610e79841515611321565b55610e8582825461135f565b9055604051908152a2005b346101ee5760203660031901126101ee57600435610eba60ff5f54610961828260a81c161561126c565b335f52600260205260405f20610edd828254610ed8828210156112de565b6111bc565b9055610ef85f80808085335af1610ef26111c9565b5061122e565b6040519081527f7084f5476618d8e60b11ef0d7d3f06914655adb8793e28ff7f018d4c76d505d560203392a25f805460ff60a81b19169055005b346101ee575f3660031901126101ee576008546040516001600160a01b039091168152602090f35b346101ee5760403660031901126101ee57610f7361112e565b6004355f52600660205260405f209060018060a01b03165f52602052602060ff60405f2054166040519015158152f35b346101ee575f3660031901126101ee576020604051633b9aca008152f35b346101ee5760403660031901126101ee57610fda61112e565b6004355f52600760205260405f209060018060a01b03165f52602052602060405f2054604051908152f35b346101ee5760403660031901126101ee5761101e61112e565b61103260018060a01b035f54163314611184565b6004355f90815260056020526040902080546001600160a01b0319166001600160a01b03909216919091179055005b346101ee5760403660031901126101ee576004356001600160a01b038116908190036101ee5760243561109e60018060a01b035f54163314611184565b6009548082116110f557816110d67f068253e15222684f4b4c34ae82903b1a01fa80ead1b43059ce3edc0d7bdf78bf936020936111bc565b6009556110ec5f80808085895af1610ef26111c9565b604051908152a2005b60405162461bcd60e51b8152602060048201526011602482015270496e73756666696369656e742072616b6560781b6044820152606490fd5b602435906001600160a01b03821682036101ee57565b600435906001600160a01b03821682036101ee57565b60609060031901126101ee576004356001600160a01b03811681036101ee57906024359060443590565b1561118b57565b60405162461bcd60e51b81526020600482015260096024820152682737ba1037bbb732b960b91b6044820152606490fd5b91908203918211610bcf57565b3d15611229573d9067ffffffffffffffff82116112155760405191601f8101601f19908116603f0116830167ffffffffffffffff8111848210176112155760405282523d5f602084013e565b634e487b7160e01b5f52604160045260245ffd5b606090565b1561123557565b60405162461bcd60e51b815260206004820152600f60248201526e151c985b9cd9995c8819985a5b1959608a1b6044820152606490fd5b1561127357565b60405162461bcd60e51b815260206004820152600e60248201526d1499595b9d1c985b9d0818d85b1b60921b6044820152606490fd5b156112b057565b60405162461bcd60e51b815260206004820152600660248201526514185d5cd95960d21b6044820152606490fd5b156112e557565b60405162461bcd60e51b8152602060048201526014602482015273496e73756666696369656e742062616c616e636560601b6044820152606490fd5b1561132857565b60405162461bcd60e51b815260206004820152600f60248201526e4e6f206c6f636b65642066756e647360881b6044820152606490fd5b91908201809211610bcf57565b1561137357565b60405162461bcd60e51b815260206004820152600e60248201526d139bdd081c9959da5cdd195c995960921b6044820152606490fd5b156113b057565b60405162461bcd60e51b815260206004820152601760248201527f4e6f7420617574686f72697a65642064656c65676174650000000000000000006044820152606490fdfea26469706673582212202a5d79853cd43249a04e4aaaa164796e59f63e946da5c08c72d3dc144eab883c64736f6c634300081b0033",
  "linkReferences": {},
  "deployedLinkReferences": {}
}