{
  "_format": "hh-sol-artifact-1",
  "contractName": "AchievementNFTOnChainV2",
  "sourceName": "contracts/AchievementNFTOnChainV2.sol",
  "abi": [
    {
      "inputs": [
        {
          "internalType": "address",
          "name": "_signer",
          "type": "address"
        }
      ],
      "stateMutability": "nonpayable",
      "type": "constructor"
    },
    {
      "anonymous": false,
      "inputs": [
        {
          "indexed": true,
          "internalType": "address",
          "name": "player",
          "type": "address"
        },
        {
          "indexed": true,
          "internalType": "uint256",
          "name": "tokenId",
          "type": "uint256"
        },
        {
          "indexed": false,
          "internalType": "uint256",
          "name": "achievementTypeId",
          "type": "uint256"
        }
      ],
      "name": "AchievementMinted",
      "type": "event"
    },
    {
      "anonymous": false,
      "inputs": [
        {
          "indexed": true,
          "internalType": "address",
          "name": "owner",
          "type": "address"
        },
        {
          "indexed": true,
          "internalType": "address",
          "name": "approved",
          "type": "address"
        },
        {
          "indexed": true,
          "internalType": "uint256",
          "name": "tokenId",
          "type": "uint256"
        }
      ],
      "name": "Approval",
      "type": "event"
    },
    {
      "anonymous": false,
      "inputs": [
        {
          "indexed": true,
          "internalType": "address",
          "name": "owner",
          "type": "address"
        },
        {
          "indexed": true,
          "internalType": "address",
          "name": "operator",
          "type": "address"
        },
        {
          "indexed": false,
          "internalType": "bool",
          "name": "approved",
          "type": "bool"
        }
      ],
      "name": "ApprovalForAll",
      "type": "event"
    },
    {
      "anonymous": false,
      "inputs": [
        {
          "indexed": true,
          "internalType": "address",
          "name": "from",
          "type": "address"
        },
        {
          "indexed": true,
          "internalType": "address",
          "name": "to",
          "type": "address"
        },
        {
          "indexed": true,
          "internalType": "uint256",
          "name": "tokenId",
          "type": "uint256"
        }
      ],
      "name": "Transfer",
      "type": "event"
    },
    {
      "inputs": [
        {
          "internalType": "uint256",
          "name": "",
          "type": "uint256"
        }
      ],
      "name": "achievementMintPrices",
      "outputs": [
        {
          "internalType": "uint256",
          "name": "",
          "type": "uint256"
        }
      ],
      "stateMutability": "view",
      "type": "function"
    },
    {
      "inputs": [
        {
          "internalType": "uint256",
          "name": "",
          "type": "uint256"
        }
      ],
      "name": "achievementMonthlyLimits",
      "outputs": [
        {
          "internalType": "uint256",
          "name": "",
          "type": "uint256"
        }
      ],
      "stateMutability": "view",
      "type": "function"
    },
    {
      "inputs": [
        {
          "internalType": "uint256",
          "name": "",
          "type": "uint256"
        }
      ],
      "name": "achievementNames",
      "outputs": [
        {
          "internalType": "string",
          "name": "",
          "type": "string"
        }
      ],
      "stateMutability": "view",
      "type": "function"
    },
    {
      "inputs": [
        {
          "internalType": "address",
          "name": "to",
          "type": "address"
        },
        {
          "internalType": "uint256",
          "name": "tokenId",
          "type": "uint256"
        }
      ],
      "name": "approve",
      "outputs": [],
      "stateMutability": "nonpayable",
      "type": "function"
    },
    {
      "inputs": [
        {
          "internalType": "address",
          "name": "account",
          "type": "address"
        }
      ],
      "name": "balanceOf",
      "outputs": [
        {
          "internalType": "uint256",
          "name": "",
          "type": "uint256"
        }
      ],
      "stateMutability": "view",
      "type": "function"
    },
    {
      "inputs": [],
      "name": "baseURI",
      "outputs": [
        {
          "internalType": "string",
          "name": "",
          "type": "string"
        }
      ],
      "stateMutability": "view",
      "type": "function"
    },
    {
      "inputs": [
        {
          "internalType": "uint256",
          "name": "achievementTypeId",
          "type": "uint256"
        },
        {
          "internalType": "uint256",
          "name": "timestamp",
          "type": "uint256"
        },
        {
          "internalType": "string",
          "name": "gameId",
          "type": "string"
        },
        {
          "internalType": "uint8",
          "name": "v",
          "type": "uint8"
        },
        {
          "internalType": "bytes32",
          "name": "r",
          "type": "bytes32"
        },
        {
          "internalType": "bytes32",
          "name": "s",
          "type": "bytes32"
        }
      ],
      "name": "claimNFT",
      "outputs": [
        {
          "internalType": "uint256",
          "name": "",
          "type": "uint256"
        }
      ],
      "stateMutability": "payable",
      "type": "function"
    },
    {
      "inputs": [
        {
          "internalType": "bytes32",
          "name": "",
          "type": "bytes32"
        }
      ],
      "name": "claimRecord",
      "outputs": [
        {
          "internalType": "bool",
          "name": "",
          "type": "bool"
        }
      ],
      "stateMutability": "view",
      "type": "function"
    },
    {
      "inputs": [
        {
          "internalType": "uint256",
          "name": "achievementTypeId",
          "type": "uint256"
        }
      ],
      "name": "getAchievementInfo",
      "outputs": [
        {
          "internalType": "string",
          "name": "achievementName",
          "type": "string"
        },
        {
          "internalType": "uint256",
          "name": "monthlyLimit",
          "type": "uint256"
        },
        {
          "internalType": "uint256",
          "name": "mintPrice",
          "type": "uint256"
        },
        {
          "internalType": "uint256",
          "name": "monthlyRemaining",
          "type": "uint256"
        }
      ],
      "stateMutability": "view",
      "type": "function"
    },
    {
      "inputs": [
        {
          "internalType": "uint256",
          "name": "tokenId",
          "type": "uint256"
        }
      ],
      "name": "getApproved",
      "outputs": [
        {
          "internalType": "address",
          "name": "",
          "type": "address"
        }
      ],
      "stateMutability": "view",
      "type": "function"
    },
    {
      "inputs": [
        {
          "internalType": "uint256",
          "name": "achievementTypeId",
          "type": "uint256"
        }
      ],
      "name": "getMonthlyRemaining",
      "outputs": [
        {
          "internalType": "uint256",
          "name": "",
          "type": "uint256"
        }
      ],
      "stateMutability": "view",
      "type": "function"
    },
    {
      "inputs": [
        {
          "internalType": "address",
          "name": "account",
          "type": "address"
        },
        {
          "internalType": "address",
          "name": "operator",
          "type": "address"
        }
      ],
      "name": "isApprovedForAll",
      "outputs": [
        {
          "internalType": "bool",
          "name": "",
          "type": "bool"
        }
      ],
      "stateMutability": "view",
      "type": "function"
    },
    {
      "inputs": [
        {
          "internalType": "uint256",
          "name": "",
          "type": "uint256"
        },
        {
          "internalType": "uint256",
          "name": "",
          "type": "uint256"
        }
      ],
      "name": "monthlyMinted",
      "outputs": [
        {
          "internalType": "uint256",
          "name": "",
          "type": "uint256"
        }
      ],
      "stateMutability": "view",
      "type": "function"
    },
    {
      "inputs": [],
      "name": "name",
      "outputs": [
        {
          "internalType": "string",
          "name": "",
          "type": "string"
        }
      ],
      "stateMutability": "view",
      "type": "function"
    },
    {
      "inputs": [],
      "name": "owner",
      "outputs": [
        {
          "internalType": "address",
          "name": "",
          "type": "address"
        }
      ],
      "stateMutability": "view",
      "type": "function"
    },
    {
      "inputs": [
        {
          "internalType": "uint256",
          "name": "tokenId",
          "type": "uint256"
        }
      ],
      "name": "ownerOf",
      "outputs": [
        {
          "internalType": "address",
          "name": "",
          "type": "address"
        }
      ],
      "stateMutability": "view",
      "type": "function"
    },
    {
      "inputs": [
        {
          "internalType": "address",
          "name": "from",
          "type": "address"
        },
        {
          "internalType": "address",
          "name": "to",
          "type": "address"
        },
        {
          "internalType": "uint256",
          "name": "tokenId",
          "type": "uint256"
        }
      ],
      "name": "safeTransferFrom",
      "outputs": [],
      "stateMutability": "nonpayable",
      "type": "function"
    },
    {
      "inputs": [
        {
          "internalType": "address",
          "name": "operator",
          "type": "address"
        },
        {
          "internalType": "bool",
          "name": "approved",
          "type": "bool"
        }
      ],
      "name": "setApprovalForAll",
      "outputs": [],
      "stateMutability": "nonpayable",
      "type": "function"
    },
    {
      "inputs": [
        {
          "internalType": "string",
          "name": "_baseURI",
          "type": "string"
        }
      ],
      "name": "setBaseURI",
      "outputs": [],
      "stateMutability": "nonpayable",
      "type": "function"
    },
    {
      "inputs": [
        {
          "internalType": "address",
          "name": "_signer",
          "type": "address"
        }
      ],
      "name": "setSigner",
      "outputs": [],
      "stateMutability": "nonpayable",
      "type": "function"
    },
    {
      "inputs": [
        {
          "internalType": "uint256",
          "name": "tokenId",
          "type": "uint256"
        },
        {
          "internalType": "string",
          "name": "customName",
          "type": "string"
        },
        {
          "internalType": "string",
          "name": "customDescription",
          "type": "string"
        }
      ],
      "name": "setTokenCustomData",
      "outputs": [],
      "stateMutability": "nonpayable",
      "type": "function"
    },
    {
      "inputs": [
        {
          "internalType": "uint256",
          "name": "tokenId",
          "type": "uint256"
        },
        {
          "internalType": "string",
          "name": "metadata",
          "type": "string"
        }
      ],
      "name": "setTokenMetadata",
      "outputs": [],
      "stateMutability": "nonpayable",
      "type": "function"
    },
    {
      "inputs": [],
      "name": "signatureValidity",
      "outputs": [
        {
          "internalType": "uint256",
          "name": "",
          "type": "uint256"
        }
      ],
      "stateMutability": "view",
      "type": "function"
    },
    {
      "inputs": [],
      "name": "signer",
      "outputs": [
        {
          "internalType": "address",
          "name": "",
          "type": "address"
        }
      ],
      "stateMutability": "view",
      "type": "function"
    },
    {
      "inputs": [
        {
          "internalType": "bytes4",
          "name": "interfaceId",
          "type": "bytes4"
        }
      ],
      "name": "supportsInterface",
      "outputs": [
        {
          "internalType": "bool",
          "name": "",
          "type": "bool"
        }
      ],
      "stateMutability": "pure",
      "type": "function"
    },
    {
      "inputs": [],
      "name": "symbol",
      "outputs": [
        {
          "internalType": "string",
          "name": "",
          "type": "string"
        }
      ],
      "stateMutability": "view",
      "type": "function"
    },
    {
      "inputs": [
        {
          "internalType": "uint256",
          "name": "",
          "type": "uint256"
        }
      ],
      "name": "tokenAchievementType",
      "outputs": [
        {
          "internalType": "uint256",
          "name": "",
          "type": "uint256"
        }
      ],
      "stateMutability": "view",
      "type": "function"
    },
    {
      "inputs": [
        {
          "internalType": "uint256",
          "name": "",
          "type": "uint256"
        }
      ],
      "name": "tokenDescriptions",
      "outputs": [
        {
          "internalType": "string",
          "name": "",
          "type": "string"
        }
      ],
      "stateMutability": "view",
      "type": "function"
    },
    {
      "inputs": [
        {
          "internalType": "uint256",
          "name": "",
          "type": "uint256"
        }
      ],
      "name": "tokenMetadata",
      "outputs": [
        {
          "internalType": "string",
          "name": "",
          "type": "string"
        }
      ],
      "stateMutability": "view",
      "type": "function"
    },
    {
      "inputs": [
        {
          "internalType": "uint256",
          "name": "",
          "type": "uint256"
        }
      ],
      "name": "tokenNames",
      "outputs": [
        {
          "internalType": "string",
          "name": "",
          "type": "string"
        }
      ],
      "stateMutability": "view",
      "type": "function"
    },
    {
      "inputs": [
        {
          "internalType": "uint256",
          "name": "tokenId",
          "type": "uint256"
        }
      ],
      "name": "tokenURI",
      "outputs": [
        {
          "internalType": "string",
          "name": "",
          "type": "string"
        }
      ],
      "stateMutability": "view",
      "type": "function"
    },
    {
      "inputs": [
        {
          "internalType": "address",
          "name": "from",
          "type": "address"
        },
        {
          "internalType": "address",
          "name": "to",
          "type": "address"
        },
        {
          "internalType": "uint256",
          "name": "tokenId",
          "type": "uint256"
        }
      ],
      "name": "transferFrom",
      "outputs": [],
      "stateMutability": "nonpayable",
      "type": "function"
    },
    {
      "inputs": [
        {
          "internalType": "uint256",
          "name": "achievementTypeId",
          "type": "uint256"
        },
        {
          "internalType": "string",
          "name": "achievementName",
          "type": "string"
        },
        {
          "internalType": "uint256",
          "name": "monthlyLimit",
          "type": "uint256"
        },
        {
          "internalType": "uint256",
          "name": "mintPrice",
          "type": "uint256"
        }
      ],
      "name": "updateAchievement",
      "outputs": [],
      "stateMutability": "nonpayable",
      "type": "function"
    },
    {
      "inputs": [],
      "name": "withdraw",
      "outputs": [],
      "stateMutability": "nonpayable",
      "type": "function"
    }
  ],
  "bytecode": "0x60803461064f57601f6123ec38819003918201601f19168301916001600160401b038311848410176106535780849260209460405283398101031261064f57516001600160a01b0381169081900361064f5761005b5f54610667565b601f8111610608575b507f506f6b657220416368696576656d656e74204e4654000000000000000000002a5f5560015461009490610667565b601f81116105c0575b50600a64141053919560da1b0160015562093a80600555801561058a57600380546001600160a01b031990811633179091556004805490911691909117905560015f52600a6020527fbbc70db1b6c7afd11e79c0fb0051300458f1a3acb8ee9789d9b6b26c61ad9bc7805461011190610667565b601f8111610560575b507f526f79616c20466c7573680000000000000000000000000000000000000000169055600a7f72c6bfb7988af3a1efa6568f02a999bc52252641c659d85961ca3d372b57d5cf819055624c4b407fd421a5181c571bba3f01190c922c3b2a896fc1d84e86c9f17ac10e67ebef8b5c5560025f526020527fbff4442b8ed600beeb8e26b1279a0f0d14c6edfaec26d968ee13c86f7d4c2ba880546101c7906101c190610667565b8261069f565b7f537472616967687420466c75736800000000000000000000000000000000001c905560147fa50eece07c7db1631545c0069bd8f5f54d5935e215d59097edf258a44ba9163455624c4b407f5d6016397a73f5e079297ac5a36fef17b4d9c3831618e63ab105738020ddd7205560035f52600a6020527fa856840544dc26124927add067d799967eac11be13e14d82cc281ea46fa39759805461026d906101c190610667565b7f466f7572206f662061204b696e6400000000000000000000000000000000001c905560327f64c15cc42be7899b001f818cf4433057002112c418d1d3a67cd5cb453051d33e55624c4b407fc0da782485e77ae272268ae0a3ff44c1552ecb60b3743924de17a815e0a3cfd75560045f52600a6020527fe1eb2b2161a492c07c5a334e48012567cba93ec021043f53c1955516a3c5a841805461030f90610667565b601f8111610536575b507f46756c6c20486f75736500000000000000000000000000000000000000000014905560647f12d0c11577e2f0950f57c455c117796550b79f444811db8ba2f69c57b646c78455624c4b407f5b84bb9e0f5aa9cc45a8bb66468db5d4816d1e75ff86b5e1f1dd8d144dab80975560055f52600a6020527ff35035bc2b01d44bd35a1dcdc552315cffb73da35cfd60570b7b777f98036f9f80546103bb90610667565b601f811161050c575b50600a6408cd8eae6d60db1b01905560c87febae6141bae5521e99e0a8d610356b0f501fea54980b59c84841db43ba7204f455624c4b407f2cd9ebf6ff19cdd7ffcc447d7c7d47b5991f5c7392a04512134e765802361fa65560065f52600a6020527f10d9dd018e4cae503383c9f804c1c1603ada5856ee7894375d9b97cd8c8b27db805461045290610667565b601f81116104e2575b507f5374726169676874000000000000000000000000000000000000000000000010905560065f5261012c7f0387e9d1203691d8e3362a7e4c6723de358a4010d7f31ecbec3fbfc61d1c75fc55600c602052624c4b407f980f427e00e74f6d338adfccc7468518c8c8ea00836d0dce98c5fe154e17bf2b55604051611d1990816106d38239f35b815f52601f60205f20910160051c8101905b818110610501575061045b565b5f81556001016104f4565b815f52601f60205f20910160051c8101905b81811061052b57506103c4565b5f815560010161051e565b815f52601f60205f20910160051c8101905b8181106105555750610318565b5f8155600101610548565b815f52601f60205f20910160051c8101905b81811061057f575061011a565b5f8155600101610572565b60405162461bcd60e51b815260206004820152600e60248201526d24b73b30b634b21039b4b3b732b960911b6044820152606490fd5b60015f52601f0160051c7fb10e2d527612073b26eecdfd717e6a320cf44b4afac2b0732d9fcbe2b7fa0cf6908101905b8181106105fd575061009d565b5f81556001016105f0565b5f8052601f0160051c7f290decd9548b62a8d60345a988386fc84ba6bc95484008f6362f93160ef3e563908101905b8181106106445750610064565b5f8155600101610637565b5f80fd5b634e487b7160e01b5f52604160045260245ffd5b90600182811c92168015610695575b602083101461068157565b634e487b7160e01b5f52602260045260245ffd5b91607f1691610676565b601f82116106ab575050565b5f52601f60205f20910160051c8101905b8181106106c7575050565b5f81556001016106bc56fe6080806040526004361015610012575f80fd5b5f3560e01c90816301ffc9a7146115395750806306fdde031461151d578063081812fc146114ff578063095ea7b31461140e5780630bddfa9f146111835780630cf524b914610d1e578063238ac93314610cf657806323b872dd14610c77578063310495ab14610ccc5780633ccfd60b14610c7c57806342842e0e14610c775780634c34938514610c4d578063510ef1de14610ad857806355f804b31461096f5780635a98e566146109455780636352211e1461091557806364e4b8c2146108f8578063688d8903146108345780636914db601461080a5780636c0360eb146107785780636c19e783146106e95780636d8e89d0146106bf57806370a082311461067c57806371f79dc514610652578063852424ae146106235780638da5cb5b146105fb5780639473ca82146105d157806395d89b41146105075780639a88aaac1461035a578063a22cb465146102cc578063c2dce57614610296578063c87b56dd1461025f578063e985e9c5146101fd5763f91cc01314610192575f80fd5b346101f95760203660031901126101f9576004356101ae611b82565b815f52600d60205260405f20905f5260205260405f2054905f52600b60205260405f20548181115f146101ef576020916101e791611a00565b604051908152f35b505060205f6101e7565b5f80fd5b346101f95760403660031901126101f9576102166116a9565b602435906001600160a01b03821682036101f95760018060a01b03165f52600960205260405f209060018060a01b03165f52602052602060ff60405f2054166040519015158152f35b346101f95760203660031901126101f95761029261027e600435611a48565b604051918291602083526020830190611685565b0390f35b346101f95760403660031901126101f9576004355f52600d60205260405f206024355f52602052602060405f2054604051908152f35b346101f95760403660031901126101f9576102e56116a9565b602435908115158092036101f9576001600160a01b031690610309338314156118fd565b335f52600960205260405f20825f5260205260405f2060ff1981541660ff83161790556040519081527f17307eab39ab6107e8899845ad3d59bd9653f200f220920489ca2b5937696c3160203392a3005b346101f95760803660031901126101f9576004356024356001600160401b0381116101f95761038d9036906004016116bf565b6103a560018060a09594951b03600354163314611939565b6001821015806104fc575b6103b9906119c5565b815f52600a60205260405f20906001600160401b0381116104e8576103de825461158c565b601f81116104a3575b505f601f821160011461044157819293945f92610436575b50508160011b915f199060031b1c19161790555b805f52600b60205260443560405f20555f52600c60205260643560405f20555f80f35b0135905084806103ff565b601f19821694835f5260205f20915f5b87811061048b575083600195969710610472575b505050811b019055610413565b01355f19600384901b60f8161c19169055848080610465565b90926020600181928686013581550194019101610451565b825f5260205f20601f830160051c810191602084106104de575b601f0160051c01905b8181106104d357506103e7565b5f81556001016104c6565b90915081906104bd565b634e487b7160e01b5f52604160045260245ffd5b5060068211156103b0565b346101f9575f3660031901126101f9576040515f6001546105278161158c565b80845290600181169081156105ad575060011461054f575b6102928361027e818503826115c4565b60015f9081527fb10e2d527612073b26eecdfd717e6a320cf44b4afac2b0732d9fcbe2b7fa0cf6939250905b8082106105935750909150810160200161027e61053f565b91926001816020925483858801015201910190929161057b565b60ff191660208086019190915291151560051b8401909101915061027e905061053f565b346101f95760203660031901126101f9576004355f52601160205261029261027e60405f206115e5565b346101f9575f3660031901126101f9576003546040516001600160a01b039091168152602090f35b346101f95760203660031901126101f9576004355f52600e602052602060ff60405f2054166040519015158152f35b346101f95760203660031901126101f9576004355f52600c602052602060405f2054604051908152f35b346101f95760203660031901126101f9576001600160a01b0361069d6116a9565b166106a9811515611a0d565b5f526007602052602060405f2054604051908152f35b346101f95760203660031901126101f9576004355f52600a60205261029261027e60405f206115e5565b346101f95760203660031901126101f9576107026116a9565b61071760018060a01b03600354163314611939565b6001600160a01b03168015610742576bffffffffffffffffffffffff60a01b60045416176004555f80f35b60405162461bcd60e51b815260206004820152600e60248201526d24b73b30b634b21039b4b3b732b960911b6044820152606490fd5b346101f9575f3660031901126101f9576040515f6013546107988161158c565b80845290600181169081156105ad57506001146107bf576102928361027e818503826115c4565b60135f9081525f516020611cc45f395f51905f52939250905b8082106107f05750909150810160200161027e61053f565b9192600181602092548385880101520191019092916107d8565b346101f95760203660031901126101f9576004355f52601260205261029261027e60405f206115e5565b346101f95760203660031901126101f9576108ce6004356001811015806108ed575b61085f906119c5565b610867611b82565b5f828152600d6020908152604080832093835292815282822054938252600b815282822054600a8252838320600c909252929091205492808311156108e2576108b36108b99184611a00565b916115e5565b92604051948594608086526080860190611685565b926020850152604084015260608301520390f35b506108b95f916115e5565b506006811115610856565b346101f9575f3660031901126101f9576020600554604051908152f35b346101f95760203660031901126101f95760206109336004356119a0565b6040516001600160a01b039091168152f35b346101f95760203660031901126101f9576004355f52600b602052602060405f2054604051908152f35b346101f95760203660031901126101f9576004356001600160401b0381116101f95761099f9036906004016116bf565b6109b460018060a01b03600354163314611939565b6001600160401b0381116104e8576109cd60135461158c565b601f8111610a74575b505f601f8211600114610a0f5781925f92610a04575b50505f19600383901b1c191660019190911b17601355005b0135905082806109ec565b601f198216925f516020611cc45f395f51905f52915f5b858110610a5c57508360019510610a43575b505050811b01601355005b01355f19600384901b60f8161c19169055828080610a38565b90926020600181928686013581550194019101610a26565b601f820160051c5f516020611cc45f395f51905f52019060208310610ac3575b601f0160051c5f516020611cc45f395f51905f5201905b818110610ab857506109d6565b5f8155600101610aab565b5f516020611cc45f395f51905f529150610a94565b346101f95760403660031901126101f9576004356024356001600160401b0381116101f957610b0b9036906004016116bf565b9091610b2260018060a01b03600354163314611939565b5f81815260066020526040902054610b44906001600160a01b03161515611885565b5f52601260205260405f20906001600160401b0381116104e857610b68825461158c565b601f8111610c08575b505f601f8211600114610baa578192935f92610b9f575b50505f19600383901b1c191660019190911b179055005b013590508380610b88565b601f19821693835f5260205f20915f5b868110610bf05750836001959610610bd7575b505050811b019055005b01355f19600384901b60f8161c19169055838080610bcd565b90926020600181928686013581550194019101610bba565b825f5260205f20601f830160051c81019160208410610c43575b601f0160051c01905b818110610c385750610b71565b5f8155600101610c2b565b9091508190610c22565b346101f95760203660031901126101f9576004355f52600f602052602060405f2054604051908152f35b6116ec565b346101f9575f3660031901126101f9575f80808060018060a01b0360035416610ca6813314611939565b4790828215610cc3575bf115610cb857005b6040513d5f823e3d90fd5b506108fc610cb0565b346101f95760203660031901126101f9576004355f52601060205261029261027e60405f206115e5565b346101f9575f3660031901126101f9576004546040516001600160a01b039091168152602090f35b60c03660031901126101f9576004356024356044356001600160401b0381116101f957610d4f9036906004016116bf565b9060643560ff81168091036101f957600185101580611178575b1561113357845f52600c60205260405f205434106110f757610d8d60055485611971565b42116110be575f6080602092604051848101903360601b988983528a6034830152605482015287876074830137610dd76074828a810188838201520301601f1981018352826115c4565b519020604051858101917f19457468657265756d205369676e6564204d6573736167653a0a3332000000008352603c820152603c8152610e18605c826115c4565b5190209060405191825284820152608435604082015260a435606082015282805260015afa15610cb8575f516004546001600160a01b039081169116036110855760206034610e8592846040519586928584019889528484013781018783820152030180845201826115c4565b519020805f52600e60205260ff60405f20541661104e575f52600e60205260405f20600160ff19825416179055610eba611b82565b815f52600d60205260405f20815f5260205260405f2054825f52600b60205260405f2054111561101157815f52600d60205260405f20905f5260205260405f20610f048154611992565b9055610f11600254611992565b80600255610f20331515611a0d565b5f818152600660205260409020546001600160a01b0316610fdd5780602092335f526007845260405f20610f548154611992565b90555f82815260068552604080822080546001600160a01b03191633908117909155905192918491907fddf252ad1be2c89b69c2b068fc378daa952ba7f163c4a11628f55a4df523b3ef8180a4825f52600f85528060405f205581527f226d2a645d7edd4fc8d019b3eae722231277e0665965dba0c711be16ef35ba9e843392a3604051908152f35b60405162461bcd60e51b815260206004820152600c60248201526b546f6b656e2065786973747360a01b6044820152606490fd5b60405162461bcd60e51b8152602060048201526015602482015274135bdb9d1a1b1e481b1a5b5a5d081c995858da1959605a1b6044820152606490fd5b60405162461bcd60e51b815260206004820152600f60248201526e105b1c9958591e4818db185a5b5959608a1b6044820152606490fd5b60405162461bcd60e51b8152602060048201526011602482015270496e76616c6964207369676e617475726560781b6044820152606490fd5b60405162461bcd60e51b815260206004820152601160248201527014da59db985d1d5c9948195e1c1a5c9959607a1b6044820152606490fd5b60405162461bcd60e51b8152602060048201526014602482015273125b9cdd59999a58da595b9d081c185e5b595b9d60621b6044820152606490fd5b60405162461bcd60e51b815260206004820152601860248201527f496e76616c696420616368696576656d656e74207479706500000000000000006044820152606490fd5b506006851115610d69565b346101f95760603660031901126101f9576004356024356001600160401b0381116101f9576111b69036906004016116bf565b916044356001600160401b0381116101f9576111d69036906004016116bf565b9290936111ee60018060a01b03600354163314611939565b5f83815260066020526040902054611210906001600160a01b03161515611885565b825f52601060205260405f20916001600160401b0382116104e8578190611237845461158c565b601f81116113be575b505f90601f8311600114611357575f9261134c575b50508160011b915f199060031b1c19161790555b5f52601160205260405f20906001600160401b0381116104e85761128d825461158c565b601f8111611307575b505f601f82116001146112c3578192935f92610b9f5750505f19600383901b1c191660019190911b179055005b601f19821693835f5260205f20915f5b8681106112ef5750836001959610610bd757505050811b019055005b909260206001819286860135815501940191016112d3565b825f5260205f20601f830160051c81019160208410611342575b601f0160051c01905b8181106113375750611296565b5f815560010161132a565b9091508190611321565b013590508680611255565b909150601f19831691845f5260205f20925f5b8181106113a6575090846001959493921061138d575b505050811b019055611269565b01355f19600384901b60f8161c19169055868080611380565b9193602060018192878701358155019501920161136a565b909150835f5260205f20601f840160051c81019160208510611404575b90601f859493920160051c01905b8181106113f65750611240565b5f81558493506001016113e9565b90915081906113db565b346101f95760403660031901126101f9576114276116a9565b602435906001600160a01b0361143c836119a0565b6001600160a01b039092169116611455828214156118fd565b80331480156114dd575b156114a7575f83815260086020526040812080546001600160a01b031916841790557f8c5be1e5ebec7d5bd14f71427d1e84f3dd0314c0f7b2291e5b200ac8c7c3b9259080a4005b60405162461bcd60e51b815260206004820152600e60248201526d139bdd08185d5d1a1bdc9a5e995960921b6044820152606490fd5b505f81815260096020908152604080832033845290915290205460ff1661145f565b346101f95760203660031901126101f95760206109336004356118c1565b346101f9575f3660031901126101f95761029261027e5f6115e5565b346101f95760203660031901126101f9576004359063ffffffff60e01b82168092036101f9576020916380ac58cd60e01b811490811561157b575b5015158152f35b6301ffc9a760e01b14905083611574565b90600182811c921680156115ba575b60208310146115a657565b634e487b7160e01b5f52602260045260245ffd5b91607f169161159b565b90601f801991011681019081106001600160401b038211176104e857604052565b9060405191825f8254926115f88461158c565b8084529360018116908115611663575060011461161f575b5061161d925003836115c4565b565b90505f9291925260205f20905f915b81831061164757505090602061161d928201015f611610565b602091935080600191548385890101520191019091849261162e565b90506020925061161d94915060ff191682840152151560051b8201015f611610565b805180835260209291819084018484015e5f828201840152601f01601f1916010190565b600435906001600160a01b03821682036101f957565b9181601f840112156101f9578235916001600160401b0383116101f957602083818601950101116101f957565b346101f95760603660031901126101f9576004356001600160a01b038116908181036101f957506024356001600160a01b038116908181036101f95750604435916001600160a01b0361173e846119a0565b16803314908115611869575b8115611846575b501561181257611773816001600160a01b0361176c866119a0565b1614611939565b61177e821515611a0d565b825f52600860205260405f206bffffffffffffffffffffffff60a01b8154169055805f52600760205260405f206117b58154611bc8565b9055815f52600760205260405f206117cd8154611992565b90555f83815260066020526040812080546001600160a01b031916841790557fddf252ad1be2c89b69c2b068fc378daa952ba7f163c4a11628f55a4df523b3ef9080a4005b60405162461bcd60e51b815260206004820152600c60248201526b139bdd08185c1c1c9bdd995960a21b6044820152606490fd5b5f90815260096020908152604080832033845290915281205460ff169150611751565b9050336001600160a01b0361187d866118c1565b16149061174a565b1561188c57565b60405162461bcd60e51b815260206004820152600d60248201526c24b73b30b634b2103a37b5b2b760991b6044820152606490fd5b5f818152600660205260409020546118e3906001600160a01b03161515611885565b5f908152600860205260409020546001600160a01b031690565b1561190457565b60405162461bcd60e51b815260206004820152600d60248201526c14d95b198b585c1c1c9bdd985b609a1b6044820152606490fd5b1561194057565b60405162461bcd60e51b81526020600482015260096024820152682737ba1037bbb732b960b91b6044820152606490fd5b9190820180921161197e57565b634e487b7160e01b5f52601160045260245ffd5b5f19811461197e5760010190565b5f908152600660205260409020546001600160a01b03166119c2811515611885565b90565b156119cc57565b60405162461bcd60e51b815260206004820152600c60248201526b496e76616c6964207479706560a01b6044820152606490fd5b9190820391821161197e57565b15611a1457565b60405162461bcd60e51b815260206004820152600c60248201526b5a65726f206164647265737360a01b6044820152606490fd5b5f81815260066020526040902054611a6a906001600160a01b03161515611885565b601354611a768161158c565b611a8e57505f5260126020526119c260405f206115e5565b90805f52600f602052611aad611aa760405f2054611bef565b91611bef565b906040519283915f91611abf8161158c565b9060018116908115611b5e5750600114611b11575b506119c2936020600194938382945192839101825e0190602f60f81b82528051928391018583015e015f838201520301601f1981018352826115c4565b90915060135f525f516020611cc45f395f51905f525f905b828210611b405750508201602001906119c2611ad4565b60209192939450806001915483858a01015201910185939291611b29565b60ff1916602080870191909152821515909202850190910192506119c29050611ad4565b6301e1338042046107b2810180911161197e5762278d006301e133804206046001810180911161197e5760648202918083046064149015171561197e576119c291611971565b801561197e575f190190565b6001600160401b0381116104e857601f01601f191660200190565b8015611ca35780815f925b611c8f5750611c0882611bd4565b91611c1660405193846115c4565b80835281601f19611c2683611bd4565b013660208601375b611c3757505090565b611c4090611bc8565b90600a8106603001908160301161197e578351831015611c7b57600a9160f81b6001600160f81b0319165f1a84840160200153049081611c2e565b634e487b7160e01b5f52603260045260245ffd5b91611c9b600a91611992565b920480611bfa565b50604051611cb26040826115c4565b60018152600360fc1b60208201529056fe66de8ffda797e3de9c05e8fc57b3bf0ec28a930d40b0d285d93c06501cf6a090a26469706673582212204fe8866b99ac00741c9f99b513b2eff591571bd045438a1ffc3bcbfd351c894e64736f6c634300081b0033",
  "linkReferences": {},
  "deployedLinkReferences": {}
}