{
  "_format": "hh-sol-artifact-1",
  "contractName": "ChipToken",
  "sourceName": "contracts/ChipToken.sol",
  "abi": [
    {
      "inputs": [
        {
          "internalType": "uint256",
          "name": "initialSupply",
          "type": "uint256"
        }
      ],
      "stateMutability": "nonpayable",
      "type": "constructor"
    },
    {
      "anonymous": false,
      "inputs": [
        {
          "indexed": true,
          "internalType": "address",
          "name": "owner",
          "type": "address"
        },
        {
          "indexed": true,
          "internalType": "address",
          "name": "spender",
          "type": "address"
        },
        {
          "indexed": false,
          "internalType": "uint256",
          "name": "value",
          "type": "uint256"
        }
      ],
      "name": "Approval",
      "type": "event"
    },
    {
      "anonymous": false,
      "inputs": [
        {
          "indexed": true,
          "internalType": "address",
          "name": "from",
          "type": "address"
        },
        {
          "indexed": false,
          "internalType": "uint256",
          "name": "amount",
          "type": "uint256"
        }
      ],
      "name": "Burned",
      "type": "event"
    },
    {
      "anonymous": false,
      "inputs": [
        {
          "indexed": true,
          "internalType": "address",
          "name": "to",
          "type": "address"
        },
        {
          "indexed": false,
          "internalType": "uint256",
          "name": "amount",
          "type": "uint256"
        },
        {
          "indexed": true,
          "internalType": "address",
          "name": "minter",
          "type": "address"
        }
      ],
      "name": "Minted",
      "type": "event"
    },
    {
      "anonymous": false,
      "inputs": [
        {
          "indexed": true,
          "internalType": "address",
          "name": "minter",
          "type": "address"
        }
      ],
      "name": "MinterAdded",
      "type": "event"
    },
    {
      "anonymous": false,
      "inputs": [
        {
          "indexed": true,
          "internalType": "address",
          "name": "minter",
          "type": "address"
        }
      ],
      "name": "MinterRemoved",
      "type": "event"
    },
    {
      "anonymous": false,
      "inputs": [
        {
          "indexed": true,
          "internalType": "address",
          "name": "previousOwner",
          "type": "address"
        },
        {
          "indexed": true,
          "internalType": "address",
          "name": "newOwner",
          "type": "address"
        }
      ],
      "name": "OwnershipTransferred",
      "type": "event"
    },
    {
      "anonymous": false,
      "inputs": [
        {
          "indexed": false,
          "internalType": "address",
          "name": "account",
          "type": "address"
        }
      ],
      "name": "Paused",
      "type": "event"
    },
    {
      "anonymous": false,
      "inputs": [
        {
          "indexed": true,
          "internalType": "address",
          "name": "from",
          "type": "address"
        },
        {
          "indexed": true,
          "internalType": "address",
          "name": "to",
          "type": "address"
        },
        {
          "indexed": false,
          "internalType": "uint256",
          "name": "value",
          "type": "uint256"
        }
      ],
      "name": "Transfer",
      "type": "event"
    },
    {
      "anonymous": false,
      "inputs": [
        {
          "indexed": false,
          "internalType": "address",
          "name": "account",
          "type": "address"
        }
      ],
      "name": "Unpaused",
      "type": "event"
    },
    {
      "anonymous": false,
      "inputs": [
        {
          "indexed": false,
          "internalType": "uint256",
          "name": "vipDiscount",
          "type": "uint256"
        },
        {
          "indexed": false,
          "internalType": "uint256",
          "name": "superVipDiscount",
          "type": "uint256"
        }
      ],
      "name": "VipDiscountUpdated",
      "type": "event"
    },
    {
      "anonymous": false,
      "inputs": [
        {
          "indexed": false,
          "internalType": "uint256",
          "name": "newThreshold",
          "type": "uint256"
        }
      ],
      "name": "VipThresholdUpdated",
      "type": "event"
    },
    {
      "stateMutability": "payable",
      "type": "fallback"
    },
    {
      "inputs": [],
      "name": "MAX_SUPPLY",
      "outputs": [
        {
          "internalType": "uint256",
          "name": "",
          "type": "uint256"
        }
      ],
      "stateMutability": "view",
      "type": "function"
    },
    {
      "inputs": [
        {
          "internalType": "address",
          "name": "minter",
          "type": "address"
        }
      ],
      "name": "addMinter",
      "outputs": [],
      "stateMutability": "nonpayable",
      "type": "function"
    },
    {
      "inputs": [
        {
          "internalType": "address",
          "name": "owner",
          "type": "address"
        },
        {
          "internalType": "address",
          "name": "spender",
          "type": "address"
        }
      ],
      "name": "allowance",
      "outputs": [
        {
          "internalType": "uint256",
          "name": "",
          "type": "uint256"
        }
      ],
      "stateMutability": "view",
      "type": "function"
    },
    {
      "inputs": [
        {
          "internalType": "address",
          "name": "account",
          "type": "address"
        },
        {
          "internalType": "uint256",
          "name": "originalAmount",
          "type": "uint256"
        }
      ],
      "name": "applyVipDiscount",
      "outputs": [
        {
          "internalType": "uint256",
          "name": "",
          "type": "uint256"
        }
      ],
      "stateMutability": "view",
      "type": "function"
    },
    {
      "inputs": [
        {
          "internalType": "address",
          "name": "spender",
          "type": "address"
        },
        {
          "internalType": "uint256",
          "name": "amount",
          "type": "uint256"
        }
      ],
      "name": "approve",
      "outputs": [
        {
          "internalType": "bool",
          "name": "",
          "type": "bool"
        }
      ],
      "stateMutability": "nonpayable",
      "type": "function"
    },
    {
      "inputs": [
        {
          "internalType": "address",
          "name": "account",
          "type": "address"
        }
      ],
      "name": "balanceOf",
      "outputs": [
        {
          "internalType": "uint256",
          "name": "",
          "type": "uint256"
        }
      ],
      "stateMutability": "view",
      "type": "function"
    },
    {
      "inputs": [
        {
          "internalType": "uint256",
          "name": "amount",
          "type": "uint256"
        }
      ],
      "name": "burn",
      "outputs": [],
      "stateMutability": "nonpayable",
      "type": "function"
    },
    {
      "inputs": [
        {
          "internalType": "address",
          "name": "account",
          "type": "address"
        },
        {
          "internalType": "uint256",
          "name": "amount",
          "type": "uint256"
        }
      ],
      "name": "burnFrom",
      "outputs": [],
      "stateMutability": "nonpayable",
      "type": "function"
    },
    {
      "inputs": [],
      "name": "decimals",
      "outputs": [
        {
          "internalType": "uint8",
          "name": "",
          "type": "uint8"
        }
      ],
      "stateMutability": "pure",
      "type": "function"
    },
    {
      "inputs": [
        {
          "internalType": "address",
          "name": "spender",
          "type": "address"
        },
        {
          "internalType": "uint256",
          "name": "subtractedValue",
          "type": "uint256"
        }
      ],
      "name": "decreaseAllowance",
      "outputs": [
        {
          "internalType": "bool",
          "name": "",
          "type": "bool"
        }
      ],
      "stateMutability": "nonpayable",
      "type": "function"
    },
    {
      "inputs": [],
      "name": "getMinters",
      "outputs": [
        {
          "internalType": "address[]",
          "name": "",
          "type": "address[]"
        }
      ],
      "stateMutability": "view",
      "type": "function"
    },
    {
      "inputs": [
        {
          "internalType": "address",
          "name": "account",
          "type": "address"
        }
      ],
      "name": "getVipDiscount",
      "outputs": [
        {
          "internalType": "uint256",
          "name": "",
          "type": "uint256"
        }
      ],
      "stateMutability": "view",
      "type": "function"
    },
    {
      "inputs": [
        {
          "internalType": "address",
          "name": "spender",
          "type": "address"
        },
        {
          "internalType": "uint256",
          "name": "addedValue",
          "type": "uint256"
        }
      ],
      "name": "increaseAllowance",
      "outputs": [
        {
          "internalType": "bool",
          "name": "",
          "type": "bool"
        }
      ],
      "stateMutability": "nonpayable",
      "type": "function"
    },
    {
      "inputs": [
        {
          "internalType": "address",
          "name": "",
          "type": "address"
        }
      ],
      "name": "isMinter",
      "outputs": [
        {
          "internalType": "bool",
          "name": "",
          "type": "bool"
        }
      ],
      "stateMutability": "view",
      "type": "function"
    },
    {
      "inputs": [
        {
          "internalType": "address",
          "name": "account",
          "type": "address"
        }
      ],
      "name": "isSuperVip",
      "outputs": [
        {
          "internalType": "bool",
          "name": "",
          "type": "bool"
        }
      ],
      "stateMutability": "view",
      "type": "function"
    },
    {
      "inputs": [
        {
          "internalType": "address",
          "name": "account",
          "type": "address"
        }
      ],
      "name": "isVip",
      "outputs": [
        {
          "internalType": "bool",
          "name": "",
          "type": "bool"
        }
      ],
      "stateMutability": "view",
      "type": "function"
    },
    {
      "inputs": [
        {
          "internalType": "address",
          "name": "to",
          "type": "address"
        },
        {
          "internalType": "uint256",
          "name": "amount",
          "type": "uint256"
        }
      ],
      "name": "mint",
      "outputs": [],
      "stateMutability": "nonpayable",
      "type": "function"
    },
    {
      "inputs": [
        {
          "internalType": "uint256",
          "name": "",
          "type": "uint256"
        }
      ],
      "name": "minters",
      "outputs": [
        {
          "internalType": "address",
          "name": "",
          "type": "address"
        }
      ],
      "stateMutability": "view",
      "type": "function"
    },
    {
      "inputs": [],
      "name": "name",
      "outputs": [
        {
          "internalType": "string",
          "name": "",
          "type": "string"
        }
      ],
      "stateMutability": "view",
      "type": "function"
    },
    {
      "inputs": [],
      "name": "owner",
      "outputs": [
        {
          "internalType": "address",
          "name": "",
          "type": "address"
        }
      ],
      "stateMutability": "view",
      "type": "function"
    },
    {
      "inputs": [],
      "name": "pause",
      "outputs": [],
      "stateMutability": "nonpayable",
      "type": "function"
    },
    {
      "inputs": [],
      "name": "paused",
      "outputs": [
        {
          "internalType": "bool",
          "name": "",
          "type": "bool"
        }
      ],
      "stateMutability": "view",
      "type": "function"
    },
    {
      "inputs": [],
      "name": "platinumVipThreshold",
      "outputs": [
        {
          "internalType": "uint256",
          "name": "",
          "type": "uint256"
        }
      ],
      "stateMutability": "view",
      "type": "function"
    },
    {
      "inputs": [
        {
          "internalType": "address",
          "name": "minter",
          "type": "address"
        }
      ],
      "name": "removeMinter",
      "outputs": [],
      "stateMutability": "nonpayable",
      "type": "function"
    },
    {
      "inputs": [],
      "name": "renounceOwnership",
      "outputs": [],
      "stateMutability": "nonpayable",
      "type": "function"
    },
    {
      "inputs": [],
      "name": "rescueTRX",
      "outputs": [],
      "stateMutability": "nonpayable",
      "type": "function"
    },
    {
      "inputs": [
        {
          "internalType": "address",
          "name": "token",
          "type": "address"
        },
        {
          "internalType": "uint256",
          "name": "amount",
          "type": "uint256"
        }
      ],
      "name": "rescueTokens",
      "outputs": [],
      "stateMutability": "nonpayable",
      "type": "function"
    },
    {
      "inputs": [
        {
          "internalType": "uint256",
          "name": "_vipDiscount",
          "type": "uint256"
        },
        {
          "internalType": "uint256",
          "name": "_superVipDiscount",
          "type": "uint256"
        }
      ],
      "name": "setVipDiscount",
      "outputs": [],
      "stateMutability": "nonpayable",
      "type": "function"
    },
    {
      "inputs": [
        {
          "internalType": "uint256",
          "name": "_vipThreshold",
          "type": "uint256"
        },
        {
          "internalType": "uint256",
          "name": "_superVipThreshold",
          "type": "uint256"
        }
      ],
      "name": "setVipThreshold",
      "outputs": [],
      "stateMutability": "nonpayable",
      "type": "function"
    },
    {
      "inputs": [],
      "name": "superVipDiscount",
      "outputs": [
        {
          "internalType": "uint256",
          "name": "",
          "type": "uint256"
        }
      ],
      "stateMutability": "view",
      "type": "function"
    },
    {
      "inputs": [],
      "name": "superVipThreshold",
      "outputs": [
        {
          "internalType": "uint256",
          "name": "",
          "type": "uint256"
        }
      ],
      "stateMutability": "view",
      "type": "function"
    },
    {
      "inputs": [],
      "name": "symbol",
      "outputs": [
        {
          "internalType": "string",
          "name": "",
          "type": "string"
        }
      ],
      "stateMutability": "view",
      "type": "function"
    },
    {
      "inputs": [],
      "name": "totalMinted",
      "outputs": [
        {
          "internalType": "uint256",
          "name": "",
          "type": "uint256"
        }
      ],
      "stateMutability": "view",
      "type": "function"
    },
    {
      "inputs": [],
      "name": "totalSupply",
      "outputs": [
        {
          "internalType": "uint256",
          "name": "",
          "type": "uint256"
        }
      ],
      "stateMutability": "view",
      "type": "function"
    },
    {
      "inputs": [
        {
          "internalType": "address",
          "name": "to",
          "type": "address"
        },
        {
          "internalType": "uint256",
          "name": "amount",
          "type": "uint256"
        }
      ],
      "name": "transfer",
      "outputs": [
        {
          "internalType": "bool",
          "name": "",
          "type": "bool"
        }
      ],
      "stateMutability": "nonpayable",
      "type": "function"
    },
    {
      "inputs": [
        {
          "internalType": "address",
          "name": "from",
          "type": "address"
        },
        {
          "internalType": "address",
          "name": "to",
          "type": "address"
        },
        {
          "internalType": "uint256",
          "name": "amount",
          "type": "uint256"
        }
      ],
      "name": "transferFrom",
      "outputs": [
        {
          "internalType": "bool",
          "name": "",
          "type": "bool"
        }
      ],
      "stateMutability": "nonpayable",
      "type": "function"
    },
    {
      "inputs": [
        {
          "internalType": "address",
          "name": "newOwner",
          "type": "address"
        }
      ],
      "name": "transferOwnership",
      "outputs": [],
      "stateMutability": "nonpayable",
      "type": "function"
    },
    {
      "inputs": [],
      "name": "unpause",
      "outputs": [],
      "stateMutability": "nonpayable",
      "type": "function"
    },
    {
      "inputs": [],
      "name": "vipDiscount",
      "outputs": [
        {
          "internalType": "uint256",
          "name": "",
          "type": "uint256"
        }
      ],
      "stateMutability": "view",
      "type": "function"
    },
    {
      "inputs": [],
      "name": "vipThreshold",
      "outputs": [
        {
          "internalType": "uint256",
          "name": "",
          "type": "uint256"
        }
      ],
      "stateMutability": "view",
      "type": "function"
    },
    {
      "stateMutability": "payable",
      "type": "receive"
    }
  ],
  "bytecode": "0x60806040523461056d5761204c6020813803918261001c81610571565b93849283398101031261056d57516100346040610571565b90600a82526921a424a8102a37b5b2b760b11b60208301526100566040610571565b60048152630434849560e41b602082015282519091906001600160401b0381116102b157600354600181811c91168015610563575b602082101461047457601f8111610500575b506020601f821160011461049d57819293945f92610492575b50508160011b915f199060031b1c1916176003555b81516001600160401b0381116102b157600454600181811c91168015610488575b602082101461047457601f8111610411575b50602092601f82116001146103b057928192935f926103a5575b50508160011b915f199060031b1c1916176004555b60055460405190336001600160a01b0382167f8be0079c531659141344cd1fd0a4f28419497f9722a3daafe3b4186f6b6457e05f80a36001600160a81b0319163360ff60a01b191617600555633b9aca006008556402540be40060095564174876e800600a556101f4600b556103e8600c5564e8d4a5100082116103635750331561031e5760025481810180911161030a57600255335f525f60205260405f208181540190556040518181525f7fddf252ad1be2c89b69c2b068fc378daa952ba7f163c4a11628f55a4df523b3ef60203393a3600d55335f52600660205260ff60405f2054166102c557335f52600660205260405f20600160ff19825416179055600754680100000000000000008110156102b157600181018060075581101561029d5760075f5260205f20013360018060a01b0319825416179055604051337f6ae172837ea30b801fbfcdd4108aa1d5bf8ff775444fd70256b44e6bf3dfc3f65f80a2611ab590816105978239f35b634e487b7160e01b5f52603260045260245ffd5b634e487b7160e01b5f52604160045260245ffd5b60405162461bcd60e51b815260206004820152601960248201527f43686970546f6b656e3a20616c7265616479206d696e746572000000000000006044820152606490fd5b634e487b7160e01b5f52601160045260245ffd5b60405162461bcd60e51b815260206004820152601f60248201527f45524332303a206d696e7420746f20746865207a65726f2061646472657373006044820152606490fd5b62461bcd60e51b815260206004820152601d60248201527f43686970546f6b656e3a2065786365656473206d617820737570706c790000006044820152606490fd5b015190505f80610118565b601f1982169360045f52805f20915f5b8681106103f957508360019596106103e1575b505050811b0160045561012d565b01515f1960f88460031b161c191690555f80806103d3565b919260206001819286850151815501940192016103c0565b60045f527f8a35acfbc15ff81a39ae7d344fd709f28e8600b4aa8c65c6b64bfe7fe36bd19b601f830160051c8101916020841061046a575b601f0160051c01905b81811061045f57506100fe565b5f8155600101610452565b9091508190610449565b634e487b7160e01b5f52602260045260245ffd5b90607f16906100ec565b015190505f806100b6565b601f1982169060035f52805f20915f5b8181106104e8575095836001959697106104d0575b505050811b016003556100cb565b01515f1960f88460031b161c191690555f80806104c2565b9192602060018192868b0151815501940192016104ad565b60035f527fc2575a0e9e593c00f959f8c92f12db2869c3395a3b0502d05e2516446f71f85b601f830160051c81019160208410610559575b601f0160051c01905b81811061054e575061009d565b5f8155600101610541565b9091508190610538565b90607f169061008b565b5f80fd5b6040519190601f01601f191682016001600160401b038111838210176102b15760405256fe608080604052600436101561001057005b5f3560e01c90816301af1187146114165750806306fdde031461135b578063095ea7b31461133557806318160ddd1461131857806318962825146112f557806323b872dd146112b557806325dce44914611298578063271c5519146112695780633092afd51461108d578063313ce5671461107257806332cb6b0c1461105357806339509351146110055780633f4ba83a14610f6a5780634095da7214610f2e57806340c10f1914610d7657806342966c6814610d2257806350117e5514610d055780635737619814610c075780635c975abb14610be25780636b32810b14610b1a5780636bc7cc9914610afd5780636caff2e914610a6557806370a0823114610a2e578063715018a6146109d357806379cc67901461096357806384203f4b146109275780638456cb59146108c65780638623ec7b146108845780638da5cb5b1461085c57806395d89b4114610758578063983b2d56146105ff578063a2309ff8146105e2578063a457c2d71461053f578063a9059cbb14610506578063aa271e1a146104c9578063c8b55521146103cf578063dd62ed3e1461037f578063e17ea39c146102b8578063e2797bfc1461029b5763f2fde38b146101d057005b34610297576020366003190112610297576101e961145a565b6101f1611713565b6001600160a01b0316801561024357600580546001600160a01b0319811683179091556001600160a01b03167f8be0079c531659141344cd1fd0a4f28419497f9722a3daafe3b4186f6b6457e05f80a3005b60405162461bcd60e51b815260206004820152602660248201527f4f776e61626c653a206e6577206f776e657220697320746865207a65726f206160448201526564647265737360d01b6064820152608490fd5b5f80fd5b34610297575f366003190112610297576020600854604051908152f35b34610297575f366003190112610297576102d0611713565b5f8080804760018060a01b03600554165af13d1561037a573d67ffffffffffffffff81116103665760405190610310601f8201601f1916602001836114c8565b81525f60203d92013e5b1561032157005b60405162461bcd60e51b815260206004820152601860248201527f43686970546f6b656e3a20726573637565206661696c656400000000000000006044820152606490fd5b634e487b7160e01b5f52604160045260245ffd5b61031a565b346102975760403660031901126102975761039861145a565b6103a0611470565b6001600160a01b039182165f908152600160209081526040808320949093168252928352819020549051908152f35b34610297576103dd36611486565b6103e5611713565b6107d0821161048557610bb8811161043157816040917f7c02ccc33537b18a87fe4da3b87c1e396a67333c65668203f75d4900f940304493600b5580600c5582519182526020820152a1005b60405162461bcd60e51b815260206004820152602660248201527f43686970546f6b656e3a2053757065722056495020646973636f756e7420746f6044820152650de40d0d2ced60d31b6064820152608490fd5b606460405162461bcd60e51b815260206004820152602060248201527f43686970546f6b656e3a2056495020646973636f756e7420746f6f20686967686044820152fd5b34610297576020366003190112610297576001600160a01b036104ea61145a565b165f526006602052602060ff60405f2054166040519015158152f35b346102975760403660031901126102975761053461052261145a565b61052a6116cc565b6024359033611803565b602060405160018152f35b346102975760403660031901126102975761055861145a565b60243590335f52600160205260405f2060018060a01b0382165f5260205260405f20549180831061058f57610534920390336115c8565b60405162461bcd60e51b815260206004820152602560248201527f45524332303a2064656372656173656420616c6c6f77616e63652062656c6f77604482015264207a65726f60d81b6064820152608490fd5b34610297575f366003190112610297576020600d54604051908152f35b346102975760203660031901126102975761061861145a565b610620611713565b6001600160a01b03811690811561071357815f52600660205260ff60405f2054166106ce57815f52600660205260405f20600160ff198254161790556007549068010000000000000000821015610366576106848260016106a8940160075561149c565b81546001600160a01b0393841660039290921b91821b9390911b1916919091179055565b7f6ae172837ea30b801fbfcdd4108aa1d5bf8ff775444fd70256b44e6bf3dfc3f65f80a2005b60405162461bcd60e51b815260206004820152601960248201527f43686970546f6b656e3a20616c7265616479206d696e746572000000000000006044820152606490fd5b60405162461bcd60e51b815260206004820152601960248201527f43686970546f6b656e3a20696e76616c6964206d696e746572000000000000006044820152606490fd5b34610297575f366003190112610297576040515f6004548060011c90600181168015610852575b60208310811461083e5782855290811561081a57506001146107bc575b6107b8836107ac818503826114c8565b60405191829182611430565b0390f35b91905060045f527f8a35acfbc15ff81a39ae7d344fd709f28e8600b4aa8c65c6b64bfe7fe36bd19b915f905b808210610800575090915081016020016107ac61079c565b9192600181602092548385880101520191019092916107e8565b60ff191660208086019190915291151560051b840190910191506107ac905061079c565b634e487b7160e01b5f52602260045260245ffd5b91607f169161077f565b34610297575f366003190112610297576005546040516001600160a01b039091168152602090f35b3461029757602036600319011261029757600435600754811015610297576108ad60209161149c565b905460405160039290921b1c6001600160a01b03168152f35b34610297575f366003190112610297576108de611713565b6108e66116cc565b6005805460ff60a01b1916600160a01b1790556040513381527f62e78cea01bee320cd4e420270b5ea74000d11b0c9f74754ebdbfc544b05a25890602090a1005b34610297576020366003190112610297576001600160a01b0361094861145a565b165f525f602052602060405f20546008541115604051908152f35b346102975760403660031901126102975761097c61145a565b7f696de425f79f4a40bc6d2122ca50507f0efbeabbff86a84871b7196ab8ea8df76020602435926109ab6116cc565b6109b684338361176b565b6109c08482611979565b6040519384526001600160a01b031692a2005b34610297575f366003190112610297576109eb611713565b600580546001600160a01b031981169091555f906001600160a01b03167f8be0079c531659141344cd1fd0a4f28419497f9722a3daafe3b4186f6b6457e08280a3005b34610297576020366003190112610297576001600160a01b03610a4f61145a565b165f525f602052602060405f2054604051908152f35b3461029757610a7336611486565b610a7b611713565b81811115610ab857816020917f2f2ffb28e7c9fdc1f6bc326db0abcc6f981c1593a084521eaeb66d46ac974cfe93600855600955604051908152a1005b60405162461bcd60e51b815260206004820152601d60248201527f43686970546f6b656e3a20696e76616c6964207468726573686f6c64730000006044820152606490fd5b34610297575f366003190112610297576020600a54604051908152f35b34610297575f366003190112610297576040518060206007549283815201809260075f527fa66cc928b5edb82af9bd49922954155ab7b0942694bea4ce44661d9a8736c688905f5b818110610bc35750505081610b789103826114c8565b604051918291602083019060208452518091526040830191905f5b818110610ba1575050500390f35b82516001600160a01b0316845285945060209384019390920191600101610b93565b82546001600160a01b0316845260209093019260019283019201610b62565b34610297575f36600319011261029757602060ff60055460a01c166040519015158152f35b3461029757604036600319011261029757610c2061145a565b610c28611713565b6001600160a01b0316308114610cb55760205f91604460018060a01b0360055416604051948593849263a9059cbb60e01b8452600484015260243560248401525af18015610caa57610c7657005b6020813d602011610ca2575b81610c8f602093836114c8565b8101031261029757518015150361029757005b3d9150610c82565b6040513d5f823e3d90fd5b60405162461bcd60e51b815260206004820152602260248201527f43686970546f6b656e3a2063616e6e6f7420726573637565206f776e20746f6b60448201526132b760f11b6064820152608490fd5b34610297575f366003190112610297576020600c54604051908152f35b3461029757602036600319011261029757600435610d3e6116cc565b610d488133611979565b6040519081527f696de425f79f4a40bc6d2122ca50507f0efbeabbff86a84871b7196ab8ea8df760203392a2005b3461029757604036600319011261029757610d8f61145a565b60243590335f52600660205260ff60405f20541615610ee957610db06116cc565b6001600160a01b03168015610ea45764e8d4a51000610dd183600d546115bb565b11610e5f57610de2826002546115bb565b600255805f525f60205260405f20828154019055805f7fddf252ad1be2c89b69c2b068fc378daa952ba7f163c4a11628f55a4df523b3ef6020604051868152a3610e2e82600d546115bb565b600d556040519182527ffd1ba5519feb014ad2f631cbd516bd3cec96be935749391554d122972593e7bf60203393a3005b60405162461bcd60e51b815260206004820152601d60248201527f43686970546f6b656e3a2065786365656473206d617820737570706c790000006044820152606490fd5b60405162461bcd60e51b815260206004820152601f60248201527f43686970546f6b656e3a206d696e7420746f207a65726f2061646472657373006044820152606490fd5b60405162461bcd60e51b815260206004820152601f60248201527f43686970546f6b656e3a2063616c6c6572206973206e6f74206d696e746572006044820152606490fd5b34610297576020366003190112610297576001600160a01b03610f4f61145a565b165f525f602052602060405f20546009541115604051908152f35b34610297575f36600319011261029757610f82611713565b60055460ff8160a01c1615610fc95760ff60a01b19166005556040513381527f5db9ee0a495bf2e6ff9c91a7834c1ba4fdd244a5e8aa4e537bd38aeae4b073aa90602090a1005b60405162461bcd60e51b815260206004820152601460248201527314185d5cd8589b194e881b9bdd081c185d5cd95960621b6044820152606490fd5b346102975760403660031901126102975761053461102161145a565b335f52600160205260405f2060018060a01b0382165f5260205261104c60405f2060243590546115bb565b90336115c8565b34610297575f36600319011261029757602060405164e8d4a510008152f35b34610297575f36600319011261029757602060405160068152f35b34610297576020366003190112610297576110a661145a565b6110ae611713565b6001600160a01b03165f8181526006602052604090205460ff1615611224576005546001600160a01b031681146111df575f818152600660205260408120805460ff191690555b60075490818110156111d8578261110b8261149c565b905460039190911b1c6001600160a01b03161461112c5760019150016110f5565b5f1982019182116111c45761068461114661115e9361149c565b905460039190911b1c6001600160a01b03169161149c565b60075480156111b0575f19016111738161149c565b81549060018060a01b039060031b1b191690556007555b7fe94479a9f7e1952cc78f2d6baab678adc1b772d936c6583def489e524cb666925f80a2005b634e487b7160e01b5f52603160045260245ffd5b634e487b7160e01b5f52601160045260245ffd5b505061118a565b60405162461bcd60e51b815260206004820152601e60248201527f43686970546f6b656e3a2063616e6e6f742072656d6f7665206f776e657200006044820152606490fd5b60405162461bcd60e51b815260206004820152601760248201527f43686970546f6b656e3a206e6f742061206d696e7465720000000000000000006044820152606490fd5b3461029757604036600319011261029757602061129061128761145a565b60243590611524565b604051908152f35b34610297575f366003190112610297576020600b54604051908152f35b34610297576060366003190112610297576105346112d161145a565b6112d9611470565b604435916112e56116cc565b6112f083338361176b565b611803565b3461029757602036600319011261029757602061129061131361145a565b6114ea565b34610297575f366003190112610297576020600254604051908152f35b346102975760403660031901126102975761053461135161145a565b60243590336115c8565b34610297575f366003190112610297576040515f6003548060011c9060018116801561140c575b60208310811461083e5782855290811561081a57506001146113ae576107b8836107ac818503826114c8565b91905060035f527fc2575a0e9e593c00f959f8c92f12db2869c3395a3b0502d05e2516446f71f85b915f905b8082106113f2575090915081016020016107ac61079c565b9192600181602092548385880101520191019092916113da565b91607f1691611382565b34610297575f366003190112610297576020906009548152f35b602060409281835280519182918282860152018484015e5f828201840152601f01601f1916010190565b600435906001600160a01b038216820361029757565b602435906001600160a01b038216820361029757565b6040906003190112610297576004359060243590565b6007548110156114b45760075f5260205f2001905f90565b634e487b7160e01b5f52603260045260245ffd5b90601f8019910116810190811067ffffffffffffffff82111761036657604052565b6001600160a01b03165f9081526020819052604090205460095481106115115750600c5490565b600854111561151e575f90565b600b5490565b604051631896282560e01b81526001600160a01b039091166004820152602081602481305afa908115610caa575f91611589575b50801561158557612710039061271082116111c4578181029181830414901517156111c457612710900490565b5090565b90506020813d6020116115b3575b816115a4602093836114c8565b8101031261029757515f611558565b3d9150611597565b919082018092116111c457565b6001600160a01b031690811561167b576001600160a01b031691821561162b5760207f8c5be1e5ebec7d5bd14f71427d1e84f3dd0314c0f7b2291e5b200ac8c7c3b92591835f526001825260405f20855f5282528060405f2055604051908152a3565b60405162461bcd60e51b815260206004820152602260248201527f45524332303a20617070726f766520746f20746865207a65726f206164647265604482015261737360f01b6064820152608490fd5b60405162461bcd60e51b8152602060048201526024808201527f45524332303a20617070726f76652066726f6d20746865207a65726f206164646044820152637265737360e01b6064820152608490fd5b60ff60055460a01c166116db57565b60405162461bcd60e51b815260206004820152601060248201526f14185d5cd8589b194e881c185d5cd95960821b6044820152606490fd5b6005546001600160a01b0316330361172757565b606460405162461bcd60e51b815260206004820152602060248201527f4f776e61626c653a2063616c6c6572206973206e6f7420746865206f776e65726044820152fd5b9060018060a01b0382165f52600160205260405f2060018060a01b0382165f5260205260405f2054925f1984036117a3575b50505050565b8084106117be576117b59303916115c8565b5f80808061179d565b60405162461bcd60e51b815260206004820152601d60248201527f45524332303a20696e73756666696369656e7420616c6c6f77616e63650000006044820152606490fd5b6001600160a01b0316908115611926576001600160a01b03169182156118d557815f525f60205260405f205481811061188157817fddf252ad1be2c89b69c2b068fc378daa952ba7f163c4a11628f55a4df523b3ef92602092855f525f84520360405f2055845f525f825260405f20818154019055604051908152a3565b60405162461bcd60e51b815260206004820152602660248201527f45524332303a207472616e7366657220616d6f756e7420657863656564732062604482015265616c616e636560d01b6064820152608490fd5b60405162461bcd60e51b815260206004820152602360248201527f45524332303a207472616e7366657220746f20746865207a65726f206164647260448201526265737360e81b6064820152608490fd5b60405162461bcd60e51b815260206004820152602560248201527f45524332303a207472616e736665722066726f6d20746865207a65726f206164604482015264647265737360d81b6064820152608490fd5b6001600160a01b03168015611a3057805f525f60205260405f2054918083106119e0576020817fddf252ad1be2c89b69c2b068fc378daa952ba7f163c4a11628f55a4df523b3ef925f958587528684520360408620558060025403600255604051908152a3565b60405162461bcd60e51b815260206004820152602260248201527f45524332303a206275726e20616d6f756e7420657863656564732062616c616e604482015261636560f01b6064820152608490fd5b60405162461bcd60e51b815260206004820152602160248201527f45524332303a206275726e2066726f6d20746865207a65726f206164647265736044820152607360f81b6064820152608490fdfea2646970667358221220d6b973bbf01c86d3fcc03d033cedc60158fe0229cf3f69c519760d3f70df8b8564736f6c634300081b0033",
  "linkReferences": {},
  "deployedLinkReferences": {}
}