{
  "_format": "hh-sol-artifact-1",
  "contractName": "ChipToken",
  "sourceName": "contracts/ChipToken.sol",
  "abi": [
    {
      "inputs": [
        {
          "internalType": "uint256",
          "name": "initialSupply",
          "type": "uint256"
        }
      ],
      "stateMutability": "nonpayable",
      "type": "constructor"
    },
    {
      "inputs": [
        {
          "internalType": "address",
          "name": "spender",
          "type": "address"
        },
        {
          "internalType": "uint256",
          "name": "allowance",
          "type": "uint256"
        },
        {
          "internalType": "uint256",
          "name": "needed",
          "type": "uint256"
        }
      ],
      "name": "ERC20InsufficientAllowance",
      "type": "error"
    },
    {
      "inputs": [
        {
          "internalType": "address",
          "name": "sender",
          "type": "address"
        },
        {
          "internalType": "uint256",
          "name": "balance",
          "type": "uint256"
        },
        {
          "internalType": "uint256",
          "name": "needed",
          "type": "uint256"
        }
      ],
      "name": "ERC20InsufficientBalance",
      "type": "error"
    },
    {
      "inputs": [
        {
          "internalType": "address",
          "name": "approver",
          "type": "address"
        }
      ],
      "name": "ERC20InvalidApprover",
      "type": "error"
    },
    {
      "inputs": [
        {
          "internalType": "address",
          "name": "receiver",
          "type": "address"
        }
      ],
      "name": "ERC20InvalidReceiver",
      "type": "error"
    },
    {
      "inputs": [
        {
          "internalType": "address",
          "name": "sender",
          "type": "address"
        }
      ],
      "name": "ERC20InvalidSender",
      "type": "error"
    },
    {
      "inputs": [
        {
          "internalType": "address",
          "name": "spender",
          "type": "address"
        }
      ],
      "name": "ERC20InvalidSpender",
      "type": "error"
    },
    {
      "inputs": [],
      "name": "EnforcedPause",
      "type": "error"
    },
    {
      "inputs": [],
      "name": "ExpectedPause",
      "type": "error"
    },
    {
      "inputs": [
        {
          "internalType": "address",
          "name": "owner",
          "type": "address"
        }
      ],
      "name": "OwnableInvalidOwner",
      "type": "error"
    },
    {
      "inputs": [
        {
          "internalType": "address",
          "name": "account",
          "type": "address"
        }
      ],
      "name": "OwnableUnauthorizedAccount",
      "type": "error"
    },
    {
      "anonymous": false,
      "inputs": [
        {
          "indexed": true,
          "internalType": "address",
          "name": "owner",
          "type": "address"
        },
        {
          "indexed": true,
          "internalType": "address",
          "name": "spender",
          "type": "address"
        },
        {
          "indexed": false,
          "internalType": "uint256",
          "name": "value",
          "type": "uint256"
        }
      ],
      "name": "Approval",
      "type": "event"
    },
    {
      "anonymous": false,
      "inputs": [
        {
          "indexed": true,
          "internalType": "address",
          "name": "from",
          "type": "address"
        },
        {
          "indexed": false,
          "internalType": "uint256",
          "name": "amount",
          "type": "uint256"
        }
      ],
      "name": "Burned",
      "type": "event"
    },
    {
      "anonymous": false,
      "inputs": [
        {
          "indexed": true,
          "internalType": "address",
          "name": "to",
          "type": "address"
        },
        {
          "indexed": false,
          "internalType": "uint256",
          "name": "amount",
          "type": "uint256"
        },
        {
          "indexed": true,
          "internalType": "address",
          "name": "minter",
          "type": "address"
        }
      ],
      "name": "Minted",
      "type": "event"
    },
    {
      "anonymous": false,
      "inputs": [
        {
          "indexed": true,
          "internalType": "address",
          "name": "minter",
          "type": "address"
        }
      ],
      "name": "MinterAdded",
      "type": "event"
    },
    {
      "anonymous": false,
      "inputs": [
        {
          "indexed": true,
          "internalType": "address",
          "name": "minter",
          "type": "address"
        }
      ],
      "name": "MinterRemoved",
      "type": "event"
    },
    {
      "anonymous": false,
      "inputs": [
        {
          "indexed": true,
          "internalType": "address",
          "name": "previousOwner",
          "type": "address"
        },
        {
          "indexed": true,
          "internalType": "address",
          "name": "newOwner",
          "type": "address"
        }
      ],
      "name": "OwnershipTransferred",
      "type": "event"
    },
    {
      "anonymous": false,
      "inputs": [
        {
          "indexed": false,
          "internalType": "address",
          "name": "account",
          "type": "address"
        }
      ],
      "name": "Paused",
      "type": "event"
    },
    {
      "anonymous": false,
      "inputs": [
        {
          "indexed": true,
          "internalType": "address",
          "name": "from",
          "type": "address"
        },
        {
          "indexed": true,
          "internalType": "address",
          "name": "to",
          "type": "address"
        },
        {
          "indexed": false,
          "internalType": "uint256",
          "name": "value",
          "type": "uint256"
        }
      ],
      "name": "Transfer",
      "type": "event"
    },
    {
      "anonymous": false,
      "inputs": [
        {
          "indexed": false,
          "internalType": "address",
          "name": "account",
          "type": "address"
        }
      ],
      "name": "Unpaused",
      "type": "event"
    },
    {
      "anonymous": false,
      "inputs": [
        {
          "indexed": false,
          "internalType": "uint256",
          "name": "vipDiscount",
          "type": "uint256"
        },
        {
          "indexed": false,
          "internalType": "uint256",
          "name": "superVipDiscount",
          "type": "uint256"
        }
      ],
      "name": "VipDiscountUpdated",
      "type": "event"
    },
    {
      "anonymous": false,
      "inputs": [
        {
          "indexed": false,
          "internalType": "uint256",
          "name": "newThreshold",
          "type": "uint256"
        }
      ],
      "name": "VipThresholdUpdated",
      "type": "event"
    },
    {
      "stateMutability": "payable",
      "type": "fallback"
    },
    {
      "inputs": [],
      "name": "MAX_SUPPLY",
      "outputs": [
        {
          "internalType": "uint256",
          "name": "",
          "type": "uint256"
        }
      ],
      "stateMutability": "view",
      "type": "function"
    },
    {
      "inputs": [
        {
          "internalType": "address",
          "name": "minter",
          "type": "address"
        }
      ],
      "name": "addMinter",
      "outputs": [],
      "stateMutability": "nonpayable",
      "type": "function"
    },
    {
      "inputs": [
        {
          "internalType": "address",
          "name": "owner",
          "type": "address"
        },
        {
          "internalType": "address",
          "name": "spender",
          "type": "address"
        }
      ],
      "name": "allowance",
      "outputs": [
        {
          "internalType": "uint256",
          "name": "",
          "type": "uint256"
        }
      ],
      "stateMutability": "view",
      "type": "function"
    },
    {
      "inputs": [
        {
          "internalType": "address",
          "name": "account",
          "type": "address"
        },
        {
          "internalType": "uint256",
          "name": "originalAmount",
          "type": "uint256"
        }
      ],
      "name": "applyVipDiscount",
      "outputs": [
        {
          "internalType": "uint256",
          "name": "",
          "type": "uint256"
        }
      ],
      "stateMutability": "view",
      "type": "function"
    },
    {
      "inputs": [
        {
          "internalType": "address",
          "name": "spender",
          "type": "address"
        },
        {
          "internalType": "uint256",
          "name": "value",
          "type": "uint256"
        }
      ],
      "name": "approve",
      "outputs": [
        {
          "internalType": "bool",
          "name": "",
          "type": "bool"
        }
      ],
      "stateMutability": "nonpayable",
      "type": "function"
    },
    {
      "inputs": [
        {
          "internalType": "address",
          "name": "account",
          "type": "address"
        }
      ],
      "name": "balanceOf",
      "outputs": [
        {
          "internalType": "uint256",
          "name": "",
          "type": "uint256"
        }
      ],
      "stateMutability": "view",
      "type": "function"
    },
    {
      "inputs": [
        {
          "internalType": "uint256",
          "name": "amount",
          "type": "uint256"
        }
      ],
      "name": "burn",
      "outputs": [],
      "stateMutability": "nonpayable",
      "type": "function"
    },
    {
      "inputs": [
        {
          "internalType": "address",
          "name": "account",
          "type": "address"
        },
        {
          "internalType": "uint256",
          "name": "amount",
          "type": "uint256"
        }
      ],
      "name": "burnFrom",
      "outputs": [],
      "stateMutability": "nonpayable",
      "type": "function"
    },
    {
      "inputs": [],
      "name": "decimals",
      "outputs": [
        {
          "internalType": "uint8",
          "name": "",
          "type": "uint8"
        }
      ],
      "stateMutability": "pure",
      "type": "function"
    },
    {
      "inputs": [],
      "name": "getMinters",
      "outputs": [
        {
          "internalType": "address[]",
          "name": "",
          "type": "address[]"
        }
      ],
      "stateMutability": "view",
      "type": "function"
    },
    {
      "inputs": [
        {
          "internalType": "address",
          "name": "account",
          "type": "address"
        }
      ],
      "name": "getVipDiscount",
      "outputs": [
        {
          "internalType": "uint256",
          "name": "",
          "type": "uint256"
        }
      ],
      "stateMutability": "view",
      "type": "function"
    },
    {
      "inputs": [
        {
          "internalType": "address",
          "name": "",
          "type": "address"
        }
      ],
      "name": "isMinter",
      "outputs": [
        {
          "internalType": "bool",
          "name": "",
          "type": "bool"
        }
      ],
      "stateMutability": "view",
      "type": "function"
    },
    {
      "inputs": [
        {
          "internalType": "address",
          "name": "account",
          "type": "address"
        }
      ],
      "name": "isSuperVip",
      "outputs": [
        {
          "internalType": "bool",
          "name": "",
          "type": "bool"
        }
      ],
      "stateMutability": "view",
      "type": "function"
    },
    {
      "inputs": [
        {
          "internalType": "address",
          "name": "account",
          "type": "address"
        }
      ],
      "name": "isVip",
      "outputs": [
        {
          "internalType": "bool",
          "name": "",
          "type": "bool"
        }
      ],
      "stateMutability": "view",
      "type": "function"
    },
    {
      "inputs": [
        {
          "internalType": "address",
          "name": "to",
          "type": "address"
        },
        {
          "internalType": "uint256",
          "name": "amount",
          "type": "uint256"
        }
      ],
      "name": "mint",
      "outputs": [],
      "stateMutability": "nonpayable",
      "type": "function"
    },
    {
      "inputs": [
        {
          "internalType": "uint256",
          "name": "",
          "type": "uint256"
        }
      ],
      "name": "minters",
      "outputs": [
        {
          "internalType": "address",
          "name": "",
          "type": "address"
        }
      ],
      "stateMutability": "view",
      "type": "function"
    },
    {
      "inputs": [],
      "name": "name",
      "outputs": [
        {
          "internalType": "string",
          "name": "",
          "type": "string"
        }
      ],
      "stateMutability": "view",
      "type": "function"
    },
    {
      "inputs": [],
      "name": "owner",
      "outputs": [
        {
          "internalType": "address",
          "name": "",
          "type": "address"
        }
      ],
      "stateMutability": "view",
      "type": "function"
    },
    {
      "inputs": [],
      "name": "pause",
      "outputs": [],
      "stateMutability": "nonpayable",
      "type": "function"
    },
    {
      "inputs": [],
      "name": "paused",
      "outputs": [
        {
          "internalType": "bool",
          "name": "",
          "type": "bool"
        }
      ],
      "stateMutability": "view",
      "type": "function"
    },
    {
      "inputs": [
        {
          "internalType": "address",
          "name": "minter",
          "type": "address"
        }
      ],
      "name": "removeMinter",
      "outputs": [],
      "stateMutability": "nonpayable",
      "type": "function"
    },
    {
      "inputs": [],
      "name": "renounceOwnership",
      "outputs": [],
      "stateMutability": "nonpayable",
      "type": "function"
    },
    {
      "inputs": [],
      "name": "rescueTRX",
      "outputs": [],
      "stateMutability": "nonpayable",
      "type": "function"
    },
    {
      "inputs": [
        {
          "internalType": "address",
          "name": "token",
          "type": "address"
        },
        {
          "internalType": "uint256",
          "name": "amount",
          "type": "uint256"
        }
      ],
      "name": "rescueTokens",
      "outputs": [],
      "stateMutability": "nonpayable",
      "type": "function"
    },
    {
      "inputs": [
        {
          "internalType": "uint256",
          "name": "_vipDiscount",
          "type": "uint256"
        },
        {
          "internalType": "uint256",
          "name": "_superVipDiscount",
          "type": "uint256"
        }
      ],
      "name": "setVipDiscount",
      "outputs": [],
      "stateMutability": "nonpayable",
      "type": "function"
    },
    {
      "inputs": [
        {
          "internalType": "uint256",
          "name": "_vipThreshold",
          "type": "uint256"
        },
        {
          "internalType": "uint256",
          "name": "_superVipThreshold",
          "type": "uint256"
        }
      ],
      "name": "setVipThreshold",
      "outputs": [],
      "stateMutability": "nonpayable",
      "type": "function"
    },
    {
      "inputs": [],
      "name": "superVipDiscount",
      "outputs": [
        {
          "internalType": "uint256",
          "name": "",
          "type": "uint256"
        }
      ],
      "stateMutability": "view",
      "type": "function"
    },
    {
      "inputs": [],
      "name": "superVipThreshold",
      "outputs": [
        {
          "internalType": "uint256",
          "name": "",
          "type": "uint256"
        }
      ],
      "stateMutability": "view",
      "type": "function"
    },
    {
      "inputs": [],
      "name": "symbol",
      "outputs": [
        {
          "internalType": "string",
          "name": "",
          "type": "string"
        }
      ],
      "stateMutability": "view",
      "type": "function"
    },
    {
      "inputs": [],
      "name": "totalMinted",
      "outputs": [
        {
          "internalType": "uint256",
          "name": "",
          "type": "uint256"
        }
      ],
      "stateMutability": "view",
      "type": "function"
    },
    {
      "inputs": [],
      "name": "totalSupply",
      "outputs": [
        {
          "internalType": "uint256",
          "name": "",
          "type": "uint256"
        }
      ],
      "stateMutability": "view",
      "type": "function"
    },
    {
      "inputs": [
        {
          "internalType": "address",
          "name": "to",
          "type": "address"
        },
        {
          "internalType": "uint256",
          "name": "amount",
          "type": "uint256"
        }
      ],
      "name": "transfer",
      "outputs": [
        {
          "internalType": "bool",
          "name": "",
          "type": "bool"
        }
      ],
      "stateMutability": "nonpayable",
      "type": "function"
    },
    {
      "inputs": [
        {
          "internalType": "address",
          "name": "from",
          "type": "address"
        },
        {
          "internalType": "address",
          "name": "to",
          "type": "address"
        },
        {
          "internalType": "uint256",
          "name": "amount",
          "type": "uint256"
        }
      ],
      "name": "transferFrom",
      "outputs": [
        {
          "internalType": "bool",
          "name": "",
          "type": "bool"
        }
      ],
      "stateMutability": "nonpayable",
      "type": "function"
    },
    {
      "inputs": [
        {
          "internalType": "address",
          "name": "newOwner",
          "type": "address"
        }
      ],
      "name": "transferOwnership",
      "outputs": [],
      "stateMutability": "nonpayable",
      "type": "function"
    },
    {
      "inputs": [],
      "name": "unpause",
      "outputs": [],
      "stateMutability": "nonpayable",
      "type": "function"
    },
    {
      "inputs": [],
      "name": "vipDiscount",
      "outputs": [
        {
          "internalType": "uint256",
          "name": "",
          "type": "uint256"
        }
      ],
      "stateMutability": "view",
      "type": "function"
    },
    {
      "inputs": [],
      "name": "vipThreshold",
      "outputs": [
        {
          "internalType": "uint256",
          "name": "",
          "type": "uint256"
        }
      ],
      "stateMutability": "view",
      "type": "function"
    },
    {
      "stateMutability": "payable",
      "type": "receive"
    }
  ],
  "bytecode": "0x60806040523461053057611c7d6020813803918261001c81610534565b93849283398101031261053057516100346040610534565b90600a82526921a424a8102a37b5b2b760b11b60208301526100566040610534565b60048152630434849560e41b602082015282519091906001600160401b0381116102a657600354600181811c91168015610526575b602082101461043757601f81116104c3575b506020601f821160011461046057819293945f92610455575b50508160011b915f199060031b1c1916176003555b81516001600160401b0381116102a657600454600181811c9116801561044b575b602082101461043757601f81116103d4575b50602092601f821160011461037357928192935f92610368575b50508160011b915f199060031b1c1916176004555b33156103555760058054336001600160a01b03198216811790925560405191906001600160a01b03167f8be0079c531659141344cd1fd0a4f28419497f9722a3daafe3b4186f6b6457e05f80a36402540be40060085564174876e8006009556101f4600a556103e8600b5566038d7ea4c68000821161031357506002548181018091116102ff57600255335f525f60205260405f208181540190556040518181525f7fddf252ad1be2c89b69c2b068fc378daa952ba7f163c4a11628f55a4df523b3ef60203393a3600c55335f52600660205260ff60405f2054166102ba57335f52600660205260405f20600160ff19825416179055600754680100000000000000008110156102a65760018101806007558110156102925760075f5260205f20013360018060a01b0319825416179055604051337f6ae172837ea30b801fbfcdd4108aa1d5bf8ff775444fd70256b44e6bf3dfc3f65f80a2611723908161055a8239f35b634e487b7160e01b5f52603260045260245ffd5b634e487b7160e01b5f52604160045260245ffd5b60405162461bcd60e51b815260206004820152601960248201527f43686970546f6b656e3a20616c7265616479206d696e746572000000000000006044820152606490fd5b634e487b7160e01b5f52601160045260245ffd5b62461bcd60e51b815260206004820152601d60248201527f43686970546f6b656e3a2065786365656473206d617820737570706c790000006044820152606490fd5b631e4fbdf760e01b5f525f60045260245ffd5b015190505f80610118565b601f1982169360045f52805f20915f5b8681106103bc57508360019596106103a4575b505050811b0160045561012d565b01515f1960f88460031b161c191690555f8080610396565b91926020600181928685015181550194019201610383565b60045f527f8a35acfbc15ff81a39ae7d344fd709f28e8600b4aa8c65c6b64bfe7fe36bd19b601f830160051c8101916020841061042d575b601f0160051c01905b81811061042257506100fe565b5f8155600101610415565b909150819061040c565b634e487b7160e01b5f52602260045260245ffd5b90607f16906100ec565b015190505f806100b6565b601f1982169060035f52805f20915f5b8181106104ab57509583600195969710610493575b505050811b016003556100cb565b01515f1960f88460031b161c191690555f8080610485565b9192602060018192868b015181550194019201610470565b60035f527fc2575a0e9e593c00f959f8c92f12db2869c3395a3b0502d05e2516446f71f85b601f830160051c8101916020841061051c575b601f0160051c01905b818110610511575061009d565b5f8155600101610504565b90915081906104fb565b90607f169061008b565b5f80fd5b6040519190601f01601f191682016001600160401b038111838210176102a65760405256fe608080604052600436101561001057005b5f3560e01c90816301af1187146113125750806306fdde0314611257578063095ea7b3146111af57806318160ddd14611192578063189628251461116f57806323b872dd1461112f57806325dce44914611112578063271c5519146110e35780633092afd514610f07578063313ce56714610eec57806332cb6b0c14610ecb5780633f4ba83a14610e5d5780634095da7214610e2157806340c10f1914610c5457806342966c6814610c0057806350117e5514610be35780635737619814610ae55780635c975abb14610ac05780636b32810b146109f85780636caff2e91461096057806370a0823114610929578063715018a6146108ce57806379cc67901461085e57806384203f4b146108225780638456cb59146107c15780638623ec7b1461077f5780638da5cb5b1461075757806395d89b4114610653578063983b2d56146104fa578063a2309ff8146104dd578063a9059cbb146104a4578063aa271e1a14610467578063c8b555211461036d578063dd62ed3e1461031d578063e17ea39c14610256578063e2797bfc146102395763f2fde38b146101af57005b34610235576020366003190112610235576101c8611356565b6101d06114e2565b6001600160a01b0316801561022257600580546001600160a01b0319811683179091556001600160a01b03167f8be0079c531659141344cd1fd0a4f28419497f9722a3daafe3b4186f6b6457e05f80a3005b631e4fbdf760e01b5f525f60045260245ffd5b5f80fd5b34610235575f366003190112610235576020600854604051908152f35b34610235575f3660031901126102355761026e6114e2565b5f8080804760018060a01b03600554165af13d15610318573d67ffffffffffffffff811161030457604051906102ae601f8201601f1916602001836113c4565b81525f60203d92013e5b156102bf57005b60405162461bcd60e51b815260206004820152601860248201527f43686970546f6b656e3a20726573637565206661696c656400000000000000006044820152606490fd5b634e487b7160e01b5f52604160045260245ffd5b6102b8565b3461023557604036600319011261023557610336611356565b61033e61136c565b6001600160a01b039182165f908152600160209081526040808320949093168252928352819020549051908152f35b346102355761037b36611382565b6103836114e2565b6107d0821161042357610bb881116103cf57816040917f7c02ccc33537b18a87fe4da3b87c1e396a67333c65668203f75d4900f940304493600a5580600b5582519182526020820152a1005b60405162461bcd60e51b815260206004820152602660248201527f43686970546f6b656e3a2053757065722056495020646973636f756e7420746f6044820152650de40d0d2ced60d31b6064820152608490fd5b606460405162461bcd60e51b815260206004820152602060248201527f43686970546f6b656e3a2056495020646973636f756e7420746f6f20686967686044820152fd5b34610235576020366003190112610235576001600160a01b03610488611356565b165f526006602052602060ff60405f2054166040519015158152f35b34610235576040366003190112610235576104d26104c0611356565b6104c86114c4565b60243590336115ac565b602060405160018152f35b34610235575f366003190112610235576020600c54604051908152f35b3461023557602036600319011261023557610513611356565b61051b6114e2565b6001600160a01b03811690811561060e57815f52600660205260ff60405f2054166105c957815f52600660205260405f20600160ff1982541617905560075490680100000000000000008210156103045761057f8260016105a39401600755611398565b81546001600160a01b0393841660039290921b91821b9390911b1916919091179055565b7f6ae172837ea30b801fbfcdd4108aa1d5bf8ff775444fd70256b44e6bf3dfc3f65f80a2005b60405162461bcd60e51b815260206004820152601960248201527f43686970546f6b656e3a20616c7265616479206d696e746572000000000000006044820152606490fd5b60405162461bcd60e51b815260206004820152601960248201527f43686970546f6b656e3a20696e76616c6964206d696e746572000000000000006044820152606490fd5b34610235575f366003190112610235576040515f6004548060011c9060018116801561074d575b6020831081146107395782855290811561071557506001146106b7575b6106b3836106a7818503826113c4565b6040519182918261132c565b0390f35b91905060045f527f8a35acfbc15ff81a39ae7d344fd709f28e8600b4aa8c65c6b64bfe7fe36bd19b915f905b8082106106fb575090915081016020016106a7610697565b9192600181602092548385880101520191019092916106e3565b60ff191660208086019190915291151560051b840190910191506106a79050610697565b634e487b7160e01b5f52602260045260245ffd5b91607f169161067a565b34610235575f366003190112610235576005546040516001600160a01b039091168152602090f35b3461023557602036600319011261023557600435600754811015610235576107a8602091611398565b905460405160039290921b1c6001600160a01b03168152f35b34610235575f366003190112610235576107d96114e2565b6107e16114c4565b6005805460ff60a01b1916600160a01b1790556040513381527f62e78cea01bee320cd4e420270b5ea74000d11b0c9f74754ebdbfc544b05a25890602090a1005b34610235576020366003190112610235576001600160a01b03610843611356565b165f525f602052602060405f20546008541115604051908152f35b3461023557604036600319011261023557610877611356565b7f696de425f79f4a40bc6d2122ca50507f0efbeabbff86a84871b7196ab8ea8df76020602435926108a66114c4565b6108b1843383611509565b6108bb8482611669565b6040519384526001600160a01b031692a2005b34610235575f366003190112610235576108e66114e2565b600580546001600160a01b031981169091555f906001600160a01b03167f8be0079c531659141344cd1fd0a4f28419497f9722a3daafe3b4186f6b6457e08280a3005b34610235576020366003190112610235576001600160a01b0361094a611356565b165f525f602052602060405f2054604051908152f35b346102355761096e36611382565b6109766114e2565b818111156109b357816020917f2f2ffb28e7c9fdc1f6bc326db0abcc6f981c1593a084521eaeb66d46ac974cfe93600855600955604051908152a1005b60405162461bcd60e51b815260206004820152601d60248201527f43686970546f6b656e3a20696e76616c6964207468726573686f6c64730000006044820152606490fd5b34610235575f366003190112610235576040518060206007549283815201809260075f527fa66cc928b5edb82af9bd49922954155ab7b0942694bea4ce44661d9a8736c688905f5b818110610aa15750505081610a569103826113c4565b604051918291602083019060208452518091526040830191905f5b818110610a7f575050500390f35b82516001600160a01b0316845285945060209384019390920191600101610a71565b82546001600160a01b0316845260209093019260019283019201610a40565b34610235575f36600319011261023557602060ff60055460a01c166040519015158152f35b3461023557604036600319011261023557610afe611356565b610b066114e2565b6001600160a01b0316308114610b935760205f91604460018060a01b0360055416604051948593849263a9059cbb60e01b8452600484015260243560248401525af18015610b8857610b5457005b6020813d602011610b80575b81610b6d602093836113c4565b8101031261023557518015150361023557005b3d9150610b60565b6040513d5f823e3d90fd5b60405162461bcd60e51b815260206004820152602260248201527f43686970546f6b656e3a2063616e6e6f7420726573637565206f776e20746f6b60448201526132b760f11b6064820152608490fd5b34610235575f366003190112610235576020600b54604051908152f35b3461023557602036600319011261023557600435610c1c6114c4565b610c268133611669565b6040519081527f696de425f79f4a40bc6d2122ca50507f0efbeabbff86a84871b7196ab8ea8df760203392a2005b3461023557604036600319011261023557610c6d611356565b60243590335f52600660205260ff60405f20541615610ddc57610c8e6114c4565b6001600160a01b03168015610d975766038d7ea4c68000610cb183600c546114b7565b11610d5257610cc2826002546114b7565b60025580610d3c5781600254036002555b805f7fddf252ad1be2c89b69c2b068fc378daa952ba7f163c4a11628f55a4df523b3ef6020604051868152a3610d0b82600c546114b7565b600c556040519182527ffd1ba5519feb014ad2f631cbd516bd3cec96be935749391554d122972593e7bf60203393a3005b805f525f60205260405f20828154019055610cd3565b60405162461bcd60e51b815260206004820152601d60248201527f43686970546f6b656e3a2065786365656473206d617820737570706c790000006044820152606490fd5b60405162461bcd60e51b815260206004820152601f60248201527f43686970546f6b656e3a206d696e7420746f207a65726f2061646472657373006044820152606490fd5b60405162461bcd60e51b815260206004820152601f60248201527f43686970546f6b656e3a2063616c6c6572206973206e6f74206d696e746572006044820152606490fd5b34610235576020366003190112610235576001600160a01b03610e42611356565b165f525f602052602060405f20546009541115604051908152f35b34610235575f36600319011261023557610e756114e2565b60055460ff8160a01c1615610ebc5760ff60a01b19166005556040513381527f5db9ee0a495bf2e6ff9c91a7834c1ba4fdd244a5e8aa4e537bd38aeae4b073aa90602090a1005b638dfc202b60e01b5f5260045ffd5b34610235575f36600319011261023557602060405166038d7ea4c680008152f35b34610235575f36600319011261023557602060405160068152f35b3461023557602036600319011261023557610f20611356565b610f286114e2565b6001600160a01b03165f8181526006602052604090205460ff161561109e576005546001600160a01b03168114611059575f818152600660205260408120805460ff191690555b60075490818110156110525782610f8582611398565b905460039190911b1c6001600160a01b031614610fa6576001915001610f6f565b5f19820191821161103e5761057f610fc0610fd893611398565b905460039190911b1c6001600160a01b031691611398565b600754801561102a575f1901610fed81611398565b81549060018060a01b039060031b1b191690556007555b7fe94479a9f7e1952cc78f2d6baab678adc1b772d936c6583def489e524cb666925f80a2005b634e487b7160e01b5f52603160045260245ffd5b634e487b7160e01b5f52601160045260245ffd5b5050611004565b60405162461bcd60e51b815260206004820152601e60248201527f43686970546f6b656e3a2063616e6e6f742072656d6f7665206f776e657200006044820152606490fd5b60405162461bcd60e51b815260206004820152601760248201527f43686970546f6b656e3a206e6f742061206d696e7465720000000000000000006044820152606490fd5b3461023557604036600319011261023557602061110a611101611356565b60243590611420565b604051908152f35b34610235575f366003190112610235576020600a54604051908152f35b34610235576060366003190112610235576104d261114b611356565b61115361136c565b6044359161115f6114c4565b61116a833383611509565b6115ac565b3461023557602036600319011261023557602061110a61118d611356565b6113e6565b34610235575f366003190112610235576020600254604051908152f35b34610235576040366003190112610235576111c8611356565b602435903315611244576001600160a01b031690811561123157335f52600160205260405f20825f526020528060405f20556040519081527f8c5be1e5ebec7d5bd14f71427d1e84f3dd0314c0f7b2291e5b200ac8c7c3b92560203392a3602060405160018152f35b634a1406b160e11b5f525f60045260245ffd5b63e602df0560e01b5f525f60045260245ffd5b34610235575f366003190112610235576040515f6003548060011c90600181168015611308575b6020831081146107395782855290811561071557506001146112aa576106b3836106a7818503826113c4565b91905060035f527fc2575a0e9e593c00f959f8c92f12db2869c3395a3b0502d05e2516446f71f85b915f905b8082106112ee575090915081016020016106a7610697565b9192600181602092548385880101520191019092916112d6565b91607f169161127e565b34610235575f366003190112610235576020906009548152f35b602060409281835280519182918282860152018484015e5f828201840152601f01601f1916010190565b600435906001600160a01b038216820361023557565b602435906001600160a01b038216820361023557565b6040906003190112610235576004359060243590565b6007548110156113b05760075f5260205f2001905f90565b634e487b7160e01b5f52603260045260245ffd5b90601f8019910116810190811067ffffffffffffffff82111761030457604052565b6001600160a01b03165f90815260208190526040902054600954811061140d5750600b5490565b600854111561141a575f90565b600a5490565b604051631896282560e01b81526001600160a01b039091166004820152602081602481305afa908115610b88575f91611485575b508015611481576127100390612710821161103e5781810291818304149015171561103e57612710900490565b5090565b90506020813d6020116114af575b816114a0602093836113c4565b8101031261023557515f611454565b3d9150611493565b9190820180921161103e57565b60ff60055460a01c166114d357565b63d93c066560e01b5f5260045ffd5b6005546001600160a01b031633036114f657565b63118cdaa760e01b5f523360045260245ffd5b6001600160a01b039081165f818152600160209081526040808320948616835293905291909120549291905f198410611543575b50505050565b828410611589578015611244576001600160a01b03821615611231575f52600160205260405f209060018060a01b03165f5260205260405f20910390555f80808061153d565b508290637dc7a0d960e11b5f5260018060a01b031660045260245260445260645ffd5b6001600160a01b0316908115611656576001600160a01b031691821561164357815f525f60205260405f205481811061162a57817fddf252ad1be2c89b69c2b068fc378daa952ba7f163c4a11628f55a4df523b3ef92602092855f525f84520360405f2055845f525f825260405f20818154019055604051908152a3565b8263391434e360e21b5f5260045260245260445260645ffd5b63ec442f0560e01b5f525f60045260245ffd5b634b637e8f60e11b5f525f60045260245ffd5b9091906001600160a01b0316801561165657805f525f60205260405f20548381106116d3576020845f94957fddf252ad1be2c89b69c2b068fc378daa952ba7f163c4a11628f55a4df523b3ef938587528684520360408620558060025403600255604051908152a3565b915063391434e360e21b5f5260045260245260445260645ffdfea264697066735822122017a9388f27b88fdfdbfcae1bb7099739439f88b1b5f7f7bf28e9fb86fb29181564736f6c634300081b0033",
  "linkReferences": {},
  "deployedLinkReferences": {}
}