{
  "_format": "hh-sol-artifact-1",
  "contractName": "AMMPool",
  "sourceName": "contracts/AMMPool.sol",
  "abi": [
    {
      "inputs": [
        {
          "internalType": "address",
          "name": "_token",
          "type": "address"
        }
      ],
      "stateMutability": "nonpayable",
      "type": "constructor"
    },
    {
      "anonymous": false,
      "inputs": [
        {
          "indexed": true,
          "internalType": "address",
          "name": "owner",
          "type": "address"
        },
        {
          "indexed": true,
          "internalType": "address",
          "name": "spender",
          "type": "address"
        },
        {
          "indexed": false,
          "internalType": "uint256",
          "name": "value",
          "type": "uint256"
        }
      ],
      "name": "Approval",
      "type": "event"
    },
    {
      "anonymous": false,
      "inputs": [
        {
          "indexed": true,
          "internalType": "address",
          "name": "sender",
          "type": "address"
        },
        {
          "indexed": false,
          "internalType": "uint256",
          "name": "amount0",
          "type": "uint256"
        },
        {
          "indexed": false,
          "internalType": "uint256",
          "name": "amount1",
          "type": "uint256"
        },
        {
          "indexed": false,
          "internalType": "uint256",
          "name": "liquidity",
          "type": "uint256"
        }
      ],
      "name": "Burn",
      "type": "event"
    },
    {
      "anonymous": false,
      "inputs": [
        {
          "indexed": true,
          "internalType": "address",
          "name": "sender",
          "type": "address"
        },
        {
          "indexed": false,
          "internalType": "uint256",
          "name": "amount0",
          "type": "uint256"
        },
        {
          "indexed": false,
          "internalType": "uint256",
          "name": "amount1",
          "type": "uint256"
        },
        {
          "indexed": false,
          "internalType": "uint256",
          "name": "liquidity",
          "type": "uint256"
        }
      ],
      "name": "Mint",
      "type": "event"
    },
    {
      "anonymous": false,
      "inputs": [
        {
          "indexed": false,
          "internalType": "bool",
          "name": "paused",
          "type": "bool"
        }
      ],
      "name": "PauseChanged",
      "type": "event"
    },
    {
      "anonymous": false,
      "inputs": [
        {
          "indexed": true,
          "internalType": "address",
          "name": "sender",
          "type": "address"
        },
        {
          "indexed": false,
          "internalType": "uint256",
          "name": "amount0In",
          "type": "uint256"
        },
        {
          "indexed": false,
          "internalType": "uint256",
          "name": "amount1In",
          "type": "uint256"
        },
        {
          "indexed": false,
          "internalType": "uint256",
          "name": "amount0Out",
          "type": "uint256"
        },
        {
          "indexed": false,
          "internalType": "uint256",
          "name": "amount1Out",
          "type": "uint256"
        },
        {
          "indexed": true,
          "internalType": "address",
          "name": "to",
          "type": "address"
        }
      ],
      "name": "Swap",
      "type": "event"
    },
    {
      "anonymous": false,
      "inputs": [
        {
          "indexed": false,
          "internalType": "uint256",
          "name": "reserve0",
          "type": "uint256"
        },
        {
          "indexed": false,
          "internalType": "uint256",
          "name": "reserve1",
          "type": "uint256"
        }
      ],
      "name": "Sync",
      "type": "event"
    },
    {
      "anonymous": false,
      "inputs": [
        {
          "indexed": true,
          "internalType": "address",
          "name": "from",
          "type": "address"
        },
        {
          "indexed": true,
          "internalType": "address",
          "name": "to",
          "type": "address"
        },
        {
          "indexed": false,
          "internalType": "uint256",
          "name": "value",
          "type": "uint256"
        }
      ],
      "name": "Transfer",
      "type": "event"
    },
    {
      "inputs": [],
      "name": "FEE_DENOMINATOR",
      "outputs": [
        {
          "internalType": "uint256",
          "name": "",
          "type": "uint256"
        }
      ],
      "stateMutability": "view",
      "type": "function"
    },
    {
      "inputs": [],
      "name": "FEE_NUMERATOR",
      "outputs": [
        {
          "internalType": "uint256",
          "name": "",
          "type": "uint256"
        }
      ],
      "stateMutability": "view",
      "type": "function"
    },
    {
      "inputs": [],
      "name": "MINIMUM_LIQUIDITY",
      "outputs": [
        {
          "internalType": "uint256",
          "name": "",
          "type": "uint256"
        }
      ],
      "stateMutability": "view",
      "type": "function"
    },
    {
      "inputs": [
        {
          "internalType": "address",
          "name": "",
          "type": "address"
        },
        {
          "internalType": "address",
          "name": "",
          "type": "address"
        }
      ],
      "name": "allowance",
      "outputs": [
        {
          "internalType": "uint256",
          "name": "",
          "type": "uint256"
        }
      ],
      "stateMutability": "view",
      "type": "function"
    },
    {
      "inputs": [
        {
          "internalType": "address",
          "name": "spender",
          "type": "address"
        },
        {
          "internalType": "uint256",
          "name": "value",
          "type": "uint256"
        }
      ],
      "name": "approve",
      "outputs": [
        {
          "internalType": "bool",
          "name": "",
          "type": "bool"
        }
      ],
      "stateMutability": "nonpayable",
      "type": "function"
    },
    {
      "inputs": [
        {
          "internalType": "address",
          "name": "",
          "type": "address"
        }
      ],
      "name": "balanceOf",
      "outputs": [
        {
          "internalType": "uint256",
          "name": "",
          "type": "uint256"
        }
      ],
      "stateMutability": "view",
      "type": "function"
    },
    {
      "inputs": [],
      "name": "blockTimestampLast",
      "outputs": [
        {
          "internalType": "uint32",
          "name": "",
          "type": "uint32"
        }
      ],
      "stateMutability": "view",
      "type": "function"
    },
    {
      "inputs": [
        {
          "internalType": "address",
          "name": "to",
          "type": "address"
        }
      ],
      "name": "burn",
      "outputs": [
        {
          "internalType": "uint256",
          "name": "amount0",
          "type": "uint256"
        },
        {
          "internalType": "uint256",
          "name": "amount1",
          "type": "uint256"
        }
      ],
      "stateMutability": "nonpayable",
      "type": "function"
    },
    {
      "inputs": [],
      "name": "decimals",
      "outputs": [
        {
          "internalType": "uint8",
          "name": "",
          "type": "uint8"
        }
      ],
      "stateMutability": "view",
      "type": "function"
    },
    {
      "inputs": [
        {
          "internalType": "uint256",
          "name": "amountIn",
          "type": "uint256"
        }
      ],
      "name": "getAmountOutCHIPToTRX",
      "outputs": [
        {
          "internalType": "uint256",
          "name": "amountOut",
          "type": "uint256"
        }
      ],
      "stateMutability": "view",
      "type": "function"
    },
    {
      "inputs": [
        {
          "internalType": "uint256",
          "name": "amountIn",
          "type": "uint256"
        }
      ],
      "name": "getAmountOutTRXToCHIP",
      "outputs": [
        {
          "internalType": "uint256",
          "name": "amountOut",
          "type": "uint256"
        }
      ],
      "stateMutability": "view",
      "type": "function"
    },
    {
      "inputs": [],
      "name": "getCurrentPrice",
      "outputs": [
        {
          "internalType": "uint256",
          "name": "price",
          "type": "uint256"
        }
      ],
      "stateMutability": "view",
      "type": "function"
    },
    {
      "inputs": [],
      "name": "getReserves",
      "outputs": [
        {
          "internalType": "uint256",
          "name": "_reserveTRX",
          "type": "uint256"
        },
        {
          "internalType": "uint256",
          "name": "_reserveCHIP",
          "type": "uint256"
        },
        {
          "internalType": "uint32",
          "name": "_blockTimestampLast",
          "type": "uint32"
        }
      ],
      "stateMutability": "view",
      "type": "function"
    },
    {
      "inputs": [],
      "name": "kLast",
      "outputs": [
        {
          "internalType": "uint256",
          "name": "",
          "type": "uint256"
        }
      ],
      "stateMutability": "view",
      "type": "function"
    },
    {
      "inputs": [
        {
          "internalType": "address",
          "name": "to",
          "type": "address"
        }
      ],
      "name": "mint",
      "outputs": [
        {
          "internalType": "uint256",
          "name": "liquidity",
          "type": "uint256"
        }
      ],
      "stateMutability": "nonpayable",
      "type": "function"
    },
    {
      "inputs": [],
      "name": "name",
      "outputs": [
        {
          "internalType": "string",
          "name": "",
          "type": "string"
        }
      ],
      "stateMutability": "view",
      "type": "function"
    },
    {
      "inputs": [],
      "name": "owner",
      "outputs": [
        {
          "internalType": "address",
          "name": "",
          "type": "address"
        }
      ],
      "stateMutability": "view",
      "type": "function"
    },
    {
      "inputs": [],
      "name": "paused",
      "outputs": [
        {
          "internalType": "bool",
          "name": "",
          "type": "bool"
        }
      ],
      "stateMutability": "view",
      "type": "function"
    },
    {
      "inputs": [],
      "name": "price0CumulativeLast",
      "outputs": [
        {
          "internalType": "uint256",
          "name": "",
          "type": "uint256"
        }
      ],
      "stateMutability": "view",
      "type": "function"
    },
    {
      "inputs": [],
      "name": "price1CumulativeLast",
      "outputs": [
        {
          "internalType": "uint256",
          "name": "",
          "type": "uint256"
        }
      ],
      "stateMutability": "view",
      "type": "function"
    },
    {
      "inputs": [],
      "name": "reserveCHIP",
      "outputs": [
        {
          "internalType": "uint256",
          "name": "",
          "type": "uint256"
        }
      ],
      "stateMutability": "view",
      "type": "function"
    },
    {
      "inputs": [],
      "name": "reserveTRX",
      "outputs": [
        {
          "internalType": "uint256",
          "name": "",
          "type": "uint256"
        }
      ],
      "stateMutability": "view",
      "type": "function"
    },
    {
      "inputs": [
        {
          "internalType": "bool",
          "name": "_paused",
          "type": "bool"
        }
      ],
      "name": "setPause",
      "outputs": [],
      "stateMutability": "nonpayable",
      "type": "function"
    },
    {
      "inputs": [
        {
          "internalType": "uint256",
          "name": "amount0Out",
          "type": "uint256"
        },
        {
          "internalType": "uint256",
          "name": "amount1Out",
          "type": "uint256"
        },
        {
          "internalType": "address",
          "name": "to",
          "type": "address"
        },
        {
          "internalType": "bytes",
          "name": "data",
          "type": "bytes"
        }
      ],
      "name": "swap",
      "outputs": [],
      "stateMutability": "nonpayable",
      "type": "function"
    },
    {
      "inputs": [],
      "name": "symbol",
      "outputs": [
        {
          "internalType": "string",
          "name": "",
          "type": "string"
        }
      ],
      "stateMutability": "view",
      "type": "function"
    },
    {
      "inputs": [],
      "name": "sync",
      "outputs": [],
      "stateMutability": "nonpayable",
      "type": "function"
    },
    {
      "inputs": [],
      "name": "token",
      "outputs": [
        {
          "internalType": "address",
          "name": "",
          "type": "address"
        }
      ],
      "stateMutability": "view",
      "type": "function"
    },
    {
      "inputs": [],
      "name": "totalSupply",
      "outputs": [
        {
          "internalType": "uint256",
          "name": "",
          "type": "uint256"
        }
      ],
      "stateMutability": "view",
      "type": "function"
    },
    {
      "inputs": [
        {
          "internalType": "address",
          "name": "to",
          "type": "address"
        },
        {
          "internalType": "uint256",
          "name": "value",
          "type": "uint256"
        }
      ],
      "name": "transfer",
      "outputs": [
        {
          "internalType": "bool",
          "name": "",
          "type": "bool"
        }
      ],
      "stateMutability": "nonpayable",
      "type": "function"
    },
    {
      "inputs": [
        {
          "internalType": "address",
          "name": "from",
          "type": "address"
        },
        {
          "internalType": "address",
          "name": "to",
          "type": "address"
        },
        {
          "internalType": "uint256",
          "name": "value",
          "type": "uint256"
        }
      ],
      "name": "transferFrom",
      "outputs": [
        {
          "internalType": "bool",
          "name": "",
          "type": "bool"
        }
      ],
      "stateMutability": "nonpayable",
      "type": "function"
    },
    {
      "inputs": [
        {
          "internalType": "address",
          "name": "newOwner",
          "type": "address"
        }
      ],
      "name": "transferOwnership",
      "outputs": [],
      "stateMutability": "nonpayable",
      "type": "function"
    },
    {
      "stateMutability": "payable",
      "type": "receive"
    }
  ],
  "bytecode": "0x608034608f57601f61193238819003918201601f19168301916001600160401b03831184841017609357808492602094604052833981010312608f57516001600160a01b03811690819003608f57600680545f80546001600160a01b0319169093179092556001600160a81b03199091163360ff60a01b19161790556001600b5560405161188a90816100a88239f35b5f80fd5b634e487b7160e01b5f52604160045260245ffdfe6080604052600436101561001a575b3615610018575f80fd5b005b5f5f3560e01c8063022c0d9f14610e8c57806306fdde0314610e445780630902f1ac14610e0f578063095ea7b314610d9257806318160ddd14610d7457806323b872dd14610cdf578063313ce56714610cc357806341cd47bf14610ca65780635909c0d514610c885780635a3d549314610c6a5780635c975abb14610c445780636a6278421461096757806370a082311461092e5780637464fc3d1461091057806389afcb441461063f5780638da5cb5b14610616578063946b7a92146105da57806395d89b4114610597578063a9059cbb14610565578063ba9a7a561461049f578063bedb86fb146104e6578063c5700a02146104c2578063cecde765146104a4578063d73792a91461049f578063dd62ed3e1461044c578063e2638211146103ad578063eb91d37e14610308578063f2fde38b14610278578063fbc31dc41461025a578063fc0c546a146102335763fff6cae91461017a575061000e565b346102305780600319360112610230576101996002600b5414156113cf565b6002600b5580546040516370a0823160e01b8152306004820152904790602090839060249082906001600160a01b03165afa9081156102255783916101eb575b6101e3925061163f565b6001600b5580f35b90506020823d60201161021d575b8161020660209383611353565b81010312610219576101e39151906101d9565b5f80fd5b3d91506101f9565b6040513d85823e3d90fd5b80fd5b5034610230578060031936011261023057546040516001600160a01b039091168152602090f35b50346102305780600319360112610230576020600254604051908152f35b503461023057602036600319011261023057610292611327565b600654906102aa336001600160a01b038416146115fe565b6001600160a01b03169081156102cb576001600160a01b0319161760065580f35b60405162461bcd60e51b8152602060048201526015602482015274414d4d506f6f6c3a207a65726f206164647265737360581b6044820152606490fd5b50346102305780600319360112610230576001549081156103705760025490670de0b6b3a7640000820291808304670de0b6b3a7640000149015171561035c57602061035484846115d3565b604051908152f35b634e487b7160e01b81526011600452602490fd5b60405162461bcd60e51b8152602060048201526015602482015274414d4d506f6f6c3a206e6f206c697175696469747960581b6044820152606490fd5b5034610230576020366003190112610230576004358015916103cf8315611569565b60015490600254821594851580610443575b6103ea90611459565b6103e585029485046103e514171561042f5761040690846115c0565b936103e883029283046103e814171561035c5760206103548561042986866115f1565b906115d3565b634e487b7160e01b82526011600452602482fd5b508115156103e1565b5034610230576040366003190112610230576040610468611327565b9161047161133d565b9260018060a01b031681526005602052209060018060a01b03165f52602052602060405f2054604051908152f35b6113b3565b50346102305780600319360112610230576020600154604051908152f35b5034610230578060031936011261023057602063ffffffff600a5416604051908152f35b503461023057602036600319011261023057600435801515809103610561576006547f8fb6c181ee25a520cf3dd6565006ef91229fcfe5a989566c2a3b8c115570cec591602091610541336001600160a01b038316146115fe565b60ff60a01b191660a082901b60ff60a01b1617600655604051908152a180f35b5080fd5b50346102305760403660031901126102305761058c610582611327565b602435903361178c565b602060405160018152f35b5034610230578060031936011261023057506105d66040516105ba604082611353565b60038152620414c560ec1b602082015260405191829182611389565b0390f35b5034610230576020366003190112610230576004358015916105fc8315611569565b60025490600154821594851580610443576103ea90611459565b50346102305780600319360112610230576006546040516001600160a01b039091168152602090f35b503461023057602036600319011261023057610659611327565b906106696002600b5414156113cf565b6002600b5561068060ff60065460a01c161561141b565b3381526004602052604081205491610699831515611459565b60035491600154926106c5816106b96106be826106b9600254998b6115c0565b6115d3565b96886115c0565b9284151580610907575b156108b357836020916106e58861076795611548565b600355338552600483526106fd886040872054611548565b33865260048452604086205561072b858080808b6001600160a01b0387165af16107256114a5565b506114e4565b845460405163a9059cbb60e01b81526001600160a01b039283166004820152602481019390935291938492909116908290869082906044820190565b03925af180156108a85761087b575b5080546040516370a0823160e01b8152306004820152479591602090829060249082906001600160a01b03165afa908115610225578391610848575b506107bf9060409661163f565b6107ce600154600254906115c0565b6007558451848152602081018490526040810182905233907f743033787f4738ff4d6a7225ce2bd0977ee5f86b91a902a58f5e4d0b297b464490606090a284519081527fddf252ad1be2c89b69c2b068fc378daa952ba7f163c4a11628f55a4df523b3ef60203392a36001600b5582519182526020820152f35b90506020813d602011610873575b8161086360209383611353565b81010312610219575160406107b2565b3d9150610856565b61089c9060203d6020116108a1575b6108948183611353565b810190611530565b610776565b503d61088a565b6040513d84823e3d90fd5b60405162461bcd60e51b815260206004820152602660248201527f414d4d506f6f6c3a20696e73756666696369656e74206c697175696469747920604482015265189d5c9b995960d21b6064820152608490fd5b508315156106cf565b50346102305780600319360112610230576020600754604051908152f35b5034610230576020366003190112610230576020906040906001600160a01b03610956611327565b168152600483522054604051908152f35b5034610230576020366003190112610230576024610983611327565b916109936002600b5414156113cf565b6002600b556109aa60ff60065460a01c161561141b565b60035460015460025483546040516370a0823160e01b81523060048201529196919547959491602091889182906001600160a01b03165afa958615610c39578496610c05575b506109fb8386611548565b92610a068888611548565b9782610bd357505050610a1986836115c0565b836003821115610bc55750808060011c60018101809111610bb157905b828210610b925750505b6103e7198101908111610b7e579483805260046020526103e860408520556103e86003555b8515610b2a57602096610aca87927fb4c03061fb5b7fed76389d5af8f2e0ddb09f8c70d1333abbb62582835e10accb94610aa1856003546115f1565b60035560018060a01b03169788885260048b5260408820610ac38682546115f1565b905561163f565b610ad9600154600254906115c0565b6007556040805194855260208501919091528301523391606090a27fddf252ad1be2c89b69c2b068fc378daa952ba7f163c4a11628f55a4df523b3ef84604051858152a36001600b55604051908152f35b60405162461bcd60e51b815260206004820152602660248201527f414d4d506f6f6c3a20696e73756666696369656e74206c6971756964697479206044820152651b5a5b9d195960d21b6064820152608490fd5b634e487b7160e01b84526011600452602484fd5b909150610ba882610ba381846115d3565b6115f1565b60011c90610a36565b634e487b7160e01b86526011600452602486fd5b9015610a4057506001610a40565b6106b9610be7610bee936106b986896115c0565b938a6115c0565b80821015610bfe57505b94610a65565b9050610bf8565b9095506020813d602011610c31575b81610c2160209383611353565b810103126102195751945f6109f0565b3d9150610c14565b6040513d86823e3d90fd5b5034610230578060031936011261023057602060ff60065460a01c166040519015158152f35b50346102305780600319360112610230576020600954604051908152f35b50346102305780600319360112610230576020600854604051908152f35b503461023057806003193601126102305760206040516103e58152f35b5034610230578060031936011261023057602060405160128152f35b50346102305760603660031901126102305761058c90610cfd611327565b610d0561133d565b6001600160a01b038216808452600560209081526040808620335f908152925290205460443594929392859160018101610d43575b5050505061178c565b604092610d4f91611548565b92815260056020522060018060a01b0333165f5260205260405f20555f838180610d3a565b50346102305780600319360112610230576020600354604051908152f35b503461023057604036600319011261023057610dac611327565b60406024359233815260056020522060018060a01b0382165f526020528160405f205560405191825260018060a01b0316907f8c5be1e5ebec7d5bd14f71427d1e84f3dd0314c0f7b2291e5b200ac8c7c3b92560203392a3602060405160018152f35b5034610230578060031936011261023057606060015460025463ffffffff600a54169060405192835260208301526040820152f35b5034610230578060031936011261023057506105d6604051610e67604082611353565b600c81526b20a6a6902628102a37b5b2b760a11b602082015260405191829182611389565b5034610219576080366003190112610219576044356001600160a01b0381169060243590600435908381036102195760643567ffffffffffffffff811161021957366023820112156102195780600401359167ffffffffffffffff831161021957366024848401011161021957610f086002600b5414156113cf565b6002600b55610f1f60ff60065460a01c161561141b565b8315908115809261131e575b156112cd5785916001548610806112c2575b610f4690611459565b6112aa575b81611244575b5050816111b4575b505083546040516370a0823160e01b81523060048201529291904790602090859060249082906001600160a01b03165afa9384156111a9578694611175575b5060015490610fa78383611548565b81111561116e57610fc1610fbb8484611548565b82611548565b945b60025492610fd18685611548565b82111561116757610feb610fe58786611548565b83611548565b935b871580158161115e575b61100090611569565b6103e885028581046103e8148615171561114a5760038a02918a8304600314171561114a579061102f91611548565b6103e884028481046103e8148515171561114a57600387029087820460031488151715611136579161106861106e926110749594611548565b906115c0565b926115c0565b90620f4240820291808304620f4240149015171561112257106110dd5761109a9161163f565b6040519384526020840152604083015260608201527fd78ad95fa46c994b6551d0da85fc275fe613ce37657fb8d5e3d130840159d82260803392a36001600b5580f35b60405162461bcd60e51b815260206004820152601d60248201527f414d4d506f6f6c3a204b2076616c756520636865636b206661696c65640000006044820152606490fd5b634e487b7160e01b8a52601160045260248afd5b634e487b7160e01b8d52601160045260248dfd5b634e487b7160e01b8c52601160045260248cfd5b50851515610ff7565b8893610fed565b8694610fc3565b9093506020813d6020116111a1575b8161119160209383611353565b810103126102195751925f610f98565b3d9150611184565b6040513d88823e3d90fd5b843b1561021957602460a45f92846040519586948593635fea11f760e01b855233600486015289828601528a60448601526080606486015282608486015201848401378181018301859052601f01601f1916810103018183885af1801561123957611220575b80610f59565b6024929194505f61123091611353565b5f93909161121a565b6040513d5f823e3d90fd5b5f805460405163a9059cbb60e01b81526001600160a01b039384166004820152602481019490945260209284926044928492165af180156112395761128b575b8490610f51565b6112a39060203d6020116108a1576108948183611353565b505f611284565b6112bd5f808080898c5af16107256114a5565b610f4b565b506002548310610f3d565b60405162461bcd60e51b815260206004820152602360248201527f414d4d506f6f6c3a20696e73756666696369656e74206f757470757420616d6f6044820152621d5b9d60ea1b6064820152608490fd5b50851515610f2b565b600435906001600160a01b038216820361021957565b602435906001600160a01b038216820361021957565b90601f8019910116810190811067ffffffffffffffff82111761137557604052565b634e487b7160e01b5f52604160045260245ffd5b602060409281835280519182918282860152018484015e5f828201840152601f01601f1916010190565b34610219575f3660031901126102195760206040516103e88152f35b156113d657565b60405162461bcd60e51b815260206004820152601760248201527f414d4d506f6f6c3a207265656e7472616e742063616c6c0000000000000000006044820152606490fd5b1561142257565b60405162461bcd60e51b815260206004820152600f60248201526e105353541bdbdb0e881c185d5cd959608a1b6044820152606490fd5b1561146057565b60405162461bcd60e51b815260206004820152601f60248201527f414d4d506f6f6c3a20696e73756666696369656e74206c6971756964697479006044820152606490fd5b3d156114df573d9067ffffffffffffffff821161137557604051916114d4601f8201601f191660200184611353565b82523d5f602084013e565b606090565b156114eb57565b60405162461bcd60e51b815260206004820152601c60248201527f414d4d506f6f6c3a20545258207472616e73666572206661696c6564000000006044820152606490fd5b90816020910312610219575180151581036102195790565b9190820391821161155557565b634e487b7160e01b5f52601160045260245ffd5b1561157057565b60405162461bcd60e51b815260206004820152602260248201527f414d4d506f6f6c3a20696e73756666696369656e7420696e70757420616d6f756044820152611b9d60f21b6064820152608490fd5b8181029291811591840414171561155557565b81156115dd570490565b634e487b7160e01b5f52601260045260245ffd5b9190820180921161155557565b1561160557565b60405162461bcd60e51b815260206004820152601260248201527120a6a6a837b7b61d103737ba1037bbb732b960711b6044820152606490fd5b63ffffffff421691600a549263ffffffff8416810363ffffffff81116115555763ffffffff1680151580611781575b80611776575b6116c1575b509082917fcf2aa50876cdfbb541206f89af0ee78d44a2abf8d328e37fa4917f982149848a946040946001558260025563ffffffff191617600a5582519182526020820152a1565b92919060025494670de0b6b3a76400008602868104670de0b6b3a7640000148715171561155557611709611701876116fc60015480956115d3565b6115c0565b6008546115f1565b600855670de0b6b3a7640000810290808204670de0b6b3a76400001490151715611555576117616040966116fc7fcf2aa50876cdfbb541206f89af0ee78d44a2abf8d328e37fa4917f982149848a99611769946115d3565b6009546115f1565b6009559450909192611679565b506002541515611674565b50600154151561166e565b6001600160a01b03909116919082156118055760207fddf252ad1be2c89b69c2b068fc378daa952ba7f163c4a11628f55a4df523b3ef9160018060a01b031692835f526004825260405f206117e2828254611548565b9055845f526004825260405f206117fa8282546115f1565b9055604051908152a3565b60405162461bcd60e51b815260206004820152602160248201527f414d4d506f6f6c3a207472616e7366657220746f207a65726f206164647265736044820152607360f81b6064820152608490fdfea264697066735822122057d0e788a050346c2ddb8372eee05e8df906c2c528955eba66678f5ee609ddb764736f6c634300081b0033",
  "linkReferences": {},
  "deployedLinkReferences": {}
}