{
  "_format": "hh-sol-artifact-1",
  "contractName": "Staking",
  "sourceName": "contracts/Staking.sol",
  "abi": [
    {
      "inputs": [
        {
          "internalType": "address",
          "name": "_chipToken",
          "type": "address"
        }
      ],
      "stateMutability": "nonpayable",
      "type": "constructor"
    },
    {
      "inputs": [],
      "name": "EnforcedPause",
      "type": "error"
    },
    {
      "inputs": [],
      "name": "ExpectedPause",
      "type": "error"
    },
    {
      "inputs": [
        {
          "internalType": "address",
          "name": "owner",
          "type": "address"
        }
      ],
      "name": "OwnableInvalidOwner",
      "type": "error"
    },
    {
      "inputs": [
        {
          "internalType": "address",
          "name": "account",
          "type": "address"
        }
      ],
      "name": "OwnableUnauthorizedAccount",
      "type": "error"
    },
    {
      "inputs": [],
      "name": "ReentrancyGuardReentrantCall",
      "type": "error"
    },
    {
      "inputs": [
        {
          "internalType": "address",
          "name": "token",
          "type": "address"
        }
      ],
      "name": "SafeERC20FailedOperation",
      "type": "error"
    },
    {
      "anonymous": false,
      "inputs": [
        {
          "indexed": true,
          "internalType": "address",
          "name": "previousOwner",
          "type": "address"
        },
        {
          "indexed": true,
          "internalType": "address",
          "name": "newOwner",
          "type": "address"
        }
      ],
      "name": "OwnershipTransferred",
      "type": "event"
    },
    {
      "anonymous": false,
      "inputs": [
        {
          "indexed": false,
          "internalType": "address",
          "name": "account",
          "type": "address"
        }
      ],
      "name": "Paused",
      "type": "event"
    },
    {
      "anonymous": false,
      "inputs": [
        {
          "indexed": false,
          "internalType": "uint256",
          "name": "newPenalty",
          "type": "uint256"
        }
      ],
      "name": "PenaltyUpdated",
      "type": "event"
    },
    {
      "anonymous": false,
      "inputs": [
        {
          "indexed": false,
          "internalType": "uint256",
          "name": "amount",
          "type": "uint256"
        },
        {
          "indexed": false,
          "internalType": "uint256",
          "name": "totalPool",
          "type": "uint256"
        }
      ],
      "name": "RewardAdded",
      "type": "event"
    },
    {
      "anonymous": false,
      "inputs": [
        {
          "indexed": true,
          "internalType": "address",
          "name": "user",
          "type": "address"
        },
        {
          "indexed": false,
          "internalType": "uint256",
          "name": "amount",
          "type": "uint256"
        }
      ],
      "name": "RewardClaimed",
      "type": "event"
    },
    {
      "anonymous": false,
      "inputs": [
        {
          "indexed": true,
          "internalType": "address",
          "name": "user",
          "type": "address"
        },
        {
          "indexed": false,
          "internalType": "uint256",
          "name": "amount",
          "type": "uint256"
        },
        {
          "indexed": false,
          "internalType": "uint256",
          "name": "lockDuration",
          "type": "uint256"
        }
      ],
      "name": "Staked",
      "type": "event"
    },
    {
      "anonymous": false,
      "inputs": [
        {
          "indexed": false,
          "internalType": "address",
          "name": "account",
          "type": "address"
        }
      ],
      "name": "Unpaused",
      "type": "event"
    },
    {
      "anonymous": false,
      "inputs": [
        {
          "indexed": true,
          "internalType": "address",
          "name": "user",
          "type": "address"
        },
        {
          "indexed": false,
          "internalType": "uint256",
          "name": "amount",
          "type": "uint256"
        },
        {
          "indexed": false,
          "internalType": "uint256",
          "name": "penalty",
          "type": "uint256"
        }
      ],
      "name": "Unstaked",
      "type": "event"
    },
    {
      "stateMutability": "payable",
      "type": "fallback"
    },
    {
      "inputs": [],
      "name": "EARLY_UNSTAKE_PENALTY",
      "outputs": [
        {
          "internalType": "uint256",
          "name": "",
          "type": "uint256"
        }
      ],
      "stateMutability": "view",
      "type": "function"
    },
    {
      "inputs": [],
      "name": "MAX_LOCK_DURATION",
      "outputs": [
        {
          "internalType": "uint256",
          "name": "",
          "type": "uint256"
        }
      ],
      "stateMutability": "view",
      "type": "function"
    },
    {
      "inputs": [],
      "name": "MIN_LOCK_DURATION",
      "outputs": [
        {
          "internalType": "uint256",
          "name": "",
          "type": "uint256"
        }
      ],
      "stateMutability": "view",
      "type": "function"
    },
    {
      "inputs": [],
      "name": "MIN_STAKE",
      "outputs": [
        {
          "internalType": "uint256",
          "name": "",
          "type": "uint256"
        }
      ],
      "stateMutability": "view",
      "type": "function"
    },
    {
      "inputs": [
        {
          "internalType": "uint256",
          "name": "amount",
          "type": "uint256"
        }
      ],
      "name": "addReward",
      "outputs": [],
      "stateMutability": "nonpayable",
      "type": "function"
    },
    {
      "inputs": [],
      "name": "chipToken",
      "outputs": [
        {
          "internalType": "contract IERC20",
          "name": "",
          "type": "address"
        }
      ],
      "stateMutability": "view",
      "type": "function"
    },
    {
      "inputs": [],
      "name": "claimReward",
      "outputs": [],
      "stateMutability": "nonpayable",
      "type": "function"
    },
    {
      "inputs": [],
      "name": "earlyUnstakePenalty",
      "outputs": [
        {
          "internalType": "uint256",
          "name": "",
          "type": "uint256"
        }
      ],
      "stateMutability": "view",
      "type": "function"
    },
    {
      "inputs": [],
      "name": "emergencyUnstake",
      "outputs": [],
      "stateMutability": "nonpayable",
      "type": "function"
    },
    {
      "inputs": [
        {
          "internalType": "address",
          "name": "user",
          "type": "address"
        }
      ],
      "name": "getPendingReward",
      "outputs": [
        {
          "internalType": "uint256",
          "name": "",
          "type": "uint256"
        }
      ],
      "stateMutability": "view",
      "type": "function"
    },
    {
      "inputs": [
        {
          "internalType": "address",
          "name": "user",
          "type": "address"
        }
      ],
      "name": "getRemainingLockTime",
      "outputs": [
        {
          "internalType": "uint256",
          "name": "",
          "type": "uint256"
        }
      ],
      "stateMutability": "view",
      "type": "function"
    },
    {
      "inputs": [
        {
          "internalType": "address",
          "name": "user",
          "type": "address"
        }
      ],
      "name": "getStakeInfo",
      "outputs": [
        {
          "internalType": "uint256",
          "name": "amount",
          "type": "uint256"
        },
        {
          "internalType": "uint256",
          "name": "startTime",
          "type": "uint256"
        },
        {
          "internalType": "uint256",
          "name": "lockedUntil",
          "type": "uint256"
        },
        {
          "internalType": "bool",
          "name": "isLocked",
          "type": "bool"
        },
        {
          "internalType": "bool",
          "name": "isActive",
          "type": "bool"
        }
      ],
      "stateMutability": "view",
      "type": "function"
    },
    {
      "inputs": [
        {
          "internalType": "address",
          "name": "user",
          "type": "address"
        }
      ],
      "name": "isLocked",
      "outputs": [
        {
          "internalType": "bool",
          "name": "",
          "type": "bool"
        }
      ],
      "stateMutability": "view",
      "type": "function"
    },
    {
      "inputs": [],
      "name": "lastRewardUpdate",
      "outputs": [
        {
          "internalType": "uint256",
          "name": "",
          "type": "uint256"
        }
      ],
      "stateMutability": "view",
      "type": "function"
    },
    {
      "inputs": [],
      "name": "maxLockDuration",
      "outputs": [
        {
          "internalType": "uint256",
          "name": "",
          "type": "uint256"
        }
      ],
      "stateMutability": "view",
      "type": "function"
    },
    {
      "inputs": [],
      "name": "minLockDuration",
      "outputs": [
        {
          "internalType": "uint256",
          "name": "",
          "type": "uint256"
        }
      ],
      "stateMutability": "view",
      "type": "function"
    },
    {
      "inputs": [],
      "name": "owner",
      "outputs": [
        {
          "internalType": "address",
          "name": "",
          "type": "address"
        }
      ],
      "stateMutability": "view",
      "type": "function"
    },
    {
      "inputs": [],
      "name": "pause",
      "outputs": [],
      "stateMutability": "nonpayable",
      "type": "function"
    },
    {
      "inputs": [],
      "name": "paused",
      "outputs": [
        {
          "internalType": "bool",
          "name": "",
          "type": "bool"
        }
      ],
      "stateMutability": "view",
      "type": "function"
    },
    {
      "inputs": [
        {
          "internalType": "address",
          "name": "",
          "type": "address"
        }
      ],
      "name": "pendingRewards",
      "outputs": [
        {
          "internalType": "uint256",
          "name": "",
          "type": "uint256"
        }
      ],
      "stateMutability": "view",
      "type": "function"
    },
    {
      "inputs": [],
      "name": "renounceOwnership",
      "outputs": [],
      "stateMutability": "nonpayable",
      "type": "function"
    },
    {
      "inputs": [],
      "name": "rewardPerToken",
      "outputs": [
        {
          "internalType": "uint256",
          "name": "",
          "type": "uint256"
        }
      ],
      "stateMutability": "view",
      "type": "function"
    },
    {
      "inputs": [
        {
          "internalType": "uint256",
          "name": "_penalty",
          "type": "uint256"
        }
      ],
      "name": "setEarlyUnstakePenalty",
      "outputs": [],
      "stateMutability": "nonpayable",
      "type": "function"
    },
    {
      "inputs": [
        {
          "internalType": "uint256",
          "name": "_minDuration",
          "type": "uint256"
        },
        {
          "internalType": "uint256",
          "name": "_maxDuration",
          "type": "uint256"
        }
      ],
      "name": "setLockDuration",
      "outputs": [],
      "stateMutability": "nonpayable",
      "type": "function"
    },
    {
      "inputs": [
        {
          "internalType": "uint256",
          "name": "amount",
          "type": "uint256"
        },
        {
          "internalType": "uint256",
          "name": "lockDuration",
          "type": "uint256"
        }
      ],
      "name": "stake",
      "outputs": [],
      "stateMutability": "nonpayable",
      "type": "function"
    },
    {
      "inputs": [
        {
          "internalType": "address",
          "name": "",
          "type": "address"
        }
      ],
      "name": "stakes",
      "outputs": [
        {
          "internalType": "uint256",
          "name": "amount",
          "type": "uint256"
        },
        {
          "internalType": "uint256",
          "name": "startTime",
          "type": "uint256"
        },
        {
          "internalType": "uint256",
          "name": "lockedUntil",
          "type": "uint256"
        },
        {
          "internalType": "uint256",
          "name": "rewardDebt",
          "type": "uint256"
        },
        {
          "internalType": "bool",
          "name": "isActive",
          "type": "bool"
        }
      ],
      "stateMutability": "view",
      "type": "function"
    },
    {
      "inputs": [],
      "name": "totalRewardPool",
      "outputs": [
        {
          "internalType": "uint256",
          "name": "",
          "type": "uint256"
        }
      ],
      "stateMutability": "view",
      "type": "function"
    },
    {
      "inputs": [],
      "name": "totalStaked",
      "outputs": [
        {
          "internalType": "uint256",
          "name": "",
          "type": "uint256"
        }
      ],
      "stateMutability": "view",
      "type": "function"
    },
    {
      "inputs": [
        {
          "internalType": "address",
          "name": "newOwner",
          "type": "address"
        }
      ],
      "name": "transferOwnership",
      "outputs": [],
      "stateMutability": "nonpayable",
      "type": "function"
    },
    {
      "inputs": [],
      "name": "unpause",
      "outputs": [],
      "stateMutability": "nonpayable",
      "type": "function"
    },
    {
      "inputs": [
        {
          "internalType": "uint256",
          "name": "amount",
          "type": "uint256"
        }
      ],
      "name": "unstake",
      "outputs": [],
      "stateMutability": "nonpayable",
      "type": "function"
    },
    {
      "stateMutability": "payable",
      "type": "receive"
    }
  ],
  "bytecode": "0x60803461015657601f6112e138819003918201601f19168301916001600160401b0383118484101761015a5780849260209460405283398101031261015657516001600160a01b03811690819003610156573315610143575f8054336001600160a01b03198216811783556040519290916001600160a01b0316907f8be0079c531659141344cd1fd0a4f28419497f9722a3daafe3b4186f6b6457e09080a360017f9b779b17422d0df92223018b32b4d1fa46e071723d6817e2486d003becc55f005562093a806006556301e133806007556103e860085581156101015750600180546001600160a01b031916919091179055604051611172908161016f8239f35b62461bcd60e51b815260206004820152601660248201527f5374616b696e673a20696e76616c696420746f6b656e000000000000000000006044820152606490fd5b631e4fbdf760e01b5f525f60045260245ffd5b5f80fd5b634e487b7160e01b5f52604160045260245ffdfe608080604052600436101561001057005b5f3560e01c90816309c85e2414610deb57508063126796dd14610d7f5780631367eaf214610d6257806316934fc414610cf55780631f4531f514610cd95780632e17de7814610b4957806331d7a26214610b0d5780633b61403c14610ae55780633f4ba83a14610a795780634730449414610a4a5780634a4fbeec14610a095780634df9d6ba146109d25780634f1bfc9e146109b45780635c975abb14610990578063715018a61461093957806374de4ec4146108165780637589cf2f1461073157806378b4330f146107145780637b0472f01461051c578063817b1cd2146104ff5780638456cb591461049f5780638da5cb5b146104785780638e1eb324146103dd578063a16cdbb1146103c0578063a3c2710d146103a3578063b88a802f146102bd578063c345315314610252578063cb1c2b5c14610234578063cd3daf9d14610217578063d6a298e9146101fa5763f2fde38b1461016d57005b346101f65760203660031901126101f6576004356001600160a01b038116908190036101f65761019b610f49565b80156101e3575f80546001600160a01b03198116831782556001600160a01b0316907f8be0079c531659141344cd1fd0a4f28419497f9722a3daafe3b4186f6b6457e09080a3005b631e4fbdf760e01b5f525f60045260245ffd5b5f80fd5b346101f6575f3660031901126101f6576020600654604051908152f35b346101f6575f3660031901126101f6576020600454604051908152f35b346101f6575f3660031901126101f65760206040516305f5e1008152f35b346101f65760203660031901126101f6576004356001600160a01b038116908190036101f6575f52600960205260a060405f2080549060018101549060ff60046002830154920154169160405193845260208401528060408401524210606083015215156080820152f35b346101f6575f3660031901126101f6576102d5610f6f565b6102dd610fa7565b6102e633610fc4565b335f52600a60205260405f2054801561035e57335f818152600a602052604081205560015461031f9183916001600160a01b0316611032565b6040519081527f106f923f993c2149d49b4255ff723acafa1f2d94393f561d3eda32ae348f724160203392a260015f51602061111d5f395f51905f5255005b60405162461bcd60e51b815260206004820152601c60248201527f5374616b696e673a206e6f207265776172647320746f20636c61696d000000006044820152606490fd5b346101f6575f3660031901126101f6576020600554604051908152f35b346101f6575f3660031901126101f6576020600754604051908152f35b346101f65760203660031901126101f6576004356103f9610f49565b610bb88111610433576020817fc831f5abc7bc27c011edea988b6e4e573af053efa7cfa703a1878827ec6acc1092600855604051908152a1005b60405162461bcd60e51b815260206004820152601960248201527f5374616b696e673a2070656e616c747920746f6f2068696768000000000000006044820152606490fd5b346101f6575f3660031901126101f6575f546040516001600160a01b039091168152602090f35b346101f6575f3660031901126101f6576104b7610f49565b6104bf610fa7565b5f805460ff60a01b1916600160a01b1790556040513381527f62e78cea01bee320cd4e420270b5ea74000d11b0c9f74754ebdbfc544b05a25890602090a1005b346101f6575f3660031901126101f6576020600254604051908152f35b346101f65761052a36610e05565b610532610f6f565b61053a610fa7565b6305f5e10082106106cf57600654811061068a57600754811161064c5761056033610fc4565b60015461057b908390309033906001600160a01b03166110b3565b335f52600960205260405f2060048101805460ff81165f146106265750506105a4838254610ebc565b81556105b08242610ebc565b60028201555b6003670de0b6b3a76400006105cf835460045490610e67565b049101556105df82600254610ebc565b60025560405191825260208201527f1449c6dd7851abc30abf37f57715f492010519147cc2652fbc38202c18a6ee9060403392a260015f51602061111d5f395f51905f5255005b600190858455428285015561063b8542610ebc565b600285015560ff19161790556105b6565b60405162461bcd60e51b81526020600482015260166024820152755374616b696e673a206c6f636b20746f6f206c6f6e6760501b6044820152606490fd5b60405162461bcd60e51b815260206004820152601760248201527f5374616b696e673a206c6f636b20746f6f2073686f72740000000000000000006044820152606490fd5b60405162461bcd60e51b815260206004820152601c60248201527f5374616b696e673a2062656c6f77206d696e696d756d207374616b65000000006044820152606490fd5b346101f6575f3660031901126101f657602060405162093a808152f35b346101f6575f3660031901126101f657610749610f6f565b335f52600960205260405f2060048101906107b582549161076c60ff8416610e1b565b80549361271061077e60085487610e67565b04935f61078b8688610e7a565b935560ff1916905561079f84600254610e7a565b60025560015433906001600160a01b0316611032565b6001545f546107d29183916001600160a01b039081169116611032565b60405191825260208201527f7fc4727e062e336010f2c282598ef5f14facb3de68cf8195c2f23e1454b2b74e60403392a260015f51602061111d5f395f51905f5255005b346101f65760203660031901126101f657600435610832610f6f565b60015461084d908290309033906001600160a01b03166110b3565b60025480159081156108b0575b7f6c07ee05dcf262f13abf9d87b846ee789d2f90fe991d495acd7d7fc109ee1f5560408461088a81600354610ebc565b806003554260055582519182526020820152a160015f51602061111d5f395f51905f5255005b9091670de0b6b3a7640000810292818404670de0b6b3a7640000148215171561092557610911576109086040927f6c07ee05dcf262f13abf9d87b846ee789d2f90fe991d495acd7d7fc109ee1f559404600454610ebc565b6004559161085a565b634e487b7160e01b5f52601260045260245ffd5b634e487b7160e01b5f52601160045260245ffd5b346101f6575f3660031901126101f657610951610f49565b5f80546001600160a01b0319811682556001600160a01b03167f8be0079c531659141344cd1fd0a4f28419497f9722a3daafe3b4186f6b6457e08280a3005b346101f6575f3660031901126101f657602060ff5f5460a01c166040519015158152f35b346101f6575f3660031901126101f65760206040516301e133808152f35b346101f65760203660031901126101f6576004356001600160a01b03811681036101f657610a01602091610ec9565b604051908152f35b346101f65760203660031901126101f6576004356001600160a01b038116908190036101f6575f5260096020526020600260405f2001544210604051908152f35b346101f65760203660031901126101f6576004356001600160a01b03811681036101f657610a01602091610e87565b346101f6575f3660031901126101f657610a91610f49565b5f5460ff8160a01c1615610ad65760ff60a01b19165f556040513381527f5db9ee0a495bf2e6ff9c91a7834c1ba4fdd244a5e8aa4e537bd38aeae4b073aa90602090a1005b638dfc202b60e01b5f5260045ffd5b346101f6575f3660031901126101f6576001546040516001600160a01b039091168152602090f35b346101f65760203660031901126101f6576004356001600160a01b038116908190036101f6575f52600a602052602060405f2054604051908152f35b346101f65760203660031901126101f657600435610b65610f6f565b610b6d610fa7565b335f52600960205260405f206004810190610b8b60ff835416610e1b565b82815410610c9457610b9c33610fc4565b5f90839060028101544210610c68575b9283610bbd86610bef959654610e7a565b908181556003670de0b6b3a7640000610bd860045485610e67565b0491015515610c5a575b5061079f84600254610e7a565b80610c385760405191825260208201527f7fc4727e062e336010f2c282598ef5f14facb3de68cf8195c2f23e1454b2b74e60403392a260015f51602061111d5f395f51905f5255005b6001545f54610c559183916001600160a01b039081169116611032565b6107d2565b805460ff1916905584610be2565b9050610bef9150612710610c7e60085486610e67565b0492610c8a8486610e7a565b9190939250610bac565b60405162461bcd60e51b815260206004820152601b60248201527f5374616b696e673a20696e73756666696369656e74207374616b6500000000006044820152606490fd5b346101f6575f3660031901126101f65760206040516103e88152f35b346101f65760203660031901126101f6576004356001600160a01b038116908190036101f6575f52600960205260a060405f20805490600181015490600281015460ff60046003840154930154169260405194855260208501526040840152606083015215156080820152f35b346101f6575f3660031901126101f6576020600854604051908152f35b346101f657610d8d36610e05565b90610d96610f49565b81811015610da657600655600755005b60405162461bcd60e51b815260206004820152601a60248201527f5374616b696e673a20696e76616c6964206475726174696f6e730000000000006044820152606490fd5b346101f6575f3660031901126101f6576020906003548152f35b60409060031901126101f6576004359060243590565b15610e2257565b60405162461bcd60e51b815260206004820152601860248201527f5374616b696e673a206e6f20616374697665207374616b6500000000000000006044820152606490fd5b8181029291811591840414171561092557565b9190820391821161092557565b6001600160a01b03165f9081526009602052604090206002015442811115610eb757610eb4904290610e7a565b90565b505f90565b9190820180921161092557565b6001600160a01b03165f818152600960205260409020600481015460ff16158015610f40575b610f305790610f1e826003670de0b6b3a7640000610f14610eb4965460045490610e67565b0491015490610e7a565b905f52600a60205260405f2054610ebc565b505f52600a60205260405f205490565b50805415610eef565b5f546001600160a01b03163303610f5c57565b63118cdaa760e01b5f523360045260245ffd5b60025f51602061111d5f395f51905f525414610f985760025f51602061111d5f395f51905f5255565b633ee5aeb560e01b5f5260045ffd5b60ff5f5460a01c16610fb557565b63d93c066560e01b5f5260045ffd5b6001600160a01b03165f818152600960205260409020600481015460ff1680611028575b610ff0575050565b806003670de0b6b3a7640000610f1461100d945460045490610e67565b905f52600a60205261102460405f20918254610ebc565b9055565b5080541515610fe8565b916040519163a9059cbb60e01b5f5260018060a01b031660045260245260205f60448180865af19060015f5114821615611092575b604052156110725750565b635274afe760e01b5f9081526001600160a01b0391909116600452602490fd5b9060018115166110aa57823b15153d15161690611067565b503d5f823e3d90fd5b6040516323b872dd60e01b5f9081526001600160a01b039384166004529290931660245260449390935260209060648180865af19060015f5114821615611104575b6040525f606052156110725750565b9060018115166110aa57823b15153d151616906110f556fe9b779b17422d0df92223018b32b4d1fa46e071723d6817e2486d003becc55f00a2646970667358221220b6eb468858b235e9734ab6ca6a19229feccfa551dd8f05de98fe9677ef40249f64736f6c634300081b0033",
  "linkReferences": {},
  "deployedLinkReferences": {}
}