{
  "_format": "hh-sol-artifact-1",
  "contractName": "Staking",
  "sourceName": "contracts/Staking.sol",
  "abi": [
    {
      "inputs": [
        {
          "internalType": "address",
          "name": "_chipToken",
          "type": "address"
        }
      ],
      "stateMutability": "nonpayable",
      "type": "constructor"
    },
    {
      "anonymous": false,
      "inputs": [
        {
          "indexed": false,
          "internalType": "uint256",
          "name": "newLargestStake",
          "type": "uint256"
        }
      ],
      "name": "LargestStakeUpdated",
      "type": "event"
    },
    {
      "anonymous": false,
      "inputs": [
        {
          "indexed": true,
          "internalType": "address",
          "name": "previousOwner",
          "type": "address"
        },
        {
          "indexed": true,
          "internalType": "address",
          "name": "newOwner",
          "type": "address"
        }
      ],
      "name": "OwnershipTransferred",
      "type": "event"
    },
    {
      "anonymous": false,
      "inputs": [
        {
          "indexed": false,
          "internalType": "address",
          "name": "account",
          "type": "address"
        }
      ],
      "name": "Paused",
      "type": "event"
    },
    {
      "anonymous": false,
      "inputs": [
        {
          "indexed": false,
          "internalType": "uint256",
          "name": "newPenalty",
          "type": "uint256"
        }
      ],
      "name": "PenaltyUpdated",
      "type": "event"
    },
    {
      "anonymous": false,
      "inputs": [
        {
          "indexed": false,
          "internalType": "uint256",
          "name": "amount",
          "type": "uint256"
        },
        {
          "indexed": false,
          "internalType": "uint256",
          "name": "totalPool",
          "type": "uint256"
        }
      ],
      "name": "RewardAdded",
      "type": "event"
    },
    {
      "anonymous": false,
      "inputs": [
        {
          "indexed": true,
          "internalType": "address",
          "name": "user",
          "type": "address"
        },
        {
          "indexed": false,
          "internalType": "uint256",
          "name": "amount",
          "type": "uint256"
        }
      ],
      "name": "RewardClaimed",
      "type": "event"
    },
    {
      "anonymous": false,
      "inputs": [
        {
          "indexed": true,
          "internalType": "address",
          "name": "user",
          "type": "address"
        },
        {
          "indexed": false,
          "internalType": "uint256",
          "name": "amount",
          "type": "uint256"
        },
        {
          "indexed": false,
          "internalType": "uint256",
          "name": "lockDuration",
          "type": "uint256"
        }
      ],
      "name": "Staked",
      "type": "event"
    },
    {
      "anonymous": false,
      "inputs": [
        {
          "indexed": false,
          "internalType": "address",
          "name": "account",
          "type": "address"
        }
      ],
      "name": "Unpaused",
      "type": "event"
    },
    {
      "anonymous": false,
      "inputs": [
        {
          "indexed": true,
          "internalType": "address",
          "name": "user",
          "type": "address"
        },
        {
          "indexed": false,
          "internalType": "uint256",
          "name": "amount",
          "type": "uint256"
        },
        {
          "indexed": false,
          "internalType": "uint256",
          "name": "penalty",
          "type": "uint256"
        }
      ],
      "name": "Unstaked",
      "type": "event"
    },
    {
      "stateMutability": "payable",
      "type": "fallback"
    },
    {
      "inputs": [],
      "name": "EARLY_UNSTAKE_PENALTY",
      "outputs": [
        {
          "internalType": "uint256",
          "name": "",
          "type": "uint256"
        }
      ],
      "stateMutability": "view",
      "type": "function"
    },
    {
      "inputs": [],
      "name": "MAX_DAILY_REWARD",
      "outputs": [
        {
          "internalType": "uint256",
          "name": "",
          "type": "uint256"
        }
      ],
      "stateMutability": "view",
      "type": "function"
    },
    {
      "inputs": [],
      "name": "MAX_LOCK_DURATION",
      "outputs": [
        {
          "internalType": "uint256",
          "name": "",
          "type": "uint256"
        }
      ],
      "stateMutability": "view",
      "type": "function"
    },
    {
      "inputs": [],
      "name": "MIN_DAILY_REWARD",
      "outputs": [
        {
          "internalType": "uint256",
          "name": "",
          "type": "uint256"
        }
      ],
      "stateMutability": "view",
      "type": "function"
    },
    {
      "inputs": [],
      "name": "MIN_LOCK_DURATION",
      "outputs": [
        {
          "internalType": "uint256",
          "name": "",
          "type": "uint256"
        }
      ],
      "stateMutability": "view",
      "type": "function"
    },
    {
      "inputs": [],
      "name": "MIN_STAKE",
      "outputs": [
        {
          "internalType": "uint256",
          "name": "",
          "type": "uint256"
        }
      ],
      "stateMutability": "view",
      "type": "function"
    },
    {
      "inputs": [],
      "name": "REWARD_DENOMINATOR",
      "outputs": [
        {
          "internalType": "uint256",
          "name": "",
          "type": "uint256"
        }
      ],
      "stateMutability": "view",
      "type": "function"
    },
    {
      "inputs": [
        {
          "internalType": "uint256",
          "name": "amount",
          "type": "uint256"
        }
      ],
      "name": "addReward",
      "outputs": [],
      "stateMutability": "nonpayable",
      "type": "function"
    },
    {
      "inputs": [],
      "name": "chipToken",
      "outputs": [
        {
          "internalType": "contract IERC20",
          "name": "",
          "type": "address"
        }
      ],
      "stateMutability": "view",
      "type": "function"
    },
    {
      "inputs": [],
      "name": "claimReward",
      "outputs": [],
      "stateMutability": "nonpayable",
      "type": "function"
    },
    {
      "inputs": [],
      "name": "earlyUnstakePenalty",
      "outputs": [
        {
          "internalType": "uint256",
          "name": "",
          "type": "uint256"
        }
      ],
      "stateMutability": "view",
      "type": "function"
    },
    {
      "inputs": [],
      "name": "emergencyUnstake",
      "outputs": [],
      "stateMutability": "nonpayable",
      "type": "function"
    },
    {
      "inputs": [
        {
          "internalType": "address",
          "name": "user",
          "type": "address"
        }
      ],
      "name": "getPendingReward",
      "outputs": [
        {
          "internalType": "uint256",
          "name": "",
          "type": "uint256"
        }
      ],
      "stateMutability": "view",
      "type": "function"
    },
    {
      "inputs": [
        {
          "internalType": "address",
          "name": "user",
          "type": "address"
        }
      ],
      "name": "getRemainingLockTime",
      "outputs": [
        {
          "internalType": "uint256",
          "name": "",
          "type": "uint256"
        }
      ],
      "stateMutability": "view",
      "type": "function"
    },
    {
      "inputs": [
        {
          "internalType": "address",
          "name": "user",
          "type": "address"
        }
      ],
      "name": "getStakeInfo",
      "outputs": [
        {
          "internalType": "uint256",
          "name": "amount",
          "type": "uint256"
        },
        {
          "internalType": "uint256",
          "name": "startTime",
          "type": "uint256"
        },
        {
          "internalType": "uint256",
          "name": "lockedUntil",
          "type": "uint256"
        },
        {
          "internalType": "bool",
          "name": "isLocked",
          "type": "bool"
        },
        {
          "internalType": "bool",
          "name": "isActive",
          "type": "bool"
        }
      ],
      "stateMutability": "view",
      "type": "function"
    },
    {
      "inputs": [
        {
          "internalType": "uint256",
          "name": "index",
          "type": "uint256"
        }
      ],
      "name": "getStaker",
      "outputs": [
        {
          "internalType": "address",
          "name": "",
          "type": "address"
        }
      ],
      "stateMutability": "view",
      "type": "function"
    },
    {
      "inputs": [],
      "name": "getStakersCount",
      "outputs": [
        {
          "internalType": "uint256",
          "name": "",
          "type": "uint256"
        }
      ],
      "stateMutability": "view",
      "type": "function"
    },
    {
      "inputs": [
        {
          "internalType": "address",
          "name": "user",
          "type": "address"
        }
      ],
      "name": "isLocked",
      "outputs": [
        {
          "internalType": "bool",
          "name": "",
          "type": "bool"
        }
      ],
      "stateMutability": "view",
      "type": "function"
    },
    {
      "inputs": [],
      "name": "largestStake",
      "outputs": [
        {
          "internalType": "uint256",
          "name": "",
          "type": "uint256"
        }
      ],
      "stateMutability": "view",
      "type": "function"
    },
    {
      "inputs": [],
      "name": "maxLockDuration",
      "outputs": [
        {
          "internalType": "uint256",
          "name": "",
          "type": "uint256"
        }
      ],
      "stateMutability": "view",
      "type": "function"
    },
    {
      "inputs": [],
      "name": "minLockDuration",
      "outputs": [
        {
          "internalType": "uint256",
          "name": "",
          "type": "uint256"
        }
      ],
      "stateMutability": "view",
      "type": "function"
    },
    {
      "inputs": [],
      "name": "owner",
      "outputs": [
        {
          "internalType": "address",
          "name": "",
          "type": "address"
        }
      ],
      "stateMutability": "view",
      "type": "function"
    },
    {
      "inputs": [],
      "name": "pause",
      "outputs": [],
      "stateMutability": "nonpayable",
      "type": "function"
    },
    {
      "inputs": [],
      "name": "paused",
      "outputs": [
        {
          "internalType": "bool",
          "name": "",
          "type": "bool"
        }
      ],
      "stateMutability": "view",
      "type": "function"
    },
    {
      "inputs": [],
      "name": "renounceOwnership",
      "outputs": [],
      "stateMutability": "nonpayable",
      "type": "function"
    },
    {
      "inputs": [
        {
          "internalType": "uint256",
          "name": "_penalty",
          "type": "uint256"
        }
      ],
      "name": "setEarlyUnstakePenalty",
      "outputs": [],
      "stateMutability": "nonpayable",
      "type": "function"
    },
    {
      "inputs": [
        {
          "internalType": "uint256",
          "name": "_minDuration",
          "type": "uint256"
        },
        {
          "internalType": "uint256",
          "name": "_maxDuration",
          "type": "uint256"
        }
      ],
      "name": "setLockDuration",
      "outputs": [],
      "stateMutability": "nonpayable",
      "type": "function"
    },
    {
      "inputs": [
        {
          "internalType": "uint256",
          "name": "amount",
          "type": "uint256"
        },
        {
          "internalType": "uint256",
          "name": "lockDuration",
          "type": "uint256"
        }
      ],
      "name": "stake",
      "outputs": [],
      "stateMutability": "nonpayable",
      "type": "function"
    },
    {
      "inputs": [
        {
          "internalType": "address",
          "name": "",
          "type": "address"
        }
      ],
      "name": "stakerIndex",
      "outputs": [
        {
          "internalType": "uint256",
          "name": "",
          "type": "uint256"
        }
      ],
      "stateMutability": "view",
      "type": "function"
    },
    {
      "inputs": [
        {
          "internalType": "uint256",
          "name": "",
          "type": "uint256"
        }
      ],
      "name": "stakers",
      "outputs": [
        {
          "internalType": "address",
          "name": "",
          "type": "address"
        }
      ],
      "stateMutability": "view",
      "type": "function"
    },
    {
      "inputs": [
        {
          "internalType": "address",
          "name": "",
          "type": "address"
        }
      ],
      "name": "stakes",
      "outputs": [
        {
          "internalType": "uint256",
          "name": "amount",
          "type": "uint256"
        },
        {
          "internalType": "uint256",
          "name": "startTime",
          "type": "uint256"
        },
        {
          "internalType": "uint256",
          "name": "lockedUntil",
          "type": "uint256"
        },
        {
          "internalType": "uint256",
          "name": "lastClaimTime",
          "type": "uint256"
        },
        {
          "internalType": "bool",
          "name": "isActive",
          "type": "bool"
        }
      ],
      "stateMutability": "view",
      "type": "function"
    },
    {
      "inputs": [],
      "name": "totalRewardPool",
      "outputs": [
        {
          "internalType": "uint256",
          "name": "",
          "type": "uint256"
        }
      ],
      "stateMutability": "view",
      "type": "function"
    },
    {
      "inputs": [],
      "name": "totalRewardsClaimed",
      "outputs": [
        {
          "internalType": "uint256",
          "name": "",
          "type": "uint256"
        }
      ],
      "stateMutability": "view",
      "type": "function"
    },
    {
      "inputs": [],
      "name": "totalStaked",
      "outputs": [
        {
          "internalType": "uint256",
          "name": "",
          "type": "uint256"
        }
      ],
      "stateMutability": "view",
      "type": "function"
    },
    {
      "inputs": [
        {
          "internalType": "address",
          "name": "",
          "type": "address"
        }
      ],
      "name": "totalUserRewardsClaimed",
      "outputs": [
        {
          "internalType": "uint256",
          "name": "",
          "type": "uint256"
        }
      ],
      "stateMutability": "view",
      "type": "function"
    },
    {
      "inputs": [
        {
          "internalType": "address",
          "name": "newOwner",
          "type": "address"
        }
      ],
      "name": "transferOwnership",
      "outputs": [],
      "stateMutability": "nonpayable",
      "type": "function"
    },
    {
      "inputs": [],
      "name": "unpause",
      "outputs": [],
      "stateMutability": "nonpayable",
      "type": "function"
    },
    {
      "inputs": [
        {
          "internalType": "uint256",
          "name": "amount",
          "type": "uint256"
        }
      ],
      "name": "unstake",
      "outputs": [],
      "stateMutability": "nonpayable",
      "type": "function"
    },
    {
      "stateMutability": "payable",
      "type": "receive"
    }
  ],
  "bytecode": "0x60803461012357601f611ae238819003918201601f19168301916001600160401b038311848410176101275780849260209460405283398101031261012357516001600160a01b03811690819003610123575f80546040519133906001600160a01b038316907f8be0079c531659141344cd1fd0a4f28419497f9722a3daafe3b4186f6b6457e09080a36001600160a81b0319163360ff60a01b1916175f556001805562278d006006556301e133806007556103e860085581156100e15750600280546001600160a01b0319169190911790556040516119a6908161013c8239f35b62461bcd60e51b815260206004820152601660248201527f5374616b696e673a20696e76616c696420746f6b656e000000000000000000006044820152606490fd5b5f80fd5b634e487b7160e01b5f52604160045260245ffdfe608080604052600436101561001057005b5f3560e01c90816309c85e241461125b57508063126796dd146111ef5780631367eaf2146111d257806316934fc4146111655780631f4531f5146111495780632e17de7814610f995780633b61403c14610f715780633f4ba83a14610ed85780634730449414610ea95780634828478914610e8c5780634a4fbeec14610e4b5780634c8cab7914610e2e5780634df9d6ba14610df75780634f1bfc9e14610dd95780635c975abb14610db55780635eeea32014610d79578063715018a614610d2257806374de4ec414610ca75780637589cf2f14610bbe57806378b4330f14610ba157806378d60a5b14610b655780637b0472f0146108df578063817b1cd2146108c2578063819a9398146108a75780638456cb59146108475780638da5cb5b146108205780638e1eb32414610785578063a16cdbb114610768578063a34b0f761461074b578063b88a802f14610419578063be8c78dd146103fc578063c345315314610391578063c3bd8d0314610373578063cb1c2b5c14610355578063d6a298e914610338578063e3c998fe146102ca578063f2fde38b146102005763fd5e6dd1146101ba57005b346101fc5760203660031901126101fc57600435600a548110156101fc576101e360209161128b565b905460405160039290921b1c6001600160a01b03168152f35b5f80fd5b346101fc5760203660031901126101fc576004356001600160a01b038116908190036101fc5761022e611494565b8015610276575f80546001600160a01b03198116831782556001600160a01b0316907f8be0079c531659141344cd1fd0a4f28419497f9722a3daafe3b4186f6b6457e09080a3005b60405162461bcd60e51b815260206004820152602660248201527f4f776e61626c653a206e6577206f776e657220697320746865207a65726f206160448201526564647265737360d01b6064820152608490fd5b346101fc5760203660031901126101fc57600435600a548110156102f3576101e360209161128b565b60405162461bcd60e51b815260206004820152601c60248201527f5374616b696e673a20696e646578206f7574206f6620626f756e6473000000006044820152606490fd5b346101fc575f3660031901126101fc576020600654604051908152f35b346101fc575f3660031901126101fc5760206040516305f5e1008152f35b346101fc575f3660031901126101fc576020604051633b9aca008152f35b346101fc5760203660031901126101fc576004356001600160a01b038116908190036101fc575f52600c60205260a060405f2080549060018101549060ff60046002830154920154169160405193845260208401528060408401524210606083015215156080820152f35b346101fc575f3660031901126101fc576020604051620f42408152f35b346101fc575f3660031901126101fc576104316114eb565b610439611541565b335f52600c60205260405f2061045560ff6004830154166112b7565b80548015610706576003549182156106c15761048d600361048892019261047d845442611334565b928391600954611303565b611303565b601e8402848104601e036106ad5762278d008502908082046201518014901517156106ad576104bb91611316565b81620f424002620f4240810483036106ad576201518090049180633b9aca000290633b9aca008204036106ad5762015180900482821015610693575050915b821561064e576002546040516370a0823160e01b81523060048201529190602090839060249082906001600160a01b03165afa8015610643575f9061060f575b6105449250611334565b82116105c05742905561055981600554611465565b600555335f52600d60205260405f20610573828254611465565b905560025461058e90829033906001600160a01b031661170c565b6040519081527f106f923f993c2149d49b4255ff723acafa1f2d94393f561d3eda32ae348f724160203392a260018055005b60405162461bcd60e51b815260206004820152602160248201527f5374616b696e673a20696e73756666696369656e742072657761726420706f6f6044820152601b60fa1b6064820152608490fd5b506020823d60201161063b575b8161062960209383611472565b810103126101fc57610544915161053a565b3d915061061c565b6040513d5f823e3d90fd5b60405162461bcd60e51b815260206004820152601c60248201527f5374616b696e673a206e6f207265776172647320746f20636c61696d000000006044820152606490fd5b818192959350116106a5575b506104fa565b92508361069f565b634e487b7160e01b5f52601160045260245ffd5b60405162461bcd60e51b815260206004820152601860248201527f5374616b696e673a206e6f20746f74616c207374616b656400000000000000006044820152606490fd5b60405162461bcd60e51b815260206004820152601860248201527f5374616b696e673a206e6f207374616b6520616d6f756e7400000000000000006044820152606490fd5b346101fc575f3660031901126101fc576020600554604051908152f35b346101fc575f3660031901126101fc576020600754604051908152f35b346101fc5760203660031901126101fc576004356107a1611494565b610bb881116107db576020817fc831f5abc7bc27c011edea988b6e4e573af053efa7cfa703a1878827ec6acc1092600855604051908152a1005b60405162461bcd60e51b815260206004820152601960248201527f5374616b696e673a2070656e616c747920746f6f2068696768000000000000006044820152606490fd5b346101fc575f3660031901126101fc575f546040516001600160a01b039091168152602090f35b346101fc575f3660031901126101fc5761085f611494565b610867611541565b5f805460ff60a01b1916600160a01b1790556040513381527f62e78cea01bee320cd4e420270b5ea74000d11b0c9f74754ebdbfc544b05a25890602090a1005b346101fc575f3660031901126101fc576020604051601e8152f35b346101fc575f3660031901126101fc576020600354604051908152f35b346101fc576108ed36611275565b6108f56114eb565b6108fd611541565b6305f5e1008210610b20576006548110610adb576007548111610a9d57600254610935908390309033906001600160a01b031661174e565b335f52600c60205260405f2060048101805460ff81165f146109f757505061095e838254611465565b815561096a8242611465565b60028201555b61097c83600354611465565b6003555460095481116109c2575b5060405191825260208201527f1449c6dd7851abc30abf37f57715f492010519147cc2652fbc38202c18a6ee9060403392a260018055005b6020817f7c9f281f7037e20aaa7dc76eb2b3d9eae3449ef72c7fde39d0cbbc53cbb2a0a592600955604051908152a18261098a565b6001908584554282850155610a0c8542611465565b600285015542600385015560ff1916179055335f52600b60205260405f205461097057600a5468010000000000000000811015610a8957610a56816001610a749301600a5561128b565b81546001600160a01b0360039290921b91821b19163390911b179055565b600a54335f52600b60205260405f2055610970565b634e487b7160e01b5f52604160045260245ffd5b60405162461bcd60e51b81526020600482015260166024820152755374616b696e673a206c6f636b20746f6f206c6f6e6760501b6044820152606490fd5b60405162461bcd60e51b815260206004820152601760248201527f5374616b696e673a206c6f636b20746f6f2073686f72740000000000000000006044820152606490fd5b60405162461bcd60e51b815260206004820152601c60248201527f5374616b696e673a2062656c6f77206d696e696d756d207374616b65000000006044820152606490fd5b346101fc5760203660031901126101fc576004356001600160a01b038116908190036101fc575f52600b602052602060405f2054604051908152f35b346101fc575f3660031901126101fc57602060405162278d008152f35b346101fc575f3660031901126101fc57610bd66114eb565b335f52600c60205260405f206004810190610c53825491610bf960ff84166112b7565b805493612710610c0b60085487611303565b04935f610c188688611334565b935560ff19169055610c2c84600354611334565b600355610c3833611587565b610c40611678565b60025433906001600160a01b031661170c565b6002545f54610c709183916001600160a01b03908116911661170c565b60405191825260208201527f7fc4727e062e336010f2c282598ef5f14facb3de68cf8195c2f23e1454b2b74e60403392a260018055005b346101fc5760203660031901126101fc577f6c07ee05dcf262f13abf9d87b846ee789d2f90fe991d495acd7d7fc109ee1f556040600435610ce66114eb565b600254610d01908290309033906001600160a01b031661174e565b610d0d81600454611465565b8060045582519182526020820152a160018055005b346101fc575f3660031901126101fc57610d3a611494565b5f80546001600160a01b0319811682556001600160a01b03167f8be0079c531659141344cd1fd0a4f28419497f9722a3daafe3b4186f6b6457e08280a3005b346101fc5760203660031901126101fc576004356001600160a01b038116908190036101fc575f52600d602052602060405f2054604051908152f35b346101fc575f3660031901126101fc57602060ff5f5460a01c166040519015158152f35b346101fc575f3660031901126101fc5760206040516301e133808152f35b346101fc5760203660031901126101fc576004356001600160a01b03811681036101fc57610e26602091611376565b604051908152f35b346101fc575f3660031901126101fc576020600954604051908152f35b346101fc5760203660031901126101fc576004356001600160a01b038116908190036101fc575f52600c6020526020600260405f2001544210604051908152f35b346101fc575f3660031901126101fc576020600a54604051908152f35b346101fc5760203660031901126101fc576004356001600160a01b03811681036101fc57610e26602091611341565b346101fc575f3660031901126101fc57610ef0611494565b5f5460ff8160a01c1615610f355760ff60a01b19165f556040513381527f5db9ee0a495bf2e6ff9c91a7834c1ba4fdd244a5e8aa4e537bd38aeae4b073aa90602090a1005b60405162461bcd60e51b815260206004820152601460248201527314185d5cd8589b194e881b9bdd081c185d5cd95960621b6044820152606490fd5b346101fc575f3660031901126101fc576002546040516001600160a01b039091168152602090f35b346101fc5760203660031901126101fc57600435610fb56114eb565b610fbd611541565b335f52600c60205260405f2060048101805491610fdc60ff84166112b7565b805490848210611104575f92858093600284015442106110d1575b61104795969161100691611334565b808455156110bb575b505061101d85600354611334565b600355546009548091109081156110b2575b506110a55760025433906001600160a01b031661170c565b806110835760405191825260208201527f7fc4727e062e336010f2c282598ef5f14facb3de68cf8195c2f23e1454b2b74e60403392a260018055005b6002545f546110a09183916001600160a01b03908116911661170c565b610c70565b6110ad611678565b610c40565b9050158561102f565b60ff191690556110ca33611587565b858061100f565b93505061104793506127106110e860085488611303565b0494611006876110f88882611334565b95915091969550610ff7565b60405162461bcd60e51b815260206004820152601b60248201527f5374616b696e673a20696e73756666696369656e74207374616b6500000000006044820152606490fd5b346101fc575f3660031901126101fc5760206040516103e88152f35b346101fc5760203660031901126101fc576004356001600160a01b038116908190036101fc575f52600c60205260a060405f20805490600181015490600281015460ff60046003840154930154169260405194855260208501526040840152606083015215156080820152f35b346101fc575f3660031901126101fc576020600854604051908152f35b346101fc576111fd36611275565b90611206611494565b8181101561121657600655600755005b60405162461bcd60e51b815260206004820152601a60248201527f5374616b696e673a20696e76616c6964206475726174696f6e730000000000006044820152606490fd5b346101fc575f3660031901126101fc576020906004548152f35b60409060031901126101fc576004359060243590565b600a548110156112a357600a5f5260205f2001905f90565b634e487b7160e01b5f52603260045260245ffd5b156112be57565b60405162461bcd60e51b815260206004820152601860248201527f5374616b696e673a206e6f20616374697665207374616b6500000000000000006044820152606490fd5b818102929181159184041417156106ad57565b8115611320570490565b634e487b7160e01b5f52601260045260245ffd5b919082039182116106ad57565b6001600160a01b03165f908152600c6020526040902060020154428111156113715761136e904290611334565b90565b505f90565b6001600160a01b03165f908152600c60205260409020600481015460ff1615801561145c575b8015611452575b611371576113ca816113bc600361048894015442611334565b928391600954905490611303565b600354601e810290808204601e14811517156106ad5762278d0002908082046201518014901517156106ad576113ff91611316565b81620f424002620f4240810483036106ad576201518090049180633b9aca000290633b9aca008204036106ad576201518090048282101561143f57505090565b81819293501161144d575090565b905090565b50600354156113a3565b5080541561139c565b919082018092116106ad57565b90601f8019910116810190811067ffffffffffffffff821117610a8957604052565b5f546001600160a01b031633036114a757565b606460405162461bcd60e51b815260206004820152602060248201527f4f776e61626c653a2063616c6c6572206973206e6f7420746865206f776e65726044820152fd5b6002600154146114fc576002600155565b60405162461bcd60e51b815260206004820152601f60248201527f5265656e7472616e637947756172643a207265656e7472616e742063616c6c006044820152606490fd5b60ff5f5460a01c1661154f57565b60405162461bcd60e51b815260206004820152601060248201526f14185d5cd8589b194e881c185d5cd95960821b6044820152606490fd5b6001600160a01b03165f818152600b6020526040902054801561167457600a548082036115ff575b5050600a5480156115eb575f19016115c68161128b565b81549060018060a01b039060031b1b19169055600a555f52600b6020525f6040812055565b634e487b7160e01b5f52603160045260245ffd5b5f1981019081116106ad576116139061128b565b905460039190911b1c6001600160a01b03165f1982018281116106ad578161163d6116619261128b565b81546001600160a01b0393841660039290921b91821b9390911b1916919091179055565b5f52600b60205260405f20555f806115af565b5050565b5f5f600a54905b8181106116b95750506020817f7c9f281f7037e20aaa7dc76eb2b3d9eae3449ef72c7fde39d0cbbc53cbb2a0a592600955604051908152a1565b6116c28161128b565b60018060a01b0391549060031b1c165f52600c60205260405f2060ff60048201541680611702575b6116f8575b5060010161167f565b54925060016116ef565b50838154116116ea565b60405163a9059cbb60e01b60208201526001600160a01b03909216602483015260448083019390935291815261174c91611747606483611472565b611792565b565b6040516323b872dd60e01b60208201526001600160a01b03928316602482015292909116604483015260648083019390935291815261174c91611747608483611472565b60018060a01b0316905f80604051926117ac604085611472565b602084527f5361666545524332303a206c6f772d6c6576656c2063616c6c206661696c6564602085015260208151910182865af13d156118b3573d9067ffffffffffffffff8211610a8957604051611822949092611814601f8201601f191660200185611472565b83523d5f602085013e6118bc565b8051908115918215611890575b50501561183857565b60405162461bcd60e51b815260206004820152602a60248201527f5361666545524332303a204552433230206f7065726174696f6e20646964206e6044820152691bdd081cdd58d8d9595960b21b6064820152608490fd5b81925090602091810103126101fc576020015180151581036101fc575f8061182f565b91611822926060915b9192901561191e57508151156118d0575090565b3b156118d95790565b60405162461bcd60e51b815260206004820152601d60248201527f416464726573733a2063616c6c20746f206e6f6e2d636f6e74726163740000006044820152606490fd5b8251909150156119315750805190602001fd5b604460209160405192839162461bcd60e51b83528160048401528051918291826024860152018484015e5f828201840152601f01601f19168101030190fdfea264697066735822122026274fa8a5f7dcbfbe422c6f085f9a3b039e99776f2c2adc2b483d754a32049a64736f6c634300081b0033",
  "linkReferences": {},
  "deployedLinkReferences": {}
}