{
  "_format": "hh-sol-artifact-1",
  "contractName": "PokerGame0G",
  "sourceName": "contracts/0g/PokerGame0G.sol",
  "abi": [
    {
      "inputs": [
        {
          "internalType": "address",
          "name": "_feeRecipient",
          "type": "address"
        }
      ],
      "stateMutability": "nonpayable",
      "type": "constructor"
    },
    {
      "anonymous": false,
      "inputs": [
        {
          "indexed": true,
          "internalType": "address",
          "name": "player",
          "type": "address"
        },
        {
          "indexed": true,
          "internalType": "address",
          "name": "delegate",
          "type": "address"
        }
      ],
      "name": "DelegateAuthorized",
      "type": "event"
    },
    {
      "anonymous": false,
      "inputs": [
        {
          "indexed": true,
          "internalType": "address",
          "name": "player",
          "type": "address"
        }
      ],
      "name": "DelegateRevoked",
      "type": "event"
    },
    {
      "anonymous": false,
      "inputs": [
        {
          "indexed": true,
          "internalType": "address",
          "name": "player",
          "type": "address"
        },
        {
          "indexed": false,
          "internalType": "uint256",
          "name": "amount",
          "type": "uint256"
        }
      ],
      "name": "Deposited",
      "type": "event"
    },
    {
      "anonymous": false,
      "inputs": [
        {
          "indexed": true,
          "internalType": "address",
          "name": "player",
          "type": "address"
        },
        {
          "indexed": false,
          "internalType": "uint256",
          "name": "amount",
          "type": "uint256"
        }
      ],
      "name": "ForceUnlocked",
      "type": "event"
    },
    {
      "anonymous": false,
      "inputs": [
        {
          "indexed": true,
          "internalType": "address",
          "name": "player",
          "type": "address"
        },
        {
          "indexed": true,
          "internalType": "uint256",
          "name": "tableId",
          "type": "uint256"
        },
        {
          "indexed": false,
          "internalType": "uint256",
          "name": "buyIn",
          "type": "uint256"
        },
        {
          "indexed": true,
          "internalType": "address",
          "name": "operator",
          "type": "address"
        }
      ],
      "name": "JoinedTableFor",
      "type": "event"
    },
    {
      "anonymous": false,
      "inputs": [
        {
          "indexed": true,
          "internalType": "address",
          "name": "player",
          "type": "address"
        },
        {
          "indexed": true,
          "internalType": "uint256",
          "name": "tableId",
          "type": "uint256"
        },
        {
          "indexed": false,
          "internalType": "uint256",
          "name": "finalStack",
          "type": "uint256"
        },
        {
          "indexed": true,
          "internalType": "address",
          "name": "operator",
          "type": "address"
        }
      ],
      "name": "LeftTableFor",
      "type": "event"
    },
    {
      "anonymous": false,
      "inputs": [
        {
          "indexed": true,
          "internalType": "address",
          "name": "oldOperator",
          "type": "address"
        },
        {
          "indexed": true,
          "internalType": "address",
          "name": "newOperator",
          "type": "address"
        }
      ],
      "name": "OperatorChanged",
      "type": "event"
    },
    {
      "anonymous": false,
      "inputs": [
        {
          "indexed": true,
          "internalType": "address",
          "name": "player",
          "type": "address"
        },
        {
          "indexed": false,
          "internalType": "uint256",
          "name": "finalStack",
          "type": "uint256"
        }
      ],
      "name": "PlayerLeftTable",
      "type": "event"
    },
    {
      "anonymous": false,
      "inputs": [
        {
          "indexed": true,
          "internalType": "uint256",
          "name": "tableId",
          "type": "uint256"
        },
        {
          "indexed": true,
          "internalType": "address",
          "name": "player",
          "type": "address"
        },
        {
          "indexed": false,
          "internalType": "uint256",
          "name": "rakeAmount",
          "type": "uint256"
        }
      ],
      "name": "RakeCollected",
      "type": "event"
    },
    {
      "anonymous": false,
      "inputs": [
        {
          "indexed": true,
          "internalType": "bytes32",
          "name": "role",
          "type": "bytes32"
        },
        {
          "indexed": true,
          "internalType": "bytes32",
          "name": "previousAdminRole",
          "type": "bytes32"
        },
        {
          "indexed": true,
          "internalType": "bytes32",
          "name": "newAdminRole",
          "type": "bytes32"
        }
      ],
      "name": "RoleAdminChanged",
      "type": "event"
    },
    {
      "anonymous": false,
      "inputs": [
        {
          "indexed": true,
          "internalType": "bytes32",
          "name": "role",
          "type": "bytes32"
        },
        {
          "indexed": true,
          "internalType": "address",
          "name": "account",
          "type": "address"
        },
        {
          "indexed": true,
          "internalType": "address",
          "name": "sender",
          "type": "address"
        }
      ],
      "name": "RoleGranted",
      "type": "event"
    },
    {
      "anonymous": false,
      "inputs": [
        {
          "indexed": true,
          "internalType": "bytes32",
          "name": "role",
          "type": "bytes32"
        },
        {
          "indexed": true,
          "internalType": "address",
          "name": "account",
          "type": "address"
        },
        {
          "indexed": true,
          "internalType": "address",
          "name": "sender",
          "type": "address"
        }
      ],
      "name": "RoleRevoked",
      "type": "event"
    },
    {
      "anonymous": false,
      "inputs": [
        {
          "indexed": true,
          "internalType": "uint256",
          "name": "handId",
          "type": "uint256"
        },
        {
          "indexed": false,
          "internalType": "address[]",
          "name": "winners",
          "type": "address[]"
        },
        {
          "indexed": false,
          "internalType": "uint256[]",
          "name": "amounts",
          "type": "uint256[]"
        },
        {
          "indexed": false,
          "internalType": "uint256",
          "name": "totalPot",
          "type": "uint256"
        },
        {
          "indexed": false,
          "internalType": "uint256",
          "name": "rake",
          "type": "uint256"
        },
        {
          "indexed": false,
          "internalType": "bytes32",
          "name": "stateHash",
          "type": "bytes32"
        }
      ],
      "name": "Settled",
      "type": "event"
    },
    {
      "anonymous": false,
      "inputs": [
        {
          "indexed": true,
          "internalType": "uint256",
          "name": "tournamentId",
          "type": "uint256"
        },
        {
          "indexed": false,
          "internalType": "address[]",
          "name": "players",
          "type": "address[]"
        },
        {
          "indexed": false,
          "internalType": "uint256[]",
          "name": "payouts",
          "type": "uint256[]"
        },
        {
          "indexed": false,
          "internalType": "uint256",
          "name": "rake",
          "type": "uint256"
        },
        {
          "indexed": false,
          "internalType": "bytes32",
          "name": "stateHash",
          "type": "bytes32"
        }
      ],
      "name": "TournamentSettled",
      "type": "event"
    },
    {
      "anonymous": false,
      "inputs": [
        {
          "indexed": true,
          "internalType": "address",
          "name": "player",
          "type": "address"
        },
        {
          "indexed": false,
          "internalType": "uint256",
          "name": "amount",
          "type": "uint256"
        }
      ],
      "name": "Withdrawn",
      "type": "event"
    },
    {
      "inputs": [],
      "name": "DEFAULT_ADMIN_ROLE",
      "outputs": [
        {
          "internalType": "bytes32",
          "name": "",
          "type": "bytes32"
        }
      ],
      "stateMutability": "view",
      "type": "function"
    },
    {
      "inputs": [],
      "name": "MINTER_ROLE",
      "outputs": [
        {
          "internalType": "bytes32",
          "name": "",
          "type": "bytes32"
        }
      ],
      "stateMutability": "view",
      "type": "function"
    },
    {
      "inputs": [],
      "name": "OPERATOR_ROLE",
      "outputs": [
        {
          "internalType": "bytes32",
          "name": "",
          "type": "bytes32"
        }
      ],
      "stateMutability": "view",
      "type": "function"
    },
    {
      "inputs": [
        {
          "internalType": "address",
          "name": "delegate",
          "type": "address"
        }
      ],
      "name": "authorizeDelegate",
      "outputs": [],
      "stateMutability": "nonpayable",
      "type": "function"
    },
    {
      "inputs": [
        {
          "internalType": "address",
          "name": "",
          "type": "address"
        }
      ],
      "name": "custodyBalance",
      "outputs": [
        {
          "internalType": "uint256",
          "name": "",
          "type": "uint256"
        }
      ],
      "stateMutability": "view",
      "type": "function"
    },
    {
      "inputs": [
        {
          "internalType": "address",
          "name": "",
          "type": "address"
        }
      ],
      "name": "delegates",
      "outputs": [
        {
          "internalType": "address",
          "name": "",
          "type": "address"
        }
      ],
      "stateMutability": "view",
      "type": "function"
    },
    {
      "inputs": [],
      "name": "deposit",
      "outputs": [],
      "stateMutability": "payable",
      "type": "function"
    },
    {
      "inputs": [
        {
          "internalType": "contract IERC20",
          "name": "token",
          "type": "address"
        },
        {
          "internalType": "uint256",
          "name": "amount",
          "type": "uint256"
        }
      ],
      "name": "depositToken",
      "outputs": [],
      "stateMutability": "nonpayable",
      "type": "function"
    },
    {
      "inputs": [
        {
          "internalType": "address",
          "name": "player",
          "type": "address"
        },
        {
          "internalType": "uint256",
          "name": "amount",
          "type": "uint256"
        }
      ],
      "name": "executeDepositFor",
      "outputs": [],
      "stateMutability": "payable",
      "type": "function"
    },
    {
      "inputs": [],
      "name": "feeRecipient",
      "outputs": [
        {
          "internalType": "address",
          "name": "",
          "type": "address"
        }
      ],
      "stateMutability": "view",
      "type": "function"
    },
    {
      "inputs": [
        {
          "internalType": "address",
          "name": "player",
          "type": "address"
        }
      ],
      "name": "forceUnlockPlayer",
      "outputs": [],
      "stateMutability": "nonpayable",
      "type": "function"
    },
    {
      "inputs": [
        {
          "internalType": "address",
          "name": "player",
          "type": "address"
        }
      ],
      "name": "getCustodyBalance",
      "outputs": [
        {
          "internalType": "uint256",
          "name": "",
          "type": "uint256"
        }
      ],
      "stateMutability": "view",
      "type": "function"
    },
    {
      "inputs": [
        {
          "internalType": "uint256",
          "name": "handId",
          "type": "uint256"
        }
      ],
      "name": "getHandStateHash",
      "outputs": [
        {
          "internalType": "bytes32",
          "name": "",
          "type": "bytes32"
        }
      ],
      "stateMutability": "view",
      "type": "function"
    },
    {
      "inputs": [
        {
          "internalType": "address",
          "name": "player",
          "type": "address"
        }
      ],
      "name": "getLockedBalance",
      "outputs": [
        {
          "internalType": "uint256",
          "name": "",
          "type": "uint256"
        }
      ],
      "stateMutability": "view",
      "type": "function"
    },
    {
      "inputs": [
        {
          "internalType": "address",
          "name": "player",
          "type": "address"
        }
      ],
      "name": "getPlayerInfo",
      "outputs": [
        {
          "internalType": "uint256",
          "name": "balance",
          "type": "uint256"
        },
        {
          "internalType": "uint256",
          "name": "lockedAmount",
          "type": "uint256"
        },
        {
          "internalType": "bool",
          "name": "isRegistered",
          "type": "bool"
        }
      ],
      "stateMutability": "view",
      "type": "function"
    },
    {
      "inputs": [
        {
          "internalType": "bytes32",
          "name": "role",
          "type": "bytes32"
        }
      ],
      "name": "getRoleAdmin",
      "outputs": [
        {
          "internalType": "bytes32",
          "name": "",
          "type": "bytes32"
        }
      ],
      "stateMutability": "view",
      "type": "function"
    },
    {
      "inputs": [
        {
          "internalType": "uint256",
          "name": "tableId",
          "type": "uint256"
        },
        {
          "internalType": "address",
          "name": "player",
          "type": "address"
        }
      ],
      "name": "getTableSession",
      "outputs": [
        {
          "internalType": "uint256",
          "name": "buyIn",
          "type": "uint256"
        },
        {
          "internalType": "bool",
          "name": "active",
          "type": "bool"
        }
      ],
      "stateMutability": "view",
      "type": "function"
    },
    {
      "inputs": [
        {
          "internalType": "bytes32",
          "name": "role",
          "type": "bytes32"
        },
        {
          "internalType": "address",
          "name": "account",
          "type": "address"
        }
      ],
      "name": "grantRole",
      "outputs": [],
      "stateMutability": "nonpayable",
      "type": "function"
    },
    {
      "inputs": [
        {
          "internalType": "uint256",
          "name": "",
          "type": "uint256"
        }
      ],
      "name": "handStateHashes",
      "outputs": [
        {
          "internalType": "bytes32",
          "name": "",
          "type": "bytes32"
        }
      ],
      "stateMutability": "view",
      "type": "function"
    },
    {
      "inputs": [
        {
          "internalType": "bytes32",
          "name": "role",
          "type": "bytes32"
        },
        {
          "internalType": "address",
          "name": "account",
          "type": "address"
        }
      ],
      "name": "hasRole",
      "outputs": [
        {
          "internalType": "bool",
          "name": "",
          "type": "bool"
        }
      ],
      "stateMutability": "view",
      "type": "function"
    },
    {
      "inputs": [
        {
          "internalType": "address",
          "name": "player",
          "type": "address"
        },
        {
          "internalType": "address",
          "name": "delegate",
          "type": "address"
        }
      ],
      "name": "isDelegateFor",
      "outputs": [
        {
          "internalType": "bool",
          "name": "",
          "type": "bool"
        }
      ],
      "stateMutability": "view",
      "type": "function"
    },
    {
      "inputs": [
        {
          "internalType": "address",
          "name": "player",
          "type": "address"
        },
        {
          "internalType": "uint256",
          "name": "tableId",
          "type": "uint256"
        },
        {
          "internalType": "uint256",
          "name": "buyIn",
          "type": "uint256"
        }
      ],
      "name": "joinTableFor",
      "outputs": [],
      "stateMutability": "nonpayable",
      "type": "function"
    },
    {
      "inputs": [
        {
          "internalType": "address",
          "name": "player",
          "type": "address"
        },
        {
          "internalType": "uint256",
          "name": "tableId",
          "type": "uint256"
        },
        {
          "internalType": "uint256",
          "name": "finalStack",
          "type": "uint256"
        }
      ],
      "name": "leaveTableFor",
      "outputs": [],
      "stateMutability": "nonpayable",
      "type": "function"
    },
    {
      "inputs": [
        {
          "internalType": "uint256",
          "name": "tableId",
          "type": "uint256"
        },
        {
          "internalType": "uint256",
          "name": "finalStack",
          "type": "uint256"
        }
      ],
      "name": "leaveTableSession",
      "outputs": [],
      "stateMutability": "nonpayable",
      "type": "function"
    },
    {
      "inputs": [
        {
          "internalType": "address",
          "name": "player",
          "type": "address"
        },
        {
          "internalType": "uint256",
          "name": "finalStack",
          "type": "uint256"
        }
      ],
      "name": "leaveTableSession",
      "outputs": [],
      "stateMutability": "nonpayable",
      "type": "function"
    },
    {
      "inputs": [
        {
          "internalType": "address",
          "name": "",
          "type": "address"
        }
      ],
      "name": "lockedBalance",
      "outputs": [
        {
          "internalType": "uint256",
          "name": "",
          "type": "uint256"
        }
      ],
      "stateMutability": "view",
      "type": "function"
    },
    {
      "inputs": [],
      "name": "rakeRate",
      "outputs": [
        {
          "internalType": "uint256",
          "name": "",
          "type": "uint256"
        }
      ],
      "stateMutability": "view",
      "type": "function"
    },
    {
      "inputs": [
        {
          "internalType": "bytes32",
          "name": "role",
          "type": "bytes32"
        },
        {
          "internalType": "address",
          "name": "account",
          "type": "address"
        }
      ],
      "name": "renounceRole",
      "outputs": [],
      "stateMutability": "nonpayable",
      "type": "function"
    },
    {
      "inputs": [],
      "name": "revokeDelegate",
      "outputs": [],
      "stateMutability": "nonpayable",
      "type": "function"
    },
    {
      "inputs": [
        {
          "internalType": "bytes32",
          "name": "role",
          "type": "bytes32"
        },
        {
          "internalType": "address",
          "name": "account",
          "type": "address"
        }
      ],
      "name": "revokeRole",
      "outputs": [],
      "stateMutability": "nonpayable",
      "type": "function"
    },
    {
      "inputs": [
        {
          "internalType": "address",
          "name": "newRecipient",
          "type": "address"
        }
      ],
      "name": "setFeeRecipient",
      "outputs": [],
      "stateMutability": "nonpayable",
      "type": "function"
    },
    {
      "inputs": [
        {
          "internalType": "uint256",
          "name": "handId",
          "type": "uint256"
        },
        {
          "internalType": "address[]",
          "name": "winners",
          "type": "address[]"
        },
        {
          "internalType": "uint256[]",
          "name": "amounts",
          "type": "uint256[]"
        },
        {
          "internalType": "uint256",
          "name": "totalPot",
          "type": "uint256"
        },
        {
          "internalType": "uint256",
          "name": "rake",
          "type": "uint256"
        },
        {
          "internalType": "bytes32",
          "name": "stateHash",
          "type": "bytes32"
        }
      ],
      "name": "settle",
      "outputs": [],
      "stateMutability": "nonpayable",
      "type": "function"
    },
    {
      "inputs": [
        {
          "internalType": "uint256",
          "name": "tournamentId",
          "type": "uint256"
        },
        {
          "internalType": "address[]",
          "name": "players",
          "type": "address[]"
        },
        {
          "internalType": "uint256[]",
          "name": "payouts",
          "type": "uint256[]"
        },
        {
          "internalType": "uint256",
          "name": "rake",
          "type": "uint256"
        },
        {
          "internalType": "bytes32",
          "name": "stateHash",
          "type": "bytes32"
        }
      ],
      "name": "settleTournament",
      "outputs": [],
      "stateMutability": "nonpayable",
      "type": "function"
    },
    {
      "inputs": [
        {
          "internalType": "bytes4",
          "name": "interfaceId",
          "type": "bytes4"
        }
      ],
      "name": "supportsInterface",
      "outputs": [
        {
          "internalType": "bool",
          "name": "",
          "type": "bool"
        }
      ],
      "stateMutability": "view",
      "type": "function"
    },
    {
      "inputs": [
        {
          "internalType": "uint256",
          "name": "",
          "type": "uint256"
        },
        {
          "internalType": "address",
          "name": "",
          "type": "address"
        }
      ],
      "name": "tableSessions",
      "outputs": [
        {
          "internalType": "uint256",
          "name": "buyIn",
          "type": "uint256"
        },
        {
          "internalType": "bool",
          "name": "active",
          "type": "bool"
        }
      ],
      "stateMutability": "view",
      "type": "function"
    },
    {
      "inputs": [],
      "name": "totalCustody",
      "outputs": [
        {
          "internalType": "uint256",
          "name": "",
          "type": "uint256"
        }
      ],
      "stateMutability": "view",
      "type": "function"
    },
    {
      "inputs": [
        {
          "internalType": "uint256",
          "name": "amount",
          "type": "uint256"
        }
      ],
      "name": "withdraw",
      "outputs": [],
      "stateMutability": "nonpayable",
      "type": "function"
    }
  ],
  "bytecode": "0x60803461023057601f61214b38819003918201601f19168301916001600160401b038311848410176102345780849260209460405283398101031261023057516001600160a01b0381169081900361023057600180556101f460085580156101eb57335f9081525f51602061212b5f395f51905f52602052604090205460ff16156101ae575b335f9081525f51602061210b5f395f51905f52602052604090205460ff161561014f575b335f9081525f5160206120eb5f395f51905f52602052604090205460ff16156100f0575b600980546001600160a01b031916919091179055604051611e8290816102498239f35b335f8181525f5160206120eb5f395f51905f5260205260408120805460ff1916600117905581907f9f2df0fed2c77648de5860a4cc508cd0818c85b8b8a1ab4ceeef8d981c8956a6905f5160206120cb5f395f51905f529080a46100cd565b335f8181525f51602061210b5f395f51905f5260205260408120805460ff1916600117905581907f97667070c54ef182b0f5858b034beac1b6f3089aa2d3188bb1e8929f4fa9b929905f5160206120cb5f395f51905f529080a46100a9565b335f8181525f51602061212b5f395f51905f5260205260408120805460ff1916600117905581905f5160206120cb5f395f51905f528180a4610085565b60405162461bcd60e51b815260206004820152601560248201527f496e76616c69642066656520726563697069656e7400000000000000000000006044820152606490fd5b5f80fd5b634e487b7160e01b5f52604160045260245ffdfe6080806040526004361015610012575f80fd5b5f3560e01c90816262f1671461158357508063010c96c81461128857806301ffc9a71461123257806302dbed9d14610ba65780630cac139e14611181578063248a9ca31461114f5780632e1a7d4d1461104a5780632e9988b914610f845780632f2ff15d14610ecd578063338b5dea14610d8757806336568abe14610cf55780634690484014610ccd57806355d1ef3814610c7b578063587cde1e14610c3b5780635932840114610bde5780635d5f8cd8146103bd57806361e6f0351461086c57806369e08a0c14610ba65780636a39f29014610b6457806379134036146108f357806383956e72146108d25780638bedff8c1461086c57806391d14854146108245780639ae697bf1461076a5780639d9d0d8814610807578063a217fddf146107ed578063c23a2465146107a2578063c40868931461076a578063d0e30db0146106fe578063d5391393146106c4578063d547741f14610680578063e6aa1427146105e0578063e74b981b1461055d578063ed1f67c5146103e7578063f01fd7a9146103bd578063f4615180146101f05763f5b541a6146101b2575f80fd5b346101ec575f3660031901126101ec5760206040517f97667070c54ef182b0f5858b034beac1b6f3089aa2d3188bb1e8929f4fa9b9298152f35b5f80fd5b346101ec576101fe366115fa565b335f9081525f516020611e2d5f395f51905f5260205260409020549092906102289060ff16611624565b6001600160a01b031661023c811515611826565b61024782151561186b565b821561038757805f5260026020526102658360405f20541015611777565b815f52600660205260405f20815f5260205260ff600160405f2001541661034f57805f52600260205260405f2061029d8482546116f6565b9055805f52600360205260405f206102b68482546116d5565b90556040516040810181811067ffffffffffffffff82111761033b5760405283815260016020820191818352845f52600660205260405f20845f5260205260405f2090518155019051151560ff801983541691161790556040519283527f08c3c521c51b06e0c8b39405241e485a75299f370b4e33350bc25967ff2590a660203394a4005b634e487b7160e01b5f52604160045260245ffd5b60405162461bcd60e51b815260206004820152601060248201526f416c7265616479206174207461626c6560801b6044820152606490fd5b60405162461bcd60e51b815260206004820152600e60248201526d24b73b30b634b210313abc96b4b760911b6044820152606490fd5b346101ec5760203660031901126101ec576004355f526005602052602060405f2054604051908152f35b60403660031901126101ec576103fb6115ce565b335f9081525f516020611e2d5f395f51905f52602052604090205460243591906104279060ff16611624565b6001600160a01b039081165f818152600460205260409020549092911633148015610539575b15610503578034108015906104fb575b156104c1576020816104917f2da466a7b24304f47e87fa2e1e5a81b9831ce54fec19055ce277ca2f39ba42c49315156117c3565b835f526002825260405f206104a78282546116d5565b90556104b5816007546116d5565b600755604051908152a2005b60405162461bcd60e51b8152602060048201526012602482015271496e73756666696369656e742076616c756560701b6044820152606490fd5b50801561045d565b60405162461bcd60e51b815260206004820152600e60248201526d139bdd08185d5d1a1bdc9a5e995960921b6044820152606490fd5b50335f9081525f516020611e2d5f395f51905f52602052604090205460ff1661044d565b346101ec5760203660031901126101ec576105766115ce565b61057e6118a9565b6001600160a01b031680156105a9576bffffffffffffffffffffffff60a01b60095416176009555f80f35b60405162461bcd60e51b815260206004820152600f60248201526e496e76616c6964206164647265737360881b6044820152606490fd5b346101ec5760403660031901126101ec576105f96115ce565b335f9081525f516020611e2d5f395f51905f526020908152604090912054602435927f3bb383b2f8177e04677b7c6bd84d61cc2f4e0121d47f33d8ea137f6e110afa46929161064a9060ff16611624565b6001600160a01b03169261065f841515611826565b835f526002825260405f206106758282546116d5565b9055604051908152a2005b346101ec5760403660031901126101ec576106c260043561069f6115e4565b906106bd6106b8825f525f602052600160405f20015490565b6119ab565b6119e8565b005b346101ec575f3660031901126101ec5760206040517f9f2df0fed2c77648de5860a4cc508cd0818c85b8b8a1ab4ceeef8d981c8956a68152f35b5f3660031901126101ec576107143415156117c3565b335f52600260205260405f2061072b3482546116d5565b9055610739346007546116d5565b6007556040513481527f2da466a7b24304f47e87fa2e1e5a81b9831ce54fec19055ce277ca2f39ba42c460203392a2005b346101ec5760203660031901126101ec576001600160a01b0361078b6115ce565b165f526003602052602060405f2054604051908152f35b346101ec5760403660031901126101ec5760206107bd6115ce565b6107c56115e4565b6001600160a01b039182165f9081526004845260409081902054905190831691909216148152f35b346101ec575f3660031901126101ec5760206040515f8152f35b346101ec575f3660031901126101ec576020600854604051908152f35b346101ec5760403660031901126101ec5761083d6115e4565b6004355f525f60205260405f209060018060a01b03165f52602052602060ff60405f2054166040519015158152f35b346101ec5760403660031901126101ec576108856115e4565b6004355f52600660205260405f209060018060a01b03165f5260205260405f2060ff6001825492015416906108ce60405192839283909291602090604083019483521515910152565b0390f35b346101ec5760403660031901126101ec576106c23360243560043533611a68565b346101ec5760c03660031901126101ec5760043560243567ffffffffffffffff81116101ec5761092790369060040161159d565b9060443567ffffffffffffffff81116101ec5761094890369060040161159d565b335f9081525f516020611e2d5f395f51905f5260205260409020549193916064359160a43591608435919061097f9060ff16611624565b808503610b1f578415610ae3575f8483825b848410610a7e576109a39293506116d5565b11610a44577f641bcd60dca6e837d11a8be67b4d6462e10fed4cdae68b6bc90ae2794a310b2d96610a079183610a1c575b895f5260056020528460405f20556109f960405198899860a08a5260a08a0191611703565b918783036020890152611753565b926040850152606084015260808301520390a2005b60018060a01b03600954165f52600260205260405f20610a3d8582546116d5565b90556109d4565b60405162461bcd60e51b8152602060048201526012602482015271105b5bdd5b9d1cc8195e18d95959081c1bdd60721b6044820152606490fd5b60019250610a999150610a9284868d611660565b35906116d5565b91610aa581858c611660565b3589610ac0610abb848c878060a01b0394611660565b611684565b165f526002602052610ad760405f209182546116d5565b90550190838691610991565b60405162461bcd60e51b8152602060048201526014602482015273139bc81dda5b9b995c9cc81cdc1958da599a595960621b6044820152606490fd5b60405162461bcd60e51b815260206004820152601f60248201527f57696e6e6572732f616d6f756e7473206c656e677468206d69736d61746368006044820152606490fd5b346101ec576106c2610b75366115fa565b335f9081525f516020611e2d5f395f51905f526020526040902054909190610b9f9060ff16611624565b3392611a68565b346101ec5760203660031901126101ec576001600160a01b03610bc76115ce565b165f526002602052602060405f2054604051908152f35b346101ec5760203660031901126101ec5760606001600160a01b03610c016115ce565b165f90815260026020908152604080832054600390925290912054610c2681836116d5565b15159060405192835260208301526040820152f35b346101ec5760203660031901126101ec576001600160a01b03610c5c6115ce565b165f526004602052602060018060a01b0360405f205416604051908152f35b346101ec575f3660031901126101ec57335f81815260046020526040812080546001600160a01b03191690557fbf7c2a6c0beccbbb4e820a8cf0e5b3e1eef2ba00e02333658d521636adf414589080a2005b346101ec575f3660031901126101ec576009546040516001600160a01b039091168152602090f35b346101ec5760403660031901126101ec57610d0e6115e4565b336001600160a01b03821603610d2a576106c2906004356119e8565b60405162461bcd60e51b815260206004820152602f60248201527f416363657373436f6e74726f6c3a2063616e206f6e6c792072656e6f756e636560448201526e103937b632b9903337b91039b2b63360891b6064820152608490fd5b346101ec5760403660031901126101ec576004356001600160a01b038116908190036101ec575f602060243592610dbf8415156117c3565b6064604051809481936323b872dd60e01b83523360048401523060248401528760448401525af1908115610ec2575f91610e87575b5015610e5057335f52600260205260405f20610e118282546116d5565b9055610e1f816007546116d5565b6007556040519081527f2da466a7b24304f47e87fa2e1e5a81b9831ce54fec19055ce277ca2f39ba42c460203392a2005b60405162461bcd60e51b815260206004820152600f60248201526e151c985b9cd9995c8819985a5b1959608a1b6044820152606490fd5b90506020813d602011610eba575b81610ea260209383611804565b810103126101ec575180151581036101ec5782610df4565b3d9150610e95565b6040513d5f823e3d90fd5b346101ec5760403660031901126101ec57600435610ee96115e4565b90610f026106b8825f525f602052600160405f20015490565b5f818152602081815260408083206001600160a01b038616845290915290205460ff1615610f2c57005b5f818152602081815260408083206001600160a01b0395909516808452949091528120805460ff19166001179055339291907f2f8788117e7eff1d82e926ec794901d17c78024a50270940304540a733656f0d9080a4005b346101ec5760203660031901126101ec57610f9d6115ce565b610fa56118a9565b6001600160a01b0316610fb9811515611698565b805f52600360205260405f205480156110135760207f6ac38e093d1eef7bfad88ca3681c7d60445c7ffc439fdc6257bffa53e9b2060991835f52600382525f6040812055835f526002825260405f206106758282546116d5565b60405162461bcd60e51b815260206004820152600f60248201526e4e6f206c6f636b65642066756e647360881b6044820152606490fd5b346101ec5760203660031901126101ec5760043560026001541461110a576002600155335f5260026020526110858160405f20541015611777565b80801561109281156117c3565b335f52600260205260405f206110a98382546116f6565b90556110b7826007546116f6565b6007555f90611101575b5f80809381933390f115610ec2576040519081527f7084f5476618d8e60b11ef0d7d3f06914655adb8793e28ff7f018d4c76d505d560203392a260018055005b506108fc6110c1565b60405162461bcd60e51b815260206004820152601f60248201527f5265656e7472616e637947756172643a207265656e7472616e742063616c6c006044820152606490fd5b346101ec5760203660031901126101ec5760206111796004355f525f602052600160405f20015490565b604051908152f35b346101ec5760203660031901126101ec576001600160a01b036111a26115ce565b1680156111ed57335f81815260046020526040812080546001600160a01b031916841790557fe0568110c5befd8fe07f34a5ecf41a7b844a789efa0e02be8b074c00e1e1ad009080a3005b60405162461bcd60e51b815260206004820152601860248201527f496e76616c69642064656c6567617465206164647265737300000000000000006044820152606490fd5b346101ec5760203660031901126101ec5760043563ffffffff60e01b81168091036101ec57602090637965db0b60e01b8114908115611277575b506040519015158152f35b6301ffc9a760e01b1490508261126c565b346101ec5760a03660031901126101ec5760043560243567ffffffffffffffff81116101ec576112bc90369060040161159d565b9060443567ffffffffffffffff81116101ec576112dd90369060040161159d565b335f9081525f516020611e2d5f395f51905f526020526040902054919391606435916084359161130f9060ff16611624565b80840361153e57831561150c575f8084815b878110611414575061133391926116d5565b036113cf577fee831e7460380a7a6fcd0fa6dafd14f6c2a0f7d0ded3716a5ee3ba6ace22b0f59561139791846113a7575b885f5260056020528360405f2055611389604051978897608089526080890191611703565b918683036020880152611753565b91604084015260608301520390a2005b60018060a01b03600954165f52600260205260405f206113c88682546116d5565b9055611364565b60405162461bcd60e51b815260206004820152601760248201527f536574746c656d656e74206d7573742062616c616e63650000000000000000006044820152606490fd5b90506001600160a01b0361142c610abb838a8c611660565b1690611439821515611698565b8a5f52600660205260405f20825f5260205260405f2091600183019060ff825416156114d357835f916114a5858f8b9061148661147a60019b54809d6116d5565b9c610a92858585611660565b9a858852600360205261149e604089209182546116f6565b9055611660565b3590835260026020526114bd604084209182546116d5565b905555805460ff19169055919291869101611321565b60405162461bcd60e51b8152602060048201526011602482015270141b185e595c881b9bdd081b1bd8dad959607a1b6044820152606490fd5b60405162461bcd60e51b815260206004820152600a6024820152694e6f20706c617965727360b01b6044820152606490fd5b60405162461bcd60e51b815260206004820152601f60248201527f506c61796572732f7061796f757473206c656e677468206d69736d61746368006044820152606490fd5b346101ec575f3660031901126101ec576020906007548152f35b9181601f840112156101ec5782359167ffffffffffffffff83116101ec576020808501948460051b0101116101ec57565b600435906001600160a01b03821682036101ec57565b602435906001600160a01b03821682036101ec57565b60609060031901126101ec576004356001600160a01b03811681036101ec57906024359060443590565b1561162b57565b60405162461bcd60e51b815260206004820152600d60248201526c27b7363c9037b832b930ba37b960991b6044820152606490fd5b91908110156116705760051b0190565b634e487b7160e01b5f52603260045260245ffd5b356001600160a01b03811681036101ec5790565b1561169f57565b60405162461bcd60e51b815260206004820152600e60248201526d24b73b30b634b210383630bcb2b960911b6044820152606490fd5b919082018092116116e257565b634e487b7160e01b5f52601160045260245ffd5b919082039182116116e257565b916020908281520191905f905b80821061171d5750505090565b91929091908335906001600160a01b03821682036101ec576001600160a01b039091168152602090810193019160010190611710565b81835290916001600160fb1b0383116101ec5760209260051b809284830137010190565b1561177e57565b60405162461bcd60e51b815260206004820152601c60248201527f496e73756666696369656e7420637573746f64792062616c616e6365000000006044820152606490fd5b156117ca57565b60405162461bcd60e51b81526020600482015260126024820152710416d6f756e74206d757374206265203e20360741b6044820152606490fd5b90601f8019910116810190811067ffffffffffffffff82111761033b57604052565b1561182d57565b60405162461bcd60e51b8152602060048201526016602482015275496e76616c696420706c61796572206164647265737360501b6044820152606490fd5b1561187257565b60405162461bcd60e51b815260206004820152600f60248201526e125b9d985b1a59081d18589b195259608a1b6044820152606490fd5b335f9081527fad3228b676f7d3cd4284a5443f17f1962b36e491b30a40b2405849e597ba5fb5602052604090205460ff16156118e157565b6118ea33611ca4565b6044602061197360116118fc5f611d8a565b603760405194859281808501997f416363657373436f6e74726f6c3a206163636f756e74200000000000000000008b528051918291018587015e8401907001034b99036b4b9b9b4b733903937b6329607d1b84830152805192839101604883015e01015f838201520301601f198101835282611804565b60405192839162461bcd60e51b8352602060048401525180918160248501528484015e5f828201840152601f01601f19168101030190fd5b5f8181526020818152604080832033845290915290205460ff16156119cd5750565b6044602061197360116118fc6119e233611ca4565b95611d8a565b5f818152602081815260408083206001600160a01b038616845290915290205460ff16611a13575050565b5f818152602081815260408083206001600160a01b0395909516808452949091528120805460ff19169055339291907ff6391f5c32d9c69d2a47ea670b442974b53935d1edc7fd64eb21e047a839171b9080a4565b6001600160a01b031692909190611a80841515611826565b611a8b83151561186b565b825f52600660205260405f20845f5260205260405f20926001840160ff81541615611c4357855f8587549081811180611c38575b611bca575b509682855f937f3bb383b2f8177e04677b7c6bd84d61cc2f4e0121d47f33d8ea137f6e110afa469a60209a99989796865260038b52611b08604087209182546116f6565b905582855260028a5260408520611b208a82546116d5565b905580611b76575b50505055805460ff191690556040518381526001600160a01b039092169186907fd19cd5b9c13d78956f68aecd28f8c908f321522a14ef33542d52552ced3e4edc908690a4604051908152a2565b897ff0bfd1b99c6423e7001435e00acc02d4585fad3fd13c294e1f16742a55f3fb0b9160018060a01b036009541687526002825260408720611bb98282546116d5565b9055604051908152a388845f611b28565b809750819695949350611bdd92506116f6565b600854908181029181830414901517156116e2577f3bb383b2f8177e04677b7c6bd84d61cc2f4e0121d47f33d8ea137f6e110afa46968884602098611c286127105f960480926116f6565b9950935050929394959097611ac4565b506008541515611abf565b60405162461bcd60e51b815260206004820152600c60248201526b4e6f74206174207461626c6560a01b6044820152606490fd5b67ffffffffffffffff811161033b57601f01601f191660200190565b908151811015611670570160200190565b611cae602a611c77565b90611cbc6040519283611804565b602a8252611cca602a611c77565b6020830190601f19013682378251156116705760309053815160011015611670576078602183015360295b60018111611d495750611d055790565b606460405162461bcd60e51b815260206004820152602060248201527f537472696e67733a20686578206c656e67746820696e73756666696369656e746044820152fd5b90600f81166010811015611670576f181899199a1a9b1b9c1cb0b131b232b360811b901a611d778385611c93565b5360041c9080156116e2575f1901611cf5565b611d946042611c77565b90611da26040519283611804565b60428252611db06042611c77565b6020830190601f19013682378251156116705760309053815160011015611670576078602183015360415b60018111611deb5750611d055790565b90600f81166010811015611670576f181899199a1a9b1b9c1cb0b131b232b360811b901a611e198385611c93565b5360041c9080156116e2575f1901611ddb56feee57cd81e84075558e8fcc182a1f4393f91fc97f963a136e66b7f949a62f319fa26469706673582212200026e9343737dc6f559a8535da4796b55fdfe14914b970b5de62dae542d7718f64736f6c634300081b00332f8788117e7eff1d82e926ec794901d17c78024a50270940304540a733656f0d0781d7cac9c378efa22a7481e4d4d29704a680ddf504b3bc50b517700ee11e6cee57cd81e84075558e8fcc182a1f4393f91fc97f963a136e66b7f949a62f319fad3228b676f7d3cd4284a5443f17f1962b36e491b30a40b2405849e597ba5fb5",
  "linkReferences": {},
  "deployedLinkReferences": {}
}