{
  "_format": "hh-sol-artifact-1",
  "contractName": "PokerGame0G",
  "sourceName": "contracts/0g/PokerGame0G.sol",
  "abi": [
    {
      "inputs": [
        {
          "internalType": "address",
          "name": "_feeRecipient",
          "type": "address"
        }
      ],
      "stateMutability": "nonpayable",
      "type": "constructor"
    },
    {
      "anonymous": false,
      "inputs": [
        {
          "indexed": true,
          "internalType": "address",
          "name": "player",
          "type": "address"
        },
        {
          "indexed": true,
          "internalType": "address",
          "name": "delegate",
          "type": "address"
        }
      ],
      "name": "DelegateAuthorized",
      "type": "event"
    },
    {
      "anonymous": false,
      "inputs": [
        {
          "indexed": true,
          "internalType": "address",
          "name": "player",
          "type": "address"
        }
      ],
      "name": "DelegateRevoked",
      "type": "event"
    },
    {
      "anonymous": false,
      "inputs": [
        {
          "indexed": true,
          "internalType": "address",
          "name": "player",
          "type": "address"
        },
        {
          "indexed": false,
          "internalType": "uint256",
          "name": "amount",
          "type": "uint256"
        }
      ],
      "name": "Deposited",
      "type": "event"
    },
    {
      "anonymous": false,
      "inputs": [
        {
          "indexed": true,
          "internalType": "address",
          "name": "oldOperator",
          "type": "address"
        },
        {
          "indexed": true,
          "internalType": "address",
          "name": "newOperator",
          "type": "address"
        }
      ],
      "name": "OperatorChanged",
      "type": "event"
    },
    {
      "anonymous": false,
      "inputs": [
        {
          "indexed": true,
          "internalType": "bytes32",
          "name": "role",
          "type": "bytes32"
        },
        {
          "indexed": true,
          "internalType": "bytes32",
          "name": "previousAdminRole",
          "type": "bytes32"
        },
        {
          "indexed": true,
          "internalType": "bytes32",
          "name": "newAdminRole",
          "type": "bytes32"
        }
      ],
      "name": "RoleAdminChanged",
      "type": "event"
    },
    {
      "anonymous": false,
      "inputs": [
        {
          "indexed": true,
          "internalType": "bytes32",
          "name": "role",
          "type": "bytes32"
        },
        {
          "indexed": true,
          "internalType": "address",
          "name": "account",
          "type": "address"
        },
        {
          "indexed": true,
          "internalType": "address",
          "name": "sender",
          "type": "address"
        }
      ],
      "name": "RoleGranted",
      "type": "event"
    },
    {
      "anonymous": false,
      "inputs": [
        {
          "indexed": true,
          "internalType": "bytes32",
          "name": "role",
          "type": "bytes32"
        },
        {
          "indexed": true,
          "internalType": "address",
          "name": "account",
          "type": "address"
        },
        {
          "indexed": true,
          "internalType": "address",
          "name": "sender",
          "type": "address"
        }
      ],
      "name": "RoleRevoked",
      "type": "event"
    },
    {
      "anonymous": false,
      "inputs": [
        {
          "indexed": true,
          "internalType": "uint256",
          "name": "handId",
          "type": "uint256"
        },
        {
          "indexed": false,
          "internalType": "address[]",
          "name": "winners",
          "type": "address[]"
        },
        {
          "indexed": false,
          "internalType": "uint256[]",
          "name": "amounts",
          "type": "uint256[]"
        },
        {
          "indexed": false,
          "internalType": "uint256",
          "name": "totalPot",
          "type": "uint256"
        },
        {
          "indexed": false,
          "internalType": "uint256",
          "name": "rake",
          "type": "uint256"
        },
        {
          "indexed": false,
          "internalType": "bytes32",
          "name": "stateHash",
          "type": "bytes32"
        }
      ],
      "name": "Settled",
      "type": "event"
    },
    {
      "anonymous": false,
      "inputs": [
        {
          "indexed": true,
          "internalType": "address",
          "name": "player",
          "type": "address"
        },
        {
          "indexed": false,
          "internalType": "uint256",
          "name": "amount",
          "type": "uint256"
        }
      ],
      "name": "Withdrawn",
      "type": "event"
    },
    {
      "inputs": [],
      "name": "DEFAULT_ADMIN_ROLE",
      "outputs": [
        {
          "internalType": "bytes32",
          "name": "",
          "type": "bytes32"
        }
      ],
      "stateMutability": "view",
      "type": "function"
    },
    {
      "inputs": [],
      "name": "MINTER_ROLE",
      "outputs": [
        {
          "internalType": "bytes32",
          "name": "",
          "type": "bytes32"
        }
      ],
      "stateMutability": "view",
      "type": "function"
    },
    {
      "inputs": [],
      "name": "OPERATOR_ROLE",
      "outputs": [
        {
          "internalType": "bytes32",
          "name": "",
          "type": "bytes32"
        }
      ],
      "stateMutability": "view",
      "type": "function"
    },
    {
      "inputs": [
        {
          "internalType": "address",
          "name": "delegate",
          "type": "address"
        }
      ],
      "name": "authorizeDelegate",
      "outputs": [],
      "stateMutability": "nonpayable",
      "type": "function"
    },
    {
      "inputs": [
        {
          "internalType": "address",
          "name": "",
          "type": "address"
        }
      ],
      "name": "custodyBalance",
      "outputs": [
        {
          "internalType": "uint256",
          "name": "",
          "type": "uint256"
        }
      ],
      "stateMutability": "view",
      "type": "function"
    },
    {
      "inputs": [
        {
          "internalType": "address",
          "name": "",
          "type": "address"
        }
      ],
      "name": "delegates",
      "outputs": [
        {
          "internalType": "address",
          "name": "",
          "type": "address"
        }
      ],
      "stateMutability": "view",
      "type": "function"
    },
    {
      "inputs": [],
      "name": "deposit",
      "outputs": [],
      "stateMutability": "payable",
      "type": "function"
    },
    {
      "inputs": [
        {
          "internalType": "contract IERC20",
          "name": "token",
          "type": "address"
        },
        {
          "internalType": "uint256",
          "name": "amount",
          "type": "uint256"
        }
      ],
      "name": "depositToken",
      "outputs": [],
      "stateMutability": "nonpayable",
      "type": "function"
    },
    {
      "inputs": [
        {
          "internalType": "address",
          "name": "player",
          "type": "address"
        },
        {
          "internalType": "uint256",
          "name": "amount",
          "type": "uint256"
        }
      ],
      "name": "executeDepositFor",
      "outputs": [],
      "stateMutability": "payable",
      "type": "function"
    },
    {
      "inputs": [],
      "name": "feeRecipient",
      "outputs": [
        {
          "internalType": "address",
          "name": "",
          "type": "address"
        }
      ],
      "stateMutability": "view",
      "type": "function"
    },
    {
      "inputs": [
        {
          "internalType": "address",
          "name": "player",
          "type": "address"
        }
      ],
      "name": "getCustodyBalance",
      "outputs": [
        {
          "internalType": "uint256",
          "name": "",
          "type": "uint256"
        }
      ],
      "stateMutability": "view",
      "type": "function"
    },
    {
      "inputs": [
        {
          "internalType": "uint256",
          "name": "handId",
          "type": "uint256"
        }
      ],
      "name": "getHandStateHash",
      "outputs": [
        {
          "internalType": "bytes32",
          "name": "",
          "type": "bytes32"
        }
      ],
      "stateMutability": "view",
      "type": "function"
    },
    {
      "inputs": [
        {
          "internalType": "bytes32",
          "name": "role",
          "type": "bytes32"
        }
      ],
      "name": "getRoleAdmin",
      "outputs": [
        {
          "internalType": "bytes32",
          "name": "",
          "type": "bytes32"
        }
      ],
      "stateMutability": "view",
      "type": "function"
    },
    {
      "inputs": [
        {
          "internalType": "bytes32",
          "name": "role",
          "type": "bytes32"
        },
        {
          "internalType": "address",
          "name": "account",
          "type": "address"
        }
      ],
      "name": "grantRole",
      "outputs": [],
      "stateMutability": "nonpayable",
      "type": "function"
    },
    {
      "inputs": [
        {
          "internalType": "uint256",
          "name": "",
          "type": "uint256"
        }
      ],
      "name": "handStateHashes",
      "outputs": [
        {
          "internalType": "bytes32",
          "name": "",
          "type": "bytes32"
        }
      ],
      "stateMutability": "view",
      "type": "function"
    },
    {
      "inputs": [
        {
          "internalType": "bytes32",
          "name": "role",
          "type": "bytes32"
        },
        {
          "internalType": "address",
          "name": "account",
          "type": "address"
        }
      ],
      "name": "hasRole",
      "outputs": [
        {
          "internalType": "bool",
          "name": "",
          "type": "bool"
        }
      ],
      "stateMutability": "view",
      "type": "function"
    },
    {
      "inputs": [
        {
          "internalType": "address",
          "name": "player",
          "type": "address"
        },
        {
          "internalType": "address",
          "name": "delegate",
          "type": "address"
        }
      ],
      "name": "isDelegateFor",
      "outputs": [
        {
          "internalType": "bool",
          "name": "",
          "type": "bool"
        }
      ],
      "stateMutability": "view",
      "type": "function"
    },
    {
      "inputs": [
        {
          "internalType": "bytes32",
          "name": "role",
          "type": "bytes32"
        },
        {
          "internalType": "address",
          "name": "account",
          "type": "address"
        }
      ],
      "name": "renounceRole",
      "outputs": [],
      "stateMutability": "nonpayable",
      "type": "function"
    },
    {
      "inputs": [],
      "name": "revokeDelegate",
      "outputs": [],
      "stateMutability": "nonpayable",
      "type": "function"
    },
    {
      "inputs": [
        {
          "internalType": "bytes32",
          "name": "role",
          "type": "bytes32"
        },
        {
          "internalType": "address",
          "name": "account",
          "type": "address"
        }
      ],
      "name": "revokeRole",
      "outputs": [],
      "stateMutability": "nonpayable",
      "type": "function"
    },
    {
      "inputs": [
        {
          "internalType": "address",
          "name": "newRecipient",
          "type": "address"
        }
      ],
      "name": "setFeeRecipient",
      "outputs": [],
      "stateMutability": "nonpayable",
      "type": "function"
    },
    {
      "inputs": [
        {
          "internalType": "uint256",
          "name": "handId",
          "type": "uint256"
        },
        {
          "internalType": "address[]",
          "name": "winners",
          "type": "address[]"
        },
        {
          "internalType": "uint256[]",
          "name": "amounts",
          "type": "uint256[]"
        },
        {
          "internalType": "uint256",
          "name": "totalPot",
          "type": "uint256"
        },
        {
          "internalType": "uint256",
          "name": "rake",
          "type": "uint256"
        },
        {
          "internalType": "bytes32",
          "name": "stateHash",
          "type": "bytes32"
        }
      ],
      "name": "settle",
      "outputs": [],
      "stateMutability": "nonpayable",
      "type": "function"
    },
    {
      "inputs": [
        {
          "internalType": "bytes4",
          "name": "interfaceId",
          "type": "bytes4"
        }
      ],
      "name": "supportsInterface",
      "outputs": [
        {
          "internalType": "bool",
          "name": "",
          "type": "bool"
        }
      ],
      "stateMutability": "view",
      "type": "function"
    },
    {
      "inputs": [],
      "name": "totalCustody",
      "outputs": [
        {
          "internalType": "uint256",
          "name": "",
          "type": "uint256"
        }
      ],
      "stateMutability": "view",
      "type": "function"
    },
    {
      "inputs": [
        {
          "internalType": "uint256",
          "name": "amount",
          "type": "uint256"
        }
      ],
      "name": "withdraw",
      "outputs": [],
      "stateMutability": "nonpayable",
      "type": "function"
    }
  ],
  "bytecode": "0x60803461022657601f61159d38819003918201601f19168301916001600160401b0383118484101761022a5780849260209460405283398101031261022657516001600160a01b038116908190036102265780156101e157335f9081525f51602061157d5f395f51905f52602052604090205460ff16156101a4575b335f9081525f51602061155d5f395f51905f52602052604090205460ff1615610145575b335f9081525f51602061153d5f395f51905f52602052604090205460ff16156100e6575b600580546001600160a01b0319169190911790556040516112de908161023f8239f35b335f8181525f51602061153d5f395f51905f5260205260408120805460ff1916600117905581907f9f2df0fed2c77648de5860a4cc508cd0818c85b8b8a1ab4ceeef8d981c8956a6905f51602061151d5f395f51905f529080a46100c3565b335f8181525f51602061155d5f395f51905f5260205260408120805460ff1916600117905581907f97667070c54ef182b0f5858b034beac1b6f3089aa2d3188bb1e8929f4fa9b929905f51602061151d5f395f51905f529080a461009f565b335f8181525f51602061157d5f395f51905f5260205260408120805460ff1916600117905581905f51602061151d5f395f51905f528180a461007b565b60405162461bcd60e51b815260206004820152601560248201527f496e76616c69642066656520726563697069656e7400000000000000000000006044820152606490fd5b5f80fd5b634e487b7160e01b5f52604160045260245ffdfe6080806040526004361015610012575f80fd5b5f3560e01c90816262f16714610eba5750806301ffc9a714610e6457806302dbed9d146109135780630cac139e14610db3578063248a9ca314610d815780632e1a7d4d14610c945780632f2ff15d14610bdd578063338b5dea14610a9757806336568abe14610a0557806346904840146109dd57806355d1ef381461098b578063587cde1e1461094b5780635d5f8cd81461016c57806369e08a0c14610913578063791340361461064457806391d14854146105fc578063a217fddf146105e2578063c23a246514610597578063d0e30db01461052b578063d5391393146104f1578063d547741f146104ad578063e74b981b14610332578063ed1f67c514610196578063f01fd7a91461016c5763f5b541a61461012e575f80fd5b34610168575f3660031901126101685760206040517f97667070c54ef182b0f5858b034beac1b6f3089aa2d3188bb1e8929f4fa9b9298152f35b5f80fd5b34610168576020366003190112610168576004355f526003602052602060405f2054604051908152f35b6040366003190112610168576101aa610ed4565b335f9081527fee57cd81e84075558e8fcc182a1f4393f91fc97f963a136e66b7f949a62f319f602052604090205460243591906101e99060ff16610fd6565b6001600160a01b039081165f8181526002602052604090205490929116331480156102fb575b156102c5578034108015906102bd575b15610283576020816102537f2da466a7b24304f47e87fa2e1e5a81b9831ce54fec19055ce277ca2f39ba42c4931515610f31565b835f526001825260405f20610269828254610fc9565b905561027781600454610fc9565b600455604051908152a2005b60405162461bcd60e51b8152602060048201526012602482015271496e73756666696369656e742076616c756560701b6044820152606490fd5b50801561021f565b60405162461bcd60e51b815260206004820152600e60248201526d139bdd08185d5d1a1bdc9a5e995960921b6044820152606490fd5b50335f9081527fee57cd81e84075558e8fcc182a1f4393f91fc97f963a136e66b7f949a62f319f602052604090205460ff1661020f565b346101685760203660031901126101685761034b610ed4565b335f9081527fad3228b676f7d3cd4284a5443f17f1962b36e491b30a40b2405849e597ba5fb5602052604090205460ff16156103e3576001600160a01b031680156103ac576bffffffffffffffffffffffff60a01b60055416176005555f80f35b60405162461bcd60e51b815260206004820152600f60248201526e496e76616c6964206164647265737360881b6044820152606490fd5b6103ec33611120565b6044602061047560116103fe5f611206565b603760405194859281808501997f416363657373436f6e74726f6c3a206163636f756e74200000000000000000008b528051918291018587015e8401907001034b99036b4b9b9b4b733903937b6329607d1b84830152805192839101604883015e01015f838201520301601f198101835282610f93565b60405192839162461bcd60e51b8352602060048401525180918160248501528484015e5f828201840152601f01601f19168101030190fd5b34610168576040366003190112610168576104ef6004356104cc610eea565b906104ea6104e5825f525f602052600160405f20015490565b611036565b611073565b005b34610168575f3660031901126101685760206040517f9f2df0fed2c77648de5860a4cc508cd0818c85b8b8a1ab4ceeef8d981c8956a68152f35b5f36600319011261016857610541341515610f31565b335f52600160205260405f20610558348254610fc9565b905561056634600454610fc9565b6004556040513481527f2da466a7b24304f47e87fa2e1e5a81b9831ce54fec19055ce277ca2f39ba42c460203392a2005b346101685760403660031901126101685760206105b2610ed4565b6105ba610eea565b6001600160a01b039182165f9081526002845260409081902054905190831691909216148152f35b34610168575f3660031901126101685760206040515f8152f35b3461016857604036600319011261016857610615610eea565b6004355f525f60205260405f209060018060a01b03165f52602052602060ff60405f2054166040519015158152f35b346101685760c03660031901126101685760043560243567ffffffffffffffff811161016857610678903690600401610f00565b60443567ffffffffffffffff811161016857610698903690600401610f00565b335f9081527fee57cd81e84075558e8fcc182a1f4393f91fc97f963a136e66b7f949a62f319f602052604090205460843594606435939160a435906106df9060ff16610fd6565b8386036108ce5785156108925784875f5f5b87811061082857509061070391610fc9565b116107ee57866107c6575b875f5260036020528060405f2055604051958060a0880160a089525260c0870192905f905b80821061079c5750505085820360208701528382526001600160fb1b038411610168577f641bcd60dca6e837d11a8be67b4d6462e10fed4cdae68b6bc90ae2794a310b2d96602095879560051b80958886013760408601526060850152608084015201030190a2005b90919384359060018060a01b03821680920361016857602081600193829352019501920190610733565b60018060a01b03600554165f52600160205260405f206107e7888254610fc9565b905561070e565b60405162461bcd60e51b8152602060048201526012602482015271105b5bdd5b9d1cc8195e18d95959081c1bdd60721b6044820152606490fd5b9250610841915061083a838888611012565b3590610fc9565b9061084d818787611012565b359061085a818a87611012565b356001600160a01b0381169290839003610168576001925f528260205261088660405f20918254610fc9565b905501869189916106f1565b60405162461bcd60e51b8152602060048201526014602482015273139bc81dda5b9b995c9cc81cdc1958da599a595960621b6044820152606490fd5b60405162461bcd60e51b815260206004820152601f60248201527f57696e6e6572732f616d6f756e7473206c656e677468206d69736d61746368006044820152606490fd5b34610168576020366003190112610168576001600160a01b03610934610ed4565b165f526001602052602060405f2054604051908152f35b34610168576020366003190112610168576001600160a01b0361096c610ed4565b165f526002602052602060018060a01b0360405f205416604051908152f35b34610168575f36600319011261016857335f81815260026020526040812080546001600160a01b03191690557fbf7c2a6c0beccbbb4e820a8cf0e5b3e1eef2ba00e02333658d521636adf414589080a2005b34610168575f366003190112610168576005546040516001600160a01b039091168152602090f35b3461016857604036600319011261016857610a1e610eea565b336001600160a01b03821603610a3a576104ef90600435611073565b60405162461bcd60e51b815260206004820152602f60248201527f416363657373436f6e74726f6c3a2063616e206f6e6c792072656e6f756e636560448201526e103937b632b9903337b91039b2b63360891b6064820152608490fd5b34610168576040366003190112610168576004356001600160a01b03811690819003610168575f602060243592610acf841515610f31565b6064604051809481936323b872dd60e01b83523360048401523060248401528760448401525af1908115610bd2575f91610b97575b5015610b6057335f52600160205260405f20610b21828254610fc9565b9055610b2f81600454610fc9565b6004556040519081527f2da466a7b24304f47e87fa2e1e5a81b9831ce54fec19055ce277ca2f39ba42c460203392a2005b60405162461bcd60e51b815260206004820152600f60248201526e151c985b9cd9995c8819985a5b1959608a1b6044820152606490fd5b90506020813d602011610bca575b81610bb260209383610f93565b81010312610168575180151581036101685782610b04565b3d9150610ba5565b6040513d5f823e3d90fd5b3461016857604036600319011261016857600435610bf9610eea565b90610c126104e5825f525f602052600160405f20015490565b5f818152602081815260408083206001600160a01b038616845290915290205460ff1615610c3c57005b5f818152602081815260408083206001600160a01b0395909516808452949091528120805460ff19166001179055339291907f2f8788117e7eff1d82e926ec794901d17c78024a50270940304540a733656f0d9080a4005b3461016857602036600319011261016857600435335f5260016020528060405f205410610d3c57808015610cc88115610f31565b335f52600160205260405f20610cdf838254610f72565b9055610ced82600454610f72565b6004555f90610d33575b5f80809381933390f115610bd2576040519081527f7084f5476618d8e60b11ef0d7d3f06914655adb8793e28ff7f018d4c76d505d560203392a2005b506108fc610cf7565b60405162461bcd60e51b815260206004820152601c60248201527f496e73756666696369656e7420637573746f64792062616c616e6365000000006044820152606490fd5b34610168576020366003190112610168576020610dab6004355f525f602052600160405f20015490565b604051908152f35b34610168576020366003190112610168576001600160a01b03610dd4610ed4565b168015610e1f57335f81815260026020526040812080546001600160a01b031916841790557fe0568110c5befd8fe07f34a5ecf41a7b844a789efa0e02be8b074c00e1e1ad009080a3005b60405162461bcd60e51b815260206004820152601860248201527f496e76616c69642064656c6567617465206164647265737300000000000000006044820152606490fd5b346101685760203660031901126101685760043563ffffffff60e01b811680910361016857602090637965db0b60e01b8114908115610ea9575b506040519015158152f35b6301ffc9a760e01b14905082610e9e565b34610168575f366003190112610168576020906004548152f35b600435906001600160a01b038216820361016857565b602435906001600160a01b038216820361016857565b9181601f840112156101685782359167ffffffffffffffff8311610168576020808501948460051b01011161016857565b15610f3857565b60405162461bcd60e51b81526020600482015260126024820152710416d6f756e74206d757374206265203e20360741b6044820152606490fd5b91908203918211610f7f57565b634e487b7160e01b5f52601160045260245ffd5b90601f8019910116810190811067ffffffffffffffff821117610fb557604052565b634e487b7160e01b5f52604160045260245ffd5b91908201809211610f7f57565b15610fdd57565b60405162461bcd60e51b815260206004820152600d60248201526c27b7363c9037b832b930ba37b960991b6044820152606490fd5b91908110156110225760051b0190565b634e487b7160e01b5f52603260045260245ffd5b5f8181526020818152604080832033845290915290205460ff16156110585750565b6044602061047560116103fe61106d33611120565b95611206565b5f818152602081815260408083206001600160a01b038616845290915290205460ff1661109e575050565b5f818152602081815260408083206001600160a01b0395909516808452949091528120805460ff19169055339291907ff6391f5c32d9c69d2a47ea670b442974b53935d1edc7fd64eb21e047a839171b9080a4565b67ffffffffffffffff8111610fb557601f01601f191660200190565b908151811015611022570160200190565b61112a602a6110f3565b906111386040519283610f93565b602a8252611146602a6110f3565b6020830190601f19013682378251156110225760309053815160011015611022576078602183015360295b600181116111c557506111815790565b606460405162461bcd60e51b815260206004820152602060248201527f537472696e67733a20686578206c656e67746820696e73756666696369656e746044820152fd5b90600f81166010811015611022576f181899199a1a9b1b9c1cb0b131b232b360811b901a6111f3838561110f565b5360041c908015610f7f575f1901611171565b61121060426110f3565b9061121e6040519283610f93565b6042825261122c60426110f3565b6020830190601f19013682378251156110225760309053815160011015611022576078602183015360415b6001811161126757506111815790565b90600f81166010811015611022576f181899199a1a9b1b9c1cb0b131b232b360811b901a611295838561110f565b5360041c908015610f7f575f190161125756fea264697066735822122026e9c9ba07beb7c586db307e37d6f40b84c2cff6317b63de01a8869e5db2de0964736f6c634300081b00332f8788117e7eff1d82e926ec794901d17c78024a50270940304540a733656f0d0781d7cac9c378efa22a7481e4d4d29704a680ddf504b3bc50b517700ee11e6cee57cd81e84075558e8fcc182a1f4393f91fc97f963a136e66b7f949a62f319fad3228b676f7d3cd4284a5443f17f1962b36e491b30a40b2405849e597ba5fb5",
  "linkReferences": {},
  "deployedLinkReferences": {}
}