{
  "_format": "hh-sol-artifact-1",
  "contractName": "AchievementNFTSimple",
  "sourceName": "contracts/AchievementNFTSimple.sol",
  "abi": [
    {
      "inputs": [
        {
          "internalType": "address",
          "name": "_signer",
          "type": "address"
        },
        {
          "internalType": "string",
          "name": "_baseURI",
          "type": "string"
        }
      ],
      "stateMutability": "nonpayable",
      "type": "constructor"
    },
    {
      "anonymous": false,
      "inputs": [
        {
          "indexed": true,
          "internalType": "address",
          "name": "player",
          "type": "address"
        },
        {
          "indexed": true,
          "internalType": "uint256",
          "name": "tokenId",
          "type": "uint256"
        },
        {
          "indexed": false,
          "internalType": "uint256",
          "name": "achievementTypeId",
          "type": "uint256"
        }
      ],
      "name": "AchievementMinted",
      "type": "event"
    },
    {
      "anonymous": false,
      "inputs": [
        {
          "indexed": true,
          "internalType": "address",
          "name": "owner",
          "type": "address"
        },
        {
          "indexed": true,
          "internalType": "address",
          "name": "approved",
          "type": "address"
        },
        {
          "indexed": true,
          "internalType": "uint256",
          "name": "tokenId",
          "type": "uint256"
        }
      ],
      "name": "Approval",
      "type": "event"
    },
    {
      "anonymous": false,
      "inputs": [
        {
          "indexed": true,
          "internalType": "address",
          "name": "owner",
          "type": "address"
        },
        {
          "indexed": true,
          "internalType": "address",
          "name": "operator",
          "type": "address"
        },
        {
          "indexed": false,
          "internalType": "bool",
          "name": "approved",
          "type": "bool"
        }
      ],
      "name": "ApprovalForAll",
      "type": "event"
    },
    {
      "anonymous": false,
      "inputs": [
        {
          "indexed": true,
          "internalType": "address",
          "name": "from",
          "type": "address"
        },
        {
          "indexed": true,
          "internalType": "address",
          "name": "to",
          "type": "address"
        },
        {
          "indexed": true,
          "internalType": "uint256",
          "name": "tokenId",
          "type": "uint256"
        }
      ],
      "name": "Transfer",
      "type": "event"
    },
    {
      "inputs": [
        {
          "internalType": "uint256",
          "name": "",
          "type": "uint256"
        }
      ],
      "name": "achievementMintPrices",
      "outputs": [
        {
          "internalType": "uint256",
          "name": "",
          "type": "uint256"
        }
      ],
      "stateMutability": "view",
      "type": "function"
    },
    {
      "inputs": [
        {
          "internalType": "uint256",
          "name": "",
          "type": "uint256"
        }
      ],
      "name": "achievementMonthlyLimits",
      "outputs": [
        {
          "internalType": "uint256",
          "name": "",
          "type": "uint256"
        }
      ],
      "stateMutability": "view",
      "type": "function"
    },
    {
      "inputs": [
        {
          "internalType": "uint256",
          "name": "",
          "type": "uint256"
        }
      ],
      "name": "achievementNames",
      "outputs": [
        {
          "internalType": "string",
          "name": "",
          "type": "string"
        }
      ],
      "stateMutability": "view",
      "type": "function"
    },
    {
      "inputs": [
        {
          "internalType": "address",
          "name": "to",
          "type": "address"
        },
        {
          "internalType": "uint256",
          "name": "tokenId",
          "type": "uint256"
        }
      ],
      "name": "approve",
      "outputs": [],
      "stateMutability": "nonpayable",
      "type": "function"
    },
    {
      "inputs": [
        {
          "internalType": "address",
          "name": "account",
          "type": "address"
        }
      ],
      "name": "balanceOf",
      "outputs": [
        {
          "internalType": "uint256",
          "name": "",
          "type": "uint256"
        }
      ],
      "stateMutability": "view",
      "type": "function"
    },
    {
      "inputs": [],
      "name": "baseURI",
      "outputs": [
        {
          "internalType": "string",
          "name": "",
          "type": "string"
        }
      ],
      "stateMutability": "view",
      "type": "function"
    },
    {
      "inputs": [
        {
          "internalType": "uint256",
          "name": "achievementTypeId",
          "type": "uint256"
        },
        {
          "internalType": "uint256",
          "name": "timestamp",
          "type": "uint256"
        },
        {
          "internalType": "string",
          "name": "gameId",
          "type": "string"
        },
        {
          "internalType": "uint8",
          "name": "v",
          "type": "uint8"
        },
        {
          "internalType": "bytes32",
          "name": "r",
          "type": "bytes32"
        },
        {
          "internalType": "bytes32",
          "name": "s",
          "type": "bytes32"
        }
      ],
      "name": "claimNFT",
      "outputs": [
        {
          "internalType": "uint256",
          "name": "",
          "type": "uint256"
        }
      ],
      "stateMutability": "payable",
      "type": "function"
    },
    {
      "inputs": [
        {
          "internalType": "bytes32",
          "name": "",
          "type": "bytes32"
        }
      ],
      "name": "claimRecord",
      "outputs": [
        {
          "internalType": "bool",
          "name": "",
          "type": "bool"
        }
      ],
      "stateMutability": "view",
      "type": "function"
    },
    {
      "inputs": [
        {
          "internalType": "uint256",
          "name": "achievementTypeId",
          "type": "uint256"
        }
      ],
      "name": "getAchievementInfo",
      "outputs": [
        {
          "internalType": "string",
          "name": "name",
          "type": "string"
        },
        {
          "internalType": "uint256",
          "name": "monthlyLimit",
          "type": "uint256"
        },
        {
          "internalType": "uint256",
          "name": "mintPrice",
          "type": "uint256"
        }
      ],
      "stateMutability": "view",
      "type": "function"
    },
    {
      "inputs": [
        {
          "internalType": "uint256",
          "name": "tokenId",
          "type": "uint256"
        }
      ],
      "name": "getApproved",
      "outputs": [
        {
          "internalType": "address",
          "name": "",
          "type": "address"
        }
      ],
      "stateMutability": "view",
      "type": "function"
    },
    {
      "inputs": [
        {
          "internalType": "uint256",
          "name": "achievementTypeId",
          "type": "uint256"
        }
      ],
      "name": "getMonthlyRemaining",
      "outputs": [
        {
          "internalType": "uint256",
          "name": "",
          "type": "uint256"
        }
      ],
      "stateMutability": "view",
      "type": "function"
    },
    {
      "inputs": [
        {
          "internalType": "address",
          "name": "owner_",
          "type": "address"
        },
        {
          "internalType": "address",
          "name": "operator",
          "type": "address"
        }
      ],
      "name": "isApprovedForAll",
      "outputs": [
        {
          "internalType": "bool",
          "name": "",
          "type": "bool"
        }
      ],
      "stateMutability": "view",
      "type": "function"
    },
    {
      "inputs": [
        {
          "internalType": "uint256",
          "name": "",
          "type": "uint256"
        },
        {
          "internalType": "uint256",
          "name": "",
          "type": "uint256"
        }
      ],
      "name": "monthlyMinted",
      "outputs": [
        {
          "internalType": "uint256",
          "name": "",
          "type": "uint256"
        }
      ],
      "stateMutability": "view",
      "type": "function"
    },
    {
      "inputs": [],
      "name": "name",
      "outputs": [
        {
          "internalType": "string",
          "name": "",
          "type": "string"
        }
      ],
      "stateMutability": "view",
      "type": "function"
    },
    {
      "inputs": [],
      "name": "owner",
      "outputs": [
        {
          "internalType": "address",
          "name": "",
          "type": "address"
        }
      ],
      "stateMutability": "view",
      "type": "function"
    },
    {
      "inputs": [
        {
          "internalType": "uint256",
          "name": "tokenId",
          "type": "uint256"
        }
      ],
      "name": "ownerOf",
      "outputs": [
        {
          "internalType": "address",
          "name": "",
          "type": "address"
        }
      ],
      "stateMutability": "view",
      "type": "function"
    },
    {
      "inputs": [
        {
          "internalType": "address",
          "name": "from",
          "type": "address"
        },
        {
          "internalType": "address",
          "name": "to",
          "type": "address"
        },
        {
          "internalType": "uint256",
          "name": "tokenId",
          "type": "uint256"
        }
      ],
      "name": "safeTransferFrom",
      "outputs": [],
      "stateMutability": "nonpayable",
      "type": "function"
    },
    {
      "inputs": [
        {
          "internalType": "address",
          "name": "operator",
          "type": "address"
        },
        {
          "internalType": "bool",
          "name": "approved",
          "type": "bool"
        }
      ],
      "name": "setApprovalForAll",
      "outputs": [],
      "stateMutability": "nonpayable",
      "type": "function"
    },
    {
      "inputs": [
        {
          "internalType": "string",
          "name": "_baseURI",
          "type": "string"
        }
      ],
      "name": "setBaseURI",
      "outputs": [],
      "stateMutability": "nonpayable",
      "type": "function"
    },
    {
      "inputs": [
        {
          "internalType": "address",
          "name": "_signer",
          "type": "address"
        }
      ],
      "name": "setSigner",
      "outputs": [],
      "stateMutability": "nonpayable",
      "type": "function"
    },
    {
      "inputs": [],
      "name": "signatureValidity",
      "outputs": [
        {
          "internalType": "uint256",
          "name": "",
          "type": "uint256"
        }
      ],
      "stateMutability": "view",
      "type": "function"
    },
    {
      "inputs": [],
      "name": "signer",
      "outputs": [
        {
          "internalType": "address",
          "name": "",
          "type": "address"
        }
      ],
      "stateMutability": "view",
      "type": "function"
    },
    {
      "inputs": [
        {
          "internalType": "bytes4",
          "name": "interfaceId",
          "type": "bytes4"
        }
      ],
      "name": "supportsInterface",
      "outputs": [
        {
          "internalType": "bool",
          "name": "",
          "type": "bool"
        }
      ],
      "stateMutability": "pure",
      "type": "function"
    },
    {
      "inputs": [],
      "name": "symbol",
      "outputs": [
        {
          "internalType": "string",
          "name": "",
          "type": "string"
        }
      ],
      "stateMutability": "view",
      "type": "function"
    },
    {
      "inputs": [
        {
          "internalType": "uint256",
          "name": "",
          "type": "uint256"
        }
      ],
      "name": "tokenAchievementType",
      "outputs": [
        {
          "internalType": "uint256",
          "name": "",
          "type": "uint256"
        }
      ],
      "stateMutability": "view",
      "type": "function"
    },
    {
      "inputs": [
        {
          "internalType": "uint256",
          "name": "tokenId",
          "type": "uint256"
        }
      ],
      "name": "tokenURI",
      "outputs": [
        {
          "internalType": "string",
          "name": "",
          "type": "string"
        }
      ],
      "stateMutability": "view",
      "type": "function"
    },
    {
      "inputs": [
        {
          "internalType": "address",
          "name": "from",
          "type": "address"
        },
        {
          "internalType": "address",
          "name": "to",
          "type": "address"
        },
        {
          "internalType": "uint256",
          "name": "tokenId",
          "type": "uint256"
        }
      ],
      "name": "transferFrom",
      "outputs": [],
      "stateMutability": "nonpayable",
      "type": "function"
    },
    {
      "inputs": [
        {
          "internalType": "uint256",
          "name": "achievementTypeId",
          "type": "uint256"
        },
        {
          "internalType": "uint256",
          "name": "monthlyLimit",
          "type": "uint256"
        },
        {
          "internalType": "uint256",
          "name": "mintPrice",
          "type": "uint256"
        }
      ],
      "name": "updateAchievement",
      "outputs": [],
      "stateMutability": "nonpayable",
      "type": "function"
    },
    {
      "inputs": [],
      "name": "withdraw",
      "outputs": [],
      "stateMutability": "nonpayable",
      "type": "function"
    },
    {
      "stateMutability": "payable",
      "type": "receive"
    }
  ],
  "bytecode": "0x60806040523461077057611f728038038061001981610774565b9283398101906040818303126107705780516001600160a01b0381169190829003610770576020810151906001600160401b038211610770570182601f82011215610770578051906001600160401b0382116106ab57610082601f8301601f1916602001610774565b938285526020838301011161077057815f9260208093018387015e840101526100ab5f54610799565b601f8111610733575b507f506f6b657220416368696576656d656e74204e4654000000000000000000002a5f556001546100e490610799565b601f81116106f5575b50600a64141053919560da1b0160015562093a8060065580156106bf57600380546001600160a01b031990811633179091556004805490911691909117905580516001600160401b0381116106ab57610147600554610799565b601f811161066f575b50602091601f821160011461060f579181925f92610604575b50508160011b915f199060031b1c1916176005555b60015f52600b6020527f72c6bfb7988af3a1efa6568f02a999bc52252641c659d85961ca3d372b57d5cf80546101b390610799565b601f81116105e4575b507f526f79616c20466c7573680000000000000000000000000000000000000000169055600a7fd421a5181c571bba3f01190c922c3b2a896fc1d84e86c9f17ac10e67ebef8b5c55624c4b407ffd54ff1ed53f34a900b24c5ba64f85761163b5d82d98a47b9bd80e45466993c55560025f52600b6020527fa50eece07c7db1631545c0069bd8f5f54d5935e215d59097edf258a44ba9163480546102699061026390610799565b826107e7565b7f537472616967687420466c75736800000000000000000000000000000000001c905560147f5d6016397a73f5e079297ac5a36fef17b4d9c3831618e63ab105738020ddd72055624c4b407f10a81eed9d63d16face5e76357905348e6253d3394086026bb2bf2145d7cc2495560035f52600b6020527f64c15cc42be7899b001f818cf4433057002112c418d1d3a67cd5cb453051d33e805461030f9061026390610799565b7f466f7572206f662061204b696e6400000000000000000000000000000000001c905560327fc0da782485e77ae272268ae0a3ff44c1552ecb60b3743924de17a815e0a3cfd755624c4b407f26b4a10d0f0b04925c23bd4480ee147c916e5e87a7d68206a533dad160ac81e25560045f52600b6020527f12d0c11577e2f0950f57c455c117796550b79f444811db8ba2f69c57b646c78480546103b190610799565b601f81116105c4575b507f46756c6c20486f75736500000000000000000000000000000000000000000014905560647f5b84bb9e0f5aa9cc45a8bb66468db5d4816d1e75ff86b5e1f1dd8d144dab809755624c4b407fafafe8948a4ed9d478b1e9a5780b119b5edd00ea7d07bc35bef7c814824eb94b5560055f52600b6020527febae6141bae5521e99e0a8d610356b0f501fea54980b59c84841db43ba7204f4805461045d90610799565b601f81116105a4575b50600a6408cd8eae6d60db1b01905560c87f2cd9ebf6ff19cdd7ffcc447d7c7d47b5991f5c7392a04512134e765802361fa655624c4b407fa5049387d9cb649c59f4bda666105ba636c2a103d8e2b232ba4d125737cd21495560065f52600b6020527f0387e9d1203691d8e3362a7e4c6723de358a4010d7f31ecbec3fbfc61d1c75fc80546104f490610799565b601f8111610584575b507f5374726169676874000000000000000000000000000000000000000000000010905560065f5261012c7f980f427e00e74f6d338adfccc7468518c8c8ea00836d0dce98c5fe154e17bf2b55600d602052624c4b407fa48544818c2c710afa9849c61ec9c60e8acdb3eaa2885f33b37e118cc8fd04ac5560405161176290816108108239f35b61059e90825f52601f60205f20910160051c8101906107d1565b5f6104fd565b6105be90825f52601f60205f20910160051c8101906107d1565b5f610466565b6105de90825f52601f60205f20910160051c8101906107d1565b5f6103ba565b6105fe90825f52601f60205f20910160051c8101906107d1565b5f6101bc565b015190505f80610169565b601f1982169260055f52805f20915f5b8581106106575750836001951061063f575b505050811b0160055561017e565b01515f1960f88460031b161c191690555f8080610631565b9192602060018192868501518155019401920161061f565b61069b9060055f5260205f20601f840160051c810191602085106106a1575b601f0160051c01906107d1565b5f610150565b909150819061068e565b634e487b7160e01b5f52604160045260245ffd5b60405162461bcd60e51b815260206004820152600e60248201526d24b73b30b634b21039b4b3b732b960911b6044820152606490fd5b60015f5261072d90601f0160051c7fb10e2d527612073b26eecdfd717e6a320cf44b4afac2b0732d9fcbe2b7fa0cf6908101906107d1565b5f6100ed565b5f805261076a90601f0160051c7f290decd9548b62a8d60345a988386fc84ba6bc95484008f6362f93160ef3e563908101906107d1565b5f6100b4565b5f80fd5b6040519190601f01601f191682016001600160401b038111838210176106ab57604052565b90600182811c921680156107c7575b60208310146107b357565b634e487b7160e01b5f52602260045260245ffd5b91607f16916107a8565b8181106107dc575050565b5f81556001016107d1565b90601f81116107f4575050565b61080d915f52601f60205f20910160051c8101906107d1565b56fe608080604052600436101561001c575b50361561001a575f80fd5b005b5f3560e01c90816301ffc9a71461114d5750806306fdde0314611131578063081812fc146110dd578063095ea7b314610fbc5780630cf524b914610abe578063238ac93314610a9657806323b872dd14610a415780633ccfd60b14610a4657806342842e0e14610a415780634c34938514610a1757806355f804b3146108535780635a98e566146108295780636352211e146107f957806364e4b8c2146107dc578063688d8903146107715780636c0360eb146106df5780636c19e783146106505780636d8e89d01461062657806370a08231146105e357806371f79dc5146105b9578063852424ae1461058a5780638da5cb5b1461056257806395d89b4114610498578063a22cb4651461040f578063aa599a8f146103a4578063c2dce5761461036e578063c87b56dd14610235578063e985e9c5146101d35763f91cc01314610167575f61000f565b346101cf5760203660031901126101cf576004356101836115d8565b5f52600e60205260405f20815f5260205260405f2054905f52600c60205260405f2054808210155f146101be57505060205f5b604051908152f35b6020916101ca916114eb565b6101b6565b5f80fd5b346101cf5760403660031901126101cf576101ec6112be565b602435906001600160a01b03821682036101cf5760018060a01b03165f52600a60205260405f209060018060a01b03165f52602052602060ff60405f2054166040519015158152f35b346101cf5760203660031901126101cf576004355f8181526007602052604090205461026b906001600160a01b031615156114a1565b805f52601060205261028961028360405f2054611633565b91611633565b90604051905f9060055461029c816111a0565b906001811690811561034c5750600114610309575b5082602061030595816102f195856001965192839101825e0190602f60f81b82528051928391018583015e015f838201520301601f1981018352826111d8565b60405191829160208352602083019061129a565b0390f35b90915060055f525f51602061170d5f395f51905f525f905b828210610336575050820160200190826102b1565b6001816020925483858901015201910190610321565b60ff1916602086810191909152821515909202850190910192508390506102b1565b346101cf5760403660031901126101cf576004355f52600e60205260405f206024355f52602052602060405f2054604051908152f35b346101cf5760603660031901126101cf576004356103cd60018060a01b036003541633146114f8565b600181101580610404575b6103e190611590565b805f52600c60205260243560405f20555f52600d60205260443560405f20555f80f35b5060068111156103d8565b346101cf5760403660031901126101cf576104286112be565b602435908115158092036101cf57335f52600a60205260405f2060018060a01b0382165f5260205260405f2060ff1981541660ff841617905560405191825260018060a01b0316907f17307eab39ab6107e8899845ad3d59bd9653f200f220920489ca2b5937696c3160203392a3005b346101cf575f3660031901126101cf576040515f6001546104b8816111a0565b808452906001811690811561053e57506001146104e0575b610305836102f1818503826111d8565b60015f9081527fb10e2d527612073b26eecdfd717e6a320cf44b4afac2b0732d9fcbe2b7fa0cf6939250905b808210610524575090915081016020016102f16104d0565b91926001816020925483858801015201910190929161050c565b60ff191660208086019190915291151560051b840190910191506102f190506104d0565b346101cf575f3660031901126101cf576003546040516001600160a01b039091168152602090f35b346101cf5760203660031901126101cf576004355f52600f602052602060ff60405f2054166040519015158152f35b346101cf5760203660031901126101cf576004355f52600d602052602060405f2054604051908152f35b346101cf5760203660031901126101cf576001600160a01b036106046112be565b16610610811515611555565b5f526008602052602060405f2054604051908152f35b346101cf5760203660031901126101cf576004355f52600b6020526103056102f160405f206111fa565b346101cf5760203660031901126101cf576106696112be565b61067e60018060a01b036003541633146114f8565b6001600160a01b031680156106a9576bffffffffffffffffffffffff60a01b60045416176004555f80f35b60405162461bcd60e51b815260206004820152600e60248201526d24b73b30b634b21039b4b3b732b960911b6044820152606490fd5b346101cf575f3660031901126101cf576040515f6005546106ff816111a0565b808452906001811690811561053e575060011461072657610305836102f1818503826111d8565b60055f9081525f51602061170d5f395f51905f52939250905b808210610757575090915081016020016102f16104d0565b91926001816020925483858801015201910190929161073f565b346101cf5760203660031901126101cf576107cd600435805f52600b60205260405f2090805f52600c60205260405f2054905f52600d6020526107b860405f2054926111fa565b9160405193849360608552606085019061129a565b91602084015260408301520390f35b346101cf575f3660031901126101cf576020600654604051908152f35b346101cf5760203660031901126101cf576020610817600435611530565b6040516001600160a01b039091168152f35b346101cf5760203660031901126101cf576004355f52600c602052602060405f2054604051908152f35b346101cf5760203660031901126101cf5760043567ffffffffffffffff81116101cf57366023820112156101cf57806004013561088f81611485565b9161089d60405193846111d8565b81835236602483830101116101cf57815f9260246020930183860137830101526108d260018060a01b036003541633146114f8565b805167ffffffffffffffff8111610a03576108ee6005546111a0565b601f811161099b575b50602091601f8211600114610933579181925f92610928575b50505f19600383901b1c191660019190911b17600555005b015190508280610910565b601f1982169260055f525f51602061170d5f395f51905f52915f5b8581106109835750836001951061096b575b505050811b01600555005b01515f1960f88460031b161c19169055828080610960565b9192602060018192868501518155019401920161094e565b60055f52601f820160051c5f51602061170d5f395f51905f520190602083106109ee575b601f0160051c5f51602061170d5f395f51905f5201905b8181106109e357506108f7565b5f81556001016109d6565b5f51602061170d5f395f51905f5291506109bf565b634e487b7160e01b5f52604160045260245ffd5b346101cf5760203660031901126101cf576004355f526010602052602060405f2054604051908152f35b6112d4565b346101cf575f3660031901126101cf575f80808060018060a01b0360035416610a708133146114f8565b4790828215610a8d575bf115610a8257005b6040513d5f823e3d90fd5b506108fc610a7a565b346101cf575f3660031901126101cf576004546040516001600160a01b039091168152602090f35b60c03660031901126101cf5760043560243560443567ffffffffffffffff81116101cf57366023820112156101cf5780600401359067ffffffffffffffff82116101cf57602481019060248336920101116101cf5760643560ff81168091036101cf57600185101580610fb1575b610b3590611590565b845f52600d60205260405f20543410610f7557600654610b5581866115cb565b4211610f3c57610b6590856114eb565b4210610ef757610b736115d8565b5f52600e60205260405f20855f5260205260405f2054855f52600c60205260405f20541115610eba575f6080602092604051848101903360601b988983528a6034830152605482015287876074830137610be06074828a810188838201520301601f1981018352826111d8565b519020604051858101917f19457468657265756d205369676e6564204d6573736167653a0a3332000000008352603c820152603c8152610c21605c826111d8565b5190209060405191825284820152608435604082015260a435606082015282805260015afa15610a82575f516004546001600160a01b03908116911603610e815760206034610c8e92846040519586928584019889528484013781018783820152030180845201826111d8565b519020805f52600f60205260ff60405f205416610e4a575f52600f60205260405f20600160ff19825416179055610cc66002546114dd565b80600255610cd5331515611555565b5f818152600760205260409020546001600160a01b0316610e1657335f52600860205260405f2080549060018201809211610e0257555f81815260076020526040812080546001600160a01b0319163390811790915582917fddf252ad1be2c89b69c2b068fc378daa952ba7f163c4a11628f55a4df523b3ef8180a4805f5260106020528160405f2055610d676115d8565b5f52600e60205260405f20825f5260205260405f20610d8681546114dd565b9055815f52600d60205260405f2054803411610dd5575b50806020926040519081527f226d2a645d7edd4fc8d019b3eae722231277e0665965dba0c711be16ef35ba9e843392a3604051908152f35b5f8080610de38194346114eb565b818115610df9575b3390f115610a825782610d9d565b506108fc610deb565b634e487b7160e01b5f52601160045260245ffd5b60405162461bcd60e51b815260206004820152600c60248201526b546f6b656e2065786973747360a01b6044820152606490fd5b60405162461bcd60e51b815260206004820152600f60248201526e105b1c9958591e4818db185a5b5959608a1b6044820152606490fd5b60405162461bcd60e51b8152602060048201526011602482015270496e76616c6964207369676e617475726560781b6044820152606490fd5b60405162461bcd60e51b8152602060048201526015602482015274135bdb9d1a1b1e481b1a5b5a5d081c995858da1959605a1b6044820152606490fd5b60405162461bcd60e51b815260206004820152601760248201527f5369676e6174757265206e6f742076616c6964207965740000000000000000006044820152606490fd5b60405162461bcd60e51b815260206004820152601160248201527014da59db985d1d5c9948195e1c1a5c9959607a1b6044820152606490fd5b60405162461bcd60e51b8152602060048201526014602482015273125b9cdd59999a58da595b9d081c185e5b595b9d60621b6044820152606490fd5b506006851115610b2c565b346101cf5760403660031901126101cf57610fd56112be565b602435906001600160a01b03610fea83611530565b6001600160a01b0390921691168181146110a8578033148015611086575b15611050575f83815260096020526040812080546001600160a01b031916841790557f8c5be1e5ebec7d5bd14f71427d1e84f3dd0314c0f7b2291e5b200ac8c7c3b9259080a4005b60405162461bcd60e51b815260206004820152600e60248201526d139bdd08185d5d1a1bdc9a5e995960921b6044820152606490fd5b505f818152600a6020908152604080832033845290915290205460ff16611008565b60405162461bcd60e51b815260206004820152600d60248201526c14d95b198b585c1c1c9bdd985b609a1b6044820152606490fd5b346101cf5760203660031901126101cf576004355f81815260076020526040902054611113906001600160a01b031615156114a1565b5f526009602052602060018060a01b0360405f205416604051908152f35b346101cf575f3660031901126101cf576103056102f15f6111fa565b346101cf5760203660031901126101cf576004359063ffffffff60e01b82168092036101cf576020916380ac58cd60e01b811490811561118f575b5015158152f35b635b5e139f60e01b14905083611188565b90600182811c921680156111ce575b60208310146111ba57565b634e487b7160e01b5f52602260045260245ffd5b91607f16916111af565b90601f8019910116810190811067ffffffffffffffff821117610a0357604052565b9060405191825f82549261120d846111a0565b80845293600181169081156112785750600114611234575b50611232925003836111d8565b565b90505f9291925260205f20905f915b81831061125c575050906020611232928201015f611225565b6020919350806001915483858901015201910190918492611243565b90506020925061123294915060ff191682840152151560051b8201015f611225565b805180835260209291819084018484015e5f828201840152601f01601f1916010190565b600435906001600160a01b03821682036101cf57565b346101cf5760603660031901126101cf576004356001600160a01b038116908181036101cf57506024356001600160a01b038116908181036101cf5750604435916001600160a01b0361132684611530565b16803314908115611465575b8115611442575b501561140e57806001600160a01b0361135185611530565b16036113db57611362821515611555565b805f52600860205260405f208054905f198201918211610e025755815f52600860205260405f2080549060018201809211610e0257555f83815260076020526040812080546001600160a01b031916841790557fddf252ad1be2c89b69c2b068fc378daa952ba7f163c4a11628f55a4df523b3ef9080a4005b60405162461bcd60e51b815260206004820152600b60248201526a2bb937b7339037bbb732b960a91b6044820152606490fd5b60405162461bcd60e51b815260206004820152600c60248201526b139bdd08185c1c1c9bdd995960a21b6044820152606490fd5b5f908152600a6020908152604080832033845290915281205460ff169150611339565b5f858152600960205260409020546001600160a01b031633149150611332565b67ffffffffffffffff8111610a0357601f01601f191660200190565b156114a857565b60405162461bcd60e51b815260206004820152600d60248201526c24b73b30b634b2103a37b5b2b760991b6044820152606490fd5b5f198114610e025760010190565b91908203918211610e0257565b156114ff57565b60405162461bcd60e51b81526020600482015260096024820152682737ba1037bbb732b960b91b6044820152606490fd5b5f908152600760205260409020546001600160a01b03166115528115156114a1565b90565b1561155c57565b60405162461bcd60e51b815260206004820152600c60248201526b5a65726f206164647265737360a01b6044820152606490fd5b1561159757565b60405162461bcd60e51b815260206004820152600c60248201526b496e76616c6964207479706560a01b6044820152606490fd5b91908201809211610e0257565b6301e1338042046107b201806107b211610e025762278d006301e133804206049060018201809211610e0257606481029080820460641490151715610e025761155291600c81111561162d5750600c906115cb565b906115cb565b80156116ec575f81805b6116d8575061164b81611485565b9061165960405192836111d8565b808252601f1961166882611485565b013660208401375b809280156116d1575f198201918211610e02578193600a82066030019283603011610e0257845111156116bd57600a9260f81b6001600160f81b0319165f1a908401601f01530491611670565b634e487b7160e01b5f52603260045260245ffd5b5050905090565b906116e4600a916114dd565b91048061163d565b506040516116fb6040826111d8565b60018152600360fc1b60208201529056fe036b6384b5eca791c62761152d0c79bb0604c104a5fb6f4eb0703f3154bb3db0a2646970667358221220adbe9a82e9867f848f5e20dccc907fd6e975f50fbdf2c3855d539b5211afb0a364736f6c634300081b0033",
  "linkReferences": {},
  "deployedLinkReferences": {}
}